{
	"vinci-protocol/contracts/BalanceLinkedList.sol": {
		"BalanceLinkedList": {
			"abi": [
				{
					"inputs": [
						{
							"internalType": "address",
							"name": "_balanceReader",
							"type": "address"
						}
					],
					"stateMutability": "nonpayable",
					"type": "constructor"
				},
				{
					"inputs": [],
					"name": "ZERO_ADDRESS",
					"outputs": [
						{
							"internalType": "address",
							"name": "",
							"type": "address"
						}
					],
					"stateMutability": "view",
					"type": "function"
				},
				{
					"inputs": [
						{
							"internalType": "address",
							"name": "user",
							"type": "address"
						}
					],
					"name": "getFront",
					"outputs": [
						{
							"internalType": "address",
							"name": "",
							"type": "address"
						}
					],
					"stateMutability": "view",
					"type": "function"
				},
				{
					"inputs": [
						{
							"internalType": "uint256",
							"name": "userAccount",
							"type": "uint256"
						}
					],
					"name": "getNewNodeFront",
					"outputs": [
						{
							"internalType": "address",
							"name": "front",
							"type": "address"
						}
					],
					"stateMutability": "view",
					"type": "function"
				},
				{
					"inputs": [
						{
							"internalType": "address",
							"name": "user",
							"type": "address"
						}
					],
					"name": "getNext",
					"outputs": [
						{
							"internalType": "address",
							"name": "",
							"type": "address"
						}
					],
					"stateMutability": "view",
					"type": "function"
				},
				{
					"inputs": [
						{
							"internalType": "uint256[]",
							"name": "list",
							"type": "uint256[]"
						}
					],
					"name": "getNodes",
					"outputs": [
						{
							"internalType": "address[]",
							"name": "",
							"type": "address[]"
						}
					],
					"stateMutability": "view",
					"type": "function"
				},
				{
					"inputs": [
						{
							"internalType": "address",
							"name": "user",
							"type": "address"
						},
						{
							"internalType": "uint256",
							"name": "account",
							"type": "uint256"
						},
						{
							"internalType": "address",
							"name": "front",
							"type": "address"
						}
					],
					"name": "increate",
					"outputs": [],
					"stateMutability": "nonpayable",
					"type": "function"
				},
				{
					"inputs": [],
					"name": "length",
					"outputs": [
						{
							"internalType": "uint256",
							"name": "",
							"type": "uint256"
						}
					],
					"stateMutability": "view",
					"type": "function"
				},
				{
					"inputs": [
						{
							"internalType": "address",
							"name": "",
							"type": "address"
						}
					],
					"name": "nodeTable",
					"outputs": [
						{
							"internalType": "address",
							"name": "current",
							"type": "address"
						},
						{
							"internalType": "address",
							"name": "front",
							"type": "address"
						},
						{
							"internalType": "address",
							"name": "next",
							"type": "address"
						}
					],
					"stateMutability": "view",
					"type": "function"
				},
				{
					"inputs": [
						{
							"internalType": "address",
							"name": "user",
							"type": "address"
						}
					],
					"name": "remove",
					"outputs": [],
					"stateMutability": "nonpayable",
					"type": "function"
				},
				{
					"inputs": [
						{
							"internalType": "address",
							"name": "user",
							"type": "address"
						},
						{
							"internalType": "uint256",
							"name": "account",
							"type": "uint256"
						},
						{
							"internalType": "address",
							"name": "front",
							"type": "address"
						}
					],
					"name": "update",
					"outputs": [],
					"stateMutability": "nonpayable",
					"type": "function"
				}
			],
			"devdoc": {
				"kind": "dev",
				"methods": {},
				"version": 1
			},
			"evm": {
				"assembly": "    /* \"vinci-protocol/contracts/BalanceLinkedList.sol\":108:3703  contract BalanceLinkedList {... */\n  mstore(0x40, 0x80)\n    /* \"vinci-protocol/contracts/BalanceLinkedList.sol\":429:432  0x0 */\n  0x00\n    /* \"vinci-protocol/contracts/BalanceLinkedList.sol\":391:433  address public ZERO_ADDRESS = address(0x0) */\n  0x01\n  exp(0x0100, 0x00)\n  dup2\n  sload\n  dup2\n  0xffffffffffffffffffffffffffffffffffffffff\n  mul\n  not\n  and\n  swap1\n  dup4\n  0xffffffffffffffffffffffffffffffffffffffff\n  and\n  mul\n  or\n  swap1\n  sstore\n  pop\n    /* \"vinci-protocol/contracts/BalanceLinkedList.sol\":466:467  0 */\n  0x00\n    /* \"vinci-protocol/contracts/BalanceLinkedList.sol\":442:467  uint256 public length = 0 */\n  0x02\n  sstore\n    /* \"vinci-protocol/contracts/BalanceLinkedList.sol\":180:280  constructor(address _balanceReader){... */\n  callvalue\n  dup1\n  iszero\n  tag_1\n  jumpi\n  0x00\n  dup1\n  revert\ntag_1:\n  pop\n  mload(0x40)\n  sub(codesize, bytecodeSize)\n  dup1\n  bytecodeSize\n  dup4\n  codecopy\n  dup2\n  dup2\n  add\n  0x40\n  mstore\n  dup2\n  add\n  swap1\n  tag_2\n  swap2\n  swap1\n  tag_3\n  jump\t// in\ntag_2:\n    /* \"vinci-protocol/contracts/BalanceLinkedList.sol\":256:270  _balanceReader */\n  dup1\n    /* \"vinci-protocol/contracts/BalanceLinkedList.sol\":226:239  balanceReader */\n  0x00\n  dup1\n    /* \"vinci-protocol/contracts/BalanceLinkedList.sol\":226:271  balanceReader = BalanceReader(_balanceReader) */\n  0x0100\n  exp\n  dup2\n  sload\n  dup2\n  0xffffffffffffffffffffffffffffffffffffffff\n  mul\n  not\n  and\n  swap1\n  dup4\n  0xffffffffffffffffffffffffffffffffffffffff\n  and\n  mul\n  or\n  swap1\n  sstore\n  pop\n    /* \"vinci-protocol/contracts/BalanceLinkedList.sol\":180:280  constructor(address _balanceReader){... */\n  pop\n    /* \"vinci-protocol/contracts/BalanceLinkedList.sol\":108:3703  contract BalanceLinkedList {... */\n  jump(tag_6)\n    /* \"#utility.yul\":88:205   */\ntag_8:\n    /* \"#utility.yul\":197:198   */\n  0x00\n    /* \"#utility.yul\":194:195   */\n  dup1\n    /* \"#utility.yul\":187:199   */\n  revert\n    /* \"#utility.yul\":334:460   */\ntag_10:\n    /* \"#utility.yul\":371:378   */\n  0x00\n    /* \"#utility.yul\":411:453   */\n  0xffffffffffffffffffffffffffffffffffffffff\n    /* \"#utility.yul\":404:409   */\n  dup3\n    /* \"#utility.yul\":400:454   */\n  and\n    /* \"#utility.yul\":389:454   */\n  swap1\n  pop\n    /* \"#utility.yul\":334:460   */\n  swap2\n  swap1\n  pop\n  jump\t// out\n    /* \"#utility.yul\":466:562   */\ntag_11:\n    /* \"#utility.yul\":503:510   */\n  0x00\n    /* \"#utility.yul\":532:556   */\n  tag_20\n    /* \"#utility.yul\":550:555   */\n  dup3\n    /* \"#utility.yul\":532:556   */\n  tag_10\n  jump\t// in\ntag_20:\n    /* \"#utility.yul\":521:556   */\n  swap1\n  pop\n    /* \"#utility.yul\":466:562   */\n  swap2\n  swap1\n  pop\n  jump\t// out\n    /* \"#utility.yul\":568:690   */\ntag_12:\n    /* \"#utility.yul\":641:665   */\n  tag_22\n    /* \"#utility.yul\":659:664   */\n  dup2\n    /* \"#utility.yul\":641:665   */\n  tag_11\n  jump\t// in\ntag_22:\n    /* \"#utility.yul\":634:639   */\n  dup2\n    /* \"#utility.yul\":631:666   */\n  eq\n    /* \"#utility.yul\":621:684   */\n  tag_23\n  jumpi\n    /* \"#utility.yul\":680:681   */\n  0x00\n    /* \"#utility.yul\":677:678   */\n  dup1\n    /* \"#utility.yul\":670:682   */\n  revert\n    /* \"#utility.yul\":621:684   */\ntag_23:\n    /* \"#utility.yul\":568:690   */\n  pop\n  jump\t// out\n    /* \"#utility.yul\":696:839   */\ntag_13:\n    /* \"#utility.yul\":753:758   */\n  0x00\n    /* \"#utility.yul\":784:790   */\n  dup2\n    /* \"#utility.yul\":778:791   */\n  mload\n    /* \"#utility.yul\":769:791   */\n  swap1\n  pop\n    /* \"#utility.yul\":800:833   */\n  tag_25\n    /* \"#utility.yul\":827:832   */\n  dup2\n    /* \"#utility.yul\":800:833   */\n  tag_12\n  jump\t// in\ntag_25:\n    /* \"#utility.yul\":696:839   */\n  swap3\n  swap2\n  pop\n  pop\n  jump\t// out\n    /* \"#utility.yul\":845:1196   */\ntag_3:\n    /* \"#utility.yul\":915:921   */\n  0x00\n    /* \"#utility.yul\":964:966   */\n  0x20\n    /* \"#utility.yul\":952:961   */\n  dup3\n    /* \"#utility.yul\":943:950   */\n  dup5\n    /* \"#utility.yul\":939:962   */\n  sub\n    /* \"#utility.yul\":935:967   */\n  slt\n    /* \"#utility.yul\":932:1051   */\n  iszero\n  tag_27\n  jumpi\n    /* \"#utility.yul\":970:1049   */\n  tag_28\n  tag_8\n  jump\t// in\ntag_28:\n    /* \"#utility.yul\":932:1051   */\ntag_27:\n    /* \"#utility.yul\":1090:1091   */\n  0x00\n    /* \"#utility.yul\":1115:1179   */\n  tag_29\n    /* \"#utility.yul\":1171:1178   */\n  dup5\n    /* \"#utility.yul\":1162:1168   */\n  dup3\n    /* \"#utility.yul\":1151:1160   */\n  dup6\n    /* \"#utility.yul\":1147:1169   */\n  add\n    /* \"#utility.yul\":1115:1179   */\n  tag_13\n  jump\t// in\ntag_29:\n    /* \"#utility.yul\":1105:1179   */\n  swap2\n  pop\n    /* \"#utility.yul\":1061:1189   */\n  pop\n    /* \"#utility.yul\":845:1196   */\n  swap3\n  swap2\n  pop\n  pop\n  jump\t// out\n    /* \"vinci-protocol/contracts/BalanceLinkedList.sol\":108:3703  contract BalanceLinkedList {... */\ntag_6:\n  dataSize(sub_0)\n  dup1\n  dataOffset(sub_0)\n  0x00\n  codecopy\n  0x00\n  return\nstop\n\nsub_0: assembly {\n        /* \"vinci-protocol/contracts/BalanceLinkedList.sol\":108:3703  contract BalanceLinkedList {... */\n      mstore(0x40, 0x80)\n      callvalue\n      dup1\n      iszero\n      tag_1\n      jumpi\n      0x00\n      dup1\n      revert\n    tag_1:\n      pop\n      jumpi(tag_2, lt(calldatasize, 0x04))\n      shr(0xe0, calldataload(0x00))\n      dup1\n      0x765e0159\n      gt\n      tag_13\n      jumpi\n      dup1\n      0x765e0159\n      eq\n      tag_8\n      jumpi\n      dup1\n      0x819e3503\n      eq\n      tag_9\n      jumpi\n      dup1\n      0x8f52d408\n      eq\n      tag_10\n      jumpi\n      dup1\n      0xa5541c84\n      eq\n      tag_11\n      jumpi\n      dup1\n      0xa5c2cce0\n      eq\n      tag_12\n      jumpi\n      jump(tag_2)\n    tag_13:\n      dup1\n      0x1f7b6d32\n      eq\n      tag_3\n      jumpi\n      dup1\n      0x29092d0e\n      eq\n      tag_4\n      jumpi\n      dup1\n      0x501a5162\n      eq\n      tag_5\n      jumpi\n      dup1\n      0x538ba4f9\n      eq\n      tag_6\n      jumpi\n      dup1\n      0x55da9813\n      eq\n      tag_7\n      jumpi\n    tag_2:\n      0x00\n      dup1\n      revert\n        /* \"vinci-protocol/contracts/BalanceLinkedList.sol\":442:467  uint256 public length = 0 */\n    tag_3:\n      tag_14\n      tag_15\n      jump\t// in\n    tag_14:\n      mload(0x40)\n      tag_16\n      swap2\n      swap1\n      tag_17\n      jump\t// in\n    tag_16:\n      mload(0x40)\n      dup1\n      swap2\n      sub\n      swap1\n      return\n        /* \"vinci-protocol/contracts/BalanceLinkedList.sol\":1585:1857  function remove(address user) onlyBalanceReader external {... */\n    tag_4:\n      tag_18\n      0x04\n      dup1\n      calldatasize\n      sub\n      dup2\n      add\n      swap1\n      tag_19\n      swap2\n      swap1\n      tag_20\n      jump\t// in\n    tag_19:\n      tag_21\n      jump\t// in\n    tag_18:\n      stop\n        /* \"vinci-protocol/contracts/BalanceLinkedList.sol\":2057:2327  function update(address user,uint256 account, address front) onlyBalanceReader external {... */\n    tag_5:\n      tag_22\n      0x04\n      dup1\n      calldatasize\n      sub\n      dup2\n      add\n      swap1\n      tag_23\n      swap2\n      swap1\n      tag_24\n      jump\t// in\n    tag_23:\n      tag_25\n      jump\t// in\n    tag_22:\n      stop\n        /* \"vinci-protocol/contracts/BalanceLinkedList.sol\":391:433  address public ZERO_ADDRESS = address(0x0) */\n    tag_6:\n      tag_26\n      tag_27\n      jump\t// in\n    tag_26:\n      mload(0x40)\n      tag_28\n      swap2\n      swap1\n      tag_29\n      jump\t// in\n    tag_28:\n      mload(0x40)\n      dup1\n      swap2\n      sub\n      swap1\n      return\n        /* \"vinci-protocol/contracts/BalanceLinkedList.sol\":2335:2544  function getFront(address user) view public returns(address){... */\n    tag_7:\n      tag_30\n      0x04\n      dup1\n      calldatasize\n      sub\n      dup2\n      add\n      swap1\n      tag_31\n      swap2\n      swap1\n      tag_20\n      jump\t// in\n    tag_31:\n      tag_32\n      jump\t// in\n    tag_30:\n      mload(0x40)\n      tag_33\n      swap2\n      swap1\n      tag_29\n      jump\t// in\n    tag_33:\n      mload(0x40)\n      dup1\n      swap2\n      sub\n      swap1\n      return\n        /* \"vinci-protocol/contracts/BalanceLinkedList.sol\":2552:2816  function getNext(address user) view public returns(address){... */\n    tag_8:\n      tag_34\n      0x04\n      dup1\n      calldatasize\n      sub\n      dup2\n      add\n      swap1\n      tag_35\n      swap2\n      swap1\n      tag_20\n      jump\t// in\n    tag_35:\n      tag_36\n      jump\t// in\n    tag_34:\n      mload(0x40)\n      tag_37\n      swap2\n      swap1\n      tag_29\n      jump\t// in\n    tag_37:\n      mload(0x40)\n      dup1\n      swap2\n      sub\n      swap1\n      return\n        /* \"vinci-protocol/contracts/BalanceLinkedList.sol\":3385:3698  function getNewNodeFront(uint256 userAccount) view public returns(address front){... */\n    tag_9:\n      tag_38\n      0x04\n      dup1\n      calldatasize\n      sub\n      dup2\n      add\n      swap1\n      tag_39\n      swap2\n      swap1\n      tag_40\n      jump\t// in\n    tag_39:\n      tag_41\n      jump\t// in\n    tag_38:\n      mload(0x40)\n      tag_42\n      swap2\n      swap1\n      tag_29\n      jump\t// in\n    tag_42:\n      mload(0x40)\n      dup1\n      swap2\n      sub\n      swap1\n      return\n        /* \"vinci-protocol/contracts/BalanceLinkedList.sol\":665:880  function increate(address user,uint256 account, address front) onlyBalanceReader external {... */\n    tag_10:\n      tag_43\n      0x04\n      dup1\n      calldatasize\n      sub\n      dup2\n      add\n      swap1\n      tag_44\n      swap2\n      swap1\n      tag_24\n      jump\t// in\n    tag_44:\n      tag_45\n      jump\t// in\n    tag_43:\n      stop\n        /* \"vinci-protocol/contracts/BalanceLinkedList.sol\":2828:3377  function getNodes(... */\n    tag_11:\n      tag_46\n      0x04\n      dup1\n      calldatasize\n      sub\n      dup2\n      add\n      swap1\n      tag_47\n      swap2\n      swap1\n      tag_48\n      jump\t// in\n    tag_47:\n      tag_49\n      jump\t// in\n    tag_46:\n      mload(0x40)\n      tag_50\n      swap2\n      swap1\n      tag_51\n      jump\t// in\n    tag_50:\n      mload(0x40)\n      dup1\n      swap2\n      sub\n      swap1\n      return\n        /* \"vinci-protocol/contracts/BalanceLinkedList.sol\":597:636  mapping(address=>Node) public nodeTable */\n    tag_12:\n      tag_52\n      0x04\n      dup1\n      calldatasize\n      sub\n      dup2\n      add\n      swap1\n      tag_53\n      swap2\n      swap1\n      tag_20\n      jump\t// in\n    tag_53:\n      tag_54\n      jump\t// in\n    tag_52:\n      mload(0x40)\n      tag_55\n      swap4\n      swap3\n      swap2\n      swap1\n      tag_56\n      jump\t// in\n    tag_55:\n      mload(0x40)\n      dup1\n      swap2\n      sub\n      swap1\n      return\n        /* \"vinci-protocol/contracts/BalanceLinkedList.sol\":442:467  uint256 public length = 0 */\n    tag_15:\n      sload(0x02)\n      dup2\n      jump\t// out\n        /* \"vinci-protocol/contracts/BalanceLinkedList.sol\":1585:1857  function remove(address user) onlyBalanceReader external {... */\n    tag_21:\n        /* \"vinci-protocol/contracts/BalanceLinkedList.sol\":550:563  balanceReader */\n      0x00\n      dup1\n      sload\n      swap1\n      0x0100\n      exp\n      swap1\n      div\n      0xffffffffffffffffffffffffffffffffffffffff\n      and\n        /* \"vinci-protocol/contracts/BalanceLinkedList.sol\":528:564  msg.sender == address(balanceReader) */\n      0xffffffffffffffffffffffffffffffffffffffff\n      and\n        /* \"vinci-protocol/contracts/BalanceLinkedList.sol\":528:538  msg.sender */\n      caller\n        /* \"vinci-protocol/contracts/BalanceLinkedList.sol\":528:564  msg.sender == address(balanceReader) */\n      0xffffffffffffffffffffffffffffffffffffffff\n      and\n      eq\n        /* \"vinci-protocol/contracts/BalanceLinkedList.sol\":519:565  require (msg.sender == address(balanceReader)) */\n      tag_58\n      jumpi\n      0x00\n      dup1\n      revert\n    tag_58:\n        /* \"vinci-protocol/contracts/BalanceLinkedList.sol\":1669:1681  ZERO_ADDRESS */\n      0x01\n      0x00\n      swap1\n      sload\n      swap1\n      0x0100\n      exp\n      swap1\n      div\n      0xffffffffffffffffffffffffffffffffffffffff\n      and\n        /* \"vinci-protocol/contracts/BalanceLinkedList.sol\":1661:1681  user != ZERO_ADDRESS */\n      0xffffffffffffffffffffffffffffffffffffffff\n      and\n        /* \"vinci-protocol/contracts/BalanceLinkedList.sol\":1661:1665  user */\n      dup2\n        /* \"vinci-protocol/contracts/BalanceLinkedList.sol\":1661:1681  user != ZERO_ADDRESS */\n      0xffffffffffffffffffffffffffffffffffffffff\n      and\n      sub\n        /* \"vinci-protocol/contracts/BalanceLinkedList.sol\":1653:1682  require(user != ZERO_ADDRESS) */\n      tag_60\n      jumpi\n      0x00\n      dup1\n      revert\n    tag_60:\n        /* \"vinci-protocol/contracts/BalanceLinkedList.sol\":1723:1735  ZERO_ADDRESS */\n      0x01\n      0x00\n      swap1\n      sload\n      swap1\n      0x0100\n      exp\n      swap1\n      div\n      0xffffffffffffffffffffffffffffffffffffffff\n      and\n        /* \"vinci-protocol/contracts/BalanceLinkedList.sol\":1696:1735  nodeTable[user].current != ZERO_ADDRESS */\n      0xffffffffffffffffffffffffffffffffffffffff\n      and\n        /* \"vinci-protocol/contracts/BalanceLinkedList.sol\":1696:1705  nodeTable */\n      0x03\n        /* \"vinci-protocol/contracts/BalanceLinkedList.sol\":1696:1711  nodeTable[user] */\n      0x00\n        /* \"vinci-protocol/contracts/BalanceLinkedList.sol\":1706:1710  user */\n      dup4\n        /* \"vinci-protocol/contracts/BalanceLinkedList.sol\":1696:1711  nodeTable[user] */\n      0xffffffffffffffffffffffffffffffffffffffff\n      and\n      0xffffffffffffffffffffffffffffffffffffffff\n      and\n      dup2\n      mstore\n      0x20\n      add\n      swap1\n      dup2\n      mstore\n      0x20\n      add\n      0x00\n      keccak256\n        /* \"vinci-protocol/contracts/BalanceLinkedList.sol\":1696:1719  nodeTable[user].current */\n      0x00\n      add\n      0x00\n      swap1\n      sload\n      swap1\n      0x0100\n      exp\n      swap1\n      div\n      0xffffffffffffffffffffffffffffffffffffffff\n      and\n        /* \"vinci-protocol/contracts/BalanceLinkedList.sol\":1696:1735  nodeTable[user].current != ZERO_ADDRESS */\n      0xffffffffffffffffffffffffffffffffffffffff\n      and\n      eq\n        /* \"vinci-protocol/contracts/BalanceLinkedList.sol\":1693:1850  if(nodeTable[user].current != ZERO_ADDRESS){... */\n      tag_61\n      jumpi\n        /* \"vinci-protocol/contracts/BalanceLinkedList.sol\":1751:1764  _remove(user) */\n      tag_62\n        /* \"vinci-protocol/contracts/BalanceLinkedList.sol\":1759:1763  user */\n      dup2\n        /* \"vinci-protocol/contracts/BalanceLinkedList.sol\":1751:1758  _remove */\n      tag_63\n        /* \"vinci-protocol/contracts/BalanceLinkedList.sol\":1751:1764  _remove(user) */\n      jump\t// in\n    tag_62:\n        /* \"vinci-protocol/contracts/BalanceLinkedList.sol\":1803:1815  ZERO_ADDRESS */\n      0x01\n      0x00\n      swap1\n      sload\n      swap1\n      0x0100\n      exp\n      swap1\n      div\n      0xffffffffffffffffffffffffffffffffffffffff\n      and\n        /* \"vinci-protocol/contracts/BalanceLinkedList.sol\":1779:1788  nodeTable */\n      0x03\n        /* \"vinci-protocol/contracts/BalanceLinkedList.sol\":1779:1794  nodeTable[user] */\n      0x00\n        /* \"vinci-protocol/contracts/BalanceLinkedList.sol\":1789:1793  user */\n      dup4\n        /* \"vinci-protocol/contracts/BalanceLinkedList.sol\":1779:1794  nodeTable[user] */\n      0xffffffffffffffffffffffffffffffffffffffff\n      and\n      0xffffffffffffffffffffffffffffffffffffffff\n      and\n      dup2\n      mstore\n      0x20\n      add\n      swap1\n      dup2\n      mstore\n      0x20\n      add\n      0x00\n      keccak256\n        /* \"vinci-protocol/contracts/BalanceLinkedList.sol\":1779:1802  nodeTable[user].current */\n      0x00\n      add\n      0x00\n        /* \"vinci-protocol/contracts/BalanceLinkedList.sol\":1779:1815  nodeTable[user].current=ZERO_ADDRESS */\n      0x0100\n      exp\n      dup2\n      sload\n      dup2\n      0xffffffffffffffffffffffffffffffffffffffff\n      mul\n      not\n      and\n      swap1\n      dup4\n      0xffffffffffffffffffffffffffffffffffffffff\n      and\n      mul\n      or\n      swap1\n      sstore\n      pop\n        /* \"vinci-protocol/contracts/BalanceLinkedList.sol\":1830:1836  length */\n      0x02\n      0x00\n        /* \"vinci-protocol/contracts/BalanceLinkedList.sol\":1830:1838  length-- */\n      dup2\n      sload\n      dup1\n      swap3\n      swap2\n      swap1\n      tag_64\n      swap1\n      tag_65\n      jump\t// in\n    tag_64:\n      swap2\n      swap1\n      pop\n      sstore\n      pop\n        /* \"vinci-protocol/contracts/BalanceLinkedList.sol\":1693:1850  if(nodeTable[user].current != ZERO_ADDRESS){... */\n    tag_61:\n        /* \"vinci-protocol/contracts/BalanceLinkedList.sol\":1585:1857  function remove(address user) onlyBalanceReader external {... */\n      pop\n      jump\t// out\n        /* \"vinci-protocol/contracts/BalanceLinkedList.sol\":2057:2327  function update(address user,uint256 account, address front) onlyBalanceReader external {... */\n    tag_25:\n        /* \"vinci-protocol/contracts/BalanceLinkedList.sol\":550:563  balanceReader */\n      0x00\n      dup1\n      sload\n      swap1\n      0x0100\n      exp\n      swap1\n      div\n      0xffffffffffffffffffffffffffffffffffffffff\n      and\n        /* \"vinci-protocol/contracts/BalanceLinkedList.sol\":528:564  msg.sender == address(balanceReader) */\n      0xffffffffffffffffffffffffffffffffffffffff\n      and\n        /* \"vinci-protocol/contracts/BalanceLinkedList.sol\":528:538  msg.sender */\n      caller\n        /* \"vinci-protocol/contracts/BalanceLinkedList.sol\":528:564  msg.sender == address(balanceReader) */\n      0xffffffffffffffffffffffffffffffffffffffff\n      and\n      eq\n        /* \"vinci-protocol/contracts/BalanceLinkedList.sol\":519:565  require (msg.sender == address(balanceReader)) */\n      tag_67\n      jumpi\n      0x00\n      dup1\n      revert\n    tag_67:\n        /* \"vinci-protocol/contracts/BalanceLinkedList.sol\":2186:2198  ZERO_ADDRESS */\n      0x01\n      0x00\n      swap1\n      sload\n      swap1\n      0x0100\n      exp\n      swap1\n      div\n      0xffffffffffffffffffffffffffffffffffffffff\n      and\n        /* \"vinci-protocol/contracts/BalanceLinkedList.sol\":2159:2198  nodeTable[user].current != ZERO_ADDRESS */\n      0xffffffffffffffffffffffffffffffffffffffff\n      and\n        /* \"vinci-protocol/contracts/BalanceLinkedList.sol\":2159:2168  nodeTable */\n      0x03\n        /* \"vinci-protocol/contracts/BalanceLinkedList.sol\":2159:2174  nodeTable[user] */\n      0x00\n        /* \"vinci-protocol/contracts/BalanceLinkedList.sol\":2169:2173  user */\n      dup6\n        /* \"vinci-protocol/contracts/BalanceLinkedList.sol\":2159:2174  nodeTable[user] */\n      0xffffffffffffffffffffffffffffffffffffffff\n      and\n      0xffffffffffffffffffffffffffffffffffffffff\n      and\n      dup2\n      mstore\n      0x20\n      add\n      swap1\n      dup2\n      mstore\n      0x20\n      add\n      0x00\n      keccak256\n        /* \"vinci-protocol/contracts/BalanceLinkedList.sol\":2159:2182  nodeTable[user].current */\n      0x00\n      add\n      0x00\n      swap1\n      sload\n      swap1\n      0x0100\n      exp\n      swap1\n      div\n      0xffffffffffffffffffffffffffffffffffffffff\n      and\n        /* \"vinci-protocol/contracts/BalanceLinkedList.sol\":2159:2198  nodeTable[user].current != ZERO_ADDRESS */\n      0xffffffffffffffffffffffffffffffffffffffff\n      and\n      eq\n        /* \"vinci-protocol/contracts/BalanceLinkedList.sol\":2156:2278  if(nodeTable[user].current != ZERO_ADDRESS){... */\n      tag_69\n      jumpi\n        /* \"vinci-protocol/contracts/BalanceLinkedList.sol\":2214:2227  _remove(user) */\n      tag_70\n        /* \"vinci-protocol/contracts/BalanceLinkedList.sol\":2222:2226  user */\n      dup4\n        /* \"vinci-protocol/contracts/BalanceLinkedList.sol\":2214:2221  _remove */\n      tag_63\n        /* \"vinci-protocol/contracts/BalanceLinkedList.sol\":2214:2227  _remove(user) */\n      jump\t// in\n    tag_70:\n        /* \"vinci-protocol/contracts/BalanceLinkedList.sol\":2156:2278  if(nodeTable[user].current != ZERO_ADDRESS){... */\n      jump(tag_71)\n    tag_69:\n        /* \"vinci-protocol/contracts/BalanceLinkedList.sol\":2258:2264  length */\n      0x02\n      0x00\n        /* \"vinci-protocol/contracts/BalanceLinkedList.sol\":2258:2266  length++ */\n      dup2\n      sload\n      dup1\n      swap3\n      swap2\n      swap1\n      tag_72\n      swap1\n      tag_73\n      jump\t// in\n    tag_72:\n      swap2\n      swap1\n      pop\n      sstore\n      pop\n        /* \"vinci-protocol/contracts/BalanceLinkedList.sol\":2156:2278  if(nodeTable[user].current != ZERO_ADDRESS){... */\n    tag_71:\n        /* \"vinci-protocol/contracts/BalanceLinkedList.sol\":2288:2319  _increate(user, account, front) */\n      tag_74\n        /* \"vinci-protocol/contracts/BalanceLinkedList.sol\":2298:2302  user */\n      dup4\n        /* \"vinci-protocol/contracts/BalanceLinkedList.sol\":2304:2311  account */\n      dup4\n        /* \"vinci-protocol/contracts/BalanceLinkedList.sol\":2313:2318  front */\n      dup4\n        /* \"vinci-protocol/contracts/BalanceLinkedList.sol\":2288:2297  _increate */\n      tag_75\n        /* \"vinci-protocol/contracts/BalanceLinkedList.sol\":2288:2319  _increate(user, account, front) */\n      jump\t// in\n    tag_74:\n        /* \"vinci-protocol/contracts/BalanceLinkedList.sol\":2057:2327  function update(address user,uint256 account, address front) onlyBalanceReader external {... */\n      pop\n      pop\n      pop\n      jump\t// out\n        /* \"vinci-protocol/contracts/BalanceLinkedList.sol\":391:433  address public ZERO_ADDRESS = address(0x0) */\n    tag_27:\n      0x01\n      0x00\n      swap1\n      sload\n      swap1\n      0x0100\n      exp\n      swap1\n      div\n      0xffffffffffffffffffffffffffffffffffffffff\n      and\n      dup2\n      jump\t// out\n        /* \"vinci-protocol/contracts/BalanceLinkedList.sol\":2335:2544  function getFront(address user) view public returns(address){... */\n    tag_32:\n        /* \"vinci-protocol/contracts/BalanceLinkedList.sol\":2387:2394  address */\n      0x00\n        /* \"vinci-protocol/contracts/BalanceLinkedList.sol\":2422:2434  ZERO_ADDRESS */\n      0x01\n      0x00\n      swap1\n      sload\n      swap1\n      0x0100\n      exp\n      swap1\n      div\n      0xffffffffffffffffffffffffffffffffffffffff\n      and\n        /* \"vinci-protocol/contracts/BalanceLinkedList.sol\":2414:2434  user != ZERO_ADDRESS */\n      0xffffffffffffffffffffffffffffffffffffffff\n      and\n        /* \"vinci-protocol/contracts/BalanceLinkedList.sol\":2414:2418  user */\n      dup3\n        /* \"vinci-protocol/contracts/BalanceLinkedList.sol\":2414:2434  user != ZERO_ADDRESS */\n      0xffffffffffffffffffffffffffffffffffffffff\n      and\n      sub\n        /* \"vinci-protocol/contracts/BalanceLinkedList.sol\":2406:2435  require(user != ZERO_ADDRESS) */\n      tag_77\n      jumpi\n      0x00\n      dup1\n      revert\n    tag_77:\n        /* \"vinci-protocol/contracts/BalanceLinkedList.sol\":2481:2493  ZERO_ADDRESS */\n      0x01\n      0x00\n      swap1\n      sload\n      swap1\n      0x0100\n      exp\n      swap1\n      div\n      0xffffffffffffffffffffffffffffffffffffffff\n      and\n        /* \"vinci-protocol/contracts/BalanceLinkedList.sol\":2454:2493  nodeTable[user].current != ZERO_ADDRESS */\n      0xffffffffffffffffffffffffffffffffffffffff\n      and\n        /* \"vinci-protocol/contracts/BalanceLinkedList.sol\":2454:2463  nodeTable */\n      0x03\n        /* \"vinci-protocol/contracts/BalanceLinkedList.sol\":2454:2469  nodeTable[user] */\n      0x00\n        /* \"vinci-protocol/contracts/BalanceLinkedList.sol\":2464:2468  user */\n      dup5\n        /* \"vinci-protocol/contracts/BalanceLinkedList.sol\":2454:2469  nodeTable[user] */\n      0xffffffffffffffffffffffffffffffffffffffff\n      and\n      0xffffffffffffffffffffffffffffffffffffffff\n      and\n      dup2\n      mstore\n      0x20\n      add\n      swap1\n      dup2\n      mstore\n      0x20\n      add\n      0x00\n      keccak256\n        /* \"vinci-protocol/contracts/BalanceLinkedList.sol\":2454:2477  nodeTable[user].current */\n      0x00\n      add\n      0x00\n      swap1\n      sload\n      swap1\n      0x0100\n      exp\n      swap1\n      div\n      0xffffffffffffffffffffffffffffffffffffffff\n      and\n        /* \"vinci-protocol/contracts/BalanceLinkedList.sol\":2454:2493  nodeTable[user].current != ZERO_ADDRESS */\n      0xffffffffffffffffffffffffffffffffffffffff\n      and\n      sub\n        /* \"vinci-protocol/contracts/BalanceLinkedList.sol\":2446:2494  require(nodeTable[user].current != ZERO_ADDRESS) */\n      tag_78\n      jumpi\n      0x00\n      dup1\n      revert\n    tag_78:\n        /* \"vinci-protocol/contracts/BalanceLinkedList.sol\":2515:2524  nodeTable */\n      0x03\n        /* \"vinci-protocol/contracts/BalanceLinkedList.sol\":2515:2530  nodeTable[user] */\n      0x00\n        /* \"vinci-protocol/contracts/BalanceLinkedList.sol\":2525:2529  user */\n      dup4\n        /* \"vinci-protocol/contracts/BalanceLinkedList.sol\":2515:2530  nodeTable[user] */\n      0xffffffffffffffffffffffffffffffffffffffff\n      and\n      0xffffffffffffffffffffffffffffffffffffffff\n      and\n      dup2\n      mstore\n      0x20\n      add\n      swap1\n      dup2\n      mstore\n      0x20\n      add\n      0x00\n      keccak256\n        /* \"vinci-protocol/contracts/BalanceLinkedList.sol\":2515:2536  nodeTable[user].front */\n      0x01\n      add\n      0x00\n      swap1\n      sload\n      swap1\n      0x0100\n      exp\n      swap1\n      div\n      0xffffffffffffffffffffffffffffffffffffffff\n      and\n        /* \"vinci-protocol/contracts/BalanceLinkedList.sol\":2508:2536  return nodeTable[user].front */\n      swap1\n      pop\n        /* \"vinci-protocol/contracts/BalanceLinkedList.sol\":2335:2544  function getFront(address user) view public returns(address){... */\n      swap2\n      swap1\n      pop\n      jump\t// out\n        /* \"vinci-protocol/contracts/BalanceLinkedList.sol\":2552:2816  function getNext(address user) view public returns(address){... */\n    tag_36:\n        /* \"vinci-protocol/contracts/BalanceLinkedList.sol\":2603:2610  address */\n      0x00\n        /* \"vinci-protocol/contracts/BalanceLinkedList.sol\":2638:2650  ZERO_ADDRESS */\n      0x01\n      0x00\n      swap1\n      sload\n      swap1\n      0x0100\n      exp\n      swap1\n      div\n      0xffffffffffffffffffffffffffffffffffffffff\n      and\n        /* \"vinci-protocol/contracts/BalanceLinkedList.sol\":2630:2650  user != ZERO_ADDRESS */\n      0xffffffffffffffffffffffffffffffffffffffff\n      and\n        /* \"vinci-protocol/contracts/BalanceLinkedList.sol\":2630:2634  user */\n      dup3\n        /* \"vinci-protocol/contracts/BalanceLinkedList.sol\":2630:2650  user != ZERO_ADDRESS */\n      0xffffffffffffffffffffffffffffffffffffffff\n      and\n      sub\n        /* \"vinci-protocol/contracts/BalanceLinkedList.sol\":2622:2651  require(user != ZERO_ADDRESS) */\n      tag_80\n      jumpi\n      0x00\n      dup1\n      revert\n    tag_80:\n        /* \"vinci-protocol/contracts/BalanceLinkedList.sol\":2697:2709  ZERO_ADDRESS */\n      0x01\n      0x00\n      swap1\n      sload\n      swap1\n      0x0100\n      exp\n      swap1\n      div\n      0xffffffffffffffffffffffffffffffffffffffff\n      and\n        /* \"vinci-protocol/contracts/BalanceLinkedList.sol\":2670:2709  nodeTable[user].current != ZERO_ADDRESS */\n      0xffffffffffffffffffffffffffffffffffffffff\n      and\n        /* \"vinci-protocol/contracts/BalanceLinkedList.sol\":2670:2679  nodeTable */\n      0x03\n        /* \"vinci-protocol/contracts/BalanceLinkedList.sol\":2670:2685  nodeTable[user] */\n      0x00\n        /* \"vinci-protocol/contracts/BalanceLinkedList.sol\":2680:2684  user */\n      dup5\n        /* \"vinci-protocol/contracts/BalanceLinkedList.sol\":2670:2685  nodeTable[user] */\n      0xffffffffffffffffffffffffffffffffffffffff\n      and\n      0xffffffffffffffffffffffffffffffffffffffff\n      and\n      dup2\n      mstore\n      0x20\n      add\n      swap1\n      dup2\n      mstore\n      0x20\n      add\n      0x00\n      keccak256\n        /* \"vinci-protocol/contracts/BalanceLinkedList.sol\":2670:2693  nodeTable[user].current */\n      0x00\n      add\n      0x00\n      swap1\n      sload\n      swap1\n      0x0100\n      exp\n      swap1\n      div\n      0xffffffffffffffffffffffffffffffffffffffff\n      and\n        /* \"vinci-protocol/contracts/BalanceLinkedList.sol\":2670:2709  nodeTable[user].current != ZERO_ADDRESS */\n      0xffffffffffffffffffffffffffffffffffffffff\n      and\n      sub\n        /* \"vinci-protocol/contracts/BalanceLinkedList.sol\":2662:2710  require(nodeTable[user].current != ZERO_ADDRESS) */\n      tag_81\n      jumpi\n      0x00\n      dup1\n      revert\n    tag_81:\n        /* \"vinci-protocol/contracts/BalanceLinkedList.sol\":2754:2766  ZERO_ADDRESS */\n      0x01\n      0x00\n      swap1\n      sload\n      swap1\n      0x0100\n      exp\n      swap1\n      div\n      0xffffffffffffffffffffffffffffffffffffffff\n      and\n        /* \"vinci-protocol/contracts/BalanceLinkedList.sol\":2730:2766  nodeTable[user].next != ZERO_ADDRESS */\n      0xffffffffffffffffffffffffffffffffffffffff\n      and\n        /* \"vinci-protocol/contracts/BalanceLinkedList.sol\":2730:2739  nodeTable */\n      0x03\n        /* \"vinci-protocol/contracts/BalanceLinkedList.sol\":2730:2745  nodeTable[user] */\n      0x00\n        /* \"vinci-protocol/contracts/BalanceLinkedList.sol\":2740:2744  user */\n      dup5\n        /* \"vinci-protocol/contracts/BalanceLinkedList.sol\":2730:2745  nodeTable[user] */\n      0xffffffffffffffffffffffffffffffffffffffff\n      and\n      0xffffffffffffffffffffffffffffffffffffffff\n      and\n      dup2\n      mstore\n      0x20\n      add\n      swap1\n      dup2\n      mstore\n      0x20\n      add\n      0x00\n      keccak256\n        /* \"vinci-protocol/contracts/BalanceLinkedList.sol\":2730:2750  nodeTable[user].next */\n      0x02\n      add\n      0x00\n      swap1\n      sload\n      swap1\n      0x0100\n      exp\n      swap1\n      div\n      0xffffffffffffffffffffffffffffffffffffffff\n      and\n        /* \"vinci-protocol/contracts/BalanceLinkedList.sol\":2730:2766  nodeTable[user].next != ZERO_ADDRESS */\n      0xffffffffffffffffffffffffffffffffffffffff\n      and\n      sub\n        /* \"vinci-protocol/contracts/BalanceLinkedList.sol\":2722:2767  require(nodeTable[user].next != ZERO_ADDRESS) */\n      tag_82\n      jumpi\n      0x00\n      dup1\n      revert\n    tag_82:\n        /* \"vinci-protocol/contracts/BalanceLinkedList.sol\":2788:2797  nodeTable */\n      0x03\n        /* \"vinci-protocol/contracts/BalanceLinkedList.sol\":2788:2803  nodeTable[user] */\n      0x00\n        /* \"vinci-protocol/contracts/BalanceLinkedList.sol\":2798:2802  user */\n      dup4\n        /* \"vinci-protocol/contracts/BalanceLinkedList.sol\":2788:2803  nodeTable[user] */\n      0xffffffffffffffffffffffffffffffffffffffff\n      and\n      0xffffffffffffffffffffffffffffffffffffffff\n      and\n      dup2\n      mstore\n      0x20\n      add\n      swap1\n      dup2\n      mstore\n      0x20\n      add\n      0x00\n      keccak256\n        /* \"vinci-protocol/contracts/BalanceLinkedList.sol\":2788:2808  nodeTable[user].next */\n      0x02\n      add\n      0x00\n      swap1\n      sload\n      swap1\n      0x0100\n      exp\n      swap1\n      div\n      0xffffffffffffffffffffffffffffffffffffffff\n      and\n        /* \"vinci-protocol/contracts/BalanceLinkedList.sol\":2781:2808  return nodeTable[user].next */\n      swap1\n      pop\n        /* \"vinci-protocol/contracts/BalanceLinkedList.sol\":2552:2816  function getNext(address user) view public returns(address){... */\n      swap2\n      swap1\n      pop\n      jump\t// out\n        /* \"vinci-protocol/contracts/BalanceLinkedList.sol\":3385:3698  function getNewNodeFront(uint256 userAccount) view public returns(address front){... */\n    tag_41:\n        /* \"vinci-protocol/contracts/BalanceLinkedList.sol\":3451:3464  address front */\n      0x00\n        /* \"vinci-protocol/contracts/BalanceLinkedList.sol\":3498:3499  0 */\n      dup1\n        /* \"vinci-protocol/contracts/BalanceLinkedList.sol\":3484:3495  userAccount */\n      dup3\n        /* \"vinci-protocol/contracts/BalanceLinkedList.sol\":3484:3499  userAccount > 0 */\n      gt\n        /* \"vinci-protocol/contracts/BalanceLinkedList.sol\":3476:3500  require(userAccount > 0) */\n      tag_84\n      jumpi\n      0x00\n      dup1\n      revert\n    tag_84:\n        /* \"vinci-protocol/contracts/BalanceLinkedList.sol\":3511:3523  address temp */\n      0x00\n        /* \"vinci-protocol/contracts/BalanceLinkedList.sol\":3526:3535  nodeTable */\n      0x03\n        /* \"vinci-protocol/contracts/BalanceLinkedList.sol\":3526:3549  nodeTable[ZERO_ADDRESS] */\n      0x00\n        /* \"vinci-protocol/contracts/BalanceLinkedList.sol\":3536:3548  ZERO_ADDRESS */\n      0x01\n      0x00\n      swap1\n      sload\n      swap1\n      0x0100\n      exp\n      swap1\n      div\n      0xffffffffffffffffffffffffffffffffffffffff\n      and\n        /* \"vinci-protocol/contracts/BalanceLinkedList.sol\":3526:3549  nodeTable[ZERO_ADDRESS] */\n      0xffffffffffffffffffffffffffffffffffffffff\n      and\n      0xffffffffffffffffffffffffffffffffffffffff\n      and\n      dup2\n      mstore\n      0x20\n      add\n      swap1\n      dup2\n      mstore\n      0x20\n      add\n      0x00\n      keccak256\n        /* \"vinci-protocol/contracts/BalanceLinkedList.sol\":3526:3554  nodeTable[ZERO_ADDRESS].next */\n      0x02\n      add\n      0x00\n      swap1\n      sload\n      swap1\n      0x0100\n      exp\n      swap1\n      div\n      0xffffffffffffffffffffffffffffffffffffffff\n      and\n        /* \"vinci-protocol/contracts/BalanceLinkedList.sol\":3511:3554  address temp = nodeTable[ZERO_ADDRESS].next */\n      swap1\n      pop\n        /* \"vinci-protocol/contracts/BalanceLinkedList.sol\":3565:3669  while(balanceReader.balanceOf(temp) > userAccount){... */\n    tag_85:\n        /* \"vinci-protocol/contracts/BalanceLinkedList.sol\":3603:3614  userAccount */\n      dup3\n        /* \"vinci-protocol/contracts/BalanceLinkedList.sol\":3571:3584  balanceReader */\n      0x00\n      dup1\n      sload\n      swap1\n      0x0100\n      exp\n      swap1\n      div\n      0xffffffffffffffffffffffffffffffffffffffff\n      and\n        /* \"vinci-protocol/contracts/BalanceLinkedList.sol\":3571:3594  balanceReader.balanceOf */\n      0xffffffffffffffffffffffffffffffffffffffff\n      and\n      0x70a08231\n        /* \"vinci-protocol/contracts/BalanceLinkedList.sol\":3595:3599  temp */\n      dup4\n        /* \"vinci-protocol/contracts/BalanceLinkedList.sol\":3571:3600  balanceReader.balanceOf(temp) */\n      mload(0x40)\n      dup3\n      0xffffffff\n      and\n      0xe0\n      shl\n      dup2\n      mstore\n      0x04\n      add\n      tag_87\n      swap2\n      swap1\n      tag_29\n      jump\t// in\n    tag_87:\n      0x20\n      mload(0x40)\n      dup1\n      dup4\n      sub\n      dup2\n      dup7\n      gas\n      staticcall\n      iszero\n      dup1\n      iszero\n      tag_89\n      jumpi\n      returndatasize\n      0x00\n      dup1\n      returndatacopy\n      revert(0x00, returndatasize)\n    tag_89:\n      pop\n      pop\n      pop\n      pop\n      mload(0x40)\n      returndatasize\n      not(0x1f)\n      0x1f\n      dup3\n      add\n      and\n      dup3\n      add\n      dup1\n      0x40\n      mstore\n      pop\n      dup2\n      add\n      swap1\n      tag_90\n      swap2\n      swap1\n      tag_91\n      jump\t// in\n    tag_90:\n        /* \"vinci-protocol/contracts/BalanceLinkedList.sol\":3571:3614  balanceReader.balanceOf(temp) > userAccount */\n      gt\n        /* \"vinci-protocol/contracts/BalanceLinkedList.sol\":3565:3669  while(balanceReader.balanceOf(temp) > userAccount){... */\n      iszero\n      tag_86\n      jumpi\n        /* \"vinci-protocol/contracts/BalanceLinkedList.sol\":3637:3646  nodeTable */\n      0x03\n        /* \"vinci-protocol/contracts/BalanceLinkedList.sol\":3637:3652  nodeTable[temp] */\n      0x00\n        /* \"vinci-protocol/contracts/BalanceLinkedList.sol\":3647:3651  temp */\n      dup3\n        /* \"vinci-protocol/contracts/BalanceLinkedList.sol\":3637:3652  nodeTable[temp] */\n      0xffffffffffffffffffffffffffffffffffffffff\n      and\n      0xffffffffffffffffffffffffffffffffffffffff\n      and\n      dup2\n      mstore\n      0x20\n      add\n      swap1\n      dup2\n      mstore\n      0x20\n      add\n      0x00\n      keccak256\n        /* \"vinci-protocol/contracts/BalanceLinkedList.sol\":3637:3657  nodeTable[temp].next */\n      0x02\n      add\n      0x00\n      swap1\n      sload\n      swap1\n      0x0100\n      exp\n      swap1\n      div\n      0xffffffffffffffffffffffffffffffffffffffff\n      and\n        /* \"vinci-protocol/contracts/BalanceLinkedList.sol\":3630:3657  temp = nodeTable[temp].next */\n      swap1\n      pop\n        /* \"vinci-protocol/contracts/BalanceLinkedList.sol\":3565:3669  while(balanceReader.balanceOf(temp) > userAccount){... */\n      jump(tag_85)\n    tag_86:\n        /* \"vinci-protocol/contracts/BalanceLinkedList.sol\":3686:3690  temp */\n      dup1\n        /* \"vinci-protocol/contracts/BalanceLinkedList.sol\":3679:3690  return temp */\n      swap2\n      pop\n      pop\n        /* \"vinci-protocol/contracts/BalanceLinkedList.sol\":3385:3698  function getNewNodeFront(uint256 userAccount) view public returns(address front){... */\n      swap2\n      swap1\n      pop\n      jump\t// out\n        /* \"vinci-protocol/contracts/BalanceLinkedList.sol\":665:880  function increate(address user,uint256 account, address front) onlyBalanceReader external {... */\n    tag_45:\n        /* \"vinci-protocol/contracts/BalanceLinkedList.sol\":550:563  balanceReader */\n      0x00\n      dup1\n      sload\n      swap1\n      0x0100\n      exp\n      swap1\n      div\n      0xffffffffffffffffffffffffffffffffffffffff\n      and\n        /* \"vinci-protocol/contracts/BalanceLinkedList.sol\":528:564  msg.sender == address(balanceReader) */\n      0xffffffffffffffffffffffffffffffffffffffff\n      and\n        /* \"vinci-protocol/contracts/BalanceLinkedList.sol\":528:538  msg.sender */\n      caller\n        /* \"vinci-protocol/contracts/BalanceLinkedList.sol\":528:564  msg.sender == address(balanceReader) */\n      0xffffffffffffffffffffffffffffffffffffffff\n      and\n      eq\n        /* \"vinci-protocol/contracts/BalanceLinkedList.sol\":519:565  require (msg.sender == address(balanceReader)) */\n      tag_93\n      jumpi\n      0x00\n      dup1\n      revert\n    tag_93:\n        /* \"vinci-protocol/contracts/BalanceLinkedList.sol\":799:811  ZERO_ADDRESS */\n      0x01\n      0x00\n      swap1\n      sload\n      swap1\n      0x0100\n      exp\n      swap1\n      div\n      0xffffffffffffffffffffffffffffffffffffffff\n      and\n        /* \"vinci-protocol/contracts/BalanceLinkedList.sol\":774:811  nodeTable[user].current==ZERO_ADDRESS */\n      0xffffffffffffffffffffffffffffffffffffffff\n      and\n        /* \"vinci-protocol/contracts/BalanceLinkedList.sol\":774:783  nodeTable */\n      0x03\n        /* \"vinci-protocol/contracts/BalanceLinkedList.sol\":774:789  nodeTable[user] */\n      0x00\n        /* \"vinci-protocol/contracts/BalanceLinkedList.sol\":784:788  user */\n      dup6\n        /* \"vinci-protocol/contracts/BalanceLinkedList.sol\":774:789  nodeTable[user] */\n      0xffffffffffffffffffffffffffffffffffffffff\n      and\n      0xffffffffffffffffffffffffffffffffffffffff\n      and\n      dup2\n      mstore\n      0x20\n      add\n      swap1\n      dup2\n      mstore\n      0x20\n      add\n      0x00\n      keccak256\n        /* \"vinci-protocol/contracts/BalanceLinkedList.sol\":774:797  nodeTable[user].current */\n      0x00\n      add\n      0x00\n      swap1\n      sload\n      swap1\n      0x0100\n      exp\n      swap1\n      div\n      0xffffffffffffffffffffffffffffffffffffffff\n      and\n        /* \"vinci-protocol/contracts/BalanceLinkedList.sol\":774:811  nodeTable[user].current==ZERO_ADDRESS */\n      0xffffffffffffffffffffffffffffffffffffffff\n      and\n      eq\n        /* \"vinci-protocol/contracts/BalanceLinkedList.sol\":766:812  require(nodeTable[user].current==ZERO_ADDRESS) */\n      tag_95\n      jumpi\n      0x00\n      dup1\n      revert\n    tag_95:\n        /* \"vinci-protocol/contracts/BalanceLinkedList.sol\":824:853  _increate(user,account,front) */\n      tag_96\n        /* \"vinci-protocol/contracts/BalanceLinkedList.sol\":834:838  user */\n      dup4\n        /* \"vinci-protocol/contracts/BalanceLinkedList.sol\":839:846  account */\n      dup4\n        /* \"vinci-protocol/contracts/BalanceLinkedList.sol\":847:852  front */\n      dup4\n        /* \"vinci-protocol/contracts/BalanceLinkedList.sol\":824:833  _increate */\n      tag_75\n        /* \"vinci-protocol/contracts/BalanceLinkedList.sol\":824:853  _increate(user,account,front) */\n      jump\t// in\n    tag_96:\n        /* \"vinci-protocol/contracts/BalanceLinkedList.sol\":864:870  length */\n      0x02\n      0x00\n        /* \"vinci-protocol/contracts/BalanceLinkedList.sol\":864:872  length++ */\n      dup2\n      sload\n      dup1\n      swap3\n      swap2\n      swap1\n      tag_97\n      swap1\n      tag_73\n      jump\t// in\n    tag_97:\n      swap2\n      swap1\n      pop\n      sstore\n      pop\n        /* \"vinci-protocol/contracts/BalanceLinkedList.sol\":665:880  function increate(address user,uint256 account, address front) onlyBalanceReader external {... */\n      pop\n      pop\n      pop\n      jump\t// out\n        /* \"vinci-protocol/contracts/BalanceLinkedList.sol\":2828:3377  function getNodes(... */\n    tag_49:\n        /* \"vinci-protocol/contracts/BalanceLinkedList.sol\":2909:2925  address[] memory */\n      0x60\n        /* \"vinci-protocol/contracts/BalanceLinkedList.sol\":2938:2967  address[] memory selectedNode */\n      0x00\n        /* \"vinci-protocol/contracts/BalanceLinkedList.sol\":2984:2988  list */\n      dup4\n      dup4\n        /* \"vinci-protocol/contracts/BalanceLinkedList.sol\":2984:2995  list.length */\n      swap1\n      pop\n        /* \"vinci-protocol/contracts/BalanceLinkedList.sol\":2970:2996  new address[](list.length) */\n      0xffffffffffffffff\n      dup2\n      gt\n      iszero\n      tag_99\n      jumpi\n      tag_100\n      tag_101\n      jump\t// in\n    tag_100:\n    tag_99:\n      mload(0x40)\n      swap1\n      dup1\n      dup3\n      mstore\n      dup1\n      0x20\n      mul\n      0x20\n      add\n      dup3\n      add\n      0x40\n      mstore\n      dup1\n      iszero\n      tag_102\n      jumpi\n      dup2\n      0x20\n      add\n      0x20\n      dup3\n      mul\n      dup1\n      calldatasize\n      dup4\n      calldatacopy\n      dup1\n      dup3\n      add\n      swap2\n      pop\n      pop\n      swap1\n      pop\n    tag_102:\n      pop\n        /* \"vinci-protocol/contracts/BalanceLinkedList.sol\":2938:2996  address[] memory selectedNode = new address[](list.length) */\n      swap1\n      pop\n        /* \"vinci-protocol/contracts/BalanceLinkedList.sol\":3007:3020  uint256 index */\n      0x00\n        /* \"vinci-protocol/contracts/BalanceLinkedList.sol\":3035:3058  Node memory currentNode */\n      dup1\n        /* \"vinci-protocol/contracts/BalanceLinkedList.sol\":3061:3070  nodeTable */\n      0x03\n        /* \"vinci-protocol/contracts/BalanceLinkedList.sol\":3061:3082  nodeTable[address(0)] */\n      0x00\n        /* \"vinci-protocol/contracts/BalanceLinkedList.sol\":3079:3080  0 */\n      dup1\n        /* \"vinci-protocol/contracts/BalanceLinkedList.sol\":3061:3082  nodeTable[address(0)] */\n      0xffffffffffffffffffffffffffffffffffffffff\n      and\n      0xffffffffffffffffffffffffffffffffffffffff\n      and\n      dup2\n      mstore\n      0x20\n      add\n      swap1\n      dup2\n      mstore\n      0x20\n      add\n      0x00\n      keccak256\n        /* \"vinci-protocol/contracts/BalanceLinkedList.sol\":3035:3082  Node memory currentNode = nodeTable[address(0)] */\n      mload(0x40)\n      dup1\n      0x60\n      add\n      0x40\n      mstore\n      swap1\n      dup2\n      0x00\n      dup3\n      add\n      0x00\n      swap1\n      sload\n      swap1\n      0x0100\n      exp\n      swap1\n      div\n      0xffffffffffffffffffffffffffffffffffffffff\n      and\n      0xffffffffffffffffffffffffffffffffffffffff\n      and\n      0xffffffffffffffffffffffffffffffffffffffff\n      and\n      dup2\n      mstore\n      0x20\n      add\n      0x01\n      dup3\n      add\n      0x00\n      swap1\n      sload\n      swap1\n      0x0100\n      exp\n      swap1\n      div\n      0xffffffffffffffffffffffffffffffffffffffff\n      and\n      0xffffffffffffffffffffffffffffffffffffffff\n      and\n      0xffffffffffffffffffffffffffffffffffffffff\n      and\n      dup2\n      mstore\n      0x20\n      add\n      0x02\n      dup3\n      add\n      0x00\n      swap1\n      sload\n      swap1\n      0x0100\n      exp\n      swap1\n      div\n      0xffffffffffffffffffffffffffffffffffffffff\n      and\n      0xffffffffffffffffffffffffffffffffffffffff\n      and\n      0xffffffffffffffffffffffffffffffffffffffff\n      and\n      dup2\n      mstore\n      pop\n      pop\n      swap1\n      pop\n        /* \"vinci-protocol/contracts/BalanceLinkedList.sol\":3098:3107  uint256 i */\n      0x00\n        /* \"vinci-protocol/contracts/BalanceLinkedList.sol\":3093:3340  for (uint256 i = 0; i < list.length; i++) {... */\n    tag_103:\n        /* \"vinci-protocol/contracts/BalanceLinkedList.sol\":3117:3121  list */\n      dup7\n      dup7\n        /* \"vinci-protocol/contracts/BalanceLinkedList.sol\":3117:3128  list.length */\n      swap1\n      pop\n        /* \"vinci-protocol/contracts/BalanceLinkedList.sol\":3113:3114  i */\n      dup2\n        /* \"vinci-protocol/contracts/BalanceLinkedList.sol\":3113:3128  i < list.length */\n      lt\n        /* \"vinci-protocol/contracts/BalanceLinkedList.sol\":3093:3340  for (uint256 i = 0; i < list.length; i++) {... */\n      iszero\n      tag_104\n      jumpi\n        /* \"vinci-protocol/contracts/BalanceLinkedList.sol\":3150:3277  while (index != list[i]) {... */\n    tag_106:\n        /* \"vinci-protocol/contracts/BalanceLinkedList.sol\":3166:3170  list */\n      dup7\n      dup7\n        /* \"vinci-protocol/contracts/BalanceLinkedList.sol\":3171:3172  i */\n      dup3\n        /* \"vinci-protocol/contracts/BalanceLinkedList.sol\":3166:3173  list[i] */\n      dup2\n      dup2\n      lt\n      tag_108\n      jumpi\n      tag_109\n      tag_110\n      jump\t// in\n    tag_109:\n    tag_108:\n      swap1\n      pop\n      0x20\n      mul\n      add\n      calldataload\n        /* \"vinci-protocol/contracts/BalanceLinkedList.sol\":3157:3162  index */\n      dup4\n        /* \"vinci-protocol/contracts/BalanceLinkedList.sol\":3157:3173  index != list[i] */\n      eq\n        /* \"vinci-protocol/contracts/BalanceLinkedList.sol\":3150:3277  while (index != list[i]) {... */\n      tag_107\n      jumpi\n        /* \"vinci-protocol/contracts/BalanceLinkedList.sol\":3208:3217  nodeTable */\n      0x03\n        /* \"vinci-protocol/contracts/BalanceLinkedList.sol\":3208:3235  nodeTable[currentNode.next] */\n      0x00\n        /* \"vinci-protocol/contracts/BalanceLinkedList.sol\":3218:3229  currentNode */\n      dup4\n        /* \"vinci-protocol/contracts/BalanceLinkedList.sol\":3218:3234  currentNode.next */\n      0x40\n      add\n      mload\n        /* \"vinci-protocol/contracts/BalanceLinkedList.sol\":3208:3235  nodeTable[currentNode.next] */\n      0xffffffffffffffffffffffffffffffffffffffff\n      and\n      0xffffffffffffffffffffffffffffffffffffffff\n      and\n      dup2\n      mstore\n      0x20\n      add\n      swap1\n      dup2\n      mstore\n      0x20\n      add\n      0x00\n      keccak256\n        /* \"vinci-protocol/contracts/BalanceLinkedList.sol\":3194:3235  currentNode = nodeTable[currentNode.next] */\n      mload(0x40)\n      dup1\n      0x60\n      add\n      0x40\n      mstore\n      swap1\n      dup2\n      0x00\n      dup3\n      add\n      0x00\n      swap1\n      sload\n      swap1\n      0x0100\n      exp\n      swap1\n      div\n      0xffffffffffffffffffffffffffffffffffffffff\n      and\n      0xffffffffffffffffffffffffffffffffffffffff\n      and\n      0xffffffffffffffffffffffffffffffffffffffff\n      and\n      dup2\n      mstore\n      0x20\n      add\n      0x01\n      dup3\n      add\n      0x00\n      swap1\n      sload\n      swap1\n      0x0100\n      exp\n      swap1\n      div\n      0xffffffffffffffffffffffffffffffffffffffff\n      and\n      0xffffffffffffffffffffffffffffffffffffffff\n      and\n      0xffffffffffffffffffffffffffffffffffffffff\n      and\n      dup2\n      mstore\n      0x20\n      add\n      0x02\n      dup3\n      add\n      0x00\n      swap1\n      sload\n      swap1\n      0x0100\n      exp\n      swap1\n      div\n      0xffffffffffffffffffffffffffffffffffffffff\n      and\n      0xffffffffffffffffffffffffffffffffffffffff\n      and\n      0xffffffffffffffffffffffffffffffffffffffff\n      and\n      dup2\n      mstore\n      pop\n      pop\n      swap2\n      pop\n        /* \"vinci-protocol/contracts/BalanceLinkedList.sol\":3254:3261  index++ */\n      dup3\n      dup1\n      tag_111\n      swap1\n      tag_73\n      jump\t// in\n    tag_111:\n      swap4\n      pop\n      pop\n        /* \"vinci-protocol/contracts/BalanceLinkedList.sol\":3150:3277  while (index != list[i]) {... */\n      jump(tag_106)\n    tag_107:\n        /* \"vinci-protocol/contracts/BalanceLinkedList.sol\":3309:3320  currentNode */\n      dup2\n        /* \"vinci-protocol/contracts/BalanceLinkedList.sol\":3309:3328  currentNode.current */\n      0x00\n      add\n      mload\n        /* \"vinci-protocol/contracts/BalanceLinkedList.sol\":3291:3303  selectedNode */\n      dup5\n        /* \"vinci-protocol/contracts/BalanceLinkedList.sol\":3304:3305  i */\n      dup3\n        /* \"vinci-protocol/contracts/BalanceLinkedList.sol\":3291:3306  selectedNode[i] */\n      dup2\n      mload\n      dup2\n      lt\n      tag_112\n      jumpi\n      tag_113\n      tag_110\n      jump\t// in\n    tag_113:\n    tag_112:\n      0x20\n      mul\n      0x20\n      add\n      add\n        /* \"vinci-protocol/contracts/BalanceLinkedList.sol\":3291:3328  selectedNode[i] = currentNode.current */\n      swap1\n      0xffffffffffffffffffffffffffffffffffffffff\n      and\n      swap1\n      dup2\n      0xffffffffffffffffffffffffffffffffffffffff\n      and\n      dup2\n      mstore\n      pop\n      pop\n        /* \"vinci-protocol/contracts/BalanceLinkedList.sol\":3130:3133  i++ */\n      dup1\n      dup1\n      tag_114\n      swap1\n      tag_73\n      jump\t// in\n    tag_114:\n      swap2\n      pop\n      pop\n        /* \"vinci-protocol/contracts/BalanceLinkedList.sol\":3093:3340  for (uint256 i = 0; i < list.length; i++) {... */\n      jump(tag_103)\n    tag_104:\n      pop\n        /* \"vinci-protocol/contracts/BalanceLinkedList.sol\":3357:3369  selectedNode */\n      dup3\n        /* \"vinci-protocol/contracts/BalanceLinkedList.sol\":3350:3369  return selectedNode */\n      swap4\n      pop\n      pop\n      pop\n      pop\n        /* \"vinci-protocol/contracts/BalanceLinkedList.sol\":2828:3377  function getNodes(... */\n      swap3\n      swap2\n      pop\n      pop\n      jump\t// out\n        /* \"vinci-protocol/contracts/BalanceLinkedList.sol\":597:636  mapping(address=>Node) public nodeTable */\n    tag_54:\n      mstore(0x20, 0x03)\n      dup1\n      0x00\n      mstore\n      keccak256(0x00, 0x40)\n      0x00\n      swap2\n      pop\n      swap1\n      pop\n      dup1\n      0x00\n      add\n      0x00\n      swap1\n      sload\n      swap1\n      0x0100\n      exp\n      swap1\n      div\n      0xffffffffffffffffffffffffffffffffffffffff\n      and\n      swap1\n      dup1\n      0x01\n      add\n      0x00\n      swap1\n      sload\n      swap1\n      0x0100\n      exp\n      swap1\n      div\n      0xffffffffffffffffffffffffffffffffffffffff\n      and\n      swap1\n      dup1\n      0x02\n      add\n      0x00\n      swap1\n      sload\n      swap1\n      0x0100\n      exp\n      swap1\n      div\n      0xffffffffffffffffffffffffffffffffffffffff\n      and\n      swap1\n      pop\n      dup4\n      jump\t// out\n        /* \"vinci-protocol/contracts/BalanceLinkedList.sol\":1865:2049  function _remove(address user)private{... */\n    tag_63:\n        /* \"vinci-protocol/contracts/BalanceLinkedList.sol\":1951:1960  nodeTable */\n      0x03\n        /* \"vinci-protocol/contracts/BalanceLinkedList.sol\":1951:1966  nodeTable[user] */\n      0x00\n        /* \"vinci-protocol/contracts/BalanceLinkedList.sol\":1961:1965  user */\n      dup3\n        /* \"vinci-protocol/contracts/BalanceLinkedList.sol\":1951:1966  nodeTable[user] */\n      0xffffffffffffffffffffffffffffffffffffffff\n      and\n      0xffffffffffffffffffffffffffffffffffffffff\n      and\n      dup2\n      mstore\n      0x20\n      add\n      swap1\n      dup2\n      mstore\n      0x20\n      add\n      0x00\n      keccak256\n        /* \"vinci-protocol/contracts/BalanceLinkedList.sol\":1951:1971  nodeTable[user].next */\n      0x02\n      add\n      0x00\n      swap1\n      sload\n      swap1\n      0x0100\n      exp\n      swap1\n      div\n      0xffffffffffffffffffffffffffffffffffffffff\n      and\n        /* \"vinci-protocol/contracts/BalanceLinkedList.sol\":1913:1922  nodeTable */\n      0x03\n        /* \"vinci-protocol/contracts/BalanceLinkedList.sol\":1913:1945  nodeTable[nodeTable[user].front] */\n      0x00\n        /* \"vinci-protocol/contracts/BalanceLinkedList.sol\":1923:1932  nodeTable */\n      0x03\n        /* \"vinci-protocol/contracts/BalanceLinkedList.sol\":1923:1938  nodeTable[user] */\n      0x00\n        /* \"vinci-protocol/contracts/BalanceLinkedList.sol\":1933:1937  user */\n      dup6\n        /* \"vinci-protocol/contracts/BalanceLinkedList.sol\":1923:1938  nodeTable[user] */\n      0xffffffffffffffffffffffffffffffffffffffff\n      and\n      0xffffffffffffffffffffffffffffffffffffffff\n      and\n      dup2\n      mstore\n      0x20\n      add\n      swap1\n      dup2\n      mstore\n      0x20\n      add\n      0x00\n      keccak256\n        /* \"vinci-protocol/contracts/BalanceLinkedList.sol\":1923:1944  nodeTable[user].front */\n      0x01\n      add\n      0x00\n      swap1\n      sload\n      swap1\n      0x0100\n      exp\n      swap1\n      div\n      0xffffffffffffffffffffffffffffffffffffffff\n      and\n        /* \"vinci-protocol/contracts/BalanceLinkedList.sol\":1913:1945  nodeTable[nodeTable[user].front] */\n      0xffffffffffffffffffffffffffffffffffffffff\n      and\n      0xffffffffffffffffffffffffffffffffffffffff\n      and\n      dup2\n      mstore\n      0x20\n      add\n      swap1\n      dup2\n      mstore\n      0x20\n      add\n      0x00\n      keccak256\n        /* \"vinci-protocol/contracts/BalanceLinkedList.sol\":1913:1950  nodeTable[nodeTable[user].front].next */\n      0x02\n      add\n      0x00\n        /* \"vinci-protocol/contracts/BalanceLinkedList.sol\":1913:1971  nodeTable[nodeTable[user].front].next=nodeTable[user].next */\n      0x0100\n      exp\n      dup2\n      sload\n      dup2\n      0xffffffffffffffffffffffffffffffffffffffff\n      mul\n      not\n      and\n      swap1\n      dup4\n      0xffffffffffffffffffffffffffffffffffffffff\n      and\n      mul\n      or\n      swap1\n      sstore\n      pop\n        /* \"vinci-protocol/contracts/BalanceLinkedList.sol\":2020:2029  nodeTable */\n      0x03\n        /* \"vinci-protocol/contracts/BalanceLinkedList.sol\":2020:2035  nodeTable[user] */\n      0x00\n        /* \"vinci-protocol/contracts/BalanceLinkedList.sol\":2030:2034  user */\n      dup3\n        /* \"vinci-protocol/contracts/BalanceLinkedList.sol\":2020:2035  nodeTable[user] */\n      0xffffffffffffffffffffffffffffffffffffffff\n      and\n      0xffffffffffffffffffffffffffffffffffffffff\n      and\n      dup2\n      mstore\n      0x20\n      add\n      swap1\n      dup2\n      mstore\n      0x20\n      add\n      0x00\n      keccak256\n        /* \"vinci-protocol/contracts/BalanceLinkedList.sol\":2020:2041  nodeTable[user].front */\n      0x01\n      add\n      0x00\n      swap1\n      sload\n      swap1\n      0x0100\n      exp\n      swap1\n      div\n      0xffffffffffffffffffffffffffffffffffffffff\n      and\n        /* \"vinci-protocol/contracts/BalanceLinkedList.sol\":1982:1991  nodeTable */\n      0x03\n        /* \"vinci-protocol/contracts/BalanceLinkedList.sol\":1982:2013  nodeTable[nodeTable[user].next] */\n      0x00\n        /* \"vinci-protocol/contracts/BalanceLinkedList.sol\":1992:2001  nodeTable */\n      0x03\n        /* \"vinci-protocol/contracts/BalanceLinkedList.sol\":1992:2007  nodeTable[user] */\n      0x00\n        /* \"vinci-protocol/contracts/BalanceLinkedList.sol\":2002:2006  user */\n      dup6\n        /* \"vinci-protocol/contracts/BalanceLinkedList.sol\":1992:2007  nodeTable[user] */\n      0xffffffffffffffffffffffffffffffffffffffff\n      and\n      0xffffffffffffffffffffffffffffffffffffffff\n      and\n      dup2\n      mstore\n      0x20\n      add\n      swap1\n      dup2\n      mstore\n      0x20\n      add\n      0x00\n      keccak256\n        /* \"vinci-protocol/contracts/BalanceLinkedList.sol\":1992:2012  nodeTable[user].next */\n      0x02\n      add\n      0x00\n      swap1\n      sload\n      swap1\n      0x0100\n      exp\n      swap1\n      div\n      0xffffffffffffffffffffffffffffffffffffffff\n      and\n        /* \"vinci-protocol/contracts/BalanceLinkedList.sol\":1982:2013  nodeTable[nodeTable[user].next] */\n      0xffffffffffffffffffffffffffffffffffffffff\n      and\n      0xffffffffffffffffffffffffffffffffffffffff\n      and\n      dup2\n      mstore\n      0x20\n      add\n      swap1\n      dup2\n      mstore\n      0x20\n      add\n      0x00\n      keccak256\n        /* \"vinci-protocol/contracts/BalanceLinkedList.sol\":1982:2019  nodeTable[nodeTable[user].next].front */\n      0x01\n      add\n      0x00\n        /* \"vinci-protocol/contracts/BalanceLinkedList.sol\":1982:2041  nodeTable[nodeTable[user].next].front=nodeTable[user].front */\n      0x0100\n      exp\n      dup2\n      sload\n      dup2\n      0xffffffffffffffffffffffffffffffffffffffff\n      mul\n      not\n      and\n      swap1\n      dup4\n      0xffffffffffffffffffffffffffffffffffffffff\n      and\n      mul\n      or\n      swap1\n      sstore\n      pop\n        /* \"vinci-protocol/contracts/BalanceLinkedList.sol\":1865:2049  function _remove(address user)private{... */\n      pop\n      jump\t// out\n        /* \"vinci-protocol/contracts/BalanceLinkedList.sol\":888:1557  function _increate(address user,uint256 account, address front)private{... */\n    tag_75:\n        /* \"vinci-protocol/contracts/BalanceLinkedList.sol\":969:991  Node storage frontNode */\n      0x00\n        /* \"vinci-protocol/contracts/BalanceLinkedList.sol\":992:1001  nodeTable */\n      0x03\n        /* \"vinci-protocol/contracts/BalanceLinkedList.sol\":992:1008  nodeTable[front] */\n      0x00\n        /* \"vinci-protocol/contracts/BalanceLinkedList.sol\":1002:1007  front */\n      dup4\n        /* \"vinci-protocol/contracts/BalanceLinkedList.sol\":992:1008  nodeTable[front] */\n      0xffffffffffffffffffffffffffffffffffffffff\n      and\n      0xffffffffffffffffffffffffffffffffffffffff\n      and\n      dup2\n      mstore\n      0x20\n      add\n      swap1\n      dup2\n      mstore\n      0x20\n      add\n      0x00\n      keccak256\n        /* \"vinci-protocol/contracts/BalanceLinkedList.sol\":969:1008  Node storage frontNode=nodeTable[front] */\n      swap1\n      pop\n        /* \"vinci-protocol/contracts/BalanceLinkedList.sol\":1021:1041  uint256 frontBalance */\n      0x00\n        /* \"vinci-protocol/contracts/BalanceLinkedList.sol\":1044:1057  balanceReader */\n      dup1\n      0x00\n      swap1\n      sload\n      swap1\n      0x0100\n      exp\n      swap1\n      div\n      0xffffffffffffffffffffffffffffffffffffffff\n      and\n        /* \"vinci-protocol/contracts/BalanceLinkedList.sol\":1044:1067  balanceReader.balanceOf */\n      0xffffffffffffffffffffffffffffffffffffffff\n      and\n      0x70a08231\n        /* \"vinci-protocol/contracts/BalanceLinkedList.sol\":1068:1077  frontNode */\n      dup4\n        /* \"vinci-protocol/contracts/BalanceLinkedList.sol\":1068:1083  frontNode.front */\n      0x01\n      add\n      0x00\n      swap1\n      sload\n      swap1\n      0x0100\n      exp\n      swap1\n      div\n      0xffffffffffffffffffffffffffffffffffffffff\n      and\n        /* \"vinci-protocol/contracts/BalanceLinkedList.sol\":1044:1084  balanceReader.balanceOf(frontNode.front) */\n      mload(0x40)\n      dup3\n      0xffffffff\n      and\n      0xe0\n      shl\n      dup2\n      mstore\n      0x04\n      add\n      tag_117\n      swap2\n      swap1\n      tag_29\n      jump\t// in\n    tag_117:\n      0x20\n      mload(0x40)\n      dup1\n      dup4\n      sub\n      dup2\n      dup7\n      gas\n      staticcall\n      iszero\n      dup1\n      iszero\n      tag_119\n      jumpi\n      returndatasize\n      0x00\n      dup1\n      returndatacopy\n      revert(0x00, returndatasize)\n    tag_119:\n      pop\n      pop\n      pop\n      pop\n      mload(0x40)\n      returndatasize\n      not(0x1f)\n      0x1f\n      dup3\n      add\n      and\n      dup3\n      add\n      dup1\n      0x40\n      mstore\n      pop\n      dup2\n      add\n      swap1\n      tag_120\n      swap2\n      swap1\n      tag_91\n      jump\t// in\n    tag_120:\n        /* \"vinci-protocol/contracts/BalanceLinkedList.sol\":1021:1084  uint256 frontBalance = balanceReader.balanceOf(frontNode.front) */\n      swap1\n      pop\n        /* \"vinci-protocol/contracts/BalanceLinkedList.sol\":1095:1114  uint256 nextBalance */\n      0x00\n        /* \"vinci-protocol/contracts/BalanceLinkedList.sol\":1117:1130  balanceReader */\n      dup1\n      0x00\n      swap1\n      sload\n      swap1\n      0x0100\n      exp\n      swap1\n      div\n      0xffffffffffffffffffffffffffffffffffffffff\n      and\n        /* \"vinci-protocol/contracts/BalanceLinkedList.sol\":1117:1140  balanceReader.balanceOf */\n      0xffffffffffffffffffffffffffffffffffffffff\n      and\n      0x70a08231\n        /* \"vinci-protocol/contracts/BalanceLinkedList.sol\":1141:1150  frontNode */\n      dup5\n        /* \"vinci-protocol/contracts/BalanceLinkedList.sol\":1141:1155  frontNode.next */\n      0x02\n      add\n      0x00\n      swap1\n      sload\n      swap1\n      0x0100\n      exp\n      swap1\n      div\n      0xffffffffffffffffffffffffffffffffffffffff\n      and\n        /* \"vinci-protocol/contracts/BalanceLinkedList.sol\":1117:1156  balanceReader.balanceOf(frontNode.next) */\n      mload(0x40)\n      dup3\n      0xffffffff\n      and\n      0xe0\n      shl\n      dup2\n      mstore\n      0x04\n      add\n      tag_121\n      swap2\n      swap1\n      tag_29\n      jump\t// in\n    tag_121:\n      0x20\n      mload(0x40)\n      dup1\n      dup4\n      sub\n      dup2\n      dup7\n      gas\n      staticcall\n      iszero\n      dup1\n      iszero\n      tag_123\n      jumpi\n      returndatasize\n      0x00\n      dup1\n      returndatacopy\n      revert(0x00, returndatasize)\n    tag_123:\n      pop\n      pop\n      pop\n      pop\n      mload(0x40)\n      returndatasize\n      not(0x1f)\n      0x1f\n      dup3\n      add\n      and\n      dup3\n      add\n      dup1\n      0x40\n      mstore\n      pop\n      dup2\n      add\n      swap1\n      tag_124\n      swap2\n      swap1\n      tag_91\n      jump\t// in\n    tag_124:\n        /* \"vinci-protocol/contracts/BalanceLinkedList.sol\":1095:1156  uint256 nextBalance = balanceReader.balanceOf(frontNode.next) */\n      swap1\n      pop\n        /* \"vinci-protocol/contracts/BalanceLinkedList.sol\":1184:1196  ZERO_ADDRESS */\n      0x01\n      0x00\n      swap1\n      sload\n      swap1\n      0x0100\n      exp\n      swap1\n      div\n      0xffffffffffffffffffffffffffffffffffffffff\n      and\n        /* \"vinci-protocol/contracts/BalanceLinkedList.sol\":1177:1196  front==ZERO_ADDRESS */\n      0xffffffffffffffffffffffffffffffffffffffff\n      and\n        /* \"vinci-protocol/contracts/BalanceLinkedList.sol\":1177:1182  front */\n      dup5\n        /* \"vinci-protocol/contracts/BalanceLinkedList.sol\":1177:1196  front==ZERO_ADDRESS */\n      0xffffffffffffffffffffffffffffffffffffffff\n      and\n      eq\n        /* \"vinci-protocol/contracts/BalanceLinkedList.sol\":1177:1238  front==ZERO_ADDRESS || nodeTable[front].current!=ZERO_ADDRESS */\n      dup1\n      tag_125\n      jumpi\n      pop\n        /* \"vinci-protocol/contracts/BalanceLinkedList.sol\":1226:1238  ZERO_ADDRESS */\n      0x01\n      0x00\n      swap1\n      sload\n      swap1\n      0x0100\n      exp\n      swap1\n      div\n      0xffffffffffffffffffffffffffffffffffffffff\n      and\n        /* \"vinci-protocol/contracts/BalanceLinkedList.sol\":1200:1238  nodeTable[front].current!=ZERO_ADDRESS */\n      0xffffffffffffffffffffffffffffffffffffffff\n      and\n        /* \"vinci-protocol/contracts/BalanceLinkedList.sol\":1200:1209  nodeTable */\n      0x03\n        /* \"vinci-protocol/contracts/BalanceLinkedList.sol\":1200:1216  nodeTable[front] */\n      0x00\n        /* \"vinci-protocol/contracts/BalanceLinkedList.sol\":1210:1215  front */\n      dup7\n        /* \"vinci-protocol/contracts/BalanceLinkedList.sol\":1200:1216  nodeTable[front] */\n      0xffffffffffffffffffffffffffffffffffffffff\n      and\n      0xffffffffffffffffffffffffffffffffffffffff\n      and\n      dup2\n      mstore\n      0x20\n      add\n      swap1\n      dup2\n      mstore\n      0x20\n      add\n      0x00\n      keccak256\n        /* \"vinci-protocol/contracts/BalanceLinkedList.sol\":1200:1224  nodeTable[front].current */\n      0x00\n      add\n      0x00\n      swap1\n      sload\n      swap1\n      0x0100\n      exp\n      swap1\n      div\n      0xffffffffffffffffffffffffffffffffffffffff\n      and\n        /* \"vinci-protocol/contracts/BalanceLinkedList.sol\":1200:1238  nodeTable[front].current!=ZERO_ADDRESS */\n      0xffffffffffffffffffffffffffffffffffffffff\n      and\n      eq\n      iszero\n        /* \"vinci-protocol/contracts/BalanceLinkedList.sol\":1177:1238  front==ZERO_ADDRESS || nodeTable[front].current!=ZERO_ADDRESS */\n    tag_125:\n        /* \"vinci-protocol/contracts/BalanceLinkedList.sol\":1169:1239  require(front==ZERO_ADDRESS || nodeTable[front].current!=ZERO_ADDRESS) */\n      tag_126\n      jumpi\n      0x00\n      dup1\n      revert\n    tag_126:\n        /* \"vinci-protocol/contracts/BalanceLinkedList.sol\":1277:1289  ZERO_ADDRESS */\n      0x01\n      0x00\n      swap1\n      sload\n      swap1\n      0x0100\n      exp\n      swap1\n      div\n      0xffffffffffffffffffffffffffffffffffffffff\n      and\n        /* \"vinci-protocol/contracts/BalanceLinkedList.sol\":1260:1289  frontNode.front==ZERO_ADDRESS */\n      0xffffffffffffffffffffffffffffffffffffffff\n      and\n        /* \"vinci-protocol/contracts/BalanceLinkedList.sol\":1260:1269  frontNode */\n      dup4\n        /* \"vinci-protocol/contracts/BalanceLinkedList.sol\":1260:1275  frontNode.front */\n      0x01\n      add\n      0x00\n      swap1\n      sload\n      swap1\n      0x0100\n      exp\n      swap1\n      div\n      0xffffffffffffffffffffffffffffffffffffffff\n      and\n        /* \"vinci-protocol/contracts/BalanceLinkedList.sol\":1260:1289  frontNode.front==ZERO_ADDRESS */\n      0xffffffffffffffffffffffffffffffffffffffff\n      and\n      eq\n        /* \"vinci-protocol/contracts/BalanceLinkedList.sol\":1260:1316  frontNode.front==ZERO_ADDRESS || frontBalance >= account */\n      dup1\n      tag_127\n      jumpi\n      pop\n        /* \"vinci-protocol/contracts/BalanceLinkedList.sol\":1309:1316  account */\n      dup5\n        /* \"vinci-protocol/contracts/BalanceLinkedList.sol\":1293:1305  frontBalance */\n      dup3\n        /* \"vinci-protocol/contracts/BalanceLinkedList.sol\":1293:1316  frontBalance >= account */\n      lt\n      iszero\n        /* \"vinci-protocol/contracts/BalanceLinkedList.sol\":1260:1316  frontNode.front==ZERO_ADDRESS || frontBalance >= account */\n    tag_127:\n        /* \"vinci-protocol/contracts/BalanceLinkedList.sol\":1259:1343  (frontNode.front==ZERO_ADDRESS || frontBalance >= account) && nextBalance <= account */\n      dup1\n      iszero\n      tag_128\n      jumpi\n      pop\n        /* \"vinci-protocol/contracts/BalanceLinkedList.sol\":1336:1343  account */\n      dup5\n        /* \"vinci-protocol/contracts/BalanceLinkedList.sol\":1321:1332  nextBalance */\n      dup2\n        /* \"vinci-protocol/contracts/BalanceLinkedList.sol\":1321:1343  nextBalance <= account */\n      gt\n      iszero\n        /* \"vinci-protocol/contracts/BalanceLinkedList.sol\":1259:1343  (frontNode.front==ZERO_ADDRESS || frontBalance >= account) && nextBalance <= account */\n    tag_128:\n        /* \"vinci-protocol/contracts/BalanceLinkedList.sol\":1251:1344  require((frontNode.front==ZERO_ADDRESS || frontBalance >= account) && nextBalance <= account) */\n      tag_129\n      jumpi\n      0x00\n      dup1\n      revert\n    tag_129:\n        /* \"vinci-protocol/contracts/BalanceLinkedList.sol\":1357:1372  address preNext */\n      0x00\n        /* \"vinci-protocol/contracts/BalanceLinkedList.sol\":1373:1382  nodeTable */\n      0x03\n        /* \"vinci-protocol/contracts/BalanceLinkedList.sol\":1373:1389  nodeTable[front] */\n      0x00\n        /* \"vinci-protocol/contracts/BalanceLinkedList.sol\":1383:1388  front */\n      dup7\n        /* \"vinci-protocol/contracts/BalanceLinkedList.sol\":1373:1389  nodeTable[front] */\n      0xffffffffffffffffffffffffffffffffffffffff\n      and\n      0xffffffffffffffffffffffffffffffffffffffff\n      and\n      dup2\n      mstore\n      0x20\n      add\n      swap1\n      dup2\n      mstore\n      0x20\n      add\n      0x00\n      keccak256\n        /* \"vinci-protocol/contracts/BalanceLinkedList.sol\":1373:1394  nodeTable[front].next */\n      0x02\n      add\n      0x00\n      swap1\n      sload\n      swap1\n      0x0100\n      exp\n      swap1\n      div\n      0xffffffffffffffffffffffffffffffffffffffff\n      and\n        /* \"vinci-protocol/contracts/BalanceLinkedList.sol\":1357:1394  address preNext=nodeTable[front].next */\n      swap1\n      pop\n        /* \"vinci-protocol/contracts/BalanceLinkedList.sol\":1427:1431  user */\n      dup7\n        /* \"vinci-protocol/contracts/BalanceLinkedList.sol\":1405:1414  nodeTable */\n      0x03\n        /* \"vinci-protocol/contracts/BalanceLinkedList.sol\":1405:1421  nodeTable[front] */\n      0x00\n        /* \"vinci-protocol/contracts/BalanceLinkedList.sol\":1415:1420  front */\n      dup8\n        /* \"vinci-protocol/contracts/BalanceLinkedList.sol\":1405:1421  nodeTable[front] */\n      0xffffffffffffffffffffffffffffffffffffffff\n      and\n      0xffffffffffffffffffffffffffffffffffffffff\n      and\n      dup2\n      mstore\n      0x20\n      add\n      swap1\n      dup2\n      mstore\n      0x20\n      add\n      0x00\n      keccak256\n        /* \"vinci-protocol/contracts/BalanceLinkedList.sol\":1405:1426  nodeTable[front].next */\n      0x02\n      add\n      0x00\n        /* \"vinci-protocol/contracts/BalanceLinkedList.sol\":1405:1431  nodeTable[front].next=user */\n      0x0100\n      exp\n      dup2\n      sload\n      dup2\n      0xffffffffffffffffffffffffffffffffffffffff\n      mul\n      not\n      and\n      swap1\n      dup4\n      0xffffffffffffffffffffffffffffffffffffffff\n      and\n      mul\n      or\n      swap1\n      sstore\n      pop\n        /* \"vinci-protocol/contracts/BalanceLinkedList.sol\":1463:1470  preNext */\n      dup1\n        /* \"vinci-protocol/contracts/BalanceLinkedList.sol\":1442:1451  nodeTable */\n      0x03\n        /* \"vinci-protocol/contracts/BalanceLinkedList.sol\":1442:1457  nodeTable[user] */\n      0x00\n        /* \"vinci-protocol/contracts/BalanceLinkedList.sol\":1452:1456  user */\n      dup10\n        /* \"vinci-protocol/contracts/BalanceLinkedList.sol\":1442:1457  nodeTable[user] */\n      0xffffffffffffffffffffffffffffffffffffffff\n      and\n      0xffffffffffffffffffffffffffffffffffffffff\n      and\n      dup2\n      mstore\n      0x20\n      add\n      swap1\n      dup2\n      mstore\n      0x20\n      add\n      0x00\n      keccak256\n        /* \"vinci-protocol/contracts/BalanceLinkedList.sol\":1442:1462  nodeTable[user].next */\n      0x02\n      add\n      0x00\n        /* \"vinci-protocol/contracts/BalanceLinkedList.sol\":1442:1470  nodeTable[user].next=preNext */\n      0x0100\n      exp\n      dup2\n      sload\n      dup2\n      0xffffffffffffffffffffffffffffffffffffffff\n      mul\n      not\n      and\n      swap1\n      dup4\n      0xffffffffffffffffffffffffffffffffffffffff\n      and\n      mul\n      or\n      swap1\n      sstore\n      pop\n        /* \"vinci-protocol/contracts/BalanceLinkedList.sol\":1506:1510  user */\n      dup7\n        /* \"vinci-protocol/contracts/BalanceLinkedList.sol\":1481:1490  nodeTable */\n      0x03\n        /* \"vinci-protocol/contracts/BalanceLinkedList.sol\":1481:1499  nodeTable[preNext] */\n      0x00\n        /* \"vinci-protocol/contracts/BalanceLinkedList.sol\":1491:1498  preNext */\n      dup4\n        /* \"vinci-protocol/contracts/BalanceLinkedList.sol\":1481:1499  nodeTable[preNext] */\n      0xffffffffffffffffffffffffffffffffffffffff\n      and\n      0xffffffffffffffffffffffffffffffffffffffff\n      and\n      dup2\n      mstore\n      0x20\n      add\n      swap1\n      dup2\n      mstore\n      0x20\n      add\n      0x00\n      keccak256\n        /* \"vinci-protocol/contracts/BalanceLinkedList.sol\":1481:1505  nodeTable[preNext].front */\n      0x01\n      add\n      0x00\n        /* \"vinci-protocol/contracts/BalanceLinkedList.sol\":1481:1510  nodeTable[preNext].front=user */\n      0x0100\n      exp\n      dup2\n      sload\n      dup2\n      0xffffffffffffffffffffffffffffffffffffffff\n      mul\n      not\n      and\n      swap1\n      dup4\n      0xffffffffffffffffffffffffffffffffffffffff\n      and\n      mul\n      or\n      swap1\n      sstore\n      pop\n        /* \"vinci-protocol/contracts/BalanceLinkedList.sol\":1545:1549  user */\n      dup7\n        /* \"vinci-protocol/contracts/BalanceLinkedList.sol\":1521:1530  nodeTable */\n      0x03\n        /* \"vinci-protocol/contracts/BalanceLinkedList.sol\":1521:1536  nodeTable[user] */\n      0x00\n        /* \"vinci-protocol/contracts/BalanceLinkedList.sol\":1531:1535  user */\n      dup10\n        /* \"vinci-protocol/contracts/BalanceLinkedList.sol\":1521:1536  nodeTable[user] */\n      0xffffffffffffffffffffffffffffffffffffffff\n      and\n      0xffffffffffffffffffffffffffffffffffffffff\n      and\n      dup2\n      mstore\n      0x20\n      add\n      swap1\n      dup2\n      mstore\n      0x20\n      add\n      0x00\n      keccak256\n        /* \"vinci-protocol/contracts/BalanceLinkedList.sol\":1521:1544  nodeTable[user].current */\n      0x00\n      add\n      0x00\n        /* \"vinci-protocol/contracts/BalanceLinkedList.sol\":1521:1549  nodeTable[user].current=user */\n      0x0100\n      exp\n      dup2\n      sload\n      dup2\n      0xffffffffffffffffffffffffffffffffffffffff\n      mul\n      not\n      and\n      swap1\n      dup4\n      0xffffffffffffffffffffffffffffffffffffffff\n      and\n      mul\n      or\n      swap1\n      sstore\n      pop\n        /* \"vinci-protocol/contracts/BalanceLinkedList.sol\":958:1557  {... */\n      pop\n      pop\n      pop\n      pop\n        /* \"vinci-protocol/contracts/BalanceLinkedList.sol\":888:1557  function _increate(address user,uint256 account, address front)private{... */\n      pop\n      pop\n      pop\n      jump\t// out\n        /* \"#utility.yul\":7:84   */\n    tag_130:\n        /* \"#utility.yul\":44:51   */\n      0x00\n        /* \"#utility.yul\":73:78   */\n      dup2\n        /* \"#utility.yul\":62:78   */\n      swap1\n      pop\n        /* \"#utility.yul\":7:84   */\n      swap2\n      swap1\n      pop\n      jump\t// out\n        /* \"#utility.yul\":90:208   */\n    tag_131:\n        /* \"#utility.yul\":177:201   */\n      tag_158\n        /* \"#utility.yul\":195:200   */\n      dup2\n        /* \"#utility.yul\":177:201   */\n      tag_130\n      jump\t// in\n    tag_158:\n        /* \"#utility.yul\":172:175   */\n      dup3\n        /* \"#utility.yul\":165:202   */\n      mstore\n        /* \"#utility.yul\":90:208   */\n      pop\n      pop\n      jump\t// out\n        /* \"#utility.yul\":214:436   */\n    tag_17:\n        /* \"#utility.yul\":307:311   */\n      0x00\n        /* \"#utility.yul\":345:347   */\n      0x20\n        /* \"#utility.yul\":334:343   */\n      dup3\n        /* \"#utility.yul\":330:348   */\n      add\n        /* \"#utility.yul\":322:348   */\n      swap1\n      pop\n        /* \"#utility.yul\":358:429   */\n      tag_160\n        /* \"#utility.yul\":426:427   */\n      0x00\n        /* \"#utility.yul\":415:424   */\n      dup4\n        /* \"#utility.yul\":411:428   */\n      add\n        /* \"#utility.yul\":402:408   */\n      dup5\n        /* \"#utility.yul\":358:429   */\n      tag_131\n      jump\t// in\n    tag_160:\n        /* \"#utility.yul\":214:436   */\n      swap3\n      swap2\n      pop\n      pop\n      jump\t// out\n        /* \"#utility.yul\":523:640   */\n    tag_133:\n        /* \"#utility.yul\":632:633   */\n      0x00\n        /* \"#utility.yul\":629:630   */\n      dup1\n        /* \"#utility.yul\":622:634   */\n      revert\n        /* \"#utility.yul\":646:763   */\n    tag_134:\n        /* \"#utility.yul\":755:756   */\n      0x00\n        /* \"#utility.yul\":752:753   */\n      dup1\n        /* \"#utility.yul\":745:757   */\n      revert\n        /* \"#utility.yul\":769:895   */\n    tag_135:\n        /* \"#utility.yul\":806:813   */\n      0x00\n        /* \"#utility.yul\":846:888   */\n      0xffffffffffffffffffffffffffffffffffffffff\n        /* \"#utility.yul\":839:844   */\n      dup3\n        /* \"#utility.yul\":835:889   */\n      and\n        /* \"#utility.yul\":824:889   */\n      swap1\n      pop\n        /* \"#utility.yul\":769:895   */\n      swap2\n      swap1\n      pop\n      jump\t// out\n        /* \"#utility.yul\":901:997   */\n    tag_136:\n        /* \"#utility.yul\":938:945   */\n      0x00\n        /* \"#utility.yul\":967:991   */\n      tag_166\n        /* \"#utility.yul\":985:990   */\n      dup3\n        /* \"#utility.yul\":967:991   */\n      tag_135\n      jump\t// in\n    tag_166:\n        /* \"#utility.yul\":956:991   */\n      swap1\n      pop\n        /* \"#utility.yul\":901:997   */\n      swap2\n      swap1\n      pop\n      jump\t// out\n        /* \"#utility.yul\":1003:1125   */\n    tag_137:\n        /* \"#utility.yul\":1076:1100   */\n      tag_168\n        /* \"#utility.yul\":1094:1099   */\n      dup2\n        /* \"#utility.yul\":1076:1100   */\n      tag_136\n      jump\t// in\n    tag_168:\n        /* \"#utility.yul\":1069:1074   */\n      dup2\n        /* \"#utility.yul\":1066:1101   */\n      eq\n        /* \"#utility.yul\":1056:1119   */\n      tag_169\n      jumpi\n        /* \"#utility.yul\":1115:1116   */\n      0x00\n        /* \"#utility.yul\":1112:1113   */\n      dup1\n        /* \"#utility.yul\":1105:1117   */\n      revert\n        /* \"#utility.yul\":1056:1119   */\n    tag_169:\n        /* \"#utility.yul\":1003:1125   */\n      pop\n      jump\t// out\n        /* \"#utility.yul\":1131:1270   */\n    tag_138:\n        /* \"#utility.yul\":1177:1182   */\n      0x00\n        /* \"#utility.yul\":1215:1221   */\n      dup2\n        /* \"#utility.yul\":1202:1222   */\n      calldataload\n        /* \"#utility.yul\":1193:1222   */\n      swap1\n      pop\n        /* \"#utility.yul\":1231:1264   */\n      tag_171\n        /* \"#utility.yul\":1258:1263   */\n      dup2\n        /* \"#utility.yul\":1231:1264   */\n      tag_137\n      jump\t// in\n    tag_171:\n        /* \"#utility.yul\":1131:1270   */\n      swap3\n      swap2\n      pop\n      pop\n      jump\t// out\n        /* \"#utility.yul\":1276:1605   */\n    tag_20:\n        /* \"#utility.yul\":1335:1341   */\n      0x00\n        /* \"#utility.yul\":1384:1386   */\n      0x20\n        /* \"#utility.yul\":1372:1381   */\n      dup3\n        /* \"#utility.yul\":1363:1370   */\n      dup5\n        /* \"#utility.yul\":1359:1382   */\n      sub\n        /* \"#utility.yul\":1355:1387   */\n      slt\n        /* \"#utility.yul\":1352:1471   */\n      iszero\n      tag_173\n      jumpi\n        /* \"#utility.yul\":1390:1469   */\n      tag_174\n      tag_133\n      jump\t// in\n    tag_174:\n        /* \"#utility.yul\":1352:1471   */\n    tag_173:\n        /* \"#utility.yul\":1510:1511   */\n      0x00\n        /* \"#utility.yul\":1535:1588   */\n      tag_175\n        /* \"#utility.yul\":1580:1587   */\n      dup5\n        /* \"#utility.yul\":1571:1577   */\n      dup3\n        /* \"#utility.yul\":1560:1569   */\n      dup6\n        /* \"#utility.yul\":1556:1578   */\n      add\n        /* \"#utility.yul\":1535:1588   */\n      tag_138\n      jump\t// in\n    tag_175:\n        /* \"#utility.yul\":1525:1588   */\n      swap2\n      pop\n        /* \"#utility.yul\":1481:1598   */\n      pop\n        /* \"#utility.yul\":1276:1605   */\n      swap3\n      swap2\n      pop\n      pop\n      jump\t// out\n        /* \"#utility.yul\":1611:1733   */\n    tag_139:\n        /* \"#utility.yul\":1684:1708   */\n      tag_177\n        /* \"#utility.yul\":1702:1707   */\n      dup2\n        /* \"#utility.yul\":1684:1708   */\n      tag_130\n      jump\t// in\n    tag_177:\n        /* \"#utility.yul\":1677:1682   */\n      dup2\n        /* \"#utility.yul\":1674:1709   */\n      eq\n        /* \"#utility.yul\":1664:1727   */\n      tag_178\n      jumpi\n        /* \"#utility.yul\":1723:1724   */\n      0x00\n        /* \"#utility.yul\":1720:1721   */\n      dup1\n        /* \"#utility.yul\":1713:1725   */\n      revert\n        /* \"#utility.yul\":1664:1727   */\n    tag_178:\n        /* \"#utility.yul\":1611:1733   */\n      pop\n      jump\t// out\n        /* \"#utility.yul\":1739:1878   */\n    tag_140:\n        /* \"#utility.yul\":1785:1790   */\n      0x00\n        /* \"#utility.yul\":1823:1829   */\n      dup2\n        /* \"#utility.yul\":1810:1830   */\n      calldataload\n        /* \"#utility.yul\":1801:1830   */\n      swap1\n      pop\n        /* \"#utility.yul\":1839:1872   */\n      tag_180\n        /* \"#utility.yul\":1866:1871   */\n      dup2\n        /* \"#utility.yul\":1839:1872   */\n      tag_139\n      jump\t// in\n    tag_180:\n        /* \"#utility.yul\":1739:1878   */\n      swap3\n      swap2\n      pop\n      pop\n      jump\t// out\n        /* \"#utility.yul\":1884:2503   */\n    tag_24:\n        /* \"#utility.yul\":1961:1967   */\n      0x00\n        /* \"#utility.yul\":1969:1975   */\n      dup1\n        /* \"#utility.yul\":1977:1983   */\n      0x00\n        /* \"#utility.yul\":2026:2028   */\n      0x60\n        /* \"#utility.yul\":2014:2023   */\n      dup5\n        /* \"#utility.yul\":2005:2012   */\n      dup7\n        /* \"#utility.yul\":2001:2024   */\n      sub\n        /* \"#utility.yul\":1997:2029   */\n      slt\n        /* \"#utility.yul\":1994:2113   */\n      iszero\n      tag_182\n      jumpi\n        /* \"#utility.yul\":2032:2111   */\n      tag_183\n      tag_133\n      jump\t// in\n    tag_183:\n        /* \"#utility.yul\":1994:2113   */\n    tag_182:\n        /* \"#utility.yul\":2152:2153   */\n      0x00\n        /* \"#utility.yul\":2177:2230   */\n      tag_184\n        /* \"#utility.yul\":2222:2229   */\n      dup7\n        /* \"#utility.yul\":2213:2219   */\n      dup3\n        /* \"#utility.yul\":2202:2211   */\n      dup8\n        /* \"#utility.yul\":2198:2220   */\n      add\n        /* \"#utility.yul\":2177:2230   */\n      tag_138\n      jump\t// in\n    tag_184:\n        /* \"#utility.yul\":2167:2230   */\n      swap4\n      pop\n        /* \"#utility.yul\":2123:2240   */\n      pop\n        /* \"#utility.yul\":2279:2281   */\n      0x20\n        /* \"#utility.yul\":2305:2358   */\n      tag_185\n        /* \"#utility.yul\":2350:2357   */\n      dup7\n        /* \"#utility.yul\":2341:2347   */\n      dup3\n        /* \"#utility.yul\":2330:2339   */\n      dup8\n        /* \"#utility.yul\":2326:2348   */\n      add\n        /* \"#utility.yul\":2305:2358   */\n      tag_140\n      jump\t// in\n    tag_185:\n        /* \"#utility.yul\":2295:2358   */\n      swap3\n      pop\n        /* \"#utility.yul\":2250:2368   */\n      pop\n        /* \"#utility.yul\":2407:2409   */\n      0x40\n        /* \"#utility.yul\":2433:2486   */\n      tag_186\n        /* \"#utility.yul\":2478:2485   */\n      dup7\n        /* \"#utility.yul\":2469:2475   */\n      dup3\n        /* \"#utility.yul\":2458:2467   */\n      dup8\n        /* \"#utility.yul\":2454:2476   */\n      add\n        /* \"#utility.yul\":2433:2486   */\n      tag_138\n      jump\t// in\n    tag_186:\n        /* \"#utility.yul\":2423:2486   */\n      swap2\n      pop\n        /* \"#utility.yul\":2378:2496   */\n      pop\n        /* \"#utility.yul\":1884:2503   */\n      swap3\n      pop\n      swap3\n      pop\n      swap3\n      jump\t// out\n        /* \"#utility.yul\":2509:2627   */\n    tag_141:\n        /* \"#utility.yul\":2596:2620   */\n      tag_188\n        /* \"#utility.yul\":2614:2619   */\n      dup2\n        /* \"#utility.yul\":2596:2620   */\n      tag_136\n      jump\t// in\n    tag_188:\n        /* \"#utility.yul\":2591:2594   */\n      dup3\n        /* \"#utility.yul\":2584:2621   */\n      mstore\n        /* \"#utility.yul\":2509:2627   */\n      pop\n      pop\n      jump\t// out\n        /* \"#utility.yul\":2633:2855   */\n    tag_29:\n        /* \"#utility.yul\":2726:2730   */\n      0x00\n        /* \"#utility.yul\":2764:2766   */\n      0x20\n        /* \"#utility.yul\":2753:2762   */\n      dup3\n        /* \"#utility.yul\":2749:2767   */\n      add\n        /* \"#utility.yul\":2741:2767   */\n      swap1\n      pop\n        /* \"#utility.yul\":2777:2848   */\n      tag_190\n        /* \"#utility.yul\":2845:2846   */\n      0x00\n        /* \"#utility.yul\":2834:2843   */\n      dup4\n        /* \"#utility.yul\":2830:2847   */\n      add\n        /* \"#utility.yul\":2821:2827   */\n      dup5\n        /* \"#utility.yul\":2777:2848   */\n      tag_141\n      jump\t// in\n    tag_190:\n        /* \"#utility.yul\":2633:2855   */\n      swap3\n      swap2\n      pop\n      pop\n      jump\t// out\n        /* \"#utility.yul\":2861:3190   */\n    tag_40:\n        /* \"#utility.yul\":2920:2926   */\n      0x00\n        /* \"#utility.yul\":2969:2971   */\n      0x20\n        /* \"#utility.yul\":2957:2966   */\n      dup3\n        /* \"#utility.yul\":2948:2955   */\n      dup5\n        /* \"#utility.yul\":2944:2967   */\n      sub\n        /* \"#utility.yul\":2940:2972   */\n      slt\n        /* \"#utility.yul\":2937:3056   */\n      iszero\n      tag_192\n      jumpi\n        /* \"#utility.yul\":2975:3054   */\n      tag_193\n      tag_133\n      jump\t// in\n    tag_193:\n        /* \"#utility.yul\":2937:3056   */\n    tag_192:\n        /* \"#utility.yul\":3095:3096   */\n      0x00\n        /* \"#utility.yul\":3120:3173   */\n      tag_194\n        /* \"#utility.yul\":3165:3172   */\n      dup5\n        /* \"#utility.yul\":3156:3162   */\n      dup3\n        /* \"#utility.yul\":3145:3154   */\n      dup6\n        /* \"#utility.yul\":3141:3163   */\n      add\n        /* \"#utility.yul\":3120:3173   */\n      tag_140\n      jump\t// in\n    tag_194:\n        /* \"#utility.yul\":3110:3173   */\n      swap2\n      pop\n        /* \"#utility.yul\":3066:3183   */\n      pop\n        /* \"#utility.yul\":2861:3190   */\n      swap3\n      swap2\n      pop\n      pop\n      jump\t// out\n        /* \"#utility.yul\":3196:3313   */\n    tag_142:\n        /* \"#utility.yul\":3305:3306   */\n      0x00\n        /* \"#utility.yul\":3302:3303   */\n      dup1\n        /* \"#utility.yul\":3295:3307   */\n      revert\n        /* \"#utility.yul\":3319:3436   */\n    tag_143:\n        /* \"#utility.yul\":3428:3429   */\n      0x00\n        /* \"#utility.yul\":3425:3426   */\n      dup1\n        /* \"#utility.yul\":3418:3430   */\n      revert\n        /* \"#utility.yul\":3442:3559   */\n    tag_144:\n        /* \"#utility.yul\":3551:3552   */\n      0x00\n        /* \"#utility.yul\":3548:3549   */\n      dup1\n        /* \"#utility.yul\":3541:3553   */\n      revert\n        /* \"#utility.yul\":3582:4150   */\n    tag_145:\n        /* \"#utility.yul\":3655:3663   */\n      0x00\n        /* \"#utility.yul\":3665:3671   */\n      dup1\n        /* \"#utility.yul\":3715:3718   */\n      dup4\n        /* \"#utility.yul\":3708:3712   */\n      0x1f\n        /* \"#utility.yul\":3700:3706   */\n      dup5\n        /* \"#utility.yul\":3696:3713   */\n      add\n        /* \"#utility.yul\":3692:3719   */\n      slt\n        /* \"#utility.yul\":3682:3804   */\n      tag_199\n      jumpi\n        /* \"#utility.yul\":3723:3802   */\n      tag_200\n      tag_142\n      jump\t// in\n    tag_200:\n        /* \"#utility.yul\":3682:3804   */\n    tag_199:\n        /* \"#utility.yul\":3836:3842   */\n      dup3\n        /* \"#utility.yul\":3823:3843   */\n      calldataload\n        /* \"#utility.yul\":3813:3843   */\n      swap1\n      pop\n        /* \"#utility.yul\":3866:3884   */\n      0xffffffffffffffff\n        /* \"#utility.yul\":3858:3864   */\n      dup2\n        /* \"#utility.yul\":3855:3885   */\n      gt\n        /* \"#utility.yul\":3852:3969   */\n      iszero\n      tag_201\n      jumpi\n        /* \"#utility.yul\":3888:3967   */\n      tag_202\n      tag_143\n      jump\t// in\n    tag_202:\n        /* \"#utility.yul\":3852:3969   */\n    tag_201:\n        /* \"#utility.yul\":4002:4006   */\n      0x20\n        /* \"#utility.yul\":3994:4000   */\n      dup4\n        /* \"#utility.yul\":3990:4007   */\n      add\n        /* \"#utility.yul\":3978:4007   */\n      swap2\n      pop\n        /* \"#utility.yul\":4056:4059   */\n      dup4\n        /* \"#utility.yul\":4048:4052   */\n      0x20\n        /* \"#utility.yul\":4040:4046   */\n      dup3\n        /* \"#utility.yul\":4036:4053   */\n      mul\n        /* \"#utility.yul\":4026:4034   */\n      dup4\n        /* \"#utility.yul\":4022:4054   */\n      add\n        /* \"#utility.yul\":4019:4060   */\n      gt\n        /* \"#utility.yul\":4016:4144   */\n      iszero\n      tag_203\n      jumpi\n        /* \"#utility.yul\":4063:4142   */\n      tag_204\n      tag_144\n      jump\t// in\n    tag_204:\n        /* \"#utility.yul\":4016:4144   */\n    tag_203:\n        /* \"#utility.yul\":3582:4150   */\n      swap3\n      pop\n      swap3\n      swap1\n      pop\n      jump\t// out\n        /* \"#utility.yul\":4156:4715   */\n    tag_48:\n        /* \"#utility.yul\":4242:4248   */\n      0x00\n        /* \"#utility.yul\":4250:4256   */\n      dup1\n        /* \"#utility.yul\":4299:4301   */\n      0x20\n        /* \"#utility.yul\":4287:4296   */\n      dup4\n        /* \"#utility.yul\":4278:4285   */\n      dup6\n        /* \"#utility.yul\":4274:4297   */\n      sub\n        /* \"#utility.yul\":4270:4302   */\n      slt\n        /* \"#utility.yul\":4267:4386   */\n      iszero\n      tag_206\n      jumpi\n        /* \"#utility.yul\":4305:4384   */\n      tag_207\n      tag_133\n      jump\t// in\n    tag_207:\n        /* \"#utility.yul\":4267:4386   */\n    tag_206:\n        /* \"#utility.yul\":4453:4454   */\n      0x00\n        /* \"#utility.yul\":4442:4451   */\n      dup4\n        /* \"#utility.yul\":4438:4455   */\n      add\n        /* \"#utility.yul\":4425:4456   */\n      calldataload\n        /* \"#utility.yul\":4483:4501   */\n      0xffffffffffffffff\n        /* \"#utility.yul\":4475:4481   */\n      dup2\n        /* \"#utility.yul\":4472:4502   */\n      gt\n        /* \"#utility.yul\":4469:4586   */\n      iszero\n      tag_208\n      jumpi\n        /* \"#utility.yul\":4505:4584   */\n      tag_209\n      tag_134\n      jump\t// in\n    tag_209:\n        /* \"#utility.yul\":4469:4586   */\n    tag_208:\n        /* \"#utility.yul\":4618:4698   */\n      tag_210\n        /* \"#utility.yul\":4690:4697   */\n      dup6\n        /* \"#utility.yul\":4681:4687   */\n      dup3\n        /* \"#utility.yul\":4670:4679   */\n      dup7\n        /* \"#utility.yul\":4666:4688   */\n      add\n        /* \"#utility.yul\":4618:4698   */\n      tag_145\n      jump\t// in\n    tag_210:\n        /* \"#utility.yul\":4600:4698   */\n      swap3\n      pop\n      swap3\n      pop\n        /* \"#utility.yul\":4396:4708   */\n      pop\n        /* \"#utility.yul\":4156:4715   */\n      swap3\n      pop\n      swap3\n      swap1\n      pop\n      jump\t// out\n        /* \"#utility.yul\":4721:4835   */\n    tag_146:\n        /* \"#utility.yul\":4788:4794   */\n      0x00\n        /* \"#utility.yul\":4822:4827   */\n      dup2\n        /* \"#utility.yul\":4816:4828   */\n      mload\n        /* \"#utility.yul\":4806:4828   */\n      swap1\n      pop\n        /* \"#utility.yul\":4721:4835   */\n      swap2\n      swap1\n      pop\n      jump\t// out\n        /* \"#utility.yul\":4841:5025   */\n    tag_147:\n        /* \"#utility.yul\":4940:4951   */\n      0x00\n        /* \"#utility.yul\":4974:4980   */\n      dup3\n        /* \"#utility.yul\":4969:4972   */\n      dup3\n        /* \"#utility.yul\":4962:4981   */\n      mstore\n        /* \"#utility.yul\":5014:5018   */\n      0x20\n        /* \"#utility.yul\":5009:5012   */\n      dup3\n        /* \"#utility.yul\":5005:5019   */\n      add\n        /* \"#utility.yul\":4990:5019   */\n      swap1\n      pop\n        /* \"#utility.yul\":4841:5025   */\n      swap3\n      swap2\n      pop\n      pop\n      jump\t// out\n        /* \"#utility.yul\":5031:5163   */\n    tag_148:\n        /* \"#utility.yul\":5098:5102   */\n      0x00\n        /* \"#utility.yul\":5121:5124   */\n      dup2\n        /* \"#utility.yul\":5113:5124   */\n      swap1\n      pop\n        /* \"#utility.yul\":5151:5155   */\n      0x20\n        /* \"#utility.yul\":5146:5149   */\n      dup3\n        /* \"#utility.yul\":5142:5156   */\n      add\n        /* \"#utility.yul\":5134:5156   */\n      swap1\n      pop\n        /* \"#utility.yul\":5031:5163   */\n      swap2\n      swap1\n      pop\n      jump\t// out\n        /* \"#utility.yul\":5169:5277   */\n    tag_149:\n        /* \"#utility.yul\":5246:5270   */\n      tag_215\n        /* \"#utility.yul\":5264:5269   */\n      dup2\n        /* \"#utility.yul\":5246:5270   */\n      tag_136\n      jump\t// in\n    tag_215:\n        /* \"#utility.yul\":5241:5244   */\n      dup3\n        /* \"#utility.yul\":5234:5271   */\n      mstore\n        /* \"#utility.yul\":5169:5277   */\n      pop\n      pop\n      jump\t// out\n        /* \"#utility.yul\":5283:5462   */\n    tag_150:\n        /* \"#utility.yul\":5352:5362   */\n      0x00\n        /* \"#utility.yul\":5373:5419   */\n      tag_217\n        /* \"#utility.yul\":5415:5418   */\n      dup4\n        /* \"#utility.yul\":5407:5413   */\n      dup4\n        /* \"#utility.yul\":5373:5419   */\n      tag_149\n      jump\t// in\n    tag_217:\n        /* \"#utility.yul\":5451:5455   */\n      0x20\n        /* \"#utility.yul\":5446:5449   */\n      dup4\n        /* \"#utility.yul\":5442:5456   */\n      add\n        /* \"#utility.yul\":5428:5456   */\n      swap1\n      pop\n        /* \"#utility.yul\":5283:5462   */\n      swap3\n      swap2\n      pop\n      pop\n      jump\t// out\n        /* \"#utility.yul\":5468:5581   */\n    tag_151:\n        /* \"#utility.yul\":5538:5542   */\n      0x00\n        /* \"#utility.yul\":5570:5574   */\n      0x20\n        /* \"#utility.yul\":5565:5568   */\n      dup3\n        /* \"#utility.yul\":5561:5575   */\n      add\n        /* \"#utility.yul\":5553:5575   */\n      swap1\n      pop\n        /* \"#utility.yul\":5468:5581   */\n      swap2\n      swap1\n      pop\n      jump\t// out\n        /* \"#utility.yul\":5617:6349   */\n    tag_152:\n        /* \"#utility.yul\":5736:5739   */\n      0x00\n        /* \"#utility.yul\":5765:5819   */\n      tag_220\n        /* \"#utility.yul\":5813:5818   */\n      dup3\n        /* \"#utility.yul\":5765:5819   */\n      tag_146\n      jump\t// in\n    tag_220:\n        /* \"#utility.yul\":5835:5921   */\n      tag_221\n        /* \"#utility.yul\":5914:5920   */\n      dup2\n        /* \"#utility.yul\":5909:5912   */\n      dup6\n        /* \"#utility.yul\":5835:5921   */\n      tag_147\n      jump\t// in\n    tag_221:\n        /* \"#utility.yul\":5828:5921   */\n      swap4\n      pop\n        /* \"#utility.yul\":5945:6001   */\n      tag_222\n        /* \"#utility.yul\":5995:6000   */\n      dup4\n        /* \"#utility.yul\":5945:6001   */\n      tag_148\n      jump\t// in\n    tag_222:\n        /* \"#utility.yul\":6024:6031   */\n      dup1\n        /* \"#utility.yul\":6055:6056   */\n      0x00\n        /* \"#utility.yul\":6040:6324   */\n    tag_223:\n        /* \"#utility.yul\":6065:6071   */\n      dup4\n        /* \"#utility.yul\":6062:6063   */\n      dup2\n        /* \"#utility.yul\":6059:6072   */\n      lt\n        /* \"#utility.yul\":6040:6324   */\n      iszero\n      tag_225\n      jumpi\n        /* \"#utility.yul\":6141:6147   */\n      dup2\n        /* \"#utility.yul\":6135:6148   */\n      mload\n        /* \"#utility.yul\":6168:6231   */\n      tag_226\n        /* \"#utility.yul\":6227:6230   */\n      dup9\n        /* \"#utility.yul\":6212:6225   */\n      dup3\n        /* \"#utility.yul\":6168:6231   */\n      tag_150\n      jump\t// in\n    tag_226:\n        /* \"#utility.yul\":6161:6231   */\n      swap8\n      pop\n        /* \"#utility.yul\":6254:6314   */\n      tag_227\n        /* \"#utility.yul\":6307:6313   */\n      dup4\n        /* \"#utility.yul\":6254:6314   */\n      tag_151\n      jump\t// in\n    tag_227:\n        /* \"#utility.yul\":6244:6314   */\n      swap3\n      pop\n        /* \"#utility.yul\":6100:6324   */\n      pop\n        /* \"#utility.yul\":6087:6088   */\n      0x01\n        /* \"#utility.yul\":6084:6085   */\n      dup2\n        /* \"#utility.yul\":6080:6089   */\n      add\n        /* \"#utility.yul\":6075:6089   */\n      swap1\n      pop\n        /* \"#utility.yul\":6040:6324   */\n      jump(tag_223)\n    tag_225:\n        /* \"#utility.yul\":6044:6058   */\n      pop\n        /* \"#utility.yul\":6340:6343   */\n      dup6\n        /* \"#utility.yul\":6333:6343   */\n      swap4\n      pop\n        /* \"#utility.yul\":5741:6349   */\n      pop\n      pop\n      pop\n        /* \"#utility.yul\":5617:6349   */\n      swap3\n      swap2\n      pop\n      pop\n      jump\t// out\n        /* \"#utility.yul\":6355:6728   */\n    tag_51:\n        /* \"#utility.yul\":6498:6502   */\n      0x00\n        /* \"#utility.yul\":6536:6538   */\n      0x20\n        /* \"#utility.yul\":6525:6534   */\n      dup3\n        /* \"#utility.yul\":6521:6539   */\n      add\n        /* \"#utility.yul\":6513:6539   */\n      swap1\n      pop\n        /* \"#utility.yul\":6585:6594   */\n      dup2\n        /* \"#utility.yul\":6579:6583   */\n      dup2\n        /* \"#utility.yul\":6575:6595   */\n      sub\n        /* \"#utility.yul\":6571:6572   */\n      0x00\n        /* \"#utility.yul\":6560:6569   */\n      dup4\n        /* \"#utility.yul\":6556:6573   */\n      add\n        /* \"#utility.yul\":6549:6596   */\n      mstore\n        /* \"#utility.yul\":6613:6721   */\n      tag_229\n        /* \"#utility.yul\":6716:6720   */\n      dup2\n        /* \"#utility.yul\":6707:6713   */\n      dup5\n        /* \"#utility.yul\":6613:6721   */\n      tag_152\n      jump\t// in\n    tag_229:\n        /* \"#utility.yul\":6605:6721   */\n      swap1\n      pop\n        /* \"#utility.yul\":6355:6728   */\n      swap3\n      swap2\n      pop\n      pop\n      jump\t// out\n        /* \"#utility.yul\":6734:7176   */\n    tag_56:\n        /* \"#utility.yul\":6883:6887   */\n      0x00\n        /* \"#utility.yul\":6921:6923   */\n      0x60\n        /* \"#utility.yul\":6910:6919   */\n      dup3\n        /* \"#utility.yul\":6906:6924   */\n      add\n        /* \"#utility.yul\":6898:6924   */\n      swap1\n      pop\n        /* \"#utility.yul\":6934:7005   */\n      tag_231\n        /* \"#utility.yul\":7002:7003   */\n      0x00\n        /* \"#utility.yul\":6991:7000   */\n      dup4\n        /* \"#utility.yul\":6987:7004   */\n      add\n        /* \"#utility.yul\":6978:6984   */\n      dup7\n        /* \"#utility.yul\":6934:7005   */\n      tag_141\n      jump\t// in\n    tag_231:\n        /* \"#utility.yul\":7015:7087   */\n      tag_232\n        /* \"#utility.yul\":7083:7085   */\n      0x20\n        /* \"#utility.yul\":7072:7081   */\n      dup4\n        /* \"#utility.yul\":7068:7086   */\n      add\n        /* \"#utility.yul\":7059:7065   */\n      dup6\n        /* \"#utility.yul\":7015:7087   */\n      tag_141\n      jump\t// in\n    tag_232:\n        /* \"#utility.yul\":7097:7169   */\n      tag_233\n        /* \"#utility.yul\":7165:7167   */\n      0x40\n        /* \"#utility.yul\":7154:7163   */\n      dup4\n        /* \"#utility.yul\":7150:7168   */\n      add\n        /* \"#utility.yul\":7141:7147   */\n      dup5\n        /* \"#utility.yul\":7097:7169   */\n      tag_141\n      jump\t// in\n    tag_233:\n        /* \"#utility.yul\":6734:7176   */\n      swap5\n      swap4\n      pop\n      pop\n      pop\n      pop\n      jump\t// out\n        /* \"#utility.yul\":7182:7362   */\n    tag_153:\n        /* \"#utility.yul\":7230:7307   */\n      0x4e487b7100000000000000000000000000000000000000000000000000000000\n        /* \"#utility.yul\":7227:7228   */\n      0x00\n        /* \"#utility.yul\":7220:7308   */\n      mstore\n        /* \"#utility.yul\":7327:7331   */\n      0x11\n        /* \"#utility.yul\":7324:7325   */\n      0x04\n        /* \"#utility.yul\":7317:7332   */\n      mstore\n        /* \"#utility.yul\":7351:7355   */\n      0x24\n        /* \"#utility.yul\":7348:7349   */\n      0x00\n        /* \"#utility.yul\":7341:7356   */\n      revert\n        /* \"#utility.yul\":7368:7539   */\n    tag_65:\n        /* \"#utility.yul\":7407:7410   */\n      0x00\n        /* \"#utility.yul\":7430:7454   */\n      tag_236\n        /* \"#utility.yul\":7448:7453   */\n      dup3\n        /* \"#utility.yul\":7430:7454   */\n      tag_130\n      jump\t// in\n    tag_236:\n        /* \"#utility.yul\":7421:7454   */\n      swap2\n      pop\n        /* \"#utility.yul\":7476:7480   */\n      0x00\n        /* \"#utility.yul\":7469:7474   */\n      dup3\n        /* \"#utility.yul\":7466:7481   */\n      sub\n        /* \"#utility.yul\":7463:7504   */\n      tag_237\n      jumpi\n        /* \"#utility.yul\":7484:7502   */\n      tag_238\n      tag_153\n      jump\t// in\n    tag_238:\n        /* \"#utility.yul\":7463:7504   */\n    tag_237:\n        /* \"#utility.yul\":7531:7532   */\n      0x01\n        /* \"#utility.yul\":7524:7529   */\n      dup3\n        /* \"#utility.yul\":7520:7533   */\n      sub\n        /* \"#utility.yul\":7513:7533   */\n      swap1\n      pop\n        /* \"#utility.yul\":7368:7539   */\n      swap2\n      swap1\n      pop\n      jump\t// out\n        /* \"#utility.yul\":7545:7778   */\n    tag_73:\n        /* \"#utility.yul\":7584:7587   */\n      0x00\n        /* \"#utility.yul\":7607:7631   */\n      tag_240\n        /* \"#utility.yul\":7625:7630   */\n      dup3\n        /* \"#utility.yul\":7607:7631   */\n      tag_130\n      jump\t// in\n    tag_240:\n        /* \"#utility.yul\":7598:7631   */\n      swap2\n      pop\n        /* \"#utility.yul\":7653:7719   */\n      0xffffffffffffffffffffffffffffffffffffffffffffffffffffffffffffffff\n        /* \"#utility.yul\":7646:7651   */\n      dup3\n        /* \"#utility.yul\":7643:7720   */\n      sub\n        /* \"#utility.yul\":7640:7743   */\n      tag_241\n      jumpi\n        /* \"#utility.yul\":7723:7741   */\n      tag_242\n      tag_153\n      jump\t// in\n    tag_242:\n        /* \"#utility.yul\":7640:7743   */\n    tag_241:\n        /* \"#utility.yul\":7770:7771   */\n      0x01\n        /* \"#utility.yul\":7763:7768   */\n      dup3\n        /* \"#utility.yul\":7759:7772   */\n      add\n        /* \"#utility.yul\":7752:7772   */\n      swap1\n      pop\n        /* \"#utility.yul\":7545:7778   */\n      swap2\n      swap1\n      pop\n      jump\t// out\n        /* \"#utility.yul\":7784:7927   */\n    tag_154:\n        /* \"#utility.yul\":7841:7846   */\n      0x00\n        /* \"#utility.yul\":7872:7878   */\n      dup2\n        /* \"#utility.yul\":7866:7879   */\n      mload\n        /* \"#utility.yul\":7857:7879   */\n      swap1\n      pop\n        /* \"#utility.yul\":7888:7921   */\n      tag_244\n        /* \"#utility.yul\":7915:7920   */\n      dup2\n        /* \"#utility.yul\":7888:7921   */\n      tag_139\n      jump\t// in\n    tag_244:\n        /* \"#utility.yul\":7784:7927   */\n      swap3\n      swap2\n      pop\n      pop\n      jump\t// out\n        /* \"#utility.yul\":7933:8284   */\n    tag_91:\n        /* \"#utility.yul\":8003:8009   */\n      0x00\n        /* \"#utility.yul\":8052:8054   */\n      0x20\n        /* \"#utility.yul\":8040:8049   */\n      dup3\n        /* \"#utility.yul\":8031:8038   */\n      dup5\n        /* \"#utility.yul\":8027:8050   */\n      sub\n        /* \"#utility.yul\":8023:8055   */\n      slt\n        /* \"#utility.yul\":8020:8139   */\n      iszero\n      tag_246\n      jumpi\n        /* \"#utility.yul\":8058:8137   */\n      tag_247\n      tag_133\n      jump\t// in\n    tag_247:\n        /* \"#utility.yul\":8020:8139   */\n    tag_246:\n        /* \"#utility.yul\":8178:8179   */\n      0x00\n        /* \"#utility.yul\":8203:8267   */\n      tag_248\n        /* \"#utility.yul\":8259:8266   */\n      dup5\n        /* \"#utility.yul\":8250:8256   */\n      dup3\n        /* \"#utility.yul\":8239:8248   */\n      dup6\n        /* \"#utility.yul\":8235:8257   */\n      add\n        /* \"#utility.yul\":8203:8267   */\n      tag_154\n      jump\t// in\n    tag_248:\n        /* \"#utility.yul\":8193:8267   */\n      swap2\n      pop\n        /* \"#utility.yul\":8149:8277   */\n      pop\n        /* \"#utility.yul\":7933:8284   */\n      swap3\n      swap2\n      pop\n      pop\n      jump\t// out\n        /* \"#utility.yul\":8290:8470   */\n    tag_101:\n        /* \"#utility.yul\":8338:8415   */\n      0x4e487b7100000000000000000000000000000000000000000000000000000000\n        /* \"#utility.yul\":8335:8336   */\n      0x00\n        /* \"#utility.yul\":8328:8416   */\n      mstore\n        /* \"#utility.yul\":8435:8439   */\n      0x41\n        /* \"#utility.yul\":8432:8433   */\n      0x04\n        /* \"#utility.yul\":8425:8440   */\n      mstore\n        /* \"#utility.yul\":8459:8463   */\n      0x24\n        /* \"#utility.yul\":8456:8457   */\n      0x00\n        /* \"#utility.yul\":8449:8464   */\n      revert\n        /* \"#utility.yul\":8476:8656   */\n    tag_110:\n        /* \"#utility.yul\":8524:8601   */\n      0x4e487b7100000000000000000000000000000000000000000000000000000000\n        /* \"#utility.yul\":8521:8522   */\n      0x00\n        /* \"#utility.yul\":8514:8602   */\n      mstore\n        /* \"#utility.yul\":8621:8625   */\n      0x32\n        /* \"#utility.yul\":8618:8619   */\n      0x04\n        /* \"#utility.yul\":8611:8626   */\n      mstore\n        /* \"#utility.yul\":8645:8649   */\n      0x24\n        /* \"#utility.yul\":8642:8643   */\n      0x00\n        /* \"#utility.yul\":8635:8650   */\n      revert\n\n    auxdata: 0xa26469706673582212207ed5d685ce1f76e98c73f8114ea201f93ade598407f9ece6c5e481a6505e5b6c64736f6c63430008120033\n}\n",
				"bytecode": {
					"linkReferences": {},
					"object": "60806040526000600160006101000a81548173ffffffffffffffffffffffffffffffffffffffff021916908373ffffffffffffffffffffffffffffffffffffffff16021790555060006002553480156200005857600080fd5b5060405162001f6638038062001f6683398181016040528101906200007e91906200012f565b806000806101000a81548173ffffffffffffffffffffffffffffffffffffffff021916908373ffffffffffffffffffffffffffffffffffffffff1602179055505062000161565b600080fd5b600073ffffffffffffffffffffffffffffffffffffffff82169050919050565b6000620000f782620000ca565b9050919050565b6200010981620000ea565b81146200011557600080fd5b50565b6000815190506200012981620000fe565b92915050565b600060208284031215620001485762000147620000c5565b5b6000620001588482850162000118565b91505092915050565b611df580620001716000396000f3fe608060405234801561001057600080fd5b506004361061009e5760003560e01c8063765e015911610066578063765e015914610147578063819e3503146101775780638f52d408146101a7578063a5541c84146101c3578063a5c2cce0146101f35761009e565b80631f7b6d32146100a357806329092d0e146100c1578063501a5162146100dd578063538ba4f9146100f957806355da981314610117575b600080fd5b6100ab610225565b6040516100b89190611930565b60405180910390f35b6100db60048036038101906100d691906119b3565b61022b565b005b6100f760048036038101906100f29190611a0c565b61045c565b005b6101016105a2565b60405161010e9190611a6e565b60405180910390f35b610131600480360381019061012c91906119b3565b6105c8565b60405161013e9190611a6e565b60405180910390f35b610161600480360381019061015c91906119b3565b61074a565b60405161016e9190611a6e565b60405180910390f35b610191600480360381019061018c9190611a89565b610988565b60405161019e9190611a6e565b60405180910390f35b6101c160048036038101906101bc9190611a0c565b610b34565b005b6101dd60048036038101906101d89190611b1b565b610c70565b6040516101ea9190611c26565b60405180910390f35b61020d600480360381019061020891906119b3565b611019565b60405161021c93929190611c48565b60405180910390f35b60025481565b60008054906101000a900473ffffffffffffffffffffffffffffffffffffffff1673ffffffffffffffffffffffffffffffffffffffff163373ffffffffffffffffffffffffffffffffffffffff161461028357600080fd5b600160009054906101000a900473ffffffffffffffffffffffffffffffffffffffff1673ffffffffffffffffffffffffffffffffffffffff168173ffffffffffffffffffffffffffffffffffffffff16036102dd57600080fd5b600160009054906101000a900473ffffffffffffffffffffffffffffffffffffffff1673ffffffffffffffffffffffffffffffffffffffff16600360008373ffffffffffffffffffffffffffffffffffffffff1673ffffffffffffffffffffffffffffffffffffffff16815260200190815260200160002060000160009054906101000a900473ffffffffffffffffffffffffffffffffffffffff1673ffffffffffffffffffffffffffffffffffffffff16146104595761039d816110a3565b600160009054906101000a900473ffffffffffffffffffffffffffffffffffffffff16600360008373ffffffffffffffffffffffffffffffffffffffff1673ffffffffffffffffffffffffffffffffffffffff16815260200190815260200160002060000160006101000a81548173ffffffffffffffffffffffffffffffffffffffff021916908373ffffffffffffffffffffffffffffffffffffffff1602179055506002600081548092919061045390611cae565b91905055505b50565b60008054906101000a900473ffffffffffffffffffffffffffffffffffffffff1673ffffffffffffffffffffffffffffffffffffffff163373ffffffffffffffffffffffffffffffffffffffff16146104b457600080fd5b600160009054906101000a900473ffffffffffffffffffffffffffffffffffffffff1673ffffffffffffffffffffffffffffffffffffffff16600360008573ffffffffffffffffffffffffffffffffffffffff1673ffffffffffffffffffffffffffffffffffffffff16815260200190815260200160002060000160009054906101000a900473ffffffffffffffffffffffffffffffffffffffff1673ffffffffffffffffffffffffffffffffffffffff161461057957610574836110a3565b610592565b6002600081548092919061058c90611cd7565b91905055505b61059d838383611330565b505050565b600160009054906101000a900473ffffffffffffffffffffffffffffffffffffffff1681565b6000600160009054906101000a900473ffffffffffffffffffffffffffffffffffffffff1673ffffffffffffffffffffffffffffffffffffffff168273ffffffffffffffffffffffffffffffffffffffff160361062457600080fd5b600160009054906101000a900473ffffffffffffffffffffffffffffffffffffffff1673ffffffffffffffffffffffffffffffffffffffff16600360008473ffffffffffffffffffffffffffffffffffffffff1673ffffffffffffffffffffffffffffffffffffffff16815260200190815260200160002060000160009054906101000a900473ffffffffffffffffffffffffffffffffffffffff1673ffffffffffffffffffffffffffffffffffffffff16036106e057600080fd5b600360008373ffffffffffffffffffffffffffffffffffffffff1673ffffffffffffffffffffffffffffffffffffffff16815260200190815260200160002060010160009054906101000a900473ffffffffffffffffffffffffffffffffffffffff169050919050565b6000600160009054906101000a900473ffffffffffffffffffffffffffffffffffffffff1673ffffffffffffffffffffffffffffffffffffffff168273ffffffffffffffffffffffffffffffffffffffff16036107a657600080fd5b600160009054906101000a900473ffffffffffffffffffffffffffffffffffffffff1673ffffffffffffffffffffffffffffffffffffffff16600360008473ffffffffffffffffffffffffffffffffffffffff1673ffffffffffffffffffffffffffffffffffffffff16815260200190815260200160002060000160009054906101000a900473ffffffffffffffffffffffffffffffffffffffff1673ffffffffffffffffffffffffffffffffffffffff160361086257600080fd5b600160009054906101000a900473ffffffffffffffffffffffffffffffffffffffff1673ffffffffffffffffffffffffffffffffffffffff16600360008473ffffffffffffffffffffffffffffffffffffffff1673ffffffffffffffffffffffffffffffffffffffff16815260200190815260200160002060020160009054906101000a900473ffffffffffffffffffffffffffffffffffffffff1673ffffffffffffffffffffffffffffffffffffffff160361091e57600080fd5b600360008373ffffffffffffffffffffffffffffffffffffffff1673ffffffffffffffffffffffffffffffffffffffff16815260200190815260200160002060020160009054906101000a900473ffffffffffffffffffffffffffffffffffffffff169050919050565b600080821161099657600080fd5b600060036000600160009054906101000a900473ffffffffffffffffffffffffffffffffffffffff1673ffffffffffffffffffffffffffffffffffffffff1673ffffffffffffffffffffffffffffffffffffffff16815260200190815260200160002060020160009054906101000a900473ffffffffffffffffffffffffffffffffffffffff1690505b8260008054906101000a900473ffffffffffffffffffffffffffffffffffffffff1673ffffffffffffffffffffffffffffffffffffffff166370a08231836040518263ffffffff1660e01b8152600401610a7a9190611a6e565b602060405180830381865afa158015610a97573d6000803e3d6000fd5b505050506040513d601f19601f82011682018060405250810190610abb9190611d34565b1115610b2b57600360008273ffffffffffffffffffffffffffffffffffffffff1673ffffffffffffffffffffffffffffffffffffffff16815260200190815260200160002060020160009054906101000a900473ffffffffffffffffffffffffffffffffffffffff169050610a20565b80915050919050565b60008054906101000a900473ffffffffffffffffffffffffffffffffffffffff1673ffffffffffffffffffffffffffffffffffffffff163373ffffffffffffffffffffffffffffffffffffffff1614610b8c57600080fd5b600160009054906101000a900473ffffffffffffffffffffffffffffffffffffffff1673ffffffffffffffffffffffffffffffffffffffff16600360008573ffffffffffffffffffffffffffffffffffffffff1673ffffffffffffffffffffffffffffffffffffffff16815260200190815260200160002060000160009054906101000a900473ffffffffffffffffffffffffffffffffffffffff1673ffffffffffffffffffffffffffffffffffffffff1614610c4857600080fd5b610c53838383611330565b60026000815480929190610c6690611cd7565b9190505550505050565b606060008383905067ffffffffffffffff811115610c9157610c90611d61565b5b604051908082528060200260200182016040528015610cbf5781602001602082028036833780820191505090505b509050600080600360008073ffffffffffffffffffffffffffffffffffffffff1673ffffffffffffffffffffffffffffffffffffffff1681526020019081526020016000206040518060600160405290816000820160009054906101000a900473ffffffffffffffffffffffffffffffffffffffff1673ffffffffffffffffffffffffffffffffffffffff1673ffffffffffffffffffffffffffffffffffffffff1681526020016001820160009054906101000a900473ffffffffffffffffffffffffffffffffffffffff1673ffffffffffffffffffffffffffffffffffffffff1673ffffffffffffffffffffffffffffffffffffffff1681526020016002820160009054906101000a900473ffffffffffffffffffffffffffffffffffffffff1673ffffffffffffffffffffffffffffffffffffffff1673ffffffffffffffffffffffffffffffffffffffff1681525050905060005b8686905081101561100c575b868682818110610e3557610e34611d90565b5b905060200201358314610fa75760036000836040015173ffffffffffffffffffffffffffffffffffffffff1673ffffffffffffffffffffffffffffffffffffffff1681526020019081526020016000206040518060600160405290816000820160009054906101000a900473ffffffffffffffffffffffffffffffffffffffff1673ffffffffffffffffffffffffffffffffffffffff1673ffffffffffffffffffffffffffffffffffffffff1681526020016001820160009054906101000a900473ffffffffffffffffffffffffffffffffffffffff1673ffffffffffffffffffffffffffffffffffffffff1673ffffffffffffffffffffffffffffffffffffffff1681526020016002820160009054906101000a900473ffffffffffffffffffffffffffffffffffffffff1673ffffffffffffffffffffffffffffffffffffffff1673ffffffffffffffffffffffffffffffffffffffff168152505091508280610f9f90611cd7565b935050610e22565b8160000151848281518110610fbf57610fbe611d90565b5b602002602001019073ffffffffffffffffffffffffffffffffffffffff16908173ffffffffffffffffffffffffffffffffffffffff1681525050808061100490611cd7565b915050610e16565b5082935050505092915050565b60036020528060005260406000206000915090508060000160009054906101000a900473ffffffffffffffffffffffffffffffffffffffff16908060010160009054906101000a900473ffffffffffffffffffffffffffffffffffffffff16908060020160009054906101000a900473ffffffffffffffffffffffffffffffffffffffff16905083565b600360008273ffffffffffffffffffffffffffffffffffffffff1673ffffffffffffffffffffffffffffffffffffffff16815260200190815260200160002060020160009054906101000a900473ffffffffffffffffffffffffffffffffffffffff1660036000600360008573ffffffffffffffffffffffffffffffffffffffff1673ffffffffffffffffffffffffffffffffffffffff16815260200190815260200160002060010160009054906101000a900473ffffffffffffffffffffffffffffffffffffffff1673ffffffffffffffffffffffffffffffffffffffff1673ffffffffffffffffffffffffffffffffffffffff16815260200190815260200160002060020160006101000a81548173ffffffffffffffffffffffffffffffffffffffff021916908373ffffffffffffffffffffffffffffffffffffffff160217905550600360008273ffffffffffffffffffffffffffffffffffffffff1673ffffffffffffffffffffffffffffffffffffffff16815260200190815260200160002060010160009054906101000a900473ffffffffffffffffffffffffffffffffffffffff1660036000600360008573ffffffffffffffffffffffffffffffffffffffff1673ffffffffffffffffffffffffffffffffffffffff16815260200190815260200160002060020160009054906101000a900473ffffffffffffffffffffffffffffffffffffffff1673ffffffffffffffffffffffffffffffffffffffff1673ffffffffffffffffffffffffffffffffffffffff16815260200190815260200160002060010160006101000a81548173ffffffffffffffffffffffffffffffffffffffff021916908373ffffffffffffffffffffffffffffffffffffffff16021790555050565b6000600360008373ffffffffffffffffffffffffffffffffffffffff1673ffffffffffffffffffffffffffffffffffffffff168152602001908152602001600020905060008060009054906101000a900473ffffffffffffffffffffffffffffffffffffffff1673ffffffffffffffffffffffffffffffffffffffff166370a082318360010160009054906101000a900473ffffffffffffffffffffffffffffffffffffffff166040518263ffffffff1660e01b81526004016113f39190611a6e565b602060405180830381865afa158015611410573d6000803e3d6000fd5b505050506040513d601f19601f820116820180604052508101906114349190611d34565b905060008060009054906101000a900473ffffffffffffffffffffffffffffffffffffffff1673ffffffffffffffffffffffffffffffffffffffff166370a082318460020160009054906101000a900473ffffffffffffffffffffffffffffffffffffffff166040518263ffffffff1660e01b81526004016114b69190611a6e565b602060405180830381865afa1580156114d3573d6000803e3d6000fd5b505050506040513d601f19601f820116820180604052508101906114f79190611d34565b9050600160009054906101000a900473ffffffffffffffffffffffffffffffffffffffff1673ffffffffffffffffffffffffffffffffffffffff168473ffffffffffffffffffffffffffffffffffffffff1614806116055750600160009054906101000a900473ffffffffffffffffffffffffffffffffffffffff1673ffffffffffffffffffffffffffffffffffffffff16600360008673ffffffffffffffffffffffffffffffffffffffff1673ffffffffffffffffffffffffffffffffffffffff16815260200190815260200160002060000160009054906101000a900473ffffffffffffffffffffffffffffffffffffffff1673ffffffffffffffffffffffffffffffffffffffff1614155b61160e57600080fd5b600160009054906101000a900473ffffffffffffffffffffffffffffffffffffffff1673ffffffffffffffffffffffffffffffffffffffff168360010160009054906101000a900473ffffffffffffffffffffffffffffffffffffffff1673ffffffffffffffffffffffffffffffffffffffff16148061168e5750848210155b801561169a5750848111155b6116a357600080fd5b6000600360008673ffffffffffffffffffffffffffffffffffffffff1673ffffffffffffffffffffffffffffffffffffffff16815260200190815260200160002060020160009054906101000a900473ffffffffffffffffffffffffffffffffffffffff16905086600360008773ffffffffffffffffffffffffffffffffffffffff1673ffffffffffffffffffffffffffffffffffffffff16815260200190815260200160002060020160006101000a81548173ffffffffffffffffffffffffffffffffffffffff021916908373ffffffffffffffffffffffffffffffffffffffff16021790555080600360008973ffffffffffffffffffffffffffffffffffffffff1673ffffffffffffffffffffffffffffffffffffffff16815260200190815260200160002060020160006101000a81548173ffffffffffffffffffffffffffffffffffffffff021916908373ffffffffffffffffffffffffffffffffffffffff16021790555086600360008373ffffffffffffffffffffffffffffffffffffffff1673ffffffffffffffffffffffffffffffffffffffff16815260200190815260200160002060010160006101000a81548173ffffffffffffffffffffffffffffffffffffffff021916908373ffffffffffffffffffffffffffffffffffffffff16021790555086600360008973ffffffffffffffffffffffffffffffffffffffff1673ffffffffffffffffffffffffffffffffffffffff16815260200190815260200160002060000160006101000a81548173ffffffffffffffffffffffffffffffffffffffff021916908373ffffffffffffffffffffffffffffffffffffffff16021790555050505050505050565b6000819050919050565b61192a81611917565b82525050565b60006020820190506119456000830184611921565b92915050565b600080fd5b600080fd5b600073ffffffffffffffffffffffffffffffffffffffff82169050919050565b600061198082611955565b9050919050565b61199081611975565b811461199b57600080fd5b50565b6000813590506119ad81611987565b92915050565b6000602082840312156119c9576119c861194b565b5b60006119d78482850161199e565b91505092915050565b6119e981611917565b81146119f457600080fd5b50565b600081359050611a06816119e0565b92915050565b600080600060608486031215611a2557611a2461194b565b5b6000611a338682870161199e565b9350506020611a44868287016119f7565b9250506040611a558682870161199e565b9150509250925092565b611a6881611975565b82525050565b6000602082019050611a836000830184611a5f565b92915050565b600060208284031215611a9f57611a9e61194b565b5b6000611aad848285016119f7565b91505092915050565b600080fd5b600080fd5b600080fd5b60008083601f840112611adb57611ada611ab6565b5b8235905067ffffffffffffffff811115611af857611af7611abb565b5b602083019150836020820283011115611b1457611b13611ac0565b5b9250929050565b60008060208385031215611b3257611b3161194b565b5b600083013567ffffffffffffffff811115611b5057611b4f611950565b5b611b5c85828601611ac5565b92509250509250929050565b600081519050919050565b600082825260208201905092915050565b6000819050602082019050919050565b611b9d81611975565b82525050565b6000611baf8383611b94565b60208301905092915050565b6000602082019050919050565b6000611bd382611b68565b611bdd8185611b73565b9350611be883611b84565b8060005b83811015611c19578151611c008882611ba3565b9750611c0b83611bbb565b925050600181019050611bec565b5085935050505092915050565b60006020820190508181036000830152611c408184611bc8565b905092915050565b6000606082019050611c5d6000830186611a5f565b611c6a6020830185611a5f565b611c776040830184611a5f565b949350505050565b7f4e487b7100000000000000000000000000000000000000000000000000000000600052601160045260246000fd5b6000611cb982611917565b915060008203611ccc57611ccb611c7f565b5b600182039050919050565b6000611ce282611917565b91507fffffffffffffffffffffffffffffffffffffffffffffffffffffffffffffffff8203611d1457611d13611c7f565b5b600182019050919050565b600081519050611d2e816119e0565b92915050565b600060208284031215611d4a57611d4961194b565b5b6000611d5884828501611d1f565b91505092915050565b7f4e487b7100000000000000000000000000000000000000000000000000000000600052604160045260246000fd5b7f4e487b7100000000000000000000000000000000000000000000000000000000600052603260045260246000fdfea26469706673582212207ed5d685ce1f76e98c73f8114ea201f93ade598407f9ece6c5e481a6505e5b6c64736f6c63430008120033",
					"opcodes": "PUSH1 0x80 PUSH1 0x40 MSTORE PUSH1 0x0 PUSH1 0x1 PUSH1 0x0 PUSH2 0x100 EXP DUP2 SLOAD DUP2 PUSH20 0xFFFFFFFFFFFFFFFFFFFFFFFFFFFFFFFFFFFFFFFF MUL NOT AND SWAP1 DUP4 PUSH20 0xFFFFFFFFFFFFFFFFFFFFFFFFFFFFFFFFFFFFFFFF AND MUL OR SWAP1 SSTORE POP PUSH1 0x0 PUSH1 0x2 SSTORE CALLVALUE DUP1 ISZERO PUSH3 0x58 JUMPI PUSH1 0x0 DUP1 REVERT JUMPDEST POP PUSH1 0x40 MLOAD PUSH3 0x1F66 CODESIZE SUB DUP1 PUSH3 0x1F66 DUP4 CODECOPY DUP2 DUP2 ADD PUSH1 0x40 MSTORE DUP2 ADD SWAP1 PUSH3 0x7E SWAP2 SWAP1 PUSH3 0x12F JUMP JUMPDEST DUP1 PUSH1 0x0 DUP1 PUSH2 0x100 EXP DUP2 SLOAD DUP2 PUSH20 0xFFFFFFFFFFFFFFFFFFFFFFFFFFFFFFFFFFFFFFFF MUL NOT AND SWAP1 DUP4 PUSH20 0xFFFFFFFFFFFFFFFFFFFFFFFFFFFFFFFFFFFFFFFF AND MUL OR SWAP1 SSTORE POP POP PUSH3 0x161 JUMP JUMPDEST PUSH1 0x0 DUP1 REVERT JUMPDEST PUSH1 0x0 PUSH20 0xFFFFFFFFFFFFFFFFFFFFFFFFFFFFFFFFFFFFFFFF DUP3 AND SWAP1 POP SWAP2 SWAP1 POP JUMP JUMPDEST PUSH1 0x0 PUSH3 0xF7 DUP3 PUSH3 0xCA JUMP JUMPDEST SWAP1 POP SWAP2 SWAP1 POP JUMP JUMPDEST PUSH3 0x109 DUP2 PUSH3 0xEA JUMP JUMPDEST DUP2 EQ PUSH3 0x115 JUMPI PUSH1 0x0 DUP1 REVERT JUMPDEST POP JUMP JUMPDEST PUSH1 0x0 DUP2 MLOAD SWAP1 POP PUSH3 0x129 DUP2 PUSH3 0xFE JUMP JUMPDEST SWAP3 SWAP2 POP POP JUMP JUMPDEST PUSH1 0x0 PUSH1 0x20 DUP3 DUP5 SUB SLT ISZERO PUSH3 0x148 JUMPI PUSH3 0x147 PUSH3 0xC5 JUMP JUMPDEST JUMPDEST PUSH1 0x0 PUSH3 0x158 DUP5 DUP3 DUP6 ADD PUSH3 0x118 JUMP JUMPDEST SWAP2 POP POP SWAP3 SWAP2 POP POP JUMP JUMPDEST PUSH2 0x1DF5 DUP1 PUSH3 0x171 PUSH1 0x0 CODECOPY PUSH1 0x0 RETURN INVALID PUSH1 0x80 PUSH1 0x40 MSTORE CALLVALUE DUP1 ISZERO PUSH2 0x10 JUMPI PUSH1 0x0 DUP1 REVERT JUMPDEST POP PUSH1 0x4 CALLDATASIZE LT PUSH2 0x9E JUMPI PUSH1 0x0 CALLDATALOAD PUSH1 0xE0 SHR DUP1 PUSH4 0x765E0159 GT PUSH2 0x66 JUMPI DUP1 PUSH4 0x765E0159 EQ PUSH2 0x147 JUMPI DUP1 PUSH4 0x819E3503 EQ PUSH2 0x177 JUMPI DUP1 PUSH4 0x8F52D408 EQ PUSH2 0x1A7 JUMPI DUP1 PUSH4 0xA5541C84 EQ PUSH2 0x1C3 JUMPI DUP1 PUSH4 0xA5C2CCE0 EQ PUSH2 0x1F3 JUMPI PUSH2 0x9E JUMP JUMPDEST DUP1 PUSH4 0x1F7B6D32 EQ PUSH2 0xA3 JUMPI DUP1 PUSH4 0x29092D0E EQ PUSH2 0xC1 JUMPI DUP1 PUSH4 0x501A5162 EQ PUSH2 0xDD JUMPI DUP1 PUSH4 0x538BA4F9 EQ PUSH2 0xF9 JUMPI DUP1 PUSH4 0x55DA9813 EQ PUSH2 0x117 JUMPI JUMPDEST PUSH1 0x0 DUP1 REVERT JUMPDEST PUSH2 0xAB PUSH2 0x225 JUMP JUMPDEST PUSH1 0x40 MLOAD PUSH2 0xB8 SWAP2 SWAP1 PUSH2 0x1930 JUMP JUMPDEST PUSH1 0x40 MLOAD DUP1 SWAP2 SUB SWAP1 RETURN JUMPDEST PUSH2 0xDB PUSH1 0x4 DUP1 CALLDATASIZE SUB DUP2 ADD SWAP1 PUSH2 0xD6 SWAP2 SWAP1 PUSH2 0x19B3 JUMP JUMPDEST PUSH2 0x22B JUMP JUMPDEST STOP JUMPDEST PUSH2 0xF7 PUSH1 0x4 DUP1 CALLDATASIZE SUB DUP2 ADD SWAP1 PUSH2 0xF2 SWAP2 SWAP1 PUSH2 0x1A0C JUMP JUMPDEST PUSH2 0x45C JUMP JUMPDEST STOP JUMPDEST PUSH2 0x101 PUSH2 0x5A2 JUMP JUMPDEST PUSH1 0x40 MLOAD PUSH2 0x10E SWAP2 SWAP1 PUSH2 0x1A6E JUMP JUMPDEST PUSH1 0x40 MLOAD DUP1 SWAP2 SUB SWAP1 RETURN JUMPDEST PUSH2 0x131 PUSH1 0x4 DUP1 CALLDATASIZE SUB DUP2 ADD SWAP1 PUSH2 0x12C SWAP2 SWAP1 PUSH2 0x19B3 JUMP JUMPDEST PUSH2 0x5C8 JUMP JUMPDEST PUSH1 0x40 MLOAD PUSH2 0x13E SWAP2 SWAP1 PUSH2 0x1A6E JUMP JUMPDEST PUSH1 0x40 MLOAD DUP1 SWAP2 SUB SWAP1 RETURN JUMPDEST PUSH2 0x161 PUSH1 0x4 DUP1 CALLDATASIZE SUB DUP2 ADD SWAP1 PUSH2 0x15C SWAP2 SWAP1 PUSH2 0x19B3 JUMP JUMPDEST PUSH2 0x74A JUMP JUMPDEST PUSH1 0x40 MLOAD PUSH2 0x16E SWAP2 SWAP1 PUSH2 0x1A6E JUMP JUMPDEST PUSH1 0x40 MLOAD DUP1 SWAP2 SUB SWAP1 RETURN JUMPDEST PUSH2 0x191 PUSH1 0x4 DUP1 CALLDATASIZE SUB DUP2 ADD SWAP1 PUSH2 0x18C SWAP2 SWAP1 PUSH2 0x1A89 JUMP JUMPDEST PUSH2 0x988 JUMP JUMPDEST PUSH1 0x40 MLOAD PUSH2 0x19E SWAP2 SWAP1 PUSH2 0x1A6E JUMP JUMPDEST PUSH1 0x40 MLOAD DUP1 SWAP2 SUB SWAP1 RETURN JUMPDEST PUSH2 0x1C1 PUSH1 0x4 DUP1 CALLDATASIZE SUB DUP2 ADD SWAP1 PUSH2 0x1BC SWAP2 SWAP1 PUSH2 0x1A0C JUMP JUMPDEST PUSH2 0xB34 JUMP JUMPDEST STOP JUMPDEST PUSH2 0x1DD PUSH1 0x4 DUP1 CALLDATASIZE SUB DUP2 ADD SWAP1 PUSH2 0x1D8 SWAP2 SWAP1 PUSH2 0x1B1B JUMP JUMPDEST PUSH2 0xC70 JUMP JUMPDEST PUSH1 0x40 MLOAD PUSH2 0x1EA SWAP2 SWAP1 PUSH2 0x1C26 JUMP JUMPDEST PUSH1 0x40 MLOAD DUP1 SWAP2 SUB SWAP1 RETURN JUMPDEST PUSH2 0x20D PUSH1 0x4 DUP1 CALLDATASIZE SUB DUP2 ADD SWAP1 PUSH2 0x208 SWAP2 SWAP1 PUSH2 0x19B3 JUMP JUMPDEST PUSH2 0x1019 JUMP JUMPDEST PUSH1 0x40 MLOAD PUSH2 0x21C SWAP4 SWAP3 SWAP2 SWAP1 PUSH2 0x1C48 JUMP JUMPDEST PUSH1 0x40 MLOAD DUP1 SWAP2 SUB SWAP1 RETURN JUMPDEST PUSH1 0x2 SLOAD DUP2 JUMP JUMPDEST PUSH1 0x0 DUP1 SLOAD SWAP1 PUSH2 0x100 EXP SWAP1 DIV PUSH20 0xFFFFFFFFFFFFFFFFFFFFFFFFFFFFFFFFFFFFFFFF AND PUSH20 0xFFFFFFFFFFFFFFFFFFFFFFFFFFFFFFFFFFFFFFFF AND CALLER PUSH20 0xFFFFFFFFFFFFFFFFFFFFFFFFFFFFFFFFFFFFFFFF AND EQ PUSH2 0x283 JUMPI PUSH1 0x0 DUP1 REVERT JUMPDEST PUSH1 0x1 PUSH1 0x0 SWAP1 SLOAD SWAP1 PUSH2 0x100 EXP SWAP1 DIV PUSH20 0xFFFFFFFFFFFFFFFFFFFFFFFFFFFFFFFFFFFFFFFF AND PUSH20 0xFFFFFFFFFFFFFFFFFFFFFFFFFFFFFFFFFFFFFFFF AND DUP2 PUSH20 0xFFFFFFFFFFFFFFFFFFFFFFFFFFFFFFFFFFFFFFFF AND SUB PUSH2 0x2DD JUMPI PUSH1 0x0 DUP1 REVERT JUMPDEST PUSH1 0x1 PUSH1 0x0 SWAP1 SLOAD SWAP1 PUSH2 0x100 EXP SWAP1 DIV PUSH20 0xFFFFFFFFFFFFFFFFFFFFFFFFFFFFFFFFFFFFFFFF AND PUSH20 0xFFFFFFFFFFFFFFFFFFFFFFFFFFFFFFFFFFFFFFFF AND PUSH1 0x3 PUSH1 0x0 DUP4 PUSH20 0xFFFFFFFFFFFFFFFFFFFFFFFFFFFFFFFFFFFFFFFF AND PUSH20 0xFFFFFFFFFFFFFFFFFFFFFFFFFFFFFFFFFFFFFFFF AND DUP2 MSTORE PUSH1 0x20 ADD SWAP1 DUP2 MSTORE PUSH1 0x20 ADD PUSH1 0x0 KECCAK256 PUSH1 0x0 ADD PUSH1 0x0 SWAP1 SLOAD SWAP1 PUSH2 0x100 EXP SWAP1 DIV PUSH20 0xFFFFFFFFFFFFFFFFFFFFFFFFFFFFFFFFFFFFFFFF AND PUSH20 0xFFFFFFFFFFFFFFFFFFFFFFFFFFFFFFFFFFFFFFFF AND EQ PUSH2 0x459 JUMPI PUSH2 0x39D DUP2 PUSH2 0x10A3 JUMP JUMPDEST PUSH1 0x1 PUSH1 0x0 SWAP1 SLOAD SWAP1 PUSH2 0x100 EXP SWAP1 DIV PUSH20 0xFFFFFFFFFFFFFFFFFFFFFFFFFFFFFFFFFFFFFFFF AND PUSH1 0x3 PUSH1 0x0 DUP4 PUSH20 0xFFFFFFFFFFFFFFFFFFFFFFFFFFFFFFFFFFFFFFFF AND PUSH20 0xFFFFFFFFFFFFFFFFFFFFFFFFFFFFFFFFFFFFFFFF AND DUP2 MSTORE PUSH1 0x20 ADD SWAP1 DUP2 MSTORE PUSH1 0x20 ADD PUSH1 0x0 KECCAK256 PUSH1 0x0 ADD PUSH1 0x0 PUSH2 0x100 EXP DUP2 SLOAD DUP2 PUSH20 0xFFFFFFFFFFFFFFFFFFFFFFFFFFFFFFFFFFFFFFFF MUL NOT AND SWAP1 DUP4 PUSH20 0xFFFFFFFFFFFFFFFFFFFFFFFFFFFFFFFFFFFFFFFF AND MUL OR SWAP1 SSTORE POP PUSH1 0x2 PUSH1 0x0 DUP2 SLOAD DUP1 SWAP3 SWAP2 SWAP1 PUSH2 0x453 SWAP1 PUSH2 0x1CAE JUMP JUMPDEST SWAP2 SWAP1 POP SSTORE POP JUMPDEST POP JUMP JUMPDEST PUSH1 0x0 DUP1 SLOAD SWAP1 PUSH2 0x100 EXP SWAP1 DIV PUSH20 0xFFFFFFFFFFFFFFFFFFFFFFFFFFFFFFFFFFFFFFFF AND PUSH20 0xFFFFFFFFFFFFFFFFFFFFFFFFFFFFFFFFFFFFFFFF AND CALLER PUSH20 0xFFFFFFFFFFFFFFFFFFFFFFFFFFFFFFFFFFFFFFFF AND EQ PUSH2 0x4B4 JUMPI PUSH1 0x0 DUP1 REVERT JUMPDEST PUSH1 0x1 PUSH1 0x0 SWAP1 SLOAD SWAP1 PUSH2 0x100 EXP SWAP1 DIV PUSH20 0xFFFFFFFFFFFFFFFFFFFFFFFFFFFFFFFFFFFFFFFF AND PUSH20 0xFFFFFFFFFFFFFFFFFFFFFFFFFFFFFFFFFFFFFFFF AND PUSH1 0x3 PUSH1 0x0 DUP6 PUSH20 0xFFFFFFFFFFFFFFFFFFFFFFFFFFFFFFFFFFFFFFFF AND PUSH20 0xFFFFFFFFFFFFFFFFFFFFFFFFFFFFFFFFFFFFFFFF AND DUP2 MSTORE PUSH1 0x20 ADD SWAP1 DUP2 MSTORE PUSH1 0x20 ADD PUSH1 0x0 KECCAK256 PUSH1 0x0 ADD PUSH1 0x0 SWAP1 SLOAD SWAP1 PUSH2 0x100 EXP SWAP1 DIV PUSH20 0xFFFFFFFFFFFFFFFFFFFFFFFFFFFFFFFFFFFFFFFF AND PUSH20 0xFFFFFFFFFFFFFFFFFFFFFFFFFFFFFFFFFFFFFFFF AND EQ PUSH2 0x579 JUMPI PUSH2 0x574 DUP4 PUSH2 0x10A3 JUMP JUMPDEST PUSH2 0x592 JUMP JUMPDEST PUSH1 0x2 PUSH1 0x0 DUP2 SLOAD DUP1 SWAP3 SWAP2 SWAP1 PUSH2 0x58C SWAP1 PUSH2 0x1CD7 JUMP JUMPDEST SWAP2 SWAP1 POP SSTORE POP JUMPDEST PUSH2 0x59D DUP4 DUP4 DUP4 PUSH2 0x1330 JUMP JUMPDEST POP POP POP JUMP JUMPDEST PUSH1 0x1 PUSH1 0x0 SWAP1 SLOAD SWAP1 PUSH2 0x100 EXP SWAP1 DIV PUSH20 0xFFFFFFFFFFFFFFFFFFFFFFFFFFFFFFFFFFFFFFFF AND DUP2 JUMP JUMPDEST PUSH1 0x0 PUSH1 0x1 PUSH1 0x0 SWAP1 SLOAD SWAP1 PUSH2 0x100 EXP SWAP1 DIV PUSH20 0xFFFFFFFFFFFFFFFFFFFFFFFFFFFFFFFFFFFFFFFF AND PUSH20 0xFFFFFFFFFFFFFFFFFFFFFFFFFFFFFFFFFFFFFFFF AND DUP3 PUSH20 0xFFFFFFFFFFFFFFFFFFFFFFFFFFFFFFFFFFFFFFFF AND SUB PUSH2 0x624 JUMPI PUSH1 0x0 DUP1 REVERT JUMPDEST PUSH1 0x1 PUSH1 0x0 SWAP1 SLOAD SWAP1 PUSH2 0x100 EXP SWAP1 DIV PUSH20 0xFFFFFFFFFFFFFFFFFFFFFFFFFFFFFFFFFFFFFFFF AND PUSH20 0xFFFFFFFFFFFFFFFFFFFFFFFFFFFFFFFFFFFFFFFF AND PUSH1 0x3 PUSH1 0x0 DUP5 PUSH20 0xFFFFFFFFFFFFFFFFFFFFFFFFFFFFFFFFFFFFFFFF AND PUSH20 0xFFFFFFFFFFFFFFFFFFFFFFFFFFFFFFFFFFFFFFFF AND DUP2 MSTORE PUSH1 0x20 ADD SWAP1 DUP2 MSTORE PUSH1 0x20 ADD PUSH1 0x0 KECCAK256 PUSH1 0x0 ADD PUSH1 0x0 SWAP1 SLOAD SWAP1 PUSH2 0x100 EXP SWAP1 DIV PUSH20 0xFFFFFFFFFFFFFFFFFFFFFFFFFFFFFFFFFFFFFFFF AND PUSH20 0xFFFFFFFFFFFFFFFFFFFFFFFFFFFFFFFFFFFFFFFF AND SUB PUSH2 0x6E0 JUMPI PUSH1 0x0 DUP1 REVERT JUMPDEST PUSH1 0x3 PUSH1 0x0 DUP4 PUSH20 0xFFFFFFFFFFFFFFFFFFFFFFFFFFFFFFFFFFFFFFFF AND PUSH20 0xFFFFFFFFFFFFFFFFFFFFFFFFFFFFFFFFFFFFFFFF AND DUP2 MSTORE PUSH1 0x20 ADD SWAP1 DUP2 MSTORE PUSH1 0x20 ADD PUSH1 0x0 KECCAK256 PUSH1 0x1 ADD PUSH1 0x0 SWAP1 SLOAD SWAP1 PUSH2 0x100 EXP SWAP1 DIV PUSH20 0xFFFFFFFFFFFFFFFFFFFFFFFFFFFFFFFFFFFFFFFF AND SWAP1 POP SWAP2 SWAP1 POP JUMP JUMPDEST PUSH1 0x0 PUSH1 0x1 PUSH1 0x0 SWAP1 SLOAD SWAP1 PUSH2 0x100 EXP SWAP1 DIV PUSH20 0xFFFFFFFFFFFFFFFFFFFFFFFFFFFFFFFFFFFFFFFF AND PUSH20 0xFFFFFFFFFFFFFFFFFFFFFFFFFFFFFFFFFFFFFFFF AND DUP3 PUSH20 0xFFFFFFFFFFFFFFFFFFFFFFFFFFFFFFFFFFFFFFFF AND SUB PUSH2 0x7A6 JUMPI PUSH1 0x0 DUP1 REVERT JUMPDEST PUSH1 0x1 PUSH1 0x0 SWAP1 SLOAD SWAP1 PUSH2 0x100 EXP SWAP1 DIV PUSH20 0xFFFFFFFFFFFFFFFFFFFFFFFFFFFFFFFFFFFFFFFF AND PUSH20 0xFFFFFFFFFFFFFFFFFFFFFFFFFFFFFFFFFFFFFFFF AND PUSH1 0x3 PUSH1 0x0 DUP5 PUSH20 0xFFFFFFFFFFFFFFFFFFFFFFFFFFFFFFFFFFFFFFFF AND PUSH20 0xFFFFFFFFFFFFFFFFFFFFFFFFFFFFFFFFFFFFFFFF AND DUP2 MSTORE PUSH1 0x20 ADD SWAP1 DUP2 MSTORE PUSH1 0x20 ADD PUSH1 0x0 KECCAK256 PUSH1 0x0 ADD PUSH1 0x0 SWAP1 SLOAD SWAP1 PUSH2 0x100 EXP SWAP1 DIV PUSH20 0xFFFFFFFFFFFFFFFFFFFFFFFFFFFFFFFFFFFFFFFF AND PUSH20 0xFFFFFFFFFFFFFFFFFFFFFFFFFFFFFFFFFFFFFFFF AND SUB PUSH2 0x862 JUMPI PUSH1 0x0 DUP1 REVERT JUMPDEST PUSH1 0x1 PUSH1 0x0 SWAP1 SLOAD SWAP1 PUSH2 0x100 EXP SWAP1 DIV PUSH20 0xFFFFFFFFFFFFFFFFFFFFFFFFFFFFFFFFFFFFFFFF AND PUSH20 0xFFFFFFFFFFFFFFFFFFFFFFFFFFFFFFFFFFFFFFFF AND PUSH1 0x3 PUSH1 0x0 DUP5 PUSH20 0xFFFFFFFFFFFFFFFFFFFFFFFFFFFFFFFFFFFFFFFF AND PUSH20 0xFFFFFFFFFFFFFFFFFFFFFFFFFFFFFFFFFFFFFFFF AND DUP2 MSTORE PUSH1 0x20 ADD SWAP1 DUP2 MSTORE PUSH1 0x20 ADD PUSH1 0x0 KECCAK256 PUSH1 0x2 ADD PUSH1 0x0 SWAP1 SLOAD SWAP1 PUSH2 0x100 EXP SWAP1 DIV PUSH20 0xFFFFFFFFFFFFFFFFFFFFFFFFFFFFFFFFFFFFFFFF AND PUSH20 0xFFFFFFFFFFFFFFFFFFFFFFFFFFFFFFFFFFFFFFFF AND SUB PUSH2 0x91E JUMPI PUSH1 0x0 DUP1 REVERT JUMPDEST PUSH1 0x3 PUSH1 0x0 DUP4 PUSH20 0xFFFFFFFFFFFFFFFFFFFFFFFFFFFFFFFFFFFFFFFF AND PUSH20 0xFFFFFFFFFFFFFFFFFFFFFFFFFFFFFFFFFFFFFFFF AND DUP2 MSTORE PUSH1 0x20 ADD SWAP1 DUP2 MSTORE PUSH1 0x20 ADD PUSH1 0x0 KECCAK256 PUSH1 0x2 ADD PUSH1 0x0 SWAP1 SLOAD SWAP1 PUSH2 0x100 EXP SWAP1 DIV PUSH20 0xFFFFFFFFFFFFFFFFFFFFFFFFFFFFFFFFFFFFFFFF AND SWAP1 POP SWAP2 SWAP1 POP JUMP JUMPDEST PUSH1 0x0 DUP1 DUP3 GT PUSH2 0x996 JUMPI PUSH1 0x0 DUP1 REVERT JUMPDEST PUSH1 0x0 PUSH1 0x3 PUSH1 0x0 PUSH1 0x1 PUSH1 0x0 SWAP1 SLOAD SWAP1 PUSH2 0x100 EXP SWAP1 DIV PUSH20 0xFFFFFFFFFFFFFFFFFFFFFFFFFFFFFFFFFFFFFFFF AND PUSH20 0xFFFFFFFFFFFFFFFFFFFFFFFFFFFFFFFFFFFFFFFF AND PUSH20 0xFFFFFFFFFFFFFFFFFFFFFFFFFFFFFFFFFFFFFFFF AND DUP2 MSTORE PUSH1 0x20 ADD SWAP1 DUP2 MSTORE PUSH1 0x20 ADD PUSH1 0x0 KECCAK256 PUSH1 0x2 ADD PUSH1 0x0 SWAP1 SLOAD SWAP1 PUSH2 0x100 EXP SWAP1 DIV PUSH20 0xFFFFFFFFFFFFFFFFFFFFFFFFFFFFFFFFFFFFFFFF AND SWAP1 POP JUMPDEST DUP3 PUSH1 0x0 DUP1 SLOAD SWAP1 PUSH2 0x100 EXP SWAP1 DIV PUSH20 0xFFFFFFFFFFFFFFFFFFFFFFFFFFFFFFFFFFFFFFFF AND PUSH20 0xFFFFFFFFFFFFFFFFFFFFFFFFFFFFFFFFFFFFFFFF AND PUSH4 0x70A08231 DUP4 PUSH1 0x40 MLOAD DUP3 PUSH4 0xFFFFFFFF AND PUSH1 0xE0 SHL DUP2 MSTORE PUSH1 0x4 ADD PUSH2 0xA7A SWAP2 SWAP1 PUSH2 0x1A6E JUMP JUMPDEST PUSH1 0x20 PUSH1 0x40 MLOAD DUP1 DUP4 SUB DUP2 DUP7 GAS STATICCALL ISZERO DUP1 ISZERO PUSH2 0xA97 JUMPI RETURNDATASIZE PUSH1 0x0 DUP1 RETURNDATACOPY RETURNDATASIZE PUSH1 0x0 REVERT JUMPDEST POP POP POP POP PUSH1 0x40 MLOAD RETURNDATASIZE PUSH1 0x1F NOT PUSH1 0x1F DUP3 ADD AND DUP3 ADD DUP1 PUSH1 0x40 MSTORE POP DUP2 ADD SWAP1 PUSH2 0xABB SWAP2 SWAP1 PUSH2 0x1D34 JUMP JUMPDEST GT ISZERO PUSH2 0xB2B JUMPI PUSH1 0x3 PUSH1 0x0 DUP3 PUSH20 0xFFFFFFFFFFFFFFFFFFFFFFFFFFFFFFFFFFFFFFFF AND PUSH20 0xFFFFFFFFFFFFFFFFFFFFFFFFFFFFFFFFFFFFFFFF AND DUP2 MSTORE PUSH1 0x20 ADD SWAP1 DUP2 MSTORE PUSH1 0x20 ADD PUSH1 0x0 KECCAK256 PUSH1 0x2 ADD PUSH1 0x0 SWAP1 SLOAD SWAP1 PUSH2 0x100 EXP SWAP1 DIV PUSH20 0xFFFFFFFFFFFFFFFFFFFFFFFFFFFFFFFFFFFFFFFF AND SWAP1 POP PUSH2 0xA20 JUMP JUMPDEST DUP1 SWAP2 POP POP SWAP2 SWAP1 POP JUMP JUMPDEST PUSH1 0x0 DUP1 SLOAD SWAP1 PUSH2 0x100 EXP SWAP1 DIV PUSH20 0xFFFFFFFFFFFFFFFFFFFFFFFFFFFFFFFFFFFFFFFF AND PUSH20 0xFFFFFFFFFFFFFFFFFFFFFFFFFFFFFFFFFFFFFFFF AND CALLER PUSH20 0xFFFFFFFFFFFFFFFFFFFFFFFFFFFFFFFFFFFFFFFF AND EQ PUSH2 0xB8C JUMPI PUSH1 0x0 DUP1 REVERT JUMPDEST PUSH1 0x1 PUSH1 0x0 SWAP1 SLOAD SWAP1 PUSH2 0x100 EXP SWAP1 DIV PUSH20 0xFFFFFFFFFFFFFFFFFFFFFFFFFFFFFFFFFFFFFFFF AND PUSH20 0xFFFFFFFFFFFFFFFFFFFFFFFFFFFFFFFFFFFFFFFF AND PUSH1 0x3 PUSH1 0x0 DUP6 PUSH20 0xFFFFFFFFFFFFFFFFFFFFFFFFFFFFFFFFFFFFFFFF AND PUSH20 0xFFFFFFFFFFFFFFFFFFFFFFFFFFFFFFFFFFFFFFFF AND DUP2 MSTORE PUSH1 0x20 ADD SWAP1 DUP2 MSTORE PUSH1 0x20 ADD PUSH1 0x0 KECCAK256 PUSH1 0x0 ADD PUSH1 0x0 SWAP1 SLOAD SWAP1 PUSH2 0x100 EXP SWAP1 DIV PUSH20 0xFFFFFFFFFFFFFFFFFFFFFFFFFFFFFFFFFFFFFFFF AND PUSH20 0xFFFFFFFFFFFFFFFFFFFFFFFFFFFFFFFFFFFFFFFF AND EQ PUSH2 0xC48 JUMPI PUSH1 0x0 DUP1 REVERT JUMPDEST PUSH2 0xC53 DUP4 DUP4 DUP4 PUSH2 0x1330 JUMP JUMPDEST PUSH1 0x2 PUSH1 0x0 DUP2 SLOAD DUP1 SWAP3 SWAP2 SWAP1 PUSH2 0xC66 SWAP1 PUSH2 0x1CD7 JUMP JUMPDEST SWAP2 SWAP1 POP SSTORE POP POP POP POP JUMP JUMPDEST PUSH1 0x60 PUSH1 0x0 DUP4 DUP4 SWAP1 POP PUSH8 0xFFFFFFFFFFFFFFFF DUP2 GT ISZERO PUSH2 0xC91 JUMPI PUSH2 0xC90 PUSH2 0x1D61 JUMP JUMPDEST JUMPDEST PUSH1 0x40 MLOAD SWAP1 DUP1 DUP3 MSTORE DUP1 PUSH1 0x20 MUL PUSH1 0x20 ADD DUP3 ADD PUSH1 0x40 MSTORE DUP1 ISZERO PUSH2 0xCBF JUMPI DUP2 PUSH1 0x20 ADD PUSH1 0x20 DUP3 MUL DUP1 CALLDATASIZE DUP4 CALLDATACOPY DUP1 DUP3 ADD SWAP2 POP POP SWAP1 POP JUMPDEST POP SWAP1 POP PUSH1 0x0 DUP1 PUSH1 0x3 PUSH1 0x0 DUP1 PUSH20 0xFFFFFFFFFFFFFFFFFFFFFFFFFFFFFFFFFFFFFFFF AND PUSH20 0xFFFFFFFFFFFFFFFFFFFFFFFFFFFFFFFFFFFFFFFF AND DUP2 MSTORE PUSH1 0x20 ADD SWAP1 DUP2 MSTORE PUSH1 0x20 ADD PUSH1 0x0 KECCAK256 PUSH1 0x40 MLOAD DUP1 PUSH1 0x60 ADD PUSH1 0x40 MSTORE SWAP1 DUP2 PUSH1 0x0 DUP3 ADD PUSH1 0x0 SWAP1 SLOAD SWAP1 PUSH2 0x100 EXP SWAP1 DIV PUSH20 0xFFFFFFFFFFFFFFFFFFFFFFFFFFFFFFFFFFFFFFFF AND PUSH20 0xFFFFFFFFFFFFFFFFFFFFFFFFFFFFFFFFFFFFFFFF AND PUSH20 0xFFFFFFFFFFFFFFFFFFFFFFFFFFFFFFFFFFFFFFFF AND DUP2 MSTORE PUSH1 0x20 ADD PUSH1 0x1 DUP3 ADD PUSH1 0x0 SWAP1 SLOAD SWAP1 PUSH2 0x100 EXP SWAP1 DIV PUSH20 0xFFFFFFFFFFFFFFFFFFFFFFFFFFFFFFFFFFFFFFFF AND PUSH20 0xFFFFFFFFFFFFFFFFFFFFFFFFFFFFFFFFFFFFFFFF AND PUSH20 0xFFFFFFFFFFFFFFFFFFFFFFFFFFFFFFFFFFFFFFFF AND DUP2 MSTORE PUSH1 0x20 ADD PUSH1 0x2 DUP3 ADD PUSH1 0x0 SWAP1 SLOAD SWAP1 PUSH2 0x100 EXP SWAP1 DIV PUSH20 0xFFFFFFFFFFFFFFFFFFFFFFFFFFFFFFFFFFFFFFFF AND PUSH20 0xFFFFFFFFFFFFFFFFFFFFFFFFFFFFFFFFFFFFFFFF AND PUSH20 0xFFFFFFFFFFFFFFFFFFFFFFFFFFFFFFFFFFFFFFFF AND DUP2 MSTORE POP POP SWAP1 POP PUSH1 0x0 JUMPDEST DUP7 DUP7 SWAP1 POP DUP2 LT ISZERO PUSH2 0x100C JUMPI JUMPDEST DUP7 DUP7 DUP3 DUP2 DUP2 LT PUSH2 0xE35 JUMPI PUSH2 0xE34 PUSH2 0x1D90 JUMP JUMPDEST JUMPDEST SWAP1 POP PUSH1 0x20 MUL ADD CALLDATALOAD DUP4 EQ PUSH2 0xFA7 JUMPI PUSH1 0x3 PUSH1 0x0 DUP4 PUSH1 0x40 ADD MLOAD PUSH20 0xFFFFFFFFFFFFFFFFFFFFFFFFFFFFFFFFFFFFFFFF AND PUSH20 0xFFFFFFFFFFFFFFFFFFFFFFFFFFFFFFFFFFFFFFFF AND DUP2 MSTORE PUSH1 0x20 ADD SWAP1 DUP2 MSTORE PUSH1 0x20 ADD PUSH1 0x0 KECCAK256 PUSH1 0x40 MLOAD DUP1 PUSH1 0x60 ADD PUSH1 0x40 MSTORE SWAP1 DUP2 PUSH1 0x0 DUP3 ADD PUSH1 0x0 SWAP1 SLOAD SWAP1 PUSH2 0x100 EXP SWAP1 DIV PUSH20 0xFFFFFFFFFFFFFFFFFFFFFFFFFFFFFFFFFFFFFFFF AND PUSH20 0xFFFFFFFFFFFFFFFFFFFFFFFFFFFFFFFFFFFFFFFF AND PUSH20 0xFFFFFFFFFFFFFFFFFFFFFFFFFFFFFFFFFFFFFFFF AND DUP2 MSTORE PUSH1 0x20 ADD PUSH1 0x1 DUP3 ADD PUSH1 0x0 SWAP1 SLOAD SWAP1 PUSH2 0x100 EXP SWAP1 DIV PUSH20 0xFFFFFFFFFFFFFFFFFFFFFFFFFFFFFFFFFFFFFFFF AND PUSH20 0xFFFFFFFFFFFFFFFFFFFFFFFFFFFFFFFFFFFFFFFF AND PUSH20 0xFFFFFFFFFFFFFFFFFFFFFFFFFFFFFFFFFFFFFFFF AND DUP2 MSTORE PUSH1 0x20 ADD PUSH1 0x2 DUP3 ADD PUSH1 0x0 SWAP1 SLOAD SWAP1 PUSH2 0x100 EXP SWAP1 DIV PUSH20 0xFFFFFFFFFFFFFFFFFFFFFFFFFFFFFFFFFFFFFFFF AND PUSH20 0xFFFFFFFFFFFFFFFFFFFFFFFFFFFFFFFFFFFFFFFF AND PUSH20 0xFFFFFFFFFFFFFFFFFFFFFFFFFFFFFFFFFFFFFFFF AND DUP2 MSTORE POP POP SWAP2 POP DUP3 DUP1 PUSH2 0xF9F SWAP1 PUSH2 0x1CD7 JUMP JUMPDEST SWAP4 POP POP PUSH2 0xE22 JUMP JUMPDEST DUP2 PUSH1 0x0 ADD MLOAD DUP5 DUP3 DUP2 MLOAD DUP2 LT PUSH2 0xFBF JUMPI PUSH2 0xFBE PUSH2 0x1D90 JUMP JUMPDEST JUMPDEST PUSH1 0x20 MUL PUSH1 0x20 ADD ADD SWAP1 PUSH20 0xFFFFFFFFFFFFFFFFFFFFFFFFFFFFFFFFFFFFFFFF AND SWAP1 DUP2 PUSH20 0xFFFFFFFFFFFFFFFFFFFFFFFFFFFFFFFFFFFFFFFF AND DUP2 MSTORE POP POP DUP1 DUP1 PUSH2 0x1004 SWAP1 PUSH2 0x1CD7 JUMP JUMPDEST SWAP2 POP POP PUSH2 0xE16 JUMP JUMPDEST POP DUP3 SWAP4 POP POP POP POP SWAP3 SWAP2 POP POP JUMP JUMPDEST PUSH1 0x3 PUSH1 0x20 MSTORE DUP1 PUSH1 0x0 MSTORE PUSH1 0x40 PUSH1 0x0 KECCAK256 PUSH1 0x0 SWAP2 POP SWAP1 POP DUP1 PUSH1 0x0 ADD PUSH1 0x0 SWAP1 SLOAD SWAP1 PUSH2 0x100 EXP SWAP1 DIV PUSH20 0xFFFFFFFFFFFFFFFFFFFFFFFFFFFFFFFFFFFFFFFF AND SWAP1 DUP1 PUSH1 0x1 ADD PUSH1 0x0 SWAP1 SLOAD SWAP1 PUSH2 0x100 EXP SWAP1 DIV PUSH20 0xFFFFFFFFFFFFFFFFFFFFFFFFFFFFFFFFFFFFFFFF AND SWAP1 DUP1 PUSH1 0x2 ADD PUSH1 0x0 SWAP1 SLOAD SWAP1 PUSH2 0x100 EXP SWAP1 DIV PUSH20 0xFFFFFFFFFFFFFFFFFFFFFFFFFFFFFFFFFFFFFFFF AND SWAP1 POP DUP4 JUMP JUMPDEST PUSH1 0x3 PUSH1 0x0 DUP3 PUSH20 0xFFFFFFFFFFFFFFFFFFFFFFFFFFFFFFFFFFFFFFFF AND PUSH20 0xFFFFFFFFFFFFFFFFFFFFFFFFFFFFFFFFFFFFFFFF AND DUP2 MSTORE PUSH1 0x20 ADD SWAP1 DUP2 MSTORE PUSH1 0x20 ADD PUSH1 0x0 KECCAK256 PUSH1 0x2 ADD PUSH1 0x0 SWAP1 SLOAD SWAP1 PUSH2 0x100 EXP SWAP1 DIV PUSH20 0xFFFFFFFFFFFFFFFFFFFFFFFFFFFFFFFFFFFFFFFF AND PUSH1 0x3 PUSH1 0x0 PUSH1 0x3 PUSH1 0x0 DUP6 PUSH20 0xFFFFFFFFFFFFFFFFFFFFFFFFFFFFFFFFFFFFFFFF AND PUSH20 0xFFFFFFFFFFFFFFFFFFFFFFFFFFFFFFFFFFFFFFFF AND DUP2 MSTORE PUSH1 0x20 ADD SWAP1 DUP2 MSTORE PUSH1 0x20 ADD PUSH1 0x0 KECCAK256 PUSH1 0x1 ADD PUSH1 0x0 SWAP1 SLOAD SWAP1 PUSH2 0x100 EXP SWAP1 DIV PUSH20 0xFFFFFFFFFFFFFFFFFFFFFFFFFFFFFFFFFFFFFFFF AND PUSH20 0xFFFFFFFFFFFFFFFFFFFFFFFFFFFFFFFFFFFFFFFF AND PUSH20 0xFFFFFFFFFFFFFFFFFFFFFFFFFFFFFFFFFFFFFFFF AND DUP2 MSTORE PUSH1 0x20 ADD SWAP1 DUP2 MSTORE PUSH1 0x20 ADD PUSH1 0x0 KECCAK256 PUSH1 0x2 ADD PUSH1 0x0 PUSH2 0x100 EXP DUP2 SLOAD DUP2 PUSH20 0xFFFFFFFFFFFFFFFFFFFFFFFFFFFFFFFFFFFFFFFF MUL NOT AND SWAP1 DUP4 PUSH20 0xFFFFFFFFFFFFFFFFFFFFFFFFFFFFFFFFFFFFFFFF AND MUL OR SWAP1 SSTORE POP PUSH1 0x3 PUSH1 0x0 DUP3 PUSH20 0xFFFFFFFFFFFFFFFFFFFFFFFFFFFFFFFFFFFFFFFF AND PUSH20 0xFFFFFFFFFFFFFFFFFFFFFFFFFFFFFFFFFFFFFFFF AND DUP2 MSTORE PUSH1 0x20 ADD SWAP1 DUP2 MSTORE PUSH1 0x20 ADD PUSH1 0x0 KECCAK256 PUSH1 0x1 ADD PUSH1 0x0 SWAP1 SLOAD SWAP1 PUSH2 0x100 EXP SWAP1 DIV PUSH20 0xFFFFFFFFFFFFFFFFFFFFFFFFFFFFFFFFFFFFFFFF AND PUSH1 0x3 PUSH1 0x0 PUSH1 0x3 PUSH1 0x0 DUP6 PUSH20 0xFFFFFFFFFFFFFFFFFFFFFFFFFFFFFFFFFFFFFFFF AND PUSH20 0xFFFFFFFFFFFFFFFFFFFFFFFFFFFFFFFFFFFFFFFF AND DUP2 MSTORE PUSH1 0x20 ADD SWAP1 DUP2 MSTORE PUSH1 0x20 ADD PUSH1 0x0 KECCAK256 PUSH1 0x2 ADD PUSH1 0x0 SWAP1 SLOAD SWAP1 PUSH2 0x100 EXP SWAP1 DIV PUSH20 0xFFFFFFFFFFFFFFFFFFFFFFFFFFFFFFFFFFFFFFFF AND PUSH20 0xFFFFFFFFFFFFFFFFFFFFFFFFFFFFFFFFFFFFFFFF AND PUSH20 0xFFFFFFFFFFFFFFFFFFFFFFFFFFFFFFFFFFFFFFFF AND DUP2 MSTORE PUSH1 0x20 ADD SWAP1 DUP2 MSTORE PUSH1 0x20 ADD PUSH1 0x0 KECCAK256 PUSH1 0x1 ADD PUSH1 0x0 PUSH2 0x100 EXP DUP2 SLOAD DUP2 PUSH20 0xFFFFFFFFFFFFFFFFFFFFFFFFFFFFFFFFFFFFFFFF MUL NOT AND SWAP1 DUP4 PUSH20 0xFFFFFFFFFFFFFFFFFFFFFFFFFFFFFFFFFFFFFFFF AND MUL OR SWAP1 SSTORE POP POP JUMP JUMPDEST PUSH1 0x0 PUSH1 0x3 PUSH1 0x0 DUP4 PUSH20 0xFFFFFFFFFFFFFFFFFFFFFFFFFFFFFFFFFFFFFFFF AND PUSH20 0xFFFFFFFFFFFFFFFFFFFFFFFFFFFFFFFFFFFFFFFF AND DUP2 MSTORE PUSH1 0x20 ADD SWAP1 DUP2 MSTORE PUSH1 0x20 ADD PUSH1 0x0 KECCAK256 SWAP1 POP PUSH1 0x0 DUP1 PUSH1 0x0 SWAP1 SLOAD SWAP1 PUSH2 0x100 EXP SWAP1 DIV PUSH20 0xFFFFFFFFFFFFFFFFFFFFFFFFFFFFFFFFFFFFFFFF AND PUSH20 0xFFFFFFFFFFFFFFFFFFFFFFFFFFFFFFFFFFFFFFFF AND PUSH4 0x70A08231 DUP4 PUSH1 0x1 ADD PUSH1 0x0 SWAP1 SLOAD SWAP1 PUSH2 0x100 EXP SWAP1 DIV PUSH20 0xFFFFFFFFFFFFFFFFFFFFFFFFFFFFFFFFFFFFFFFF AND PUSH1 0x40 MLOAD DUP3 PUSH4 0xFFFFFFFF AND PUSH1 0xE0 SHL DUP2 MSTORE PUSH1 0x4 ADD PUSH2 0x13F3 SWAP2 SWAP1 PUSH2 0x1A6E JUMP JUMPDEST PUSH1 0x20 PUSH1 0x40 MLOAD DUP1 DUP4 SUB DUP2 DUP7 GAS STATICCALL ISZERO DUP1 ISZERO PUSH2 0x1410 JUMPI RETURNDATASIZE PUSH1 0x0 DUP1 RETURNDATACOPY RETURNDATASIZE PUSH1 0x0 REVERT JUMPDEST POP POP POP POP PUSH1 0x40 MLOAD RETURNDATASIZE PUSH1 0x1F NOT PUSH1 0x1F DUP3 ADD AND DUP3 ADD DUP1 PUSH1 0x40 MSTORE POP DUP2 ADD SWAP1 PUSH2 0x1434 SWAP2 SWAP1 PUSH2 0x1D34 JUMP JUMPDEST SWAP1 POP PUSH1 0x0 DUP1 PUSH1 0x0 SWAP1 SLOAD SWAP1 PUSH2 0x100 EXP SWAP1 DIV PUSH20 0xFFFFFFFFFFFFFFFFFFFFFFFFFFFFFFFFFFFFFFFF AND PUSH20 0xFFFFFFFFFFFFFFFFFFFFFFFFFFFFFFFFFFFFFFFF AND PUSH4 0x70A08231 DUP5 PUSH1 0x2 ADD PUSH1 0x0 SWAP1 SLOAD SWAP1 PUSH2 0x100 EXP SWAP1 DIV PUSH20 0xFFFFFFFFFFFFFFFFFFFFFFFFFFFFFFFFFFFFFFFF AND PUSH1 0x40 MLOAD DUP3 PUSH4 0xFFFFFFFF AND PUSH1 0xE0 SHL DUP2 MSTORE PUSH1 0x4 ADD PUSH2 0x14B6 SWAP2 SWAP1 PUSH2 0x1A6E JUMP JUMPDEST PUSH1 0x20 PUSH1 0x40 MLOAD DUP1 DUP4 SUB DUP2 DUP7 GAS STATICCALL ISZERO DUP1 ISZERO PUSH2 0x14D3 JUMPI RETURNDATASIZE PUSH1 0x0 DUP1 RETURNDATACOPY RETURNDATASIZE PUSH1 0x0 REVERT JUMPDEST POP POP POP POP PUSH1 0x40 MLOAD RETURNDATASIZE PUSH1 0x1F NOT PUSH1 0x1F DUP3 ADD AND DUP3 ADD DUP1 PUSH1 0x40 MSTORE POP DUP2 ADD SWAP1 PUSH2 0x14F7 SWAP2 SWAP1 PUSH2 0x1D34 JUMP JUMPDEST SWAP1 POP PUSH1 0x1 PUSH1 0x0 SWAP1 SLOAD SWAP1 PUSH2 0x100 EXP SWAP1 DIV PUSH20 0xFFFFFFFFFFFFFFFFFFFFFFFFFFFFFFFFFFFFFFFF AND PUSH20 0xFFFFFFFFFFFFFFFFFFFFFFFFFFFFFFFFFFFFFFFF AND DUP5 PUSH20 0xFFFFFFFFFFFFFFFFFFFFFFFFFFFFFFFFFFFFFFFF AND EQ DUP1 PUSH2 0x1605 JUMPI POP PUSH1 0x1 PUSH1 0x0 SWAP1 SLOAD SWAP1 PUSH2 0x100 EXP SWAP1 DIV PUSH20 0xFFFFFFFFFFFFFFFFFFFFFFFFFFFFFFFFFFFFFFFF AND PUSH20 0xFFFFFFFFFFFFFFFFFFFFFFFFFFFFFFFFFFFFFFFF AND PUSH1 0x3 PUSH1 0x0 DUP7 PUSH20 0xFFFFFFFFFFFFFFFFFFFFFFFFFFFFFFFFFFFFFFFF AND PUSH20 0xFFFFFFFFFFFFFFFFFFFFFFFFFFFFFFFFFFFFFFFF AND DUP2 MSTORE PUSH1 0x20 ADD SWAP1 DUP2 MSTORE PUSH1 0x20 ADD PUSH1 0x0 KECCAK256 PUSH1 0x0 ADD PUSH1 0x0 SWAP1 SLOAD SWAP1 PUSH2 0x100 EXP SWAP1 DIV PUSH20 0xFFFFFFFFFFFFFFFFFFFFFFFFFFFFFFFFFFFFFFFF AND PUSH20 0xFFFFFFFFFFFFFFFFFFFFFFFFFFFFFFFFFFFFFFFF AND EQ ISZERO JUMPDEST PUSH2 0x160E JUMPI PUSH1 0x0 DUP1 REVERT JUMPDEST PUSH1 0x1 PUSH1 0x0 SWAP1 SLOAD SWAP1 PUSH2 0x100 EXP SWAP1 DIV PUSH20 0xFFFFFFFFFFFFFFFFFFFFFFFFFFFFFFFFFFFFFFFF AND PUSH20 0xFFFFFFFFFFFFFFFFFFFFFFFFFFFFFFFFFFFFFFFF AND DUP4 PUSH1 0x1 ADD PUSH1 0x0 SWAP1 SLOAD SWAP1 PUSH2 0x100 EXP SWAP1 DIV PUSH20 0xFFFFFFFFFFFFFFFFFFFFFFFFFFFFFFFFFFFFFFFF AND PUSH20 0xFFFFFFFFFFFFFFFFFFFFFFFFFFFFFFFFFFFFFFFF AND EQ DUP1 PUSH2 0x168E JUMPI POP DUP5 DUP3 LT ISZERO JUMPDEST DUP1 ISZERO PUSH2 0x169A JUMPI POP DUP5 DUP2 GT ISZERO JUMPDEST PUSH2 0x16A3 JUMPI PUSH1 0x0 DUP1 REVERT JUMPDEST PUSH1 0x0 PUSH1 0x3 PUSH1 0x0 DUP7 PUSH20 0xFFFFFFFFFFFFFFFFFFFFFFFFFFFFFFFFFFFFFFFF AND PUSH20 0xFFFFFFFFFFFFFFFFFFFFFFFFFFFFFFFFFFFFFFFF AND DUP2 MSTORE PUSH1 0x20 ADD SWAP1 DUP2 MSTORE PUSH1 0x20 ADD PUSH1 0x0 KECCAK256 PUSH1 0x2 ADD PUSH1 0x0 SWAP1 SLOAD SWAP1 PUSH2 0x100 EXP SWAP1 DIV PUSH20 0xFFFFFFFFFFFFFFFFFFFFFFFFFFFFFFFFFFFFFFFF AND SWAP1 POP DUP7 PUSH1 0x3 PUSH1 0x0 DUP8 PUSH20 0xFFFFFFFFFFFFFFFFFFFFFFFFFFFFFFFFFFFFFFFF AND PUSH20 0xFFFFFFFFFFFFFFFFFFFFFFFFFFFFFFFFFFFFFFFF AND DUP2 MSTORE PUSH1 0x20 ADD SWAP1 DUP2 MSTORE PUSH1 0x20 ADD PUSH1 0x0 KECCAK256 PUSH1 0x2 ADD PUSH1 0x0 PUSH2 0x100 EXP DUP2 SLOAD DUP2 PUSH20 0xFFFFFFFFFFFFFFFFFFFFFFFFFFFFFFFFFFFFFFFF MUL NOT AND SWAP1 DUP4 PUSH20 0xFFFFFFFFFFFFFFFFFFFFFFFFFFFFFFFFFFFFFFFF AND MUL OR SWAP1 SSTORE POP DUP1 PUSH1 0x3 PUSH1 0x0 DUP10 PUSH20 0xFFFFFFFFFFFFFFFFFFFFFFFFFFFFFFFFFFFFFFFF AND PUSH20 0xFFFFFFFFFFFFFFFFFFFFFFFFFFFFFFFFFFFFFFFF AND DUP2 MSTORE PUSH1 0x20 ADD SWAP1 DUP2 MSTORE PUSH1 0x20 ADD PUSH1 0x0 KECCAK256 PUSH1 0x2 ADD PUSH1 0x0 PUSH2 0x100 EXP DUP2 SLOAD DUP2 PUSH20 0xFFFFFFFFFFFFFFFFFFFFFFFFFFFFFFFFFFFFFFFF MUL NOT AND SWAP1 DUP4 PUSH20 0xFFFFFFFFFFFFFFFFFFFFFFFFFFFFFFFFFFFFFFFF AND MUL OR SWAP1 SSTORE POP DUP7 PUSH1 0x3 PUSH1 0x0 DUP4 PUSH20 0xFFFFFFFFFFFFFFFFFFFFFFFFFFFFFFFFFFFFFFFF AND PUSH20 0xFFFFFFFFFFFFFFFFFFFFFFFFFFFFFFFFFFFFFFFF AND DUP2 MSTORE PUSH1 0x20 ADD SWAP1 DUP2 MSTORE PUSH1 0x20 ADD PUSH1 0x0 KECCAK256 PUSH1 0x1 ADD PUSH1 0x0 PUSH2 0x100 EXP DUP2 SLOAD DUP2 PUSH20 0xFFFFFFFFFFFFFFFFFFFFFFFFFFFFFFFFFFFFFFFF MUL NOT AND SWAP1 DUP4 PUSH20 0xFFFFFFFFFFFFFFFFFFFFFFFFFFFFFFFFFFFFFFFF AND MUL OR SWAP1 SSTORE POP DUP7 PUSH1 0x3 PUSH1 0x0 DUP10 PUSH20 0xFFFFFFFFFFFFFFFFFFFFFFFFFFFFFFFFFFFFFFFF AND PUSH20 0xFFFFFFFFFFFFFFFFFFFFFFFFFFFFFFFFFFFFFFFF AND DUP2 MSTORE PUSH1 0x20 ADD SWAP1 DUP2 MSTORE PUSH1 0x20 ADD PUSH1 0x0 KECCAK256 PUSH1 0x0 ADD PUSH1 0x0 PUSH2 0x100 EXP DUP2 SLOAD DUP2 PUSH20 0xFFFFFFFFFFFFFFFFFFFFFFFFFFFFFFFFFFFFFFFF MUL NOT AND SWAP1 DUP4 PUSH20 0xFFFFFFFFFFFFFFFFFFFFFFFFFFFFFFFFFFFFFFFF AND MUL OR SWAP1 SSTORE POP POP POP POP POP POP POP POP JUMP JUMPDEST PUSH1 0x0 DUP2 SWAP1 POP SWAP2 SWAP1 POP JUMP JUMPDEST PUSH2 0x192A DUP2 PUSH2 0x1917 JUMP JUMPDEST DUP3 MSTORE POP POP JUMP JUMPDEST PUSH1 0x0 PUSH1 0x20 DUP3 ADD SWAP1 POP PUSH2 0x1945 PUSH1 0x0 DUP4 ADD DUP5 PUSH2 0x1921 JUMP JUMPDEST SWAP3 SWAP2 POP POP JUMP JUMPDEST PUSH1 0x0 DUP1 REVERT JUMPDEST PUSH1 0x0 DUP1 REVERT JUMPDEST PUSH1 0x0 PUSH20 0xFFFFFFFFFFFFFFFFFFFFFFFFFFFFFFFFFFFFFFFF DUP3 AND SWAP1 POP SWAP2 SWAP1 POP JUMP JUMPDEST PUSH1 0x0 PUSH2 0x1980 DUP3 PUSH2 0x1955 JUMP JUMPDEST SWAP1 POP SWAP2 SWAP1 POP JUMP JUMPDEST PUSH2 0x1990 DUP2 PUSH2 0x1975 JUMP JUMPDEST DUP2 EQ PUSH2 0x199B JUMPI PUSH1 0x0 DUP1 REVERT JUMPDEST POP JUMP JUMPDEST PUSH1 0x0 DUP2 CALLDATALOAD SWAP1 POP PUSH2 0x19AD DUP2 PUSH2 0x1987 JUMP JUMPDEST SWAP3 SWAP2 POP POP JUMP JUMPDEST PUSH1 0x0 PUSH1 0x20 DUP3 DUP5 SUB SLT ISZERO PUSH2 0x19C9 JUMPI PUSH2 0x19C8 PUSH2 0x194B JUMP JUMPDEST JUMPDEST PUSH1 0x0 PUSH2 0x19D7 DUP5 DUP3 DUP6 ADD PUSH2 0x199E JUMP JUMPDEST SWAP2 POP POP SWAP3 SWAP2 POP POP JUMP JUMPDEST PUSH2 0x19E9 DUP2 PUSH2 0x1917 JUMP JUMPDEST DUP2 EQ PUSH2 0x19F4 JUMPI PUSH1 0x0 DUP1 REVERT JUMPDEST POP JUMP JUMPDEST PUSH1 0x0 DUP2 CALLDATALOAD SWAP1 POP PUSH2 0x1A06 DUP2 PUSH2 0x19E0 JUMP JUMPDEST SWAP3 SWAP2 POP POP JUMP JUMPDEST PUSH1 0x0 DUP1 PUSH1 0x0 PUSH1 0x60 DUP5 DUP7 SUB SLT ISZERO PUSH2 0x1A25 JUMPI PUSH2 0x1A24 PUSH2 0x194B JUMP JUMPDEST JUMPDEST PUSH1 0x0 PUSH2 0x1A33 DUP7 DUP3 DUP8 ADD PUSH2 0x199E JUMP JUMPDEST SWAP4 POP POP PUSH1 0x20 PUSH2 0x1A44 DUP7 DUP3 DUP8 ADD PUSH2 0x19F7 JUMP JUMPDEST SWAP3 POP POP PUSH1 0x40 PUSH2 0x1A55 DUP7 DUP3 DUP8 ADD PUSH2 0x199E JUMP JUMPDEST SWAP2 POP POP SWAP3 POP SWAP3 POP SWAP3 JUMP JUMPDEST PUSH2 0x1A68 DUP2 PUSH2 0x1975 JUMP JUMPDEST DUP3 MSTORE POP POP JUMP JUMPDEST PUSH1 0x0 PUSH1 0x20 DUP3 ADD SWAP1 POP PUSH2 0x1A83 PUSH1 0x0 DUP4 ADD DUP5 PUSH2 0x1A5F JUMP JUMPDEST SWAP3 SWAP2 POP POP JUMP JUMPDEST PUSH1 0x0 PUSH1 0x20 DUP3 DUP5 SUB SLT ISZERO PUSH2 0x1A9F JUMPI PUSH2 0x1A9E PUSH2 0x194B JUMP JUMPDEST JUMPDEST PUSH1 0x0 PUSH2 0x1AAD DUP5 DUP3 DUP6 ADD PUSH2 0x19F7 JUMP JUMPDEST SWAP2 POP POP SWAP3 SWAP2 POP POP JUMP JUMPDEST PUSH1 0x0 DUP1 REVERT JUMPDEST PUSH1 0x0 DUP1 REVERT JUMPDEST PUSH1 0x0 DUP1 REVERT JUMPDEST PUSH1 0x0 DUP1 DUP4 PUSH1 0x1F DUP5 ADD SLT PUSH2 0x1ADB JUMPI PUSH2 0x1ADA PUSH2 0x1AB6 JUMP JUMPDEST JUMPDEST DUP3 CALLDATALOAD SWAP1 POP PUSH8 0xFFFFFFFFFFFFFFFF DUP2 GT ISZERO PUSH2 0x1AF8 JUMPI PUSH2 0x1AF7 PUSH2 0x1ABB JUMP JUMPDEST JUMPDEST PUSH1 0x20 DUP4 ADD SWAP2 POP DUP4 PUSH1 0x20 DUP3 MUL DUP4 ADD GT ISZERO PUSH2 0x1B14 JUMPI PUSH2 0x1B13 PUSH2 0x1AC0 JUMP JUMPDEST JUMPDEST SWAP3 POP SWAP3 SWAP1 POP JUMP JUMPDEST PUSH1 0x0 DUP1 PUSH1 0x20 DUP4 DUP6 SUB SLT ISZERO PUSH2 0x1B32 JUMPI PUSH2 0x1B31 PUSH2 0x194B JUMP JUMPDEST JUMPDEST PUSH1 0x0 DUP4 ADD CALLDATALOAD PUSH8 0xFFFFFFFFFFFFFFFF DUP2 GT ISZERO PUSH2 0x1B50 JUMPI PUSH2 0x1B4F PUSH2 0x1950 JUMP JUMPDEST JUMPDEST PUSH2 0x1B5C DUP6 DUP3 DUP7 ADD PUSH2 0x1AC5 JUMP JUMPDEST SWAP3 POP SWAP3 POP POP SWAP3 POP SWAP3 SWAP1 POP JUMP JUMPDEST PUSH1 0x0 DUP2 MLOAD SWAP1 POP SWAP2 SWAP1 POP JUMP JUMPDEST PUSH1 0x0 DUP3 DUP3 MSTORE PUSH1 0x20 DUP3 ADD SWAP1 POP SWAP3 SWAP2 POP POP JUMP JUMPDEST PUSH1 0x0 DUP2 SWAP1 POP PUSH1 0x20 DUP3 ADD SWAP1 POP SWAP2 SWAP1 POP JUMP JUMPDEST PUSH2 0x1B9D DUP2 PUSH2 0x1975 JUMP JUMPDEST DUP3 MSTORE POP POP JUMP JUMPDEST PUSH1 0x0 PUSH2 0x1BAF DUP4 DUP4 PUSH2 0x1B94 JUMP JUMPDEST PUSH1 0x20 DUP4 ADD SWAP1 POP SWAP3 SWAP2 POP POP JUMP JUMPDEST PUSH1 0x0 PUSH1 0x20 DUP3 ADD SWAP1 POP SWAP2 SWAP1 POP JUMP JUMPDEST PUSH1 0x0 PUSH2 0x1BD3 DUP3 PUSH2 0x1B68 JUMP JUMPDEST PUSH2 0x1BDD DUP2 DUP6 PUSH2 0x1B73 JUMP JUMPDEST SWAP4 POP PUSH2 0x1BE8 DUP4 PUSH2 0x1B84 JUMP JUMPDEST DUP1 PUSH1 0x0 JUMPDEST DUP4 DUP2 LT ISZERO PUSH2 0x1C19 JUMPI DUP2 MLOAD PUSH2 0x1C00 DUP9 DUP3 PUSH2 0x1BA3 JUMP JUMPDEST SWAP8 POP PUSH2 0x1C0B DUP4 PUSH2 0x1BBB JUMP JUMPDEST SWAP3 POP POP PUSH1 0x1 DUP2 ADD SWAP1 POP PUSH2 0x1BEC JUMP JUMPDEST POP DUP6 SWAP4 POP POP POP POP SWAP3 SWAP2 POP POP JUMP JUMPDEST PUSH1 0x0 PUSH1 0x20 DUP3 ADD SWAP1 POP DUP2 DUP2 SUB PUSH1 0x0 DUP4 ADD MSTORE PUSH2 0x1C40 DUP2 DUP5 PUSH2 0x1BC8 JUMP JUMPDEST SWAP1 POP SWAP3 SWAP2 POP POP JUMP JUMPDEST PUSH1 0x0 PUSH1 0x60 DUP3 ADD SWAP1 POP PUSH2 0x1C5D PUSH1 0x0 DUP4 ADD DUP7 PUSH2 0x1A5F JUMP JUMPDEST PUSH2 0x1C6A PUSH1 0x20 DUP4 ADD DUP6 PUSH2 0x1A5F JUMP JUMPDEST PUSH2 0x1C77 PUSH1 0x40 DUP4 ADD DUP5 PUSH2 0x1A5F JUMP JUMPDEST SWAP5 SWAP4 POP POP POP POP JUMP JUMPDEST PUSH32 0x4E487B7100000000000000000000000000000000000000000000000000000000 PUSH1 0x0 MSTORE PUSH1 0x11 PUSH1 0x4 MSTORE PUSH1 0x24 PUSH1 0x0 REVERT JUMPDEST PUSH1 0x0 PUSH2 0x1CB9 DUP3 PUSH2 0x1917 JUMP JUMPDEST SWAP2 POP PUSH1 0x0 DUP3 SUB PUSH2 0x1CCC JUMPI PUSH2 0x1CCB PUSH2 0x1C7F JUMP JUMPDEST JUMPDEST PUSH1 0x1 DUP3 SUB SWAP1 POP SWAP2 SWAP1 POP JUMP JUMPDEST PUSH1 0x0 PUSH2 0x1CE2 DUP3 PUSH2 0x1917 JUMP JUMPDEST SWAP2 POP PUSH32 0xFFFFFFFFFFFFFFFFFFFFFFFFFFFFFFFFFFFFFFFFFFFFFFFFFFFFFFFFFFFFFFFF DUP3 SUB PUSH2 0x1D14 JUMPI PUSH2 0x1D13 PUSH2 0x1C7F JUMP JUMPDEST JUMPDEST PUSH1 0x1 DUP3 ADD SWAP1 POP SWAP2 SWAP1 POP JUMP JUMPDEST PUSH1 0x0 DUP2 MLOAD SWAP1 POP PUSH2 0x1D2E DUP2 PUSH2 0x19E0 JUMP JUMPDEST SWAP3 SWAP2 POP POP JUMP JUMPDEST PUSH1 0x0 PUSH1 0x20 DUP3 DUP5 SUB SLT ISZERO PUSH2 0x1D4A JUMPI PUSH2 0x1D49 PUSH2 0x194B JUMP JUMPDEST JUMPDEST PUSH1 0x0 PUSH2 0x1D58 DUP5 DUP3 DUP6 ADD PUSH2 0x1D1F JUMP JUMPDEST SWAP2 POP POP SWAP3 SWAP2 POP POP JUMP JUMPDEST PUSH32 0x4E487B7100000000000000000000000000000000000000000000000000000000 PUSH1 0x0 MSTORE PUSH1 0x41 PUSH1 0x4 MSTORE PUSH1 0x24 PUSH1 0x0 REVERT JUMPDEST PUSH32 0x4E487B7100000000000000000000000000000000000000000000000000000000 PUSH1 0x0 MSTORE PUSH1 0x32 PUSH1 0x4 MSTORE PUSH1 0x24 PUSH1 0x0 REVERT INVALID LOG2 PUSH5 0x6970667358 0x22 SLT KECCAK256 PUSH31 0xD5D685CE1F76E98C73F8114EA201F93ADE598407F9ECE6C5E481A6505E5B6C PUSH5 0x736F6C6343 STOP ADDMOD SLT STOP CALLER "
				},
				"gasEstimates": {
					"creation": {
						"codeDepositCost": "1533800",
						"executionCost": "infinite",
						"totalCost": "infinite"
					},
					"external": {
						"ZERO_ADDRESS()": "2581",
						"getFront(address)": "infinite",
						"getNewNodeFront(uint256)": "infinite",
						"getNext(address)": "infinite",
						"getNodes(uint256[])": "infinite",
						"increate(address,uint256,address)": "infinite",
						"length()": "2430",
						"nodeTable(address)": "infinite",
						"remove(address)": "117758",
						"update(address,uint256,address)": "infinite"
					},
					"internal": {
						"_increate(address,uint256,address)": "infinite",
						"_remove(address)": "57671"
					}
				},
				"methodIdentifiers": {
					"ZERO_ADDRESS()": "538ba4f9",
					"getFront(address)": "55da9813",
					"getNewNodeFront(uint256)": "819e3503",
					"getNext(address)": "765e0159",
					"getNodes(uint256[])": "a5541c84",
					"increate(address,uint256,address)": "8f52d408",
					"length()": "1f7b6d32",
					"nodeTable(address)": "a5c2cce0",
					"remove(address)": "29092d0e",
					"update(address,uint256,address)": "501a5162"
				}
			},
			"storageLayout": {
				"storage": [
					{
						"astId": 5,
						"contract": "vinci-protocol/contracts/BalanceLinkedList.sol:BalanceLinkedList",
						"label": "balanceReader",
						"offset": 0,
						"slot": "0",
						"type": "t_contract(BalanceReader)470"
					},
					{
						"astId": 30,
						"contract": "vinci-protocol/contracts/BalanceLinkedList.sol:BalanceLinkedList",
						"label": "ZERO_ADDRESS",
						"offset": 0,
						"slot": "1",
						"type": "t_address"
					},
					{
						"astId": 33,
						"contract": "vinci-protocol/contracts/BalanceLinkedList.sol:BalanceLinkedList",
						"label": "length",
						"offset": 0,
						"slot": "2",
						"type": "t_uint256"
					},
					{
						"astId": 52,
						"contract": "vinci-protocol/contracts/BalanceLinkedList.sol:BalanceLinkedList",
						"label": "nodeTable",
						"offset": 0,
						"slot": "3",
						"type": "t_mapping(t_address,t_struct(Node)24_storage)"
					}
				],
				"types": {
					"t_address": {
						"encoding": "inplace",
						"label": "address",
						"numberOfBytes": "20"
					},
					"t_contract(BalanceReader)470": {
						"encoding": "inplace",
						"label": "contract BalanceReader",
						"numberOfBytes": "20"
					},
					"t_mapping(t_address,t_struct(Node)24_storage)": {
						"encoding": "mapping",
						"key": "t_address",
						"label": "mapping(address => struct BalanceLinkedList.Node)",
						"numberOfBytes": "32",
						"value": "t_struct(Node)24_storage"
					},
					"t_struct(Node)24_storage": {
						"encoding": "inplace",
						"label": "struct BalanceLinkedList.Node",
						"members": [
							{
								"astId": 19,
								"contract": "vinci-protocol/contracts/BalanceLinkedList.sol:BalanceLinkedList",
								"label": "current",
								"offset": 0,
								"slot": "0",
								"type": "t_address"
							},
							{
								"astId": 21,
								"contract": "vinci-protocol/contracts/BalanceLinkedList.sol:BalanceLinkedList",
								"label": "front",
								"offset": 0,
								"slot": "1",
								"type": "t_address"
							},
							{
								"astId": 23,
								"contract": "vinci-protocol/contracts/BalanceLinkedList.sol:BalanceLinkedList",
								"label": "next",
								"offset": 0,
								"slot": "2",
								"type": "t_address"
							}
						],
						"numberOfBytes": "96"
					},
					"t_uint256": {
						"encoding": "inplace",
						"label": "uint256",
						"numberOfBytes": "32"
					}
				}
			},
			"userdoc": {
				"kind": "user",
				"methods": {},
				"version": 1
			}
		}
	}
}