{
	"vinci-protocol/contracts/PtoPListTable.sol": {
		"PtoPList": {
			"abi": [
				{
					"inputs": [
						{
							"internalType": "address",
							"name": "_token",
							"type": "address"
						},
						{
							"internalType": "address",
							"name": "_administrator",
							"type": "address"
						}
					],
					"stateMutability": "nonpayable",
					"type": "constructor"
				},
				{
					"inputs": [
						{
							"internalType": "uint256",
							"name": "index",
							"type": "uint256"
						}
					],
					"name": "borrow",
					"outputs": [],
					"stateMutability": "nonpayable",
					"type": "function"
				},
				{
					"inputs": [
						{
							"internalType": "address",
							"name": "_nftAddress",
							"type": "address"
						},
						{
							"internalType": "uint256",
							"name": "_tokenId",
							"type": "uint256"
						},
						{
							"internalType": "uint256",
							"name": "_amount",
							"type": "uint256"
						},
						{
							"internalType": "uint256",
							"name": "_price",
							"type": "uint256"
						},
						{
							"internalType": "uint256",
							"name": "_loanTime",
							"type": "uint256"
						}
					],
					"name": "createP2POrder",
					"outputs": [],
					"stateMutability": "nonpayable",
					"type": "function"
				},
				{
					"inputs": [
						{
							"internalType": "uint256",
							"name": "index",
							"type": "uint256"
						}
					],
					"name": "getNftAddressByIndex",
					"outputs": [
						{
							"internalType": "address",
							"name": "NftAddress",
							"type": "address"
						}
					],
					"stateMutability": "view",
					"type": "function"
				},
				{
					"inputs": [
						{
							"internalType": "uint256",
							"name": "current",
							"type": "uint256"
						},
						{
							"internalType": "uint256",
							"name": "number",
							"type": "uint256"
						}
					],
					"name": "getNodes",
					"outputs": [
						{
							"components": [
								{
									"internalType": "uint256",
									"name": "blockNumber",
									"type": "uint256"
								},
								{
									"internalType": "address",
									"name": "borrower",
									"type": "address"
								},
								{
									"internalType": "uint256",
									"name": "price",
									"type": "uint256"
								},
								{
									"internalType": "uint256",
									"name": "loanTime",
									"type": "uint256"
								},
								{
									"internalType": "uint256",
									"name": "borrowTime",
									"type": "uint256"
								},
								{
									"internalType": "address",
									"name": "lender",
									"type": "address"
								},
								{
									"components": [
										{
											"internalType": "address",
											"name": "nftAddress",
											"type": "address"
										},
										{
											"internalType": "uint256",
											"name": "tokenId",
											"type": "uint256"
										},
										{
											"internalType": "enum PtoPList.NftType",
											"name": "nftType",
											"type": "uint8"
										},
										{
											"internalType": "uint256",
											"name": "amount",
											"type": "uint256"
										}
									],
									"internalType": "struct PtoPList.NFT",
									"name": "nft",
									"type": "tuple"
								},
								{
									"internalType": "enum PtoPList.States",
									"name": "state",
									"type": "uint8"
								}
							],
							"internalType": "struct PtoPList.Order[]",
							"name": "",
							"type": "tuple[]"
						}
					],
					"stateMutability": "view",
					"type": "function"
				},
				{
					"inputs": [
						{
							"internalType": "uint256",
							"name": "index",
							"type": "uint256"
						}
					],
					"name": "getTokenIdByIndex",
					"outputs": [
						{
							"internalType": "uint256",
							"name": "tokenId",
							"type": "uint256"
						}
					],
					"stateMutability": "view",
					"type": "function"
				},
				{
					"inputs": [
						{
							"internalType": "address",
							"name": "nftAddress",
							"type": "address"
						}
					],
					"name": "identifyNFT",
					"outputs": [
						{
							"internalType": "enum PtoPList.NftType",
							"name": "",
							"type": "uint8"
						}
					],
					"stateMutability": "view",
					"type": "function"
				},
				{
					"inputs": [
						{
							"internalType": "uint256",
							"name": "index",
							"type": "uint256"
						}
					],
					"name": "lend",
					"outputs": [],
					"stateMutability": "nonpayable",
					"type": "function"
				},
				{
					"inputs": [
						{
							"internalType": "uint256",
							"name": "index",
							"type": "uint256"
						}
					],
					"name": "revokeOrder",
					"outputs": [],
					"stateMutability": "nonpayable",
					"type": "function"
				},
				{
					"inputs": [
						{
							"internalType": "address",
							"name": "_address",
							"type": "address"
						}
					],
					"name": "setAdministrator",
					"outputs": [
						{
							"internalType": "address",
							"name": "",
							"type": "address"
						}
					],
					"stateMutability": "nonpayable",
					"type": "function"
				},
				{
					"inputs": [],
					"name": "setBorrowPricePercentage",
					"outputs": [],
					"stateMutability": "nonpayable",
					"type": "function"
				},
				{
					"inputs": [
						{
							"internalType": "uint256",
							"name": "index",
							"type": "uint256"
						}
					],
					"name": "timeOut",
					"outputs": [],
					"stateMutability": "nonpayable",
					"type": "function"
				},
				{
					"inputs": [],
					"name": "token",
					"outputs": [
						{
							"internalType": "contract IERC20",
							"name": "",
							"type": "address"
						}
					],
					"stateMutability": "view",
					"type": "function"
				}
			],
			"devdoc": {
				"kind": "dev",
				"methods": {},
				"version": 1
			},
			"evm": {
				"assembly": "    /* \"vinci-protocol/contracts/PtoPListTable.sol\":461:7920  contract PtoPList{... */\n  mstore(0x40, 0x80)\n    /* \"vinci-protocol/contracts/PtoPListTable.sol\":610:742  constructor(address _token,address _administrator){... */\n  callvalue\n  dup1\n  iszero\n  tag_1\n  jumpi\n  0x00\n  dup1\n  revert\ntag_1:\n  pop\n  mload(0x40)\n  sub(codesize, bytecodeSize)\n  dup1\n  bytecodeSize\n  dup4\n  codecopy\n  dup2\n  dup2\n  add\n  0x40\n  mstore\n  dup2\n  add\n  swap1\n  tag_2\n  swap2\n  swap1\n  tag_3\n  jump\t// in\ntag_2:\n    /* \"vinci-protocol/contracts/PtoPListTable.sol\":686:692  _token */\n  dup2\n    /* \"vinci-protocol/contracts/PtoPListTable.sol\":671:676  token */\n  0x00\n  dup1\n    /* \"vinci-protocol/contracts/PtoPListTable.sol\":671:693  token = IERC20(_token) */\n  0x0100\n  exp\n  dup2\n  sload\n  dup2\n  0xffffffffffffffffffffffffffffffffffffffff\n  mul\n  not\n  and\n  swap1\n  dup4\n  0xffffffffffffffffffffffffffffffffffffffff\n  and\n  mul\n  or\n  swap1\n  sstore\n  pop\n    /* \"vinci-protocol/contracts/PtoPListTable.sol\":720:734  _administrator */\n  dup1\n    /* \"vinci-protocol/contracts/PtoPListTable.sol\":704:717  administrator */\n  0x01\n  0x00\n    /* \"vinci-protocol/contracts/PtoPListTable.sol\":704:734  administrator = _administrator */\n  0x0100\n  exp\n  dup2\n  sload\n  dup2\n  0xffffffffffffffffffffffffffffffffffffffff\n  mul\n  not\n  and\n  swap1\n  dup4\n  0xffffffffffffffffffffffffffffffffffffffff\n  and\n  mul\n  or\n  swap1\n  sstore\n  pop\n    /* \"vinci-protocol/contracts/PtoPListTable.sol\":610:742  constructor(address _token,address _administrator){... */\n  pop\n  pop\n    /* \"vinci-protocol/contracts/PtoPListTable.sol\":461:7920  contract PtoPList{... */\n  jump(tag_6)\n    /* \"#utility.yul\":88:205   */\ntag_8:\n    /* \"#utility.yul\":197:198   */\n  0x00\n    /* \"#utility.yul\":194:195   */\n  dup1\n    /* \"#utility.yul\":187:199   */\n  revert\n    /* \"#utility.yul\":334:460   */\ntag_10:\n    /* \"#utility.yul\":371:378   */\n  0x00\n    /* \"#utility.yul\":411:453   */\n  0xffffffffffffffffffffffffffffffffffffffff\n    /* \"#utility.yul\":404:409   */\n  dup3\n    /* \"#utility.yul\":400:454   */\n  and\n    /* \"#utility.yul\":389:454   */\n  swap1\n  pop\n    /* \"#utility.yul\":334:460   */\n  swap2\n  swap1\n  pop\n  jump\t// out\n    /* \"#utility.yul\":466:562   */\ntag_11:\n    /* \"#utility.yul\":503:510   */\n  0x00\n    /* \"#utility.yul\":532:556   */\n  tag_20\n    /* \"#utility.yul\":550:555   */\n  dup3\n    /* \"#utility.yul\":532:556   */\n  tag_10\n  jump\t// in\ntag_20:\n    /* \"#utility.yul\":521:556   */\n  swap1\n  pop\n    /* \"#utility.yul\":466:562   */\n  swap2\n  swap1\n  pop\n  jump\t// out\n    /* \"#utility.yul\":568:690   */\ntag_12:\n    /* \"#utility.yul\":641:665   */\n  tag_22\n    /* \"#utility.yul\":659:664   */\n  dup2\n    /* \"#utility.yul\":641:665   */\n  tag_11\n  jump\t// in\ntag_22:\n    /* \"#utility.yul\":634:639   */\n  dup2\n    /* \"#utility.yul\":631:666   */\n  eq\n    /* \"#utility.yul\":621:684   */\n  tag_23\n  jumpi\n    /* \"#utility.yul\":680:681   */\n  0x00\n    /* \"#utility.yul\":677:678   */\n  dup1\n    /* \"#utility.yul\":670:682   */\n  revert\n    /* \"#utility.yul\":621:684   */\ntag_23:\n    /* \"#utility.yul\":568:690   */\n  pop\n  jump\t// out\n    /* \"#utility.yul\":696:839   */\ntag_13:\n    /* \"#utility.yul\":753:758   */\n  0x00\n    /* \"#utility.yul\":784:790   */\n  dup2\n    /* \"#utility.yul\":778:791   */\n  mload\n    /* \"#utility.yul\":769:791   */\n  swap1\n  pop\n    /* \"#utility.yul\":800:833   */\n  tag_25\n    /* \"#utility.yul\":827:832   */\n  dup2\n    /* \"#utility.yul\":800:833   */\n  tag_12\n  jump\t// in\ntag_25:\n    /* \"#utility.yul\":696:839   */\n  swap3\n  swap2\n  pop\n  pop\n  jump\t// out\n    /* \"#utility.yul\":845:1352   */\ntag_3:\n    /* \"#utility.yul\":924:930   */\n  0x00\n    /* \"#utility.yul\":932:938   */\n  dup1\n    /* \"#utility.yul\":981:983   */\n  0x40\n    /* \"#utility.yul\":969:978   */\n  dup4\n    /* \"#utility.yul\":960:967   */\n  dup6\n    /* \"#utility.yul\":956:979   */\n  sub\n    /* \"#utility.yul\":952:984   */\n  slt\n    /* \"#utility.yul\":949:1068   */\n  iszero\n  tag_27\n  jumpi\n    /* \"#utility.yul\":987:1066   */\n  tag_28\n  tag_8\n  jump\t// in\ntag_28:\n    /* \"#utility.yul\":949:1068   */\ntag_27:\n    /* \"#utility.yul\":1107:1108   */\n  0x00\n    /* \"#utility.yul\":1132:1196   */\n  tag_29\n    /* \"#utility.yul\":1188:1195   */\n  dup6\n    /* \"#utility.yul\":1179:1185   */\n  dup3\n    /* \"#utility.yul\":1168:1177   */\n  dup7\n    /* \"#utility.yul\":1164:1186   */\n  add\n    /* \"#utility.yul\":1132:1196   */\n  tag_13\n  jump\t// in\ntag_29:\n    /* \"#utility.yul\":1122:1196   */\n  swap3\n  pop\n    /* \"#utility.yul\":1078:1206   */\n  pop\n    /* \"#utility.yul\":1245:1247   */\n  0x20\n    /* \"#utility.yul\":1271:1335   */\n  tag_30\n    /* \"#utility.yul\":1327:1334   */\n  dup6\n    /* \"#utility.yul\":1318:1324   */\n  dup3\n    /* \"#utility.yul\":1307:1316   */\n  dup7\n    /* \"#utility.yul\":1303:1325   */\n  add\n    /* \"#utility.yul\":1271:1335   */\n  tag_13\n  jump\t// in\ntag_30:\n    /* \"#utility.yul\":1261:1335   */\n  swap2\n  pop\n    /* \"#utility.yul\":1216:1345   */\n  pop\n    /* \"#utility.yul\":845:1352   */\n  swap3\n  pop\n  swap3\n  swap1\n  pop\n  jump\t// out\n    /* \"vinci-protocol/contracts/PtoPListTable.sol\":461:7920  contract PtoPList{... */\ntag_6:\n  dataSize(sub_0)\n  dup1\n  dataOffset(sub_0)\n  0x00\n  codecopy\n  0x00\n  return\nstop\n\nsub_0: assembly {\n        /* \"vinci-protocol/contracts/PtoPListTable.sol\":461:7920  contract PtoPList{... */\n      mstore(0x40, 0x80)\n      callvalue\n      dup1\n      iszero\n      tag_1\n      jumpi\n      0x00\n      dup1\n      revert\n    tag_1:\n      pop\n      jumpi(tag_2, lt(calldatasize, 0x04))\n      shr(0xe0, calldataload(0x00))\n      dup1\n      0xa6aa57ce\n      gt\n      tag_15\n      jumpi\n      dup1\n      0xa6aa57ce\n      eq\n      tag_9\n      jumpi\n      dup1\n      0xc5ebeaec\n      eq\n      tag_10\n      jumpi\n      dup1\n      0xccf01b7e\n      eq\n      tag_11\n      jumpi\n      dup1\n      0xdf8089ef\n      eq\n      tag_12\n      jumpi\n      dup1\n      0xf85565fb\n      eq\n      tag_13\n      jumpi\n      dup1\n      0xfc0c546a\n      eq\n      tag_14\n      jumpi\n      jump(tag_2)\n    tag_15:\n      dup1\n      0x038d67e8\n      eq\n      tag_3\n      jumpi\n      dup1\n      0x0f9a71d7\n      eq\n      tag_4\n      jumpi\n      dup1\n      0x49f202ff\n      eq\n      tag_5\n      jumpi\n      dup1\n      0x50a8f34f\n      eq\n      tag_6\n      jumpi\n      dup1\n      0x6fa425fe\n      eq\n      tag_7\n      jumpi\n      dup1\n      0x7b64fd98\n      eq\n      tag_8\n      jumpi\n    tag_2:\n      0x00\n      dup1\n      revert\n        /* \"vinci-protocol/contracts/PtoPListTable.sol\":7432:7911  function getNodes(uint256 current,uint256 number)external view returns(Order[] memory){... */\n    tag_3:\n      tag_16\n      0x04\n      dup1\n      calldatasize\n      sub\n      dup2\n      add\n      swap1\n      tag_17\n      swap2\n      swap1\n      tag_18\n      jump\t// in\n    tag_17:\n      tag_19\n      jump\t// in\n    tag_16:\n      mload(0x40)\n      tag_20\n      swap2\n      swap1\n      tag_21\n      jump\t// in\n    tag_20:\n      mload(0x40)\n      dup1\n      swap2\n      sub\n      swap1\n      return\n        /* \"vinci-protocol/contracts/PtoPListTable.sol\":3040:3504  function revokeOrder(uint256 index) external{... */\n    tag_4:\n      tag_22\n      0x04\n      dup1\n      calldatasize\n      sub\n      dup2\n      add\n      swap1\n      tag_23\n      swap2\n      swap1\n      tag_24\n      jump\t// in\n    tag_23:\n      tag_25\n      jump\t// in\n    tag_22:\n      stop\n        /* \"vinci-protocol/contracts/PtoPListTable.sol\":5947:6082  function getTokenIdByIndex(uint256 index) public view returns(uint256 tokenId){... */\n    tag_5:\n      tag_26\n      0x04\n      dup1\n      calldatasize\n      sub\n      dup2\n      add\n      swap1\n      tag_27\n      swap2\n      swap1\n      tag_24\n      jump\t// in\n    tag_27:\n      tag_28\n      jump\t// in\n    tag_26:\n      mload(0x40)\n      tag_29\n      swap2\n      swap1\n      tag_30\n      jump\t// in\n    tag_29:\n      mload(0x40)\n      dup1\n      swap2\n      sub\n      swap1\n      return\n        /* \"vinci-protocol/contracts/PtoPListTable.sol\":2066:3006  function createP2POrder(address _nftAddress,... */\n    tag_6:\n      tag_31\n      0x04\n      dup1\n      calldatasize\n      sub\n      dup2\n      add\n      swap1\n      tag_32\n      swap2\n      swap1\n      tag_33\n      jump\t// in\n    tag_32:\n      tag_34\n      jump\t// in\n    tag_31:\n      stop\n        /* \"vinci-protocol/contracts/PtoPListTable.sol\":5758:5905  function getNftAddressByIndex(uint256 index) public view returns(address NftAddress){... */\n    tag_7:\n      tag_35\n      0x04\n      dup1\n      calldatasize\n      sub\n      dup2\n      add\n      swap1\n      tag_36\n      swap2\n      swap1\n      tag_24\n      jump\t// in\n    tag_36:\n      tag_37\n      jump\t// in\n    tag_35:\n      mload(0x40)\n      tag_38\n      swap2\n      swap1\n      tag_39\n      jump\t// in\n    tag_38:\n      mload(0x40)\n      dup1\n      swap2\n      sub\n      swap1\n      return\n        /* \"vinci-protocol/contracts/PtoPListTable.sol\":5161:5715  function timeOut(uint256 index) external {... */\n    tag_8:\n      tag_40\n      0x04\n      dup1\n      calldatasize\n      sub\n      dup2\n      add\n      swap1\n      tag_41\n      swap2\n      swap1\n      tag_24\n      jump\t// in\n    tag_41:\n      tag_42\n      jump\t// in\n    tag_40:\n      stop\n        /* \"vinci-protocol/contracts/PtoPListTable.sol\":3526:3943  function lend(uint256 index) external {... */\n    tag_9:\n      tag_43\n      0x04\n      dup1\n      calldatasize\n      sub\n      dup2\n      add\n      swap1\n      tag_44\n      swap2\n      swap1\n      tag_24\n      jump\t// in\n    tag_44:\n      tag_45\n      jump\t// in\n    tag_43:\n      stop\n        /* \"vinci-protocol/contracts/PtoPListTable.sol\":3965:4844  function borrow(uint256 index) external {... */\n    tag_10:\n      tag_46\n      0x04\n      dup1\n      calldatasize\n      sub\n      dup2\n      add\n      swap1\n      tag_47\n      swap2\n      swap1\n      tag_24\n      jump\t// in\n    tag_47:\n      tag_48\n      jump\t// in\n    tag_46:\n      stop\n        /* \"vinci-protocol/contracts/PtoPListTable.sol\":5020:5093  function setBorrowPricePercentage() external onlyadministrator {... */\n    tag_11:\n      tag_49\n      tag_50\n      jump\t// in\n    tag_49:\n      stop\n        /* \"vinci-protocol/contracts/PtoPListTable.sol\":6090:6226  function setAdministrator(address _address)external onlyadministrator returns(address){... */\n    tag_12:\n      tag_51\n      0x04\n      dup1\n      calldatasize\n      sub\n      dup2\n      add\n      swap1\n      tag_52\n      swap2\n      swap1\n      tag_53\n      jump\t// in\n    tag_52:\n      tag_54\n      jump\t// in\n    tag_51:\n      mload(0x40)\n      tag_55\n      swap2\n      swap1\n      tag_39\n      jump\t// in\n    tag_55:\n      mload(0x40)\n      dup1\n      swap2\n      sub\n      swap1\n      return\n        /* \"vinci-protocol/contracts/PtoPListTable.sol\":6953:7377  function identifyNFT(address nftAddress) public view returns (NftType) {... */\n    tag_13:\n      tag_56\n      0x04\n      dup1\n      calldatasize\n      sub\n      dup2\n      add\n      swap1\n      tag_57\n      swap2\n      swap1\n      tag_53\n      jump\t// in\n    tag_57:\n      tag_58\n      jump\t// in\n    tag_56:\n      mload(0x40)\n      tag_59\n      swap2\n      swap1\n      tag_60\n      jump\t// in\n    tag_59:\n      mload(0x40)\n      dup1\n      swap2\n      sub\n      swap1\n      return\n        /* \"vinci-protocol/contracts/PtoPListTable.sol\":546:565  IERC20 public token */\n    tag_14:\n      tag_61\n      tag_62\n      jump\t// in\n    tag_61:\n      mload(0x40)\n      tag_63\n      swap2\n      swap1\n      tag_64\n      jump\t// in\n    tag_63:\n      mload(0x40)\n      dup1\n      swap2\n      sub\n      swap1\n      return\n        /* \"vinci-protocol/contracts/PtoPListTable.sol\":7432:7911  function getNodes(uint256 current,uint256 number)external view returns(Order[] memory){... */\n    tag_19:\n        /* \"vinci-protocol/contracts/PtoPListTable.sol\":7503:7517  Order[] memory */\n      0x60\n        /* \"vinci-protocol/contracts/PtoPListTable.sol\":7529:7550  Order[] memory orders */\n      0x00\n        /* \"vinci-protocol/contracts/PtoPListTable.sol\":7565:7571  number */\n      dup3\n        /* \"vinci-protocol/contracts/PtoPListTable.sol\":7553:7572  new Order[](number) */\n      0xffffffffffffffff\n      dup2\n      gt\n      iszero\n      tag_66\n      jumpi\n      tag_67\n      tag_68\n      jump\t// in\n    tag_67:\n    tag_66:\n      mload(0x40)\n      swap1\n      dup1\n      dup3\n      mstore\n      dup1\n      0x20\n      mul\n      0x20\n      add\n      dup3\n      add\n      0x40\n      mstore\n      dup1\n      iszero\n      tag_69\n      jumpi\n      dup2\n      0x20\n      add\n    tag_70:\n      tag_71\n      tag_72\n      jump\t// in\n    tag_71:\n      dup2\n      mstore\n      0x20\n      add\n      swap1\n      0x01\n      swap1\n      sub\n      swap1\n      dup2\n      tag_70\n      jumpi\n      swap1\n      pop\n    tag_69:\n      pop\n        /* \"vinci-protocol/contracts/PtoPListTable.sol\":7529:7572  Order[] memory orders = new Order[](number) */\n      swap1\n      pop\n        /* \"vinci-protocol/contracts/PtoPListTable.sol\":7583:7604  Order memory orderGet */\n      tag_73\n      tag_72\n      jump\t// in\n    tag_73:\n        /* \"vinci-protocol/contracts/PtoPListTable.sol\":7615:7652  LinkedListLib.UintNode memory nodeGet */\n      tag_74\n      tag_75\n      jump\t// in\n    tag_74:\n        /* \"vinci-protocol/contracts/PtoPListTable.sol\":7667:7673  uint i */\n      0x00\n        /* \"vinci-protocol/contracts/PtoPListTable.sol\":7663:7880  for(uint i ;i <= number ;i++){... */\n    tag_76:\n        /* \"vinci-protocol/contracts/PtoPListTable.sol\":7680:7686  number */\n      dup6\n        /* \"vinci-protocol/contracts/PtoPListTable.sol\":7675:7676  i */\n      dup2\n        /* \"vinci-protocol/contracts/PtoPListTable.sol\":7675:7686  i <= number */\n      gt\n        /* \"vinci-protocol/contracts/PtoPListTable.sol\":7663:7880  for(uint i ;i <= number ;i++){... */\n      tag_77\n      jumpi\n        /* \"vinci-protocol/contracts/PtoPListTable.sol\":7718:7740  Nodes.getNode(current) */\n      tag_79\n        /* \"vinci-protocol/contracts/PtoPListTable.sol\":7732:7739  current */\n      dup8\n        /* \"vinci-protocol/contracts/PtoPListTable.sol\":7718:7723  Nodes */\n      0x02\n        /* \"vinci-protocol/contracts/PtoPListTable.sol\":7718:7731  Nodes.getNode */\n      tag_80\n      swap1\n        /* \"vinci-protocol/contracts/PtoPListTable.sol\":7718:7740  Nodes.getNode(current) */\n      swap2\n      swap1\n      0xffffffff\n      and\n      jump\t// in\n    tag_79:\n        /* \"vinci-protocol/contracts/PtoPListTable.sol\":7707:7740  nodeGet =  Nodes.getNode(current) */\n      swap2\n      pop\n        /* \"vinci-protocol/contracts/PtoPListTable.sol\":7766:7775  orderList */\n      0x04\n        /* \"vinci-protocol/contracts/PtoPListTable.sol\":7766:7792  orderList[nodeGet.current] */\n      0x00\n        /* \"vinci-protocol/contracts/PtoPListTable.sol\":7776:7783  nodeGet */\n      dup4\n        /* \"vinci-protocol/contracts/PtoPListTable.sol\":7776:7791  nodeGet.current */\n      0x00\n      add\n      mload\n        /* \"vinci-protocol/contracts/PtoPListTable.sol\":7766:7792  orderList[nodeGet.current] */\n      dup2\n      mstore\n      0x20\n      add\n      swap1\n      dup2\n      mstore\n      0x20\n      add\n      0x00\n      keccak256\n        /* \"vinci-protocol/contracts/PtoPListTable.sol\":7755:7792  orderGet = orderList[nodeGet.current] */\n      mload(0x40)\n      dup1\n      0x0100\n      add\n      0x40\n      mstore\n      swap1\n      dup2\n      0x00\n      dup3\n      add\n      sload\n      dup2\n      mstore\n      0x20\n      add\n      0x01\n      dup3\n      add\n      0x00\n      swap1\n      sload\n      swap1\n      0x0100\n      exp\n      swap1\n      div\n      0xffffffffffffffffffffffffffffffffffffffff\n      and\n      0xffffffffffffffffffffffffffffffffffffffff\n      and\n      0xffffffffffffffffffffffffffffffffffffffff\n      and\n      dup2\n      mstore\n      0x20\n      add\n      0x02\n      dup3\n      add\n      sload\n      dup2\n      mstore\n      0x20\n      add\n      0x03\n      dup3\n      add\n      sload\n      dup2\n      mstore\n      0x20\n      add\n      0x04\n      dup3\n      add\n      sload\n      dup2\n      mstore\n      0x20\n      add\n      0x05\n      dup3\n      add\n      0x00\n      swap1\n      sload\n      swap1\n      0x0100\n      exp\n      swap1\n      div\n      0xffffffffffffffffffffffffffffffffffffffff\n      and\n      0xffffffffffffffffffffffffffffffffffffffff\n      and\n      0xffffffffffffffffffffffffffffffffffffffff\n      and\n      dup2\n      mstore\n      0x20\n      add\n      0x06\n      dup3\n      add\n      mload(0x40)\n      dup1\n      0x80\n      add\n      0x40\n      mstore\n      swap1\n      dup2\n      0x00\n      dup3\n      add\n      0x00\n      swap1\n      sload\n      swap1\n      0x0100\n      exp\n      swap1\n      div\n      0xffffffffffffffffffffffffffffffffffffffff\n      and\n      0xffffffffffffffffffffffffffffffffffffffff\n      and\n      0xffffffffffffffffffffffffffffffffffffffff\n      and\n      dup2\n      mstore\n      0x20\n      add\n      0x01\n      dup3\n      add\n      sload\n      dup2\n      mstore\n      0x20\n      add\n      0x02\n      dup3\n      add\n      0x00\n      swap1\n      sload\n      swap1\n      0x0100\n      exp\n      swap1\n      div\n      0xff\n      and\n      0x02\n      dup2\n      gt\n      iszero\n      tag_81\n      jumpi\n      tag_82\n      tag_83\n      jump\t// in\n    tag_82:\n    tag_81:\n      0x02\n      dup2\n      gt\n      iszero\n      tag_84\n      jumpi\n      tag_85\n      tag_83\n      jump\t// in\n    tag_85:\n    tag_84:\n      dup2\n      mstore\n      0x20\n      add\n      0x03\n      dup3\n      add\n      sload\n      dup2\n      mstore\n      pop\n      pop\n      dup2\n      mstore\n      0x20\n      add\n      0x0a\n      dup3\n      add\n      0x00\n      swap1\n      sload\n      swap1\n      0x0100\n      exp\n      swap1\n      div\n      0xff\n      and\n      0x03\n      dup2\n      gt\n      iszero\n      tag_86\n      jumpi\n      tag_87\n      tag_83\n      jump\t// in\n    tag_87:\n    tag_86:\n      0x03\n      dup2\n      gt\n      iszero\n      tag_88\n      jumpi\n      tag_89\n      tag_83\n      jump\t// in\n    tag_89:\n    tag_88:\n      dup2\n      mstore\n      pop\n      pop\n      swap3\n      pop\n        /* \"vinci-protocol/contracts/PtoPListTable.sol\":7823:7831  orderGet */\n      dup3\n        /* \"vinci-protocol/contracts/PtoPListTable.sol\":7807:7813  orders */\n      dup5\n        /* \"vinci-protocol/contracts/PtoPListTable.sol\":7818:7819  1 */\n      0x01\n        /* \"vinci-protocol/contracts/PtoPListTable.sol\":7814:7815  i */\n      dup4\n        /* \"vinci-protocol/contracts/PtoPListTable.sol\":7814:7819  i + 1 */\n      tag_90\n      swap2\n      swap1\n      tag_91\n      jump\t// in\n    tag_90:\n        /* \"vinci-protocol/contracts/PtoPListTable.sol\":7807:7820  orders[i + 1] */\n      dup2\n      mload\n      dup2\n      lt\n      tag_92\n      jumpi\n      tag_93\n      tag_94\n      jump\t// in\n    tag_93:\n    tag_92:\n      0x20\n      mul\n      0x20\n      add\n      add\n        /* \"vinci-protocol/contracts/PtoPListTable.sol\":7807:7831  orders[i + 1] = orderGet */\n      dup2\n      swap1\n      mstore\n      pop\n        /* \"vinci-protocol/contracts/PtoPListTable.sol\":7856:7863  nodeGet */\n      dup2\n        /* \"vinci-protocol/contracts/PtoPListTable.sol\":7856:7868  nodeGet.next */\n      0x40\n      add\n      mload\n        /* \"vinci-protocol/contracts/PtoPListTable.sol\":7846:7868  current = nodeGet.next */\n      swap7\n      pop\n        /* \"vinci-protocol/contracts/PtoPListTable.sol\":7688:7691  i++ */\n      dup1\n      dup1\n      tag_95\n      swap1\n      tag_96\n      jump\t// in\n    tag_95:\n      swap2\n      pop\n      pop\n        /* \"vinci-protocol/contracts/PtoPListTable.sol\":7663:7880  for(uint i ;i <= number ;i++){... */\n      jump(tag_76)\n    tag_77:\n      pop\n        /* \"vinci-protocol/contracts/PtoPListTable.sol\":7897:7903  orders */\n      dup3\n        /* \"vinci-protocol/contracts/PtoPListTable.sol\":7890:7903  return orders */\n      swap4\n      pop\n      pop\n      pop\n      pop\n        /* \"vinci-protocol/contracts/PtoPListTable.sol\":7432:7911  function getNodes(uint256 current,uint256 number)external view returns(Order[] memory){... */\n      swap3\n      swap2\n      pop\n      pop\n      jump\t// out\n        /* \"vinci-protocol/contracts/PtoPListTable.sol\":3040:3504  function revokeOrder(uint256 index) external{... */\n    tag_25:\n        /* \"vinci-protocol/contracts/PtoPListTable.sol\":3117:3126  orderList */\n      0x04\n        /* \"vinci-protocol/contracts/PtoPListTable.sol\":3117:3133  orderList[index] */\n      0x00\n        /* \"vinci-protocol/contracts/PtoPListTable.sol\":3127:3132  index */\n      dup3\n        /* \"vinci-protocol/contracts/PtoPListTable.sol\":3117:3133  orderList[index] */\n      dup2\n      mstore\n      0x20\n      add\n      swap1\n      dup2\n      mstore\n      0x20\n      add\n      0x00\n      keccak256\n        /* \"vinci-protocol/contracts/PtoPListTable.sol\":3117:3142  orderList[index].borrower */\n      0x01\n      add\n      0x00\n      swap1\n      sload\n      swap1\n      0x0100\n      exp\n      swap1\n      div\n      0xffffffffffffffffffffffffffffffffffffffff\n      and\n        /* \"vinci-protocol/contracts/PtoPListTable.sol\":3103:3142  msg.sender == orderList[index].borrower */\n      0xffffffffffffffffffffffffffffffffffffffff\n      and\n        /* \"vinci-protocol/contracts/PtoPListTable.sol\":3103:3113  msg.sender */\n      caller\n        /* \"vinci-protocol/contracts/PtoPListTable.sol\":3103:3142  msg.sender == orderList[index].borrower */\n      0xffffffffffffffffffffffffffffffffffffffff\n      and\n      eq\n        /* \"vinci-protocol/contracts/PtoPListTable.sol\":3095:3143  require(msg.sender == orderList[index].borrower) */\n      tag_98\n      jumpi\n      0x00\n      dup1\n      revert\n    tag_98:\n        /* \"vinci-protocol/contracts/PtoPListTable.sol\":3154:3168  uint256 amount */\n      0x00\n        /* \"vinci-protocol/contracts/PtoPListTable.sol\":3171:3180  orderList */\n      0x04\n        /* \"vinci-protocol/contracts/PtoPListTable.sol\":3171:3187  orderList[index] */\n      0x00\n        /* \"vinci-protocol/contracts/PtoPListTable.sol\":3181:3186  index */\n      dup4\n        /* \"vinci-protocol/contracts/PtoPListTable.sol\":3171:3187  orderList[index] */\n      dup2\n      mstore\n      0x20\n      add\n      swap1\n      dup2\n      mstore\n      0x20\n      add\n      0x00\n      keccak256\n        /* \"vinci-protocol/contracts/PtoPListTable.sol\":3171:3191  orderList[index].nft */\n      0x06\n      add\n        /* \"vinci-protocol/contracts/PtoPListTable.sol\":3171:3198  orderList[index].nft.amount */\n      0x03\n      add\n      sload\n        /* \"vinci-protocol/contracts/PtoPListTable.sol\":3154:3198  uint256 amount = orderList[index].nft.amount */\n      swap1\n      pop\n        /* \"vinci-protocol/contracts/PtoPListTable.sol\":3209:3228  address _nftAddress */\n      0x00\n        /* \"vinci-protocol/contracts/PtoPListTable.sol\":3231:3258  getNftAddressByIndex(index) */\n      tag_99\n        /* \"vinci-protocol/contracts/PtoPListTable.sol\":3252:3257  index */\n      dup4\n        /* \"vinci-protocol/contracts/PtoPListTable.sol\":3231:3251  getNftAddressByIndex */\n      tag_37\n        /* \"vinci-protocol/contracts/PtoPListTable.sol\":3231:3258  getNftAddressByIndex(index) */\n      jump\t// in\n    tag_99:\n        /* \"vinci-protocol/contracts/PtoPListTable.sol\":3209:3258  address _nftAddress = getNftAddressByIndex(index) */\n      swap1\n      pop\n        /* \"vinci-protocol/contracts/PtoPListTable.sol\":3269:3285  uint256 _tokenId */\n      0x00\n        /* \"vinci-protocol/contracts/PtoPListTable.sol\":3288:3312  getTokenIdByIndex(index) */\n      tag_100\n        /* \"vinci-protocol/contracts/PtoPListTable.sol\":3306:3311  index */\n      dup5\n        /* \"vinci-protocol/contracts/PtoPListTable.sol\":3288:3305  getTokenIdByIndex */\n      tag_28\n        /* \"vinci-protocol/contracts/PtoPListTable.sol\":3288:3312  getTokenIdByIndex(index) */\n      jump\t// in\n    tag_100:\n        /* \"vinci-protocol/contracts/PtoPListTable.sol\":3269:3312  uint256 _tokenId = getTokenIdByIndex(index) */\n      swap1\n      pop\n        /* \"vinci-protocol/contracts/PtoPListTable.sol\":3323:3388  nftTransfer(_nftAddress,_tokenId,address(this),msg.sender,amount) */\n      tag_101\n        /* \"vinci-protocol/contracts/PtoPListTable.sol\":3335:3346  _nftAddress */\n      dup3\n        /* \"vinci-protocol/contracts/PtoPListTable.sol\":3347:3355  _tokenId */\n      dup3\n        /* \"vinci-protocol/contracts/PtoPListTable.sol\":3364:3368  this */\n      address\n        /* \"vinci-protocol/contracts/PtoPListTable.sol\":3370:3380  msg.sender */\n      caller\n        /* \"vinci-protocol/contracts/PtoPListTable.sol\":3381:3387  amount */\n      dup8\n        /* \"vinci-protocol/contracts/PtoPListTable.sol\":3323:3334  nftTransfer */\n      tag_102\n        /* \"vinci-protocol/contracts/PtoPListTable.sol\":3323:3388  nftTransfer(_nftAddress,_tokenId,address(this),msg.sender,amount) */\n      jump\t// in\n    tag_101:\n        /* \"vinci-protocol/contracts/PtoPListTable.sol\":3424:3439  States.finished */\n      0x03\n        /* \"vinci-protocol/contracts/PtoPListTable.sol\":3399:3408  orderList */\n      0x04\n        /* \"vinci-protocol/contracts/PtoPListTable.sol\":3399:3415  orderList[index] */\n      0x00\n        /* \"vinci-protocol/contracts/PtoPListTable.sol\":3409:3414  index */\n      dup7\n        /* \"vinci-protocol/contracts/PtoPListTable.sol\":3399:3415  orderList[index] */\n      dup2\n      mstore\n      0x20\n      add\n      swap1\n      dup2\n      mstore\n      0x20\n      add\n      0x00\n      keccak256\n        /* \"vinci-protocol/contracts/PtoPListTable.sol\":3399:3421  orderList[index].state */\n      0x0a\n      add\n      0x00\n        /* \"vinci-protocol/contracts/PtoPListTable.sol\":3399:3439  orderList[index].state = States.finished */\n      0x0100\n      exp\n      dup2\n      sload\n      dup2\n      0xff\n      mul\n      not\n      and\n      swap1\n      dup4\n      0x03\n      dup2\n      gt\n      iszero\n      tag_103\n      jumpi\n      tag_104\n      tag_83\n      jump\t// in\n    tag_104:\n    tag_103:\n      mul\n      or\n      swap1\n      sstore\n      pop\n        /* \"vinci-protocol/contracts/PtoPListTable.sol\":3450:3460  nftCounter */\n      0x05\n      0x00\n        /* \"vinci-protocol/contracts/PtoPListTable.sol\":3450:3462  nftCounter-- */\n      dup2\n      sload\n      dup1\n      swap3\n      swap2\n      swap1\n      tag_105\n      swap1\n      tag_106\n      jump\t// in\n    tag_105:\n      swap2\n      swap1\n      pop\n      sstore\n      pop\n        /* \"vinci-protocol/contracts/PtoPListTable.sol\":3473:3492  Nodes.remove(index) */\n      tag_107\n        /* \"vinci-protocol/contracts/PtoPListTable.sol\":3486:3491  index */\n      dup5\n        /* \"vinci-protocol/contracts/PtoPListTable.sol\":3473:3478  Nodes */\n      0x02\n        /* \"vinci-protocol/contracts/PtoPListTable.sol\":3473:3485  Nodes.remove */\n      tag_108\n      swap1\n        /* \"vinci-protocol/contracts/PtoPListTable.sol\":3473:3492  Nodes.remove(index) */\n      swap2\n      swap1\n      0xffffffff\n      and\n      jump\t// in\n    tag_107:\n      pop\n        /* \"vinci-protocol/contracts/PtoPListTable.sol\":3084:3504  {... */\n      pop\n      pop\n      pop\n        /* \"vinci-protocol/contracts/PtoPListTable.sol\":3040:3504  function revokeOrder(uint256 index) external{... */\n      pop\n      jump\t// out\n        /* \"vinci-protocol/contracts/PtoPListTable.sol\":5947:6082  function getTokenIdByIndex(uint256 index) public view returns(uint256 tokenId){... */\n    tag_28:\n        /* \"vinci-protocol/contracts/PtoPListTable.sol\":6009:6024  uint256 tokenId */\n      0x00\n        /* \"vinci-protocol/contracts/PtoPListTable.sol\":6046:6055  orderList */\n      0x04\n        /* \"vinci-protocol/contracts/PtoPListTable.sol\":6046:6062  orderList[index] */\n      0x00\n        /* \"vinci-protocol/contracts/PtoPListTable.sol\":6056:6061  index */\n      dup4\n        /* \"vinci-protocol/contracts/PtoPListTable.sol\":6046:6062  orderList[index] */\n      dup2\n      mstore\n      0x20\n      add\n      swap1\n      dup2\n      mstore\n      0x20\n      add\n      0x00\n      keccak256\n        /* \"vinci-protocol/contracts/PtoPListTable.sol\":6046:6066  orderList[index].nft */\n      0x06\n      add\n        /* \"vinci-protocol/contracts/PtoPListTable.sol\":6046:6074  orderList[index].nft.tokenId */\n      0x01\n      add\n      sload\n        /* \"vinci-protocol/contracts/PtoPListTable.sol\":6036:6074  tokenId = orderList[index].nft.tokenId */\n      swap1\n      pop\n        /* \"vinci-protocol/contracts/PtoPListTable.sol\":5947:6082  function getTokenIdByIndex(uint256 index) public view returns(uint256 tokenId){... */\n      swap2\n      swap1\n      pop\n      jump\t// out\n        /* \"vinci-protocol/contracts/PtoPListTable.sol\":2066:3006  function createP2POrder(address _nftAddress,... */\n    tag_34:\n        /* \"vinci-protocol/contracts/PtoPListTable.sol\":2234:2247  NftType types */\n      0x00\n        /* \"vinci-protocol/contracts/PtoPListTable.sol\":2250:2274  identifyNFT(_nftAddress) */\n      tag_111\n        /* \"vinci-protocol/contracts/PtoPListTable.sol\":2262:2273  _nftAddress */\n      dup7\n        /* \"vinci-protocol/contracts/PtoPListTable.sol\":2250:2261  identifyNFT */\n      tag_58\n        /* \"vinci-protocol/contracts/PtoPListTable.sol\":2250:2274  identifyNFT(_nftAddress) */\n      jump\t// in\n    tag_111:\n        /* \"vinci-protocol/contracts/PtoPListTable.sol\":2234:2274  NftType types = identifyNFT(_nftAddress) */\n      swap1\n      pop\n        /* \"vinci-protocol/contracts/PtoPListTable.sol\":2285:2300  NFT memory nfts */\n      0x00\n        /* \"vinci-protocol/contracts/PtoPListTable.sol\":2303:2408  NFT(... */\n      mload(0x40)\n      dup1\n      0x80\n      add\n      0x40\n      mstore\n      dup1\n        /* \"vinci-protocol/contracts/PtoPListTable.sol\":2321:2332  _nftAddress */\n      dup9\n        /* \"vinci-protocol/contracts/PtoPListTable.sol\":2303:2408  NFT(... */\n      0xffffffffffffffffffffffffffffffffffffffff\n      and\n      dup2\n      mstore\n      0x20\n      add\n        /* \"vinci-protocol/contracts/PtoPListTable.sol\":2347:2355  _tokenId */\n      dup8\n        /* \"vinci-protocol/contracts/PtoPListTable.sol\":2303:2408  NFT(... */\n      dup2\n      mstore\n      0x20\n      add\n        /* \"vinci-protocol/contracts/PtoPListTable.sol\":2370:2375  types */\n      dup4\n        /* \"vinci-protocol/contracts/PtoPListTable.sol\":2303:2408  NFT(... */\n      0x02\n      dup2\n      gt\n      iszero\n      tag_112\n      jumpi\n      tag_113\n      tag_83\n      jump\t// in\n    tag_113:\n    tag_112:\n      dup2\n      mstore\n      0x20\n      add\n        /* \"vinci-protocol/contracts/PtoPListTable.sol\":2390:2397  _amount */\n      dup7\n        /* \"vinci-protocol/contracts/PtoPListTable.sol\":2303:2408  NFT(... */\n      dup2\n      mstore\n      pop\n        /* \"vinci-protocol/contracts/PtoPListTable.sol\":2285:2408  NFT memory nfts = NFT(... */\n      swap1\n      pop\n        /* \"vinci-protocol/contracts/PtoPListTable.sol\":2419:2437  Order memory order */\n      0x00\n        /* \"vinci-protocol/contracts/PtoPListTable.sol\":2440:2745  Order({... */\n      mload(0x40)\n      dup1\n      0x0100\n      add\n      0x40\n      mstore\n      dup1\n        /* \"vinci-protocol/contracts/PtoPListTable.sol\":2478:2490  block.number */\n      number\n        /* \"vinci-protocol/contracts/PtoPListTable.sol\":2440:2745  Order({... */\n      dup2\n      mstore\n      0x20\n      add\n        /* \"vinci-protocol/contracts/PtoPListTable.sol\":2519:2529  msg.sender */\n      caller\n        /* \"vinci-protocol/contracts/PtoPListTable.sol\":2440:2745  Order({... */\n      0xffffffffffffffffffffffffffffffffffffffff\n      and\n      dup2\n      mstore\n      0x20\n      add\n        /* \"vinci-protocol/contracts/PtoPListTable.sol\":2554:2560  _price */\n      dup7\n        /* \"vinci-protocol/contracts/PtoPListTable.sol\":2440:2745  Order({... */\n      dup2\n      mstore\n      0x20\n      add\n        /* \"vinci-protocol/contracts/PtoPListTable.sol\":2588:2597  _loanTime */\n      dup6\n        /* \"vinci-protocol/contracts/PtoPListTable.sol\":2440:2745  Order({... */\n      dup2\n      mstore\n      0x20\n      add\n        /* \"vinci-protocol/contracts/PtoPListTable.sol\":2628:2629  0 */\n      0x00\n        /* \"vinci-protocol/contracts/PtoPListTable.sol\":2440:2745  Order({... */\n      dup2\n      mstore\n      0x20\n      add\n        /* \"vinci-protocol/contracts/PtoPListTable.sol\":2663:2666  0x0 */\n      0x00\n        /* \"vinci-protocol/contracts/PtoPListTable.sol\":2440:2745  Order({... */\n      0xffffffffffffffffffffffffffffffffffffffff\n      and\n      dup2\n      mstore\n      0x20\n      add\n        /* \"vinci-protocol/contracts/PtoPListTable.sol\":2729:2733  nfts */\n      dup4\n        /* \"vinci-protocol/contracts/PtoPListTable.sol\":2440:2745  Order({... */\n      dup2\n      mstore\n      0x20\n      add\n        /* \"vinci-protocol/contracts/PtoPListTable.sol\":2692:2706  States.created */\n      0x00\n        /* \"vinci-protocol/contracts/PtoPListTable.sol\":2440:2745  Order({... */\n      0x03\n      dup2\n      gt\n      iszero\n      tag_114\n      jumpi\n      tag_115\n      tag_83\n      jump\t// in\n    tag_115:\n    tag_114:\n      dup2\n      mstore\n      pop\n        /* \"vinci-protocol/contracts/PtoPListTable.sol\":2419:2745  Order memory order = Order({... */\n      swap1\n      pop\n        /* \"vinci-protocol/contracts/PtoPListTable.sol\":2756:2766  nftCounter */\n      0x05\n      0x00\n        /* \"vinci-protocol/contracts/PtoPListTable.sol\":2756:2768  nftCounter++ */\n      dup2\n      sload\n      dup1\n      swap3\n      swap2\n      swap1\n      tag_116\n      swap1\n      tag_96\n      jump\t// in\n    tag_116:\n      swap2\n      swap1\n      pop\n      sstore\n      pop\n        /* \"vinci-protocol/contracts/PtoPListTable.sol\":2803:2808  order */\n      dup1\n        /* \"vinci-protocol/contracts/PtoPListTable.sol\":2779:2788  orderList */\n      0x04\n        /* \"vinci-protocol/contracts/PtoPListTable.sol\":2779:2800  orderList[nftCounter] */\n      0x00\n        /* \"vinci-protocol/contracts/PtoPListTable.sol\":2789:2799  nftCounter */\n      sload(0x05)\n        /* \"vinci-protocol/contracts/PtoPListTable.sol\":2779:2800  orderList[nftCounter] */\n      dup2\n      mstore\n      0x20\n      add\n      swap1\n      dup2\n      mstore\n      0x20\n      add\n      0x00\n      keccak256\n        /* \"vinci-protocol/contracts/PtoPListTable.sol\":2779:2808  orderList[nftCounter] = order */\n      0x00\n      dup3\n      add\n      mload\n      dup2\n      0x00\n      add\n      sstore\n      0x20\n      dup3\n      add\n      mload\n      dup2\n      0x01\n      add\n      exp(0x0100, 0x00)\n      dup2\n      sload\n      dup2\n      0xffffffffffffffffffffffffffffffffffffffff\n      mul\n      not\n      and\n      swap1\n      dup4\n      0xffffffffffffffffffffffffffffffffffffffff\n      and\n      mul\n      or\n      swap1\n      sstore\n      pop\n      0x40\n      dup3\n      add\n      mload\n      dup2\n      0x02\n      add\n      sstore\n      0x60\n      dup3\n      add\n      mload\n      dup2\n      0x03\n      add\n      sstore\n      0x80\n      dup3\n      add\n      mload\n      dup2\n      0x04\n      add\n      sstore\n      0xa0\n      dup3\n      add\n      mload\n      dup2\n      0x05\n      add\n      exp(0x0100, 0x00)\n      dup2\n      sload\n      dup2\n      0xffffffffffffffffffffffffffffffffffffffff\n      mul\n      not\n      and\n      swap1\n      dup4\n      0xffffffffffffffffffffffffffffffffffffffff\n      and\n      mul\n      or\n      swap1\n      sstore\n      pop\n      0xc0\n      dup3\n      add\n      mload\n      dup2\n      0x06\n      add\n      0x00\n      dup3\n      add\n      mload\n      dup2\n      0x00\n      add\n      exp(0x0100, 0x00)\n      dup2\n      sload\n      dup2\n      0xffffffffffffffffffffffffffffffffffffffff\n      mul\n      not\n      and\n      swap1\n      dup4\n      0xffffffffffffffffffffffffffffffffffffffff\n      and\n      mul\n      or\n      swap1\n      sstore\n      pop\n      0x20\n      dup3\n      add\n      mload\n      dup2\n      0x01\n      add\n      sstore\n      0x40\n      dup3\n      add\n      mload\n      dup2\n      0x02\n      add\n      exp(0x0100, 0x00)\n      dup2\n      sload\n      dup2\n      0xff\n      mul\n      not\n      and\n      swap1\n      dup4\n      0x02\n      dup2\n      gt\n      iszero\n      tag_117\n      jumpi\n      tag_118\n      tag_83\n      jump\t// in\n    tag_118:\n    tag_117:\n      mul\n      or\n      swap1\n      sstore\n      pop\n      0x60\n      dup3\n      add\n      mload\n      dup2\n      0x03\n      add\n      sstore\n      pop\n      pop\n      0xe0\n      dup3\n      add\n      mload\n      dup2\n      0x0a\n      add\n      exp(0x0100, 0x00)\n      dup2\n      sload\n      dup2\n      0xff\n      mul\n      not\n      and\n      swap1\n      dup4\n      0x03\n      dup2\n      gt\n      iszero\n      tag_119\n      jumpi\n      tag_120\n      tag_83\n      jump\t// in\n    tag_120:\n    tag_119:\n      mul\n      or\n      swap1\n      sstore\n      pop\n      swap1\n      pop\n      pop\n        /* \"vinci-protocol/contracts/PtoPListTable.sol\":2855:2865  nftCounter */\n      sload(0x05)\n        /* \"vinci-protocol/contracts/PtoPListTable.sol\":2819:2829  orderIndex */\n      0x03\n        /* \"vinci-protocol/contracts/PtoPListTable.sol\":2819:2842  orderIndex[_nftAddress] */\n      0x00\n        /* \"vinci-protocol/contracts/PtoPListTable.sol\":2830:2841  _nftAddress */\n      dup11\n        /* \"vinci-protocol/contracts/PtoPListTable.sol\":2819:2842  orderIndex[_nftAddress] */\n      0xffffffffffffffffffffffffffffffffffffffff\n      and\n      0xffffffffffffffffffffffffffffffffffffffff\n      and\n      dup2\n      mstore\n      0x20\n      add\n      swap1\n      dup2\n      mstore\n      0x20\n      add\n      0x00\n      keccak256\n        /* \"vinci-protocol/contracts/PtoPListTable.sol\":2819:2852  orderIndex[_nftAddress][_tokenId] */\n      0x00\n        /* \"vinci-protocol/contracts/PtoPListTable.sol\":2843:2851  _tokenId */\n      dup10\n        /* \"vinci-protocol/contracts/PtoPListTable.sol\":2819:2852  orderIndex[_nftAddress][_tokenId] */\n      dup2\n      mstore\n      0x20\n      add\n      swap1\n      dup2\n      mstore\n      0x20\n      add\n      0x00\n      keccak256\n        /* \"vinci-protocol/contracts/PtoPListTable.sol\":2819:2865  orderIndex[_nftAddress][_tokenId] = nftCounter */\n      dup2\n      swap1\n      sstore\n      pop\n        /* \"vinci-protocol/contracts/PtoPListTable.sol\":2876:2942  nftTransfer(_nftAddress,_tokenId,msg.sender,address(this),_amount) */\n      tag_121\n        /* \"vinci-protocol/contracts/PtoPListTable.sol\":2888:2899  _nftAddress */\n      dup9\n        /* \"vinci-protocol/contracts/PtoPListTable.sol\":2900:2908  _tokenId */\n      dup9\n        /* \"vinci-protocol/contracts/PtoPListTable.sol\":2909:2919  msg.sender */\n      caller\n        /* \"vinci-protocol/contracts/PtoPListTable.sol\":2928:2932  this */\n      address\n        /* \"vinci-protocol/contracts/PtoPListTable.sol\":2934:2941  _amount */\n      dup11\n        /* \"vinci-protocol/contracts/PtoPListTable.sol\":2876:2887  nftTransfer */\n      tag_102\n        /* \"vinci-protocol/contracts/PtoPListTable.sol\":2876:2942  nftTransfer(_nftAddress,_tokenId,msg.sender,address(this),_amount) */\n      jump\t// in\n    tag_121:\n        /* \"vinci-protocol/contracts/PtoPListTable.sol\":2953:2974  Nodes.add(nftCounter) */\n      tag_122\n        /* \"vinci-protocol/contracts/PtoPListTable.sol\":2963:2973  nftCounter */\n      sload(0x05)\n        /* \"vinci-protocol/contracts/PtoPListTable.sol\":2953:2958  Nodes */\n      0x02\n        /* \"vinci-protocol/contracts/PtoPListTable.sol\":2953:2962  Nodes.add */\n      tag_123\n      swap1\n        /* \"vinci-protocol/contracts/PtoPListTable.sol\":2953:2974  Nodes.add(nftCounter) */\n      swap2\n      swap1\n      0xffffffff\n      and\n      jump\t// in\n    tag_122:\n      pop\n        /* \"vinci-protocol/contracts/PtoPListTable.sol\":2223:3006  {... */\n      pop\n      pop\n      pop\n        /* \"vinci-protocol/contracts/PtoPListTable.sol\":2066:3006  function createP2POrder(address _nftAddress,... */\n      pop\n      pop\n      pop\n      pop\n      pop\n      jump\t// out\n        /* \"vinci-protocol/contracts/PtoPListTable.sol\":5758:5905  function getNftAddressByIndex(uint256 index) public view returns(address NftAddress){... */\n    tag_37:\n        /* \"vinci-protocol/contracts/PtoPListTable.sol\":5823:5841  address NftAddress */\n      0x00\n        /* \"vinci-protocol/contracts/PtoPListTable.sol\":5866:5875  orderList */\n      0x04\n        /* \"vinci-protocol/contracts/PtoPListTable.sol\":5866:5882  orderList[index] */\n      0x00\n        /* \"vinci-protocol/contracts/PtoPListTable.sol\":5876:5881  index */\n      dup4\n        /* \"vinci-protocol/contracts/PtoPListTable.sol\":5866:5882  orderList[index] */\n      dup2\n      mstore\n      0x20\n      add\n      swap1\n      dup2\n      mstore\n      0x20\n      add\n      0x00\n      keccak256\n        /* \"vinci-protocol/contracts/PtoPListTable.sol\":5866:5886  orderList[index].nft */\n      0x06\n      add\n        /* \"vinci-protocol/contracts/PtoPListTable.sol\":5866:5897  orderList[index].nft.nftAddress */\n      0x00\n      add\n      0x00\n      swap1\n      sload\n      swap1\n      0x0100\n      exp\n      swap1\n      div\n      0xffffffffffffffffffffffffffffffffffffffff\n      and\n        /* \"vinci-protocol/contracts/PtoPListTable.sol\":5853:5897  NftAddress = orderList[index].nft.nftAddress */\n      swap1\n      pop\n        /* \"vinci-protocol/contracts/PtoPListTable.sol\":5758:5905  function getNftAddressByIndex(uint256 index) public view returns(address NftAddress){... */\n      swap2\n      swap1\n      pop\n      jump\t// out\n        /* \"vinci-protocol/contracts/PtoPListTable.sol\":5161:5715  function timeOut(uint256 index) external {... */\n    tag_42:\n        /* \"vinci-protocol/contracts/PtoPListTable.sol\":5313:5322  orderList */\n      0x04\n        /* \"vinci-protocol/contracts/PtoPListTable.sol\":5313:5329  orderList[index] */\n      0x00\n        /* \"vinci-protocol/contracts/PtoPListTable.sol\":5323:5328  index */\n      dup3\n        /* \"vinci-protocol/contracts/PtoPListTable.sol\":5313:5329  orderList[index] */\n      dup2\n      mstore\n      0x20\n      add\n      swap1\n      dup2\n      mstore\n      0x20\n      add\n      0x00\n      keccak256\n        /* \"vinci-protocol/contracts/PtoPListTable.sol\":5313:5338  orderList[index].loanTime */\n      0x03\n      add\n      sload\n        /* \"vinci-protocol/contracts/PtoPListTable.sol\":5268:5277  orderList */\n      0x04\n        /* \"vinci-protocol/contracts/PtoPListTable.sol\":5268:5284  orderList[index] */\n      0x00\n        /* \"vinci-protocol/contracts/PtoPListTable.sol\":5278:5283  index */\n      dup4\n        /* \"vinci-protocol/contracts/PtoPListTable.sol\":5268:5284  orderList[index] */\n      dup2\n      mstore\n      0x20\n      add\n      swap1\n      dup2\n      mstore\n      0x20\n      add\n      0x00\n      keccak256\n        /* \"vinci-protocol/contracts/PtoPListTable.sol\":5268:5295  orderList[index].borrowTime */\n      0x04\n      add\n      sload\n        /* \"vinci-protocol/contracts/PtoPListTable.sol\":5236:5251  block.timestamp */\n      timestamp\n        /* \"vinci-protocol/contracts/PtoPListTable.sol\":5236:5295  block.timestamp - ... */\n      tag_126\n      swap2\n      swap1\n      tag_127\n      jump\t// in\n    tag_126:\n        /* \"vinci-protocol/contracts/PtoPListTable.sol\":5235:5338  (block.timestamp - ... */\n      gt\n        /* \"vinci-protocol/contracts/PtoPListTable.sol\":5213:5352  require(... */\n      tag_128\n      jumpi\n      0x00\n      dup1\n      revert\n    tag_128:\n        /* \"vinci-protocol/contracts/PtoPListTable.sol\":5385:5394  orderList */\n      0x04\n        /* \"vinci-protocol/contracts/PtoPListTable.sol\":5385:5401  orderList[index] */\n      0x00\n        /* \"vinci-protocol/contracts/PtoPListTable.sol\":5395:5400  index */\n      dup3\n        /* \"vinci-protocol/contracts/PtoPListTable.sol\":5385:5401  orderList[index] */\n      dup2\n      mstore\n      0x20\n      add\n      swap1\n      dup2\n      mstore\n      0x20\n      add\n      0x00\n      keccak256\n        /* \"vinci-protocol/contracts/PtoPListTable.sol\":5385:5408  orderList[index].lender */\n      0x05\n      add\n      0x00\n      swap1\n      sload\n      swap1\n      0x0100\n      exp\n      swap1\n      div\n      0xffffffffffffffffffffffffffffffffffffffff\n      and\n        /* \"vinci-protocol/contracts/PtoPListTable.sol\":5371:5408  msg.sender == orderList[index].lender */\n      0xffffffffffffffffffffffffffffffffffffffff\n      and\n        /* \"vinci-protocol/contracts/PtoPListTable.sol\":5371:5381  msg.sender */\n      caller\n        /* \"vinci-protocol/contracts/PtoPListTable.sol\":5371:5408  msg.sender == orderList[index].lender */\n      0xffffffffffffffffffffffffffffffffffffffff\n      and\n      eq\n        /* \"vinci-protocol/contracts/PtoPListTable.sol\":5363:5409  require(msg.sender == orderList[index].lender) */\n      tag_129\n      jumpi\n      0x00\n      dup1\n      revert\n    tag_129:\n        /* \"vinci-protocol/contracts/PtoPListTable.sol\":5420:5439  address _nftAddress */\n      0x00\n        /* \"vinci-protocol/contracts/PtoPListTable.sol\":5442:5469  getNftAddressByIndex(index) */\n      tag_130\n        /* \"vinci-protocol/contracts/PtoPListTable.sol\":5463:5468  index */\n      dup3\n        /* \"vinci-protocol/contracts/PtoPListTable.sol\":5442:5462  getNftAddressByIndex */\n      tag_37\n        /* \"vinci-protocol/contracts/PtoPListTable.sol\":5442:5469  getNftAddressByIndex(index) */\n      jump\t// in\n    tag_130:\n        /* \"vinci-protocol/contracts/PtoPListTable.sol\":5420:5469  address _nftAddress = getNftAddressByIndex(index) */\n      swap1\n      pop\n        /* \"vinci-protocol/contracts/PtoPListTable.sol\":5480:5496  uint256 _tokenId */\n      0x00\n        /* \"vinci-protocol/contracts/PtoPListTable.sol\":5499:5523  getTokenIdByIndex(index) */\n      tag_131\n        /* \"vinci-protocol/contracts/PtoPListTable.sol\":5517:5522  index */\n      dup4\n        /* \"vinci-protocol/contracts/PtoPListTable.sol\":5499:5516  getTokenIdByIndex */\n      tag_28\n        /* \"vinci-protocol/contracts/PtoPListTable.sol\":5499:5523  getTokenIdByIndex(index) */\n      jump\t// in\n    tag_131:\n        /* \"vinci-protocol/contracts/PtoPListTable.sol\":5480:5523  uint256 _tokenId = getTokenIdByIndex(index) */\n      swap1\n      pop\n        /* \"vinci-protocol/contracts/PtoPListTable.sol\":5534:5548  uint256 amount */\n      0x00\n        /* \"vinci-protocol/contracts/PtoPListTable.sol\":5551:5560  orderList */\n      0x04\n        /* \"vinci-protocol/contracts/PtoPListTable.sol\":5551:5567  orderList[index] */\n      0x00\n        /* \"vinci-protocol/contracts/PtoPListTable.sol\":5561:5566  index */\n      dup6\n        /* \"vinci-protocol/contracts/PtoPListTable.sol\":5551:5567  orderList[index] */\n      dup2\n      mstore\n      0x20\n      add\n      swap1\n      dup2\n      mstore\n      0x20\n      add\n      0x00\n      keccak256\n        /* \"vinci-protocol/contracts/PtoPListTable.sol\":5551:5571  orderList[index].nft */\n      0x06\n      add\n        /* \"vinci-protocol/contracts/PtoPListTable.sol\":5551:5578  orderList[index].nft.amount */\n      0x03\n      add\n      sload\n        /* \"vinci-protocol/contracts/PtoPListTable.sol\":5534:5578  uint256 amount = orderList[index].nft.amount */\n      swap1\n      pop\n        /* \"vinci-protocol/contracts/PtoPListTable.sol\":5589:5654  nftTransfer(_nftAddress,_tokenId,address(this),msg.sender,amount) */\n      tag_132\n        /* \"vinci-protocol/contracts/PtoPListTable.sol\":5601:5612  _nftAddress */\n      dup4\n        /* \"vinci-protocol/contracts/PtoPListTable.sol\":5613:5621  _tokenId */\n      dup4\n        /* \"vinci-protocol/contracts/PtoPListTable.sol\":5630:5634  this */\n      address\n        /* \"vinci-protocol/contracts/PtoPListTable.sol\":5636:5646  msg.sender */\n      caller\n        /* \"vinci-protocol/contracts/PtoPListTable.sol\":5647:5653  amount */\n      dup6\n        /* \"vinci-protocol/contracts/PtoPListTable.sol\":5589:5600  nftTransfer */\n      tag_102\n        /* \"vinci-protocol/contracts/PtoPListTable.sol\":5589:5654  nftTransfer(_nftAddress,_tokenId,address(this),msg.sender,amount) */\n      jump\t// in\n    tag_132:\n        /* \"vinci-protocol/contracts/PtoPListTable.sol\":5690:5705  States.finished */\n      0x03\n        /* \"vinci-protocol/contracts/PtoPListTable.sol\":5665:5674  orderList */\n      0x04\n        /* \"vinci-protocol/contracts/PtoPListTable.sol\":5665:5681  orderList[index] */\n      0x00\n        /* \"vinci-protocol/contracts/PtoPListTable.sol\":5675:5680  index */\n      dup7\n        /* \"vinci-protocol/contracts/PtoPListTable.sol\":5665:5681  orderList[index] */\n      dup2\n      mstore\n      0x20\n      add\n      swap1\n      dup2\n      mstore\n      0x20\n      add\n      0x00\n      keccak256\n        /* \"vinci-protocol/contracts/PtoPListTable.sol\":5665:5687  orderList[index].state */\n      0x0a\n      add\n      0x00\n        /* \"vinci-protocol/contracts/PtoPListTable.sol\":5665:5705  orderList[index].state = States.finished */\n      0x0100\n      exp\n      dup2\n      sload\n      dup2\n      0xff\n      mul\n      not\n      and\n      swap1\n      dup4\n      0x03\n      dup2\n      gt\n      iszero\n      tag_133\n      jumpi\n      tag_134\n      tag_83\n      jump\t// in\n    tag_134:\n    tag_133:\n      mul\n      or\n      swap1\n      sstore\n      pop\n        /* \"vinci-protocol/contracts/PtoPListTable.sol\":5202:5715  {... */\n      pop\n      pop\n      pop\n        /* \"vinci-protocol/contracts/PtoPListTable.sol\":5161:5715  function timeOut(uint256 index) external {... */\n      pop\n      jump\t// out\n        /* \"vinci-protocol/contracts/PtoPListTable.sol\":3526:3943  function lend(uint256 index) external {... */\n    tag_45:\n        /* \"vinci-protocol/contracts/PtoPListTable.sol\":3609:3623  States.created */\n      0x00\n        /* \"vinci-protocol/contracts/PtoPListTable.sol\":3583:3623  orderList[index].state == States.created */\n      0x03\n      dup2\n      gt\n      iszero\n      tag_136\n      jumpi\n      tag_137\n      tag_83\n      jump\t// in\n    tag_137:\n    tag_136:\n        /* \"vinci-protocol/contracts/PtoPListTable.sol\":3583:3592  orderList */\n      0x04\n        /* \"vinci-protocol/contracts/PtoPListTable.sol\":3583:3599  orderList[index] */\n      0x00\n        /* \"vinci-protocol/contracts/PtoPListTable.sol\":3593:3598  index */\n      dup4\n        /* \"vinci-protocol/contracts/PtoPListTable.sol\":3583:3599  orderList[index] */\n      dup2\n      mstore\n      0x20\n      add\n      swap1\n      dup2\n      mstore\n      0x20\n      add\n      0x00\n      keccak256\n        /* \"vinci-protocol/contracts/PtoPListTable.sol\":3583:3605  orderList[index].state */\n      0x0a\n      add\n      0x00\n      swap1\n      sload\n      swap1\n      0x0100\n      exp\n      swap1\n      div\n      0xff\n      and\n        /* \"vinci-protocol/contracts/PtoPListTable.sol\":3583:3623  orderList[index].state == States.created */\n      0x03\n      dup2\n      gt\n      iszero\n      tag_138\n      jumpi\n      tag_139\n      tag_83\n      jump\t// in\n    tag_139:\n    tag_138:\n      eq\n        /* \"vinci-protocol/contracts/PtoPListTable.sol\":3575:3624  require(orderList[index].state == States.created) */\n      tag_140\n      jumpi\n      0x00\n      dup1\n      revert\n    tag_140:\n        /* \"vinci-protocol/contracts/PtoPListTable.sol\":3635:3640  token */\n      0x00\n      dup1\n      sload\n      swap1\n      0x0100\n      exp\n      swap1\n      div\n      0xffffffffffffffffffffffffffffffffffffffff\n      and\n        /* \"vinci-protocol/contracts/PtoPListTable.sol\":3635:3653  token.transferFrom */\n      0xffffffffffffffffffffffffffffffffffffffff\n      and\n      0x23b872dd\n        /* \"vinci-protocol/contracts/PtoPListTable.sol\":3668:3677  orderList */\n      0x04\n        /* \"vinci-protocol/contracts/PtoPListTable.sol\":3668:3684  orderList[index] */\n      0x00\n        /* \"vinci-protocol/contracts/PtoPListTable.sol\":3678:3683  index */\n      dup5\n        /* \"vinci-protocol/contracts/PtoPListTable.sol\":3668:3684  orderList[index] */\n      dup2\n      mstore\n      0x20\n      add\n      swap1\n      dup2\n      mstore\n      0x20\n      add\n      0x00\n      keccak256\n        /* \"vinci-protocol/contracts/PtoPListTable.sol\":3668:3691  orderList[index].lender */\n      0x05\n      add\n      0x00\n      swap1\n      sload\n      swap1\n      0x0100\n      exp\n      swap1\n      div\n      0xffffffffffffffffffffffffffffffffffffffff\n      and\n        /* \"vinci-protocol/contracts/PtoPListTable.sol\":3706:3715  orderList */\n      0x04\n        /* \"vinci-protocol/contracts/PtoPListTable.sol\":3706:3722  orderList[index] */\n      0x00\n        /* \"vinci-protocol/contracts/PtoPListTable.sol\":3716:3721  index */\n      dup6\n        /* \"vinci-protocol/contracts/PtoPListTable.sol\":3706:3722  orderList[index] */\n      dup2\n      mstore\n      0x20\n      add\n      swap1\n      dup2\n      mstore\n      0x20\n      add\n      0x00\n      keccak256\n        /* \"vinci-protocol/contracts/PtoPListTable.sol\":3706:3731  orderList[index].borrower */\n      0x01\n      add\n      0x00\n      swap1\n      sload\n      swap1\n      0x0100\n      exp\n      swap1\n      div\n      0xffffffffffffffffffffffffffffffffffffffff\n      and\n        /* \"vinci-protocol/contracts/PtoPListTable.sol\":3746:3755  orderList */\n      0x04\n        /* \"vinci-protocol/contracts/PtoPListTable.sol\":3746:3762  orderList[index] */\n      0x00\n        /* \"vinci-protocol/contracts/PtoPListTable.sol\":3756:3761  index */\n      dup7\n        /* \"vinci-protocol/contracts/PtoPListTable.sol\":3746:3762  orderList[index] */\n      dup2\n      mstore\n      0x20\n      add\n      swap1\n      dup2\n      mstore\n      0x20\n      add\n      0x00\n      keccak256\n        /* \"vinci-protocol/contracts/PtoPListTable.sol\":3746:3768  orderList[index].price */\n      0x02\n      add\n      sload\n        /* \"vinci-protocol/contracts/PtoPListTable.sol\":3635:3779  token.transferFrom(... */\n      mload(0x40)\n      dup5\n      0xffffffff\n      and\n      0xe0\n      shl\n      dup2\n      mstore\n      0x04\n      add\n      tag_141\n      swap4\n      swap3\n      swap2\n      swap1\n      tag_142\n      jump\t// in\n    tag_141:\n      0x20\n      mload(0x40)\n      dup1\n      dup4\n      sub\n      dup2\n      0x00\n      dup8\n      gas\n      call\n      iszero\n      dup1\n      iszero\n      tag_144\n      jumpi\n      returndatasize\n      0x00\n      dup1\n      returndatacopy\n      revert(0x00, returndatasize)\n    tag_144:\n      pop\n      pop\n      pop\n      pop\n      mload(0x40)\n      returndatasize\n      not(0x1f)\n      0x1f\n      dup3\n      add\n      and\n      dup3\n      add\n      dup1\n      0x40\n      mstore\n      pop\n      dup2\n      add\n      swap1\n      tag_145\n      swap2\n      swap1\n      tag_146\n      jump\t// in\n    tag_145:\n      pop\n        /* \"vinci-protocol/contracts/PtoPListTable.sol\":3816:3826  msg.sender */\n      caller\n        /* \"vinci-protocol/contracts/PtoPListTable.sol\":3790:3799  orderList */\n      0x04\n        /* \"vinci-protocol/contracts/PtoPListTable.sol\":3790:3806  orderList[index] */\n      0x00\n        /* \"vinci-protocol/contracts/PtoPListTable.sol\":3800:3805  index */\n      dup4\n        /* \"vinci-protocol/contracts/PtoPListTable.sol\":3790:3806  orderList[index] */\n      dup2\n      mstore\n      0x20\n      add\n      swap1\n      dup2\n      mstore\n      0x20\n      add\n      0x00\n      keccak256\n        /* \"vinci-protocol/contracts/PtoPListTable.sol\":3790:3813  orderList[index].lender */\n      0x05\n      add\n      0x00\n        /* \"vinci-protocol/contracts/PtoPListTable.sol\":3790:3826  orderList[index].lender = msg.sender */\n      0x0100\n      exp\n      dup2\n      sload\n      dup2\n      0xffffffffffffffffffffffffffffffffffffffff\n      mul\n      not\n      and\n      swap1\n      dup4\n      0xffffffffffffffffffffffffffffffffffffffff\n      and\n      mul\n      or\n      swap1\n      sstore\n      pop\n        /* \"vinci-protocol/contracts/PtoPListTable.sol\":3867:3882  block.timestamp */\n      timestamp\n        /* \"vinci-protocol/contracts/PtoPListTable.sol\":3837:3846  orderList */\n      0x04\n        /* \"vinci-protocol/contracts/PtoPListTable.sol\":3837:3853  orderList[index] */\n      0x00\n        /* \"vinci-protocol/contracts/PtoPListTable.sol\":3847:3852  index */\n      dup4\n        /* \"vinci-protocol/contracts/PtoPListTable.sol\":3837:3853  orderList[index] */\n      dup2\n      mstore\n      0x20\n      add\n      swap1\n      dup2\n      mstore\n      0x20\n      add\n      0x00\n      keccak256\n        /* \"vinci-protocol/contracts/PtoPListTable.sol\":3837:3864  orderList[index].borrowTime */\n      0x04\n      add\n        /* \"vinci-protocol/contracts/PtoPListTable.sol\":3837:3882  orderList[index].borrowTime = block.timestamp */\n      dup2\n      swap1\n      sstore\n      pop\n        /* \"vinci-protocol/contracts/PtoPListTable.sol\":3918:3931  States.lended */\n      0x01\n        /* \"vinci-protocol/contracts/PtoPListTable.sol\":3893:3902  orderList */\n      0x04\n        /* \"vinci-protocol/contracts/PtoPListTable.sol\":3893:3909  orderList[index] */\n      0x00\n        /* \"vinci-protocol/contracts/PtoPListTable.sol\":3903:3908  index */\n      dup4\n        /* \"vinci-protocol/contracts/PtoPListTable.sol\":3893:3909  orderList[index] */\n      dup2\n      mstore\n      0x20\n      add\n      swap1\n      dup2\n      mstore\n      0x20\n      add\n      0x00\n      keccak256\n        /* \"vinci-protocol/contracts/PtoPListTable.sol\":3893:3915  orderList[index].state */\n      0x0a\n      add\n      0x00\n        /* \"vinci-protocol/contracts/PtoPListTable.sol\":3893:3931  orderList[index].state = States.lended */\n      0x0100\n      exp\n      dup2\n      sload\n      dup2\n      0xff\n      mul\n      not\n      and\n      swap1\n      dup4\n      0x03\n      dup2\n      gt\n      iszero\n      tag_147\n      jumpi\n      tag_148\n      tag_83\n      jump\t// in\n    tag_148:\n    tag_147:\n      mul\n      or\n      swap1\n      sstore\n      pop\n        /* \"vinci-protocol/contracts/PtoPListTable.sol\":3526:3943  function lend(uint256 index) external {... */\n      pop\n      jump\t// out\n        /* \"vinci-protocol/contracts/PtoPListTable.sol\":3965:4844  function borrow(uint256 index) external {... */\n    tag_48:\n        /* \"vinci-protocol/contracts/PtoPListTable.sol\":4117:4126  orderList */\n      0x04\n        /* \"vinci-protocol/contracts/PtoPListTable.sol\":4117:4133  orderList[index] */\n      0x00\n        /* \"vinci-protocol/contracts/PtoPListTable.sol\":4127:4132  index */\n      dup3\n        /* \"vinci-protocol/contracts/PtoPListTable.sol\":4117:4133  orderList[index] */\n      dup2\n      mstore\n      0x20\n      add\n      swap1\n      dup2\n      mstore\n      0x20\n      add\n      0x00\n      keccak256\n        /* \"vinci-protocol/contracts/PtoPListTable.sol\":4117:4142  orderList[index].loanTime */\n      0x03\n      add\n      sload\n        /* \"vinci-protocol/contracts/PtoPListTable.sol\":4071:4080  orderList */\n      0x04\n        /* \"vinci-protocol/contracts/PtoPListTable.sol\":4071:4087  orderList[index] */\n      0x00\n        /* \"vinci-protocol/contracts/PtoPListTable.sol\":4081:4086  index */\n      dup4\n        /* \"vinci-protocol/contracts/PtoPListTable.sol\":4071:4087  orderList[index] */\n      dup2\n      mstore\n      0x20\n      add\n      swap1\n      dup2\n      mstore\n      0x20\n      add\n      0x00\n      keccak256\n        /* \"vinci-protocol/contracts/PtoPListTable.sol\":4071:4098  orderList[index].borrowTime */\n      0x04\n      add\n      sload\n        /* \"vinci-protocol/contracts/PtoPListTable.sol\":4039:4054  block.timestamp */\n      timestamp\n        /* \"vinci-protocol/contracts/PtoPListTable.sol\":4039:4098  block.timestamp - ... */\n      tag_150\n      swap2\n      swap1\n      tag_127\n      jump\t// in\n    tag_150:\n        /* \"vinci-protocol/contracts/PtoPListTable.sol\":4038:4142  (block.timestamp - ... */\n      gt\n      iszero\n        /* \"vinci-protocol/contracts/PtoPListTable.sol\":4016:4156  require(... */\n      tag_151\n      jumpi\n      0x00\n      dup1\n      revert\n    tag_151:\n        /* \"vinci-protocol/contracts/PtoPListTable.sol\":4189:4198  orderList */\n      0x04\n        /* \"vinci-protocol/contracts/PtoPListTable.sol\":4189:4205  orderList[index] */\n      0x00\n        /* \"vinci-protocol/contracts/PtoPListTable.sol\":4199:4204  index */\n      dup3\n        /* \"vinci-protocol/contracts/PtoPListTable.sol\":4189:4205  orderList[index] */\n      dup2\n      mstore\n      0x20\n      add\n      swap1\n      dup2\n      mstore\n      0x20\n      add\n      0x00\n      keccak256\n        /* \"vinci-protocol/contracts/PtoPListTable.sol\":4189:4214  orderList[index].borrower */\n      0x01\n      add\n      0x00\n      swap1\n      sload\n      swap1\n      0x0100\n      exp\n      swap1\n      div\n      0xffffffffffffffffffffffffffffffffffffffff\n      and\n        /* \"vinci-protocol/contracts/PtoPListTable.sol\":4175:4214  msg.sender == orderList[index].borrower */\n      0xffffffffffffffffffffffffffffffffffffffff\n      and\n        /* \"vinci-protocol/contracts/PtoPListTable.sol\":4175:4185  msg.sender */\n      caller\n        /* \"vinci-protocol/contracts/PtoPListTable.sol\":4175:4214  msg.sender == orderList[index].borrower */\n      0xffffffffffffffffffffffffffffffffffffffff\n      and\n      eq\n        /* \"vinci-protocol/contracts/PtoPListTable.sol\":4167:4215  require(msg.sender == orderList[index].borrower) */\n      tag_152\n      jumpi\n      0x00\n      dup1\n      revert\n    tag_152:\n        /* \"vinci-protocol/contracts/PtoPListTable.sol\":4226:4239  uint256 price */\n      0x00\n        /* \"vinci-protocol/contracts/PtoPListTable.sol\":4242:4280  getBorrowPrice(orderList[index].price) */\n      tag_153\n        /* \"vinci-protocol/contracts/PtoPListTable.sol\":4257:4266  orderList */\n      0x04\n        /* \"vinci-protocol/contracts/PtoPListTable.sol\":4257:4273  orderList[index] */\n      0x00\n        /* \"vinci-protocol/contracts/PtoPListTable.sol\":4267:4272  index */\n      dup5\n        /* \"vinci-protocol/contracts/PtoPListTable.sol\":4257:4273  orderList[index] */\n      dup2\n      mstore\n      0x20\n      add\n      swap1\n      dup2\n      mstore\n      0x20\n      add\n      0x00\n      keccak256\n        /* \"vinci-protocol/contracts/PtoPListTable.sol\":4257:4279  orderList[index].price */\n      0x02\n      add\n      sload\n        /* \"vinci-protocol/contracts/PtoPListTable.sol\":4242:4256  getBorrowPrice */\n      tag_154\n        /* \"vinci-protocol/contracts/PtoPListTable.sol\":4242:4280  getBorrowPrice(orderList[index].price) */\n      jump\t// in\n    tag_153:\n        /* \"vinci-protocol/contracts/PtoPListTable.sol\":4226:4280  uint256 price = getBorrowPrice(orderList[index].price) */\n      swap1\n      pop\n        /* \"vinci-protocol/contracts/PtoPListTable.sol\":4291:4310  address _nftAddress */\n      0x00\n        /* \"vinci-protocol/contracts/PtoPListTable.sol\":4313:4340  getNftAddressByIndex(index) */\n      tag_155\n        /* \"vinci-protocol/contracts/PtoPListTable.sol\":4334:4339  index */\n      dup4\n        /* \"vinci-protocol/contracts/PtoPListTable.sol\":4313:4333  getNftAddressByIndex */\n      tag_37\n        /* \"vinci-protocol/contracts/PtoPListTable.sol\":4313:4340  getNftAddressByIndex(index) */\n      jump\t// in\n    tag_155:\n        /* \"vinci-protocol/contracts/PtoPListTable.sol\":4291:4340  address _nftAddress = getNftAddressByIndex(index) */\n      swap1\n      pop\n        /* \"vinci-protocol/contracts/PtoPListTable.sol\":4351:4367  uint256 _tokenId */\n      0x00\n        /* \"vinci-protocol/contracts/PtoPListTable.sol\":4370:4394  getTokenIdByIndex(index) */\n      tag_156\n        /* \"vinci-protocol/contracts/PtoPListTable.sol\":4388:4393  index */\n      dup5\n        /* \"vinci-protocol/contracts/PtoPListTable.sol\":4370:4387  getTokenIdByIndex */\n      tag_28\n        /* \"vinci-protocol/contracts/PtoPListTable.sol\":4370:4394  getTokenIdByIndex(index) */\n      jump\t// in\n    tag_156:\n        /* \"vinci-protocol/contracts/PtoPListTable.sol\":4351:4394  uint256 _tokenId = getTokenIdByIndex(index) */\n      swap1\n      pop\n        /* \"vinci-protocol/contracts/PtoPListTable.sol\":4405:4410  token */\n      0x00\n      dup1\n      sload\n      swap1\n      0x0100\n      exp\n      swap1\n      div\n      0xffffffffffffffffffffffffffffffffffffffff\n      and\n        /* \"vinci-protocol/contracts/PtoPListTable.sol\":4405:4423  token.transferFrom */\n      0xffffffffffffffffffffffffffffffffffffffff\n      and\n      0x23b872dd\n        /* \"vinci-protocol/contracts/PtoPListTable.sol\":4438:4447  orderList */\n      0x04\n        /* \"vinci-protocol/contracts/PtoPListTable.sol\":4438:4454  orderList[index] */\n      0x00\n        /* \"vinci-protocol/contracts/PtoPListTable.sol\":4448:4453  index */\n      dup8\n        /* \"vinci-protocol/contracts/PtoPListTable.sol\":4438:4454  orderList[index] */\n      dup2\n      mstore\n      0x20\n      add\n      swap1\n      dup2\n      mstore\n      0x20\n      add\n      0x00\n      keccak256\n        /* \"vinci-protocol/contracts/PtoPListTable.sol\":4438:4463  orderList[index].borrower */\n      0x01\n      add\n      0x00\n      swap1\n      sload\n      swap1\n      0x0100\n      exp\n      swap1\n      div\n      0xffffffffffffffffffffffffffffffffffffffff\n      and\n        /* \"vinci-protocol/contracts/PtoPListTable.sol\":4478:4487  orderList */\n      0x04\n        /* \"vinci-protocol/contracts/PtoPListTable.sol\":4478:4494  orderList[index] */\n      0x00\n        /* \"vinci-protocol/contracts/PtoPListTable.sol\":4488:4493  index */\n      dup9\n        /* \"vinci-protocol/contracts/PtoPListTable.sol\":4478:4494  orderList[index] */\n      dup2\n      mstore\n      0x20\n      add\n      swap1\n      dup2\n      mstore\n      0x20\n      add\n      0x00\n      keccak256\n        /* \"vinci-protocol/contracts/PtoPListTable.sol\":4478:4501  orderList[index].lender */\n      0x05\n      add\n      0x00\n      swap1\n      sload\n      swap1\n      0x0100\n      exp\n      swap1\n      div\n      0xffffffffffffffffffffffffffffffffffffffff\n      and\n        /* \"vinci-protocol/contracts/PtoPListTable.sol\":4516:4521  price */\n      dup7\n        /* \"vinci-protocol/contracts/PtoPListTable.sol\":4405:4532  token.transferFrom(... */\n      mload(0x40)\n      dup5\n      0xffffffff\n      and\n      0xe0\n      shl\n      dup2\n      mstore\n      0x04\n      add\n      tag_157\n      swap4\n      swap3\n      swap2\n      swap1\n      tag_142\n      jump\t// in\n    tag_157:\n      0x20\n      mload(0x40)\n      dup1\n      dup4\n      sub\n      dup2\n      0x00\n      dup8\n      gas\n      call\n      iszero\n      dup1\n      iszero\n      tag_159\n      jumpi\n      returndatasize\n      0x00\n      dup1\n      returndatacopy\n      revert(0x00, returndatasize)\n    tag_159:\n      pop\n      pop\n      pop\n      pop\n      mload(0x40)\n      returndatasize\n      not(0x1f)\n      0x1f\n      dup3\n      add\n      and\n      dup3\n      add\n      dup1\n      0x40\n      mstore\n      pop\n      dup2\n      add\n      swap1\n      tag_160\n      swap2\n      swap1\n      tag_146\n      jump\t// in\n    tag_160:\n      pop\n        /* \"vinci-protocol/contracts/PtoPListTable.sol\":4568:4583  States.borrowed */\n      0x02\n        /* \"vinci-protocol/contracts/PtoPListTable.sol\":4543:4552  orderList */\n      0x04\n        /* \"vinci-protocol/contracts/PtoPListTable.sol\":4543:4559  orderList[index] */\n      0x00\n        /* \"vinci-protocol/contracts/PtoPListTable.sol\":4553:4558  index */\n      dup7\n        /* \"vinci-protocol/contracts/PtoPListTable.sol\":4543:4559  orderList[index] */\n      dup2\n      mstore\n      0x20\n      add\n      swap1\n      dup2\n      mstore\n      0x20\n      add\n      0x00\n      keccak256\n        /* \"vinci-protocol/contracts/PtoPListTable.sol\":4543:4565  orderList[index].state */\n      0x0a\n      add\n      0x00\n        /* \"vinci-protocol/contracts/PtoPListTable.sol\":4543:4583  orderList[index].state = States.borrowed */\n      0x0100\n      exp\n      dup2\n      sload\n      dup2\n      0xff\n      mul\n      not\n      and\n      swap1\n      dup4\n      0x03\n      dup2\n      gt\n      iszero\n      tag_161\n      jumpi\n      tag_162\n      tag_83\n      jump\t// in\n    tag_162:\n    tag_161:\n      mul\n      or\n      swap1\n      sstore\n      pop\n        /* \"vinci-protocol/contracts/PtoPListTable.sol\":4657:4667  nftCounter */\n      0x05\n      0x00\n        /* \"vinci-protocol/contracts/PtoPListTable.sol\":4657:4669  nftCounter-- */\n      dup2\n      sload\n      dup1\n      swap3\n      swap2\n      swap1\n      tag_163\n      swap1\n      tag_106\n      jump\t// in\n    tag_163:\n      swap2\n      swap1\n      pop\n      sstore\n      pop\n        /* \"vinci-protocol/contracts/PtoPListTable.sol\":4680:4699  Nodes.remove(index) */\n      tag_164\n        /* \"vinci-protocol/contracts/PtoPListTable.sol\":4693:4698  index */\n      dup5\n        /* \"vinci-protocol/contracts/PtoPListTable.sol\":4680:4685  Nodes */\n      0x02\n        /* \"vinci-protocol/contracts/PtoPListTable.sol\":4680:4692  Nodes.remove */\n      tag_108\n      swap1\n        /* \"vinci-protocol/contracts/PtoPListTable.sol\":4680:4699  Nodes.remove(index) */\n      swap2\n      swap1\n      0xffffffff\n      and\n      jump\t// in\n    tag_164:\n      pop\n        /* \"vinci-protocol/contracts/PtoPListTable.sol\":4710:4724  uint256 amount */\n      0x00\n        /* \"vinci-protocol/contracts/PtoPListTable.sol\":4727:4736  orderList */\n      0x04\n        /* \"vinci-protocol/contracts/PtoPListTable.sol\":4727:4743  orderList[index] */\n      0x00\n        /* \"vinci-protocol/contracts/PtoPListTable.sol\":4737:4742  index */\n      dup7\n        /* \"vinci-protocol/contracts/PtoPListTable.sol\":4727:4743  orderList[index] */\n      dup2\n      mstore\n      0x20\n      add\n      swap1\n      dup2\n      mstore\n      0x20\n      add\n      0x00\n      keccak256\n        /* \"vinci-protocol/contracts/PtoPListTable.sol\":4727:4747  orderList[index].nft */\n      0x06\n      add\n        /* \"vinci-protocol/contracts/PtoPListTable.sol\":4727:4754  orderList[index].nft.amount */\n      0x03\n      add\n      sload\n        /* \"vinci-protocol/contracts/PtoPListTable.sol\":4710:4754  uint256 amount = orderList[index].nft.amount */\n      swap1\n      pop\n        /* \"vinci-protocol/contracts/PtoPListTable.sol\":4765:4830  nftTransfer(_nftAddress,_tokenId,address(this),msg.sender,amount) */\n      tag_165\n        /* \"vinci-protocol/contracts/PtoPListTable.sol\":4777:4788  _nftAddress */\n      dup4\n        /* \"vinci-protocol/contracts/PtoPListTable.sol\":4789:4797  _tokenId */\n      dup4\n        /* \"vinci-protocol/contracts/PtoPListTable.sol\":4806:4810  this */\n      address\n        /* \"vinci-protocol/contracts/PtoPListTable.sol\":4812:4822  msg.sender */\n      caller\n        /* \"vinci-protocol/contracts/PtoPListTable.sol\":4823:4829  amount */\n      dup6\n        /* \"vinci-protocol/contracts/PtoPListTable.sol\":4765:4776  nftTransfer */\n      tag_102\n        /* \"vinci-protocol/contracts/PtoPListTable.sol\":4765:4830  nftTransfer(_nftAddress,_tokenId,address(this),msg.sender,amount) */\n      jump\t// in\n    tag_165:\n        /* \"vinci-protocol/contracts/PtoPListTable.sol\":4005:4844  {... */\n      pop\n      pop\n      pop\n      pop\n        /* \"vinci-protocol/contracts/PtoPListTable.sol\":3965:4844  function borrow(uint256 index) external {... */\n      pop\n      jump\t// out\n        /* \"vinci-protocol/contracts/PtoPListTable.sol\":5020:5093  function setBorrowPricePercentage() external onlyadministrator {... */\n    tag_50:\n        /* \"vinci-protocol/contracts/PtoPListTable.sol\":809:822  administrator */\n      0x01\n      0x00\n      swap1\n      sload\n      swap1\n      0x0100\n      exp\n      swap1\n      div\n      0xffffffffffffffffffffffffffffffffffffffff\n      and\n        /* \"vinci-protocol/contracts/PtoPListTable.sol\":795:822  msg.sender == administrator */\n      0xffffffffffffffffffffffffffffffffffffffff\n      and\n        /* \"vinci-protocol/contracts/PtoPListTable.sol\":795:805  msg.sender */\n      caller\n        /* \"vinci-protocol/contracts/PtoPListTable.sol\":795:822  msg.sender == administrator */\n      0xffffffffffffffffffffffffffffffffffffffff\n      and\n      eq\n        /* \"vinci-protocol/contracts/PtoPListTable.sol\":787:823  require(msg.sender == administrator) */\n      tag_167\n      jumpi\n      0x00\n      dup1\n      revert\n    tag_167:\n        /* \"vinci-protocol/contracts/PtoPListTable.sol\":5020:5093  function setBorrowPricePercentage() external onlyadministrator {... */\n      jump\t// out\n        /* \"vinci-protocol/contracts/PtoPListTable.sol\":6090:6226  function setAdministrator(address _address)external onlyadministrator returns(address){... */\n    tag_54:\n        /* \"vinci-protocol/contracts/PtoPListTable.sol\":6168:6175  address */\n      0x00\n        /* \"vinci-protocol/contracts/PtoPListTable.sol\":809:822  administrator */\n      0x01\n      0x00\n      swap1\n      sload\n      swap1\n      0x0100\n      exp\n      swap1\n      div\n      0xffffffffffffffffffffffffffffffffffffffff\n      and\n        /* \"vinci-protocol/contracts/PtoPListTable.sol\":795:822  msg.sender == administrator */\n      0xffffffffffffffffffffffffffffffffffffffff\n      and\n        /* \"vinci-protocol/contracts/PtoPListTable.sol\":795:805  msg.sender */\n      caller\n        /* \"vinci-protocol/contracts/PtoPListTable.sol\":795:822  msg.sender == administrator */\n      0xffffffffffffffffffffffffffffffffffffffff\n      and\n      eq\n        /* \"vinci-protocol/contracts/PtoPListTable.sol\":787:823  require(msg.sender == administrator) */\n      tag_170\n      jumpi\n      0x00\n      dup1\n      revert\n    tag_170:\n        /* \"vinci-protocol/contracts/PtoPListTable.sol\":6210:6218  _address */\n      dup2\n        /* \"vinci-protocol/contracts/PtoPListTable.sol\":6194:6207  administrator */\n      0x01\n      0x00\n        /* \"vinci-protocol/contracts/PtoPListTable.sol\":6194:6218  administrator = _address */\n      0x0100\n      exp\n      dup2\n      sload\n      dup2\n      0xffffffffffffffffffffffffffffffffffffffff\n      mul\n      not\n      and\n      swap1\n      dup4\n      0xffffffffffffffffffffffffffffffffffffffff\n      and\n      mul\n      or\n      swap1\n      sstore\n        /* \"vinci-protocol/contracts/PtoPListTable.sol\":6187:6218  return administrator = _address */\n      swap1\n      pop\n        /* \"vinci-protocol/contracts/PtoPListTable.sol\":6090:6226  function setAdministrator(address _address)external onlyadministrator returns(address){... */\n      swap2\n      swap1\n      pop\n      jump\t// out\n        /* \"vinci-protocol/contracts/PtoPListTable.sol\":6953:7377  function identifyNFT(address nftAddress) public view returns (NftType) {... */\n    tag_58:\n        /* \"vinci-protocol/contracts/PtoPListTable.sol\":7015:7022  NftType */\n      0x00\n        /* \"vinci-protocol/contracts/PtoPListTable.sol\":7035:7054  ERC165 nftInterface */\n      dup1\n        /* \"vinci-protocol/contracts/PtoPListTable.sol\":7064:7074  nftAddress */\n      dup3\n        /* \"vinci-protocol/contracts/PtoPListTable.sol\":7035:7075  ERC165 nftInterface = ERC165(nftAddress) */\n      swap1\n      pop\n        /* \"vinci-protocol/contracts/PtoPListTable.sol\":7090:7102  nftInterface */\n      dup1\n        /* \"vinci-protocol/contracts/PtoPListTable.sol\":7090:7120  nftInterface.supportsInterface */\n      0xffffffffffffffffffffffffffffffffffffffff\n      and\n      0x01ffc9a7\n        /* \"vinci-protocol/contracts/PtoPListTable.sol\":7121:7146  type(IERC721).interfaceId */\n      0x80ac58cd00000000000000000000000000000000000000000000000000000000\n        /* \"vinci-protocol/contracts/PtoPListTable.sol\":7090:7147  nftInterface.supportsInterface(type(IERC721).interfaceId) */\n      mload(0x40)\n      dup3\n      0xffffffff\n      and\n      0xe0\n      shl\n      dup2\n      mstore\n      0x04\n      add\n      tag_173\n      swap2\n      swap1\n      tag_174\n      jump\t// in\n    tag_173:\n      0x20\n      mload(0x40)\n      dup1\n      dup4\n      sub\n      dup2\n      dup7\n      gas\n      staticcall\n      iszero\n      dup1\n      iszero\n      tag_176\n      jumpi\n      returndatasize\n      0x00\n      dup1\n      returndatacopy\n      revert(0x00, returndatasize)\n    tag_176:\n      pop\n      pop\n      pop\n      pop\n      mload(0x40)\n      returndatasize\n      not(0x1f)\n      0x1f\n      dup3\n      add\n      and\n      dup3\n      add\n      dup1\n      0x40\n      mstore\n      pop\n      dup2\n      add\n      swap1\n      tag_177\n      swap2\n      swap1\n      tag_146\n      jump\t// in\n    tag_177:\n        /* \"vinci-protocol/contracts/PtoPListTable.sol\":7086:7370  if (nftInterface.supportsInterface(type(IERC721).interfaceId)) {... */\n      iszero\n      tag_178\n      jumpi\n        /* \"vinci-protocol/contracts/PtoPListTable.sol\":7171:7185  NftType.ERC721 */\n      0x00\n        /* \"vinci-protocol/contracts/PtoPListTable.sol\":7164:7185  return NftType.ERC721 */\n      swap2\n      pop\n      pop\n      jump(tag_172)\n        /* \"vinci-protocol/contracts/PtoPListTable.sol\":7086:7370  if (nftInterface.supportsInterface(type(IERC721).interfaceId)) {... */\n    tag_178:\n        /* \"vinci-protocol/contracts/PtoPListTable.sol\":7207:7219  nftInterface */\n      dup1\n        /* \"vinci-protocol/contracts/PtoPListTable.sol\":7207:7237  nftInterface.supportsInterface */\n      0xffffffffffffffffffffffffffffffffffffffff\n      and\n      0x01ffc9a7\n        /* \"vinci-protocol/contracts/PtoPListTable.sol\":7238:7264  type(IERC1155).interfaceId */\n      0xd9b67a2600000000000000000000000000000000000000000000000000000000\n        /* \"vinci-protocol/contracts/PtoPListTable.sol\":7207:7265  nftInterface.supportsInterface(type(IERC1155).interfaceId) */\n      mload(0x40)\n      dup3\n      0xffffffff\n      and\n      0xe0\n      shl\n      dup2\n      mstore\n      0x04\n      add\n      tag_180\n      swap2\n      swap1\n      tag_174\n      jump\t// in\n    tag_180:\n      0x20\n      mload(0x40)\n      dup1\n      dup4\n      sub\n      dup2\n      dup7\n      gas\n      staticcall\n      iszero\n      dup1\n      iszero\n      tag_182\n      jumpi\n      returndatasize\n      0x00\n      dup1\n      returndatacopy\n      revert(0x00, returndatasize)\n    tag_182:\n      pop\n      pop\n      pop\n      pop\n      mload(0x40)\n      returndatasize\n      not(0x1f)\n      0x1f\n      dup3\n      add\n      and\n      dup3\n      add\n      dup1\n      0x40\n      mstore\n      pop\n      dup2\n      add\n      swap1\n      tag_183\n      swap2\n      swap1\n      tag_146\n      jump\t// in\n    tag_183:\n        /* \"vinci-protocol/contracts/PtoPListTable.sol\":7203:7370  if (nftInterface.supportsInterface(type(IERC1155).interfaceId)) {... */\n      iszero\n      tag_184\n      jumpi\n        /* \"vinci-protocol/contracts/PtoPListTable.sol\":7289:7304  NftType.ERC1155 */\n      0x01\n        /* \"vinci-protocol/contracts/PtoPListTable.sol\":7282:7304  return NftType.ERC1155 */\n      swap2\n      pop\n      pop\n      jump(tag_172)\n        /* \"vinci-protocol/contracts/PtoPListTable.sol\":7203:7370  if (nftInterface.supportsInterface(type(IERC1155).interfaceId)) {... */\n    tag_184:\n        /* \"vinci-protocol/contracts/PtoPListTable.sol\":7344:7358  NftType.Others */\n      0x02\n        /* \"vinci-protocol/contracts/PtoPListTable.sol\":7337:7358  return NftType.Others */\n      swap2\n      pop\n      pop\n        /* \"vinci-protocol/contracts/PtoPListTable.sol\":6953:7377  function identifyNFT(address nftAddress) public view returns (NftType) {... */\n    tag_172:\n      swap2\n      swap1\n      pop\n      jump\t// out\n        /* \"vinci-protocol/contracts/PtoPListTable.sol\":546:565  IERC20 public token */\n    tag_62:\n      0x00\n      dup1\n      sload\n      swap1\n      0x0100\n      exp\n      swap1\n      div\n      0xffffffffffffffffffffffffffffffffffffffff\n      and\n      dup2\n      jump\t// out\n        /* \"vinci-protocol/contracts/library/LinkedList.sol\":5406:5817  function getNode(... */\n    tag_80:\n        /* \"vinci-protocol/contracts/library/LinkedList.sol\":5522:5537  UintNode memory */\n      tag_186\n      tag_75\n      jump\t// in\n    tag_186:\n        /* \"vinci-protocol/contracts/library/LinkedList.sol\":5550:5566  Node memory node */\n      0x00\n        /* \"vinci-protocol/contracts/library/LinkedList.sol\":5569:5620  _getNode(_linkedList._inner, _uintToBytes32(_node)) */\n      tag_188\n        /* \"vinci-protocol/contracts/library/LinkedList.sol\":5578:5589  _linkedList */\n      dup5\n        /* \"vinci-protocol/contracts/library/LinkedList.sol\":5578:5596  _linkedList._inner */\n      0x00\n      add\n        /* \"vinci-protocol/contracts/library/LinkedList.sol\":5598:5619  _uintToBytes32(_node) */\n      tag_189\n        /* \"vinci-protocol/contracts/library/LinkedList.sol\":5613:5618  _node */\n      dup6\n        /* \"vinci-protocol/contracts/library/LinkedList.sol\":5598:5612  _uintToBytes32 */\n      tag_190\n        /* \"vinci-protocol/contracts/library/LinkedList.sol\":5598:5619  _uintToBytes32(_node) */\n      jump\t// in\n    tag_189:\n        /* \"vinci-protocol/contracts/library/LinkedList.sol\":5569:5577  _getNode */\n      tag_191\n        /* \"vinci-protocol/contracts/library/LinkedList.sol\":5569:5620  _getNode(_linkedList._inner, _uintToBytes32(_node)) */\n      jump\t// in\n    tag_188:\n        /* \"vinci-protocol/contracts/library/LinkedList.sol\":5550:5620  Node memory node = _getNode(_linkedList._inner, _uintToBytes32(_node)) */\n      swap1\n      pop\n        /* \"vinci-protocol/contracts/library/LinkedList.sol\":5651:5809  UintNode(... */\n      mload(0x40)\n      dup1\n      0x60\n      add\n      0x40\n      mstore\n      dup1\n        /* \"vinci-protocol/contracts/library/LinkedList.sol\":5678:5706  _bytes32ToUint(node.current) */\n      tag_192\n        /* \"vinci-protocol/contracts/library/LinkedList.sol\":5693:5697  node */\n      dup4\n        /* \"vinci-protocol/contracts/library/LinkedList.sol\":5693:5705  node.current */\n      0x00\n      add\n      mload\n        /* \"vinci-protocol/contracts/library/LinkedList.sol\":5678:5692  _bytes32ToUint */\n      tag_193\n        /* \"vinci-protocol/contracts/library/LinkedList.sol\":5678:5706  _bytes32ToUint(node.current) */\n      jump\t// in\n    tag_192:\n        /* \"vinci-protocol/contracts/library/LinkedList.sol\":5651:5809  UintNode(... */\n      dup2\n      mstore\n      0x20\n      add\n        /* \"vinci-protocol/contracts/library/LinkedList.sol\":5725:5750  _bytes32ToUint(node.prev) */\n      tag_194\n        /* \"vinci-protocol/contracts/library/LinkedList.sol\":5740:5744  node */\n      dup4\n        /* \"vinci-protocol/contracts/library/LinkedList.sol\":5740:5749  node.prev */\n      0x20\n      add\n      mload\n        /* \"vinci-protocol/contracts/library/LinkedList.sol\":5725:5739  _bytes32ToUint */\n      tag_193\n        /* \"vinci-protocol/contracts/library/LinkedList.sol\":5725:5750  _bytes32ToUint(node.prev) */\n      jump\t// in\n    tag_194:\n        /* \"vinci-protocol/contracts/library/LinkedList.sol\":5651:5809  UintNode(... */\n      dup2\n      mstore\n      0x20\n      add\n        /* \"vinci-protocol/contracts/library/LinkedList.sol\":5769:5794  _bytes32ToUint(node.next) */\n      tag_195\n        /* \"vinci-protocol/contracts/library/LinkedList.sol\":5784:5788  node */\n      dup4\n        /* \"vinci-protocol/contracts/library/LinkedList.sol\":5784:5793  node.next */\n      0x40\n      add\n      mload\n        /* \"vinci-protocol/contracts/library/LinkedList.sol\":5769:5783  _bytes32ToUint */\n      tag_193\n        /* \"vinci-protocol/contracts/library/LinkedList.sol\":5769:5794  _bytes32ToUint(node.next) */\n      jump\t// in\n    tag_195:\n        /* \"vinci-protocol/contracts/library/LinkedList.sol\":5651:5809  UintNode(... */\n      dup2\n      mstore\n      pop\n        /* \"vinci-protocol/contracts/library/LinkedList.sol\":5631:5809  return... */\n      swap2\n      pop\n      pop\n        /* \"vinci-protocol/contracts/library/LinkedList.sol\":5406:5817  function getNode(... */\n      swap3\n      swap2\n      pop\n      pop\n      jump\t// out\n        /* \"vinci-protocol/contracts/PtoPListTable.sol\":6251:6906  function nftTransfer(... */\n    tag_102:\n        /* \"vinci-protocol/contracts/PtoPListTable.sol\":6499:6513  NftType.ERC721 */\n      0x00\n        /* \"vinci-protocol/contracts/PtoPListTable.sol\":6439:6513  orderList[orderIndex[_nftAddress][_tokenId]].nft.nftType == NftType.ERC721 */\n      0x02\n      dup2\n      gt\n      iszero\n      tag_197\n      jumpi\n      tag_198\n      tag_83\n      jump\t// in\n    tag_198:\n    tag_197:\n        /* \"vinci-protocol/contracts/PtoPListTable.sol\":6439:6448  orderList */\n      0x04\n        /* \"vinci-protocol/contracts/PtoPListTable.sol\":6439:6483  orderList[orderIndex[_nftAddress][_tokenId]] */\n      0x00\n        /* \"vinci-protocol/contracts/PtoPListTable.sol\":6449:6459  orderIndex */\n      0x03\n        /* \"vinci-protocol/contracts/PtoPListTable.sol\":6449:6472  orderIndex[_nftAddress] */\n      0x00\n        /* \"vinci-protocol/contracts/PtoPListTable.sol\":6460:6471  _nftAddress */\n      dup10\n        /* \"vinci-protocol/contracts/PtoPListTable.sol\":6449:6472  orderIndex[_nftAddress] */\n      0xffffffffffffffffffffffffffffffffffffffff\n      and\n      0xffffffffffffffffffffffffffffffffffffffff\n      and\n      dup2\n      mstore\n      0x20\n      add\n      swap1\n      dup2\n      mstore\n      0x20\n      add\n      0x00\n      keccak256\n        /* \"vinci-protocol/contracts/PtoPListTable.sol\":6449:6482  orderIndex[_nftAddress][_tokenId] */\n      0x00\n        /* \"vinci-protocol/contracts/PtoPListTable.sol\":6473:6481  _tokenId */\n      dup9\n        /* \"vinci-protocol/contracts/PtoPListTable.sol\":6449:6482  orderIndex[_nftAddress][_tokenId] */\n      dup2\n      mstore\n      0x20\n      add\n      swap1\n      dup2\n      mstore\n      0x20\n      add\n      0x00\n      keccak256\n      sload\n        /* \"vinci-protocol/contracts/PtoPListTable.sol\":6439:6483  orderList[orderIndex[_nftAddress][_tokenId]] */\n      dup2\n      mstore\n      0x20\n      add\n      swap1\n      dup2\n      mstore\n      0x20\n      add\n      0x00\n      keccak256\n        /* \"vinci-protocol/contracts/PtoPListTable.sol\":6439:6487  orderList[orderIndex[_nftAddress][_tokenId]].nft */\n      0x06\n      add\n        /* \"vinci-protocol/contracts/PtoPListTable.sol\":6439:6495  orderList[orderIndex[_nftAddress][_tokenId]].nft.nftType */\n      0x02\n      add\n      0x00\n      swap1\n      sload\n      swap1\n      0x0100\n      exp\n      swap1\n      div\n      0xff\n      and\n        /* \"vinci-protocol/contracts/PtoPListTable.sol\":6439:6513  orderList[orderIndex[_nftAddress][_tokenId]].nft.nftType == NftType.ERC721 */\n      0x02\n      dup2\n      gt\n      iszero\n      tag_199\n      jumpi\n      tag_200\n      tag_83\n      jump\t// in\n    tag_200:\n    tag_199:\n      sub\n        /* \"vinci-protocol/contracts/PtoPListTable.sol\":6436:6899  if(orderList[orderIndex[_nftAddress][_tokenId]].nft.nftType == NftType.ERC721){... */\n      tag_201\n      jumpi\n        /* \"vinci-protocol/contracts/PtoPListTable.sol\":6529:6540  IERC721 Nft */\n      0x00\n        /* \"vinci-protocol/contracts/PtoPListTable.sol\":6551:6562  _nftAddress */\n      dup6\n        /* \"vinci-protocol/contracts/PtoPListTable.sol\":6529:6563  IERC721 Nft = IERC721(_nftAddress) */\n      swap1\n      pop\n        /* \"vinci-protocol/contracts/PtoPListTable.sol\":6578:6581  Nft */\n      dup1\n        /* \"vinci-protocol/contracts/PtoPListTable.sol\":6578:6594  Nft.transferFrom */\n      0xffffffffffffffffffffffffffffffffffffffff\n      and\n      0x23b872dd\n        /* \"vinci-protocol/contracts/PtoPListTable.sol\":6595:6602  _sender */\n      dup6\n        /* \"vinci-protocol/contracts/PtoPListTable.sol\":6604:6614  _recipient */\n      dup6\n        /* \"vinci-protocol/contracts/PtoPListTable.sol\":6616:6624  _tokenId */\n      dup9\n        /* \"vinci-protocol/contracts/PtoPListTable.sol\":6578:6625  Nft.transferFrom(_sender, _recipient, _tokenId) */\n      mload(0x40)\n      dup5\n      0xffffffff\n      and\n      0xe0\n      shl\n      dup2\n      mstore\n      0x04\n      add\n      tag_202\n      swap4\n      swap3\n      swap2\n      swap1\n      tag_142\n      jump\t// in\n    tag_202:\n      0x00\n      mload(0x40)\n      dup1\n      dup4\n      sub\n      dup2\n      0x00\n      dup8\n      dup1\n      extcodesize\n      iszero\n      dup1\n      iszero\n      tag_203\n      jumpi\n      0x00\n      dup1\n      revert\n    tag_203:\n      pop\n      gas\n      call\n      iszero\n      dup1\n      iszero\n      tag_205\n      jumpi\n      returndatasize\n      0x00\n      dup1\n      returndatacopy\n      revert(0x00, returndatasize)\n    tag_205:\n      pop\n      pop\n      pop\n      pop\n        /* \"vinci-protocol/contracts/PtoPListTable.sol\":6514:6637  {... */\n      pop\n        /* \"vinci-protocol/contracts/PtoPListTable.sol\":6436:6899  if(orderList[orderIndex[_nftAddress][_tokenId]].nft.nftType == NftType.ERC721){... */\n      jump(tag_206)\n    tag_201:\n        /* \"vinci-protocol/contracts/PtoPListTable.sol\":6705:6720  NftType.ERC1155 */\n      0x01\n        /* \"vinci-protocol/contracts/PtoPListTable.sol\":6645:6720  orderList[orderIndex[_nftAddress][_tokenId]].nft.nftType == NftType.ERC1155 */\n      0x02\n      dup2\n      gt\n      iszero\n      tag_207\n      jumpi\n      tag_208\n      tag_83\n      jump\t// in\n    tag_208:\n    tag_207:\n        /* \"vinci-protocol/contracts/PtoPListTable.sol\":6645:6654  orderList */\n      0x04\n        /* \"vinci-protocol/contracts/PtoPListTable.sol\":6645:6689  orderList[orderIndex[_nftAddress][_tokenId]] */\n      0x00\n        /* \"vinci-protocol/contracts/PtoPListTable.sol\":6655:6665  orderIndex */\n      0x03\n        /* \"vinci-protocol/contracts/PtoPListTable.sol\":6655:6678  orderIndex[_nftAddress] */\n      0x00\n        /* \"vinci-protocol/contracts/PtoPListTable.sol\":6666:6677  _nftAddress */\n      dup10\n        /* \"vinci-protocol/contracts/PtoPListTable.sol\":6655:6678  orderIndex[_nftAddress] */\n      0xffffffffffffffffffffffffffffffffffffffff\n      and\n      0xffffffffffffffffffffffffffffffffffffffff\n      and\n      dup2\n      mstore\n      0x20\n      add\n      swap1\n      dup2\n      mstore\n      0x20\n      add\n      0x00\n      keccak256\n        /* \"vinci-protocol/contracts/PtoPListTable.sol\":6655:6688  orderIndex[_nftAddress][_tokenId] */\n      0x00\n        /* \"vinci-protocol/contracts/PtoPListTable.sol\":6679:6687  _tokenId */\n      dup9\n        /* \"vinci-protocol/contracts/PtoPListTable.sol\":6655:6688  orderIndex[_nftAddress][_tokenId] */\n      dup2\n      mstore\n      0x20\n      add\n      swap1\n      dup2\n      mstore\n      0x20\n      add\n      0x00\n      keccak256\n      sload\n        /* \"vinci-protocol/contracts/PtoPListTable.sol\":6645:6689  orderList[orderIndex[_nftAddress][_tokenId]] */\n      dup2\n      mstore\n      0x20\n      add\n      swap1\n      dup2\n      mstore\n      0x20\n      add\n      0x00\n      keccak256\n        /* \"vinci-protocol/contracts/PtoPListTable.sol\":6645:6693  orderList[orderIndex[_nftAddress][_tokenId]].nft */\n      0x06\n      add\n        /* \"vinci-protocol/contracts/PtoPListTable.sol\":6645:6701  orderList[orderIndex[_nftAddress][_tokenId]].nft.nftType */\n      0x02\n      add\n      0x00\n      swap1\n      sload\n      swap1\n      0x0100\n      exp\n      swap1\n      div\n      0xff\n      and\n        /* \"vinci-protocol/contracts/PtoPListTable.sol\":6645:6720  orderList[orderIndex[_nftAddress][_tokenId]].nft.nftType == NftType.ERC1155 */\n      0x02\n      dup2\n      gt\n      iszero\n      tag_209\n      jumpi\n      tag_210\n      tag_83\n      jump\t// in\n    tag_210:\n    tag_209:\n      sub\n        /* \"vinci-protocol/contracts/PtoPListTable.sol\":6642:6899  if(orderList[orderIndex[_nftAddress][_tokenId]].nft.nftType == NftType.ERC1155){... */\n      tag_211\n      jumpi\n        /* \"vinci-protocol/contracts/PtoPListTable.sol\":6736:6748  IERC1155 Nft */\n      0x00\n        /* \"vinci-protocol/contracts/PtoPListTable.sol\":6760:6771  _nftAddress */\n      dup6\n        /* \"vinci-protocol/contracts/PtoPListTable.sol\":6736:6772  IERC1155 Nft = IERC1155(_nftAddress) */\n      swap1\n      pop\n        /* \"vinci-protocol/contracts/PtoPListTable.sol\":6787:6790  Nft */\n      dup1\n        /* \"vinci-protocol/contracts/PtoPListTable.sol\":6787:6807  Nft.safeTransferFrom */\n      0xffffffffffffffffffffffffffffffffffffffff\n      and\n      0xf242432a\n        /* \"vinci-protocol/contracts/PtoPListTable.sol\":6808:6815  _sender */\n      dup6\n        /* \"vinci-protocol/contracts/PtoPListTable.sol\":6817:6827  _recipient */\n      dup6\n        /* \"vinci-protocol/contracts/PtoPListTable.sol\":6829:6837  _tokenId */\n      dup9\n        /* \"vinci-protocol/contracts/PtoPListTable.sol\":6838:6844  amount */\n      dup7\n        /* \"vinci-protocol/contracts/PtoPListTable.sol\":6787:6848  Nft.safeTransferFrom(_sender, _recipient, _tokenId,amount,\"\") */\n      mload(0x40)\n      dup6\n      0xffffffff\n      and\n      0xe0\n      shl\n      dup2\n      mstore\n      0x04\n      add\n      tag_212\n      swap5\n      swap4\n      swap3\n      swap2\n      swap1\n      tag_213\n      jump\t// in\n    tag_212:\n      0x00\n      mload(0x40)\n      dup1\n      dup4\n      sub\n      dup2\n      0x00\n      dup8\n      dup1\n      extcodesize\n      iszero\n      dup1\n      iszero\n      tag_214\n      jumpi\n      0x00\n      dup1\n      revert\n    tag_214:\n      pop\n      gas\n      call\n      iszero\n      dup1\n      iszero\n      tag_216\n      jumpi\n      returndatasize\n      0x00\n      dup1\n      returndatacopy\n      revert(0x00, returndatasize)\n    tag_216:\n      pop\n      pop\n      pop\n      pop\n        /* \"vinci-protocol/contracts/PtoPListTable.sol\":6721:6860  {... */\n      pop\n        /* \"vinci-protocol/contracts/PtoPListTable.sol\":6642:6899  if(orderList[orderIndex[_nftAddress][_tokenId]].nft.nftType == NftType.ERC1155){... */\n      jump(tag_217)\n    tag_211:\n        /* \"vinci-protocol/contracts/PtoPListTable.sol\":6879:6887  revert() */\n      0x00\n      dup1\n      revert\n        /* \"vinci-protocol/contracts/PtoPListTable.sol\":6642:6899  if(orderList[orderIndex[_nftAddress][_tokenId]].nft.nftType == NftType.ERC1155){... */\n    tag_217:\n        /* \"vinci-protocol/contracts/PtoPListTable.sol\":6436:6899  if(orderList[orderIndex[_nftAddress][_tokenId]].nft.nftType == NftType.ERC721){... */\n    tag_206:\n        /* \"vinci-protocol/contracts/PtoPListTable.sol\":6251:6906  function nftTransfer(... */\n      pop\n      pop\n      pop\n      pop\n      pop\n      jump\t// out\n        /* \"vinci-protocol/contracts/library/LinkedList.sol\":5202:5398  function remove(... */\n    tag_108:\n        /* \"vinci-protocol/contracts/library/LinkedList.sol\":5312:5316  bool */\n      0x00\n        /* \"vinci-protocol/contracts/library/LinkedList.sol\":5336:5390  _removeNode(_linkedList._inner, _uintToBytes32(_node)) */\n      tag_219\n        /* \"vinci-protocol/contracts/library/LinkedList.sol\":5348:5359  _linkedList */\n      dup4\n        /* \"vinci-protocol/contracts/library/LinkedList.sol\":5348:5366  _linkedList._inner */\n      0x00\n      add\n        /* \"vinci-protocol/contracts/library/LinkedList.sol\":5368:5389  _uintToBytes32(_node) */\n      tag_220\n        /* \"vinci-protocol/contracts/library/LinkedList.sol\":5383:5388  _node */\n      dup5\n        /* \"vinci-protocol/contracts/library/LinkedList.sol\":5368:5382  _uintToBytes32 */\n      tag_190\n        /* \"vinci-protocol/contracts/library/LinkedList.sol\":5368:5389  _uintToBytes32(_node) */\n      jump\t// in\n    tag_220:\n        /* \"vinci-protocol/contracts/library/LinkedList.sol\":5336:5347  _removeNode */\n      tag_221\n        /* \"vinci-protocol/contracts/library/LinkedList.sol\":5336:5390  _removeNode(_linkedList._inner, _uintToBytes32(_node)) */\n      jump\t// in\n    tag_219:\n        /* \"vinci-protocol/contracts/library/LinkedList.sol\":5329:5390  return _removeNode(_linkedList._inner, _uintToBytes32(_node)) */\n      swap1\n      pop\n        /* \"vinci-protocol/contracts/library/LinkedList.sol\":5202:5398  function remove(... */\n      swap3\n      swap2\n      pop\n      pop\n      jump\t// out\n        /* \"vinci-protocol/contracts/library/LinkedList.sol\":5008:5194  function add(... */\n    tag_123:\n        /* \"vinci-protocol/contracts/library/LinkedList.sol\":5115:5119  bool */\n      0x00\n        /* \"vinci-protocol/contracts/library/LinkedList.sol\":5139:5186  _add(_linkedList._inner, _uintToBytes32(_node)) */\n      tag_223\n        /* \"vinci-protocol/contracts/library/LinkedList.sol\":5144:5155  _linkedList */\n      dup4\n        /* \"vinci-protocol/contracts/library/LinkedList.sol\":5144:5162  _linkedList._inner */\n      0x00\n      add\n        /* \"vinci-protocol/contracts/library/LinkedList.sol\":5164:5185  _uintToBytes32(_node) */\n      tag_224\n        /* \"vinci-protocol/contracts/library/LinkedList.sol\":5179:5184  _node */\n      dup5\n        /* \"vinci-protocol/contracts/library/LinkedList.sol\":5164:5178  _uintToBytes32 */\n      tag_190\n        /* \"vinci-protocol/contracts/library/LinkedList.sol\":5164:5185  _uintToBytes32(_node) */\n      jump\t// in\n    tag_224:\n        /* \"vinci-protocol/contracts/library/LinkedList.sol\":5139:5143  _add */\n      tag_225\n        /* \"vinci-protocol/contracts/library/LinkedList.sol\":5139:5186  _add(_linkedList._inner, _uintToBytes32(_node)) */\n      jump\t// in\n    tag_223:\n        /* \"vinci-protocol/contracts/library/LinkedList.sol\":5132:5186  return _add(_linkedList._inner, _uintToBytes32(_node)) */\n      swap1\n      pop\n        /* \"vinci-protocol/contracts/library/LinkedList.sol\":5008:5194  function add(... */\n      swap3\n      swap2\n      pop\n      pop\n      jump\t// out\n        /* \"vinci-protocol/contracts/PtoPListTable.sol\":4881:4982  function getBorrowPrice(uint256 price) internal pure returns(uint256) {... */\n    tag_154:\n        /* \"vinci-protocol/contracts/PtoPListTable.sol\":4942:4949  uint256 */\n      0x00\n        /* \"vinci-protocol/contracts/PtoPListTable.sol\":4969:4974  price */\n      dup2\n        /* \"vinci-protocol/contracts/PtoPListTable.sol\":4962:4974  return price */\n      swap1\n      pop\n        /* \"vinci-protocol/contracts/PtoPListTable.sol\":4881:4982  function getBorrowPrice(uint256 price) internal pure returns(uint256) {... */\n      swap2\n      swap1\n      pop\n      jump\t// out\n        /* \"vinci-protocol/contracts/library/LinkedList.sol\":4889:5000  function _uintToBytes32(uint256 value) internal pure returns (bytes32) {... */\n    tag_190:\n        /* \"vinci-protocol/contracts/library/LinkedList.sol\":4951:4958  bytes32 */\n      0x00\n        /* \"vinci-protocol/contracts/library/LinkedList.sol\":4986:4991  value */\n      dup2\n        /* \"vinci-protocol/contracts/library/LinkedList.sol\":4978:4992  bytes32(value) */\n      0x00\n      shl\n        /* \"vinci-protocol/contracts/library/LinkedList.sol\":4971:4992  return bytes32(value) */\n      swap1\n      pop\n        /* \"vinci-protocol/contracts/library/LinkedList.sol\":4889:5000  function _uintToBytes32(uint256 value) internal pure returns (bytes32) {... */\n      swap2\n      swap1\n      pop\n      jump\t// out\n        /* \"vinci-protocol/contracts/library/LinkedList.sol\":1295:1469  function _getNode(... */\n    tag_191:\n        /* \"vinci-protocol/contracts/library/LinkedList.sol\":1407:1418  Node memory */\n      tag_228\n      tag_229\n      jump\t// in\n    tag_228:\n        /* \"vinci-protocol/contracts/library/LinkedList.sol\":1438:1449  _linkedList */\n      dup3\n        /* \"vinci-protocol/contracts/library/LinkedList.sol\":1438:1454  _linkedList.list */\n      0x00\n      add\n        /* \"vinci-protocol/contracts/library/LinkedList.sol\":1438:1461  _linkedList.list[_node] */\n      0x00\n        /* \"vinci-protocol/contracts/library/LinkedList.sol\":1455:1460  _node */\n      dup4\n        /* \"vinci-protocol/contracts/library/LinkedList.sol\":1438:1461  _linkedList.list[_node] */\n      dup2\n      mstore\n      0x20\n      add\n      swap1\n      dup2\n      mstore\n      0x20\n      add\n      0x00\n      keccak256\n        /* \"vinci-protocol/contracts/library/LinkedList.sol\":1431:1461  return _linkedList.list[_node] */\n      mload(0x40)\n      dup1\n      0x60\n      add\n      0x40\n      mstore\n      swap1\n      dup2\n      0x00\n      dup3\n      add\n      sload\n      dup2\n      mstore\n      0x20\n      add\n      0x01\n      dup3\n      add\n      sload\n      dup2\n      mstore\n      0x20\n      add\n      0x02\n      dup3\n      add\n      sload\n      dup2\n      mstore\n      pop\n      pop\n      swap1\n      pop\n        /* \"vinci-protocol/contracts/library/LinkedList.sol\":1295:1469  function _getNode(... */\n      swap3\n      swap2\n      pop\n      pop\n      jump\t// out\n        /* \"vinci-protocol/contracts/library/LinkedList.sol\":4768:4881  function _bytes32ToUint(bytes32 _value) internal pure returns (uint256) {... */\n    tag_193:\n        /* \"vinci-protocol/contracts/library/LinkedList.sol\":4831:4838  uint256 */\n      0x00\n        /* \"vinci-protocol/contracts/library/LinkedList.sol\":4866:4872  _value */\n      dup2\n        /* \"vinci-protocol/contracts/library/LinkedList.sol\":4858:4873  uint256(_value) */\n      0x00\n      shr\n        /* \"vinci-protocol/contracts/library/LinkedList.sol\":4851:4873  return uint256(_value) */\n      swap1\n      pop\n        /* \"vinci-protocol/contracts/library/LinkedList.sol\":4768:4881  function _bytes32ToUint(bytes32 _value) internal pure returns (uint256) {... */\n      swap2\n      swap1\n      pop\n      jump\t// out\n        /* \"vinci-protocol/contracts/library/LinkedList.sol\":1477:2265  function _removeNode(... */\n    tag_221:\n        /* \"vinci-protocol/contracts/library/LinkedList.sol\":1588:1592  bool */\n      0x00\n        /* \"vinci-protocol/contracts/library/LinkedList.sol\":1610:1642  _isNodeExist(_linkedList, _node) */\n      tag_233\n        /* \"vinci-protocol/contracts/library/LinkedList.sol\":1623:1634  _linkedList */\n      dup4\n        /* \"vinci-protocol/contracts/library/LinkedList.sol\":1636:1641  _node */\n      dup4\n        /* \"vinci-protocol/contracts/library/LinkedList.sol\":1610:1622  _isNodeExist */\n      tag_234\n        /* \"vinci-protocol/contracts/library/LinkedList.sol\":1610:1642  _isNodeExist(_linkedList, _node) */\n      jump\t// in\n    tag_233:\n        /* \"vinci-protocol/contracts/library/LinkedList.sol\":1605:2236  if (!_isNodeExist(_linkedList, _node)) {... */\n      tag_235\n      jumpi\n        /* \"vinci-protocol/contracts/library/LinkedList.sol\":1666:1671  false */\n      0x00\n        /* \"vinci-protocol/contracts/library/LinkedList.sol\":1659:1671  return false */\n      swap1\n      pop\n      jump(tag_232)\n        /* \"vinci-protocol/contracts/library/LinkedList.sol\":1605:2236  if (!_isNodeExist(_linkedList, _node)) {... */\n    tag_235:\n        /* \"vinci-protocol/contracts/library/LinkedList.sol\":1704:1725  Node storage prevNode */\n      0x00\n        /* \"vinci-protocol/contracts/library/LinkedList.sol\":1728:1739  _linkedList */\n      dup4\n        /* \"vinci-protocol/contracts/library/LinkedList.sol\":1728:1744  _linkedList.list */\n      0x00\n      add\n        /* \"vinci-protocol/contracts/library/LinkedList.sol\":1728:1806  _linkedList.list[... */\n      0x00\n        /* \"vinci-protocol/contracts/library/LinkedList.sol\":1763:1774  _linkedList */\n      dup6\n        /* \"vinci-protocol/contracts/library/LinkedList.sol\":1763:1779  _linkedList.list */\n      0x00\n      add\n        /* \"vinci-protocol/contracts/library/LinkedList.sol\":1763:1786  _linkedList.list[_node] */\n      0x00\n        /* \"vinci-protocol/contracts/library/LinkedList.sol\":1780:1785  _node */\n      dup7\n        /* \"vinci-protocol/contracts/library/LinkedList.sol\":1763:1786  _linkedList.list[_node] */\n      dup2\n      mstore\n      0x20\n      add\n      swap1\n      dup2\n      mstore\n      0x20\n      add\n      0x00\n      keccak256\n        /* \"vinci-protocol/contracts/library/LinkedList.sol\":1763:1791  _linkedList.list[_node].prev */\n      0x01\n      add\n      sload\n        /* \"vinci-protocol/contracts/library/LinkedList.sol\":1728:1806  _linkedList.list[... */\n      dup2\n      mstore\n      0x20\n      add\n      swap1\n      dup2\n      mstore\n      0x20\n      add\n      0x00\n      keccak256\n        /* \"vinci-protocol/contracts/library/LinkedList.sol\":1704:1806  Node storage prevNode = _linkedList.list[... */\n      swap1\n      pop\n        /* \"vinci-protocol/contracts/library/LinkedList.sol\":1821:1844  Node memory currentNode */\n      0x00\n        /* \"vinci-protocol/contracts/library/LinkedList.sol\":1847:1858  _linkedList */\n      dup5\n        /* \"vinci-protocol/contracts/library/LinkedList.sol\":1847:1863  _linkedList.list */\n      0x00\n      add\n        /* \"vinci-protocol/contracts/library/LinkedList.sol\":1847:1870  _linkedList.list[_node] */\n      0x00\n        /* \"vinci-protocol/contracts/library/LinkedList.sol\":1864:1869  _node */\n      dup6\n        /* \"vinci-protocol/contracts/library/LinkedList.sol\":1847:1870  _linkedList.list[_node] */\n      dup2\n      mstore\n      0x20\n      add\n      swap1\n      dup2\n      mstore\n      0x20\n      add\n      0x00\n      keccak256\n        /* \"vinci-protocol/contracts/library/LinkedList.sol\":1821:1870  Node memory currentNode = _linkedList.list[_node] */\n      mload(0x40)\n      dup1\n      0x60\n      add\n      0x40\n      mstore\n      swap1\n      dup2\n      0x00\n      dup3\n      add\n      sload\n      dup2\n      mstore\n      0x20\n      add\n      0x01\n      dup3\n      add\n      sload\n      dup2\n      mstore\n      0x20\n      add\n      0x02\n      dup3\n      add\n      sload\n      dup2\n      mstore\n      pop\n      pop\n      swap1\n      pop\n        /* \"vinci-protocol/contracts/library/LinkedList.sol\":1885:1897  bytes32 next */\n      0x00\n        /* \"vinci-protocol/contracts/library/LinkedList.sol\":1900:1911  currentNode */\n      dup2\n        /* \"vinci-protocol/contracts/library/LinkedList.sol\":1900:1916  currentNode.next */\n      0x40\n      add\n      mload\n        /* \"vinci-protocol/contracts/library/LinkedList.sol\":1885:1916  bytes32 next = currentNode.next */\n      swap1\n      pop\n        /* \"vinci-protocol/contracts/library/LinkedList.sol\":1931:1952  Node storage nextNode */\n      0x00\n        /* \"vinci-protocol/contracts/library/LinkedList.sol\":1955:1966  _linkedList */\n      dup7\n        /* \"vinci-protocol/contracts/library/LinkedList.sol\":1955:1971  _linkedList.list */\n      0x00\n      add\n        /* \"vinci-protocol/contracts/library/LinkedList.sol\":1955:2033  _linkedList.list[... */\n      0x00\n        /* \"vinci-protocol/contracts/library/LinkedList.sol\":1990:2001  _linkedList */\n      dup9\n        /* \"vinci-protocol/contracts/library/LinkedList.sol\":1990:2006  _linkedList.list */\n      0x00\n      add\n        /* \"vinci-protocol/contracts/library/LinkedList.sol\":1990:2013  _linkedList.list[_node] */\n      0x00\n        /* \"vinci-protocol/contracts/library/LinkedList.sol\":2007:2012  _node */\n      dup10\n        /* \"vinci-protocol/contracts/library/LinkedList.sol\":1990:2013  _linkedList.list[_node] */\n      dup2\n      mstore\n      0x20\n      add\n      swap1\n      dup2\n      mstore\n      0x20\n      add\n      0x00\n      keccak256\n        /* \"vinci-protocol/contracts/library/LinkedList.sol\":1990:2018  _linkedList.list[_node].next */\n      0x02\n      add\n      sload\n        /* \"vinci-protocol/contracts/library/LinkedList.sol\":1955:2033  _linkedList.list[... */\n      dup2\n      mstore\n      0x20\n      add\n      swap1\n      dup2\n      mstore\n      0x20\n      add\n      0x00\n      keccak256\n        /* \"vinci-protocol/contracts/library/LinkedList.sol\":1931:2033  Node storage nextNode = _linkedList.list[... */\n      swap1\n      pop\n        /* \"vinci-protocol/contracts/library/LinkedList.sol\":128:129  0 */\n      0x00\n        /* \"vinci-protocol/contracts/library/LinkedList.sol\":120:130  bytes32(0) */\n      dup1\n      shl\n        /* \"vinci-protocol/contracts/library/LinkedList.sol\":2052:2056  next */\n      dup3\n        /* \"vinci-protocol/contracts/library/LinkedList.sol\":2052:2064  next != ZERO */\n      eq\n        /* \"vinci-protocol/contracts/library/LinkedList.sol\":2048:2133  if (next != ZERO) {... */\n      tag_237\n      jumpi\n        /* \"vinci-protocol/contracts/library/LinkedList.sol\":2101:2109  prevNode */\n      dup4\n        /* \"vinci-protocol/contracts/library/LinkedList.sol\":2101:2117  prevNode.current */\n      0x00\n      add\n      sload\n        /* \"vinci-protocol/contracts/library/LinkedList.sol\":2085:2093  nextNode */\n      dup2\n        /* \"vinci-protocol/contracts/library/LinkedList.sol\":2085:2098  nextNode.prev */\n      0x01\n      add\n        /* \"vinci-protocol/contracts/library/LinkedList.sol\":2085:2117  nextNode.prev = prevNode.current */\n      dup2\n      swap1\n      sstore\n      pop\n        /* \"vinci-protocol/contracts/library/LinkedList.sol\":2048:2133  if (next != ZERO) {... */\n    tag_237:\n        /* \"vinci-protocol/contracts/library/LinkedList.sol\":2163:2171  nextNode */\n      dup1\n        /* \"vinci-protocol/contracts/library/LinkedList.sol\":2163:2179  nextNode.current */\n      0x00\n      add\n      sload\n        /* \"vinci-protocol/contracts/library/LinkedList.sol\":2147:2155  prevNode */\n      dup5\n        /* \"vinci-protocol/contracts/library/LinkedList.sol\":2147:2160  prevNode.next */\n      0x02\n      add\n        /* \"vinci-protocol/contracts/library/LinkedList.sol\":2147:2179  prevNode.next = nextNode.current */\n      dup2\n      swap1\n      sstore\n      pop\n        /* \"vinci-protocol/contracts/library/LinkedList.sol\":2201:2212  _linkedList */\n      dup7\n        /* \"vinci-protocol/contracts/library/LinkedList.sol\":2201:2217  _linkedList.list */\n      0x00\n      add\n        /* \"vinci-protocol/contracts/library/LinkedList.sol\":2201:2224  _linkedList.list[_node] */\n      0x00\n        /* \"vinci-protocol/contracts/library/LinkedList.sol\":2218:2223  _node */\n      dup8\n        /* \"vinci-protocol/contracts/library/LinkedList.sol\":2201:2224  _linkedList.list[_node] */\n      dup2\n      mstore\n      0x20\n      add\n      swap1\n      dup2\n      mstore\n      0x20\n      add\n      0x00\n      keccak256\n      0x00\n        /* \"vinci-protocol/contracts/library/LinkedList.sol\":2194:2224  delete _linkedList.list[_node] */\n      dup1\n      dup3\n      add\n      0x00\n      swap1\n      sstore\n      0x01\n      dup3\n      add\n      0x00\n      swap1\n      sstore\n      0x02\n      dup3\n      add\n      0x00\n      swap1\n      sstore\n      pop\n      pop\n        /* \"vinci-protocol/contracts/library/LinkedList.sol\":1689:2236  {... */\n      pop\n      pop\n      pop\n      pop\n        /* \"vinci-protocol/contracts/library/LinkedList.sol\":2253:2257  true */\n      0x01\n        /* \"vinci-protocol/contracts/library/LinkedList.sol\":2246:2257  return true */\n      swap1\n      pop\n        /* \"vinci-protocol/contracts/library/LinkedList.sol\":1477:2265  function _removeNode(... */\n    tag_232:\n      swap3\n      swap2\n      pop\n      pop\n      jump\t// out\n        /* \"vinci-protocol/contracts/library/LinkedList.sol\":835:1287  function _add(... */\n    tag_225:\n        /* \"vinci-protocol/contracts/library/LinkedList.sol\":938:942  bool */\n      0x00\n        /* \"vinci-protocol/contracts/library/LinkedList.sol\":955:978  Node memory currentNode */\n      dup1\n        /* \"vinci-protocol/contracts/library/LinkedList.sol\":981:1006  _getLastNode(_linkedList) */\n      tag_239\n        /* \"vinci-protocol/contracts/library/LinkedList.sol\":994:1005  _linkedList */\n      dup5\n        /* \"vinci-protocol/contracts/library/LinkedList.sol\":981:993  _getLastNode */\n      tag_240\n        /* \"vinci-protocol/contracts/library/LinkedList.sol\":981:1006  _getLastNode(_linkedList) */\n      jump\t// in\n    tag_239:\n        /* \"vinci-protocol/contracts/library/LinkedList.sol\":955:1006  Node memory currentNode = _getLastNode(_linkedList) */\n      swap1\n      pop\n        /* \"vinci-protocol/contracts/library/LinkedList.sol\":1021:1053  _isNodeExist(_linkedList, _node) */\n      tag_241\n        /* \"vinci-protocol/contracts/library/LinkedList.sol\":1034:1045  _linkedList */\n      dup5\n        /* \"vinci-protocol/contracts/library/LinkedList.sol\":1047:1052  _node */\n      dup5\n        /* \"vinci-protocol/contracts/library/LinkedList.sol\":1021:1033  _isNodeExist */\n      tag_234\n        /* \"vinci-protocol/contracts/library/LinkedList.sol\":1021:1053  _isNodeExist(_linkedList, _node) */\n      jump\t// in\n    tag_241:\n        /* \"vinci-protocol/contracts/library/LinkedList.sol\":1017:1256  if (_isNodeExist(_linkedList, _node)) {... */\n      iszero\n      tag_242\n      jumpi\n        /* \"vinci-protocol/contracts/library/LinkedList.sol\":1077:1082  false */\n      0x00\n        /* \"vinci-protocol/contracts/library/LinkedList.sol\":1070:1082  return false */\n      swap2\n      pop\n      pop\n      jump(tag_238)\n        /* \"vinci-protocol/contracts/library/LinkedList.sol\":1017:1256  if (_isNodeExist(_linkedList, _node)) {... */\n    tag_242:\n        /* \"vinci-protocol/contracts/library/LinkedList.sol\":1160:1165  _node */\n      dup3\n        /* \"vinci-protocol/contracts/library/LinkedList.sol\":1115:1126  _linkedList */\n      dup5\n        /* \"vinci-protocol/contracts/library/LinkedList.sol\":1115:1131  _linkedList.list */\n      0x00\n      add\n        /* \"vinci-protocol/contracts/library/LinkedList.sol\":1115:1152  _linkedList.list[currentNode.current] */\n      0x00\n        /* \"vinci-protocol/contracts/library/LinkedList.sol\":1132:1143  currentNode */\n      dup4\n        /* \"vinci-protocol/contracts/library/LinkedList.sol\":1132:1151  currentNode.current */\n      0x00\n      add\n      mload\n        /* \"vinci-protocol/contracts/library/LinkedList.sol\":1115:1152  _linkedList.list[currentNode.current] */\n      dup2\n      mstore\n      0x20\n      add\n      swap1\n      dup2\n      mstore\n      0x20\n      add\n      0x00\n      keccak256\n        /* \"vinci-protocol/contracts/library/LinkedList.sol\":1115:1157  _linkedList.list[currentNode.current].next */\n      0x02\n      add\n        /* \"vinci-protocol/contracts/library/LinkedList.sol\":1115:1165  _linkedList.list[currentNode.current].next = _node */\n      dup2\n      swap1\n      sstore\n      pop\n        /* \"vinci-protocol/contracts/library/LinkedList.sol\":1206:1244  Node(_node, currentNode.current, ZERO) */\n      mload(0x40)\n      dup1\n      0x60\n      add\n      0x40\n      mstore\n      dup1\n        /* \"vinci-protocol/contracts/library/LinkedList.sol\":1211:1216  _node */\n      dup5\n        /* \"vinci-protocol/contracts/library/LinkedList.sol\":1206:1244  Node(_node, currentNode.current, ZERO) */\n      dup2\n      mstore\n      0x20\n      add\n        /* \"vinci-protocol/contracts/library/LinkedList.sol\":1218:1229  currentNode */\n      dup3\n        /* \"vinci-protocol/contracts/library/LinkedList.sol\":1218:1237  currentNode.current */\n      0x00\n      add\n      mload\n        /* \"vinci-protocol/contracts/library/LinkedList.sol\":1206:1244  Node(_node, currentNode.current, ZERO) */\n      dup2\n      mstore\n      0x20\n      add\n        /* \"vinci-protocol/contracts/library/LinkedList.sol\":128:129  0 */\n      0x00\n        /* \"vinci-protocol/contracts/library/LinkedList.sol\":120:130  bytes32(0) */\n      dup1\n      shl\n        /* \"vinci-protocol/contracts/library/LinkedList.sol\":1206:1244  Node(_node, currentNode.current, ZERO) */\n      dup2\n      mstore\n      pop\n        /* \"vinci-protocol/contracts/library/LinkedList.sol\":1180:1191  _linkedList */\n      dup5\n        /* \"vinci-protocol/contracts/library/LinkedList.sol\":1180:1196  _linkedList.list */\n      0x00\n      add\n        /* \"vinci-protocol/contracts/library/LinkedList.sol\":1180:1203  _linkedList.list[_node] */\n      0x00\n        /* \"vinci-protocol/contracts/library/LinkedList.sol\":1197:1202  _node */\n      dup6\n        /* \"vinci-protocol/contracts/library/LinkedList.sol\":1180:1203  _linkedList.list[_node] */\n      dup2\n      mstore\n      0x20\n      add\n      swap1\n      dup2\n      mstore\n      0x20\n      add\n      0x00\n      keccak256\n        /* \"vinci-protocol/contracts/library/LinkedList.sol\":1180:1244  _linkedList.list[_node] = Node(_node, currentNode.current, ZERO) */\n      0x00\n      dup3\n      add\n      mload\n      dup2\n      0x00\n      add\n      sstore\n      0x20\n      dup3\n      add\n      mload\n      dup2\n      0x01\n      add\n      sstore\n      0x40\n      dup3\n      add\n      mload\n      dup2\n      0x02\n      add\n      sstore\n      swap1\n      pop\n      pop\n        /* \"vinci-protocol/contracts/library/LinkedList.sol\":1275:1279  true */\n      0x01\n        /* \"vinci-protocol/contracts/library/LinkedList.sol\":1268:1279  return true */\n      swap2\n      pop\n      pop\n        /* \"vinci-protocol/contracts/library/LinkedList.sol\":835:1287  function _add(... */\n    tag_238:\n      swap3\n      swap2\n      pop\n      pop\n      jump\t// out\n        /* \"vinci-protocol/contracts/library/LinkedList.sol\":639:827  function _isNodeExist(... */\n    tag_234:\n        /* \"vinci-protocol/contracts/library/LinkedList.sol\":756:760  bool */\n      0x00\n        /* \"vinci-protocol/contracts/library/LinkedList.sol\":128:129  0 */\n      dup1\n        /* \"vinci-protocol/contracts/library/LinkedList.sol\":120:130  bytes32(0) */\n      0x00\n      shl\n        /* \"vinci-protocol/contracts/library/LinkedList.sol\":780:791  _linkedList */\n      dup4\n        /* \"vinci-protocol/contracts/library/LinkedList.sol\":780:796  _linkedList.list */\n      0x00\n      add\n        /* \"vinci-protocol/contracts/library/LinkedList.sol\":780:803  _linkedList.list[_node] */\n      0x00\n        /* \"vinci-protocol/contracts/library/LinkedList.sol\":797:802  _node */\n      dup5\n        /* \"vinci-protocol/contracts/library/LinkedList.sol\":780:803  _linkedList.list[_node] */\n      dup2\n      mstore\n      0x20\n      add\n      swap1\n      dup2\n      mstore\n      0x20\n      add\n      0x00\n      keccak256\n        /* \"vinci-protocol/contracts/library/LinkedList.sol\":780:811  _linkedList.list[_node].current */\n      0x00\n      add\n      sload\n        /* \"vinci-protocol/contracts/library/LinkedList.sol\":780:819  _linkedList.list[_node].current != ZERO */\n      eq\n      iszero\n        /* \"vinci-protocol/contracts/library/LinkedList.sol\":773:819  return _linkedList.list[_node].current != ZERO */\n      swap1\n      pop\n        /* \"vinci-protocol/contracts/library/LinkedList.sol\":639:827  function _isNodeExist(... */\n      swap3\n      swap2\n      pop\n      pop\n      jump\t// out\n        /* \"vinci-protocol/contracts/library/LinkedList.sol\":311:631  function _getLastNode(... */\n    tag_240:\n        /* \"vinci-protocol/contracts/library/LinkedList.sol\":404:415  Node memory */\n      tag_245\n      tag_229\n      jump\t// in\n    tag_245:\n        /* \"vinci-protocol/contracts/library/LinkedList.sol\":428:451  Node memory currentNode */\n      0x00\n        /* \"vinci-protocol/contracts/library/LinkedList.sol\":454:465  _linkedList */\n      dup3\n        /* \"vinci-protocol/contracts/library/LinkedList.sol\":454:470  _linkedList.list */\n      0x00\n      add\n        /* \"vinci-protocol/contracts/library/LinkedList.sol\":454:476  _linkedList.list[ZERO] */\n      0x00\n        /* \"vinci-protocol/contracts/library/LinkedList.sol\":128:129  0 */\n      dup1\n        /* \"vinci-protocol/contracts/library/LinkedList.sol\":120:130  bytes32(0) */\n      0x00\n      shl\n        /* \"vinci-protocol/contracts/library/LinkedList.sol\":454:476  _linkedList.list[ZERO] */\n      dup2\n      mstore\n      0x20\n      add\n      swap1\n      dup2\n      mstore\n      0x20\n      add\n      0x00\n      keccak256\n        /* \"vinci-protocol/contracts/library/LinkedList.sol\":428:476  Node memory currentNode = _linkedList.list[ZERO] */\n      mload(0x40)\n      dup1\n      0x60\n      add\n      0x40\n      mstore\n      swap1\n      dup2\n      0x00\n      dup3\n      add\n      sload\n      dup2\n      mstore\n      0x20\n      add\n      0x01\n      dup3\n      add\n      sload\n      dup2\n      mstore\n      0x20\n      add\n      0x02\n      dup3\n      add\n      sload\n      dup2\n      mstore\n      pop\n      pop\n      swap1\n      pop\n        /* \"vinci-protocol/contracts/library/LinkedList.sol\":487:595  while (currentNode.next != ZERO) {... */\n    tag_247:\n        /* \"vinci-protocol/contracts/library/LinkedList.sol\":128:129  0 */\n      0x00\n        /* \"vinci-protocol/contracts/library/LinkedList.sol\":120:130  bytes32(0) */\n      dup1\n      shl\n        /* \"vinci-protocol/contracts/library/LinkedList.sol\":494:505  currentNode */\n      dup2\n        /* \"vinci-protocol/contracts/library/LinkedList.sol\":494:510  currentNode.next */\n      0x40\n      add\n      mload\n        /* \"vinci-protocol/contracts/library/LinkedList.sol\":494:518  currentNode.next != ZERO */\n      eq\n        /* \"vinci-protocol/contracts/library/LinkedList.sol\":487:595  while (currentNode.next != ZERO) {... */\n      tag_248\n      jumpi\n        /* \"vinci-protocol/contracts/library/LinkedList.sol\":549:560  _linkedList */\n      dup3\n        /* \"vinci-protocol/contracts/library/LinkedList.sol\":549:565  _linkedList.list */\n      0x00\n      add\n        /* \"vinci-protocol/contracts/library/LinkedList.sol\":549:583  _linkedList.list[currentNode.next] */\n      0x00\n        /* \"vinci-protocol/contracts/library/LinkedList.sol\":566:577  currentNode */\n      dup3\n        /* \"vinci-protocol/contracts/library/LinkedList.sol\":566:582  currentNode.next */\n      0x40\n      add\n      mload\n        /* \"vinci-protocol/contracts/library/LinkedList.sol\":549:583  _linkedList.list[currentNode.next] */\n      dup2\n      mstore\n      0x20\n      add\n      swap1\n      dup2\n      mstore\n      0x20\n      add\n      0x00\n      keccak256\n        /* \"vinci-protocol/contracts/library/LinkedList.sol\":535:583  currentNode = _linkedList.list[currentNode.next] */\n      mload(0x40)\n      dup1\n      0x60\n      add\n      0x40\n      mstore\n      swap1\n      dup2\n      0x00\n      dup3\n      add\n      sload\n      dup2\n      mstore\n      0x20\n      add\n      0x01\n      dup3\n      add\n      sload\n      dup2\n      mstore\n      0x20\n      add\n      0x02\n      dup3\n      add\n      sload\n      dup2\n      mstore\n      pop\n      pop\n      swap1\n      pop\n        /* \"vinci-protocol/contracts/library/LinkedList.sol\":487:595  while (currentNode.next != ZERO) {... */\n      jump(tag_247)\n    tag_248:\n        /* \"vinci-protocol/contracts/library/LinkedList.sol\":612:623  currentNode */\n      dup1\n        /* \"vinci-protocol/contracts/library/LinkedList.sol\":605:623  return currentNode */\n      swap2\n      pop\n      pop\n        /* \"vinci-protocol/contracts/library/LinkedList.sol\":311:631  function _getLastNode(... */\n      swap2\n      swap1\n      pop\n      jump\t// out\n    tag_72:\n      mload(0x40)\n      dup1\n      0x0100\n      add\n      0x40\n      mstore\n      dup1\n      0x00\n      dup2\n      mstore\n      0x20\n      add\n      and(0xffffffffffffffffffffffffffffffffffffffff, 0x00)\n      dup2\n      mstore\n      0x20\n      add\n      0x00\n      dup2\n      mstore\n      0x20\n      add\n      0x00\n      dup2\n      mstore\n      0x20\n      add\n      0x00\n      dup2\n      mstore\n      0x20\n      add\n      and(0xffffffffffffffffffffffffffffffffffffffff, 0x00)\n      dup2\n      mstore\n      0x20\n      add\n      tag_249\n      tag_250\n      jump\t// in\n    tag_249:\n      dup2\n      mstore\n      0x20\n      add\n      0x00\n      0x03\n      dup2\n      gt\n      iszero\n      tag_251\n      jumpi\n      tag_252\n      tag_83\n      jump\t// in\n    tag_252:\n    tag_251:\n      dup2\n      mstore\n      pop\n      swap1\n      jump\t// out\n    tag_75:\n      mload(0x40)\n      dup1\n      0x60\n      add\n      0x40\n      mstore\n      dup1\n      0x00\n      dup2\n      mstore\n      0x20\n      add\n      0x00\n      dup2\n      mstore\n      0x20\n      add\n      0x00\n      dup2\n      mstore\n      pop\n      swap1\n      jump\t// out\n    tag_229:\n      mload(0x40)\n      dup1\n      0x60\n      add\n      0x40\n      mstore\n      dup1\n      0x00\n      dup1\n      not\n      and\n      dup2\n      mstore\n      0x20\n      add\n      0x00\n      dup1\n      not\n      and\n      dup2\n      mstore\n      0x20\n      add\n      0x00\n      dup1\n      not\n      and\n      dup2\n      mstore\n      pop\n      swap1\n      jump\t// out\n    tag_250:\n      mload(0x40)\n      dup1\n      0x80\n      add\n      0x40\n      mstore\n      dup1\n      and(0xffffffffffffffffffffffffffffffffffffffff, 0x00)\n      dup2\n      mstore\n      0x20\n      add\n      0x00\n      dup2\n      mstore\n      0x20\n      add\n      0x00\n      0x02\n      dup2\n      gt\n      iszero\n      tag_253\n      jumpi\n      tag_254\n      tag_83\n      jump\t// in\n    tag_254:\n    tag_253:\n      dup2\n      mstore\n      0x20\n      add\n      0x00\n      dup2\n      mstore\n      pop\n      swap1\n      jump\t// out\n        /* \"#utility.yul\":88:205   */\n    tag_256:\n        /* \"#utility.yul\":197:198   */\n      0x00\n        /* \"#utility.yul\":194:195   */\n      dup1\n        /* \"#utility.yul\":187:199   */\n      revert\n        /* \"#utility.yul\":334:411   */\n    tag_258:\n        /* \"#utility.yul\":371:378   */\n      0x00\n        /* \"#utility.yul\":400:405   */\n      dup2\n        /* \"#utility.yul\":389:405   */\n      swap1\n      pop\n        /* \"#utility.yul\":334:411   */\n      swap2\n      swap1\n      pop\n      jump\t// out\n        /* \"#utility.yul\":417:539   */\n    tag_259:\n        /* \"#utility.yul\":490:514   */\n      tag_306\n        /* \"#utility.yul\":508:513   */\n      dup2\n        /* \"#utility.yul\":490:514   */\n      tag_258\n      jump\t// in\n    tag_306:\n        /* \"#utility.yul\":483:488   */\n      dup2\n        /* \"#utility.yul\":480:515   */\n      eq\n        /* \"#utility.yul\":470:533   */\n      tag_307\n      jumpi\n        /* \"#utility.yul\":529:530   */\n      0x00\n        /* \"#utility.yul\":526:527   */\n      dup1\n        /* \"#utility.yul\":519:531   */\n      revert\n        /* \"#utility.yul\":470:533   */\n    tag_307:\n        /* \"#utility.yul\":417:539   */\n      pop\n      jump\t// out\n        /* \"#utility.yul\":545:684   */\n    tag_260:\n        /* \"#utility.yul\":591:596   */\n      0x00\n        /* \"#utility.yul\":629:635   */\n      dup2\n        /* \"#utility.yul\":616:636   */\n      calldataload\n        /* \"#utility.yul\":607:636   */\n      swap1\n      pop\n        /* \"#utility.yul\":645:678   */\n      tag_309\n        /* \"#utility.yul\":672:677   */\n      dup2\n        /* \"#utility.yul\":645:678   */\n      tag_259\n      jump\t// in\n    tag_309:\n        /* \"#utility.yul\":545:684   */\n      swap3\n      swap2\n      pop\n      pop\n      jump\t// out\n        /* \"#utility.yul\":690:1164   */\n    tag_18:\n        /* \"#utility.yul\":758:764   */\n      0x00\n        /* \"#utility.yul\":766:772   */\n      dup1\n        /* \"#utility.yul\":815:817   */\n      0x40\n        /* \"#utility.yul\":803:812   */\n      dup4\n        /* \"#utility.yul\":794:801   */\n      dup6\n        /* \"#utility.yul\":790:813   */\n      sub\n        /* \"#utility.yul\":786:818   */\n      slt\n        /* \"#utility.yul\":783:902   */\n      iszero\n      tag_311\n      jumpi\n        /* \"#utility.yul\":821:900   */\n      tag_312\n      tag_256\n      jump\t// in\n    tag_312:\n        /* \"#utility.yul\":783:902   */\n    tag_311:\n        /* \"#utility.yul\":941:942   */\n      0x00\n        /* \"#utility.yul\":966:1019   */\n      tag_313\n        /* \"#utility.yul\":1011:1018   */\n      dup6\n        /* \"#utility.yul\":1002:1008   */\n      dup3\n        /* \"#utility.yul\":991:1000   */\n      dup7\n        /* \"#utility.yul\":987:1009   */\n      add\n        /* \"#utility.yul\":966:1019   */\n      tag_260\n      jump\t// in\n    tag_313:\n        /* \"#utility.yul\":956:1019   */\n      swap3\n      pop\n        /* \"#utility.yul\":912:1029   */\n      pop\n        /* \"#utility.yul\":1068:1070   */\n      0x20\n        /* \"#utility.yul\":1094:1147   */\n      tag_314\n        /* \"#utility.yul\":1139:1146   */\n      dup6\n        /* \"#utility.yul\":1130:1136   */\n      dup3\n        /* \"#utility.yul\":1119:1128   */\n      dup7\n        /* \"#utility.yul\":1115:1137   */\n      add\n        /* \"#utility.yul\":1094:1147   */\n      tag_260\n      jump\t// in\n    tag_314:\n        /* \"#utility.yul\":1084:1147   */\n      swap2\n      pop\n        /* \"#utility.yul\":1039:1157   */\n      pop\n        /* \"#utility.yul\":690:1164   */\n      swap3\n      pop\n      swap3\n      swap1\n      pop\n      jump\t// out\n        /* \"#utility.yul\":1170:1307   */\n    tag_261:\n        /* \"#utility.yul\":1260:1266   */\n      0x00\n        /* \"#utility.yul\":1294:1299   */\n      dup2\n        /* \"#utility.yul\":1288:1300   */\n      mload\n        /* \"#utility.yul\":1278:1300   */\n      swap1\n      pop\n        /* \"#utility.yul\":1170:1307   */\n      swap2\n      swap1\n      pop\n      jump\t// out\n        /* \"#utility.yul\":1313:1520   */\n    tag_262:\n        /* \"#utility.yul\":1435:1446   */\n      0x00\n        /* \"#utility.yul\":1469:1475   */\n      dup3\n        /* \"#utility.yul\":1464:1467   */\n      dup3\n        /* \"#utility.yul\":1457:1476   */\n      mstore\n        /* \"#utility.yul\":1509:1513   */\n      0x20\n        /* \"#utility.yul\":1504:1507   */\n      dup3\n        /* \"#utility.yul\":1500:1514   */\n      add\n        /* \"#utility.yul\":1485:1514   */\n      swap1\n      pop\n        /* \"#utility.yul\":1313:1520   */\n      swap3\n      swap2\n      pop\n      pop\n      jump\t// out\n        /* \"#utility.yul\":1526:1681   */\n    tag_263:\n        /* \"#utility.yul\":1616:1620   */\n      0x00\n        /* \"#utility.yul\":1639:1642   */\n      dup2\n        /* \"#utility.yul\":1631:1642   */\n      swap1\n      pop\n        /* \"#utility.yul\":1669:1673   */\n      0x20\n        /* \"#utility.yul\":1664:1667   */\n      dup3\n        /* \"#utility.yul\":1660:1674   */\n      add\n        /* \"#utility.yul\":1652:1674   */\n      swap1\n      pop\n        /* \"#utility.yul\":1526:1681   */\n      swap2\n      swap1\n      pop\n      jump\t// out\n        /* \"#utility.yul\":1687:1795   */\n    tag_264:\n        /* \"#utility.yul\":1764:1788   */\n      tag_319\n        /* \"#utility.yul\":1782:1787   */\n      dup2\n        /* \"#utility.yul\":1764:1788   */\n      tag_258\n      jump\t// in\n    tag_319:\n        /* \"#utility.yul\":1759:1762   */\n      dup3\n        /* \"#utility.yul\":1752:1789   */\n      mstore\n        /* \"#utility.yul\":1687:1795   */\n      pop\n      pop\n      jump\t// out\n        /* \"#utility.yul\":1801:1927   */\n    tag_265:\n        /* \"#utility.yul\":1838:1845   */\n      0x00\n        /* \"#utility.yul\":1878:1920   */\n      0xffffffffffffffffffffffffffffffffffffffff\n        /* \"#utility.yul\":1871:1876   */\n      dup3\n        /* \"#utility.yul\":1867:1921   */\n      and\n        /* \"#utility.yul\":1856:1921   */\n      swap1\n      pop\n        /* \"#utility.yul\":1801:1927   */\n      swap2\n      swap1\n      pop\n      jump\t// out\n        /* \"#utility.yul\":1933:2029   */\n    tag_266:\n        /* \"#utility.yul\":1970:1977   */\n      0x00\n        /* \"#utility.yul\":1999:2023   */\n      tag_322\n        /* \"#utility.yul\":2017:2022   */\n      dup3\n        /* \"#utility.yul\":1999:2023   */\n      tag_265\n      jump\t// in\n    tag_322:\n        /* \"#utility.yul\":1988:2023   */\n      swap1\n      pop\n        /* \"#utility.yul\":1933:2029   */\n      swap2\n      swap1\n      pop\n      jump\t// out\n        /* \"#utility.yul\":2035:2143   */\n    tag_267:\n        /* \"#utility.yul\":2112:2136   */\n      tag_324\n        /* \"#utility.yul\":2130:2135   */\n      dup2\n        /* \"#utility.yul\":2112:2136   */\n      tag_266\n      jump\t// in\n    tag_324:\n        /* \"#utility.yul\":2107:2110   */\n      dup3\n        /* \"#utility.yul\":2100:2137   */\n      mstore\n        /* \"#utility.yul\":2035:2143   */\n      pop\n      pop\n      jump\t// out\n        /* \"#utility.yul\":2149:2329   */\n    tag_83:\n        /* \"#utility.yul\":2197:2274   */\n      0x4e487b7100000000000000000000000000000000000000000000000000000000\n        /* \"#utility.yul\":2194:2195   */\n      0x00\n        /* \"#utility.yul\":2187:2275   */\n      mstore\n        /* \"#utility.yul\":2294:2298   */\n      0x21\n        /* \"#utility.yul\":2291:2292   */\n      0x04\n        /* \"#utility.yul\":2284:2299   */\n      mstore\n        /* \"#utility.yul\":2318:2322   */\n      0x24\n        /* \"#utility.yul\":2315:2316   */\n      0x00\n        /* \"#utility.yul\":2308:2323   */\n      revert\n        /* \"#utility.yul\":2335:2452   */\n    tag_268:\n        /* \"#utility.yul\":2420:2421   */\n      0x03\n        /* \"#utility.yul\":2413:2418   */\n      dup2\n        /* \"#utility.yul\":2410:2422   */\n      lt\n        /* \"#utility.yul\":2400:2446   */\n      tag_327\n      jumpi\n        /* \"#utility.yul\":2426:2444   */\n      tag_328\n      tag_83\n      jump\t// in\n    tag_328:\n        /* \"#utility.yul\":2400:2446   */\n    tag_327:\n        /* \"#utility.yul\":2335:2452   */\n      pop\n      jump\t// out\n        /* \"#utility.yul\":2458:2593   */\n    tag_269:\n        /* \"#utility.yul\":2507:2514   */\n      0x00\n        /* \"#utility.yul\":2536:2541   */\n      dup2\n        /* \"#utility.yul\":2525:2541   */\n      swap1\n      pop\n        /* \"#utility.yul\":2542:2587   */\n      tag_330\n        /* \"#utility.yul\":2581:2586   */\n      dup3\n        /* \"#utility.yul\":2542:2587   */\n      tag_268\n      jump\t// in\n    tag_330:\n        /* \"#utility.yul\":2458:2593   */\n      swap2\n      swap1\n      pop\n      jump\t// out\n        /* \"#utility.yul\":2599:2734   */\n    tag_270:\n        /* \"#utility.yul\":2659:2668   */\n      0x00\n        /* \"#utility.yul\":2692:2728   */\n      tag_332\n        /* \"#utility.yul\":2722:2727   */\n      dup3\n        /* \"#utility.yul\":2692:2728   */\n      tag_269\n      jump\t// in\n    tag_332:\n        /* \"#utility.yul\":2679:2728   */\n      swap1\n      pop\n        /* \"#utility.yul\":2599:2734   */\n      swap2\n      swap1\n      pop\n      jump\t// out\n        /* \"#utility.yul\":2740:2881   */\n    tag_271:\n        /* \"#utility.yul\":2827:2874   */\n      tag_334\n        /* \"#utility.yul\":2868:2873   */\n      dup2\n        /* \"#utility.yul\":2827:2874   */\n      tag_270\n      jump\t// in\n    tag_334:\n        /* \"#utility.yul\":2822:2825   */\n      dup3\n        /* \"#utility.yul\":2815:2875   */\n      mstore\n        /* \"#utility.yul\":2740:2881   */\n      pop\n      pop\n      jump\t// out\n        /* \"#utility.yul\":2937:3798   */\n    tag_272:\n        /* \"#utility.yul\":3066:3070   */\n      0x80\n        /* \"#utility.yul\":3061:3064   */\n      dup3\n        /* \"#utility.yul\":3057:3071   */\n      add\n        /* \"#utility.yul\":3159:3163   */\n      0x00\n        /* \"#utility.yul\":3152:3157   */\n      dup3\n        /* \"#utility.yul\":3148:3164   */\n      add\n        /* \"#utility.yul\":3142:3165   */\n      mload\n        /* \"#utility.yul\":3178:3241   */\n      tag_336\n        /* \"#utility.yul\":3235:3239   */\n      0x00\n        /* \"#utility.yul\":3230:3233   */\n      dup6\n        /* \"#utility.yul\":3226:3240   */\n      add\n        /* \"#utility.yul\":3212:3224   */\n      dup3\n        /* \"#utility.yul\":3178:3241   */\n      tag_267\n      jump\t// in\n    tag_336:\n        /* \"#utility.yul\":3081:3251   */\n      pop\n        /* \"#utility.yul\":3336:3340   */\n      0x20\n        /* \"#utility.yul\":3329:3334   */\n      dup3\n        /* \"#utility.yul\":3325:3341   */\n      add\n        /* \"#utility.yul\":3319:3342   */\n      mload\n        /* \"#utility.yul\":3355:3418   */\n      tag_337\n        /* \"#utility.yul\":3412:3416   */\n      0x20\n        /* \"#utility.yul\":3407:3410   */\n      dup6\n        /* \"#utility.yul\":3403:3417   */\n      add\n        /* \"#utility.yul\":3389:3401   */\n      dup3\n        /* \"#utility.yul\":3355:3418   */\n      tag_264\n      jump\t// in\n    tag_337:\n        /* \"#utility.yul\":3261:3428   */\n      pop\n        /* \"#utility.yul\":3513:3517   */\n      0x40\n        /* \"#utility.yul\":3506:3511   */\n      dup3\n        /* \"#utility.yul\":3502:3518   */\n      add\n        /* \"#utility.yul\":3496:3519   */\n      mload\n        /* \"#utility.yul\":3532:3605   */\n      tag_338\n        /* \"#utility.yul\":3599:3603   */\n      0x40\n        /* \"#utility.yul\":3594:3597   */\n      dup6\n        /* \"#utility.yul\":3590:3604   */\n      add\n        /* \"#utility.yul\":3576:3588   */\n      dup3\n        /* \"#utility.yul\":3532:3605   */\n      tag_271\n      jump\t// in\n    tag_338:\n        /* \"#utility.yul\":3438:3615   */\n      pop\n        /* \"#utility.yul\":3699:3703   */\n      0x60\n        /* \"#utility.yul\":3692:3697   */\n      dup3\n        /* \"#utility.yul\":3688:3704   */\n      add\n        /* \"#utility.yul\":3682:3705   */\n      mload\n        /* \"#utility.yul\":3718:3781   */\n      tag_339\n        /* \"#utility.yul\":3775:3779   */\n      0x60\n        /* \"#utility.yul\":3770:3773   */\n      dup6\n        /* \"#utility.yul\":3766:3780   */\n      add\n        /* \"#utility.yul\":3752:3764   */\n      dup3\n        /* \"#utility.yul\":3718:3781   */\n      tag_264\n      jump\t// in\n    tag_339:\n        /* \"#utility.yul\":3625:3791   */\n      pop\n        /* \"#utility.yul\":3035:3798   */\n      pop\n        /* \"#utility.yul\":2937:3798   */\n      pop\n      pop\n      jump\t// out\n        /* \"#utility.yul\":3804:3920   */\n    tag_273:\n        /* \"#utility.yul\":3888:3889   */\n      0x04\n        /* \"#utility.yul\":3881:3886   */\n      dup2\n        /* \"#utility.yul\":3878:3890   */\n      lt\n        /* \"#utility.yul\":3868:3914   */\n      tag_341\n      jumpi\n        /* \"#utility.yul\":3894:3912   */\n      tag_342\n      tag_83\n      jump\t// in\n    tag_342:\n        /* \"#utility.yul\":3868:3914   */\n    tag_341:\n        /* \"#utility.yul\":3804:3920   */\n      pop\n      jump\t// out\n        /* \"#utility.yul\":3926:4059   */\n    tag_274:\n        /* \"#utility.yul\":3974:3981   */\n      0x00\n        /* \"#utility.yul\":4003:4008   */\n      dup2\n        /* \"#utility.yul\":3992:4008   */\n      swap1\n      pop\n        /* \"#utility.yul\":4009:4053   */\n      tag_344\n        /* \"#utility.yul\":4047:4052   */\n      dup3\n        /* \"#utility.yul\":4009:4053   */\n      tag_273\n      jump\t// in\n    tag_344:\n        /* \"#utility.yul\":3926:4059   */\n      swap2\n      swap1\n      pop\n      jump\t// out\n        /* \"#utility.yul\":4065:4198   */\n    tag_275:\n        /* \"#utility.yul\":4124:4133   */\n      0x00\n        /* \"#utility.yul\":4157:4192   */\n      tag_346\n        /* \"#utility.yul\":4186:4191   */\n      dup3\n        /* \"#utility.yul\":4157:4192   */\n      tag_274\n      jump\t// in\n    tag_346:\n        /* \"#utility.yul\":4144:4192   */\n      swap1\n      pop\n        /* \"#utility.yul\":4065:4198   */\n      swap2\n      swap1\n      pop\n      jump\t// out\n        /* \"#utility.yul\":4204:4343   */\n    tag_276:\n        /* \"#utility.yul\":4290:4336   */\n      tag_348\n        /* \"#utility.yul\":4330:4335   */\n      dup2\n        /* \"#utility.yul\":4290:4336   */\n      tag_275\n      jump\t// in\n    tag_348:\n        /* \"#utility.yul\":4285:4288   */\n      dup3\n        /* \"#utility.yul\":4278:4337   */\n      mstore\n        /* \"#utility.yul\":4204:4343   */\n      pop\n      pop\n      jump\t// out\n        /* \"#utility.yul\":4403:6019   */\n    tag_277:\n        /* \"#utility.yul\":4536:4542   */\n      0x0160\n        /* \"#utility.yul\":4531:4534   */\n      dup3\n        /* \"#utility.yul\":4527:4543   */\n      add\n        /* \"#utility.yul\":4632:4636   */\n      0x00\n        /* \"#utility.yul\":4625:4630   */\n      dup3\n        /* \"#utility.yul\":4621:4637   */\n      add\n        /* \"#utility.yul\":4615:4638   */\n      mload\n        /* \"#utility.yul\":4651:4714   */\n      tag_350\n        /* \"#utility.yul\":4708:4712   */\n      0x00\n        /* \"#utility.yul\":4703:4706   */\n      dup6\n        /* \"#utility.yul\":4699:4713   */\n      add\n        /* \"#utility.yul\":4685:4697   */\n      dup3\n        /* \"#utility.yul\":4651:4714   */\n      tag_264\n      jump\t// in\n    tag_350:\n        /* \"#utility.yul\":4553:4724   */\n      pop\n        /* \"#utility.yul\":4810:4814   */\n      0x20\n        /* \"#utility.yul\":4803:4808   */\n      dup3\n        /* \"#utility.yul\":4799:4815   */\n      add\n        /* \"#utility.yul\":4793:4816   */\n      mload\n        /* \"#utility.yul\":4829:4892   */\n      tag_351\n        /* \"#utility.yul\":4886:4890   */\n      0x20\n        /* \"#utility.yul\":4881:4884   */\n      dup6\n        /* \"#utility.yul\":4877:4891   */\n      add\n        /* \"#utility.yul\":4863:4875   */\n      dup3\n        /* \"#utility.yul\":4829:4892   */\n      tag_267\n      jump\t// in\n    tag_351:\n        /* \"#utility.yul\":4734:4902   */\n      pop\n        /* \"#utility.yul\":4985:4989   */\n      0x40\n        /* \"#utility.yul\":4978:4983   */\n      dup3\n        /* \"#utility.yul\":4974:4990   */\n      add\n        /* \"#utility.yul\":4968:4991   */\n      mload\n        /* \"#utility.yul\":5004:5067   */\n      tag_352\n        /* \"#utility.yul\":5061:5065   */\n      0x40\n        /* \"#utility.yul\":5056:5059   */\n      dup6\n        /* \"#utility.yul\":5052:5066   */\n      add\n        /* \"#utility.yul\":5038:5050   */\n      dup3\n        /* \"#utility.yul\":5004:5067   */\n      tag_264\n      jump\t// in\n    tag_352:\n        /* \"#utility.yul\":4912:5077   */\n      pop\n        /* \"#utility.yul\":5163:5167   */\n      0x60\n        /* \"#utility.yul\":5156:5161   */\n      dup3\n        /* \"#utility.yul\":5152:5168   */\n      add\n        /* \"#utility.yul\":5146:5169   */\n      mload\n        /* \"#utility.yul\":5182:5245   */\n      tag_353\n        /* \"#utility.yul\":5239:5243   */\n      0x60\n        /* \"#utility.yul\":5234:5237   */\n      dup6\n        /* \"#utility.yul\":5230:5244   */\n      add\n        /* \"#utility.yul\":5216:5228   */\n      dup3\n        /* \"#utility.yul\":5182:5245   */\n      tag_264\n      jump\t// in\n    tag_353:\n        /* \"#utility.yul\":5087:5255   */\n      pop\n        /* \"#utility.yul\":5343:5347   */\n      0x80\n        /* \"#utility.yul\":5336:5341   */\n      dup3\n        /* \"#utility.yul\":5332:5348   */\n      add\n        /* \"#utility.yul\":5326:5349   */\n      mload\n        /* \"#utility.yul\":5362:5425   */\n      tag_354\n        /* \"#utility.yul\":5419:5423   */\n      0x80\n        /* \"#utility.yul\":5414:5417   */\n      dup6\n        /* \"#utility.yul\":5410:5424   */\n      add\n        /* \"#utility.yul\":5396:5408   */\n      dup3\n        /* \"#utility.yul\":5362:5425   */\n      tag_264\n      jump\t// in\n    tag_354:\n        /* \"#utility.yul\":5265:5435   */\n      pop\n        /* \"#utility.yul\":5519:5523   */\n      0xa0\n        /* \"#utility.yul\":5512:5517   */\n      dup3\n        /* \"#utility.yul\":5508:5524   */\n      add\n        /* \"#utility.yul\":5502:5525   */\n      mload\n        /* \"#utility.yul\":5538:5601   */\n      tag_355\n        /* \"#utility.yul\":5595:5599   */\n      0xa0\n        /* \"#utility.yul\":5590:5593   */\n      dup6\n        /* \"#utility.yul\":5586:5600   */\n      add\n        /* \"#utility.yul\":5572:5584   */\n      dup3\n        /* \"#utility.yul\":5538:5601   */\n      tag_267\n      jump\t// in\n    tag_355:\n        /* \"#utility.yul\":5445:5611   */\n      pop\n        /* \"#utility.yul\":5692:5696   */\n      0xc0\n        /* \"#utility.yul\":5685:5690   */\n      dup3\n        /* \"#utility.yul\":5681:5697   */\n      add\n        /* \"#utility.yul\":5675:5698   */\n      mload\n        /* \"#utility.yul\":5711:5816   */\n      tag_356\n        /* \"#utility.yul\":5810:5814   */\n      0xc0\n        /* \"#utility.yul\":5805:5808   */\n      dup6\n        /* \"#utility.yul\":5801:5815   */\n      add\n        /* \"#utility.yul\":5787:5799   */\n      dup3\n        /* \"#utility.yul\":5711:5816   */\n      tag_272\n      jump\t// in\n    tag_356:\n        /* \"#utility.yul\":5621:5826   */\n      pop\n        /* \"#utility.yul\":5909:5913   */\n      0xe0\n        /* \"#utility.yul\":5902:5907   */\n      dup3\n        /* \"#utility.yul\":5898:5914   */\n      add\n        /* \"#utility.yul\":5892:5915   */\n      mload\n        /* \"#utility.yul\":5928:6002   */\n      tag_357\n        /* \"#utility.yul\":5994:6000   */\n      0x0140\n        /* \"#utility.yul\":5989:5992   */\n      dup6\n        /* \"#utility.yul\":5985:6001   */\n      add\n        /* \"#utility.yul\":5971:5983   */\n      dup3\n        /* \"#utility.yul\":5928:6002   */\n      tag_276\n      jump\t// in\n    tag_357:\n        /* \"#utility.yul\":5836:6012   */\n      pop\n        /* \"#utility.yul\":4505:6019   */\n      pop\n        /* \"#utility.yul\":4403:6019   */\n      pop\n      pop\n      jump\t// out\n        /* \"#utility.yul\":6025:6298   */\n    tag_278:\n        /* \"#utility.yul\":6140:6150   */\n      0x00\n        /* \"#utility.yul\":6161:6253   */\n      tag_359\n        /* \"#utility.yul\":6249:6252   */\n      dup4\n        /* \"#utility.yul\":6241:6247   */\n      dup4\n        /* \"#utility.yul\":6161:6253   */\n      tag_277\n      jump\t// in\n    tag_359:\n        /* \"#utility.yul\":6285:6291   */\n      0x0160\n        /* \"#utility.yul\":6280:6283   */\n      dup4\n        /* \"#utility.yul\":6276:6292   */\n      add\n        /* \"#utility.yul\":6262:6292   */\n      swap1\n      pop\n        /* \"#utility.yul\":6025:6298   */\n      swap3\n      swap2\n      pop\n      pop\n      jump\t// out\n        /* \"#utility.yul\":6304:6440   */\n    tag_279:\n        /* \"#utility.yul\":6397:6401   */\n      0x00\n        /* \"#utility.yul\":6429:6433   */\n      0x20\n        /* \"#utility.yul\":6424:6427   */\n      dup3\n        /* \"#utility.yul\":6420:6434   */\n      add\n        /* \"#utility.yul\":6412:6434   */\n      swap1\n      pop\n        /* \"#utility.yul\":6304:6440   */\n      swap2\n      swap1\n      pop\n      jump\t// out\n        /* \"#utility.yul\":6504:7420   */\n    tag_280:\n        /* \"#utility.yul\":6669:6672   */\n      0x00\n        /* \"#utility.yul\":6698:6775   */\n      tag_362\n        /* \"#utility.yul\":6769:6774   */\n      dup3\n        /* \"#utility.yul\":6698:6775   */\n      tag_261\n      jump\t// in\n    tag_362:\n        /* \"#utility.yul\":6791:6900   */\n      tag_363\n        /* \"#utility.yul\":6893:6899   */\n      dup2\n        /* \"#utility.yul\":6888:6891   */\n      dup6\n        /* \"#utility.yul\":6791:6900   */\n      tag_262\n      jump\t// in\n    tag_363:\n        /* \"#utility.yul\":6784:6900   */\n      swap4\n      pop\n        /* \"#utility.yul\":6924:7003   */\n      tag_364\n        /* \"#utility.yul\":6997:7002   */\n      dup4\n        /* \"#utility.yul\":6924:7003   */\n      tag_263\n      jump\t// in\n    tag_364:\n        /* \"#utility.yul\":7026:7033   */\n      dup1\n        /* \"#utility.yul\":7057:7058   */\n      0x00\n        /* \"#utility.yul\":7042:7395   */\n    tag_365:\n        /* \"#utility.yul\":7067:7073   */\n      dup4\n        /* \"#utility.yul\":7064:7065   */\n      dup2\n        /* \"#utility.yul\":7061:7074   */\n      lt\n        /* \"#utility.yul\":7042:7395   */\n      iszero\n      tag_367\n      jumpi\n        /* \"#utility.yul\":7143:7149   */\n      dup2\n        /* \"#utility.yul\":7137:7150   */\n      mload\n        /* \"#utility.yul\":7170:7279   */\n      tag_368\n        /* \"#utility.yul\":7275:7278   */\n      dup9\n        /* \"#utility.yul\":7260:7273   */\n      dup3\n        /* \"#utility.yul\":7170:7279   */\n      tag_278\n      jump\t// in\n    tag_368:\n        /* \"#utility.yul\":7163:7279   */\n      swap8\n      pop\n        /* \"#utility.yul\":7302:7385   */\n      tag_369\n        /* \"#utility.yul\":7378:7384   */\n      dup4\n        /* \"#utility.yul\":7302:7385   */\n      tag_279\n      jump\t// in\n    tag_369:\n        /* \"#utility.yul\":7292:7385   */\n      swap3\n      pop\n        /* \"#utility.yul\":7102:7395   */\n      pop\n        /* \"#utility.yul\":7089:7090   */\n      0x01\n        /* \"#utility.yul\":7086:7087   */\n      dup2\n        /* \"#utility.yul\":7082:7091   */\n      add\n        /* \"#utility.yul\":7077:7091   */\n      swap1\n      pop\n        /* \"#utility.yul\":7042:7395   */\n      jump(tag_365)\n    tag_367:\n        /* \"#utility.yul\":7046:7060   */\n      pop\n        /* \"#utility.yul\":7411:7414   */\n      dup6\n        /* \"#utility.yul\":7404:7414   */\n      swap4\n      pop\n        /* \"#utility.yul\":6674:7420   */\n      pop\n      pop\n      pop\n        /* \"#utility.yul\":6504:7420   */\n      swap3\n      swap2\n      pop\n      pop\n      jump\t// out\n        /* \"#utility.yul\":7426:7891   */\n    tag_21:\n        /* \"#utility.yul\":7615:7619   */\n      0x00\n        /* \"#utility.yul\":7653:7655   */\n      0x20\n        /* \"#utility.yul\":7642:7651   */\n      dup3\n        /* \"#utility.yul\":7638:7656   */\n      add\n        /* \"#utility.yul\":7630:7656   */\n      swap1\n      pop\n        /* \"#utility.yul\":7702:7711   */\n      dup2\n        /* \"#utility.yul\":7696:7700   */\n      dup2\n        /* \"#utility.yul\":7692:7712   */\n      sub\n        /* \"#utility.yul\":7688:7689   */\n      0x00\n        /* \"#utility.yul\":7677:7686   */\n      dup4\n        /* \"#utility.yul\":7673:7690   */\n      add\n        /* \"#utility.yul\":7666:7713   */\n      mstore\n        /* \"#utility.yul\":7730:7884   */\n      tag_371\n        /* \"#utility.yul\":7879:7883   */\n      dup2\n        /* \"#utility.yul\":7870:7876   */\n      dup5\n        /* \"#utility.yul\":7730:7884   */\n      tag_280\n      jump\t// in\n    tag_371:\n        /* \"#utility.yul\":7722:7884   */\n      swap1\n      pop\n        /* \"#utility.yul\":7426:7891   */\n      swap3\n      swap2\n      pop\n      pop\n      jump\t// out\n        /* \"#utility.yul\":7897:8226   */\n    tag_24:\n        /* \"#utility.yul\":7956:7962   */\n      0x00\n        /* \"#utility.yul\":8005:8007   */\n      0x20\n        /* \"#utility.yul\":7993:8002   */\n      dup3\n        /* \"#utility.yul\":7984:7991   */\n      dup5\n        /* \"#utility.yul\":7980:8003   */\n      sub\n        /* \"#utility.yul\":7976:8008   */\n      slt\n        /* \"#utility.yul\":7973:8092   */\n      iszero\n      tag_373\n      jumpi\n        /* \"#utility.yul\":8011:8090   */\n      tag_374\n      tag_256\n      jump\t// in\n    tag_374:\n        /* \"#utility.yul\":7973:8092   */\n    tag_373:\n        /* \"#utility.yul\":8131:8132   */\n      0x00\n        /* \"#utility.yul\":8156:8209   */\n      tag_375\n        /* \"#utility.yul\":8201:8208   */\n      dup5\n        /* \"#utility.yul\":8192:8198   */\n      dup3\n        /* \"#utility.yul\":8181:8190   */\n      dup6\n        /* \"#utility.yul\":8177:8199   */\n      add\n        /* \"#utility.yul\":8156:8209   */\n      tag_260\n      jump\t// in\n    tag_375:\n        /* \"#utility.yul\":8146:8209   */\n      swap2\n      pop\n        /* \"#utility.yul\":8102:8219   */\n      pop\n        /* \"#utility.yul\":7897:8226   */\n      swap3\n      swap2\n      pop\n      pop\n      jump\t// out\n        /* \"#utility.yul\":8232:8350   */\n    tag_281:\n        /* \"#utility.yul\":8319:8343   */\n      tag_377\n        /* \"#utility.yul\":8337:8342   */\n      dup2\n        /* \"#utility.yul\":8319:8343   */\n      tag_258\n      jump\t// in\n    tag_377:\n        /* \"#utility.yul\":8314:8317   */\n      dup3\n        /* \"#utility.yul\":8307:8344   */\n      mstore\n        /* \"#utility.yul\":8232:8350   */\n      pop\n      pop\n      jump\t// out\n        /* \"#utility.yul\":8356:8578   */\n    tag_30:\n        /* \"#utility.yul\":8449:8453   */\n      0x00\n        /* \"#utility.yul\":8487:8489   */\n      0x20\n        /* \"#utility.yul\":8476:8485   */\n      dup3\n        /* \"#utility.yul\":8472:8490   */\n      add\n        /* \"#utility.yul\":8464:8490   */\n      swap1\n      pop\n        /* \"#utility.yul\":8500:8571   */\n      tag_379\n        /* \"#utility.yul\":8568:8569   */\n      0x00\n        /* \"#utility.yul\":8557:8566   */\n      dup4\n        /* \"#utility.yul\":8553:8570   */\n      add\n        /* \"#utility.yul\":8544:8550   */\n      dup5\n        /* \"#utility.yul\":8500:8571   */\n      tag_281\n      jump\t// in\n    tag_379:\n        /* \"#utility.yul\":8356:8578   */\n      swap3\n      swap2\n      pop\n      pop\n      jump\t// out\n        /* \"#utility.yul\":8584:8706   */\n    tag_282:\n        /* \"#utility.yul\":8657:8681   */\n      tag_381\n        /* \"#utility.yul\":8675:8680   */\n      dup2\n        /* \"#utility.yul\":8657:8681   */\n      tag_266\n      jump\t// in\n    tag_381:\n        /* \"#utility.yul\":8650:8655   */\n      dup2\n        /* \"#utility.yul\":8647:8682   */\n      eq\n        /* \"#utility.yul\":8637:8700   */\n      tag_382\n      jumpi\n        /* \"#utility.yul\":8696:8697   */\n      0x00\n        /* \"#utility.yul\":8693:8694   */\n      dup1\n        /* \"#utility.yul\":8686:8698   */\n      revert\n        /* \"#utility.yul\":8637:8700   */\n    tag_382:\n        /* \"#utility.yul\":8584:8706   */\n      pop\n      jump\t// out\n        /* \"#utility.yul\":8712:8851   */\n    tag_283:\n        /* \"#utility.yul\":8758:8763   */\n      0x00\n        /* \"#utility.yul\":8796:8802   */\n      dup2\n        /* \"#utility.yul\":8783:8803   */\n      calldataload\n        /* \"#utility.yul\":8774:8803   */\n      swap1\n      pop\n        /* \"#utility.yul\":8812:8845   */\n      tag_384\n        /* \"#utility.yul\":8839:8844   */\n      dup2\n        /* \"#utility.yul\":8812:8845   */\n      tag_282\n      jump\t// in\n    tag_384:\n        /* \"#utility.yul\":8712:8851   */\n      swap3\n      swap2\n      pop\n      pop\n      jump\t// out\n        /* \"#utility.yul\":8857:9768   */\n    tag_33:\n        /* \"#utility.yul\":8952:8958   */\n      0x00\n        /* \"#utility.yul\":8960:8966   */\n      dup1\n        /* \"#utility.yul\":8968:8974   */\n      0x00\n        /* \"#utility.yul\":8976:8982   */\n      dup1\n        /* \"#utility.yul\":8984:8990   */\n      0x00\n        /* \"#utility.yul\":9033:9036   */\n      0xa0\n        /* \"#utility.yul\":9021:9030   */\n      dup7\n        /* \"#utility.yul\":9012:9019   */\n      dup9\n        /* \"#utility.yul\":9008:9031   */\n      sub\n        /* \"#utility.yul\":9004:9037   */\n      slt\n        /* \"#utility.yul\":9001:9121   */\n      iszero\n      tag_386\n      jumpi\n        /* \"#utility.yul\":9040:9119   */\n      tag_387\n      tag_256\n      jump\t// in\n    tag_387:\n        /* \"#utility.yul\":9001:9121   */\n    tag_386:\n        /* \"#utility.yul\":9160:9161   */\n      0x00\n        /* \"#utility.yul\":9185:9238   */\n      tag_388\n        /* \"#utility.yul\":9230:9237   */\n      dup9\n        /* \"#utility.yul\":9221:9227   */\n      dup3\n        /* \"#utility.yul\":9210:9219   */\n      dup10\n        /* \"#utility.yul\":9206:9228   */\n      add\n        /* \"#utility.yul\":9185:9238   */\n      tag_283\n      jump\t// in\n    tag_388:\n        /* \"#utility.yul\":9175:9238   */\n      swap6\n      pop\n        /* \"#utility.yul\":9131:9248   */\n      pop\n        /* \"#utility.yul\":9287:9289   */\n      0x20\n        /* \"#utility.yul\":9313:9366   */\n      tag_389\n        /* \"#utility.yul\":9358:9365   */\n      dup9\n        /* \"#utility.yul\":9349:9355   */\n      dup3\n        /* \"#utility.yul\":9338:9347   */\n      dup10\n        /* \"#utility.yul\":9334:9356   */\n      add\n        /* \"#utility.yul\":9313:9366   */\n      tag_260\n      jump\t// in\n    tag_389:\n        /* \"#utility.yul\":9303:9366   */\n      swap5\n      pop\n        /* \"#utility.yul\":9258:9376   */\n      pop\n        /* \"#utility.yul\":9415:9417   */\n      0x40\n        /* \"#utility.yul\":9441:9494   */\n      tag_390\n        /* \"#utility.yul\":9486:9493   */\n      dup9\n        /* \"#utility.yul\":9477:9483   */\n      dup3\n        /* \"#utility.yul\":9466:9475   */\n      dup10\n        /* \"#utility.yul\":9462:9484   */\n      add\n        /* \"#utility.yul\":9441:9494   */\n      tag_260\n      jump\t// in\n    tag_390:\n        /* \"#utility.yul\":9431:9494   */\n      swap4\n      pop\n        /* \"#utility.yul\":9386:9504   */\n      pop\n        /* \"#utility.yul\":9543:9545   */\n      0x60\n        /* \"#utility.yul\":9569:9622   */\n      tag_391\n        /* \"#utility.yul\":9614:9621   */\n      dup9\n        /* \"#utility.yul\":9605:9611   */\n      dup3\n        /* \"#utility.yul\":9594:9603   */\n      dup10\n        /* \"#utility.yul\":9590:9612   */\n      add\n        /* \"#utility.yul\":9569:9622   */\n      tag_260\n      jump\t// in\n    tag_391:\n        /* \"#utility.yul\":9559:9622   */\n      swap3\n      pop\n        /* \"#utility.yul\":9514:9632   */\n      pop\n        /* \"#utility.yul\":9671:9674   */\n      0x80\n        /* \"#utility.yul\":9698:9751   */\n      tag_392\n        /* \"#utility.yul\":9743:9750   */\n      dup9\n        /* \"#utility.yul\":9734:9740   */\n      dup3\n        /* \"#utility.yul\":9723:9732   */\n      dup10\n        /* \"#utility.yul\":9719:9741   */\n      add\n        /* \"#utility.yul\":9698:9751   */\n      tag_260\n      jump\t// in\n    tag_392:\n        /* \"#utility.yul\":9688:9751   */\n      swap2\n      pop\n        /* \"#utility.yul\":9642:9761   */\n      pop\n        /* \"#utility.yul\":8857:9768   */\n      swap3\n      swap6\n      pop\n      swap3\n      swap6\n      swap1\n      swap4\n      pop\n      jump\t// out\n        /* \"#utility.yul\":9774:9892   */\n    tag_284:\n        /* \"#utility.yul\":9861:9885   */\n      tag_394\n        /* \"#utility.yul\":9879:9884   */\n      dup2\n        /* \"#utility.yul\":9861:9885   */\n      tag_266\n      jump\t// in\n    tag_394:\n        /* \"#utility.yul\":9856:9859   */\n      dup3\n        /* \"#utility.yul\":9849:9886   */\n      mstore\n        /* \"#utility.yul\":9774:9892   */\n      pop\n      pop\n      jump\t// out\n        /* \"#utility.yul\":9898:10120   */\n    tag_39:\n        /* \"#utility.yul\":9991:9995   */\n      0x00\n        /* \"#utility.yul\":10029:10031   */\n      0x20\n        /* \"#utility.yul\":10018:10027   */\n      dup3\n        /* \"#utility.yul\":10014:10032   */\n      add\n        /* \"#utility.yul\":10006:10032   */\n      swap1\n      pop\n        /* \"#utility.yul\":10042:10113   */\n      tag_396\n        /* \"#utility.yul\":10110:10111   */\n      0x00\n        /* \"#utility.yul\":10099:10108   */\n      dup4\n        /* \"#utility.yul\":10095:10112   */\n      add\n        /* \"#utility.yul\":10086:10092   */\n      dup5\n        /* \"#utility.yul\":10042:10113   */\n      tag_284\n      jump\t// in\n    tag_396:\n        /* \"#utility.yul\":9898:10120   */\n      swap3\n      swap2\n      pop\n      pop\n      jump\t// out\n        /* \"#utility.yul\":10126:10455   */\n    tag_53:\n        /* \"#utility.yul\":10185:10191   */\n      0x00\n        /* \"#utility.yul\":10234:10236   */\n      0x20\n        /* \"#utility.yul\":10222:10231   */\n      dup3\n        /* \"#utility.yul\":10213:10220   */\n      dup5\n        /* \"#utility.yul\":10209:10232   */\n      sub\n        /* \"#utility.yul\":10205:10237   */\n      slt\n        /* \"#utility.yul\":10202:10321   */\n      iszero\n      tag_398\n      jumpi\n        /* \"#utility.yul\":10240:10319   */\n      tag_399\n      tag_256\n      jump\t// in\n    tag_399:\n        /* \"#utility.yul\":10202:10321   */\n    tag_398:\n        /* \"#utility.yul\":10360:10361   */\n      0x00\n        /* \"#utility.yul\":10385:10438   */\n      tag_400\n        /* \"#utility.yul\":10430:10437   */\n      dup5\n        /* \"#utility.yul\":10421:10427   */\n      dup3\n        /* \"#utility.yul\":10410:10419   */\n      dup6\n        /* \"#utility.yul\":10406:10428   */\n      add\n        /* \"#utility.yul\":10385:10438   */\n      tag_283\n      jump\t// in\n    tag_400:\n        /* \"#utility.yul\":10375:10438   */\n      swap2\n      pop\n        /* \"#utility.yul\":10331:10448   */\n      pop\n        /* \"#utility.yul\":10126:10455   */\n      swap3\n      swap2\n      pop\n      pop\n      jump\t// out\n        /* \"#utility.yul\":10461:10612   */\n    tag_285:\n        /* \"#utility.yul\":10558:10605   */\n      tag_402\n        /* \"#utility.yul\":10599:10604   */\n      dup2\n        /* \"#utility.yul\":10558:10605   */\n      tag_270\n      jump\t// in\n    tag_402:\n        /* \"#utility.yul\":10553:10556   */\n      dup3\n        /* \"#utility.yul\":10546:10606   */\n      mstore\n        /* \"#utility.yul\":10461:10612   */\n      pop\n      pop\n      jump\t// out\n        /* \"#utility.yul\":10618:10860   */\n    tag_60:\n        /* \"#utility.yul\":10721:10725   */\n      0x00\n        /* \"#utility.yul\":10759:10761   */\n      0x20\n        /* \"#utility.yul\":10748:10757   */\n      dup3\n        /* \"#utility.yul\":10744:10762   */\n      add\n        /* \"#utility.yul\":10736:10762   */\n      swap1\n      pop\n        /* \"#utility.yul\":10772:10853   */\n      tag_404\n        /* \"#utility.yul\":10850:10851   */\n      0x00\n        /* \"#utility.yul\":10839:10848   */\n      dup4\n        /* \"#utility.yul\":10835:10852   */\n      add\n        /* \"#utility.yul\":10826:10832   */\n      dup5\n        /* \"#utility.yul\":10772:10853   */\n      tag_285\n      jump\t// in\n    tag_404:\n        /* \"#utility.yul\":10618:10860   */\n      swap3\n      swap2\n      pop\n      pop\n      jump\t// out\n        /* \"#utility.yul\":10866:10926   */\n    tag_286:\n        /* \"#utility.yul\":10894:10897   */\n      0x00\n        /* \"#utility.yul\":10915:10920   */\n      dup2\n        /* \"#utility.yul\":10908:10920   */\n      swap1\n      pop\n        /* \"#utility.yul\":10866:10926   */\n      swap2\n      swap1\n      pop\n      jump\t// out\n        /* \"#utility.yul\":10932:11074   */\n    tag_287:\n        /* \"#utility.yul\":10982:10991   */\n      0x00\n        /* \"#utility.yul\":11015:11068   */\n      tag_407\n        /* \"#utility.yul\":11033:11067   */\n      tag_408\n        /* \"#utility.yul\":11042:11066   */\n      tag_409\n        /* \"#utility.yul\":11060:11065   */\n      dup5\n        /* \"#utility.yul\":11042:11066   */\n      tag_265\n      jump\t// in\n    tag_409:\n        /* \"#utility.yul\":11033:11067   */\n      tag_286\n      jump\t// in\n    tag_408:\n        /* \"#utility.yul\":11015:11068   */\n      tag_265\n      jump\t// in\n    tag_407:\n        /* \"#utility.yul\":11002:11068   */\n      swap1\n      pop\n        /* \"#utility.yul\":10932:11074   */\n      swap2\n      swap1\n      pop\n      jump\t// out\n        /* \"#utility.yul\":11080:11206   */\n    tag_288:\n        /* \"#utility.yul\":11130:11139   */\n      0x00\n        /* \"#utility.yul\":11163:11200   */\n      tag_411\n        /* \"#utility.yul\":11194:11199   */\n      dup3\n        /* \"#utility.yul\":11163:11200   */\n      tag_287\n      jump\t// in\n    tag_411:\n        /* \"#utility.yul\":11150:11200   */\n      swap1\n      pop\n        /* \"#utility.yul\":11080:11206   */\n      swap2\n      swap1\n      pop\n      jump\t// out\n        /* \"#utility.yul\":11212:11352   */\n    tag_289:\n        /* \"#utility.yul\":11276:11285   */\n      0x00\n        /* \"#utility.yul\":11309:11346   */\n      tag_413\n        /* \"#utility.yul\":11340:11345   */\n      dup3\n        /* \"#utility.yul\":11309:11346   */\n      tag_288\n      jump\t// in\n    tag_413:\n        /* \"#utility.yul\":11296:11346   */\n      swap1\n      pop\n        /* \"#utility.yul\":11212:11352   */\n      swap2\n      swap1\n      pop\n      jump\t// out\n        /* \"#utility.yul\":11358:11517   */\n    tag_290:\n        /* \"#utility.yul\":11459:11510   */\n      tag_415\n        /* \"#utility.yul\":11504:11509   */\n      dup2\n        /* \"#utility.yul\":11459:11510   */\n      tag_289\n      jump\t// in\n    tag_415:\n        /* \"#utility.yul\":11454:11457   */\n      dup3\n        /* \"#utility.yul\":11447:11511   */\n      mstore\n        /* \"#utility.yul\":11358:11517   */\n      pop\n      pop\n      jump\t// out\n        /* \"#utility.yul\":11523:11773   */\n    tag_64:\n        /* \"#utility.yul\":11630:11634   */\n      0x00\n        /* \"#utility.yul\":11668:11670   */\n      0x20\n        /* \"#utility.yul\":11657:11666   */\n      dup3\n        /* \"#utility.yul\":11653:11671   */\n      add\n        /* \"#utility.yul\":11645:11671   */\n      swap1\n      pop\n        /* \"#utility.yul\":11681:11766   */\n      tag_417\n        /* \"#utility.yul\":11763:11764   */\n      0x00\n        /* \"#utility.yul\":11752:11761   */\n      dup4\n        /* \"#utility.yul\":11748:11765   */\n      add\n        /* \"#utility.yul\":11739:11745   */\n      dup5\n        /* \"#utility.yul\":11681:11766   */\n      tag_290\n      jump\t// in\n    tag_417:\n        /* \"#utility.yul\":11523:11773   */\n      swap3\n      swap2\n      pop\n      pop\n      jump\t// out\n        /* \"#utility.yul\":11779:11959   */\n    tag_68:\n        /* \"#utility.yul\":11827:11904   */\n      0x4e487b7100000000000000000000000000000000000000000000000000000000\n        /* \"#utility.yul\":11824:11825   */\n      0x00\n        /* \"#utility.yul\":11817:11905   */\n      mstore\n        /* \"#utility.yul\":11924:11928   */\n      0x41\n        /* \"#utility.yul\":11921:11922   */\n      0x04\n        /* \"#utility.yul\":11914:11929   */\n      mstore\n        /* \"#utility.yul\":11948:11952   */\n      0x24\n        /* \"#utility.yul\":11945:11946   */\n      0x00\n        /* \"#utility.yul\":11938:11953   */\n      revert\n        /* \"#utility.yul\":11965:12145   */\n    tag_291:\n        /* \"#utility.yul\":12013:12090   */\n      0x4e487b7100000000000000000000000000000000000000000000000000000000\n        /* \"#utility.yul\":12010:12011   */\n      0x00\n        /* \"#utility.yul\":12003:12091   */\n      mstore\n        /* \"#utility.yul\":12110:12114   */\n      0x11\n        /* \"#utility.yul\":12107:12108   */\n      0x04\n        /* \"#utility.yul\":12100:12115   */\n      mstore\n        /* \"#utility.yul\":12134:12138   */\n      0x24\n        /* \"#utility.yul\":12131:12132   */\n      0x00\n        /* \"#utility.yul\":12124:12139   */\n      revert\n        /* \"#utility.yul\":12151:12342   */\n    tag_91:\n        /* \"#utility.yul\":12191:12194   */\n      0x00\n        /* \"#utility.yul\":12210:12230   */\n      tag_421\n        /* \"#utility.yul\":12228:12229   */\n      dup3\n        /* \"#utility.yul\":12210:12230   */\n      tag_258\n      jump\t// in\n    tag_421:\n        /* \"#utility.yul\":12205:12230   */\n      swap2\n      pop\n        /* \"#utility.yul\":12244:12264   */\n      tag_422\n        /* \"#utility.yul\":12262:12263   */\n      dup4\n        /* \"#utility.yul\":12244:12264   */\n      tag_258\n      jump\t// in\n    tag_422:\n        /* \"#utility.yul\":12239:12264   */\n      swap3\n      pop\n        /* \"#utility.yul\":12287:12288   */\n      dup3\n        /* \"#utility.yul\":12284:12285   */\n      dup3\n        /* \"#utility.yul\":12280:12289   */\n      add\n        /* \"#utility.yul\":12273:12289   */\n      swap1\n      pop\n        /* \"#utility.yul\":12308:12311   */\n      dup1\n        /* \"#utility.yul\":12305:12306   */\n      dup3\n        /* \"#utility.yul\":12302:12312   */\n      gt\n        /* \"#utility.yul\":12299:12335   */\n      iszero\n      tag_423\n      jumpi\n        /* \"#utility.yul\":12315:12333   */\n      tag_424\n      tag_291\n      jump\t// in\n    tag_424:\n        /* \"#utility.yul\":12299:12335   */\n    tag_423:\n        /* \"#utility.yul\":12151:12342   */\n      swap3\n      swap2\n      pop\n      pop\n      jump\t// out\n        /* \"#utility.yul\":12348:12528   */\n    tag_94:\n        /* \"#utility.yul\":12396:12473   */\n      0x4e487b7100000000000000000000000000000000000000000000000000000000\n        /* \"#utility.yul\":12393:12394   */\n      0x00\n        /* \"#utility.yul\":12386:12474   */\n      mstore\n        /* \"#utility.yul\":12493:12497   */\n      0x32\n        /* \"#utility.yul\":12490:12491   */\n      0x04\n        /* \"#utility.yul\":12483:12498   */\n      mstore\n        /* \"#utility.yul\":12517:12521   */\n      0x24\n        /* \"#utility.yul\":12514:12515   */\n      0x00\n        /* \"#utility.yul\":12507:12522   */\n      revert\n        /* \"#utility.yul\":12534:12767   */\n    tag_96:\n        /* \"#utility.yul\":12573:12576   */\n      0x00\n        /* \"#utility.yul\":12596:12620   */\n      tag_427\n        /* \"#utility.yul\":12614:12619   */\n      dup3\n        /* \"#utility.yul\":12596:12620   */\n      tag_258\n      jump\t// in\n    tag_427:\n        /* \"#utility.yul\":12587:12620   */\n      swap2\n      pop\n        /* \"#utility.yul\":12642:12708   */\n      0xffffffffffffffffffffffffffffffffffffffffffffffffffffffffffffffff\n        /* \"#utility.yul\":12635:12640   */\n      dup3\n        /* \"#utility.yul\":12632:12709   */\n      sub\n        /* \"#utility.yul\":12629:12732   */\n      tag_428\n      jumpi\n        /* \"#utility.yul\":12712:12730   */\n      tag_429\n      tag_291\n      jump\t// in\n    tag_429:\n        /* \"#utility.yul\":12629:12732   */\n    tag_428:\n        /* \"#utility.yul\":12759:12760   */\n      0x01\n        /* \"#utility.yul\":12752:12757   */\n      dup3\n        /* \"#utility.yul\":12748:12761   */\n      add\n        /* \"#utility.yul\":12741:12761   */\n      swap1\n      pop\n        /* \"#utility.yul\":12534:12767   */\n      swap2\n      swap1\n      pop\n      jump\t// out\n        /* \"#utility.yul\":12773:12944   */\n    tag_106:\n        /* \"#utility.yul\":12812:12815   */\n      0x00\n        /* \"#utility.yul\":12835:12859   */\n      tag_431\n        /* \"#utility.yul\":12853:12858   */\n      dup3\n        /* \"#utility.yul\":12835:12859   */\n      tag_258\n      jump\t// in\n    tag_431:\n        /* \"#utility.yul\":12826:12859   */\n      swap2\n      pop\n        /* \"#utility.yul\":12881:12885   */\n      0x00\n        /* \"#utility.yul\":12874:12879   */\n      dup3\n        /* \"#utility.yul\":12871:12886   */\n      sub\n        /* \"#utility.yul\":12868:12909   */\n      tag_432\n      jumpi\n        /* \"#utility.yul\":12889:12907   */\n      tag_433\n      tag_291\n      jump\t// in\n    tag_433:\n        /* \"#utility.yul\":12868:12909   */\n    tag_432:\n        /* \"#utility.yul\":12936:12937   */\n      0x01\n        /* \"#utility.yul\":12929:12934   */\n      dup3\n        /* \"#utility.yul\":12925:12938   */\n      sub\n        /* \"#utility.yul\":12918:12938   */\n      swap1\n      pop\n        /* \"#utility.yul\":12773:12944   */\n      swap2\n      swap1\n      pop\n      jump\t// out\n        /* \"#utility.yul\":12950:13144   */\n    tag_127:\n        /* \"#utility.yul\":12990:12994   */\n      0x00\n        /* \"#utility.yul\":13010:13030   */\n      tag_435\n        /* \"#utility.yul\":13028:13029   */\n      dup3\n        /* \"#utility.yul\":13010:13030   */\n      tag_258\n      jump\t// in\n    tag_435:\n        /* \"#utility.yul\":13005:13030   */\n      swap2\n      pop\n        /* \"#utility.yul\":13044:13064   */\n      tag_436\n        /* \"#utility.yul\":13062:13063   */\n      dup4\n        /* \"#utility.yul\":13044:13064   */\n      tag_258\n      jump\t// in\n    tag_436:\n        /* \"#utility.yul\":13039:13064   */\n      swap3\n      pop\n        /* \"#utility.yul\":13088:13089   */\n      dup3\n        /* \"#utility.yul\":13085:13086   */\n      dup3\n        /* \"#utility.yul\":13081:13090   */\n      sub\n        /* \"#utility.yul\":13073:13090   */\n      swap1\n      pop\n        /* \"#utility.yul\":13112:13113   */\n      dup2\n        /* \"#utility.yul\":13106:13110   */\n      dup2\n        /* \"#utility.yul\":13103:13114   */\n      gt\n        /* \"#utility.yul\":13100:13137   */\n      iszero\n      tag_437\n      jumpi\n        /* \"#utility.yul\":13117:13135   */\n      tag_438\n      tag_291\n      jump\t// in\n    tag_438:\n        /* \"#utility.yul\":13100:13137   */\n    tag_437:\n        /* \"#utility.yul\":12950:13144   */\n      swap3\n      swap2\n      pop\n      pop\n      jump\t// out\n        /* \"#utility.yul\":13150:13592   */\n    tag_142:\n        /* \"#utility.yul\":13299:13303   */\n      0x00\n        /* \"#utility.yul\":13337:13339   */\n      0x60\n        /* \"#utility.yul\":13326:13335   */\n      dup3\n        /* \"#utility.yul\":13322:13340   */\n      add\n        /* \"#utility.yul\":13314:13340   */\n      swap1\n      pop\n        /* \"#utility.yul\":13350:13421   */\n      tag_440\n        /* \"#utility.yul\":13418:13419   */\n      0x00\n        /* \"#utility.yul\":13407:13416   */\n      dup4\n        /* \"#utility.yul\":13403:13420   */\n      add\n        /* \"#utility.yul\":13394:13400   */\n      dup7\n        /* \"#utility.yul\":13350:13421   */\n      tag_284\n      jump\t// in\n    tag_440:\n        /* \"#utility.yul\":13431:13503   */\n      tag_441\n        /* \"#utility.yul\":13499:13501   */\n      0x20\n        /* \"#utility.yul\":13488:13497   */\n      dup4\n        /* \"#utility.yul\":13484:13502   */\n      add\n        /* \"#utility.yul\":13475:13481   */\n      dup6\n        /* \"#utility.yul\":13431:13503   */\n      tag_284\n      jump\t// in\n    tag_441:\n        /* \"#utility.yul\":13513:13585   */\n      tag_442\n        /* \"#utility.yul\":13581:13583   */\n      0x40\n        /* \"#utility.yul\":13570:13579   */\n      dup4\n        /* \"#utility.yul\":13566:13584   */\n      add\n        /* \"#utility.yul\":13557:13563   */\n      dup5\n        /* \"#utility.yul\":13513:13585   */\n      tag_281\n      jump\t// in\n    tag_442:\n        /* \"#utility.yul\":13150:13592   */\n      swap5\n      swap4\n      pop\n      pop\n      pop\n      pop\n      jump\t// out\n        /* \"#utility.yul\":13598:13688   */\n    tag_292:\n        /* \"#utility.yul\":13632:13639   */\n      0x00\n        /* \"#utility.yul\":13675:13680   */\n      dup2\n        /* \"#utility.yul\":13668:13681   */\n      iszero\n        /* \"#utility.yul\":13661:13682   */\n      iszero\n        /* \"#utility.yul\":13650:13682   */\n      swap1\n      pop\n        /* \"#utility.yul\":13598:13688   */\n      swap2\n      swap1\n      pop\n      jump\t// out\n        /* \"#utility.yul\":13694:13810   */\n    tag_293:\n        /* \"#utility.yul\":13764:13785   */\n      tag_445\n        /* \"#utility.yul\":13779:13784   */\n      dup2\n        /* \"#utility.yul\":13764:13785   */\n      tag_292\n      jump\t// in\n    tag_445:\n        /* \"#utility.yul\":13757:13762   */\n      dup2\n        /* \"#utility.yul\":13754:13786   */\n      eq\n        /* \"#utility.yul\":13744:13804   */\n      tag_446\n      jumpi\n        /* \"#utility.yul\":13800:13801   */\n      0x00\n        /* \"#utility.yul\":13797:13798   */\n      dup1\n        /* \"#utility.yul\":13790:13802   */\n      revert\n        /* \"#utility.yul\":13744:13804   */\n    tag_446:\n        /* \"#utility.yul\":13694:13810   */\n      pop\n      jump\t// out\n        /* \"#utility.yul\":13816:13953   */\n    tag_294:\n        /* \"#utility.yul\":13870:13875   */\n      0x00\n        /* \"#utility.yul\":13901:13907   */\n      dup2\n        /* \"#utility.yul\":13895:13908   */\n      mload\n        /* \"#utility.yul\":13886:13908   */\n      swap1\n      pop\n        /* \"#utility.yul\":13917:13947   */\n      tag_448\n        /* \"#utility.yul\":13941:13946   */\n      dup2\n        /* \"#utility.yul\":13917:13947   */\n      tag_293\n      jump\t// in\n    tag_448:\n        /* \"#utility.yul\":13816:13953   */\n      swap3\n      swap2\n      pop\n      pop\n      jump\t// out\n        /* \"#utility.yul\":13959:14304   */\n    tag_146:\n        /* \"#utility.yul\":14026:14032   */\n      0x00\n        /* \"#utility.yul\":14075:14077   */\n      0x20\n        /* \"#utility.yul\":14063:14072   */\n      dup3\n        /* \"#utility.yul\":14054:14061   */\n      dup5\n        /* \"#utility.yul\":14050:14073   */\n      sub\n        /* \"#utility.yul\":14046:14078   */\n      slt\n        /* \"#utility.yul\":14043:14162   */\n      iszero\n      tag_450\n      jumpi\n        /* \"#utility.yul\":14081:14160   */\n      tag_451\n      tag_256\n      jump\t// in\n    tag_451:\n        /* \"#utility.yul\":14043:14162   */\n    tag_450:\n        /* \"#utility.yul\":14201:14202   */\n      0x00\n        /* \"#utility.yul\":14226:14287   */\n      tag_452\n        /* \"#utility.yul\":14279:14286   */\n      dup5\n        /* \"#utility.yul\":14270:14276   */\n      dup3\n        /* \"#utility.yul\":14259:14268   */\n      dup6\n        /* \"#utility.yul\":14255:14277   */\n      add\n        /* \"#utility.yul\":14226:14287   */\n      tag_294\n      jump\t// in\n    tag_452:\n        /* \"#utility.yul\":14216:14287   */\n      swap2\n      pop\n        /* \"#utility.yul\":14172:14297   */\n      pop\n        /* \"#utility.yul\":13959:14304   */\n      swap3\n      swap2\n      pop\n      pop\n      jump\t// out\n        /* \"#utility.yul\":14310:14459   */\n    tag_295:\n        /* \"#utility.yul\":14346:14353   */\n      0x00\n        /* \"#utility.yul\":14386:14452   */\n      0xffffffff00000000000000000000000000000000000000000000000000000000\n        /* \"#utility.yul\":14379:14384   */\n      dup3\n        /* \"#utility.yul\":14375:14453   */\n      and\n        /* \"#utility.yul\":14364:14453   */\n      swap1\n      pop\n        /* \"#utility.yul\":14310:14459   */\n      swap2\n      swap1\n      pop\n      jump\t// out\n        /* \"#utility.yul\":14465:14580   */\n    tag_296:\n        /* \"#utility.yul\":14550:14573   */\n      tag_455\n        /* \"#utility.yul\":14567:14572   */\n      dup2\n        /* \"#utility.yul\":14550:14573   */\n      tag_295\n      jump\t// in\n    tag_455:\n        /* \"#utility.yul\":14545:14548   */\n      dup3\n        /* \"#utility.yul\":14538:14574   */\n      mstore\n        /* \"#utility.yul\":14465:14580   */\n      pop\n      pop\n      jump\t// out\n        /* \"#utility.yul\":14586:14804   */\n    tag_174:\n        /* \"#utility.yul\":14677:14681   */\n      0x00\n        /* \"#utility.yul\":14715:14717   */\n      0x20\n        /* \"#utility.yul\":14704:14713   */\n      dup3\n        /* \"#utility.yul\":14700:14718   */\n      add\n        /* \"#utility.yul\":14692:14718   */\n      swap1\n      pop\n        /* \"#utility.yul\":14728:14797   */\n      tag_457\n        /* \"#utility.yul\":14794:14795   */\n      0x00\n        /* \"#utility.yul\":14783:14792   */\n      dup4\n        /* \"#utility.yul\":14779:14796   */\n      add\n        /* \"#utility.yul\":14770:14776   */\n      dup5\n        /* \"#utility.yul\":14728:14797   */\n      tag_296\n      jump\t// in\n    tag_457:\n        /* \"#utility.yul\":14586:14804   */\n      swap3\n      swap2\n      pop\n      pop\n      jump\t// out\n        /* \"#utility.yul\":14810:14978   */\n    tag_297:\n        /* \"#utility.yul\":14893:14904   */\n      0x00\n        /* \"#utility.yul\":14927:14933   */\n      dup3\n        /* \"#utility.yul\":14922:14925   */\n      dup3\n        /* \"#utility.yul\":14915:14934   */\n      mstore\n        /* \"#utility.yul\":14967:14971   */\n      0x20\n        /* \"#utility.yul\":14962:14965   */\n      dup3\n        /* \"#utility.yul\":14958:14972   */\n      add\n        /* \"#utility.yul\":14943:14972   */\n      swap1\n      pop\n        /* \"#utility.yul\":14810:14978   */\n      swap3\n      swap2\n      pop\n      pop\n      jump\t// out\n        /* \"#utility.yul\":14984:15098   */\n    tag_298:\n      pop\n      jump\t// out\n        /* \"#utility.yul\":15104:15466   */\n    tag_299:\n        /* \"#utility.yul\":15245:15248   */\n      0x00\n        /* \"#utility.yul\":15266:15331   */\n      tag_461\n        /* \"#utility.yul\":15329:15330   */\n      0x00\n        /* \"#utility.yul\":15324:15327   */\n      dup4\n        /* \"#utility.yul\":15266:15331   */\n      tag_297\n      jump\t// in\n    tag_461:\n        /* \"#utility.yul\":15259:15331   */\n      swap2\n      pop\n        /* \"#utility.yul\":15340:15433   */\n      tag_462\n        /* \"#utility.yul\":15429:15432   */\n      dup3\n        /* \"#utility.yul\":15340:15433   */\n      tag_298\n      jump\t// in\n    tag_462:\n        /* \"#utility.yul\":15458:15459   */\n      0x00\n        /* \"#utility.yul\":15453:15456   */\n      dup3\n        /* \"#utility.yul\":15449:15460   */\n      add\n        /* \"#utility.yul\":15442:15460   */\n      swap1\n      pop\n        /* \"#utility.yul\":15104:15466   */\n      swap2\n      swap1\n      pop\n      jump\t// out\n        /* \"#utility.yul\":15472:16331   */\n    tag_213:\n        /* \"#utility.yul\":15749:15753   */\n      0x00\n        /* \"#utility.yul\":15787:15790   */\n      0xa0\n        /* \"#utility.yul\":15776:15785   */\n      dup3\n        /* \"#utility.yul\":15772:15791   */\n      add\n        /* \"#utility.yul\":15764:15791   */\n      swap1\n      pop\n        /* \"#utility.yul\":15801:15872   */\n      tag_464\n        /* \"#utility.yul\":15869:15870   */\n      0x00\n        /* \"#utility.yul\":15858:15867   */\n      dup4\n        /* \"#utility.yul\":15854:15871   */\n      add\n        /* \"#utility.yul\":15845:15851   */\n      dup8\n        /* \"#utility.yul\":15801:15872   */\n      tag_284\n      jump\t// in\n    tag_464:\n        /* \"#utility.yul\":15882:15954   */\n      tag_465\n        /* \"#utility.yul\":15950:15952   */\n      0x20\n        /* \"#utility.yul\":15939:15948   */\n      dup4\n        /* \"#utility.yul\":15935:15953   */\n      add\n        /* \"#utility.yul\":15926:15932   */\n      dup7\n        /* \"#utility.yul\":15882:15954   */\n      tag_284\n      jump\t// in\n    tag_465:\n        /* \"#utility.yul\":15964:16036   */\n      tag_466\n        /* \"#utility.yul\":16032:16034   */\n      0x40\n        /* \"#utility.yul\":16021:16030   */\n      dup4\n        /* \"#utility.yul\":16017:16035   */\n      add\n        /* \"#utility.yul\":16008:16014   */\n      dup6\n        /* \"#utility.yul\":15964:16036   */\n      tag_281\n      jump\t// in\n    tag_466:\n        /* \"#utility.yul\":16046:16118   */\n      tag_467\n        /* \"#utility.yul\":16114:16116   */\n      0x60\n        /* \"#utility.yul\":16103:16112   */\n      dup4\n        /* \"#utility.yul\":16099:16117   */\n      add\n        /* \"#utility.yul\":16090:16096   */\n      dup5\n        /* \"#utility.yul\":16046:16118   */\n      tag_281\n      jump\t// in\n    tag_467:\n        /* \"#utility.yul\":16166:16175   */\n      dup2\n        /* \"#utility.yul\":16160:16164   */\n      dup2\n        /* \"#utility.yul\":16156:16176   */\n      sub\n        /* \"#utility.yul\":16150:16153   */\n      0x80\n        /* \"#utility.yul\":16139:16148   */\n      dup4\n        /* \"#utility.yul\":16135:16154   */\n      add\n        /* \"#utility.yul\":16128:16177   */\n      mstore\n        /* \"#utility.yul\":16194:16324   */\n      tag_468\n        /* \"#utility.yul\":16319:16323   */\n      dup2\n        /* \"#utility.yul\":16194:16324   */\n      tag_299\n      jump\t// in\n    tag_468:\n        /* \"#utility.yul\":16186:16324   */\n      swap1\n      pop\n        /* \"#utility.yul\":15472:16331   */\n      swap6\n      swap5\n      pop\n      pop\n      pop\n      pop\n      pop\n      jump\t// out\n\n    auxdata: 0xa2646970667358221220d1ee907afb38fcf7c2fd680072fcbffaa6c1dc05b70abadda9dc8d9e1214feeb64736f6c63430008120033\n}\n",
				"bytecode": {
					"linkReferences": {},
					"object": "60806040523480156200001157600080fd5b506040516200235c3803806200235c83398181016040528101906200003791906200012a565b816000806101000a81548173ffffffffffffffffffffffffffffffffffffffff021916908373ffffffffffffffffffffffffffffffffffffffff16021790555080600160006101000a81548173ffffffffffffffffffffffffffffffffffffffff021916908373ffffffffffffffffffffffffffffffffffffffff160217905550505062000171565b600080fd5b600073ffffffffffffffffffffffffffffffffffffffff82169050919050565b6000620000f282620000c5565b9050919050565b6200010481620000e5565b81146200011057600080fd5b50565b6000815190506200012481620000f9565b92915050565b60008060408385031215620001445762000143620000c0565b5b6000620001548582860162000113565b9250506020620001678582860162000113565b9150509250929050565b6121db80620001816000396000f3fe608060405234801561001057600080fd5b50600436106100b45760003560e01c8063a6aa57ce11610071578063a6aa57ce1461019d578063c5ebeaec146101b9578063ccf01b7e146101d5578063df8089ef146101df578063f85565fb1461020f578063fc0c546a1461023f576100b4565b8063038d67e8146100b95780630f9a71d7146100e957806349f202ff1461010557806350a8f34f146101355780636fa425fe146101515780637b64fd9814610181575b600080fd5b6100d360048036038101906100ce91906119ac565b61025d565b6040516100e09190611ca3565b60405180910390f35b61010360048036038101906100fe9190611cc5565b610526565b005b61011f600480360381019061011a9190611cc5565b61064b565b60405161012c9190611d01565b60405180910390f35b61014f600480360381019061014a9190611d48565b61066e565b005b61016b60048036038101906101669190611cc5565b610979565b6040516101789190611dd2565b60405180910390f35b61019b60048036038101906101969190611cc5565b6109bc565b005b6101b760048036038101906101b29190611cc5565b610af7565b005b6101d360048036038101906101ce9190611cc5565b610d20565b005b6101dd610fba565b005b6101f960048036038101906101f49190611ded565b611016565b6040516102069190611dd2565b60405180910390f35b61022960048036038101906102249190611ded565b6110b9565b6040516102369190611e29565b60405180910390f35b61024761121c565b6040516102549190611ea3565b60405180910390f35b606060008267ffffffffffffffff81111561027b5761027a611ebe565b5b6040519080825280602002602001820160405280156102b457816020015b6102a161184d565b8152602001906001900390816102995790505b5090506102bf61184d565b6102c76118d6565b60005b858111610519576102e587600261124090919063ffffffff16565b9150600460008360000151815260200190815260200160002060405180610100016040529081600082015481526020016001820160009054906101000a900473ffffffffffffffffffffffffffffffffffffffff1673ffffffffffffffffffffffffffffffffffffffff1673ffffffffffffffffffffffffffffffffffffffff1681526020016002820154815260200160038201548152602001600482015481526020016005820160009054906101000a900473ffffffffffffffffffffffffffffffffffffffff1673ffffffffffffffffffffffffffffffffffffffff1673ffffffffffffffffffffffffffffffffffffffff168152602001600682016040518060800160405290816000820160009054906101000a900473ffffffffffffffffffffffffffffffffffffffff1673ffffffffffffffffffffffffffffffffffffffff1673ffffffffffffffffffffffffffffffffffffffff168152602001600182015481526020016002820160009054906101000a900460ff16600281111561047357610472611a68565b5b600281111561048557610484611a68565b5b81526020016003820154815250508152602001600a820160009054906101000a900460ff1660038111156104bc576104bb611a68565b5b60038111156104ce576104cd611a68565b5b81525050925082846001836104e39190611f1c565b815181106104f4576104f3611f50565b5b602002602001018190525081604001519650808061051190611f7f565b9150506102ca565b5082935050505092915050565b6004600082815260200190815260200160002060010160009054906101000a900473ffffffffffffffffffffffffffffffffffffffff1673ffffffffffffffffffffffffffffffffffffffff163373ffffffffffffffffffffffffffffffffffffffff161461059457600080fd5b60006004600083815260200190815260200160002060060160030154905060006105bd83610979565b905060006105ca8461064b565b90506105d982823033876112a9565b600360046000868152602001908152602001600020600a0160006101000a81548160ff0219169083600381111561061357610612611a68565b5b02179055506005600081548092919061062b90611fc7565b91905055506106448460026114f090919063ffffffff16565b5050505050565b600060046000838152602001908152602001600020600601600101549050919050565b6000610679866110b9565b9050600060405180608001604052808873ffffffffffffffffffffffffffffffffffffffff1681526020018781526020018360028111156106bd576106bc611a68565b5b815260200186815250905060006040518061010001604052804381526020013373ffffffffffffffffffffffffffffffffffffffff16815260200186815260200185815260200160008152602001600073ffffffffffffffffffffffffffffffffffffffff1681526020018381526020016000600381111561074257610741611a68565b5b81525090506005600081548092919061075a90611f7f565b9190505550806004600060055481526020019081526020016000206000820151816000015560208201518160010160006101000a81548173ffffffffffffffffffffffffffffffffffffffff021916908373ffffffffffffffffffffffffffffffffffffffff16021790555060408201518160020155606082015181600301556080820151816004015560a08201518160050160006101000a81548173ffffffffffffffffffffffffffffffffffffffff021916908373ffffffffffffffffffffffffffffffffffffffff16021790555060c08201518160060160008201518160000160006101000a81548173ffffffffffffffffffffffffffffffffffffffff021916908373ffffffffffffffffffffffffffffffffffffffff1602179055506020820151816001015560408201518160020160006101000a81548160ff021916908360028111156108b0576108af611a68565b5b021790555060608201518160030155505060e082015181600a0160006101000a81548160ff021916908360038111156108ec576108eb611a68565b5b0217905550905050600554600360008a73ffffffffffffffffffffffffffffffffffffffff1673ffffffffffffffffffffffffffffffffffffffff168152602001908152602001600020600089815260200190815260200160002081905550610958888833308a6112a9565b61096e600554600261150f90919063ffffffff16565b505050505050505050565b60006004600083815260200190815260200160002060060160000160009054906101000a900473ffffffffffffffffffffffffffffffffffffffff169050919050565b60046000828152602001908152602001600020600301546004600083815260200190815260200160002060040154426109f59190611ff0565b116109ff57600080fd5b6004600082815260200190815260200160002060050160009054906101000a900473ffffffffffffffffffffffffffffffffffffffff1673ffffffffffffffffffffffffffffffffffffffff163373ffffffffffffffffffffffffffffffffffffffff1614610a6d57600080fd5b6000610a7882610979565b90506000610a858361064b565b9050600060046000858152602001908152602001600020600601600301549050610ab283833033856112a9565b600360046000868152602001908152602001600020600a0160006101000a81548160ff02191690836003811115610aec57610aeb611a68565b5b021790555050505050565b60006003811115610b0b57610b0a611a68565b5b60046000838152602001908152602001600020600a0160009054906101000a900460ff166003811115610b4157610b40611a68565b5b14610b4b57600080fd5b60008054906101000a900473ffffffffffffffffffffffffffffffffffffffff1673ffffffffffffffffffffffffffffffffffffffff166323b872dd6004600084815260200190815260200160002060050160009054906101000a900473ffffffffffffffffffffffffffffffffffffffff166004600085815260200190815260200160002060010160009054906101000a900473ffffffffffffffffffffffffffffffffffffffff1660046000868152602001908152602001600020600201546040518463ffffffff1660e01b8152600401610c2a93929190612024565b6020604051808303816000875af1158015610c49573d6000803e3d6000fd5b505050506040513d601f19601f82011682018060405250810190610c6d9190612093565b50336004600083815260200190815260200160002060050160006101000a81548173ffffffffffffffffffffffffffffffffffffffff021916908373ffffffffffffffffffffffffffffffffffffffff160217905550426004600083815260200190815260200160002060040181905550600160046000838152602001908152602001600020600a0160006101000a81548160ff02191690836003811115610d1857610d17611a68565b5b021790555050565b6004600082815260200190815260200160002060030154600460008381526020019081526020016000206004015442610d599190611ff0565b1115610d6457600080fd5b6004600082815260200190815260200160002060010160009054906101000a900473ffffffffffffffffffffffffffffffffffffffff1673ffffffffffffffffffffffffffffffffffffffff163373ffffffffffffffffffffffffffffffffffffffff1614610dd257600080fd5b6000610df3600460008481526020019081526020016000206002015461152e565b90506000610e0083610979565b90506000610e0d8461064b565b905060008054906101000a900473ffffffffffffffffffffffffffffffffffffffff1673ffffffffffffffffffffffffffffffffffffffff166323b872dd6004600087815260200190815260200160002060010160009054906101000a900473ffffffffffffffffffffffffffffffffffffffff166004600088815260200190815260200160002060050160009054906101000a900473ffffffffffffffffffffffffffffffffffffffff16866040518463ffffffff1660e01b8152600401610ed893929190612024565b6020604051808303816000875af1158015610ef7573d6000803e3d6000fd5b505050506040513d601f19601f82011682018060405250810190610f1b9190612093565b50600260046000868152602001908152602001600020600a0160006101000a81548160ff02191690836003811115610f5657610f55611a68565b5b021790555060056000815480929190610f6e90611fc7565b9190505550610f878460026114f090919063ffffffff16565b50600060046000868152602001908152602001600020600601600301549050610fb383833033856112a9565b5050505050565b600160009054906101000a900473ffffffffffffffffffffffffffffffffffffffff1673ffffffffffffffffffffffffffffffffffffffff163373ffffffffffffffffffffffffffffffffffffffff161461101457600080fd5b565b6000600160009054906101000a900473ffffffffffffffffffffffffffffffffffffffff1673ffffffffffffffffffffffffffffffffffffffff163373ffffffffffffffffffffffffffffffffffffffff161461107257600080fd5b81600160006101000a81548173ffffffffffffffffffffffffffffffffffffffff021916908373ffffffffffffffffffffffffffffffffffffffff16021790559050919050565b6000808290508073ffffffffffffffffffffffffffffffffffffffff166301ffc9a77f80ac58cd000000000000000000000000000000000000000000000000000000006040518263ffffffff1660e01b815260040161111891906120fb565b602060405180830381865afa158015611135573d6000803e3d6000fd5b505050506040513d601f19601f820116820180604052508101906111599190612093565b15611168576000915050611217565b8073ffffffffffffffffffffffffffffffffffffffff166301ffc9a77fd9b67a26000000000000000000000000000000000000000000000000000000006040518263ffffffff1660e01b81526004016111c191906120fb565b602060405180830381865afa1580156111de573d6000803e3d6000fd5b505050506040513d601f19601f820116820180604052508101906112029190612093565b15611211576001915050611217565b60029150505b919050565b60008054906101000a900473ffffffffffffffffffffffffffffffffffffffff1681565b6112486118d6565b600061125f8460000161125a85611538565b611545565b905060405180606001604052806112798360000151611593565b815260200161128b8360200151611593565b815260200161129d8360400151611593565b81525091505092915050565b600060028111156112bd576112bc611a68565b5b60046000600360008973ffffffffffffffffffffffffffffffffffffffff1673ffffffffffffffffffffffffffffffffffffffff168152602001908152602001600020600088815260200190815260200160002054815260200190815260200160002060060160020160009054906101000a900460ff16600281111561134657611345611a68565b5b036113c55760008590508073ffffffffffffffffffffffffffffffffffffffff166323b872dd8585886040518463ffffffff1660e01b815260040161138d93929190612024565b600060405180830381600087803b1580156113a757600080fd5b505af11580156113bb573d6000803e3d6000fd5b50505050506114e9565b600160028111156113d9576113d8611a68565b5b60046000600360008973ffffffffffffffffffffffffffffffffffffffff1673ffffffffffffffffffffffffffffffffffffffff168152602001908152602001600020600088815260200190815260200160002054815260200190815260200160002060060160020160009054906101000a900460ff16600281111561146257611461611a68565b5b036114e35760008590508073ffffffffffffffffffffffffffffffffffffffff1663f242432a858588866040518563ffffffff1660e01b81526004016114ab949392919061214d565b600060405180830381600087803b1580156114c557600080fd5b505af11580156114d9573d6000803e3d6000fd5b50505050506114e8565b600080fd5b5b5050505050565b60006115078360000161150284611538565b6115a0565b905092915050565b60006115268360000161152184611538565b6116ca565b905092915050565b6000819050919050565b60008160001b9050919050565b61154d6118f7565b8260000160008381526020019081526020016000206040518060600160405290816000820154815260200160018201548152602001600282015481525050905092915050565b60008160001c9050919050565b60006115ac8383611776565b6115b957600090506116c4565b60008360000160008560000160008681526020019081526020016000206001015481526020019081526020016000209050600084600001600085815260200190815260200160002060405180606001604052908160008201548152602001600182015481526020016002820154815250509050600081604001519050600086600001600088600001600089815260200190815260200160002060020154815260200190815260200160002090506000801b821461167e57836000015481600101819055505b8060000154846002018190555086600001600087815260200190815260200160002060008082016000905560018201600090556002820160009055505050505050600190505b92915050565b6000806116d68461179f565b90506116e28484611776565b156116f1576000915050611770565b8284600001600083600001518152602001908152602001600020600201819055506040518060600160405280848152602001826000015181526020016000801b81525084600001600085815260200190815260200160002060008201518160000155602082015181600101556040820151816002015590505060019150505b92915050565b60008060001b836000016000848152602001908152602001600020600001541415905092915050565b6117a76118f7565b60008260000160008060001b8152602001908152602001600020604051806060016040529081600082015481526020016001820154815260200160028201548152505090505b6000801b8160400151146118445782600001600082604001518152602001908152602001600020604051806060016040529081600082015481526020016001820154815260200160028201548152505090506117ed565b80915050919050565b60405180610100016040528060008152602001600073ffffffffffffffffffffffffffffffffffffffff168152602001600081526020016000815260200160008152602001600073ffffffffffffffffffffffffffffffffffffffff1681526020016118b7611921565b8152602001600060038111156118d0576118cf611a68565b5b81525090565b60405180606001604052806000815260200160008152602001600081525090565b60405180606001604052806000801916815260200160008019168152602001600080191681525090565b6040518060800160405280600073ffffffffffffffffffffffffffffffffffffffff168152602001600081526020016000600281111561196457611963611a68565b5b8152602001600081525090565b600080fd5b6000819050919050565b61198981611976565b811461199457600080fd5b50565b6000813590506119a681611980565b92915050565b600080604083850312156119c3576119c2611971565b5b60006119d185828601611997565b92505060206119e285828601611997565b9150509250929050565b600081519050919050565b600082825260208201905092915050565b6000819050602082019050919050565b611a2181611976565b82525050565b600073ffffffffffffffffffffffffffffffffffffffff82169050919050565b6000611a5282611a27565b9050919050565b611a6281611a47565b82525050565b7f4e487b7100000000000000000000000000000000000000000000000000000000600052602160045260246000fd5b60038110611aa857611aa7611a68565b5b50565b6000819050611ab982611a97565b919050565b6000611ac982611aab565b9050919050565b611ad981611abe565b82525050565b608082016000820151611af56000850182611a59565b506020820151611b086020850182611a18565b506040820151611b1b6040850182611ad0565b506060820151611b2e6060850182611a18565b50505050565b60048110611b4557611b44611a68565b5b50565b6000819050611b5682611b34565b919050565b6000611b6682611b48565b9050919050565b611b7681611b5b565b82525050565b61016082016000820151611b936000850182611a18565b506020820151611ba66020850182611a59565b506040820151611bb96040850182611a18565b506060820151611bcc6060850182611a18565b506080820151611bdf6080850182611a18565b5060a0820151611bf260a0850182611a59565b5060c0820151611c0560c0850182611adf565b5060e0820151611c19610140850182611b6d565b50505050565b6000611c2b8383611b7c565b6101608301905092915050565b6000602082019050919050565b6000611c50826119ec565b611c5a81856119f7565b9350611c6583611a08565b8060005b83811015611c96578151611c7d8882611c1f565b9750611c8883611c38565b925050600181019050611c69565b5085935050505092915050565b60006020820190508181036000830152611cbd8184611c45565b905092915050565b600060208284031215611cdb57611cda611971565b5b6000611ce984828501611997565b91505092915050565b611cfb81611976565b82525050565b6000602082019050611d166000830184611cf2565b92915050565b611d2581611a47565b8114611d3057600080fd5b50565b600081359050611d4281611d1c565b92915050565b600080600080600060a08688031215611d6457611d63611971565b5b6000611d7288828901611d33565b9550506020611d8388828901611997565b9450506040611d9488828901611997565b9350506060611da588828901611997565b9250506080611db688828901611997565b9150509295509295909350565b611dcc81611a47565b82525050565b6000602082019050611de76000830184611dc3565b92915050565b600060208284031215611e0357611e02611971565b5b6000611e1184828501611d33565b91505092915050565b611e2381611abe565b82525050565b6000602082019050611e3e6000830184611e1a565b92915050565b6000819050919050565b6000611e69611e64611e5f84611a27565b611e44565b611a27565b9050919050565b6000611e7b82611e4e565b9050919050565b6000611e8d82611e70565b9050919050565b611e9d81611e82565b82525050565b6000602082019050611eb86000830184611e94565b92915050565b7f4e487b7100000000000000000000000000000000000000000000000000000000600052604160045260246000fd5b7f4e487b7100000000000000000000000000000000000000000000000000000000600052601160045260246000fd5b6000611f2782611976565b9150611f3283611976565b9250828201905080821115611f4a57611f49611eed565b5b92915050565b7f4e487b7100000000000000000000000000000000000000000000000000000000600052603260045260246000fd5b6000611f8a82611976565b91507fffffffffffffffffffffffffffffffffffffffffffffffffffffffffffffffff8203611fbc57611fbb611eed565b5b600182019050919050565b6000611fd282611976565b915060008203611fe557611fe4611eed565b5b600182039050919050565b6000611ffb82611976565b915061200683611976565b925082820390508181111561201e5761201d611eed565b5b92915050565b60006060820190506120396000830186611dc3565b6120466020830185611dc3565b6120536040830184611cf2565b949350505050565b60008115159050919050565b6120708161205b565b811461207b57600080fd5b50565b60008151905061208d81612067565b92915050565b6000602082840312156120a9576120a8611971565b5b60006120b78482850161207e565b91505092915050565b60007fffffffff0000000000000000000000000000000000000000000000000000000082169050919050565b6120f5816120c0565b82525050565b600060208201905061211060008301846120ec565b92915050565b600082825260208201905092915050565b50565b6000612137600083612116565b915061214282612127565b600082019050919050565b600060a0820190506121626000830187611dc3565b61216f6020830186611dc3565b61217c6040830185611cf2565b6121896060830184611cf2565b818103608083015261219a8161212a565b90509594505050505056fea2646970667358221220d1ee907afb38fcf7c2fd680072fcbffaa6c1dc05b70abadda9dc8d9e1214feeb64736f6c63430008120033",
					"opcodes": "PUSH1 0x80 PUSH1 0x40 MSTORE CALLVALUE DUP1 ISZERO PUSH3 0x11 JUMPI PUSH1 0x0 DUP1 REVERT JUMPDEST POP PUSH1 0x40 MLOAD PUSH3 0x235C CODESIZE SUB DUP1 PUSH3 0x235C DUP4 CODECOPY DUP2 DUP2 ADD PUSH1 0x40 MSTORE DUP2 ADD SWAP1 PUSH3 0x37 SWAP2 SWAP1 PUSH3 0x12A JUMP JUMPDEST DUP2 PUSH1 0x0 DUP1 PUSH2 0x100 EXP DUP2 SLOAD DUP2 PUSH20 0xFFFFFFFFFFFFFFFFFFFFFFFFFFFFFFFFFFFFFFFF MUL NOT AND SWAP1 DUP4 PUSH20 0xFFFFFFFFFFFFFFFFFFFFFFFFFFFFFFFFFFFFFFFF AND MUL OR SWAP1 SSTORE POP DUP1 PUSH1 0x1 PUSH1 0x0 PUSH2 0x100 EXP DUP2 SLOAD DUP2 PUSH20 0xFFFFFFFFFFFFFFFFFFFFFFFFFFFFFFFFFFFFFFFF MUL NOT AND SWAP1 DUP4 PUSH20 0xFFFFFFFFFFFFFFFFFFFFFFFFFFFFFFFFFFFFFFFF AND MUL OR SWAP1 SSTORE POP POP POP PUSH3 0x171 JUMP JUMPDEST PUSH1 0x0 DUP1 REVERT JUMPDEST PUSH1 0x0 PUSH20 0xFFFFFFFFFFFFFFFFFFFFFFFFFFFFFFFFFFFFFFFF DUP3 AND SWAP1 POP SWAP2 SWAP1 POP JUMP JUMPDEST PUSH1 0x0 PUSH3 0xF2 DUP3 PUSH3 0xC5 JUMP JUMPDEST SWAP1 POP SWAP2 SWAP1 POP JUMP JUMPDEST PUSH3 0x104 DUP2 PUSH3 0xE5 JUMP JUMPDEST DUP2 EQ PUSH3 0x110 JUMPI PUSH1 0x0 DUP1 REVERT JUMPDEST POP JUMP JUMPDEST PUSH1 0x0 DUP2 MLOAD SWAP1 POP PUSH3 0x124 DUP2 PUSH3 0xF9 JUMP JUMPDEST SWAP3 SWAP2 POP POP JUMP JUMPDEST PUSH1 0x0 DUP1 PUSH1 0x40 DUP4 DUP6 SUB SLT ISZERO PUSH3 0x144 JUMPI PUSH3 0x143 PUSH3 0xC0 JUMP JUMPDEST JUMPDEST PUSH1 0x0 PUSH3 0x154 DUP6 DUP3 DUP7 ADD PUSH3 0x113 JUMP JUMPDEST SWAP3 POP POP PUSH1 0x20 PUSH3 0x167 DUP6 DUP3 DUP7 ADD PUSH3 0x113 JUMP JUMPDEST SWAP2 POP POP SWAP3 POP SWAP3 SWAP1 POP JUMP JUMPDEST PUSH2 0x21DB DUP1 PUSH3 0x181 PUSH1 0x0 CODECOPY PUSH1 0x0 RETURN INVALID PUSH1 0x80 PUSH1 0x40 MSTORE CALLVALUE DUP1 ISZERO PUSH2 0x10 JUMPI PUSH1 0x0 DUP1 REVERT JUMPDEST POP PUSH1 0x4 CALLDATASIZE LT PUSH2 0xB4 JUMPI PUSH1 0x0 CALLDATALOAD PUSH1 0xE0 SHR DUP1 PUSH4 0xA6AA57CE GT PUSH2 0x71 JUMPI DUP1 PUSH4 0xA6AA57CE EQ PUSH2 0x19D JUMPI DUP1 PUSH4 0xC5EBEAEC EQ PUSH2 0x1B9 JUMPI DUP1 PUSH4 0xCCF01B7E EQ PUSH2 0x1D5 JUMPI DUP1 PUSH4 0xDF8089EF EQ PUSH2 0x1DF JUMPI DUP1 PUSH4 0xF85565FB EQ PUSH2 0x20F JUMPI DUP1 PUSH4 0xFC0C546A EQ PUSH2 0x23F JUMPI PUSH2 0xB4 JUMP JUMPDEST DUP1 PUSH4 0x38D67E8 EQ PUSH2 0xB9 JUMPI DUP1 PUSH4 0xF9A71D7 EQ PUSH2 0xE9 JUMPI DUP1 PUSH4 0x49F202FF EQ PUSH2 0x105 JUMPI DUP1 PUSH4 0x50A8F34F EQ PUSH2 0x135 JUMPI DUP1 PUSH4 0x6FA425FE EQ PUSH2 0x151 JUMPI DUP1 PUSH4 0x7B64FD98 EQ PUSH2 0x181 JUMPI JUMPDEST PUSH1 0x0 DUP1 REVERT JUMPDEST PUSH2 0xD3 PUSH1 0x4 DUP1 CALLDATASIZE SUB DUP2 ADD SWAP1 PUSH2 0xCE SWAP2 SWAP1 PUSH2 0x19AC JUMP JUMPDEST PUSH2 0x25D JUMP JUMPDEST PUSH1 0x40 MLOAD PUSH2 0xE0 SWAP2 SWAP1 PUSH2 0x1CA3 JUMP JUMPDEST PUSH1 0x40 MLOAD DUP1 SWAP2 SUB SWAP1 RETURN JUMPDEST PUSH2 0x103 PUSH1 0x4 DUP1 CALLDATASIZE SUB DUP2 ADD SWAP1 PUSH2 0xFE SWAP2 SWAP1 PUSH2 0x1CC5 JUMP JUMPDEST PUSH2 0x526 JUMP JUMPDEST STOP JUMPDEST PUSH2 0x11F PUSH1 0x4 DUP1 CALLDATASIZE SUB DUP2 ADD SWAP1 PUSH2 0x11A SWAP2 SWAP1 PUSH2 0x1CC5 JUMP JUMPDEST PUSH2 0x64B JUMP JUMPDEST PUSH1 0x40 MLOAD PUSH2 0x12C SWAP2 SWAP1 PUSH2 0x1D01 JUMP JUMPDEST PUSH1 0x40 MLOAD DUP1 SWAP2 SUB SWAP1 RETURN JUMPDEST PUSH2 0x14F PUSH1 0x4 DUP1 CALLDATASIZE SUB DUP2 ADD SWAP1 PUSH2 0x14A SWAP2 SWAP1 PUSH2 0x1D48 JUMP JUMPDEST PUSH2 0x66E JUMP JUMPDEST STOP JUMPDEST PUSH2 0x16B PUSH1 0x4 DUP1 CALLDATASIZE SUB DUP2 ADD SWAP1 PUSH2 0x166 SWAP2 SWAP1 PUSH2 0x1CC5 JUMP JUMPDEST PUSH2 0x979 JUMP JUMPDEST PUSH1 0x40 MLOAD PUSH2 0x178 SWAP2 SWAP1 PUSH2 0x1DD2 JUMP JUMPDEST PUSH1 0x40 MLOAD DUP1 SWAP2 SUB SWAP1 RETURN JUMPDEST PUSH2 0x19B PUSH1 0x4 DUP1 CALLDATASIZE SUB DUP2 ADD SWAP1 PUSH2 0x196 SWAP2 SWAP1 PUSH2 0x1CC5 JUMP JUMPDEST PUSH2 0x9BC JUMP JUMPDEST STOP JUMPDEST PUSH2 0x1B7 PUSH1 0x4 DUP1 CALLDATASIZE SUB DUP2 ADD SWAP1 PUSH2 0x1B2 SWAP2 SWAP1 PUSH2 0x1CC5 JUMP JUMPDEST PUSH2 0xAF7 JUMP JUMPDEST STOP JUMPDEST PUSH2 0x1D3 PUSH1 0x4 DUP1 CALLDATASIZE SUB DUP2 ADD SWAP1 PUSH2 0x1CE SWAP2 SWAP1 PUSH2 0x1CC5 JUMP JUMPDEST PUSH2 0xD20 JUMP JUMPDEST STOP JUMPDEST PUSH2 0x1DD PUSH2 0xFBA JUMP JUMPDEST STOP JUMPDEST PUSH2 0x1F9 PUSH1 0x4 DUP1 CALLDATASIZE SUB DUP2 ADD SWAP1 PUSH2 0x1F4 SWAP2 SWAP1 PUSH2 0x1DED JUMP JUMPDEST PUSH2 0x1016 JUMP JUMPDEST PUSH1 0x40 MLOAD PUSH2 0x206 SWAP2 SWAP1 PUSH2 0x1DD2 JUMP JUMPDEST PUSH1 0x40 MLOAD DUP1 SWAP2 SUB SWAP1 RETURN JUMPDEST PUSH2 0x229 PUSH1 0x4 DUP1 CALLDATASIZE SUB DUP2 ADD SWAP1 PUSH2 0x224 SWAP2 SWAP1 PUSH2 0x1DED JUMP JUMPDEST PUSH2 0x10B9 JUMP JUMPDEST PUSH1 0x40 MLOAD PUSH2 0x236 SWAP2 SWAP1 PUSH2 0x1E29 JUMP JUMPDEST PUSH1 0x40 MLOAD DUP1 SWAP2 SUB SWAP1 RETURN JUMPDEST PUSH2 0x247 PUSH2 0x121C JUMP JUMPDEST PUSH1 0x40 MLOAD PUSH2 0x254 SWAP2 SWAP1 PUSH2 0x1EA3 JUMP JUMPDEST PUSH1 0x40 MLOAD DUP1 SWAP2 SUB SWAP1 RETURN JUMPDEST PUSH1 0x60 PUSH1 0x0 DUP3 PUSH8 0xFFFFFFFFFFFFFFFF DUP2 GT ISZERO PUSH2 0x27B JUMPI PUSH2 0x27A PUSH2 0x1EBE JUMP JUMPDEST JUMPDEST PUSH1 0x40 MLOAD SWAP1 DUP1 DUP3 MSTORE DUP1 PUSH1 0x20 MUL PUSH1 0x20 ADD DUP3 ADD PUSH1 0x40 MSTORE DUP1 ISZERO PUSH2 0x2B4 JUMPI DUP2 PUSH1 0x20 ADD JUMPDEST PUSH2 0x2A1 PUSH2 0x184D JUMP JUMPDEST DUP2 MSTORE PUSH1 0x20 ADD SWAP1 PUSH1 0x1 SWAP1 SUB SWAP1 DUP2 PUSH2 0x299 JUMPI SWAP1 POP JUMPDEST POP SWAP1 POP PUSH2 0x2BF PUSH2 0x184D JUMP JUMPDEST PUSH2 0x2C7 PUSH2 0x18D6 JUMP JUMPDEST PUSH1 0x0 JUMPDEST DUP6 DUP2 GT PUSH2 0x519 JUMPI PUSH2 0x2E5 DUP8 PUSH1 0x2 PUSH2 0x1240 SWAP1 SWAP2 SWAP1 PUSH4 0xFFFFFFFF AND JUMP JUMPDEST SWAP2 POP PUSH1 0x4 PUSH1 0x0 DUP4 PUSH1 0x0 ADD MLOAD DUP2 MSTORE PUSH1 0x20 ADD SWAP1 DUP2 MSTORE PUSH1 0x20 ADD PUSH1 0x0 KECCAK256 PUSH1 0x40 MLOAD DUP1 PUSH2 0x100 ADD PUSH1 0x40 MSTORE SWAP1 DUP2 PUSH1 0x0 DUP3 ADD SLOAD DUP2 MSTORE PUSH1 0x20 ADD PUSH1 0x1 DUP3 ADD PUSH1 0x0 SWAP1 SLOAD SWAP1 PUSH2 0x100 EXP SWAP1 DIV PUSH20 0xFFFFFFFFFFFFFFFFFFFFFFFFFFFFFFFFFFFFFFFF AND PUSH20 0xFFFFFFFFFFFFFFFFFFFFFFFFFFFFFFFFFFFFFFFF AND PUSH20 0xFFFFFFFFFFFFFFFFFFFFFFFFFFFFFFFFFFFFFFFF AND DUP2 MSTORE PUSH1 0x20 ADD PUSH1 0x2 DUP3 ADD SLOAD DUP2 MSTORE PUSH1 0x20 ADD PUSH1 0x3 DUP3 ADD SLOAD DUP2 MSTORE PUSH1 0x20 ADD PUSH1 0x4 DUP3 ADD SLOAD DUP2 MSTORE PUSH1 0x20 ADD PUSH1 0x5 DUP3 ADD PUSH1 0x0 SWAP1 SLOAD SWAP1 PUSH2 0x100 EXP SWAP1 DIV PUSH20 0xFFFFFFFFFFFFFFFFFFFFFFFFFFFFFFFFFFFFFFFF AND PUSH20 0xFFFFFFFFFFFFFFFFFFFFFFFFFFFFFFFFFFFFFFFF AND PUSH20 0xFFFFFFFFFFFFFFFFFFFFFFFFFFFFFFFFFFFFFFFF AND DUP2 MSTORE PUSH1 0x20 ADD PUSH1 0x6 DUP3 ADD PUSH1 0x40 MLOAD DUP1 PUSH1 0x80 ADD PUSH1 0x40 MSTORE SWAP1 DUP2 PUSH1 0x0 DUP3 ADD PUSH1 0x0 SWAP1 SLOAD SWAP1 PUSH2 0x100 EXP SWAP1 DIV PUSH20 0xFFFFFFFFFFFFFFFFFFFFFFFFFFFFFFFFFFFFFFFF AND PUSH20 0xFFFFFFFFFFFFFFFFFFFFFFFFFFFFFFFFFFFFFFFF AND PUSH20 0xFFFFFFFFFFFFFFFFFFFFFFFFFFFFFFFFFFFFFFFF AND DUP2 MSTORE PUSH1 0x20 ADD PUSH1 0x1 DUP3 ADD SLOAD DUP2 MSTORE PUSH1 0x20 ADD PUSH1 0x2 DUP3 ADD PUSH1 0x0 SWAP1 SLOAD SWAP1 PUSH2 0x100 EXP SWAP1 DIV PUSH1 0xFF AND PUSH1 0x2 DUP2 GT ISZERO PUSH2 0x473 JUMPI PUSH2 0x472 PUSH2 0x1A68 JUMP JUMPDEST JUMPDEST PUSH1 0x2 DUP2 GT ISZERO PUSH2 0x485 JUMPI PUSH2 0x484 PUSH2 0x1A68 JUMP JUMPDEST JUMPDEST DUP2 MSTORE PUSH1 0x20 ADD PUSH1 0x3 DUP3 ADD SLOAD DUP2 MSTORE POP POP DUP2 MSTORE PUSH1 0x20 ADD PUSH1 0xA DUP3 ADD PUSH1 0x0 SWAP1 SLOAD SWAP1 PUSH2 0x100 EXP SWAP1 DIV PUSH1 0xFF AND PUSH1 0x3 DUP2 GT ISZERO PUSH2 0x4BC JUMPI PUSH2 0x4BB PUSH2 0x1A68 JUMP JUMPDEST JUMPDEST PUSH1 0x3 DUP2 GT ISZERO PUSH2 0x4CE JUMPI PUSH2 0x4CD PUSH2 0x1A68 JUMP JUMPDEST JUMPDEST DUP2 MSTORE POP POP SWAP3 POP DUP3 DUP5 PUSH1 0x1 DUP4 PUSH2 0x4E3 SWAP2 SWAP1 PUSH2 0x1F1C JUMP JUMPDEST DUP2 MLOAD DUP2 LT PUSH2 0x4F4 JUMPI PUSH2 0x4F3 PUSH2 0x1F50 JUMP JUMPDEST JUMPDEST PUSH1 0x20 MUL PUSH1 0x20 ADD ADD DUP2 SWAP1 MSTORE POP DUP2 PUSH1 0x40 ADD MLOAD SWAP7 POP DUP1 DUP1 PUSH2 0x511 SWAP1 PUSH2 0x1F7F JUMP JUMPDEST SWAP2 POP POP PUSH2 0x2CA JUMP JUMPDEST POP DUP3 SWAP4 POP POP POP POP SWAP3 SWAP2 POP POP JUMP JUMPDEST PUSH1 0x4 PUSH1 0x0 DUP3 DUP2 MSTORE PUSH1 0x20 ADD SWAP1 DUP2 MSTORE PUSH1 0x20 ADD PUSH1 0x0 KECCAK256 PUSH1 0x1 ADD PUSH1 0x0 SWAP1 SLOAD SWAP1 PUSH2 0x100 EXP SWAP1 DIV PUSH20 0xFFFFFFFFFFFFFFFFFFFFFFFFFFFFFFFFFFFFFFFF AND PUSH20 0xFFFFFFFFFFFFFFFFFFFFFFFFFFFFFFFFFFFFFFFF AND CALLER PUSH20 0xFFFFFFFFFFFFFFFFFFFFFFFFFFFFFFFFFFFFFFFF AND EQ PUSH2 0x594 JUMPI PUSH1 0x0 DUP1 REVERT JUMPDEST PUSH1 0x0 PUSH1 0x4 PUSH1 0x0 DUP4 DUP2 MSTORE PUSH1 0x20 ADD SWAP1 DUP2 MSTORE PUSH1 0x20 ADD PUSH1 0x0 KECCAK256 PUSH1 0x6 ADD PUSH1 0x3 ADD SLOAD SWAP1 POP PUSH1 0x0 PUSH2 0x5BD DUP4 PUSH2 0x979 JUMP JUMPDEST SWAP1 POP PUSH1 0x0 PUSH2 0x5CA DUP5 PUSH2 0x64B JUMP JUMPDEST SWAP1 POP PUSH2 0x5D9 DUP3 DUP3 ADDRESS CALLER DUP8 PUSH2 0x12A9 JUMP JUMPDEST PUSH1 0x3 PUSH1 0x4 PUSH1 0x0 DUP7 DUP2 MSTORE PUSH1 0x20 ADD SWAP1 DUP2 MSTORE PUSH1 0x20 ADD PUSH1 0x0 KECCAK256 PUSH1 0xA ADD PUSH1 0x0 PUSH2 0x100 EXP DUP2 SLOAD DUP2 PUSH1 0xFF MUL NOT AND SWAP1 DUP4 PUSH1 0x3 DUP2 GT ISZERO PUSH2 0x613 JUMPI PUSH2 0x612 PUSH2 0x1A68 JUMP JUMPDEST JUMPDEST MUL OR SWAP1 SSTORE POP PUSH1 0x5 PUSH1 0x0 DUP2 SLOAD DUP1 SWAP3 SWAP2 SWAP1 PUSH2 0x62B SWAP1 PUSH2 0x1FC7 JUMP JUMPDEST SWAP2 SWAP1 POP SSTORE POP PUSH2 0x644 DUP5 PUSH1 0x2 PUSH2 0x14F0 SWAP1 SWAP2 SWAP1 PUSH4 0xFFFFFFFF AND JUMP JUMPDEST POP POP POP POP POP JUMP JUMPDEST PUSH1 0x0 PUSH1 0x4 PUSH1 0x0 DUP4 DUP2 MSTORE PUSH1 0x20 ADD SWAP1 DUP2 MSTORE PUSH1 0x20 ADD PUSH1 0x0 KECCAK256 PUSH1 0x6 ADD PUSH1 0x1 ADD SLOAD SWAP1 POP SWAP2 SWAP1 POP JUMP JUMPDEST PUSH1 0x0 PUSH2 0x679 DUP7 PUSH2 0x10B9 JUMP JUMPDEST SWAP1 POP PUSH1 0x0 PUSH1 0x40 MLOAD DUP1 PUSH1 0x80 ADD PUSH1 0x40 MSTORE DUP1 DUP9 PUSH20 0xFFFFFFFFFFFFFFFFFFFFFFFFFFFFFFFFFFFFFFFF AND DUP2 MSTORE PUSH1 0x20 ADD DUP8 DUP2 MSTORE PUSH1 0x20 ADD DUP4 PUSH1 0x2 DUP2 GT ISZERO PUSH2 0x6BD JUMPI PUSH2 0x6BC PUSH2 0x1A68 JUMP JUMPDEST JUMPDEST DUP2 MSTORE PUSH1 0x20 ADD DUP7 DUP2 MSTORE POP SWAP1 POP PUSH1 0x0 PUSH1 0x40 MLOAD DUP1 PUSH2 0x100 ADD PUSH1 0x40 MSTORE DUP1 NUMBER DUP2 MSTORE PUSH1 0x20 ADD CALLER PUSH20 0xFFFFFFFFFFFFFFFFFFFFFFFFFFFFFFFFFFFFFFFF AND DUP2 MSTORE PUSH1 0x20 ADD DUP7 DUP2 MSTORE PUSH1 0x20 ADD DUP6 DUP2 MSTORE PUSH1 0x20 ADD PUSH1 0x0 DUP2 MSTORE PUSH1 0x20 ADD PUSH1 0x0 PUSH20 0xFFFFFFFFFFFFFFFFFFFFFFFFFFFFFFFFFFFFFFFF AND DUP2 MSTORE PUSH1 0x20 ADD DUP4 DUP2 MSTORE PUSH1 0x20 ADD PUSH1 0x0 PUSH1 0x3 DUP2 GT ISZERO PUSH2 0x742 JUMPI PUSH2 0x741 PUSH2 0x1A68 JUMP JUMPDEST JUMPDEST DUP2 MSTORE POP SWAP1 POP PUSH1 0x5 PUSH1 0x0 DUP2 SLOAD DUP1 SWAP3 SWAP2 SWAP1 PUSH2 0x75A SWAP1 PUSH2 0x1F7F JUMP JUMPDEST SWAP2 SWAP1 POP SSTORE POP DUP1 PUSH1 0x4 PUSH1 0x0 PUSH1 0x5 SLOAD DUP2 MSTORE PUSH1 0x20 ADD SWAP1 DUP2 MSTORE PUSH1 0x20 ADD PUSH1 0x0 KECCAK256 PUSH1 0x0 DUP3 ADD MLOAD DUP2 PUSH1 0x0 ADD SSTORE PUSH1 0x20 DUP3 ADD MLOAD DUP2 PUSH1 0x1 ADD PUSH1 0x0 PUSH2 0x100 EXP DUP2 SLOAD DUP2 PUSH20 0xFFFFFFFFFFFFFFFFFFFFFFFFFFFFFFFFFFFFFFFF MUL NOT AND SWAP1 DUP4 PUSH20 0xFFFFFFFFFFFFFFFFFFFFFFFFFFFFFFFFFFFFFFFF AND MUL OR SWAP1 SSTORE POP PUSH1 0x40 DUP3 ADD MLOAD DUP2 PUSH1 0x2 ADD SSTORE PUSH1 0x60 DUP3 ADD MLOAD DUP2 PUSH1 0x3 ADD SSTORE PUSH1 0x80 DUP3 ADD MLOAD DUP2 PUSH1 0x4 ADD SSTORE PUSH1 0xA0 DUP3 ADD MLOAD DUP2 PUSH1 0x5 ADD PUSH1 0x0 PUSH2 0x100 EXP DUP2 SLOAD DUP2 PUSH20 0xFFFFFFFFFFFFFFFFFFFFFFFFFFFFFFFFFFFFFFFF MUL NOT AND SWAP1 DUP4 PUSH20 0xFFFFFFFFFFFFFFFFFFFFFFFFFFFFFFFFFFFFFFFF AND MUL OR SWAP1 SSTORE POP PUSH1 0xC0 DUP3 ADD MLOAD DUP2 PUSH1 0x6 ADD PUSH1 0x0 DUP3 ADD MLOAD DUP2 PUSH1 0x0 ADD PUSH1 0x0 PUSH2 0x100 EXP DUP2 SLOAD DUP2 PUSH20 0xFFFFFFFFFFFFFFFFFFFFFFFFFFFFFFFFFFFFFFFF MUL NOT AND SWAP1 DUP4 PUSH20 0xFFFFFFFFFFFFFFFFFFFFFFFFFFFFFFFFFFFFFFFF AND MUL OR SWAP1 SSTORE POP PUSH1 0x20 DUP3 ADD MLOAD DUP2 PUSH1 0x1 ADD SSTORE PUSH1 0x40 DUP3 ADD MLOAD DUP2 PUSH1 0x2 ADD PUSH1 0x0 PUSH2 0x100 EXP DUP2 SLOAD DUP2 PUSH1 0xFF MUL NOT AND SWAP1 DUP4 PUSH1 0x2 DUP2 GT ISZERO PUSH2 0x8B0 JUMPI PUSH2 0x8AF PUSH2 0x1A68 JUMP JUMPDEST JUMPDEST MUL OR SWAP1 SSTORE POP PUSH1 0x60 DUP3 ADD MLOAD DUP2 PUSH1 0x3 ADD SSTORE POP POP PUSH1 0xE0 DUP3 ADD MLOAD DUP2 PUSH1 0xA ADD PUSH1 0x0 PUSH2 0x100 EXP DUP2 SLOAD DUP2 PUSH1 0xFF MUL NOT AND SWAP1 DUP4 PUSH1 0x3 DUP2 GT ISZERO PUSH2 0x8EC JUMPI PUSH2 0x8EB PUSH2 0x1A68 JUMP JUMPDEST JUMPDEST MUL OR SWAP1 SSTORE POP SWAP1 POP POP PUSH1 0x5 SLOAD PUSH1 0x3 PUSH1 0x0 DUP11 PUSH20 0xFFFFFFFFFFFFFFFFFFFFFFFFFFFFFFFFFFFFFFFF AND PUSH20 0xFFFFFFFFFFFFFFFFFFFFFFFFFFFFFFFFFFFFFFFF AND DUP2 MSTORE PUSH1 0x20 ADD SWAP1 DUP2 MSTORE PUSH1 0x20 ADD PUSH1 0x0 KECCAK256 PUSH1 0x0 DUP10 DUP2 MSTORE PUSH1 0x20 ADD SWAP1 DUP2 MSTORE PUSH1 0x20 ADD PUSH1 0x0 KECCAK256 DUP2 SWAP1 SSTORE POP PUSH2 0x958 DUP9 DUP9 CALLER ADDRESS DUP11 PUSH2 0x12A9 JUMP JUMPDEST PUSH2 0x96E PUSH1 0x5 SLOAD PUSH1 0x2 PUSH2 0x150F SWAP1 SWAP2 SWAP1 PUSH4 0xFFFFFFFF AND JUMP JUMPDEST POP POP POP POP POP POP POP POP POP JUMP JUMPDEST PUSH1 0x0 PUSH1 0x4 PUSH1 0x0 DUP4 DUP2 MSTORE PUSH1 0x20 ADD SWAP1 DUP2 MSTORE PUSH1 0x20 ADD PUSH1 0x0 KECCAK256 PUSH1 0x6 ADD PUSH1 0x0 ADD PUSH1 0x0 SWAP1 SLOAD SWAP1 PUSH2 0x100 EXP SWAP1 DIV PUSH20 0xFFFFFFFFFFFFFFFFFFFFFFFFFFFFFFFFFFFFFFFF AND SWAP1 POP SWAP2 SWAP1 POP JUMP JUMPDEST PUSH1 0x4 PUSH1 0x0 DUP3 DUP2 MSTORE PUSH1 0x20 ADD SWAP1 DUP2 MSTORE PUSH1 0x20 ADD PUSH1 0x0 KECCAK256 PUSH1 0x3 ADD SLOAD PUSH1 0x4 PUSH1 0x0 DUP4 DUP2 MSTORE PUSH1 0x20 ADD SWAP1 DUP2 MSTORE PUSH1 0x20 ADD PUSH1 0x0 KECCAK256 PUSH1 0x4 ADD SLOAD TIMESTAMP PUSH2 0x9F5 SWAP2 SWAP1 PUSH2 0x1FF0 JUMP JUMPDEST GT PUSH2 0x9FF JUMPI PUSH1 0x0 DUP1 REVERT JUMPDEST PUSH1 0x4 PUSH1 0x0 DUP3 DUP2 MSTORE PUSH1 0x20 ADD SWAP1 DUP2 MSTORE PUSH1 0x20 ADD PUSH1 0x0 KECCAK256 PUSH1 0x5 ADD PUSH1 0x0 SWAP1 SLOAD SWAP1 PUSH2 0x100 EXP SWAP1 DIV PUSH20 0xFFFFFFFFFFFFFFFFFFFFFFFFFFFFFFFFFFFFFFFF AND PUSH20 0xFFFFFFFFFFFFFFFFFFFFFFFFFFFFFFFFFFFFFFFF AND CALLER PUSH20 0xFFFFFFFFFFFFFFFFFFFFFFFFFFFFFFFFFFFFFFFF AND EQ PUSH2 0xA6D JUMPI PUSH1 0x0 DUP1 REVERT JUMPDEST PUSH1 0x0 PUSH2 0xA78 DUP3 PUSH2 0x979 JUMP JUMPDEST SWAP1 POP PUSH1 0x0 PUSH2 0xA85 DUP4 PUSH2 0x64B JUMP JUMPDEST SWAP1 POP PUSH1 0x0 PUSH1 0x4 PUSH1 0x0 DUP6 DUP2 MSTORE PUSH1 0x20 ADD SWAP1 DUP2 MSTORE PUSH1 0x20 ADD PUSH1 0x0 KECCAK256 PUSH1 0x6 ADD PUSH1 0x3 ADD SLOAD SWAP1 POP PUSH2 0xAB2 DUP4 DUP4 ADDRESS CALLER DUP6 PUSH2 0x12A9 JUMP JUMPDEST PUSH1 0x3 PUSH1 0x4 PUSH1 0x0 DUP7 DUP2 MSTORE PUSH1 0x20 ADD SWAP1 DUP2 MSTORE PUSH1 0x20 ADD PUSH1 0x0 KECCAK256 PUSH1 0xA ADD PUSH1 0x0 PUSH2 0x100 EXP DUP2 SLOAD DUP2 PUSH1 0xFF MUL NOT AND SWAP1 DUP4 PUSH1 0x3 DUP2 GT ISZERO PUSH2 0xAEC JUMPI PUSH2 0xAEB PUSH2 0x1A68 JUMP JUMPDEST JUMPDEST MUL OR SWAP1 SSTORE POP POP POP POP POP JUMP JUMPDEST PUSH1 0x0 PUSH1 0x3 DUP2 GT ISZERO PUSH2 0xB0B JUMPI PUSH2 0xB0A PUSH2 0x1A68 JUMP JUMPDEST JUMPDEST PUSH1 0x4 PUSH1 0x0 DUP4 DUP2 MSTORE PUSH1 0x20 ADD SWAP1 DUP2 MSTORE PUSH1 0x20 ADD PUSH1 0x0 KECCAK256 PUSH1 0xA ADD PUSH1 0x0 SWAP1 SLOAD SWAP1 PUSH2 0x100 EXP SWAP1 DIV PUSH1 0xFF AND PUSH1 0x3 DUP2 GT ISZERO PUSH2 0xB41 JUMPI PUSH2 0xB40 PUSH2 0x1A68 JUMP JUMPDEST JUMPDEST EQ PUSH2 0xB4B JUMPI PUSH1 0x0 DUP1 REVERT JUMPDEST PUSH1 0x0 DUP1 SLOAD SWAP1 PUSH2 0x100 EXP SWAP1 DIV PUSH20 0xFFFFFFFFFFFFFFFFFFFFFFFFFFFFFFFFFFFFFFFF AND PUSH20 0xFFFFFFFFFFFFFFFFFFFFFFFFFFFFFFFFFFFFFFFF AND PUSH4 0x23B872DD PUSH1 0x4 PUSH1 0x0 DUP5 DUP2 MSTORE PUSH1 0x20 ADD SWAP1 DUP2 MSTORE PUSH1 0x20 ADD PUSH1 0x0 KECCAK256 PUSH1 0x5 ADD PUSH1 0x0 SWAP1 SLOAD SWAP1 PUSH2 0x100 EXP SWAP1 DIV PUSH20 0xFFFFFFFFFFFFFFFFFFFFFFFFFFFFFFFFFFFFFFFF AND PUSH1 0x4 PUSH1 0x0 DUP6 DUP2 MSTORE PUSH1 0x20 ADD SWAP1 DUP2 MSTORE PUSH1 0x20 ADD PUSH1 0x0 KECCAK256 PUSH1 0x1 ADD PUSH1 0x0 SWAP1 SLOAD SWAP1 PUSH2 0x100 EXP SWAP1 DIV PUSH20 0xFFFFFFFFFFFFFFFFFFFFFFFFFFFFFFFFFFFFFFFF AND PUSH1 0x4 PUSH1 0x0 DUP7 DUP2 MSTORE PUSH1 0x20 ADD SWAP1 DUP2 MSTORE PUSH1 0x20 ADD PUSH1 0x0 KECCAK256 PUSH1 0x2 ADD SLOAD PUSH1 0x40 MLOAD DUP5 PUSH4 0xFFFFFFFF AND PUSH1 0xE0 SHL DUP2 MSTORE PUSH1 0x4 ADD PUSH2 0xC2A SWAP4 SWAP3 SWAP2 SWAP1 PUSH2 0x2024 JUMP JUMPDEST PUSH1 0x20 PUSH1 0x40 MLOAD DUP1 DUP4 SUB DUP2 PUSH1 0x0 DUP8 GAS CALL ISZERO DUP1 ISZERO PUSH2 0xC49 JUMPI RETURNDATASIZE PUSH1 0x0 DUP1 RETURNDATACOPY RETURNDATASIZE PUSH1 0x0 REVERT JUMPDEST POP POP POP POP PUSH1 0x40 MLOAD RETURNDATASIZE PUSH1 0x1F NOT PUSH1 0x1F DUP3 ADD AND DUP3 ADD DUP1 PUSH1 0x40 MSTORE POP DUP2 ADD SWAP1 PUSH2 0xC6D SWAP2 SWAP1 PUSH2 0x2093 JUMP JUMPDEST POP CALLER PUSH1 0x4 PUSH1 0x0 DUP4 DUP2 MSTORE PUSH1 0x20 ADD SWAP1 DUP2 MSTORE PUSH1 0x20 ADD PUSH1 0x0 KECCAK256 PUSH1 0x5 ADD PUSH1 0x0 PUSH2 0x100 EXP DUP2 SLOAD DUP2 PUSH20 0xFFFFFFFFFFFFFFFFFFFFFFFFFFFFFFFFFFFFFFFF MUL NOT AND SWAP1 DUP4 PUSH20 0xFFFFFFFFFFFFFFFFFFFFFFFFFFFFFFFFFFFFFFFF AND MUL OR SWAP1 SSTORE POP TIMESTAMP PUSH1 0x4 PUSH1 0x0 DUP4 DUP2 MSTORE PUSH1 0x20 ADD SWAP1 DUP2 MSTORE PUSH1 0x20 ADD PUSH1 0x0 KECCAK256 PUSH1 0x4 ADD DUP2 SWAP1 SSTORE POP PUSH1 0x1 PUSH1 0x4 PUSH1 0x0 DUP4 DUP2 MSTORE PUSH1 0x20 ADD SWAP1 DUP2 MSTORE PUSH1 0x20 ADD PUSH1 0x0 KECCAK256 PUSH1 0xA ADD PUSH1 0x0 PUSH2 0x100 EXP DUP2 SLOAD DUP2 PUSH1 0xFF MUL NOT AND SWAP1 DUP4 PUSH1 0x3 DUP2 GT ISZERO PUSH2 0xD18 JUMPI PUSH2 0xD17 PUSH2 0x1A68 JUMP JUMPDEST JUMPDEST MUL OR SWAP1 SSTORE POP POP JUMP JUMPDEST PUSH1 0x4 PUSH1 0x0 DUP3 DUP2 MSTORE PUSH1 0x20 ADD SWAP1 DUP2 MSTORE PUSH1 0x20 ADD PUSH1 0x0 KECCAK256 PUSH1 0x3 ADD SLOAD PUSH1 0x4 PUSH1 0x0 DUP4 DUP2 MSTORE PUSH1 0x20 ADD SWAP1 DUP2 MSTORE PUSH1 0x20 ADD PUSH1 0x0 KECCAK256 PUSH1 0x4 ADD SLOAD TIMESTAMP PUSH2 0xD59 SWAP2 SWAP1 PUSH2 0x1FF0 JUMP JUMPDEST GT ISZERO PUSH2 0xD64 JUMPI PUSH1 0x0 DUP1 REVERT JUMPDEST PUSH1 0x4 PUSH1 0x0 DUP3 DUP2 MSTORE PUSH1 0x20 ADD SWAP1 DUP2 MSTORE PUSH1 0x20 ADD PUSH1 0x0 KECCAK256 PUSH1 0x1 ADD PUSH1 0x0 SWAP1 SLOAD SWAP1 PUSH2 0x100 EXP SWAP1 DIV PUSH20 0xFFFFFFFFFFFFFFFFFFFFFFFFFFFFFFFFFFFFFFFF AND PUSH20 0xFFFFFFFFFFFFFFFFFFFFFFFFFFFFFFFFFFFFFFFF AND CALLER PUSH20 0xFFFFFFFFFFFFFFFFFFFFFFFFFFFFFFFFFFFFFFFF AND EQ PUSH2 0xDD2 JUMPI PUSH1 0x0 DUP1 REVERT JUMPDEST PUSH1 0x0 PUSH2 0xDF3 PUSH1 0x4 PUSH1 0x0 DUP5 DUP2 MSTORE PUSH1 0x20 ADD SWAP1 DUP2 MSTORE PUSH1 0x20 ADD PUSH1 0x0 KECCAK256 PUSH1 0x2 ADD SLOAD PUSH2 0x152E JUMP JUMPDEST SWAP1 POP PUSH1 0x0 PUSH2 0xE00 DUP4 PUSH2 0x979 JUMP JUMPDEST SWAP1 POP PUSH1 0x0 PUSH2 0xE0D DUP5 PUSH2 0x64B JUMP JUMPDEST SWAP1 POP PUSH1 0x0 DUP1 SLOAD SWAP1 PUSH2 0x100 EXP SWAP1 DIV PUSH20 0xFFFFFFFFFFFFFFFFFFFFFFFFFFFFFFFFFFFFFFFF AND PUSH20 0xFFFFFFFFFFFFFFFFFFFFFFFFFFFFFFFFFFFFFFFF AND PUSH4 0x23B872DD PUSH1 0x4 PUSH1 0x0 DUP8 DUP2 MSTORE PUSH1 0x20 ADD SWAP1 DUP2 MSTORE PUSH1 0x20 ADD PUSH1 0x0 KECCAK256 PUSH1 0x1 ADD PUSH1 0x0 SWAP1 SLOAD SWAP1 PUSH2 0x100 EXP SWAP1 DIV PUSH20 0xFFFFFFFFFFFFFFFFFFFFFFFFFFFFFFFFFFFFFFFF AND PUSH1 0x4 PUSH1 0x0 DUP9 DUP2 MSTORE PUSH1 0x20 ADD SWAP1 DUP2 MSTORE PUSH1 0x20 ADD PUSH1 0x0 KECCAK256 PUSH1 0x5 ADD PUSH1 0x0 SWAP1 SLOAD SWAP1 PUSH2 0x100 EXP SWAP1 DIV PUSH20 0xFFFFFFFFFFFFFFFFFFFFFFFFFFFFFFFFFFFFFFFF AND DUP7 PUSH1 0x40 MLOAD DUP5 PUSH4 0xFFFFFFFF AND PUSH1 0xE0 SHL DUP2 MSTORE PUSH1 0x4 ADD PUSH2 0xED8 SWAP4 SWAP3 SWAP2 SWAP1 PUSH2 0x2024 JUMP JUMPDEST PUSH1 0x20 PUSH1 0x40 MLOAD DUP1 DUP4 SUB DUP2 PUSH1 0x0 DUP8 GAS CALL ISZERO DUP1 ISZERO PUSH2 0xEF7 JUMPI RETURNDATASIZE PUSH1 0x0 DUP1 RETURNDATACOPY RETURNDATASIZE PUSH1 0x0 REVERT JUMPDEST POP POP POP POP PUSH1 0x40 MLOAD RETURNDATASIZE PUSH1 0x1F NOT PUSH1 0x1F DUP3 ADD AND DUP3 ADD DUP1 PUSH1 0x40 MSTORE POP DUP2 ADD SWAP1 PUSH2 0xF1B SWAP2 SWAP1 PUSH2 0x2093 JUMP JUMPDEST POP PUSH1 0x2 PUSH1 0x4 PUSH1 0x0 DUP7 DUP2 MSTORE PUSH1 0x20 ADD SWAP1 DUP2 MSTORE PUSH1 0x20 ADD PUSH1 0x0 KECCAK256 PUSH1 0xA ADD PUSH1 0x0 PUSH2 0x100 EXP DUP2 SLOAD DUP2 PUSH1 0xFF MUL NOT AND SWAP1 DUP4 PUSH1 0x3 DUP2 GT ISZERO PUSH2 0xF56 JUMPI PUSH2 0xF55 PUSH2 0x1A68 JUMP JUMPDEST JUMPDEST MUL OR SWAP1 SSTORE POP PUSH1 0x5 PUSH1 0x0 DUP2 SLOAD DUP1 SWAP3 SWAP2 SWAP1 PUSH2 0xF6E SWAP1 PUSH2 0x1FC7 JUMP JUMPDEST SWAP2 SWAP1 POP SSTORE POP PUSH2 0xF87 DUP5 PUSH1 0x2 PUSH2 0x14F0 SWAP1 SWAP2 SWAP1 PUSH4 0xFFFFFFFF AND JUMP JUMPDEST POP PUSH1 0x0 PUSH1 0x4 PUSH1 0x0 DUP7 DUP2 MSTORE PUSH1 0x20 ADD SWAP1 DUP2 MSTORE PUSH1 0x20 ADD PUSH1 0x0 KECCAK256 PUSH1 0x6 ADD PUSH1 0x3 ADD SLOAD SWAP1 POP PUSH2 0xFB3 DUP4 DUP4 ADDRESS CALLER DUP6 PUSH2 0x12A9 JUMP JUMPDEST POP POP POP POP POP JUMP JUMPDEST PUSH1 0x1 PUSH1 0x0 SWAP1 SLOAD SWAP1 PUSH2 0x100 EXP SWAP1 DIV PUSH20 0xFFFFFFFFFFFFFFFFFFFFFFFFFFFFFFFFFFFFFFFF AND PUSH20 0xFFFFFFFFFFFFFFFFFFFFFFFFFFFFFFFFFFFFFFFF AND CALLER PUSH20 0xFFFFFFFFFFFFFFFFFFFFFFFFFFFFFFFFFFFFFFFF AND EQ PUSH2 0x1014 JUMPI PUSH1 0x0 DUP1 REVERT JUMPDEST JUMP JUMPDEST PUSH1 0x0 PUSH1 0x1 PUSH1 0x0 SWAP1 SLOAD SWAP1 PUSH2 0x100 EXP SWAP1 DIV PUSH20 0xFFFFFFFFFFFFFFFFFFFFFFFFFFFFFFFFFFFFFFFF AND PUSH20 0xFFFFFFFFFFFFFFFFFFFFFFFFFFFFFFFFFFFFFFFF AND CALLER PUSH20 0xFFFFFFFFFFFFFFFFFFFFFFFFFFFFFFFFFFFFFFFF AND EQ PUSH2 0x1072 JUMPI PUSH1 0x0 DUP1 REVERT JUMPDEST DUP2 PUSH1 0x1 PUSH1 0x0 PUSH2 0x100 EXP DUP2 SLOAD DUP2 PUSH20 0xFFFFFFFFFFFFFFFFFFFFFFFFFFFFFFFFFFFFFFFF MUL NOT AND SWAP1 DUP4 PUSH20 0xFFFFFFFFFFFFFFFFFFFFFFFFFFFFFFFFFFFFFFFF AND MUL OR SWAP1 SSTORE SWAP1 POP SWAP2 SWAP1 POP JUMP JUMPDEST PUSH1 0x0 DUP1 DUP3 SWAP1 POP DUP1 PUSH20 0xFFFFFFFFFFFFFFFFFFFFFFFFFFFFFFFFFFFFFFFF AND PUSH4 0x1FFC9A7 PUSH32 0x80AC58CD00000000000000000000000000000000000000000000000000000000 PUSH1 0x40 MLOAD DUP3 PUSH4 0xFFFFFFFF AND PUSH1 0xE0 SHL DUP2 MSTORE PUSH1 0x4 ADD PUSH2 0x1118 SWAP2 SWAP1 PUSH2 0x20FB JUMP JUMPDEST PUSH1 0x20 PUSH1 0x40 MLOAD DUP1 DUP4 SUB DUP2 DUP7 GAS STATICCALL ISZERO DUP1 ISZERO PUSH2 0x1135 JUMPI RETURNDATASIZE PUSH1 0x0 DUP1 RETURNDATACOPY RETURNDATASIZE PUSH1 0x0 REVERT JUMPDEST POP POP POP POP PUSH1 0x40 MLOAD RETURNDATASIZE PUSH1 0x1F NOT PUSH1 0x1F DUP3 ADD AND DUP3 ADD DUP1 PUSH1 0x40 MSTORE POP DUP2 ADD SWAP1 PUSH2 0x1159 SWAP2 SWAP1 PUSH2 0x2093 JUMP JUMPDEST ISZERO PUSH2 0x1168 JUMPI PUSH1 0x0 SWAP2 POP POP PUSH2 0x1217 JUMP JUMPDEST DUP1 PUSH20 0xFFFFFFFFFFFFFFFFFFFFFFFFFFFFFFFFFFFFFFFF AND PUSH4 0x1FFC9A7 PUSH32 0xD9B67A2600000000000000000000000000000000000000000000000000000000 PUSH1 0x40 MLOAD DUP3 PUSH4 0xFFFFFFFF AND PUSH1 0xE0 SHL DUP2 MSTORE PUSH1 0x4 ADD PUSH2 0x11C1 SWAP2 SWAP1 PUSH2 0x20FB JUMP JUMPDEST PUSH1 0x20 PUSH1 0x40 MLOAD DUP1 DUP4 SUB DUP2 DUP7 GAS STATICCALL ISZERO DUP1 ISZERO PUSH2 0x11DE JUMPI RETURNDATASIZE PUSH1 0x0 DUP1 RETURNDATACOPY RETURNDATASIZE PUSH1 0x0 REVERT JUMPDEST POP POP POP POP PUSH1 0x40 MLOAD RETURNDATASIZE PUSH1 0x1F NOT PUSH1 0x1F DUP3 ADD AND DUP3 ADD DUP1 PUSH1 0x40 MSTORE POP DUP2 ADD SWAP1 PUSH2 0x1202 SWAP2 SWAP1 PUSH2 0x2093 JUMP JUMPDEST ISZERO PUSH2 0x1211 JUMPI PUSH1 0x1 SWAP2 POP POP PUSH2 0x1217 JUMP JUMPDEST PUSH1 0x2 SWAP2 POP POP JUMPDEST SWAP2 SWAP1 POP JUMP JUMPDEST PUSH1 0x0 DUP1 SLOAD SWAP1 PUSH2 0x100 EXP SWAP1 DIV PUSH20 0xFFFFFFFFFFFFFFFFFFFFFFFFFFFFFFFFFFFFFFFF AND DUP2 JUMP JUMPDEST PUSH2 0x1248 PUSH2 0x18D6 JUMP JUMPDEST PUSH1 0x0 PUSH2 0x125F DUP5 PUSH1 0x0 ADD PUSH2 0x125A DUP6 PUSH2 0x1538 JUMP JUMPDEST PUSH2 0x1545 JUMP JUMPDEST SWAP1 POP PUSH1 0x40 MLOAD DUP1 PUSH1 0x60 ADD PUSH1 0x40 MSTORE DUP1 PUSH2 0x1279 DUP4 PUSH1 0x0 ADD MLOAD PUSH2 0x1593 JUMP JUMPDEST DUP2 MSTORE PUSH1 0x20 ADD PUSH2 0x128B DUP4 PUSH1 0x20 ADD MLOAD PUSH2 0x1593 JUMP JUMPDEST DUP2 MSTORE PUSH1 0x20 ADD PUSH2 0x129D DUP4 PUSH1 0x40 ADD MLOAD PUSH2 0x1593 JUMP JUMPDEST DUP2 MSTORE POP SWAP2 POP POP SWAP3 SWAP2 POP POP JUMP JUMPDEST PUSH1 0x0 PUSH1 0x2 DUP2 GT ISZERO PUSH2 0x12BD JUMPI PUSH2 0x12BC PUSH2 0x1A68 JUMP JUMPDEST JUMPDEST PUSH1 0x4 PUSH1 0x0 PUSH1 0x3 PUSH1 0x0 DUP10 PUSH20 0xFFFFFFFFFFFFFFFFFFFFFFFFFFFFFFFFFFFFFFFF AND PUSH20 0xFFFFFFFFFFFFFFFFFFFFFFFFFFFFFFFFFFFFFFFF AND DUP2 MSTORE PUSH1 0x20 ADD SWAP1 DUP2 MSTORE PUSH1 0x20 ADD PUSH1 0x0 KECCAK256 PUSH1 0x0 DUP9 DUP2 MSTORE PUSH1 0x20 ADD SWAP1 DUP2 MSTORE PUSH1 0x20 ADD PUSH1 0x0 KECCAK256 SLOAD DUP2 MSTORE PUSH1 0x20 ADD SWAP1 DUP2 MSTORE PUSH1 0x20 ADD PUSH1 0x0 KECCAK256 PUSH1 0x6 ADD PUSH1 0x2 ADD PUSH1 0x0 SWAP1 SLOAD SWAP1 PUSH2 0x100 EXP SWAP1 DIV PUSH1 0xFF AND PUSH1 0x2 DUP2 GT ISZERO PUSH2 0x1346 JUMPI PUSH2 0x1345 PUSH2 0x1A68 JUMP JUMPDEST JUMPDEST SUB PUSH2 0x13C5 JUMPI PUSH1 0x0 DUP6 SWAP1 POP DUP1 PUSH20 0xFFFFFFFFFFFFFFFFFFFFFFFFFFFFFFFFFFFFFFFF AND PUSH4 0x23B872DD DUP6 DUP6 DUP9 PUSH1 0x40 MLOAD DUP5 PUSH4 0xFFFFFFFF AND PUSH1 0xE0 SHL DUP2 MSTORE PUSH1 0x4 ADD PUSH2 0x138D SWAP4 SWAP3 SWAP2 SWAP1 PUSH2 0x2024 JUMP JUMPDEST PUSH1 0x0 PUSH1 0x40 MLOAD DUP1 DUP4 SUB DUP2 PUSH1 0x0 DUP8 DUP1 EXTCODESIZE ISZERO DUP1 ISZERO PUSH2 0x13A7 JUMPI PUSH1 0x0 DUP1 REVERT JUMPDEST POP GAS CALL ISZERO DUP1 ISZERO PUSH2 0x13BB JUMPI RETURNDATASIZE PUSH1 0x0 DUP1 RETURNDATACOPY RETURNDATASIZE PUSH1 0x0 REVERT JUMPDEST POP POP POP POP POP PUSH2 0x14E9 JUMP JUMPDEST PUSH1 0x1 PUSH1 0x2 DUP2 GT ISZERO PUSH2 0x13D9 JUMPI PUSH2 0x13D8 PUSH2 0x1A68 JUMP JUMPDEST JUMPDEST PUSH1 0x4 PUSH1 0x0 PUSH1 0x3 PUSH1 0x0 DUP10 PUSH20 0xFFFFFFFFFFFFFFFFFFFFFFFFFFFFFFFFFFFFFFFF AND PUSH20 0xFFFFFFFFFFFFFFFFFFFFFFFFFFFFFFFFFFFFFFFF AND DUP2 MSTORE PUSH1 0x20 ADD SWAP1 DUP2 MSTORE PUSH1 0x20 ADD PUSH1 0x0 KECCAK256 PUSH1 0x0 DUP9 DUP2 MSTORE PUSH1 0x20 ADD SWAP1 DUP2 MSTORE PUSH1 0x20 ADD PUSH1 0x0 KECCAK256 SLOAD DUP2 MSTORE PUSH1 0x20 ADD SWAP1 DUP2 MSTORE PUSH1 0x20 ADD PUSH1 0x0 KECCAK256 PUSH1 0x6 ADD PUSH1 0x2 ADD PUSH1 0x0 SWAP1 SLOAD SWAP1 PUSH2 0x100 EXP SWAP1 DIV PUSH1 0xFF AND PUSH1 0x2 DUP2 GT ISZERO PUSH2 0x1462 JUMPI PUSH2 0x1461 PUSH2 0x1A68 JUMP JUMPDEST JUMPDEST SUB PUSH2 0x14E3 JUMPI PUSH1 0x0 DUP6 SWAP1 POP DUP1 PUSH20 0xFFFFFFFFFFFFFFFFFFFFFFFFFFFFFFFFFFFFFFFF AND PUSH4 0xF242432A DUP6 DUP6 DUP9 DUP7 PUSH1 0x40 MLOAD DUP6 PUSH4 0xFFFFFFFF AND PUSH1 0xE0 SHL DUP2 MSTORE PUSH1 0x4 ADD PUSH2 0x14AB SWAP5 SWAP4 SWAP3 SWAP2 SWAP1 PUSH2 0x214D JUMP JUMPDEST PUSH1 0x0 PUSH1 0x40 MLOAD DUP1 DUP4 SUB DUP2 PUSH1 0x0 DUP8 DUP1 EXTCODESIZE ISZERO DUP1 ISZERO PUSH2 0x14C5 JUMPI PUSH1 0x0 DUP1 REVERT JUMPDEST POP GAS CALL ISZERO DUP1 ISZERO PUSH2 0x14D9 JUMPI RETURNDATASIZE PUSH1 0x0 DUP1 RETURNDATACOPY RETURNDATASIZE PUSH1 0x0 REVERT JUMPDEST POP POP POP POP POP PUSH2 0x14E8 JUMP JUMPDEST PUSH1 0x0 DUP1 REVERT JUMPDEST JUMPDEST POP POP POP POP POP JUMP JUMPDEST PUSH1 0x0 PUSH2 0x1507 DUP4 PUSH1 0x0 ADD PUSH2 0x1502 DUP5 PUSH2 0x1538 JUMP JUMPDEST PUSH2 0x15A0 JUMP JUMPDEST SWAP1 POP SWAP3 SWAP2 POP POP JUMP JUMPDEST PUSH1 0x0 PUSH2 0x1526 DUP4 PUSH1 0x0 ADD PUSH2 0x1521 DUP5 PUSH2 0x1538 JUMP JUMPDEST PUSH2 0x16CA JUMP JUMPDEST SWAP1 POP SWAP3 SWAP2 POP POP JUMP JUMPDEST PUSH1 0x0 DUP2 SWAP1 POP SWAP2 SWAP1 POP JUMP JUMPDEST PUSH1 0x0 DUP2 PUSH1 0x0 SHL SWAP1 POP SWAP2 SWAP1 POP JUMP JUMPDEST PUSH2 0x154D PUSH2 0x18F7 JUMP JUMPDEST DUP3 PUSH1 0x0 ADD PUSH1 0x0 DUP4 DUP2 MSTORE PUSH1 0x20 ADD SWAP1 DUP2 MSTORE PUSH1 0x20 ADD PUSH1 0x0 KECCAK256 PUSH1 0x40 MLOAD DUP1 PUSH1 0x60 ADD PUSH1 0x40 MSTORE SWAP1 DUP2 PUSH1 0x0 DUP3 ADD SLOAD DUP2 MSTORE PUSH1 0x20 ADD PUSH1 0x1 DUP3 ADD SLOAD DUP2 MSTORE PUSH1 0x20 ADD PUSH1 0x2 DUP3 ADD SLOAD DUP2 MSTORE POP POP SWAP1 POP SWAP3 SWAP2 POP POP JUMP JUMPDEST PUSH1 0x0 DUP2 PUSH1 0x0 SHR SWAP1 POP SWAP2 SWAP1 POP JUMP JUMPDEST PUSH1 0x0 PUSH2 0x15AC DUP4 DUP4 PUSH2 0x1776 JUMP JUMPDEST PUSH2 0x15B9 JUMPI PUSH1 0x0 SWAP1 POP PUSH2 0x16C4 JUMP JUMPDEST PUSH1 0x0 DUP4 PUSH1 0x0 ADD PUSH1 0x0 DUP6 PUSH1 0x0 ADD PUSH1 0x0 DUP7 DUP2 MSTORE PUSH1 0x20 ADD SWAP1 DUP2 MSTORE PUSH1 0x20 ADD PUSH1 0x0 KECCAK256 PUSH1 0x1 ADD SLOAD DUP2 MSTORE PUSH1 0x20 ADD SWAP1 DUP2 MSTORE PUSH1 0x20 ADD PUSH1 0x0 KECCAK256 SWAP1 POP PUSH1 0x0 DUP5 PUSH1 0x0 ADD PUSH1 0x0 DUP6 DUP2 MSTORE PUSH1 0x20 ADD SWAP1 DUP2 MSTORE PUSH1 0x20 ADD PUSH1 0x0 KECCAK256 PUSH1 0x40 MLOAD DUP1 PUSH1 0x60 ADD PUSH1 0x40 MSTORE SWAP1 DUP2 PUSH1 0x0 DUP3 ADD SLOAD DUP2 MSTORE PUSH1 0x20 ADD PUSH1 0x1 DUP3 ADD SLOAD DUP2 MSTORE PUSH1 0x20 ADD PUSH1 0x2 DUP3 ADD SLOAD DUP2 MSTORE POP POP SWAP1 POP PUSH1 0x0 DUP2 PUSH1 0x40 ADD MLOAD SWAP1 POP PUSH1 0x0 DUP7 PUSH1 0x0 ADD PUSH1 0x0 DUP9 PUSH1 0x0 ADD PUSH1 0x0 DUP10 DUP2 MSTORE PUSH1 0x20 ADD SWAP1 DUP2 MSTORE PUSH1 0x20 ADD PUSH1 0x0 KECCAK256 PUSH1 0x2 ADD SLOAD DUP2 MSTORE PUSH1 0x20 ADD SWAP1 DUP2 MSTORE PUSH1 0x20 ADD PUSH1 0x0 KECCAK256 SWAP1 POP PUSH1 0x0 DUP1 SHL DUP3 EQ PUSH2 0x167E JUMPI DUP4 PUSH1 0x0 ADD SLOAD DUP2 PUSH1 0x1 ADD DUP2 SWAP1 SSTORE POP JUMPDEST DUP1 PUSH1 0x0 ADD SLOAD DUP5 PUSH1 0x2 ADD DUP2 SWAP1 SSTORE POP DUP7 PUSH1 0x0 ADD PUSH1 0x0 DUP8 DUP2 MSTORE PUSH1 0x20 ADD SWAP1 DUP2 MSTORE PUSH1 0x20 ADD PUSH1 0x0 KECCAK256 PUSH1 0x0 DUP1 DUP3 ADD PUSH1 0x0 SWAP1 SSTORE PUSH1 0x1 DUP3 ADD PUSH1 0x0 SWAP1 SSTORE PUSH1 0x2 DUP3 ADD PUSH1 0x0 SWAP1 SSTORE POP POP POP POP POP POP PUSH1 0x1 SWAP1 POP JUMPDEST SWAP3 SWAP2 POP POP JUMP JUMPDEST PUSH1 0x0 DUP1 PUSH2 0x16D6 DUP5 PUSH2 0x179F JUMP JUMPDEST SWAP1 POP PUSH2 0x16E2 DUP5 DUP5 PUSH2 0x1776 JUMP JUMPDEST ISZERO PUSH2 0x16F1 JUMPI PUSH1 0x0 SWAP2 POP POP PUSH2 0x1770 JUMP JUMPDEST DUP3 DUP5 PUSH1 0x0 ADD PUSH1 0x0 DUP4 PUSH1 0x0 ADD MLOAD DUP2 MSTORE PUSH1 0x20 ADD SWAP1 DUP2 MSTORE PUSH1 0x20 ADD PUSH1 0x0 KECCAK256 PUSH1 0x2 ADD DUP2 SWAP1 SSTORE POP PUSH1 0x40 MLOAD DUP1 PUSH1 0x60 ADD PUSH1 0x40 MSTORE DUP1 DUP5 DUP2 MSTORE PUSH1 0x20 ADD DUP3 PUSH1 0x0 ADD MLOAD DUP2 MSTORE PUSH1 0x20 ADD PUSH1 0x0 DUP1 SHL DUP2 MSTORE POP DUP5 PUSH1 0x0 ADD PUSH1 0x0 DUP6 DUP2 MSTORE PUSH1 0x20 ADD SWAP1 DUP2 MSTORE PUSH1 0x20 ADD PUSH1 0x0 KECCAK256 PUSH1 0x0 DUP3 ADD MLOAD DUP2 PUSH1 0x0 ADD SSTORE PUSH1 0x20 DUP3 ADD MLOAD DUP2 PUSH1 0x1 ADD SSTORE PUSH1 0x40 DUP3 ADD MLOAD DUP2 PUSH1 0x2 ADD SSTORE SWAP1 POP POP PUSH1 0x1 SWAP2 POP POP JUMPDEST SWAP3 SWAP2 POP POP JUMP JUMPDEST PUSH1 0x0 DUP1 PUSH1 0x0 SHL DUP4 PUSH1 0x0 ADD PUSH1 0x0 DUP5 DUP2 MSTORE PUSH1 0x20 ADD SWAP1 DUP2 MSTORE PUSH1 0x20 ADD PUSH1 0x0 KECCAK256 PUSH1 0x0 ADD SLOAD EQ ISZERO SWAP1 POP SWAP3 SWAP2 POP POP JUMP JUMPDEST PUSH2 0x17A7 PUSH2 0x18F7 JUMP JUMPDEST PUSH1 0x0 DUP3 PUSH1 0x0 ADD PUSH1 0x0 DUP1 PUSH1 0x0 SHL DUP2 MSTORE PUSH1 0x20 ADD SWAP1 DUP2 MSTORE PUSH1 0x20 ADD PUSH1 0x0 KECCAK256 PUSH1 0x40 MLOAD DUP1 PUSH1 0x60 ADD PUSH1 0x40 MSTORE SWAP1 DUP2 PUSH1 0x0 DUP3 ADD SLOAD DUP2 MSTORE PUSH1 0x20 ADD PUSH1 0x1 DUP3 ADD SLOAD DUP2 MSTORE PUSH1 0x20 ADD PUSH1 0x2 DUP3 ADD SLOAD DUP2 MSTORE POP POP SWAP1 POP JUMPDEST PUSH1 0x0 DUP1 SHL DUP2 PUSH1 0x40 ADD MLOAD EQ PUSH2 0x1844 JUMPI DUP3 PUSH1 0x0 ADD PUSH1 0x0 DUP3 PUSH1 0x40 ADD MLOAD DUP2 MSTORE PUSH1 0x20 ADD SWAP1 DUP2 MSTORE PUSH1 0x20 ADD PUSH1 0x0 KECCAK256 PUSH1 0x40 MLOAD DUP1 PUSH1 0x60 ADD PUSH1 0x40 MSTORE SWAP1 DUP2 PUSH1 0x0 DUP3 ADD SLOAD DUP2 MSTORE PUSH1 0x20 ADD PUSH1 0x1 DUP3 ADD SLOAD DUP2 MSTORE PUSH1 0x20 ADD PUSH1 0x2 DUP3 ADD SLOAD DUP2 MSTORE POP POP SWAP1 POP PUSH2 0x17ED JUMP JUMPDEST DUP1 SWAP2 POP POP SWAP2 SWAP1 POP JUMP JUMPDEST PUSH1 0x40 MLOAD DUP1 PUSH2 0x100 ADD PUSH1 0x40 MSTORE DUP1 PUSH1 0x0 DUP2 MSTORE PUSH1 0x20 ADD PUSH1 0x0 PUSH20 0xFFFFFFFFFFFFFFFFFFFFFFFFFFFFFFFFFFFFFFFF AND DUP2 MSTORE PUSH1 0x20 ADD PUSH1 0x0 DUP2 MSTORE PUSH1 0x20 ADD PUSH1 0x0 DUP2 MSTORE PUSH1 0x20 ADD PUSH1 0x0 DUP2 MSTORE PUSH1 0x20 ADD PUSH1 0x0 PUSH20 0xFFFFFFFFFFFFFFFFFFFFFFFFFFFFFFFFFFFFFFFF AND DUP2 MSTORE PUSH1 0x20 ADD PUSH2 0x18B7 PUSH2 0x1921 JUMP JUMPDEST DUP2 MSTORE PUSH1 0x20 ADD PUSH1 0x0 PUSH1 0x3 DUP2 GT ISZERO PUSH2 0x18D0 JUMPI PUSH2 0x18CF PUSH2 0x1A68 JUMP JUMPDEST JUMPDEST DUP2 MSTORE POP SWAP1 JUMP JUMPDEST PUSH1 0x40 MLOAD DUP1 PUSH1 0x60 ADD PUSH1 0x40 MSTORE DUP1 PUSH1 0x0 DUP2 MSTORE PUSH1 0x20 ADD PUSH1 0x0 DUP2 MSTORE PUSH1 0x20 ADD PUSH1 0x0 DUP2 MSTORE POP SWAP1 JUMP JUMPDEST PUSH1 0x40 MLOAD DUP1 PUSH1 0x60 ADD PUSH1 0x40 MSTORE DUP1 PUSH1 0x0 DUP1 NOT AND DUP2 MSTORE PUSH1 0x20 ADD PUSH1 0x0 DUP1 NOT AND DUP2 MSTORE PUSH1 0x20 ADD PUSH1 0x0 DUP1 NOT AND DUP2 MSTORE POP SWAP1 JUMP JUMPDEST PUSH1 0x40 MLOAD DUP1 PUSH1 0x80 ADD PUSH1 0x40 MSTORE DUP1 PUSH1 0x0 PUSH20 0xFFFFFFFFFFFFFFFFFFFFFFFFFFFFFFFFFFFFFFFF AND DUP2 MSTORE PUSH1 0x20 ADD PUSH1 0x0 DUP2 MSTORE PUSH1 0x20 ADD PUSH1 0x0 PUSH1 0x2 DUP2 GT ISZERO PUSH2 0x1964 JUMPI PUSH2 0x1963 PUSH2 0x1A68 JUMP JUMPDEST JUMPDEST DUP2 MSTORE PUSH1 0x20 ADD PUSH1 0x0 DUP2 MSTORE POP SWAP1 JUMP JUMPDEST PUSH1 0x0 DUP1 REVERT JUMPDEST PUSH1 0x0 DUP2 SWAP1 POP SWAP2 SWAP1 POP JUMP JUMPDEST PUSH2 0x1989 DUP2 PUSH2 0x1976 JUMP JUMPDEST DUP2 EQ PUSH2 0x1994 JUMPI PUSH1 0x0 DUP1 REVERT JUMPDEST POP JUMP JUMPDEST PUSH1 0x0 DUP2 CALLDATALOAD SWAP1 POP PUSH2 0x19A6 DUP2 PUSH2 0x1980 JUMP JUMPDEST SWAP3 SWAP2 POP POP JUMP JUMPDEST PUSH1 0x0 DUP1 PUSH1 0x40 DUP4 DUP6 SUB SLT ISZERO PUSH2 0x19C3 JUMPI PUSH2 0x19C2 PUSH2 0x1971 JUMP JUMPDEST JUMPDEST PUSH1 0x0 PUSH2 0x19D1 DUP6 DUP3 DUP7 ADD PUSH2 0x1997 JUMP JUMPDEST SWAP3 POP POP PUSH1 0x20 PUSH2 0x19E2 DUP6 DUP3 DUP7 ADD PUSH2 0x1997 JUMP JUMPDEST SWAP2 POP POP SWAP3 POP SWAP3 SWAP1 POP JUMP JUMPDEST PUSH1 0x0 DUP2 MLOAD SWAP1 POP SWAP2 SWAP1 POP JUMP JUMPDEST PUSH1 0x0 DUP3 DUP3 MSTORE PUSH1 0x20 DUP3 ADD SWAP1 POP SWAP3 SWAP2 POP POP JUMP JUMPDEST PUSH1 0x0 DUP2 SWAP1 POP PUSH1 0x20 DUP3 ADD SWAP1 POP SWAP2 SWAP1 POP JUMP JUMPDEST PUSH2 0x1A21 DUP2 PUSH2 0x1976 JUMP JUMPDEST DUP3 MSTORE POP POP JUMP JUMPDEST PUSH1 0x0 PUSH20 0xFFFFFFFFFFFFFFFFFFFFFFFFFFFFFFFFFFFFFFFF DUP3 AND SWAP1 POP SWAP2 SWAP1 POP JUMP JUMPDEST PUSH1 0x0 PUSH2 0x1A52 DUP3 PUSH2 0x1A27 JUMP JUMPDEST SWAP1 POP SWAP2 SWAP1 POP JUMP JUMPDEST PUSH2 0x1A62 DUP2 PUSH2 0x1A47 JUMP JUMPDEST DUP3 MSTORE POP POP JUMP JUMPDEST PUSH32 0x4E487B7100000000000000000000000000000000000000000000000000000000 PUSH1 0x0 MSTORE PUSH1 0x21 PUSH1 0x4 MSTORE PUSH1 0x24 PUSH1 0x0 REVERT JUMPDEST PUSH1 0x3 DUP2 LT PUSH2 0x1AA8 JUMPI PUSH2 0x1AA7 PUSH2 0x1A68 JUMP JUMPDEST JUMPDEST POP JUMP JUMPDEST PUSH1 0x0 DUP2 SWAP1 POP PUSH2 0x1AB9 DUP3 PUSH2 0x1A97 JUMP JUMPDEST SWAP2 SWAP1 POP JUMP JUMPDEST PUSH1 0x0 PUSH2 0x1AC9 DUP3 PUSH2 0x1AAB JUMP JUMPDEST SWAP1 POP SWAP2 SWAP1 POP JUMP JUMPDEST PUSH2 0x1AD9 DUP2 PUSH2 0x1ABE JUMP JUMPDEST DUP3 MSTORE POP POP JUMP JUMPDEST PUSH1 0x80 DUP3 ADD PUSH1 0x0 DUP3 ADD MLOAD PUSH2 0x1AF5 PUSH1 0x0 DUP6 ADD DUP3 PUSH2 0x1A59 JUMP JUMPDEST POP PUSH1 0x20 DUP3 ADD MLOAD PUSH2 0x1B08 PUSH1 0x20 DUP6 ADD DUP3 PUSH2 0x1A18 JUMP JUMPDEST POP PUSH1 0x40 DUP3 ADD MLOAD PUSH2 0x1B1B PUSH1 0x40 DUP6 ADD DUP3 PUSH2 0x1AD0 JUMP JUMPDEST POP PUSH1 0x60 DUP3 ADD MLOAD PUSH2 0x1B2E PUSH1 0x60 DUP6 ADD DUP3 PUSH2 0x1A18 JUMP JUMPDEST POP POP POP POP JUMP JUMPDEST PUSH1 0x4 DUP2 LT PUSH2 0x1B45 JUMPI PUSH2 0x1B44 PUSH2 0x1A68 JUMP JUMPDEST JUMPDEST POP JUMP JUMPDEST PUSH1 0x0 DUP2 SWAP1 POP PUSH2 0x1B56 DUP3 PUSH2 0x1B34 JUMP JUMPDEST SWAP2 SWAP1 POP JUMP JUMPDEST PUSH1 0x0 PUSH2 0x1B66 DUP3 PUSH2 0x1B48 JUMP JUMPDEST SWAP1 POP SWAP2 SWAP1 POP JUMP JUMPDEST PUSH2 0x1B76 DUP2 PUSH2 0x1B5B JUMP JUMPDEST DUP3 MSTORE POP POP JUMP JUMPDEST PUSH2 0x160 DUP3 ADD PUSH1 0x0 DUP3 ADD MLOAD PUSH2 0x1B93 PUSH1 0x0 DUP6 ADD DUP3 PUSH2 0x1A18 JUMP JUMPDEST POP PUSH1 0x20 DUP3 ADD MLOAD PUSH2 0x1BA6 PUSH1 0x20 DUP6 ADD DUP3 PUSH2 0x1A59 JUMP JUMPDEST POP PUSH1 0x40 DUP3 ADD MLOAD PUSH2 0x1BB9 PUSH1 0x40 DUP6 ADD DUP3 PUSH2 0x1A18 JUMP JUMPDEST POP PUSH1 0x60 DUP3 ADD MLOAD PUSH2 0x1BCC PUSH1 0x60 DUP6 ADD DUP3 PUSH2 0x1A18 JUMP JUMPDEST POP PUSH1 0x80 DUP3 ADD MLOAD PUSH2 0x1BDF PUSH1 0x80 DUP6 ADD DUP3 PUSH2 0x1A18 JUMP JUMPDEST POP PUSH1 0xA0 DUP3 ADD MLOAD PUSH2 0x1BF2 PUSH1 0xA0 DUP6 ADD DUP3 PUSH2 0x1A59 JUMP JUMPDEST POP PUSH1 0xC0 DUP3 ADD MLOAD PUSH2 0x1C05 PUSH1 0xC0 DUP6 ADD DUP3 PUSH2 0x1ADF JUMP JUMPDEST POP PUSH1 0xE0 DUP3 ADD MLOAD PUSH2 0x1C19 PUSH2 0x140 DUP6 ADD DUP3 PUSH2 0x1B6D JUMP JUMPDEST POP POP POP POP JUMP JUMPDEST PUSH1 0x0 PUSH2 0x1C2B DUP4 DUP4 PUSH2 0x1B7C JUMP JUMPDEST PUSH2 0x160 DUP4 ADD SWAP1 POP SWAP3 SWAP2 POP POP JUMP JUMPDEST PUSH1 0x0 PUSH1 0x20 DUP3 ADD SWAP1 POP SWAP2 SWAP1 POP JUMP JUMPDEST PUSH1 0x0 PUSH2 0x1C50 DUP3 PUSH2 0x19EC JUMP JUMPDEST PUSH2 0x1C5A DUP2 DUP6 PUSH2 0x19F7 JUMP JUMPDEST SWAP4 POP PUSH2 0x1C65 DUP4 PUSH2 0x1A08 JUMP JUMPDEST DUP1 PUSH1 0x0 JUMPDEST DUP4 DUP2 LT ISZERO PUSH2 0x1C96 JUMPI DUP2 MLOAD PUSH2 0x1C7D DUP9 DUP3 PUSH2 0x1C1F JUMP JUMPDEST SWAP8 POP PUSH2 0x1C88 DUP4 PUSH2 0x1C38 JUMP JUMPDEST SWAP3 POP POP PUSH1 0x1 DUP2 ADD SWAP1 POP PUSH2 0x1C69 JUMP JUMPDEST POP DUP6 SWAP4 POP POP POP POP SWAP3 SWAP2 POP POP JUMP JUMPDEST PUSH1 0x0 PUSH1 0x20 DUP3 ADD SWAP1 POP DUP2 DUP2 SUB PUSH1 0x0 DUP4 ADD MSTORE PUSH2 0x1CBD DUP2 DUP5 PUSH2 0x1C45 JUMP JUMPDEST SWAP1 POP SWAP3 SWAP2 POP POP JUMP JUMPDEST PUSH1 0x0 PUSH1 0x20 DUP3 DUP5 SUB SLT ISZERO PUSH2 0x1CDB JUMPI PUSH2 0x1CDA PUSH2 0x1971 JUMP JUMPDEST JUMPDEST PUSH1 0x0 PUSH2 0x1CE9 DUP5 DUP3 DUP6 ADD PUSH2 0x1997 JUMP JUMPDEST SWAP2 POP POP SWAP3 SWAP2 POP POP JUMP JUMPDEST PUSH2 0x1CFB DUP2 PUSH2 0x1976 JUMP JUMPDEST DUP3 MSTORE POP POP JUMP JUMPDEST PUSH1 0x0 PUSH1 0x20 DUP3 ADD SWAP1 POP PUSH2 0x1D16 PUSH1 0x0 DUP4 ADD DUP5 PUSH2 0x1CF2 JUMP JUMPDEST SWAP3 SWAP2 POP POP JUMP JUMPDEST PUSH2 0x1D25 DUP2 PUSH2 0x1A47 JUMP JUMPDEST DUP2 EQ PUSH2 0x1D30 JUMPI PUSH1 0x0 DUP1 REVERT JUMPDEST POP JUMP JUMPDEST PUSH1 0x0 DUP2 CALLDATALOAD SWAP1 POP PUSH2 0x1D42 DUP2 PUSH2 0x1D1C JUMP JUMPDEST SWAP3 SWAP2 POP POP JUMP JUMPDEST PUSH1 0x0 DUP1 PUSH1 0x0 DUP1 PUSH1 0x0 PUSH1 0xA0 DUP7 DUP9 SUB SLT ISZERO PUSH2 0x1D64 JUMPI PUSH2 0x1D63 PUSH2 0x1971 JUMP JUMPDEST JUMPDEST PUSH1 0x0 PUSH2 0x1D72 DUP9 DUP3 DUP10 ADD PUSH2 0x1D33 JUMP JUMPDEST SWAP6 POP POP PUSH1 0x20 PUSH2 0x1D83 DUP9 DUP3 DUP10 ADD PUSH2 0x1997 JUMP JUMPDEST SWAP5 POP POP PUSH1 0x40 PUSH2 0x1D94 DUP9 DUP3 DUP10 ADD PUSH2 0x1997 JUMP JUMPDEST SWAP4 POP POP PUSH1 0x60 PUSH2 0x1DA5 DUP9 DUP3 DUP10 ADD PUSH2 0x1997 JUMP JUMPDEST SWAP3 POP POP PUSH1 0x80 PUSH2 0x1DB6 DUP9 DUP3 DUP10 ADD PUSH2 0x1997 JUMP JUMPDEST SWAP2 POP POP SWAP3 SWAP6 POP SWAP3 SWAP6 SWAP1 SWAP4 POP JUMP JUMPDEST PUSH2 0x1DCC DUP2 PUSH2 0x1A47 JUMP JUMPDEST DUP3 MSTORE POP POP JUMP JUMPDEST PUSH1 0x0 PUSH1 0x20 DUP3 ADD SWAP1 POP PUSH2 0x1DE7 PUSH1 0x0 DUP4 ADD DUP5 PUSH2 0x1DC3 JUMP JUMPDEST SWAP3 SWAP2 POP POP JUMP JUMPDEST PUSH1 0x0 PUSH1 0x20 DUP3 DUP5 SUB SLT ISZERO PUSH2 0x1E03 JUMPI PUSH2 0x1E02 PUSH2 0x1971 JUMP JUMPDEST JUMPDEST PUSH1 0x0 PUSH2 0x1E11 DUP5 DUP3 DUP6 ADD PUSH2 0x1D33 JUMP JUMPDEST SWAP2 POP POP SWAP3 SWAP2 POP POP JUMP JUMPDEST PUSH2 0x1E23 DUP2 PUSH2 0x1ABE JUMP JUMPDEST DUP3 MSTORE POP POP JUMP JUMPDEST PUSH1 0x0 PUSH1 0x20 DUP3 ADD SWAP1 POP PUSH2 0x1E3E PUSH1 0x0 DUP4 ADD DUP5 PUSH2 0x1E1A JUMP JUMPDEST SWAP3 SWAP2 POP POP JUMP JUMPDEST PUSH1 0x0 DUP2 SWAP1 POP SWAP2 SWAP1 POP JUMP JUMPDEST PUSH1 0x0 PUSH2 0x1E69 PUSH2 0x1E64 PUSH2 0x1E5F DUP5 PUSH2 0x1A27 JUMP JUMPDEST PUSH2 0x1E44 JUMP JUMPDEST PUSH2 0x1A27 JUMP JUMPDEST SWAP1 POP SWAP2 SWAP1 POP JUMP JUMPDEST PUSH1 0x0 PUSH2 0x1E7B DUP3 PUSH2 0x1E4E JUMP JUMPDEST SWAP1 POP SWAP2 SWAP1 POP JUMP JUMPDEST PUSH1 0x0 PUSH2 0x1E8D DUP3 PUSH2 0x1E70 JUMP JUMPDEST SWAP1 POP SWAP2 SWAP1 POP JUMP JUMPDEST PUSH2 0x1E9D DUP2 PUSH2 0x1E82 JUMP JUMPDEST DUP3 MSTORE POP POP JUMP JUMPDEST PUSH1 0x0 PUSH1 0x20 DUP3 ADD SWAP1 POP PUSH2 0x1EB8 PUSH1 0x0 DUP4 ADD DUP5 PUSH2 0x1E94 JUMP JUMPDEST SWAP3 SWAP2 POP POP JUMP JUMPDEST PUSH32 0x4E487B7100000000000000000000000000000000000000000000000000000000 PUSH1 0x0 MSTORE PUSH1 0x41 PUSH1 0x4 MSTORE PUSH1 0x24 PUSH1 0x0 REVERT JUMPDEST PUSH32 0x4E487B7100000000000000000000000000000000000000000000000000000000 PUSH1 0x0 MSTORE PUSH1 0x11 PUSH1 0x4 MSTORE PUSH1 0x24 PUSH1 0x0 REVERT JUMPDEST PUSH1 0x0 PUSH2 0x1F27 DUP3 PUSH2 0x1976 JUMP JUMPDEST SWAP2 POP PUSH2 0x1F32 DUP4 PUSH2 0x1976 JUMP JUMPDEST SWAP3 POP DUP3 DUP3 ADD SWAP1 POP DUP1 DUP3 GT ISZERO PUSH2 0x1F4A JUMPI PUSH2 0x1F49 PUSH2 0x1EED JUMP JUMPDEST JUMPDEST SWAP3 SWAP2 POP POP JUMP JUMPDEST PUSH32 0x4E487B7100000000000000000000000000000000000000000000000000000000 PUSH1 0x0 MSTORE PUSH1 0x32 PUSH1 0x4 MSTORE PUSH1 0x24 PUSH1 0x0 REVERT JUMPDEST PUSH1 0x0 PUSH2 0x1F8A DUP3 PUSH2 0x1976 JUMP JUMPDEST SWAP2 POP PUSH32 0xFFFFFFFFFFFFFFFFFFFFFFFFFFFFFFFFFFFFFFFFFFFFFFFFFFFFFFFFFFFFFFFF DUP3 SUB PUSH2 0x1FBC JUMPI PUSH2 0x1FBB PUSH2 0x1EED JUMP JUMPDEST JUMPDEST PUSH1 0x1 DUP3 ADD SWAP1 POP SWAP2 SWAP1 POP JUMP JUMPDEST PUSH1 0x0 PUSH2 0x1FD2 DUP3 PUSH2 0x1976 JUMP JUMPDEST SWAP2 POP PUSH1 0x0 DUP3 SUB PUSH2 0x1FE5 JUMPI PUSH2 0x1FE4 PUSH2 0x1EED JUMP JUMPDEST JUMPDEST PUSH1 0x1 DUP3 SUB SWAP1 POP SWAP2 SWAP1 POP JUMP JUMPDEST PUSH1 0x0 PUSH2 0x1FFB DUP3 PUSH2 0x1976 JUMP JUMPDEST SWAP2 POP PUSH2 0x2006 DUP4 PUSH2 0x1976 JUMP JUMPDEST SWAP3 POP DUP3 DUP3 SUB SWAP1 POP DUP2 DUP2 GT ISZERO PUSH2 0x201E JUMPI PUSH2 0x201D PUSH2 0x1EED JUMP JUMPDEST JUMPDEST SWAP3 SWAP2 POP POP JUMP JUMPDEST PUSH1 0x0 PUSH1 0x60 DUP3 ADD SWAP1 POP PUSH2 0x2039 PUSH1 0x0 DUP4 ADD DUP7 PUSH2 0x1DC3 JUMP JUMPDEST PUSH2 0x2046 PUSH1 0x20 DUP4 ADD DUP6 PUSH2 0x1DC3 JUMP JUMPDEST PUSH2 0x2053 PUSH1 0x40 DUP4 ADD DUP5 PUSH2 0x1CF2 JUMP JUMPDEST SWAP5 SWAP4 POP POP POP POP JUMP JUMPDEST PUSH1 0x0 DUP2 ISZERO ISZERO SWAP1 POP SWAP2 SWAP1 POP JUMP JUMPDEST PUSH2 0x2070 DUP2 PUSH2 0x205B JUMP JUMPDEST DUP2 EQ PUSH2 0x207B JUMPI PUSH1 0x0 DUP1 REVERT JUMPDEST POP JUMP JUMPDEST PUSH1 0x0 DUP2 MLOAD SWAP1 POP PUSH2 0x208D DUP2 PUSH2 0x2067 JUMP JUMPDEST SWAP3 SWAP2 POP POP JUMP JUMPDEST PUSH1 0x0 PUSH1 0x20 DUP3 DUP5 SUB SLT ISZERO PUSH2 0x20A9 JUMPI PUSH2 0x20A8 PUSH2 0x1971 JUMP JUMPDEST JUMPDEST PUSH1 0x0 PUSH2 0x20B7 DUP5 DUP3 DUP6 ADD PUSH2 0x207E JUMP JUMPDEST SWAP2 POP POP SWAP3 SWAP2 POP POP JUMP JUMPDEST PUSH1 0x0 PUSH32 0xFFFFFFFF00000000000000000000000000000000000000000000000000000000 DUP3 AND SWAP1 POP SWAP2 SWAP1 POP JUMP JUMPDEST PUSH2 0x20F5 DUP2 PUSH2 0x20C0 JUMP JUMPDEST DUP3 MSTORE POP POP JUMP JUMPDEST PUSH1 0x0 PUSH1 0x20 DUP3 ADD SWAP1 POP PUSH2 0x2110 PUSH1 0x0 DUP4 ADD DUP5 PUSH2 0x20EC JUMP JUMPDEST SWAP3 SWAP2 POP POP JUMP JUMPDEST PUSH1 0x0 DUP3 DUP3 MSTORE PUSH1 0x20 DUP3 ADD SWAP1 POP SWAP3 SWAP2 POP POP JUMP JUMPDEST POP JUMP JUMPDEST PUSH1 0x0 PUSH2 0x2137 PUSH1 0x0 DUP4 PUSH2 0x2116 JUMP JUMPDEST SWAP2 POP PUSH2 0x2142 DUP3 PUSH2 0x2127 JUMP JUMPDEST PUSH1 0x0 DUP3 ADD SWAP1 POP SWAP2 SWAP1 POP JUMP JUMPDEST PUSH1 0x0 PUSH1 0xA0 DUP3 ADD SWAP1 POP PUSH2 0x2162 PUSH1 0x0 DUP4 ADD DUP8 PUSH2 0x1DC3 JUMP JUMPDEST PUSH2 0x216F PUSH1 0x20 DUP4 ADD DUP7 PUSH2 0x1DC3 JUMP JUMPDEST PUSH2 0x217C PUSH1 0x40 DUP4 ADD DUP6 PUSH2 0x1CF2 JUMP JUMPDEST PUSH2 0x2189 PUSH1 0x60 DUP4 ADD DUP5 PUSH2 0x1CF2 JUMP JUMPDEST DUP2 DUP2 SUB PUSH1 0x80 DUP4 ADD MSTORE PUSH2 0x219A DUP2 PUSH2 0x212A JUMP JUMPDEST SWAP1 POP SWAP6 SWAP5 POP POP POP POP POP JUMP INVALID LOG2 PUSH5 0x6970667358 0x22 SLT KECCAK256 0xD1 0xEE SWAP1 PUSH27 0xFB38FCF7C2FD680072FCBFFAA6C1DC05B70ABADDA9DC8D9E1214FE 0xEB PUSH5 0x736F6C6343 STOP ADDMOD SLT STOP CALLER "
				},
				"gasEstimates": {
					"creation": {
						"codeDepositCost": "1733400",
						"executionCost": "infinite",
						"totalCost": "infinite"
					},
					"external": {
						"borrow(uint256)": "infinite",
						"createP2POrder(address,uint256,uint256,uint256,uint256)": "infinite",
						"getNftAddressByIndex(uint256)": "2966",
						"getNodes(uint256,uint256)": "infinite",
						"getTokenIdByIndex(uint256)": "infinite",
						"identifyNFT(address)": "infinite",
						"lend(uint256)": "infinite",
						"revokeOrder(uint256)": "infinite",
						"setAdministrator(address)": "infinite",
						"setBorrowPricePercentage()": "2358",
						"timeOut(uint256)": "infinite",
						"token()": "infinite"
					},
					"internal": {
						"getBorrowPrice(uint256)": "28",
						"nftTransfer(address,uint256,address,address,uint256)": "infinite"
					}
				},
				"methodIdentifiers": {
					"borrow(uint256)": "c5ebeaec",
					"createP2POrder(address,uint256,uint256,uint256,uint256)": "50a8f34f",
					"getNftAddressByIndex(uint256)": "6fa425fe",
					"getNodes(uint256,uint256)": "038d67e8",
					"getTokenIdByIndex(uint256)": "49f202ff",
					"identifyNFT(address)": "f85565fb",
					"lend(uint256)": "a6aa57ce",
					"revokeOrder(uint256)": "0f9a71d7",
					"setAdministrator(address)": "df8089ef",
					"setBorrowPricePercentage()": "ccf01b7e",
					"timeOut(uint256)": "7b64fd98",
					"token()": "fc0c546a"
				}
			},
			"storageLayout": {
				"storage": [
					{
						"astId": 2391,
						"contract": "vinci-protocol/contracts/PtoPListTable.sol:PtoPList",
						"label": "token",
						"offset": 0,
						"slot": "0",
						"type": "t_contract(IERC20)213"
					},
					{
						"astId": 2393,
						"contract": "vinci-protocol/contracts/PtoPListTable.sol:PtoPList",
						"label": "administrator",
						"offset": 0,
						"slot": "1",
						"type": "t_address"
					},
					{
						"astId": 2425,
						"contract": "vinci-protocol/contracts/PtoPListTable.sol:PtoPList",
						"label": "Nodes",
						"offset": 0,
						"slot": "2",
						"type": "t_struct(UintLinkedList)3571_storage"
					},
					{
						"astId": 2431,
						"contract": "vinci-protocol/contracts/PtoPListTable.sol:PtoPList",
						"label": "orderIndex",
						"offset": 0,
						"slot": "3",
						"type": "t_mapping(t_address,t_mapping(t_uint256,t_uint256))"
					},
					{
						"astId": 2436,
						"contract": "vinci-protocol/contracts/PtoPListTable.sol:PtoPList",
						"label": "orderList",
						"offset": 0,
						"slot": "4",
						"type": "t_mapping(t_uint256,t_struct(Order)2462_storage)"
					},
					{
						"astId": 2438,
						"contract": "vinci-protocol/contracts/PtoPListTable.sol:PtoPList",
						"label": "nftCounter",
						"offset": 0,
						"slot": "5",
						"type": "t_uint256"
					}
				],
				"types": {
					"t_address": {
						"encoding": "inplace",
						"label": "address",
						"numberOfBytes": "20"
					},
					"t_bytes32": {
						"encoding": "inplace",
						"label": "bytes32",
						"numberOfBytes": "32"
					},
					"t_contract(IERC20)213": {
						"encoding": "inplace",
						"label": "contract IERC20",
						"numberOfBytes": "20"
					},
					"t_enum(NftType)2476": {
						"encoding": "inplace",
						"label": "enum PtoPList.NftType",
						"numberOfBytes": "1"
					},
					"t_enum(States)2443": {
						"encoding": "inplace",
						"label": "enum PtoPList.States",
						"numberOfBytes": "1"
					},
					"t_mapping(t_address,t_mapping(t_uint256,t_uint256))": {
						"encoding": "mapping",
						"key": "t_address",
						"label": "mapping(address => mapping(uint256 => uint256))",
						"numberOfBytes": "32",
						"value": "t_mapping(t_uint256,t_uint256)"
					},
					"t_mapping(t_bytes32,t_struct(Node)3134_storage)": {
						"encoding": "mapping",
						"key": "t_bytes32",
						"label": "mapping(bytes32 => struct LinkedListLib.Node)",
						"numberOfBytes": "32",
						"value": "t_struct(Node)3134_storage"
					},
					"t_mapping(t_uint256,t_struct(Order)2462_storage)": {
						"encoding": "mapping",
						"key": "t_uint256",
						"label": "mapping(uint256 => struct PtoPList.Order)",
						"numberOfBytes": "32",
						"value": "t_struct(Order)2462_storage"
					},
					"t_mapping(t_uint256,t_uint256)": {
						"encoding": "mapping",
						"key": "t_uint256",
						"label": "mapping(uint256 => uint256)",
						"numberOfBytes": "32",
						"value": "t_uint256"
					},
					"t_struct(LinkedList)3140_storage": {
						"encoding": "inplace",
						"label": "struct LinkedListLib.LinkedList",
						"members": [
							{
								"astId": 3139,
								"contract": "vinci-protocol/contracts/PtoPListTable.sol:PtoPList",
								"label": "list",
								"offset": 0,
								"slot": "0",
								"type": "t_mapping(t_bytes32,t_struct(Node)3134_storage)"
							}
						],
						"numberOfBytes": "32"
					},
					"t_struct(NFT)2472_storage": {
						"encoding": "inplace",
						"label": "struct PtoPList.NFT",
						"members": [
							{
								"astId": 2464,
								"contract": "vinci-protocol/contracts/PtoPListTable.sol:PtoPList",
								"label": "nftAddress",
								"offset": 0,
								"slot": "0",
								"type": "t_address"
							},
							{
								"astId": 2466,
								"contract": "vinci-protocol/contracts/PtoPListTable.sol:PtoPList",
								"label": "tokenId",
								"offset": 0,
								"slot": "1",
								"type": "t_uint256"
							},
							{
								"astId": 2469,
								"contract": "vinci-protocol/contracts/PtoPListTable.sol:PtoPList",
								"label": "nftType",
								"offset": 0,
								"slot": "2",
								"type": "t_enum(NftType)2476"
							},
							{
								"astId": 2471,
								"contract": "vinci-protocol/contracts/PtoPListTable.sol:PtoPList",
								"label": "amount",
								"offset": 0,
								"slot": "3",
								"type": "t_uint256"
							}
						],
						"numberOfBytes": "128"
					},
					"t_struct(Node)3134_storage": {
						"encoding": "inplace",
						"label": "struct LinkedListLib.Node",
						"members": [
							{
								"astId": 3129,
								"contract": "vinci-protocol/contracts/PtoPListTable.sol:PtoPList",
								"label": "current",
								"offset": 0,
								"slot": "0",
								"type": "t_bytes32"
							},
							{
								"astId": 3131,
								"contract": "vinci-protocol/contracts/PtoPListTable.sol:PtoPList",
								"label": "prev",
								"offset": 0,
								"slot": "1",
								"type": "t_bytes32"
							},
							{
								"astId": 3133,
								"contract": "vinci-protocol/contracts/PtoPListTable.sol:PtoPList",
								"label": "next",
								"offset": 0,
								"slot": "2",
								"type": "t_bytes32"
							}
						],
						"numberOfBytes": "96"
					},
					"t_struct(Order)2462_storage": {
						"encoding": "inplace",
						"label": "struct PtoPList.Order",
						"members": [
							{
								"astId": 2445,
								"contract": "vinci-protocol/contracts/PtoPListTable.sol:PtoPList",
								"label": "blockNumber",
								"offset": 0,
								"slot": "0",
								"type": "t_uint256"
							},
							{
								"astId": 2447,
								"contract": "vinci-protocol/contracts/PtoPListTable.sol:PtoPList",
								"label": "borrower",
								"offset": 0,
								"slot": "1",
								"type": "t_address"
							},
							{
								"astId": 2449,
								"contract": "vinci-protocol/contracts/PtoPListTable.sol:PtoPList",
								"label": "price",
								"offset": 0,
								"slot": "2",
								"type": "t_uint256"
							},
							{
								"astId": 2451,
								"contract": "vinci-protocol/contracts/PtoPListTable.sol:PtoPList",
								"label": "loanTime",
								"offset": 0,
								"slot": "3",
								"type": "t_uint256"
							},
							{
								"astId": 2453,
								"contract": "vinci-protocol/contracts/PtoPListTable.sol:PtoPList",
								"label": "borrowTime",
								"offset": 0,
								"slot": "4",
								"type": "t_uint256"
							},
							{
								"astId": 2455,
								"contract": "vinci-protocol/contracts/PtoPListTable.sol:PtoPList",
								"label": "lender",
								"offset": 0,
								"slot": "5",
								"type": "t_address"
							},
							{
								"astId": 2458,
								"contract": "vinci-protocol/contracts/PtoPListTable.sol:PtoPList",
								"label": "nft",
								"offset": 0,
								"slot": "6",
								"type": "t_struct(NFT)2472_storage"
							},
							{
								"astId": 2461,
								"contract": "vinci-protocol/contracts/PtoPListTable.sol:PtoPList",
								"label": "state",
								"offset": 0,
								"slot": "10",
								"type": "t_enum(States)2443"
							}
						],
						"numberOfBytes": "352"
					},
					"t_struct(UintLinkedList)3571_storage": {
						"encoding": "inplace",
						"label": "struct LinkedListLib.UintLinkedList",
						"members": [
							{
								"astId": 3570,
								"contract": "vinci-protocol/contracts/PtoPListTable.sol:PtoPList",
								"label": "_inner",
								"offset": 0,
								"slot": "0",
								"type": "t_struct(LinkedList)3140_storage"
							}
						],
						"numberOfBytes": "32"
					},
					"t_uint256": {
						"encoding": "inplace",
						"label": "uint256",
						"numberOfBytes": "32"
					}
				}
			},
			"userdoc": {
				"kind": "user",
				"methods": {},
				"version": 1
			}
		}
	}
}