{
	"vinci-protocol/contracts/NftAuctionStorage.sol": {
		"NftAuctionStorage": {
			"abi": [
				{
					"inputs": [],
					"name": "AUCTION_DURATION",
					"outputs": [
						{
							"internalType": "uint256",
							"name": "",
							"type": "uint256"
						}
					],
					"stateMutability": "view",
					"type": "function"
				},
				{
					"inputs": [],
					"name": "TIME_BUYING",
					"outputs": [
						{
							"internalType": "uint256",
							"name": "",
							"type": "uint256"
						}
					],
					"stateMutability": "view",
					"type": "function"
				},
				{
					"inputs": [],
					"name": "VicAddress",
					"outputs": [
						{
							"internalType": "address",
							"name": "",
							"type": "address"
						}
					],
					"stateMutability": "view",
					"type": "function"
				},
				{
					"inputs": [],
					"name": "listingIdCounter",
					"outputs": [
						{
							"internalType": "uint256",
							"name": "",
							"type": "uint256"
						}
					],
					"stateMutability": "view",
					"type": "function"
				},
				{
					"inputs": [
						{
							"internalType": "uint256",
							"name": "",
							"type": "uint256"
						}
					],
					"name": "listings",
					"outputs": [
						{
							"components": [
								{
									"internalType": "address",
									"name": "nftAddress",
									"type": "address"
								},
								{
									"internalType": "uint256",
									"name": "tokenId",
									"type": "uint256"
								},
								{
									"internalType": "address",
									"name": "owner",
									"type": "address"
								},
								{
									"internalType": "enum NftAuctionStorage.NftType",
									"name": "nftType",
									"type": "uint8"
								}
							],
							"internalType": "struct NftAuctionStorage.NFT",
							"name": "nft",
							"type": "tuple"
						},
						{
							"internalType": "uint256",
							"name": "id",
							"type": "uint256"
						},
						{
							"internalType": "uint256",
							"name": "price",
							"type": "uint256"
						},
						{
							"internalType": "uint256",
							"name": "startTimestamp",
							"type": "uint256"
						},
						{
							"internalType": "address",
							"name": "highestBidder",
							"type": "address"
						},
						{
							"internalType": "uint256",
							"name": "highestBidPrice",
							"type": "uint256"
						}
					],
					"stateMutability": "view",
					"type": "function"
				},
				{
					"inputs": [],
					"name": "vicDAO",
					"outputs": [
						{
							"internalType": "address",
							"name": "",
							"type": "address"
						}
					],
					"stateMutability": "view",
					"type": "function"
				}
			],
			"devdoc": {
				"kind": "dev",
				"methods": {},
				"version": 1
			},
			"evm": {
				"assembly": "    /* \"vinci-protocol/contracts/NftAuctionStorage.sol\":103:906  contract NftAuctionStorage {... */\n  mstore(0x40, 0x80)\n    /* \"vinci-protocol/contracts/NftAuctionStorage.sol\":582:590  48 hours */\n  0x02a300\n    /* \"vinci-protocol/contracts/NftAuctionStorage.sol\":548:590  uint256 public AUCTION_DURATION = 48 hours */\n  0x00\n  sstore\n    /* \"vinci-protocol/contracts/NftAuctionStorage.sol\":628:636  96 hours */\n  0x054600\n    /* \"vinci-protocol/contracts/NftAuctionStorage.sol\":599:636  uint256 public TIME_BUYING = 96 hours */\n  0x01\n  sstore\n    /* \"vinci-protocol/contracts/NftAuctionStorage.sol\":103:906  contract NftAuctionStorage {... */\n  callvalue\n  dup1\n  iszero\n  tag_1\n  jumpi\n  0x00\n  dup1\n  revert\ntag_1:\n  pop\n  dataSize(sub_0)\n  dup1\n  dataOffset(sub_0)\n  0x00\n  codecopy\n  0x00\n  return\nstop\n\nsub_0: assembly {\n        /* \"vinci-protocol/contracts/NftAuctionStorage.sol\":103:906  contract NftAuctionStorage {... */\n      mstore(0x40, 0x80)\n      callvalue\n      dup1\n      iszero\n      tag_1\n      jumpi\n      0x00\n      dup1\n      revert\n    tag_1:\n      pop\n      jumpi(tag_2, lt(calldatasize, 0x04))\n      shr(0xe0, calldataload(0x00))\n      dup1\n      0x231701e9\n      eq\n      tag_3\n      jumpi\n      dup1\n      0x41adb2eb\n      eq\n      tag_4\n      jumpi\n      dup1\n      0x9f4d5628\n      eq\n      tag_5\n      jumpi\n      dup1\n      0xa271e525\n      eq\n      tag_6\n      jumpi\n      dup1\n      0xde74e57b\n      eq\n      tag_7\n      jumpi\n      dup1\n      0xf0b5f671\n      eq\n      tag_8\n      jumpi\n    tag_2:\n      0x00\n      dup1\n      revert\n        /* \"vinci-protocol/contracts/NftAuctionStorage.sol\":871:902  uint256 public listingIdCounter */\n    tag_3:\n      tag_9\n      tag_10\n      jump\t// in\n    tag_9:\n      mload(0x40)\n      tag_11\n      swap2\n      swap1\n      tag_12\n      jump\t// in\n    tag_11:\n      mload(0x40)\n      dup1\n      swap2\n      sub\n      swap1\n      return\n        /* \"vinci-protocol/contracts/NftAuctionStorage.sol\":599:636  uint256 public TIME_BUYING = 96 hours */\n    tag_4:\n      tag_13\n      tag_14\n      jump\t// in\n    tag_13:\n      mload(0x40)\n      tag_15\n      swap2\n      swap1\n      tag_12\n      jump\t// in\n    tag_15:\n      mload(0x40)\n      dup1\n      swap2\n      sub\n      swap1\n      return\n        /* \"vinci-protocol/contracts/NftAuctionStorage.sol\":688:709  address public vicDAO */\n    tag_5:\n      tag_16\n      tag_17\n      jump\t// in\n    tag_16:\n      mload(0x40)\n      tag_18\n      swap2\n      swap1\n      tag_19\n      jump\t// in\n    tag_18:\n      mload(0x40)\n      dup1\n      swap2\n      sub\n      swap1\n      return\n        /* \"vinci-protocol/contracts/NftAuctionStorage.sol\":548:590  uint256 public AUCTION_DURATION = 48 hours */\n    tag_6:\n      tag_20\n      tag_21\n      jump\t// in\n    tag_20:\n      mload(0x40)\n      tag_22\n      swap2\n      swap1\n      tag_12\n      jump\t// in\n    tag_22:\n      mload(0x40)\n      dup1\n      swap2\n      sub\n      swap1\n      return\n        /* \"vinci-protocol/contracts/NftAuctionStorage.sol\":752:795  mapping(uint256 => Listing) public listings */\n    tag_7:\n      tag_23\n      0x04\n      dup1\n      calldatasize\n      sub\n      dup2\n      add\n      swap1\n      tag_24\n      swap2\n      swap1\n      tag_25\n      jump\t// in\n    tag_24:\n      tag_26\n      jump\t// in\n    tag_23:\n      mload(0x40)\n      tag_27\n      swap7\n      swap6\n      swap5\n      swap4\n      swap3\n      swap2\n      swap1\n      tag_28\n      jump\t// in\n    tag_27:\n      mload(0x40)\n      dup1\n      swap2\n      sub\n      swap1\n      return\n        /* \"vinci-protocol/contracts/NftAuctionStorage.sol\":718:743  address public VicAddress */\n    tag_8:\n      tag_29\n      tag_30\n      jump\t// in\n    tag_29:\n      mload(0x40)\n      tag_31\n      swap2\n      swap1\n      tag_19\n      jump\t// in\n    tag_31:\n      mload(0x40)\n      dup1\n      swap2\n      sub\n      swap1\n      return\n        /* \"vinci-protocol/contracts/NftAuctionStorage.sol\":871:902  uint256 public listingIdCounter */\n    tag_10:\n      sload(0x07)\n      dup2\n      jump\t// out\n        /* \"vinci-protocol/contracts/NftAuctionStorage.sol\":599:636  uint256 public TIME_BUYING = 96 hours */\n    tag_14:\n      sload(0x01)\n      dup2\n      jump\t// out\n        /* \"vinci-protocol/contracts/NftAuctionStorage.sol\":688:709  address public vicDAO */\n    tag_17:\n      0x03\n      0x00\n      swap1\n      sload\n      swap1\n      0x0100\n      exp\n      swap1\n      div\n      0xffffffffffffffffffffffffffffffffffffffff\n      and\n      dup2\n      jump\t// out\n        /* \"vinci-protocol/contracts/NftAuctionStorage.sol\":548:590  uint256 public AUCTION_DURATION = 48 hours */\n    tag_21:\n      sload(0x00)\n      dup2\n      jump\t// out\n        /* \"vinci-protocol/contracts/NftAuctionStorage.sol\":752:795  mapping(uint256 => Listing) public listings */\n    tag_26:\n      mstore(0x20, 0x05)\n      dup1\n      0x00\n      mstore\n      keccak256(0x00, 0x40)\n      0x00\n      swap2\n      pop\n      swap1\n      pop\n      dup1\n      0x00\n      add\n      mload(0x40)\n      dup1\n      0x80\n      add\n      0x40\n      mstore\n      swap1\n      dup2\n      0x00\n      dup3\n      add\n      0x00\n      swap1\n      sload\n      swap1\n      0x0100\n      exp\n      swap1\n      div\n      0xffffffffffffffffffffffffffffffffffffffff\n      and\n      0xffffffffffffffffffffffffffffffffffffffff\n      and\n      0xffffffffffffffffffffffffffffffffffffffff\n      and\n      dup2\n      mstore\n      0x20\n      add\n      0x01\n      dup3\n      add\n      sload\n      dup2\n      mstore\n      0x20\n      add\n      0x02\n      dup3\n      add\n      0x00\n      swap1\n      sload\n      swap1\n      0x0100\n      exp\n      swap1\n      div\n      0xffffffffffffffffffffffffffffffffffffffff\n      and\n      0xffffffffffffffffffffffffffffffffffffffff\n      and\n      0xffffffffffffffffffffffffffffffffffffffff\n      and\n      dup2\n      mstore\n      0x20\n      add\n      0x02\n      dup3\n      add\n      0x14\n      swap1\n      sload\n      swap1\n      0x0100\n      exp\n      swap1\n      div\n      0xff\n      and\n      0x02\n      dup2\n      gt\n      iszero\n      tag_32\n      jumpi\n      tag_33\n      tag_34\n      jump\t// in\n    tag_33:\n    tag_32:\n      0x02\n      dup2\n      gt\n      iszero\n      tag_35\n      jumpi\n      tag_36\n      tag_34\n      jump\t// in\n    tag_36:\n    tag_35:\n      dup2\n      mstore\n      pop\n      pop\n      swap1\n      dup1\n      0x03\n      add\n      sload\n      swap1\n      dup1\n      0x04\n      add\n      sload\n      swap1\n      dup1\n      0x05\n      add\n      sload\n      swap1\n      dup1\n      0x06\n      add\n      0x00\n      swap1\n      sload\n      swap1\n      0x0100\n      exp\n      swap1\n      div\n      0xffffffffffffffffffffffffffffffffffffffff\n      and\n      swap1\n      dup1\n      0x07\n      add\n      sload\n      swap1\n      pop\n      dup7\n      jump\t// out\n        /* \"vinci-protocol/contracts/NftAuctionStorage.sol\":718:743  address public VicAddress */\n    tag_30:\n      0x04\n      0x00\n      swap1\n      sload\n      swap1\n      0x0100\n      exp\n      swap1\n      div\n      0xffffffffffffffffffffffffffffffffffffffff\n      and\n      dup2\n      jump\t// out\n        /* \"#utility.yul\":7:84   */\n    tag_37:\n        /* \"#utility.yul\":44:51   */\n      0x00\n        /* \"#utility.yul\":73:78   */\n      dup2\n        /* \"#utility.yul\":62:78   */\n      swap1\n      pop\n        /* \"#utility.yul\":7:84   */\n      swap2\n      swap1\n      pop\n      jump\t// out\n        /* \"#utility.yul\":90:208   */\n    tag_38:\n        /* \"#utility.yul\":177:201   */\n      tag_57\n        /* \"#utility.yul\":195:200   */\n      dup2\n        /* \"#utility.yul\":177:201   */\n      tag_37\n      jump\t// in\n    tag_57:\n        /* \"#utility.yul\":172:175   */\n      dup3\n        /* \"#utility.yul\":165:202   */\n      mstore\n        /* \"#utility.yul\":90:208   */\n      pop\n      pop\n      jump\t// out\n        /* \"#utility.yul\":214:436   */\n    tag_12:\n        /* \"#utility.yul\":307:311   */\n      0x00\n        /* \"#utility.yul\":345:347   */\n      0x20\n        /* \"#utility.yul\":334:343   */\n      dup3\n        /* \"#utility.yul\":330:348   */\n      add\n        /* \"#utility.yul\":322:348   */\n      swap1\n      pop\n        /* \"#utility.yul\":358:429   */\n      tag_59\n        /* \"#utility.yul\":426:427   */\n      0x00\n        /* \"#utility.yul\":415:424   */\n      dup4\n        /* \"#utility.yul\":411:428   */\n      add\n        /* \"#utility.yul\":402:408   */\n      dup5\n        /* \"#utility.yul\":358:429   */\n      tag_38\n      jump\t// in\n    tag_59:\n        /* \"#utility.yul\":214:436   */\n      swap3\n      swap2\n      pop\n      pop\n      jump\t// out\n        /* \"#utility.yul\":442:568   */\n    tag_39:\n        /* \"#utility.yul\":479:486   */\n      0x00\n        /* \"#utility.yul\":519:561   */\n      0xffffffffffffffffffffffffffffffffffffffff\n        /* \"#utility.yul\":512:517   */\n      dup3\n        /* \"#utility.yul\":508:562   */\n      and\n        /* \"#utility.yul\":497:562   */\n      swap1\n      pop\n        /* \"#utility.yul\":442:568   */\n      swap2\n      swap1\n      pop\n      jump\t// out\n        /* \"#utility.yul\":574:670   */\n    tag_40:\n        /* \"#utility.yul\":611:618   */\n      0x00\n        /* \"#utility.yul\":640:664   */\n      tag_62\n        /* \"#utility.yul\":658:663   */\n      dup3\n        /* \"#utility.yul\":640:664   */\n      tag_39\n      jump\t// in\n    tag_62:\n        /* \"#utility.yul\":629:664   */\n      swap1\n      pop\n        /* \"#utility.yul\":574:670   */\n      swap2\n      swap1\n      pop\n      jump\t// out\n        /* \"#utility.yul\":676:794   */\n    tag_41:\n        /* \"#utility.yul\":763:787   */\n      tag_64\n        /* \"#utility.yul\":781:786   */\n      dup2\n        /* \"#utility.yul\":763:787   */\n      tag_40\n      jump\t// in\n    tag_64:\n        /* \"#utility.yul\":758:761   */\n      dup3\n        /* \"#utility.yul\":751:788   */\n      mstore\n        /* \"#utility.yul\":676:794   */\n      pop\n      pop\n      jump\t// out\n        /* \"#utility.yul\":800:1022   */\n    tag_19:\n        /* \"#utility.yul\":893:897   */\n      0x00\n        /* \"#utility.yul\":931:933   */\n      0x20\n        /* \"#utility.yul\":920:929   */\n      dup3\n        /* \"#utility.yul\":916:934   */\n      add\n        /* \"#utility.yul\":908:934   */\n      swap1\n      pop\n        /* \"#utility.yul\":944:1015   */\n      tag_66\n        /* \"#utility.yul\":1012:1013   */\n      0x00\n        /* \"#utility.yul\":1001:1010   */\n      dup4\n        /* \"#utility.yul\":997:1014   */\n      add\n        /* \"#utility.yul\":988:994   */\n      dup5\n        /* \"#utility.yul\":944:1015   */\n      tag_41\n      jump\t// in\n    tag_66:\n        /* \"#utility.yul\":800:1022   */\n      swap3\n      swap2\n      pop\n      pop\n      jump\t// out\n        /* \"#utility.yul\":1109:1226   */\n    tag_43:\n        /* \"#utility.yul\":1218:1219   */\n      0x00\n        /* \"#utility.yul\":1215:1216   */\n      dup1\n        /* \"#utility.yul\":1208:1220   */\n      revert\n        /* \"#utility.yul\":1355:1477   */\n    tag_45:\n        /* \"#utility.yul\":1428:1452   */\n      tag_71\n        /* \"#utility.yul\":1446:1451   */\n      dup2\n        /* \"#utility.yul\":1428:1452   */\n      tag_37\n      jump\t// in\n    tag_71:\n        /* \"#utility.yul\":1421:1426   */\n      dup2\n        /* \"#utility.yul\":1418:1453   */\n      eq\n        /* \"#utility.yul\":1408:1471   */\n      tag_72\n      jumpi\n        /* \"#utility.yul\":1467:1468   */\n      0x00\n        /* \"#utility.yul\":1464:1465   */\n      dup1\n        /* \"#utility.yul\":1457:1469   */\n      revert\n        /* \"#utility.yul\":1408:1471   */\n    tag_72:\n        /* \"#utility.yul\":1355:1477   */\n      pop\n      jump\t// out\n        /* \"#utility.yul\":1483:1622   */\n    tag_46:\n        /* \"#utility.yul\":1529:1534   */\n      0x00\n        /* \"#utility.yul\":1567:1573   */\n      dup2\n        /* \"#utility.yul\":1554:1574   */\n      calldataload\n        /* \"#utility.yul\":1545:1574   */\n      swap1\n      pop\n        /* \"#utility.yul\":1583:1616   */\n      tag_74\n        /* \"#utility.yul\":1610:1615   */\n      dup2\n        /* \"#utility.yul\":1583:1616   */\n      tag_45\n      jump\t// in\n    tag_74:\n        /* \"#utility.yul\":1483:1622   */\n      swap3\n      swap2\n      pop\n      pop\n      jump\t// out\n        /* \"#utility.yul\":1628:1957   */\n    tag_25:\n        /* \"#utility.yul\":1687:1693   */\n      0x00\n        /* \"#utility.yul\":1736:1738   */\n      0x20\n        /* \"#utility.yul\":1724:1733   */\n      dup3\n        /* \"#utility.yul\":1715:1722   */\n      dup5\n        /* \"#utility.yul\":1711:1734   */\n      sub\n        /* \"#utility.yul\":1707:1739   */\n      slt\n        /* \"#utility.yul\":1704:1823   */\n      iszero\n      tag_76\n      jumpi\n        /* \"#utility.yul\":1742:1821   */\n      tag_77\n      tag_43\n      jump\t// in\n    tag_77:\n        /* \"#utility.yul\":1704:1823   */\n    tag_76:\n        /* \"#utility.yul\":1862:1863   */\n      0x00\n        /* \"#utility.yul\":1887:1940   */\n      tag_78\n        /* \"#utility.yul\":1932:1939   */\n      dup5\n        /* \"#utility.yul\":1923:1929   */\n      dup3\n        /* \"#utility.yul\":1912:1921   */\n      dup6\n        /* \"#utility.yul\":1908:1930   */\n      add\n        /* \"#utility.yul\":1887:1940   */\n      tag_46\n      jump\t// in\n    tag_78:\n        /* \"#utility.yul\":1877:1940   */\n      swap2\n      pop\n        /* \"#utility.yul\":1833:1950   */\n      pop\n        /* \"#utility.yul\":1628:1957   */\n      swap3\n      swap2\n      pop\n      pop\n      jump\t// out\n        /* \"#utility.yul\":1963:2071   */\n    tag_47:\n        /* \"#utility.yul\":2040:2064   */\n      tag_80\n        /* \"#utility.yul\":2058:2063   */\n      dup2\n        /* \"#utility.yul\":2040:2064   */\n      tag_40\n      jump\t// in\n    tag_80:\n        /* \"#utility.yul\":2035:2038   */\n      dup3\n        /* \"#utility.yul\":2028:2065   */\n      mstore\n        /* \"#utility.yul\":1963:2071   */\n      pop\n      pop\n      jump\t// out\n        /* \"#utility.yul\":2077:2185   */\n    tag_48:\n        /* \"#utility.yul\":2154:2178   */\n      tag_82\n        /* \"#utility.yul\":2172:2177   */\n      dup2\n        /* \"#utility.yul\":2154:2178   */\n      tag_37\n      jump\t// in\n    tag_82:\n        /* \"#utility.yul\":2149:2152   */\n      dup3\n        /* \"#utility.yul\":2142:2179   */\n      mstore\n        /* \"#utility.yul\":2077:2185   */\n      pop\n      pop\n      jump\t// out\n        /* \"#utility.yul\":2191:2371   */\n    tag_34:\n        /* \"#utility.yul\":2239:2316   */\n      0x4e487b7100000000000000000000000000000000000000000000000000000000\n        /* \"#utility.yul\":2236:2237   */\n      0x00\n        /* \"#utility.yul\":2229:2317   */\n      mstore\n        /* \"#utility.yul\":2336:2340   */\n      0x21\n        /* \"#utility.yul\":2333:2334   */\n      0x04\n        /* \"#utility.yul\":2326:2341   */\n      mstore\n        /* \"#utility.yul\":2360:2364   */\n      0x24\n        /* \"#utility.yul\":2357:2358   */\n      0x00\n        /* \"#utility.yul\":2350:2365   */\n      revert\n        /* \"#utility.yul\":2377:2491   */\n    tag_49:\n        /* \"#utility.yul\":2459:2460   */\n      0x03\n        /* \"#utility.yul\":2452:2457   */\n      dup2\n        /* \"#utility.yul\":2449:2461   */\n      lt\n        /* \"#utility.yul\":2439:2485   */\n      tag_85\n      jumpi\n        /* \"#utility.yul\":2465:2483   */\n      tag_86\n      tag_34\n      jump\t// in\n    tag_86:\n        /* \"#utility.yul\":2439:2485   */\n    tag_85:\n        /* \"#utility.yul\":2377:2491   */\n      pop\n      jump\t// out\n        /* \"#utility.yul\":2497:2626   */\n    tag_50:\n        /* \"#utility.yul\":2543:2550   */\n      0x00\n        /* \"#utility.yul\":2572:2577   */\n      dup2\n        /* \"#utility.yul\":2561:2577   */\n      swap1\n      pop\n        /* \"#utility.yul\":2578:2620   */\n      tag_88\n        /* \"#utility.yul\":2614:2619   */\n      dup3\n        /* \"#utility.yul\":2578:2620   */\n      tag_49\n      jump\t// in\n    tag_88:\n        /* \"#utility.yul\":2497:2626   */\n      swap2\n      swap1\n      pop\n      jump\t// out\n        /* \"#utility.yul\":2632:2761   */\n    tag_51:\n        /* \"#utility.yul\":2689:2698   */\n      0x00\n        /* \"#utility.yul\":2722:2755   */\n      tag_90\n        /* \"#utility.yul\":2749:2754   */\n      dup3\n        /* \"#utility.yul\":2722:2755   */\n      tag_50\n      jump\t// in\n    tag_90:\n        /* \"#utility.yul\":2709:2755   */\n      swap1\n      pop\n        /* \"#utility.yul\":2632:2761   */\n      swap2\n      swap1\n      pop\n      jump\t// out\n        /* \"#utility.yul\":2767:2902   */\n    tag_52:\n        /* \"#utility.yul\":2851:2895   */\n      tag_92\n        /* \"#utility.yul\":2889:2894   */\n      dup2\n        /* \"#utility.yul\":2851:2895   */\n      tag_51\n      jump\t// in\n    tag_92:\n        /* \"#utility.yul\":2846:2849   */\n      dup3\n        /* \"#utility.yul\":2839:2896   */\n      mstore\n        /* \"#utility.yul\":2767:2902   */\n      pop\n      pop\n      jump\t// out\n        /* \"#utility.yul\":2976:3839   */\n    tag_53:\n        /* \"#utility.yul\":3111:3115   */\n      0x80\n        /* \"#utility.yul\":3106:3109   */\n      dup3\n        /* \"#utility.yul\":3102:3116   */\n      add\n        /* \"#utility.yul\":3204:3208   */\n      0x00\n        /* \"#utility.yul\":3197:3202   */\n      dup3\n        /* \"#utility.yul\":3193:3209   */\n      add\n        /* \"#utility.yul\":3187:3210   */\n      mload\n        /* \"#utility.yul\":3223:3286   */\n      tag_94\n        /* \"#utility.yul\":3280:3284   */\n      0x00\n        /* \"#utility.yul\":3275:3278   */\n      dup6\n        /* \"#utility.yul\":3271:3285   */\n      add\n        /* \"#utility.yul\":3257:3269   */\n      dup3\n        /* \"#utility.yul\":3223:3286   */\n      tag_47\n      jump\t// in\n    tag_94:\n        /* \"#utility.yul\":3126:3296   */\n      pop\n        /* \"#utility.yul\":3381:3385   */\n      0x20\n        /* \"#utility.yul\":3374:3379   */\n      dup3\n        /* \"#utility.yul\":3370:3386   */\n      add\n        /* \"#utility.yul\":3364:3387   */\n      mload\n        /* \"#utility.yul\":3400:3463   */\n      tag_95\n        /* \"#utility.yul\":3457:3461   */\n      0x20\n        /* \"#utility.yul\":3452:3455   */\n      dup6\n        /* \"#utility.yul\":3448:3462   */\n      add\n        /* \"#utility.yul\":3434:3446   */\n      dup3\n        /* \"#utility.yul\":3400:3463   */\n      tag_48\n      jump\t// in\n    tag_95:\n        /* \"#utility.yul\":3306:3473   */\n      pop\n        /* \"#utility.yul\":3556:3560   */\n      0x40\n        /* \"#utility.yul\":3549:3554   */\n      dup3\n        /* \"#utility.yul\":3545:3561   */\n      add\n        /* \"#utility.yul\":3539:3562   */\n      mload\n        /* \"#utility.yul\":3575:3638   */\n      tag_96\n        /* \"#utility.yul\":3632:3636   */\n      0x40\n        /* \"#utility.yul\":3627:3630   */\n      dup6\n        /* \"#utility.yul\":3623:3637   */\n      add\n        /* \"#utility.yul\":3609:3621   */\n      dup3\n        /* \"#utility.yul\":3575:3638   */\n      tag_47\n      jump\t// in\n    tag_96:\n        /* \"#utility.yul\":3483:3648   */\n      pop\n        /* \"#utility.yul\":3733:3737   */\n      0x60\n        /* \"#utility.yul\":3726:3731   */\n      dup3\n        /* \"#utility.yul\":3722:3738   */\n      add\n        /* \"#utility.yul\":3716:3739   */\n      mload\n        /* \"#utility.yul\":3752:3822   */\n      tag_97\n        /* \"#utility.yul\":3816:3820   */\n      0x60\n        /* \"#utility.yul\":3811:3814   */\n      dup6\n        /* \"#utility.yul\":3807:3821   */\n      add\n        /* \"#utility.yul\":3793:3805   */\n      dup3\n        /* \"#utility.yul\":3752:3822   */\n      tag_52\n      jump\t// in\n    tag_97:\n        /* \"#utility.yul\":3658:3832   */\n      pop\n        /* \"#utility.yul\":3080:3839   */\n      pop\n        /* \"#utility.yul\":2976:3839   */\n      pop\n      pop\n      jump\t// out\n        /* \"#utility.yul\":3845:4699   */\n    tag_28:\n        /* \"#utility.yul\":4116:4120   */\n      0x00\n        /* \"#utility.yul\":4154:4157   */\n      0x0120\n        /* \"#utility.yul\":4143:4152   */\n      dup3\n        /* \"#utility.yul\":4139:4158   */\n      add\n        /* \"#utility.yul\":4131:4158   */\n      swap1\n      pop\n        /* \"#utility.yul\":4168:4277   */\n      tag_99\n        /* \"#utility.yul\":4274:4275   */\n      0x00\n        /* \"#utility.yul\":4263:4272   */\n      dup4\n        /* \"#utility.yul\":4259:4276   */\n      add\n        /* \"#utility.yul\":4250:4256   */\n      dup10\n        /* \"#utility.yul\":4168:4277   */\n      tag_53\n      jump\t// in\n    tag_99:\n        /* \"#utility.yul\":4287:4360   */\n      tag_100\n        /* \"#utility.yul\":4355:4358   */\n      0x80\n        /* \"#utility.yul\":4344:4353   */\n      dup4\n        /* \"#utility.yul\":4340:4359   */\n      add\n        /* \"#utility.yul\":4331:4337   */\n      dup9\n        /* \"#utility.yul\":4287:4360   */\n      tag_38\n      jump\t// in\n    tag_100:\n        /* \"#utility.yul\":4370:4443   */\n      tag_101\n        /* \"#utility.yul\":4438:4441   */\n      0xa0\n        /* \"#utility.yul\":4427:4436   */\n      dup4\n        /* \"#utility.yul\":4423:4442   */\n      add\n        /* \"#utility.yul\":4414:4420   */\n      dup8\n        /* \"#utility.yul\":4370:4443   */\n      tag_38\n      jump\t// in\n    tag_101:\n        /* \"#utility.yul\":4453:4526   */\n      tag_102\n        /* \"#utility.yul\":4521:4524   */\n      0xc0\n        /* \"#utility.yul\":4510:4519   */\n      dup4\n        /* \"#utility.yul\":4506:4525   */\n      add\n        /* \"#utility.yul\":4497:4503   */\n      dup7\n        /* \"#utility.yul\":4453:4526   */\n      tag_38\n      jump\t// in\n    tag_102:\n        /* \"#utility.yul\":4536:4609   */\n      tag_103\n        /* \"#utility.yul\":4604:4607   */\n      0xe0\n        /* \"#utility.yul\":4593:4602   */\n      dup4\n        /* \"#utility.yul\":4589:4608   */\n      add\n        /* \"#utility.yul\":4580:4586   */\n      dup6\n        /* \"#utility.yul\":4536:4609   */\n      tag_41\n      jump\t// in\n    tag_103:\n        /* \"#utility.yul\":4619:4692   */\n      tag_104\n        /* \"#utility.yul\":4687:4690   */\n      0x0100\n        /* \"#utility.yul\":4676:4685   */\n      dup4\n        /* \"#utility.yul\":4672:4691   */\n      add\n        /* \"#utility.yul\":4663:4669   */\n      dup5\n        /* \"#utility.yul\":4619:4692   */\n      tag_38\n      jump\t// in\n    tag_104:\n        /* \"#utility.yul\":3845:4699   */\n      swap8\n      swap7\n      pop\n      pop\n      pop\n      pop\n      pop\n      pop\n      pop\n      jump\t// out\n\n    auxdata: 0xa264697066735822122023c749f3057ac7074a1ec4c01fe78ec4df6e6af25fe3c7c9eb7ecda03d6b5bda64736f6c63430008120033\n}\n",
				"bytecode": {
					"linkReferences": {},
					"object": "60806040526202a3006000556205460060015534801561001e57600080fd5b506105588061002e6000396000f3fe608060405234801561001057600080fd5b50600436106100625760003560e01c8063231701e91461006757806341adb2eb146100855780639f4d5628146100a3578063a271e525146100c1578063de74e57b146100df578063f0b5f67114610114575b600080fd5b61006f610132565b60405161007c9190610300565b60405180910390f35b61008d610138565b60405161009a9190610300565b60405180910390f35b6100ab61013e565b6040516100b8919061035c565b60405180910390f35b6100c9610164565b6040516100d69190610300565b60405180910390f35b6100f960048036038101906100f491906103a8565b61016a565b60405161010b969594939291906104bf565b60405180910390f35b61011c6102c1565b604051610129919061035c565b60405180910390f35b60075481565b60015481565b600360009054906101000a900473ffffffffffffffffffffffffffffffffffffffff1681565b60005481565b6005602052806000526040600020600091509050806000016040518060800160405290816000820160009054906101000a900473ffffffffffffffffffffffffffffffffffffffff1673ffffffffffffffffffffffffffffffffffffffff1673ffffffffffffffffffffffffffffffffffffffff168152602001600182015481526020016002820160009054906101000a900473ffffffffffffffffffffffffffffffffffffffff1673ffffffffffffffffffffffffffffffffffffffff1673ffffffffffffffffffffffffffffffffffffffff1681526020016002820160149054906101000a900460ff166002811115610268576102676103f3565b5b600281111561027a576102796103f3565b5b81525050908060030154908060040154908060050154908060060160009054906101000a900473ffffffffffffffffffffffffffffffffffffffff16908060070154905086565b600460009054906101000a900473ffffffffffffffffffffffffffffffffffffffff1681565b6000819050919050565b6102fa816102e7565b82525050565b600060208201905061031560008301846102f1565b92915050565b600073ffffffffffffffffffffffffffffffffffffffff82169050919050565b60006103468261031b565b9050919050565b6103568161033b565b82525050565b6000602082019050610371600083018461034d565b92915050565b600080fd5b610385816102e7565b811461039057600080fd5b50565b6000813590506103a28161037c565b92915050565b6000602082840312156103be576103bd610377565b5b60006103cc84828501610393565b91505092915050565b6103de8161033b565b82525050565b6103ed816102e7565b82525050565b7f4e487b7100000000000000000000000000000000000000000000000000000000600052602160045260246000fd5b60038110610433576104326103f3565b5b50565b600081905061044482610422565b919050565b600061045482610436565b9050919050565b61046481610449565b82525050565b60808201600082015161048060008501826103d5565b50602082015161049360208501826103e4565b5060408201516104a660408501826103d5565b5060608201516104b9606085018261045b565b50505050565b6000610120820190506104d5600083018961046a565b6104e260808301886102f1565b6104ef60a08301876102f1565b6104fc60c08301866102f1565b61050960e083018561034d565b6105176101008301846102f1565b97965050505050505056fea264697066735822122023c749f3057ac7074a1ec4c01fe78ec4df6e6af25fe3c7c9eb7ecda03d6b5bda64736f6c63430008120033",
					"opcodes": "PUSH1 0x80 PUSH1 0x40 MSTORE PUSH3 0x2A300 PUSH1 0x0 SSTORE PUSH3 0x54600 PUSH1 0x1 SSTORE CALLVALUE DUP1 ISZERO PUSH2 0x1E JUMPI PUSH1 0x0 DUP1 REVERT JUMPDEST POP PUSH2 0x558 DUP1 PUSH2 0x2E PUSH1 0x0 CODECOPY PUSH1 0x0 RETURN INVALID PUSH1 0x80 PUSH1 0x40 MSTORE CALLVALUE DUP1 ISZERO PUSH2 0x10 JUMPI PUSH1 0x0 DUP1 REVERT JUMPDEST POP PUSH1 0x4 CALLDATASIZE LT PUSH2 0x62 JUMPI PUSH1 0x0 CALLDATALOAD PUSH1 0xE0 SHR DUP1 PUSH4 0x231701E9 EQ PUSH2 0x67 JUMPI DUP1 PUSH4 0x41ADB2EB EQ PUSH2 0x85 JUMPI DUP1 PUSH4 0x9F4D5628 EQ PUSH2 0xA3 JUMPI DUP1 PUSH4 0xA271E525 EQ PUSH2 0xC1 JUMPI DUP1 PUSH4 0xDE74E57B EQ PUSH2 0xDF JUMPI DUP1 PUSH4 0xF0B5F671 EQ PUSH2 0x114 JUMPI JUMPDEST PUSH1 0x0 DUP1 REVERT JUMPDEST PUSH2 0x6F PUSH2 0x132 JUMP JUMPDEST PUSH1 0x40 MLOAD PUSH2 0x7C SWAP2 SWAP1 PUSH2 0x300 JUMP JUMPDEST PUSH1 0x40 MLOAD DUP1 SWAP2 SUB SWAP1 RETURN JUMPDEST PUSH2 0x8D PUSH2 0x138 JUMP JUMPDEST PUSH1 0x40 MLOAD PUSH2 0x9A SWAP2 SWAP1 PUSH2 0x300 JUMP JUMPDEST PUSH1 0x40 MLOAD DUP1 SWAP2 SUB SWAP1 RETURN JUMPDEST PUSH2 0xAB PUSH2 0x13E JUMP JUMPDEST PUSH1 0x40 MLOAD PUSH2 0xB8 SWAP2 SWAP1 PUSH2 0x35C JUMP JUMPDEST PUSH1 0x40 MLOAD DUP1 SWAP2 SUB SWAP1 RETURN JUMPDEST PUSH2 0xC9 PUSH2 0x164 JUMP JUMPDEST PUSH1 0x40 MLOAD PUSH2 0xD6 SWAP2 SWAP1 PUSH2 0x300 JUMP JUMPDEST PUSH1 0x40 MLOAD DUP1 SWAP2 SUB SWAP1 RETURN JUMPDEST PUSH2 0xF9 PUSH1 0x4 DUP1 CALLDATASIZE SUB DUP2 ADD SWAP1 PUSH2 0xF4 SWAP2 SWAP1 PUSH2 0x3A8 JUMP JUMPDEST PUSH2 0x16A JUMP JUMPDEST PUSH1 0x40 MLOAD PUSH2 0x10B SWAP7 SWAP6 SWAP5 SWAP4 SWAP3 SWAP2 SWAP1 PUSH2 0x4BF JUMP JUMPDEST PUSH1 0x40 MLOAD DUP1 SWAP2 SUB SWAP1 RETURN JUMPDEST PUSH2 0x11C PUSH2 0x2C1 JUMP JUMPDEST PUSH1 0x40 MLOAD PUSH2 0x129 SWAP2 SWAP1 PUSH2 0x35C JUMP JUMPDEST PUSH1 0x40 MLOAD DUP1 SWAP2 SUB SWAP1 RETURN JUMPDEST PUSH1 0x7 SLOAD DUP2 JUMP JUMPDEST PUSH1 0x1 SLOAD DUP2 JUMP JUMPDEST PUSH1 0x3 PUSH1 0x0 SWAP1 SLOAD SWAP1 PUSH2 0x100 EXP SWAP1 DIV PUSH20 0xFFFFFFFFFFFFFFFFFFFFFFFFFFFFFFFFFFFFFFFF AND DUP2 JUMP JUMPDEST PUSH1 0x0 SLOAD DUP2 JUMP JUMPDEST PUSH1 0x5 PUSH1 0x20 MSTORE DUP1 PUSH1 0x0 MSTORE PUSH1 0x40 PUSH1 0x0 KECCAK256 PUSH1 0x0 SWAP2 POP SWAP1 POP DUP1 PUSH1 0x0 ADD PUSH1 0x40 MLOAD DUP1 PUSH1 0x80 ADD PUSH1 0x40 MSTORE SWAP1 DUP2 PUSH1 0x0 DUP3 ADD PUSH1 0x0 SWAP1 SLOAD SWAP1 PUSH2 0x100 EXP SWAP1 DIV PUSH20 0xFFFFFFFFFFFFFFFFFFFFFFFFFFFFFFFFFFFFFFFF AND PUSH20 0xFFFFFFFFFFFFFFFFFFFFFFFFFFFFFFFFFFFFFFFF AND PUSH20 0xFFFFFFFFFFFFFFFFFFFFFFFFFFFFFFFFFFFFFFFF AND DUP2 MSTORE PUSH1 0x20 ADD PUSH1 0x1 DUP3 ADD SLOAD DUP2 MSTORE PUSH1 0x20 ADD PUSH1 0x2 DUP3 ADD PUSH1 0x0 SWAP1 SLOAD SWAP1 PUSH2 0x100 EXP SWAP1 DIV PUSH20 0xFFFFFFFFFFFFFFFFFFFFFFFFFFFFFFFFFFFFFFFF AND PUSH20 0xFFFFFFFFFFFFFFFFFFFFFFFFFFFFFFFFFFFFFFFF AND PUSH20 0xFFFFFFFFFFFFFFFFFFFFFFFFFFFFFFFFFFFFFFFF AND DUP2 MSTORE PUSH1 0x20 ADD PUSH1 0x2 DUP3 ADD PUSH1 0x14 SWAP1 SLOAD SWAP1 PUSH2 0x100 EXP SWAP1 DIV PUSH1 0xFF AND PUSH1 0x2 DUP2 GT ISZERO PUSH2 0x268 JUMPI PUSH2 0x267 PUSH2 0x3F3 JUMP JUMPDEST JUMPDEST PUSH1 0x2 DUP2 GT ISZERO PUSH2 0x27A JUMPI PUSH2 0x279 PUSH2 0x3F3 JUMP JUMPDEST JUMPDEST DUP2 MSTORE POP POP SWAP1 DUP1 PUSH1 0x3 ADD SLOAD SWAP1 DUP1 PUSH1 0x4 ADD SLOAD SWAP1 DUP1 PUSH1 0x5 ADD SLOAD SWAP1 DUP1 PUSH1 0x6 ADD PUSH1 0x0 SWAP1 SLOAD SWAP1 PUSH2 0x100 EXP SWAP1 DIV PUSH20 0xFFFFFFFFFFFFFFFFFFFFFFFFFFFFFFFFFFFFFFFF AND SWAP1 DUP1 PUSH1 0x7 ADD SLOAD SWAP1 POP DUP7 JUMP JUMPDEST PUSH1 0x4 PUSH1 0x0 SWAP1 SLOAD SWAP1 PUSH2 0x100 EXP SWAP1 DIV PUSH20 0xFFFFFFFFFFFFFFFFFFFFFFFFFFFFFFFFFFFFFFFF AND DUP2 JUMP JUMPDEST PUSH1 0x0 DUP2 SWAP1 POP SWAP2 SWAP1 POP JUMP JUMPDEST PUSH2 0x2FA DUP2 PUSH2 0x2E7 JUMP JUMPDEST DUP3 MSTORE POP POP JUMP JUMPDEST PUSH1 0x0 PUSH1 0x20 DUP3 ADD SWAP1 POP PUSH2 0x315 PUSH1 0x0 DUP4 ADD DUP5 PUSH2 0x2F1 JUMP JUMPDEST SWAP3 SWAP2 POP POP JUMP JUMPDEST PUSH1 0x0 PUSH20 0xFFFFFFFFFFFFFFFFFFFFFFFFFFFFFFFFFFFFFFFF DUP3 AND SWAP1 POP SWAP2 SWAP1 POP JUMP JUMPDEST PUSH1 0x0 PUSH2 0x346 DUP3 PUSH2 0x31B JUMP JUMPDEST SWAP1 POP SWAP2 SWAP1 POP JUMP JUMPDEST PUSH2 0x356 DUP2 PUSH2 0x33B JUMP JUMPDEST DUP3 MSTORE POP POP JUMP JUMPDEST PUSH1 0x0 PUSH1 0x20 DUP3 ADD SWAP1 POP PUSH2 0x371 PUSH1 0x0 DUP4 ADD DUP5 PUSH2 0x34D JUMP JUMPDEST SWAP3 SWAP2 POP POP JUMP JUMPDEST PUSH1 0x0 DUP1 REVERT JUMPDEST PUSH2 0x385 DUP2 PUSH2 0x2E7 JUMP JUMPDEST DUP2 EQ PUSH2 0x390 JUMPI PUSH1 0x0 DUP1 REVERT JUMPDEST POP JUMP JUMPDEST PUSH1 0x0 DUP2 CALLDATALOAD SWAP1 POP PUSH2 0x3A2 DUP2 PUSH2 0x37C JUMP JUMPDEST SWAP3 SWAP2 POP POP JUMP JUMPDEST PUSH1 0x0 PUSH1 0x20 DUP3 DUP5 SUB SLT ISZERO PUSH2 0x3BE JUMPI PUSH2 0x3BD PUSH2 0x377 JUMP JUMPDEST JUMPDEST PUSH1 0x0 PUSH2 0x3CC DUP5 DUP3 DUP6 ADD PUSH2 0x393 JUMP JUMPDEST SWAP2 POP POP SWAP3 SWAP2 POP POP JUMP JUMPDEST PUSH2 0x3DE DUP2 PUSH2 0x33B JUMP JUMPDEST DUP3 MSTORE POP POP JUMP JUMPDEST PUSH2 0x3ED DUP2 PUSH2 0x2E7 JUMP JUMPDEST DUP3 MSTORE POP POP JUMP JUMPDEST PUSH32 0x4E487B7100000000000000000000000000000000000000000000000000000000 PUSH1 0x0 MSTORE PUSH1 0x21 PUSH1 0x4 MSTORE PUSH1 0x24 PUSH1 0x0 REVERT JUMPDEST PUSH1 0x3 DUP2 LT PUSH2 0x433 JUMPI PUSH2 0x432 PUSH2 0x3F3 JUMP JUMPDEST JUMPDEST POP JUMP JUMPDEST PUSH1 0x0 DUP2 SWAP1 POP PUSH2 0x444 DUP3 PUSH2 0x422 JUMP JUMPDEST SWAP2 SWAP1 POP JUMP JUMPDEST PUSH1 0x0 PUSH2 0x454 DUP3 PUSH2 0x436 JUMP JUMPDEST SWAP1 POP SWAP2 SWAP1 POP JUMP JUMPDEST PUSH2 0x464 DUP2 PUSH2 0x449 JUMP JUMPDEST DUP3 MSTORE POP POP JUMP JUMPDEST PUSH1 0x80 DUP3 ADD PUSH1 0x0 DUP3 ADD MLOAD PUSH2 0x480 PUSH1 0x0 DUP6 ADD DUP3 PUSH2 0x3D5 JUMP JUMPDEST POP PUSH1 0x20 DUP3 ADD MLOAD PUSH2 0x493 PUSH1 0x20 DUP6 ADD DUP3 PUSH2 0x3E4 JUMP JUMPDEST POP PUSH1 0x40 DUP3 ADD MLOAD PUSH2 0x4A6 PUSH1 0x40 DUP6 ADD DUP3 PUSH2 0x3D5 JUMP JUMPDEST POP PUSH1 0x60 DUP3 ADD MLOAD PUSH2 0x4B9 PUSH1 0x60 DUP6 ADD DUP3 PUSH2 0x45B JUMP JUMPDEST POP POP POP POP JUMP JUMPDEST PUSH1 0x0 PUSH2 0x120 DUP3 ADD SWAP1 POP PUSH2 0x4D5 PUSH1 0x0 DUP4 ADD DUP10 PUSH2 0x46A JUMP JUMPDEST PUSH2 0x4E2 PUSH1 0x80 DUP4 ADD DUP9 PUSH2 0x2F1 JUMP JUMPDEST PUSH2 0x4EF PUSH1 0xA0 DUP4 ADD DUP8 PUSH2 0x2F1 JUMP JUMPDEST PUSH2 0x4FC PUSH1 0xC0 DUP4 ADD DUP7 PUSH2 0x2F1 JUMP JUMPDEST PUSH2 0x509 PUSH1 0xE0 DUP4 ADD DUP6 PUSH2 0x34D JUMP JUMPDEST PUSH2 0x517 PUSH2 0x100 DUP4 ADD DUP5 PUSH2 0x2F1 JUMP JUMPDEST SWAP8 SWAP7 POP POP POP POP POP POP POP JUMP INVALID LOG2 PUSH5 0x6970667358 0x22 SLT KECCAK256 0x23 0xC7 0x49 RETURN SDIV PUSH27 0xC7074A1EC4C01FE78EC4DF6E6AF25FE3C7C9EB7ECDA03D6B5BDA64 PUSH20 0x6F6C634300081200330000000000000000000000 "
				},
				"gasEstimates": {
					"creation": {
						"codeDepositCost": "273600",
						"executionCost": "44524",
						"totalCost": "318124"
					},
					"external": {
						"AUCTION_DURATION()": "2473",
						"TIME_BUYING()": "2429",
						"VicAddress()": "2602",
						"listingIdCounter()": "2407",
						"listings(uint256)": "infinite",
						"vicDAO()": "2536"
					}
				},
				"methodIdentifiers": {
					"AUCTION_DURATION()": "a271e525",
					"TIME_BUYING()": "41adb2eb",
					"VicAddress()": "f0b5f671",
					"listingIdCounter()": "231701e9",
					"listings(uint256)": "de74e57b",
					"vicDAO()": "9f4d5628"
				}
			},
			"storageLayout": {
				"storage": [
					{
						"astId": 33,
						"contract": "vinci-protocol/contracts/NftAuctionStorage.sol:NftAuctionStorage",
						"label": "AUCTION_DURATION",
						"offset": 0,
						"slot": "0",
						"type": "t_uint256"
					},
					{
						"astId": 36,
						"contract": "vinci-protocol/contracts/NftAuctionStorage.sol:NftAuctionStorage",
						"label": "TIME_BUYING",
						"offset": 0,
						"slot": "1",
						"type": "t_uint256"
					},
					{
						"astId": 39,
						"contract": "vinci-protocol/contracts/NftAuctionStorage.sol:NftAuctionStorage",
						"label": "Nodes",
						"offset": 0,
						"slot": "2",
						"type": "t_struct(UintLinkedList)509_storage"
					},
					{
						"astId": 41,
						"contract": "vinci-protocol/contracts/NftAuctionStorage.sol:NftAuctionStorage",
						"label": "vicDAO",
						"offset": 0,
						"slot": "3",
						"type": "t_address"
					},
					{
						"astId": 43,
						"contract": "vinci-protocol/contracts/NftAuctionStorage.sol:NftAuctionStorage",
						"label": "VicAddress",
						"offset": 0,
						"slot": "4",
						"type": "t_address"
					},
					{
						"astId": 48,
						"contract": "vinci-protocol/contracts/NftAuctionStorage.sol:NftAuctionStorage",
						"label": "listings",
						"offset": 0,
						"slot": "5",
						"type": "t_mapping(t_uint256,t_struct(Listing)30_storage)"
					},
					{
						"astId": 54,
						"contract": "vinci-protocol/contracts/NftAuctionStorage.sol:NftAuctionStorage",
						"label": "nftToIndex",
						"offset": 0,
						"slot": "6",
						"type": "t_mapping(t_address,t_mapping(t_uint256,t_uint256))"
					},
					{
						"astId": 56,
						"contract": "vinci-protocol/contracts/NftAuctionStorage.sol:NftAuctionStorage",
						"label": "listingIdCounter",
						"offset": 0,
						"slot": "7",
						"type": "t_uint256"
					}
				],
				"types": {
					"t_address": {
						"encoding": "inplace",
						"label": "address",
						"numberOfBytes": "20"
					},
					"t_bytes32": {
						"encoding": "inplace",
						"label": "bytes32",
						"numberOfBytes": "32"
					},
					"t_enum(NftType)6": {
						"encoding": "inplace",
						"label": "enum NftAuctionStorage.NftType",
						"numberOfBytes": "1"
					},
					"t_mapping(t_address,t_mapping(t_uint256,t_uint256))": {
						"encoding": "mapping",
						"key": "t_address",
						"label": "mapping(address => mapping(uint256 => uint256))",
						"numberOfBytes": "32",
						"value": "t_mapping(t_uint256,t_uint256)"
					},
					"t_mapping(t_bytes32,t_struct(Node)72_storage)": {
						"encoding": "mapping",
						"key": "t_bytes32",
						"label": "mapping(bytes32 => struct LinkedListLib.Node)",
						"numberOfBytes": "32",
						"value": "t_struct(Node)72_storage"
					},
					"t_mapping(t_uint256,t_struct(Listing)30_storage)": {
						"encoding": "mapping",
						"key": "t_uint256",
						"label": "mapping(uint256 => struct NftAuctionStorage.Listing)",
						"numberOfBytes": "32",
						"value": "t_struct(Listing)30_storage"
					},
					"t_mapping(t_uint256,t_uint256)": {
						"encoding": "mapping",
						"key": "t_uint256",
						"label": "mapping(uint256 => uint256)",
						"numberOfBytes": "32",
						"value": "t_uint256"
					},
					"t_struct(LinkedList)78_storage": {
						"encoding": "inplace",
						"label": "struct LinkedListLib.LinkedList",
						"members": [
							{
								"astId": 77,
								"contract": "vinci-protocol/contracts/NftAuctionStorage.sol:NftAuctionStorage",
								"label": "list",
								"offset": 0,
								"slot": "0",
								"type": "t_mapping(t_bytes32,t_struct(Node)72_storage)"
							}
						],
						"numberOfBytes": "32"
					},
					"t_struct(Listing)30_storage": {
						"encoding": "inplace",
						"label": "struct NftAuctionStorage.Listing",
						"members": [
							{
								"astId": 19,
								"contract": "vinci-protocol/contracts/NftAuctionStorage.sol:NftAuctionStorage",
								"label": "nft",
								"offset": 0,
								"slot": "0",
								"type": "t_struct(NFT)16_storage"
							},
							{
								"astId": 21,
								"contract": "vinci-protocol/contracts/NftAuctionStorage.sol:NftAuctionStorage",
								"label": "id",
								"offset": 0,
								"slot": "3",
								"type": "t_uint256"
							},
							{
								"astId": 23,
								"contract": "vinci-protocol/contracts/NftAuctionStorage.sol:NftAuctionStorage",
								"label": "price",
								"offset": 0,
								"slot": "4",
								"type": "t_uint256"
							},
							{
								"astId": 25,
								"contract": "vinci-protocol/contracts/NftAuctionStorage.sol:NftAuctionStorage",
								"label": "startTimestamp",
								"offset": 0,
								"slot": "5",
								"type": "t_uint256"
							},
							{
								"astId": 27,
								"contract": "vinci-protocol/contracts/NftAuctionStorage.sol:NftAuctionStorage",
								"label": "highestBidder",
								"offset": 0,
								"slot": "6",
								"type": "t_address"
							},
							{
								"astId": 29,
								"contract": "vinci-protocol/contracts/NftAuctionStorage.sol:NftAuctionStorage",
								"label": "highestBidPrice",
								"offset": 0,
								"slot": "7",
								"type": "t_uint256"
							}
						],
						"numberOfBytes": "256"
					},
					"t_struct(NFT)16_storage": {
						"encoding": "inplace",
						"label": "struct NftAuctionStorage.NFT",
						"members": [
							{
								"astId": 8,
								"contract": "vinci-protocol/contracts/NftAuctionStorage.sol:NftAuctionStorage",
								"label": "nftAddress",
								"offset": 0,
								"slot": "0",
								"type": "t_address"
							},
							{
								"astId": 10,
								"contract": "vinci-protocol/contracts/NftAuctionStorage.sol:NftAuctionStorage",
								"label": "tokenId",
								"offset": 0,
								"slot": "1",
								"type": "t_uint256"
							},
							{
								"astId": 12,
								"contract": "vinci-protocol/contracts/NftAuctionStorage.sol:NftAuctionStorage",
								"label": "owner",
								"offset": 0,
								"slot": "2",
								"type": "t_address"
							},
							{
								"astId": 15,
								"contract": "vinci-protocol/contracts/NftAuctionStorage.sol:NftAuctionStorage",
								"label": "nftType",
								"offset": 20,
								"slot": "2",
								"type": "t_enum(NftType)6"
							}
						],
						"numberOfBytes": "96"
					},
					"t_struct(Node)72_storage": {
						"encoding": "inplace",
						"label": "struct LinkedListLib.Node",
						"members": [
							{
								"astId": 67,
								"contract": "vinci-protocol/contracts/NftAuctionStorage.sol:NftAuctionStorage",
								"label": "current",
								"offset": 0,
								"slot": "0",
								"type": "t_bytes32"
							},
							{
								"astId": 69,
								"contract": "vinci-protocol/contracts/NftAuctionStorage.sol:NftAuctionStorage",
								"label": "prev",
								"offset": 0,
								"slot": "1",
								"type": "t_bytes32"
							},
							{
								"astId": 71,
								"contract": "vinci-protocol/contracts/NftAuctionStorage.sol:NftAuctionStorage",
								"label": "next",
								"offset": 0,
								"slot": "2",
								"type": "t_bytes32"
							}
						],
						"numberOfBytes": "96"
					},
					"t_struct(UintLinkedList)509_storage": {
						"encoding": "inplace",
						"label": "struct LinkedListLib.UintLinkedList",
						"members": [
							{
								"astId": 508,
								"contract": "vinci-protocol/contracts/NftAuctionStorage.sol:NftAuctionStorage",
								"label": "_inner",
								"offset": 0,
								"slot": "0",
								"type": "t_struct(LinkedList)78_storage"
							}
						],
						"numberOfBytes": "32"
					},
					"t_uint256": {
						"encoding": "inplace",
						"label": "uint256",
						"numberOfBytes": "32"
					}
				}
			},
			"userdoc": {
				"kind": "user",
				"methods": {},
				"version": 1
			}
		}
	}
}