{
	"vinci-protocol-private/contracts/linkedList.sol": {
		"LinkedList": {
			"abi": [
				{
					"inputs": [
						{
							"internalType": "address",
							"name": "_balanceReader",
							"type": "address"
						}
					],
					"stateMutability": "nonpayable",
					"type": "constructor"
				},
				{
					"inputs": [],
					"name": "ZERO_ADDRESS",
					"outputs": [
						{
							"internalType": "address",
							"name": "",
							"type": "address"
						}
					],
					"stateMutability": "view",
					"type": "function"
				},
				{
					"inputs": [
						{
							"internalType": "address",
							"name": "user",
							"type": "address"
						}
					],
					"name": "getFront",
					"outputs": [
						{
							"internalType": "address",
							"name": "",
							"type": "address"
						}
					],
					"stateMutability": "view",
					"type": "function"
				},
				{
					"inputs": [
						{
							"internalType": "uint256",
							"name": "userAccount",
							"type": "uint256"
						}
					],
					"name": "getNewNodeFront",
					"outputs": [
						{
							"internalType": "address",
							"name": "front",
							"type": "address"
						}
					],
					"stateMutability": "view",
					"type": "function"
				},
				{
					"inputs": [
						{
							"internalType": "address",
							"name": "user",
							"type": "address"
						}
					],
					"name": "getNext",
					"outputs": [
						{
							"internalType": "address",
							"name": "",
							"type": "address"
						}
					],
					"stateMutability": "view",
					"type": "function"
				},
				{
					"inputs": [
						{
							"internalType": "uint256[]",
							"name": "list",
							"type": "uint256[]"
						}
					],
					"name": "getNodes",
					"outputs": [
						{
							"internalType": "address[]",
							"name": "",
							"type": "address[]"
						}
					],
					"stateMutability": "view",
					"type": "function"
				},
				{
					"inputs": [
						{
							"internalType": "address",
							"name": "user",
							"type": "address"
						},
						{
							"internalType": "uint256",
							"name": "account",
							"type": "uint256"
						},
						{
							"internalType": "address",
							"name": "front",
							"type": "address"
						}
					],
					"name": "increate",
					"outputs": [],
					"stateMutability": "nonpayable",
					"type": "function"
				},
				{
					"inputs": [
						{
							"internalType": "address",
							"name": "user",
							"type": "address"
						}
					],
					"name": "remove",
					"outputs": [],
					"stateMutability": "nonpayable",
					"type": "function"
				},
				{
					"inputs": [
						{
							"internalType": "address",
							"name": "user",
							"type": "address"
						},
						{
							"internalType": "uint256",
							"name": "account",
							"type": "uint256"
						},
						{
							"internalType": "address",
							"name": "front",
							"type": "address"
						}
					],
					"name": "update",
					"outputs": [],
					"stateMutability": "nonpayable",
					"type": "function"
				}
			],
			"devdoc": {
				"kind": "dev",
				"methods": {},
				"version": 1
			},
			"evm": {
				"assembly": "    /* \"vinci-protocol-private/contracts/linkedList.sol\":108:3691  contract LinkedList {... */\n  mstore(0x40, 0x80)\n    /* \"vinci-protocol-private/contracts/linkedList.sol\":422:425  0x0 */\n  0x00\n    /* \"vinci-protocol-private/contracts/linkedList.sol\":384:426  address public ZERO_ADDRESS = address(0x0) */\n  0x01\n  exp(0x0100, 0x00)\n  dup2\n  sload\n  dup2\n  0xffffffffffffffffffffffffffffffffffffffff\n  mul\n  not\n  and\n  swap1\n  dup4\n  0xffffffffffffffffffffffffffffffffffffffff\n  and\n  mul\n  or\n  swap1\n  sstore\n  pop\n    /* \"vinci-protocol-private/contracts/linkedList.sol\":452:453  0 */\n  0x00\n    /* \"vinci-protocol-private/contracts/linkedList.sol\":435:453  uint256 length = 0 */\n  0x02\n  sstore\n    /* \"vinci-protocol-private/contracts/linkedList.sol\":173:273  constructor(address _balanceReader){... */\n  callvalue\n  dup1\n  iszero\n  tag_1\n  jumpi\n  0x00\n  dup1\n  revert\ntag_1:\n  pop\n  mload(0x40)\n  sub(codesize, bytecodeSize)\n  dup1\n  bytecodeSize\n  dup4\n  codecopy\n  dup2\n  dup2\n  add\n  0x40\n  mstore\n  dup2\n  add\n  swap1\n  tag_2\n  swap2\n  swap1\n  tag_3\n  jump\t// in\ntag_2:\n    /* \"vinci-protocol-private/contracts/linkedList.sol\":249:263  _balanceReader */\n  dup1\n    /* \"vinci-protocol-private/contracts/linkedList.sol\":219:232  balanceReader */\n  0x00\n  dup1\n    /* \"vinci-protocol-private/contracts/linkedList.sol\":219:264  balanceReader = BalanceReader(_balanceReader) */\n  0x0100\n  exp\n  dup2\n  sload\n  dup2\n  0xffffffffffffffffffffffffffffffffffffffff\n  mul\n  not\n  and\n  swap1\n  dup4\n  0xffffffffffffffffffffffffffffffffffffffff\n  and\n  mul\n  or\n  swap1\n  sstore\n  pop\n    /* \"vinci-protocol-private/contracts/linkedList.sol\":173:273  constructor(address _balanceReader){... */\n  pop\n    /* \"vinci-protocol-private/contracts/linkedList.sol\":108:3691  contract LinkedList {... */\n  jump(tag_6)\n    /* \"#utility.yul\":88:205   */\ntag_8:\n    /* \"#utility.yul\":197:198   */\n  0x00\n    /* \"#utility.yul\":194:195   */\n  dup1\n    /* \"#utility.yul\":187:199   */\n  revert\n    /* \"#utility.yul\":334:460   */\ntag_10:\n    /* \"#utility.yul\":371:378   */\n  0x00\n    /* \"#utility.yul\":411:453   */\n  0xffffffffffffffffffffffffffffffffffffffff\n    /* \"#utility.yul\":404:409   */\n  dup3\n    /* \"#utility.yul\":400:454   */\n  and\n    /* \"#utility.yul\":389:454   */\n  swap1\n  pop\n    /* \"#utility.yul\":334:460   */\n  swap2\n  swap1\n  pop\n  jump\t// out\n    /* \"#utility.yul\":466:562   */\ntag_11:\n    /* \"#utility.yul\":503:510   */\n  0x00\n    /* \"#utility.yul\":532:556   */\n  tag_20\n    /* \"#utility.yul\":550:555   */\n  dup3\n    /* \"#utility.yul\":532:556   */\n  tag_10\n  jump\t// in\ntag_20:\n    /* \"#utility.yul\":521:556   */\n  swap1\n  pop\n    /* \"#utility.yul\":466:562   */\n  swap2\n  swap1\n  pop\n  jump\t// out\n    /* \"#utility.yul\":568:690   */\ntag_12:\n    /* \"#utility.yul\":641:665   */\n  tag_22\n    /* \"#utility.yul\":659:664   */\n  dup2\n    /* \"#utility.yul\":641:665   */\n  tag_11\n  jump\t// in\ntag_22:\n    /* \"#utility.yul\":634:639   */\n  dup2\n    /* \"#utility.yul\":631:666   */\n  eq\n    /* \"#utility.yul\":621:684   */\n  tag_23\n  jumpi\n    /* \"#utility.yul\":680:681   */\n  0x00\n    /* \"#utility.yul\":677:678   */\n  dup1\n    /* \"#utility.yul\":670:682   */\n  revert\n    /* \"#utility.yul\":621:684   */\ntag_23:\n    /* \"#utility.yul\":568:690   */\n  pop\n  jump\t// out\n    /* \"#utility.yul\":696:839   */\ntag_13:\n    /* \"#utility.yul\":753:758   */\n  0x00\n    /* \"#utility.yul\":784:790   */\n  dup2\n    /* \"#utility.yul\":778:791   */\n  mload\n    /* \"#utility.yul\":769:791   */\n  swap1\n  pop\n    /* \"#utility.yul\":800:833   */\n  tag_25\n    /* \"#utility.yul\":827:832   */\n  dup2\n    /* \"#utility.yul\":800:833   */\n  tag_12\n  jump\t// in\ntag_25:\n    /* \"#utility.yul\":696:839   */\n  swap3\n  swap2\n  pop\n  pop\n  jump\t// out\n    /* \"#utility.yul\":845:1196   */\ntag_3:\n    /* \"#utility.yul\":915:921   */\n  0x00\n    /* \"#utility.yul\":964:966   */\n  0x20\n    /* \"#utility.yul\":952:961   */\n  dup3\n    /* \"#utility.yul\":943:950   */\n  dup5\n    /* \"#utility.yul\":939:962   */\n  sub\n    /* \"#utility.yul\":935:967   */\n  slt\n    /* \"#utility.yul\":932:1051   */\n  iszero\n  tag_27\n  jumpi\n    /* \"#utility.yul\":970:1049   */\n  tag_28\n  tag_8\n  jump\t// in\ntag_28:\n    /* \"#utility.yul\":932:1051   */\ntag_27:\n    /* \"#utility.yul\":1090:1091   */\n  0x00\n    /* \"#utility.yul\":1115:1179   */\n  tag_29\n    /* \"#utility.yul\":1171:1178   */\n  dup5\n    /* \"#utility.yul\":1162:1168   */\n  dup3\n    /* \"#utility.yul\":1151:1160   */\n  dup6\n    /* \"#utility.yul\":1147:1169   */\n  add\n    /* \"#utility.yul\":1115:1179   */\n  tag_13\n  jump\t// in\ntag_29:\n    /* \"#utility.yul\":1105:1179   */\n  swap2\n  pop\n    /* \"#utility.yul\":1061:1189   */\n  pop\n    /* \"#utility.yul\":845:1196   */\n  swap3\n  swap2\n  pop\n  pop\n  jump\t// out\n    /* \"vinci-protocol-private/contracts/linkedList.sol\":108:3691  contract LinkedList {... */\ntag_6:\n  dataSize(sub_0)\n  dup1\n  dataOffset(sub_0)\n  0x00\n  codecopy\n  0x00\n  return\nstop\n\nsub_0: assembly {\n        /* \"vinci-protocol-private/contracts/linkedList.sol\":108:3691  contract LinkedList {... */\n      mstore(0x40, 0x80)\n      callvalue\n      dup1\n      iszero\n      tag_1\n      jumpi\n      0x00\n      dup1\n      revert\n    tag_1:\n      pop\n      jumpi(tag_2, lt(calldatasize, 0x04))\n      shr(0xe0, calldataload(0x00))\n      dup1\n      0x765e0159\n      gt\n      tag_11\n      jumpi\n      dup1\n      0x765e0159\n      eq\n      tag_7\n      jumpi\n      dup1\n      0x819e3503\n      eq\n      tag_8\n      jumpi\n      dup1\n      0x8f52d408\n      eq\n      tag_9\n      jumpi\n      dup1\n      0xa5541c84\n      eq\n      tag_10\n      jumpi\n      jump(tag_2)\n    tag_11:\n      dup1\n      0x29092d0e\n      eq\n      tag_3\n      jumpi\n      dup1\n      0x501a5162\n      eq\n      tag_4\n      jumpi\n      dup1\n      0x538ba4f9\n      eq\n      tag_5\n      jumpi\n      dup1\n      0x55da9813\n      eq\n      tag_6\n      jumpi\n    tag_2:\n      0x00\n      dup1\n      revert\n        /* \"vinci-protocol-private/contracts/linkedList.sol\":1573:1845  function remove(address user) onlyBalanceReader external {... */\n    tag_3:\n      tag_12\n      0x04\n      dup1\n      calldatasize\n      sub\n      dup2\n      add\n      swap1\n      tag_13\n      swap2\n      swap1\n      tag_14\n      jump\t// in\n    tag_13:\n      tag_15\n      jump\t// in\n    tag_12:\n      stop\n        /* \"vinci-protocol-private/contracts/linkedList.sol\":2045:2315  function update(address user,uint256 account, address front) onlyBalanceReader external {... */\n    tag_4:\n      tag_16\n      0x04\n      dup1\n      calldatasize\n      sub\n      dup2\n      add\n      swap1\n      tag_17\n      swap2\n      swap1\n      tag_18\n      jump\t// in\n    tag_17:\n      tag_19\n      jump\t// in\n    tag_16:\n      stop\n        /* \"vinci-protocol-private/contracts/linkedList.sol\":384:426  address public ZERO_ADDRESS = address(0x0) */\n    tag_5:\n      tag_20\n      tag_21\n      jump\t// in\n    tag_20:\n      mload(0x40)\n      tag_22\n      swap2\n      swap1\n      tag_23\n      jump\t// in\n    tag_22:\n      mload(0x40)\n      dup1\n      swap2\n      sub\n      swap1\n      return\n        /* \"vinci-protocol-private/contracts/linkedList.sol\":2323:2532  function getFront(address user) view public returns(address){... */\n    tag_6:\n      tag_24\n      0x04\n      dup1\n      calldatasize\n      sub\n      dup2\n      add\n      swap1\n      tag_25\n      swap2\n      swap1\n      tag_14\n      jump\t// in\n    tag_25:\n      tag_26\n      jump\t// in\n    tag_24:\n      mload(0x40)\n      tag_27\n      swap2\n      swap1\n      tag_23\n      jump\t// in\n    tag_27:\n      mload(0x40)\n      dup1\n      swap2\n      sub\n      swap1\n      return\n        /* \"vinci-protocol-private/contracts/linkedList.sol\":2540:2804  function getNext(address user) view public returns(address){... */\n    tag_7:\n      tag_28\n      0x04\n      dup1\n      calldatasize\n      sub\n      dup2\n      add\n      swap1\n      tag_29\n      swap2\n      swap1\n      tag_14\n      jump\t// in\n    tag_29:\n      tag_30\n      jump\t// in\n    tag_28:\n      mload(0x40)\n      tag_31\n      swap2\n      swap1\n      tag_23\n      jump\t// in\n    tag_31:\n      mload(0x40)\n      dup1\n      swap2\n      sub\n      swap1\n      return\n        /* \"vinci-protocol-private/contracts/linkedList.sol\":3373:3686  function getNewNodeFront(uint256 userAccount) view public returns(address front){... */\n    tag_8:\n      tag_32\n      0x04\n      dup1\n      calldatasize\n      sub\n      dup2\n      add\n      swap1\n      tag_33\n      swap2\n      swap1\n      tag_34\n      jump\t// in\n    tag_33:\n      tag_35\n      jump\t// in\n    tag_32:\n      mload(0x40)\n      tag_36\n      swap2\n      swap1\n      tag_23\n      jump\t// in\n    tag_36:\n      mload(0x40)\n      dup1\n      swap2\n      sub\n      swap1\n      return\n        /* \"vinci-protocol-private/contracts/linkedList.sol\":653:868  function increate(address user,uint256 account, address front) onlyBalanceReader external {... */\n    tag_9:\n      tag_37\n      0x04\n      dup1\n      calldatasize\n      sub\n      dup2\n      add\n      swap1\n      tag_38\n      swap2\n      swap1\n      tag_18\n      jump\t// in\n    tag_38:\n      tag_39\n      jump\t// in\n    tag_37:\n      stop\n        /* \"vinci-protocol-private/contracts/linkedList.sol\":2816:3365  function getNodes(... */\n    tag_10:\n      tag_40\n      0x04\n      dup1\n      calldatasize\n      sub\n      dup2\n      add\n      swap1\n      tag_41\n      swap2\n      swap1\n      tag_42\n      jump\t// in\n    tag_41:\n      tag_43\n      jump\t// in\n    tag_40:\n      mload(0x40)\n      tag_44\n      swap2\n      swap1\n      tag_45\n      jump\t// in\n    tag_44:\n      mload(0x40)\n      dup1\n      swap2\n      sub\n      swap1\n      return\n        /* \"vinci-protocol-private/contracts/linkedList.sol\":1573:1845  function remove(address user) onlyBalanceReader external {... */\n    tag_15:\n        /* \"vinci-protocol-private/contracts/linkedList.sol\":536:549  balanceReader */\n      0x00\n      dup1\n      sload\n      swap1\n      0x0100\n      exp\n      swap1\n      div\n      0xffffffffffffffffffffffffffffffffffffffff\n      and\n        /* \"vinci-protocol-private/contracts/linkedList.sol\":514:550  msg.sender == address(balanceReader) */\n      0xffffffffffffffffffffffffffffffffffffffff\n      and\n        /* \"vinci-protocol-private/contracts/linkedList.sol\":514:524  msg.sender */\n      caller\n        /* \"vinci-protocol-private/contracts/linkedList.sol\":514:550  msg.sender == address(balanceReader) */\n      0xffffffffffffffffffffffffffffffffffffffff\n      and\n      eq\n        /* \"vinci-protocol-private/contracts/linkedList.sol\":505:551  require (msg.sender == address(balanceReader)) */\n      tag_47\n      jumpi\n      0x00\n      dup1\n      revert\n    tag_47:\n        /* \"vinci-protocol-private/contracts/linkedList.sol\":1657:1669  ZERO_ADDRESS */\n      0x01\n      0x00\n      swap1\n      sload\n      swap1\n      0x0100\n      exp\n      swap1\n      div\n      0xffffffffffffffffffffffffffffffffffffffff\n      and\n        /* \"vinci-protocol-private/contracts/linkedList.sol\":1649:1669  user != ZERO_ADDRESS */\n      0xffffffffffffffffffffffffffffffffffffffff\n      and\n        /* \"vinci-protocol-private/contracts/linkedList.sol\":1649:1653  user */\n      dup2\n        /* \"vinci-protocol-private/contracts/linkedList.sol\":1649:1669  user != ZERO_ADDRESS */\n      0xffffffffffffffffffffffffffffffffffffffff\n      and\n      sub\n        /* \"vinci-protocol-private/contracts/linkedList.sol\":1641:1670  require(user != ZERO_ADDRESS) */\n      tag_49\n      jumpi\n      0x00\n      dup1\n      revert\n    tag_49:\n        /* \"vinci-protocol-private/contracts/linkedList.sol\":1711:1723  ZERO_ADDRESS */\n      0x01\n      0x00\n      swap1\n      sload\n      swap1\n      0x0100\n      exp\n      swap1\n      div\n      0xffffffffffffffffffffffffffffffffffffffff\n      and\n        /* \"vinci-protocol-private/contracts/linkedList.sol\":1684:1723  nodeTable[user].current != ZERO_ADDRESS */\n      0xffffffffffffffffffffffffffffffffffffffff\n      and\n        /* \"vinci-protocol-private/contracts/linkedList.sol\":1684:1693  nodeTable */\n      0x03\n        /* \"vinci-protocol-private/contracts/linkedList.sol\":1684:1699  nodeTable[user] */\n      0x00\n        /* \"vinci-protocol-private/contracts/linkedList.sol\":1694:1698  user */\n      dup4\n        /* \"vinci-protocol-private/contracts/linkedList.sol\":1684:1699  nodeTable[user] */\n      0xffffffffffffffffffffffffffffffffffffffff\n      and\n      0xffffffffffffffffffffffffffffffffffffffff\n      and\n      dup2\n      mstore\n      0x20\n      add\n      swap1\n      dup2\n      mstore\n      0x20\n      add\n      0x00\n      keccak256\n        /* \"vinci-protocol-private/contracts/linkedList.sol\":1684:1707  nodeTable[user].current */\n      0x00\n      add\n      0x00\n      swap1\n      sload\n      swap1\n      0x0100\n      exp\n      swap1\n      div\n      0xffffffffffffffffffffffffffffffffffffffff\n      and\n        /* \"vinci-protocol-private/contracts/linkedList.sol\":1684:1723  nodeTable[user].current != ZERO_ADDRESS */\n      0xffffffffffffffffffffffffffffffffffffffff\n      and\n      eq\n        /* \"vinci-protocol-private/contracts/linkedList.sol\":1681:1838  if(nodeTable[user].current != ZERO_ADDRESS){... */\n      tag_50\n      jumpi\n        /* \"vinci-protocol-private/contracts/linkedList.sol\":1739:1752  _remove(user) */\n      tag_51\n        /* \"vinci-protocol-private/contracts/linkedList.sol\":1747:1751  user */\n      dup2\n        /* \"vinci-protocol-private/contracts/linkedList.sol\":1739:1746  _remove */\n      tag_52\n        /* \"vinci-protocol-private/contracts/linkedList.sol\":1739:1752  _remove(user) */\n      jump\t// in\n    tag_51:\n        /* \"vinci-protocol-private/contracts/linkedList.sol\":1791:1803  ZERO_ADDRESS */\n      0x01\n      0x00\n      swap1\n      sload\n      swap1\n      0x0100\n      exp\n      swap1\n      div\n      0xffffffffffffffffffffffffffffffffffffffff\n      and\n        /* \"vinci-protocol-private/contracts/linkedList.sol\":1767:1776  nodeTable */\n      0x03\n        /* \"vinci-protocol-private/contracts/linkedList.sol\":1767:1782  nodeTable[user] */\n      0x00\n        /* \"vinci-protocol-private/contracts/linkedList.sol\":1777:1781  user */\n      dup4\n        /* \"vinci-protocol-private/contracts/linkedList.sol\":1767:1782  nodeTable[user] */\n      0xffffffffffffffffffffffffffffffffffffffff\n      and\n      0xffffffffffffffffffffffffffffffffffffffff\n      and\n      dup2\n      mstore\n      0x20\n      add\n      swap1\n      dup2\n      mstore\n      0x20\n      add\n      0x00\n      keccak256\n        /* \"vinci-protocol-private/contracts/linkedList.sol\":1767:1790  nodeTable[user].current */\n      0x00\n      add\n      0x00\n        /* \"vinci-protocol-private/contracts/linkedList.sol\":1767:1803  nodeTable[user].current=ZERO_ADDRESS */\n      0x0100\n      exp\n      dup2\n      sload\n      dup2\n      0xffffffffffffffffffffffffffffffffffffffff\n      mul\n      not\n      and\n      swap1\n      dup4\n      0xffffffffffffffffffffffffffffffffffffffff\n      and\n      mul\n      or\n      swap1\n      sstore\n      pop\n        /* \"vinci-protocol-private/contracts/linkedList.sol\":1818:1824  length */\n      0x02\n      0x00\n        /* \"vinci-protocol-private/contracts/linkedList.sol\":1818:1826  length-- */\n      dup2\n      sload\n      dup1\n      swap3\n      swap2\n      swap1\n      tag_53\n      swap1\n      tag_54\n      jump\t// in\n    tag_53:\n      swap2\n      swap1\n      pop\n      sstore\n      pop\n        /* \"vinci-protocol-private/contracts/linkedList.sol\":1681:1838  if(nodeTable[user].current != ZERO_ADDRESS){... */\n    tag_50:\n        /* \"vinci-protocol-private/contracts/linkedList.sol\":1573:1845  function remove(address user) onlyBalanceReader external {... */\n      pop\n      jump\t// out\n        /* \"vinci-protocol-private/contracts/linkedList.sol\":2045:2315  function update(address user,uint256 account, address front) onlyBalanceReader external {... */\n    tag_19:\n        /* \"vinci-protocol-private/contracts/linkedList.sol\":536:549  balanceReader */\n      0x00\n      dup1\n      sload\n      swap1\n      0x0100\n      exp\n      swap1\n      div\n      0xffffffffffffffffffffffffffffffffffffffff\n      and\n        /* \"vinci-protocol-private/contracts/linkedList.sol\":514:550  msg.sender == address(balanceReader) */\n      0xffffffffffffffffffffffffffffffffffffffff\n      and\n        /* \"vinci-protocol-private/contracts/linkedList.sol\":514:524  msg.sender */\n      caller\n        /* \"vinci-protocol-private/contracts/linkedList.sol\":514:550  msg.sender == address(balanceReader) */\n      0xffffffffffffffffffffffffffffffffffffffff\n      and\n      eq\n        /* \"vinci-protocol-private/contracts/linkedList.sol\":505:551  require (msg.sender == address(balanceReader)) */\n      tag_56\n      jumpi\n      0x00\n      dup1\n      revert\n    tag_56:\n        /* \"vinci-protocol-private/contracts/linkedList.sol\":2174:2186  ZERO_ADDRESS */\n      0x01\n      0x00\n      swap1\n      sload\n      swap1\n      0x0100\n      exp\n      swap1\n      div\n      0xffffffffffffffffffffffffffffffffffffffff\n      and\n        /* \"vinci-protocol-private/contracts/linkedList.sol\":2147:2186  nodeTable[user].current != ZERO_ADDRESS */\n      0xffffffffffffffffffffffffffffffffffffffff\n      and\n        /* \"vinci-protocol-private/contracts/linkedList.sol\":2147:2156  nodeTable */\n      0x03\n        /* \"vinci-protocol-private/contracts/linkedList.sol\":2147:2162  nodeTable[user] */\n      0x00\n        /* \"vinci-protocol-private/contracts/linkedList.sol\":2157:2161  user */\n      dup6\n        /* \"vinci-protocol-private/contracts/linkedList.sol\":2147:2162  nodeTable[user] */\n      0xffffffffffffffffffffffffffffffffffffffff\n      and\n      0xffffffffffffffffffffffffffffffffffffffff\n      and\n      dup2\n      mstore\n      0x20\n      add\n      swap1\n      dup2\n      mstore\n      0x20\n      add\n      0x00\n      keccak256\n        /* \"vinci-protocol-private/contracts/linkedList.sol\":2147:2170  nodeTable[user].current */\n      0x00\n      add\n      0x00\n      swap1\n      sload\n      swap1\n      0x0100\n      exp\n      swap1\n      div\n      0xffffffffffffffffffffffffffffffffffffffff\n      and\n        /* \"vinci-protocol-private/contracts/linkedList.sol\":2147:2186  nodeTable[user].current != ZERO_ADDRESS */\n      0xffffffffffffffffffffffffffffffffffffffff\n      and\n      eq\n        /* \"vinci-protocol-private/contracts/linkedList.sol\":2144:2266  if(nodeTable[user].current != ZERO_ADDRESS){... */\n      tag_58\n      jumpi\n        /* \"vinci-protocol-private/contracts/linkedList.sol\":2202:2215  _remove(user) */\n      tag_59\n        /* \"vinci-protocol-private/contracts/linkedList.sol\":2210:2214  user */\n      dup4\n        /* \"vinci-protocol-private/contracts/linkedList.sol\":2202:2209  _remove */\n      tag_52\n        /* \"vinci-protocol-private/contracts/linkedList.sol\":2202:2215  _remove(user) */\n      jump\t// in\n    tag_59:\n        /* \"vinci-protocol-private/contracts/linkedList.sol\":2144:2266  if(nodeTable[user].current != ZERO_ADDRESS){... */\n      jump(tag_60)\n    tag_58:\n        /* \"vinci-protocol-private/contracts/linkedList.sol\":2246:2252  length */\n      0x02\n      0x00\n        /* \"vinci-protocol-private/contracts/linkedList.sol\":2246:2254  length++ */\n      dup2\n      sload\n      dup1\n      swap3\n      swap2\n      swap1\n      tag_61\n      swap1\n      tag_62\n      jump\t// in\n    tag_61:\n      swap2\n      swap1\n      pop\n      sstore\n      pop\n        /* \"vinci-protocol-private/contracts/linkedList.sol\":2144:2266  if(nodeTable[user].current != ZERO_ADDRESS){... */\n    tag_60:\n        /* \"vinci-protocol-private/contracts/linkedList.sol\":2276:2307  _increate(user, account, front) */\n      tag_63\n        /* \"vinci-protocol-private/contracts/linkedList.sol\":2286:2290  user */\n      dup4\n        /* \"vinci-protocol-private/contracts/linkedList.sol\":2292:2299  account */\n      dup4\n        /* \"vinci-protocol-private/contracts/linkedList.sol\":2301:2306  front */\n      dup4\n        /* \"vinci-protocol-private/contracts/linkedList.sol\":2276:2285  _increate */\n      tag_64\n        /* \"vinci-protocol-private/contracts/linkedList.sol\":2276:2307  _increate(user, account, front) */\n      jump\t// in\n    tag_63:\n        /* \"vinci-protocol-private/contracts/linkedList.sol\":2045:2315  function update(address user,uint256 account, address front) onlyBalanceReader external {... */\n      pop\n      pop\n      pop\n      jump\t// out\n        /* \"vinci-protocol-private/contracts/linkedList.sol\":384:426  address public ZERO_ADDRESS = address(0x0) */\n    tag_21:\n      0x01\n      0x00\n      swap1\n      sload\n      swap1\n      0x0100\n      exp\n      swap1\n      div\n      0xffffffffffffffffffffffffffffffffffffffff\n      and\n      dup2\n      jump\t// out\n        /* \"vinci-protocol-private/contracts/linkedList.sol\":2323:2532  function getFront(address user) view public returns(address){... */\n    tag_26:\n        /* \"vinci-protocol-private/contracts/linkedList.sol\":2375:2382  address */\n      0x00\n        /* \"vinci-protocol-private/contracts/linkedList.sol\":2410:2422  ZERO_ADDRESS */\n      0x01\n      0x00\n      swap1\n      sload\n      swap1\n      0x0100\n      exp\n      swap1\n      div\n      0xffffffffffffffffffffffffffffffffffffffff\n      and\n        /* \"vinci-protocol-private/contracts/linkedList.sol\":2402:2422  user != ZERO_ADDRESS */\n      0xffffffffffffffffffffffffffffffffffffffff\n      and\n        /* \"vinci-protocol-private/contracts/linkedList.sol\":2402:2406  user */\n      dup3\n        /* \"vinci-protocol-private/contracts/linkedList.sol\":2402:2422  user != ZERO_ADDRESS */\n      0xffffffffffffffffffffffffffffffffffffffff\n      and\n      sub\n        /* \"vinci-protocol-private/contracts/linkedList.sol\":2394:2423  require(user != ZERO_ADDRESS) */\n      tag_66\n      jumpi\n      0x00\n      dup1\n      revert\n    tag_66:\n        /* \"vinci-protocol-private/contracts/linkedList.sol\":2469:2481  ZERO_ADDRESS */\n      0x01\n      0x00\n      swap1\n      sload\n      swap1\n      0x0100\n      exp\n      swap1\n      div\n      0xffffffffffffffffffffffffffffffffffffffff\n      and\n        /* \"vinci-protocol-private/contracts/linkedList.sol\":2442:2481  nodeTable[user].current != ZERO_ADDRESS */\n      0xffffffffffffffffffffffffffffffffffffffff\n      and\n        /* \"vinci-protocol-private/contracts/linkedList.sol\":2442:2451  nodeTable */\n      0x03\n        /* \"vinci-protocol-private/contracts/linkedList.sol\":2442:2457  nodeTable[user] */\n      0x00\n        /* \"vinci-protocol-private/contracts/linkedList.sol\":2452:2456  user */\n      dup5\n        /* \"vinci-protocol-private/contracts/linkedList.sol\":2442:2457  nodeTable[user] */\n      0xffffffffffffffffffffffffffffffffffffffff\n      and\n      0xffffffffffffffffffffffffffffffffffffffff\n      and\n      dup2\n      mstore\n      0x20\n      add\n      swap1\n      dup2\n      mstore\n      0x20\n      add\n      0x00\n      keccak256\n        /* \"vinci-protocol-private/contracts/linkedList.sol\":2442:2465  nodeTable[user].current */\n      0x00\n      add\n      0x00\n      swap1\n      sload\n      swap1\n      0x0100\n      exp\n      swap1\n      div\n      0xffffffffffffffffffffffffffffffffffffffff\n      and\n        /* \"vinci-protocol-private/contracts/linkedList.sol\":2442:2481  nodeTable[user].current != ZERO_ADDRESS */\n      0xffffffffffffffffffffffffffffffffffffffff\n      and\n      sub\n        /* \"vinci-protocol-private/contracts/linkedList.sol\":2434:2482  require(nodeTable[user].current != ZERO_ADDRESS) */\n      tag_67\n      jumpi\n      0x00\n      dup1\n      revert\n    tag_67:\n        /* \"vinci-protocol-private/contracts/linkedList.sol\":2503:2512  nodeTable */\n      0x03\n        /* \"vinci-protocol-private/contracts/linkedList.sol\":2503:2518  nodeTable[user] */\n      0x00\n        /* \"vinci-protocol-private/contracts/linkedList.sol\":2513:2517  user */\n      dup4\n        /* \"vinci-protocol-private/contracts/linkedList.sol\":2503:2518  nodeTable[user] */\n      0xffffffffffffffffffffffffffffffffffffffff\n      and\n      0xffffffffffffffffffffffffffffffffffffffff\n      and\n      dup2\n      mstore\n      0x20\n      add\n      swap1\n      dup2\n      mstore\n      0x20\n      add\n      0x00\n      keccak256\n        /* \"vinci-protocol-private/contracts/linkedList.sol\":2503:2524  nodeTable[user].front */\n      0x01\n      add\n      0x00\n      swap1\n      sload\n      swap1\n      0x0100\n      exp\n      swap1\n      div\n      0xffffffffffffffffffffffffffffffffffffffff\n      and\n        /* \"vinci-protocol-private/contracts/linkedList.sol\":2496:2524  return nodeTable[user].front */\n      swap1\n      pop\n        /* \"vinci-protocol-private/contracts/linkedList.sol\":2323:2532  function getFront(address user) view public returns(address){... */\n      swap2\n      swap1\n      pop\n      jump\t// out\n        /* \"vinci-protocol-private/contracts/linkedList.sol\":2540:2804  function getNext(address user) view public returns(address){... */\n    tag_30:\n        /* \"vinci-protocol-private/contracts/linkedList.sol\":2591:2598  address */\n      0x00\n        /* \"vinci-protocol-private/contracts/linkedList.sol\":2626:2638  ZERO_ADDRESS */\n      0x01\n      0x00\n      swap1\n      sload\n      swap1\n      0x0100\n      exp\n      swap1\n      div\n      0xffffffffffffffffffffffffffffffffffffffff\n      and\n        /* \"vinci-protocol-private/contracts/linkedList.sol\":2618:2638  user != ZERO_ADDRESS */\n      0xffffffffffffffffffffffffffffffffffffffff\n      and\n        /* \"vinci-protocol-private/contracts/linkedList.sol\":2618:2622  user */\n      dup3\n        /* \"vinci-protocol-private/contracts/linkedList.sol\":2618:2638  user != ZERO_ADDRESS */\n      0xffffffffffffffffffffffffffffffffffffffff\n      and\n      sub\n        /* \"vinci-protocol-private/contracts/linkedList.sol\":2610:2639  require(user != ZERO_ADDRESS) */\n      tag_69\n      jumpi\n      0x00\n      dup1\n      revert\n    tag_69:\n        /* \"vinci-protocol-private/contracts/linkedList.sol\":2685:2697  ZERO_ADDRESS */\n      0x01\n      0x00\n      swap1\n      sload\n      swap1\n      0x0100\n      exp\n      swap1\n      div\n      0xffffffffffffffffffffffffffffffffffffffff\n      and\n        /* \"vinci-protocol-private/contracts/linkedList.sol\":2658:2697  nodeTable[user].current != ZERO_ADDRESS */\n      0xffffffffffffffffffffffffffffffffffffffff\n      and\n        /* \"vinci-protocol-private/contracts/linkedList.sol\":2658:2667  nodeTable */\n      0x03\n        /* \"vinci-protocol-private/contracts/linkedList.sol\":2658:2673  nodeTable[user] */\n      0x00\n        /* \"vinci-protocol-private/contracts/linkedList.sol\":2668:2672  user */\n      dup5\n        /* \"vinci-protocol-private/contracts/linkedList.sol\":2658:2673  nodeTable[user] */\n      0xffffffffffffffffffffffffffffffffffffffff\n      and\n      0xffffffffffffffffffffffffffffffffffffffff\n      and\n      dup2\n      mstore\n      0x20\n      add\n      swap1\n      dup2\n      mstore\n      0x20\n      add\n      0x00\n      keccak256\n        /* \"vinci-protocol-private/contracts/linkedList.sol\":2658:2681  nodeTable[user].current */\n      0x00\n      add\n      0x00\n      swap1\n      sload\n      swap1\n      0x0100\n      exp\n      swap1\n      div\n      0xffffffffffffffffffffffffffffffffffffffff\n      and\n        /* \"vinci-protocol-private/contracts/linkedList.sol\":2658:2697  nodeTable[user].current != ZERO_ADDRESS */\n      0xffffffffffffffffffffffffffffffffffffffff\n      and\n      sub\n        /* \"vinci-protocol-private/contracts/linkedList.sol\":2650:2698  require(nodeTable[user].current != ZERO_ADDRESS) */\n      tag_70\n      jumpi\n      0x00\n      dup1\n      revert\n    tag_70:\n        /* \"vinci-protocol-private/contracts/linkedList.sol\":2742:2754  ZERO_ADDRESS */\n      0x01\n      0x00\n      swap1\n      sload\n      swap1\n      0x0100\n      exp\n      swap1\n      div\n      0xffffffffffffffffffffffffffffffffffffffff\n      and\n        /* \"vinci-protocol-private/contracts/linkedList.sol\":2718:2754  nodeTable[user].next != ZERO_ADDRESS */\n      0xffffffffffffffffffffffffffffffffffffffff\n      and\n        /* \"vinci-protocol-private/contracts/linkedList.sol\":2718:2727  nodeTable */\n      0x03\n        /* \"vinci-protocol-private/contracts/linkedList.sol\":2718:2733  nodeTable[user] */\n      0x00\n        /* \"vinci-protocol-private/contracts/linkedList.sol\":2728:2732  user */\n      dup5\n        /* \"vinci-protocol-private/contracts/linkedList.sol\":2718:2733  nodeTable[user] */\n      0xffffffffffffffffffffffffffffffffffffffff\n      and\n      0xffffffffffffffffffffffffffffffffffffffff\n      and\n      dup2\n      mstore\n      0x20\n      add\n      swap1\n      dup2\n      mstore\n      0x20\n      add\n      0x00\n      keccak256\n        /* \"vinci-protocol-private/contracts/linkedList.sol\":2718:2738  nodeTable[user].next */\n      0x02\n      add\n      0x00\n      swap1\n      sload\n      swap1\n      0x0100\n      exp\n      swap1\n      div\n      0xffffffffffffffffffffffffffffffffffffffff\n      and\n        /* \"vinci-protocol-private/contracts/linkedList.sol\":2718:2754  nodeTable[user].next != ZERO_ADDRESS */\n      0xffffffffffffffffffffffffffffffffffffffff\n      and\n      sub\n        /* \"vinci-protocol-private/contracts/linkedList.sol\":2710:2755  require(nodeTable[user].next != ZERO_ADDRESS) */\n      tag_71\n      jumpi\n      0x00\n      dup1\n      revert\n    tag_71:\n        /* \"vinci-protocol-private/contracts/linkedList.sol\":2776:2785  nodeTable */\n      0x03\n        /* \"vinci-protocol-private/contracts/linkedList.sol\":2776:2791  nodeTable[user] */\n      0x00\n        /* \"vinci-protocol-private/contracts/linkedList.sol\":2786:2790  user */\n      dup4\n        /* \"vinci-protocol-private/contracts/linkedList.sol\":2776:2791  nodeTable[user] */\n      0xffffffffffffffffffffffffffffffffffffffff\n      and\n      0xffffffffffffffffffffffffffffffffffffffff\n      and\n      dup2\n      mstore\n      0x20\n      add\n      swap1\n      dup2\n      mstore\n      0x20\n      add\n      0x00\n      keccak256\n        /* \"vinci-protocol-private/contracts/linkedList.sol\":2776:2796  nodeTable[user].next */\n      0x02\n      add\n      0x00\n      swap1\n      sload\n      swap1\n      0x0100\n      exp\n      swap1\n      div\n      0xffffffffffffffffffffffffffffffffffffffff\n      and\n        /* \"vinci-protocol-private/contracts/linkedList.sol\":2769:2796  return nodeTable[user].next */\n      swap1\n      pop\n        /* \"vinci-protocol-private/contracts/linkedList.sol\":2540:2804  function getNext(address user) view public returns(address){... */\n      swap2\n      swap1\n      pop\n      jump\t// out\n        /* \"vinci-protocol-private/contracts/linkedList.sol\":3373:3686  function getNewNodeFront(uint256 userAccount) view public returns(address front){... */\n    tag_35:\n        /* \"vinci-protocol-private/contracts/linkedList.sol\":3439:3452  address front */\n      0x00\n        /* \"vinci-protocol-private/contracts/linkedList.sol\":3486:3487  0 */\n      dup1\n        /* \"vinci-protocol-private/contracts/linkedList.sol\":3472:3483  userAccount */\n      dup3\n        /* \"vinci-protocol-private/contracts/linkedList.sol\":3472:3487  userAccount > 0 */\n      gt\n        /* \"vinci-protocol-private/contracts/linkedList.sol\":3464:3488  require(userAccount > 0) */\n      tag_73\n      jumpi\n      0x00\n      dup1\n      revert\n    tag_73:\n        /* \"vinci-protocol-private/contracts/linkedList.sol\":3499:3511  address temp */\n      0x00\n        /* \"vinci-protocol-private/contracts/linkedList.sol\":3514:3523  nodeTable */\n      0x03\n        /* \"vinci-protocol-private/contracts/linkedList.sol\":3514:3537  nodeTable[ZERO_ADDRESS] */\n      0x00\n        /* \"vinci-protocol-private/contracts/linkedList.sol\":3524:3536  ZERO_ADDRESS */\n      0x01\n      0x00\n      swap1\n      sload\n      swap1\n      0x0100\n      exp\n      swap1\n      div\n      0xffffffffffffffffffffffffffffffffffffffff\n      and\n        /* \"vinci-protocol-private/contracts/linkedList.sol\":3514:3537  nodeTable[ZERO_ADDRESS] */\n      0xffffffffffffffffffffffffffffffffffffffff\n      and\n      0xffffffffffffffffffffffffffffffffffffffff\n      and\n      dup2\n      mstore\n      0x20\n      add\n      swap1\n      dup2\n      mstore\n      0x20\n      add\n      0x00\n      keccak256\n        /* \"vinci-protocol-private/contracts/linkedList.sol\":3514:3542  nodeTable[ZERO_ADDRESS].next */\n      0x02\n      add\n      0x00\n      swap1\n      sload\n      swap1\n      0x0100\n      exp\n      swap1\n      div\n      0xffffffffffffffffffffffffffffffffffffffff\n      and\n        /* \"vinci-protocol-private/contracts/linkedList.sol\":3499:3542  address temp = nodeTable[ZERO_ADDRESS].next */\n      swap1\n      pop\n        /* \"vinci-protocol-private/contracts/linkedList.sol\":3553:3657  while(balanceReader.balanceOf(temp) > userAccount){... */\n    tag_74:\n        /* \"vinci-protocol-private/contracts/linkedList.sol\":3591:3602  userAccount */\n      dup3\n        /* \"vinci-protocol-private/contracts/linkedList.sol\":3559:3572  balanceReader */\n      0x00\n      dup1\n      sload\n      swap1\n      0x0100\n      exp\n      swap1\n      div\n      0xffffffffffffffffffffffffffffffffffffffff\n      and\n        /* \"vinci-protocol-private/contracts/linkedList.sol\":3559:3582  balanceReader.balanceOf */\n      0xffffffffffffffffffffffffffffffffffffffff\n      and\n      0x70a08231\n        /* \"vinci-protocol-private/contracts/linkedList.sol\":3583:3587  temp */\n      dup4\n        /* \"vinci-protocol-private/contracts/linkedList.sol\":3559:3588  balanceReader.balanceOf(temp) */\n      mload(0x40)\n      dup3\n      0xffffffff\n      and\n      0xe0\n      shl\n      dup2\n      mstore\n      0x04\n      add\n      tag_76\n      swap2\n      swap1\n      tag_23\n      jump\t// in\n    tag_76:\n      0x20\n      mload(0x40)\n      dup1\n      dup4\n      sub\n      dup2\n      dup7\n      gas\n      staticcall\n      iszero\n      dup1\n      iszero\n      tag_78\n      jumpi\n      returndatasize\n      0x00\n      dup1\n      returndatacopy\n      revert(0x00, returndatasize)\n    tag_78:\n      pop\n      pop\n      pop\n      pop\n      mload(0x40)\n      returndatasize\n      not(0x1f)\n      0x1f\n      dup3\n      add\n      and\n      dup3\n      add\n      dup1\n      0x40\n      mstore\n      pop\n      dup2\n      add\n      swap1\n      tag_79\n      swap2\n      swap1\n      tag_80\n      jump\t// in\n    tag_79:\n        /* \"vinci-protocol-private/contracts/linkedList.sol\":3559:3602  balanceReader.balanceOf(temp) > userAccount */\n      gt\n        /* \"vinci-protocol-private/contracts/linkedList.sol\":3553:3657  while(balanceReader.balanceOf(temp) > userAccount){... */\n      iszero\n      tag_75\n      jumpi\n        /* \"vinci-protocol-private/contracts/linkedList.sol\":3625:3634  nodeTable */\n      0x03\n        /* \"vinci-protocol-private/contracts/linkedList.sol\":3625:3640  nodeTable[temp] */\n      0x00\n        /* \"vinci-protocol-private/contracts/linkedList.sol\":3635:3639  temp */\n      dup3\n        /* \"vinci-protocol-private/contracts/linkedList.sol\":3625:3640  nodeTable[temp] */\n      0xffffffffffffffffffffffffffffffffffffffff\n      and\n      0xffffffffffffffffffffffffffffffffffffffff\n      and\n      dup2\n      mstore\n      0x20\n      add\n      swap1\n      dup2\n      mstore\n      0x20\n      add\n      0x00\n      keccak256\n        /* \"vinci-protocol-private/contracts/linkedList.sol\":3625:3645  nodeTable[temp].next */\n      0x02\n      add\n      0x00\n      swap1\n      sload\n      swap1\n      0x0100\n      exp\n      swap1\n      div\n      0xffffffffffffffffffffffffffffffffffffffff\n      and\n        /* \"vinci-protocol-private/contracts/linkedList.sol\":3618:3645  temp = nodeTable[temp].next */\n      swap1\n      pop\n        /* \"vinci-protocol-private/contracts/linkedList.sol\":3553:3657  while(balanceReader.balanceOf(temp) > userAccount){... */\n      jump(tag_74)\n    tag_75:\n        /* \"vinci-protocol-private/contracts/linkedList.sol\":3674:3678  temp */\n      dup1\n        /* \"vinci-protocol-private/contracts/linkedList.sol\":3667:3678  return temp */\n      swap2\n      pop\n      pop\n        /* \"vinci-protocol-private/contracts/linkedList.sol\":3373:3686  function getNewNodeFront(uint256 userAccount) view public returns(address front){... */\n      swap2\n      swap1\n      pop\n      jump\t// out\n        /* \"vinci-protocol-private/contracts/linkedList.sol\":653:868  function increate(address user,uint256 account, address front) onlyBalanceReader external {... */\n    tag_39:\n        /* \"vinci-protocol-private/contracts/linkedList.sol\":536:549  balanceReader */\n      0x00\n      dup1\n      sload\n      swap1\n      0x0100\n      exp\n      swap1\n      div\n      0xffffffffffffffffffffffffffffffffffffffff\n      and\n        /* \"vinci-protocol-private/contracts/linkedList.sol\":514:550  msg.sender == address(balanceReader) */\n      0xffffffffffffffffffffffffffffffffffffffff\n      and\n        /* \"vinci-protocol-private/contracts/linkedList.sol\":514:524  msg.sender */\n      caller\n        /* \"vinci-protocol-private/contracts/linkedList.sol\":514:550  msg.sender == address(balanceReader) */\n      0xffffffffffffffffffffffffffffffffffffffff\n      and\n      eq\n        /* \"vinci-protocol-private/contracts/linkedList.sol\":505:551  require (msg.sender == address(balanceReader)) */\n      tag_82\n      jumpi\n      0x00\n      dup1\n      revert\n    tag_82:\n        /* \"vinci-protocol-private/contracts/linkedList.sol\":787:799  ZERO_ADDRESS */\n      0x01\n      0x00\n      swap1\n      sload\n      swap1\n      0x0100\n      exp\n      swap1\n      div\n      0xffffffffffffffffffffffffffffffffffffffff\n      and\n        /* \"vinci-protocol-private/contracts/linkedList.sol\":762:799  nodeTable[user].current==ZERO_ADDRESS */\n      0xffffffffffffffffffffffffffffffffffffffff\n      and\n        /* \"vinci-protocol-private/contracts/linkedList.sol\":762:771  nodeTable */\n      0x03\n        /* \"vinci-protocol-private/contracts/linkedList.sol\":762:777  nodeTable[user] */\n      0x00\n        /* \"vinci-protocol-private/contracts/linkedList.sol\":772:776  user */\n      dup6\n        /* \"vinci-protocol-private/contracts/linkedList.sol\":762:777  nodeTable[user] */\n      0xffffffffffffffffffffffffffffffffffffffff\n      and\n      0xffffffffffffffffffffffffffffffffffffffff\n      and\n      dup2\n      mstore\n      0x20\n      add\n      swap1\n      dup2\n      mstore\n      0x20\n      add\n      0x00\n      keccak256\n        /* \"vinci-protocol-private/contracts/linkedList.sol\":762:785  nodeTable[user].current */\n      0x00\n      add\n      0x00\n      swap1\n      sload\n      swap1\n      0x0100\n      exp\n      swap1\n      div\n      0xffffffffffffffffffffffffffffffffffffffff\n      and\n        /* \"vinci-protocol-private/contracts/linkedList.sol\":762:799  nodeTable[user].current==ZERO_ADDRESS */\n      0xffffffffffffffffffffffffffffffffffffffff\n      and\n      eq\n        /* \"vinci-protocol-private/contracts/linkedList.sol\":754:800  require(nodeTable[user].current==ZERO_ADDRESS) */\n      tag_84\n      jumpi\n      0x00\n      dup1\n      revert\n    tag_84:\n        /* \"vinci-protocol-private/contracts/linkedList.sol\":812:841  _increate(user,account,front) */\n      tag_85\n        /* \"vinci-protocol-private/contracts/linkedList.sol\":822:826  user */\n      dup4\n        /* \"vinci-protocol-private/contracts/linkedList.sol\":827:834  account */\n      dup4\n        /* \"vinci-protocol-private/contracts/linkedList.sol\":835:840  front */\n      dup4\n        /* \"vinci-protocol-private/contracts/linkedList.sol\":812:821  _increate */\n      tag_64\n        /* \"vinci-protocol-private/contracts/linkedList.sol\":812:841  _increate(user,account,front) */\n      jump\t// in\n    tag_85:\n        /* \"vinci-protocol-private/contracts/linkedList.sol\":852:858  length */\n      0x02\n      0x00\n        /* \"vinci-protocol-private/contracts/linkedList.sol\":852:860  length++ */\n      dup2\n      sload\n      dup1\n      swap3\n      swap2\n      swap1\n      tag_86\n      swap1\n      tag_62\n      jump\t// in\n    tag_86:\n      swap2\n      swap1\n      pop\n      sstore\n      pop\n        /* \"vinci-protocol-private/contracts/linkedList.sol\":653:868  function increate(address user,uint256 account, address front) onlyBalanceReader external {... */\n      pop\n      pop\n      pop\n      jump\t// out\n        /* \"vinci-protocol-private/contracts/linkedList.sol\":2816:3365  function getNodes(... */\n    tag_43:\n        /* \"vinci-protocol-private/contracts/linkedList.sol\":2897:2913  address[] memory */\n      0x60\n        /* \"vinci-protocol-private/contracts/linkedList.sol\":2926:2955  address[] memory selectedNode */\n      0x00\n        /* \"vinci-protocol-private/contracts/linkedList.sol\":2972:2976  list */\n      dup4\n      dup4\n        /* \"vinci-protocol-private/contracts/linkedList.sol\":2972:2983  list.length */\n      swap1\n      pop\n        /* \"vinci-protocol-private/contracts/linkedList.sol\":2958:2984  new address[](list.length) */\n      0xffffffffffffffff\n      dup2\n      gt\n      iszero\n      tag_88\n      jumpi\n      tag_89\n      tag_90\n      jump\t// in\n    tag_89:\n    tag_88:\n      mload(0x40)\n      swap1\n      dup1\n      dup3\n      mstore\n      dup1\n      0x20\n      mul\n      0x20\n      add\n      dup3\n      add\n      0x40\n      mstore\n      dup1\n      iszero\n      tag_91\n      jumpi\n      dup2\n      0x20\n      add\n      0x20\n      dup3\n      mul\n      dup1\n      calldatasize\n      dup4\n      calldatacopy\n      dup1\n      dup3\n      add\n      swap2\n      pop\n      pop\n      swap1\n      pop\n    tag_91:\n      pop\n        /* \"vinci-protocol-private/contracts/linkedList.sol\":2926:2984  address[] memory selectedNode = new address[](list.length) */\n      swap1\n      pop\n        /* \"vinci-protocol-private/contracts/linkedList.sol\":2995:3008  uint256 index */\n      0x00\n        /* \"vinci-protocol-private/contracts/linkedList.sol\":3023:3046  Node memory currentNode */\n      dup1\n        /* \"vinci-protocol-private/contracts/linkedList.sol\":3049:3058  nodeTable */\n      0x03\n        /* \"vinci-protocol-private/contracts/linkedList.sol\":3049:3070  nodeTable[address(0)] */\n      0x00\n        /* \"vinci-protocol-private/contracts/linkedList.sol\":3067:3068  0 */\n      dup1\n        /* \"vinci-protocol-private/contracts/linkedList.sol\":3049:3070  nodeTable[address(0)] */\n      0xffffffffffffffffffffffffffffffffffffffff\n      and\n      0xffffffffffffffffffffffffffffffffffffffff\n      and\n      dup2\n      mstore\n      0x20\n      add\n      swap1\n      dup2\n      mstore\n      0x20\n      add\n      0x00\n      keccak256\n        /* \"vinci-protocol-private/contracts/linkedList.sol\":3023:3070  Node memory currentNode = nodeTable[address(0)] */\n      mload(0x40)\n      dup1\n      0x60\n      add\n      0x40\n      mstore\n      swap1\n      dup2\n      0x00\n      dup3\n      add\n      0x00\n      swap1\n      sload\n      swap1\n      0x0100\n      exp\n      swap1\n      div\n      0xffffffffffffffffffffffffffffffffffffffff\n      and\n      0xffffffffffffffffffffffffffffffffffffffff\n      and\n      0xffffffffffffffffffffffffffffffffffffffff\n      and\n      dup2\n      mstore\n      0x20\n      add\n      0x01\n      dup3\n      add\n      0x00\n      swap1\n      sload\n      swap1\n      0x0100\n      exp\n      swap1\n      div\n      0xffffffffffffffffffffffffffffffffffffffff\n      and\n      0xffffffffffffffffffffffffffffffffffffffff\n      and\n      0xffffffffffffffffffffffffffffffffffffffff\n      and\n      dup2\n      mstore\n      0x20\n      add\n      0x02\n      dup3\n      add\n      0x00\n      swap1\n      sload\n      swap1\n      0x0100\n      exp\n      swap1\n      div\n      0xffffffffffffffffffffffffffffffffffffffff\n      and\n      0xffffffffffffffffffffffffffffffffffffffff\n      and\n      0xffffffffffffffffffffffffffffffffffffffff\n      and\n      dup2\n      mstore\n      pop\n      pop\n      swap1\n      pop\n        /* \"vinci-protocol-private/contracts/linkedList.sol\":3086:3095  uint256 i */\n      0x00\n        /* \"vinci-protocol-private/contracts/linkedList.sol\":3081:3328  for (uint256 i = 0; i < list.length; i++) {... */\n    tag_92:\n        /* \"vinci-protocol-private/contracts/linkedList.sol\":3105:3109  list */\n      dup7\n      dup7\n        /* \"vinci-protocol-private/contracts/linkedList.sol\":3105:3116  list.length */\n      swap1\n      pop\n        /* \"vinci-protocol-private/contracts/linkedList.sol\":3101:3102  i */\n      dup2\n        /* \"vinci-protocol-private/contracts/linkedList.sol\":3101:3116  i < list.length */\n      lt\n        /* \"vinci-protocol-private/contracts/linkedList.sol\":3081:3328  for (uint256 i = 0; i < list.length; i++) {... */\n      iszero\n      tag_93\n      jumpi\n        /* \"vinci-protocol-private/contracts/linkedList.sol\":3138:3265  while (index != list[i]) {... */\n    tag_95:\n        /* \"vinci-protocol-private/contracts/linkedList.sol\":3154:3158  list */\n      dup7\n      dup7\n        /* \"vinci-protocol-private/contracts/linkedList.sol\":3159:3160  i */\n      dup3\n        /* \"vinci-protocol-private/contracts/linkedList.sol\":3154:3161  list[i] */\n      dup2\n      dup2\n      lt\n      tag_97\n      jumpi\n      tag_98\n      tag_99\n      jump\t// in\n    tag_98:\n    tag_97:\n      swap1\n      pop\n      0x20\n      mul\n      add\n      calldataload\n        /* \"vinci-protocol-private/contracts/linkedList.sol\":3145:3150  index */\n      dup4\n        /* \"vinci-protocol-private/contracts/linkedList.sol\":3145:3161  index != list[i] */\n      eq\n        /* \"vinci-protocol-private/contracts/linkedList.sol\":3138:3265  while (index != list[i]) {... */\n      tag_96\n      jumpi\n        /* \"vinci-protocol-private/contracts/linkedList.sol\":3196:3205  nodeTable */\n      0x03\n        /* \"vinci-protocol-private/contracts/linkedList.sol\":3196:3223  nodeTable[currentNode.next] */\n      0x00\n        /* \"vinci-protocol-private/contracts/linkedList.sol\":3206:3217  currentNode */\n      dup4\n        /* \"vinci-protocol-private/contracts/linkedList.sol\":3206:3222  currentNode.next */\n      0x40\n      add\n      mload\n        /* \"vinci-protocol-private/contracts/linkedList.sol\":3196:3223  nodeTable[currentNode.next] */\n      0xffffffffffffffffffffffffffffffffffffffff\n      and\n      0xffffffffffffffffffffffffffffffffffffffff\n      and\n      dup2\n      mstore\n      0x20\n      add\n      swap1\n      dup2\n      mstore\n      0x20\n      add\n      0x00\n      keccak256\n        /* \"vinci-protocol-private/contracts/linkedList.sol\":3182:3223  currentNode = nodeTable[currentNode.next] */\n      mload(0x40)\n      dup1\n      0x60\n      add\n      0x40\n      mstore\n      swap1\n      dup2\n      0x00\n      dup3\n      add\n      0x00\n      swap1\n      sload\n      swap1\n      0x0100\n      exp\n      swap1\n      div\n      0xffffffffffffffffffffffffffffffffffffffff\n      and\n      0xffffffffffffffffffffffffffffffffffffffff\n      and\n      0xffffffffffffffffffffffffffffffffffffffff\n      and\n      dup2\n      mstore\n      0x20\n      add\n      0x01\n      dup3\n      add\n      0x00\n      swap1\n      sload\n      swap1\n      0x0100\n      exp\n      swap1\n      div\n      0xffffffffffffffffffffffffffffffffffffffff\n      and\n      0xffffffffffffffffffffffffffffffffffffffff\n      and\n      0xffffffffffffffffffffffffffffffffffffffff\n      and\n      dup2\n      mstore\n      0x20\n      add\n      0x02\n      dup3\n      add\n      0x00\n      swap1\n      sload\n      swap1\n      0x0100\n      exp\n      swap1\n      div\n      0xffffffffffffffffffffffffffffffffffffffff\n      and\n      0xffffffffffffffffffffffffffffffffffffffff\n      and\n      0xffffffffffffffffffffffffffffffffffffffff\n      and\n      dup2\n      mstore\n      pop\n      pop\n      swap2\n      pop\n        /* \"vinci-protocol-private/contracts/linkedList.sol\":3242:3249  index++ */\n      dup3\n      dup1\n      tag_100\n      swap1\n      tag_62\n      jump\t// in\n    tag_100:\n      swap4\n      pop\n      pop\n        /* \"vinci-protocol-private/contracts/linkedList.sol\":3138:3265  while (index != list[i]) {... */\n      jump(tag_95)\n    tag_96:\n        /* \"vinci-protocol-private/contracts/linkedList.sol\":3297:3308  currentNode */\n      dup2\n        /* \"vinci-protocol-private/contracts/linkedList.sol\":3297:3316  currentNode.current */\n      0x00\n      add\n      mload\n        /* \"vinci-protocol-private/contracts/linkedList.sol\":3279:3291  selectedNode */\n      dup5\n        /* \"vinci-protocol-private/contracts/linkedList.sol\":3292:3293  i */\n      dup3\n        /* \"vinci-protocol-private/contracts/linkedList.sol\":3279:3294  selectedNode[i] */\n      dup2\n      mload\n      dup2\n      lt\n      tag_101\n      jumpi\n      tag_102\n      tag_99\n      jump\t// in\n    tag_102:\n    tag_101:\n      0x20\n      mul\n      0x20\n      add\n      add\n        /* \"vinci-protocol-private/contracts/linkedList.sol\":3279:3316  selectedNode[i] = currentNode.current */\n      swap1\n      0xffffffffffffffffffffffffffffffffffffffff\n      and\n      swap1\n      dup2\n      0xffffffffffffffffffffffffffffffffffffffff\n      and\n      dup2\n      mstore\n      pop\n      pop\n        /* \"vinci-protocol-private/contracts/linkedList.sol\":3118:3121  i++ */\n      dup1\n      dup1\n      tag_103\n      swap1\n      tag_62\n      jump\t// in\n    tag_103:\n      swap2\n      pop\n      pop\n        /* \"vinci-protocol-private/contracts/linkedList.sol\":3081:3328  for (uint256 i = 0; i < list.length; i++) {... */\n      jump(tag_92)\n    tag_93:\n      pop\n        /* \"vinci-protocol-private/contracts/linkedList.sol\":3345:3357  selectedNode */\n      dup3\n        /* \"vinci-protocol-private/contracts/linkedList.sol\":3338:3357  return selectedNode */\n      swap4\n      pop\n      pop\n      pop\n      pop\n        /* \"vinci-protocol-private/contracts/linkedList.sol\":2816:3365  function getNodes(... */\n      swap3\n      swap2\n      pop\n      pop\n      jump\t// out\n        /* \"vinci-protocol-private/contracts/linkedList.sol\":1853:2037  function _remove(address user)private{... */\n    tag_52:\n        /* \"vinci-protocol-private/contracts/linkedList.sol\":1939:1948  nodeTable */\n      0x03\n        /* \"vinci-protocol-private/contracts/linkedList.sol\":1939:1954  nodeTable[user] */\n      0x00\n        /* \"vinci-protocol-private/contracts/linkedList.sol\":1949:1953  user */\n      dup3\n        /* \"vinci-protocol-private/contracts/linkedList.sol\":1939:1954  nodeTable[user] */\n      0xffffffffffffffffffffffffffffffffffffffff\n      and\n      0xffffffffffffffffffffffffffffffffffffffff\n      and\n      dup2\n      mstore\n      0x20\n      add\n      swap1\n      dup2\n      mstore\n      0x20\n      add\n      0x00\n      keccak256\n        /* \"vinci-protocol-private/contracts/linkedList.sol\":1939:1959  nodeTable[user].next */\n      0x02\n      add\n      0x00\n      swap1\n      sload\n      swap1\n      0x0100\n      exp\n      swap1\n      div\n      0xffffffffffffffffffffffffffffffffffffffff\n      and\n        /* \"vinci-protocol-private/contracts/linkedList.sol\":1901:1910  nodeTable */\n      0x03\n        /* \"vinci-protocol-private/contracts/linkedList.sol\":1901:1933  nodeTable[nodeTable[user].front] */\n      0x00\n        /* \"vinci-protocol-private/contracts/linkedList.sol\":1911:1920  nodeTable */\n      0x03\n        /* \"vinci-protocol-private/contracts/linkedList.sol\":1911:1926  nodeTable[user] */\n      0x00\n        /* \"vinci-protocol-private/contracts/linkedList.sol\":1921:1925  user */\n      dup6\n        /* \"vinci-protocol-private/contracts/linkedList.sol\":1911:1926  nodeTable[user] */\n      0xffffffffffffffffffffffffffffffffffffffff\n      and\n      0xffffffffffffffffffffffffffffffffffffffff\n      and\n      dup2\n      mstore\n      0x20\n      add\n      swap1\n      dup2\n      mstore\n      0x20\n      add\n      0x00\n      keccak256\n        /* \"vinci-protocol-private/contracts/linkedList.sol\":1911:1932  nodeTable[user].front */\n      0x01\n      add\n      0x00\n      swap1\n      sload\n      swap1\n      0x0100\n      exp\n      swap1\n      div\n      0xffffffffffffffffffffffffffffffffffffffff\n      and\n        /* \"vinci-protocol-private/contracts/linkedList.sol\":1901:1933  nodeTable[nodeTable[user].front] */\n      0xffffffffffffffffffffffffffffffffffffffff\n      and\n      0xffffffffffffffffffffffffffffffffffffffff\n      and\n      dup2\n      mstore\n      0x20\n      add\n      swap1\n      dup2\n      mstore\n      0x20\n      add\n      0x00\n      keccak256\n        /* \"vinci-protocol-private/contracts/linkedList.sol\":1901:1938  nodeTable[nodeTable[user].front].next */\n      0x02\n      add\n      0x00\n        /* \"vinci-protocol-private/contracts/linkedList.sol\":1901:1959  nodeTable[nodeTable[user].front].next=nodeTable[user].next */\n      0x0100\n      exp\n      dup2\n      sload\n      dup2\n      0xffffffffffffffffffffffffffffffffffffffff\n      mul\n      not\n      and\n      swap1\n      dup4\n      0xffffffffffffffffffffffffffffffffffffffff\n      and\n      mul\n      or\n      swap1\n      sstore\n      pop\n        /* \"vinci-protocol-private/contracts/linkedList.sol\":2008:2017  nodeTable */\n      0x03\n        /* \"vinci-protocol-private/contracts/linkedList.sol\":2008:2023  nodeTable[user] */\n      0x00\n        /* \"vinci-protocol-private/contracts/linkedList.sol\":2018:2022  user */\n      dup3\n        /* \"vinci-protocol-private/contracts/linkedList.sol\":2008:2023  nodeTable[user] */\n      0xffffffffffffffffffffffffffffffffffffffff\n      and\n      0xffffffffffffffffffffffffffffffffffffffff\n      and\n      dup2\n      mstore\n      0x20\n      add\n      swap1\n      dup2\n      mstore\n      0x20\n      add\n      0x00\n      keccak256\n        /* \"vinci-protocol-private/contracts/linkedList.sol\":2008:2029  nodeTable[user].front */\n      0x01\n      add\n      0x00\n      swap1\n      sload\n      swap1\n      0x0100\n      exp\n      swap1\n      div\n      0xffffffffffffffffffffffffffffffffffffffff\n      and\n        /* \"vinci-protocol-private/contracts/linkedList.sol\":1970:1979  nodeTable */\n      0x03\n        /* \"vinci-protocol-private/contracts/linkedList.sol\":1970:2001  nodeTable[nodeTable[user].next] */\n      0x00\n        /* \"vinci-protocol-private/contracts/linkedList.sol\":1980:1989  nodeTable */\n      0x03\n        /* \"vinci-protocol-private/contracts/linkedList.sol\":1980:1995  nodeTable[user] */\n      0x00\n        /* \"vinci-protocol-private/contracts/linkedList.sol\":1990:1994  user */\n      dup6\n        /* \"vinci-protocol-private/contracts/linkedList.sol\":1980:1995  nodeTable[user] */\n      0xffffffffffffffffffffffffffffffffffffffff\n      and\n      0xffffffffffffffffffffffffffffffffffffffff\n      and\n      dup2\n      mstore\n      0x20\n      add\n      swap1\n      dup2\n      mstore\n      0x20\n      add\n      0x00\n      keccak256\n        /* \"vinci-protocol-private/contracts/linkedList.sol\":1980:2000  nodeTable[user].next */\n      0x02\n      add\n      0x00\n      swap1\n      sload\n      swap1\n      0x0100\n      exp\n      swap1\n      div\n      0xffffffffffffffffffffffffffffffffffffffff\n      and\n        /* \"vinci-protocol-private/contracts/linkedList.sol\":1970:2001  nodeTable[nodeTable[user].next] */\n      0xffffffffffffffffffffffffffffffffffffffff\n      and\n      0xffffffffffffffffffffffffffffffffffffffff\n      and\n      dup2\n      mstore\n      0x20\n      add\n      swap1\n      dup2\n      mstore\n      0x20\n      add\n      0x00\n      keccak256\n        /* \"vinci-protocol-private/contracts/linkedList.sol\":1970:2007  nodeTable[nodeTable[user].next].front */\n      0x01\n      add\n      0x00\n        /* \"vinci-protocol-private/contracts/linkedList.sol\":1970:2029  nodeTable[nodeTable[user].next].front=nodeTable[user].front */\n      0x0100\n      exp\n      dup2\n      sload\n      dup2\n      0xffffffffffffffffffffffffffffffffffffffff\n      mul\n      not\n      and\n      swap1\n      dup4\n      0xffffffffffffffffffffffffffffffffffffffff\n      and\n      mul\n      or\n      swap1\n      sstore\n      pop\n        /* \"vinci-protocol-private/contracts/linkedList.sol\":1853:2037  function _remove(address user)private{... */\n      pop\n      jump\t// out\n        /* \"vinci-protocol-private/contracts/linkedList.sol\":876:1545  function _increate(address user,uint256 account, address front)private{... */\n    tag_64:\n        /* \"vinci-protocol-private/contracts/linkedList.sol\":957:979  Node storage frontNode */\n      0x00\n        /* \"vinci-protocol-private/contracts/linkedList.sol\":980:989  nodeTable */\n      0x03\n        /* \"vinci-protocol-private/contracts/linkedList.sol\":980:996  nodeTable[front] */\n      0x00\n        /* \"vinci-protocol-private/contracts/linkedList.sol\":990:995  front */\n      dup4\n        /* \"vinci-protocol-private/contracts/linkedList.sol\":980:996  nodeTable[front] */\n      0xffffffffffffffffffffffffffffffffffffffff\n      and\n      0xffffffffffffffffffffffffffffffffffffffff\n      and\n      dup2\n      mstore\n      0x20\n      add\n      swap1\n      dup2\n      mstore\n      0x20\n      add\n      0x00\n      keccak256\n        /* \"vinci-protocol-private/contracts/linkedList.sol\":957:996  Node storage frontNode=nodeTable[front] */\n      swap1\n      pop\n        /* \"vinci-protocol-private/contracts/linkedList.sol\":1009:1029  uint256 frontBalance */\n      0x00\n        /* \"vinci-protocol-private/contracts/linkedList.sol\":1032:1045  balanceReader */\n      dup1\n      0x00\n      swap1\n      sload\n      swap1\n      0x0100\n      exp\n      swap1\n      div\n      0xffffffffffffffffffffffffffffffffffffffff\n      and\n        /* \"vinci-protocol-private/contracts/linkedList.sol\":1032:1055  balanceReader.balanceOf */\n      0xffffffffffffffffffffffffffffffffffffffff\n      and\n      0x70a08231\n        /* \"vinci-protocol-private/contracts/linkedList.sol\":1056:1065  frontNode */\n      dup4\n        /* \"vinci-protocol-private/contracts/linkedList.sol\":1056:1071  frontNode.front */\n      0x01\n      add\n      0x00\n      swap1\n      sload\n      swap1\n      0x0100\n      exp\n      swap1\n      div\n      0xffffffffffffffffffffffffffffffffffffffff\n      and\n        /* \"vinci-protocol-private/contracts/linkedList.sol\":1032:1072  balanceReader.balanceOf(frontNode.front) */\n      mload(0x40)\n      dup3\n      0xffffffff\n      and\n      0xe0\n      shl\n      dup2\n      mstore\n      0x04\n      add\n      tag_106\n      swap2\n      swap1\n      tag_23\n      jump\t// in\n    tag_106:\n      0x20\n      mload(0x40)\n      dup1\n      dup4\n      sub\n      dup2\n      dup7\n      gas\n      staticcall\n      iszero\n      dup1\n      iszero\n      tag_108\n      jumpi\n      returndatasize\n      0x00\n      dup1\n      returndatacopy\n      revert(0x00, returndatasize)\n    tag_108:\n      pop\n      pop\n      pop\n      pop\n      mload(0x40)\n      returndatasize\n      not(0x1f)\n      0x1f\n      dup3\n      add\n      and\n      dup3\n      add\n      dup1\n      0x40\n      mstore\n      pop\n      dup2\n      add\n      swap1\n      tag_109\n      swap2\n      swap1\n      tag_80\n      jump\t// in\n    tag_109:\n        /* \"vinci-protocol-private/contracts/linkedList.sol\":1009:1072  uint256 frontBalance = balanceReader.balanceOf(frontNode.front) */\n      swap1\n      pop\n        /* \"vinci-protocol-private/contracts/linkedList.sol\":1083:1102  uint256 nextBalance */\n      0x00\n        /* \"vinci-protocol-private/contracts/linkedList.sol\":1105:1118  balanceReader */\n      dup1\n      0x00\n      swap1\n      sload\n      swap1\n      0x0100\n      exp\n      swap1\n      div\n      0xffffffffffffffffffffffffffffffffffffffff\n      and\n        /* \"vinci-protocol-private/contracts/linkedList.sol\":1105:1128  balanceReader.balanceOf */\n      0xffffffffffffffffffffffffffffffffffffffff\n      and\n      0x70a08231\n        /* \"vinci-protocol-private/contracts/linkedList.sol\":1129:1138  frontNode */\n      dup5\n        /* \"vinci-protocol-private/contracts/linkedList.sol\":1129:1143  frontNode.next */\n      0x02\n      add\n      0x00\n      swap1\n      sload\n      swap1\n      0x0100\n      exp\n      swap1\n      div\n      0xffffffffffffffffffffffffffffffffffffffff\n      and\n        /* \"vinci-protocol-private/contracts/linkedList.sol\":1105:1144  balanceReader.balanceOf(frontNode.next) */\n      mload(0x40)\n      dup3\n      0xffffffff\n      and\n      0xe0\n      shl\n      dup2\n      mstore\n      0x04\n      add\n      tag_110\n      swap2\n      swap1\n      tag_23\n      jump\t// in\n    tag_110:\n      0x20\n      mload(0x40)\n      dup1\n      dup4\n      sub\n      dup2\n      dup7\n      gas\n      staticcall\n      iszero\n      dup1\n      iszero\n      tag_112\n      jumpi\n      returndatasize\n      0x00\n      dup1\n      returndatacopy\n      revert(0x00, returndatasize)\n    tag_112:\n      pop\n      pop\n      pop\n      pop\n      mload(0x40)\n      returndatasize\n      not(0x1f)\n      0x1f\n      dup3\n      add\n      and\n      dup3\n      add\n      dup1\n      0x40\n      mstore\n      pop\n      dup2\n      add\n      swap1\n      tag_113\n      swap2\n      swap1\n      tag_80\n      jump\t// in\n    tag_113:\n        /* \"vinci-protocol-private/contracts/linkedList.sol\":1083:1144  uint256 nextBalance = balanceReader.balanceOf(frontNode.next) */\n      swap1\n      pop\n        /* \"vinci-protocol-private/contracts/linkedList.sol\":1172:1184  ZERO_ADDRESS */\n      0x01\n      0x00\n      swap1\n      sload\n      swap1\n      0x0100\n      exp\n      swap1\n      div\n      0xffffffffffffffffffffffffffffffffffffffff\n      and\n        /* \"vinci-protocol-private/contracts/linkedList.sol\":1165:1184  front==ZERO_ADDRESS */\n      0xffffffffffffffffffffffffffffffffffffffff\n      and\n        /* \"vinci-protocol-private/contracts/linkedList.sol\":1165:1170  front */\n      dup5\n        /* \"vinci-protocol-private/contracts/linkedList.sol\":1165:1184  front==ZERO_ADDRESS */\n      0xffffffffffffffffffffffffffffffffffffffff\n      and\n      eq\n        /* \"vinci-protocol-private/contracts/linkedList.sol\":1165:1226  front==ZERO_ADDRESS || nodeTable[front].current!=ZERO_ADDRESS */\n      dup1\n      tag_114\n      jumpi\n      pop\n        /* \"vinci-protocol-private/contracts/linkedList.sol\":1214:1226  ZERO_ADDRESS */\n      0x01\n      0x00\n      swap1\n      sload\n      swap1\n      0x0100\n      exp\n      swap1\n      div\n      0xffffffffffffffffffffffffffffffffffffffff\n      and\n        /* \"vinci-protocol-private/contracts/linkedList.sol\":1188:1226  nodeTable[front].current!=ZERO_ADDRESS */\n      0xffffffffffffffffffffffffffffffffffffffff\n      and\n        /* \"vinci-protocol-private/contracts/linkedList.sol\":1188:1197  nodeTable */\n      0x03\n        /* \"vinci-protocol-private/contracts/linkedList.sol\":1188:1204  nodeTable[front] */\n      0x00\n        /* \"vinci-protocol-private/contracts/linkedList.sol\":1198:1203  front */\n      dup7\n        /* \"vinci-protocol-private/contracts/linkedList.sol\":1188:1204  nodeTable[front] */\n      0xffffffffffffffffffffffffffffffffffffffff\n      and\n      0xffffffffffffffffffffffffffffffffffffffff\n      and\n      dup2\n      mstore\n      0x20\n      add\n      swap1\n      dup2\n      mstore\n      0x20\n      add\n      0x00\n      keccak256\n        /* \"vinci-protocol-private/contracts/linkedList.sol\":1188:1212  nodeTable[front].current */\n      0x00\n      add\n      0x00\n      swap1\n      sload\n      swap1\n      0x0100\n      exp\n      swap1\n      div\n      0xffffffffffffffffffffffffffffffffffffffff\n      and\n        /* \"vinci-protocol-private/contracts/linkedList.sol\":1188:1226  nodeTable[front].current!=ZERO_ADDRESS */\n      0xffffffffffffffffffffffffffffffffffffffff\n      and\n      eq\n      iszero\n        /* \"vinci-protocol-private/contracts/linkedList.sol\":1165:1226  front==ZERO_ADDRESS || nodeTable[front].current!=ZERO_ADDRESS */\n    tag_114:\n        /* \"vinci-protocol-private/contracts/linkedList.sol\":1157:1227  require(front==ZERO_ADDRESS || nodeTable[front].current!=ZERO_ADDRESS) */\n      tag_115\n      jumpi\n      0x00\n      dup1\n      revert\n    tag_115:\n        /* \"vinci-protocol-private/contracts/linkedList.sol\":1265:1277  ZERO_ADDRESS */\n      0x01\n      0x00\n      swap1\n      sload\n      swap1\n      0x0100\n      exp\n      swap1\n      div\n      0xffffffffffffffffffffffffffffffffffffffff\n      and\n        /* \"vinci-protocol-private/contracts/linkedList.sol\":1248:1277  frontNode.front==ZERO_ADDRESS */\n      0xffffffffffffffffffffffffffffffffffffffff\n      and\n        /* \"vinci-protocol-private/contracts/linkedList.sol\":1248:1257  frontNode */\n      dup4\n        /* \"vinci-protocol-private/contracts/linkedList.sol\":1248:1263  frontNode.front */\n      0x01\n      add\n      0x00\n      swap1\n      sload\n      swap1\n      0x0100\n      exp\n      swap1\n      div\n      0xffffffffffffffffffffffffffffffffffffffff\n      and\n        /* \"vinci-protocol-private/contracts/linkedList.sol\":1248:1277  frontNode.front==ZERO_ADDRESS */\n      0xffffffffffffffffffffffffffffffffffffffff\n      and\n      eq\n        /* \"vinci-protocol-private/contracts/linkedList.sol\":1248:1304  frontNode.front==ZERO_ADDRESS || frontBalance >= account */\n      dup1\n      tag_116\n      jumpi\n      pop\n        /* \"vinci-protocol-private/contracts/linkedList.sol\":1297:1304  account */\n      dup5\n        /* \"vinci-protocol-private/contracts/linkedList.sol\":1281:1293  frontBalance */\n      dup3\n        /* \"vinci-protocol-private/contracts/linkedList.sol\":1281:1304  frontBalance >= account */\n      lt\n      iszero\n        /* \"vinci-protocol-private/contracts/linkedList.sol\":1248:1304  frontNode.front==ZERO_ADDRESS || frontBalance >= account */\n    tag_116:\n        /* \"vinci-protocol-private/contracts/linkedList.sol\":1247:1331  (frontNode.front==ZERO_ADDRESS || frontBalance >= account) && nextBalance <= account */\n      dup1\n      iszero\n      tag_117\n      jumpi\n      pop\n        /* \"vinci-protocol-private/contracts/linkedList.sol\":1324:1331  account */\n      dup5\n        /* \"vinci-protocol-private/contracts/linkedList.sol\":1309:1320  nextBalance */\n      dup2\n        /* \"vinci-protocol-private/contracts/linkedList.sol\":1309:1331  nextBalance <= account */\n      gt\n      iszero\n        /* \"vinci-protocol-private/contracts/linkedList.sol\":1247:1331  (frontNode.front==ZERO_ADDRESS || frontBalance >= account) && nextBalance <= account */\n    tag_117:\n        /* \"vinci-protocol-private/contracts/linkedList.sol\":1239:1332  require((frontNode.front==ZERO_ADDRESS || frontBalance >= account) && nextBalance <= account) */\n      tag_118\n      jumpi\n      0x00\n      dup1\n      revert\n    tag_118:\n        /* \"vinci-protocol-private/contracts/linkedList.sol\":1345:1360  address preNext */\n      0x00\n        /* \"vinci-protocol-private/contracts/linkedList.sol\":1361:1370  nodeTable */\n      0x03\n        /* \"vinci-protocol-private/contracts/linkedList.sol\":1361:1377  nodeTable[front] */\n      0x00\n        /* \"vinci-protocol-private/contracts/linkedList.sol\":1371:1376  front */\n      dup7\n        /* \"vinci-protocol-private/contracts/linkedList.sol\":1361:1377  nodeTable[front] */\n      0xffffffffffffffffffffffffffffffffffffffff\n      and\n      0xffffffffffffffffffffffffffffffffffffffff\n      and\n      dup2\n      mstore\n      0x20\n      add\n      swap1\n      dup2\n      mstore\n      0x20\n      add\n      0x00\n      keccak256\n        /* \"vinci-protocol-private/contracts/linkedList.sol\":1361:1382  nodeTable[front].next */\n      0x02\n      add\n      0x00\n      swap1\n      sload\n      swap1\n      0x0100\n      exp\n      swap1\n      div\n      0xffffffffffffffffffffffffffffffffffffffff\n      and\n        /* \"vinci-protocol-private/contracts/linkedList.sol\":1345:1382  address preNext=nodeTable[front].next */\n      swap1\n      pop\n        /* \"vinci-protocol-private/contracts/linkedList.sol\":1415:1419  user */\n      dup7\n        /* \"vinci-protocol-private/contracts/linkedList.sol\":1393:1402  nodeTable */\n      0x03\n        /* \"vinci-protocol-private/contracts/linkedList.sol\":1393:1409  nodeTable[front] */\n      0x00\n        /* \"vinci-protocol-private/contracts/linkedList.sol\":1403:1408  front */\n      dup8\n        /* \"vinci-protocol-private/contracts/linkedList.sol\":1393:1409  nodeTable[front] */\n      0xffffffffffffffffffffffffffffffffffffffff\n      and\n      0xffffffffffffffffffffffffffffffffffffffff\n      and\n      dup2\n      mstore\n      0x20\n      add\n      swap1\n      dup2\n      mstore\n      0x20\n      add\n      0x00\n      keccak256\n        /* \"vinci-protocol-private/contracts/linkedList.sol\":1393:1414  nodeTable[front].next */\n      0x02\n      add\n      0x00\n        /* \"vinci-protocol-private/contracts/linkedList.sol\":1393:1419  nodeTable[front].next=user */\n      0x0100\n      exp\n      dup2\n      sload\n      dup2\n      0xffffffffffffffffffffffffffffffffffffffff\n      mul\n      not\n      and\n      swap1\n      dup4\n      0xffffffffffffffffffffffffffffffffffffffff\n      and\n      mul\n      or\n      swap1\n      sstore\n      pop\n        /* \"vinci-protocol-private/contracts/linkedList.sol\":1451:1458  preNext */\n      dup1\n        /* \"vinci-protocol-private/contracts/linkedList.sol\":1430:1439  nodeTable */\n      0x03\n        /* \"vinci-protocol-private/contracts/linkedList.sol\":1430:1445  nodeTable[user] */\n      0x00\n        /* \"vinci-protocol-private/contracts/linkedList.sol\":1440:1444  user */\n      dup10\n        /* \"vinci-protocol-private/contracts/linkedList.sol\":1430:1445  nodeTable[user] */\n      0xffffffffffffffffffffffffffffffffffffffff\n      and\n      0xffffffffffffffffffffffffffffffffffffffff\n      and\n      dup2\n      mstore\n      0x20\n      add\n      swap1\n      dup2\n      mstore\n      0x20\n      add\n      0x00\n      keccak256\n        /* \"vinci-protocol-private/contracts/linkedList.sol\":1430:1450  nodeTable[user].next */\n      0x02\n      add\n      0x00\n        /* \"vinci-protocol-private/contracts/linkedList.sol\":1430:1458  nodeTable[user].next=preNext */\n      0x0100\n      exp\n      dup2\n      sload\n      dup2\n      0xffffffffffffffffffffffffffffffffffffffff\n      mul\n      not\n      and\n      swap1\n      dup4\n      0xffffffffffffffffffffffffffffffffffffffff\n      and\n      mul\n      or\n      swap1\n      sstore\n      pop\n        /* \"vinci-protocol-private/contracts/linkedList.sol\":1494:1498  user */\n      dup7\n        /* \"vinci-protocol-private/contracts/linkedList.sol\":1469:1478  nodeTable */\n      0x03\n        /* \"vinci-protocol-private/contracts/linkedList.sol\":1469:1487  nodeTable[preNext] */\n      0x00\n        /* \"vinci-protocol-private/contracts/linkedList.sol\":1479:1486  preNext */\n      dup4\n        /* \"vinci-protocol-private/contracts/linkedList.sol\":1469:1487  nodeTable[preNext] */\n      0xffffffffffffffffffffffffffffffffffffffff\n      and\n      0xffffffffffffffffffffffffffffffffffffffff\n      and\n      dup2\n      mstore\n      0x20\n      add\n      swap1\n      dup2\n      mstore\n      0x20\n      add\n      0x00\n      keccak256\n        /* \"vinci-protocol-private/contracts/linkedList.sol\":1469:1493  nodeTable[preNext].front */\n      0x01\n      add\n      0x00\n        /* \"vinci-protocol-private/contracts/linkedList.sol\":1469:1498  nodeTable[preNext].front=user */\n      0x0100\n      exp\n      dup2\n      sload\n      dup2\n      0xffffffffffffffffffffffffffffffffffffffff\n      mul\n      not\n      and\n      swap1\n      dup4\n      0xffffffffffffffffffffffffffffffffffffffff\n      and\n      mul\n      or\n      swap1\n      sstore\n      pop\n        /* \"vinci-protocol-private/contracts/linkedList.sol\":1533:1537  user */\n      dup7\n        /* \"vinci-protocol-private/contracts/linkedList.sol\":1509:1518  nodeTable */\n      0x03\n        /* \"vinci-protocol-private/contracts/linkedList.sol\":1509:1524  nodeTable[user] */\n      0x00\n        /* \"vinci-protocol-private/contracts/linkedList.sol\":1519:1523  user */\n      dup10\n        /* \"vinci-protocol-private/contracts/linkedList.sol\":1509:1524  nodeTable[user] */\n      0xffffffffffffffffffffffffffffffffffffffff\n      and\n      0xffffffffffffffffffffffffffffffffffffffff\n      and\n      dup2\n      mstore\n      0x20\n      add\n      swap1\n      dup2\n      mstore\n      0x20\n      add\n      0x00\n      keccak256\n        /* \"vinci-protocol-private/contracts/linkedList.sol\":1509:1532  nodeTable[user].current */\n      0x00\n      add\n      0x00\n        /* \"vinci-protocol-private/contracts/linkedList.sol\":1509:1537  nodeTable[user].current=user */\n      0x0100\n      exp\n      dup2\n      sload\n      dup2\n      0xffffffffffffffffffffffffffffffffffffffff\n      mul\n      not\n      and\n      swap1\n      dup4\n      0xffffffffffffffffffffffffffffffffffffffff\n      and\n      mul\n      or\n      swap1\n      sstore\n      pop\n        /* \"vinci-protocol-private/contracts/linkedList.sol\":946:1545  {... */\n      pop\n      pop\n      pop\n      pop\n        /* \"vinci-protocol-private/contracts/linkedList.sol\":876:1545  function _increate(address user,uint256 account, address front)private{... */\n      pop\n      pop\n      pop\n      jump\t// out\n        /* \"#utility.yul\":88:205   */\n    tag_120:\n        /* \"#utility.yul\":197:198   */\n      0x00\n        /* \"#utility.yul\":194:195   */\n      dup1\n        /* \"#utility.yul\":187:199   */\n      revert\n        /* \"#utility.yul\":211:328   */\n    tag_121:\n        /* \"#utility.yul\":320:321   */\n      0x00\n        /* \"#utility.yul\":317:318   */\n      dup1\n        /* \"#utility.yul\":310:322   */\n      revert\n        /* \"#utility.yul\":334:460   */\n    tag_122:\n        /* \"#utility.yul\":371:378   */\n      0x00\n        /* \"#utility.yul\":411:453   */\n      0xffffffffffffffffffffffffffffffffffffffff\n        /* \"#utility.yul\":404:409   */\n      dup3\n        /* \"#utility.yul\":400:454   */\n      and\n        /* \"#utility.yul\":389:454   */\n      swap1\n      pop\n        /* \"#utility.yul\":334:460   */\n      swap2\n      swap1\n      pop\n      jump\t// out\n        /* \"#utility.yul\":466:562   */\n    tag_123:\n        /* \"#utility.yul\":503:510   */\n      0x00\n        /* \"#utility.yul\":532:556   */\n      tag_149\n        /* \"#utility.yul\":550:555   */\n      dup3\n        /* \"#utility.yul\":532:556   */\n      tag_122\n      jump\t// in\n    tag_149:\n        /* \"#utility.yul\":521:556   */\n      swap1\n      pop\n        /* \"#utility.yul\":466:562   */\n      swap2\n      swap1\n      pop\n      jump\t// out\n        /* \"#utility.yul\":568:690   */\n    tag_124:\n        /* \"#utility.yul\":641:665   */\n      tag_151\n        /* \"#utility.yul\":659:664   */\n      dup2\n        /* \"#utility.yul\":641:665   */\n      tag_123\n      jump\t// in\n    tag_151:\n        /* \"#utility.yul\":634:639   */\n      dup2\n        /* \"#utility.yul\":631:666   */\n      eq\n        /* \"#utility.yul\":621:684   */\n      tag_152\n      jumpi\n        /* \"#utility.yul\":680:681   */\n      0x00\n        /* \"#utility.yul\":677:678   */\n      dup1\n        /* \"#utility.yul\":670:682   */\n      revert\n        /* \"#utility.yul\":621:684   */\n    tag_152:\n        /* \"#utility.yul\":568:690   */\n      pop\n      jump\t// out\n        /* \"#utility.yul\":696:835   */\n    tag_125:\n        /* \"#utility.yul\":742:747   */\n      0x00\n        /* \"#utility.yul\":780:786   */\n      dup2\n        /* \"#utility.yul\":767:787   */\n      calldataload\n        /* \"#utility.yul\":758:787   */\n      swap1\n      pop\n        /* \"#utility.yul\":796:829   */\n      tag_154\n        /* \"#utility.yul\":823:828   */\n      dup2\n        /* \"#utility.yul\":796:829   */\n      tag_124\n      jump\t// in\n    tag_154:\n        /* \"#utility.yul\":696:835   */\n      swap3\n      swap2\n      pop\n      pop\n      jump\t// out\n        /* \"#utility.yul\":841:1170   */\n    tag_14:\n        /* \"#utility.yul\":900:906   */\n      0x00\n        /* \"#utility.yul\":949:951   */\n      0x20\n        /* \"#utility.yul\":937:946   */\n      dup3\n        /* \"#utility.yul\":928:935   */\n      dup5\n        /* \"#utility.yul\":924:947   */\n      sub\n        /* \"#utility.yul\":920:952   */\n      slt\n        /* \"#utility.yul\":917:1036   */\n      iszero\n      tag_156\n      jumpi\n        /* \"#utility.yul\":955:1034   */\n      tag_157\n      tag_120\n      jump\t// in\n    tag_157:\n        /* \"#utility.yul\":917:1036   */\n    tag_156:\n        /* \"#utility.yul\":1075:1076   */\n      0x00\n        /* \"#utility.yul\":1100:1153   */\n      tag_158\n        /* \"#utility.yul\":1145:1152   */\n      dup5\n        /* \"#utility.yul\":1136:1142   */\n      dup3\n        /* \"#utility.yul\":1125:1134   */\n      dup6\n        /* \"#utility.yul\":1121:1143   */\n      add\n        /* \"#utility.yul\":1100:1153   */\n      tag_125\n      jump\t// in\n    tag_158:\n        /* \"#utility.yul\":1090:1153   */\n      swap2\n      pop\n        /* \"#utility.yul\":1046:1163   */\n      pop\n        /* \"#utility.yul\":841:1170   */\n      swap3\n      swap2\n      pop\n      pop\n      jump\t// out\n        /* \"#utility.yul\":1176:1253   */\n    tag_126:\n        /* \"#utility.yul\":1213:1220   */\n      0x00\n        /* \"#utility.yul\":1242:1247   */\n      dup2\n        /* \"#utility.yul\":1231:1247   */\n      swap1\n      pop\n        /* \"#utility.yul\":1176:1253   */\n      swap2\n      swap1\n      pop\n      jump\t// out\n        /* \"#utility.yul\":1259:1381   */\n    tag_127:\n        /* \"#utility.yul\":1332:1356   */\n      tag_161\n        /* \"#utility.yul\":1350:1355   */\n      dup2\n        /* \"#utility.yul\":1332:1356   */\n      tag_126\n      jump\t// in\n    tag_161:\n        /* \"#utility.yul\":1325:1330   */\n      dup2\n        /* \"#utility.yul\":1322:1357   */\n      eq\n        /* \"#utility.yul\":1312:1375   */\n      tag_162\n      jumpi\n        /* \"#utility.yul\":1371:1372   */\n      0x00\n        /* \"#utility.yul\":1368:1369   */\n      dup1\n        /* \"#utility.yul\":1361:1373   */\n      revert\n        /* \"#utility.yul\":1312:1375   */\n    tag_162:\n        /* \"#utility.yul\":1259:1381   */\n      pop\n      jump\t// out\n        /* \"#utility.yul\":1387:1526   */\n    tag_128:\n        /* \"#utility.yul\":1433:1438   */\n      0x00\n        /* \"#utility.yul\":1471:1477   */\n      dup2\n        /* \"#utility.yul\":1458:1478   */\n      calldataload\n        /* \"#utility.yul\":1449:1478   */\n      swap1\n      pop\n        /* \"#utility.yul\":1487:1520   */\n      tag_164\n        /* \"#utility.yul\":1514:1519   */\n      dup2\n        /* \"#utility.yul\":1487:1520   */\n      tag_127\n      jump\t// in\n    tag_164:\n        /* \"#utility.yul\":1387:1526   */\n      swap3\n      swap2\n      pop\n      pop\n      jump\t// out\n        /* \"#utility.yul\":1532:2151   */\n    tag_18:\n        /* \"#utility.yul\":1609:1615   */\n      0x00\n        /* \"#utility.yul\":1617:1623   */\n      dup1\n        /* \"#utility.yul\":1625:1631   */\n      0x00\n        /* \"#utility.yul\":1674:1676   */\n      0x60\n        /* \"#utility.yul\":1662:1671   */\n      dup5\n        /* \"#utility.yul\":1653:1660   */\n      dup7\n        /* \"#utility.yul\":1649:1672   */\n      sub\n        /* \"#utility.yul\":1645:1677   */\n      slt\n        /* \"#utility.yul\":1642:1761   */\n      iszero\n      tag_166\n      jumpi\n        /* \"#utility.yul\":1680:1759   */\n      tag_167\n      tag_120\n      jump\t// in\n    tag_167:\n        /* \"#utility.yul\":1642:1761   */\n    tag_166:\n        /* \"#utility.yul\":1800:1801   */\n      0x00\n        /* \"#utility.yul\":1825:1878   */\n      tag_168\n        /* \"#utility.yul\":1870:1877   */\n      dup7\n        /* \"#utility.yul\":1861:1867   */\n      dup3\n        /* \"#utility.yul\":1850:1859   */\n      dup8\n        /* \"#utility.yul\":1846:1868   */\n      add\n        /* \"#utility.yul\":1825:1878   */\n      tag_125\n      jump\t// in\n    tag_168:\n        /* \"#utility.yul\":1815:1878   */\n      swap4\n      pop\n        /* \"#utility.yul\":1771:1888   */\n      pop\n        /* \"#utility.yul\":1927:1929   */\n      0x20\n        /* \"#utility.yul\":1953:2006   */\n      tag_169\n        /* \"#utility.yul\":1998:2005   */\n      dup7\n        /* \"#utility.yul\":1989:1995   */\n      dup3\n        /* \"#utility.yul\":1978:1987   */\n      dup8\n        /* \"#utility.yul\":1974:1996   */\n      add\n        /* \"#utility.yul\":1953:2006   */\n      tag_128\n      jump\t// in\n    tag_169:\n        /* \"#utility.yul\":1943:2006   */\n      swap3\n      pop\n        /* \"#utility.yul\":1898:2016   */\n      pop\n        /* \"#utility.yul\":2055:2057   */\n      0x40\n        /* \"#utility.yul\":2081:2134   */\n      tag_170\n        /* \"#utility.yul\":2126:2133   */\n      dup7\n        /* \"#utility.yul\":2117:2123   */\n      dup3\n        /* \"#utility.yul\":2106:2115   */\n      dup8\n        /* \"#utility.yul\":2102:2124   */\n      add\n        /* \"#utility.yul\":2081:2134   */\n      tag_125\n      jump\t// in\n    tag_170:\n        /* \"#utility.yul\":2071:2134   */\n      swap2\n      pop\n        /* \"#utility.yul\":2026:2144   */\n      pop\n        /* \"#utility.yul\":1532:2151   */\n      swap3\n      pop\n      swap3\n      pop\n      swap3\n      jump\t// out\n        /* \"#utility.yul\":2157:2275   */\n    tag_129:\n        /* \"#utility.yul\":2244:2268   */\n      tag_172\n        /* \"#utility.yul\":2262:2267   */\n      dup2\n        /* \"#utility.yul\":2244:2268   */\n      tag_123\n      jump\t// in\n    tag_172:\n        /* \"#utility.yul\":2239:2242   */\n      dup3\n        /* \"#utility.yul\":2232:2269   */\n      mstore\n        /* \"#utility.yul\":2157:2275   */\n      pop\n      pop\n      jump\t// out\n        /* \"#utility.yul\":2281:2503   */\n    tag_23:\n        /* \"#utility.yul\":2374:2378   */\n      0x00\n        /* \"#utility.yul\":2412:2414   */\n      0x20\n        /* \"#utility.yul\":2401:2410   */\n      dup3\n        /* \"#utility.yul\":2397:2415   */\n      add\n        /* \"#utility.yul\":2389:2415   */\n      swap1\n      pop\n        /* \"#utility.yul\":2425:2496   */\n      tag_174\n        /* \"#utility.yul\":2493:2494   */\n      0x00\n        /* \"#utility.yul\":2482:2491   */\n      dup4\n        /* \"#utility.yul\":2478:2495   */\n      add\n        /* \"#utility.yul\":2469:2475   */\n      dup5\n        /* \"#utility.yul\":2425:2496   */\n      tag_129\n      jump\t// in\n    tag_174:\n        /* \"#utility.yul\":2281:2503   */\n      swap3\n      swap2\n      pop\n      pop\n      jump\t// out\n        /* \"#utility.yul\":2509:2838   */\n    tag_34:\n        /* \"#utility.yul\":2568:2574   */\n      0x00\n        /* \"#utility.yul\":2617:2619   */\n      0x20\n        /* \"#utility.yul\":2605:2614   */\n      dup3\n        /* \"#utility.yul\":2596:2603   */\n      dup5\n        /* \"#utility.yul\":2592:2615   */\n      sub\n        /* \"#utility.yul\":2588:2620   */\n      slt\n        /* \"#utility.yul\":2585:2704   */\n      iszero\n      tag_176\n      jumpi\n        /* \"#utility.yul\":2623:2702   */\n      tag_177\n      tag_120\n      jump\t// in\n    tag_177:\n        /* \"#utility.yul\":2585:2704   */\n    tag_176:\n        /* \"#utility.yul\":2743:2744   */\n      0x00\n        /* \"#utility.yul\":2768:2821   */\n      tag_178\n        /* \"#utility.yul\":2813:2820   */\n      dup5\n        /* \"#utility.yul\":2804:2810   */\n      dup3\n        /* \"#utility.yul\":2793:2802   */\n      dup6\n        /* \"#utility.yul\":2789:2811   */\n      add\n        /* \"#utility.yul\":2768:2821   */\n      tag_128\n      jump\t// in\n    tag_178:\n        /* \"#utility.yul\":2758:2821   */\n      swap2\n      pop\n        /* \"#utility.yul\":2714:2831   */\n      pop\n        /* \"#utility.yul\":2509:2838   */\n      swap3\n      swap2\n      pop\n      pop\n      jump\t// out\n        /* \"#utility.yul\":2844:2961   */\n    tag_130:\n        /* \"#utility.yul\":2953:2954   */\n      0x00\n        /* \"#utility.yul\":2950:2951   */\n      dup1\n        /* \"#utility.yul\":2943:2955   */\n      revert\n        /* \"#utility.yul\":2967:3084   */\n    tag_131:\n        /* \"#utility.yul\":3076:3077   */\n      0x00\n        /* \"#utility.yul\":3073:3074   */\n      dup1\n        /* \"#utility.yul\":3066:3078   */\n      revert\n        /* \"#utility.yul\":3090:3207   */\n    tag_132:\n        /* \"#utility.yul\":3199:3200   */\n      0x00\n        /* \"#utility.yul\":3196:3197   */\n      dup1\n        /* \"#utility.yul\":3189:3201   */\n      revert\n        /* \"#utility.yul\":3230:3798   */\n    tag_133:\n        /* \"#utility.yul\":3303:3311   */\n      0x00\n        /* \"#utility.yul\":3313:3319   */\n      dup1\n        /* \"#utility.yul\":3363:3366   */\n      dup4\n        /* \"#utility.yul\":3356:3360   */\n      0x1f\n        /* \"#utility.yul\":3348:3354   */\n      dup5\n        /* \"#utility.yul\":3344:3361   */\n      add\n        /* \"#utility.yul\":3340:3367   */\n      slt\n        /* \"#utility.yul\":3330:3452   */\n      tag_183\n      jumpi\n        /* \"#utility.yul\":3371:3450   */\n      tag_184\n      tag_130\n      jump\t// in\n    tag_184:\n        /* \"#utility.yul\":3330:3452   */\n    tag_183:\n        /* \"#utility.yul\":3484:3490   */\n      dup3\n        /* \"#utility.yul\":3471:3491   */\n      calldataload\n        /* \"#utility.yul\":3461:3491   */\n      swap1\n      pop\n        /* \"#utility.yul\":3514:3532   */\n      0xffffffffffffffff\n        /* \"#utility.yul\":3506:3512   */\n      dup2\n        /* \"#utility.yul\":3503:3533   */\n      gt\n        /* \"#utility.yul\":3500:3617   */\n      iszero\n      tag_185\n      jumpi\n        /* \"#utility.yul\":3536:3615   */\n      tag_186\n      tag_131\n      jump\t// in\n    tag_186:\n        /* \"#utility.yul\":3500:3617   */\n    tag_185:\n        /* \"#utility.yul\":3650:3654   */\n      0x20\n        /* \"#utility.yul\":3642:3648   */\n      dup4\n        /* \"#utility.yul\":3638:3655   */\n      add\n        /* \"#utility.yul\":3626:3655   */\n      swap2\n      pop\n        /* \"#utility.yul\":3704:3707   */\n      dup4\n        /* \"#utility.yul\":3696:3700   */\n      0x20\n        /* \"#utility.yul\":3688:3694   */\n      dup3\n        /* \"#utility.yul\":3684:3701   */\n      mul\n        /* \"#utility.yul\":3674:3682   */\n      dup4\n        /* \"#utility.yul\":3670:3702   */\n      add\n        /* \"#utility.yul\":3667:3708   */\n      gt\n        /* \"#utility.yul\":3664:3792   */\n      iszero\n      tag_187\n      jumpi\n        /* \"#utility.yul\":3711:3790   */\n      tag_188\n      tag_132\n      jump\t// in\n    tag_188:\n        /* \"#utility.yul\":3664:3792   */\n    tag_187:\n        /* \"#utility.yul\":3230:3798   */\n      swap3\n      pop\n      swap3\n      swap1\n      pop\n      jump\t// out\n        /* \"#utility.yul\":3804:4363   */\n    tag_42:\n        /* \"#utility.yul\":3890:3896   */\n      0x00\n        /* \"#utility.yul\":3898:3904   */\n      dup1\n        /* \"#utility.yul\":3947:3949   */\n      0x20\n        /* \"#utility.yul\":3935:3944   */\n      dup4\n        /* \"#utility.yul\":3926:3933   */\n      dup6\n        /* \"#utility.yul\":3922:3945   */\n      sub\n        /* \"#utility.yul\":3918:3950   */\n      slt\n        /* \"#utility.yul\":3915:4034   */\n      iszero\n      tag_190\n      jumpi\n        /* \"#utility.yul\":3953:4032   */\n      tag_191\n      tag_120\n      jump\t// in\n    tag_191:\n        /* \"#utility.yul\":3915:4034   */\n    tag_190:\n        /* \"#utility.yul\":4101:4102   */\n      0x00\n        /* \"#utility.yul\":4090:4099   */\n      dup4\n        /* \"#utility.yul\":4086:4103   */\n      add\n        /* \"#utility.yul\":4073:4104   */\n      calldataload\n        /* \"#utility.yul\":4131:4149   */\n      0xffffffffffffffff\n        /* \"#utility.yul\":4123:4129   */\n      dup2\n        /* \"#utility.yul\":4120:4150   */\n      gt\n        /* \"#utility.yul\":4117:4234   */\n      iszero\n      tag_192\n      jumpi\n        /* \"#utility.yul\":4153:4232   */\n      tag_193\n      tag_121\n      jump\t// in\n    tag_193:\n        /* \"#utility.yul\":4117:4234   */\n    tag_192:\n        /* \"#utility.yul\":4266:4346   */\n      tag_194\n        /* \"#utility.yul\":4338:4345   */\n      dup6\n        /* \"#utility.yul\":4329:4335   */\n      dup3\n        /* \"#utility.yul\":4318:4327   */\n      dup7\n        /* \"#utility.yul\":4314:4336   */\n      add\n        /* \"#utility.yul\":4266:4346   */\n      tag_133\n      jump\t// in\n    tag_194:\n        /* \"#utility.yul\":4248:4346   */\n      swap3\n      pop\n      swap3\n      pop\n        /* \"#utility.yul\":4044:4356   */\n      pop\n        /* \"#utility.yul\":3804:4363   */\n      swap3\n      pop\n      swap3\n      swap1\n      pop\n      jump\t// out\n        /* \"#utility.yul\":4369:4483   */\n    tag_134:\n        /* \"#utility.yul\":4436:4442   */\n      0x00\n        /* \"#utility.yul\":4470:4475   */\n      dup2\n        /* \"#utility.yul\":4464:4476   */\n      mload\n        /* \"#utility.yul\":4454:4476   */\n      swap1\n      pop\n        /* \"#utility.yul\":4369:4483   */\n      swap2\n      swap1\n      pop\n      jump\t// out\n        /* \"#utility.yul\":4489:4673   */\n    tag_135:\n        /* \"#utility.yul\":4588:4599   */\n      0x00\n        /* \"#utility.yul\":4622:4628   */\n      dup3\n        /* \"#utility.yul\":4617:4620   */\n      dup3\n        /* \"#utility.yul\":4610:4629   */\n      mstore\n        /* \"#utility.yul\":4662:4666   */\n      0x20\n        /* \"#utility.yul\":4657:4660   */\n      dup3\n        /* \"#utility.yul\":4653:4667   */\n      add\n        /* \"#utility.yul\":4638:4667   */\n      swap1\n      pop\n        /* \"#utility.yul\":4489:4673   */\n      swap3\n      swap2\n      pop\n      pop\n      jump\t// out\n        /* \"#utility.yul\":4679:4811   */\n    tag_136:\n        /* \"#utility.yul\":4746:4750   */\n      0x00\n        /* \"#utility.yul\":4769:4772   */\n      dup2\n        /* \"#utility.yul\":4761:4772   */\n      swap1\n      pop\n        /* \"#utility.yul\":4799:4803   */\n      0x20\n        /* \"#utility.yul\":4794:4797   */\n      dup3\n        /* \"#utility.yul\":4790:4804   */\n      add\n        /* \"#utility.yul\":4782:4804   */\n      swap1\n      pop\n        /* \"#utility.yul\":4679:4811   */\n      swap2\n      swap1\n      pop\n      jump\t// out\n        /* \"#utility.yul\":4817:4925   */\n    tag_137:\n        /* \"#utility.yul\":4894:4918   */\n      tag_199\n        /* \"#utility.yul\":4912:4917   */\n      dup2\n        /* \"#utility.yul\":4894:4918   */\n      tag_123\n      jump\t// in\n    tag_199:\n        /* \"#utility.yul\":4889:4892   */\n      dup3\n        /* \"#utility.yul\":4882:4919   */\n      mstore\n        /* \"#utility.yul\":4817:4925   */\n      pop\n      pop\n      jump\t// out\n        /* \"#utility.yul\":4931:5110   */\n    tag_138:\n        /* \"#utility.yul\":5000:5010   */\n      0x00\n        /* \"#utility.yul\":5021:5067   */\n      tag_201\n        /* \"#utility.yul\":5063:5066   */\n      dup4\n        /* \"#utility.yul\":5055:5061   */\n      dup4\n        /* \"#utility.yul\":5021:5067   */\n      tag_137\n      jump\t// in\n    tag_201:\n        /* \"#utility.yul\":5099:5103   */\n      0x20\n        /* \"#utility.yul\":5094:5097   */\n      dup4\n        /* \"#utility.yul\":5090:5104   */\n      add\n        /* \"#utility.yul\":5076:5104   */\n      swap1\n      pop\n        /* \"#utility.yul\":4931:5110   */\n      swap3\n      swap2\n      pop\n      pop\n      jump\t// out\n        /* \"#utility.yul\":5116:5229   */\n    tag_139:\n        /* \"#utility.yul\":5186:5190   */\n      0x00\n        /* \"#utility.yul\":5218:5222   */\n      0x20\n        /* \"#utility.yul\":5213:5216   */\n      dup3\n        /* \"#utility.yul\":5209:5223   */\n      add\n        /* \"#utility.yul\":5201:5223   */\n      swap1\n      pop\n        /* \"#utility.yul\":5116:5229   */\n      swap2\n      swap1\n      pop\n      jump\t// out\n        /* \"#utility.yul\":5265:5997   */\n    tag_140:\n        /* \"#utility.yul\":5384:5387   */\n      0x00\n        /* \"#utility.yul\":5413:5467   */\n      tag_204\n        /* \"#utility.yul\":5461:5466   */\n      dup3\n        /* \"#utility.yul\":5413:5467   */\n      tag_134\n      jump\t// in\n    tag_204:\n        /* \"#utility.yul\":5483:5569   */\n      tag_205\n        /* \"#utility.yul\":5562:5568   */\n      dup2\n        /* \"#utility.yul\":5557:5560   */\n      dup6\n        /* \"#utility.yul\":5483:5569   */\n      tag_135\n      jump\t// in\n    tag_205:\n        /* \"#utility.yul\":5476:5569   */\n      swap4\n      pop\n        /* \"#utility.yul\":5593:5649   */\n      tag_206\n        /* \"#utility.yul\":5643:5648   */\n      dup4\n        /* \"#utility.yul\":5593:5649   */\n      tag_136\n      jump\t// in\n    tag_206:\n        /* \"#utility.yul\":5672:5679   */\n      dup1\n        /* \"#utility.yul\":5703:5704   */\n      0x00\n        /* \"#utility.yul\":5688:5972   */\n    tag_207:\n        /* \"#utility.yul\":5713:5719   */\n      dup4\n        /* \"#utility.yul\":5710:5711   */\n      dup2\n        /* \"#utility.yul\":5707:5720   */\n      lt\n        /* \"#utility.yul\":5688:5972   */\n      iszero\n      tag_209\n      jumpi\n        /* \"#utility.yul\":5789:5795   */\n      dup2\n        /* \"#utility.yul\":5783:5796   */\n      mload\n        /* \"#utility.yul\":5816:5879   */\n      tag_210\n        /* \"#utility.yul\":5875:5878   */\n      dup9\n        /* \"#utility.yul\":5860:5873   */\n      dup3\n        /* \"#utility.yul\":5816:5879   */\n      tag_138\n      jump\t// in\n    tag_210:\n        /* \"#utility.yul\":5809:5879   */\n      swap8\n      pop\n        /* \"#utility.yul\":5902:5962   */\n      tag_211\n        /* \"#utility.yul\":5955:5961   */\n      dup4\n        /* \"#utility.yul\":5902:5962   */\n      tag_139\n      jump\t// in\n    tag_211:\n        /* \"#utility.yul\":5892:5962   */\n      swap3\n      pop\n        /* \"#utility.yul\":5748:5972   */\n      pop\n        /* \"#utility.yul\":5735:5736   */\n      0x01\n        /* \"#utility.yul\":5732:5733   */\n      dup2\n        /* \"#utility.yul\":5728:5737   */\n      add\n        /* \"#utility.yul\":5723:5737   */\n      swap1\n      pop\n        /* \"#utility.yul\":5688:5972   */\n      jump(tag_207)\n    tag_209:\n        /* \"#utility.yul\":5692:5706   */\n      pop\n        /* \"#utility.yul\":5988:5991   */\n      dup6\n        /* \"#utility.yul\":5981:5991   */\n      swap4\n      pop\n        /* \"#utility.yul\":5389:5997   */\n      pop\n      pop\n      pop\n        /* \"#utility.yul\":5265:5997   */\n      swap3\n      swap2\n      pop\n      pop\n      jump\t// out\n        /* \"#utility.yul\":6003:6376   */\n    tag_45:\n        /* \"#utility.yul\":6146:6150   */\n      0x00\n        /* \"#utility.yul\":6184:6186   */\n      0x20\n        /* \"#utility.yul\":6173:6182   */\n      dup3\n        /* \"#utility.yul\":6169:6187   */\n      add\n        /* \"#utility.yul\":6161:6187   */\n      swap1\n      pop\n        /* \"#utility.yul\":6233:6242   */\n      dup2\n        /* \"#utility.yul\":6227:6231   */\n      dup2\n        /* \"#utility.yul\":6223:6243   */\n      sub\n        /* \"#utility.yul\":6219:6220   */\n      0x00\n        /* \"#utility.yul\":6208:6217   */\n      dup4\n        /* \"#utility.yul\":6204:6221   */\n      add\n        /* \"#utility.yul\":6197:6244   */\n      mstore\n        /* \"#utility.yul\":6261:6369   */\n      tag_213\n        /* \"#utility.yul\":6364:6368   */\n      dup2\n        /* \"#utility.yul\":6355:6361   */\n      dup5\n        /* \"#utility.yul\":6261:6369   */\n      tag_140\n      jump\t// in\n    tag_213:\n        /* \"#utility.yul\":6253:6369   */\n      swap1\n      pop\n        /* \"#utility.yul\":6003:6376   */\n      swap3\n      swap2\n      pop\n      pop\n      jump\t// out\n        /* \"#utility.yul\":6382:6562   */\n    tag_141:\n        /* \"#utility.yul\":6430:6507   */\n      0x4e487b7100000000000000000000000000000000000000000000000000000000\n        /* \"#utility.yul\":6427:6428   */\n      0x00\n        /* \"#utility.yul\":6420:6508   */\n      mstore\n        /* \"#utility.yul\":6527:6531   */\n      0x11\n        /* \"#utility.yul\":6524:6525   */\n      0x04\n        /* \"#utility.yul\":6517:6532   */\n      mstore\n        /* \"#utility.yul\":6551:6555   */\n      0x24\n        /* \"#utility.yul\":6548:6549   */\n      0x00\n        /* \"#utility.yul\":6541:6556   */\n      revert\n        /* \"#utility.yul\":6568:6739   */\n    tag_54:\n        /* \"#utility.yul\":6607:6610   */\n      0x00\n        /* \"#utility.yul\":6630:6654   */\n      tag_216\n        /* \"#utility.yul\":6648:6653   */\n      dup3\n        /* \"#utility.yul\":6630:6654   */\n      tag_126\n      jump\t// in\n    tag_216:\n        /* \"#utility.yul\":6621:6654   */\n      swap2\n      pop\n        /* \"#utility.yul\":6676:6680   */\n      0x00\n        /* \"#utility.yul\":6669:6674   */\n      dup3\n        /* \"#utility.yul\":6666:6681   */\n      sub\n        /* \"#utility.yul\":6663:6704   */\n      tag_217\n      jumpi\n        /* \"#utility.yul\":6684:6702   */\n      tag_218\n      tag_141\n      jump\t// in\n    tag_218:\n        /* \"#utility.yul\":6663:6704   */\n    tag_217:\n        /* \"#utility.yul\":6731:6732   */\n      0x01\n        /* \"#utility.yul\":6724:6729   */\n      dup3\n        /* \"#utility.yul\":6720:6733   */\n      sub\n        /* \"#utility.yul\":6713:6733   */\n      swap1\n      pop\n        /* \"#utility.yul\":6568:6739   */\n      swap2\n      swap1\n      pop\n      jump\t// out\n        /* \"#utility.yul\":6745:6978   */\n    tag_62:\n        /* \"#utility.yul\":6784:6787   */\n      0x00\n        /* \"#utility.yul\":6807:6831   */\n      tag_220\n        /* \"#utility.yul\":6825:6830   */\n      dup3\n        /* \"#utility.yul\":6807:6831   */\n      tag_126\n      jump\t// in\n    tag_220:\n        /* \"#utility.yul\":6798:6831   */\n      swap2\n      pop\n        /* \"#utility.yul\":6853:6919   */\n      0xffffffffffffffffffffffffffffffffffffffffffffffffffffffffffffffff\n        /* \"#utility.yul\":6846:6851   */\n      dup3\n        /* \"#utility.yul\":6843:6920   */\n      sub\n        /* \"#utility.yul\":6840:6943   */\n      tag_221\n      jumpi\n        /* \"#utility.yul\":6923:6941   */\n      tag_222\n      tag_141\n      jump\t// in\n    tag_222:\n        /* \"#utility.yul\":6840:6943   */\n    tag_221:\n        /* \"#utility.yul\":6970:6971   */\n      0x01\n        /* \"#utility.yul\":6963:6968   */\n      dup3\n        /* \"#utility.yul\":6959:6972   */\n      add\n        /* \"#utility.yul\":6952:6972   */\n      swap1\n      pop\n        /* \"#utility.yul\":6745:6978   */\n      swap2\n      swap1\n      pop\n      jump\t// out\n        /* \"#utility.yul\":6984:7127   */\n    tag_142:\n        /* \"#utility.yul\":7041:7046   */\n      0x00\n        /* \"#utility.yul\":7072:7078   */\n      dup2\n        /* \"#utility.yul\":7066:7079   */\n      mload\n        /* \"#utility.yul\":7057:7079   */\n      swap1\n      pop\n        /* \"#utility.yul\":7088:7121   */\n      tag_224\n        /* \"#utility.yul\":7115:7120   */\n      dup2\n        /* \"#utility.yul\":7088:7121   */\n      tag_127\n      jump\t// in\n    tag_224:\n        /* \"#utility.yul\":6984:7127   */\n      swap3\n      swap2\n      pop\n      pop\n      jump\t// out\n        /* \"#utility.yul\":7133:7484   */\n    tag_80:\n        /* \"#utility.yul\":7203:7209   */\n      0x00\n        /* \"#utility.yul\":7252:7254   */\n      0x20\n        /* \"#utility.yul\":7240:7249   */\n      dup3\n        /* \"#utility.yul\":7231:7238   */\n      dup5\n        /* \"#utility.yul\":7227:7250   */\n      sub\n        /* \"#utility.yul\":7223:7255   */\n      slt\n        /* \"#utility.yul\":7220:7339   */\n      iszero\n      tag_226\n      jumpi\n        /* \"#utility.yul\":7258:7337   */\n      tag_227\n      tag_120\n      jump\t// in\n    tag_227:\n        /* \"#utility.yul\":7220:7339   */\n    tag_226:\n        /* \"#utility.yul\":7378:7379   */\n      0x00\n        /* \"#utility.yul\":7403:7467   */\n      tag_228\n        /* \"#utility.yul\":7459:7466   */\n      dup5\n        /* \"#utility.yul\":7450:7456   */\n      dup3\n        /* \"#utility.yul\":7439:7448   */\n      dup6\n        /* \"#utility.yul\":7435:7457   */\n      add\n        /* \"#utility.yul\":7403:7467   */\n      tag_142\n      jump\t// in\n    tag_228:\n        /* \"#utility.yul\":7393:7467   */\n      swap2\n      pop\n        /* \"#utility.yul\":7349:7477   */\n      pop\n        /* \"#utility.yul\":7133:7484   */\n      swap3\n      swap2\n      pop\n      pop\n      jump\t// out\n        /* \"#utility.yul\":7490:7670   */\n    tag_90:\n        /* \"#utility.yul\":7538:7615   */\n      0x4e487b7100000000000000000000000000000000000000000000000000000000\n        /* \"#utility.yul\":7535:7536   */\n      0x00\n        /* \"#utility.yul\":7528:7616   */\n      mstore\n        /* \"#utility.yul\":7635:7639   */\n      0x41\n        /* \"#utility.yul\":7632:7633   */\n      0x04\n        /* \"#utility.yul\":7625:7640   */\n      mstore\n        /* \"#utility.yul\":7659:7663   */\n      0x24\n        /* \"#utility.yul\":7656:7657   */\n      0x00\n        /* \"#utility.yul\":7649:7664   */\n      revert\n        /* \"#utility.yul\":7676:7856   */\n    tag_99:\n        /* \"#utility.yul\":7724:7801   */\n      0x4e487b7100000000000000000000000000000000000000000000000000000000\n        /* \"#utility.yul\":7721:7722   */\n      0x00\n        /* \"#utility.yul\":7714:7802   */\n      mstore\n        /* \"#utility.yul\":7821:7825   */\n      0x32\n        /* \"#utility.yul\":7818:7819   */\n      0x04\n        /* \"#utility.yul\":7811:7826   */\n      mstore\n        /* \"#utility.yul\":7845:7849   */\n      0x24\n        /* \"#utility.yul\":7842:7843   */\n      0x00\n        /* \"#utility.yul\":7835:7850   */\n      revert\n\n    auxdata: 0xa26469706673582212205e841698e1b1bb73a0ceea2bb95b41313d98f697cdd78dfaadbb421dcc0be04764736f6c63430008120033\n}\n",
				"bytecode": {
					"linkReferences": {},
					"object": "60806040526000600160006101000a81548173ffffffffffffffffffffffffffffffffffffffff021916908373ffffffffffffffffffffffffffffffffffffffff16021790555060006002553480156200005857600080fd5b5060405162001e0f38038062001e0f83398181016040528101906200007e91906200012f565b806000806101000a81548173ffffffffffffffffffffffffffffffffffffffff021916908373ffffffffffffffffffffffffffffffffffffffff1602179055505062000161565b600080fd5b600073ffffffffffffffffffffffffffffffffffffffff82169050919050565b6000620000f782620000ca565b9050919050565b6200010981620000ea565b81146200011557600080fd5b50565b6000815190506200012981620000fe565b92915050565b600060208284031215620001485762000147620000c5565b5b6000620001588482850162000118565b91505092915050565b611c9e80620001716000396000f3fe608060405234801561001057600080fd5b50600436106100885760003560e01c8063765e01591161005b578063765e015914610113578063819e3503146101435780638f52d40814610173578063a5541c841461018f57610088565b806329092d0e1461008d578063501a5162146100a9578063538ba4f9146100c557806355da9813146100e3575b600080fd5b6100a760048036038101906100a29190611889565b6101bf565b005b6100c360048036038101906100be91906118ec565b6103f0565b005b6100cd610536565b6040516100da919061194e565b60405180910390f35b6100fd60048036038101906100f89190611889565b61055c565b60405161010a919061194e565b60405180910390f35b61012d60048036038101906101289190611889565b6106de565b60405161013a919061194e565b60405180910390f35b61015d60048036038101906101589190611969565b61091c565b60405161016a919061194e565b60405180910390f35b61018d600480360381019061018891906118ec565b610ac8565b005b6101a960048036038101906101a491906119fb565b610c04565b6040516101b69190611b06565b60405180910390f35b60008054906101000a900473ffffffffffffffffffffffffffffffffffffffff1673ffffffffffffffffffffffffffffffffffffffff163373ffffffffffffffffffffffffffffffffffffffff161461021757600080fd5b600160009054906101000a900473ffffffffffffffffffffffffffffffffffffffff1673ffffffffffffffffffffffffffffffffffffffff168173ffffffffffffffffffffffffffffffffffffffff160361027157600080fd5b600160009054906101000a900473ffffffffffffffffffffffffffffffffffffffff1673ffffffffffffffffffffffffffffffffffffffff16600360008373ffffffffffffffffffffffffffffffffffffffff1673ffffffffffffffffffffffffffffffffffffffff16815260200190815260200160002060000160009054906101000a900473ffffffffffffffffffffffffffffffffffffffff1673ffffffffffffffffffffffffffffffffffffffff16146103ed5761033181610fad565b600160009054906101000a900473ffffffffffffffffffffffffffffffffffffffff16600360008373ffffffffffffffffffffffffffffffffffffffff1673ffffffffffffffffffffffffffffffffffffffff16815260200190815260200160002060000160006101000a81548173ffffffffffffffffffffffffffffffffffffffff021916908373ffffffffffffffffffffffffffffffffffffffff160217905550600260008154809291906103e790611b57565b91905055505b50565b60008054906101000a900473ffffffffffffffffffffffffffffffffffffffff1673ffffffffffffffffffffffffffffffffffffffff163373ffffffffffffffffffffffffffffffffffffffff161461044857600080fd5b600160009054906101000a900473ffffffffffffffffffffffffffffffffffffffff1673ffffffffffffffffffffffffffffffffffffffff16600360008573ffffffffffffffffffffffffffffffffffffffff1673ffffffffffffffffffffffffffffffffffffffff16815260200190815260200160002060000160009054906101000a900473ffffffffffffffffffffffffffffffffffffffff1673ffffffffffffffffffffffffffffffffffffffff161461050d5761050883610fad565b610526565b6002600081548092919061052090611b80565b91905055505b61053183838361123a565b505050565b600160009054906101000a900473ffffffffffffffffffffffffffffffffffffffff1681565b6000600160009054906101000a900473ffffffffffffffffffffffffffffffffffffffff1673ffffffffffffffffffffffffffffffffffffffff168273ffffffffffffffffffffffffffffffffffffffff16036105b857600080fd5b600160009054906101000a900473ffffffffffffffffffffffffffffffffffffffff1673ffffffffffffffffffffffffffffffffffffffff16600360008473ffffffffffffffffffffffffffffffffffffffff1673ffffffffffffffffffffffffffffffffffffffff16815260200190815260200160002060000160009054906101000a900473ffffffffffffffffffffffffffffffffffffffff1673ffffffffffffffffffffffffffffffffffffffff160361067457600080fd5b600360008373ffffffffffffffffffffffffffffffffffffffff1673ffffffffffffffffffffffffffffffffffffffff16815260200190815260200160002060010160009054906101000a900473ffffffffffffffffffffffffffffffffffffffff169050919050565b6000600160009054906101000a900473ffffffffffffffffffffffffffffffffffffffff1673ffffffffffffffffffffffffffffffffffffffff168273ffffffffffffffffffffffffffffffffffffffff160361073a57600080fd5b600160009054906101000a900473ffffffffffffffffffffffffffffffffffffffff1673ffffffffffffffffffffffffffffffffffffffff16600360008473ffffffffffffffffffffffffffffffffffffffff1673ffffffffffffffffffffffffffffffffffffffff16815260200190815260200160002060000160009054906101000a900473ffffffffffffffffffffffffffffffffffffffff1673ffffffffffffffffffffffffffffffffffffffff16036107f657600080fd5b600160009054906101000a900473ffffffffffffffffffffffffffffffffffffffff1673ffffffffffffffffffffffffffffffffffffffff16600360008473ffffffffffffffffffffffffffffffffffffffff1673ffffffffffffffffffffffffffffffffffffffff16815260200190815260200160002060020160009054906101000a900473ffffffffffffffffffffffffffffffffffffffff1673ffffffffffffffffffffffffffffffffffffffff16036108b257600080fd5b600360008373ffffffffffffffffffffffffffffffffffffffff1673ffffffffffffffffffffffffffffffffffffffff16815260200190815260200160002060020160009054906101000a900473ffffffffffffffffffffffffffffffffffffffff169050919050565b600080821161092a57600080fd5b600060036000600160009054906101000a900473ffffffffffffffffffffffffffffffffffffffff1673ffffffffffffffffffffffffffffffffffffffff1673ffffffffffffffffffffffffffffffffffffffff16815260200190815260200160002060020160009054906101000a900473ffffffffffffffffffffffffffffffffffffffff1690505b8260008054906101000a900473ffffffffffffffffffffffffffffffffffffffff1673ffffffffffffffffffffffffffffffffffffffff166370a08231836040518263ffffffff1660e01b8152600401610a0e919061194e565b602060405180830381865afa158015610a2b573d6000803e3d6000fd5b505050506040513d601f19601f82011682018060405250810190610a4f9190611bdd565b1115610abf57600360008273ffffffffffffffffffffffffffffffffffffffff1673ffffffffffffffffffffffffffffffffffffffff16815260200190815260200160002060020160009054906101000a900473ffffffffffffffffffffffffffffffffffffffff1690506109b4565b80915050919050565b60008054906101000a900473ffffffffffffffffffffffffffffffffffffffff1673ffffffffffffffffffffffffffffffffffffffff163373ffffffffffffffffffffffffffffffffffffffff1614610b2057600080fd5b600160009054906101000a900473ffffffffffffffffffffffffffffffffffffffff1673ffffffffffffffffffffffffffffffffffffffff16600360008573ffffffffffffffffffffffffffffffffffffffff1673ffffffffffffffffffffffffffffffffffffffff16815260200190815260200160002060000160009054906101000a900473ffffffffffffffffffffffffffffffffffffffff1673ffffffffffffffffffffffffffffffffffffffff1614610bdc57600080fd5b610be783838361123a565b60026000815480929190610bfa90611b80565b9190505550505050565b606060008383905067ffffffffffffffff811115610c2557610c24611c0a565b5b604051908082528060200260200182016040528015610c535781602001602082028036833780820191505090505b509050600080600360008073ffffffffffffffffffffffffffffffffffffffff1673ffffffffffffffffffffffffffffffffffffffff1681526020019081526020016000206040518060600160405290816000820160009054906101000a900473ffffffffffffffffffffffffffffffffffffffff1673ffffffffffffffffffffffffffffffffffffffff1673ffffffffffffffffffffffffffffffffffffffff1681526020016001820160009054906101000a900473ffffffffffffffffffffffffffffffffffffffff1673ffffffffffffffffffffffffffffffffffffffff1673ffffffffffffffffffffffffffffffffffffffff1681526020016002820160009054906101000a900473ffffffffffffffffffffffffffffffffffffffff1673ffffffffffffffffffffffffffffffffffffffff1673ffffffffffffffffffffffffffffffffffffffff1681525050905060005b86869050811015610fa0575b868682818110610dc957610dc8611c39565b5b905060200201358314610f3b5760036000836040015173ffffffffffffffffffffffffffffffffffffffff1673ffffffffffffffffffffffffffffffffffffffff1681526020019081526020016000206040518060600160405290816000820160009054906101000a900473ffffffffffffffffffffffffffffffffffffffff1673ffffffffffffffffffffffffffffffffffffffff1673ffffffffffffffffffffffffffffffffffffffff1681526020016001820160009054906101000a900473ffffffffffffffffffffffffffffffffffffffff1673ffffffffffffffffffffffffffffffffffffffff1673ffffffffffffffffffffffffffffffffffffffff1681526020016002820160009054906101000a900473ffffffffffffffffffffffffffffffffffffffff1673ffffffffffffffffffffffffffffffffffffffff1673ffffffffffffffffffffffffffffffffffffffff168152505091508280610f3390611b80565b935050610db6565b8160000151848281518110610f5357610f52611c39565b5b602002602001019073ffffffffffffffffffffffffffffffffffffffff16908173ffffffffffffffffffffffffffffffffffffffff16815250508080610f9890611b80565b915050610daa565b5082935050505092915050565b600360008273ffffffffffffffffffffffffffffffffffffffff1673ffffffffffffffffffffffffffffffffffffffff16815260200190815260200160002060020160009054906101000a900473ffffffffffffffffffffffffffffffffffffffff1660036000600360008573ffffffffffffffffffffffffffffffffffffffff1673ffffffffffffffffffffffffffffffffffffffff16815260200190815260200160002060010160009054906101000a900473ffffffffffffffffffffffffffffffffffffffff1673ffffffffffffffffffffffffffffffffffffffff1673ffffffffffffffffffffffffffffffffffffffff16815260200190815260200160002060020160006101000a81548173ffffffffffffffffffffffffffffffffffffffff021916908373ffffffffffffffffffffffffffffffffffffffff160217905550600360008273ffffffffffffffffffffffffffffffffffffffff1673ffffffffffffffffffffffffffffffffffffffff16815260200190815260200160002060010160009054906101000a900473ffffffffffffffffffffffffffffffffffffffff1660036000600360008573ffffffffffffffffffffffffffffffffffffffff1673ffffffffffffffffffffffffffffffffffffffff16815260200190815260200160002060020160009054906101000a900473ffffffffffffffffffffffffffffffffffffffff1673ffffffffffffffffffffffffffffffffffffffff1673ffffffffffffffffffffffffffffffffffffffff16815260200190815260200160002060010160006101000a81548173ffffffffffffffffffffffffffffffffffffffff021916908373ffffffffffffffffffffffffffffffffffffffff16021790555050565b6000600360008373ffffffffffffffffffffffffffffffffffffffff1673ffffffffffffffffffffffffffffffffffffffff168152602001908152602001600020905060008060009054906101000a900473ffffffffffffffffffffffffffffffffffffffff1673ffffffffffffffffffffffffffffffffffffffff166370a082318360010160009054906101000a900473ffffffffffffffffffffffffffffffffffffffff166040518263ffffffff1660e01b81526004016112fd919061194e565b602060405180830381865afa15801561131a573d6000803e3d6000fd5b505050506040513d601f19601f8201168201806040525081019061133e9190611bdd565b905060008060009054906101000a900473ffffffffffffffffffffffffffffffffffffffff1673ffffffffffffffffffffffffffffffffffffffff166370a082318460020160009054906101000a900473ffffffffffffffffffffffffffffffffffffffff166040518263ffffffff1660e01b81526004016113c0919061194e565b602060405180830381865afa1580156113dd573d6000803e3d6000fd5b505050506040513d601f19601f820116820180604052508101906114019190611bdd565b9050600160009054906101000a900473ffffffffffffffffffffffffffffffffffffffff1673ffffffffffffffffffffffffffffffffffffffff168473ffffffffffffffffffffffffffffffffffffffff16148061150f5750600160009054906101000a900473ffffffffffffffffffffffffffffffffffffffff1673ffffffffffffffffffffffffffffffffffffffff16600360008673ffffffffffffffffffffffffffffffffffffffff1673ffffffffffffffffffffffffffffffffffffffff16815260200190815260200160002060000160009054906101000a900473ffffffffffffffffffffffffffffffffffffffff1673ffffffffffffffffffffffffffffffffffffffff1614155b61151857600080fd5b600160009054906101000a900473ffffffffffffffffffffffffffffffffffffffff1673ffffffffffffffffffffffffffffffffffffffff168360010160009054906101000a900473ffffffffffffffffffffffffffffffffffffffff1673ffffffffffffffffffffffffffffffffffffffff1614806115985750848210155b80156115a45750848111155b6115ad57600080fd5b6000600360008673ffffffffffffffffffffffffffffffffffffffff1673ffffffffffffffffffffffffffffffffffffffff16815260200190815260200160002060020160009054906101000a900473ffffffffffffffffffffffffffffffffffffffff16905086600360008773ffffffffffffffffffffffffffffffffffffffff1673ffffffffffffffffffffffffffffffffffffffff16815260200190815260200160002060020160006101000a81548173ffffffffffffffffffffffffffffffffffffffff021916908373ffffffffffffffffffffffffffffffffffffffff16021790555080600360008973ffffffffffffffffffffffffffffffffffffffff1673ffffffffffffffffffffffffffffffffffffffff16815260200190815260200160002060020160006101000a81548173ffffffffffffffffffffffffffffffffffffffff021916908373ffffffffffffffffffffffffffffffffffffffff16021790555086600360008373ffffffffffffffffffffffffffffffffffffffff1673ffffffffffffffffffffffffffffffffffffffff16815260200190815260200160002060010160006101000a81548173ffffffffffffffffffffffffffffffffffffffff021916908373ffffffffffffffffffffffffffffffffffffffff16021790555086600360008973ffffffffffffffffffffffffffffffffffffffff1673ffffffffffffffffffffffffffffffffffffffff16815260200190815260200160002060000160006101000a81548173ffffffffffffffffffffffffffffffffffffffff021916908373ffffffffffffffffffffffffffffffffffffffff16021790555050505050505050565b600080fd5b600080fd5b600073ffffffffffffffffffffffffffffffffffffffff82169050919050565b60006118568261182b565b9050919050565b6118668161184b565b811461187157600080fd5b50565b6000813590506118838161185d565b92915050565b60006020828403121561189f5761189e611821565b5b60006118ad84828501611874565b91505092915050565b6000819050919050565b6118c9816118b6565b81146118d457600080fd5b50565b6000813590506118e6816118c0565b92915050565b60008060006060848603121561190557611904611821565b5b600061191386828701611874565b9350506020611924868287016118d7565b925050604061193586828701611874565b9150509250925092565b6119488161184b565b82525050565b6000602082019050611963600083018461193f565b92915050565b60006020828403121561197f5761197e611821565b5b600061198d848285016118d7565b91505092915050565b600080fd5b600080fd5b600080fd5b60008083601f8401126119bb576119ba611996565b5b8235905067ffffffffffffffff8111156119d8576119d761199b565b5b6020830191508360208202830111156119f4576119f36119a0565b5b9250929050565b60008060208385031215611a1257611a11611821565b5b600083013567ffffffffffffffff811115611a3057611a2f611826565b5b611a3c858286016119a5565b92509250509250929050565b600081519050919050565b600082825260208201905092915050565b6000819050602082019050919050565b611a7d8161184b565b82525050565b6000611a8f8383611a74565b60208301905092915050565b6000602082019050919050565b6000611ab382611a48565b611abd8185611a53565b9350611ac883611a64565b8060005b83811015611af9578151611ae08882611a83565b9750611aeb83611a9b565b925050600181019050611acc565b5085935050505092915050565b60006020820190508181036000830152611b208184611aa8565b905092915050565b7f4e487b7100000000000000000000000000000000000000000000000000000000600052601160045260246000fd5b6000611b62826118b6565b915060008203611b7557611b74611b28565b5b600182039050919050565b6000611b8b826118b6565b91507fffffffffffffffffffffffffffffffffffffffffffffffffffffffffffffffff8203611bbd57611bbc611b28565b5b600182019050919050565b600081519050611bd7816118c0565b92915050565b600060208284031215611bf357611bf2611821565b5b6000611c0184828501611bc8565b91505092915050565b7f4e487b7100000000000000000000000000000000000000000000000000000000600052604160045260246000fd5b7f4e487b7100000000000000000000000000000000000000000000000000000000600052603260045260246000fdfea26469706673582212205e841698e1b1bb73a0ceea2bb95b41313d98f697cdd78dfaadbb421dcc0be04764736f6c63430008120033",
					"opcodes": "PUSH1 0x80 PUSH1 0x40 MSTORE PUSH1 0x0 PUSH1 0x1 PUSH1 0x0 PUSH2 0x100 EXP DUP2 SLOAD DUP2 PUSH20 0xFFFFFFFFFFFFFFFFFFFFFFFFFFFFFFFFFFFFFFFF MUL NOT AND SWAP1 DUP4 PUSH20 0xFFFFFFFFFFFFFFFFFFFFFFFFFFFFFFFFFFFFFFFF AND MUL OR SWAP1 SSTORE POP PUSH1 0x0 PUSH1 0x2 SSTORE CALLVALUE DUP1 ISZERO PUSH3 0x58 JUMPI PUSH1 0x0 DUP1 REVERT JUMPDEST POP PUSH1 0x40 MLOAD PUSH3 0x1E0F CODESIZE SUB DUP1 PUSH3 0x1E0F DUP4 CODECOPY DUP2 DUP2 ADD PUSH1 0x40 MSTORE DUP2 ADD SWAP1 PUSH3 0x7E SWAP2 SWAP1 PUSH3 0x12F JUMP JUMPDEST DUP1 PUSH1 0x0 DUP1 PUSH2 0x100 EXP DUP2 SLOAD DUP2 PUSH20 0xFFFFFFFFFFFFFFFFFFFFFFFFFFFFFFFFFFFFFFFF MUL NOT AND SWAP1 DUP4 PUSH20 0xFFFFFFFFFFFFFFFFFFFFFFFFFFFFFFFFFFFFFFFF AND MUL OR SWAP1 SSTORE POP POP PUSH3 0x161 JUMP JUMPDEST PUSH1 0x0 DUP1 REVERT JUMPDEST PUSH1 0x0 PUSH20 0xFFFFFFFFFFFFFFFFFFFFFFFFFFFFFFFFFFFFFFFF DUP3 AND SWAP1 POP SWAP2 SWAP1 POP JUMP JUMPDEST PUSH1 0x0 PUSH3 0xF7 DUP3 PUSH3 0xCA JUMP JUMPDEST SWAP1 POP SWAP2 SWAP1 POP JUMP JUMPDEST PUSH3 0x109 DUP2 PUSH3 0xEA JUMP JUMPDEST DUP2 EQ PUSH3 0x115 JUMPI PUSH1 0x0 DUP1 REVERT JUMPDEST POP JUMP JUMPDEST PUSH1 0x0 DUP2 MLOAD SWAP1 POP PUSH3 0x129 DUP2 PUSH3 0xFE JUMP JUMPDEST SWAP3 SWAP2 POP POP JUMP JUMPDEST PUSH1 0x0 PUSH1 0x20 DUP3 DUP5 SUB SLT ISZERO PUSH3 0x148 JUMPI PUSH3 0x147 PUSH3 0xC5 JUMP JUMPDEST JUMPDEST PUSH1 0x0 PUSH3 0x158 DUP5 DUP3 DUP6 ADD PUSH3 0x118 JUMP JUMPDEST SWAP2 POP POP SWAP3 SWAP2 POP POP JUMP JUMPDEST PUSH2 0x1C9E DUP1 PUSH3 0x171 PUSH1 0x0 CODECOPY PUSH1 0x0 RETURN INVALID PUSH1 0x80 PUSH1 0x40 MSTORE CALLVALUE DUP1 ISZERO PUSH2 0x10 JUMPI PUSH1 0x0 DUP1 REVERT JUMPDEST POP PUSH1 0x4 CALLDATASIZE LT PUSH2 0x88 JUMPI PUSH1 0x0 CALLDATALOAD PUSH1 0xE0 SHR DUP1 PUSH4 0x765E0159 GT PUSH2 0x5B JUMPI DUP1 PUSH4 0x765E0159 EQ PUSH2 0x113 JUMPI DUP1 PUSH4 0x819E3503 EQ PUSH2 0x143 JUMPI DUP1 PUSH4 0x8F52D408 EQ PUSH2 0x173 JUMPI DUP1 PUSH4 0xA5541C84 EQ PUSH2 0x18F JUMPI PUSH2 0x88 JUMP JUMPDEST DUP1 PUSH4 0x29092D0E EQ PUSH2 0x8D JUMPI DUP1 PUSH4 0x501A5162 EQ PUSH2 0xA9 JUMPI DUP1 PUSH4 0x538BA4F9 EQ PUSH2 0xC5 JUMPI DUP1 PUSH4 0x55DA9813 EQ PUSH2 0xE3 JUMPI JUMPDEST PUSH1 0x0 DUP1 REVERT JUMPDEST PUSH2 0xA7 PUSH1 0x4 DUP1 CALLDATASIZE SUB DUP2 ADD SWAP1 PUSH2 0xA2 SWAP2 SWAP1 PUSH2 0x1889 JUMP JUMPDEST PUSH2 0x1BF JUMP JUMPDEST STOP JUMPDEST PUSH2 0xC3 PUSH1 0x4 DUP1 CALLDATASIZE SUB DUP2 ADD SWAP1 PUSH2 0xBE SWAP2 SWAP1 PUSH2 0x18EC JUMP JUMPDEST PUSH2 0x3F0 JUMP JUMPDEST STOP JUMPDEST PUSH2 0xCD PUSH2 0x536 JUMP JUMPDEST PUSH1 0x40 MLOAD PUSH2 0xDA SWAP2 SWAP1 PUSH2 0x194E JUMP JUMPDEST PUSH1 0x40 MLOAD DUP1 SWAP2 SUB SWAP1 RETURN JUMPDEST PUSH2 0xFD PUSH1 0x4 DUP1 CALLDATASIZE SUB DUP2 ADD SWAP1 PUSH2 0xF8 SWAP2 SWAP1 PUSH2 0x1889 JUMP JUMPDEST PUSH2 0x55C JUMP JUMPDEST PUSH1 0x40 MLOAD PUSH2 0x10A SWAP2 SWAP1 PUSH2 0x194E JUMP JUMPDEST PUSH1 0x40 MLOAD DUP1 SWAP2 SUB SWAP1 RETURN JUMPDEST PUSH2 0x12D PUSH1 0x4 DUP1 CALLDATASIZE SUB DUP2 ADD SWAP1 PUSH2 0x128 SWAP2 SWAP1 PUSH2 0x1889 JUMP JUMPDEST PUSH2 0x6DE JUMP JUMPDEST PUSH1 0x40 MLOAD PUSH2 0x13A SWAP2 SWAP1 PUSH2 0x194E JUMP JUMPDEST PUSH1 0x40 MLOAD DUP1 SWAP2 SUB SWAP1 RETURN JUMPDEST PUSH2 0x15D PUSH1 0x4 DUP1 CALLDATASIZE SUB DUP2 ADD SWAP1 PUSH2 0x158 SWAP2 SWAP1 PUSH2 0x1969 JUMP JUMPDEST PUSH2 0x91C JUMP JUMPDEST PUSH1 0x40 MLOAD PUSH2 0x16A SWAP2 SWAP1 PUSH2 0x194E JUMP JUMPDEST PUSH1 0x40 MLOAD DUP1 SWAP2 SUB SWAP1 RETURN JUMPDEST PUSH2 0x18D PUSH1 0x4 DUP1 CALLDATASIZE SUB DUP2 ADD SWAP1 PUSH2 0x188 SWAP2 SWAP1 PUSH2 0x18EC JUMP JUMPDEST PUSH2 0xAC8 JUMP JUMPDEST STOP JUMPDEST PUSH2 0x1A9 PUSH1 0x4 DUP1 CALLDATASIZE SUB DUP2 ADD SWAP1 PUSH2 0x1A4 SWAP2 SWAP1 PUSH2 0x19FB JUMP JUMPDEST PUSH2 0xC04 JUMP JUMPDEST PUSH1 0x40 MLOAD PUSH2 0x1B6 SWAP2 SWAP1 PUSH2 0x1B06 JUMP JUMPDEST PUSH1 0x40 MLOAD DUP1 SWAP2 SUB SWAP1 RETURN JUMPDEST PUSH1 0x0 DUP1 SLOAD SWAP1 PUSH2 0x100 EXP SWAP1 DIV PUSH20 0xFFFFFFFFFFFFFFFFFFFFFFFFFFFFFFFFFFFFFFFF AND PUSH20 0xFFFFFFFFFFFFFFFFFFFFFFFFFFFFFFFFFFFFFFFF AND CALLER PUSH20 0xFFFFFFFFFFFFFFFFFFFFFFFFFFFFFFFFFFFFFFFF AND EQ PUSH2 0x217 JUMPI PUSH1 0x0 DUP1 REVERT JUMPDEST PUSH1 0x1 PUSH1 0x0 SWAP1 SLOAD SWAP1 PUSH2 0x100 EXP SWAP1 DIV PUSH20 0xFFFFFFFFFFFFFFFFFFFFFFFFFFFFFFFFFFFFFFFF AND PUSH20 0xFFFFFFFFFFFFFFFFFFFFFFFFFFFFFFFFFFFFFFFF AND DUP2 PUSH20 0xFFFFFFFFFFFFFFFFFFFFFFFFFFFFFFFFFFFFFFFF AND SUB PUSH2 0x271 JUMPI PUSH1 0x0 DUP1 REVERT JUMPDEST PUSH1 0x1 PUSH1 0x0 SWAP1 SLOAD SWAP1 PUSH2 0x100 EXP SWAP1 DIV PUSH20 0xFFFFFFFFFFFFFFFFFFFFFFFFFFFFFFFFFFFFFFFF AND PUSH20 0xFFFFFFFFFFFFFFFFFFFFFFFFFFFFFFFFFFFFFFFF AND PUSH1 0x3 PUSH1 0x0 DUP4 PUSH20 0xFFFFFFFFFFFFFFFFFFFFFFFFFFFFFFFFFFFFFFFF AND PUSH20 0xFFFFFFFFFFFFFFFFFFFFFFFFFFFFFFFFFFFFFFFF AND DUP2 MSTORE PUSH1 0x20 ADD SWAP1 DUP2 MSTORE PUSH1 0x20 ADD PUSH1 0x0 KECCAK256 PUSH1 0x0 ADD PUSH1 0x0 SWAP1 SLOAD SWAP1 PUSH2 0x100 EXP SWAP1 DIV PUSH20 0xFFFFFFFFFFFFFFFFFFFFFFFFFFFFFFFFFFFFFFFF AND PUSH20 0xFFFFFFFFFFFFFFFFFFFFFFFFFFFFFFFFFFFFFFFF AND EQ PUSH2 0x3ED JUMPI PUSH2 0x331 DUP2 PUSH2 0xFAD JUMP JUMPDEST PUSH1 0x1 PUSH1 0x0 SWAP1 SLOAD SWAP1 PUSH2 0x100 EXP SWAP1 DIV PUSH20 0xFFFFFFFFFFFFFFFFFFFFFFFFFFFFFFFFFFFFFFFF AND PUSH1 0x3 PUSH1 0x0 DUP4 PUSH20 0xFFFFFFFFFFFFFFFFFFFFFFFFFFFFFFFFFFFFFFFF AND PUSH20 0xFFFFFFFFFFFFFFFFFFFFFFFFFFFFFFFFFFFFFFFF AND DUP2 MSTORE PUSH1 0x20 ADD SWAP1 DUP2 MSTORE PUSH1 0x20 ADD PUSH1 0x0 KECCAK256 PUSH1 0x0 ADD PUSH1 0x0 PUSH2 0x100 EXP DUP2 SLOAD DUP2 PUSH20 0xFFFFFFFFFFFFFFFFFFFFFFFFFFFFFFFFFFFFFFFF MUL NOT AND SWAP1 DUP4 PUSH20 0xFFFFFFFFFFFFFFFFFFFFFFFFFFFFFFFFFFFFFFFF AND MUL OR SWAP1 SSTORE POP PUSH1 0x2 PUSH1 0x0 DUP2 SLOAD DUP1 SWAP3 SWAP2 SWAP1 PUSH2 0x3E7 SWAP1 PUSH2 0x1B57 JUMP JUMPDEST SWAP2 SWAP1 POP SSTORE POP JUMPDEST POP JUMP JUMPDEST PUSH1 0x0 DUP1 SLOAD SWAP1 PUSH2 0x100 EXP SWAP1 DIV PUSH20 0xFFFFFFFFFFFFFFFFFFFFFFFFFFFFFFFFFFFFFFFF AND PUSH20 0xFFFFFFFFFFFFFFFFFFFFFFFFFFFFFFFFFFFFFFFF AND CALLER PUSH20 0xFFFFFFFFFFFFFFFFFFFFFFFFFFFFFFFFFFFFFFFF AND EQ PUSH2 0x448 JUMPI PUSH1 0x0 DUP1 REVERT JUMPDEST PUSH1 0x1 PUSH1 0x0 SWAP1 SLOAD SWAP1 PUSH2 0x100 EXP SWAP1 DIV PUSH20 0xFFFFFFFFFFFFFFFFFFFFFFFFFFFFFFFFFFFFFFFF AND PUSH20 0xFFFFFFFFFFFFFFFFFFFFFFFFFFFFFFFFFFFFFFFF AND PUSH1 0x3 PUSH1 0x0 DUP6 PUSH20 0xFFFFFFFFFFFFFFFFFFFFFFFFFFFFFFFFFFFFFFFF AND PUSH20 0xFFFFFFFFFFFFFFFFFFFFFFFFFFFFFFFFFFFFFFFF AND DUP2 MSTORE PUSH1 0x20 ADD SWAP1 DUP2 MSTORE PUSH1 0x20 ADD PUSH1 0x0 KECCAK256 PUSH1 0x0 ADD PUSH1 0x0 SWAP1 SLOAD SWAP1 PUSH2 0x100 EXP SWAP1 DIV PUSH20 0xFFFFFFFFFFFFFFFFFFFFFFFFFFFFFFFFFFFFFFFF AND PUSH20 0xFFFFFFFFFFFFFFFFFFFFFFFFFFFFFFFFFFFFFFFF AND EQ PUSH2 0x50D JUMPI PUSH2 0x508 DUP4 PUSH2 0xFAD JUMP JUMPDEST PUSH2 0x526 JUMP JUMPDEST PUSH1 0x2 PUSH1 0x0 DUP2 SLOAD DUP1 SWAP3 SWAP2 SWAP1 PUSH2 0x520 SWAP1 PUSH2 0x1B80 JUMP JUMPDEST SWAP2 SWAP1 POP SSTORE POP JUMPDEST PUSH2 0x531 DUP4 DUP4 DUP4 PUSH2 0x123A JUMP JUMPDEST POP POP POP JUMP JUMPDEST PUSH1 0x1 PUSH1 0x0 SWAP1 SLOAD SWAP1 PUSH2 0x100 EXP SWAP1 DIV PUSH20 0xFFFFFFFFFFFFFFFFFFFFFFFFFFFFFFFFFFFFFFFF AND DUP2 JUMP JUMPDEST PUSH1 0x0 PUSH1 0x1 PUSH1 0x0 SWAP1 SLOAD SWAP1 PUSH2 0x100 EXP SWAP1 DIV PUSH20 0xFFFFFFFFFFFFFFFFFFFFFFFFFFFFFFFFFFFFFFFF AND PUSH20 0xFFFFFFFFFFFFFFFFFFFFFFFFFFFFFFFFFFFFFFFF AND DUP3 PUSH20 0xFFFFFFFFFFFFFFFFFFFFFFFFFFFFFFFFFFFFFFFF AND SUB PUSH2 0x5B8 JUMPI PUSH1 0x0 DUP1 REVERT JUMPDEST PUSH1 0x1 PUSH1 0x0 SWAP1 SLOAD SWAP1 PUSH2 0x100 EXP SWAP1 DIV PUSH20 0xFFFFFFFFFFFFFFFFFFFFFFFFFFFFFFFFFFFFFFFF AND PUSH20 0xFFFFFFFFFFFFFFFFFFFFFFFFFFFFFFFFFFFFFFFF AND PUSH1 0x3 PUSH1 0x0 DUP5 PUSH20 0xFFFFFFFFFFFFFFFFFFFFFFFFFFFFFFFFFFFFFFFF AND PUSH20 0xFFFFFFFFFFFFFFFFFFFFFFFFFFFFFFFFFFFFFFFF AND DUP2 MSTORE PUSH1 0x20 ADD SWAP1 DUP2 MSTORE PUSH1 0x20 ADD PUSH1 0x0 KECCAK256 PUSH1 0x0 ADD PUSH1 0x0 SWAP1 SLOAD SWAP1 PUSH2 0x100 EXP SWAP1 DIV PUSH20 0xFFFFFFFFFFFFFFFFFFFFFFFFFFFFFFFFFFFFFFFF AND PUSH20 0xFFFFFFFFFFFFFFFFFFFFFFFFFFFFFFFFFFFFFFFF AND SUB PUSH2 0x674 JUMPI PUSH1 0x0 DUP1 REVERT JUMPDEST PUSH1 0x3 PUSH1 0x0 DUP4 PUSH20 0xFFFFFFFFFFFFFFFFFFFFFFFFFFFFFFFFFFFFFFFF AND PUSH20 0xFFFFFFFFFFFFFFFFFFFFFFFFFFFFFFFFFFFFFFFF AND DUP2 MSTORE PUSH1 0x20 ADD SWAP1 DUP2 MSTORE PUSH1 0x20 ADD PUSH1 0x0 KECCAK256 PUSH1 0x1 ADD PUSH1 0x0 SWAP1 SLOAD SWAP1 PUSH2 0x100 EXP SWAP1 DIV PUSH20 0xFFFFFFFFFFFFFFFFFFFFFFFFFFFFFFFFFFFFFFFF AND SWAP1 POP SWAP2 SWAP1 POP JUMP JUMPDEST PUSH1 0x0 PUSH1 0x1 PUSH1 0x0 SWAP1 SLOAD SWAP1 PUSH2 0x100 EXP SWAP1 DIV PUSH20 0xFFFFFFFFFFFFFFFFFFFFFFFFFFFFFFFFFFFFFFFF AND PUSH20 0xFFFFFFFFFFFFFFFFFFFFFFFFFFFFFFFFFFFFFFFF AND DUP3 PUSH20 0xFFFFFFFFFFFFFFFFFFFFFFFFFFFFFFFFFFFFFFFF AND SUB PUSH2 0x73A JUMPI PUSH1 0x0 DUP1 REVERT JUMPDEST PUSH1 0x1 PUSH1 0x0 SWAP1 SLOAD SWAP1 PUSH2 0x100 EXP SWAP1 DIV PUSH20 0xFFFFFFFFFFFFFFFFFFFFFFFFFFFFFFFFFFFFFFFF AND PUSH20 0xFFFFFFFFFFFFFFFFFFFFFFFFFFFFFFFFFFFFFFFF AND PUSH1 0x3 PUSH1 0x0 DUP5 PUSH20 0xFFFFFFFFFFFFFFFFFFFFFFFFFFFFFFFFFFFFFFFF AND PUSH20 0xFFFFFFFFFFFFFFFFFFFFFFFFFFFFFFFFFFFFFFFF AND DUP2 MSTORE PUSH1 0x20 ADD SWAP1 DUP2 MSTORE PUSH1 0x20 ADD PUSH1 0x0 KECCAK256 PUSH1 0x0 ADD PUSH1 0x0 SWAP1 SLOAD SWAP1 PUSH2 0x100 EXP SWAP1 DIV PUSH20 0xFFFFFFFFFFFFFFFFFFFFFFFFFFFFFFFFFFFFFFFF AND PUSH20 0xFFFFFFFFFFFFFFFFFFFFFFFFFFFFFFFFFFFFFFFF AND SUB PUSH2 0x7F6 JUMPI PUSH1 0x0 DUP1 REVERT JUMPDEST PUSH1 0x1 PUSH1 0x0 SWAP1 SLOAD SWAP1 PUSH2 0x100 EXP SWAP1 DIV PUSH20 0xFFFFFFFFFFFFFFFFFFFFFFFFFFFFFFFFFFFFFFFF AND PUSH20 0xFFFFFFFFFFFFFFFFFFFFFFFFFFFFFFFFFFFFFFFF AND PUSH1 0x3 PUSH1 0x0 DUP5 PUSH20 0xFFFFFFFFFFFFFFFFFFFFFFFFFFFFFFFFFFFFFFFF AND PUSH20 0xFFFFFFFFFFFFFFFFFFFFFFFFFFFFFFFFFFFFFFFF AND DUP2 MSTORE PUSH1 0x20 ADD SWAP1 DUP2 MSTORE PUSH1 0x20 ADD PUSH1 0x0 KECCAK256 PUSH1 0x2 ADD PUSH1 0x0 SWAP1 SLOAD SWAP1 PUSH2 0x100 EXP SWAP1 DIV PUSH20 0xFFFFFFFFFFFFFFFFFFFFFFFFFFFFFFFFFFFFFFFF AND PUSH20 0xFFFFFFFFFFFFFFFFFFFFFFFFFFFFFFFFFFFFFFFF AND SUB PUSH2 0x8B2 JUMPI PUSH1 0x0 DUP1 REVERT JUMPDEST PUSH1 0x3 PUSH1 0x0 DUP4 PUSH20 0xFFFFFFFFFFFFFFFFFFFFFFFFFFFFFFFFFFFFFFFF AND PUSH20 0xFFFFFFFFFFFFFFFFFFFFFFFFFFFFFFFFFFFFFFFF AND DUP2 MSTORE PUSH1 0x20 ADD SWAP1 DUP2 MSTORE PUSH1 0x20 ADD PUSH1 0x0 KECCAK256 PUSH1 0x2 ADD PUSH1 0x0 SWAP1 SLOAD SWAP1 PUSH2 0x100 EXP SWAP1 DIV PUSH20 0xFFFFFFFFFFFFFFFFFFFFFFFFFFFFFFFFFFFFFFFF AND SWAP1 POP SWAP2 SWAP1 POP JUMP JUMPDEST PUSH1 0x0 DUP1 DUP3 GT PUSH2 0x92A JUMPI PUSH1 0x0 DUP1 REVERT JUMPDEST PUSH1 0x0 PUSH1 0x3 PUSH1 0x0 PUSH1 0x1 PUSH1 0x0 SWAP1 SLOAD SWAP1 PUSH2 0x100 EXP SWAP1 DIV PUSH20 0xFFFFFFFFFFFFFFFFFFFFFFFFFFFFFFFFFFFFFFFF AND PUSH20 0xFFFFFFFFFFFFFFFFFFFFFFFFFFFFFFFFFFFFFFFF AND PUSH20 0xFFFFFFFFFFFFFFFFFFFFFFFFFFFFFFFFFFFFFFFF AND DUP2 MSTORE PUSH1 0x20 ADD SWAP1 DUP2 MSTORE PUSH1 0x20 ADD PUSH1 0x0 KECCAK256 PUSH1 0x2 ADD PUSH1 0x0 SWAP1 SLOAD SWAP1 PUSH2 0x100 EXP SWAP1 DIV PUSH20 0xFFFFFFFFFFFFFFFFFFFFFFFFFFFFFFFFFFFFFFFF AND SWAP1 POP JUMPDEST DUP3 PUSH1 0x0 DUP1 SLOAD SWAP1 PUSH2 0x100 EXP SWAP1 DIV PUSH20 0xFFFFFFFFFFFFFFFFFFFFFFFFFFFFFFFFFFFFFFFF AND PUSH20 0xFFFFFFFFFFFFFFFFFFFFFFFFFFFFFFFFFFFFFFFF AND PUSH4 0x70A08231 DUP4 PUSH1 0x40 MLOAD DUP3 PUSH4 0xFFFFFFFF AND PUSH1 0xE0 SHL DUP2 MSTORE PUSH1 0x4 ADD PUSH2 0xA0E SWAP2 SWAP1 PUSH2 0x194E JUMP JUMPDEST PUSH1 0x20 PUSH1 0x40 MLOAD DUP1 DUP4 SUB DUP2 DUP7 GAS STATICCALL ISZERO DUP1 ISZERO PUSH2 0xA2B JUMPI RETURNDATASIZE PUSH1 0x0 DUP1 RETURNDATACOPY RETURNDATASIZE PUSH1 0x0 REVERT JUMPDEST POP POP POP POP PUSH1 0x40 MLOAD RETURNDATASIZE PUSH1 0x1F NOT PUSH1 0x1F DUP3 ADD AND DUP3 ADD DUP1 PUSH1 0x40 MSTORE POP DUP2 ADD SWAP1 PUSH2 0xA4F SWAP2 SWAP1 PUSH2 0x1BDD JUMP JUMPDEST GT ISZERO PUSH2 0xABF JUMPI PUSH1 0x3 PUSH1 0x0 DUP3 PUSH20 0xFFFFFFFFFFFFFFFFFFFFFFFFFFFFFFFFFFFFFFFF AND PUSH20 0xFFFFFFFFFFFFFFFFFFFFFFFFFFFFFFFFFFFFFFFF AND DUP2 MSTORE PUSH1 0x20 ADD SWAP1 DUP2 MSTORE PUSH1 0x20 ADD PUSH1 0x0 KECCAK256 PUSH1 0x2 ADD PUSH1 0x0 SWAP1 SLOAD SWAP1 PUSH2 0x100 EXP SWAP1 DIV PUSH20 0xFFFFFFFFFFFFFFFFFFFFFFFFFFFFFFFFFFFFFFFF AND SWAP1 POP PUSH2 0x9B4 JUMP JUMPDEST DUP1 SWAP2 POP POP SWAP2 SWAP1 POP JUMP JUMPDEST PUSH1 0x0 DUP1 SLOAD SWAP1 PUSH2 0x100 EXP SWAP1 DIV PUSH20 0xFFFFFFFFFFFFFFFFFFFFFFFFFFFFFFFFFFFFFFFF AND PUSH20 0xFFFFFFFFFFFFFFFFFFFFFFFFFFFFFFFFFFFFFFFF AND CALLER PUSH20 0xFFFFFFFFFFFFFFFFFFFFFFFFFFFFFFFFFFFFFFFF AND EQ PUSH2 0xB20 JUMPI PUSH1 0x0 DUP1 REVERT JUMPDEST PUSH1 0x1 PUSH1 0x0 SWAP1 SLOAD SWAP1 PUSH2 0x100 EXP SWAP1 DIV PUSH20 0xFFFFFFFFFFFFFFFFFFFFFFFFFFFFFFFFFFFFFFFF AND PUSH20 0xFFFFFFFFFFFFFFFFFFFFFFFFFFFFFFFFFFFFFFFF AND PUSH1 0x3 PUSH1 0x0 DUP6 PUSH20 0xFFFFFFFFFFFFFFFFFFFFFFFFFFFFFFFFFFFFFFFF AND PUSH20 0xFFFFFFFFFFFFFFFFFFFFFFFFFFFFFFFFFFFFFFFF AND DUP2 MSTORE PUSH1 0x20 ADD SWAP1 DUP2 MSTORE PUSH1 0x20 ADD PUSH1 0x0 KECCAK256 PUSH1 0x0 ADD PUSH1 0x0 SWAP1 SLOAD SWAP1 PUSH2 0x100 EXP SWAP1 DIV PUSH20 0xFFFFFFFFFFFFFFFFFFFFFFFFFFFFFFFFFFFFFFFF AND PUSH20 0xFFFFFFFFFFFFFFFFFFFFFFFFFFFFFFFFFFFFFFFF AND EQ PUSH2 0xBDC JUMPI PUSH1 0x0 DUP1 REVERT JUMPDEST PUSH2 0xBE7 DUP4 DUP4 DUP4 PUSH2 0x123A JUMP JUMPDEST PUSH1 0x2 PUSH1 0x0 DUP2 SLOAD DUP1 SWAP3 SWAP2 SWAP1 PUSH2 0xBFA SWAP1 PUSH2 0x1B80 JUMP JUMPDEST SWAP2 SWAP1 POP SSTORE POP POP POP POP JUMP JUMPDEST PUSH1 0x60 PUSH1 0x0 DUP4 DUP4 SWAP1 POP PUSH8 0xFFFFFFFFFFFFFFFF DUP2 GT ISZERO PUSH2 0xC25 JUMPI PUSH2 0xC24 PUSH2 0x1C0A JUMP JUMPDEST JUMPDEST PUSH1 0x40 MLOAD SWAP1 DUP1 DUP3 MSTORE DUP1 PUSH1 0x20 MUL PUSH1 0x20 ADD DUP3 ADD PUSH1 0x40 MSTORE DUP1 ISZERO PUSH2 0xC53 JUMPI DUP2 PUSH1 0x20 ADD PUSH1 0x20 DUP3 MUL DUP1 CALLDATASIZE DUP4 CALLDATACOPY DUP1 DUP3 ADD SWAP2 POP POP SWAP1 POP JUMPDEST POP SWAP1 POP PUSH1 0x0 DUP1 PUSH1 0x3 PUSH1 0x0 DUP1 PUSH20 0xFFFFFFFFFFFFFFFFFFFFFFFFFFFFFFFFFFFFFFFF AND PUSH20 0xFFFFFFFFFFFFFFFFFFFFFFFFFFFFFFFFFFFFFFFF AND DUP2 MSTORE PUSH1 0x20 ADD SWAP1 DUP2 MSTORE PUSH1 0x20 ADD PUSH1 0x0 KECCAK256 PUSH1 0x40 MLOAD DUP1 PUSH1 0x60 ADD PUSH1 0x40 MSTORE SWAP1 DUP2 PUSH1 0x0 DUP3 ADD PUSH1 0x0 SWAP1 SLOAD SWAP1 PUSH2 0x100 EXP SWAP1 DIV PUSH20 0xFFFFFFFFFFFFFFFFFFFFFFFFFFFFFFFFFFFFFFFF AND PUSH20 0xFFFFFFFFFFFFFFFFFFFFFFFFFFFFFFFFFFFFFFFF AND PUSH20 0xFFFFFFFFFFFFFFFFFFFFFFFFFFFFFFFFFFFFFFFF AND DUP2 MSTORE PUSH1 0x20 ADD PUSH1 0x1 DUP3 ADD PUSH1 0x0 SWAP1 SLOAD SWAP1 PUSH2 0x100 EXP SWAP1 DIV PUSH20 0xFFFFFFFFFFFFFFFFFFFFFFFFFFFFFFFFFFFFFFFF AND PUSH20 0xFFFFFFFFFFFFFFFFFFFFFFFFFFFFFFFFFFFFFFFF AND PUSH20 0xFFFFFFFFFFFFFFFFFFFFFFFFFFFFFFFFFFFFFFFF AND DUP2 MSTORE PUSH1 0x20 ADD PUSH1 0x2 DUP3 ADD PUSH1 0x0 SWAP1 SLOAD SWAP1 PUSH2 0x100 EXP SWAP1 DIV PUSH20 0xFFFFFFFFFFFFFFFFFFFFFFFFFFFFFFFFFFFFFFFF AND PUSH20 0xFFFFFFFFFFFFFFFFFFFFFFFFFFFFFFFFFFFFFFFF AND PUSH20 0xFFFFFFFFFFFFFFFFFFFFFFFFFFFFFFFFFFFFFFFF AND DUP2 MSTORE POP POP SWAP1 POP PUSH1 0x0 JUMPDEST DUP7 DUP7 SWAP1 POP DUP2 LT ISZERO PUSH2 0xFA0 JUMPI JUMPDEST DUP7 DUP7 DUP3 DUP2 DUP2 LT PUSH2 0xDC9 JUMPI PUSH2 0xDC8 PUSH2 0x1C39 JUMP JUMPDEST JUMPDEST SWAP1 POP PUSH1 0x20 MUL ADD CALLDATALOAD DUP4 EQ PUSH2 0xF3B JUMPI PUSH1 0x3 PUSH1 0x0 DUP4 PUSH1 0x40 ADD MLOAD PUSH20 0xFFFFFFFFFFFFFFFFFFFFFFFFFFFFFFFFFFFFFFFF AND PUSH20 0xFFFFFFFFFFFFFFFFFFFFFFFFFFFFFFFFFFFFFFFF AND DUP2 MSTORE PUSH1 0x20 ADD SWAP1 DUP2 MSTORE PUSH1 0x20 ADD PUSH1 0x0 KECCAK256 PUSH1 0x40 MLOAD DUP1 PUSH1 0x60 ADD PUSH1 0x40 MSTORE SWAP1 DUP2 PUSH1 0x0 DUP3 ADD PUSH1 0x0 SWAP1 SLOAD SWAP1 PUSH2 0x100 EXP SWAP1 DIV PUSH20 0xFFFFFFFFFFFFFFFFFFFFFFFFFFFFFFFFFFFFFFFF AND PUSH20 0xFFFFFFFFFFFFFFFFFFFFFFFFFFFFFFFFFFFFFFFF AND PUSH20 0xFFFFFFFFFFFFFFFFFFFFFFFFFFFFFFFFFFFFFFFF AND DUP2 MSTORE PUSH1 0x20 ADD PUSH1 0x1 DUP3 ADD PUSH1 0x0 SWAP1 SLOAD SWAP1 PUSH2 0x100 EXP SWAP1 DIV PUSH20 0xFFFFFFFFFFFFFFFFFFFFFFFFFFFFFFFFFFFFFFFF AND PUSH20 0xFFFFFFFFFFFFFFFFFFFFFFFFFFFFFFFFFFFFFFFF AND PUSH20 0xFFFFFFFFFFFFFFFFFFFFFFFFFFFFFFFFFFFFFFFF AND DUP2 MSTORE PUSH1 0x20 ADD PUSH1 0x2 DUP3 ADD PUSH1 0x0 SWAP1 SLOAD SWAP1 PUSH2 0x100 EXP SWAP1 DIV PUSH20 0xFFFFFFFFFFFFFFFFFFFFFFFFFFFFFFFFFFFFFFFF AND PUSH20 0xFFFFFFFFFFFFFFFFFFFFFFFFFFFFFFFFFFFFFFFF AND PUSH20 0xFFFFFFFFFFFFFFFFFFFFFFFFFFFFFFFFFFFFFFFF AND DUP2 MSTORE POP POP SWAP2 POP DUP3 DUP1 PUSH2 0xF33 SWAP1 PUSH2 0x1B80 JUMP JUMPDEST SWAP4 POP POP PUSH2 0xDB6 JUMP JUMPDEST DUP2 PUSH1 0x0 ADD MLOAD DUP5 DUP3 DUP2 MLOAD DUP2 LT PUSH2 0xF53 JUMPI PUSH2 0xF52 PUSH2 0x1C39 JUMP JUMPDEST JUMPDEST PUSH1 0x20 MUL PUSH1 0x20 ADD ADD SWAP1 PUSH20 0xFFFFFFFFFFFFFFFFFFFFFFFFFFFFFFFFFFFFFFFF AND SWAP1 DUP2 PUSH20 0xFFFFFFFFFFFFFFFFFFFFFFFFFFFFFFFFFFFFFFFF AND DUP2 MSTORE POP POP DUP1 DUP1 PUSH2 0xF98 SWAP1 PUSH2 0x1B80 JUMP JUMPDEST SWAP2 POP POP PUSH2 0xDAA JUMP JUMPDEST POP DUP3 SWAP4 POP POP POP POP SWAP3 SWAP2 POP POP JUMP JUMPDEST PUSH1 0x3 PUSH1 0x0 DUP3 PUSH20 0xFFFFFFFFFFFFFFFFFFFFFFFFFFFFFFFFFFFFFFFF AND PUSH20 0xFFFFFFFFFFFFFFFFFFFFFFFFFFFFFFFFFFFFFFFF AND DUP2 MSTORE PUSH1 0x20 ADD SWAP1 DUP2 MSTORE PUSH1 0x20 ADD PUSH1 0x0 KECCAK256 PUSH1 0x2 ADD PUSH1 0x0 SWAP1 SLOAD SWAP1 PUSH2 0x100 EXP SWAP1 DIV PUSH20 0xFFFFFFFFFFFFFFFFFFFFFFFFFFFFFFFFFFFFFFFF AND PUSH1 0x3 PUSH1 0x0 PUSH1 0x3 PUSH1 0x0 DUP6 PUSH20 0xFFFFFFFFFFFFFFFFFFFFFFFFFFFFFFFFFFFFFFFF AND PUSH20 0xFFFFFFFFFFFFFFFFFFFFFFFFFFFFFFFFFFFFFFFF AND DUP2 MSTORE PUSH1 0x20 ADD SWAP1 DUP2 MSTORE PUSH1 0x20 ADD PUSH1 0x0 KECCAK256 PUSH1 0x1 ADD PUSH1 0x0 SWAP1 SLOAD SWAP1 PUSH2 0x100 EXP SWAP1 DIV PUSH20 0xFFFFFFFFFFFFFFFFFFFFFFFFFFFFFFFFFFFFFFFF AND PUSH20 0xFFFFFFFFFFFFFFFFFFFFFFFFFFFFFFFFFFFFFFFF AND PUSH20 0xFFFFFFFFFFFFFFFFFFFFFFFFFFFFFFFFFFFFFFFF AND DUP2 MSTORE PUSH1 0x20 ADD SWAP1 DUP2 MSTORE PUSH1 0x20 ADD PUSH1 0x0 KECCAK256 PUSH1 0x2 ADD PUSH1 0x0 PUSH2 0x100 EXP DUP2 SLOAD DUP2 PUSH20 0xFFFFFFFFFFFFFFFFFFFFFFFFFFFFFFFFFFFFFFFF MUL NOT AND SWAP1 DUP4 PUSH20 0xFFFFFFFFFFFFFFFFFFFFFFFFFFFFFFFFFFFFFFFF AND MUL OR SWAP1 SSTORE POP PUSH1 0x3 PUSH1 0x0 DUP3 PUSH20 0xFFFFFFFFFFFFFFFFFFFFFFFFFFFFFFFFFFFFFFFF AND PUSH20 0xFFFFFFFFFFFFFFFFFFFFFFFFFFFFFFFFFFFFFFFF AND DUP2 MSTORE PUSH1 0x20 ADD SWAP1 DUP2 MSTORE PUSH1 0x20 ADD PUSH1 0x0 KECCAK256 PUSH1 0x1 ADD PUSH1 0x0 SWAP1 SLOAD SWAP1 PUSH2 0x100 EXP SWAP1 DIV PUSH20 0xFFFFFFFFFFFFFFFFFFFFFFFFFFFFFFFFFFFFFFFF AND PUSH1 0x3 PUSH1 0x0 PUSH1 0x3 PUSH1 0x0 DUP6 PUSH20 0xFFFFFFFFFFFFFFFFFFFFFFFFFFFFFFFFFFFFFFFF AND PUSH20 0xFFFFFFFFFFFFFFFFFFFFFFFFFFFFFFFFFFFFFFFF AND DUP2 MSTORE PUSH1 0x20 ADD SWAP1 DUP2 MSTORE PUSH1 0x20 ADD PUSH1 0x0 KECCAK256 PUSH1 0x2 ADD PUSH1 0x0 SWAP1 SLOAD SWAP1 PUSH2 0x100 EXP SWAP1 DIV PUSH20 0xFFFFFFFFFFFFFFFFFFFFFFFFFFFFFFFFFFFFFFFF AND PUSH20 0xFFFFFFFFFFFFFFFFFFFFFFFFFFFFFFFFFFFFFFFF AND PUSH20 0xFFFFFFFFFFFFFFFFFFFFFFFFFFFFFFFFFFFFFFFF AND DUP2 MSTORE PUSH1 0x20 ADD SWAP1 DUP2 MSTORE PUSH1 0x20 ADD PUSH1 0x0 KECCAK256 PUSH1 0x1 ADD PUSH1 0x0 PUSH2 0x100 EXP DUP2 SLOAD DUP2 PUSH20 0xFFFFFFFFFFFFFFFFFFFFFFFFFFFFFFFFFFFFFFFF MUL NOT AND SWAP1 DUP4 PUSH20 0xFFFFFFFFFFFFFFFFFFFFFFFFFFFFFFFFFFFFFFFF AND MUL OR SWAP1 SSTORE POP POP JUMP JUMPDEST PUSH1 0x0 PUSH1 0x3 PUSH1 0x0 DUP4 PUSH20 0xFFFFFFFFFFFFFFFFFFFFFFFFFFFFFFFFFFFFFFFF AND PUSH20 0xFFFFFFFFFFFFFFFFFFFFFFFFFFFFFFFFFFFFFFFF AND DUP2 MSTORE PUSH1 0x20 ADD SWAP1 DUP2 MSTORE PUSH1 0x20 ADD PUSH1 0x0 KECCAK256 SWAP1 POP PUSH1 0x0 DUP1 PUSH1 0x0 SWAP1 SLOAD SWAP1 PUSH2 0x100 EXP SWAP1 DIV PUSH20 0xFFFFFFFFFFFFFFFFFFFFFFFFFFFFFFFFFFFFFFFF AND PUSH20 0xFFFFFFFFFFFFFFFFFFFFFFFFFFFFFFFFFFFFFFFF AND PUSH4 0x70A08231 DUP4 PUSH1 0x1 ADD PUSH1 0x0 SWAP1 SLOAD SWAP1 PUSH2 0x100 EXP SWAP1 DIV PUSH20 0xFFFFFFFFFFFFFFFFFFFFFFFFFFFFFFFFFFFFFFFF AND PUSH1 0x40 MLOAD DUP3 PUSH4 0xFFFFFFFF AND PUSH1 0xE0 SHL DUP2 MSTORE PUSH1 0x4 ADD PUSH2 0x12FD SWAP2 SWAP1 PUSH2 0x194E JUMP JUMPDEST PUSH1 0x20 PUSH1 0x40 MLOAD DUP1 DUP4 SUB DUP2 DUP7 GAS STATICCALL ISZERO DUP1 ISZERO PUSH2 0x131A JUMPI RETURNDATASIZE PUSH1 0x0 DUP1 RETURNDATACOPY RETURNDATASIZE PUSH1 0x0 REVERT JUMPDEST POP POP POP POP PUSH1 0x40 MLOAD RETURNDATASIZE PUSH1 0x1F NOT PUSH1 0x1F DUP3 ADD AND DUP3 ADD DUP1 PUSH1 0x40 MSTORE POP DUP2 ADD SWAP1 PUSH2 0x133E SWAP2 SWAP1 PUSH2 0x1BDD JUMP JUMPDEST SWAP1 POP PUSH1 0x0 DUP1 PUSH1 0x0 SWAP1 SLOAD SWAP1 PUSH2 0x100 EXP SWAP1 DIV PUSH20 0xFFFFFFFFFFFFFFFFFFFFFFFFFFFFFFFFFFFFFFFF AND PUSH20 0xFFFFFFFFFFFFFFFFFFFFFFFFFFFFFFFFFFFFFFFF AND PUSH4 0x70A08231 DUP5 PUSH1 0x2 ADD PUSH1 0x0 SWAP1 SLOAD SWAP1 PUSH2 0x100 EXP SWAP1 DIV PUSH20 0xFFFFFFFFFFFFFFFFFFFFFFFFFFFFFFFFFFFFFFFF AND PUSH1 0x40 MLOAD DUP3 PUSH4 0xFFFFFFFF AND PUSH1 0xE0 SHL DUP2 MSTORE PUSH1 0x4 ADD PUSH2 0x13C0 SWAP2 SWAP1 PUSH2 0x194E JUMP JUMPDEST PUSH1 0x20 PUSH1 0x40 MLOAD DUP1 DUP4 SUB DUP2 DUP7 GAS STATICCALL ISZERO DUP1 ISZERO PUSH2 0x13DD JUMPI RETURNDATASIZE PUSH1 0x0 DUP1 RETURNDATACOPY RETURNDATASIZE PUSH1 0x0 REVERT JUMPDEST POP POP POP POP PUSH1 0x40 MLOAD RETURNDATASIZE PUSH1 0x1F NOT PUSH1 0x1F DUP3 ADD AND DUP3 ADD DUP1 PUSH1 0x40 MSTORE POP DUP2 ADD SWAP1 PUSH2 0x1401 SWAP2 SWAP1 PUSH2 0x1BDD JUMP JUMPDEST SWAP1 POP PUSH1 0x1 PUSH1 0x0 SWAP1 SLOAD SWAP1 PUSH2 0x100 EXP SWAP1 DIV PUSH20 0xFFFFFFFFFFFFFFFFFFFFFFFFFFFFFFFFFFFFFFFF AND PUSH20 0xFFFFFFFFFFFFFFFFFFFFFFFFFFFFFFFFFFFFFFFF AND DUP5 PUSH20 0xFFFFFFFFFFFFFFFFFFFFFFFFFFFFFFFFFFFFFFFF AND EQ DUP1 PUSH2 0x150F JUMPI POP PUSH1 0x1 PUSH1 0x0 SWAP1 SLOAD SWAP1 PUSH2 0x100 EXP SWAP1 DIV PUSH20 0xFFFFFFFFFFFFFFFFFFFFFFFFFFFFFFFFFFFFFFFF AND PUSH20 0xFFFFFFFFFFFFFFFFFFFFFFFFFFFFFFFFFFFFFFFF AND PUSH1 0x3 PUSH1 0x0 DUP7 PUSH20 0xFFFFFFFFFFFFFFFFFFFFFFFFFFFFFFFFFFFFFFFF AND PUSH20 0xFFFFFFFFFFFFFFFFFFFFFFFFFFFFFFFFFFFFFFFF AND DUP2 MSTORE PUSH1 0x20 ADD SWAP1 DUP2 MSTORE PUSH1 0x20 ADD PUSH1 0x0 KECCAK256 PUSH1 0x0 ADD PUSH1 0x0 SWAP1 SLOAD SWAP1 PUSH2 0x100 EXP SWAP1 DIV PUSH20 0xFFFFFFFFFFFFFFFFFFFFFFFFFFFFFFFFFFFFFFFF AND PUSH20 0xFFFFFFFFFFFFFFFFFFFFFFFFFFFFFFFFFFFFFFFF AND EQ ISZERO JUMPDEST PUSH2 0x1518 JUMPI PUSH1 0x0 DUP1 REVERT JUMPDEST PUSH1 0x1 PUSH1 0x0 SWAP1 SLOAD SWAP1 PUSH2 0x100 EXP SWAP1 DIV PUSH20 0xFFFFFFFFFFFFFFFFFFFFFFFFFFFFFFFFFFFFFFFF AND PUSH20 0xFFFFFFFFFFFFFFFFFFFFFFFFFFFFFFFFFFFFFFFF AND DUP4 PUSH1 0x1 ADD PUSH1 0x0 SWAP1 SLOAD SWAP1 PUSH2 0x100 EXP SWAP1 DIV PUSH20 0xFFFFFFFFFFFFFFFFFFFFFFFFFFFFFFFFFFFFFFFF AND PUSH20 0xFFFFFFFFFFFFFFFFFFFFFFFFFFFFFFFFFFFFFFFF AND EQ DUP1 PUSH2 0x1598 JUMPI POP DUP5 DUP3 LT ISZERO JUMPDEST DUP1 ISZERO PUSH2 0x15A4 JUMPI POP DUP5 DUP2 GT ISZERO JUMPDEST PUSH2 0x15AD JUMPI PUSH1 0x0 DUP1 REVERT JUMPDEST PUSH1 0x0 PUSH1 0x3 PUSH1 0x0 DUP7 PUSH20 0xFFFFFFFFFFFFFFFFFFFFFFFFFFFFFFFFFFFFFFFF AND PUSH20 0xFFFFFFFFFFFFFFFFFFFFFFFFFFFFFFFFFFFFFFFF AND DUP2 MSTORE PUSH1 0x20 ADD SWAP1 DUP2 MSTORE PUSH1 0x20 ADD PUSH1 0x0 KECCAK256 PUSH1 0x2 ADD PUSH1 0x0 SWAP1 SLOAD SWAP1 PUSH2 0x100 EXP SWAP1 DIV PUSH20 0xFFFFFFFFFFFFFFFFFFFFFFFFFFFFFFFFFFFFFFFF AND SWAP1 POP DUP7 PUSH1 0x3 PUSH1 0x0 DUP8 PUSH20 0xFFFFFFFFFFFFFFFFFFFFFFFFFFFFFFFFFFFFFFFF AND PUSH20 0xFFFFFFFFFFFFFFFFFFFFFFFFFFFFFFFFFFFFFFFF AND DUP2 MSTORE PUSH1 0x20 ADD SWAP1 DUP2 MSTORE PUSH1 0x20 ADD PUSH1 0x0 KECCAK256 PUSH1 0x2 ADD PUSH1 0x0 PUSH2 0x100 EXP DUP2 SLOAD DUP2 PUSH20 0xFFFFFFFFFFFFFFFFFFFFFFFFFFFFFFFFFFFFFFFF MUL NOT AND SWAP1 DUP4 PUSH20 0xFFFFFFFFFFFFFFFFFFFFFFFFFFFFFFFFFFFFFFFF AND MUL OR SWAP1 SSTORE POP DUP1 PUSH1 0x3 PUSH1 0x0 DUP10 PUSH20 0xFFFFFFFFFFFFFFFFFFFFFFFFFFFFFFFFFFFFFFFF AND PUSH20 0xFFFFFFFFFFFFFFFFFFFFFFFFFFFFFFFFFFFFFFFF AND DUP2 MSTORE PUSH1 0x20 ADD SWAP1 DUP2 MSTORE PUSH1 0x20 ADD PUSH1 0x0 KECCAK256 PUSH1 0x2 ADD PUSH1 0x0 PUSH2 0x100 EXP DUP2 SLOAD DUP2 PUSH20 0xFFFFFFFFFFFFFFFFFFFFFFFFFFFFFFFFFFFFFFFF MUL NOT AND SWAP1 DUP4 PUSH20 0xFFFFFFFFFFFFFFFFFFFFFFFFFFFFFFFFFFFFFFFF AND MUL OR SWAP1 SSTORE POP DUP7 PUSH1 0x3 PUSH1 0x0 DUP4 PUSH20 0xFFFFFFFFFFFFFFFFFFFFFFFFFFFFFFFFFFFFFFFF AND PUSH20 0xFFFFFFFFFFFFFFFFFFFFFFFFFFFFFFFFFFFFFFFF AND DUP2 MSTORE PUSH1 0x20 ADD SWAP1 DUP2 MSTORE PUSH1 0x20 ADD PUSH1 0x0 KECCAK256 PUSH1 0x1 ADD PUSH1 0x0 PUSH2 0x100 EXP DUP2 SLOAD DUP2 PUSH20 0xFFFFFFFFFFFFFFFFFFFFFFFFFFFFFFFFFFFFFFFF MUL NOT AND SWAP1 DUP4 PUSH20 0xFFFFFFFFFFFFFFFFFFFFFFFFFFFFFFFFFFFFFFFF AND MUL OR SWAP1 SSTORE POP DUP7 PUSH1 0x3 PUSH1 0x0 DUP10 PUSH20 0xFFFFFFFFFFFFFFFFFFFFFFFFFFFFFFFFFFFFFFFF AND PUSH20 0xFFFFFFFFFFFFFFFFFFFFFFFFFFFFFFFFFFFFFFFF AND DUP2 MSTORE PUSH1 0x20 ADD SWAP1 DUP2 MSTORE PUSH1 0x20 ADD PUSH1 0x0 KECCAK256 PUSH1 0x0 ADD PUSH1 0x0 PUSH2 0x100 EXP DUP2 SLOAD DUP2 PUSH20 0xFFFFFFFFFFFFFFFFFFFFFFFFFFFFFFFFFFFFFFFF MUL NOT AND SWAP1 DUP4 PUSH20 0xFFFFFFFFFFFFFFFFFFFFFFFFFFFFFFFFFFFFFFFF AND MUL OR SWAP1 SSTORE POP POP POP POP POP POP POP POP JUMP JUMPDEST PUSH1 0x0 DUP1 REVERT JUMPDEST PUSH1 0x0 DUP1 REVERT JUMPDEST PUSH1 0x0 PUSH20 0xFFFFFFFFFFFFFFFFFFFFFFFFFFFFFFFFFFFFFFFF DUP3 AND SWAP1 POP SWAP2 SWAP1 POP JUMP JUMPDEST PUSH1 0x0 PUSH2 0x1856 DUP3 PUSH2 0x182B JUMP JUMPDEST SWAP1 POP SWAP2 SWAP1 POP JUMP JUMPDEST PUSH2 0x1866 DUP2 PUSH2 0x184B JUMP JUMPDEST DUP2 EQ PUSH2 0x1871 JUMPI PUSH1 0x0 DUP1 REVERT JUMPDEST POP JUMP JUMPDEST PUSH1 0x0 DUP2 CALLDATALOAD SWAP1 POP PUSH2 0x1883 DUP2 PUSH2 0x185D JUMP JUMPDEST SWAP3 SWAP2 POP POP JUMP JUMPDEST PUSH1 0x0 PUSH1 0x20 DUP3 DUP5 SUB SLT ISZERO PUSH2 0x189F JUMPI PUSH2 0x189E PUSH2 0x1821 JUMP JUMPDEST JUMPDEST PUSH1 0x0 PUSH2 0x18AD DUP5 DUP3 DUP6 ADD PUSH2 0x1874 JUMP JUMPDEST SWAP2 POP POP SWAP3 SWAP2 POP POP JUMP JUMPDEST PUSH1 0x0 DUP2 SWAP1 POP SWAP2 SWAP1 POP JUMP JUMPDEST PUSH2 0x18C9 DUP2 PUSH2 0x18B6 JUMP JUMPDEST DUP2 EQ PUSH2 0x18D4 JUMPI PUSH1 0x0 DUP1 REVERT JUMPDEST POP JUMP JUMPDEST PUSH1 0x0 DUP2 CALLDATALOAD SWAP1 POP PUSH2 0x18E6 DUP2 PUSH2 0x18C0 JUMP JUMPDEST SWAP3 SWAP2 POP POP JUMP JUMPDEST PUSH1 0x0 DUP1 PUSH1 0x0 PUSH1 0x60 DUP5 DUP7 SUB SLT ISZERO PUSH2 0x1905 JUMPI PUSH2 0x1904 PUSH2 0x1821 JUMP JUMPDEST JUMPDEST PUSH1 0x0 PUSH2 0x1913 DUP7 DUP3 DUP8 ADD PUSH2 0x1874 JUMP JUMPDEST SWAP4 POP POP PUSH1 0x20 PUSH2 0x1924 DUP7 DUP3 DUP8 ADD PUSH2 0x18D7 JUMP JUMPDEST SWAP3 POP POP PUSH1 0x40 PUSH2 0x1935 DUP7 DUP3 DUP8 ADD PUSH2 0x1874 JUMP JUMPDEST SWAP2 POP POP SWAP3 POP SWAP3 POP SWAP3 JUMP JUMPDEST PUSH2 0x1948 DUP2 PUSH2 0x184B JUMP JUMPDEST DUP3 MSTORE POP POP JUMP JUMPDEST PUSH1 0x0 PUSH1 0x20 DUP3 ADD SWAP1 POP PUSH2 0x1963 PUSH1 0x0 DUP4 ADD DUP5 PUSH2 0x193F JUMP JUMPDEST SWAP3 SWAP2 POP POP JUMP JUMPDEST PUSH1 0x0 PUSH1 0x20 DUP3 DUP5 SUB SLT ISZERO PUSH2 0x197F JUMPI PUSH2 0x197E PUSH2 0x1821 JUMP JUMPDEST JUMPDEST PUSH1 0x0 PUSH2 0x198D DUP5 DUP3 DUP6 ADD PUSH2 0x18D7 JUMP JUMPDEST SWAP2 POP POP SWAP3 SWAP2 POP POP JUMP JUMPDEST PUSH1 0x0 DUP1 REVERT JUMPDEST PUSH1 0x0 DUP1 REVERT JUMPDEST PUSH1 0x0 DUP1 REVERT JUMPDEST PUSH1 0x0 DUP1 DUP4 PUSH1 0x1F DUP5 ADD SLT PUSH2 0x19BB JUMPI PUSH2 0x19BA PUSH2 0x1996 JUMP JUMPDEST JUMPDEST DUP3 CALLDATALOAD SWAP1 POP PUSH8 0xFFFFFFFFFFFFFFFF DUP2 GT ISZERO PUSH2 0x19D8 JUMPI PUSH2 0x19D7 PUSH2 0x199B JUMP JUMPDEST JUMPDEST PUSH1 0x20 DUP4 ADD SWAP2 POP DUP4 PUSH1 0x20 DUP3 MUL DUP4 ADD GT ISZERO PUSH2 0x19F4 JUMPI PUSH2 0x19F3 PUSH2 0x19A0 JUMP JUMPDEST JUMPDEST SWAP3 POP SWAP3 SWAP1 POP JUMP JUMPDEST PUSH1 0x0 DUP1 PUSH1 0x20 DUP4 DUP6 SUB SLT ISZERO PUSH2 0x1A12 JUMPI PUSH2 0x1A11 PUSH2 0x1821 JUMP JUMPDEST JUMPDEST PUSH1 0x0 DUP4 ADD CALLDATALOAD PUSH8 0xFFFFFFFFFFFFFFFF DUP2 GT ISZERO PUSH2 0x1A30 JUMPI PUSH2 0x1A2F PUSH2 0x1826 JUMP JUMPDEST JUMPDEST PUSH2 0x1A3C DUP6 DUP3 DUP7 ADD PUSH2 0x19A5 JUMP JUMPDEST SWAP3 POP SWAP3 POP POP SWAP3 POP SWAP3 SWAP1 POP JUMP JUMPDEST PUSH1 0x0 DUP2 MLOAD SWAP1 POP SWAP2 SWAP1 POP JUMP JUMPDEST PUSH1 0x0 DUP3 DUP3 MSTORE PUSH1 0x20 DUP3 ADD SWAP1 POP SWAP3 SWAP2 POP POP JUMP JUMPDEST PUSH1 0x0 DUP2 SWAP1 POP PUSH1 0x20 DUP3 ADD SWAP1 POP SWAP2 SWAP1 POP JUMP JUMPDEST PUSH2 0x1A7D DUP2 PUSH2 0x184B JUMP JUMPDEST DUP3 MSTORE POP POP JUMP JUMPDEST PUSH1 0x0 PUSH2 0x1A8F DUP4 DUP4 PUSH2 0x1A74 JUMP JUMPDEST PUSH1 0x20 DUP4 ADD SWAP1 POP SWAP3 SWAP2 POP POP JUMP JUMPDEST PUSH1 0x0 PUSH1 0x20 DUP3 ADD SWAP1 POP SWAP2 SWAP1 POP JUMP JUMPDEST PUSH1 0x0 PUSH2 0x1AB3 DUP3 PUSH2 0x1A48 JUMP JUMPDEST PUSH2 0x1ABD DUP2 DUP6 PUSH2 0x1A53 JUMP JUMPDEST SWAP4 POP PUSH2 0x1AC8 DUP4 PUSH2 0x1A64 JUMP JUMPDEST DUP1 PUSH1 0x0 JUMPDEST DUP4 DUP2 LT ISZERO PUSH2 0x1AF9 JUMPI DUP2 MLOAD PUSH2 0x1AE0 DUP9 DUP3 PUSH2 0x1A83 JUMP JUMPDEST SWAP8 POP PUSH2 0x1AEB DUP4 PUSH2 0x1A9B JUMP JUMPDEST SWAP3 POP POP PUSH1 0x1 DUP2 ADD SWAP1 POP PUSH2 0x1ACC JUMP JUMPDEST POP DUP6 SWAP4 POP POP POP POP SWAP3 SWAP2 POP POP JUMP JUMPDEST PUSH1 0x0 PUSH1 0x20 DUP3 ADD SWAP1 POP DUP2 DUP2 SUB PUSH1 0x0 DUP4 ADD MSTORE PUSH2 0x1B20 DUP2 DUP5 PUSH2 0x1AA8 JUMP JUMPDEST SWAP1 POP SWAP3 SWAP2 POP POP JUMP JUMPDEST PUSH32 0x4E487B7100000000000000000000000000000000000000000000000000000000 PUSH1 0x0 MSTORE PUSH1 0x11 PUSH1 0x4 MSTORE PUSH1 0x24 PUSH1 0x0 REVERT JUMPDEST PUSH1 0x0 PUSH2 0x1B62 DUP3 PUSH2 0x18B6 JUMP JUMPDEST SWAP2 POP PUSH1 0x0 DUP3 SUB PUSH2 0x1B75 JUMPI PUSH2 0x1B74 PUSH2 0x1B28 JUMP JUMPDEST JUMPDEST PUSH1 0x1 DUP3 SUB SWAP1 POP SWAP2 SWAP1 POP JUMP JUMPDEST PUSH1 0x0 PUSH2 0x1B8B DUP3 PUSH2 0x18B6 JUMP JUMPDEST SWAP2 POP PUSH32 0xFFFFFFFFFFFFFFFFFFFFFFFFFFFFFFFFFFFFFFFFFFFFFFFFFFFFFFFFFFFFFFFF DUP3 SUB PUSH2 0x1BBD JUMPI PUSH2 0x1BBC PUSH2 0x1B28 JUMP JUMPDEST JUMPDEST PUSH1 0x1 DUP3 ADD SWAP1 POP SWAP2 SWAP1 POP JUMP JUMPDEST PUSH1 0x0 DUP2 MLOAD SWAP1 POP PUSH2 0x1BD7 DUP2 PUSH2 0x18C0 JUMP JUMPDEST SWAP3 SWAP2 POP POP JUMP JUMPDEST PUSH1 0x0 PUSH1 0x20 DUP3 DUP5 SUB SLT ISZERO PUSH2 0x1BF3 JUMPI PUSH2 0x1BF2 PUSH2 0x1821 JUMP JUMPDEST JUMPDEST PUSH1 0x0 PUSH2 0x1C01 DUP5 DUP3 DUP6 ADD PUSH2 0x1BC8 JUMP JUMPDEST SWAP2 POP POP SWAP3 SWAP2 POP POP JUMP JUMPDEST PUSH32 0x4E487B7100000000000000000000000000000000000000000000000000000000 PUSH1 0x0 MSTORE PUSH1 0x41 PUSH1 0x4 MSTORE PUSH1 0x24 PUSH1 0x0 REVERT JUMPDEST PUSH32 0x4E487B7100000000000000000000000000000000000000000000000000000000 PUSH1 0x0 MSTORE PUSH1 0x32 PUSH1 0x4 MSTORE PUSH1 0x24 PUSH1 0x0 REVERT INVALID LOG2 PUSH5 0x6970667358 0x22 SLT KECCAK256 0x5E DUP5 AND SWAP9 0xE1 0xB1 0xBB PUSH20 0xA0CEEA2BB95B41313D98F697CDD78DFAADBB421D 0xCC SIGNEXTEND 0xE0 SELFBALANCE PUSH5 0x736F6C6343 STOP ADDMOD SLT STOP CALLER "
				},
				"gasEstimates": {
					"creation": {
						"codeDepositCost": "1465200",
						"executionCost": "infinite",
						"totalCost": "infinite"
					},
					"external": {
						"ZERO_ADDRESS()": "2559",
						"getFront(address)": "infinite",
						"getNewNodeFront(uint256)": "infinite",
						"getNext(address)": "infinite",
						"getNodes(uint256[])": "infinite",
						"increate(address,uint256,address)": "infinite",
						"remove(address)": "117736",
						"update(address,uint256,address)": "infinite"
					},
					"internal": {
						"_increate(address,uint256,address)": "infinite",
						"_remove(address)": "57671"
					}
				},
				"methodIdentifiers": {
					"ZERO_ADDRESS()": "538ba4f9",
					"getFront(address)": "55da9813",
					"getNewNodeFront(uint256)": "819e3503",
					"getNext(address)": "765e0159",
					"getNodes(uint256[])": "a5541c84",
					"increate(address,uint256,address)": "8f52d408",
					"remove(address)": "29092d0e",
					"update(address,uint256,address)": "501a5162"
				}
			},
			"storageLayout": {
				"storage": [
					{
						"astId": 15,
						"contract": "vinci-protocol-private/contracts/linkedList.sol:LinkedList",
						"label": "balanceReader",
						"offset": 0,
						"slot": "0",
						"type": "t_contract(BalanceReader)9"
					},
					{
						"astId": 40,
						"contract": "vinci-protocol-private/contracts/linkedList.sol:LinkedList",
						"label": "ZERO_ADDRESS",
						"offset": 0,
						"slot": "1",
						"type": "t_address"
					},
					{
						"astId": 43,
						"contract": "vinci-protocol-private/contracts/linkedList.sol:LinkedList",
						"label": "length",
						"offset": 0,
						"slot": "2",
						"type": "t_uint256"
					},
					{
						"astId": 62,
						"contract": "vinci-protocol-private/contracts/linkedList.sol:LinkedList",
						"label": "nodeTable",
						"offset": 0,
						"slot": "3",
						"type": "t_mapping(t_address,t_struct(Node)34_storage)"
					}
				],
				"types": {
					"t_address": {
						"encoding": "inplace",
						"label": "address",
						"numberOfBytes": "20"
					},
					"t_contract(BalanceReader)9": {
						"encoding": "inplace",
						"label": "contract BalanceReader",
						"numberOfBytes": "20"
					},
					"t_mapping(t_address,t_struct(Node)34_storage)": {
						"encoding": "mapping",
						"key": "t_address",
						"label": "mapping(address => struct LinkedList.Node)",
						"numberOfBytes": "32",
						"value": "t_struct(Node)34_storage"
					},
					"t_struct(Node)34_storage": {
						"encoding": "inplace",
						"label": "struct LinkedList.Node",
						"members": [
							{
								"astId": 29,
								"contract": "vinci-protocol-private/contracts/linkedList.sol:LinkedList",
								"label": "current",
								"offset": 0,
								"slot": "0",
								"type": "t_address"
							},
							{
								"astId": 31,
								"contract": "vinci-protocol-private/contracts/linkedList.sol:LinkedList",
								"label": "front",
								"offset": 0,
								"slot": "1",
								"type": "t_address"
							},
							{
								"astId": 33,
								"contract": "vinci-protocol-private/contracts/linkedList.sol:LinkedList",
								"label": "next",
								"offset": 0,
								"slot": "2",
								"type": "t_address"
							}
						],
						"numberOfBytes": "96"
					},
					"t_uint256": {
						"encoding": "inplace",
						"label": "uint256",
						"numberOfBytes": "32"
					}
				}
			},
			"userdoc": {
				"kind": "user",
				"methods": {},
				"version": 1
			}
		}
	}
}