{
	"vinci-protocol/contracts/NftAuction.sol": {
		"NFTMarket": {
			"abi": [
				{
					"anonymous": false,
					"inputs": [
						{
							"indexed": true,
							"internalType": "uint256",
							"name": "listingId",
							"type": "uint256"
						},
						{
							"indexed": false,
							"internalType": "address",
							"name": "nftAddress",
							"type": "address"
						},
						{
							"indexed": false,
							"internalType": "uint256",
							"name": "tokenId",
							"type": "uint256"
						},
						{
							"indexed": false,
							"internalType": "uint256",
							"name": "bidPrice",
							"type": "uint256"
						},
						{
							"indexed": false,
							"internalType": "address",
							"name": "bidder",
							"type": "address"
						}
					],
					"name": "Bid",
					"type": "event"
				},
				{
					"anonymous": false,
					"inputs": [
						{
							"indexed": true,
							"internalType": "uint256",
							"name": "listingId",
							"type": "uint256"
						},
						{
							"indexed": false,
							"internalType": "address",
							"name": "nftAddress",
							"type": "address"
						},
						{
							"indexed": false,
							"internalType": "uint256",
							"name": "tokenId",
							"type": "uint256"
						},
						{
							"indexed": false,
							"internalType": "address",
							"name": "seller",
							"type": "address"
						}
					],
					"name": "ListingCanceled",
					"type": "event"
				},
				{
					"anonymous": false,
					"inputs": [
						{
							"indexed": true,
							"internalType": "uint256",
							"name": "listingId",
							"type": "uint256"
						},
						{
							"indexed": false,
							"internalType": "address",
							"name": "nftAddress",
							"type": "address"
						},
						{
							"indexed": false,
							"internalType": "uint256",
							"name": "tokenId",
							"type": "uint256"
						},
						{
							"indexed": false,
							"internalType": "uint256",
							"name": "createTime",
							"type": "uint256"
						},
						{
							"indexed": false,
							"internalType": "uint256",
							"name": "endTime",
							"type": "uint256"
						},
						{
							"indexed": false,
							"internalType": "address",
							"name": "seller",
							"type": "address"
						},
						{
							"indexed": false,
							"internalType": "uint256",
							"name": "price",
							"type": "uint256"
						}
					],
					"name": "ListingCreated",
					"type": "event"
				},
				{
					"anonymous": false,
					"inputs": [
						{
							"indexed": true,
							"internalType": "uint256",
							"name": "listingId",
							"type": "uint256"
						},
						{
							"indexed": false,
							"internalType": "address",
							"name": "nftAddress",
							"type": "address"
						},
						{
							"indexed": false,
							"internalType": "uint256",
							"name": "tokenId",
							"type": "uint256"
						},
						{
							"indexed": false,
							"internalType": "address",
							"name": "seller",
							"type": "address"
						},
						{
							"indexed": false,
							"internalType": "address",
							"name": "buyer",
							"type": "address"
						},
						{
							"indexed": false,
							"internalType": "uint256",
							"name": "price",
							"type": "uint256"
						}
					],
					"name": "NftSold",
					"type": "event"
				},
				{
					"anonymous": false,
					"inputs": [
						{
							"indexed": true,
							"internalType": "uint256",
							"name": "listingId",
							"type": "uint256"
						},
						{
							"indexed": false,
							"internalType": "address",
							"name": "nftAddress",
							"type": "address"
						},
						{
							"indexed": false,
							"internalType": "uint256",
							"name": "tokenId",
							"type": "uint256"
						},
						{
							"indexed": false,
							"internalType": "uint256",
							"name": "price",
							"type": "uint256"
						}
					],
					"name": "Unsold",
					"type": "event"
				},
				{
					"inputs": [
						{
							"internalType": "uint256",
							"name": "",
							"type": "uint256"
						}
					],
					"name": "Nodes",
					"outputs": [
						{
							"internalType": "uint256",
							"name": "current",
							"type": "uint256"
						},
						{
							"internalType": "uint256",
							"name": "front",
							"type": "uint256"
						},
						{
							"internalType": "uint256",
							"name": "next",
							"type": "uint256"
						},
						{
							"internalType": "uint256",
							"name": "createTime",
							"type": "uint256"
						}
					],
					"stateMutability": "view",
					"type": "function"
				},
				{
					"inputs": [],
					"name": "VicAddress",
					"outputs": [
						{
							"internalType": "address",
							"name": "",
							"type": "address"
						}
					],
					"stateMutability": "view",
					"type": "function"
				},
				{
					"inputs": [
						{
							"internalType": "uint256",
							"name": "_listingId",
							"type": "uint256"
						},
						{
							"internalType": "uint256",
							"name": "_price",
							"type": "uint256"
						}
					],
					"name": "bid",
					"outputs": [],
					"stateMutability": "nonpayable",
					"type": "function"
				},
				{
					"inputs": [
						{
							"internalType": "uint256",
							"name": "_listingId",
							"type": "uint256"
						},
						{
							"internalType": "uint256",
							"name": "_price",
							"type": "uint256"
						}
					],
					"name": "buyNFT",
					"outputs": [],
					"stateMutability": "nonpayable",
					"type": "function"
				},
				{
					"inputs": [
						{
							"internalType": "uint256",
							"name": "_listingId",
							"type": "uint256"
						}
					],
					"name": "cancelListing",
					"outputs": [],
					"stateMutability": "nonpayable",
					"type": "function"
				},
				{
					"inputs": [
						{
							"internalType": "address",
							"name": "_nftAddress",
							"type": "address"
						},
						{
							"internalType": "uint256",
							"name": "_tokenId",
							"type": "uint256"
						},
						{
							"internalType": "uint256",
							"name": "_price",
							"type": "uint256"
						}
					],
					"name": "createListing",
					"outputs": [],
					"stateMutability": "nonpayable",
					"type": "function"
				},
				{
					"inputs": [
						{
							"internalType": "uint256",
							"name": "_listingId",
							"type": "uint256"
						}
					],
					"name": "endAuction",
					"outputs": [],
					"stateMutability": "nonpayable",
					"type": "function"
				},
				{
					"inputs": [],
					"name": "getExpiredListingWithoutBid",
					"outputs": [
						{
							"internalType": "uint256",
							"name": "",
							"type": "uint256"
						}
					],
					"stateMutability": "view",
					"type": "function"
				},
				{
					"inputs": [],
					"name": "listingIdCounter",
					"outputs": [
						{
							"internalType": "uint256",
							"name": "",
							"type": "uint256"
						}
					],
					"stateMutability": "view",
					"type": "function"
				},
				{
					"inputs": [
						{
							"internalType": "uint256",
							"name": "",
							"type": "uint256"
						}
					],
					"name": "listings",
					"outputs": [
						{
							"internalType": "address",
							"name": "nftAddress",
							"type": "address"
						},
						{
							"internalType": "uint256",
							"name": "id",
							"type": "uint256"
						},
						{
							"internalType": "uint256",
							"name": "tokenId",
							"type": "uint256"
						},
						{
							"internalType": "address",
							"name": "seller",
							"type": "address"
						},
						{
							"internalType": "uint256",
							"name": "price",
							"type": "uint256"
						},
						{
							"internalType": "uint256",
							"name": "starttimestamp",
							"type": "uint256"
						},
						{
							"internalType": "uint256",
							"name": "endTimestamp",
							"type": "uint256"
						},
						{
							"internalType": "address",
							"name": "highestBidder",
							"type": "address"
						},
						{
							"internalType": "uint256",
							"name": "highestBidPrice",
							"type": "uint256"
						}
					],
					"stateMutability": "view",
					"type": "function"
				},
				{
					"inputs": [
						{
							"internalType": "uint256",
							"name": "_listingId",
							"type": "uint256"
						}
					],
					"name": "unsold",
					"outputs": [],
					"stateMutability": "nonpayable",
					"type": "function"
				},
				{
					"inputs": [],
					"name": "vicDAO",
					"outputs": [
						{
							"internalType": "address",
							"name": "",
							"type": "address"
						}
					],
					"stateMutability": "view",
					"type": "function"
				},
				{
					"inputs": [],
					"name": "withdraw",
					"outputs": [],
					"stateMutability": "nonpayable",
					"type": "function"
				}
			],
			"devdoc": {
				"kind": "dev",
				"methods": {},
				"version": 1
			},
			"evm": {
				"assembly": "    /* \"vinci-protocol/contracts/NftAuction.sol\":180:7293  contract NFTMarket {... */\n  mstore(0x40, 0x80)\n  callvalue\n  dup1\n  iszero\n  tag_1\n  jumpi\n  0x00\n  dup1\n  revert\ntag_1:\n  pop\n  dataSize(sub_0)\n  dup1\n  dataOffset(sub_0)\n  0x00\n  codecopy\n  0x00\n  return\nstop\n\nsub_0: assembly {\n        /* \"vinci-protocol/contracts/NftAuction.sol\":180:7293  contract NFTMarket {... */\n      mstore(0x40, 0x80)\n      callvalue\n      dup1\n      iszero\n      tag_1\n      jumpi\n      0x00\n      dup1\n      revert\n    tag_1:\n      pop\n      jumpi(tag_2, lt(calldatasize, 0x04))\n      shr(0xe0, calldataload(0x00))\n      dup1\n      0x9f4d5628\n      gt\n      tag_16\n      jumpi\n      dup1\n      0xb9a2de3a\n      gt\n      tag_17\n      jumpi\n      dup1\n      0xb9a2de3a\n      eq\n      tag_12\n      jumpi\n      dup1\n      0xde74e57b\n      eq\n      tag_13\n      jumpi\n      dup1\n      0xe770523b\n      eq\n      tag_14\n      jumpi\n      dup1\n      0xf0b5f671\n      eq\n      tag_15\n      jumpi\n      jump(tag_2)\n    tag_17:\n      dup1\n      0x9f4d5628\n      eq\n      tag_9\n      jumpi\n      dup1\n      0xa279f74a\n      eq\n      tag_10\n      jumpi\n      dup1\n      0xa83733a4\n      eq\n      tag_11\n      jumpi\n      jump(tag_2)\n    tag_16:\n      dup1\n      0x1d85bf03\n      eq\n      tag_3\n      jumpi\n      dup1\n      0x231701e9\n      eq\n      tag_4\n      jumpi\n      dup1\n      0x24780c56\n      eq\n      tag_5\n      jumpi\n      dup1\n      0x305a67a8\n      eq\n      tag_6\n      jumpi\n      dup1\n      0x3ccfd60b\n      eq\n      tag_7\n      jumpi\n      dup1\n      0x598647f8\n      eq\n      tag_8\n      jumpi\n    tag_2:\n      0x00\n      dup1\n      revert\n        /* \"vinci-protocol/contracts/NftAuction.sol\":5693:6504  function buyNFT(uint256 _listingId, uint _price) external {... */\n    tag_3:\n      tag_18\n      0x04\n      dup1\n      calldatasize\n      sub\n      dup2\n      add\n      swap1\n      tag_19\n      swap2\n      swap1\n      tag_20\n      jump\t// in\n    tag_19:\n      tag_21\n      jump\t// in\n    tag_18:\n      stop\n        /* \"vinci-protocol/contracts/NftAuction.sol\":899:930  uint256 public listingIdCounter */\n    tag_4:\n      tag_22\n      tag_23\n      jump\t// in\n    tag_22:\n      mload(0x40)\n      tag_24\n      swap2\n      swap1\n      tag_25\n      jump\t// in\n    tag_24:\n      mload(0x40)\n      dup1\n      swap2\n      sub\n      swap1\n      return\n        /* \"vinci-protocol/contracts/NftAuction.sol\":1917:3014  function createListing(... */\n    tag_5:\n      tag_26\n      0x04\n      dup1\n      calldatasize\n      sub\n      dup2\n      add\n      swap1\n      tag_27\n      swap2\n      swap1\n      tag_28\n      jump\t// in\n    tag_27:\n      tag_29\n      jump\t// in\n    tag_26:\n      stop\n        /* \"vinci-protocol/contracts/NftAuction.sol\":3923:4496  function cancelListing(uint256 _listingId) external onlyVicDao {... */\n    tag_6:\n      tag_30\n      0x04\n      dup1\n      calldatasize\n      sub\n      dup2\n      add\n      swap1\n      tag_31\n      swap2\n      swap1\n      tag_32\n      jump\t// in\n    tag_31:\n      tag_33\n      jump\t// in\n    tag_30:\n      stop\n        /* \"vinci-protocol/contracts/NftAuction.sol\":3682:3915  function withdraw() external {... */\n    tag_7:\n      tag_34\n      tag_35\n      jump\t// in\n    tag_34:\n      stop\n        /* \"vinci-protocol/contracts/NftAuction.sol\":3022:3674  function bid(uint256 _listingId, uint256 _price) external {... */\n    tag_8:\n      tag_36\n      0x04\n      dup1\n      calldatasize\n      sub\n      dup2\n      add\n      swap1\n      tag_37\n      swap2\n      swap1\n      tag_20\n      jump\t// in\n    tag_37:\n      tag_38\n      jump\t// in\n    tag_36:\n      stop\n        /* \"vinci-protocol/contracts/NftAuction.sol\":622:643  address public vicDAO */\n    tag_9:\n      tag_39\n      tag_40\n      jump\t// in\n    tag_39:\n      mload(0x40)\n      tag_41\n      swap2\n      swap1\n      tag_42\n      jump\t// in\n    tag_41:\n      mload(0x40)\n      dup1\n      swap2\n      sub\n      swap1\n      return\n        /* \"vinci-protocol/contracts/NftAuction.sol\":6512:6954  function unsold(uint256 _listingId) external {... */\n    tag_10:\n      tag_43\n      0x04\n      dup1\n      calldatasize\n      sub\n      dup2\n      add\n      swap1\n      tag_44\n      swap2\n      swap1\n      tag_32\n      jump\t// in\n    tag_44:\n      tag_45\n      jump\t// in\n    tag_43:\n      stop\n        /* \"vinci-protocol/contracts/NftAuction.sol\":686:723  mapping(uint256 => Node) public Nodes */\n    tag_11:\n      tag_46\n      0x04\n      dup1\n      calldatasize\n      sub\n      dup2\n      add\n      swap1\n      tag_47\n      swap2\n      swap1\n      tag_32\n      jump\t// in\n    tag_47:\n      tag_48\n      jump\t// in\n    tag_46:\n      mload(0x40)\n      tag_49\n      swap5\n      swap4\n      swap3\n      swap2\n      swap1\n      tag_50\n      jump\t// in\n    tag_49:\n      mload(0x40)\n      dup1\n      swap2\n      sub\n      swap1\n      return\n        /* \"vinci-protocol/contracts/NftAuction.sol\":4953:5685  function endAuction(uint256 _listingId) external {... */\n    tag_12:\n      tag_51\n      0x04\n      dup1\n      calldatasize\n      sub\n      dup2\n      add\n      swap1\n      tag_52\n      swap2\n      swap1\n      tag_32\n      jump\t// in\n    tag_52:\n      tag_53\n      jump\t// in\n    tag_51:\n      stop\n        /* \"vinci-protocol/contracts/NftAuction.sol\":732:775  mapping(uint256 => Listing) public listings */\n    tag_13:\n      tag_54\n      0x04\n      dup1\n      calldatasize\n      sub\n      dup2\n      add\n      swap1\n      tag_55\n      swap2\n      swap1\n      tag_32\n      jump\t// in\n    tag_55:\n      tag_56\n      jump\t// in\n    tag_54:\n      mload(0x40)\n      tag_57\n      swap10\n      swap9\n      swap8\n      swap7\n      swap6\n      swap5\n      swap4\n      swap3\n      swap2\n      swap1\n      tag_58\n      jump\t// in\n    tag_57:\n      mload(0x40)\n      dup1\n      swap2\n      sub\n      swap1\n      return\n        /* \"vinci-protocol/contracts/NftAuction.sol\":6962:7290  function getExpiredListingWithoutBid() view external returns (uint) {... */\n    tag_14:\n      tag_59\n      tag_60\n      jump\t// in\n    tag_59:\n      mload(0x40)\n      tag_61\n      swap2\n      swap1\n      tag_25\n      jump\t// in\n    tag_61:\n      mload(0x40)\n      dup1\n      swap2\n      sub\n      swap1\n      return\n        /* \"vinci-protocol/contracts/NftAuction.sol\":652:677  address public VicAddress */\n    tag_15:\n      tag_62\n      tag_63\n      jump\t// in\n    tag_62:\n      mload(0x40)\n      tag_64\n      swap2\n      swap1\n      tag_42\n      jump\t// in\n    tag_64:\n      mload(0x40)\n      dup1\n      swap2\n      sub\n      swap1\n      return\n        /* \"vinci-protocol/contracts/NftAuction.sol\":5693:6504  function buyNFT(uint256 _listingId, uint _price) external {... */\n    tag_21:\n        /* \"vinci-protocol/contracts/NftAuction.sol\":5762:5784  Listing memory listing */\n      0x00\n        /* \"vinci-protocol/contracts/NftAuction.sol\":5787:5795  listings */\n      0x03\n        /* \"vinci-protocol/contracts/NftAuction.sol\":5787:5807  listings[_listingId] */\n      0x00\n        /* \"vinci-protocol/contracts/NftAuction.sol\":5796:5806  _listingId */\n      dup5\n        /* \"vinci-protocol/contracts/NftAuction.sol\":5787:5807  listings[_listingId] */\n      dup2\n      mstore\n      0x20\n      add\n      swap1\n      dup2\n      mstore\n      0x20\n      add\n      0x00\n      keccak256\n        /* \"vinci-protocol/contracts/NftAuction.sol\":5762:5807  Listing memory listing = listings[_listingId] */\n      mload(0x40)\n      dup1\n      0x0120\n      add\n      0x40\n      mstore\n      swap1\n      dup2\n      0x00\n      dup3\n      add\n      0x00\n      swap1\n      sload\n      swap1\n      0x0100\n      exp\n      swap1\n      div\n      0xffffffffffffffffffffffffffffffffffffffff\n      and\n      0xffffffffffffffffffffffffffffffffffffffff\n      and\n      0xffffffffffffffffffffffffffffffffffffffff\n      and\n      dup2\n      mstore\n      0x20\n      add\n      0x01\n      dup3\n      add\n      sload\n      dup2\n      mstore\n      0x20\n      add\n      0x02\n      dup3\n      add\n      sload\n      dup2\n      mstore\n      0x20\n      add\n      0x03\n      dup3\n      add\n      0x00\n      swap1\n      sload\n      swap1\n      0x0100\n      exp\n      swap1\n      div\n      0xffffffffffffffffffffffffffffffffffffffff\n      and\n      0xffffffffffffffffffffffffffffffffffffffff\n      and\n      0xffffffffffffffffffffffffffffffffffffffff\n      and\n      dup2\n      mstore\n      0x20\n      add\n      0x04\n      dup3\n      add\n      sload\n      dup2\n      mstore\n      0x20\n      add\n      0x05\n      dup3\n      add\n      sload\n      dup2\n      mstore\n      0x20\n      add\n      0x06\n      dup3\n      add\n      sload\n      dup2\n      mstore\n      0x20\n      add\n      0x07\n      dup3\n      add\n      0x00\n      swap1\n      sload\n      swap1\n      0x0100\n      exp\n      swap1\n      div\n      0xffffffffffffffffffffffffffffffffffffffff\n      and\n      0xffffffffffffffffffffffffffffffffffffffff\n      and\n      0xffffffffffffffffffffffffffffffffffffffff\n      and\n      dup2\n      mstore\n      0x20\n      add\n      0x08\n      dup3\n      add\n      sload\n      dup2\n      mstore\n      pop\n      pop\n      swap1\n      pop\n        /* \"vinci-protocol/contracts/NftAuction.sol\":5858:5860  10 */\n      0x0a\n        /* \"vinci-protocol/contracts/NftAuction.sol\":5853:5854  9 */\n      0x09\n        /* \"vinci-protocol/contracts/NftAuction.sol\":5837:5844  listing */\n      dup3\n        /* \"vinci-protocol/contracts/NftAuction.sol\":5837:5850  listing.price */\n      0x80\n      add\n      mload\n        /* \"vinci-protocol/contracts/NftAuction.sol\":5837:5854  listing.price * 9 */\n      tag_66\n      swap2\n      swap1\n      tag_67\n      jump\t// in\n    tag_66:\n        /* \"vinci-protocol/contracts/NftAuction.sol\":5836:5860  (listing.price * 9) / 10 */\n      tag_68\n      swap2\n      swap1\n      tag_69\n      jump\t// in\n    tag_68:\n        /* \"vinci-protocol/contracts/NftAuction.sol\":5826:5832  _price */\n      dup3\n        /* \"vinci-protocol/contracts/NftAuction.sol\":5826:5860  _price == (listing.price * 9) / 10 */\n      eq\n        /* \"vinci-protocol/contracts/NftAuction.sol\":5818:5877  require(_price == (listing.price * 9) / 10,\"Invalid price\") */\n      tag_70\n      jumpi\n      mload(0x40)\n      0x08c379a000000000000000000000000000000000000000000000000000000000\n      dup2\n      mstore\n      0x04\n      add\n      tag_71\n      swap1\n      tag_72\n      jump\t// in\n    tag_71:\n      mload(0x40)\n      dup1\n      swap2\n      sub\n      swap1\n      revert\n    tag_70:\n        /* \"vinci-protocol/contracts/NftAuction.sol\":5909:5910  0 */\n      0x00\n        /* \"vinci-protocol/contracts/NftAuction.sol\":5896:5903  listing */\n      dup2\n        /* \"vinci-protocol/contracts/NftAuction.sol\":5896:5906  listing.id */\n      0x20\n      add\n      mload\n        /* \"vinci-protocol/contracts/NftAuction.sol\":5896:5910  listing.id > 0 */\n      gt\n        /* \"vinci-protocol/contracts/NftAuction.sol\":5888:5930  require(listing.id > 0, \"Invalid listing\") */\n      tag_73\n      jumpi\n      mload(0x40)\n      0x08c379a000000000000000000000000000000000000000000000000000000000\n      dup2\n      mstore\n      0x04\n      add\n      tag_74\n      swap1\n      tag_75\n      jump\t// in\n    tag_74:\n      mload(0x40)\n      dup1\n      swap2\n      sub\n      swap1\n      revert\n    tag_73:\n        /* \"vinci-protocol/contracts/NftAuction.sol\":5981:5988  listing */\n      dup1\n        /* \"vinci-protocol/contracts/NftAuction.sol\":5981:6001  listing.endTimestamp */\n      0xc0\n      add\n      mload\n        /* \"vinci-protocol/contracts/NftAuction.sol\":5963:5978  block.timestamp */\n      timestamp\n        /* \"vinci-protocol/contracts/NftAuction.sol\":5963:6001  block.timestamp > listing.endTimestamp */\n      gt\n        /* \"vinci-protocol/contracts/NftAuction.sol\":5963:6071  block.timestamp > listing.endTimestamp &&... */\n      dup1\n      iszero\n      tag_76\n      jumpi\n      pop\n        /* \"vinci-protocol/contracts/NftAuction.sol\":6063:6071  48 hours */\n      0x02a300\n        /* \"vinci-protocol/contracts/NftAuction.sol\":6040:6047  listing */\n      dup2\n        /* \"vinci-protocol/contracts/NftAuction.sol\":6040:6060  listing.endTimestamp */\n      0xc0\n      add\n      mload\n        /* \"vinci-protocol/contracts/NftAuction.sol\":6040:6071  listing.endTimestamp + 48 hours */\n      tag_77\n      swap2\n      swap1\n      tag_78\n      jump\t// in\n    tag_77:\n        /* \"vinci-protocol/contracts/NftAuction.sol\":6022:6037  block.timestamp */\n      timestamp\n        /* \"vinci-protocol/contracts/NftAuction.sol\":6022:6071  block.timestamp < listing.endTimestamp + 48 hours */\n      lt\n        /* \"vinci-protocol/contracts/NftAuction.sol\":5963:6071  block.timestamp > listing.endTimestamp &&... */\n    tag_76:\n        /* \"vinci-protocol/contracts/NftAuction.sol\":5941:6114  require(... */\n      tag_79\n      jumpi\n      mload(0x40)\n      0x08c379a000000000000000000000000000000000000000000000000000000000\n      dup2\n      mstore\n      0x04\n      add\n      tag_80\n      swap1\n      tag_81\n      jump\t// in\n    tag_80:\n      mload(0x40)\n      dup1\n      swap2\n      sub\n      swap1\n      revert\n    tag_79:\n        /* \"vinci-protocol/contracts/NftAuction.sol\":6132:6142  VicAddress */\n      0x01\n      0x00\n      swap1\n      sload\n      swap1\n      0x0100\n      exp\n      swap1\n      div\n      0xffffffffffffffffffffffffffffffffffffffff\n      and\n        /* \"vinci-protocol/contracts/NftAuction.sol\":6125:6152  IERC20(VicAddress).transfer */\n      0xffffffffffffffffffffffffffffffffffffffff\n      and\n      0xa9059cbb\n        /* \"vinci-protocol/contracts/NftAuction.sol\":6153:6160  listing */\n      dup3\n        /* \"vinci-protocol/contracts/NftAuction.sol\":6153:6167  listing.seller */\n      0x60\n      add\n      mload\n        /* \"vinci-protocol/contracts/NftAuction.sol\":6169:6175  _price */\n      dup5\n        /* \"vinci-protocol/contracts/NftAuction.sol\":6125:6176  IERC20(VicAddress).transfer(listing.seller, _price) */\n      mload(0x40)\n      dup4\n      0xffffffff\n      and\n      0xe0\n      shl\n      dup2\n      mstore\n      0x04\n      add\n      tag_82\n      swap3\n      swap2\n      swap1\n      tag_83\n      jump\t// in\n    tag_82:\n      0x20\n      mload(0x40)\n      dup1\n      dup4\n      sub\n      dup2\n      0x00\n      dup8\n      gas\n      call\n      iszero\n      dup1\n      iszero\n      tag_85\n      jumpi\n      returndatasize\n      0x00\n      dup1\n      returndatacopy\n      revert(0x00, returndatasize)\n    tag_85:\n      pop\n      pop\n      pop\n      pop\n      mload(0x40)\n      returndatasize\n      not(0x1f)\n      0x1f\n      dup3\n      add\n      and\n      dup3\n      add\n      dup1\n      0x40\n      mstore\n      pop\n      dup2\n      add\n      swap1\n      tag_86\n      swap2\n      swap1\n      tag_87\n      jump\t// in\n    tag_86:\n      pop\n        /* \"vinci-protocol/contracts/NftAuction.sol\":6195:6202  listing */\n      dup1\n        /* \"vinci-protocol/contracts/NftAuction.sol\":6195:6213  listing.nftAddress */\n      0x00\n      add\n      mload\n        /* \"vinci-protocol/contracts/NftAuction.sol\":6187:6231  IERC721(listing.nftAddress).safeTransferFrom */\n      0xffffffffffffffffffffffffffffffffffffffff\n      and\n      0x42842e0e\n        /* \"vinci-protocol/contracts/NftAuction.sol\":6246:6253  listing */\n      dup3\n        /* \"vinci-protocol/contracts/NftAuction.sol\":6246:6260  listing.seller */\n      0x60\n      add\n      mload\n        /* \"vinci-protocol/contracts/NftAuction.sol\":6275:6285  msg.sender */\n      caller\n        /* \"vinci-protocol/contracts/NftAuction.sol\":6300:6307  listing */\n      dup5\n        /* \"vinci-protocol/contracts/NftAuction.sol\":6300:6315  listing.tokenId */\n      0x40\n      add\n      mload\n        /* \"vinci-protocol/contracts/NftAuction.sol\":6187:6326  IERC721(listing.nftAddress).safeTransferFrom(... */\n      mload(0x40)\n      dup5\n      0xffffffff\n      and\n      0xe0\n      shl\n      dup2\n      mstore\n      0x04\n      add\n      tag_88\n      swap4\n      swap3\n      swap2\n      swap1\n      tag_89\n      jump\t// in\n    tag_88:\n      0x00\n      mload(0x40)\n      dup1\n      dup4\n      sub\n      dup2\n      0x00\n      dup8\n      dup1\n      extcodesize\n      iszero\n      dup1\n      iszero\n      tag_90\n      jumpi\n      0x00\n      dup1\n      revert\n    tag_90:\n      pop\n      gas\n      call\n      iszero\n      dup1\n      iszero\n      tag_92\n      jumpi\n      returndatasize\n      0x00\n      dup1\n      returndatacopy\n      revert(0x00, returndatasize)\n    tag_92:\n      pop\n      pop\n      pop\n      pop\n        /* \"vinci-protocol/contracts/NftAuction.sol\":6337:6349  uint tokenId */\n      0x00\n        /* \"vinci-protocol/contracts/NftAuction.sol\":6352:6359  listing */\n      dup2\n        /* \"vinci-protocol/contracts/NftAuction.sol\":6352:6367  listing.tokenId */\n      0x40\n      add\n      mload\n        /* \"vinci-protocol/contracts/NftAuction.sol\":6337:6367  uint tokenId = listing.tokenId */\n      swap1\n      pop\n        /* \"vinci-protocol/contracts/NftAuction.sol\":6378:6404  _removeListing(_listingId) */\n      tag_93\n        /* \"vinci-protocol/contracts/NftAuction.sol\":6393:6403  _listingId */\n      dup5\n        /* \"vinci-protocol/contracts/NftAuction.sol\":6378:6392  _removeListing */\n      tag_94\n        /* \"vinci-protocol/contracts/NftAuction.sol\":6378:6404  _removeListing(_listingId) */\n      jump\t// in\n    tag_93:\n        /* \"vinci-protocol/contracts/NftAuction.sol\":6428:6438  _listingId */\n      dup4\n        /* \"vinci-protocol/contracts/NftAuction.sol\":6420:6496  NftSold(_listingId, listing.nftAddress, tokenId, vicDAO, msg.sender, _price) */\n      0x3c98c596b11c3fa99a2908d3290a426e0bf64d9418c735d96d8731f3e1bae072\n        /* \"vinci-protocol/contracts/NftAuction.sol\":6440:6447  listing */\n      dup4\n        /* \"vinci-protocol/contracts/NftAuction.sol\":6440:6458  listing.nftAddress */\n      0x00\n      add\n      mload\n        /* \"vinci-protocol/contracts/NftAuction.sol\":6460:6467  tokenId */\n      dup4\n        /* \"vinci-protocol/contracts/NftAuction.sol\":6469:6475  vicDAO */\n      0x00\n      dup1\n      sload\n      swap1\n      0x0100\n      exp\n      swap1\n      div\n      0xffffffffffffffffffffffffffffffffffffffff\n      and\n        /* \"vinci-protocol/contracts/NftAuction.sol\":6477:6487  msg.sender */\n      caller\n        /* \"vinci-protocol/contracts/NftAuction.sol\":6489:6495  _price */\n      dup9\n        /* \"vinci-protocol/contracts/NftAuction.sol\":6420:6496  NftSold(_listingId, listing.nftAddress, tokenId, vicDAO, msg.sender, _price) */\n      mload(0x40)\n      tag_95\n      swap6\n      swap5\n      swap4\n      swap3\n      swap2\n      swap1\n      tag_96\n      jump\t// in\n    tag_95:\n      mload(0x40)\n      dup1\n      swap2\n      sub\n      swap1\n      log2\n        /* \"vinci-protocol/contracts/NftAuction.sol\":5751:6504  {... */\n      pop\n      pop\n        /* \"vinci-protocol/contracts/NftAuction.sol\":5693:6504  function buyNFT(uint256 _listingId, uint _price) external {... */\n      pop\n      pop\n      jump\t// out\n        /* \"vinci-protocol/contracts/NftAuction.sol\":899:930  uint256 public listingIdCounter */\n    tag_23:\n      sload(0x06)\n      dup2\n      jump\t// out\n        /* \"vinci-protocol/contracts/NftAuction.sol\":1917:3014  function createListing(... */\n    tag_29:\n        /* \"vinci-protocol/contracts/NftAuction.sol\":1882:1888  vicDAO */\n      0x00\n      dup1\n      sload\n      swap1\n      0x0100\n      exp\n      swap1\n      div\n      0xffffffffffffffffffffffffffffffffffffffff\n      and\n        /* \"vinci-protocol/contracts/NftAuction.sol\":1868:1888  msg.sender == vicDAO */\n      0xffffffffffffffffffffffffffffffffffffffff\n      and\n        /* \"vinci-protocol/contracts/NftAuction.sol\":1868:1878  msg.sender */\n      caller\n        /* \"vinci-protocol/contracts/NftAuction.sol\":1868:1888  msg.sender == vicDAO */\n      0xffffffffffffffffffffffffffffffffffffffff\n      and\n      eq\n        /* \"vinci-protocol/contracts/NftAuction.sol\":1860:1889  require(msg.sender == vicDAO) */\n      tag_98\n      jumpi\n      0x00\n      dup1\n      revert\n    tag_98:\n        /* \"vinci-protocol/contracts/NftAuction.sol\":2077:2078  0 */\n      0x00\n        /* \"vinci-protocol/contracts/NftAuction.sol\":2068:2074  _price */\n      dup2\n        /* \"vinci-protocol/contracts/NftAuction.sol\":2068:2078  _price > 0 */\n      gt\n        /* \"vinci-protocol/contracts/NftAuction.sol\":2060:2105  require(_price > 0, \"Price must be positive\") */\n      tag_100\n      jumpi\n      mload(0x40)\n      0x08c379a000000000000000000000000000000000000000000000000000000000\n      dup2\n      mstore\n      0x04\n      add\n      tag_101\n      swap1\n      tag_102\n      jump\t// in\n    tag_101:\n      mload(0x40)\n      dup1\n      swap2\n      sub\n      swap1\n      revert\n    tag_100:\n        /* \"vinci-protocol/contracts/NftAuction.sol\":2161:2162  0 */\n      0x00\n        /* \"vinci-protocol/contracts/NftAuction.sol\":2124:2134  nftToIndex */\n      0x04\n        /* \"vinci-protocol/contracts/NftAuction.sol\":2124:2147  nftToIndex[_nftAddress] */\n      0x00\n        /* \"vinci-protocol/contracts/NftAuction.sol\":2135:2146  _nftAddress */\n      dup6\n        /* \"vinci-protocol/contracts/NftAuction.sol\":2124:2147  nftToIndex[_nftAddress] */\n      0xffffffffffffffffffffffffffffffffffffffff\n      and\n      0xffffffffffffffffffffffffffffffffffffffff\n      and\n      dup2\n      mstore\n      0x20\n      add\n      swap1\n      dup2\n      mstore\n      0x20\n      add\n      0x00\n      keccak256\n        /* \"vinci-protocol/contracts/NftAuction.sol\":2124:2157  nftToIndex[_nftAddress][_tokenId] */\n      0x00\n        /* \"vinci-protocol/contracts/NftAuction.sol\":2148:2156  _tokenId */\n      dup5\n        /* \"vinci-protocol/contracts/NftAuction.sol\":2124:2157  nftToIndex[_nftAddress][_tokenId] */\n      dup2\n      mstore\n      0x20\n      add\n      swap1\n      dup2\n      mstore\n      0x20\n      add\n      0x00\n      keccak256\n      sload\n        /* \"vinci-protocol/contracts/NftAuction.sol\":2124:2162  nftToIndex[_nftAddress][_tokenId] == 0 */\n      eq\n        /* \"vinci-protocol/contracts/NftAuction.sol\":2116:2181  require(nftToIndex[_nftAddress][_tokenId] == 0, \"Already listed\") */\n      tag_103\n      jumpi\n      mload(0x40)\n      0x08c379a000000000000000000000000000000000000000000000000000000000\n      dup2\n      mstore\n      0x04\n      add\n      tag_104\n      swap1\n      tag_105\n      jump\t// in\n    tag_104:\n      mload(0x40)\n      dup1\n      swap2\n      sub\n      swap1\n      revert\n    tag_103:\n        /* \"vinci-protocol/contracts/NftAuction.sol\":2200:2211  _nftAddress */\n      dup3\n        /* \"vinci-protocol/contracts/NftAuction.sol\":2192:2220  IERC721(_nftAddress).approve */\n      0xffffffffffffffffffffffffffffffffffffffff\n      and\n      0x095ea7b3\n        /* \"vinci-protocol/contracts/NftAuction.sol\":2229:2233  this */\n      address\n        /* \"vinci-protocol/contracts/NftAuction.sol\":2236:2244  _tokenId */\n      dup5\n        /* \"vinci-protocol/contracts/NftAuction.sol\":2192:2245  IERC721(_nftAddress).approve(address(this), _tokenId) */\n      mload(0x40)\n      dup4\n      0xffffffff\n      and\n      0xe0\n      shl\n      dup2\n      mstore\n      0x04\n      add\n      tag_106\n      swap3\n      swap2\n      swap1\n      tag_83\n      jump\t// in\n    tag_106:\n      0x00\n      mload(0x40)\n      dup1\n      dup4\n      sub\n      dup2\n      0x00\n      dup8\n      dup1\n      extcodesize\n      iszero\n      dup1\n      iszero\n      tag_107\n      jumpi\n      0x00\n      dup1\n      revert\n    tag_107:\n      pop\n      gas\n      call\n      iszero\n      dup1\n      iszero\n      tag_109\n      jumpi\n      returndatasize\n      0x00\n      dup1\n      returndatacopy\n      revert(0x00, returndatasize)\n    tag_109:\n      pop\n      pop\n      pop\n      pop\n        /* \"vinci-protocol/contracts/NftAuction.sol\":2256:2272  listingIdCounter */\n      0x06\n      0x00\n        /* \"vinci-protocol/contracts/NftAuction.sol\":2256:2274  listingIdCounter++ */\n      dup2\n      sload\n      dup1\n      swap3\n      swap2\n      swap1\n      tag_110\n      swap1\n      tag_111\n      jump\t// in\n    tag_110:\n      swap2\n      swap1\n      pop\n      sstore\n      pop\n        /* \"vinci-protocol/contracts/NftAuction.sol\":2293:2310  uint256 timestamp */\n      0x00\n        /* \"vinci-protocol/contracts/NftAuction.sol\":2313:2328  block.timestamp */\n      timestamp\n        /* \"vinci-protocol/contracts/NftAuction.sol\":2293:2328  uint256 timestamp = block.timestamp */\n      swap1\n      pop\n        /* \"vinci-protocol/contracts/NftAuction.sol\":2365:2505  Node(... */\n      mload(0x40)\n      dup1\n      0x80\n      add\n      0x40\n      mstore\n      dup1\n        /* \"vinci-protocol/contracts/NftAuction.sol\":2384:2400  listingIdCounter */\n      sload(0x06)\n        /* \"vinci-protocol/contracts/NftAuction.sol\":2365:2505  Node(... */\n      dup2\n      mstore\n      0x20\n      add\n        /* \"vinci-protocol/contracts/NftAuction.sol\":2434:2435  1 */\n      0x01\n        /* \"vinci-protocol/contracts/NftAuction.sol\":2415:2431  listingIdCounter */\n      sload(0x06)\n        /* \"vinci-protocol/contracts/NftAuction.sol\":2415:2435  listingIdCounter - 1 */\n      tag_112\n      swap2\n      swap1\n      tag_113\n      jump\t// in\n    tag_112:\n        /* \"vinci-protocol/contracts/NftAuction.sol\":2365:2505  Node(... */\n      dup2\n      mstore\n      0x20\n      add\n        /* \"vinci-protocol/contracts/NftAuction.sol\":2469:2470  1 */\n      0x01\n        /* \"vinci-protocol/contracts/NftAuction.sol\":2450:2466  listingIdCounter */\n      sload(0x06)\n        /* \"vinci-protocol/contracts/NftAuction.sol\":2450:2470  listingIdCounter + 1 */\n      tag_114\n      swap2\n      swap1\n      tag_78\n      jump\t// in\n    tag_114:\n        /* \"vinci-protocol/contracts/NftAuction.sol\":2365:2505  Node(... */\n      dup2\n      mstore\n      0x20\n      add\n        /* \"vinci-protocol/contracts/NftAuction.sol\":2485:2494  timestamp */\n      dup3\n        /* \"vinci-protocol/contracts/NftAuction.sol\":2365:2505  Node(... */\n      dup2\n      mstore\n      pop\n        /* \"vinci-protocol/contracts/NftAuction.sol\":2339:2344  Nodes */\n      0x02\n        /* \"vinci-protocol/contracts/NftAuction.sol\":2339:2362  Nodes[listingIdCounter] */\n      0x00\n        /* \"vinci-protocol/contracts/NftAuction.sol\":2345:2361  listingIdCounter */\n      sload(0x06)\n        /* \"vinci-protocol/contracts/NftAuction.sol\":2339:2362  Nodes[listingIdCounter] */\n      dup2\n      mstore\n      0x20\n      add\n      swap1\n      dup2\n      mstore\n      0x20\n      add\n      0x00\n      keccak256\n        /* \"vinci-protocol/contracts/NftAuction.sol\":2339:2505  Nodes[listingIdCounter] = Node(... */\n      0x00\n      dup3\n      add\n      mload\n      dup2\n      0x00\n      add\n      sstore\n      0x20\n      dup3\n      add\n      mload\n      dup2\n      0x01\n      add\n      sstore\n      0x40\n      dup3\n      add\n      mload\n      dup2\n      0x02\n      add\n      sstore\n      0x60\n      dup3\n      add\n      mload\n      dup2\n      0x03\n      add\n      sstore\n      swap1\n      pop\n      pop\n        /* \"vinci-protocol/contracts/NftAuction.sol\":2547:2791  Listing(... */\n      mload(0x40)\n      dup1\n      0x0120\n      add\n      0x40\n      mstore\n      dup1\n        /* \"vinci-protocol/contracts/NftAuction.sol\":2569:2580  _nftAddress */\n      dup6\n        /* \"vinci-protocol/contracts/NftAuction.sol\":2547:2791  Listing(... */\n      0xffffffffffffffffffffffffffffffffffffffff\n      and\n      dup2\n      mstore\n      0x20\n      add\n        /* \"vinci-protocol/contracts/NftAuction.sol\":2595:2611  listingIdCounter */\n      sload(0x06)\n        /* \"vinci-protocol/contracts/NftAuction.sol\":2547:2791  Listing(... */\n      dup2\n      mstore\n      0x20\n      add\n        /* \"vinci-protocol/contracts/NftAuction.sol\":2626:2634  _tokenId */\n      dup5\n        /* \"vinci-protocol/contracts/NftAuction.sol\":2547:2791  Listing(... */\n      dup2\n      mstore\n      0x20\n      add\n        /* \"vinci-protocol/contracts/NftAuction.sol\":2649:2659  msg.sender */\n      caller\n        /* \"vinci-protocol/contracts/NftAuction.sol\":2547:2791  Listing(... */\n      0xffffffffffffffffffffffffffffffffffffffff\n      and\n      dup2\n      mstore\n      0x20\n      add\n        /* \"vinci-protocol/contracts/NftAuction.sol\":2674:2680  _price */\n      dup4\n        /* \"vinci-protocol/contracts/NftAuction.sol\":2547:2791  Listing(... */\n      dup2\n      mstore\n      0x20\n      add\n        /* \"vinci-protocol/contracts/NftAuction.sol\":2695:2704  timestamp */\n      dup3\n        /* \"vinci-protocol/contracts/NftAuction.sol\":2547:2791  Listing(... */\n      dup2\n      mstore\n      0x20\n      add\n        /* \"vinci-protocol/contracts/NftAuction.sol\":2731:2739  48 hours */\n      0x02a300\n        /* \"vinci-protocol/contracts/NftAuction.sol\":2719:2728  timestamp */\n      dup4\n        /* \"vinci-protocol/contracts/NftAuction.sol\":2719:2739  timestamp + 48 hours */\n      tag_115\n      swap2\n      swap1\n      tag_78\n      jump\t// in\n    tag_115:\n        /* \"vinci-protocol/contracts/NftAuction.sol\":2547:2791  Listing(... */\n      dup2\n      mstore\n      0x20\n      add\n        /* \"vinci-protocol/contracts/NftAuction.sol\":2762:2763  0 */\n      0x00\n        /* \"vinci-protocol/contracts/NftAuction.sol\":2547:2791  Listing(... */\n      0xffffffffffffffffffffffffffffffffffffffff\n      and\n      dup2\n      mstore\n      0x20\n      add\n        /* \"vinci-protocol/contracts/NftAuction.sol\":2779:2780  0 */\n      0x00\n        /* \"vinci-protocol/contracts/NftAuction.sol\":2547:2791  Listing(... */\n      dup2\n      mstore\n      pop\n        /* \"vinci-protocol/contracts/NftAuction.sol\":2518:2526  listings */\n      0x03\n        /* \"vinci-protocol/contracts/NftAuction.sol\":2518:2544  listings[listingIdCounter] */\n      0x00\n        /* \"vinci-protocol/contracts/NftAuction.sol\":2527:2543  listingIdCounter */\n      sload(0x06)\n        /* \"vinci-protocol/contracts/NftAuction.sol\":2518:2544  listings[listingIdCounter] */\n      dup2\n      mstore\n      0x20\n      add\n      swap1\n      dup2\n      mstore\n      0x20\n      add\n      0x00\n      keccak256\n        /* \"vinci-protocol/contracts/NftAuction.sol\":2518:2791  listings[listingIdCounter] = Listing(... */\n      0x00\n      dup3\n      add\n      mload\n      dup2\n      0x00\n      add\n      exp(0x0100, 0x00)\n      dup2\n      sload\n      dup2\n      0xffffffffffffffffffffffffffffffffffffffff\n      mul\n      not\n      and\n      swap1\n      dup4\n      0xffffffffffffffffffffffffffffffffffffffff\n      and\n      mul\n      or\n      swap1\n      sstore\n      pop\n      0x20\n      dup3\n      add\n      mload\n      dup2\n      0x01\n      add\n      sstore\n      0x40\n      dup3\n      add\n      mload\n      dup2\n      0x02\n      add\n      sstore\n      0x60\n      dup3\n      add\n      mload\n      dup2\n      0x03\n      add\n      exp(0x0100, 0x00)\n      dup2\n      sload\n      dup2\n      0xffffffffffffffffffffffffffffffffffffffff\n      mul\n      not\n      and\n      swap1\n      dup4\n      0xffffffffffffffffffffffffffffffffffffffff\n      and\n      mul\n      or\n      swap1\n      sstore\n      pop\n      0x80\n      dup3\n      add\n      mload\n      dup2\n      0x04\n      add\n      sstore\n      0xa0\n      dup3\n      add\n      mload\n      dup2\n      0x05\n      add\n      sstore\n      0xc0\n      dup3\n      add\n      mload\n      dup2\n      0x06\n      add\n      sstore\n      0xe0\n      dup3\n      add\n      mload\n      dup2\n      0x07\n      add\n      exp(0x0100, 0x00)\n      dup2\n      sload\n      dup2\n      0xffffffffffffffffffffffffffffffffffffffff\n      mul\n      not\n      and\n      swap1\n      dup4\n      0xffffffffffffffffffffffffffffffffffffffff\n      and\n      mul\n      or\n      swap1\n      sstore\n      pop\n      0x0100\n      dup3\n      add\n      mload\n      dup2\n      0x08\n      add\n      sstore\n      swap1\n      pop\n      pop\n        /* \"vinci-protocol/contracts/NftAuction.sol\":2836:2852  listingIdCounter */\n      sload(0x06)\n        /* \"vinci-protocol/contracts/NftAuction.sol\":2807:3006  ListingCreated(... */\n      0x080d1128d02e035a0df5f38cbee139fe52eb0f3d7c248074c2c9ba328ea0532c\n        /* \"vinci-protocol/contracts/NftAuction.sol\":2867:2878  _nftAddress */\n      dup6\n        /* \"vinci-protocol/contracts/NftAuction.sol\":2893:2901  _tokenId */\n      dup6\n        /* \"vinci-protocol/contracts/NftAuction.sol\":2916:2925  timestamp */\n      dup5\n        /* \"vinci-protocol/contracts/NftAuction.sol\":2940:2949  timestamp */\n      dup6\n        /* \"vinci-protocol/contracts/NftAuction.sol\":2964:2974  msg.sender */\n      caller\n        /* \"vinci-protocol/contracts/NftAuction.sol\":2989:2995  _price */\n      dup9\n        /* \"vinci-protocol/contracts/NftAuction.sol\":2807:3006  ListingCreated(... */\n      mload(0x40)\n      tag_116\n      swap7\n      swap6\n      swap5\n      swap4\n      swap3\n      swap2\n      swap1\n      tag_117\n      jump\t// in\n    tag_116:\n      mload(0x40)\n      dup1\n      swap2\n      sub\n      swap1\n      log2\n        /* \"vinci-protocol/contracts/NftAuction.sol\":2049:3014  {... */\n      pop\n        /* \"vinci-protocol/contracts/NftAuction.sol\":1917:3014  function createListing(... */\n      pop\n      pop\n      pop\n      jump\t// out\n        /* \"vinci-protocol/contracts/NftAuction.sol\":3923:4496  function cancelListing(uint256 _listingId) external onlyVicDao {... */\n    tag_33:\n        /* \"vinci-protocol/contracts/NftAuction.sol\":1882:1888  vicDAO */\n      0x00\n      dup1\n      sload\n      swap1\n      0x0100\n      exp\n      swap1\n      div\n      0xffffffffffffffffffffffffffffffffffffffff\n      and\n        /* \"vinci-protocol/contracts/NftAuction.sol\":1868:1888  msg.sender == vicDAO */\n      0xffffffffffffffffffffffffffffffffffffffff\n      and\n        /* \"vinci-protocol/contracts/NftAuction.sol\":1868:1878  msg.sender */\n      caller\n        /* \"vinci-protocol/contracts/NftAuction.sol\":1868:1888  msg.sender == vicDAO */\n      0xffffffffffffffffffffffffffffffffffffffff\n      and\n      eq\n        /* \"vinci-protocol/contracts/NftAuction.sol\":1860:1889  require(msg.sender == vicDAO) */\n      tag_119\n      jumpi\n      0x00\n      dup1\n      revert\n    tag_119:\n        /* \"vinci-protocol/contracts/NftAuction.sol\":3997:4019  Listing memory listing */\n      0x00\n        /* \"vinci-protocol/contracts/NftAuction.sol\":4022:4030  listings */\n      0x03\n        /* \"vinci-protocol/contracts/NftAuction.sol\":4022:4042  listings[_listingId] */\n      0x00\n        /* \"vinci-protocol/contracts/NftAuction.sol\":4031:4041  _listingId */\n      dup4\n        /* \"vinci-protocol/contracts/NftAuction.sol\":4022:4042  listings[_listingId] */\n      dup2\n      mstore\n      0x20\n      add\n      swap1\n      dup2\n      mstore\n      0x20\n      add\n      0x00\n      keccak256\n        /* \"vinci-protocol/contracts/NftAuction.sol\":3997:4042  Listing memory listing = listings[_listingId] */\n      mload(0x40)\n      dup1\n      0x0120\n      add\n      0x40\n      mstore\n      swap1\n      dup2\n      0x00\n      dup3\n      add\n      0x00\n      swap1\n      sload\n      swap1\n      0x0100\n      exp\n      swap1\n      div\n      0xffffffffffffffffffffffffffffffffffffffff\n      and\n      0xffffffffffffffffffffffffffffffffffffffff\n      and\n      0xffffffffffffffffffffffffffffffffffffffff\n      and\n      dup2\n      mstore\n      0x20\n      add\n      0x01\n      dup3\n      add\n      sload\n      dup2\n      mstore\n      0x20\n      add\n      0x02\n      dup3\n      add\n      sload\n      dup2\n      mstore\n      0x20\n      add\n      0x03\n      dup3\n      add\n      0x00\n      swap1\n      sload\n      swap1\n      0x0100\n      exp\n      swap1\n      div\n      0xffffffffffffffffffffffffffffffffffffffff\n      and\n      0xffffffffffffffffffffffffffffffffffffffff\n      and\n      0xffffffffffffffffffffffffffffffffffffffff\n      and\n      dup2\n      mstore\n      0x20\n      add\n      0x04\n      dup3\n      add\n      sload\n      dup2\n      mstore\n      0x20\n      add\n      0x05\n      dup3\n      add\n      sload\n      dup2\n      mstore\n      0x20\n      add\n      0x06\n      dup3\n      add\n      sload\n      dup2\n      mstore\n      0x20\n      add\n      0x07\n      dup3\n      add\n      0x00\n      swap1\n      sload\n      swap1\n      0x0100\n      exp\n      swap1\n      div\n      0xffffffffffffffffffffffffffffffffffffffff\n      and\n      0xffffffffffffffffffffffffffffffffffffffff\n      and\n      0xffffffffffffffffffffffffffffffffffffffff\n      and\n      dup2\n      mstore\n      0x20\n      add\n      0x08\n      dup3\n      add\n      sload\n      dup2\n      mstore\n      pop\n      pop\n      swap1\n      pop\n        /* \"vinci-protocol/contracts/NftAuction.sol\":4074:4075  0 */\n      0x00\n        /* \"vinci-protocol/contracts/NftAuction.sol\":4061:4068  listing */\n      dup2\n        /* \"vinci-protocol/contracts/NftAuction.sol\":4061:4071  listing.id */\n      0x20\n      add\n      mload\n        /* \"vinci-protocol/contracts/NftAuction.sol\":4061:4075  listing.id > 0 */\n      gt\n        /* \"vinci-protocol/contracts/NftAuction.sol\":4053:4095  require(listing.id > 0, \"Invalid listing\") */\n      tag_121\n      jumpi\n      mload(0x40)\n      0x08c379a000000000000000000000000000000000000000000000000000000000\n      dup2\n      mstore\n      0x04\n      add\n      tag_122\n      swap1\n      tag_75\n      jump\t// in\n    tag_122:\n      mload(0x40)\n      dup1\n      swap2\n      sub\n      swap1\n      revert\n    tag_121:\n        /* \"vinci-protocol/contracts/NftAuction.sol\":4159:4169  msg.sender */\n      caller\n        /* \"vinci-protocol/contracts/NftAuction.sol\":4128:4169  listings[_listingId].seller == msg.sender */\n      0xffffffffffffffffffffffffffffffffffffffff\n      and\n        /* \"vinci-protocol/contracts/NftAuction.sol\":4128:4136  listings */\n      0x03\n        /* \"vinci-protocol/contracts/NftAuction.sol\":4128:4148  listings[_listingId] */\n      0x00\n        /* \"vinci-protocol/contracts/NftAuction.sol\":4137:4147  _listingId */\n      dup5\n        /* \"vinci-protocol/contracts/NftAuction.sol\":4128:4148  listings[_listingId] */\n      dup2\n      mstore\n      0x20\n      add\n      swap1\n      dup2\n      mstore\n      0x20\n      add\n      0x00\n      keccak256\n        /* \"vinci-protocol/contracts/NftAuction.sol\":4128:4155  listings[_listingId].seller */\n      0x03\n      add\n      0x00\n      swap1\n      sload\n      swap1\n      0x0100\n      exp\n      swap1\n      div\n      0xffffffffffffffffffffffffffffffffffffffff\n      and\n        /* \"vinci-protocol/contracts/NftAuction.sol\":4128:4169  listings[_listingId].seller == msg.sender */\n      0xffffffffffffffffffffffffffffffffffffffff\n      and\n      eq\n        /* \"vinci-protocol/contracts/NftAuction.sol\":4106:4218  require(... */\n      tag_123\n      jumpi\n      mload(0x40)\n      0x08c379a000000000000000000000000000000000000000000000000000000000\n      dup2\n      mstore\n      0x04\n      add\n      tag_124\n      swap1\n      tag_125\n      jump\t// in\n    tag_124:\n      mload(0x40)\n      dup1\n      swap2\n      sub\n      swap1\n      revert\n    tag_123:\n        /* \"vinci-protocol/contracts/NftAuction.sol\":4229:4247  address nftAddress */\n      0x00\n        /* \"vinci-protocol/contracts/NftAuction.sol\":4250:4257  listing */\n      dup2\n        /* \"vinci-protocol/contracts/NftAuction.sol\":4250:4268  listing.nftAddress */\n      0x00\n      add\n      mload\n        /* \"vinci-protocol/contracts/NftAuction.sol\":4229:4268  address nftAddress = listing.nftAddress */\n      swap1\n      pop\n        /* \"vinci-protocol/contracts/NftAuction.sol\":4279:4294  uint256 tokenId */\n      0x00\n        /* \"vinci-protocol/contracts/NftAuction.sol\":4297:4304  listing */\n      dup3\n        /* \"vinci-protocol/contracts/NftAuction.sol\":4297:4312  listing.tokenId */\n      0x40\n      add\n      mload\n        /* \"vinci-protocol/contracts/NftAuction.sol\":4279:4312  uint256 tokenId = listing.tokenId */\n      swap1\n      pop\n        /* \"vinci-protocol/contracts/NftAuction.sol\":4323:4349  _removeListing(_listingId) */\n      tag_126\n        /* \"vinci-protocol/contracts/NftAuction.sol\":4338:4348  _listingId */\n      dup5\n        /* \"vinci-protocol/contracts/NftAuction.sol\":4323:4337  _removeListing */\n      tag_94\n        /* \"vinci-protocol/contracts/NftAuction.sol\":4323:4349  _removeListing(_listingId) */\n      jump\t// in\n    tag_126:\n        /* \"vinci-protocol/contracts/NftAuction.sol\":4395:4405  _listingId */\n      dup4\n        /* \"vinci-protocol/contracts/NftAuction.sol\":4365:4488  ListingCanceled(... */\n      0x2735f46c1f6c3eddf164a36ab8a51dfa05510923312e92a4e634e13d9b659078\n        /* \"vinci-protocol/contracts/NftAuction.sol\":4420:4430  nftAddress */\n      dup4\n        /* \"vinci-protocol/contracts/NftAuction.sol\":4445:4452  tokenId */\n      dup4\n        /* \"vinci-protocol/contracts/NftAuction.sol\":4467:4477  msg.sender */\n      caller\n        /* \"vinci-protocol/contracts/NftAuction.sol\":4365:4488  ListingCanceled(... */\n      mload(0x40)\n      tag_127\n      swap4\n      swap3\n      swap2\n      swap1\n      tag_128\n      jump\t// in\n    tag_127:\n      mload(0x40)\n      dup1\n      swap2\n      sub\n      swap1\n      log2\n        /* \"vinci-protocol/contracts/NftAuction.sol\":3986:4496  {... */\n      pop\n      pop\n      pop\n        /* \"vinci-protocol/contracts/NftAuction.sol\":3923:4496  function cancelListing(uint256 _listingId) external onlyVicDao {... */\n      pop\n      jump\t// out\n        /* \"vinci-protocol/contracts/NftAuction.sol\":3682:3915  function withdraw() external {... */\n    tag_35:\n        /* \"vinci-protocol/contracts/NftAuction.sol\":3722:3733  uint amount */\n      0x00\n        /* \"vinci-protocol/contracts/NftAuction.sol\":3736:3750  pendingReturns */\n      0x05\n        /* \"vinci-protocol/contracts/NftAuction.sol\":3736:3762  pendingReturns[msg.sender] */\n      0x00\n        /* \"vinci-protocol/contracts/NftAuction.sol\":3751:3761  msg.sender */\n      caller\n        /* \"vinci-protocol/contracts/NftAuction.sol\":3736:3762  pendingReturns[msg.sender] */\n      0xffffffffffffffffffffffffffffffffffffffff\n      and\n      0xffffffffffffffffffffffffffffffffffffffff\n      and\n      dup2\n      mstore\n      0x20\n      add\n      swap1\n      dup2\n      mstore\n      0x20\n      add\n      0x00\n      keccak256\n      sload\n        /* \"vinci-protocol/contracts/NftAuction.sol\":3722:3762  uint amount = pendingReturns[msg.sender] */\n      swap1\n      pop\n        /* \"vinci-protocol/contracts/NftAuction.sol\":3786:3787  0 */\n      0x00\n        /* \"vinci-protocol/contracts/NftAuction.sol\":3777:3783  amount */\n      dup2\n        /* \"vinci-protocol/contracts/NftAuction.sol\":3777:3787  amount > 0 */\n      gt\n        /* \"vinci-protocol/contracts/NftAuction.sol\":3773:3908  if (amount > 0) {... */\n      iszero\n      tag_130\n      jumpi\n        /* \"vinci-protocol/contracts/NftAuction.sol\":3833:3834  0 */\n      0x00\n        /* \"vinci-protocol/contracts/NftAuction.sol\":3804:3818  pendingReturns */\n      0x05\n        /* \"vinci-protocol/contracts/NftAuction.sol\":3804:3830  pendingReturns[msg.sender] */\n      0x00\n        /* \"vinci-protocol/contracts/NftAuction.sol\":3819:3829  msg.sender */\n      caller\n        /* \"vinci-protocol/contracts/NftAuction.sol\":3804:3830  pendingReturns[msg.sender] */\n      0xffffffffffffffffffffffffffffffffffffffff\n      and\n      0xffffffffffffffffffffffffffffffffffffffff\n      and\n      dup2\n      mstore\n      0x20\n      add\n      swap1\n      dup2\n      mstore\n      0x20\n      add\n      0x00\n      keccak256\n        /* \"vinci-protocol/contracts/NftAuction.sol\":3804:3834  pendingReturns[msg.sender] = 0 */\n      dup2\n      swap1\n      sstore\n      pop\n        /* \"vinci-protocol/contracts/NftAuction.sol\":3856:3866  VicAddress */\n      0x01\n      0x00\n      swap1\n      sload\n      swap1\n      0x0100\n      exp\n      swap1\n      div\n      0xffffffffffffffffffffffffffffffffffffffff\n      and\n        /* \"vinci-protocol/contracts/NftAuction.sol\":3849:3876  IERC20(VicAddress).transfer */\n      0xffffffffffffffffffffffffffffffffffffffff\n      and\n      0xa9059cbb\n        /* \"vinci-protocol/contracts/NftAuction.sol\":3877:3887  msg.sender */\n      caller\n        /* \"vinci-protocol/contracts/NftAuction.sol\":3889:3895  amount */\n      dup4\n        /* \"vinci-protocol/contracts/NftAuction.sol\":3849:3896  IERC20(VicAddress).transfer(msg.sender, amount) */\n      mload(0x40)\n      dup4\n      0xffffffff\n      and\n      0xe0\n      shl\n      dup2\n      mstore\n      0x04\n      add\n      tag_131\n      swap3\n      swap2\n      swap1\n      tag_83\n      jump\t// in\n    tag_131:\n      0x20\n      mload(0x40)\n      dup1\n      dup4\n      sub\n      dup2\n      0x00\n      dup8\n      gas\n      call\n      iszero\n      dup1\n      iszero\n      tag_133\n      jumpi\n      returndatasize\n      0x00\n      dup1\n      returndatacopy\n      revert(0x00, returndatasize)\n    tag_133:\n      pop\n      pop\n      pop\n      pop\n      mload(0x40)\n      returndatasize\n      not(0x1f)\n      0x1f\n      dup3\n      add\n      and\n      dup3\n      add\n      dup1\n      0x40\n      mstore\n      pop\n      dup2\n      add\n      swap1\n      tag_134\n      swap2\n      swap1\n      tag_87\n      jump\t// in\n    tag_134:\n      pop\n        /* \"vinci-protocol/contracts/NftAuction.sol\":3773:3908  if (amount > 0) {... */\n    tag_130:\n        /* \"vinci-protocol/contracts/NftAuction.sol\":3711:3915  {... */\n      pop\n        /* \"vinci-protocol/contracts/NftAuction.sol\":3682:3915  function withdraw() external {... */\n      jump\t// out\n        /* \"vinci-protocol/contracts/NftAuction.sol\":3022:3674  function bid(uint256 _listingId, uint256 _price) external {... */\n    tag_38:\n        /* \"vinci-protocol/contracts/NftAuction.sol\":3091:3114  Listing storage listing */\n      0x00\n        /* \"vinci-protocol/contracts/NftAuction.sol\":3117:3125  listings */\n      0x03\n        /* \"vinci-protocol/contracts/NftAuction.sol\":3117:3137  listings[_listingId] */\n      0x00\n        /* \"vinci-protocol/contracts/NftAuction.sol\":3126:3136  _listingId */\n      dup5\n        /* \"vinci-protocol/contracts/NftAuction.sol\":3117:3137  listings[_listingId] */\n      dup2\n      mstore\n      0x20\n      add\n      swap1\n      dup2\n      mstore\n      0x20\n      add\n      0x00\n      keccak256\n        /* \"vinci-protocol/contracts/NftAuction.sol\":3091:3137  Listing storage listing = listings[_listingId] */\n      swap1\n      pop\n        /* \"vinci-protocol/contracts/NftAuction.sol\":3169:3170  0 */\n      0x00\n        /* \"vinci-protocol/contracts/NftAuction.sol\":3156:3163  listing */\n      dup2\n        /* \"vinci-protocol/contracts/NftAuction.sol\":3156:3166  listing.id */\n      0x01\n      add\n      sload\n        /* \"vinci-protocol/contracts/NftAuction.sol\":3156:3170  listing.id > 0 */\n      gt\n        /* \"vinci-protocol/contracts/NftAuction.sol\":3148:3190  require(listing.id > 0, \"Invalid listing\") */\n      tag_136\n      jumpi\n      mload(0x40)\n      0x08c379a000000000000000000000000000000000000000000000000000000000\n      dup2\n      mstore\n      0x04\n      add\n      tag_137\n      swap1\n      tag_75\n      jump\t// in\n    tag_137:\n      mload(0x40)\n      dup1\n      swap2\n      sub\n      swap1\n      revert\n    tag_136:\n        /* \"vinci-protocol/contracts/NftAuction.sol\":3201:3218  uint256 timestamp */\n      0x00\n        /* \"vinci-protocol/contracts/NftAuction.sol\":3221:3236  block.timestamp */\n      timestamp\n        /* \"vinci-protocol/contracts/NftAuction.sol\":3201:3236  uint256 timestamp = block.timestamp */\n      swap1\n      pop\n        /* \"vinci-protocol/contracts/NftAuction.sol\":3267:3274  listing */\n      dup2\n        /* \"vinci-protocol/contracts/NftAuction.sol\":3267:3287  listing.endTimestamp */\n      0x06\n      add\n      sload\n        /* \"vinci-protocol/contracts/NftAuction.sol\":3255:3264  timestamp */\n      dup2\n        /* \"vinci-protocol/contracts/NftAuction.sol\":3255:3287  timestamp < listing.endTimestamp */\n      lt\n        /* \"vinci-protocol/contracts/NftAuction.sol\":3247:3315  require(timestamp < listing.endTimestamp, \"beyond the auction time\") */\n      tag_138\n      jumpi\n      mload(0x40)\n      0x08c379a000000000000000000000000000000000000000000000000000000000\n      dup2\n      mstore\n      0x04\n      add\n      tag_139\n      swap1\n      tag_140\n      jump\t// in\n    tag_139:\n      mload(0x40)\n      dup1\n      swap2\n      sub\n      swap1\n      revert\n    tag_138:\n        /* \"vinci-protocol/contracts/NftAuction.sol\":3357:3364  listing */\n      dup2\n        /* \"vinci-protocol/contracts/NftAuction.sol\":3357:3380  listing.highestBidPrice */\n      0x08\n      add\n      sload\n        /* \"vinci-protocol/contracts/NftAuction.sol\":3348:3354  _price */\n      dup4\n        /* \"vinci-protocol/contracts/NftAuction.sol\":3348:3380  _price > listing.highestBidPrice */\n      gt\n        /* \"vinci-protocol/contracts/NftAuction.sol\":3326:3443  require(... */\n      tag_141\n      jumpi\n      mload(0x40)\n      0x08c379a000000000000000000000000000000000000000000000000000000000\n      dup2\n      mstore\n      0x04\n      add\n      tag_142\n      swap1\n      tag_143\n      jump\t// in\n    tag_142:\n      mload(0x40)\n      dup1\n      swap2\n      sub\n      swap1\n      revert\n    tag_141:\n        /* \"vinci-protocol/contracts/NftAuction.sol\":3461:3471  VicAddress */\n      0x01\n      0x00\n      swap1\n      sload\n      swap1\n      0x0100\n      exp\n      swap1\n      div\n      0xffffffffffffffffffffffffffffffffffffffff\n      and\n        /* \"vinci-protocol/contracts/NftAuction.sol\":3454:3481  IERC20(VicAddress).transfer */\n      0xffffffffffffffffffffffffffffffffffffffff\n      and\n      0xa9059cbb\n        /* \"vinci-protocol/contracts/NftAuction.sol\":3490:3494  this */\n      address\n        /* \"vinci-protocol/contracts/NftAuction.sol\":3497:3503  _price */\n      dup6\n        /* \"vinci-protocol/contracts/NftAuction.sol\":3454:3504  IERC20(VicAddress).transfer(address(this), _price) */\n      mload(0x40)\n      dup4\n      0xffffffff\n      and\n      0xe0\n      shl\n      dup2\n      mstore\n      0x04\n      add\n      tag_144\n      swap3\n      swap2\n      swap1\n      tag_83\n      jump\t// in\n    tag_144:\n      0x20\n      mload(0x40)\n      dup1\n      dup4\n      sub\n      dup2\n      0x00\n      dup8\n      gas\n      call\n      iszero\n      dup1\n      iszero\n      tag_146\n      jumpi\n      returndatasize\n      0x00\n      dup1\n      returndatacopy\n      revert(0x00, returndatasize)\n    tag_146:\n      pop\n      pop\n      pop\n      pop\n      mload(0x40)\n      returndatasize\n      not(0x1f)\n      0x1f\n      dup3\n      add\n      and\n      dup3\n      add\n      dup1\n      0x40\n      mstore\n      pop\n      dup2\n      add\n      swap1\n      tag_147\n      swap2\n      swap1\n      tag_87\n      jump\t// in\n    tag_147:\n      pop\n        /* \"vinci-protocol/contracts/NftAuction.sol\":3555:3562  listing */\n      dup2\n        /* \"vinci-protocol/contracts/NftAuction.sol\":3555:3578  listing.highestBidPrice */\n      0x08\n      add\n      sload\n        /* \"vinci-protocol/contracts/NftAuction.sol\":3515:3529  pendingReturns */\n      0x05\n        /* \"vinci-protocol/contracts/NftAuction.sol\":3515:3552  pendingReturns[listing.highestBidder] */\n      0x00\n        /* \"vinci-protocol/contracts/NftAuction.sol\":3530:3537  listing */\n      dup5\n        /* \"vinci-protocol/contracts/NftAuction.sol\":3530:3551  listing.highestBidder */\n      0x07\n      add\n      0x00\n      swap1\n      sload\n      swap1\n      0x0100\n      exp\n      swap1\n      div\n      0xffffffffffffffffffffffffffffffffffffffff\n      and\n        /* \"vinci-protocol/contracts/NftAuction.sol\":3515:3552  pendingReturns[listing.highestBidder] */\n      0xffffffffffffffffffffffffffffffffffffffff\n      and\n      0xffffffffffffffffffffffffffffffffffffffff\n      and\n      dup2\n      mstore\n      0x20\n      add\n      swap1\n      dup2\n      mstore\n      0x20\n      add\n      0x00\n      keccak256\n        /* \"vinci-protocol/contracts/NftAuction.sol\":3515:3578  pendingReturns[listing.highestBidder] = listing.highestBidPrice */\n      dup2\n      swap1\n      sstore\n      pop\n        /* \"vinci-protocol/contracts/NftAuction.sol\":3615:3621  _price */\n      dup3\n        /* \"vinci-protocol/contracts/NftAuction.sol\":3589:3596  listing */\n      dup3\n        /* \"vinci-protocol/contracts/NftAuction.sol\":3589:3612  listing.highestBidPrice */\n      0x08\n      add\n        /* \"vinci-protocol/contracts/NftAuction.sol\":3589:3621  listing.highestBidPrice = _price */\n      dup2\n      swap1\n      sstore\n      pop\n        /* \"vinci-protocol/contracts/NftAuction.sol\":3656:3666  msg.sender */\n      caller\n        /* \"vinci-protocol/contracts/NftAuction.sol\":3632:3639  listing */\n      dup3\n        /* \"vinci-protocol/contracts/NftAuction.sol\":3632:3653  listing.highestBidder */\n      0x07\n      add\n      0x00\n        /* \"vinci-protocol/contracts/NftAuction.sol\":3632:3666  listing.highestBidder = msg.sender */\n      0x0100\n      exp\n      dup2\n      sload\n      dup2\n      0xffffffffffffffffffffffffffffffffffffffff\n      mul\n      not\n      and\n      swap1\n      dup4\n      0xffffffffffffffffffffffffffffffffffffffff\n      and\n      mul\n      or\n      swap1\n      sstore\n      pop\n        /* \"vinci-protocol/contracts/NftAuction.sol\":3080:3674  {... */\n      pop\n      pop\n        /* \"vinci-protocol/contracts/NftAuction.sol\":3022:3674  function bid(uint256 _listingId, uint256 _price) external {... */\n      pop\n      pop\n      jump\t// out\n        /* \"vinci-protocol/contracts/NftAuction.sol\":622:643  address public vicDAO */\n    tag_40:\n      0x00\n      dup1\n      sload\n      swap1\n      0x0100\n      exp\n      swap1\n      div\n      0xffffffffffffffffffffffffffffffffffffffff\n      and\n      dup2\n      jump\t// out\n        /* \"vinci-protocol/contracts/NftAuction.sol\":6512:6954  function unsold(uint256 _listingId) external {... */\n    tag_45:\n        /* \"vinci-protocol/contracts/NftAuction.sol\":6568:6590  Listing memory listing */\n      0x00\n        /* \"vinci-protocol/contracts/NftAuction.sol\":6593:6601  listings */\n      0x03\n        /* \"vinci-protocol/contracts/NftAuction.sol\":6593:6613  listings[_listingId] */\n      0x00\n        /* \"vinci-protocol/contracts/NftAuction.sol\":6602:6612  _listingId */\n      dup4\n        /* \"vinci-protocol/contracts/NftAuction.sol\":6593:6613  listings[_listingId] */\n      dup2\n      mstore\n      0x20\n      add\n      swap1\n      dup2\n      mstore\n      0x20\n      add\n      0x00\n      keccak256\n        /* \"vinci-protocol/contracts/NftAuction.sol\":6568:6613  Listing memory listing = listings[_listingId] */\n      mload(0x40)\n      dup1\n      0x0120\n      add\n      0x40\n      mstore\n      swap1\n      dup2\n      0x00\n      dup3\n      add\n      0x00\n      swap1\n      sload\n      swap1\n      0x0100\n      exp\n      swap1\n      div\n      0xffffffffffffffffffffffffffffffffffffffff\n      and\n      0xffffffffffffffffffffffffffffffffffffffff\n      and\n      0xffffffffffffffffffffffffffffffffffffffff\n      and\n      dup2\n      mstore\n      0x20\n      add\n      0x01\n      dup3\n      add\n      sload\n      dup2\n      mstore\n      0x20\n      add\n      0x02\n      dup3\n      add\n      sload\n      dup2\n      mstore\n      0x20\n      add\n      0x03\n      dup3\n      add\n      0x00\n      swap1\n      sload\n      swap1\n      0x0100\n      exp\n      swap1\n      div\n      0xffffffffffffffffffffffffffffffffffffffff\n      and\n      0xffffffffffffffffffffffffffffffffffffffff\n      and\n      0xffffffffffffffffffffffffffffffffffffffff\n      and\n      dup2\n      mstore\n      0x20\n      add\n      0x04\n      dup3\n      add\n      sload\n      dup2\n      mstore\n      0x20\n      add\n      0x05\n      dup3\n      add\n      sload\n      dup2\n      mstore\n      0x20\n      add\n      0x06\n      dup3\n      add\n      sload\n      dup2\n      mstore\n      0x20\n      add\n      0x07\n      dup3\n      add\n      0x00\n      swap1\n      sload\n      swap1\n      0x0100\n      exp\n      swap1\n      div\n      0xffffffffffffffffffffffffffffffffffffffff\n      and\n      0xffffffffffffffffffffffffffffffffffffffff\n      and\n      0xffffffffffffffffffffffffffffffffffffffff\n      and\n      dup2\n      mstore\n      0x20\n      add\n      0x08\n      dup3\n      add\n      sload\n      dup2\n      mstore\n      pop\n      pop\n      swap1\n      pop\n        /* \"vinci-protocol/contracts/NftAuction.sol\":6671:6679  48 hours */\n      0x02a300\n        /* \"vinci-protocol/contracts/NftAuction.sol\":6648:6655  listing */\n      dup2\n        /* \"vinci-protocol/contracts/NftAuction.sol\":6648:6668  listing.endTimestamp */\n      0xc0\n      add\n      mload\n        /* \"vinci-protocol/contracts/NftAuction.sol\":6648:6679  listing.endTimestamp + 48 hours */\n      tag_149\n      swap2\n      swap1\n      tag_78\n      jump\t// in\n    tag_149:\n        /* \"vinci-protocol/contracts/NftAuction.sol\":6632:6647  block.timestamp */\n      timestamp\n        /* \"vinci-protocol/contracts/NftAuction.sol\":6632:6679  block.timestamp>listing.endTimestamp + 48 hours */\n      gt\n        /* \"vinci-protocol/contracts/NftAuction.sol\":6624:6716  require(block.timestamp>listing.endTimestamp + 48 hours,\"the current time cannot be unsold\") */\n      tag_150\n      jumpi\n      mload(0x40)\n      0x08c379a000000000000000000000000000000000000000000000000000000000\n      dup2\n      mstore\n      0x04\n      add\n      tag_151\n      swap1\n      tag_152\n      jump\t// in\n    tag_151:\n      mload(0x40)\n      dup1\n      swap2\n      sub\n      swap1\n      revert\n    tag_150:\n        /* \"vinci-protocol/contracts/NftAuction.sol\":6727:6745  address nftAddress */\n      0x00\n        /* \"vinci-protocol/contracts/NftAuction.sol\":6748:6755  listing */\n      dup2\n        /* \"vinci-protocol/contracts/NftAuction.sol\":6748:6766  listing.nftAddress */\n      0x00\n      add\n      mload\n        /* \"vinci-protocol/contracts/NftAuction.sol\":6727:6766  address nftAddress = listing.nftAddress */\n      swap1\n      pop\n        /* \"vinci-protocol/contracts/NftAuction.sol\":6777:6792  uint256 tokenId */\n      0x00\n        /* \"vinci-protocol/contracts/NftAuction.sol\":6795:6802  listing */\n      dup3\n        /* \"vinci-protocol/contracts/NftAuction.sol\":6795:6810  listing.tokenId */\n      0x40\n      add\n      mload\n        /* \"vinci-protocol/contracts/NftAuction.sol\":6777:6810  uint256 tokenId = listing.tokenId */\n      swap1\n      pop\n        /* \"vinci-protocol/contracts/NftAuction.sol\":6821:6834  uint256 price */\n      0x00\n        /* \"vinci-protocol/contracts/NftAuction.sol\":6837:6844  listing */\n      dup4\n        /* \"vinci-protocol/contracts/NftAuction.sol\":6837:6850  listing.price */\n      0x80\n      add\n      mload\n        /* \"vinci-protocol/contracts/NftAuction.sol\":6821:6850  uint256 price = listing.price */\n      swap1\n      pop\n        /* \"vinci-protocol/contracts/NftAuction.sol\":6861:6887  _removeListing(_listingId) */\n      tag_153\n        /* \"vinci-protocol/contracts/NftAuction.sol\":6876:6886  _listingId */\n      dup6\n        /* \"vinci-protocol/contracts/NftAuction.sol\":6861:6875  _removeListing */\n      tag_94\n        /* \"vinci-protocol/contracts/NftAuction.sol\":6861:6887  _removeListing(_listingId) */\n      jump\t// in\n    tag_153:\n        /* \"vinci-protocol/contracts/NftAuction.sol\":6910:6920  _listingId */\n      dup5\n        /* \"vinci-protocol/contracts/NftAuction.sol\":6903:6946  Unsold(_listingId,nftAddress,tokenId,price) */\n      0xdb197d6a7c06544bfa7bed0df746cd958c5079cfbfa9cecb861b43c6f4e3e8ba\n        /* \"vinci-protocol/contracts/NftAuction.sol\":6921:6931  nftAddress */\n      dup5\n        /* \"vinci-protocol/contracts/NftAuction.sol\":6932:6939  tokenId */\n      dup5\n        /* \"vinci-protocol/contracts/NftAuction.sol\":6940:6945  price */\n      dup5\n        /* \"vinci-protocol/contracts/NftAuction.sol\":6903:6946  Unsold(_listingId,nftAddress,tokenId,price) */\n      mload(0x40)\n      tag_154\n      swap4\n      swap3\n      swap2\n      swap1\n      tag_155\n      jump\t// in\n    tag_154:\n      mload(0x40)\n      dup1\n      swap2\n      sub\n      swap1\n      log2\n        /* \"vinci-protocol/contracts/NftAuction.sol\":6557:6954  {... */\n      pop\n      pop\n      pop\n      pop\n        /* \"vinci-protocol/contracts/NftAuction.sol\":6512:6954  function unsold(uint256 _listingId) external {... */\n      pop\n      jump\t// out\n        /* \"vinci-protocol/contracts/NftAuction.sol\":686:723  mapping(uint256 => Node) public Nodes */\n    tag_48:\n      mstore(0x20, 0x02)\n      dup1\n      0x00\n      mstore\n      keccak256(0x00, 0x40)\n      0x00\n      swap2\n      pop\n      swap1\n      pop\n      dup1\n      0x00\n      add\n      sload\n      swap1\n      dup1\n      0x01\n      add\n      sload\n      swap1\n      dup1\n      0x02\n      add\n      sload\n      swap1\n      dup1\n      0x03\n      add\n      sload\n      swap1\n      pop\n      dup5\n      jump\t// out\n        /* \"vinci-protocol/contracts/NftAuction.sol\":4953:5685  function endAuction(uint256 _listingId) external {... */\n    tag_53:\n        /* \"vinci-protocol/contracts/NftAuction.sol\":5013:5035  Listing memory listing */\n      0x00\n        /* \"vinci-protocol/contracts/NftAuction.sol\":5038:5046  listings */\n      0x03\n        /* \"vinci-protocol/contracts/NftAuction.sol\":5038:5058  listings[_listingId] */\n      0x00\n        /* \"vinci-protocol/contracts/NftAuction.sol\":5047:5057  _listingId */\n      dup4\n        /* \"vinci-protocol/contracts/NftAuction.sol\":5038:5058  listings[_listingId] */\n      dup2\n      mstore\n      0x20\n      add\n      swap1\n      dup2\n      mstore\n      0x20\n      add\n      0x00\n      keccak256\n        /* \"vinci-protocol/contracts/NftAuction.sol\":5013:5058  Listing memory listing = listings[_listingId] */\n      mload(0x40)\n      dup1\n      0x0120\n      add\n      0x40\n      mstore\n      swap1\n      dup2\n      0x00\n      dup3\n      add\n      0x00\n      swap1\n      sload\n      swap1\n      0x0100\n      exp\n      swap1\n      div\n      0xffffffffffffffffffffffffffffffffffffffff\n      and\n      0xffffffffffffffffffffffffffffffffffffffff\n      and\n      0xffffffffffffffffffffffffffffffffffffffff\n      and\n      dup2\n      mstore\n      0x20\n      add\n      0x01\n      dup3\n      add\n      sload\n      dup2\n      mstore\n      0x20\n      add\n      0x02\n      dup3\n      add\n      sload\n      dup2\n      mstore\n      0x20\n      add\n      0x03\n      dup3\n      add\n      0x00\n      swap1\n      sload\n      swap1\n      0x0100\n      exp\n      swap1\n      div\n      0xffffffffffffffffffffffffffffffffffffffff\n      and\n      0xffffffffffffffffffffffffffffffffffffffff\n      and\n      0xffffffffffffffffffffffffffffffffffffffff\n      and\n      dup2\n      mstore\n      0x20\n      add\n      0x04\n      dup3\n      add\n      sload\n      dup2\n      mstore\n      0x20\n      add\n      0x05\n      dup3\n      add\n      sload\n      dup2\n      mstore\n      0x20\n      add\n      0x06\n      dup3\n      add\n      sload\n      dup2\n      mstore\n      0x20\n      add\n      0x07\n      dup3\n      add\n      0x00\n      swap1\n      sload\n      swap1\n      0x0100\n      exp\n      swap1\n      div\n      0xffffffffffffffffffffffffffffffffffffffff\n      and\n      0xffffffffffffffffffffffffffffffffffffffff\n      and\n      0xffffffffffffffffffffffffffffffffffffffff\n      and\n      dup2\n      mstore\n      0x20\n      add\n      0x08\n      dup3\n      add\n      sload\n      dup2\n      mstore\n      pop\n      pop\n      swap1\n      pop\n        /* \"vinci-protocol/contracts/NftAuction.sol\":5095:5102  listing */\n      dup1\n        /* \"vinci-protocol/contracts/NftAuction.sol\":5095:5115  listing.endTimestamp */\n      0xc0\n      add\n      mload\n        /* \"vinci-protocol/contracts/NftAuction.sol\":5077:5092  block.timestamp */\n      timestamp\n        /* \"vinci-protocol/contracts/NftAuction.sol\":5077:5115  block.timestamp > listing.endTimestamp */\n      gt\n        /* \"vinci-protocol/contracts/NftAuction.sol\":5069:5149  require(block.timestamp > listing.endTimestamp,\"Can not finish the auction yet\") */\n      tag_157\n      jumpi\n      mload(0x40)\n      0x08c379a000000000000000000000000000000000000000000000000000000000\n      dup2\n      mstore\n      0x04\n      add\n      tag_158\n      swap1\n      tag_159\n      jump\t// in\n    tag_158:\n      mload(0x40)\n      dup1\n      swap2\n      sub\n      swap1\n      revert\n    tag_157:\n        /* \"vinci-protocol/contracts/NftAuction.sol\":5201:5202  0 */\n      0x00\n        /* \"vinci-protocol/contracts/NftAuction.sol\":5168:5203  listing.highestBidder != address(0) */\n      0xffffffffffffffffffffffffffffffffffffffff\n      and\n        /* \"vinci-protocol/contracts/NftAuction.sol\":5168:5175  listing */\n      dup2\n        /* \"vinci-protocol/contracts/NftAuction.sol\":5168:5189  listing.highestBidder */\n      0xe0\n      add\n      mload\n        /* \"vinci-protocol/contracts/NftAuction.sol\":5168:5203  listing.highestBidder != address(0) */\n      0xffffffffffffffffffffffffffffffffffffffff\n      and\n      sub\n        /* \"vinci-protocol/contracts/NftAuction.sol\":5160:5232  require(listing.highestBidder != address(0),\"there is currently no bid\") */\n      tag_160\n      jumpi\n      mload(0x40)\n      0x08c379a000000000000000000000000000000000000000000000000000000000\n      dup2\n      mstore\n      0x04\n      add\n      tag_161\n      swap1\n      tag_162\n      jump\t// in\n    tag_161:\n      mload(0x40)\n      dup1\n      swap2\n      sub\n      swap1\n      revert\n    tag_160:\n        /* \"vinci-protocol/contracts/NftAuction.sol\":5251:5258  listing */\n      dup1\n        /* \"vinci-protocol/contracts/NftAuction.sol\":5251:5269  listing.nftAddress */\n      0x00\n      add\n      mload\n        /* \"vinci-protocol/contracts/NftAuction.sol\":5243:5287  IERC721(listing.nftAddress).safeTransferFrom */\n      0xffffffffffffffffffffffffffffffffffffffff\n      and\n      0x42842e0e\n        /* \"vinci-protocol/contracts/NftAuction.sol\":5302:5309  listing */\n      dup3\n        /* \"vinci-protocol/contracts/NftAuction.sol\":5302:5316  listing.seller */\n      0x60\n      add\n      mload\n        /* \"vinci-protocol/contracts/NftAuction.sol\":5331:5341  msg.sender */\n      caller\n        /* \"vinci-protocol/contracts/NftAuction.sol\":5356:5363  listing */\n      dup5\n        /* \"vinci-protocol/contracts/NftAuction.sol\":5356:5371  listing.tokenId */\n      0x40\n      add\n      mload\n        /* \"vinci-protocol/contracts/NftAuction.sol\":5243:5382  IERC721(listing.nftAddress).safeTransferFrom(... */\n      mload(0x40)\n      dup5\n      0xffffffff\n      and\n      0xe0\n      shl\n      dup2\n      mstore\n      0x04\n      add\n      tag_163\n      swap4\n      swap3\n      swap2\n      swap1\n      tag_89\n      jump\t// in\n    tag_163:\n      0x00\n      mload(0x40)\n      dup1\n      dup4\n      sub\n      dup2\n      0x00\n      dup8\n      dup1\n      extcodesize\n      iszero\n      dup1\n      iszero\n      tag_164\n      jumpi\n      0x00\n      dup1\n      revert\n    tag_164:\n      pop\n      gas\n      call\n      iszero\n      dup1\n      iszero\n      tag_166\n      jumpi\n      returndatasize\n      0x00\n      dup1\n      returndatacopy\n      revert(0x00, returndatasize)\n    tag_166:\n      pop\n      pop\n      pop\n      pop\n        /* \"vinci-protocol/contracts/NftAuction.sol\":5400:5410  VicAddress */\n      0x01\n      0x00\n      swap1\n      sload\n      swap1\n      0x0100\n      exp\n      swap1\n      div\n      0xffffffffffffffffffffffffffffffffffffffff\n      and\n        /* \"vinci-protocol/contracts/NftAuction.sol\":5393:5420  IERC20(VicAddress).transfer */\n      0xffffffffffffffffffffffffffffffffffffffff\n      and\n      0xa9059cbb\n        /* \"vinci-protocol/contracts/NftAuction.sol\":5421:5428  listing */\n      dup3\n        /* \"vinci-protocol/contracts/NftAuction.sol\":5421:5435  listing.seller */\n      0x60\n      add\n      mload\n        /* \"vinci-protocol/contracts/NftAuction.sol\":5437:5444  listing */\n      dup4\n        /* \"vinci-protocol/contracts/NftAuction.sol\":5437:5460  listing.highestBidPrice */\n      0x0100\n      add\n      mload\n        /* \"vinci-protocol/contracts/NftAuction.sol\":5393:5461  IERC20(VicAddress).transfer(listing.seller, listing.highestBidPrice) */\n      mload(0x40)\n      dup4\n      0xffffffff\n      and\n      0xe0\n      shl\n      dup2\n      mstore\n      0x04\n      add\n      tag_167\n      swap3\n      swap2\n      swap1\n      tag_83\n      jump\t// in\n    tag_167:\n      0x20\n      mload(0x40)\n      dup1\n      dup4\n      sub\n      dup2\n      0x00\n      dup8\n      gas\n      call\n      iszero\n      dup1\n      iszero\n      tag_169\n      jumpi\n      returndatasize\n      0x00\n      dup1\n      returndatacopy\n      revert(0x00, returndatasize)\n    tag_169:\n      pop\n      pop\n      pop\n      pop\n      mload(0x40)\n      returndatasize\n      not(0x1f)\n      0x1f\n      dup3\n      add\n      and\n      dup3\n      add\n      dup1\n      0x40\n      mstore\n      pop\n      dup2\n      add\n      swap1\n      tag_170\n      swap2\n      swap1\n      tag_87\n      jump\t// in\n    tag_170:\n      pop\n        /* \"vinci-protocol/contracts/NftAuction.sol\":5472:5482  uint price */\n      0x00\n        /* \"vinci-protocol/contracts/NftAuction.sol\":5485:5492  listing */\n      dup2\n        /* \"vinci-protocol/contracts/NftAuction.sol\":5485:5508  listing.highestBidPrice */\n      0x0100\n      add\n      mload\n        /* \"vinci-protocol/contracts/NftAuction.sol\":5472:5508  uint price = listing.highestBidPrice */\n      swap1\n      pop\n        /* \"vinci-protocol/contracts/NftAuction.sol\":5519:5531  uint tokenId */\n      0x00\n        /* \"vinci-protocol/contracts/NftAuction.sol\":5534:5541  listing */\n      dup3\n        /* \"vinci-protocol/contracts/NftAuction.sol\":5534:5549  listing.tokenId */\n      0x40\n      add\n      mload\n        /* \"vinci-protocol/contracts/NftAuction.sol\":5519:5549  uint tokenId = listing.tokenId */\n      swap1\n      pop\n        /* \"vinci-protocol/contracts/NftAuction.sol\":5560:5586  _removeListing(_listingId) */\n      tag_171\n        /* \"vinci-protocol/contracts/NftAuction.sol\":5575:5585  _listingId */\n      dup5\n        /* \"vinci-protocol/contracts/NftAuction.sol\":5560:5574  _removeListing */\n      tag_94\n        /* \"vinci-protocol/contracts/NftAuction.sol\":5560:5586  _removeListing(_listingId) */\n      jump\t// in\n    tag_171:\n        /* \"vinci-protocol/contracts/NftAuction.sol\":5610:5620  _listingId */\n      dup4\n        /* \"vinci-protocol/contracts/NftAuction.sol\":5602:5677  NftSold(_listingId, listing.nftAddress, tokenId, vicDAO, msg.sender, price) */\n      0x3c98c596b11c3fa99a2908d3290a426e0bf64d9418c735d96d8731f3e1bae072\n        /* \"vinci-protocol/contracts/NftAuction.sol\":5622:5629  listing */\n      dup5\n        /* \"vinci-protocol/contracts/NftAuction.sol\":5622:5640  listing.nftAddress */\n      0x00\n      add\n      mload\n        /* \"vinci-protocol/contracts/NftAuction.sol\":5642:5649  tokenId */\n      dup4\n        /* \"vinci-protocol/contracts/NftAuction.sol\":5651:5657  vicDAO */\n      0x00\n      dup1\n      sload\n      swap1\n      0x0100\n      exp\n      swap1\n      div\n      0xffffffffffffffffffffffffffffffffffffffff\n      and\n        /* \"vinci-protocol/contracts/NftAuction.sol\":5659:5669  msg.sender */\n      caller\n        /* \"vinci-protocol/contracts/NftAuction.sol\":5671:5676  price */\n      dup8\n        /* \"vinci-protocol/contracts/NftAuction.sol\":5602:5677  NftSold(_listingId, listing.nftAddress, tokenId, vicDAO, msg.sender, price) */\n      mload(0x40)\n      tag_172\n      swap6\n      swap5\n      swap4\n      swap3\n      swap2\n      swap1\n      tag_96\n      jump\t// in\n    tag_172:\n      mload(0x40)\n      dup1\n      swap2\n      sub\n      swap1\n      log2\n        /* \"vinci-protocol/contracts/NftAuction.sol\":5002:5685  {... */\n      pop\n      pop\n      pop\n        /* \"vinci-protocol/contracts/NftAuction.sol\":4953:5685  function endAuction(uint256 _listingId) external {... */\n      pop\n      jump\t// out\n        /* \"vinci-protocol/contracts/NftAuction.sol\":732:775  mapping(uint256 => Listing) public listings */\n    tag_56:\n      mstore(0x20, 0x03)\n      dup1\n      0x00\n      mstore\n      keccak256(0x00, 0x40)\n      0x00\n      swap2\n      pop\n      swap1\n      pop\n      dup1\n      0x00\n      add\n      0x00\n      swap1\n      sload\n      swap1\n      0x0100\n      exp\n      swap1\n      div\n      0xffffffffffffffffffffffffffffffffffffffff\n      and\n      swap1\n      dup1\n      0x01\n      add\n      sload\n      swap1\n      dup1\n      0x02\n      add\n      sload\n      swap1\n      dup1\n      0x03\n      add\n      0x00\n      swap1\n      sload\n      swap1\n      0x0100\n      exp\n      swap1\n      div\n      0xffffffffffffffffffffffffffffffffffffffff\n      and\n      swap1\n      dup1\n      0x04\n      add\n      sload\n      swap1\n      dup1\n      0x05\n      add\n      sload\n      swap1\n      dup1\n      0x06\n      add\n      sload\n      swap1\n      dup1\n      0x07\n      add\n      0x00\n      swap1\n      sload\n      swap1\n      0x0100\n      exp\n      swap1\n      div\n      0xffffffffffffffffffffffffffffffffffffffff\n      and\n      swap1\n      dup1\n      0x08\n      add\n      sload\n      swap1\n      pop\n      dup10\n      jump\t// out\n        /* \"vinci-protocol/contracts/NftAuction.sol\":6962:7290  function getExpiredListingWithoutBid() view external returns (uint) {... */\n    tag_60:\n        /* \"vinci-protocol/contracts/NftAuction.sol\":7024:7028  uint */\n      0x00\n        /* \"vinci-protocol/contracts/NftAuction.sol\":7041:7054  uint256 count */\n      dup1\n        /* \"vinci-protocol/contracts/NftAuction.sol\":7065:7081  uint256 quantity */\n      0x00\n        /* \"vinci-protocol/contracts/NftAuction.sol\":7092:7109  uint256 timestamp */\n      dup1\n        /* \"vinci-protocol/contracts/NftAuction.sol\":7112:7127  block.timestamp */\n      timestamp\n        /* \"vinci-protocol/contracts/NftAuction.sol\":7092:7127  uint256 timestamp = block.timestamp */\n      swap1\n      pop\n        /* \"vinci-protocol/contracts/NftAuction.sol\":7138:7283  while (Nodes[Nodes[count].next].createTime > timestamp + 48 hours) {... */\n    tag_174:\n        /* \"vinci-protocol/contracts/NftAuction.sol\":7195:7203  48 hours */\n      0x02a300\n        /* \"vinci-protocol/contracts/NftAuction.sol\":7183:7192  timestamp */\n      dup2\n        /* \"vinci-protocol/contracts/NftAuction.sol\":7183:7203  timestamp + 48 hours */\n      tag_176\n      swap2\n      swap1\n      tag_78\n      jump\t// in\n    tag_176:\n        /* \"vinci-protocol/contracts/NftAuction.sol\":7145:7150  Nodes */\n      0x02\n        /* \"vinci-protocol/contracts/NftAuction.sol\":7145:7169  Nodes[Nodes[count].next] */\n      0x00\n        /* \"vinci-protocol/contracts/NftAuction.sol\":7151:7156  Nodes */\n      0x02\n        /* \"vinci-protocol/contracts/NftAuction.sol\":7151:7163  Nodes[count] */\n      0x00\n        /* \"vinci-protocol/contracts/NftAuction.sol\":7157:7162  count */\n      dup8\n        /* \"vinci-protocol/contracts/NftAuction.sol\":7151:7163  Nodes[count] */\n      dup2\n      mstore\n      0x20\n      add\n      swap1\n      dup2\n      mstore\n      0x20\n      add\n      0x00\n      keccak256\n        /* \"vinci-protocol/contracts/NftAuction.sol\":7151:7168  Nodes[count].next */\n      0x02\n      add\n      sload\n        /* \"vinci-protocol/contracts/NftAuction.sol\":7145:7169  Nodes[Nodes[count].next] */\n      dup2\n      mstore\n      0x20\n      add\n      swap1\n      dup2\n      mstore\n      0x20\n      add\n      0x00\n      keccak256\n        /* \"vinci-protocol/contracts/NftAuction.sol\":7145:7180  Nodes[Nodes[count].next].createTime */\n      0x03\n      add\n      sload\n        /* \"vinci-protocol/contracts/NftAuction.sol\":7145:7203  Nodes[Nodes[count].next].createTime > timestamp + 48 hours */\n      gt\n        /* \"vinci-protocol/contracts/NftAuction.sol\":7138:7283  while (Nodes[Nodes[count].next].createTime > timestamp + 48 hours) {... */\n      iszero\n      tag_175\n      jumpi\n        /* \"vinci-protocol/contracts/NftAuction.sol\":7220:7231  quantity ++ */\n      dup2\n      dup1\n      tag_177\n      swap1\n      tag_111\n      jump\t// in\n    tag_177:\n      swap3\n      pop\n      pop\n        /* \"vinci-protocol/contracts/NftAuction.sol\":7254:7259  Nodes */\n      0x02\n        /* \"vinci-protocol/contracts/NftAuction.sol\":7254:7266  Nodes[count] */\n      0x00\n        /* \"vinci-protocol/contracts/NftAuction.sol\":7260:7265  count */\n      dup5\n        /* \"vinci-protocol/contracts/NftAuction.sol\":7254:7266  Nodes[count] */\n      dup2\n      mstore\n      0x20\n      add\n      swap1\n      dup2\n      mstore\n      0x20\n      add\n      0x00\n      keccak256\n        /* \"vinci-protocol/contracts/NftAuction.sol\":7254:7271  Nodes[count].next */\n      0x02\n      add\n      sload\n        /* \"vinci-protocol/contracts/NftAuction.sol\":7246:7271  count = Nodes[count].next */\n      swap3\n      pop\n        /* \"vinci-protocol/contracts/NftAuction.sol\":7138:7283  while (Nodes[Nodes[count].next].createTime > timestamp + 48 hours) {... */\n      jump(tag_174)\n    tag_175:\n        /* \"vinci-protocol/contracts/NftAuction.sol\":7030:7290  {... */\n      pop\n      pop\n      pop\n        /* \"vinci-protocol/contracts/NftAuction.sol\":6962:7290  function getExpiredListingWithoutBid() view external returns (uint) {... */\n      swap1\n      jump\t// out\n        /* \"vinci-protocol/contracts/NftAuction.sol\":652:677  address public VicAddress */\n    tag_63:\n      0x01\n      0x00\n      swap1\n      sload\n      swap1\n      0x0100\n      exp\n      swap1\n      div\n      0xffffffffffffffffffffffffffffffffffffffff\n      and\n      dup2\n      jump\t// out\n        /* \"vinci-protocol/contracts/NftAuction.sol\":4504:4945  function _removeListing(uint _listingId) internal{... */\n    tag_94:\n        /* \"vinci-protocol/contracts/NftAuction.sol\":4564:4586  Listing memory listing */\n      0x00\n        /* \"vinci-protocol/contracts/NftAuction.sol\":4589:4597  listings */\n      0x03\n        /* \"vinci-protocol/contracts/NftAuction.sol\":4589:4609  listings[_listingId] */\n      0x00\n        /* \"vinci-protocol/contracts/NftAuction.sol\":4598:4608  _listingId */\n      dup4\n        /* \"vinci-protocol/contracts/NftAuction.sol\":4589:4609  listings[_listingId] */\n      dup2\n      mstore\n      0x20\n      add\n      swap1\n      dup2\n      mstore\n      0x20\n      add\n      0x00\n      keccak256\n        /* \"vinci-protocol/contracts/NftAuction.sol\":4564:4609  Listing memory listing = listings[_listingId] */\n      mload(0x40)\n      dup1\n      0x0120\n      add\n      0x40\n      mstore\n      swap1\n      dup2\n      0x00\n      dup3\n      add\n      0x00\n      swap1\n      sload\n      swap1\n      0x0100\n      exp\n      swap1\n      div\n      0xffffffffffffffffffffffffffffffffffffffff\n      and\n      0xffffffffffffffffffffffffffffffffffffffff\n      and\n      0xffffffffffffffffffffffffffffffffffffffff\n      and\n      dup2\n      mstore\n      0x20\n      add\n      0x01\n      dup3\n      add\n      sload\n      dup2\n      mstore\n      0x20\n      add\n      0x02\n      dup3\n      add\n      sload\n      dup2\n      mstore\n      0x20\n      add\n      0x03\n      dup3\n      add\n      0x00\n      swap1\n      sload\n      swap1\n      0x0100\n      exp\n      swap1\n      div\n      0xffffffffffffffffffffffffffffffffffffffff\n      and\n      0xffffffffffffffffffffffffffffffffffffffff\n      and\n      0xffffffffffffffffffffffffffffffffffffffff\n      and\n      dup2\n      mstore\n      0x20\n      add\n      0x04\n      dup3\n      add\n      sload\n      dup2\n      mstore\n      0x20\n      add\n      0x05\n      dup3\n      add\n      sload\n      dup2\n      mstore\n      0x20\n      add\n      0x06\n      dup3\n      add\n      sload\n      dup2\n      mstore\n      0x20\n      add\n      0x07\n      dup3\n      add\n      0x00\n      swap1\n      sload\n      swap1\n      0x0100\n      exp\n      swap1\n      div\n      0xffffffffffffffffffffffffffffffffffffffff\n      and\n      0xffffffffffffffffffffffffffffffffffffffff\n      and\n      0xffffffffffffffffffffffffffffffffffffffff\n      and\n      dup2\n      mstore\n      0x20\n      add\n      0x08\n      dup3\n      add\n      sload\n      dup2\n      mstore\n      pop\n      pop\n      swap1\n      pop\n        /* \"vinci-protocol/contracts/NftAuction.sol\":4620:4636  Node memory node */\n      0x00\n        /* \"vinci-protocol/contracts/NftAuction.sol\":4639:4644  Nodes */\n      0x02\n        /* \"vinci-protocol/contracts/NftAuction.sol\":4639:4656  Nodes[_listingId] */\n      0x00\n        /* \"vinci-protocol/contracts/NftAuction.sol\":4645:4655  _listingId */\n      dup5\n        /* \"vinci-protocol/contracts/NftAuction.sol\":4639:4656  Nodes[_listingId] */\n      dup2\n      mstore\n      0x20\n      add\n      swap1\n      dup2\n      mstore\n      0x20\n      add\n      0x00\n      keccak256\n        /* \"vinci-protocol/contracts/NftAuction.sol\":4620:4656  Node memory node = Nodes[_listingId] */\n      mload(0x40)\n      dup1\n      0x80\n      add\n      0x40\n      mstore\n      swap1\n      dup2\n      0x00\n      dup3\n      add\n      sload\n      dup2\n      mstore\n      0x20\n      add\n      0x01\n      dup3\n      add\n      sload\n      dup2\n      mstore\n      0x20\n      add\n      0x02\n      dup3\n      add\n      sload\n      dup2\n      mstore\n      0x20\n      add\n      0x03\n      dup3\n      add\n      sload\n      dup2\n      mstore\n      pop\n      pop\n      swap1\n      pop\n        /* \"vinci-protocol/contracts/NftAuction.sol\":4667:4680  uint256 front */\n      0x00\n        /* \"vinci-protocol/contracts/NftAuction.sol\":4683:4687  node */\n      dup2\n        /* \"vinci-protocol/contracts/NftAuction.sol\":4683:4693  node.front */\n      0x20\n      add\n      mload\n        /* \"vinci-protocol/contracts/NftAuction.sol\":4667:4693  uint256 front = node.front */\n      swap1\n      pop\n        /* \"vinci-protocol/contracts/NftAuction.sol\":4704:4716  uint256 next */\n      0x00\n        /* \"vinci-protocol/contracts/NftAuction.sol\":4719:4723  node */\n      dup3\n        /* \"vinci-protocol/contracts/NftAuction.sol\":4719:4728  node.next */\n      0x40\n      add\n      mload\n        /* \"vinci-protocol/contracts/NftAuction.sol\":4704:4728  uint256 next = node.next */\n      swap1\n      pop\n        /* \"vinci-protocol/contracts/NftAuction.sol\":4746:4751  Nodes */\n      0x02\n        /* \"vinci-protocol/contracts/NftAuction.sol\":4746:4763  Nodes[_listingId] */\n      0x00\n        /* \"vinci-protocol/contracts/NftAuction.sol\":4752:4762  _listingId */\n      dup7\n        /* \"vinci-protocol/contracts/NftAuction.sol\":4746:4763  Nodes[_listingId] */\n      dup2\n      mstore\n      0x20\n      add\n      swap1\n      dup2\n      mstore\n      0x20\n      add\n      0x00\n      keccak256\n      0x00\n        /* \"vinci-protocol/contracts/NftAuction.sol\":4739:4763  delete Nodes[_listingId] */\n      dup1\n      dup3\n      add\n      0x00\n      swap1\n      sstore\n      0x01\n      dup3\n      add\n      0x00\n      swap1\n      sstore\n      0x02\n      dup3\n      add\n      0x00\n      swap1\n      sstore\n      0x03\n      dup3\n      add\n      0x00\n      swap1\n      sstore\n      pop\n      pop\n        /* \"vinci-protocol/contracts/NftAuction.sol\":4794:4798  next */\n      dup1\n        /* \"vinci-protocol/contracts/NftAuction.sol\":4774:4779  Nodes */\n      0x02\n        /* \"vinci-protocol/contracts/NftAuction.sol\":4774:4786  Nodes[front] */\n      0x00\n        /* \"vinci-protocol/contracts/NftAuction.sol\":4780:4785  front */\n      dup5\n        /* \"vinci-protocol/contracts/NftAuction.sol\":4774:4786  Nodes[front] */\n      dup2\n      mstore\n      0x20\n      add\n      swap1\n      dup2\n      mstore\n      0x20\n      add\n      0x00\n      keccak256\n        /* \"vinci-protocol/contracts/NftAuction.sol\":4774:4791  Nodes[front].next */\n      0x02\n      add\n        /* \"vinci-protocol/contracts/NftAuction.sol\":4774:4798  Nodes[front].next = next */\n      dup2\n      swap1\n      sstore\n      pop\n        /* \"vinci-protocol/contracts/NftAuction.sol\":4829:4834  front */\n      dup2\n        /* \"vinci-protocol/contracts/NftAuction.sol\":4809:4814  Nodes */\n      0x02\n        /* \"vinci-protocol/contracts/NftAuction.sol\":4809:4820  Nodes[next] */\n      0x00\n        /* \"vinci-protocol/contracts/NftAuction.sol\":4815:4819  next */\n      dup4\n        /* \"vinci-protocol/contracts/NftAuction.sol\":4809:4820  Nodes[next] */\n      dup2\n      mstore\n      0x20\n      add\n      swap1\n      dup2\n      mstore\n      0x20\n      add\n      0x00\n      keccak256\n        /* \"vinci-protocol/contracts/NftAuction.sol\":4809:4826  Nodes[next].front */\n      0x01\n      add\n        /* \"vinci-protocol/contracts/NftAuction.sol\":4809:4834  Nodes[next].front = front */\n      dup2\n      swap1\n      sstore\n      pop\n        /* \"vinci-protocol/contracts/NftAuction.sol\":4852:4862  nftToIndex */\n      0x04\n        /* \"vinci-protocol/contracts/NftAuction.sol\":4852:4882  nftToIndex[listing.nftAddress] */\n      0x00\n        /* \"vinci-protocol/contracts/NftAuction.sol\":4863:4870  listing */\n      dup6\n        /* \"vinci-protocol/contracts/NftAuction.sol\":4863:4881  listing.nftAddress */\n      0x00\n      add\n      mload\n        /* \"vinci-protocol/contracts/NftAuction.sol\":4852:4882  nftToIndex[listing.nftAddress] */\n      0xffffffffffffffffffffffffffffffffffffffff\n      and\n      0xffffffffffffffffffffffffffffffffffffffff\n      and\n      dup2\n      mstore\n      0x20\n      add\n      swap1\n      dup2\n      mstore\n      0x20\n      add\n      0x00\n      keccak256\n        /* \"vinci-protocol/contracts/NftAuction.sol\":4852:4899  nftToIndex[listing.nftAddress][listing.tokenId] */\n      0x00\n        /* \"vinci-protocol/contracts/NftAuction.sol\":4883:4890  listing */\n      dup6\n        /* \"vinci-protocol/contracts/NftAuction.sol\":4883:4898  listing.tokenId */\n      0x40\n      add\n      mload\n        /* \"vinci-protocol/contracts/NftAuction.sol\":4852:4899  nftToIndex[listing.nftAddress][listing.tokenId] */\n      dup2\n      mstore\n      0x20\n      add\n      swap1\n      dup2\n      mstore\n      0x20\n      add\n      0x00\n      keccak256\n        /* \"vinci-protocol/contracts/NftAuction.sol\":4845:4899  delete nftToIndex[listing.nftAddress][listing.tokenId] */\n      0x00\n      swap1\n      sstore\n        /* \"vinci-protocol/contracts/NftAuction.sol\":4917:4925  listings */\n      0x03\n        /* \"vinci-protocol/contracts/NftAuction.sol\":4917:4937  listings[_listingId] */\n      0x00\n        /* \"vinci-protocol/contracts/NftAuction.sol\":4926:4936  _listingId */\n      dup7\n        /* \"vinci-protocol/contracts/NftAuction.sol\":4917:4937  listings[_listingId] */\n      dup2\n      mstore\n      0x20\n      add\n      swap1\n      dup2\n      mstore\n      0x20\n      add\n      0x00\n      keccak256\n      0x00\n        /* \"vinci-protocol/contracts/NftAuction.sol\":4910:4937  delete listings[_listingId] */\n      dup1\n      dup3\n      add\n      exp(0x0100, 0x00)\n      dup2\n      sload\n      swap1\n      0xffffffffffffffffffffffffffffffffffffffff\n      mul\n      not\n      and\n      swap1\n      sstore\n      0x01\n      dup3\n      add\n      0x00\n      swap1\n      sstore\n      0x02\n      dup3\n      add\n      0x00\n      swap1\n      sstore\n      0x03\n      dup3\n      add\n      exp(0x0100, 0x00)\n      dup2\n      sload\n      swap1\n      0xffffffffffffffffffffffffffffffffffffffff\n      mul\n      not\n      and\n      swap1\n      sstore\n      0x04\n      dup3\n      add\n      0x00\n      swap1\n      sstore\n      0x05\n      dup3\n      add\n      0x00\n      swap1\n      sstore\n      0x06\n      dup3\n      add\n      0x00\n      swap1\n      sstore\n      0x07\n      dup3\n      add\n      exp(0x0100, 0x00)\n      dup2\n      sload\n      swap1\n      0xffffffffffffffffffffffffffffffffffffffff\n      mul\n      not\n      and\n      swap1\n      sstore\n      0x08\n      dup3\n      add\n      0x00\n      swap1\n      sstore\n      pop\n      pop\n        /* \"vinci-protocol/contracts/NftAuction.sol\":4553:4945  {... */\n      pop\n      pop\n      pop\n      pop\n        /* \"vinci-protocol/contracts/NftAuction.sol\":4504:4945  function _removeListing(uint _listingId) internal{... */\n      pop\n      jump\t// out\n        /* \"#utility.yul\":88:205   */\n    tag_180:\n        /* \"#utility.yul\":197:198   */\n      0x00\n        /* \"#utility.yul\":194:195   */\n      dup1\n        /* \"#utility.yul\":187:199   */\n      revert\n        /* \"#utility.yul\":334:411   */\n    tag_182:\n        /* \"#utility.yul\":371:378   */\n      0x00\n        /* \"#utility.yul\":400:405   */\n      dup2\n        /* \"#utility.yul\":389:405   */\n      swap1\n      pop\n        /* \"#utility.yul\":334:411   */\n      swap2\n      swap1\n      pop\n      jump\t// out\n        /* \"#utility.yul\":417:539   */\n    tag_183:\n        /* \"#utility.yul\":490:514   */\n      tag_225\n        /* \"#utility.yul\":508:513   */\n      dup2\n        /* \"#utility.yul\":490:514   */\n      tag_182\n      jump\t// in\n    tag_225:\n        /* \"#utility.yul\":483:488   */\n      dup2\n        /* \"#utility.yul\":480:515   */\n      eq\n        /* \"#utility.yul\":470:533   */\n      tag_226\n      jumpi\n        /* \"#utility.yul\":529:530   */\n      0x00\n        /* \"#utility.yul\":526:527   */\n      dup1\n        /* \"#utility.yul\":519:531   */\n      revert\n        /* \"#utility.yul\":470:533   */\n    tag_226:\n        /* \"#utility.yul\":417:539   */\n      pop\n      jump\t// out\n        /* \"#utility.yul\":545:684   */\n    tag_184:\n        /* \"#utility.yul\":591:596   */\n      0x00\n        /* \"#utility.yul\":629:635   */\n      dup2\n        /* \"#utility.yul\":616:636   */\n      calldataload\n        /* \"#utility.yul\":607:636   */\n      swap1\n      pop\n        /* \"#utility.yul\":645:678   */\n      tag_228\n        /* \"#utility.yul\":672:677   */\n      dup2\n        /* \"#utility.yul\":645:678   */\n      tag_183\n      jump\t// in\n    tag_228:\n        /* \"#utility.yul\":545:684   */\n      swap3\n      swap2\n      pop\n      pop\n      jump\t// out\n        /* \"#utility.yul\":690:1164   */\n    tag_20:\n        /* \"#utility.yul\":758:764   */\n      0x00\n        /* \"#utility.yul\":766:772   */\n      dup1\n        /* \"#utility.yul\":815:817   */\n      0x40\n        /* \"#utility.yul\":803:812   */\n      dup4\n        /* \"#utility.yul\":794:801   */\n      dup6\n        /* \"#utility.yul\":790:813   */\n      sub\n        /* \"#utility.yul\":786:818   */\n      slt\n        /* \"#utility.yul\":783:902   */\n      iszero\n      tag_230\n      jumpi\n        /* \"#utility.yul\":821:900   */\n      tag_231\n      tag_180\n      jump\t// in\n    tag_231:\n        /* \"#utility.yul\":783:902   */\n    tag_230:\n        /* \"#utility.yul\":941:942   */\n      0x00\n        /* \"#utility.yul\":966:1019   */\n      tag_232\n        /* \"#utility.yul\":1011:1018   */\n      dup6\n        /* \"#utility.yul\":1002:1008   */\n      dup3\n        /* \"#utility.yul\":991:1000   */\n      dup7\n        /* \"#utility.yul\":987:1009   */\n      add\n        /* \"#utility.yul\":966:1019   */\n      tag_184\n      jump\t// in\n    tag_232:\n        /* \"#utility.yul\":956:1019   */\n      swap3\n      pop\n        /* \"#utility.yul\":912:1029   */\n      pop\n        /* \"#utility.yul\":1068:1070   */\n      0x20\n        /* \"#utility.yul\":1094:1147   */\n      tag_233\n        /* \"#utility.yul\":1139:1146   */\n      dup6\n        /* \"#utility.yul\":1130:1136   */\n      dup3\n        /* \"#utility.yul\":1119:1128   */\n      dup7\n        /* \"#utility.yul\":1115:1137   */\n      add\n        /* \"#utility.yul\":1094:1147   */\n      tag_184\n      jump\t// in\n    tag_233:\n        /* \"#utility.yul\":1084:1147   */\n      swap2\n      pop\n        /* \"#utility.yul\":1039:1157   */\n      pop\n        /* \"#utility.yul\":690:1164   */\n      swap3\n      pop\n      swap3\n      swap1\n      pop\n      jump\t// out\n        /* \"#utility.yul\":1170:1288   */\n    tag_185:\n        /* \"#utility.yul\":1257:1281   */\n      tag_235\n        /* \"#utility.yul\":1275:1280   */\n      dup2\n        /* \"#utility.yul\":1257:1281   */\n      tag_182\n      jump\t// in\n    tag_235:\n        /* \"#utility.yul\":1252:1255   */\n      dup3\n        /* \"#utility.yul\":1245:1282   */\n      mstore\n        /* \"#utility.yul\":1170:1288   */\n      pop\n      pop\n      jump\t// out\n        /* \"#utility.yul\":1294:1516   */\n    tag_25:\n        /* \"#utility.yul\":1387:1391   */\n      0x00\n        /* \"#utility.yul\":1425:1427   */\n      0x20\n        /* \"#utility.yul\":1414:1423   */\n      dup3\n        /* \"#utility.yul\":1410:1428   */\n      add\n        /* \"#utility.yul\":1402:1428   */\n      swap1\n      pop\n        /* \"#utility.yul\":1438:1509   */\n      tag_237\n        /* \"#utility.yul\":1506:1507   */\n      0x00\n        /* \"#utility.yul\":1495:1504   */\n      dup4\n        /* \"#utility.yul\":1491:1508   */\n      add\n        /* \"#utility.yul\":1482:1488   */\n      dup5\n        /* \"#utility.yul\":1438:1509   */\n      tag_185\n      jump\t// in\n    tag_237:\n        /* \"#utility.yul\":1294:1516   */\n      swap3\n      swap2\n      pop\n      pop\n      jump\t// out\n        /* \"#utility.yul\":1522:1648   */\n    tag_186:\n        /* \"#utility.yul\":1559:1566   */\n      0x00\n        /* \"#utility.yul\":1599:1641   */\n      0xffffffffffffffffffffffffffffffffffffffff\n        /* \"#utility.yul\":1592:1597   */\n      dup3\n        /* \"#utility.yul\":1588:1642   */\n      and\n        /* \"#utility.yul\":1577:1642   */\n      swap1\n      pop\n        /* \"#utility.yul\":1522:1648   */\n      swap2\n      swap1\n      pop\n      jump\t// out\n        /* \"#utility.yul\":1654:1750   */\n    tag_187:\n        /* \"#utility.yul\":1691:1698   */\n      0x00\n        /* \"#utility.yul\":1720:1744   */\n      tag_240\n        /* \"#utility.yul\":1738:1743   */\n      dup3\n        /* \"#utility.yul\":1720:1744   */\n      tag_186\n      jump\t// in\n    tag_240:\n        /* \"#utility.yul\":1709:1744   */\n      swap1\n      pop\n        /* \"#utility.yul\":1654:1750   */\n      swap2\n      swap1\n      pop\n      jump\t// out\n        /* \"#utility.yul\":1756:1878   */\n    tag_188:\n        /* \"#utility.yul\":1829:1853   */\n      tag_242\n        /* \"#utility.yul\":1847:1852   */\n      dup2\n        /* \"#utility.yul\":1829:1853   */\n      tag_187\n      jump\t// in\n    tag_242:\n        /* \"#utility.yul\":1822:1827   */\n      dup2\n        /* \"#utility.yul\":1819:1854   */\n      eq\n        /* \"#utility.yul\":1809:1872   */\n      tag_243\n      jumpi\n        /* \"#utility.yul\":1868:1869   */\n      0x00\n        /* \"#utility.yul\":1865:1866   */\n      dup1\n        /* \"#utility.yul\":1858:1870   */\n      revert\n        /* \"#utility.yul\":1809:1872   */\n    tag_243:\n        /* \"#utility.yul\":1756:1878   */\n      pop\n      jump\t// out\n        /* \"#utility.yul\":1884:2023   */\n    tag_189:\n        /* \"#utility.yul\":1930:1935   */\n      0x00\n        /* \"#utility.yul\":1968:1974   */\n      dup2\n        /* \"#utility.yul\":1955:1975   */\n      calldataload\n        /* \"#utility.yul\":1946:1975   */\n      swap1\n      pop\n        /* \"#utility.yul\":1984:2017   */\n      tag_245\n        /* \"#utility.yul\":2011:2016   */\n      dup2\n        /* \"#utility.yul\":1984:2017   */\n      tag_188\n      jump\t// in\n    tag_245:\n        /* \"#utility.yul\":1884:2023   */\n      swap3\n      swap2\n      pop\n      pop\n      jump\t// out\n        /* \"#utility.yul\":2029:2648   */\n    tag_28:\n        /* \"#utility.yul\":2106:2112   */\n      0x00\n        /* \"#utility.yul\":2114:2120   */\n      dup1\n        /* \"#utility.yul\":2122:2128   */\n      0x00\n        /* \"#utility.yul\":2171:2173   */\n      0x60\n        /* \"#utility.yul\":2159:2168   */\n      dup5\n        /* \"#utility.yul\":2150:2157   */\n      dup7\n        /* \"#utility.yul\":2146:2169   */\n      sub\n        /* \"#utility.yul\":2142:2174   */\n      slt\n        /* \"#utility.yul\":2139:2258   */\n      iszero\n      tag_247\n      jumpi\n        /* \"#utility.yul\":2177:2256   */\n      tag_248\n      tag_180\n      jump\t// in\n    tag_248:\n        /* \"#utility.yul\":2139:2258   */\n    tag_247:\n        /* \"#utility.yul\":2297:2298   */\n      0x00\n        /* \"#utility.yul\":2322:2375   */\n      tag_249\n        /* \"#utility.yul\":2367:2374   */\n      dup7\n        /* \"#utility.yul\":2358:2364   */\n      dup3\n        /* \"#utility.yul\":2347:2356   */\n      dup8\n        /* \"#utility.yul\":2343:2365   */\n      add\n        /* \"#utility.yul\":2322:2375   */\n      tag_189\n      jump\t// in\n    tag_249:\n        /* \"#utility.yul\":2312:2375   */\n      swap4\n      pop\n        /* \"#utility.yul\":2268:2385   */\n      pop\n        /* \"#utility.yul\":2424:2426   */\n      0x20\n        /* \"#utility.yul\":2450:2503   */\n      tag_250\n        /* \"#utility.yul\":2495:2502   */\n      dup7\n        /* \"#utility.yul\":2486:2492   */\n      dup3\n        /* \"#utility.yul\":2475:2484   */\n      dup8\n        /* \"#utility.yul\":2471:2493   */\n      add\n        /* \"#utility.yul\":2450:2503   */\n      tag_184\n      jump\t// in\n    tag_250:\n        /* \"#utility.yul\":2440:2503   */\n      swap3\n      pop\n        /* \"#utility.yul\":2395:2513   */\n      pop\n        /* \"#utility.yul\":2552:2554   */\n      0x40\n        /* \"#utility.yul\":2578:2631   */\n      tag_251\n        /* \"#utility.yul\":2623:2630   */\n      dup7\n        /* \"#utility.yul\":2614:2620   */\n      dup3\n        /* \"#utility.yul\":2603:2612   */\n      dup8\n        /* \"#utility.yul\":2599:2621   */\n      add\n        /* \"#utility.yul\":2578:2631   */\n      tag_184\n      jump\t// in\n    tag_251:\n        /* \"#utility.yul\":2568:2631   */\n      swap2\n      pop\n        /* \"#utility.yul\":2523:2641   */\n      pop\n        /* \"#utility.yul\":2029:2648   */\n      swap3\n      pop\n      swap3\n      pop\n      swap3\n      jump\t// out\n        /* \"#utility.yul\":2654:2983   */\n    tag_32:\n        /* \"#utility.yul\":2713:2719   */\n      0x00\n        /* \"#utility.yul\":2762:2764   */\n      0x20\n        /* \"#utility.yul\":2750:2759   */\n      dup3\n        /* \"#utility.yul\":2741:2748   */\n      dup5\n        /* \"#utility.yul\":2737:2760   */\n      sub\n        /* \"#utility.yul\":2733:2765   */\n      slt\n        /* \"#utility.yul\":2730:2849   */\n      iszero\n      tag_253\n      jumpi\n        /* \"#utility.yul\":2768:2847   */\n      tag_254\n      tag_180\n      jump\t// in\n    tag_254:\n        /* \"#utility.yul\":2730:2849   */\n    tag_253:\n        /* \"#utility.yul\":2888:2889   */\n      0x00\n        /* \"#utility.yul\":2913:2966   */\n      tag_255\n        /* \"#utility.yul\":2958:2965   */\n      dup5\n        /* \"#utility.yul\":2949:2955   */\n      dup3\n        /* \"#utility.yul\":2938:2947   */\n      dup6\n        /* \"#utility.yul\":2934:2956   */\n      add\n        /* \"#utility.yul\":2913:2966   */\n      tag_184\n      jump\t// in\n    tag_255:\n        /* \"#utility.yul\":2903:2966   */\n      swap2\n      pop\n        /* \"#utility.yul\":2859:2976   */\n      pop\n        /* \"#utility.yul\":2654:2983   */\n      swap3\n      swap2\n      pop\n      pop\n      jump\t// out\n        /* \"#utility.yul\":2989:3107   */\n    tag_190:\n        /* \"#utility.yul\":3076:3100   */\n      tag_257\n        /* \"#utility.yul\":3094:3099   */\n      dup2\n        /* \"#utility.yul\":3076:3100   */\n      tag_187\n      jump\t// in\n    tag_257:\n        /* \"#utility.yul\":3071:3074   */\n      dup3\n        /* \"#utility.yul\":3064:3101   */\n      mstore\n        /* \"#utility.yul\":2989:3107   */\n      pop\n      pop\n      jump\t// out\n        /* \"#utility.yul\":3113:3335   */\n    tag_42:\n        /* \"#utility.yul\":3206:3210   */\n      0x00\n        /* \"#utility.yul\":3244:3246   */\n      0x20\n        /* \"#utility.yul\":3233:3242   */\n      dup3\n        /* \"#utility.yul\":3229:3247   */\n      add\n        /* \"#utility.yul\":3221:3247   */\n      swap1\n      pop\n        /* \"#utility.yul\":3257:3328   */\n      tag_259\n        /* \"#utility.yul\":3325:3326   */\n      0x00\n        /* \"#utility.yul\":3314:3323   */\n      dup4\n        /* \"#utility.yul\":3310:3327   */\n      add\n        /* \"#utility.yul\":3301:3307   */\n      dup5\n        /* \"#utility.yul\":3257:3328   */\n      tag_190\n      jump\t// in\n    tag_259:\n        /* \"#utility.yul\":3113:3335   */\n      swap3\n      swap2\n      pop\n      pop\n      jump\t// out\n        /* \"#utility.yul\":3341:3894   */\n    tag_50:\n        /* \"#utility.yul\":3518:3522   */\n      0x00\n        /* \"#utility.yul\":3556:3559   */\n      0x80\n        /* \"#utility.yul\":3545:3554   */\n      dup3\n        /* \"#utility.yul\":3541:3560   */\n      add\n        /* \"#utility.yul\":3533:3560   */\n      swap1\n      pop\n        /* \"#utility.yul\":3570:3641   */\n      tag_261\n        /* \"#utility.yul\":3638:3639   */\n      0x00\n        /* \"#utility.yul\":3627:3636   */\n      dup4\n        /* \"#utility.yul\":3623:3640   */\n      add\n        /* \"#utility.yul\":3614:3620   */\n      dup8\n        /* \"#utility.yul\":3570:3641   */\n      tag_185\n      jump\t// in\n    tag_261:\n        /* \"#utility.yul\":3651:3723   */\n      tag_262\n        /* \"#utility.yul\":3719:3721   */\n      0x20\n        /* \"#utility.yul\":3708:3717   */\n      dup4\n        /* \"#utility.yul\":3704:3722   */\n      add\n        /* \"#utility.yul\":3695:3701   */\n      dup7\n        /* \"#utility.yul\":3651:3723   */\n      tag_185\n      jump\t// in\n    tag_262:\n        /* \"#utility.yul\":3733:3805   */\n      tag_263\n        /* \"#utility.yul\":3801:3803   */\n      0x40\n        /* \"#utility.yul\":3790:3799   */\n      dup4\n        /* \"#utility.yul\":3786:3804   */\n      add\n        /* \"#utility.yul\":3777:3783   */\n      dup6\n        /* \"#utility.yul\":3733:3805   */\n      tag_185\n      jump\t// in\n    tag_263:\n        /* \"#utility.yul\":3815:3887   */\n      tag_264\n        /* \"#utility.yul\":3883:3885   */\n      0x60\n        /* \"#utility.yul\":3872:3881   */\n      dup4\n        /* \"#utility.yul\":3868:3886   */\n      add\n        /* \"#utility.yul\":3859:3865   */\n      dup5\n        /* \"#utility.yul\":3815:3887   */\n      tag_185\n      jump\t// in\n    tag_264:\n        /* \"#utility.yul\":3341:3894   */\n      swap6\n      swap5\n      pop\n      pop\n      pop\n      pop\n      pop\n      jump\t// out\n        /* \"#utility.yul\":3900:5008   */\n    tag_58:\n        /* \"#utility.yul\":4217:4221   */\n      0x00\n        /* \"#utility.yul\":4255:4258   */\n      0x0120\n        /* \"#utility.yul\":4244:4253   */\n      dup3\n        /* \"#utility.yul\":4240:4259   */\n      add\n        /* \"#utility.yul\":4232:4259   */\n      swap1\n      pop\n        /* \"#utility.yul\":4269:4340   */\n      tag_266\n        /* \"#utility.yul\":4337:4338   */\n      0x00\n        /* \"#utility.yul\":4326:4335   */\n      dup4\n        /* \"#utility.yul\":4322:4339   */\n      add\n        /* \"#utility.yul\":4313:4319   */\n      dup13\n        /* \"#utility.yul\":4269:4340   */\n      tag_190\n      jump\t// in\n    tag_266:\n        /* \"#utility.yul\":4350:4422   */\n      tag_267\n        /* \"#utility.yul\":4418:4420   */\n      0x20\n        /* \"#utility.yul\":4407:4416   */\n      dup4\n        /* \"#utility.yul\":4403:4421   */\n      add\n        /* \"#utility.yul\":4394:4400   */\n      dup12\n        /* \"#utility.yul\":4350:4422   */\n      tag_185\n      jump\t// in\n    tag_267:\n        /* \"#utility.yul\":4432:4504   */\n      tag_268\n        /* \"#utility.yul\":4500:4502   */\n      0x40\n        /* \"#utility.yul\":4489:4498   */\n      dup4\n        /* \"#utility.yul\":4485:4503   */\n      add\n        /* \"#utility.yul\":4476:4482   */\n      dup11\n        /* \"#utility.yul\":4432:4504   */\n      tag_185\n      jump\t// in\n    tag_268:\n        /* \"#utility.yul\":4514:4586   */\n      tag_269\n        /* \"#utility.yul\":4582:4584   */\n      0x60\n        /* \"#utility.yul\":4571:4580   */\n      dup4\n        /* \"#utility.yul\":4567:4585   */\n      add\n        /* \"#utility.yul\":4558:4564   */\n      dup10\n        /* \"#utility.yul\":4514:4586   */\n      tag_190\n      jump\t// in\n    tag_269:\n        /* \"#utility.yul\":4596:4669   */\n      tag_270\n        /* \"#utility.yul\":4664:4667   */\n      0x80\n        /* \"#utility.yul\":4653:4662   */\n      dup4\n        /* \"#utility.yul\":4649:4668   */\n      add\n        /* \"#utility.yul\":4640:4646   */\n      dup9\n        /* \"#utility.yul\":4596:4669   */\n      tag_185\n      jump\t// in\n    tag_270:\n        /* \"#utility.yul\":4679:4752   */\n      tag_271\n        /* \"#utility.yul\":4747:4750   */\n      0xa0\n        /* \"#utility.yul\":4736:4745   */\n      dup4\n        /* \"#utility.yul\":4732:4751   */\n      add\n        /* \"#utility.yul\":4723:4729   */\n      dup8\n        /* \"#utility.yul\":4679:4752   */\n      tag_185\n      jump\t// in\n    tag_271:\n        /* \"#utility.yul\":4762:4835   */\n      tag_272\n        /* \"#utility.yul\":4830:4833   */\n      0xc0\n        /* \"#utility.yul\":4819:4828   */\n      dup4\n        /* \"#utility.yul\":4815:4834   */\n      add\n        /* \"#utility.yul\":4806:4812   */\n      dup7\n        /* \"#utility.yul\":4762:4835   */\n      tag_185\n      jump\t// in\n    tag_272:\n        /* \"#utility.yul\":4845:4918   */\n      tag_273\n        /* \"#utility.yul\":4913:4916   */\n      0xe0\n        /* \"#utility.yul\":4902:4911   */\n      dup4\n        /* \"#utility.yul\":4898:4917   */\n      add\n        /* \"#utility.yul\":4889:4895   */\n      dup6\n        /* \"#utility.yul\":4845:4918   */\n      tag_190\n      jump\t// in\n    tag_273:\n        /* \"#utility.yul\":4928:5001   */\n      tag_274\n        /* \"#utility.yul\":4996:4999   */\n      0x0100\n        /* \"#utility.yul\":4985:4994   */\n      dup4\n        /* \"#utility.yul\":4981:5000   */\n      add\n        /* \"#utility.yul\":4972:4978   */\n      dup5\n        /* \"#utility.yul\":4928:5001   */\n      tag_185\n      jump\t// in\n    tag_274:\n        /* \"#utility.yul\":3900:5008   */\n      swap11\n      swap10\n      pop\n      pop\n      pop\n      pop\n      pop\n      pop\n      pop\n      pop\n      pop\n      pop\n      jump\t// out\n        /* \"#utility.yul\":5014:5194   */\n    tag_191:\n        /* \"#utility.yul\":5062:5139   */\n      0x4e487b7100000000000000000000000000000000000000000000000000000000\n        /* \"#utility.yul\":5059:5060   */\n      0x00\n        /* \"#utility.yul\":5052:5140   */\n      mstore\n        /* \"#utility.yul\":5159:5163   */\n      0x11\n        /* \"#utility.yul\":5156:5157   */\n      0x04\n        /* \"#utility.yul\":5149:5164   */\n      mstore\n        /* \"#utility.yul\":5183:5187   */\n      0x24\n        /* \"#utility.yul\":5180:5181   */\n      0x00\n        /* \"#utility.yul\":5173:5188   */\n      revert\n        /* \"#utility.yul\":5200:5610   */\n    tag_67:\n        /* \"#utility.yul\":5240:5247   */\n      0x00\n        /* \"#utility.yul\":5263:5283   */\n      tag_277\n        /* \"#utility.yul\":5281:5282   */\n      dup3\n        /* \"#utility.yul\":5263:5283   */\n      tag_182\n      jump\t// in\n    tag_277:\n        /* \"#utility.yul\":5258:5283   */\n      swap2\n      pop\n        /* \"#utility.yul\":5297:5317   */\n      tag_278\n        /* \"#utility.yul\":5315:5316   */\n      dup4\n        /* \"#utility.yul\":5297:5317   */\n      tag_182\n      jump\t// in\n    tag_278:\n        /* \"#utility.yul\":5292:5317   */\n      swap3\n      pop\n        /* \"#utility.yul\":5352:5353   */\n      dup3\n        /* \"#utility.yul\":5349:5350   */\n      dup3\n        /* \"#utility.yul\":5345:5354   */\n      mul\n        /* \"#utility.yul\":5374:5404   */\n      tag_279\n        /* \"#utility.yul\":5392:5403   */\n      dup2\n        /* \"#utility.yul\":5374:5404   */\n      tag_182\n      jump\t// in\n    tag_279:\n        /* \"#utility.yul\":5363:5404   */\n      swap2\n      pop\n        /* \"#utility.yul\":5553:5554   */\n      dup3\n        /* \"#utility.yul\":5544:5551   */\n      dup3\n        /* \"#utility.yul\":5540:5555   */\n      div\n        /* \"#utility.yul\":5537:5538   */\n      dup5\n        /* \"#utility.yul\":5534:5556   */\n      eq\n        /* \"#utility.yul\":5514:5515   */\n      dup4\n        /* \"#utility.yul\":5507:5516   */\n      iszero\n        /* \"#utility.yul\":5487:5570   */\n      or\n        /* \"#utility.yul\":5464:5603   */\n      tag_280\n      jumpi\n        /* \"#utility.yul\":5583:5601   */\n      tag_281\n      tag_191\n      jump\t// in\n    tag_281:\n        /* \"#utility.yul\":5464:5603   */\n    tag_280:\n        /* \"#utility.yul\":5248:5610   */\n      pop\n        /* \"#utility.yul\":5200:5610   */\n      swap3\n      swap2\n      pop\n      pop\n      jump\t// out\n        /* \"#utility.yul\":5616:5796   */\n    tag_192:\n        /* \"#utility.yul\":5664:5741   */\n      0x4e487b7100000000000000000000000000000000000000000000000000000000\n        /* \"#utility.yul\":5661:5662   */\n      0x00\n        /* \"#utility.yul\":5654:5742   */\n      mstore\n        /* \"#utility.yul\":5761:5765   */\n      0x12\n        /* \"#utility.yul\":5758:5759   */\n      0x04\n        /* \"#utility.yul\":5751:5766   */\n      mstore\n        /* \"#utility.yul\":5785:5789   */\n      0x24\n        /* \"#utility.yul\":5782:5783   */\n      0x00\n        /* \"#utility.yul\":5775:5790   */\n      revert\n        /* \"#utility.yul\":5802:5987   */\n    tag_69:\n        /* \"#utility.yul\":5842:5843   */\n      0x00\n        /* \"#utility.yul\":5859:5879   */\n      tag_284\n        /* \"#utility.yul\":5877:5878   */\n      dup3\n        /* \"#utility.yul\":5859:5879   */\n      tag_182\n      jump\t// in\n    tag_284:\n        /* \"#utility.yul\":5854:5879   */\n      swap2\n      pop\n        /* \"#utility.yul\":5893:5913   */\n      tag_285\n        /* \"#utility.yul\":5911:5912   */\n      dup4\n        /* \"#utility.yul\":5893:5913   */\n      tag_182\n      jump\t// in\n    tag_285:\n        /* \"#utility.yul\":5888:5913   */\n      swap3\n      pop\n        /* \"#utility.yul\":5932:5933   */\n      dup3\n        /* \"#utility.yul\":5922:5957   */\n      tag_286\n      jumpi\n        /* \"#utility.yul\":5937:5955   */\n      tag_287\n      tag_192\n      jump\t// in\n    tag_287:\n        /* \"#utility.yul\":5922:5957   */\n    tag_286:\n        /* \"#utility.yul\":5979:5980   */\n      dup3\n        /* \"#utility.yul\":5976:5977   */\n      dup3\n        /* \"#utility.yul\":5972:5981   */\n      div\n        /* \"#utility.yul\":5967:5981   */\n      swap1\n      pop\n        /* \"#utility.yul\":5802:5987   */\n      swap3\n      swap2\n      pop\n      pop\n      jump\t// out\n        /* \"#utility.yul\":5993:6162   */\n    tag_193:\n        /* \"#utility.yul\":6077:6088   */\n      0x00\n        /* \"#utility.yul\":6111:6117   */\n      dup3\n        /* \"#utility.yul\":6106:6109   */\n      dup3\n        /* \"#utility.yul\":6099:6118   */\n      mstore\n        /* \"#utility.yul\":6151:6155   */\n      0x20\n        /* \"#utility.yul\":6146:6149   */\n      dup3\n        /* \"#utility.yul\":6142:6156   */\n      add\n        /* \"#utility.yul\":6127:6156   */\n      swap1\n      pop\n        /* \"#utility.yul\":5993:6162   */\n      swap3\n      swap2\n      pop\n      pop\n      jump\t// out\n        /* \"#utility.yul\":6168:6331   */\n    tag_194:\n        /* \"#utility.yul\":6308:6323   */\n      0x496e76616c696420707269636500000000000000000000000000000000000000\n        /* \"#utility.yul\":6304:6305   */\n      0x00\n        /* \"#utility.yul\":6296:6302   */\n      dup3\n        /* \"#utility.yul\":6292:6306   */\n      add\n        /* \"#utility.yul\":6285:6324   */\n      mstore\n        /* \"#utility.yul\":6168:6331   */\n      pop\n      jump\t// out\n        /* \"#utility.yul\":6337:6703   */\n    tag_195:\n        /* \"#utility.yul\":6479:6482   */\n      0x00\n        /* \"#utility.yul\":6500:6567   */\n      tag_291\n        /* \"#utility.yul\":6564:6566   */\n      0x0d\n        /* \"#utility.yul\":6559:6562   */\n      dup4\n        /* \"#utility.yul\":6500:6567   */\n      tag_193\n      jump\t// in\n    tag_291:\n        /* \"#utility.yul\":6493:6567   */\n      swap2\n      pop\n        /* \"#utility.yul\":6576:6669   */\n      tag_292\n        /* \"#utility.yul\":6665:6668   */\n      dup3\n        /* \"#utility.yul\":6576:6669   */\n      tag_194\n      jump\t// in\n    tag_292:\n        /* \"#utility.yul\":6694:6696   */\n      0x20\n        /* \"#utility.yul\":6689:6692   */\n      dup3\n        /* \"#utility.yul\":6685:6697   */\n      add\n        /* \"#utility.yul\":6678:6697   */\n      swap1\n      pop\n        /* \"#utility.yul\":6337:6703   */\n      swap2\n      swap1\n      pop\n      jump\t// out\n        /* \"#utility.yul\":6709:7128   */\n    tag_72:\n        /* \"#utility.yul\":6875:6879   */\n      0x00\n        /* \"#utility.yul\":6913:6915   */\n      0x20\n        /* \"#utility.yul\":6902:6911   */\n      dup3\n        /* \"#utility.yul\":6898:6916   */\n      add\n        /* \"#utility.yul\":6890:6916   */\n      swap1\n      pop\n        /* \"#utility.yul\":6962:6971   */\n      dup2\n        /* \"#utility.yul\":6956:6960   */\n      dup2\n        /* \"#utility.yul\":6952:6972   */\n      sub\n        /* \"#utility.yul\":6948:6949   */\n      0x00\n        /* \"#utility.yul\":6937:6946   */\n      dup4\n        /* \"#utility.yul\":6933:6950   */\n      add\n        /* \"#utility.yul\":6926:6973   */\n      mstore\n        /* \"#utility.yul\":6990:7121   */\n      tag_294\n        /* \"#utility.yul\":7116:7120   */\n      dup2\n        /* \"#utility.yul\":6990:7121   */\n      tag_195\n      jump\t// in\n    tag_294:\n        /* \"#utility.yul\":6982:7121   */\n      swap1\n      pop\n        /* \"#utility.yul\":6709:7128   */\n      swap2\n      swap1\n      pop\n      jump\t// out\n        /* \"#utility.yul\":7134:7299   */\n    tag_196:\n        /* \"#utility.yul\":7274:7291   */\n      0x496e76616c6964206c697374696e670000000000000000000000000000000000\n        /* \"#utility.yul\":7270:7271   */\n      0x00\n        /* \"#utility.yul\":7262:7268   */\n      dup3\n        /* \"#utility.yul\":7258:7272   */\n      add\n        /* \"#utility.yul\":7251:7292   */\n      mstore\n        /* \"#utility.yul\":7134:7299   */\n      pop\n      jump\t// out\n        /* \"#utility.yul\":7305:7671   */\n    tag_197:\n        /* \"#utility.yul\":7447:7450   */\n      0x00\n        /* \"#utility.yul\":7468:7535   */\n      tag_297\n        /* \"#utility.yul\":7532:7534   */\n      0x0f\n        /* \"#utility.yul\":7527:7530   */\n      dup4\n        /* \"#utility.yul\":7468:7535   */\n      tag_193\n      jump\t// in\n    tag_297:\n        /* \"#utility.yul\":7461:7535   */\n      swap2\n      pop\n        /* \"#utility.yul\":7544:7637   */\n      tag_298\n        /* \"#utility.yul\":7633:7636   */\n      dup3\n        /* \"#utility.yul\":7544:7637   */\n      tag_196\n      jump\t// in\n    tag_298:\n        /* \"#utility.yul\":7662:7664   */\n      0x20\n        /* \"#utility.yul\":7657:7660   */\n      dup3\n        /* \"#utility.yul\":7653:7665   */\n      add\n        /* \"#utility.yul\":7646:7665   */\n      swap1\n      pop\n        /* \"#utility.yul\":7305:7671   */\n      swap2\n      swap1\n      pop\n      jump\t// out\n        /* \"#utility.yul\":7677:8096   */\n    tag_75:\n        /* \"#utility.yul\":7843:7847   */\n      0x00\n        /* \"#utility.yul\":7881:7883   */\n      0x20\n        /* \"#utility.yul\":7870:7879   */\n      dup3\n        /* \"#utility.yul\":7866:7884   */\n      add\n        /* \"#utility.yul\":7858:7884   */\n      swap1\n      pop\n        /* \"#utility.yul\":7930:7939   */\n      dup2\n        /* \"#utility.yul\":7924:7928   */\n      dup2\n        /* \"#utility.yul\":7920:7940   */\n      sub\n        /* \"#utility.yul\":7916:7917   */\n      0x00\n        /* \"#utility.yul\":7905:7914   */\n      dup4\n        /* \"#utility.yul\":7901:7918   */\n      add\n        /* \"#utility.yul\":7894:7941   */\n      mstore\n        /* \"#utility.yul\":7958:8089   */\n      tag_300\n        /* \"#utility.yul\":8084:8088   */\n      dup2\n        /* \"#utility.yul\":7958:8089   */\n      tag_197\n      jump\t// in\n    tag_300:\n        /* \"#utility.yul\":7950:8089   */\n      swap1\n      pop\n        /* \"#utility.yul\":7677:8096   */\n      swap2\n      swap1\n      pop\n      jump\t// out\n        /* \"#utility.yul\":8102:8293   */\n    tag_78:\n        /* \"#utility.yul\":8142:8145   */\n      0x00\n        /* \"#utility.yul\":8161:8181   */\n      tag_302\n        /* \"#utility.yul\":8179:8180   */\n      dup3\n        /* \"#utility.yul\":8161:8181   */\n      tag_182\n      jump\t// in\n    tag_302:\n        /* \"#utility.yul\":8156:8181   */\n      swap2\n      pop\n        /* \"#utility.yul\":8195:8215   */\n      tag_303\n        /* \"#utility.yul\":8213:8214   */\n      dup4\n        /* \"#utility.yul\":8195:8215   */\n      tag_182\n      jump\t// in\n    tag_303:\n        /* \"#utility.yul\":8190:8215   */\n      swap3\n      pop\n        /* \"#utility.yul\":8238:8239   */\n      dup3\n        /* \"#utility.yul\":8235:8236   */\n      dup3\n        /* \"#utility.yul\":8231:8240   */\n      add\n        /* \"#utility.yul\":8224:8240   */\n      swap1\n      pop\n        /* \"#utility.yul\":8259:8262   */\n      dup1\n        /* \"#utility.yul\":8256:8257   */\n      dup3\n        /* \"#utility.yul\":8253:8263   */\n      gt\n        /* \"#utility.yul\":8250:8286   */\n      iszero\n      tag_304\n      jumpi\n        /* \"#utility.yul\":8266:8284   */\n      tag_305\n      tag_191\n      jump\t// in\n    tag_305:\n        /* \"#utility.yul\":8250:8286   */\n    tag_304:\n        /* \"#utility.yul\":8102:8293   */\n      swap3\n      swap2\n      pop\n      pop\n      jump\t// out\n        /* \"#utility.yul\":8299:8464   */\n    tag_198:\n        /* \"#utility.yul\":8439:8456   */\n      0x4c697374696e6720657870697265640000000000000000000000000000000000\n        /* \"#utility.yul\":8435:8436   */\n      0x00\n        /* \"#utility.yul\":8427:8433   */\n      dup3\n        /* \"#utility.yul\":8423:8437   */\n      add\n        /* \"#utility.yul\":8416:8457   */\n      mstore\n        /* \"#utility.yul\":8299:8464   */\n      pop\n      jump\t// out\n        /* \"#utility.yul\":8470:8836   */\n    tag_199:\n        /* \"#utility.yul\":8612:8615   */\n      0x00\n        /* \"#utility.yul\":8633:8700   */\n      tag_308\n        /* \"#utility.yul\":8697:8699   */\n      0x0f\n        /* \"#utility.yul\":8692:8695   */\n      dup4\n        /* \"#utility.yul\":8633:8700   */\n      tag_193\n      jump\t// in\n    tag_308:\n        /* \"#utility.yul\":8626:8700   */\n      swap2\n      pop\n        /* \"#utility.yul\":8709:8802   */\n      tag_309\n        /* \"#utility.yul\":8798:8801   */\n      dup3\n        /* \"#utility.yul\":8709:8802   */\n      tag_198\n      jump\t// in\n    tag_309:\n        /* \"#utility.yul\":8827:8829   */\n      0x20\n        /* \"#utility.yul\":8822:8825   */\n      dup3\n        /* \"#utility.yul\":8818:8830   */\n      add\n        /* \"#utility.yul\":8811:8830   */\n      swap1\n      pop\n        /* \"#utility.yul\":8470:8836   */\n      swap2\n      swap1\n      pop\n      jump\t// out\n        /* \"#utility.yul\":8842:9261   */\n    tag_81:\n        /* \"#utility.yul\":9008:9012   */\n      0x00\n        /* \"#utility.yul\":9046:9048   */\n      0x20\n        /* \"#utility.yul\":9035:9044   */\n      dup3\n        /* \"#utility.yul\":9031:9049   */\n      add\n        /* \"#utility.yul\":9023:9049   */\n      swap1\n      pop\n        /* \"#utility.yul\":9095:9104   */\n      dup2\n        /* \"#utility.yul\":9089:9093   */\n      dup2\n        /* \"#utility.yul\":9085:9105   */\n      sub\n        /* \"#utility.yul\":9081:9082   */\n      0x00\n        /* \"#utility.yul\":9070:9079   */\n      dup4\n        /* \"#utility.yul\":9066:9083   */\n      add\n        /* \"#utility.yul\":9059:9106   */\n      mstore\n        /* \"#utility.yul\":9123:9254   */\n      tag_311\n        /* \"#utility.yul\":9249:9253   */\n      dup2\n        /* \"#utility.yul\":9123:9254   */\n      tag_199\n      jump\t// in\n    tag_311:\n        /* \"#utility.yul\":9115:9254   */\n      swap1\n      pop\n        /* \"#utility.yul\":8842:9261   */\n      swap2\n      swap1\n      pop\n      jump\t// out\n        /* \"#utility.yul\":9267:9599   */\n    tag_83:\n        /* \"#utility.yul\":9388:9392   */\n      0x00\n        /* \"#utility.yul\":9426:9428   */\n      0x40\n        /* \"#utility.yul\":9415:9424   */\n      dup3\n        /* \"#utility.yul\":9411:9429   */\n      add\n        /* \"#utility.yul\":9403:9429   */\n      swap1\n      pop\n        /* \"#utility.yul\":9439:9510   */\n      tag_313\n        /* \"#utility.yul\":9507:9508   */\n      0x00\n        /* \"#utility.yul\":9496:9505   */\n      dup4\n        /* \"#utility.yul\":9492:9509   */\n      add\n        /* \"#utility.yul\":9483:9489   */\n      dup6\n        /* \"#utility.yul\":9439:9510   */\n      tag_190\n      jump\t// in\n    tag_313:\n        /* \"#utility.yul\":9520:9592   */\n      tag_314\n        /* \"#utility.yul\":9588:9590   */\n      0x20\n        /* \"#utility.yul\":9577:9586   */\n      dup4\n        /* \"#utility.yul\":9573:9591   */\n      add\n        /* \"#utility.yul\":9564:9570   */\n      dup5\n        /* \"#utility.yul\":9520:9592   */\n      tag_185\n      jump\t// in\n    tag_314:\n        /* \"#utility.yul\":9267:9599   */\n      swap4\n      swap3\n      pop\n      pop\n      pop\n      jump\t// out\n        /* \"#utility.yul\":9605:9695   */\n    tag_200:\n        /* \"#utility.yul\":9639:9646   */\n      0x00\n        /* \"#utility.yul\":9682:9687   */\n      dup2\n        /* \"#utility.yul\":9675:9688   */\n      iszero\n        /* \"#utility.yul\":9668:9689   */\n      iszero\n        /* \"#utility.yul\":9657:9689   */\n      swap1\n      pop\n        /* \"#utility.yul\":9605:9695   */\n      swap2\n      swap1\n      pop\n      jump\t// out\n        /* \"#utility.yul\":9701:9817   */\n    tag_201:\n        /* \"#utility.yul\":9771:9792   */\n      tag_317\n        /* \"#utility.yul\":9786:9791   */\n      dup2\n        /* \"#utility.yul\":9771:9792   */\n      tag_200\n      jump\t// in\n    tag_317:\n        /* \"#utility.yul\":9764:9769   */\n      dup2\n        /* \"#utility.yul\":9761:9793   */\n      eq\n        /* \"#utility.yul\":9751:9811   */\n      tag_318\n      jumpi\n        /* \"#utility.yul\":9807:9808   */\n      0x00\n        /* \"#utility.yul\":9804:9805   */\n      dup1\n        /* \"#utility.yul\":9797:9809   */\n      revert\n        /* \"#utility.yul\":9751:9811   */\n    tag_318:\n        /* \"#utility.yul\":9701:9817   */\n      pop\n      jump\t// out\n        /* \"#utility.yul\":9823:9960   */\n    tag_202:\n        /* \"#utility.yul\":9877:9882   */\n      0x00\n        /* \"#utility.yul\":9908:9914   */\n      dup2\n        /* \"#utility.yul\":9902:9915   */\n      mload\n        /* \"#utility.yul\":9893:9915   */\n      swap1\n      pop\n        /* \"#utility.yul\":9924:9954   */\n      tag_320\n        /* \"#utility.yul\":9948:9953   */\n      dup2\n        /* \"#utility.yul\":9924:9954   */\n      tag_201\n      jump\t// in\n    tag_320:\n        /* \"#utility.yul\":9823:9960   */\n      swap3\n      swap2\n      pop\n      pop\n      jump\t// out\n        /* \"#utility.yul\":9966:10311   */\n    tag_87:\n        /* \"#utility.yul\":10033:10039   */\n      0x00\n        /* \"#utility.yul\":10082:10084   */\n      0x20\n        /* \"#utility.yul\":10070:10079   */\n      dup3\n        /* \"#utility.yul\":10061:10068   */\n      dup5\n        /* \"#utility.yul\":10057:10080   */\n      sub\n        /* \"#utility.yul\":10053:10085   */\n      slt\n        /* \"#utility.yul\":10050:10169   */\n      iszero\n      tag_322\n      jumpi\n        /* \"#utility.yul\":10088:10167   */\n      tag_323\n      tag_180\n      jump\t// in\n    tag_323:\n        /* \"#utility.yul\":10050:10169   */\n    tag_322:\n        /* \"#utility.yul\":10208:10209   */\n      0x00\n        /* \"#utility.yul\":10233:10294   */\n      tag_324\n        /* \"#utility.yul\":10286:10293   */\n      dup5\n        /* \"#utility.yul\":10277:10283   */\n      dup3\n        /* \"#utility.yul\":10266:10275   */\n      dup6\n        /* \"#utility.yul\":10262:10284   */\n      add\n        /* \"#utility.yul\":10233:10294   */\n      tag_202\n      jump\t// in\n    tag_324:\n        /* \"#utility.yul\":10223:10294   */\n      swap2\n      pop\n        /* \"#utility.yul\":10179:10304   */\n      pop\n        /* \"#utility.yul\":9966:10311   */\n      swap3\n      swap2\n      pop\n      pop\n      jump\t// out\n        /* \"#utility.yul\":10317:10759   */\n    tag_89:\n        /* \"#utility.yul\":10466:10470   */\n      0x00\n        /* \"#utility.yul\":10504:10506   */\n      0x60\n        /* \"#utility.yul\":10493:10502   */\n      dup3\n        /* \"#utility.yul\":10489:10507   */\n      add\n        /* \"#utility.yul\":10481:10507   */\n      swap1\n      pop\n        /* \"#utility.yul\":10517:10588   */\n      tag_326\n        /* \"#utility.yul\":10585:10586   */\n      0x00\n        /* \"#utility.yul\":10574:10583   */\n      dup4\n        /* \"#utility.yul\":10570:10587   */\n      add\n        /* \"#utility.yul\":10561:10567   */\n      dup7\n        /* \"#utility.yul\":10517:10588   */\n      tag_190\n      jump\t// in\n    tag_326:\n        /* \"#utility.yul\":10598:10670   */\n      tag_327\n        /* \"#utility.yul\":10666:10668   */\n      0x20\n        /* \"#utility.yul\":10655:10664   */\n      dup4\n        /* \"#utility.yul\":10651:10669   */\n      add\n        /* \"#utility.yul\":10642:10648   */\n      dup6\n        /* \"#utility.yul\":10598:10670   */\n      tag_190\n      jump\t// in\n    tag_327:\n        /* \"#utility.yul\":10680:10752   */\n      tag_328\n        /* \"#utility.yul\":10748:10750   */\n      0x40\n        /* \"#utility.yul\":10737:10746   */\n      dup4\n        /* \"#utility.yul\":10733:10751   */\n      add\n        /* \"#utility.yul\":10724:10730   */\n      dup5\n        /* \"#utility.yul\":10680:10752   */\n      tag_185\n      jump\t// in\n    tag_328:\n        /* \"#utility.yul\":10317:10759   */\n      swap5\n      swap4\n      pop\n      pop\n      pop\n      pop\n      jump\t// out\n        /* \"#utility.yul\":10765:11429   */\n    tag_96:\n        /* \"#utility.yul\":10970:10974   */\n      0x00\n        /* \"#utility.yul\":11008:11011   */\n      0xa0\n        /* \"#utility.yul\":10997:11006   */\n      dup3\n        /* \"#utility.yul\":10993:11012   */\n      add\n        /* \"#utility.yul\":10985:11012   */\n      swap1\n      pop\n        /* \"#utility.yul\":11022:11093   */\n      tag_330\n        /* \"#utility.yul\":11090:11091   */\n      0x00\n        /* \"#utility.yul\":11079:11088   */\n      dup4\n        /* \"#utility.yul\":11075:11092   */\n      add\n        /* \"#utility.yul\":11066:11072   */\n      dup9\n        /* \"#utility.yul\":11022:11093   */\n      tag_190\n      jump\t// in\n    tag_330:\n        /* \"#utility.yul\":11103:11175   */\n      tag_331\n        /* \"#utility.yul\":11171:11173   */\n      0x20\n        /* \"#utility.yul\":11160:11169   */\n      dup4\n        /* \"#utility.yul\":11156:11174   */\n      add\n        /* \"#utility.yul\":11147:11153   */\n      dup8\n        /* \"#utility.yul\":11103:11175   */\n      tag_185\n      jump\t// in\n    tag_331:\n        /* \"#utility.yul\":11185:11257   */\n      tag_332\n        /* \"#utility.yul\":11253:11255   */\n      0x40\n        /* \"#utility.yul\":11242:11251   */\n      dup4\n        /* \"#utility.yul\":11238:11256   */\n      add\n        /* \"#utility.yul\":11229:11235   */\n      dup7\n        /* \"#utility.yul\":11185:11257   */\n      tag_190\n      jump\t// in\n    tag_332:\n        /* \"#utility.yul\":11267:11339   */\n      tag_333\n        /* \"#utility.yul\":11335:11337   */\n      0x60\n        /* \"#utility.yul\":11324:11333   */\n      dup4\n        /* \"#utility.yul\":11320:11338   */\n      add\n        /* \"#utility.yul\":11311:11317   */\n      dup6\n        /* \"#utility.yul\":11267:11339   */\n      tag_190\n      jump\t// in\n    tag_333:\n        /* \"#utility.yul\":11349:11422   */\n      tag_334\n        /* \"#utility.yul\":11417:11420   */\n      0x80\n        /* \"#utility.yul\":11406:11415   */\n      dup4\n        /* \"#utility.yul\":11402:11421   */\n      add\n        /* \"#utility.yul\":11393:11399   */\n      dup5\n        /* \"#utility.yul\":11349:11422   */\n      tag_185\n      jump\t// in\n    tag_334:\n        /* \"#utility.yul\":10765:11429   */\n      swap7\n      swap6\n      pop\n      pop\n      pop\n      pop\n      pop\n      pop\n      jump\t// out\n        /* \"#utility.yul\":11435:11607   */\n    tag_203:\n        /* \"#utility.yul\":11575:11599   */\n      0x5072696365206d75737420626520706f73697469766500000000000000000000\n        /* \"#utility.yul\":11571:11572   */\n      0x00\n        /* \"#utility.yul\":11563:11569   */\n      dup3\n        /* \"#utility.yul\":11559:11573   */\n      add\n        /* \"#utility.yul\":11552:11600   */\n      mstore\n        /* \"#utility.yul\":11435:11607   */\n      pop\n      jump\t// out\n        /* \"#utility.yul\":11613:11979   */\n    tag_204:\n        /* \"#utility.yul\":11755:11758   */\n      0x00\n        /* \"#utility.yul\":11776:11843   */\n      tag_337\n        /* \"#utility.yul\":11840:11842   */\n      0x16\n        /* \"#utility.yul\":11835:11838   */\n      dup4\n        /* \"#utility.yul\":11776:11843   */\n      tag_193\n      jump\t// in\n    tag_337:\n        /* \"#utility.yul\":11769:11843   */\n      swap2\n      pop\n        /* \"#utility.yul\":11852:11945   */\n      tag_338\n        /* \"#utility.yul\":11941:11944   */\n      dup3\n        /* \"#utility.yul\":11852:11945   */\n      tag_203\n      jump\t// in\n    tag_338:\n        /* \"#utility.yul\":11970:11972   */\n      0x20\n        /* \"#utility.yul\":11965:11968   */\n      dup3\n        /* \"#utility.yul\":11961:11973   */\n      add\n        /* \"#utility.yul\":11954:11973   */\n      swap1\n      pop\n        /* \"#utility.yul\":11613:11979   */\n      swap2\n      swap1\n      pop\n      jump\t// out\n        /* \"#utility.yul\":11985:12404   */\n    tag_102:\n        /* \"#utility.yul\":12151:12155   */\n      0x00\n        /* \"#utility.yul\":12189:12191   */\n      0x20\n        /* \"#utility.yul\":12178:12187   */\n      dup3\n        /* \"#utility.yul\":12174:12192   */\n      add\n        /* \"#utility.yul\":12166:12192   */\n      swap1\n      pop\n        /* \"#utility.yul\":12238:12247   */\n      dup2\n        /* \"#utility.yul\":12232:12236   */\n      dup2\n        /* \"#utility.yul\":12228:12248   */\n      sub\n        /* \"#utility.yul\":12224:12225   */\n      0x00\n        /* \"#utility.yul\":12213:12222   */\n      dup4\n        /* \"#utility.yul\":12209:12226   */\n      add\n        /* \"#utility.yul\":12202:12249   */\n      mstore\n        /* \"#utility.yul\":12266:12397   */\n      tag_340\n        /* \"#utility.yul\":12392:12396   */\n      dup2\n        /* \"#utility.yul\":12266:12397   */\n      tag_204\n      jump\t// in\n    tag_340:\n        /* \"#utility.yul\":12258:12397   */\n      swap1\n      pop\n        /* \"#utility.yul\":11985:12404   */\n      swap2\n      swap1\n      pop\n      jump\t// out\n        /* \"#utility.yul\":12410:12574   */\n    tag_205:\n        /* \"#utility.yul\":12550:12566   */\n      0x416c7265616479206c6973746564000000000000000000000000000000000000\n        /* \"#utility.yul\":12546:12547   */\n      0x00\n        /* \"#utility.yul\":12538:12544   */\n      dup3\n        /* \"#utility.yul\":12534:12548   */\n      add\n        /* \"#utility.yul\":12527:12567   */\n      mstore\n        /* \"#utility.yul\":12410:12574   */\n      pop\n      jump\t// out\n        /* \"#utility.yul\":12580:12946   */\n    tag_206:\n        /* \"#utility.yul\":12722:12725   */\n      0x00\n        /* \"#utility.yul\":12743:12810   */\n      tag_343\n        /* \"#utility.yul\":12807:12809   */\n      0x0e\n        /* \"#utility.yul\":12802:12805   */\n      dup4\n        /* \"#utility.yul\":12743:12810   */\n      tag_193\n      jump\t// in\n    tag_343:\n        /* \"#utility.yul\":12736:12810   */\n      swap2\n      pop\n        /* \"#utility.yul\":12819:12912   */\n      tag_344\n        /* \"#utility.yul\":12908:12911   */\n      dup3\n        /* \"#utility.yul\":12819:12912   */\n      tag_205\n      jump\t// in\n    tag_344:\n        /* \"#utility.yul\":12937:12939   */\n      0x20\n        /* \"#utility.yul\":12932:12935   */\n      dup3\n        /* \"#utility.yul\":12928:12940   */\n      add\n        /* \"#utility.yul\":12921:12940   */\n      swap1\n      pop\n        /* \"#utility.yul\":12580:12946   */\n      swap2\n      swap1\n      pop\n      jump\t// out\n        /* \"#utility.yul\":12952:13371   */\n    tag_105:\n        /* \"#utility.yul\":13118:13122   */\n      0x00\n        /* \"#utility.yul\":13156:13158   */\n      0x20\n        /* \"#utility.yul\":13145:13154   */\n      dup3\n        /* \"#utility.yul\":13141:13159   */\n      add\n        /* \"#utility.yul\":13133:13159   */\n      swap1\n      pop\n        /* \"#utility.yul\":13205:13214   */\n      dup2\n        /* \"#utility.yul\":13199:13203   */\n      dup2\n        /* \"#utility.yul\":13195:13215   */\n      sub\n        /* \"#utility.yul\":13191:13192   */\n      0x00\n        /* \"#utility.yul\":13180:13189   */\n      dup4\n        /* \"#utility.yul\":13176:13193   */\n      add\n        /* \"#utility.yul\":13169:13216   */\n      mstore\n        /* \"#utility.yul\":13233:13364   */\n      tag_346\n        /* \"#utility.yul\":13359:13363   */\n      dup2\n        /* \"#utility.yul\":13233:13364   */\n      tag_206\n      jump\t// in\n    tag_346:\n        /* \"#utility.yul\":13225:13364   */\n      swap1\n      pop\n        /* \"#utility.yul\":12952:13371   */\n      swap2\n      swap1\n      pop\n      jump\t// out\n        /* \"#utility.yul\":13377:13610   */\n    tag_111:\n        /* \"#utility.yul\":13416:13419   */\n      0x00\n        /* \"#utility.yul\":13439:13463   */\n      tag_348\n        /* \"#utility.yul\":13457:13462   */\n      dup3\n        /* \"#utility.yul\":13439:13463   */\n      tag_182\n      jump\t// in\n    tag_348:\n        /* \"#utility.yul\":13430:13463   */\n      swap2\n      pop\n        /* \"#utility.yul\":13485:13551   */\n      0xffffffffffffffffffffffffffffffffffffffffffffffffffffffffffffffff\n        /* \"#utility.yul\":13478:13483   */\n      dup3\n        /* \"#utility.yul\":13475:13552   */\n      sub\n        /* \"#utility.yul\":13472:13575   */\n      tag_349\n      jumpi\n        /* \"#utility.yul\":13555:13573   */\n      tag_350\n      tag_191\n      jump\t// in\n    tag_350:\n        /* \"#utility.yul\":13472:13575   */\n    tag_349:\n        /* \"#utility.yul\":13602:13603   */\n      0x01\n        /* \"#utility.yul\":13595:13600   */\n      dup3\n        /* \"#utility.yul\":13591:13604   */\n      add\n        /* \"#utility.yul\":13584:13604   */\n      swap1\n      pop\n        /* \"#utility.yul\":13377:13610   */\n      swap2\n      swap1\n      pop\n      jump\t// out\n        /* \"#utility.yul\":13616:13810   */\n    tag_113:\n        /* \"#utility.yul\":13656:13660   */\n      0x00\n        /* \"#utility.yul\":13676:13696   */\n      tag_352\n        /* \"#utility.yul\":13694:13695   */\n      dup3\n        /* \"#utility.yul\":13676:13696   */\n      tag_182\n      jump\t// in\n    tag_352:\n        /* \"#utility.yul\":13671:13696   */\n      swap2\n      pop\n        /* \"#utility.yul\":13710:13730   */\n      tag_353\n        /* \"#utility.yul\":13728:13729   */\n      dup4\n        /* \"#utility.yul\":13710:13730   */\n      tag_182\n      jump\t// in\n    tag_353:\n        /* \"#utility.yul\":13705:13730   */\n      swap3\n      pop\n        /* \"#utility.yul\":13754:13755   */\n      dup3\n        /* \"#utility.yul\":13751:13752   */\n      dup3\n        /* \"#utility.yul\":13747:13756   */\n      sub\n        /* \"#utility.yul\":13739:13756   */\n      swap1\n      pop\n        /* \"#utility.yul\":13778:13779   */\n      dup2\n        /* \"#utility.yul\":13772:13776   */\n      dup2\n        /* \"#utility.yul\":13769:13780   */\n      gt\n        /* \"#utility.yul\":13766:13803   */\n      iszero\n      tag_354\n      jumpi\n        /* \"#utility.yul\":13783:13801   */\n      tag_355\n      tag_191\n      jump\t// in\n    tag_355:\n        /* \"#utility.yul\":13766:13803   */\n    tag_354:\n        /* \"#utility.yul\":13616:13810   */\n      swap3\n      swap2\n      pop\n      pop\n      jump\t// out\n        /* \"#utility.yul\":13816:14591   */\n    tag_117:\n        /* \"#utility.yul\":14049:14053   */\n      0x00\n        /* \"#utility.yul\":14087:14090   */\n      0xc0\n        /* \"#utility.yul\":14076:14085   */\n      dup3\n        /* \"#utility.yul\":14072:14091   */\n      add\n        /* \"#utility.yul\":14064:14091   */\n      swap1\n      pop\n        /* \"#utility.yul\":14101:14172   */\n      tag_357\n        /* \"#utility.yul\":14169:14170   */\n      0x00\n        /* \"#utility.yul\":14158:14167   */\n      dup4\n        /* \"#utility.yul\":14154:14171   */\n      add\n        /* \"#utility.yul\":14145:14151   */\n      dup10\n        /* \"#utility.yul\":14101:14172   */\n      tag_190\n      jump\t// in\n    tag_357:\n        /* \"#utility.yul\":14182:14254   */\n      tag_358\n        /* \"#utility.yul\":14250:14252   */\n      0x20\n        /* \"#utility.yul\":14239:14248   */\n      dup4\n        /* \"#utility.yul\":14235:14253   */\n      add\n        /* \"#utility.yul\":14226:14232   */\n      dup9\n        /* \"#utility.yul\":14182:14254   */\n      tag_185\n      jump\t// in\n    tag_358:\n        /* \"#utility.yul\":14264:14336   */\n      tag_359\n        /* \"#utility.yul\":14332:14334   */\n      0x40\n        /* \"#utility.yul\":14321:14330   */\n      dup4\n        /* \"#utility.yul\":14317:14335   */\n      add\n        /* \"#utility.yul\":14308:14314   */\n      dup8\n        /* \"#utility.yul\":14264:14336   */\n      tag_185\n      jump\t// in\n    tag_359:\n        /* \"#utility.yul\":14346:14418   */\n      tag_360\n        /* \"#utility.yul\":14414:14416   */\n      0x60\n        /* \"#utility.yul\":14403:14412   */\n      dup4\n        /* \"#utility.yul\":14399:14417   */\n      add\n        /* \"#utility.yul\":14390:14396   */\n      dup7\n        /* \"#utility.yul\":14346:14418   */\n      tag_185\n      jump\t// in\n    tag_360:\n        /* \"#utility.yul\":14428:14501   */\n      tag_361\n        /* \"#utility.yul\":14496:14499   */\n      0x80\n        /* \"#utility.yul\":14485:14494   */\n      dup4\n        /* \"#utility.yul\":14481:14500   */\n      add\n        /* \"#utility.yul\":14472:14478   */\n      dup6\n        /* \"#utility.yul\":14428:14501   */\n      tag_190\n      jump\t// in\n    tag_361:\n        /* \"#utility.yul\":14511:14584   */\n      tag_362\n        /* \"#utility.yul\":14579:14582   */\n      0xa0\n        /* \"#utility.yul\":14568:14577   */\n      dup4\n        /* \"#utility.yul\":14564:14583   */\n      add\n        /* \"#utility.yul\":14555:14561   */\n      dup5\n        /* \"#utility.yul\":14511:14584   */\n      tag_185\n      jump\t// in\n    tag_362:\n        /* \"#utility.yul\":13816:14591   */\n      swap8\n      swap7\n      pop\n      pop\n      pop\n      pop\n      pop\n      pop\n      pop\n      jump\t// out\n        /* \"#utility.yul\":14597:14768   */\n    tag_207:\n        /* \"#utility.yul\":14737:14760   */\n      0x4f6e6c79206f776e65722063616e2063616e63656c0000000000000000000000\n        /* \"#utility.yul\":14733:14734   */\n      0x00\n        /* \"#utility.yul\":14725:14731   */\n      dup3\n        /* \"#utility.yul\":14721:14735   */\n      add\n        /* \"#utility.yul\":14714:14761   */\n      mstore\n        /* \"#utility.yul\":14597:14768   */\n      pop\n      jump\t// out\n        /* \"#utility.yul\":14774:15140   */\n    tag_208:\n        /* \"#utility.yul\":14916:14919   */\n      0x00\n        /* \"#utility.yul\":14937:15004   */\n      tag_365\n        /* \"#utility.yul\":15001:15003   */\n      0x15\n        /* \"#utility.yul\":14996:14999   */\n      dup4\n        /* \"#utility.yul\":14937:15004   */\n      tag_193\n      jump\t// in\n    tag_365:\n        /* \"#utility.yul\":14930:15004   */\n      swap2\n      pop\n        /* \"#utility.yul\":15013:15106   */\n      tag_366\n        /* \"#utility.yul\":15102:15105   */\n      dup3\n        /* \"#utility.yul\":15013:15106   */\n      tag_207\n      jump\t// in\n    tag_366:\n        /* \"#utility.yul\":15131:15133   */\n      0x20\n        /* \"#utility.yul\":15126:15129   */\n      dup3\n        /* \"#utility.yul\":15122:15134   */\n      add\n        /* \"#utility.yul\":15115:15134   */\n      swap1\n      pop\n        /* \"#utility.yul\":14774:15140   */\n      swap2\n      swap1\n      pop\n      jump\t// out\n        /* \"#utility.yul\":15146:15565   */\n    tag_125:\n        /* \"#utility.yul\":15312:15316   */\n      0x00\n        /* \"#utility.yul\":15350:15352   */\n      0x20\n        /* \"#utility.yul\":15339:15348   */\n      dup3\n        /* \"#utility.yul\":15335:15353   */\n      add\n        /* \"#utility.yul\":15327:15353   */\n      swap1\n      pop\n        /* \"#utility.yul\":15399:15408   */\n      dup2\n        /* \"#utility.yul\":15393:15397   */\n      dup2\n        /* \"#utility.yul\":15389:15409   */\n      sub\n        /* \"#utility.yul\":15385:15386   */\n      0x00\n        /* \"#utility.yul\":15374:15383   */\n      dup4\n        /* \"#utility.yul\":15370:15387   */\n      add\n        /* \"#utility.yul\":15363:15410   */\n      mstore\n        /* \"#utility.yul\":15427:15558   */\n      tag_368\n        /* \"#utility.yul\":15553:15557   */\n      dup2\n        /* \"#utility.yul\":15427:15558   */\n      tag_208\n      jump\t// in\n    tag_368:\n        /* \"#utility.yul\":15419:15558   */\n      swap1\n      pop\n        /* \"#utility.yul\":15146:15565   */\n      swap2\n      swap1\n      pop\n      jump\t// out\n        /* \"#utility.yul\":15571:16013   */\n    tag_128:\n        /* \"#utility.yul\":15720:15724   */\n      0x00\n        /* \"#utility.yul\":15758:15760   */\n      0x60\n        /* \"#utility.yul\":15747:15756   */\n      dup3\n        /* \"#utility.yul\":15743:15761   */\n      add\n        /* \"#utility.yul\":15735:15761   */\n      swap1\n      pop\n        /* \"#utility.yul\":15771:15842   */\n      tag_370\n        /* \"#utility.yul\":15839:15840   */\n      0x00\n        /* \"#utility.yul\":15828:15837   */\n      dup4\n        /* \"#utility.yul\":15824:15841   */\n      add\n        /* \"#utility.yul\":15815:15821   */\n      dup7\n        /* \"#utility.yul\":15771:15842   */\n      tag_190\n      jump\t// in\n    tag_370:\n        /* \"#utility.yul\":15852:15924   */\n      tag_371\n        /* \"#utility.yul\":15920:15922   */\n      0x20\n        /* \"#utility.yul\":15909:15918   */\n      dup4\n        /* \"#utility.yul\":15905:15923   */\n      add\n        /* \"#utility.yul\":15896:15902   */\n      dup6\n        /* \"#utility.yul\":15852:15924   */\n      tag_185\n      jump\t// in\n    tag_371:\n        /* \"#utility.yul\":15934:16006   */\n      tag_372\n        /* \"#utility.yul\":16002:16004   */\n      0x40\n        /* \"#utility.yul\":15991:16000   */\n      dup4\n        /* \"#utility.yul\":15987:16005   */\n      add\n        /* \"#utility.yul\":15978:15984   */\n      dup5\n        /* \"#utility.yul\":15934:16006   */\n      tag_190\n      jump\t// in\n    tag_372:\n        /* \"#utility.yul\":15571:16013   */\n      swap5\n      swap4\n      pop\n      pop\n      pop\n      pop\n      jump\t// out\n        /* \"#utility.yul\":16019:16192   */\n    tag_209:\n        /* \"#utility.yul\":16159:16184   */\n      0x6265796f6e64207468652061756374696f6e2074696d65000000000000000000\n        /* \"#utility.yul\":16155:16156   */\n      0x00\n        /* \"#utility.yul\":16147:16153   */\n      dup3\n        /* \"#utility.yul\":16143:16157   */\n      add\n        /* \"#utility.yul\":16136:16185   */\n      mstore\n        /* \"#utility.yul\":16019:16192   */\n      pop\n      jump\t// out\n        /* \"#utility.yul\":16198:16564   */\n    tag_210:\n        /* \"#utility.yul\":16340:16343   */\n      0x00\n        /* \"#utility.yul\":16361:16428   */\n      tag_375\n        /* \"#utility.yul\":16425:16427   */\n      0x17\n        /* \"#utility.yul\":16420:16423   */\n      dup4\n        /* \"#utility.yul\":16361:16428   */\n      tag_193\n      jump\t// in\n    tag_375:\n        /* \"#utility.yul\":16354:16428   */\n      swap2\n      pop\n        /* \"#utility.yul\":16437:16530   */\n      tag_376\n        /* \"#utility.yul\":16526:16529   */\n      dup3\n        /* \"#utility.yul\":16437:16530   */\n      tag_209\n      jump\t// in\n    tag_376:\n        /* \"#utility.yul\":16555:16557   */\n      0x20\n        /* \"#utility.yul\":16550:16553   */\n      dup3\n        /* \"#utility.yul\":16546:16558   */\n      add\n        /* \"#utility.yul\":16539:16558   */\n      swap1\n      pop\n        /* \"#utility.yul\":16198:16564   */\n      swap2\n      swap1\n      pop\n      jump\t// out\n        /* \"#utility.yul\":16570:16989   */\n    tag_140:\n        /* \"#utility.yul\":16736:16740   */\n      0x00\n        /* \"#utility.yul\":16774:16776   */\n      0x20\n        /* \"#utility.yul\":16763:16772   */\n      dup3\n        /* \"#utility.yul\":16759:16777   */\n      add\n        /* \"#utility.yul\":16751:16777   */\n      swap1\n      pop\n        /* \"#utility.yul\":16823:16832   */\n      dup2\n        /* \"#utility.yul\":16817:16821   */\n      dup2\n        /* \"#utility.yul\":16813:16833   */\n      sub\n        /* \"#utility.yul\":16809:16810   */\n      0x00\n        /* \"#utility.yul\":16798:16807   */\n      dup4\n        /* \"#utility.yul\":16794:16811   */\n      add\n        /* \"#utility.yul\":16787:16834   */\n      mstore\n        /* \"#utility.yul\":16851:16982   */\n      tag_378\n        /* \"#utility.yul\":16977:16981   */\n      dup2\n        /* \"#utility.yul\":16851:16982   */\n      tag_210\n      jump\t// in\n    tag_378:\n        /* \"#utility.yul\":16843:16982   */\n      swap1\n      pop\n        /* \"#utility.yul\":16570:16989   */\n      swap2\n      swap1\n      pop\n      jump\t// out\n        /* \"#utility.yul\":16995:17217   */\n    tag_211:\n        /* \"#utility.yul\":17135:17169   */\n      0x6c657373207468616e207468652063757272656e74206d6178696d756d207072\n        /* \"#utility.yul\":17131:17132   */\n      0x00\n        /* \"#utility.yul\":17123:17129   */\n      dup3\n        /* \"#utility.yul\":17119:17133   */\n      add\n        /* \"#utility.yul\":17112:17170   */\n      mstore\n        /* \"#utility.yul\":17204:17209   */\n      0x6963650000000000000000000000000000000000000000000000000000000000\n        /* \"#utility.yul\":17199:17201   */\n      0x20\n        /* \"#utility.yul\":17191:17197   */\n      dup3\n        /* \"#utility.yul\":17187:17202   */\n      add\n        /* \"#utility.yul\":17180:17210   */\n      mstore\n        /* \"#utility.yul\":16995:17217   */\n      pop\n      jump\t// out\n        /* \"#utility.yul\":17223:17589   */\n    tag_212:\n        /* \"#utility.yul\":17365:17368   */\n      0x00\n        /* \"#utility.yul\":17386:17453   */\n      tag_381\n        /* \"#utility.yul\":17450:17452   */\n      0x23\n        /* \"#utility.yul\":17445:17448   */\n      dup4\n        /* \"#utility.yul\":17386:17453   */\n      tag_193\n      jump\t// in\n    tag_381:\n        /* \"#utility.yul\":17379:17453   */\n      swap2\n      pop\n        /* \"#utility.yul\":17462:17555   */\n      tag_382\n        /* \"#utility.yul\":17551:17554   */\n      dup3\n        /* \"#utility.yul\":17462:17555   */\n      tag_211\n      jump\t// in\n    tag_382:\n        /* \"#utility.yul\":17580:17582   */\n      0x40\n        /* \"#utility.yul\":17575:17578   */\n      dup3\n        /* \"#utility.yul\":17571:17583   */\n      add\n        /* \"#utility.yul\":17564:17583   */\n      swap1\n      pop\n        /* \"#utility.yul\":17223:17589   */\n      swap2\n      swap1\n      pop\n      jump\t// out\n        /* \"#utility.yul\":17595:18014   */\n    tag_143:\n        /* \"#utility.yul\":17761:17765   */\n      0x00\n        /* \"#utility.yul\":17799:17801   */\n      0x20\n        /* \"#utility.yul\":17788:17797   */\n      dup3\n        /* \"#utility.yul\":17784:17802   */\n      add\n        /* \"#utility.yul\":17776:17802   */\n      swap1\n      pop\n        /* \"#utility.yul\":17848:17857   */\n      dup2\n        /* \"#utility.yul\":17842:17846   */\n      dup2\n        /* \"#utility.yul\":17838:17858   */\n      sub\n        /* \"#utility.yul\":17834:17835   */\n      0x00\n        /* \"#utility.yul\":17823:17832   */\n      dup4\n        /* \"#utility.yul\":17819:17836   */\n      add\n        /* \"#utility.yul\":17812:17859   */\n      mstore\n        /* \"#utility.yul\":17876:18007   */\n      tag_384\n        /* \"#utility.yul\":18002:18006   */\n      dup2\n        /* \"#utility.yul\":17876:18007   */\n      tag_212\n      jump\t// in\n    tag_384:\n        /* \"#utility.yul\":17868:18007   */\n      swap1\n      pop\n        /* \"#utility.yul\":17595:18014   */\n      swap2\n      swap1\n      pop\n      jump\t// out\n        /* \"#utility.yul\":18020:18240   */\n    tag_213:\n        /* \"#utility.yul\":18160:18194   */\n      0x7468652063757272656e742074696d652063616e6e6f7420626520756e736f6c\n        /* \"#utility.yul\":18156:18157   */\n      0x00\n        /* \"#utility.yul\":18148:18154   */\n      dup3\n        /* \"#utility.yul\":18144:18158   */\n      add\n        /* \"#utility.yul\":18137:18195   */\n      mstore\n        /* \"#utility.yul\":18229:18232   */\n      0x6400000000000000000000000000000000000000000000000000000000000000\n        /* \"#utility.yul\":18224:18226   */\n      0x20\n        /* \"#utility.yul\":18216:18222   */\n      dup3\n        /* \"#utility.yul\":18212:18227   */\n      add\n        /* \"#utility.yul\":18205:18233   */\n      mstore\n        /* \"#utility.yul\":18020:18240   */\n      pop\n      jump\t// out\n        /* \"#utility.yul\":18246:18612   */\n    tag_214:\n        /* \"#utility.yul\":18388:18391   */\n      0x00\n        /* \"#utility.yul\":18409:18476   */\n      tag_387\n        /* \"#utility.yul\":18473:18475   */\n      0x21\n        /* \"#utility.yul\":18468:18471   */\n      dup4\n        /* \"#utility.yul\":18409:18476   */\n      tag_193\n      jump\t// in\n    tag_387:\n        /* \"#utility.yul\":18402:18476   */\n      swap2\n      pop\n        /* \"#utility.yul\":18485:18578   */\n      tag_388\n        /* \"#utility.yul\":18574:18577   */\n      dup3\n        /* \"#utility.yul\":18485:18578   */\n      tag_213\n      jump\t// in\n    tag_388:\n        /* \"#utility.yul\":18603:18605   */\n      0x40\n        /* \"#utility.yul\":18598:18601   */\n      dup3\n        /* \"#utility.yul\":18594:18606   */\n      add\n        /* \"#utility.yul\":18587:18606   */\n      swap1\n      pop\n        /* \"#utility.yul\":18246:18612   */\n      swap2\n      swap1\n      pop\n      jump\t// out\n        /* \"#utility.yul\":18618:19037   */\n    tag_152:\n        /* \"#utility.yul\":18784:18788   */\n      0x00\n        /* \"#utility.yul\":18822:18824   */\n      0x20\n        /* \"#utility.yul\":18811:18820   */\n      dup3\n        /* \"#utility.yul\":18807:18825   */\n      add\n        /* \"#utility.yul\":18799:18825   */\n      swap1\n      pop\n        /* \"#utility.yul\":18871:18880   */\n      dup2\n        /* \"#utility.yul\":18865:18869   */\n      dup2\n        /* \"#utility.yul\":18861:18881   */\n      sub\n        /* \"#utility.yul\":18857:18858   */\n      0x00\n        /* \"#utility.yul\":18846:18855   */\n      dup4\n        /* \"#utility.yul\":18842:18859   */\n      add\n        /* \"#utility.yul\":18835:18882   */\n      mstore\n        /* \"#utility.yul\":18899:19030   */\n      tag_390\n        /* \"#utility.yul\":19025:19029   */\n      dup2\n        /* \"#utility.yul\":18899:19030   */\n      tag_214\n      jump\t// in\n    tag_390:\n        /* \"#utility.yul\":18891:19030   */\n      swap1\n      pop\n        /* \"#utility.yul\":18618:19037   */\n      swap2\n      swap1\n      pop\n      jump\t// out\n        /* \"#utility.yul\":19043:19485   */\n    tag_155:\n        /* \"#utility.yul\":19192:19196   */\n      0x00\n        /* \"#utility.yul\":19230:19232   */\n      0x60\n        /* \"#utility.yul\":19219:19228   */\n      dup3\n        /* \"#utility.yul\":19215:19233   */\n      add\n        /* \"#utility.yul\":19207:19233   */\n      swap1\n      pop\n        /* \"#utility.yul\":19243:19314   */\n      tag_392\n        /* \"#utility.yul\":19311:19312   */\n      0x00\n        /* \"#utility.yul\":19300:19309   */\n      dup4\n        /* \"#utility.yul\":19296:19313   */\n      add\n        /* \"#utility.yul\":19287:19293   */\n      dup7\n        /* \"#utility.yul\":19243:19314   */\n      tag_190\n      jump\t// in\n    tag_392:\n        /* \"#utility.yul\":19324:19396   */\n      tag_393\n        /* \"#utility.yul\":19392:19394   */\n      0x20\n        /* \"#utility.yul\":19381:19390   */\n      dup4\n        /* \"#utility.yul\":19377:19395   */\n      add\n        /* \"#utility.yul\":19368:19374   */\n      dup6\n        /* \"#utility.yul\":19324:19396   */\n      tag_185\n      jump\t// in\n    tag_393:\n        /* \"#utility.yul\":19406:19478   */\n      tag_394\n        /* \"#utility.yul\":19474:19476   */\n      0x40\n        /* \"#utility.yul\":19463:19472   */\n      dup4\n        /* \"#utility.yul\":19459:19477   */\n      add\n        /* \"#utility.yul\":19450:19456   */\n      dup5\n        /* \"#utility.yul\":19406:19478   */\n      tag_185\n      jump\t// in\n    tag_394:\n        /* \"#utility.yul\":19043:19485   */\n      swap5\n      swap4\n      pop\n      pop\n      pop\n      pop\n      jump\t// out\n        /* \"#utility.yul\":19491:19671   */\n    tag_215:\n        /* \"#utility.yul\":19631:19663   */\n      0x43616e206e6f742066696e697368207468652061756374696f6e207965740000\n        /* \"#utility.yul\":19627:19628   */\n      0x00\n        /* \"#utility.yul\":19619:19625   */\n      dup3\n        /* \"#utility.yul\":19615:19629   */\n      add\n        /* \"#utility.yul\":19608:19664   */\n      mstore\n        /* \"#utility.yul\":19491:19671   */\n      pop\n      jump\t// out\n        /* \"#utility.yul\":19677:20043   */\n    tag_216:\n        /* \"#utility.yul\":19819:19822   */\n      0x00\n        /* \"#utility.yul\":19840:19907   */\n      tag_397\n        /* \"#utility.yul\":19904:19906   */\n      0x1e\n        /* \"#utility.yul\":19899:19902   */\n      dup4\n        /* \"#utility.yul\":19840:19907   */\n      tag_193\n      jump\t// in\n    tag_397:\n        /* \"#utility.yul\":19833:19907   */\n      swap2\n      pop\n        /* \"#utility.yul\":19916:20009   */\n      tag_398\n        /* \"#utility.yul\":20005:20008   */\n      dup3\n        /* \"#utility.yul\":19916:20009   */\n      tag_215\n      jump\t// in\n    tag_398:\n        /* \"#utility.yul\":20034:20036   */\n      0x20\n        /* \"#utility.yul\":20029:20032   */\n      dup3\n        /* \"#utility.yul\":20025:20037   */\n      add\n        /* \"#utility.yul\":20018:20037   */\n      swap1\n      pop\n        /* \"#utility.yul\":19677:20043   */\n      swap2\n      swap1\n      pop\n      jump\t// out\n        /* \"#utility.yul\":20049:20468   */\n    tag_159:\n        /* \"#utility.yul\":20215:20219   */\n      0x00\n        /* \"#utility.yul\":20253:20255   */\n      0x20\n        /* \"#utility.yul\":20242:20251   */\n      dup3\n        /* \"#utility.yul\":20238:20256   */\n      add\n        /* \"#utility.yul\":20230:20256   */\n      swap1\n      pop\n        /* \"#utility.yul\":20302:20311   */\n      dup2\n        /* \"#utility.yul\":20296:20300   */\n      dup2\n        /* \"#utility.yul\":20292:20312   */\n      sub\n        /* \"#utility.yul\":20288:20289   */\n      0x00\n        /* \"#utility.yul\":20277:20286   */\n      dup4\n        /* \"#utility.yul\":20273:20290   */\n      add\n        /* \"#utility.yul\":20266:20313   */\n      mstore\n        /* \"#utility.yul\":20330:20461   */\n      tag_400\n        /* \"#utility.yul\":20456:20460   */\n      dup2\n        /* \"#utility.yul\":20330:20461   */\n      tag_216\n      jump\t// in\n    tag_400:\n        /* \"#utility.yul\":20322:20461   */\n      swap1\n      pop\n        /* \"#utility.yul\":20049:20468   */\n      swap2\n      swap1\n      pop\n      jump\t// out\n        /* \"#utility.yul\":20474:20649   */\n    tag_217:\n        /* \"#utility.yul\":20614:20641   */\n      0x74686572652069732063757272656e746c79206e6f2062696400000000000000\n        /* \"#utility.yul\":20610:20611   */\n      0x00\n        /* \"#utility.yul\":20602:20608   */\n      dup3\n        /* \"#utility.yul\":20598:20612   */\n      add\n        /* \"#utility.yul\":20591:20642   */\n      mstore\n        /* \"#utility.yul\":20474:20649   */\n      pop\n      jump\t// out\n        /* \"#utility.yul\":20655:21021   */\n    tag_218:\n        /* \"#utility.yul\":20797:20800   */\n      0x00\n        /* \"#utility.yul\":20818:20885   */\n      tag_403\n        /* \"#utility.yul\":20882:20884   */\n      0x19\n        /* \"#utility.yul\":20877:20880   */\n      dup4\n        /* \"#utility.yul\":20818:20885   */\n      tag_193\n      jump\t// in\n    tag_403:\n        /* \"#utility.yul\":20811:20885   */\n      swap2\n      pop\n        /* \"#utility.yul\":20894:20987   */\n      tag_404\n        /* \"#utility.yul\":20983:20986   */\n      dup3\n        /* \"#utility.yul\":20894:20987   */\n      tag_217\n      jump\t// in\n    tag_404:\n        /* \"#utility.yul\":21012:21014   */\n      0x20\n        /* \"#utility.yul\":21007:21010   */\n      dup3\n        /* \"#utility.yul\":21003:21015   */\n      add\n        /* \"#utility.yul\":20996:21015   */\n      swap1\n      pop\n        /* \"#utility.yul\":20655:21021   */\n      swap2\n      swap1\n      pop\n      jump\t// out\n        /* \"#utility.yul\":21027:21446   */\n    tag_162:\n        /* \"#utility.yul\":21193:21197   */\n      0x00\n        /* \"#utility.yul\":21231:21233   */\n      0x20\n        /* \"#utility.yul\":21220:21229   */\n      dup3\n        /* \"#utility.yul\":21216:21234   */\n      add\n        /* \"#utility.yul\":21208:21234   */\n      swap1\n      pop\n        /* \"#utility.yul\":21280:21289   */\n      dup2\n        /* \"#utility.yul\":21274:21278   */\n      dup2\n        /* \"#utility.yul\":21270:21290   */\n      sub\n        /* \"#utility.yul\":21266:21267   */\n      0x00\n        /* \"#utility.yul\":21255:21264   */\n      dup4\n        /* \"#utility.yul\":21251:21268   */\n      add\n        /* \"#utility.yul\":21244:21291   */\n      mstore\n        /* \"#utility.yul\":21308:21439   */\n      tag_406\n        /* \"#utility.yul\":21434:21438   */\n      dup2\n        /* \"#utility.yul\":21308:21439   */\n      tag_218\n      jump\t// in\n    tag_406:\n        /* \"#utility.yul\":21300:21439   */\n      swap1\n      pop\n        /* \"#utility.yul\":21027:21446   */\n      swap2\n      swap1\n      pop\n      jump\t// out\n\n    auxdata: 0xa2646970667358221220949e23a59c6393f20fbf4724748e2d18220cbe8e84b10f1393942ab0ced535eb64736f6c63430008120033\n}\n",
				"bytecode": {
					"linkReferences": {},
					"object": "608060405234801561001057600080fd5b50612725806100206000396000f3fe608060405234801561001057600080fd5b50600436106100cf5760003560e01c80639f4d56281161008c578063b9a2de3a11610066578063b9a2de3a146101d9578063de74e57b146101f5578063e770523b1461022d578063f0b5f6711461024b576100cf565b80639f4d56281461016c578063a279f74a1461018a578063a83733a4146101a6576100cf565b80631d85bf03146100d4578063231701e9146100f057806324780c561461010e578063305a67a81461012a5780633ccfd60b14610146578063598647f814610150575b600080fd5b6100ee60048036038101906100e99190611c42565b610269565b005b6100f861066e565b6040516101059190611c91565b60405180910390f35b61012860048036038101906101239190611d0a565b610674565b005b610144600480360381019061013f9190611d5d565b610ab3565b005b61014e610db4565b005b61016a60048036038101906101659190611c42565b610eeb565b005b610174611139565b6040516101819190611d99565b60405180910390f35b6101a4600480360381019061019f9190611d5d565b61115d565b005b6101c060048036038101906101bb9190611d5d565b611379565b6040516101d09493929190611db4565b60405180910390f35b6101f360048036038101906101ee9190611d5d565b6113a9565b005b61020f600480360381019061020a9190611d5d565b61176e565b60405161022499989796959493929190611df9565b60405180910390f35b61023561181c565b6040516102429190611c91565b60405180910390f35b61025361189a565b6040516102609190611d99565b60405180910390f35b600060036000848152602001908152602001600020604051806101200160405290816000820160009054906101000a900473ffffffffffffffffffffffffffffffffffffffff1673ffffffffffffffffffffffffffffffffffffffff1673ffffffffffffffffffffffffffffffffffffffff16815260200160018201548152602001600282015481526020016003820160009054906101000a900473ffffffffffffffffffffffffffffffffffffffff1673ffffffffffffffffffffffffffffffffffffffff1673ffffffffffffffffffffffffffffffffffffffff1681526020016004820154815260200160058201548152602001600682015481526020016007820160009054906101000a900473ffffffffffffffffffffffffffffffffffffffff1673ffffffffffffffffffffffffffffffffffffffff1673ffffffffffffffffffffffffffffffffffffffff1681526020016008820154815250509050600a600982608001516103dd9190611eb5565b6103e79190611f26565b8214610428576040517f08c379a000000000000000000000000000000000000000000000000000000000815260040161041f90611fb4565b60405180910390fd5b600081602001511161046f576040517f08c379a000000000000000000000000000000000000000000000000000000000815260040161046690612020565b60405180910390fd5b8060c001514211801561049357506202a3008160c001516104909190612040565b42105b6104d2576040517f08c379a00000000000000000000000000000000000000000000000000000000081526004016104c9906120c0565b60405180910390fd5b600160009054906101000a900473ffffffffffffffffffffffffffffffffffffffff1673ffffffffffffffffffffffffffffffffffffffff1663a9059cbb8260600151846040518363ffffffff1660e01b81526004016105339291906120e0565b6020604051808303816000875af1158015610552573d6000803e3d6000fd5b505050506040513d601f19601f820116820180604052508101906105769190612141565b50806000015173ffffffffffffffffffffffffffffffffffffffff166342842e0e82606001513384604001516040518463ffffffff1660e01b81526004016105c09392919061216e565b600060405180830381600087803b1580156105da57600080fd5b505af11580156105ee573d6000803e3d6000fd5b50505050600081604001519050610604846118c0565b837f3c98c596b11c3fa99a2908d3290a426e0bf64d9418c735d96d8731f3e1bae07283600001518360008054906101000a900473ffffffffffffffffffffffffffffffffffffffff1633886040516106609594939291906121a5565b60405180910390a250505050565b60065481565b60008054906101000a900473ffffffffffffffffffffffffffffffffffffffff1673ffffffffffffffffffffffffffffffffffffffff163373ffffffffffffffffffffffffffffffffffffffff16146106cc57600080fd5b6000811161070f576040517f08c379a000000000000000000000000000000000000000000000000000000000815260040161070690612244565b60405180910390fd5b6000600460008573ffffffffffffffffffffffffffffffffffffffff1673ffffffffffffffffffffffffffffffffffffffff168152602001908152602001600020600084815260200190815260200160002054146107a2576040517f08c379a0000000000000000000000000000000000000000000000000000000008152600401610799906122b0565b60405180910390fd5b8273ffffffffffffffffffffffffffffffffffffffff1663095ea7b330846040518363ffffffff1660e01b81526004016107dd9291906120e0565b600060405180830381600087803b1580156107f757600080fd5b505af115801561080b573d6000803e3d6000fd5b5050505060066000815480929190610822906122d0565b9190505550600042905060405180608001604052806006548152602001600160065461084e9190612318565b815260200160016006546108629190612040565b815260200182815250600260006006548152602001908152602001600020600082015181600001556020820151816001015560408201518160020155606082015181600301559050506040518061012001604052808573ffffffffffffffffffffffffffffffffffffffff16815260200160065481526020018481526020013373ffffffffffffffffffffffffffffffffffffffff1681526020018381526020018281526020016202a300836109189190612040565b8152602001600073ffffffffffffffffffffffffffffffffffffffff168152602001600081525060036000600654815260200190815260200160002060008201518160000160006101000a81548173ffffffffffffffffffffffffffffffffffffffff021916908373ffffffffffffffffffffffffffffffffffffffff160217905550602082015181600101556040820151816002015560608201518160030160006101000a81548173ffffffffffffffffffffffffffffffffffffffff021916908373ffffffffffffffffffffffffffffffffffffffff1602179055506080820151816004015560a0820151816005015560c0820151816006015560e08201518160070160006101000a81548173ffffffffffffffffffffffffffffffffffffffff021916908373ffffffffffffffffffffffffffffffffffffffff16021790555061010082015181600801559050506006547f080d1128d02e035a0df5f38cbee139fe52eb0f3d7c248074c2c9ba328ea0532c858584853388604051610aa59695949392919061234c565b60405180910390a250505050565b60008054906101000a900473ffffffffffffffffffffffffffffffffffffffff1673ffffffffffffffffffffffffffffffffffffffff163373ffffffffffffffffffffffffffffffffffffffff1614610b0b57600080fd5b600060036000838152602001908152602001600020604051806101200160405290816000820160009054906101000a900473ffffffffffffffffffffffffffffffffffffffff1673ffffffffffffffffffffffffffffffffffffffff1673ffffffffffffffffffffffffffffffffffffffff16815260200160018201548152602001600282015481526020016003820160009054906101000a900473ffffffffffffffffffffffffffffffffffffffff1673ffffffffffffffffffffffffffffffffffffffff1673ffffffffffffffffffffffffffffffffffffffff1681526020016004820154815260200160058201548152602001600682015481526020016007820160009054906101000a900473ffffffffffffffffffffffffffffffffffffffff1673ffffffffffffffffffffffffffffffffffffffff1673ffffffffffffffffffffffffffffffffffffffff16815260200160088201548152505090506000816020015111610cb3576040517f08c379a0000000000000000000000000000000000000000000000000000000008152600401610caa90612020565b60405180910390fd5b3373ffffffffffffffffffffffffffffffffffffffff166003600084815260200190815260200160002060030160009054906101000a900473ffffffffffffffffffffffffffffffffffffffff1673ffffffffffffffffffffffffffffffffffffffff1614610d57576040517f08c379a0000000000000000000000000000000000000000000000000000000008152600401610d4e906123f9565b60405180910390fd5b600081600001519050600082604001519050610d72846118c0565b837f2735f46c1f6c3eddf164a36ab8a51dfa05510923312e92a4e634e13d9b659078838333604051610da693929190612419565b60405180910390a250505050565b6000600560003373ffffffffffffffffffffffffffffffffffffffff1673ffffffffffffffffffffffffffffffffffffffff1681526020019081526020016000205490506000811115610ee8576000600560003373ffffffffffffffffffffffffffffffffffffffff1673ffffffffffffffffffffffffffffffffffffffff16815260200190815260200160002081905550600160009054906101000a900473ffffffffffffffffffffffffffffffffffffffff1673ffffffffffffffffffffffffffffffffffffffff1663a9059cbb33836040518363ffffffff1660e01b8152600401610ea39291906120e0565b6020604051808303816000875af1158015610ec2573d6000803e3d6000fd5b505050506040513d601f19601f82011682018060405250810190610ee69190612141565b505b50565b60006003600084815260200190815260200160002090506000816001015411610f49576040517f08c379a0000000000000000000000000000000000000000000000000000000008152600401610f4090612020565b60405180910390fd5b600042905081600601548110610f94576040517f08c379a0000000000000000000000000000000000000000000000000000000008152600401610f8b9061249c565b60405180910390fd5b81600801548311610fda576040517f08c379a0000000000000000000000000000000000000000000000000000000008152600401610fd19061252e565b60405180910390fd5b600160009054906101000a900473ffffffffffffffffffffffffffffffffffffffff1673ffffffffffffffffffffffffffffffffffffffff1663a9059cbb30856040518363ffffffff1660e01b81526004016110379291906120e0565b6020604051808303816000875af1158015611056573d6000803e3d6000fd5b505050506040513d601f19601f8201168201806040525081019061107a9190612141565b508160080154600560008460070160009054906101000a900473ffffffffffffffffffffffffffffffffffffffff1673ffffffffffffffffffffffffffffffffffffffff1673ffffffffffffffffffffffffffffffffffffffff16815260200190815260200160002081905550828260080181905550338260070160006101000a81548173ffffffffffffffffffffffffffffffffffffffff021916908373ffffffffffffffffffffffffffffffffffffffff16021790555050505050565b60008054906101000a900473ffffffffffffffffffffffffffffffffffffffff1681565b600060036000838152602001908152602001600020604051806101200160405290816000820160009054906101000a900473ffffffffffffffffffffffffffffffffffffffff1673ffffffffffffffffffffffffffffffffffffffff1673ffffffffffffffffffffffffffffffffffffffff16815260200160018201548152602001600282015481526020016003820160009054906101000a900473ffffffffffffffffffffffffffffffffffffffff1673ffffffffffffffffffffffffffffffffffffffff1673ffffffffffffffffffffffffffffffffffffffff1681526020016004820154815260200160058201548152602001600682015481526020016007820160009054906101000a900473ffffffffffffffffffffffffffffffffffffffff1673ffffffffffffffffffffffffffffffffffffffff1673ffffffffffffffffffffffffffffffffffffffff16815260200160088201548152505090506202a3008160c001516112d19190612040565b4211611312576040517f08c379a0000000000000000000000000000000000000000000000000000000008152600401611309906125c0565b60405180910390fd5b600081600001519050600082604001519050600083608001519050611336856118c0565b847fdb197d6a7c06544bfa7bed0df746cd958c5079cfbfa9cecb861b43c6f4e3e8ba84848460405161136a939291906125e0565b60405180910390a25050505050565b60026020528060005260406000206000915090508060000154908060010154908060020154908060030154905084565b600060036000838152602001908152602001600020604051806101200160405290816000820160009054906101000a900473ffffffffffffffffffffffffffffffffffffffff1673ffffffffffffffffffffffffffffffffffffffff1673ffffffffffffffffffffffffffffffffffffffff16815260200160018201548152602001600282015481526020016003820160009054906101000a900473ffffffffffffffffffffffffffffffffffffffff1673ffffffffffffffffffffffffffffffffffffffff1673ffffffffffffffffffffffffffffffffffffffff1681526020016004820154815260200160058201548152602001600682015481526020016007820160009054906101000a900473ffffffffffffffffffffffffffffffffffffffff1673ffffffffffffffffffffffffffffffffffffffff1673ffffffffffffffffffffffffffffffffffffffff16815260200160088201548152505090508060c001514211611550576040517f08c379a000000000000000000000000000000000000000000000000000000000815260040161154790612663565b60405180910390fd5b600073ffffffffffffffffffffffffffffffffffffffff168160e0015173ffffffffffffffffffffffffffffffffffffffff16036115c3576040517f08c379a00000000000000000000000000000000000000000000000000000000081526004016115ba906126cf565b60405180910390fd5b806000015173ffffffffffffffffffffffffffffffffffffffff166342842e0e82606001513384604001516040518463ffffffff1660e01b815260040161160c9392919061216e565b600060405180830381600087803b15801561162657600080fd5b505af115801561163a573d6000803e3d6000fd5b50505050600160009054906101000a900473ffffffffffffffffffffffffffffffffffffffff1673ffffffffffffffffffffffffffffffffffffffff1663a9059cbb82606001518361010001516040518363ffffffff1660e01b81526004016116a49291906120e0565b6020604051808303816000875af11580156116c3573d6000803e3d6000fd5b505050506040513d601f19601f820116820180604052508101906116e79190612141565b5060008161010001519050600082604001519050611704846118c0565b837f3c98c596b11c3fa99a2908d3290a426e0bf64d9418c735d96d8731f3e1bae07284600001518360008054906101000a900473ffffffffffffffffffffffffffffffffffffffff1633876040516117609594939291906121a5565b60405180910390a250505050565b60036020528060005260406000206000915090508060000160009054906101000a900473ffffffffffffffffffffffffffffffffffffffff16908060010154908060020154908060030160009054906101000a900473ffffffffffffffffffffffffffffffffffffffff16908060040154908060050154908060060154908060070160009054906101000a900473ffffffffffffffffffffffffffffffffffffffff16908060080154905089565b6000806000804290505b6202a300816118359190612040565b6002600060026000878152602001908152602001600020600201548152602001908152602001600020600301541115611894578180611873906122d0565b92505060026000848152602001908152602001600020600201549250611826565b50505090565b600160009054906101000a900473ffffffffffffffffffffffffffffffffffffffff1681565b600060036000838152602001908152602001600020604051806101200160405290816000820160009054906101000a900473ffffffffffffffffffffffffffffffffffffffff1673ffffffffffffffffffffffffffffffffffffffff1673ffffffffffffffffffffffffffffffffffffffff16815260200160018201548152602001600282015481526020016003820160009054906101000a900473ffffffffffffffffffffffffffffffffffffffff1673ffffffffffffffffffffffffffffffffffffffff1673ffffffffffffffffffffffffffffffffffffffff1681526020016004820154815260200160058201548152602001600682015481526020016007820160009054906101000a900473ffffffffffffffffffffffffffffffffffffffff1673ffffffffffffffffffffffffffffffffffffffff1673ffffffffffffffffffffffffffffffffffffffff1681526020016008820154815250509050600060026000848152602001908152602001600020604051806080016040529081600082015481526020016001820154815260200160028201548152602001600382015481525050905060008160200151905060008260400151905060026000868152602001908152602001600020600080820160009055600182016000905560028201600090556003820160009055505080600260008481526020019081526020016000206002018190555081600260008381526020019081526020016000206001018190555060046000856000015173ffffffffffffffffffffffffffffffffffffffff1673ffffffffffffffffffffffffffffffffffffffff1681526020019081526020016000206000856040015181526020019081526020016000206000905560036000868152602001908152602001600020600080820160006101000a81549073ffffffffffffffffffffffffffffffffffffffff0219169055600182016000905560028201600090556003820160006101000a81549073ffffffffffffffffffffffffffffffffffffffff02191690556004820160009055600582016000905560068201600090556007820160006101000a81549073ffffffffffffffffffffffffffffffffffffffff0219169055600882016000905550505050505050565b600080fd5b6000819050919050565b611c1f81611c0c565b8114611c2a57600080fd5b50565b600081359050611c3c81611c16565b92915050565b60008060408385031215611c5957611c58611c07565b5b6000611c6785828601611c2d565b9250506020611c7885828601611c2d565b9150509250929050565b611c8b81611c0c565b82525050565b6000602082019050611ca66000830184611c82565b92915050565b600073ffffffffffffffffffffffffffffffffffffffff82169050919050565b6000611cd782611cac565b9050919050565b611ce781611ccc565b8114611cf257600080fd5b50565b600081359050611d0481611cde565b92915050565b600080600060608486031215611d2357611d22611c07565b5b6000611d3186828701611cf5565b9350506020611d4286828701611c2d565b9250506040611d5386828701611c2d565b9150509250925092565b600060208284031215611d7357611d72611c07565b5b6000611d8184828501611c2d565b91505092915050565b611d9381611ccc565b82525050565b6000602082019050611dae6000830184611d8a565b92915050565b6000608082019050611dc96000830187611c82565b611dd66020830186611c82565b611de36040830185611c82565b611df06060830184611c82565b95945050505050565b600061012082019050611e0f600083018c611d8a565b611e1c602083018b611c82565b611e29604083018a611c82565b611e366060830189611d8a565b611e436080830188611c82565b611e5060a0830187611c82565b611e5d60c0830186611c82565b611e6a60e0830185611d8a565b611e78610100830184611c82565b9a9950505050505050505050565b7f4e487b7100000000000000000000000000000000000000000000000000000000600052601160045260246000fd5b6000611ec082611c0c565b9150611ecb83611c0c565b9250828202611ed981611c0c565b91508282048414831517611ef057611eef611e86565b5b5092915050565b7f4e487b7100000000000000000000000000000000000000000000000000000000600052601260045260246000fd5b6000611f3182611c0c565b9150611f3c83611c0c565b925082611f4c57611f4b611ef7565b5b828204905092915050565b600082825260208201905092915050565b7f496e76616c696420707269636500000000000000000000000000000000000000600082015250565b6000611f9e600d83611f57565b9150611fa982611f68565b602082019050919050565b60006020820190508181036000830152611fcd81611f91565b9050919050565b7f496e76616c6964206c697374696e670000000000000000000000000000000000600082015250565b600061200a600f83611f57565b915061201582611fd4565b602082019050919050565b6000602082019050818103600083015261203981611ffd565b9050919050565b600061204b82611c0c565b915061205683611c0c565b925082820190508082111561206e5761206d611e86565b5b92915050565b7f4c697374696e6720657870697265640000000000000000000000000000000000600082015250565b60006120aa600f83611f57565b91506120b582612074565b602082019050919050565b600060208201905081810360008301526120d98161209d565b9050919050565b60006040820190506120f56000830185611d8a565b6121026020830184611c82565b9392505050565b60008115159050919050565b61211e81612109565b811461212957600080fd5b50565b60008151905061213b81612115565b92915050565b60006020828403121561215757612156611c07565b5b60006121658482850161212c565b91505092915050565b60006060820190506121836000830186611d8a565b6121906020830185611d8a565b61219d6040830184611c82565b949350505050565b600060a0820190506121ba6000830188611d8a565b6121c76020830187611c82565b6121d46040830186611d8a565b6121e16060830185611d8a565b6121ee6080830184611c82565b9695505050505050565b7f5072696365206d75737420626520706f73697469766500000000000000000000600082015250565b600061222e601683611f57565b9150612239826121f8565b602082019050919050565b6000602082019050818103600083015261225d81612221565b9050919050565b7f416c7265616479206c6973746564000000000000000000000000000000000000600082015250565b600061229a600e83611f57565b91506122a582612264565b602082019050919050565b600060208201905081810360008301526122c98161228d565b9050919050565b60006122db82611c0c565b91507fffffffffffffffffffffffffffffffffffffffffffffffffffffffffffffffff820361230d5761230c611e86565b5b600182019050919050565b600061232382611c0c565b915061232e83611c0c565b925082820390508181111561234657612345611e86565b5b92915050565b600060c0820190506123616000830189611d8a565b61236e6020830188611c82565b61237b6040830187611c82565b6123886060830186611c82565b6123956080830185611d8a565b6123a260a0830184611c82565b979650505050505050565b7f4f6e6c79206f776e65722063616e2063616e63656c0000000000000000000000600082015250565b60006123e3601583611f57565b91506123ee826123ad565b602082019050919050565b60006020820190508181036000830152612412816123d6565b9050919050565b600060608201905061242e6000830186611d8a565b61243b6020830185611c82565b6124486040830184611d8a565b949350505050565b7f6265796f6e64207468652061756374696f6e2074696d65000000000000000000600082015250565b6000612486601783611f57565b915061249182612450565b602082019050919050565b600060208201905081810360008301526124b581612479565b9050919050565b7f6c657373207468616e207468652063757272656e74206d6178696d756d20707260008201527f6963650000000000000000000000000000000000000000000000000000000000602082015250565b6000612518602383611f57565b9150612523826124bc565b604082019050919050565b600060208201905081810360008301526125478161250b565b9050919050565b7f7468652063757272656e742074696d652063616e6e6f7420626520756e736f6c60008201527f6400000000000000000000000000000000000000000000000000000000000000602082015250565b60006125aa602183611f57565b91506125b58261254e565b604082019050919050565b600060208201905081810360008301526125d98161259d565b9050919050565b60006060820190506125f56000830186611d8a565b6126026020830185611c82565b61260f6040830184611c82565b949350505050565b7f43616e206e6f742066696e697368207468652061756374696f6e207965740000600082015250565b600061264d601e83611f57565b915061265882612617565b602082019050919050565b6000602082019050818103600083015261267c81612640565b9050919050565b7f74686572652069732063757272656e746c79206e6f2062696400000000000000600082015250565b60006126b9601983611f57565b91506126c482612683565b602082019050919050565b600060208201905081810360008301526126e8816126ac565b905091905056fea2646970667358221220949e23a59c6393f20fbf4724748e2d18220cbe8e84b10f1393942ab0ced535eb64736f6c63430008120033",
					"opcodes": "PUSH1 0x80 PUSH1 0x40 MSTORE CALLVALUE DUP1 ISZERO PUSH2 0x10 JUMPI PUSH1 0x0 DUP1 REVERT JUMPDEST POP PUSH2 0x2725 DUP1 PUSH2 0x20 PUSH1 0x0 CODECOPY PUSH1 0x0 RETURN INVALID PUSH1 0x80 PUSH1 0x40 MSTORE CALLVALUE DUP1 ISZERO PUSH2 0x10 JUMPI PUSH1 0x0 DUP1 REVERT JUMPDEST POP PUSH1 0x4 CALLDATASIZE LT PUSH2 0xCF JUMPI PUSH1 0x0 CALLDATALOAD PUSH1 0xE0 SHR DUP1 PUSH4 0x9F4D5628 GT PUSH2 0x8C JUMPI DUP1 PUSH4 0xB9A2DE3A GT PUSH2 0x66 JUMPI DUP1 PUSH4 0xB9A2DE3A EQ PUSH2 0x1D9 JUMPI DUP1 PUSH4 0xDE74E57B EQ PUSH2 0x1F5 JUMPI DUP1 PUSH4 0xE770523B EQ PUSH2 0x22D JUMPI DUP1 PUSH4 0xF0B5F671 EQ PUSH2 0x24B JUMPI PUSH2 0xCF JUMP JUMPDEST DUP1 PUSH4 0x9F4D5628 EQ PUSH2 0x16C JUMPI DUP1 PUSH4 0xA279F74A EQ PUSH2 0x18A JUMPI DUP1 PUSH4 0xA83733A4 EQ PUSH2 0x1A6 JUMPI PUSH2 0xCF JUMP JUMPDEST DUP1 PUSH4 0x1D85BF03 EQ PUSH2 0xD4 JUMPI DUP1 PUSH4 0x231701E9 EQ PUSH2 0xF0 JUMPI DUP1 PUSH4 0x24780C56 EQ PUSH2 0x10E JUMPI DUP1 PUSH4 0x305A67A8 EQ PUSH2 0x12A JUMPI DUP1 PUSH4 0x3CCFD60B EQ PUSH2 0x146 JUMPI DUP1 PUSH4 0x598647F8 EQ PUSH2 0x150 JUMPI JUMPDEST PUSH1 0x0 DUP1 REVERT JUMPDEST PUSH2 0xEE PUSH1 0x4 DUP1 CALLDATASIZE SUB DUP2 ADD SWAP1 PUSH2 0xE9 SWAP2 SWAP1 PUSH2 0x1C42 JUMP JUMPDEST PUSH2 0x269 JUMP JUMPDEST STOP JUMPDEST PUSH2 0xF8 PUSH2 0x66E JUMP JUMPDEST PUSH1 0x40 MLOAD PUSH2 0x105 SWAP2 SWAP1 PUSH2 0x1C91 JUMP JUMPDEST PUSH1 0x40 MLOAD DUP1 SWAP2 SUB SWAP1 RETURN JUMPDEST PUSH2 0x128 PUSH1 0x4 DUP1 CALLDATASIZE SUB DUP2 ADD SWAP1 PUSH2 0x123 SWAP2 SWAP1 PUSH2 0x1D0A JUMP JUMPDEST PUSH2 0x674 JUMP JUMPDEST STOP JUMPDEST PUSH2 0x144 PUSH1 0x4 DUP1 CALLDATASIZE SUB DUP2 ADD SWAP1 PUSH2 0x13F SWAP2 SWAP1 PUSH2 0x1D5D JUMP JUMPDEST PUSH2 0xAB3 JUMP JUMPDEST STOP JUMPDEST PUSH2 0x14E PUSH2 0xDB4 JUMP JUMPDEST STOP JUMPDEST PUSH2 0x16A PUSH1 0x4 DUP1 CALLDATASIZE SUB DUP2 ADD SWAP1 PUSH2 0x165 SWAP2 SWAP1 PUSH2 0x1C42 JUMP JUMPDEST PUSH2 0xEEB JUMP JUMPDEST STOP JUMPDEST PUSH2 0x174 PUSH2 0x1139 JUMP JUMPDEST PUSH1 0x40 MLOAD PUSH2 0x181 SWAP2 SWAP1 PUSH2 0x1D99 JUMP JUMPDEST PUSH1 0x40 MLOAD DUP1 SWAP2 SUB SWAP1 RETURN JUMPDEST PUSH2 0x1A4 PUSH1 0x4 DUP1 CALLDATASIZE SUB DUP2 ADD SWAP1 PUSH2 0x19F SWAP2 SWAP1 PUSH2 0x1D5D JUMP JUMPDEST PUSH2 0x115D JUMP JUMPDEST STOP JUMPDEST PUSH2 0x1C0 PUSH1 0x4 DUP1 CALLDATASIZE SUB DUP2 ADD SWAP1 PUSH2 0x1BB SWAP2 SWAP1 PUSH2 0x1D5D JUMP JUMPDEST PUSH2 0x1379 JUMP JUMPDEST PUSH1 0x40 MLOAD PUSH2 0x1D0 SWAP5 SWAP4 SWAP3 SWAP2 SWAP1 PUSH2 0x1DB4 JUMP JUMPDEST PUSH1 0x40 MLOAD DUP1 SWAP2 SUB SWAP1 RETURN JUMPDEST PUSH2 0x1F3 PUSH1 0x4 DUP1 CALLDATASIZE SUB DUP2 ADD SWAP1 PUSH2 0x1EE SWAP2 SWAP1 PUSH2 0x1D5D JUMP JUMPDEST PUSH2 0x13A9 JUMP JUMPDEST STOP JUMPDEST PUSH2 0x20F PUSH1 0x4 DUP1 CALLDATASIZE SUB DUP2 ADD SWAP1 PUSH2 0x20A SWAP2 SWAP1 PUSH2 0x1D5D JUMP JUMPDEST PUSH2 0x176E JUMP JUMPDEST PUSH1 0x40 MLOAD PUSH2 0x224 SWAP10 SWAP9 SWAP8 SWAP7 SWAP6 SWAP5 SWAP4 SWAP3 SWAP2 SWAP1 PUSH2 0x1DF9 JUMP JUMPDEST PUSH1 0x40 MLOAD DUP1 SWAP2 SUB SWAP1 RETURN JUMPDEST PUSH2 0x235 PUSH2 0x181C JUMP JUMPDEST PUSH1 0x40 MLOAD PUSH2 0x242 SWAP2 SWAP1 PUSH2 0x1C91 JUMP JUMPDEST PUSH1 0x40 MLOAD DUP1 SWAP2 SUB SWAP1 RETURN JUMPDEST PUSH2 0x253 PUSH2 0x189A JUMP JUMPDEST PUSH1 0x40 MLOAD PUSH2 0x260 SWAP2 SWAP1 PUSH2 0x1D99 JUMP JUMPDEST PUSH1 0x40 MLOAD DUP1 SWAP2 SUB SWAP1 RETURN JUMPDEST PUSH1 0x0 PUSH1 0x3 PUSH1 0x0 DUP5 DUP2 MSTORE PUSH1 0x20 ADD SWAP1 DUP2 MSTORE PUSH1 0x20 ADD PUSH1 0x0 KECCAK256 PUSH1 0x40 MLOAD DUP1 PUSH2 0x120 ADD PUSH1 0x40 MSTORE SWAP1 DUP2 PUSH1 0x0 DUP3 ADD PUSH1 0x0 SWAP1 SLOAD SWAP1 PUSH2 0x100 EXP SWAP1 DIV PUSH20 0xFFFFFFFFFFFFFFFFFFFFFFFFFFFFFFFFFFFFFFFF AND PUSH20 0xFFFFFFFFFFFFFFFFFFFFFFFFFFFFFFFFFFFFFFFF AND PUSH20 0xFFFFFFFFFFFFFFFFFFFFFFFFFFFFFFFFFFFFFFFF AND DUP2 MSTORE PUSH1 0x20 ADD PUSH1 0x1 DUP3 ADD SLOAD DUP2 MSTORE PUSH1 0x20 ADD PUSH1 0x2 DUP3 ADD SLOAD DUP2 MSTORE PUSH1 0x20 ADD PUSH1 0x3 DUP3 ADD PUSH1 0x0 SWAP1 SLOAD SWAP1 PUSH2 0x100 EXP SWAP1 DIV PUSH20 0xFFFFFFFFFFFFFFFFFFFFFFFFFFFFFFFFFFFFFFFF AND PUSH20 0xFFFFFFFFFFFFFFFFFFFFFFFFFFFFFFFFFFFFFFFF AND PUSH20 0xFFFFFFFFFFFFFFFFFFFFFFFFFFFFFFFFFFFFFFFF AND DUP2 MSTORE PUSH1 0x20 ADD PUSH1 0x4 DUP3 ADD SLOAD DUP2 MSTORE PUSH1 0x20 ADD PUSH1 0x5 DUP3 ADD SLOAD DUP2 MSTORE PUSH1 0x20 ADD PUSH1 0x6 DUP3 ADD SLOAD DUP2 MSTORE PUSH1 0x20 ADD PUSH1 0x7 DUP3 ADD PUSH1 0x0 SWAP1 SLOAD SWAP1 PUSH2 0x100 EXP SWAP1 DIV PUSH20 0xFFFFFFFFFFFFFFFFFFFFFFFFFFFFFFFFFFFFFFFF AND PUSH20 0xFFFFFFFFFFFFFFFFFFFFFFFFFFFFFFFFFFFFFFFF AND PUSH20 0xFFFFFFFFFFFFFFFFFFFFFFFFFFFFFFFFFFFFFFFF AND DUP2 MSTORE PUSH1 0x20 ADD PUSH1 0x8 DUP3 ADD SLOAD DUP2 MSTORE POP POP SWAP1 POP PUSH1 0xA PUSH1 0x9 DUP3 PUSH1 0x80 ADD MLOAD PUSH2 0x3DD SWAP2 SWAP1 PUSH2 0x1EB5 JUMP JUMPDEST PUSH2 0x3E7 SWAP2 SWAP1 PUSH2 0x1F26 JUMP JUMPDEST DUP3 EQ PUSH2 0x428 JUMPI PUSH1 0x40 MLOAD PUSH32 0x8C379A000000000000000000000000000000000000000000000000000000000 DUP2 MSTORE PUSH1 0x4 ADD PUSH2 0x41F SWAP1 PUSH2 0x1FB4 JUMP JUMPDEST PUSH1 0x40 MLOAD DUP1 SWAP2 SUB SWAP1 REVERT JUMPDEST PUSH1 0x0 DUP2 PUSH1 0x20 ADD MLOAD GT PUSH2 0x46F JUMPI PUSH1 0x40 MLOAD PUSH32 0x8C379A000000000000000000000000000000000000000000000000000000000 DUP2 MSTORE PUSH1 0x4 ADD PUSH2 0x466 SWAP1 PUSH2 0x2020 JUMP JUMPDEST PUSH1 0x40 MLOAD DUP1 SWAP2 SUB SWAP1 REVERT JUMPDEST DUP1 PUSH1 0xC0 ADD MLOAD TIMESTAMP GT DUP1 ISZERO PUSH2 0x493 JUMPI POP PUSH3 0x2A300 DUP2 PUSH1 0xC0 ADD MLOAD PUSH2 0x490 SWAP2 SWAP1 PUSH2 0x2040 JUMP JUMPDEST TIMESTAMP LT JUMPDEST PUSH2 0x4D2 JUMPI PUSH1 0x40 MLOAD PUSH32 0x8C379A000000000000000000000000000000000000000000000000000000000 DUP2 MSTORE PUSH1 0x4 ADD PUSH2 0x4C9 SWAP1 PUSH2 0x20C0 JUMP JUMPDEST PUSH1 0x40 MLOAD DUP1 SWAP2 SUB SWAP1 REVERT JUMPDEST PUSH1 0x1 PUSH1 0x0 SWAP1 SLOAD SWAP1 PUSH2 0x100 EXP SWAP1 DIV PUSH20 0xFFFFFFFFFFFFFFFFFFFFFFFFFFFFFFFFFFFFFFFF AND PUSH20 0xFFFFFFFFFFFFFFFFFFFFFFFFFFFFFFFFFFFFFFFF AND PUSH4 0xA9059CBB DUP3 PUSH1 0x60 ADD MLOAD DUP5 PUSH1 0x40 MLOAD DUP4 PUSH4 0xFFFFFFFF AND PUSH1 0xE0 SHL DUP2 MSTORE PUSH1 0x4 ADD PUSH2 0x533 SWAP3 SWAP2 SWAP1 PUSH2 0x20E0 JUMP JUMPDEST PUSH1 0x20 PUSH1 0x40 MLOAD DUP1 DUP4 SUB DUP2 PUSH1 0x0 DUP8 GAS CALL ISZERO DUP1 ISZERO PUSH2 0x552 JUMPI RETURNDATASIZE PUSH1 0x0 DUP1 RETURNDATACOPY RETURNDATASIZE PUSH1 0x0 REVERT JUMPDEST POP POP POP POP PUSH1 0x40 MLOAD RETURNDATASIZE PUSH1 0x1F NOT PUSH1 0x1F DUP3 ADD AND DUP3 ADD DUP1 PUSH1 0x40 MSTORE POP DUP2 ADD SWAP1 PUSH2 0x576 SWAP2 SWAP1 PUSH2 0x2141 JUMP JUMPDEST POP DUP1 PUSH1 0x0 ADD MLOAD PUSH20 0xFFFFFFFFFFFFFFFFFFFFFFFFFFFFFFFFFFFFFFFF AND PUSH4 0x42842E0E DUP3 PUSH1 0x60 ADD MLOAD CALLER DUP5 PUSH1 0x40 ADD MLOAD PUSH1 0x40 MLOAD DUP5 PUSH4 0xFFFFFFFF AND PUSH1 0xE0 SHL DUP2 MSTORE PUSH1 0x4 ADD PUSH2 0x5C0 SWAP4 SWAP3 SWAP2 SWAP1 PUSH2 0x216E JUMP JUMPDEST PUSH1 0x0 PUSH1 0x40 MLOAD DUP1 DUP4 SUB DUP2 PUSH1 0x0 DUP8 DUP1 EXTCODESIZE ISZERO DUP1 ISZERO PUSH2 0x5DA JUMPI PUSH1 0x0 DUP1 REVERT JUMPDEST POP GAS CALL ISZERO DUP1 ISZERO PUSH2 0x5EE JUMPI RETURNDATASIZE PUSH1 0x0 DUP1 RETURNDATACOPY RETURNDATASIZE PUSH1 0x0 REVERT JUMPDEST POP POP POP POP PUSH1 0x0 DUP2 PUSH1 0x40 ADD MLOAD SWAP1 POP PUSH2 0x604 DUP5 PUSH2 0x18C0 JUMP JUMPDEST DUP4 PUSH32 0x3C98C596B11C3FA99A2908D3290A426E0BF64D9418C735D96D8731F3E1BAE072 DUP4 PUSH1 0x0 ADD MLOAD DUP4 PUSH1 0x0 DUP1 SLOAD SWAP1 PUSH2 0x100 EXP SWAP1 DIV PUSH20 0xFFFFFFFFFFFFFFFFFFFFFFFFFFFFFFFFFFFFFFFF AND CALLER DUP9 PUSH1 0x40 MLOAD PUSH2 0x660 SWAP6 SWAP5 SWAP4 SWAP3 SWAP2 SWAP1 PUSH2 0x21A5 JUMP JUMPDEST PUSH1 0x40 MLOAD DUP1 SWAP2 SUB SWAP1 LOG2 POP POP POP POP JUMP JUMPDEST PUSH1 0x6 SLOAD DUP2 JUMP JUMPDEST PUSH1 0x0 DUP1 SLOAD SWAP1 PUSH2 0x100 EXP SWAP1 DIV PUSH20 0xFFFFFFFFFFFFFFFFFFFFFFFFFFFFFFFFFFFFFFFF AND PUSH20 0xFFFFFFFFFFFFFFFFFFFFFFFFFFFFFFFFFFFFFFFF AND CALLER PUSH20 0xFFFFFFFFFFFFFFFFFFFFFFFFFFFFFFFFFFFFFFFF AND EQ PUSH2 0x6CC JUMPI PUSH1 0x0 DUP1 REVERT JUMPDEST PUSH1 0x0 DUP2 GT PUSH2 0x70F JUMPI PUSH1 0x40 MLOAD PUSH32 0x8C379A000000000000000000000000000000000000000000000000000000000 DUP2 MSTORE PUSH1 0x4 ADD PUSH2 0x706 SWAP1 PUSH2 0x2244 JUMP JUMPDEST PUSH1 0x40 MLOAD DUP1 SWAP2 SUB SWAP1 REVERT JUMPDEST PUSH1 0x0 PUSH1 0x4 PUSH1 0x0 DUP6 PUSH20 0xFFFFFFFFFFFFFFFFFFFFFFFFFFFFFFFFFFFFFFFF AND PUSH20 0xFFFFFFFFFFFFFFFFFFFFFFFFFFFFFFFFFFFFFFFF AND DUP2 MSTORE PUSH1 0x20 ADD SWAP1 DUP2 MSTORE PUSH1 0x20 ADD PUSH1 0x0 KECCAK256 PUSH1 0x0 DUP5 DUP2 MSTORE PUSH1 0x20 ADD SWAP1 DUP2 MSTORE PUSH1 0x20 ADD PUSH1 0x0 KECCAK256 SLOAD EQ PUSH2 0x7A2 JUMPI PUSH1 0x40 MLOAD PUSH32 0x8C379A000000000000000000000000000000000000000000000000000000000 DUP2 MSTORE PUSH1 0x4 ADD PUSH2 0x799 SWAP1 PUSH2 0x22B0 JUMP JUMPDEST PUSH1 0x40 MLOAD DUP1 SWAP2 SUB SWAP1 REVERT JUMPDEST DUP3 PUSH20 0xFFFFFFFFFFFFFFFFFFFFFFFFFFFFFFFFFFFFFFFF AND PUSH4 0x95EA7B3 ADDRESS DUP5 PUSH1 0x40 MLOAD DUP4 PUSH4 0xFFFFFFFF AND PUSH1 0xE0 SHL DUP2 MSTORE PUSH1 0x4 ADD PUSH2 0x7DD SWAP3 SWAP2 SWAP1 PUSH2 0x20E0 JUMP JUMPDEST PUSH1 0x0 PUSH1 0x40 MLOAD DUP1 DUP4 SUB DUP2 PUSH1 0x0 DUP8 DUP1 EXTCODESIZE ISZERO DUP1 ISZERO PUSH2 0x7F7 JUMPI PUSH1 0x0 DUP1 REVERT JUMPDEST POP GAS CALL ISZERO DUP1 ISZERO PUSH2 0x80B JUMPI RETURNDATASIZE PUSH1 0x0 DUP1 RETURNDATACOPY RETURNDATASIZE PUSH1 0x0 REVERT JUMPDEST POP POP POP POP PUSH1 0x6 PUSH1 0x0 DUP2 SLOAD DUP1 SWAP3 SWAP2 SWAP1 PUSH2 0x822 SWAP1 PUSH2 0x22D0 JUMP JUMPDEST SWAP2 SWAP1 POP SSTORE POP PUSH1 0x0 TIMESTAMP SWAP1 POP PUSH1 0x40 MLOAD DUP1 PUSH1 0x80 ADD PUSH1 0x40 MSTORE DUP1 PUSH1 0x6 SLOAD DUP2 MSTORE PUSH1 0x20 ADD PUSH1 0x1 PUSH1 0x6 SLOAD PUSH2 0x84E SWAP2 SWAP1 PUSH2 0x2318 JUMP JUMPDEST DUP2 MSTORE PUSH1 0x20 ADD PUSH1 0x1 PUSH1 0x6 SLOAD PUSH2 0x862 SWAP2 SWAP1 PUSH2 0x2040 JUMP JUMPDEST DUP2 MSTORE PUSH1 0x20 ADD DUP3 DUP2 MSTORE POP PUSH1 0x2 PUSH1 0x0 PUSH1 0x6 SLOAD DUP2 MSTORE PUSH1 0x20 ADD SWAP1 DUP2 MSTORE PUSH1 0x20 ADD PUSH1 0x0 KECCAK256 PUSH1 0x0 DUP3 ADD MLOAD DUP2 PUSH1 0x0 ADD SSTORE PUSH1 0x20 DUP3 ADD MLOAD DUP2 PUSH1 0x1 ADD SSTORE PUSH1 0x40 DUP3 ADD MLOAD DUP2 PUSH1 0x2 ADD SSTORE PUSH1 0x60 DUP3 ADD MLOAD DUP2 PUSH1 0x3 ADD SSTORE SWAP1 POP POP PUSH1 0x40 MLOAD DUP1 PUSH2 0x120 ADD PUSH1 0x40 MSTORE DUP1 DUP6 PUSH20 0xFFFFFFFFFFFFFFFFFFFFFFFFFFFFFFFFFFFFFFFF AND DUP2 MSTORE PUSH1 0x20 ADD PUSH1 0x6 SLOAD DUP2 MSTORE PUSH1 0x20 ADD DUP5 DUP2 MSTORE PUSH1 0x20 ADD CALLER PUSH20 0xFFFFFFFFFFFFFFFFFFFFFFFFFFFFFFFFFFFFFFFF AND DUP2 MSTORE PUSH1 0x20 ADD DUP4 DUP2 MSTORE PUSH1 0x20 ADD DUP3 DUP2 MSTORE PUSH1 0x20 ADD PUSH3 0x2A300 DUP4 PUSH2 0x918 SWAP2 SWAP1 PUSH2 0x2040 JUMP JUMPDEST DUP2 MSTORE PUSH1 0x20 ADD PUSH1 0x0 PUSH20 0xFFFFFFFFFFFFFFFFFFFFFFFFFFFFFFFFFFFFFFFF AND DUP2 MSTORE PUSH1 0x20 ADD PUSH1 0x0 DUP2 MSTORE POP PUSH1 0x3 PUSH1 0x0 PUSH1 0x6 SLOAD DUP2 MSTORE PUSH1 0x20 ADD SWAP1 DUP2 MSTORE PUSH1 0x20 ADD PUSH1 0x0 KECCAK256 PUSH1 0x0 DUP3 ADD MLOAD DUP2 PUSH1 0x0 ADD PUSH1 0x0 PUSH2 0x100 EXP DUP2 SLOAD DUP2 PUSH20 0xFFFFFFFFFFFFFFFFFFFFFFFFFFFFFFFFFFFFFFFF MUL NOT AND SWAP1 DUP4 PUSH20 0xFFFFFFFFFFFFFFFFFFFFFFFFFFFFFFFFFFFFFFFF AND MUL OR SWAP1 SSTORE POP PUSH1 0x20 DUP3 ADD MLOAD DUP2 PUSH1 0x1 ADD SSTORE PUSH1 0x40 DUP3 ADD MLOAD DUP2 PUSH1 0x2 ADD SSTORE PUSH1 0x60 DUP3 ADD MLOAD DUP2 PUSH1 0x3 ADD PUSH1 0x0 PUSH2 0x100 EXP DUP2 SLOAD DUP2 PUSH20 0xFFFFFFFFFFFFFFFFFFFFFFFFFFFFFFFFFFFFFFFF MUL NOT AND SWAP1 DUP4 PUSH20 0xFFFFFFFFFFFFFFFFFFFFFFFFFFFFFFFFFFFFFFFF AND MUL OR SWAP1 SSTORE POP PUSH1 0x80 DUP3 ADD MLOAD DUP2 PUSH1 0x4 ADD SSTORE PUSH1 0xA0 DUP3 ADD MLOAD DUP2 PUSH1 0x5 ADD SSTORE PUSH1 0xC0 DUP3 ADD MLOAD DUP2 PUSH1 0x6 ADD SSTORE PUSH1 0xE0 DUP3 ADD MLOAD DUP2 PUSH1 0x7 ADD PUSH1 0x0 PUSH2 0x100 EXP DUP2 SLOAD DUP2 PUSH20 0xFFFFFFFFFFFFFFFFFFFFFFFFFFFFFFFFFFFFFFFF MUL NOT AND SWAP1 DUP4 PUSH20 0xFFFFFFFFFFFFFFFFFFFFFFFFFFFFFFFFFFFFFFFF AND MUL OR SWAP1 SSTORE POP PUSH2 0x100 DUP3 ADD MLOAD DUP2 PUSH1 0x8 ADD SSTORE SWAP1 POP POP PUSH1 0x6 SLOAD PUSH32 0x80D1128D02E035A0DF5F38CBEE139FE52EB0F3D7C248074C2C9BA328EA0532C DUP6 DUP6 DUP5 DUP6 CALLER DUP9 PUSH1 0x40 MLOAD PUSH2 0xAA5 SWAP7 SWAP6 SWAP5 SWAP4 SWAP3 SWAP2 SWAP1 PUSH2 0x234C JUMP JUMPDEST PUSH1 0x40 MLOAD DUP1 SWAP2 SUB SWAP1 LOG2 POP POP POP POP JUMP JUMPDEST PUSH1 0x0 DUP1 SLOAD SWAP1 PUSH2 0x100 EXP SWAP1 DIV PUSH20 0xFFFFFFFFFFFFFFFFFFFFFFFFFFFFFFFFFFFFFFFF AND PUSH20 0xFFFFFFFFFFFFFFFFFFFFFFFFFFFFFFFFFFFFFFFF AND CALLER PUSH20 0xFFFFFFFFFFFFFFFFFFFFFFFFFFFFFFFFFFFFFFFF AND EQ PUSH2 0xB0B JUMPI PUSH1 0x0 DUP1 REVERT JUMPDEST PUSH1 0x0 PUSH1 0x3 PUSH1 0x0 DUP4 DUP2 MSTORE PUSH1 0x20 ADD SWAP1 DUP2 MSTORE PUSH1 0x20 ADD PUSH1 0x0 KECCAK256 PUSH1 0x40 MLOAD DUP1 PUSH2 0x120 ADD PUSH1 0x40 MSTORE SWAP1 DUP2 PUSH1 0x0 DUP3 ADD PUSH1 0x0 SWAP1 SLOAD SWAP1 PUSH2 0x100 EXP SWAP1 DIV PUSH20 0xFFFFFFFFFFFFFFFFFFFFFFFFFFFFFFFFFFFFFFFF AND PUSH20 0xFFFFFFFFFFFFFFFFFFFFFFFFFFFFFFFFFFFFFFFF AND PUSH20 0xFFFFFFFFFFFFFFFFFFFFFFFFFFFFFFFFFFFFFFFF AND DUP2 MSTORE PUSH1 0x20 ADD PUSH1 0x1 DUP3 ADD SLOAD DUP2 MSTORE PUSH1 0x20 ADD PUSH1 0x2 DUP3 ADD SLOAD DUP2 MSTORE PUSH1 0x20 ADD PUSH1 0x3 DUP3 ADD PUSH1 0x0 SWAP1 SLOAD SWAP1 PUSH2 0x100 EXP SWAP1 DIV PUSH20 0xFFFFFFFFFFFFFFFFFFFFFFFFFFFFFFFFFFFFFFFF AND PUSH20 0xFFFFFFFFFFFFFFFFFFFFFFFFFFFFFFFFFFFFFFFF AND PUSH20 0xFFFFFFFFFFFFFFFFFFFFFFFFFFFFFFFFFFFFFFFF AND DUP2 MSTORE PUSH1 0x20 ADD PUSH1 0x4 DUP3 ADD SLOAD DUP2 MSTORE PUSH1 0x20 ADD PUSH1 0x5 DUP3 ADD SLOAD DUP2 MSTORE PUSH1 0x20 ADD PUSH1 0x6 DUP3 ADD SLOAD DUP2 MSTORE PUSH1 0x20 ADD PUSH1 0x7 DUP3 ADD PUSH1 0x0 SWAP1 SLOAD SWAP1 PUSH2 0x100 EXP SWAP1 DIV PUSH20 0xFFFFFFFFFFFFFFFFFFFFFFFFFFFFFFFFFFFFFFFF AND PUSH20 0xFFFFFFFFFFFFFFFFFFFFFFFFFFFFFFFFFFFFFFFF AND PUSH20 0xFFFFFFFFFFFFFFFFFFFFFFFFFFFFFFFFFFFFFFFF AND DUP2 MSTORE PUSH1 0x20 ADD PUSH1 0x8 DUP3 ADD SLOAD DUP2 MSTORE POP POP SWAP1 POP PUSH1 0x0 DUP2 PUSH1 0x20 ADD MLOAD GT PUSH2 0xCB3 JUMPI PUSH1 0x40 MLOAD PUSH32 0x8C379A000000000000000000000000000000000000000000000000000000000 DUP2 MSTORE PUSH1 0x4 ADD PUSH2 0xCAA SWAP1 PUSH2 0x2020 JUMP JUMPDEST PUSH1 0x40 MLOAD DUP1 SWAP2 SUB SWAP1 REVERT JUMPDEST CALLER PUSH20 0xFFFFFFFFFFFFFFFFFFFFFFFFFFFFFFFFFFFFFFFF AND PUSH1 0x3 PUSH1 0x0 DUP5 DUP2 MSTORE PUSH1 0x20 ADD SWAP1 DUP2 MSTORE PUSH1 0x20 ADD PUSH1 0x0 KECCAK256 PUSH1 0x3 ADD PUSH1 0x0 SWAP1 SLOAD SWAP1 PUSH2 0x100 EXP SWAP1 DIV PUSH20 0xFFFFFFFFFFFFFFFFFFFFFFFFFFFFFFFFFFFFFFFF AND PUSH20 0xFFFFFFFFFFFFFFFFFFFFFFFFFFFFFFFFFFFFFFFF AND EQ PUSH2 0xD57 JUMPI PUSH1 0x40 MLOAD PUSH32 0x8C379A000000000000000000000000000000000000000000000000000000000 DUP2 MSTORE PUSH1 0x4 ADD PUSH2 0xD4E SWAP1 PUSH2 0x23F9 JUMP JUMPDEST PUSH1 0x40 MLOAD DUP1 SWAP2 SUB SWAP1 REVERT JUMPDEST PUSH1 0x0 DUP2 PUSH1 0x0 ADD MLOAD SWAP1 POP PUSH1 0x0 DUP3 PUSH1 0x40 ADD MLOAD SWAP1 POP PUSH2 0xD72 DUP5 PUSH2 0x18C0 JUMP JUMPDEST DUP4 PUSH32 0x2735F46C1F6C3EDDF164A36AB8A51DFA05510923312E92A4E634E13D9B659078 DUP4 DUP4 CALLER PUSH1 0x40 MLOAD PUSH2 0xDA6 SWAP4 SWAP3 SWAP2 SWAP1 PUSH2 0x2419 JUMP JUMPDEST PUSH1 0x40 MLOAD DUP1 SWAP2 SUB SWAP1 LOG2 POP POP POP POP JUMP JUMPDEST PUSH1 0x0 PUSH1 0x5 PUSH1 0x0 CALLER PUSH20 0xFFFFFFFFFFFFFFFFFFFFFFFFFFFFFFFFFFFFFFFF AND PUSH20 0xFFFFFFFFFFFFFFFFFFFFFFFFFFFFFFFFFFFFFFFF AND DUP2 MSTORE PUSH1 0x20 ADD SWAP1 DUP2 MSTORE PUSH1 0x20 ADD PUSH1 0x0 KECCAK256 SLOAD SWAP1 POP PUSH1 0x0 DUP2 GT ISZERO PUSH2 0xEE8 JUMPI PUSH1 0x0 PUSH1 0x5 PUSH1 0x0 CALLER PUSH20 0xFFFFFFFFFFFFFFFFFFFFFFFFFFFFFFFFFFFFFFFF AND PUSH20 0xFFFFFFFFFFFFFFFFFFFFFFFFFFFFFFFFFFFFFFFF AND DUP2 MSTORE PUSH1 0x20 ADD SWAP1 DUP2 MSTORE PUSH1 0x20 ADD PUSH1 0x0 KECCAK256 DUP2 SWAP1 SSTORE POP PUSH1 0x1 PUSH1 0x0 SWAP1 SLOAD SWAP1 PUSH2 0x100 EXP SWAP1 DIV PUSH20 0xFFFFFFFFFFFFFFFFFFFFFFFFFFFFFFFFFFFFFFFF AND PUSH20 0xFFFFFFFFFFFFFFFFFFFFFFFFFFFFFFFFFFFFFFFF AND PUSH4 0xA9059CBB CALLER DUP4 PUSH1 0x40 MLOAD DUP4 PUSH4 0xFFFFFFFF AND PUSH1 0xE0 SHL DUP2 MSTORE PUSH1 0x4 ADD PUSH2 0xEA3 SWAP3 SWAP2 SWAP1 PUSH2 0x20E0 JUMP JUMPDEST PUSH1 0x20 PUSH1 0x40 MLOAD DUP1 DUP4 SUB DUP2 PUSH1 0x0 DUP8 GAS CALL ISZERO DUP1 ISZERO PUSH2 0xEC2 JUMPI RETURNDATASIZE PUSH1 0x0 DUP1 RETURNDATACOPY RETURNDATASIZE PUSH1 0x0 REVERT JUMPDEST POP POP POP POP PUSH1 0x40 MLOAD RETURNDATASIZE PUSH1 0x1F NOT PUSH1 0x1F DUP3 ADD AND DUP3 ADD DUP1 PUSH1 0x40 MSTORE POP DUP2 ADD SWAP1 PUSH2 0xEE6 SWAP2 SWAP1 PUSH2 0x2141 JUMP JUMPDEST POP JUMPDEST POP JUMP JUMPDEST PUSH1 0x0 PUSH1 0x3 PUSH1 0x0 DUP5 DUP2 MSTORE PUSH1 0x20 ADD SWAP1 DUP2 MSTORE PUSH1 0x20 ADD PUSH1 0x0 KECCAK256 SWAP1 POP PUSH1 0x0 DUP2 PUSH1 0x1 ADD SLOAD GT PUSH2 0xF49 JUMPI PUSH1 0x40 MLOAD PUSH32 0x8C379A000000000000000000000000000000000000000000000000000000000 DUP2 MSTORE PUSH1 0x4 ADD PUSH2 0xF40 SWAP1 PUSH2 0x2020 JUMP JUMPDEST PUSH1 0x40 MLOAD DUP1 SWAP2 SUB SWAP1 REVERT JUMPDEST PUSH1 0x0 TIMESTAMP SWAP1 POP DUP2 PUSH1 0x6 ADD SLOAD DUP2 LT PUSH2 0xF94 JUMPI PUSH1 0x40 MLOAD PUSH32 0x8C379A000000000000000000000000000000000000000000000000000000000 DUP2 MSTORE PUSH1 0x4 ADD PUSH2 0xF8B SWAP1 PUSH2 0x249C JUMP JUMPDEST PUSH1 0x40 MLOAD DUP1 SWAP2 SUB SWAP1 REVERT JUMPDEST DUP2 PUSH1 0x8 ADD SLOAD DUP4 GT PUSH2 0xFDA JUMPI PUSH1 0x40 MLOAD PUSH32 0x8C379A000000000000000000000000000000000000000000000000000000000 DUP2 MSTORE PUSH1 0x4 ADD PUSH2 0xFD1 SWAP1 PUSH2 0x252E JUMP JUMPDEST PUSH1 0x40 MLOAD DUP1 SWAP2 SUB SWAP1 REVERT JUMPDEST PUSH1 0x1 PUSH1 0x0 SWAP1 SLOAD SWAP1 PUSH2 0x100 EXP SWAP1 DIV PUSH20 0xFFFFFFFFFFFFFFFFFFFFFFFFFFFFFFFFFFFFFFFF AND PUSH20 0xFFFFFFFFFFFFFFFFFFFFFFFFFFFFFFFFFFFFFFFF AND PUSH4 0xA9059CBB ADDRESS DUP6 PUSH1 0x40 MLOAD DUP4 PUSH4 0xFFFFFFFF AND PUSH1 0xE0 SHL DUP2 MSTORE PUSH1 0x4 ADD PUSH2 0x1037 SWAP3 SWAP2 SWAP1 PUSH2 0x20E0 JUMP JUMPDEST PUSH1 0x20 PUSH1 0x40 MLOAD DUP1 DUP4 SUB DUP2 PUSH1 0x0 DUP8 GAS CALL ISZERO DUP1 ISZERO PUSH2 0x1056 JUMPI RETURNDATASIZE PUSH1 0x0 DUP1 RETURNDATACOPY RETURNDATASIZE PUSH1 0x0 REVERT JUMPDEST POP POP POP POP PUSH1 0x40 MLOAD RETURNDATASIZE PUSH1 0x1F NOT PUSH1 0x1F DUP3 ADD AND DUP3 ADD DUP1 PUSH1 0x40 MSTORE POP DUP2 ADD SWAP1 PUSH2 0x107A SWAP2 SWAP1 PUSH2 0x2141 JUMP JUMPDEST POP DUP2 PUSH1 0x8 ADD SLOAD PUSH1 0x5 PUSH1 0x0 DUP5 PUSH1 0x7 ADD PUSH1 0x0 SWAP1 SLOAD SWAP1 PUSH2 0x100 EXP SWAP1 DIV PUSH20 0xFFFFFFFFFFFFFFFFFFFFFFFFFFFFFFFFFFFFFFFF AND PUSH20 0xFFFFFFFFFFFFFFFFFFFFFFFFFFFFFFFFFFFFFFFF AND PUSH20 0xFFFFFFFFFFFFFFFFFFFFFFFFFFFFFFFFFFFFFFFF AND DUP2 MSTORE PUSH1 0x20 ADD SWAP1 DUP2 MSTORE PUSH1 0x20 ADD PUSH1 0x0 KECCAK256 DUP2 SWAP1 SSTORE POP DUP3 DUP3 PUSH1 0x8 ADD DUP2 SWAP1 SSTORE POP CALLER DUP3 PUSH1 0x7 ADD PUSH1 0x0 PUSH2 0x100 EXP DUP2 SLOAD DUP2 PUSH20 0xFFFFFFFFFFFFFFFFFFFFFFFFFFFFFFFFFFFFFFFF MUL NOT AND SWAP1 DUP4 PUSH20 0xFFFFFFFFFFFFFFFFFFFFFFFFFFFFFFFFFFFFFFFF AND MUL OR SWAP1 SSTORE POP POP POP POP POP JUMP JUMPDEST PUSH1 0x0 DUP1 SLOAD SWAP1 PUSH2 0x100 EXP SWAP1 DIV PUSH20 0xFFFFFFFFFFFFFFFFFFFFFFFFFFFFFFFFFFFFFFFF AND DUP2 JUMP JUMPDEST PUSH1 0x0 PUSH1 0x3 PUSH1 0x0 DUP4 DUP2 MSTORE PUSH1 0x20 ADD SWAP1 DUP2 MSTORE PUSH1 0x20 ADD PUSH1 0x0 KECCAK256 PUSH1 0x40 MLOAD DUP1 PUSH2 0x120 ADD PUSH1 0x40 MSTORE SWAP1 DUP2 PUSH1 0x0 DUP3 ADD PUSH1 0x0 SWAP1 SLOAD SWAP1 PUSH2 0x100 EXP SWAP1 DIV PUSH20 0xFFFFFFFFFFFFFFFFFFFFFFFFFFFFFFFFFFFFFFFF AND PUSH20 0xFFFFFFFFFFFFFFFFFFFFFFFFFFFFFFFFFFFFFFFF AND PUSH20 0xFFFFFFFFFFFFFFFFFFFFFFFFFFFFFFFFFFFFFFFF AND DUP2 MSTORE PUSH1 0x20 ADD PUSH1 0x1 DUP3 ADD SLOAD DUP2 MSTORE PUSH1 0x20 ADD PUSH1 0x2 DUP3 ADD SLOAD DUP2 MSTORE PUSH1 0x20 ADD PUSH1 0x3 DUP3 ADD PUSH1 0x0 SWAP1 SLOAD SWAP1 PUSH2 0x100 EXP SWAP1 DIV PUSH20 0xFFFFFFFFFFFFFFFFFFFFFFFFFFFFFFFFFFFFFFFF AND PUSH20 0xFFFFFFFFFFFFFFFFFFFFFFFFFFFFFFFFFFFFFFFF AND PUSH20 0xFFFFFFFFFFFFFFFFFFFFFFFFFFFFFFFFFFFFFFFF AND DUP2 MSTORE PUSH1 0x20 ADD PUSH1 0x4 DUP3 ADD SLOAD DUP2 MSTORE PUSH1 0x20 ADD PUSH1 0x5 DUP3 ADD SLOAD DUP2 MSTORE PUSH1 0x20 ADD PUSH1 0x6 DUP3 ADD SLOAD DUP2 MSTORE PUSH1 0x20 ADD PUSH1 0x7 DUP3 ADD PUSH1 0x0 SWAP1 SLOAD SWAP1 PUSH2 0x100 EXP SWAP1 DIV PUSH20 0xFFFFFFFFFFFFFFFFFFFFFFFFFFFFFFFFFFFFFFFF AND PUSH20 0xFFFFFFFFFFFFFFFFFFFFFFFFFFFFFFFFFFFFFFFF AND PUSH20 0xFFFFFFFFFFFFFFFFFFFFFFFFFFFFFFFFFFFFFFFF AND DUP2 MSTORE PUSH1 0x20 ADD PUSH1 0x8 DUP3 ADD SLOAD DUP2 MSTORE POP POP SWAP1 POP PUSH3 0x2A300 DUP2 PUSH1 0xC0 ADD MLOAD PUSH2 0x12D1 SWAP2 SWAP1 PUSH2 0x2040 JUMP JUMPDEST TIMESTAMP GT PUSH2 0x1312 JUMPI PUSH1 0x40 MLOAD PUSH32 0x8C379A000000000000000000000000000000000000000000000000000000000 DUP2 MSTORE PUSH1 0x4 ADD PUSH2 0x1309 SWAP1 PUSH2 0x25C0 JUMP JUMPDEST PUSH1 0x40 MLOAD DUP1 SWAP2 SUB SWAP1 REVERT JUMPDEST PUSH1 0x0 DUP2 PUSH1 0x0 ADD MLOAD SWAP1 POP PUSH1 0x0 DUP3 PUSH1 0x40 ADD MLOAD SWAP1 POP PUSH1 0x0 DUP4 PUSH1 0x80 ADD MLOAD SWAP1 POP PUSH2 0x1336 DUP6 PUSH2 0x18C0 JUMP JUMPDEST DUP5 PUSH32 0xDB197D6A7C06544BFA7BED0DF746CD958C5079CFBFA9CECB861B43C6F4E3E8BA DUP5 DUP5 DUP5 PUSH1 0x40 MLOAD PUSH2 0x136A SWAP4 SWAP3 SWAP2 SWAP1 PUSH2 0x25E0 JUMP JUMPDEST PUSH1 0x40 MLOAD DUP1 SWAP2 SUB SWAP1 LOG2 POP POP POP POP POP JUMP JUMPDEST PUSH1 0x2 PUSH1 0x20 MSTORE DUP1 PUSH1 0x0 MSTORE PUSH1 0x40 PUSH1 0x0 KECCAK256 PUSH1 0x0 SWAP2 POP SWAP1 POP DUP1 PUSH1 0x0 ADD SLOAD SWAP1 DUP1 PUSH1 0x1 ADD SLOAD SWAP1 DUP1 PUSH1 0x2 ADD SLOAD SWAP1 DUP1 PUSH1 0x3 ADD SLOAD SWAP1 POP DUP5 JUMP JUMPDEST PUSH1 0x0 PUSH1 0x3 PUSH1 0x0 DUP4 DUP2 MSTORE PUSH1 0x20 ADD SWAP1 DUP2 MSTORE PUSH1 0x20 ADD PUSH1 0x0 KECCAK256 PUSH1 0x40 MLOAD DUP1 PUSH2 0x120 ADD PUSH1 0x40 MSTORE SWAP1 DUP2 PUSH1 0x0 DUP3 ADD PUSH1 0x0 SWAP1 SLOAD SWAP1 PUSH2 0x100 EXP SWAP1 DIV PUSH20 0xFFFFFFFFFFFFFFFFFFFFFFFFFFFFFFFFFFFFFFFF AND PUSH20 0xFFFFFFFFFFFFFFFFFFFFFFFFFFFFFFFFFFFFFFFF AND PUSH20 0xFFFFFFFFFFFFFFFFFFFFFFFFFFFFFFFFFFFFFFFF AND DUP2 MSTORE PUSH1 0x20 ADD PUSH1 0x1 DUP3 ADD SLOAD DUP2 MSTORE PUSH1 0x20 ADD PUSH1 0x2 DUP3 ADD SLOAD DUP2 MSTORE PUSH1 0x20 ADD PUSH1 0x3 DUP3 ADD PUSH1 0x0 SWAP1 SLOAD SWAP1 PUSH2 0x100 EXP SWAP1 DIV PUSH20 0xFFFFFFFFFFFFFFFFFFFFFFFFFFFFFFFFFFFFFFFF AND PUSH20 0xFFFFFFFFFFFFFFFFFFFFFFFFFFFFFFFFFFFFFFFF AND PUSH20 0xFFFFFFFFFFFFFFFFFFFFFFFFFFFFFFFFFFFFFFFF AND DUP2 MSTORE PUSH1 0x20 ADD PUSH1 0x4 DUP3 ADD SLOAD DUP2 MSTORE PUSH1 0x20 ADD PUSH1 0x5 DUP3 ADD SLOAD DUP2 MSTORE PUSH1 0x20 ADD PUSH1 0x6 DUP3 ADD SLOAD DUP2 MSTORE PUSH1 0x20 ADD PUSH1 0x7 DUP3 ADD PUSH1 0x0 SWAP1 SLOAD SWAP1 PUSH2 0x100 EXP SWAP1 DIV PUSH20 0xFFFFFFFFFFFFFFFFFFFFFFFFFFFFFFFFFFFFFFFF AND PUSH20 0xFFFFFFFFFFFFFFFFFFFFFFFFFFFFFFFFFFFFFFFF AND PUSH20 0xFFFFFFFFFFFFFFFFFFFFFFFFFFFFFFFFFFFFFFFF AND DUP2 MSTORE PUSH1 0x20 ADD PUSH1 0x8 DUP3 ADD SLOAD DUP2 MSTORE POP POP SWAP1 POP DUP1 PUSH1 0xC0 ADD MLOAD TIMESTAMP GT PUSH2 0x1550 JUMPI PUSH1 0x40 MLOAD PUSH32 0x8C379A000000000000000000000000000000000000000000000000000000000 DUP2 MSTORE PUSH1 0x4 ADD PUSH2 0x1547 SWAP1 PUSH2 0x2663 JUMP JUMPDEST PUSH1 0x40 MLOAD DUP1 SWAP2 SUB SWAP1 REVERT JUMPDEST PUSH1 0x0 PUSH20 0xFFFFFFFFFFFFFFFFFFFFFFFFFFFFFFFFFFFFFFFF AND DUP2 PUSH1 0xE0 ADD MLOAD PUSH20 0xFFFFFFFFFFFFFFFFFFFFFFFFFFFFFFFFFFFFFFFF AND SUB PUSH2 0x15C3 JUMPI PUSH1 0x40 MLOAD PUSH32 0x8C379A000000000000000000000000000000000000000000000000000000000 DUP2 MSTORE PUSH1 0x4 ADD PUSH2 0x15BA SWAP1 PUSH2 0x26CF JUMP JUMPDEST PUSH1 0x40 MLOAD DUP1 SWAP2 SUB SWAP1 REVERT JUMPDEST DUP1 PUSH1 0x0 ADD MLOAD PUSH20 0xFFFFFFFFFFFFFFFFFFFFFFFFFFFFFFFFFFFFFFFF AND PUSH4 0x42842E0E DUP3 PUSH1 0x60 ADD MLOAD CALLER DUP5 PUSH1 0x40 ADD MLOAD PUSH1 0x40 MLOAD DUP5 PUSH4 0xFFFFFFFF AND PUSH1 0xE0 SHL DUP2 MSTORE PUSH1 0x4 ADD PUSH2 0x160C SWAP4 SWAP3 SWAP2 SWAP1 PUSH2 0x216E JUMP JUMPDEST PUSH1 0x0 PUSH1 0x40 MLOAD DUP1 DUP4 SUB DUP2 PUSH1 0x0 DUP8 DUP1 EXTCODESIZE ISZERO DUP1 ISZERO PUSH2 0x1626 JUMPI PUSH1 0x0 DUP1 REVERT JUMPDEST POP GAS CALL ISZERO DUP1 ISZERO PUSH2 0x163A JUMPI RETURNDATASIZE PUSH1 0x0 DUP1 RETURNDATACOPY RETURNDATASIZE PUSH1 0x0 REVERT JUMPDEST POP POP POP POP PUSH1 0x1 PUSH1 0x0 SWAP1 SLOAD SWAP1 PUSH2 0x100 EXP SWAP1 DIV PUSH20 0xFFFFFFFFFFFFFFFFFFFFFFFFFFFFFFFFFFFFFFFF AND PUSH20 0xFFFFFFFFFFFFFFFFFFFFFFFFFFFFFFFFFFFFFFFF AND PUSH4 0xA9059CBB DUP3 PUSH1 0x60 ADD MLOAD DUP4 PUSH2 0x100 ADD MLOAD PUSH1 0x40 MLOAD DUP4 PUSH4 0xFFFFFFFF AND PUSH1 0xE0 SHL DUP2 MSTORE PUSH1 0x4 ADD PUSH2 0x16A4 SWAP3 SWAP2 SWAP1 PUSH2 0x20E0 JUMP JUMPDEST PUSH1 0x20 PUSH1 0x40 MLOAD DUP1 DUP4 SUB DUP2 PUSH1 0x0 DUP8 GAS CALL ISZERO DUP1 ISZERO PUSH2 0x16C3 JUMPI RETURNDATASIZE PUSH1 0x0 DUP1 RETURNDATACOPY RETURNDATASIZE PUSH1 0x0 REVERT JUMPDEST POP POP POP POP PUSH1 0x40 MLOAD RETURNDATASIZE PUSH1 0x1F NOT PUSH1 0x1F DUP3 ADD AND DUP3 ADD DUP1 PUSH1 0x40 MSTORE POP DUP2 ADD SWAP1 PUSH2 0x16E7 SWAP2 SWAP1 PUSH2 0x2141 JUMP JUMPDEST POP PUSH1 0x0 DUP2 PUSH2 0x100 ADD MLOAD SWAP1 POP PUSH1 0x0 DUP3 PUSH1 0x40 ADD MLOAD SWAP1 POP PUSH2 0x1704 DUP5 PUSH2 0x18C0 JUMP JUMPDEST DUP4 PUSH32 0x3C98C596B11C3FA99A2908D3290A426E0BF64D9418C735D96D8731F3E1BAE072 DUP5 PUSH1 0x0 ADD MLOAD DUP4 PUSH1 0x0 DUP1 SLOAD SWAP1 PUSH2 0x100 EXP SWAP1 DIV PUSH20 0xFFFFFFFFFFFFFFFFFFFFFFFFFFFFFFFFFFFFFFFF AND CALLER DUP8 PUSH1 0x40 MLOAD PUSH2 0x1760 SWAP6 SWAP5 SWAP4 SWAP3 SWAP2 SWAP1 PUSH2 0x21A5 JUMP JUMPDEST PUSH1 0x40 MLOAD DUP1 SWAP2 SUB SWAP1 LOG2 POP POP POP POP JUMP JUMPDEST PUSH1 0x3 PUSH1 0x20 MSTORE DUP1 PUSH1 0x0 MSTORE PUSH1 0x40 PUSH1 0x0 KECCAK256 PUSH1 0x0 SWAP2 POP SWAP1 POP DUP1 PUSH1 0x0 ADD PUSH1 0x0 SWAP1 SLOAD SWAP1 PUSH2 0x100 EXP SWAP1 DIV PUSH20 0xFFFFFFFFFFFFFFFFFFFFFFFFFFFFFFFFFFFFFFFF AND SWAP1 DUP1 PUSH1 0x1 ADD SLOAD SWAP1 DUP1 PUSH1 0x2 ADD SLOAD SWAP1 DUP1 PUSH1 0x3 ADD PUSH1 0x0 SWAP1 SLOAD SWAP1 PUSH2 0x100 EXP SWAP1 DIV PUSH20 0xFFFFFFFFFFFFFFFFFFFFFFFFFFFFFFFFFFFFFFFF AND SWAP1 DUP1 PUSH1 0x4 ADD SLOAD SWAP1 DUP1 PUSH1 0x5 ADD SLOAD SWAP1 DUP1 PUSH1 0x6 ADD SLOAD SWAP1 DUP1 PUSH1 0x7 ADD PUSH1 0x0 SWAP1 SLOAD SWAP1 PUSH2 0x100 EXP SWAP1 DIV PUSH20 0xFFFFFFFFFFFFFFFFFFFFFFFFFFFFFFFFFFFFFFFF AND SWAP1 DUP1 PUSH1 0x8 ADD SLOAD SWAP1 POP DUP10 JUMP JUMPDEST PUSH1 0x0 DUP1 PUSH1 0x0 DUP1 TIMESTAMP SWAP1 POP JUMPDEST PUSH3 0x2A300 DUP2 PUSH2 0x1835 SWAP2 SWAP1 PUSH2 0x2040 JUMP JUMPDEST PUSH1 0x2 PUSH1 0x0 PUSH1 0x2 PUSH1 0x0 DUP8 DUP2 MSTORE PUSH1 0x20 ADD SWAP1 DUP2 MSTORE PUSH1 0x20 ADD PUSH1 0x0 KECCAK256 PUSH1 0x2 ADD SLOAD DUP2 MSTORE PUSH1 0x20 ADD SWAP1 DUP2 MSTORE PUSH1 0x20 ADD PUSH1 0x0 KECCAK256 PUSH1 0x3 ADD SLOAD GT ISZERO PUSH2 0x1894 JUMPI DUP2 DUP1 PUSH2 0x1873 SWAP1 PUSH2 0x22D0 JUMP JUMPDEST SWAP3 POP POP PUSH1 0x2 PUSH1 0x0 DUP5 DUP2 MSTORE PUSH1 0x20 ADD SWAP1 DUP2 MSTORE PUSH1 0x20 ADD PUSH1 0x0 KECCAK256 PUSH1 0x2 ADD SLOAD SWAP3 POP PUSH2 0x1826 JUMP JUMPDEST POP POP POP SWAP1 JUMP JUMPDEST PUSH1 0x1 PUSH1 0x0 SWAP1 SLOAD SWAP1 PUSH2 0x100 EXP SWAP1 DIV PUSH20 0xFFFFFFFFFFFFFFFFFFFFFFFFFFFFFFFFFFFFFFFF AND DUP2 JUMP JUMPDEST PUSH1 0x0 PUSH1 0x3 PUSH1 0x0 DUP4 DUP2 MSTORE PUSH1 0x20 ADD SWAP1 DUP2 MSTORE PUSH1 0x20 ADD PUSH1 0x0 KECCAK256 PUSH1 0x40 MLOAD DUP1 PUSH2 0x120 ADD PUSH1 0x40 MSTORE SWAP1 DUP2 PUSH1 0x0 DUP3 ADD PUSH1 0x0 SWAP1 SLOAD SWAP1 PUSH2 0x100 EXP SWAP1 DIV PUSH20 0xFFFFFFFFFFFFFFFFFFFFFFFFFFFFFFFFFFFFFFFF AND PUSH20 0xFFFFFFFFFFFFFFFFFFFFFFFFFFFFFFFFFFFFFFFF AND PUSH20 0xFFFFFFFFFFFFFFFFFFFFFFFFFFFFFFFFFFFFFFFF AND DUP2 MSTORE PUSH1 0x20 ADD PUSH1 0x1 DUP3 ADD SLOAD DUP2 MSTORE PUSH1 0x20 ADD PUSH1 0x2 DUP3 ADD SLOAD DUP2 MSTORE PUSH1 0x20 ADD PUSH1 0x3 DUP3 ADD PUSH1 0x0 SWAP1 SLOAD SWAP1 PUSH2 0x100 EXP SWAP1 DIV PUSH20 0xFFFFFFFFFFFFFFFFFFFFFFFFFFFFFFFFFFFFFFFF AND PUSH20 0xFFFFFFFFFFFFFFFFFFFFFFFFFFFFFFFFFFFFFFFF AND PUSH20 0xFFFFFFFFFFFFFFFFFFFFFFFFFFFFFFFFFFFFFFFF AND DUP2 MSTORE PUSH1 0x20 ADD PUSH1 0x4 DUP3 ADD SLOAD DUP2 MSTORE PUSH1 0x20 ADD PUSH1 0x5 DUP3 ADD SLOAD DUP2 MSTORE PUSH1 0x20 ADD PUSH1 0x6 DUP3 ADD SLOAD DUP2 MSTORE PUSH1 0x20 ADD PUSH1 0x7 DUP3 ADD PUSH1 0x0 SWAP1 SLOAD SWAP1 PUSH2 0x100 EXP SWAP1 DIV PUSH20 0xFFFFFFFFFFFFFFFFFFFFFFFFFFFFFFFFFFFFFFFF AND PUSH20 0xFFFFFFFFFFFFFFFFFFFFFFFFFFFFFFFFFFFFFFFF AND PUSH20 0xFFFFFFFFFFFFFFFFFFFFFFFFFFFFFFFFFFFFFFFF AND DUP2 MSTORE PUSH1 0x20 ADD PUSH1 0x8 DUP3 ADD SLOAD DUP2 MSTORE POP POP SWAP1 POP PUSH1 0x0 PUSH1 0x2 PUSH1 0x0 DUP5 DUP2 MSTORE PUSH1 0x20 ADD SWAP1 DUP2 MSTORE PUSH1 0x20 ADD PUSH1 0x0 KECCAK256 PUSH1 0x40 MLOAD DUP1 PUSH1 0x80 ADD PUSH1 0x40 MSTORE SWAP1 DUP2 PUSH1 0x0 DUP3 ADD SLOAD DUP2 MSTORE PUSH1 0x20 ADD PUSH1 0x1 DUP3 ADD SLOAD DUP2 MSTORE PUSH1 0x20 ADD PUSH1 0x2 DUP3 ADD SLOAD DUP2 MSTORE PUSH1 0x20 ADD PUSH1 0x3 DUP3 ADD SLOAD DUP2 MSTORE POP POP SWAP1 POP PUSH1 0x0 DUP2 PUSH1 0x20 ADD MLOAD SWAP1 POP PUSH1 0x0 DUP3 PUSH1 0x40 ADD MLOAD SWAP1 POP PUSH1 0x2 PUSH1 0x0 DUP7 DUP2 MSTORE PUSH1 0x20 ADD SWAP1 DUP2 MSTORE PUSH1 0x20 ADD PUSH1 0x0 KECCAK256 PUSH1 0x0 DUP1 DUP3 ADD PUSH1 0x0 SWAP1 SSTORE PUSH1 0x1 DUP3 ADD PUSH1 0x0 SWAP1 SSTORE PUSH1 0x2 DUP3 ADD PUSH1 0x0 SWAP1 SSTORE PUSH1 0x3 DUP3 ADD PUSH1 0x0 SWAP1 SSTORE POP POP DUP1 PUSH1 0x2 PUSH1 0x0 DUP5 DUP2 MSTORE PUSH1 0x20 ADD SWAP1 DUP2 MSTORE PUSH1 0x20 ADD PUSH1 0x0 KECCAK256 PUSH1 0x2 ADD DUP2 SWAP1 SSTORE POP DUP2 PUSH1 0x2 PUSH1 0x0 DUP4 DUP2 MSTORE PUSH1 0x20 ADD SWAP1 DUP2 MSTORE PUSH1 0x20 ADD PUSH1 0x0 KECCAK256 PUSH1 0x1 ADD DUP2 SWAP1 SSTORE POP PUSH1 0x4 PUSH1 0x0 DUP6 PUSH1 0x0 ADD MLOAD PUSH20 0xFFFFFFFFFFFFFFFFFFFFFFFFFFFFFFFFFFFFFFFF AND PUSH20 0xFFFFFFFFFFFFFFFFFFFFFFFFFFFFFFFFFFFFFFFF AND DUP2 MSTORE PUSH1 0x20 ADD SWAP1 DUP2 MSTORE PUSH1 0x20 ADD PUSH1 0x0 KECCAK256 PUSH1 0x0 DUP6 PUSH1 0x40 ADD MLOAD DUP2 MSTORE PUSH1 0x20 ADD SWAP1 DUP2 MSTORE PUSH1 0x20 ADD PUSH1 0x0 KECCAK256 PUSH1 0x0 SWAP1 SSTORE PUSH1 0x3 PUSH1 0x0 DUP7 DUP2 MSTORE PUSH1 0x20 ADD SWAP1 DUP2 MSTORE PUSH1 0x20 ADD PUSH1 0x0 KECCAK256 PUSH1 0x0 DUP1 DUP3 ADD PUSH1 0x0 PUSH2 0x100 EXP DUP2 SLOAD SWAP1 PUSH20 0xFFFFFFFFFFFFFFFFFFFFFFFFFFFFFFFFFFFFFFFF MUL NOT AND SWAP1 SSTORE PUSH1 0x1 DUP3 ADD PUSH1 0x0 SWAP1 SSTORE PUSH1 0x2 DUP3 ADD PUSH1 0x0 SWAP1 SSTORE PUSH1 0x3 DUP3 ADD PUSH1 0x0 PUSH2 0x100 EXP DUP2 SLOAD SWAP1 PUSH20 0xFFFFFFFFFFFFFFFFFFFFFFFFFFFFFFFFFFFFFFFF MUL NOT AND SWAP1 SSTORE PUSH1 0x4 DUP3 ADD PUSH1 0x0 SWAP1 SSTORE PUSH1 0x5 DUP3 ADD PUSH1 0x0 SWAP1 SSTORE PUSH1 0x6 DUP3 ADD PUSH1 0x0 SWAP1 SSTORE PUSH1 0x7 DUP3 ADD PUSH1 0x0 PUSH2 0x100 EXP DUP2 SLOAD SWAP1 PUSH20 0xFFFFFFFFFFFFFFFFFFFFFFFFFFFFFFFFFFFFFFFF MUL NOT AND SWAP1 SSTORE PUSH1 0x8 DUP3 ADD PUSH1 0x0 SWAP1 SSTORE POP POP POP POP POP POP POP JUMP JUMPDEST PUSH1 0x0 DUP1 REVERT JUMPDEST PUSH1 0x0 DUP2 SWAP1 POP SWAP2 SWAP1 POP JUMP JUMPDEST PUSH2 0x1C1F DUP2 PUSH2 0x1C0C JUMP JUMPDEST DUP2 EQ PUSH2 0x1C2A JUMPI PUSH1 0x0 DUP1 REVERT JUMPDEST POP JUMP JUMPDEST PUSH1 0x0 DUP2 CALLDATALOAD SWAP1 POP PUSH2 0x1C3C DUP2 PUSH2 0x1C16 JUMP JUMPDEST SWAP3 SWAP2 POP POP JUMP JUMPDEST PUSH1 0x0 DUP1 PUSH1 0x40 DUP4 DUP6 SUB SLT ISZERO PUSH2 0x1C59 JUMPI PUSH2 0x1C58 PUSH2 0x1C07 JUMP JUMPDEST JUMPDEST PUSH1 0x0 PUSH2 0x1C67 DUP6 DUP3 DUP7 ADD PUSH2 0x1C2D JUMP JUMPDEST SWAP3 POP POP PUSH1 0x20 PUSH2 0x1C78 DUP6 DUP3 DUP7 ADD PUSH2 0x1C2D JUMP JUMPDEST SWAP2 POP POP SWAP3 POP SWAP3 SWAP1 POP JUMP JUMPDEST PUSH2 0x1C8B DUP2 PUSH2 0x1C0C JUMP JUMPDEST DUP3 MSTORE POP POP JUMP JUMPDEST PUSH1 0x0 PUSH1 0x20 DUP3 ADD SWAP1 POP PUSH2 0x1CA6 PUSH1 0x0 DUP4 ADD DUP5 PUSH2 0x1C82 JUMP JUMPDEST SWAP3 SWAP2 POP POP JUMP JUMPDEST PUSH1 0x0 PUSH20 0xFFFFFFFFFFFFFFFFFFFFFFFFFFFFFFFFFFFFFFFF DUP3 AND SWAP1 POP SWAP2 SWAP1 POP JUMP JUMPDEST PUSH1 0x0 PUSH2 0x1CD7 DUP3 PUSH2 0x1CAC JUMP JUMPDEST SWAP1 POP SWAP2 SWAP1 POP JUMP JUMPDEST PUSH2 0x1CE7 DUP2 PUSH2 0x1CCC JUMP JUMPDEST DUP2 EQ PUSH2 0x1CF2 JUMPI PUSH1 0x0 DUP1 REVERT JUMPDEST POP JUMP JUMPDEST PUSH1 0x0 DUP2 CALLDATALOAD SWAP1 POP PUSH2 0x1D04 DUP2 PUSH2 0x1CDE JUMP JUMPDEST SWAP3 SWAP2 POP POP JUMP JUMPDEST PUSH1 0x0 DUP1 PUSH1 0x0 PUSH1 0x60 DUP5 DUP7 SUB SLT ISZERO PUSH2 0x1D23 JUMPI PUSH2 0x1D22 PUSH2 0x1C07 JUMP JUMPDEST JUMPDEST PUSH1 0x0 PUSH2 0x1D31 DUP7 DUP3 DUP8 ADD PUSH2 0x1CF5 JUMP JUMPDEST SWAP4 POP POP PUSH1 0x20 PUSH2 0x1D42 DUP7 DUP3 DUP8 ADD PUSH2 0x1C2D JUMP JUMPDEST SWAP3 POP POP PUSH1 0x40 PUSH2 0x1D53 DUP7 DUP3 DUP8 ADD PUSH2 0x1C2D JUMP JUMPDEST SWAP2 POP POP SWAP3 POP SWAP3 POP SWAP3 JUMP JUMPDEST PUSH1 0x0 PUSH1 0x20 DUP3 DUP5 SUB SLT ISZERO PUSH2 0x1D73 JUMPI PUSH2 0x1D72 PUSH2 0x1C07 JUMP JUMPDEST JUMPDEST PUSH1 0x0 PUSH2 0x1D81 DUP5 DUP3 DUP6 ADD PUSH2 0x1C2D JUMP JUMPDEST SWAP2 POP POP SWAP3 SWAP2 POP POP JUMP JUMPDEST PUSH2 0x1D93 DUP2 PUSH2 0x1CCC JUMP JUMPDEST DUP3 MSTORE POP POP JUMP JUMPDEST PUSH1 0x0 PUSH1 0x20 DUP3 ADD SWAP1 POP PUSH2 0x1DAE PUSH1 0x0 DUP4 ADD DUP5 PUSH2 0x1D8A JUMP JUMPDEST SWAP3 SWAP2 POP POP JUMP JUMPDEST PUSH1 0x0 PUSH1 0x80 DUP3 ADD SWAP1 POP PUSH2 0x1DC9 PUSH1 0x0 DUP4 ADD DUP8 PUSH2 0x1C82 JUMP JUMPDEST PUSH2 0x1DD6 PUSH1 0x20 DUP4 ADD DUP7 PUSH2 0x1C82 JUMP JUMPDEST PUSH2 0x1DE3 PUSH1 0x40 DUP4 ADD DUP6 PUSH2 0x1C82 JUMP JUMPDEST PUSH2 0x1DF0 PUSH1 0x60 DUP4 ADD DUP5 PUSH2 0x1C82 JUMP JUMPDEST SWAP6 SWAP5 POP POP POP POP POP JUMP JUMPDEST PUSH1 0x0 PUSH2 0x120 DUP3 ADD SWAP1 POP PUSH2 0x1E0F PUSH1 0x0 DUP4 ADD DUP13 PUSH2 0x1D8A JUMP JUMPDEST PUSH2 0x1E1C PUSH1 0x20 DUP4 ADD DUP12 PUSH2 0x1C82 JUMP JUMPDEST PUSH2 0x1E29 PUSH1 0x40 DUP4 ADD DUP11 PUSH2 0x1C82 JUMP JUMPDEST PUSH2 0x1E36 PUSH1 0x60 DUP4 ADD DUP10 PUSH2 0x1D8A JUMP JUMPDEST PUSH2 0x1E43 PUSH1 0x80 DUP4 ADD DUP9 PUSH2 0x1C82 JUMP JUMPDEST PUSH2 0x1E50 PUSH1 0xA0 DUP4 ADD DUP8 PUSH2 0x1C82 JUMP JUMPDEST PUSH2 0x1E5D PUSH1 0xC0 DUP4 ADD DUP7 PUSH2 0x1C82 JUMP JUMPDEST PUSH2 0x1E6A PUSH1 0xE0 DUP4 ADD DUP6 PUSH2 0x1D8A JUMP JUMPDEST PUSH2 0x1E78 PUSH2 0x100 DUP4 ADD DUP5 PUSH2 0x1C82 JUMP JUMPDEST SWAP11 SWAP10 POP POP POP POP POP POP POP POP POP POP JUMP JUMPDEST PUSH32 0x4E487B7100000000000000000000000000000000000000000000000000000000 PUSH1 0x0 MSTORE PUSH1 0x11 PUSH1 0x4 MSTORE PUSH1 0x24 PUSH1 0x0 REVERT JUMPDEST PUSH1 0x0 PUSH2 0x1EC0 DUP3 PUSH2 0x1C0C JUMP JUMPDEST SWAP2 POP PUSH2 0x1ECB DUP4 PUSH2 0x1C0C JUMP JUMPDEST SWAP3 POP DUP3 DUP3 MUL PUSH2 0x1ED9 DUP2 PUSH2 0x1C0C JUMP JUMPDEST SWAP2 POP DUP3 DUP3 DIV DUP5 EQ DUP4 ISZERO OR PUSH2 0x1EF0 JUMPI PUSH2 0x1EEF PUSH2 0x1E86 JUMP JUMPDEST JUMPDEST POP SWAP3 SWAP2 POP POP JUMP JUMPDEST PUSH32 0x4E487B7100000000000000000000000000000000000000000000000000000000 PUSH1 0x0 MSTORE PUSH1 0x12 PUSH1 0x4 MSTORE PUSH1 0x24 PUSH1 0x0 REVERT JUMPDEST PUSH1 0x0 PUSH2 0x1F31 DUP3 PUSH2 0x1C0C JUMP JUMPDEST SWAP2 POP PUSH2 0x1F3C DUP4 PUSH2 0x1C0C JUMP JUMPDEST SWAP3 POP DUP3 PUSH2 0x1F4C JUMPI PUSH2 0x1F4B PUSH2 0x1EF7 JUMP JUMPDEST JUMPDEST DUP3 DUP3 DIV SWAP1 POP SWAP3 SWAP2 POP POP JUMP JUMPDEST PUSH1 0x0 DUP3 DUP3 MSTORE PUSH1 0x20 DUP3 ADD SWAP1 POP SWAP3 SWAP2 POP POP JUMP JUMPDEST PUSH32 0x496E76616C696420707269636500000000000000000000000000000000000000 PUSH1 0x0 DUP3 ADD MSTORE POP JUMP JUMPDEST PUSH1 0x0 PUSH2 0x1F9E PUSH1 0xD DUP4 PUSH2 0x1F57 JUMP JUMPDEST SWAP2 POP PUSH2 0x1FA9 DUP3 PUSH2 0x1F68 JUMP JUMPDEST PUSH1 0x20 DUP3 ADD SWAP1 POP SWAP2 SWAP1 POP JUMP JUMPDEST PUSH1 0x0 PUSH1 0x20 DUP3 ADD SWAP1 POP DUP2 DUP2 SUB PUSH1 0x0 DUP4 ADD MSTORE PUSH2 0x1FCD DUP2 PUSH2 0x1F91 JUMP JUMPDEST SWAP1 POP SWAP2 SWAP1 POP JUMP JUMPDEST PUSH32 0x496E76616C6964206C697374696E670000000000000000000000000000000000 PUSH1 0x0 DUP3 ADD MSTORE POP JUMP JUMPDEST PUSH1 0x0 PUSH2 0x200A PUSH1 0xF DUP4 PUSH2 0x1F57 JUMP JUMPDEST SWAP2 POP PUSH2 0x2015 DUP3 PUSH2 0x1FD4 JUMP JUMPDEST PUSH1 0x20 DUP3 ADD SWAP1 POP SWAP2 SWAP1 POP JUMP JUMPDEST PUSH1 0x0 PUSH1 0x20 DUP3 ADD SWAP1 POP DUP2 DUP2 SUB PUSH1 0x0 DUP4 ADD MSTORE PUSH2 0x2039 DUP2 PUSH2 0x1FFD JUMP JUMPDEST SWAP1 POP SWAP2 SWAP1 POP JUMP JUMPDEST PUSH1 0x0 PUSH2 0x204B DUP3 PUSH2 0x1C0C JUMP JUMPDEST SWAP2 POP PUSH2 0x2056 DUP4 PUSH2 0x1C0C JUMP JUMPDEST SWAP3 POP DUP3 DUP3 ADD SWAP1 POP DUP1 DUP3 GT ISZERO PUSH2 0x206E JUMPI PUSH2 0x206D PUSH2 0x1E86 JUMP JUMPDEST JUMPDEST SWAP3 SWAP2 POP POP JUMP JUMPDEST PUSH32 0x4C697374696E6720657870697265640000000000000000000000000000000000 PUSH1 0x0 DUP3 ADD MSTORE POP JUMP JUMPDEST PUSH1 0x0 PUSH2 0x20AA PUSH1 0xF DUP4 PUSH2 0x1F57 JUMP JUMPDEST SWAP2 POP PUSH2 0x20B5 DUP3 PUSH2 0x2074 JUMP JUMPDEST PUSH1 0x20 DUP3 ADD SWAP1 POP SWAP2 SWAP1 POP JUMP JUMPDEST PUSH1 0x0 PUSH1 0x20 DUP3 ADD SWAP1 POP DUP2 DUP2 SUB PUSH1 0x0 DUP4 ADD MSTORE PUSH2 0x20D9 DUP2 PUSH2 0x209D JUMP JUMPDEST SWAP1 POP SWAP2 SWAP1 POP JUMP JUMPDEST PUSH1 0x0 PUSH1 0x40 DUP3 ADD SWAP1 POP PUSH2 0x20F5 PUSH1 0x0 DUP4 ADD DUP6 PUSH2 0x1D8A JUMP JUMPDEST PUSH2 0x2102 PUSH1 0x20 DUP4 ADD DUP5 PUSH2 0x1C82 JUMP JUMPDEST SWAP4 SWAP3 POP POP POP JUMP JUMPDEST PUSH1 0x0 DUP2 ISZERO ISZERO SWAP1 POP SWAP2 SWAP1 POP JUMP JUMPDEST PUSH2 0x211E DUP2 PUSH2 0x2109 JUMP JUMPDEST DUP2 EQ PUSH2 0x2129 JUMPI PUSH1 0x0 DUP1 REVERT JUMPDEST POP JUMP JUMPDEST PUSH1 0x0 DUP2 MLOAD SWAP1 POP PUSH2 0x213B DUP2 PUSH2 0x2115 JUMP JUMPDEST SWAP3 SWAP2 POP POP JUMP JUMPDEST PUSH1 0x0 PUSH1 0x20 DUP3 DUP5 SUB SLT ISZERO PUSH2 0x2157 JUMPI PUSH2 0x2156 PUSH2 0x1C07 JUMP JUMPDEST JUMPDEST PUSH1 0x0 PUSH2 0x2165 DUP5 DUP3 DUP6 ADD PUSH2 0x212C JUMP JUMPDEST SWAP2 POP POP SWAP3 SWAP2 POP POP JUMP JUMPDEST PUSH1 0x0 PUSH1 0x60 DUP3 ADD SWAP1 POP PUSH2 0x2183 PUSH1 0x0 DUP4 ADD DUP7 PUSH2 0x1D8A JUMP JUMPDEST PUSH2 0x2190 PUSH1 0x20 DUP4 ADD DUP6 PUSH2 0x1D8A JUMP JUMPDEST PUSH2 0x219D PUSH1 0x40 DUP4 ADD DUP5 PUSH2 0x1C82 JUMP JUMPDEST SWAP5 SWAP4 POP POP POP POP JUMP JUMPDEST PUSH1 0x0 PUSH1 0xA0 DUP3 ADD SWAP1 POP PUSH2 0x21BA PUSH1 0x0 DUP4 ADD DUP9 PUSH2 0x1D8A JUMP JUMPDEST PUSH2 0x21C7 PUSH1 0x20 DUP4 ADD DUP8 PUSH2 0x1C82 JUMP JUMPDEST PUSH2 0x21D4 PUSH1 0x40 DUP4 ADD DUP7 PUSH2 0x1D8A JUMP JUMPDEST PUSH2 0x21E1 PUSH1 0x60 DUP4 ADD DUP6 PUSH2 0x1D8A JUMP JUMPDEST PUSH2 0x21EE PUSH1 0x80 DUP4 ADD DUP5 PUSH2 0x1C82 JUMP JUMPDEST SWAP7 SWAP6 POP POP POP POP POP POP JUMP JUMPDEST PUSH32 0x5072696365206D75737420626520706F73697469766500000000000000000000 PUSH1 0x0 DUP3 ADD MSTORE POP JUMP JUMPDEST PUSH1 0x0 PUSH2 0x222E PUSH1 0x16 DUP4 PUSH2 0x1F57 JUMP JUMPDEST SWAP2 POP PUSH2 0x2239 DUP3 PUSH2 0x21F8 JUMP JUMPDEST PUSH1 0x20 DUP3 ADD SWAP1 POP SWAP2 SWAP1 POP JUMP JUMPDEST PUSH1 0x0 PUSH1 0x20 DUP3 ADD SWAP1 POP DUP2 DUP2 SUB PUSH1 0x0 DUP4 ADD MSTORE PUSH2 0x225D DUP2 PUSH2 0x2221 JUMP JUMPDEST SWAP1 POP SWAP2 SWAP1 POP JUMP JUMPDEST PUSH32 0x416C7265616479206C6973746564000000000000000000000000000000000000 PUSH1 0x0 DUP3 ADD MSTORE POP JUMP JUMPDEST PUSH1 0x0 PUSH2 0x229A PUSH1 0xE DUP4 PUSH2 0x1F57 JUMP JUMPDEST SWAP2 POP PUSH2 0x22A5 DUP3 PUSH2 0x2264 JUMP JUMPDEST PUSH1 0x20 DUP3 ADD SWAP1 POP SWAP2 SWAP1 POP JUMP JUMPDEST PUSH1 0x0 PUSH1 0x20 DUP3 ADD SWAP1 POP DUP2 DUP2 SUB PUSH1 0x0 DUP4 ADD MSTORE PUSH2 0x22C9 DUP2 PUSH2 0x228D JUMP JUMPDEST SWAP1 POP SWAP2 SWAP1 POP JUMP JUMPDEST PUSH1 0x0 PUSH2 0x22DB DUP3 PUSH2 0x1C0C JUMP JUMPDEST SWAP2 POP PUSH32 0xFFFFFFFFFFFFFFFFFFFFFFFFFFFFFFFFFFFFFFFFFFFFFFFFFFFFFFFFFFFFFFFF DUP3 SUB PUSH2 0x230D JUMPI PUSH2 0x230C PUSH2 0x1E86 JUMP JUMPDEST JUMPDEST PUSH1 0x1 DUP3 ADD SWAP1 POP SWAP2 SWAP1 POP JUMP JUMPDEST PUSH1 0x0 PUSH2 0x2323 DUP3 PUSH2 0x1C0C JUMP JUMPDEST SWAP2 POP PUSH2 0x232E DUP4 PUSH2 0x1C0C JUMP JUMPDEST SWAP3 POP DUP3 DUP3 SUB SWAP1 POP DUP2 DUP2 GT ISZERO PUSH2 0x2346 JUMPI PUSH2 0x2345 PUSH2 0x1E86 JUMP JUMPDEST JUMPDEST SWAP3 SWAP2 POP POP JUMP JUMPDEST PUSH1 0x0 PUSH1 0xC0 DUP3 ADD SWAP1 POP PUSH2 0x2361 PUSH1 0x0 DUP4 ADD DUP10 PUSH2 0x1D8A JUMP JUMPDEST PUSH2 0x236E PUSH1 0x20 DUP4 ADD DUP9 PUSH2 0x1C82 JUMP JUMPDEST PUSH2 0x237B PUSH1 0x40 DUP4 ADD DUP8 PUSH2 0x1C82 JUMP JUMPDEST PUSH2 0x2388 PUSH1 0x60 DUP4 ADD DUP7 PUSH2 0x1C82 JUMP JUMPDEST PUSH2 0x2395 PUSH1 0x80 DUP4 ADD DUP6 PUSH2 0x1D8A JUMP JUMPDEST PUSH2 0x23A2 PUSH1 0xA0 DUP4 ADD DUP5 PUSH2 0x1C82 JUMP JUMPDEST SWAP8 SWAP7 POP POP POP POP POP POP POP JUMP JUMPDEST PUSH32 0x4F6E6C79206F776E65722063616E2063616E63656C0000000000000000000000 PUSH1 0x0 DUP3 ADD MSTORE POP JUMP JUMPDEST PUSH1 0x0 PUSH2 0x23E3 PUSH1 0x15 DUP4 PUSH2 0x1F57 JUMP JUMPDEST SWAP2 POP PUSH2 0x23EE DUP3 PUSH2 0x23AD JUMP JUMPDEST PUSH1 0x20 DUP3 ADD SWAP1 POP SWAP2 SWAP1 POP JUMP JUMPDEST PUSH1 0x0 PUSH1 0x20 DUP3 ADD SWAP1 POP DUP2 DUP2 SUB PUSH1 0x0 DUP4 ADD MSTORE PUSH2 0x2412 DUP2 PUSH2 0x23D6 JUMP JUMPDEST SWAP1 POP SWAP2 SWAP1 POP JUMP JUMPDEST PUSH1 0x0 PUSH1 0x60 DUP3 ADD SWAP1 POP PUSH2 0x242E PUSH1 0x0 DUP4 ADD DUP7 PUSH2 0x1D8A JUMP JUMPDEST PUSH2 0x243B PUSH1 0x20 DUP4 ADD DUP6 PUSH2 0x1C82 JUMP JUMPDEST PUSH2 0x2448 PUSH1 0x40 DUP4 ADD DUP5 PUSH2 0x1D8A JUMP JUMPDEST SWAP5 SWAP4 POP POP POP POP JUMP JUMPDEST PUSH32 0x6265796F6E64207468652061756374696F6E2074696D65000000000000000000 PUSH1 0x0 DUP3 ADD MSTORE POP JUMP JUMPDEST PUSH1 0x0 PUSH2 0x2486 PUSH1 0x17 DUP4 PUSH2 0x1F57 JUMP JUMPDEST SWAP2 POP PUSH2 0x2491 DUP3 PUSH2 0x2450 JUMP JUMPDEST PUSH1 0x20 DUP3 ADD SWAP1 POP SWAP2 SWAP1 POP JUMP JUMPDEST PUSH1 0x0 PUSH1 0x20 DUP3 ADD SWAP1 POP DUP2 DUP2 SUB PUSH1 0x0 DUP4 ADD MSTORE PUSH2 0x24B5 DUP2 PUSH2 0x2479 JUMP JUMPDEST SWAP1 POP SWAP2 SWAP1 POP JUMP JUMPDEST PUSH32 0x6C657373207468616E207468652063757272656E74206D6178696D756D207072 PUSH1 0x0 DUP3 ADD MSTORE PUSH32 0x6963650000000000000000000000000000000000000000000000000000000000 PUSH1 0x20 DUP3 ADD MSTORE POP JUMP JUMPDEST PUSH1 0x0 PUSH2 0x2518 PUSH1 0x23 DUP4 PUSH2 0x1F57 JUMP JUMPDEST SWAP2 POP PUSH2 0x2523 DUP3 PUSH2 0x24BC JUMP JUMPDEST PUSH1 0x40 DUP3 ADD SWAP1 POP SWAP2 SWAP1 POP JUMP JUMPDEST PUSH1 0x0 PUSH1 0x20 DUP3 ADD SWAP1 POP DUP2 DUP2 SUB PUSH1 0x0 DUP4 ADD MSTORE PUSH2 0x2547 DUP2 PUSH2 0x250B JUMP JUMPDEST SWAP1 POP SWAP2 SWAP1 POP JUMP JUMPDEST PUSH32 0x7468652063757272656E742074696D652063616E6E6F7420626520756E736F6C PUSH1 0x0 DUP3 ADD MSTORE PUSH32 0x6400000000000000000000000000000000000000000000000000000000000000 PUSH1 0x20 DUP3 ADD MSTORE POP JUMP JUMPDEST PUSH1 0x0 PUSH2 0x25AA PUSH1 0x21 DUP4 PUSH2 0x1F57 JUMP JUMPDEST SWAP2 POP PUSH2 0x25B5 DUP3 PUSH2 0x254E JUMP JUMPDEST PUSH1 0x40 DUP3 ADD SWAP1 POP SWAP2 SWAP1 POP JUMP JUMPDEST PUSH1 0x0 PUSH1 0x20 DUP3 ADD SWAP1 POP DUP2 DUP2 SUB PUSH1 0x0 DUP4 ADD MSTORE PUSH2 0x25D9 DUP2 PUSH2 0x259D JUMP JUMPDEST SWAP1 POP SWAP2 SWAP1 POP JUMP JUMPDEST PUSH1 0x0 PUSH1 0x60 DUP3 ADD SWAP1 POP PUSH2 0x25F5 PUSH1 0x0 DUP4 ADD DUP7 PUSH2 0x1D8A JUMP JUMPDEST PUSH2 0x2602 PUSH1 0x20 DUP4 ADD DUP6 PUSH2 0x1C82 JUMP JUMPDEST PUSH2 0x260F PUSH1 0x40 DUP4 ADD DUP5 PUSH2 0x1C82 JUMP JUMPDEST SWAP5 SWAP4 POP POP POP POP JUMP JUMPDEST PUSH32 0x43616E206E6F742066696E697368207468652061756374696F6E207965740000 PUSH1 0x0 DUP3 ADD MSTORE POP JUMP JUMPDEST PUSH1 0x0 PUSH2 0x264D PUSH1 0x1E DUP4 PUSH2 0x1F57 JUMP JUMPDEST SWAP2 POP PUSH2 0x2658 DUP3 PUSH2 0x2617 JUMP JUMPDEST PUSH1 0x20 DUP3 ADD SWAP1 POP SWAP2 SWAP1 POP JUMP JUMPDEST PUSH1 0x0 PUSH1 0x20 DUP3 ADD SWAP1 POP DUP2 DUP2 SUB PUSH1 0x0 DUP4 ADD MSTORE PUSH2 0x267C DUP2 PUSH2 0x2640 JUMP JUMPDEST SWAP1 POP SWAP2 SWAP1 POP JUMP JUMPDEST PUSH32 0x74686572652069732063757272656E746C79206E6F2062696400000000000000 PUSH1 0x0 DUP3 ADD MSTORE POP JUMP JUMPDEST PUSH1 0x0 PUSH2 0x26B9 PUSH1 0x19 DUP4 PUSH2 0x1F57 JUMP JUMPDEST SWAP2 POP PUSH2 0x26C4 DUP3 PUSH2 0x2683 JUMP JUMPDEST PUSH1 0x20 DUP3 ADD SWAP1 POP SWAP2 SWAP1 POP JUMP JUMPDEST PUSH1 0x0 PUSH1 0x20 DUP3 ADD SWAP1 POP DUP2 DUP2 SUB PUSH1 0x0 DUP4 ADD MSTORE PUSH2 0x26E8 DUP2 PUSH2 0x26AC JUMP JUMPDEST SWAP1 POP SWAP2 SWAP1 POP JUMP INVALID LOG2 PUSH5 0x6970667358 0x22 SLT KECCAK256 SWAP5 SWAP15 0x23 0xA5 SWAP13 PUSH4 0x93F20FBF SELFBALANCE 0x24 PUSH21 0x8E2D18220CBE8E84B10F1393942AB0CED535EB6473 PUSH16 0x6C634300081200330000000000000000 "
				},
				"gasEstimates": {
					"creation": {
						"codeDepositCost": "2004200",
						"executionCost": "2127",
						"totalCost": "2006327"
					},
					"external": {
						"Nodes(uint256)": "infinite",
						"VicAddress()": "2602",
						"bid(uint256,uint256)": "infinite",
						"buyNFT(uint256,uint256)": "infinite",
						"cancelListing(uint256)": "infinite",
						"createListing(address,uint256,uint256)": "infinite",
						"endAuction(uint256)": "infinite",
						"getExpiredListingWithoutBid()": "infinite",
						"listingIdCounter()": "2452",
						"listings(uint256)": "infinite",
						"unsold(uint256)": "infinite",
						"vicDAO()": "2534",
						"withdraw()": "infinite"
					},
					"internal": {
						"_removeListing(uint256)": "infinite"
					}
				},
				"methodIdentifiers": {
					"Nodes(uint256)": "a83733a4",
					"VicAddress()": "f0b5f671",
					"bid(uint256,uint256)": "598647f8",
					"buyNFT(uint256,uint256)": "1d85bf03",
					"cancelListing(uint256)": "305a67a8",
					"createListing(address,uint256,uint256)": "24780c56",
					"endAuction(uint256)": "b9a2de3a",
					"getExpiredListingWithoutBid()": "e770523b",
					"listingIdCounter()": "231701e9",
					"listings(uint256)": "de74e57b",
					"unsold(uint256)": "a279f74a",
					"vicDAO()": "9f4d5628",
					"withdraw()": "3ccfd60b"
				}
			},
			"storageLayout": {
				"storage": [
					{
						"astId": 239,
						"contract": "vinci-protocol/contracts/NftAuction.sol:NFTMarket",
						"label": "vicDAO",
						"offset": 0,
						"slot": "0",
						"type": "t_address"
					},
					{
						"astId": 241,
						"contract": "vinci-protocol/contracts/NftAuction.sol:NFTMarket",
						"label": "VicAddress",
						"offset": 0,
						"slot": "1",
						"type": "t_address"
					},
					{
						"astId": 246,
						"contract": "vinci-protocol/contracts/NftAuction.sol:NFTMarket",
						"label": "Nodes",
						"offset": 0,
						"slot": "2",
						"type": "t_mapping(t_uint256,t_struct(Node)237_storage)"
					},
					{
						"astId": 251,
						"contract": "vinci-protocol/contracts/NftAuction.sol:NFTMarket",
						"label": "listings",
						"offset": 0,
						"slot": "3",
						"type": "t_mapping(t_uint256,t_struct(Listing)228_storage)"
					},
					{
						"astId": 257,
						"contract": "vinci-protocol/contracts/NftAuction.sol:NFTMarket",
						"label": "nftToIndex",
						"offset": 0,
						"slot": "4",
						"type": "t_mapping(t_address,t_mapping(t_uint256,t_uint256))"
					},
					{
						"astId": 261,
						"contract": "vinci-protocol/contracts/NftAuction.sol:NFTMarket",
						"label": "pendingReturns",
						"offset": 0,
						"slot": "5",
						"type": "t_mapping(t_address,t_uint256)"
					},
					{
						"astId": 263,
						"contract": "vinci-protocol/contracts/NftAuction.sol:NFTMarket",
						"label": "listingIdCounter",
						"offset": 0,
						"slot": "6",
						"type": "t_uint256"
					}
				],
				"types": {
					"t_address": {
						"encoding": "inplace",
						"label": "address",
						"numberOfBytes": "20"
					},
					"t_mapping(t_address,t_mapping(t_uint256,t_uint256))": {
						"encoding": "mapping",
						"key": "t_address",
						"label": "mapping(address => mapping(uint256 => uint256))",
						"numberOfBytes": "32",
						"value": "t_mapping(t_uint256,t_uint256)"
					},
					"t_mapping(t_address,t_uint256)": {
						"encoding": "mapping",
						"key": "t_address",
						"label": "mapping(address => uint256)",
						"numberOfBytes": "32",
						"value": "t_uint256"
					},
					"t_mapping(t_uint256,t_struct(Listing)228_storage)": {
						"encoding": "mapping",
						"key": "t_uint256",
						"label": "mapping(uint256 => struct NFTMarket.Listing)",
						"numberOfBytes": "32",
						"value": "t_struct(Listing)228_storage"
					},
					"t_mapping(t_uint256,t_struct(Node)237_storage)": {
						"encoding": "mapping",
						"key": "t_uint256",
						"label": "mapping(uint256 => struct NFTMarket.Node)",
						"numberOfBytes": "32",
						"value": "t_struct(Node)237_storage"
					},
					"t_mapping(t_uint256,t_uint256)": {
						"encoding": "mapping",
						"key": "t_uint256",
						"label": "mapping(uint256 => uint256)",
						"numberOfBytes": "32",
						"value": "t_uint256"
					},
					"t_struct(Listing)228_storage": {
						"encoding": "inplace",
						"label": "struct NFTMarket.Listing",
						"members": [
							{
								"astId": 211,
								"contract": "vinci-protocol/contracts/NftAuction.sol:NFTMarket",
								"label": "nftAddress",
								"offset": 0,
								"slot": "0",
								"type": "t_address"
							},
							{
								"astId": 213,
								"contract": "vinci-protocol/contracts/NftAuction.sol:NFTMarket",
								"label": "id",
								"offset": 0,
								"slot": "1",
								"type": "t_uint256"
							},
							{
								"astId": 215,
								"contract": "vinci-protocol/contracts/NftAuction.sol:NFTMarket",
								"label": "tokenId",
								"offset": 0,
								"slot": "2",
								"type": "t_uint256"
							},
							{
								"astId": 217,
								"contract": "vinci-protocol/contracts/NftAuction.sol:NFTMarket",
								"label": "seller",
								"offset": 0,
								"slot": "3",
								"type": "t_address"
							},
							{
								"astId": 219,
								"contract": "vinci-protocol/contracts/NftAuction.sol:NFTMarket",
								"label": "price",
								"offset": 0,
								"slot": "4",
								"type": "t_uint256"
							},
							{
								"astId": 221,
								"contract": "vinci-protocol/contracts/NftAuction.sol:NFTMarket",
								"label": "starttimestamp",
								"offset": 0,
								"slot": "5",
								"type": "t_uint256"
							},
							{
								"astId": 223,
								"contract": "vinci-protocol/contracts/NftAuction.sol:NFTMarket",
								"label": "endTimestamp",
								"offset": 0,
								"slot": "6",
								"type": "t_uint256"
							},
							{
								"astId": 225,
								"contract": "vinci-protocol/contracts/NftAuction.sol:NFTMarket",
								"label": "highestBidder",
								"offset": 0,
								"slot": "7",
								"type": "t_address"
							},
							{
								"astId": 227,
								"contract": "vinci-protocol/contracts/NftAuction.sol:NFTMarket",
								"label": "highestBidPrice",
								"offset": 0,
								"slot": "8",
								"type": "t_uint256"
							}
						],
						"numberOfBytes": "288"
					},
					"t_struct(Node)237_storage": {
						"encoding": "inplace",
						"label": "struct NFTMarket.Node",
						"members": [
							{
								"astId": 230,
								"contract": "vinci-protocol/contracts/NftAuction.sol:NFTMarket",
								"label": "current",
								"offset": 0,
								"slot": "0",
								"type": "t_uint256"
							},
							{
								"astId": 232,
								"contract": "vinci-protocol/contracts/NftAuction.sol:NFTMarket",
								"label": "front",
								"offset": 0,
								"slot": "1",
								"type": "t_uint256"
							},
							{
								"astId": 234,
								"contract": "vinci-protocol/contracts/NftAuction.sol:NFTMarket",
								"label": "next",
								"offset": 0,
								"slot": "2",
								"type": "t_uint256"
							},
							{
								"astId": 236,
								"contract": "vinci-protocol/contracts/NftAuction.sol:NFTMarket",
								"label": "createTime",
								"offset": 0,
								"slot": "3",
								"type": "t_uint256"
							}
						],
						"numberOfBytes": "128"
					},
					"t_uint256": {
						"encoding": "inplace",
						"label": "uint256",
						"numberOfBytes": "32"
					}
				}
			},
			"userdoc": {
				"kind": "user",
				"methods": {},
				"version": 1
			}
		}
	}
}