{
	"contracts/ProposalLinkedList.sol": {
		"ProposalLinkedList": {
			"abi": [
				{
					"inputs": [
						{
							"internalType": "address",
							"name": "_owner",
							"type": "address"
						}
					],
					"stateMutability": "nonpayable",
					"type": "constructor"
				},
				{
					"inputs": [],
					"name": "ZERO",
					"outputs": [
						{
							"internalType": "uint256",
							"name": "",
							"type": "uint256"
						}
					],
					"stateMutability": "view",
					"type": "function"
				},
				{
					"inputs": [
						{
							"internalType": "uint256",
							"name": "current",
							"type": "uint256"
						},
						{
							"internalType": "uint256",
							"name": "front",
							"type": "uint256"
						}
					],
					"name": "increate",
					"outputs": [],
					"stateMutability": "nonpayable",
					"type": "function"
				},
				{
					"inputs": [],
					"name": "length",
					"outputs": [
						{
							"internalType": "uint256",
							"name": "",
							"type": "uint256"
						}
					],
					"stateMutability": "view",
					"type": "function"
				},
				{
					"inputs": [
						{
							"internalType": "uint256",
							"name": "",
							"type": "uint256"
						}
					],
					"name": "nodeTable",
					"outputs": [
						{
							"internalType": "uint256",
							"name": "current",
							"type": "uint256"
						},
						{
							"internalType": "uint256",
							"name": "front",
							"type": "uint256"
						},
						{
							"internalType": "uint256",
							"name": "next",
							"type": "uint256"
						}
					],
					"stateMutability": "view",
					"type": "function"
				},
				{
					"inputs": [
						{
							"internalType": "uint256",
							"name": "index",
							"type": "uint256"
						}
					],
					"name": "remove",
					"outputs": [],
					"stateMutability": "nonpayable",
					"type": "function"
				},
				{
					"inputs": [
						{
							"internalType": "uint256",
							"name": "current",
							"type": "uint256"
						}
					],
					"name": "setNodeToFirst",
					"outputs": [],
					"stateMutability": "nonpayable",
					"type": "function"
				}
			],
			"devdoc": {
				"kind": "dev",
				"methods": {},
				"version": 1
			},
			"evm": {
				"assembly": "    /* \"contracts/ProposalLinkedList.sol\":69:1517  contract ProposalLinkedList {... */\n  mstore(0x40, 0x80)\n    /* \"contracts/ProposalLinkedList.sol\":321:322  0 */\n  0x00\n    /* \"contracts/ProposalLinkedList.sol\":299:322  uint256 public ZERO = 0 */\n  0x01\n  sstore\n    /* \"contracts/ProposalLinkedList.sol\":359:360  0 */\n  0x00\n    /* \"contracts/ProposalLinkedList.sol\":335:360  uint256 public length = 0 */\n  0x02\n  sstore\n    /* \"contracts/ProposalLinkedList.sol\":128:188  constructor(address _owner){... */\n  callvalue\n  dup1\n  iszero\n  tag_1\n  jumpi\n  0x00\n  dup1\n  revert\ntag_1:\n  pop\n  mload(0x40)\n  sub(codesize, bytecodeSize)\n  dup1\n  bytecodeSize\n  dup4\n  codecopy\n  dup2\n  dup2\n  add\n  0x40\n  mstore\n  dup2\n  add\n  swap1\n  tag_2\n  swap2\n  swap1\n  tag_3\n  jump\t// in\ntag_2:\n    /* \"contracts/ProposalLinkedList.sol\":174:180  _owner */\n  dup1\n    /* \"contracts/ProposalLinkedList.sol\":166:171  owner */\n  0x00\n  dup1\n    /* \"contracts/ProposalLinkedList.sol\":166:180  owner = _owner */\n  0x0100\n  exp\n  dup2\n  sload\n  dup2\n  0xffffffffffffffffffffffffffffffffffffffff\n  mul\n  not\n  and\n  swap1\n  dup4\n  0xffffffffffffffffffffffffffffffffffffffff\n  and\n  mul\n  or\n  swap1\n  sstore\n  pop\n    /* \"contracts/ProposalLinkedList.sol\":128:188  constructor(address _owner){... */\n  pop\n    /* \"contracts/ProposalLinkedList.sol\":69:1517  contract ProposalLinkedList {... */\n  jump(tag_6)\n    /* \"#utility.yul\":88:205   */\ntag_8:\n    /* \"#utility.yul\":197:198   */\n  0x00\n    /* \"#utility.yul\":194:195   */\n  dup1\n    /* \"#utility.yul\":187:199   */\n  revert\n    /* \"#utility.yul\":334:460   */\ntag_10:\n    /* \"#utility.yul\":371:378   */\n  0x00\n    /* \"#utility.yul\":411:453   */\n  0xffffffffffffffffffffffffffffffffffffffff\n    /* \"#utility.yul\":404:409   */\n  dup3\n    /* \"#utility.yul\":400:454   */\n  and\n    /* \"#utility.yul\":389:454   */\n  swap1\n  pop\n    /* \"#utility.yul\":334:460   */\n  swap2\n  swap1\n  pop\n  jump\t// out\n    /* \"#utility.yul\":466:562   */\ntag_11:\n    /* \"#utility.yul\":503:510   */\n  0x00\n    /* \"#utility.yul\":532:556   */\n  tag_20\n    /* \"#utility.yul\":550:555   */\n  dup3\n    /* \"#utility.yul\":532:556   */\n  tag_10\n  jump\t// in\ntag_20:\n    /* \"#utility.yul\":521:556   */\n  swap1\n  pop\n    /* \"#utility.yul\":466:562   */\n  swap2\n  swap1\n  pop\n  jump\t// out\n    /* \"#utility.yul\":568:690   */\ntag_12:\n    /* \"#utility.yul\":641:665   */\n  tag_22\n    /* \"#utility.yul\":659:664   */\n  dup2\n    /* \"#utility.yul\":641:665   */\n  tag_11\n  jump\t// in\ntag_22:\n    /* \"#utility.yul\":634:639   */\n  dup2\n    /* \"#utility.yul\":631:666   */\n  eq\n    /* \"#utility.yul\":621:684   */\n  tag_23\n  jumpi\n    /* \"#utility.yul\":680:681   */\n  0x00\n    /* \"#utility.yul\":677:678   */\n  dup1\n    /* \"#utility.yul\":670:682   */\n  revert\n    /* \"#utility.yul\":621:684   */\ntag_23:\n    /* \"#utility.yul\":568:690   */\n  pop\n  jump\t// out\n    /* \"#utility.yul\":696:839   */\ntag_13:\n    /* \"#utility.yul\":753:758   */\n  0x00\n    /* \"#utility.yul\":784:790   */\n  dup2\n    /* \"#utility.yul\":778:791   */\n  mload\n    /* \"#utility.yul\":769:791   */\n  swap1\n  pop\n    /* \"#utility.yul\":800:833   */\n  tag_25\n    /* \"#utility.yul\":827:832   */\n  dup2\n    /* \"#utility.yul\":800:833   */\n  tag_12\n  jump\t// in\ntag_25:\n    /* \"#utility.yul\":696:839   */\n  swap3\n  swap2\n  pop\n  pop\n  jump\t// out\n    /* \"#utility.yul\":845:1196   */\ntag_3:\n    /* \"#utility.yul\":915:921   */\n  0x00\n    /* \"#utility.yul\":964:966   */\n  0x20\n    /* \"#utility.yul\":952:961   */\n  dup3\n    /* \"#utility.yul\":943:950   */\n  dup5\n    /* \"#utility.yul\":939:962   */\n  sub\n    /* \"#utility.yul\":935:967   */\n  slt\n    /* \"#utility.yul\":932:1051   */\n  iszero\n  tag_27\n  jumpi\n    /* \"#utility.yul\":970:1049   */\n  tag_28\n  tag_8\n  jump\t// in\ntag_28:\n    /* \"#utility.yul\":932:1051   */\ntag_27:\n    /* \"#utility.yul\":1090:1091   */\n  0x00\n    /* \"#utility.yul\":1115:1179   */\n  tag_29\n    /* \"#utility.yul\":1171:1178   */\n  dup5\n    /* \"#utility.yul\":1162:1168   */\n  dup3\n    /* \"#utility.yul\":1151:1160   */\n  dup6\n    /* \"#utility.yul\":1147:1169   */\n  add\n    /* \"#utility.yul\":1115:1179   */\n  tag_13\n  jump\t// in\ntag_29:\n    /* \"#utility.yul\":1105:1179   */\n  swap2\n  pop\n    /* \"#utility.yul\":1061:1189   */\n  pop\n    /* \"#utility.yul\":845:1196   */\n  swap3\n  swap2\n  pop\n  pop\n  jump\t// out\n    /* \"contracts/ProposalLinkedList.sol\":69:1517  contract ProposalLinkedList {... */\ntag_6:\n  dataSize(sub_0)\n  dup1\n  dataOffset(sub_0)\n  0x00\n  codecopy\n  0x00\n  return\nstop\n\nsub_0: assembly {\n        /* \"contracts/ProposalLinkedList.sol\":69:1517  contract ProposalLinkedList {... */\n      mstore(0x40, 0x80)\n      callvalue\n      dup1\n      iszero\n      tag_1\n      jumpi\n      0x00\n      dup1\n      revert\n    tag_1:\n      pop\n      jumpi(tag_2, lt(calldatasize, 0x04))\n      shr(0xe0, calldataload(0x00))\n      dup1\n      0x1f7b6d32\n      eq\n      tag_3\n      jumpi\n      dup1\n      0x4cc82215\n      eq\n      tag_4\n      jumpi\n      dup1\n      0x58fa63ca\n      eq\n      tag_5\n      jumpi\n      dup1\n      0x80d281c2\n      eq\n      tag_6\n      jumpi\n      dup1\n      0xac12d745\n      eq\n      tag_7\n      jumpi\n      dup1\n      0xfb470df2\n      eq\n      tag_8\n      jumpi\n    tag_2:\n      0x00\n      dup1\n      revert\n        /* \"contracts/ProposalLinkedList.sol\":335:360  uint256 public length = 0 */\n    tag_3:\n      tag_9\n      tag_10\n      jump\t// in\n    tag_9:\n      mload(0x40)\n      tag_11\n      swap2\n      swap1\n      tag_12\n      jump\t// in\n    tag_11:\n      mload(0x40)\n      dup1\n      swap2\n      sub\n      swap1\n      return\n        /* \"contracts/ProposalLinkedList.sol\":845:1066  function remove(uint256 index) onlyOwner external{... */\n    tag_4:\n      tag_13\n      0x04\n      dup1\n      calldatasize\n      sub\n      dup2\n      add\n      swap1\n      tag_14\n      swap2\n      swap1\n      tag_15\n      jump\t// in\n    tag_14:\n      tag_16\n      jump\t// in\n    tag_13:\n      stop\n        /* \"contracts/ProposalLinkedList.sol\":299:322  uint256 public ZERO = 0 */\n    tag_5:\n      tag_17\n      tag_18\n      jump\t// in\n    tag_17:\n      mload(0x40)\n      tag_19\n      swap2\n      swap1\n      tag_12\n      jump\t// in\n    tag_19:\n      mload(0x40)\n      dup1\n      swap2\n      sub\n      swap1\n      return\n        /* \"contracts/ProposalLinkedList.sol\":1074:1506  function setNodeToFirst(uint256 current) external onlyOwner{... */\n    tag_6:\n      tag_20\n      0x04\n      dup1\n      calldatasize\n      sub\n      dup2\n      add\n      swap1\n      tag_21\n      swap2\n      swap1\n      tag_15\n      jump\t// in\n    tag_21:\n      tag_22\n      jump\t// in\n    tag_20:\n      stop\n        /* \"contracts/ProposalLinkedList.sol\":455:494  mapping(uint256=>Node) public nodeTable */\n    tag_7:\n      tag_23\n      0x04\n      dup1\n      calldatasize\n      sub\n      dup2\n      add\n      swap1\n      tag_24\n      swap2\n      swap1\n      tag_15\n      jump\t// in\n    tag_24:\n      tag_25\n      jump\t// in\n    tag_23:\n      mload(0x40)\n      tag_26\n      swap4\n      swap3\n      swap2\n      swap1\n      tag_27\n      jump\t// in\n    tag_26:\n      mload(0x40)\n      dup1\n      swap2\n      sub\n      swap1\n      return\n        /* \"contracts/ProposalLinkedList.sol\":521:837  function increate(uint256 current, uint256 front) onlyOwner external {... */\n    tag_8:\n      tag_28\n      0x04\n      dup1\n      calldatasize\n      sub\n      dup2\n      add\n      swap1\n      tag_29\n      swap2\n      swap1\n      tag_30\n      jump\t// in\n    tag_29:\n      tag_31\n      jump\t// in\n    tag_28:\n      stop\n        /* \"contracts/ProposalLinkedList.sol\":335:360  uint256 public length = 0 */\n    tag_10:\n      sload(0x02)\n      dup2\n      jump\t// out\n        /* \"contracts/ProposalLinkedList.sol\":845:1066  function remove(uint256 index) onlyOwner external{... */\n    tag_16:\n        /* \"contracts/ProposalLinkedList.sol\":421:426  owner */\n      0x00\n      dup1\n      sload\n      swap1\n      0x0100\n      exp\n      swap1\n      div\n      0xffffffffffffffffffffffffffffffffffffffff\n      and\n        /* \"contracts/ProposalLinkedList.sol\":407:426  msg.sender == owner */\n      0xffffffffffffffffffffffffffffffffffffffff\n      and\n        /* \"contracts/ProposalLinkedList.sol\":407:417  msg.sender */\n      caller\n        /* \"contracts/ProposalLinkedList.sol\":407:426  msg.sender == owner */\n      0xffffffffffffffffffffffffffffffffffffffff\n      and\n      eq\n        /* \"contracts/ProposalLinkedList.sol\":398:427  require (msg.sender == owner) */\n      tag_33\n      jumpi\n      0x00\n      dup1\n      revert\n    tag_33:\n        /* \"contracts/ProposalLinkedList.sol\":944:953  nodeTable */\n      0x03\n        /* \"contracts/ProposalLinkedList.sol\":944:960  nodeTable[index] */\n      0x00\n        /* \"contracts/ProposalLinkedList.sol\":954:959  index */\n      dup3\n        /* \"contracts/ProposalLinkedList.sol\":944:960  nodeTable[index] */\n      dup2\n      mstore\n      0x20\n      add\n      swap1\n      dup2\n      mstore\n      0x20\n      add\n      0x00\n      keccak256\n        /* \"contracts/ProposalLinkedList.sol\":944:965  nodeTable[index].next */\n      0x02\n      add\n      sload\n        /* \"contracts/ProposalLinkedList.sol\":905:914  nodeTable */\n      0x03\n        /* \"contracts/ProposalLinkedList.sol\":905:938  nodeTable[nodeTable[index].front] */\n      0x00\n        /* \"contracts/ProposalLinkedList.sol\":915:924  nodeTable */\n      0x03\n        /* \"contracts/ProposalLinkedList.sol\":915:931  nodeTable[index] */\n      0x00\n        /* \"contracts/ProposalLinkedList.sol\":925:930  index */\n      dup6\n        /* \"contracts/ProposalLinkedList.sol\":915:931  nodeTable[index] */\n      dup2\n      mstore\n      0x20\n      add\n      swap1\n      dup2\n      mstore\n      0x20\n      add\n      0x00\n      keccak256\n        /* \"contracts/ProposalLinkedList.sol\":915:937  nodeTable[index].front */\n      0x01\n      add\n      sload\n        /* \"contracts/ProposalLinkedList.sol\":905:938  nodeTable[nodeTable[index].front] */\n      dup2\n      mstore\n      0x20\n      add\n      swap1\n      dup2\n      mstore\n      0x20\n      add\n      0x00\n      keccak256\n        /* \"contracts/ProposalLinkedList.sol\":905:943  nodeTable[nodeTable[index].front].next */\n      0x02\n      add\n        /* \"contracts/ProposalLinkedList.sol\":905:965  nodeTable[nodeTable[index].front].next=nodeTable[index].next */\n      dup2\n      swap1\n      sstore\n      pop\n        /* \"contracts/ProposalLinkedList.sol\":1015:1024  nodeTable */\n      0x03\n        /* \"contracts/ProposalLinkedList.sol\":1015:1031  nodeTable[index] */\n      0x00\n        /* \"contracts/ProposalLinkedList.sol\":1025:1030  index */\n      dup3\n        /* \"contracts/ProposalLinkedList.sol\":1015:1031  nodeTable[index] */\n      dup2\n      mstore\n      0x20\n      add\n      swap1\n      dup2\n      mstore\n      0x20\n      add\n      0x00\n      keccak256\n        /* \"contracts/ProposalLinkedList.sol\":1015:1037  nodeTable[index].front */\n      0x01\n      add\n      sload\n        /* \"contracts/ProposalLinkedList.sol\":976:985  nodeTable */\n      0x03\n        /* \"contracts/ProposalLinkedList.sol\":976:1008  nodeTable[nodeTable[index].next] */\n      0x00\n        /* \"contracts/ProposalLinkedList.sol\":986:995  nodeTable */\n      0x03\n        /* \"contracts/ProposalLinkedList.sol\":986:1002  nodeTable[index] */\n      0x00\n        /* \"contracts/ProposalLinkedList.sol\":996:1001  index */\n      dup6\n        /* \"contracts/ProposalLinkedList.sol\":986:1002  nodeTable[index] */\n      dup2\n      mstore\n      0x20\n      add\n      swap1\n      dup2\n      mstore\n      0x20\n      add\n      0x00\n      keccak256\n        /* \"contracts/ProposalLinkedList.sol\":986:1007  nodeTable[index].next */\n      0x02\n      add\n      sload\n        /* \"contracts/ProposalLinkedList.sol\":976:1008  nodeTable[nodeTable[index].next] */\n      dup2\n      mstore\n      0x20\n      add\n      swap1\n      dup2\n      mstore\n      0x20\n      add\n      0x00\n      keccak256\n        /* \"contracts/ProposalLinkedList.sol\":976:1014  nodeTable[nodeTable[index].next].front */\n      0x01\n      add\n        /* \"contracts/ProposalLinkedList.sol\":976:1037  nodeTable[nodeTable[index].next].front=nodeTable[index].front */\n      dup2\n      swap1\n      sstore\n      pop\n        /* \"contracts/ProposalLinkedList.sol\":1050:1056  length */\n      0x02\n      0x00\n        /* \"contracts/ProposalLinkedList.sol\":1050:1058  length-- */\n      dup2\n      sload\n      dup1\n      swap3\n      swap2\n      swap1\n      tag_35\n      swap1\n      tag_36\n      jump\t// in\n    tag_35:\n      swap2\n      swap1\n      pop\n      sstore\n      pop\n        /* \"contracts/ProposalLinkedList.sol\":845:1066  function remove(uint256 index) onlyOwner external{... */\n      pop\n      jump\t// out\n        /* \"contracts/ProposalLinkedList.sol\":299:322  uint256 public ZERO = 0 */\n    tag_18:\n      sload(0x01)\n      dup2\n      jump\t// out\n        /* \"contracts/ProposalLinkedList.sol\":1074:1506  function setNodeToFirst(uint256 current) external onlyOwner{... */\n    tag_22:\n        /* \"contracts/ProposalLinkedList.sol\":421:426  owner */\n      0x00\n      dup1\n      sload\n      swap1\n      0x0100\n      exp\n      swap1\n      div\n      0xffffffffffffffffffffffffffffffffffffffff\n      and\n        /* \"contracts/ProposalLinkedList.sol\":407:426  msg.sender == owner */\n      0xffffffffffffffffffffffffffffffffffffffff\n      and\n        /* \"contracts/ProposalLinkedList.sol\":407:417  msg.sender */\n      caller\n        /* \"contracts/ProposalLinkedList.sol\":407:426  msg.sender == owner */\n      0xffffffffffffffffffffffffffffffffffffffff\n      and\n      eq\n        /* \"contracts/ProposalLinkedList.sol\":398:427  require (msg.sender == owner) */\n      tag_38\n      jumpi\n      0x00\n      dup1\n      revert\n    tag_38:\n        /* \"contracts/ProposalLinkedList.sol\":1144:1164  Node memory _current */\n      0x00\n        /* \"contracts/ProposalLinkedList.sol\":1167:1176  nodeTable */\n      0x03\n        /* \"contracts/ProposalLinkedList.sol\":1167:1185  nodeTable[current] */\n      0x00\n        /* \"contracts/ProposalLinkedList.sol\":1177:1184  current */\n      dup4\n        /* \"contracts/ProposalLinkedList.sol\":1167:1185  nodeTable[current] */\n      dup2\n      mstore\n      0x20\n      add\n      swap1\n      dup2\n      mstore\n      0x20\n      add\n      0x00\n      keccak256\n        /* \"contracts/ProposalLinkedList.sol\":1144:1185  Node memory _current = nodeTable[current] */\n      mload(0x40)\n      dup1\n      0x60\n      add\n      0x40\n      mstore\n      swap1\n      dup2\n      0x00\n      dup3\n      add\n      sload\n      dup2\n      mstore\n      0x20\n      add\n      0x01\n      dup3\n      add\n      sload\n      dup2\n      mstore\n      0x20\n      add\n      0x02\n      dup3\n      add\n      sload\n      dup2\n      mstore\n      pop\n      pop\n      swap1\n      pop\n        /* \"contracts/ProposalLinkedList.sol\":1222:1231  nodeTable */\n      0x03\n        /* \"contracts/ProposalLinkedList.sol\":1222:1237  nodeTable[ZERO] */\n      0x00\n        /* \"contracts/ProposalLinkedList.sol\":1232:1236  ZERO */\n      sload(0x01)\n        /* \"contracts/ProposalLinkedList.sol\":1222:1237  nodeTable[ZERO] */\n      dup2\n      mstore\n      0x20\n      add\n      swap1\n      dup2\n      mstore\n      0x20\n      add\n      0x00\n      keccak256\n        /* \"contracts/ProposalLinkedList.sol\":1222:1242  nodeTable[ZERO].next */\n      0x02\n      add\n      sload\n        /* \"contracts/ProposalLinkedList.sol\":1196:1205  nodeTable */\n      0x03\n        /* \"contracts/ProposalLinkedList.sol\":1196:1214  nodeTable[current] */\n      0x00\n        /* \"contracts/ProposalLinkedList.sol\":1206:1213  current */\n      dup5\n        /* \"contracts/ProposalLinkedList.sol\":1196:1214  nodeTable[current] */\n      dup2\n      mstore\n      0x20\n      add\n      swap1\n      dup2\n      mstore\n      0x20\n      add\n      0x00\n      keccak256\n        /* \"contracts/ProposalLinkedList.sol\":1196:1219  nodeTable[current].next */\n      0x02\n      add\n        /* \"contracts/ProposalLinkedList.sol\":1196:1242  nodeTable[current].next = nodeTable[ZERO].next */\n      dup2\n      swap1\n      sstore\n      pop\n        /* \"contracts/ProposalLinkedList.sol\":1280:1284  ZERO */\n      sload(0x01)\n        /* \"contracts/ProposalLinkedList.sol\":1253:1262  nodeTable */\n      0x03\n        /* \"contracts/ProposalLinkedList.sol\":1253:1271  nodeTable[current] */\n      0x00\n        /* \"contracts/ProposalLinkedList.sol\":1263:1270  current */\n      dup5\n        /* \"contracts/ProposalLinkedList.sol\":1253:1271  nodeTable[current] */\n      dup2\n      mstore\n      0x20\n      add\n      swap1\n      dup2\n      mstore\n      0x20\n      add\n      0x00\n      keccak256\n        /* \"contracts/ProposalLinkedList.sol\":1253:1277  nodeTable[current].front */\n      0x01\n      add\n        /* \"contracts/ProposalLinkedList.sol\":1253:1284  nodeTable[current].front = ZERO */\n      dup2\n      swap1\n      sstore\n      pop\n        /* \"contracts/ProposalLinkedList.sol\":1335:1342  current */\n      dup2\n        /* \"contracts/ProposalLinkedList.sol\":1295:1304  nodeTable */\n      0x03\n        /* \"contracts/ProposalLinkedList.sol\":1295:1326  nodeTable[nodeTable[ZERO].next] */\n      0x00\n        /* \"contracts/ProposalLinkedList.sol\":1305:1314  nodeTable */\n      0x03\n        /* \"contracts/ProposalLinkedList.sol\":1305:1320  nodeTable[ZERO] */\n      0x00\n        /* \"contracts/ProposalLinkedList.sol\":1315:1319  ZERO */\n      sload(0x01)\n        /* \"contracts/ProposalLinkedList.sol\":1305:1320  nodeTable[ZERO] */\n      dup2\n      mstore\n      0x20\n      add\n      swap1\n      dup2\n      mstore\n      0x20\n      add\n      0x00\n      keccak256\n        /* \"contracts/ProposalLinkedList.sol\":1305:1325  nodeTable[ZERO].next */\n      0x02\n      add\n      sload\n        /* \"contracts/ProposalLinkedList.sol\":1295:1326  nodeTable[nodeTable[ZERO].next] */\n      dup2\n      mstore\n      0x20\n      add\n      swap1\n      dup2\n      mstore\n      0x20\n      add\n      0x00\n      keccak256\n        /* \"contracts/ProposalLinkedList.sol\":1295:1332  nodeTable[nodeTable[ZERO].next].front */\n      0x01\n      add\n        /* \"contracts/ProposalLinkedList.sol\":1295:1342  nodeTable[nodeTable[ZERO].next].front = current */\n      dup2\n      swap1\n      sstore\n      pop\n        /* \"contracts/ProposalLinkedList.sol\":1376:1383  current */\n      dup2\n        /* \"contracts/ProposalLinkedList.sol\":1353:1362  nodeTable */\n      0x03\n        /* \"contracts/ProposalLinkedList.sol\":1353:1368  nodeTable[ZERO] */\n      0x00\n        /* \"contracts/ProposalLinkedList.sol\":1363:1367  ZERO */\n      sload(0x01)\n        /* \"contracts/ProposalLinkedList.sol\":1353:1368  nodeTable[ZERO] */\n      dup2\n      mstore\n      0x20\n      add\n      swap1\n      dup2\n      mstore\n      0x20\n      add\n      0x00\n      keccak256\n        /* \"contracts/ProposalLinkedList.sol\":1353:1373  nodeTable[ZERO].next */\n      0x02\n      add\n        /* \"contracts/ProposalLinkedList.sol\":1353:1383  nodeTable[ZERO].next = current */\n      dup2\n      swap1\n      sstore\n      pop\n        /* \"contracts/ProposalLinkedList.sol\":1427:1435  _current */\n      dup1\n        /* \"contracts/ProposalLinkedList.sol\":1427:1441  _current.front */\n      0x20\n      add\n      mload\n        /* \"contracts/ProposalLinkedList.sol\":1394:1403  nodeTable */\n      0x03\n        /* \"contracts/ProposalLinkedList.sol\":1394:1418  nodeTable[_current.next] */\n      0x00\n        /* \"contracts/ProposalLinkedList.sol\":1404:1412  _current */\n      dup4\n        /* \"contracts/ProposalLinkedList.sol\":1404:1417  _current.next */\n      0x40\n      add\n      mload\n        /* \"contracts/ProposalLinkedList.sol\":1394:1418  nodeTable[_current.next] */\n      dup2\n      mstore\n      0x20\n      add\n      swap1\n      dup2\n      mstore\n      0x20\n      add\n      0x00\n      keccak256\n        /* \"contracts/ProposalLinkedList.sol\":1394:1424  nodeTable[_current.next].front */\n      0x01\n      add\n        /* \"contracts/ProposalLinkedList.sol\":1394:1441  nodeTable[_current.next].front = _current.front */\n      dup2\n      swap1\n      sstore\n      pop\n        /* \"contracts/ProposalLinkedList.sol\":1485:1493  _current */\n      dup1\n        /* \"contracts/ProposalLinkedList.sol\":1485:1498  _current.next */\n      0x40\n      add\n      mload\n        /* \"contracts/ProposalLinkedList.sol\":1452:1461  nodeTable */\n      0x03\n        /* \"contracts/ProposalLinkedList.sol\":1452:1477  nodeTable[_current.front] */\n      0x00\n        /* \"contracts/ProposalLinkedList.sol\":1462:1470  _current */\n      dup4\n        /* \"contracts/ProposalLinkedList.sol\":1462:1476  _current.front */\n      0x20\n      add\n      mload\n        /* \"contracts/ProposalLinkedList.sol\":1452:1477  nodeTable[_current.front] */\n      dup2\n      mstore\n      0x20\n      add\n      swap1\n      dup2\n      mstore\n      0x20\n      add\n      0x00\n      keccak256\n        /* \"contracts/ProposalLinkedList.sol\":1452:1482  nodeTable[_current.front].next */\n      0x02\n      add\n        /* \"contracts/ProposalLinkedList.sol\":1452:1498  nodeTable[_current.front].next = _current.next */\n      dup2\n      swap1\n      sstore\n      pop\n        /* \"contracts/ProposalLinkedList.sol\":1133:1506  {... */\n      pop\n        /* \"contracts/ProposalLinkedList.sol\":1074:1506  function setNodeToFirst(uint256 current) external onlyOwner{... */\n      pop\n      jump\t// out\n        /* \"contracts/ProposalLinkedList.sol\":455:494  mapping(uint256=>Node) public nodeTable */\n    tag_25:\n      mstore(0x20, 0x03)\n      dup1\n      0x00\n      mstore\n      keccak256(0x00, 0x40)\n      0x00\n      swap2\n      pop\n      swap1\n      pop\n      dup1\n      0x00\n      add\n      sload\n      swap1\n      dup1\n      0x01\n      add\n      sload\n      swap1\n      dup1\n      0x02\n      add\n      sload\n      swap1\n      pop\n      dup4\n      jump\t// out\n        /* \"contracts/ProposalLinkedList.sol\":521:837  function increate(uint256 current, uint256 front) onlyOwner external {... */\n    tag_31:\n        /* \"contracts/ProposalLinkedList.sol\":421:426  owner */\n      0x00\n      dup1\n      sload\n      swap1\n      0x0100\n      exp\n      swap1\n      div\n      0xffffffffffffffffffffffffffffffffffffffff\n      and\n        /* \"contracts/ProposalLinkedList.sol\":407:426  msg.sender == owner */\n      0xffffffffffffffffffffffffffffffffffffffff\n      and\n        /* \"contracts/ProposalLinkedList.sol\":407:417  msg.sender */\n      caller\n        /* \"contracts/ProposalLinkedList.sol\":407:426  msg.sender == owner */\n      0xffffffffffffffffffffffffffffffffffffffff\n      and\n      eq\n        /* \"contracts/ProposalLinkedList.sol\":398:427  require (msg.sender == owner) */\n      tag_41\n      jumpi\n      0x00\n      dup1\n      revert\n    tag_41:\n        /* \"contracts/ProposalLinkedList.sol\":601:616  uint256 preNext */\n      0x00\n        /* \"contracts/ProposalLinkedList.sol\":617:626  nodeTable */\n      0x03\n        /* \"contracts/ProposalLinkedList.sol\":617:633  nodeTable[front] */\n      0x00\n        /* \"contracts/ProposalLinkedList.sol\":627:632  front */\n      dup4\n        /* \"contracts/ProposalLinkedList.sol\":617:633  nodeTable[front] */\n      dup2\n      mstore\n      0x20\n      add\n      swap1\n      dup2\n      mstore\n      0x20\n      add\n      0x00\n      keccak256\n        /* \"contracts/ProposalLinkedList.sol\":617:638  nodeTable[front].next */\n      0x02\n      add\n      sload\n        /* \"contracts/ProposalLinkedList.sol\":601:638  uint256 preNext=nodeTable[front].next */\n      swap1\n      pop\n        /* \"contracts/ProposalLinkedList.sol\":671:678  current */\n      dup3\n        /* \"contracts/ProposalLinkedList.sol\":649:658  nodeTable */\n      0x03\n        /* \"contracts/ProposalLinkedList.sol\":649:665  nodeTable[front] */\n      0x00\n        /* \"contracts/ProposalLinkedList.sol\":659:664  front */\n      dup5\n        /* \"contracts/ProposalLinkedList.sol\":649:665  nodeTable[front] */\n      dup2\n      mstore\n      0x20\n      add\n      swap1\n      dup2\n      mstore\n      0x20\n      add\n      0x00\n      keccak256\n        /* \"contracts/ProposalLinkedList.sol\":649:670  nodeTable[front].next */\n      0x02\n      add\n        /* \"contracts/ProposalLinkedList.sol\":649:678  nodeTable[front].next=current */\n      dup2\n      swap1\n      sstore\n      pop\n        /* \"contracts/ProposalLinkedList.sol\":713:720  preNext */\n      dup1\n        /* \"contracts/ProposalLinkedList.sol\":689:698  nodeTable */\n      0x03\n        /* \"contracts/ProposalLinkedList.sol\":689:707  nodeTable[current] */\n      0x00\n        /* \"contracts/ProposalLinkedList.sol\":699:706  current */\n      dup6\n        /* \"contracts/ProposalLinkedList.sol\":689:707  nodeTable[current] */\n      dup2\n      mstore\n      0x20\n      add\n      swap1\n      dup2\n      mstore\n      0x20\n      add\n      0x00\n      keccak256\n        /* \"contracts/ProposalLinkedList.sol\":689:712  nodeTable[current].next */\n      0x02\n      add\n        /* \"contracts/ProposalLinkedList.sol\":689:720  nodeTable[current].next=preNext */\n      dup2\n      swap1\n      sstore\n      pop\n        /* \"contracts/ProposalLinkedList.sol\":756:763  current */\n      dup3\n        /* \"contracts/ProposalLinkedList.sol\":731:740  nodeTable */\n      0x03\n        /* \"contracts/ProposalLinkedList.sol\":731:749  nodeTable[preNext] */\n      0x00\n        /* \"contracts/ProposalLinkedList.sol\":741:748  preNext */\n      dup4\n        /* \"contracts/ProposalLinkedList.sol\":731:749  nodeTable[preNext] */\n      dup2\n      mstore\n      0x20\n      add\n      swap1\n      dup2\n      mstore\n      0x20\n      add\n      0x00\n      keccak256\n        /* \"contracts/ProposalLinkedList.sol\":731:755  nodeTable[preNext].front */\n      0x01\n      add\n        /* \"contracts/ProposalLinkedList.sol\":731:763  nodeTable[preNext].front=current */\n      dup2\n      swap1\n      sstore\n      pop\n        /* \"contracts/ProposalLinkedList.sol\":801:808  current */\n      dup3\n        /* \"contracts/ProposalLinkedList.sol\":774:783  nodeTable */\n      0x03\n        /* \"contracts/ProposalLinkedList.sol\":774:792  nodeTable[current] */\n      0x00\n        /* \"contracts/ProposalLinkedList.sol\":784:791  current */\n      dup6\n        /* \"contracts/ProposalLinkedList.sol\":774:792  nodeTable[current] */\n      dup2\n      mstore\n      0x20\n      add\n      swap1\n      dup2\n      mstore\n      0x20\n      add\n      0x00\n      keccak256\n        /* \"contracts/ProposalLinkedList.sol\":774:800  nodeTable[current].current */\n      0x00\n      add\n        /* \"contracts/ProposalLinkedList.sol\":774:808  nodeTable[current].current=current */\n      dup2\n      swap1\n      sstore\n      pop\n        /* \"contracts/ProposalLinkedList.sol\":821:827  length */\n      0x02\n      0x00\n        /* \"contracts/ProposalLinkedList.sol\":821:829  length++ */\n      dup2\n      sload\n      dup1\n      swap3\n      swap2\n      swap1\n      tag_43\n      swap1\n      tag_44\n      jump\t// in\n    tag_43:\n      swap2\n      swap1\n      pop\n      sstore\n      pop\n        /* \"contracts/ProposalLinkedList.sol\":590:837  {... */\n      pop\n        /* \"contracts/ProposalLinkedList.sol\":521:837  function increate(uint256 current, uint256 front) onlyOwner external {... */\n      pop\n      pop\n      jump\t// out\n        /* \"#utility.yul\":7:84   */\n    tag_45:\n        /* \"#utility.yul\":44:51   */\n      0x00\n        /* \"#utility.yul\":73:78   */\n      dup2\n        /* \"#utility.yul\":62:78   */\n      swap1\n      pop\n        /* \"#utility.yul\":7:84   */\n      swap2\n      swap1\n      pop\n      jump\t// out\n        /* \"#utility.yul\":90:208   */\n    tag_46:\n        /* \"#utility.yul\":177:201   */\n      tag_56\n        /* \"#utility.yul\":195:200   */\n      dup2\n        /* \"#utility.yul\":177:201   */\n      tag_45\n      jump\t// in\n    tag_56:\n        /* \"#utility.yul\":172:175   */\n      dup3\n        /* \"#utility.yul\":165:202   */\n      mstore\n        /* \"#utility.yul\":90:208   */\n      pop\n      pop\n      jump\t// out\n        /* \"#utility.yul\":214:436   */\n    tag_12:\n        /* \"#utility.yul\":307:311   */\n      0x00\n        /* \"#utility.yul\":345:347   */\n      0x20\n        /* \"#utility.yul\":334:343   */\n      dup3\n        /* \"#utility.yul\":330:348   */\n      add\n        /* \"#utility.yul\":322:348   */\n      swap1\n      pop\n        /* \"#utility.yul\":358:429   */\n      tag_58\n        /* \"#utility.yul\":426:427   */\n      0x00\n        /* \"#utility.yul\":415:424   */\n      dup4\n        /* \"#utility.yul\":411:428   */\n      add\n        /* \"#utility.yul\":402:408   */\n      dup5\n        /* \"#utility.yul\":358:429   */\n      tag_46\n      jump\t// in\n    tag_58:\n        /* \"#utility.yul\":214:436   */\n      swap3\n      swap2\n      pop\n      pop\n      jump\t// out\n        /* \"#utility.yul\":523:640   */\n    tag_48:\n        /* \"#utility.yul\":632:633   */\n      0x00\n        /* \"#utility.yul\":629:630   */\n      dup1\n        /* \"#utility.yul\":622:634   */\n      revert\n        /* \"#utility.yul\":769:891   */\n    tag_50:\n        /* \"#utility.yul\":842:866   */\n      tag_63\n        /* \"#utility.yul\":860:865   */\n      dup2\n        /* \"#utility.yul\":842:866   */\n      tag_45\n      jump\t// in\n    tag_63:\n        /* \"#utility.yul\":835:840   */\n      dup2\n        /* \"#utility.yul\":832:867   */\n      eq\n        /* \"#utility.yul\":822:885   */\n      tag_64\n      jumpi\n        /* \"#utility.yul\":881:882   */\n      0x00\n        /* \"#utility.yul\":878:879   */\n      dup1\n        /* \"#utility.yul\":871:883   */\n      revert\n        /* \"#utility.yul\":822:885   */\n    tag_64:\n        /* \"#utility.yul\":769:891   */\n      pop\n      jump\t// out\n        /* \"#utility.yul\":897:1036   */\n    tag_51:\n        /* \"#utility.yul\":943:948   */\n      0x00\n        /* \"#utility.yul\":981:987   */\n      dup2\n        /* \"#utility.yul\":968:988   */\n      calldataload\n        /* \"#utility.yul\":959:988   */\n      swap1\n      pop\n        /* \"#utility.yul\":997:1030   */\n      tag_66\n        /* \"#utility.yul\":1024:1029   */\n      dup2\n        /* \"#utility.yul\":997:1030   */\n      tag_50\n      jump\t// in\n    tag_66:\n        /* \"#utility.yul\":897:1036   */\n      swap3\n      swap2\n      pop\n      pop\n      jump\t// out\n        /* \"#utility.yul\":1042:1371   */\n    tag_15:\n        /* \"#utility.yul\":1101:1107   */\n      0x00\n        /* \"#utility.yul\":1150:1152   */\n      0x20\n        /* \"#utility.yul\":1138:1147   */\n      dup3\n        /* \"#utility.yul\":1129:1136   */\n      dup5\n        /* \"#utility.yul\":1125:1148   */\n      sub\n        /* \"#utility.yul\":1121:1153   */\n      slt\n        /* \"#utility.yul\":1118:1237   */\n      iszero\n      tag_68\n      jumpi\n        /* \"#utility.yul\":1156:1235   */\n      tag_69\n      tag_48\n      jump\t// in\n    tag_69:\n        /* \"#utility.yul\":1118:1237   */\n    tag_68:\n        /* \"#utility.yul\":1276:1277   */\n      0x00\n        /* \"#utility.yul\":1301:1354   */\n      tag_70\n        /* \"#utility.yul\":1346:1353   */\n      dup5\n        /* \"#utility.yul\":1337:1343   */\n      dup3\n        /* \"#utility.yul\":1326:1335   */\n      dup6\n        /* \"#utility.yul\":1322:1344   */\n      add\n        /* \"#utility.yul\":1301:1354   */\n      tag_51\n      jump\t// in\n    tag_70:\n        /* \"#utility.yul\":1291:1354   */\n      swap2\n      pop\n        /* \"#utility.yul\":1247:1364   */\n      pop\n        /* \"#utility.yul\":1042:1371   */\n      swap3\n      swap2\n      pop\n      pop\n      jump\t// out\n        /* \"#utility.yul\":1377:1819   */\n    tag_27:\n        /* \"#utility.yul\":1526:1530   */\n      0x00\n        /* \"#utility.yul\":1564:1566   */\n      0x60\n        /* \"#utility.yul\":1553:1562   */\n      dup3\n        /* \"#utility.yul\":1549:1567   */\n      add\n        /* \"#utility.yul\":1541:1567   */\n      swap1\n      pop\n        /* \"#utility.yul\":1577:1648   */\n      tag_72\n        /* \"#utility.yul\":1645:1646   */\n      0x00\n        /* \"#utility.yul\":1634:1643   */\n      dup4\n        /* \"#utility.yul\":1630:1647   */\n      add\n        /* \"#utility.yul\":1621:1627   */\n      dup7\n        /* \"#utility.yul\":1577:1648   */\n      tag_46\n      jump\t// in\n    tag_72:\n        /* \"#utility.yul\":1658:1730   */\n      tag_73\n        /* \"#utility.yul\":1726:1728   */\n      0x20\n        /* \"#utility.yul\":1715:1724   */\n      dup4\n        /* \"#utility.yul\":1711:1729   */\n      add\n        /* \"#utility.yul\":1702:1708   */\n      dup6\n        /* \"#utility.yul\":1658:1730   */\n      tag_46\n      jump\t// in\n    tag_73:\n        /* \"#utility.yul\":1740:1812   */\n      tag_74\n        /* \"#utility.yul\":1808:1810   */\n      0x40\n        /* \"#utility.yul\":1797:1806   */\n      dup4\n        /* \"#utility.yul\":1793:1811   */\n      add\n        /* \"#utility.yul\":1784:1790   */\n      dup5\n        /* \"#utility.yul\":1740:1812   */\n      tag_46\n      jump\t// in\n    tag_74:\n        /* \"#utility.yul\":1377:1819   */\n      swap5\n      swap4\n      pop\n      pop\n      pop\n      pop\n      jump\t// out\n        /* \"#utility.yul\":1825:2299   */\n    tag_30:\n        /* \"#utility.yul\":1893:1899   */\n      0x00\n        /* \"#utility.yul\":1901:1907   */\n      dup1\n        /* \"#utility.yul\":1950:1952   */\n      0x40\n        /* \"#utility.yul\":1938:1947   */\n      dup4\n        /* \"#utility.yul\":1929:1936   */\n      dup6\n        /* \"#utility.yul\":1925:1948   */\n      sub\n        /* \"#utility.yul\":1921:1953   */\n      slt\n        /* \"#utility.yul\":1918:2037   */\n      iszero\n      tag_76\n      jumpi\n        /* \"#utility.yul\":1956:2035   */\n      tag_77\n      tag_48\n      jump\t// in\n    tag_77:\n        /* \"#utility.yul\":1918:2037   */\n    tag_76:\n        /* \"#utility.yul\":2076:2077   */\n      0x00\n        /* \"#utility.yul\":2101:2154   */\n      tag_78\n        /* \"#utility.yul\":2146:2153   */\n      dup6\n        /* \"#utility.yul\":2137:2143   */\n      dup3\n        /* \"#utility.yul\":2126:2135   */\n      dup7\n        /* \"#utility.yul\":2122:2144   */\n      add\n        /* \"#utility.yul\":2101:2154   */\n      tag_51\n      jump\t// in\n    tag_78:\n        /* \"#utility.yul\":2091:2154   */\n      swap3\n      pop\n        /* \"#utility.yul\":2047:2164   */\n      pop\n        /* \"#utility.yul\":2203:2205   */\n      0x20\n        /* \"#utility.yul\":2229:2282   */\n      tag_79\n        /* \"#utility.yul\":2274:2281   */\n      dup6\n        /* \"#utility.yul\":2265:2271   */\n      dup3\n        /* \"#utility.yul\":2254:2263   */\n      dup7\n        /* \"#utility.yul\":2250:2272   */\n      add\n        /* \"#utility.yul\":2229:2282   */\n      tag_51\n      jump\t// in\n    tag_79:\n        /* \"#utility.yul\":2219:2282   */\n      swap2\n      pop\n        /* \"#utility.yul\":2174:2292   */\n      pop\n        /* \"#utility.yul\":1825:2299   */\n      swap3\n      pop\n      swap3\n      swap1\n      pop\n      jump\t// out\n        /* \"#utility.yul\":2305:2485   */\n    tag_52:\n        /* \"#utility.yul\":2353:2430   */\n      0x4e487b7100000000000000000000000000000000000000000000000000000000\n        /* \"#utility.yul\":2350:2351   */\n      0x00\n        /* \"#utility.yul\":2343:2431   */\n      mstore\n        /* \"#utility.yul\":2450:2454   */\n      0x11\n        /* \"#utility.yul\":2447:2448   */\n      0x04\n        /* \"#utility.yul\":2440:2455   */\n      mstore\n        /* \"#utility.yul\":2474:2478   */\n      0x24\n        /* \"#utility.yul\":2471:2472   */\n      0x00\n        /* \"#utility.yul\":2464:2479   */\n      revert\n        /* \"#utility.yul\":2491:2662   */\n    tag_36:\n        /* \"#utility.yul\":2530:2533   */\n      0x00\n        /* \"#utility.yul\":2553:2577   */\n      tag_82\n        /* \"#utility.yul\":2571:2576   */\n      dup3\n        /* \"#utility.yul\":2553:2577   */\n      tag_45\n      jump\t// in\n    tag_82:\n        /* \"#utility.yul\":2544:2577   */\n      swap2\n      pop\n        /* \"#utility.yul\":2599:2603   */\n      0x00\n        /* \"#utility.yul\":2592:2597   */\n      dup3\n        /* \"#utility.yul\":2589:2604   */\n      sub\n        /* \"#utility.yul\":2586:2627   */\n      tag_83\n      jumpi\n        /* \"#utility.yul\":2607:2625   */\n      tag_84\n      tag_52\n      jump\t// in\n    tag_84:\n        /* \"#utility.yul\":2586:2627   */\n    tag_83:\n        /* \"#utility.yul\":2654:2655   */\n      0x01\n        /* \"#utility.yul\":2647:2652   */\n      dup3\n        /* \"#utility.yul\":2643:2656   */\n      sub\n        /* \"#utility.yul\":2636:2656   */\n      swap1\n      pop\n        /* \"#utility.yul\":2491:2662   */\n      swap2\n      swap1\n      pop\n      jump\t// out\n        /* \"#utility.yul\":2668:2901   */\n    tag_44:\n        /* \"#utility.yul\":2707:2710   */\n      0x00\n        /* \"#utility.yul\":2730:2754   */\n      tag_86\n        /* \"#utility.yul\":2748:2753   */\n      dup3\n        /* \"#utility.yul\":2730:2754   */\n      tag_45\n      jump\t// in\n    tag_86:\n        /* \"#utility.yul\":2721:2754   */\n      swap2\n      pop\n        /* \"#utility.yul\":2776:2842   */\n      0xffffffffffffffffffffffffffffffffffffffffffffffffffffffffffffffff\n        /* \"#utility.yul\":2769:2774   */\n      dup3\n        /* \"#utility.yul\":2766:2843   */\n      sub\n        /* \"#utility.yul\":2763:2866   */\n      tag_87\n      jumpi\n        /* \"#utility.yul\":2846:2864   */\n      tag_88\n      tag_52\n      jump\t// in\n    tag_88:\n        /* \"#utility.yul\":2763:2866   */\n    tag_87:\n        /* \"#utility.yul\":2893:2894   */\n      0x01\n        /* \"#utility.yul\":2886:2891   */\n      dup3\n        /* \"#utility.yul\":2882:2895   */\n      add\n        /* \"#utility.yul\":2875:2895   */\n      swap1\n      pop\n        /* \"#utility.yul\":2668:2901   */\n      swap2\n      swap1\n      pop\n      jump\t// out\n\n    auxdata: 0xa264697066735822122054ec705844d4d4b5c63409f10ba173a241e858c7ad262053e2b241cc3c337f7b64736f6c63430008120033\n}\n",
				"bytecode": {
					"linkReferences": {},
					"object": "60806040526000600155600060025534801561001a57600080fd5b506040516107de3803806107de833981810160405281019061003c91906100e5565b806000806101000a81548173ffffffffffffffffffffffffffffffffffffffff021916908373ffffffffffffffffffffffffffffffffffffffff16021790555050610112565b600080fd5b600073ffffffffffffffffffffffffffffffffffffffff82169050919050565b60006100b282610087565b9050919050565b6100c2816100a7565b81146100cd57600080fd5b50565b6000815190506100df816100b9565b92915050565b6000602082840312156100fb576100fa610082565b5b6000610109848285016100d0565b91505092915050565b6106bd806101216000396000f3fe608060405234801561001057600080fd5b50600436106100625760003560e01c80631f7b6d32146100675780634cc822151461008557806358fa63ca146100a157806380d281c2146100bf578063ac12d745146100db578063fb470df21461010d575b600080fd5b61006f610129565b60405161007c91906104f7565b60405180910390f35b61009f600480360381019061009a9190610543565b61012f565b005b6100a9610230565b6040516100b691906104f7565b60405180910390f35b6100d960048036038101906100d49190610543565b610236565b005b6100f560048036038101906100f09190610543565b6103b8565b60405161010493929190610570565b60405180910390f35b610127600480360381019061012291906105a7565b6103e2565b005b60025481565b60008054906101000a900473ffffffffffffffffffffffffffffffffffffffff1673ffffffffffffffffffffffffffffffffffffffff163373ffffffffffffffffffffffffffffffffffffffff161461018757600080fd5b600360008281526020019081526020016000206002015460036000600360008581526020019081526020016000206001015481526020019081526020016000206002018190555060036000828152602001908152602001600020600101546003600060036000858152602001908152602001600020600201548152602001908152602001600020600101819055506002600081548092919061022890610616565b919050555050565b60015481565b60008054906101000a900473ffffffffffffffffffffffffffffffffffffffff1673ffffffffffffffffffffffffffffffffffffffff163373ffffffffffffffffffffffffffffffffffffffff161461028e57600080fd5b6000600360008381526020019081526020016000206040518060600160405290816000820154815260200160018201548152602001600282015481525050905060036000600154815260200190815260200160002060020154600360008481526020019081526020016000206002018190555060015460036000848152602001908152602001600020600101819055508160036000600360006001548152602001908152602001600020600201548152602001908152602001600020600101819055508160036000600154815260200190815260200160002060020181905550806020015160036000836040015181526020019081526020016000206001018190555080604001516003600083602001518152602001908152602001600020600201819055505050565b60036020528060005260406000206000915090508060000154908060010154908060020154905083565b60008054906101000a900473ffffffffffffffffffffffffffffffffffffffff1673ffffffffffffffffffffffffffffffffffffffff163373ffffffffffffffffffffffffffffffffffffffff161461043a57600080fd5b600060036000838152602001908152602001600020600201549050826003600084815260200190815260200160002060020181905550806003600085815260200190815260200160002060020181905550826003600083815260200190815260200160002060010181905550826003600085815260200190815260200160002060000181905550600260008154809291906104d49061063f565b9190505550505050565b6000819050919050565b6104f1816104de565b82525050565b600060208201905061050c60008301846104e8565b92915050565b600080fd5b610520816104de565b811461052b57600080fd5b50565b60008135905061053d81610517565b92915050565b60006020828403121561055957610558610512565b5b60006105678482850161052e565b91505092915050565b600060608201905061058560008301866104e8565b61059260208301856104e8565b61059f60408301846104e8565b949350505050565b600080604083850312156105be576105bd610512565b5b60006105cc8582860161052e565b92505060206105dd8582860161052e565b9150509250929050565b7f4e487b7100000000000000000000000000000000000000000000000000000000600052601160045260246000fd5b6000610621826104de565b915060008203610634576106336105e7565b5b600182039050919050565b600061064a826104de565b91507fffffffffffffffffffffffffffffffffffffffffffffffffffffffffffffffff820361067c5761067b6105e7565b5b60018201905091905056fea264697066735822122054ec705844d4d4b5c63409f10ba173a241e858c7ad262053e2b241cc3c337f7b64736f6c63430008120033",
					"opcodes": "PUSH1 0x80 PUSH1 0x40 MSTORE PUSH1 0x0 PUSH1 0x1 SSTORE PUSH1 0x0 PUSH1 0x2 SSTORE CALLVALUE DUP1 ISZERO PUSH2 0x1A JUMPI PUSH1 0x0 DUP1 REVERT JUMPDEST POP PUSH1 0x40 MLOAD PUSH2 0x7DE CODESIZE SUB DUP1 PUSH2 0x7DE DUP4 CODECOPY DUP2 DUP2 ADD PUSH1 0x40 MSTORE DUP2 ADD SWAP1 PUSH2 0x3C SWAP2 SWAP1 PUSH2 0xE5 JUMP JUMPDEST DUP1 PUSH1 0x0 DUP1 PUSH2 0x100 EXP DUP2 SLOAD DUP2 PUSH20 0xFFFFFFFFFFFFFFFFFFFFFFFFFFFFFFFFFFFFFFFF MUL NOT AND SWAP1 DUP4 PUSH20 0xFFFFFFFFFFFFFFFFFFFFFFFFFFFFFFFFFFFFFFFF AND MUL OR SWAP1 SSTORE POP POP PUSH2 0x112 JUMP JUMPDEST PUSH1 0x0 DUP1 REVERT JUMPDEST PUSH1 0x0 PUSH20 0xFFFFFFFFFFFFFFFFFFFFFFFFFFFFFFFFFFFFFFFF DUP3 AND SWAP1 POP SWAP2 SWAP1 POP JUMP JUMPDEST PUSH1 0x0 PUSH2 0xB2 DUP3 PUSH2 0x87 JUMP JUMPDEST SWAP1 POP SWAP2 SWAP1 POP JUMP JUMPDEST PUSH2 0xC2 DUP2 PUSH2 0xA7 JUMP JUMPDEST DUP2 EQ PUSH2 0xCD JUMPI PUSH1 0x0 DUP1 REVERT JUMPDEST POP JUMP JUMPDEST PUSH1 0x0 DUP2 MLOAD SWAP1 POP PUSH2 0xDF DUP2 PUSH2 0xB9 JUMP JUMPDEST SWAP3 SWAP2 POP POP JUMP JUMPDEST PUSH1 0x0 PUSH1 0x20 DUP3 DUP5 SUB SLT ISZERO PUSH2 0xFB JUMPI PUSH2 0xFA PUSH2 0x82 JUMP JUMPDEST JUMPDEST PUSH1 0x0 PUSH2 0x109 DUP5 DUP3 DUP6 ADD PUSH2 0xD0 JUMP JUMPDEST SWAP2 POP POP SWAP3 SWAP2 POP POP JUMP JUMPDEST PUSH2 0x6BD DUP1 PUSH2 0x121 PUSH1 0x0 CODECOPY PUSH1 0x0 RETURN INVALID PUSH1 0x80 PUSH1 0x40 MSTORE CALLVALUE DUP1 ISZERO PUSH2 0x10 JUMPI PUSH1 0x0 DUP1 REVERT JUMPDEST POP PUSH1 0x4 CALLDATASIZE LT PUSH2 0x62 JUMPI PUSH1 0x0 CALLDATALOAD PUSH1 0xE0 SHR DUP1 PUSH4 0x1F7B6D32 EQ PUSH2 0x67 JUMPI DUP1 PUSH4 0x4CC82215 EQ PUSH2 0x85 JUMPI DUP1 PUSH4 0x58FA63CA EQ PUSH2 0xA1 JUMPI DUP1 PUSH4 0x80D281C2 EQ PUSH2 0xBF JUMPI DUP1 PUSH4 0xAC12D745 EQ PUSH2 0xDB JUMPI DUP1 PUSH4 0xFB470DF2 EQ PUSH2 0x10D JUMPI JUMPDEST PUSH1 0x0 DUP1 REVERT JUMPDEST PUSH2 0x6F PUSH2 0x129 JUMP JUMPDEST PUSH1 0x40 MLOAD PUSH2 0x7C SWAP2 SWAP1 PUSH2 0x4F7 JUMP JUMPDEST PUSH1 0x40 MLOAD DUP1 SWAP2 SUB SWAP1 RETURN JUMPDEST PUSH2 0x9F PUSH1 0x4 DUP1 CALLDATASIZE SUB DUP2 ADD SWAP1 PUSH2 0x9A SWAP2 SWAP1 PUSH2 0x543 JUMP JUMPDEST PUSH2 0x12F JUMP JUMPDEST STOP JUMPDEST PUSH2 0xA9 PUSH2 0x230 JUMP JUMPDEST PUSH1 0x40 MLOAD PUSH2 0xB6 SWAP2 SWAP1 PUSH2 0x4F7 JUMP JUMPDEST PUSH1 0x40 MLOAD DUP1 SWAP2 SUB SWAP1 RETURN JUMPDEST PUSH2 0xD9 PUSH1 0x4 DUP1 CALLDATASIZE SUB DUP2 ADD SWAP1 PUSH2 0xD4 SWAP2 SWAP1 PUSH2 0x543 JUMP JUMPDEST PUSH2 0x236 JUMP JUMPDEST STOP JUMPDEST PUSH2 0xF5 PUSH1 0x4 DUP1 CALLDATASIZE SUB DUP2 ADD SWAP1 PUSH2 0xF0 SWAP2 SWAP1 PUSH2 0x543 JUMP JUMPDEST PUSH2 0x3B8 JUMP JUMPDEST PUSH1 0x40 MLOAD PUSH2 0x104 SWAP4 SWAP3 SWAP2 SWAP1 PUSH2 0x570 JUMP JUMPDEST PUSH1 0x40 MLOAD DUP1 SWAP2 SUB SWAP1 RETURN JUMPDEST PUSH2 0x127 PUSH1 0x4 DUP1 CALLDATASIZE SUB DUP2 ADD SWAP1 PUSH2 0x122 SWAP2 SWAP1 PUSH2 0x5A7 JUMP JUMPDEST PUSH2 0x3E2 JUMP JUMPDEST STOP JUMPDEST PUSH1 0x2 SLOAD DUP2 JUMP JUMPDEST PUSH1 0x0 DUP1 SLOAD SWAP1 PUSH2 0x100 EXP SWAP1 DIV PUSH20 0xFFFFFFFFFFFFFFFFFFFFFFFFFFFFFFFFFFFFFFFF AND PUSH20 0xFFFFFFFFFFFFFFFFFFFFFFFFFFFFFFFFFFFFFFFF AND CALLER PUSH20 0xFFFFFFFFFFFFFFFFFFFFFFFFFFFFFFFFFFFFFFFF AND EQ PUSH2 0x187 JUMPI PUSH1 0x0 DUP1 REVERT JUMPDEST PUSH1 0x3 PUSH1 0x0 DUP3 DUP2 MSTORE PUSH1 0x20 ADD SWAP1 DUP2 MSTORE PUSH1 0x20 ADD PUSH1 0x0 KECCAK256 PUSH1 0x2 ADD SLOAD PUSH1 0x3 PUSH1 0x0 PUSH1 0x3 PUSH1 0x0 DUP6 DUP2 MSTORE PUSH1 0x20 ADD SWAP1 DUP2 MSTORE PUSH1 0x20 ADD PUSH1 0x0 KECCAK256 PUSH1 0x1 ADD SLOAD DUP2 MSTORE PUSH1 0x20 ADD SWAP1 DUP2 MSTORE PUSH1 0x20 ADD PUSH1 0x0 KECCAK256 PUSH1 0x2 ADD DUP2 SWAP1 SSTORE POP PUSH1 0x3 PUSH1 0x0 DUP3 DUP2 MSTORE PUSH1 0x20 ADD SWAP1 DUP2 MSTORE PUSH1 0x20 ADD PUSH1 0x0 KECCAK256 PUSH1 0x1 ADD SLOAD PUSH1 0x3 PUSH1 0x0 PUSH1 0x3 PUSH1 0x0 DUP6 DUP2 MSTORE PUSH1 0x20 ADD SWAP1 DUP2 MSTORE PUSH1 0x20 ADD PUSH1 0x0 KECCAK256 PUSH1 0x2 ADD SLOAD DUP2 MSTORE PUSH1 0x20 ADD SWAP1 DUP2 MSTORE PUSH1 0x20 ADD PUSH1 0x0 KECCAK256 PUSH1 0x1 ADD DUP2 SWAP1 SSTORE POP PUSH1 0x2 PUSH1 0x0 DUP2 SLOAD DUP1 SWAP3 SWAP2 SWAP1 PUSH2 0x228 SWAP1 PUSH2 0x616 JUMP JUMPDEST SWAP2 SWAP1 POP SSTORE POP POP JUMP JUMPDEST PUSH1 0x1 SLOAD DUP2 JUMP JUMPDEST PUSH1 0x0 DUP1 SLOAD SWAP1 PUSH2 0x100 EXP SWAP1 DIV PUSH20 0xFFFFFFFFFFFFFFFFFFFFFFFFFFFFFFFFFFFFFFFF AND PUSH20 0xFFFFFFFFFFFFFFFFFFFFFFFFFFFFFFFFFFFFFFFF AND CALLER PUSH20 0xFFFFFFFFFFFFFFFFFFFFFFFFFFFFFFFFFFFFFFFF AND EQ PUSH2 0x28E JUMPI PUSH1 0x0 DUP1 REVERT JUMPDEST PUSH1 0x0 PUSH1 0x3 PUSH1 0x0 DUP4 DUP2 MSTORE PUSH1 0x20 ADD SWAP1 DUP2 MSTORE PUSH1 0x20 ADD PUSH1 0x0 KECCAK256 PUSH1 0x40 MLOAD DUP1 PUSH1 0x60 ADD PUSH1 0x40 MSTORE SWAP1 DUP2 PUSH1 0x0 DUP3 ADD SLOAD DUP2 MSTORE PUSH1 0x20 ADD PUSH1 0x1 DUP3 ADD SLOAD DUP2 MSTORE PUSH1 0x20 ADD PUSH1 0x2 DUP3 ADD SLOAD DUP2 MSTORE POP POP SWAP1 POP PUSH1 0x3 PUSH1 0x0 PUSH1 0x1 SLOAD DUP2 MSTORE PUSH1 0x20 ADD SWAP1 DUP2 MSTORE PUSH1 0x20 ADD PUSH1 0x0 KECCAK256 PUSH1 0x2 ADD SLOAD PUSH1 0x3 PUSH1 0x0 DUP5 DUP2 MSTORE PUSH1 0x20 ADD SWAP1 DUP2 MSTORE PUSH1 0x20 ADD PUSH1 0x0 KECCAK256 PUSH1 0x2 ADD DUP2 SWAP1 SSTORE POP PUSH1 0x1 SLOAD PUSH1 0x3 PUSH1 0x0 DUP5 DUP2 MSTORE PUSH1 0x20 ADD SWAP1 DUP2 MSTORE PUSH1 0x20 ADD PUSH1 0x0 KECCAK256 PUSH1 0x1 ADD DUP2 SWAP1 SSTORE POP DUP2 PUSH1 0x3 PUSH1 0x0 PUSH1 0x3 PUSH1 0x0 PUSH1 0x1 SLOAD DUP2 MSTORE PUSH1 0x20 ADD SWAP1 DUP2 MSTORE PUSH1 0x20 ADD PUSH1 0x0 KECCAK256 PUSH1 0x2 ADD SLOAD DUP2 MSTORE PUSH1 0x20 ADD SWAP1 DUP2 MSTORE PUSH1 0x20 ADD PUSH1 0x0 KECCAK256 PUSH1 0x1 ADD DUP2 SWAP1 SSTORE POP DUP2 PUSH1 0x3 PUSH1 0x0 PUSH1 0x1 SLOAD DUP2 MSTORE PUSH1 0x20 ADD SWAP1 DUP2 MSTORE PUSH1 0x20 ADD PUSH1 0x0 KECCAK256 PUSH1 0x2 ADD DUP2 SWAP1 SSTORE POP DUP1 PUSH1 0x20 ADD MLOAD PUSH1 0x3 PUSH1 0x0 DUP4 PUSH1 0x40 ADD MLOAD DUP2 MSTORE PUSH1 0x20 ADD SWAP1 DUP2 MSTORE PUSH1 0x20 ADD PUSH1 0x0 KECCAK256 PUSH1 0x1 ADD DUP2 SWAP1 SSTORE POP DUP1 PUSH1 0x40 ADD MLOAD PUSH1 0x3 PUSH1 0x0 DUP4 PUSH1 0x20 ADD MLOAD DUP2 MSTORE PUSH1 0x20 ADD SWAP1 DUP2 MSTORE PUSH1 0x20 ADD PUSH1 0x0 KECCAK256 PUSH1 0x2 ADD DUP2 SWAP1 SSTORE POP POP POP JUMP JUMPDEST PUSH1 0x3 PUSH1 0x20 MSTORE DUP1 PUSH1 0x0 MSTORE PUSH1 0x40 PUSH1 0x0 KECCAK256 PUSH1 0x0 SWAP2 POP SWAP1 POP DUP1 PUSH1 0x0 ADD SLOAD SWAP1 DUP1 PUSH1 0x1 ADD SLOAD SWAP1 DUP1 PUSH1 0x2 ADD SLOAD SWAP1 POP DUP4 JUMP JUMPDEST PUSH1 0x0 DUP1 SLOAD SWAP1 PUSH2 0x100 EXP SWAP1 DIV PUSH20 0xFFFFFFFFFFFFFFFFFFFFFFFFFFFFFFFFFFFFFFFF AND PUSH20 0xFFFFFFFFFFFFFFFFFFFFFFFFFFFFFFFFFFFFFFFF AND CALLER PUSH20 0xFFFFFFFFFFFFFFFFFFFFFFFFFFFFFFFFFFFFFFFF AND EQ PUSH2 0x43A JUMPI PUSH1 0x0 DUP1 REVERT JUMPDEST PUSH1 0x0 PUSH1 0x3 PUSH1 0x0 DUP4 DUP2 MSTORE PUSH1 0x20 ADD SWAP1 DUP2 MSTORE PUSH1 0x20 ADD PUSH1 0x0 KECCAK256 PUSH1 0x2 ADD SLOAD SWAP1 POP DUP3 PUSH1 0x3 PUSH1 0x0 DUP5 DUP2 MSTORE PUSH1 0x20 ADD SWAP1 DUP2 MSTORE PUSH1 0x20 ADD PUSH1 0x0 KECCAK256 PUSH1 0x2 ADD DUP2 SWAP1 SSTORE POP DUP1 PUSH1 0x3 PUSH1 0x0 DUP6 DUP2 MSTORE PUSH1 0x20 ADD SWAP1 DUP2 MSTORE PUSH1 0x20 ADD PUSH1 0x0 KECCAK256 PUSH1 0x2 ADD DUP2 SWAP1 SSTORE POP DUP3 PUSH1 0x3 PUSH1 0x0 DUP4 DUP2 MSTORE PUSH1 0x20 ADD SWAP1 DUP2 MSTORE PUSH1 0x20 ADD PUSH1 0x0 KECCAK256 PUSH1 0x1 ADD DUP2 SWAP1 SSTORE POP DUP3 PUSH1 0x3 PUSH1 0x0 DUP6 DUP2 MSTORE PUSH1 0x20 ADD SWAP1 DUP2 MSTORE PUSH1 0x20 ADD PUSH1 0x0 KECCAK256 PUSH1 0x0 ADD DUP2 SWAP1 SSTORE POP PUSH1 0x2 PUSH1 0x0 DUP2 SLOAD DUP1 SWAP3 SWAP2 SWAP1 PUSH2 0x4D4 SWAP1 PUSH2 0x63F JUMP JUMPDEST SWAP2 SWAP1 POP SSTORE POP POP POP POP JUMP JUMPDEST PUSH1 0x0 DUP2 SWAP1 POP SWAP2 SWAP1 POP JUMP JUMPDEST PUSH2 0x4F1 DUP2 PUSH2 0x4DE JUMP JUMPDEST DUP3 MSTORE POP POP JUMP JUMPDEST PUSH1 0x0 PUSH1 0x20 DUP3 ADD SWAP1 POP PUSH2 0x50C PUSH1 0x0 DUP4 ADD DUP5 PUSH2 0x4E8 JUMP JUMPDEST SWAP3 SWAP2 POP POP JUMP JUMPDEST PUSH1 0x0 DUP1 REVERT JUMPDEST PUSH2 0x520 DUP2 PUSH2 0x4DE JUMP JUMPDEST DUP2 EQ PUSH2 0x52B JUMPI PUSH1 0x0 DUP1 REVERT JUMPDEST POP JUMP JUMPDEST PUSH1 0x0 DUP2 CALLDATALOAD SWAP1 POP PUSH2 0x53D DUP2 PUSH2 0x517 JUMP JUMPDEST SWAP3 SWAP2 POP POP JUMP JUMPDEST PUSH1 0x0 PUSH1 0x20 DUP3 DUP5 SUB SLT ISZERO PUSH2 0x559 JUMPI PUSH2 0x558 PUSH2 0x512 JUMP JUMPDEST JUMPDEST PUSH1 0x0 PUSH2 0x567 DUP5 DUP3 DUP6 ADD PUSH2 0x52E JUMP JUMPDEST SWAP2 POP POP SWAP3 SWAP2 POP POP JUMP JUMPDEST PUSH1 0x0 PUSH1 0x60 DUP3 ADD SWAP1 POP PUSH2 0x585 PUSH1 0x0 DUP4 ADD DUP7 PUSH2 0x4E8 JUMP JUMPDEST PUSH2 0x592 PUSH1 0x20 DUP4 ADD DUP6 PUSH2 0x4E8 JUMP JUMPDEST PUSH2 0x59F PUSH1 0x40 DUP4 ADD DUP5 PUSH2 0x4E8 JUMP JUMPDEST SWAP5 SWAP4 POP POP POP POP JUMP JUMPDEST PUSH1 0x0 DUP1 PUSH1 0x40 DUP4 DUP6 SUB SLT ISZERO PUSH2 0x5BE JUMPI PUSH2 0x5BD PUSH2 0x512 JUMP JUMPDEST JUMPDEST PUSH1 0x0 PUSH2 0x5CC DUP6 DUP3 DUP7 ADD PUSH2 0x52E JUMP JUMPDEST SWAP3 POP POP PUSH1 0x20 PUSH2 0x5DD DUP6 DUP3 DUP7 ADD PUSH2 0x52E JUMP JUMPDEST SWAP2 POP POP SWAP3 POP SWAP3 SWAP1 POP JUMP JUMPDEST PUSH32 0x4E487B7100000000000000000000000000000000000000000000000000000000 PUSH1 0x0 MSTORE PUSH1 0x11 PUSH1 0x4 MSTORE PUSH1 0x24 PUSH1 0x0 REVERT JUMPDEST PUSH1 0x0 PUSH2 0x621 DUP3 PUSH2 0x4DE JUMP JUMPDEST SWAP2 POP PUSH1 0x0 DUP3 SUB PUSH2 0x634 JUMPI PUSH2 0x633 PUSH2 0x5E7 JUMP JUMPDEST JUMPDEST PUSH1 0x1 DUP3 SUB SWAP1 POP SWAP2 SWAP1 POP JUMP JUMPDEST PUSH1 0x0 PUSH2 0x64A DUP3 PUSH2 0x4DE JUMP JUMPDEST SWAP2 POP PUSH32 0xFFFFFFFFFFFFFFFFFFFFFFFFFFFFFFFFFFFFFFFFFFFFFFFFFFFFFFFFFFFFFFFF DUP3 SUB PUSH2 0x67C JUMPI PUSH2 0x67B PUSH2 0x5E7 JUMP JUMPDEST JUMPDEST PUSH1 0x1 DUP3 ADD SWAP1 POP SWAP2 SWAP1 POP JUMP INVALID LOG2 PUSH5 0x6970667358 0x22 SLT KECCAK256 SLOAD 0xEC PUSH17 0x5844D4D4B5C63409F10BA173A241E858C7 0xAD 0x26 KECCAK256 MSTORE8 0xE2 0xB2 COINBASE 0xCC EXTCODECOPY CALLER PUSH32 0x7B64736F6C634300081200330000000000000000000000000000000000000000 "
				},
				"gasEstimates": {
					"creation": {
						"codeDepositCost": "345000",
						"executionCost": "infinite",
						"totalCost": "infinite"
					},
					"external": {
						"ZERO()": "2451",
						"increate(uint256,uint256)": "infinite",
						"length()": "2407",
						"nodeTable(uint256)": "infinite",
						"remove(uint256)": "infinite",
						"setNodeToFirst(uint256)": "155100"
					}
				},
				"methodIdentifiers": {
					"ZERO()": "58fa63ca",
					"increate(uint256,uint256)": "fb470df2",
					"length()": "1f7b6d32",
					"nodeTable(uint256)": "ac12d745",
					"remove(uint256)": "4cc82215",
					"setNodeToFirst(uint256)": "80d281c2"
				}
			},
			"storageLayout": {
				"storage": [
					{
						"astId": 2037,
						"contract": "contracts/ProposalLinkedList.sol:ProposalLinkedList",
						"label": "owner",
						"offset": 0,
						"slot": "0",
						"type": "t_address"
					},
					{
						"astId": 2057,
						"contract": "contracts/ProposalLinkedList.sol:ProposalLinkedList",
						"label": "ZERO",
						"offset": 0,
						"slot": "1",
						"type": "t_uint256"
					},
					{
						"astId": 2060,
						"contract": "contracts/ProposalLinkedList.sol:ProposalLinkedList",
						"label": "length",
						"offset": 0,
						"slot": "2",
						"type": "t_uint256"
					},
					{
						"astId": 2076,
						"contract": "contracts/ProposalLinkedList.sol:ProposalLinkedList",
						"label": "nodeTable",
						"offset": 0,
						"slot": "3",
						"type": "t_mapping(t_uint256,t_struct(Node)2054_storage)"
					}
				],
				"types": {
					"t_address": {
						"encoding": "inplace",
						"label": "address",
						"numberOfBytes": "20"
					},
					"t_mapping(t_uint256,t_struct(Node)2054_storage)": {
						"encoding": "mapping",
						"key": "t_uint256",
						"label": "mapping(uint256 => struct ProposalLinkedList.Node)",
						"numberOfBytes": "32",
						"value": "t_struct(Node)2054_storage"
					},
					"t_struct(Node)2054_storage": {
						"encoding": "inplace",
						"label": "struct ProposalLinkedList.Node",
						"members": [
							{
								"astId": 2049,
								"contract": "contracts/ProposalLinkedList.sol:ProposalLinkedList",
								"label": "current",
								"offset": 0,
								"slot": "0",
								"type": "t_uint256"
							},
							{
								"astId": 2051,
								"contract": "contracts/ProposalLinkedList.sol:ProposalLinkedList",
								"label": "front",
								"offset": 0,
								"slot": "1",
								"type": "t_uint256"
							},
							{
								"astId": 2053,
								"contract": "contracts/ProposalLinkedList.sol:ProposalLinkedList",
								"label": "next",
								"offset": 0,
								"slot": "2",
								"type": "t_uint256"
							}
						],
						"numberOfBytes": "96"
					},
					"t_uint256": {
						"encoding": "inplace",
						"label": "uint256",
						"numberOfBytes": "32"
					}
				}
			},
			"userdoc": {
				"kind": "user",
				"methods": {},
				"version": 1
			}
		}
	}
}