{
	"contracts/Proposals.sol": {
		"Proposals": {
			"abi": [
				{
					"inputs": [
						{
							"internalType": "address",
							"name": "_token",
							"type": "address"
						},
						{
							"internalType": "address",
							"name": "_vicDAO",
							"type": "address"
						},
						{
							"internalType": "address",
							"name": "_administrator",
							"type": "address"
						}
					],
					"stateMutability": "nonpayable",
					"type": "constructor"
				},
				{
					"anonymous": false,
					"inputs": [
						{
							"indexed": true,
							"internalType": "uint256",
							"name": "proposalId",
							"type": "uint256"
						},
						{
							"indexed": false,
							"internalType": "address",
							"name": "nftAddress",
							"type": "address"
						},
						{
							"indexed": false,
							"internalType": "uint256",
							"name": "tokenId",
							"type": "uint256"
						},
						{
							"indexed": false,
							"internalType": "uint256",
							"name": "blockNumber",
							"type": "uint256"
						},
						{
							"indexed": false,
							"internalType": "address[]",
							"name": "rejectors",
							"type": "address[]"
						}
					],
					"name": "FailedProposal",
					"type": "event"
				},
				{
					"anonymous": false,
					"inputs": [
						{
							"indexed": true,
							"internalType": "uint256",
							"name": "proposalId",
							"type": "uint256"
						},
						{
							"indexed": false,
							"internalType": "address",
							"name": "nftAddress",
							"type": "address"
						},
						{
							"indexed": false,
							"internalType": "uint256",
							"name": "tokenId",
							"type": "uint256"
						},
						{
							"indexed": false,
							"internalType": "uint256",
							"name": "blockNumber",
							"type": "uint256"
						}
					],
					"name": "PassP2pProposal",
					"type": "event"
				},
				{
					"anonymous": false,
					"inputs": [
						{
							"indexed": true,
							"internalType": "uint256",
							"name": "proposalId",
							"type": "uint256"
						},
						{
							"indexed": false,
							"internalType": "address",
							"name": "nftAddress",
							"type": "address"
						},
						{
							"indexed": false,
							"internalType": "uint256",
							"name": "tokenId",
							"type": "uint256"
						},
						{
							"indexed": false,
							"internalType": "uint256",
							"name": "blockNumber",
							"type": "uint256"
						},
						{
							"indexed": false,
							"internalType": "address[]",
							"name": "agreeers",
							"type": "address[]"
						}
					],
					"name": "PassProposal",
					"type": "event"
				},
				{
					"anonymous": false,
					"inputs": [
						{
							"indexed": true,
							"internalType": "uint256",
							"name": "proposalId",
							"type": "uint256"
						},
						{
							"indexed": false,
							"internalType": "address",
							"name": "nftAddress",
							"type": "address"
						},
						{
							"indexed": false,
							"internalType": "uint256",
							"name": "tokenId",
							"type": "uint256"
						},
						{
							"indexed": false,
							"internalType": "uint256",
							"name": "blockNumber",
							"type": "uint256"
						}
					],
					"name": "RevokeProposal",
					"type": "event"
				},
				{
					"anonymous": false,
					"inputs": [
						{
							"indexed": true,
							"internalType": "uint256",
							"name": "proposalId",
							"type": "uint256"
						},
						{
							"indexed": true,
							"internalType": "address",
							"name": "owner",
							"type": "address"
						},
						{
							"indexed": false,
							"internalType": "address",
							"name": "nftAddress",
							"type": "address"
						},
						{
							"indexed": false,
							"internalType": "uint256",
							"name": "tokenId",
							"type": "uint256"
						},
						{
							"indexed": false,
							"internalType": "uint256",
							"name": "price",
							"type": "uint256"
						},
						{
							"indexed": false,
							"internalType": "uint256",
							"name": "blockNumber",
							"type": "uint256"
						},
						{
							"indexed": false,
							"internalType": "bytes32",
							"name": "ramdomNumber",
							"type": "bytes32"
						}
					],
					"name": "SetProposal",
					"type": "event"
				},
				{
					"inputs": [
						{
							"internalType": "uint256",
							"name": "_proposalId",
							"type": "uint256"
						}
					],
					"name": "P2pBuy",
					"outputs": [],
					"stateMutability": "nonpayable",
					"type": "function"
				},
				{
					"inputs": [],
					"name": "VicDAO",
					"outputs": [
						{
							"internalType": "address",
							"name": "",
							"type": "address"
						}
					],
					"stateMutability": "view",
					"type": "function"
				},
				{
					"inputs": [
						{
							"internalType": "address",
							"name": "_address",
							"type": "address"
						},
						{
							"internalType": "uint256",
							"name": "_value",
							"type": "uint256"
						},
						{
							"internalType": "bool",
							"name": "_flag",
							"type": "bool"
						}
					],
					"name": "calculateHash",
					"outputs": [
						{
							"internalType": "bytes32",
							"name": "",
							"type": "bytes32"
						}
					],
					"stateMutability": "pure",
					"type": "function"
				},
				{
					"inputs": [
						{
							"internalType": "address",
							"name": "_nftAddress",
							"type": "address"
						},
						{
							"internalType": "uint256",
							"name": "_tokenId",
							"type": "uint256"
						},
						{
							"internalType": "uint256",
							"name": "_price",
							"type": "uint256"
						},
						{
							"internalType": "bytes32",
							"name": "_newRandowNumber",
							"type": "bytes32"
						},
						{
							"internalType": "uint256",
							"name": "_loanTime",
							"type": "uint256"
						}
					],
					"name": "createP2DProposal",
					"outputs": [],
					"stateMutability": "nonpayable",
					"type": "function"
				},
				{
					"inputs": [
						{
							"internalType": "address",
							"name": "_nftAddress",
							"type": "address"
						},
						{
							"internalType": "uint256",
							"name": "_tokenId",
							"type": "uint256"
						},
						{
							"internalType": "uint256",
							"name": "_price",
							"type": "uint256"
						},
						{
							"internalType": "uint256",
							"name": "_loanTime",
							"type": "uint256"
						}
					],
					"name": "createP2PProposal",
					"outputs": [],
					"stateMutability": "nonpayable",
					"type": "function"
				},
				{
					"inputs": [
						{
							"internalType": "uint256",
							"name": "time",
							"type": "uint256"
						}
					],
					"name": "lendingRate",
					"outputs": [
						{
							"internalType": "uint256",
							"name": "",
							"type": "uint256"
						}
					],
					"stateMutability": "pure",
					"type": "function"
				},
				{
					"inputs": [
						{
							"internalType": "uint256",
							"name": "amount",
							"type": "uint256"
						},
						{
							"internalType": "uint256",
							"name": "time",
							"type": "uint256"
						}
					],
					"name": "payAmount",
					"outputs": [
						{
							"internalType": "uint256",
							"name": "",
							"type": "uint256"
						}
					],
					"stateMutability": "pure",
					"type": "function"
				},
				{
					"inputs": [
						{
							"internalType": "uint256",
							"name": "_propsalId",
							"type": "uint256"
						}
					],
					"name": "payByP2D",
					"outputs": [],
					"stateMutability": "nonpayable",
					"type": "function"
				},
				{
					"inputs": [
						{
							"internalType": "uint256",
							"name": "_propsalId",
							"type": "uint256"
						}
					],
					"name": "payByP2P",
					"outputs": [],
					"stateMutability": "nonpayable",
					"type": "function"
				},
				{
					"inputs": [],
					"name": "proposalLinkedList",
					"outputs": [
						{
							"internalType": "contract ProposalLinkedList",
							"name": "",
							"type": "address"
						}
					],
					"stateMutability": "view",
					"type": "function"
				},
				{
					"inputs": [
						{
							"internalType": "address",
							"name": "",
							"type": "address"
						},
						{
							"internalType": "uint256",
							"name": "",
							"type": "uint256"
						}
					],
					"name": "proposalTable",
					"outputs": [
						{
							"internalType": "uint256",
							"name": "",
							"type": "uint256"
						}
					],
					"stateMutability": "view",
					"type": "function"
				},
				{
					"inputs": [
						{
							"internalType": "uint256",
							"name": "",
							"type": "uint256"
						}
					],
					"name": "proposals",
					"outputs": [
						{
							"internalType": "uint256",
							"name": "blockNumber",
							"type": "uint256"
						},
						{
							"internalType": "address",
							"name": "nftAddress",
							"type": "address"
						},
						{
							"internalType": "uint256",
							"name": "tokenId",
							"type": "uint256"
						},
						{
							"internalType": "address",
							"name": "borrower",
							"type": "address"
						},
						{
							"internalType": "uint256",
							"name": "createTime",
							"type": "uint256"
						},
						{
							"internalType": "uint256",
							"name": "price",
							"type": "uint256"
						},
						{
							"internalType": "uint256",
							"name": "loanTime",
							"type": "uint256"
						},
						{
							"internalType": "enum Proposals.ProposalStatus",
							"name": "status",
							"type": "uint8"
						},
						{
							"internalType": "address",
							"name": "lender",
							"type": "address"
						},
						{
							"internalType": "bytes32",
							"name": "currRandomNumber",
							"type": "bytes32"
						},
						{
							"internalType": "uint256",
							"name": "borrowTime",
							"type": "uint256"
						}
					],
					"stateMutability": "view",
					"type": "function"
				},
				{
					"inputs": [],
					"name": "ramdomNumber",
					"outputs": [
						{
							"internalType": "bytes32",
							"name": "",
							"type": "bytes32"
						}
					],
					"stateMutability": "view",
					"type": "function"
				},
				{
					"inputs": [
						{
							"internalType": "uint256",
							"name": "_proposalId",
							"type": "uint256"
						}
					],
					"name": "revokeP2DProposal",
					"outputs": [],
					"stateMutability": "nonpayable",
					"type": "function"
				},
				{
					"inputs": [
						{
							"internalType": "uint256",
							"name": "_proposalId",
							"type": "uint256"
						}
					],
					"name": "revokeP2PProposal",
					"outputs": [],
					"stateMutability": "nonpayable",
					"type": "function"
				},
				{
					"inputs": [
						{
							"internalType": "address",
							"name": "_address",
							"type": "address"
						}
					],
					"name": "setAdministrator",
					"outputs": [
						{
							"internalType": "address",
							"name": "",
							"type": "address"
						}
					],
					"stateMutability": "nonpayable",
					"type": "function"
				},
				{
					"inputs": [
						{
							"internalType": "uint256",
							"name": "_voteNumber",
							"type": "uint256"
						}
					],
					"name": "setVoteNumber",
					"outputs": [],
					"stateMutability": "nonpayable",
					"type": "function"
				},
				{
					"inputs": [],
					"name": "signer",
					"outputs": [
						{
							"internalType": "address",
							"name": "",
							"type": "address"
						}
					],
					"stateMutability": "view",
					"type": "function"
				},
				{
					"inputs": [],
					"name": "token",
					"outputs": [
						{
							"internalType": "contract IERC20",
							"name": "",
							"type": "address"
						}
					],
					"stateMutability": "view",
					"type": "function"
				},
				{
					"inputs": [
						{
							"internalType": "uint256",
							"name": "_proposalId",
							"type": "uint256"
						},
						{
							"internalType": "bool",
							"name": "_agreement",
							"type": "bool"
						},
						{
							"internalType": "bytes",
							"name": "_sign",
							"type": "bytes"
						}
					],
					"name": "vote",
					"outputs": [],
					"stateMutability": "nonpayable",
					"type": "function"
				},
				{
					"inputs": [],
					"name": "voteNumber",
					"outputs": [
						{
							"internalType": "uint256",
							"name": "",
							"type": "uint256"
						}
					],
					"stateMutability": "view",
					"type": "function"
				}
			],
			"devdoc": {
				"kind": "dev",
				"methods": {},
				"version": 1
			},
			"evm": {
				"assembly": "    /* \"contracts/Proposals.sol\":299:10705  contract Proposals{... */\n  mstore(0x40, 0x80)\n    /* \"contracts/Proposals.sol\":392:404  block.number */\n  number\n    /* \"contracts/Proposals.sol\":406:421  block.timestamp */\n  timestamp\n    /* \"contracts/Proposals.sol\":375:422  abi.encodePacked(block.number, block.timestamp) */\n  add(0x20, mload(0x40))\n  tag_1\n  swap3\n  swap2\n  swap1\n  tag_2\n  jump\t// in\ntag_1:\n  mload(0x40)\n  0x20\n  dup2\n  dup4\n  sub\n  sub\n  dup2\n  mstore\n  swap1\n  0x40\n  mstore\n    /* \"contracts/Proposals.sol\":365:423  keccak256(abi.encodePacked(block.number, block.timestamp)) */\n  dup1\n  mload\n  swap1\n  0x20\n  add\n  keccak256\n    /* \"contracts/Proposals.sol\":326:423  bytes32 public ramdomNumber =... */\n  0x00\n  sstore\n    /* \"contracts/Proposals.sol\":584:626  0x41c2481B5acd58De9336b56A881b5D914f517064 */\n  0x41c2481b5acd58de9336b56a881b5d914f517064\n    /* \"contracts/Proposals.sol\":562:626  address public signer=0x41c2481B5acd58De9336b56A881b5D914f517064 */\n  0x03\n  exp(0x0100, 0x00)\n  dup2\n  sload\n  dup2\n  0xffffffffffffffffffffffffffffffffffffffff\n  mul\n  not\n  and\n  swap1\n  dup4\n  0xffffffffffffffffffffffffffffffffffffffff\n  and\n  mul\n  or\n  swap1\n  sstore\n  pop\n    /* \"contracts/Proposals.sol\":661:664  100 */\n  0x64\n    /* \"contracts/Proposals.sol\":633:664  uint256 public voteNumber = 100 */\n  0x04\n  sstore\n    /* \"contracts/Proposals.sol\":738:982  constructor(address _token,address _vicDAO,address _administrator){... */\n  callvalue\n  dup1\n  iszero\n  tag_3\n  jumpi\n  0x00\n  dup1\n  revert\ntag_3:\n  pop\n  mload(0x40)\n  sub(codesize, bytecodeSize)\n  dup1\n  bytecodeSize\n  dup4\n  codecopy\n  dup2\n  dup2\n  add\n  0x40\n  mstore\n  dup2\n  add\n  swap1\n  tag_4\n  swap2\n  swap1\n  tag_5\n  jump\t// in\ntag_4:\n    /* \"contracts/Proposals.sol\":830:836  _token */\n  dup3\n    /* \"contracts/Proposals.sol\":815:820  token */\n  0x01\n  0x00\n    /* \"contracts/Proposals.sol\":815:837  token = IERC20(_token) */\n  0x0100\n  exp\n  dup2\n  sload\n  dup2\n  0xffffffffffffffffffffffffffffffffffffffff\n  mul\n  not\n  and\n  swap1\n  dup4\n  0xffffffffffffffffffffffffffffffffffffffff\n  and\n  mul\n  or\n  swap1\n  sstore\n  pop\n    /* \"contracts/Proposals.sol\":857:864  _vicDAO */\n  dup2\n    /* \"contracts/Proposals.sol\":848:854  VicDAO */\n  0x05\n  0x00\n    /* \"contracts/Proposals.sol\":848:864  VicDAO = _vicDAO */\n  0x0100\n  exp\n  dup2\n  sload\n  dup2\n  0xffffffffffffffffffffffffffffffffffffffff\n  mul\n  not\n  and\n  swap1\n  dup4\n  0xffffffffffffffffffffffffffffffffffffffff\n  and\n  mul\n  or\n  swap1\n  sstore\n  pop\n    /* \"contracts/Proposals.sol\":891:905  _administrator */\n  dup1\n    /* \"contracts/Proposals.sol\":875:888  administrator */\n  0x06\n  0x00\n    /* \"contracts/Proposals.sol\":875:905  administrator = _administrator */\n  0x0100\n  exp\n  dup2\n  sload\n  dup2\n  0xffffffffffffffffffffffffffffffffffffffff\n  mul\n  not\n  and\n  swap1\n  dup4\n  0xffffffffffffffffffffffffffffffffffffffff\n  and\n  mul\n  or\n  swap1\n  sstore\n  pop\n    /* \"contracts/Proposals.sol\":968:972  this */\n  address\n    /* \"contracts/Proposals.sol\":937:974  new ProposalLinkedList(address(this)) */\n  mload(0x40)\n  tag_8\n  swap1\n  tag_9\n  jump\t// in\ntag_8:\n  tag_10\n  swap2\n  swap1\n  tag_11\n  jump\t// in\ntag_10:\n  mload(0x40)\n  dup1\n  swap2\n  sub\n  swap1\n  0x00\n  create\n  dup1\n  iszero\n  dup1\n  iszero\n  tag_12\n  jumpi\n  returndatasize\n  0x00\n  dup1\n  returndatacopy\n  revert(0x00, returndatasize)\ntag_12:\n  pop\n    /* \"contracts/Proposals.sol\":916:934  proposalLinkedList */\n  0x02\n  0x00\n    /* \"contracts/Proposals.sol\":916:974  proposalLinkedList = new ProposalLinkedList(address(this)) */\n  0x0100\n  exp\n  dup2\n  sload\n  dup2\n  0xffffffffffffffffffffffffffffffffffffffff\n  mul\n  not\n  and\n  swap1\n  dup4\n  0xffffffffffffffffffffffffffffffffffffffff\n  and\n  mul\n  or\n  swap1\n  sstore\n  pop\n    /* \"contracts/Proposals.sol\":738:982  constructor(address _token,address _vicDAO,address _administrator){... */\n  pop\n  pop\n  pop\n    /* \"contracts/Proposals.sol\":299:10705  contract Proposals{... */\n  jump(tag_13)\ntag_9:\n  dataSize(sub_1)\n  dup1\n  dataOffset(sub_1)\n  dup4\n  codecopy\n  add\n  swap1\n  jump\t// out\n    /* \"#utility.yul\":7:84   */\ntag_14:\n    /* \"#utility.yul\":44:51   */\n  0x00\n    /* \"#utility.yul\":73:78   */\n  dup2\n    /* \"#utility.yul\":62:78   */\n  swap1\n  pop\n    /* \"#utility.yul\":7:84   */\n  swap2\n  swap1\n  pop\n  jump\t// out\n    /* \"#utility.yul\":90:169   */\ntag_15:\n    /* \"#utility.yul\":129:136   */\n  0x00\n    /* \"#utility.yul\":158:163   */\n  dup2\n    /* \"#utility.yul\":147:163   */\n  swap1\n  pop\n    /* \"#utility.yul\":90:169   */\n  swap2\n  swap1\n  pop\n  jump\t// out\n    /* \"#utility.yul\":175:332   */\ntag_16:\n    /* \"#utility.yul\":280:325   */\n  tag_29\n    /* \"#utility.yul\":300:324   */\n  tag_30\n    /* \"#utility.yul\":318:323   */\n  dup3\n    /* \"#utility.yul\":300:324   */\n  tag_14\n  jump\t// in\ntag_30:\n    /* \"#utility.yul\":280:325   */\n  tag_15\n  jump\t// in\ntag_29:\n    /* \"#utility.yul\":275:278   */\n  dup3\n    /* \"#utility.yul\":268:326   */\n  mstore\n    /* \"#utility.yul\":175:332   */\n  pop\n  pop\n  jump\t// out\n    /* \"#utility.yul\":338:735   */\ntag_2:\n    /* \"#utility.yul\":478:481   */\n  0x00\n    /* \"#utility.yul\":493:568   */\n  tag_32\n    /* \"#utility.yul\":564:567   */\n  dup3\n    /* \"#utility.yul\":555:561   */\n  dup6\n    /* \"#utility.yul\":493:568   */\n  tag_16\n  jump\t// in\ntag_32:\n    /* \"#utility.yul\":593:595   */\n  0x20\n    /* \"#utility.yul\":588:591   */\n  dup3\n    /* \"#utility.yul\":584:596   */\n  add\n    /* \"#utility.yul\":577:596   */\n  swap2\n  pop\n    /* \"#utility.yul\":606:681   */\n  tag_33\n    /* \"#utility.yul\":677:680   */\n  dup3\n    /* \"#utility.yul\":668:674   */\n  dup5\n    /* \"#utility.yul\":606:681   */\n  tag_16\n  jump\t// in\ntag_33:\n    /* \"#utility.yul\":706:708   */\n  0x20\n    /* \"#utility.yul\":701:704   */\n  dup3\n    /* \"#utility.yul\":697:709   */\n  add\n    /* \"#utility.yul\":690:709   */\n  swap2\n  pop\n    /* \"#utility.yul\":726:729   */\n  dup2\n    /* \"#utility.yul\":719:729   */\n  swap1\n  pop\n    /* \"#utility.yul\":338:735   */\n  swap4\n  swap3\n  pop\n  pop\n  pop\n  jump\t// out\n    /* \"#utility.yul\":822:939   */\ntag_18:\n    /* \"#utility.yul\":931:932   */\n  0x00\n    /* \"#utility.yul\":928:929   */\n  dup1\n    /* \"#utility.yul\":921:933   */\n  revert\n    /* \"#utility.yul\":1068:1194   */\ntag_20:\n    /* \"#utility.yul\":1105:1112   */\n  0x00\n    /* \"#utility.yul\":1145:1187   */\n  0xffffffffffffffffffffffffffffffffffffffff\n    /* \"#utility.yul\":1138:1143   */\n  dup3\n    /* \"#utility.yul\":1134:1188   */\n  and\n    /* \"#utility.yul\":1123:1188   */\n  swap1\n  pop\n    /* \"#utility.yul\":1068:1194   */\n  swap2\n  swap1\n  pop\n  jump\t// out\n    /* \"#utility.yul\":1200:1296   */\ntag_21:\n    /* \"#utility.yul\":1237:1244   */\n  0x00\n    /* \"#utility.yul\":1266:1290   */\n  tag_39\n    /* \"#utility.yul\":1284:1289   */\n  dup3\n    /* \"#utility.yul\":1266:1290   */\n  tag_20\n  jump\t// in\ntag_39:\n    /* \"#utility.yul\":1255:1290   */\n  swap1\n  pop\n    /* \"#utility.yul\":1200:1296   */\n  swap2\n  swap1\n  pop\n  jump\t// out\n    /* \"#utility.yul\":1302:1424   */\ntag_22:\n    /* \"#utility.yul\":1375:1399   */\n  tag_41\n    /* \"#utility.yul\":1393:1398   */\n  dup2\n    /* \"#utility.yul\":1375:1399   */\n  tag_21\n  jump\t// in\ntag_41:\n    /* \"#utility.yul\":1368:1373   */\n  dup2\n    /* \"#utility.yul\":1365:1400   */\n  eq\n    /* \"#utility.yul\":1355:1418   */\n  tag_42\n  jumpi\n    /* \"#utility.yul\":1414:1415   */\n  0x00\n    /* \"#utility.yul\":1411:1412   */\n  dup1\n    /* \"#utility.yul\":1404:1416   */\n  revert\n    /* \"#utility.yul\":1355:1418   */\ntag_42:\n    /* \"#utility.yul\":1302:1424   */\n  pop\n  jump\t// out\n    /* \"#utility.yul\":1430:1573   */\ntag_23:\n    /* \"#utility.yul\":1487:1492   */\n  0x00\n    /* \"#utility.yul\":1518:1524   */\n  dup2\n    /* \"#utility.yul\":1512:1525   */\n  mload\n    /* \"#utility.yul\":1503:1525   */\n  swap1\n  pop\n    /* \"#utility.yul\":1534:1567   */\n  tag_44\n    /* \"#utility.yul\":1561:1566   */\n  dup2\n    /* \"#utility.yul\":1534:1567   */\n  tag_22\n  jump\t// in\ntag_44:\n    /* \"#utility.yul\":1430:1573   */\n  swap3\n  swap2\n  pop\n  pop\n  jump\t// out\n    /* \"#utility.yul\":1579:2242   */\ntag_5:\n    /* \"#utility.yul\":1667:1673   */\n  0x00\n    /* \"#utility.yul\":1675:1681   */\n  dup1\n    /* \"#utility.yul\":1683:1689   */\n  0x00\n    /* \"#utility.yul\":1732:1734   */\n  0x60\n    /* \"#utility.yul\":1720:1729   */\n  dup5\n    /* \"#utility.yul\":1711:1718   */\n  dup7\n    /* \"#utility.yul\":1707:1730   */\n  sub\n    /* \"#utility.yul\":1703:1735   */\n  slt\n    /* \"#utility.yul\":1700:1819   */\n  iszero\n  tag_46\n  jumpi\n    /* \"#utility.yul\":1738:1817   */\n  tag_47\n  tag_18\n  jump\t// in\ntag_47:\n    /* \"#utility.yul\":1700:1819   */\ntag_46:\n    /* \"#utility.yul\":1858:1859   */\n  0x00\n    /* \"#utility.yul\":1883:1947   */\n  tag_48\n    /* \"#utility.yul\":1939:1946   */\n  dup7\n    /* \"#utility.yul\":1930:1936   */\n  dup3\n    /* \"#utility.yul\":1919:1928   */\n  dup8\n    /* \"#utility.yul\":1915:1937   */\n  add\n    /* \"#utility.yul\":1883:1947   */\n  tag_23\n  jump\t// in\ntag_48:\n    /* \"#utility.yul\":1873:1947   */\n  swap4\n  pop\n    /* \"#utility.yul\":1829:1957   */\n  pop\n    /* \"#utility.yul\":1996:1998   */\n  0x20\n    /* \"#utility.yul\":2022:2086   */\n  tag_49\n    /* \"#utility.yul\":2078:2085   */\n  dup7\n    /* \"#utility.yul\":2069:2075   */\n  dup3\n    /* \"#utility.yul\":2058:2067   */\n  dup8\n    /* \"#utility.yul\":2054:2076   */\n  add\n    /* \"#utility.yul\":2022:2086   */\n  tag_23\n  jump\t// in\ntag_49:\n    /* \"#utility.yul\":2012:2086   */\n  swap3\n  pop\n    /* \"#utility.yul\":1967:2096   */\n  pop\n    /* \"#utility.yul\":2135:2137   */\n  0x40\n    /* \"#utility.yul\":2161:2225   */\n  tag_50\n    /* \"#utility.yul\":2217:2224   */\n  dup7\n    /* \"#utility.yul\":2208:2214   */\n  dup3\n    /* \"#utility.yul\":2197:2206   */\n  dup8\n    /* \"#utility.yul\":2193:2215   */\n  add\n    /* \"#utility.yul\":2161:2225   */\n  tag_23\n  jump\t// in\ntag_50:\n    /* \"#utility.yul\":2151:2225   */\n  swap2\n  pop\n    /* \"#utility.yul\":2106:2235   */\n  pop\n    /* \"#utility.yul\":1579:2242   */\n  swap3\n  pop\n  swap3\n  pop\n  swap3\n  jump\t// out\n    /* \"#utility.yul\":2248:2366   */\ntag_24:\n    /* \"#utility.yul\":2335:2359   */\n  tag_52\n    /* \"#utility.yul\":2353:2358   */\n  dup2\n    /* \"#utility.yul\":2335:2359   */\n  tag_21\n  jump\t// in\ntag_52:\n    /* \"#utility.yul\":2330:2333   */\n  dup3\n    /* \"#utility.yul\":2323:2360   */\n  mstore\n    /* \"#utility.yul\":2248:2366   */\n  pop\n  pop\n  jump\t// out\n    /* \"#utility.yul\":2372:2594   */\ntag_11:\n    /* \"#utility.yul\":2465:2469   */\n  0x00\n    /* \"#utility.yul\":2503:2505   */\n  0x20\n    /* \"#utility.yul\":2492:2501   */\n  dup3\n    /* \"#utility.yul\":2488:2506   */\n  add\n    /* \"#utility.yul\":2480:2506   */\n  swap1\n  pop\n    /* \"#utility.yul\":2516:2587   */\n  tag_54\n    /* \"#utility.yul\":2584:2585   */\n  0x00\n    /* \"#utility.yul\":2573:2582   */\n  dup4\n    /* \"#utility.yul\":2569:2586   */\n  add\n    /* \"#utility.yul\":2560:2566   */\n  dup5\n    /* \"#utility.yul\":2516:2587   */\n  tag_24\n  jump\t// in\ntag_54:\n    /* \"#utility.yul\":2372:2594   */\n  swap3\n  swap2\n  pop\n  pop\n  jump\t// out\n    /* \"contracts/Proposals.sol\":299:10705  contract Proposals{... */\ntag_13:\n  dataSize(sub_0)\n  dup1\n  dataOffset(sub_0)\n  0x00\n  codecopy\n  0x00\n  return\nstop\n\nsub_0: assembly {\n        /* \"contracts/Proposals.sol\":299:10705  contract Proposals{... */\n      mstore(0x40, 0x80)\n      callvalue\n      dup1\n      iszero\n      tag_1\n      jumpi\n      0x00\n      dup1\n      revert\n    tag_1:\n      pop\n      jumpi(tag_2, lt(calldatasize, 0x04))\n      shr(0xe0, calldataload(0x00))\n      dup1\n      0x88d8efcd\n      gt\n      tag_24\n      jumpi\n      dup1\n      0xdf8089ef\n      gt\n      tag_25\n      jumpi\n      dup1\n      0xdf8089ef\n      eq\n      tag_18\n      jumpi\n      dup1\n      0xe1dac56b\n      eq\n      tag_19\n      jumpi\n      dup1\n      0xe7a1f2de\n      eq\n      tag_20\n      jumpi\n      dup1\n      0xeb29c564\n      eq\n      tag_21\n      jumpi\n      dup1\n      0xfc0c546a\n      eq\n      tag_22\n      jumpi\n      dup1\n      0xfef01d8f\n      eq\n      tag_23\n      jumpi\n      jump(tag_2)\n    tag_25:\n      dup1\n      0x88d8efcd\n      eq\n      tag_13\n      jumpi\n      dup1\n      0x8d55cfb6\n      eq\n      tag_14\n      jumpi\n      dup1\n      0xbf4f41eb\n      eq\n      tag_15\n      jumpi\n      dup1\n      0xc83a34f6\n      eq\n      tag_16\n      jumpi\n      dup1\n      0xd80ee2e9\n      eq\n      tag_17\n      jumpi\n      jump(tag_2)\n    tag_24:\n      dup1\n      0x3164d86f\n      gt\n      tag_26\n      jumpi\n      dup1\n      0x3164d86f\n      eq\n      tag_8\n      jumpi\n      dup1\n      0x4f172537\n      eq\n      tag_9\n      jumpi\n      dup1\n      0x6295a466\n      eq\n      tag_10\n      jumpi\n      dup1\n      0x6c9f2032\n      eq\n      tag_11\n      jumpi\n      dup1\n      0x7097e18e\n      eq\n      tag_12\n      jumpi\n      jump(tag_2)\n    tag_26:\n      dup1\n      0x013cf08b\n      eq\n      tag_3\n      jumpi\n      dup1\n      0x051dd5a8\n      eq\n      tag_4\n      jumpi\n      dup1\n      0x0d4e50ed\n      eq\n      tag_5\n      jumpi\n      dup1\n      0x215b28c5\n      eq\n      tag_6\n      jumpi\n      dup1\n      0x238ac933\n      eq\n      tag_7\n      jumpi\n    tag_2:\n      0x00\n      dup1\n      revert\n        /* \"contracts/Proposals.sol\":1118:1145  Proposal[] public proposals */\n    tag_3:\n      tag_27\n      0x04\n      dup1\n      calldatasize\n      sub\n      dup2\n      add\n      swap1\n      tag_28\n      swap2\n      swap1\n      tag_29\n      jump\t// in\n    tag_28:\n      tag_30\n      jump\t// in\n    tag_27:\n      mload(0x40)\n      tag_31\n      swap12\n      swap11\n      swap10\n      swap9\n      swap8\n      swap7\n      swap6\n      swap5\n      swap4\n      swap3\n      swap2\n      swap1\n      tag_32\n      jump\t// in\n    tag_31:\n      mload(0x40)\n      dup1\n      swap2\n      sub\n      swap1\n      return\n        /* \"contracts/Proposals.sol\":8598:8932  function payByP2D(uint256 _propsalId)public{... */\n    tag_4:\n      tag_33\n      0x04\n      dup1\n      calldatasize\n      sub\n      dup2\n      add\n      swap1\n      tag_34\n      swap2\n      swap1\n      tag_29\n      jump\t// in\n    tag_34:\n      tag_35\n      jump\t// in\n    tag_33:\n      stop\n        /* \"contracts/Proposals.sol\":8415:8590  function calculateHash(address _address, uint256 _value, bool _flag) public pure returns (bytes32) {... */\n    tag_5:\n      tag_36\n      0x04\n      dup1\n      calldatasize\n      sub\n      dup2\n      add\n      swap1\n      tag_37\n      swap2\n      swap1\n      tag_38\n      jump\t// in\n    tag_37:\n      tag_39\n      jump\t// in\n    tag_36:\n      mload(0x40)\n      tag_40\n      swap2\n      swap1\n      tag_41\n      jump\t// in\n    tag_40:\n      mload(0x40)\n      dup1\n      swap2\n      sub\n      swap1\n      return\n        /* \"contracts/Proposals.sol\":633:664  uint256 public voteNumber = 100 */\n    tag_6:\n      tag_42\n      tag_43\n      jump\t// in\n    tag_42:\n      mload(0x40)\n      tag_44\n      swap2\n      swap1\n      tag_45\n      jump\t// in\n    tag_44:\n      mload(0x40)\n      dup1\n      swap2\n      sub\n      swap1\n      return\n        /* \"contracts/Proposals.sol\":562:626  address public signer=0x41c2481B5acd58De9336b56A881b5D914f517064 */\n    tag_7:\n      tag_46\n      tag_47\n      jump\t// in\n    tag_46:\n      mload(0x40)\n      tag_48\n      swap2\n      swap1\n      tag_49\n      jump\t// in\n    tag_48:\n      mload(0x40)\n      dup1\n      swap2\n      sub\n      swap1\n      return\n        /* \"contracts/Proposals.sol\":8177:8309  function payAmount(uint256 amount,uint256 time)public pure returns (uint256){... */\n    tag_8:\n      tag_50\n      0x04\n      dup1\n      calldatasize\n      sub\n      dup2\n      add\n      swap1\n      tag_51\n      swap2\n      swap1\n      tag_52\n      jump\t// in\n    tag_51:\n      tag_53\n      jump\t// in\n    tag_50:\n      mload(0x40)\n      tag_54\n      swap2\n      swap1\n      tag_45\n      jump\t// in\n    tag_54:\n      mload(0x40)\n      dup1\n      swap2\n      sub\n      swap1\n      return\n        /* \"contracts/Proposals.sol\":990:1055  mapping(address => mapping(uint256 => uint)) public proposalTable */\n    tag_9:\n      tag_55\n      0x04\n      dup1\n      calldatasize\n      sub\n      dup2\n      add\n      swap1\n      tag_56\n      swap2\n      swap1\n      tag_57\n      jump\t// in\n    tag_56:\n      tag_58\n      jump\t// in\n    tag_55:\n      mload(0x40)\n      tag_59\n      swap2\n      swap1\n      tag_45\n      jump\t// in\n    tag_59:\n      mload(0x40)\n      dup1\n      swap2\n      sub\n      swap1\n      return\n        /* \"contracts/Proposals.sol\":10436:10553  function setVoteNumber(uint256 _voteNumber)external onlyadministrator{... */\n    tag_10:\n      tag_60\n      0x04\n      dup1\n      calldatasize\n      sub\n      dup2\n      add\n      swap1\n      tag_61\n      swap2\n      swap1\n      tag_29\n      jump\t// in\n    tag_61:\n      tag_62\n      jump\t// in\n    tag_60:\n      stop\n        /* \"contracts/Proposals.sol\":6443:6997  function revokeP2DProposal(uint256 _proposalId) external {... */\n    tag_11:\n      tag_63\n      0x04\n      dup1\n      calldatasize\n      sub\n      dup2\n      add\n      swap1\n      tag_64\n      swap2\n      swap1\n      tag_29\n      jump\t// in\n    tag_64:\n      tag_65\n      jump\t// in\n    tag_63:\n      stop\n        /* \"contracts/Proposals.sol\":7005:8169  function vote(... */\n    tag_12:\n      tag_66\n      0x04\n      dup1\n      calldatasize\n      sub\n      dup2\n      add\n      swap1\n      tag_67\n      swap2\n      swap1\n      tag_68\n      jump\t// in\n    tag_67:\n      tag_69\n      jump\t// in\n    tag_66:\n      stop\n        /* \"contracts/Proposals.sol\":3591:4835  function createP2DProposal( address _nftAddress,... */\n    tag_13:\n      tag_70\n      0x04\n      dup1\n      calldatasize\n      sub\n      dup2\n      add\n      swap1\n      tag_71\n      swap2\n      swap1\n      tag_72\n      jump\t// in\n    tag_71:\n      tag_73\n      jump\t// in\n    tag_70:\n      stop\n        /* \"contracts/Proposals.sol\":326:423  bytes32 public ramdomNumber =... */\n    tag_14:\n      tag_74\n      tag_75\n      jump\t// in\n    tag_74:\n      mload(0x40)\n      tag_76\n      swap2\n      swap1\n      tag_41\n      jump\t// in\n    tag_76:\n      mload(0x40)\n      dup1\n      swap2\n      sub\n      swap1\n      return\n        /* \"contracts/Proposals.sol\":8317:8408  function lendingRate(uint256 time) public pure returns (uint256){... */\n    tag_15:\n      tag_77\n      0x04\n      dup1\n      calldatasize\n      sub\n      dup2\n      add\n      swap1\n      tag_78\n      swap2\n      swap1\n      tag_29\n      jump\t// in\n    tag_78:\n      tag_79\n      jump\t// in\n    tag_77:\n      mload(0x40)\n      tag_80\n      swap2\n      swap1\n      tag_45\n      jump\t// in\n    tag_80:\n      mload(0x40)\n      dup1\n      swap2\n      sub\n      swap1\n      return\n        /* \"contracts/Proposals.sol\":671:692  address public VicDAO */\n    tag_16:\n      tag_81\n      tag_82\n      jump\t// in\n    tag_81:\n      mload(0x40)\n      tag_83\n      swap2\n      swap1\n      tag_49\n      jump\t// in\n    tag_83:\n      mload(0x40)\n      dup1\n      swap2\n      sub\n      swap1\n      return\n        /* \"contracts/Proposals.sol\":511:555  ProposalLinkedList public proposalLinkedList */\n    tag_17:\n      tag_84\n      tag_85\n      jump\t// in\n    tag_84:\n      mload(0x40)\n      tag_86\n      swap2\n      swap1\n      tag_87\n      jump\t// in\n    tag_86:\n      mload(0x40)\n      dup1\n      swap2\n      sub\n      swap1\n      return\n        /* \"contracts/Proposals.sol\":10561:10697  function setAdministrator(address _address)external onlyadministrator returns(address){... */\n    tag_18:\n      tag_88\n      0x04\n      dup1\n      calldatasize\n      sub\n      dup2\n      add\n      swap1\n      tag_89\n      swap2\n      swap1\n      tag_90\n      jump\t// in\n    tag_89:\n      tag_91\n      jump\t// in\n    tag_88:\n      mload(0x40)\n      tag_92\n      swap2\n      swap1\n      tag_49\n      jump\t// in\n    tag_92:\n      mload(0x40)\n      dup1\n      swap2\n      sub\n      swap1\n      return\n        /* \"contracts/Proposals.sol\":8940:9282  function payByP2P(uint256 _propsalId)public{... */\n    tag_19:\n      tag_93\n      0x04\n      dup1\n      calldatasize\n      sub\n      dup2\n      add\n      swap1\n      tag_94\n      swap2\n      swap1\n      tag_29\n      jump\t// in\n    tag_94:\n      tag_95\n      jump\t// in\n    tag_93:\n      stop\n        /* \"contracts/Proposals.sol\":9644:10427  function P2pBuy(... */\n    tag_20:\n      tag_96\n      0x04\n      dup1\n      calldatasize\n      sub\n      dup2\n      add\n      swap1\n      tag_97\n      swap2\n      swap1\n      tag_29\n      jump\t// in\n    tag_97:\n      tag_98\n      jump\t// in\n    tag_96:\n      stop\n        /* \"contracts/Proposals.sol\":4843:5971  function createP2PProposal(address _nftAddress,... */\n    tag_21:\n      tag_99\n      0x04\n      dup1\n      calldatasize\n      sub\n      dup2\n      add\n      swap1\n      tag_100\n      swap2\n      swap1\n      tag_101\n      jump\t// in\n    tag_100:\n      tag_102\n      jump\t// in\n    tag_99:\n      stop\n        /* \"contracts/Proposals.sol\":485:504  IERC20 public token */\n    tag_22:\n      tag_103\n      tag_104\n      jump\t// in\n    tag_103:\n      mload(0x40)\n      tag_105\n      swap2\n      swap1\n      tag_106\n      jump\t// in\n    tag_105:\n      mload(0x40)\n      dup1\n      swap2\n      sub\n      swap1\n      return\n        /* \"contracts/Proposals.sol\":5979:6435  function revokeP2PProposal(uint256 _proposalId) external {... */\n    tag_23:\n      tag_107\n      0x04\n      dup1\n      calldatasize\n      sub\n      dup2\n      add\n      swap1\n      tag_108\n      swap2\n      swap1\n      tag_29\n      jump\t// in\n    tag_108:\n      tag_109\n      jump\t// in\n    tag_107:\n      stop\n        /* \"contracts/Proposals.sol\":1118:1145  Proposal[] public proposals */\n    tag_30:\n      0x09\n      dup2\n      dup2\n      sload\n      dup2\n      lt\n      tag_110\n      jumpi\n      0x00\n      dup1\n      revert\n    tag_110:\n      swap1\n      0x00\n      mstore\n      keccak256(0x00, 0x20)\n      swap1\n      0x0c\n      mul\n      add\n      0x00\n      swap2\n      pop\n      swap1\n      pop\n      dup1\n      0x00\n      add\n      sload\n      swap1\n      dup1\n      0x01\n      add\n      0x00\n      swap1\n      sload\n      swap1\n      0x0100\n      exp\n      swap1\n      div\n      0xffffffffffffffffffffffffffffffffffffffff\n      and\n      swap1\n      dup1\n      0x02\n      add\n      sload\n      swap1\n      dup1\n      0x03\n      add\n      0x00\n      swap1\n      sload\n      swap1\n      0x0100\n      exp\n      swap1\n      div\n      0xffffffffffffffffffffffffffffffffffffffff\n      and\n      swap1\n      dup1\n      0x04\n      add\n      sload\n      swap1\n      dup1\n      0x05\n      add\n      sload\n      swap1\n      dup1\n      0x06\n      add\n      sload\n      swap1\n      dup1\n      0x07\n      add\n      0x00\n      swap1\n      sload\n      swap1\n      0x0100\n      exp\n      swap1\n      div\n      0xff\n      and\n      swap1\n      dup1\n      0x07\n      add\n      0x01\n      swap1\n      sload\n      swap1\n      0x0100\n      exp\n      swap1\n      div\n      0xffffffffffffffffffffffffffffffffffffffff\n      and\n      swap1\n      dup1\n      0x08\n      add\n      sload\n      swap1\n      dup1\n      0x09\n      add\n      sload\n      swap1\n      pop\n      dup12\n      jump\t// out\n        /* \"contracts/Proposals.sol\":8598:8932  function payByP2D(uint256 _propsalId)public{... */\n    tag_35:\n        /* \"contracts/Proposals.sol\":8652:8677  Proposal storage proposal */\n      0x00\n        /* \"contracts/Proposals.sol\":8678:8687  proposals */\n      0x09\n        /* \"contracts/Proposals.sol\":8688:8698  _propsalId */\n      dup3\n        /* \"contracts/Proposals.sol\":8678:8699  proposals[_propsalId] */\n      dup2\n      sload\n      dup2\n      lt\n      tag_113\n      jumpi\n      tag_114\n      tag_115\n      jump\t// in\n    tag_114:\n    tag_113:\n      swap1\n      0x00\n      mstore\n      keccak256(0x00, 0x20)\n      swap1\n      0x0c\n      mul\n      add\n        /* \"contracts/Proposals.sol\":8652:8699  Proposal storage proposal=proposals[_propsalId] */\n      swap1\n      pop\n        /* \"contracts/Proposals.sol\":8737:8747  msg.sender */\n      caller\n        /* \"contracts/Proposals.sol\":8718:8747  proposal.borrower==msg.sender */\n      0xffffffffffffffffffffffffffffffffffffffff\n      and\n        /* \"contracts/Proposals.sol\":8718:8726  proposal */\n      dup2\n        /* \"contracts/Proposals.sol\":8718:8735  proposal.borrower */\n      0x03\n      add\n      0x00\n      swap1\n      sload\n      swap1\n      0x0100\n      exp\n      swap1\n      div\n      0xffffffffffffffffffffffffffffffffffffffff\n      and\n        /* \"contracts/Proposals.sol\":8718:8747  proposal.borrower==msg.sender */\n      0xffffffffffffffffffffffffffffffffffffffff\n      and\n      eq\n        /* \"contracts/Proposals.sol\":8710:8748  require(proposal.borrower==msg.sender) */\n      tag_117\n      jumpi\n      0x00\n      dup1\n      revert\n    tag_117:\n        /* \"contracts/Proposals.sol\":8784:8816  ProposalStatus.P2D_WAITING_REPAY */\n      0x04\n        /* \"contracts/Proposals.sol\":8767:8816  proposal.status==ProposalStatus.P2D_WAITING_REPAY */\n      0x09\n      dup2\n      gt\n      iszero\n      tag_118\n      jumpi\n      tag_119\n      tag_120\n      jump\t// in\n    tag_119:\n    tag_118:\n        /* \"contracts/Proposals.sol\":8767:8775  proposal */\n      dup2\n        /* \"contracts/Proposals.sol\":8767:8782  proposal.status */\n      0x07\n      add\n      0x00\n      swap1\n      sload\n      swap1\n      0x0100\n      exp\n      swap1\n      div\n      0xff\n      and\n        /* \"contracts/Proposals.sol\":8767:8816  proposal.status==ProposalStatus.P2D_WAITING_REPAY */\n      0x09\n      dup2\n      gt\n      iszero\n      tag_121\n      jumpi\n      tag_122\n      tag_120\n      jump\t// in\n    tag_122:\n    tag_121:\n      eq\n        /* \"contracts/Proposals.sol\":8759:8817  require(proposal.status==ProposalStatus.P2D_WAITING_REPAY) */\n      tag_123\n      jumpi\n      0x00\n      dup1\n      revert\n    tag_123:\n        /* \"contracts/Proposals.sol\":8828:8849  _pay(proposal,VicDAO) */\n      tag_124\n        /* \"contracts/Proposals.sol\":8833:8841  proposal */\n      dup2\n        /* \"contracts/Proposals.sol\":8842:8848  VicDAO */\n      0x05\n      0x00\n      swap1\n      sload\n      swap1\n      0x0100\n      exp\n      swap1\n      div\n      0xffffffffffffffffffffffffffffffffffffffff\n      and\n        /* \"contracts/Proposals.sol\":8828:8832  _pay */\n      tag_125\n        /* \"contracts/Proposals.sol\":8828:8849  _pay(proposal,VicDAO) */\n      jump\t// in\n    tag_124:\n        /* \"contracts/Proposals.sol\":8876:8901  ProposalStatus.P2D_FINISH */\n      0x05\n        /* \"contracts/Proposals.sol\":8860:8868  proposal */\n      dup2\n        /* \"contracts/Proposals.sol\":8860:8875  proposal.status */\n      0x07\n      add\n      0x00\n        /* \"contracts/Proposals.sol\":8860:8901  proposal.status=ProposalStatus.P2D_FINISH */\n      0x0100\n      exp\n      dup2\n      sload\n      dup2\n      0xff\n      mul\n      not\n      and\n      swap1\n      dup4\n      0x09\n      dup2\n      gt\n      iszero\n      tag_126\n      jumpi\n      tag_127\n      tag_120\n      jump\t// in\n    tag_127:\n    tag_126:\n      mul\n      or\n      swap1\n      sstore\n      pop\n        /* \"contracts/Proposals.sol\":8641:8932  {... */\n      pop\n        /* \"contracts/Proposals.sol\":8598:8932  function payByP2D(uint256 _propsalId)public{... */\n      pop\n      jump\t// out\n        /* \"contracts/Proposals.sol\":8415:8590  function calculateHash(address _address, uint256 _value, bool _flag) public pure returns (bytes32) {... */\n    tag_39:\n        /* \"contracts/Proposals.sol\":8505:8512  bytes32 */\n      0x00\n        /* \"contracts/Proposals.sol\":8559:8567  _address */\n      dup4\n        /* \"contracts/Proposals.sol\":8568:8574  _value */\n      dup4\n        /* \"contracts/Proposals.sol\":8575:8580  _flag */\n      dup4\n        /* \"contracts/Proposals.sol\":8542:8581  abi.encodePacked(_address,_value,_flag) */\n      add(0x20, mload(0x40))\n      tag_129\n      swap4\n      swap3\n      swap2\n      swap1\n      tag_130\n      jump\t// in\n    tag_129:\n      mload(0x40)\n      0x20\n      dup2\n      dup4\n      sub\n      sub\n      dup2\n      mstore\n      swap1\n      0x40\n      mstore\n        /* \"contracts/Proposals.sol\":8532:8582  keccak256(abi.encodePacked(_address,_value,_flag)) */\n      dup1\n      mload\n      swap1\n      0x20\n      add\n      keccak256\n        /* \"contracts/Proposals.sol\":8525:8582  return keccak256(abi.encodePacked(_address,_value,_flag)) */\n      swap1\n      pop\n        /* \"contracts/Proposals.sol\":8415:8590  function calculateHash(address _address, uint256 _value, bool _flag) public pure returns (bytes32) {... */\n      swap4\n      swap3\n      pop\n      pop\n      pop\n      jump\t// out\n        /* \"contracts/Proposals.sol\":633:664  uint256 public voteNumber = 100 */\n    tag_43:\n      sload(0x04)\n      dup2\n      jump\t// out\n        /* \"contracts/Proposals.sol\":562:626  address public signer=0x41c2481B5acd58De9336b56A881b5D914f517064 */\n    tag_47:\n      0x03\n      0x00\n      swap1\n      sload\n      swap1\n      0x0100\n      exp\n      swap1\n      div\n      0xffffffffffffffffffffffffffffffffffffffff\n      and\n      dup2\n      jump\t// out\n        /* \"contracts/Proposals.sol\":8177:8309  function payAmount(uint256 amount,uint256 time)public pure returns (uint256){... */\n    tag_53:\n        /* \"contracts/Proposals.sol\":8245:8252  uint256 */\n      0x00\n        /* \"contracts/Proposals.sol\":8283:8300  lendingRate(time) */\n      tag_132\n        /* \"contracts/Proposals.sol\":8295:8299  time */\n      dup3\n        /* \"contracts/Proposals.sol\":8283:8294  lendingRate */\n      tag_79\n        /* \"contracts/Proposals.sol\":8283:8300  lendingRate(time) */\n      jump\t// in\n    tag_132:\n        /* \"contracts/Proposals.sol\":8279:8282  100 */\n      0x64\n        /* \"contracts/Proposals.sol\":8279:8300  100+lendingRate(time) */\n      tag_133\n      swap2\n      swap1\n      tag_134\n      jump\t// in\n    tag_133:\n        /* \"contracts/Proposals.sol\":8271:8277  amount */\n      dup4\n        /* \"contracts/Proposals.sol\":8271:8301  amount*(100+lendingRate(time)) */\n      tag_135\n      swap2\n      swap1\n      tag_136\n      jump\t// in\n    tag_135:\n        /* \"contracts/Proposals.sol\":8264:8301  return amount*(100+lendingRate(time)) */\n      swap1\n      pop\n        /* \"contracts/Proposals.sol\":8177:8309  function payAmount(uint256 amount,uint256 time)public pure returns (uint256){... */\n      swap3\n      swap2\n      pop\n      pop\n      jump\t// out\n        /* \"contracts/Proposals.sol\":990:1055  mapping(address => mapping(uint256 => uint)) public proposalTable */\n    tag_58:\n      mstore(0x20, 0x07)\n      dup2\n      0x00\n      mstore\n      mstore(0x20, keccak256(0x00, 0x40))\n      dup1\n      0x00\n      mstore\n      keccak256(0x00, 0x40)\n      0x00\n      swap2\n      pop\n      swap2\n      pop\n      pop\n      sload\n      dup2\n      jump\t// out\n        /* \"contracts/Proposals.sol\":10436:10553  function setVoteNumber(uint256 _voteNumber)external onlyadministrator{... */\n    tag_62:\n        /* \"contracts/Proposals.sol\":1215:1228  administrator */\n      0x06\n      0x00\n      swap1\n      sload\n      swap1\n      0x0100\n      exp\n      swap1\n      div\n      0xffffffffffffffffffffffffffffffffffffffff\n      and\n        /* \"contracts/Proposals.sol\":1201:1228  msg.sender == administrator */\n      0xffffffffffffffffffffffffffffffffffffffff\n      and\n        /* \"contracts/Proposals.sol\":1201:1211  msg.sender */\n      caller\n        /* \"contracts/Proposals.sol\":1201:1228  msg.sender == administrator */\n      0xffffffffffffffffffffffffffffffffffffffff\n      and\n      eq\n        /* \"contracts/Proposals.sol\":1193:1229  require(msg.sender == administrator) */\n      tag_138\n      jumpi\n      0x00\n      dup1\n      revert\n    tag_138:\n        /* \"contracts/Proposals.sol\":10534:10545  _voteNumber */\n      dup1\n        /* \"contracts/Proposals.sol\":10520:10530  voteNumber */\n      0x04\n        /* \"contracts/Proposals.sol\":10520:10545  voteNumber  = _voteNumber */\n      dup2\n      swap1\n      sstore\n      pop\n        /* \"contracts/Proposals.sol\":10436:10553  function setVoteNumber(uint256 _voteNumber)external onlyadministrator{... */\n      pop\n      jump\t// out\n        /* \"contracts/Proposals.sol\":6443:6997  function revokeP2DProposal(uint256 _proposalId) external {... */\n    tag_65:\n        /* \"contracts/Proposals.sol\":6511:6536  Proposal storage proposal */\n      0x00\n        /* \"contracts/Proposals.sol\":6539:6548  proposals */\n      0x09\n        /* \"contracts/Proposals.sol\":6549:6560  _proposalId */\n      dup3\n        /* \"contracts/Proposals.sol\":6539:6561  proposals[_proposalId] */\n      dup2\n      sload\n      dup2\n      lt\n      tag_141\n      jumpi\n      tag_142\n      tag_115\n      jump\t// in\n    tag_142:\n    tag_141:\n      swap1\n      0x00\n      mstore\n      keccak256(0x00, 0x20)\n      swap1\n      0x0c\n      mul\n      add\n        /* \"contracts/Proposals.sol\":6511:6561  Proposal storage proposal = proposals[_proposalId] */\n      swap1\n      pop\n        /* \"contracts/Proposals.sol\":6572:6593  ProposalStatus status */\n      0x00\n        /* \"contracts/Proposals.sol\":6595:6603  proposal */\n      dup2\n        /* \"contracts/Proposals.sol\":6595:6610  proposal.status */\n      0x07\n      add\n      0x00\n      swap1\n      sload\n      swap1\n      0x0100\n      exp\n      swap1\n      div\n      0xff\n      and\n        /* \"contracts/Proposals.sol\":6572:6610  ProposalStatus status= proposal.status */\n      swap1\n      pop\n        /* \"contracts/Proposals.sol\":6639:6671  ProposalStatus.P2D_FAIL_INTO_P2P */\n      0x01\n        /* \"contracts/Proposals.sol\":6629:6671  status == ProposalStatus.P2D_FAIL_INTO_P2P */\n      0x09\n      dup2\n      gt\n      iszero\n      tag_144\n      jumpi\n      tag_145\n      tag_120\n      jump\t// in\n    tag_145:\n    tag_144:\n        /* \"contracts/Proposals.sol\":6629:6635  status */\n      dup2\n        /* \"contracts/Proposals.sol\":6629:6671  status == ProposalStatus.P2D_FAIL_INTO_P2P */\n      0x09\n      dup2\n      gt\n      iszero\n      tag_146\n      jumpi\n      tag_147\n      tag_120\n      jump\t// in\n    tag_147:\n    tag_146:\n      eq\n        /* \"contracts/Proposals.sol\":6629:6756  status == ProposalStatus.P2D_FAIL_INTO_P2P || (status==ProposalStatus.P2D_INIT && proposal.createTime+2 days>=block.timestamp ) */\n      dup1\n      tag_148\n      jumpi\n      pop\n        /* \"contracts/Proposals.sol\":6684:6707  ProposalStatus.P2D_INIT */\n      0x00\n        /* \"contracts/Proposals.sol\":6676:6707  status==ProposalStatus.P2D_INIT */\n      0x09\n      dup2\n      gt\n      iszero\n      tag_149\n      jumpi\n      tag_150\n      tag_120\n      jump\t// in\n    tag_150:\n    tag_149:\n        /* \"contracts/Proposals.sol\":6676:6682  status */\n      dup2\n        /* \"contracts/Proposals.sol\":6676:6707  status==ProposalStatus.P2D_INIT */\n      0x09\n      dup2\n      gt\n      iszero\n      tag_151\n      jumpi\n      tag_152\n      tag_120\n      jump\t// in\n    tag_152:\n    tag_151:\n      eq\n        /* \"contracts/Proposals.sol\":6676:6754  status==ProposalStatus.P2D_INIT && proposal.createTime+2 days>=block.timestamp */\n      dup1\n      iszero\n      tag_153\n      jumpi\n      pop\n        /* \"contracts/Proposals.sol\":6739:6754  block.timestamp */\n      timestamp\n        /* \"contracts/Proposals.sol\":6731:6737  2 days */\n      0x02a300\n        /* \"contracts/Proposals.sol\":6711:6719  proposal */\n      dup4\n        /* \"contracts/Proposals.sol\":6711:6730  proposal.createTime */\n      0x04\n      add\n      sload\n        /* \"contracts/Proposals.sol\":6711:6737  proposal.createTime+2 days */\n      tag_154\n      swap2\n      swap1\n      tag_134\n      jump\t// in\n    tag_154:\n        /* \"contracts/Proposals.sol\":6711:6754  proposal.createTime+2 days>=block.timestamp */\n      lt\n      iszero\n        /* \"contracts/Proposals.sol\":6676:6754  status==ProposalStatus.P2D_INIT && proposal.createTime+2 days>=block.timestamp */\n    tag_153:\n        /* \"contracts/Proposals.sol\":6629:6756  status == ProposalStatus.P2D_FAIL_INTO_P2P || (status==ProposalStatus.P2D_INIT && proposal.createTime+2 days>=block.timestamp ) */\n    tag_148:\n        /* \"contracts/Proposals.sol\":6621:6757  require(status == ProposalStatus.P2D_FAIL_INTO_P2P || (status==ProposalStatus.P2D_INIT && proposal.createTime+2 days>=block.timestamp )) */\n      tag_155\n      jumpi\n      0x00\n      dup1\n      revert\n    tag_155:\n        /* \"contracts/Proposals.sol\":6768:6786  proposalLinkedList */\n      0x02\n      0x00\n      swap1\n      sload\n      swap1\n      0x0100\n      exp\n      swap1\n      div\n      0xffffffffffffffffffffffffffffffffffffffff\n      and\n        /* \"contracts/Proposals.sol\":6768:6793  proposalLinkedList.remove */\n      0xffffffffffffffffffffffffffffffffffffffff\n      and\n      0x4cc82215\n        /* \"contracts/Proposals.sol\":6794:6805  _proposalId */\n      dup5\n        /* \"contracts/Proposals.sol\":6768:6806  proposalLinkedList.remove(_proposalId) */\n      mload(0x40)\n      dup3\n      0xffffffff\n      and\n      0xe0\n      shl\n      dup2\n      mstore\n      0x04\n      add\n      tag_156\n      swap2\n      swap1\n      tag_45\n      jump\t// in\n    tag_156:\n      0x00\n      mload(0x40)\n      dup1\n      dup4\n      sub\n      dup2\n      0x00\n      dup8\n      dup1\n      extcodesize\n      iszero\n      dup1\n      iszero\n      tag_157\n      jumpi\n      0x00\n      dup1\n      revert\n    tag_157:\n      pop\n      gas\n      call\n      iszero\n      dup1\n      iszero\n      tag_159\n      jumpi\n      returndatasize\n      0x00\n      dup1\n      returndatacopy\n      revert(0x00, returndatasize)\n    tag_159:\n      pop\n      pop\n      pop\n      pop\n        /* \"contracts/Proposals.sol\":6825:6833  proposal */\n      dup2\n        /* \"contracts/Proposals.sol\":6825:6844  proposal.nftAddress */\n      0x01\n      add\n      0x00\n      swap1\n      sload\n      swap1\n      0x0100\n      exp\n      swap1\n      div\n      0xffffffffffffffffffffffffffffffffffffffff\n      and\n        /* \"contracts/Proposals.sol\":6817:6858  IERC721(proposal.nftAddress).transferFrom */\n      0xffffffffffffffffffffffffffffffffffffffff\n      and\n      0x23b872dd\n        /* \"contracts/Proposals.sol\":6867:6871  this */\n      address\n        /* \"contracts/Proposals.sol\":6874:6882  proposal */\n      dup5\n        /* \"contracts/Proposals.sol\":6874:6891  proposal.borrower */\n      0x03\n      add\n      0x00\n      swap1\n      sload\n      swap1\n      0x0100\n      exp\n      swap1\n      div\n      0xffffffffffffffffffffffffffffffffffffffff\n      and\n        /* \"contracts/Proposals.sol\":6893:6901  proposal */\n      dup6\n        /* \"contracts/Proposals.sol\":6893:6909  proposal.tokenId */\n      0x02\n      add\n      sload\n        /* \"contracts/Proposals.sol\":6817:6910  IERC721(proposal.nftAddress).transferFrom(address(this), proposal.borrower, proposal.tokenId) */\n      mload(0x40)\n      dup5\n      0xffffffff\n      and\n      0xe0\n      shl\n      dup2\n      mstore\n      0x04\n      add\n      tag_160\n      swap4\n      swap3\n      swap2\n      swap1\n      tag_161\n      jump\t// in\n    tag_160:\n      0x00\n      mload(0x40)\n      dup1\n      dup4\n      sub\n      dup2\n      0x00\n      dup8\n      dup1\n      extcodesize\n      iszero\n      dup1\n      iszero\n      tag_162\n      jumpi\n      0x00\n      dup1\n      revert\n    tag_162:\n      pop\n      gas\n      call\n      iszero\n      dup1\n      iszero\n      tag_164\n      jumpi\n      returndatasize\n      0x00\n      dup1\n      returndatacopy\n      revert(0x00, returndatasize)\n    tag_164:\n      pop\n      pop\n      pop\n      pop\n        /* \"contracts/Proposals.sol\":6937:6966  ProposalStatus.P2D_P2P_CANCEL */\n      0x02\n        /* \"contracts/Proposals.sol\":6921:6929  proposal */\n      dup3\n        /* \"contracts/Proposals.sol\":6921:6936  proposal.status */\n      0x07\n      add\n      0x00\n        /* \"contracts/Proposals.sol\":6921:6966  proposal.status=ProposalStatus.P2D_P2P_CANCEL */\n      0x0100\n      exp\n      dup2\n      sload\n      dup2\n      0xff\n      mul\n      not\n      and\n      swap1\n      dup4\n      0x09\n      dup2\n      gt\n      iszero\n      tag_165\n      jumpi\n      tag_166\n      tag_120\n      jump\t// in\n    tag_166:\n    tag_165:\n      mul\n      or\n      swap1\n      sstore\n      pop\n        /* \"contracts/Proposals.sol\":6500:6997  {... */\n      pop\n      pop\n        /* \"contracts/Proposals.sol\":6443:6997  function revokeP2DProposal(uint256 _proposalId) external {... */\n      pop\n      jump\t// out\n        /* \"contracts/Proposals.sol\":7005:8169  function vote(... */\n    tag_69:\n        /* \"contracts/Proposals.sol\":7135:7160  Proposal storage proposal */\n      0x00\n        /* \"contracts/Proposals.sol\":7163:7172  proposals */\n      0x09\n        /* \"contracts/Proposals.sol\":7173:7184  _proposalId */\n      dup6\n        /* \"contracts/Proposals.sol\":7163:7185  proposals[_proposalId] */\n      dup2\n      sload\n      dup2\n      lt\n      tag_168\n      jumpi\n      tag_169\n      tag_115\n      jump\t// in\n    tag_169:\n    tag_168:\n      swap1\n      0x00\n      mstore\n      keccak256(0x00, 0x20)\n      swap1\n      0x0c\n      mul\n      add\n        /* \"contracts/Proposals.sol\":7135:7185  Proposal storage proposal = proposals[_proposalId] */\n      swap1\n      pop\n        /* \"contracts/Proposals.sol\":7221:7244  ProposalStatus.P2D_INIT */\n      0x00\n        /* \"contracts/Proposals.sol\":7204:7244  proposal.status==ProposalStatus.P2D_INIT */\n      0x09\n      dup2\n      gt\n      iszero\n      tag_171\n      jumpi\n      tag_172\n      tag_120\n      jump\t// in\n    tag_172:\n    tag_171:\n        /* \"contracts/Proposals.sol\":7204:7212  proposal */\n      dup2\n        /* \"contracts/Proposals.sol\":7204:7219  proposal.status */\n      0x07\n      add\n      0x00\n      swap1\n      sload\n      swap1\n      0x0100\n      exp\n      swap1\n      div\n      0xff\n      and\n        /* \"contracts/Proposals.sol\":7204:7244  proposal.status==ProposalStatus.P2D_INIT */\n      0x09\n      dup2\n      gt\n      iszero\n      tag_173\n      jumpi\n      tag_174\n      tag_120\n      jump\t// in\n    tag_174:\n    tag_173:\n      eq\n        /* \"contracts/Proposals.sol\":7204:7290  proposal.status==ProposalStatus.P2D_INIT && proposal.createTime+2 days<block.timestamp */\n      dup1\n      iszero\n      tag_175\n      jumpi\n      pop\n        /* \"contracts/Proposals.sol\":7275:7290  block.timestamp */\n      timestamp\n        /* \"contracts/Proposals.sol\":7268:7274  2 days */\n      0x02a300\n        /* \"contracts/Proposals.sol\":7248:7256  proposal */\n      dup3\n        /* \"contracts/Proposals.sol\":7248:7267  proposal.createTime */\n      0x04\n      add\n      sload\n        /* \"contracts/Proposals.sol\":7248:7274  proposal.createTime+2 days */\n      tag_176\n      swap2\n      swap1\n      tag_134\n      jump\t// in\n    tag_176:\n        /* \"contracts/Proposals.sol\":7248:7290  proposal.createTime+2 days<block.timestamp */\n      lt\n        /* \"contracts/Proposals.sol\":7204:7290  proposal.status==ProposalStatus.P2D_INIT && proposal.createTime+2 days<block.timestamp */\n    tag_175:\n        /* \"contracts/Proposals.sol\":7196:7304  require(proposal.status==ProposalStatus.P2D_INIT && proposal.createTime+2 days<block.timestamp,\"is not PtD\") */\n      tag_177\n      jumpi\n      mload(0x40)\n      0x08c379a000000000000000000000000000000000000000000000000000000000\n      dup2\n      mstore\n      0x04\n      add\n      tag_178\n      swap1\n      tag_179\n      jump\t// in\n    tag_178:\n      mload(0x40)\n      dup1\n      swap2\n      sub\n      swap1\n      revert\n    tag_177:\n        /* \"contracts/Proposals.sol\":7315:7327  address user */\n      0x00\n        /* \"contracts/Proposals.sol\":7328:7338  msg.sender */\n      caller\n        /* \"contracts/Proposals.sol\":7315:7338  address user=msg.sender */\n      swap1\n      pop\n        /* \"contracts/Proposals.sol\":7349:7361  bytes32 Hash */\n      0x00\n        /* \"contracts/Proposals.sol\":7362:7404  calculateHash(user,_proposalId,_agreement) */\n      tag_180\n        /* \"contracts/Proposals.sol\":7376:7380  user */\n      dup3\n        /* \"contracts/Proposals.sol\":7381:7392  _proposalId */\n      dup9\n        /* \"contracts/Proposals.sol\":7393:7403  _agreement */\n      dup9\n        /* \"contracts/Proposals.sol\":7362:7375  calculateHash */\n      tag_39\n        /* \"contracts/Proposals.sol\":7362:7404  calculateHash(user,_proposalId,_agreement) */\n      jump\t// in\n    tag_180:\n        /* \"contracts/Proposals.sol\":7349:7404  bytes32 Hash=calculateHash(user,_proposalId,_agreement) */\n      swap1\n      pop\n        /* \"contracts/Proposals.sol\":7423:7478  SignatureChecker.isValidSignatureNow(signer,Hash,_sign) */\n      tag_181\n        /* \"contracts/Proposals.sol\":7460:7466  signer */\n      0x03\n      0x00\n      swap1\n      sload\n      swap1\n      0x0100\n      exp\n      swap1\n      div\n      0xffffffffffffffffffffffffffffffffffffffff\n      and\n        /* \"contracts/Proposals.sol\":7467:7471  Hash */\n      dup3\n        /* \"contracts/Proposals.sol\":7472:7477  _sign */\n      dup8\n      dup8\n        /* \"contracts/Proposals.sol\":7423:7478  SignatureChecker.isValidSignatureNow(signer,Hash,_sign) */\n      dup1\n      dup1\n      0x1f\n      add\n      0x20\n      dup1\n      swap2\n      div\n      mul\n      0x20\n      add\n      mload(0x40)\n      swap1\n      dup2\n      add\n      0x40\n      mstore\n      dup1\n      swap4\n      swap3\n      swap2\n      swap1\n      dup2\n      dup2\n      mstore\n      0x20\n      add\n      dup4\n      dup4\n      dup1\n      dup3\n      dup5\n      calldatacopy\n      0x00\n      dup2\n      dup5\n      add\n      mstore\n      not(0x1f)\n      0x1f\n      dup3\n      add\n      and\n      swap1\n      pop\n      dup1\n      dup4\n      add\n      swap3\n      pop\n      pop\n      pop\n      pop\n      pop\n      pop\n      pop\n        /* \"contracts/Proposals.sol\":7423:7459  SignatureChecker.isValidSignatureNow */\n      tag_182\n        /* \"contracts/Proposals.sol\":7423:7478  SignatureChecker.isValidSignatureNow(signer,Hash,_sign) */\n      jump\t// in\n    tag_181:\n        /* \"contracts/Proposals.sol\":7415:7479  require(SignatureChecker.isValidSignatureNow(signer,Hash,_sign)) */\n      tag_183\n      jumpi\n      0x00\n      dup1\n      revert\n    tag_183:\n        /* \"contracts/Proposals.sol\":7528:7533  false */\n      0x00\n        /* \"contracts/Proposals.sol\":7498:7533  isVoted[_proposalId][user] == false */\n      iszero\n      iszero\n        /* \"contracts/Proposals.sol\":7498:7505  isVoted */\n      0x08\n        /* \"contracts/Proposals.sol\":7498:7518  isVoted[_proposalId] */\n      0x00\n        /* \"contracts/Proposals.sol\":7506:7517  _proposalId */\n      dup10\n        /* \"contracts/Proposals.sol\":7498:7518  isVoted[_proposalId] */\n      dup2\n      mstore\n      0x20\n      add\n      swap1\n      dup2\n      mstore\n      0x20\n      add\n      0x00\n      keccak256\n        /* \"contracts/Proposals.sol\":7498:7524  isVoted[_proposalId][user] */\n      0x00\n        /* \"contracts/Proposals.sol\":7519:7523  user */\n      dup5\n        /* \"contracts/Proposals.sol\":7498:7524  isVoted[_proposalId][user] */\n      0xffffffffffffffffffffffffffffffffffffffff\n      and\n      0xffffffffffffffffffffffffffffffffffffffff\n      and\n      dup2\n      mstore\n      0x20\n      add\n      swap1\n      dup2\n      mstore\n      0x20\n      add\n      0x00\n      keccak256\n      0x00\n      swap1\n      sload\n      swap1\n      0x0100\n      exp\n      swap1\n      div\n      0xff\n      and\n        /* \"contracts/Proposals.sol\":7498:7533  isVoted[_proposalId][user] == false */\n      iszero\n      iszero\n      eq\n        /* \"contracts/Proposals.sol\":7490:7551  require(isVoted[_proposalId][user] == false, \"already voted\") */\n      tag_184\n      jumpi\n      mload(0x40)\n      0x08c379a000000000000000000000000000000000000000000000000000000000\n      dup2\n      mstore\n      0x04\n      add\n      tag_185\n      swap1\n      tag_186\n      jump\t// in\n    tag_185:\n      mload(0x40)\n      dup1\n      swap2\n      sub\n      swap1\n      revert\n    tag_184:\n        /* \"contracts/Proposals.sol\":7591:7595  true */\n      0x01\n        /* \"contracts/Proposals.sol\":7562:7569  isVoted */\n      0x08\n        /* \"contracts/Proposals.sol\":7562:7582  isVoted[_proposalId] */\n      0x00\n        /* \"contracts/Proposals.sol\":7570:7581  _proposalId */\n      dup10\n        /* \"contracts/Proposals.sol\":7562:7582  isVoted[_proposalId] */\n      dup2\n      mstore\n      0x20\n      add\n      swap1\n      dup2\n      mstore\n      0x20\n      add\n      0x00\n      keccak256\n        /* \"contracts/Proposals.sol\":7562:7588  isVoted[_proposalId][user] */\n      0x00\n        /* \"contracts/Proposals.sol\":7583:7587  user */\n      dup5\n        /* \"contracts/Proposals.sol\":7562:7588  isVoted[_proposalId][user] */\n      0xffffffffffffffffffffffffffffffffffffffff\n      and\n      0xffffffffffffffffffffffffffffffffffffffff\n      and\n      dup2\n      mstore\n      0x20\n      add\n      swap1\n      dup2\n      mstore\n      0x20\n      add\n      0x00\n      keccak256\n      0x00\n        /* \"contracts/Proposals.sol\":7562:7595  isVoted[_proposalId][user] = true */\n      0x0100\n      exp\n      dup2\n      sload\n      dup2\n      0xff\n      mul\n      not\n      and\n      swap1\n      dup4\n      iszero\n      iszero\n      mul\n      or\n      swap1\n      sstore\n      pop\n        /* \"contracts/Proposals.sol\":7606:7616  _agreement */\n      dup6\n        /* \"contracts/Proposals.sol\":7606:7704  _agreement... */\n      tag_187\n      jumpi\n        /* \"contracts/Proposals.sol\":7675:7683  proposal */\n      dup3\n        /* \"contracts/Proposals.sol\":7675:7693  proposal.rejectors */\n      0x0b\n      add\n        /* \"contracts/Proposals.sol\":7699:7703  user */\n      dup3\n        /* \"contracts/Proposals.sol\":7675:7704  proposal.rejectors.push(user) */\n      swap1\n      dup1\n      0x01\n      dup2\n      sload\n      add\n      dup1\n      dup3\n      sstore\n      dup1\n      swap2\n      pop\n      pop\n      0x01\n      swap1\n      sub\n      swap1\n      0x00\n      mstore\n      keccak256(0x00, 0x20)\n      add\n      0x00\n      swap1\n      swap2\n      swap1\n      swap2\n      swap1\n      swap2\n      0x0100\n      exp\n      dup2\n      sload\n      dup2\n      0xffffffffffffffffffffffffffffffffffffffff\n      mul\n      not\n      and\n      swap1\n      dup4\n      0xffffffffffffffffffffffffffffffffffffffff\n      and\n      mul\n      or\n      swap1\n      sstore\n      pop\n        /* \"contracts/Proposals.sol\":7606:7704  _agreement... */\n      jump(tag_189)\n    tag_187:\n        /* \"contracts/Proposals.sol\":7632:7640  proposal */\n      dup3\n        /* \"contracts/Proposals.sol\":7632:7648  proposal.agreers */\n      0x0a\n      add\n        /* \"contracts/Proposals.sol\":7654:7658  user */\n      dup3\n        /* \"contracts/Proposals.sol\":7632:7659  proposal.agreers.push(user) */\n      swap1\n      dup1\n      0x01\n      dup2\n      sload\n      add\n      dup1\n      dup3\n      sstore\n      dup1\n      swap2\n      pop\n      pop\n      0x01\n      swap1\n      sub\n      swap1\n      0x00\n      mstore\n      keccak256(0x00, 0x20)\n      add\n      0x00\n      swap1\n      swap2\n      swap1\n      swap2\n      swap1\n      swap2\n      0x0100\n      exp\n      dup2\n      sload\n      dup2\n      0xffffffffffffffffffffffffffffffffffffffff\n      mul\n      not\n      and\n      swap1\n      dup4\n      0xffffffffffffffffffffffffffffffffffffffff\n      and\n      mul\n      or\n      swap1\n      sstore\n      pop\n        /* \"contracts/Proposals.sol\":7606:7704  _agreement... */\n    tag_189:\n        /* \"contracts/Proposals.sol\":7802:7803  2 */\n      0x02\n        /* \"contracts/Proposals.sol\":7791:7801  voteNumber */\n      sload(0x04)\n        /* \"contracts/Proposals.sol\":7791:7803  voteNumber/2 */\n      tag_191\n      swap2\n      swap1\n      tag_192\n      jump\t// in\n    tag_191:\n        /* \"contracts/Proposals.sol\":7763:7771  proposal */\n      dup4\n        /* \"contracts/Proposals.sol\":7763:7781  proposal.rejectors */\n      0x0b\n      add\n        /* \"contracts/Proposals.sol\":7763:7788  proposal.rejectors.length */\n      dup1\n      sload\n      swap1\n      pop\n        /* \"contracts/Proposals.sol\":7763:7803  proposal.rejectors.length > voteNumber/2 */\n      gt\n        /* \"contracts/Proposals.sol\":7760:8162  if(proposal.rejectors.length > voteNumber/2){... */\n      iszero\n      tag_193\n      jumpi\n        /* \"contracts/Proposals.sol\":7837:7869  ProposalStatus.P2D_FAIL_INTO_P2P */\n      0x01\n        /* \"contracts/Proposals.sol\":7819:7827  proposal */\n      dup4\n        /* \"contracts/Proposals.sol\":7819:7834  proposal.status */\n      0x07\n      add\n      0x00\n        /* \"contracts/Proposals.sol\":7819:7869  proposal.status = ProposalStatus.P2D_FAIL_INTO_P2P */\n      0x0100\n      exp\n      dup2\n      sload\n      dup2\n      0xff\n      mul\n      not\n      and\n      swap1\n      dup4\n      0x09\n      dup2\n      gt\n      iszero\n      tag_194\n      jumpi\n      tag_195\n      tag_120\n      jump\t// in\n    tag_195:\n    tag_194:\n      mul\n      or\n      swap1\n      sstore\n      pop\n        /* \"contracts/Proposals.sol\":7760:8162  if(proposal.rejectors.length > voteNumber/2){... */\n      jump(tag_196)\n    tag_193:\n        /* \"contracts/Proposals.sol\":7927:7928  2 */\n      0x02\n        /* \"contracts/Proposals.sol\":7916:7926  voteNumber */\n      sload(0x04)\n        /* \"contracts/Proposals.sol\":7916:7928  voteNumber/2 */\n      tag_197\n      swap2\n      swap1\n      tag_192\n      jump\t// in\n    tag_197:\n        /* \"contracts/Proposals.sol\":7890:7898  proposal */\n      dup4\n        /* \"contracts/Proposals.sol\":7890:7906  proposal.agreers */\n      0x0a\n      add\n        /* \"contracts/Proposals.sol\":7890:7913  proposal.agreers.length */\n      dup1\n      sload\n      swap1\n      pop\n        /* \"contracts/Proposals.sol\":7890:7928  proposal.agreers.length > voteNumber/2 */\n      gt\n        /* \"contracts/Proposals.sol\":7886:8162  if (proposal.agreers.length > voteNumber/2) {... */\n      iszero\n      tag_198\n      jumpi\n        /* \"contracts/Proposals.sol\":7945:7963  proposalLinkedList */\n      0x02\n      0x00\n      swap1\n      sload\n      swap1\n      0x0100\n      exp\n      swap1\n      div\n      0xffffffffffffffffffffffffffffffffffffffff\n      and\n        /* \"contracts/Proposals.sol\":7945:7970  proposalLinkedList.remove */\n      0xffffffffffffffffffffffffffffffffffffffff\n      and\n      0x4cc82215\n        /* \"contracts/Proposals.sol\":7971:7982  _proposalId */\n      dup9\n        /* \"contracts/Proposals.sol\":7945:7983  proposalLinkedList.remove(_proposalId) */\n      mload(0x40)\n      dup3\n      0xffffffff\n      and\n      0xe0\n      shl\n      dup2\n      mstore\n      0x04\n      add\n      tag_199\n      swap2\n      swap1\n      tag_45\n      jump\t// in\n    tag_199:\n      0x00\n      mload(0x40)\n      dup1\n      dup4\n      sub\n      dup2\n      0x00\n      dup8\n      dup1\n      extcodesize\n      iszero\n      dup1\n      iszero\n      tag_200\n      jumpi\n      0x00\n      dup1\n      revert\n    tag_200:\n      pop\n      gas\n      call\n      iszero\n      dup1\n      iszero\n      tag_202\n      jumpi\n      returndatasize\n      0x00\n      dup1\n      returndatacopy\n      revert(0x00, returndatasize)\n    tag_202:\n      pop\n      pop\n      pop\n      pop\n        /* \"contracts/Proposals.sol\":7998:8003  token */\n      0x01\n      0x00\n      swap1\n      sload\n      swap1\n      0x0100\n      exp\n      swap1\n      div\n      0xffffffffffffffffffffffffffffffffffffffff\n      and\n        /* \"contracts/Proposals.sol\":7998:8016  token.transferFrom */\n      0xffffffffffffffffffffffffffffffffffffffff\n      and\n      0x23b872dd\n        /* \"contracts/Proposals.sol\":8017:8023  VicDAO */\n      0x05\n      0x00\n      swap1\n      sload\n      swap1\n      0x0100\n      exp\n      swap1\n      div\n      0xffffffffffffffffffffffffffffffffffffffff\n      and\n        /* \"contracts/Proposals.sol\":8024:8032  proposal */\n      dup6\n        /* \"contracts/Proposals.sol\":8024:8041  proposal.borrower */\n      0x03\n      add\n      0x00\n      swap1\n      sload\n      swap1\n      0x0100\n      exp\n      swap1\n      div\n      0xffffffffffffffffffffffffffffffffffffffff\n      and\n        /* \"contracts/Proposals.sol\":8042:8050  proposal */\n      dup7\n        /* \"contracts/Proposals.sol\":8042:8056  proposal.price */\n      0x05\n      add\n      sload\n        /* \"contracts/Proposals.sol\":7998:8057  token.transferFrom(VicDAO,proposal.borrower,proposal.price) */\n      mload(0x40)\n      dup5\n      0xffffffff\n      and\n      0xe0\n      shl\n      dup2\n      mstore\n      0x04\n      add\n      tag_203\n      swap4\n      swap3\n      swap2\n      swap1\n      tag_161\n      jump\t// in\n    tag_203:\n      0x20\n      mload(0x40)\n      dup1\n      dup4\n      sub\n      dup2\n      0x00\n      dup8\n      gas\n      call\n      iszero\n      dup1\n      iszero\n      tag_205\n      jumpi\n      returndatasize\n      0x00\n      dup1\n      returndatacopy\n      revert(0x00, returndatasize)\n    tag_205:\n      pop\n      pop\n      pop\n      pop\n      mload(0x40)\n      returndatasize\n      not(0x1f)\n      0x1f\n      dup3\n      add\n      and\n      dup3\n      add\n      dup1\n      0x40\n      mstore\n      pop\n      dup2\n      add\n      swap1\n      tag_206\n      swap2\n      swap1\n      tag_207\n      jump\t// in\n    tag_206:\n      pop\n        /* \"contracts/Proposals.sol\":8090:8122  ProposalStatus.P2P_WAITING_REPAY */\n      0x08\n        /* \"contracts/Proposals.sol\":8072:8080  proposal */\n      dup4\n        /* \"contracts/Proposals.sol\":8072:8087  proposal.status */\n      0x07\n      add\n      0x00\n        /* \"contracts/Proposals.sol\":8072:8122  proposal.status = ProposalStatus.P2P_WAITING_REPAY */\n      0x0100\n      exp\n      dup2\n      sload\n      dup2\n      0xff\n      mul\n      not\n      and\n      swap1\n      dup4\n      0x09\n      dup2\n      gt\n      iszero\n      tag_208\n      jumpi\n      tag_209\n      tag_120\n      jump\t// in\n    tag_209:\n    tag_208:\n      mul\n      or\n      swap1\n      sstore\n      pop\n        /* \"contracts/Proposals.sol\":7886:8162  if (proposal.agreers.length > voteNumber/2) {... */\n    tag_198:\n        /* \"contracts/Proposals.sol\":7760:8162  if(proposal.rejectors.length > voteNumber/2){... */\n    tag_196:\n        /* \"contracts/Proposals.sol\":7122:8169  {... */\n      pop\n      pop\n      pop\n        /* \"contracts/Proposals.sol\":7005:8169  function vote(... */\n      pop\n      pop\n      pop\n      pop\n      jump\t// out\n        /* \"contracts/Proposals.sol\":3591:4835  function createP2DProposal( address _nftAddress,... */\n    tag_73:\n        /* \"contracts/Proposals.sol\":3773:3784  IERC721 Nft */\n      0x00\n        /* \"contracts/Proposals.sol\":3795:3806  _nftAddress */\n      dup6\n        /* \"contracts/Proposals.sol\":3773:3807  IERC721 Nft = IERC721(_nftAddress) */\n      swap1\n      pop\n        /* \"contracts/Proposals.sol\":3818:3821  Nft */\n      dup1\n        /* \"contracts/Proposals.sol\":3818:3834  Nft.transferFrom */\n      0xffffffffffffffffffffffffffffffffffffffff\n      and\n      0x23b872dd\n        /* \"contracts/Proposals.sol\":3835:3845  msg.sender */\n      caller\n        /* \"contracts/Proposals.sol\":3855:3859  this */\n      address\n        /* \"contracts/Proposals.sol\":3862:3870  _tokenId */\n      dup9\n        /* \"contracts/Proposals.sol\":3818:3871  Nft.transferFrom(msg.sender, address(this), _tokenId) */\n      mload(0x40)\n      dup5\n      0xffffffff\n      and\n      0xe0\n      shl\n      dup2\n      mstore\n      0x04\n      add\n      tag_211\n      swap4\n      swap3\n      swap2\n      swap1\n      tag_161\n      jump\t// in\n    tag_211:\n      0x00\n      mload(0x40)\n      dup1\n      dup4\n      sub\n      dup2\n      0x00\n      dup8\n      dup1\n      extcodesize\n      iszero\n      dup1\n      iszero\n      tag_212\n      jumpi\n      0x00\n      dup1\n      revert\n    tag_212:\n      pop\n      gas\n      call\n      iszero\n      dup1\n      iszero\n      tag_214\n      jumpi\n      returndatasize\n      0x00\n      dup1\n      returndatacopy\n      revert(0x00, returndatasize)\n    tag_214:\n      pop\n      pop\n      pop\n      pop\n        /* \"contracts/Proposals.sol\":3918:3930  ramdomNumber */\n      sload(0x00)\n        /* \"contracts/Proposals.sol\":3932:3948  _newRandowNumber */\n      dup4\n        /* \"contracts/Proposals.sol\":3907:3949  abi.encode(ramdomNumber, _newRandowNumber) */\n      add(0x20, mload(0x40))\n      tag_215\n      swap3\n      swap2\n      swap1\n      tag_216\n      jump\t// in\n    tag_215:\n      mload(0x40)\n      0x20\n      dup2\n      dup4\n      sub\n      sub\n      dup2\n      mstore\n      swap1\n      0x40\n      mstore\n        /* \"contracts/Proposals.sol\":3897:3950  keccak256(abi.encode(ramdomNumber, _newRandowNumber)) */\n      dup1\n      mload\n      swap1\n      0x20\n      add\n      keccak256\n        /* \"contracts/Proposals.sol\":3882:3894  ramdomNumber */\n      0x00\n        /* \"contracts/Proposals.sol\":3882:3950  ramdomNumber = keccak256(abi.encode(ramdomNumber, _newRandowNumber)) */\n      dup2\n      swap1\n      sstore\n      pop\n        /* \"contracts/Proposals.sol\":3961:3978  uint proposalsLen */\n      0x00\n        /* \"contracts/Proposals.sol\":3981:3990  proposals */\n      0x09\n        /* \"contracts/Proposals.sol\":3981:3997  proposals.length */\n      dup1\n      sload\n      swap1\n      pop\n        /* \"contracts/Proposals.sol\":3961:3997  uint proposalsLen = proposals.length */\n      swap1\n      pop\n        /* \"contracts/Proposals.sol\":4008:4033  address[] memory agreeors */\n      0x60\n        /* \"contracts/Proposals.sol\":4044:4070  address[] memory rejectors */\n      dup1\n        /* \"contracts/Proposals.sol\":4081:4105  Proposal memory proposal */\n      0x00\n        /* \"contracts/Proposals.sol\":4106:4640  Proposal({... */\n      mload(0x40)\n      dup1\n      0x01a0\n      add\n      0x40\n      mstore\n      dup1\n        /* \"contracts/Proposals.sol\":4147:4159  block.number */\n      number\n        /* \"contracts/Proposals.sol\":4106:4640  Proposal({... */\n      dup2\n      mstore\n      0x20\n      add\n        /* \"contracts/Proposals.sol\":4190:4201  _nftAddress */\n      dup12\n        /* \"contracts/Proposals.sol\":4106:4640  Proposal({... */\n      0xffffffffffffffffffffffffffffffffffffffff\n      and\n      dup2\n      mstore\n      0x20\n      add\n        /* \"contracts/Proposals.sol\":4229:4237  _tokenId */\n      dup11\n        /* \"contracts/Proposals.sol\":4106:4640  Proposal({... */\n      dup2\n      mstore\n      0x20\n      add\n        /* \"contracts/Proposals.sol\":4266:4276  msg.sender */\n      caller\n        /* \"contracts/Proposals.sol\":4106:4640  Proposal({... */\n      0xffffffffffffffffffffffffffffffffffffffff\n      and\n      dup2\n      mstore\n      0x20\n      add\n        /* \"contracts/Proposals.sol\":4306:4321  block.timestamp */\n      timestamp\n        /* \"contracts/Proposals.sol\":4106:4640  Proposal({... */\n      dup2\n      mstore\n      0x20\n      add\n        /* \"contracts/Proposals.sol\":4346:4352  _price */\n      dup10\n        /* \"contracts/Proposals.sol\":4106:4640  Proposal({... */\n      dup2\n      mstore\n      0x20\n      add\n        /* \"contracts/Proposals.sol\":4380:4389  _loanTime */\n      dup8\n        /* \"contracts/Proposals.sol\":4106:4640  Proposal({... */\n      dup2\n      mstore\n      0x20\n      add\n        /* \"contracts/Proposals.sol\":4415:4438  ProposalStatus.P2D_INIT */\n      0x00\n        /* \"contracts/Proposals.sol\":4106:4640  Proposal({... */\n      0x09\n      dup2\n      gt\n      iszero\n      tag_217\n      jumpi\n      tag_218\n      tag_120\n      jump\t// in\n    tag_218:\n    tag_217:\n      dup2\n      mstore\n      0x20\n      add\n        /* \"contracts/Proposals.sol\":4551:4554  0x0 */\n      0x00\n        /* \"contracts/Proposals.sol\":4106:4640  Proposal({... */\n      0xffffffffffffffffffffffffffffffffffffffff\n      and\n      dup2\n      mstore\n      0x20\n      add\n        /* \"contracts/Proposals.sol\":4474:4486  ramdomNumber */\n      sload(0x00)\n        /* \"contracts/Proposals.sol\":4106:4640  Proposal({... */\n      dup2\n      mstore\n      0x20\n      add\n        /* \"contracts/Proposals.sol\":4516:4517  0 */\n      0x00\n        /* \"contracts/Proposals.sol\":4106:4640  Proposal({... */\n      dup2\n      mstore\n      0x20\n      add\n        /* \"contracts/Proposals.sol\":4582:4590  agreeors */\n      dup5\n        /* \"contracts/Proposals.sol\":4106:4640  Proposal({... */\n      dup2\n      mstore\n      0x20\n      add\n        /* \"contracts/Proposals.sol\":4619:4628  rejectors */\n      dup4\n        /* \"contracts/Proposals.sol\":4106:4640  Proposal({... */\n      dup2\n      mstore\n      pop\n        /* \"contracts/Proposals.sol\":4081:4640  Proposal memory proposal=Proposal({... */\n      swap1\n      pop\n        /* \"contracts/Proposals.sol\":4651:4660  proposals */\n      0x09\n        /* \"contracts/Proposals.sol\":4666:4674  proposal */\n      dup2\n        /* \"contracts/Proposals.sol\":4651:4675  proposals.push(proposal) */\n      swap1\n      dup1\n      0x01\n      dup2\n      sload\n      add\n      dup1\n      dup3\n      sstore\n      dup1\n      swap2\n      pop\n      pop\n      0x01\n      swap1\n      sub\n      swap1\n      0x00\n      mstore\n      keccak256(0x00, 0x20)\n      swap1\n      0x0c\n      mul\n      add\n      0x00\n      swap1\n      swap2\n      swap1\n      swap2\n      swap1\n      swap2\n      pop\n      0x00\n      dup3\n      add\n      mload\n      dup2\n      0x00\n      add\n      sstore\n      0x20\n      dup3\n      add\n      mload\n      dup2\n      0x01\n      add\n      exp(0x0100, 0x00)\n      dup2\n      sload\n      dup2\n      0xffffffffffffffffffffffffffffffffffffffff\n      mul\n      not\n      and\n      swap1\n      dup4\n      0xffffffffffffffffffffffffffffffffffffffff\n      and\n      mul\n      or\n      swap1\n      sstore\n      pop\n      0x40\n      dup3\n      add\n      mload\n      dup2\n      0x02\n      add\n      sstore\n      0x60\n      dup3\n      add\n      mload\n      dup2\n      0x03\n      add\n      exp(0x0100, 0x00)\n      dup2\n      sload\n      dup2\n      0xffffffffffffffffffffffffffffffffffffffff\n      mul\n      not\n      and\n      swap1\n      dup4\n      0xffffffffffffffffffffffffffffffffffffffff\n      and\n      mul\n      or\n      swap1\n      sstore\n      pop\n      0x80\n      dup3\n      add\n      mload\n      dup2\n      0x04\n      add\n      sstore\n      0xa0\n      dup3\n      add\n      mload\n      dup2\n      0x05\n      add\n      sstore\n      0xc0\n      dup3\n      add\n      mload\n      dup2\n      0x06\n      add\n      sstore\n      0xe0\n      dup3\n      add\n      mload\n      dup2\n      0x07\n      add\n      exp(0x0100, 0x00)\n      dup2\n      sload\n      dup2\n      0xff\n      mul\n      not\n      and\n      swap1\n      dup4\n      0x09\n      dup2\n      gt\n      iszero\n      tag_220\n      jumpi\n      tag_221\n      tag_120\n      jump\t// in\n    tag_221:\n    tag_220:\n      mul\n      or\n      swap1\n      sstore\n      pop\n      0x0100\n      dup3\n      add\n      mload\n      dup2\n      0x07\n      add\n      exp(0x0100, 0x01)\n      dup2\n      sload\n      dup2\n      0xffffffffffffffffffffffffffffffffffffffff\n      mul\n      not\n      and\n      swap1\n      dup4\n      0xffffffffffffffffffffffffffffffffffffffff\n      and\n      mul\n      or\n      swap1\n      sstore\n      pop\n      0x0120\n      dup3\n      add\n      mload\n      dup2\n      0x08\n      add\n      sstore\n      0x0140\n      dup3\n      add\n      mload\n      dup2\n      0x09\n      add\n      sstore\n      0x0160\n      dup3\n      add\n      mload\n      dup2\n      0x0a\n      add\n      swap1\n      dup1\n      mload\n      swap1\n      0x20\n      add\n      swap1\n      tag_222\n      swap3\n      swap2\n      swap1\n      tag_223\n      jump\t// in\n    tag_222:\n      pop\n      0x0180\n      dup3\n      add\n      mload\n      dup2\n      0x0b\n      add\n      swap1\n      dup1\n      mload\n      swap1\n      0x20\n      add\n      swap1\n      tag_224\n      swap3\n      swap2\n      swap1\n      tag_223\n      jump\t// in\n    tag_224:\n      pop\n      pop\n      pop\n        /* \"contracts/Proposals.sol\":4725:4737  proposalsLen */\n      dup4\n        /* \"contracts/Proposals.sol\":4686:4699  proposalTable */\n      0x07\n        /* \"contracts/Proposals.sol\":4686:4712  proposalTable[_nftAddress] */\n      0x00\n        /* \"contracts/Proposals.sol\":4700:4711  _nftAddress */\n      dup13\n        /* \"contracts/Proposals.sol\":4686:4712  proposalTable[_nftAddress] */\n      0xffffffffffffffffffffffffffffffffffffffff\n      and\n      0xffffffffffffffffffffffffffffffffffffffff\n      and\n      dup2\n      mstore\n      0x20\n      add\n      swap1\n      dup2\n      mstore\n      0x20\n      add\n      0x00\n      keccak256\n        /* \"contracts/Proposals.sol\":4686:4722  proposalTable[_nftAddress][_tokenId] */\n      0x00\n        /* \"contracts/Proposals.sol\":4713:4721  _tokenId */\n      dup12\n        /* \"contracts/Proposals.sol\":4686:4722  proposalTable[_nftAddress][_tokenId] */\n      dup2\n      mstore\n      0x20\n      add\n      swap1\n      dup2\n      mstore\n      0x20\n      add\n      0x00\n      keccak256\n        /* \"contracts/Proposals.sol\":4686:4737  proposalTable[_nftAddress][_tokenId] = proposalsLen */\n      dup2\n      swap1\n      sstore\n      pop\n        /* \"contracts/Proposals.sol\":4748:4766  proposalLinkedList */\n      0x02\n      0x00\n      swap1\n      sload\n      swap1\n      0x0100\n      exp\n      swap1\n      div\n      0xffffffffffffffffffffffffffffffffffffffff\n      and\n        /* \"contracts/Proposals.sol\":4748:4775  proposalLinkedList.increate */\n      0xffffffffffffffffffffffffffffffffffffffff\n      and\n      0xfb470df2\n        /* \"contracts/Proposals.sol\":4776:4788  proposalsLen */\n      dup6\n        /* \"contracts/Proposals.sol\":4802:4803  1 */\n      0x01\n        /* \"contracts/Proposals.sol\":4789:4801  proposalsLen */\n      dup8\n        /* \"contracts/Proposals.sol\":4789:4803  proposalsLen-1 */\n      tag_225\n      swap2\n      swap1\n      tag_226\n      jump\t// in\n    tag_225:\n        /* \"contracts/Proposals.sol\":4748:4804  proposalLinkedList.increate(proposalsLen,proposalsLen-1) */\n      mload(0x40)\n      dup4\n      0xffffffff\n      and\n      0xe0\n      shl\n      dup2\n      mstore\n      0x04\n      add\n      tag_227\n      swap3\n      swap2\n      swap1\n      tag_228\n      jump\t// in\n    tag_227:\n      0x00\n      mload(0x40)\n      dup1\n      dup4\n      sub\n      dup2\n      0x00\n      dup8\n      dup1\n      extcodesize\n      iszero\n      dup1\n      iszero\n      tag_229\n      jumpi\n      0x00\n      dup1\n      revert\n    tag_229:\n      pop\n      gas\n      call\n      iszero\n      dup1\n      iszero\n      tag_231\n      jumpi\n      returndatasize\n      0x00\n      dup1\n      returndatacopy\n      revert(0x00, returndatasize)\n    tag_231:\n      pop\n      pop\n      pop\n      pop\n        /* \"contracts/Proposals.sol\":3762:4835  {... */\n      pop\n      pop\n      pop\n      pop\n      pop\n        /* \"contracts/Proposals.sol\":3591:4835  function createP2DProposal( address _nftAddress,... */\n      pop\n      pop\n      pop\n      pop\n      pop\n      jump\t// out\n        /* \"contracts/Proposals.sol\":326:423  bytes32 public ramdomNumber =... */\n    tag_75:\n      sload(0x00)\n      dup2\n      jump\t// out\n        /* \"contracts/Proposals.sol\":8317:8408  function lendingRate(uint256 time) public pure returns (uint256){... */\n    tag_79:\n        /* \"contracts/Proposals.sol\":8373:8380  uint256 */\n      0x00\n        /* \"contracts/Proposals.sol\":8317:8408  function lendingRate(uint256 time) public pure returns (uint256){... */\n      swap2\n      swap1\n      pop\n      jump\t// out\n        /* \"contracts/Proposals.sol\":671:692  address public VicDAO */\n    tag_82:\n      0x05\n      0x00\n      swap1\n      sload\n      swap1\n      0x0100\n      exp\n      swap1\n      div\n      0xffffffffffffffffffffffffffffffffffffffff\n      and\n      dup2\n      jump\t// out\n        /* \"contracts/Proposals.sol\":511:555  ProposalLinkedList public proposalLinkedList */\n    tag_85:\n      0x02\n      0x00\n      swap1\n      sload\n      swap1\n      0x0100\n      exp\n      swap1\n      div\n      0xffffffffffffffffffffffffffffffffffffffff\n      and\n      dup2\n      jump\t// out\n        /* \"contracts/Proposals.sol\":10561:10697  function setAdministrator(address _address)external onlyadministrator returns(address){... */\n    tag_91:\n        /* \"contracts/Proposals.sol\":10639:10646  address */\n      0x00\n        /* \"contracts/Proposals.sol\":1215:1228  administrator */\n      0x06\n      0x00\n      swap1\n      sload\n      swap1\n      0x0100\n      exp\n      swap1\n      div\n      0xffffffffffffffffffffffffffffffffffffffff\n      and\n        /* \"contracts/Proposals.sol\":1201:1228  msg.sender == administrator */\n      0xffffffffffffffffffffffffffffffffffffffff\n      and\n        /* \"contracts/Proposals.sol\":1201:1211  msg.sender */\n      caller\n        /* \"contracts/Proposals.sol\":1201:1228  msg.sender == administrator */\n      0xffffffffffffffffffffffffffffffffffffffff\n      and\n      eq\n        /* \"contracts/Proposals.sol\":1193:1229  require(msg.sender == administrator) */\n      tag_234\n      jumpi\n      0x00\n      dup1\n      revert\n    tag_234:\n        /* \"contracts/Proposals.sol\":10681:10689  _address */\n      dup2\n        /* \"contracts/Proposals.sol\":10665:10678  administrator */\n      0x06\n      0x00\n        /* \"contracts/Proposals.sol\":10665:10689  administrator = _address */\n      0x0100\n      exp\n      dup2\n      sload\n      dup2\n      0xffffffffffffffffffffffffffffffffffffffff\n      mul\n      not\n      and\n      swap1\n      dup4\n      0xffffffffffffffffffffffffffffffffffffffff\n      and\n      mul\n      or\n      swap1\n      sstore\n        /* \"contracts/Proposals.sol\":10658:10689  return administrator = _address */\n      swap1\n      pop\n        /* \"contracts/Proposals.sol\":10561:10697  function setAdministrator(address _address)external onlyadministrator returns(address){... */\n      swap2\n      swap1\n      pop\n      jump\t// out\n        /* \"contracts/Proposals.sol\":8940:9282  function payByP2P(uint256 _propsalId)public{... */\n    tag_95:\n        /* \"contracts/Proposals.sol\":8994:9019  Proposal storage proposal */\n      0x00\n        /* \"contracts/Proposals.sol\":9020:9029  proposals */\n      0x09\n        /* \"contracts/Proposals.sol\":9030:9040  _propsalId */\n      dup3\n        /* \"contracts/Proposals.sol\":9020:9041  proposals[_propsalId] */\n      dup2\n      sload\n      dup2\n      lt\n      tag_237\n      jumpi\n      tag_238\n      tag_115\n      jump\t// in\n    tag_238:\n    tag_237:\n      swap1\n      0x00\n      mstore\n      keccak256(0x00, 0x20)\n      swap1\n      0x0c\n      mul\n      add\n        /* \"contracts/Proposals.sol\":8994:9041  Proposal storage proposal=proposals[_propsalId] */\n      swap1\n      pop\n        /* \"contracts/Proposals.sol\":9079:9089  msg.sender */\n      caller\n        /* \"contracts/Proposals.sol\":9060:9089  proposal.borrower==msg.sender */\n      0xffffffffffffffffffffffffffffffffffffffff\n      and\n        /* \"contracts/Proposals.sol\":9060:9068  proposal */\n      dup2\n        /* \"contracts/Proposals.sol\":9060:9077  proposal.borrower */\n      0x03\n      add\n      0x00\n      swap1\n      sload\n      swap1\n      0x0100\n      exp\n      swap1\n      div\n      0xffffffffffffffffffffffffffffffffffffffff\n      and\n        /* \"contracts/Proposals.sol\":9060:9089  proposal.borrower==msg.sender */\n      0xffffffffffffffffffffffffffffffffffffffff\n      and\n      eq\n        /* \"contracts/Proposals.sol\":9052:9090  require(proposal.borrower==msg.sender) */\n      tag_240\n      jumpi\n      0x00\n      dup1\n      revert\n    tag_240:\n        /* \"contracts/Proposals.sol\":9126:9158  ProposalStatus.P2P_WAITING_REPAY */\n      0x08\n        /* \"contracts/Proposals.sol\":9109:9158  proposal.status==ProposalStatus.P2P_WAITING_REPAY */\n      0x09\n      dup2\n      gt\n      iszero\n      tag_241\n      jumpi\n      tag_242\n      tag_120\n      jump\t// in\n    tag_242:\n    tag_241:\n        /* \"contracts/Proposals.sol\":9109:9117  proposal */\n      dup2\n        /* \"contracts/Proposals.sol\":9109:9124  proposal.status */\n      0x07\n      add\n      0x00\n      swap1\n      sload\n      swap1\n      0x0100\n      exp\n      swap1\n      div\n      0xff\n      and\n        /* \"contracts/Proposals.sol\":9109:9158  proposal.status==ProposalStatus.P2P_WAITING_REPAY */\n      0x09\n      dup2\n      gt\n      iszero\n      tag_243\n      jumpi\n      tag_244\n      tag_120\n      jump\t// in\n    tag_244:\n    tag_243:\n      eq\n        /* \"contracts/Proposals.sol\":9101:9159  require(proposal.status==ProposalStatus.P2P_WAITING_REPAY) */\n      tag_245\n      jumpi\n      0x00\n      dup1\n      revert\n    tag_245:\n        /* \"contracts/Proposals.sol\":9170:9200  _pay(proposal,proposal.lender) */\n      tag_246\n        /* \"contracts/Proposals.sol\":9175:9183  proposal */\n      dup2\n        /* \"contracts/Proposals.sol\":9184:9192  proposal */\n      dup3\n        /* \"contracts/Proposals.sol\":9184:9199  proposal.lender */\n      0x07\n      add\n      0x01\n      swap1\n      sload\n      swap1\n      0x0100\n      exp\n      swap1\n      div\n      0xffffffffffffffffffffffffffffffffffffffff\n      and\n        /* \"contracts/Proposals.sol\":9170:9174  _pay */\n      tag_125\n        /* \"contracts/Proposals.sol\":9170:9200  _pay(proposal,proposal.lender) */\n      jump\t// in\n    tag_246:\n        /* \"contracts/Proposals.sol\":9227:9252  ProposalStatus.P2P_FINISH */\n      0x09\n        /* \"contracts/Proposals.sol\":9211:9219  proposal */\n      dup2\n        /* \"contracts/Proposals.sol\":9211:9226  proposal.status */\n      0x07\n      add\n      0x00\n        /* \"contracts/Proposals.sol\":9211:9252  proposal.status=ProposalStatus.P2P_FINISH */\n      0x0100\n      exp\n      dup2\n      sload\n      dup2\n      0xff\n      mul\n      not\n      and\n      swap1\n      dup4\n      0x09\n      dup2\n      gt\n      iszero\n      tag_247\n      jumpi\n      tag_248\n      tag_120\n      jump\t// in\n    tag_248:\n    tag_247:\n      mul\n      or\n      swap1\n      sstore\n      pop\n        /* \"contracts/Proposals.sol\":8983:9282  {... */\n      pop\n        /* \"contracts/Proposals.sol\":8940:9282  function payByP2P(uint256 _propsalId)public{... */\n      pop\n      jump\t// out\n        /* \"contracts/Proposals.sol\":9644:10427  function P2pBuy(... */\n    tag_98:\n        /* \"contracts/Proposals.sol\":9716:9741  Proposal storage proposal */\n      0x00\n        /* \"contracts/Proposals.sol\":9742:9751  proposals */\n      0x09\n        /* \"contracts/Proposals.sol\":9752:9763  _proposalId */\n      dup3\n        /* \"contracts/Proposals.sol\":9742:9764  proposals[_proposalId] */\n      dup2\n      sload\n      dup2\n      lt\n      tag_250\n      jumpi\n      tag_251\n      tag_115\n      jump\t// in\n    tag_251:\n    tag_250:\n      swap1\n      0x00\n      mstore\n      keccak256(0x00, 0x20)\n      swap1\n      0x0c\n      mul\n      add\n        /* \"contracts/Proposals.sol\":9716:9764  Proposal storage proposal=proposals[_proposalId] */\n      swap1\n      pop\n        /* \"contracts/Proposals.sol\":9775:9796  ProposalStatus status */\n      0x00\n        /* \"contracts/Proposals.sol\":9797:9805  proposal */\n      dup2\n        /* \"contracts/Proposals.sol\":9797:9812  proposal.status */\n      0x07\n      add\n      0x00\n      swap1\n      sload\n      swap1\n      0x0100\n      exp\n      swap1\n      div\n      0xff\n      and\n        /* \"contracts/Proposals.sol\":9775:9812  ProposalStatus status=proposal.status */\n      swap1\n      pop\n        /* \"contracts/Proposals.sol\":9841:9873  ProposalStatus.P2D_FAIL_INTO_P2P */\n      0x01\n        /* \"contracts/Proposals.sol\":9831:9873  status == ProposalStatus.P2D_FAIL_INTO_P2P */\n      0x09\n      dup2\n      gt\n      iszero\n      tag_253\n      jumpi\n      tag_254\n      tag_120\n      jump\t// in\n    tag_254:\n    tag_253:\n        /* \"contracts/Proposals.sol\":9831:9837  status */\n      dup2\n        /* \"contracts/Proposals.sol\":9831:9873  status == ProposalStatus.P2D_FAIL_INTO_P2P */\n      0x09\n      dup2\n      gt\n      iszero\n      tag_255\n      jumpi\n      tag_256\n      tag_120\n      jump\t// in\n    tag_256:\n    tag_255:\n      eq\n        /* \"contracts/Proposals.sol\":9831:9957  status == ProposalStatus.P2D_FAIL_INTO_P2P || (status==ProposalStatus.P2D_INIT && proposal.createTime+2 days>=block.timestamp) */\n      dup1\n      tag_257\n      jumpi\n      pop\n        /* \"contracts/Proposals.sol\":9886:9909  ProposalStatus.P2D_INIT */\n      0x00\n        /* \"contracts/Proposals.sol\":9878:9909  status==ProposalStatus.P2D_INIT */\n      0x09\n      dup2\n      gt\n      iszero\n      tag_258\n      jumpi\n      tag_259\n      tag_120\n      jump\t// in\n    tag_259:\n    tag_258:\n        /* \"contracts/Proposals.sol\":9878:9884  status */\n      dup2\n        /* \"contracts/Proposals.sol\":9878:9909  status==ProposalStatus.P2D_INIT */\n      0x09\n      dup2\n      gt\n      iszero\n      tag_260\n      jumpi\n      tag_261\n      tag_120\n      jump\t// in\n    tag_261:\n    tag_260:\n      eq\n        /* \"contracts/Proposals.sol\":9878:9956  status==ProposalStatus.P2D_INIT && proposal.createTime+2 days>=block.timestamp */\n      dup1\n      iszero\n      tag_262\n      jumpi\n      pop\n        /* \"contracts/Proposals.sol\":9941:9956  block.timestamp */\n      timestamp\n        /* \"contracts/Proposals.sol\":9933:9939  2 days */\n      0x02a300\n        /* \"contracts/Proposals.sol\":9913:9921  proposal */\n      dup4\n        /* \"contracts/Proposals.sol\":9913:9932  proposal.createTime */\n      0x04\n      add\n      sload\n        /* \"contracts/Proposals.sol\":9913:9939  proposal.createTime+2 days */\n      tag_263\n      swap2\n      swap1\n      tag_134\n      jump\t// in\n    tag_263:\n        /* \"contracts/Proposals.sol\":9913:9956  proposal.createTime+2 days>=block.timestamp */\n      lt\n      iszero\n        /* \"contracts/Proposals.sol\":9878:9956  status==ProposalStatus.P2D_INIT && proposal.createTime+2 days>=block.timestamp */\n    tag_262:\n        /* \"contracts/Proposals.sol\":9831:9957  status == ProposalStatus.P2D_FAIL_INTO_P2P || (status==ProposalStatus.P2D_INIT && proposal.createTime+2 days>=block.timestamp) */\n    tag_257:\n        /* \"contracts/Proposals.sol\":9823:9958  require(status == ProposalStatus.P2D_FAIL_INTO_P2P || (status==ProposalStatus.P2D_INIT && proposal.createTime+2 days>=block.timestamp)) */\n      tag_264\n      jumpi\n      0x00\n      dup1\n      revert\n    tag_264:\n        /* \"contracts/Proposals.sol\":9971:9976  token */\n      0x01\n      0x00\n      swap1\n      sload\n      swap1\n      0x0100\n      exp\n      swap1\n      div\n      0xffffffffffffffffffffffffffffffffffffffff\n      and\n        /* \"contracts/Proposals.sol\":9971:9989  token.transferFrom */\n      0xffffffffffffffffffffffffffffffffffffffff\n      and\n      0x23b872dd\n        /* \"contracts/Proposals.sol\":9990:10000  msg.sender */\n      caller\n        /* \"contracts/Proposals.sol\":10001:10009  proposal */\n      dup5\n        /* \"contracts/Proposals.sol\":10001:10018  proposal.borrower */\n      0x03\n      add\n      0x00\n      swap1\n      sload\n      swap1\n      0x0100\n      exp\n      swap1\n      div\n      0xffffffffffffffffffffffffffffffffffffffff\n      and\n        /* \"contracts/Proposals.sol\":10019:10027  proposal */\n      dup6\n        /* \"contracts/Proposals.sol\":10019:10033  proposal.price */\n      0x05\n      add\n      sload\n        /* \"contracts/Proposals.sol\":9971:10034  token.transferFrom(msg.sender,proposal.borrower,proposal.price) */\n      mload(0x40)\n      dup5\n      0xffffffff\n      and\n      0xe0\n      shl\n      dup2\n      mstore\n      0x04\n      add\n      tag_265\n      swap4\n      swap3\n      swap2\n      swap1\n      tag_161\n      jump\t// in\n    tag_265:\n      0x20\n      mload(0x40)\n      dup1\n      dup4\n      sub\n      dup2\n      0x00\n      dup8\n      gas\n      call\n      iszero\n      dup1\n      iszero\n      tag_267\n      jumpi\n      returndatasize\n      0x00\n      dup1\n      returndatacopy\n      revert(0x00, returndatasize)\n    tag_267:\n      pop\n      pop\n      pop\n      pop\n      mload(0x40)\n      returndatasize\n      not(0x1f)\n      0x1f\n      dup3\n      add\n      and\n      dup3\n      add\n      dup1\n      0x40\n      mstore\n      pop\n      dup2\n      add\n      swap1\n      tag_268\n      swap2\n      swap1\n      tag_207\n      jump\t// in\n    tag_268:\n      pop\n        /* \"contracts/Proposals.sol\":10063:10095  ProposalStatus.P2P_WAITING_REPAY */\n      0x08\n        /* \"contracts/Proposals.sol\":10045:10053  proposal */\n      dup3\n        /* \"contracts/Proposals.sol\":10045:10060  proposal.status */\n      0x07\n      add\n      0x00\n        /* \"contracts/Proposals.sol\":10045:10095  proposal.status = ProposalStatus.P2P_WAITING_REPAY */\n      0x0100\n      exp\n      dup2\n      sload\n      dup2\n      0xff\n      mul\n      not\n      and\n      swap1\n      dup4\n      0x09\n      dup2\n      gt\n      iszero\n      tag_269\n      jumpi\n      tag_270\n      tag_120\n      jump\t// in\n    tag_270:\n    tag_269:\n      mul\n      or\n      swap1\n      sstore\n      pop\n        /* \"contracts/Proposals.sol\":10124:10134  msg.sender */\n      caller\n        /* \"contracts/Proposals.sol\":10106:10114  proposal */\n      dup3\n        /* \"contracts/Proposals.sol\":10106:10121  proposal.lender */\n      0x07\n      add\n      0x01\n        /* \"contracts/Proposals.sol\":10106:10134  proposal.lender = msg.sender */\n      0x0100\n      exp\n      dup2\n      sload\n      dup2\n      0xffffffffffffffffffffffffffffffffffffffff\n      mul\n      not\n      and\n      swap1\n      dup4\n      0xffffffffffffffffffffffffffffffffffffffff\n      and\n      mul\n      or\n      swap1\n      sstore\n      pop\n        /* \"contracts/Proposals.sol\":10165:10180  block.timestamp */\n      timestamp\n        /* \"contracts/Proposals.sol\":10145:10153  proposal */\n      dup3\n        /* \"contracts/Proposals.sol\":10145:10164  proposal.borrowTime */\n      0x09\n      add\n        /* \"contracts/Proposals.sol\":10145:10180  proposal.borrowTime=block.timestamp */\n      dup2\n      swap1\n      sstore\n      pop\n        /* \"contracts/Proposals.sol\":10264:10282  proposalLinkedList */\n      0x02\n      0x00\n      swap1\n      sload\n      swap1\n      0x0100\n      exp\n      swap1\n      div\n      0xffffffffffffffffffffffffffffffffffffffff\n      and\n        /* \"contracts/Proposals.sol\":10264:10289  proposalLinkedList.remove */\n      0xffffffffffffffffffffffffffffffffffffffff\n      and\n      0x4cc82215\n        /* \"contracts/Proposals.sol\":10290:10301  _proposalId */\n      dup5\n        /* \"contracts/Proposals.sol\":10264:10302  proposalLinkedList.remove(_proposalId) */\n      mload(0x40)\n      dup3\n      0xffffffff\n      and\n      0xe0\n      shl\n      dup2\n      mstore\n      0x04\n      add\n      tag_271\n      swap2\n      swap1\n      tag_45\n      jump\t// in\n    tag_271:\n      0x00\n      mload(0x40)\n      dup1\n      dup4\n      sub\n      dup2\n      0x00\n      dup8\n      dup1\n      extcodesize\n      iszero\n      dup1\n      iszero\n      tag_272\n      jumpi\n      0x00\n      dup1\n      revert\n    tag_272:\n      pop\n      gas\n      call\n      iszero\n      dup1\n      iszero\n      tag_274\n      jumpi\n      returndatasize\n      0x00\n      dup1\n      returndatacopy\n      revert(0x00, returndatasize)\n    tag_274:\n      pop\n      pop\n      pop\n      pop\n        /* \"contracts/Proposals.sol\":10334:10345  _proposalId */\n      dup3\n        /* \"contracts/Proposals.sol\":10318:10396  PassP2pProposal(_proposalId,proposal.nftAddress,proposal.tokenId,block.number) */\n      0xd262cae68163fd472498119348d9793d6e5bf5bda2c9e02ab30121d3a0f4a46e\n        /* \"contracts/Proposals.sol\":10346:10354  proposal */\n      dup4\n        /* \"contracts/Proposals.sol\":10346:10365  proposal.nftAddress */\n      0x01\n      add\n      0x00\n      swap1\n      sload\n      swap1\n      0x0100\n      exp\n      swap1\n      div\n      0xffffffffffffffffffffffffffffffffffffffff\n      and\n        /* \"contracts/Proposals.sol\":10366:10374  proposal */\n      dup5\n        /* \"contracts/Proposals.sol\":10366:10382  proposal.tokenId */\n      0x02\n      add\n      sload\n        /* \"contracts/Proposals.sol\":10383:10395  block.number */\n      number\n        /* \"contracts/Proposals.sol\":10318:10396  PassP2pProposal(_proposalId,proposal.nftAddress,proposal.tokenId,block.number) */\n      mload(0x40)\n      tag_275\n      swap4\n      swap3\n      swap2\n      swap1\n      tag_276\n      jump\t// in\n    tag_275:\n      mload(0x40)\n      dup1\n      swap2\n      sub\n      swap1\n      log2\n        /* \"contracts/Proposals.sol\":9705:10427  {... */\n      pop\n      pop\n        /* \"contracts/Proposals.sol\":9644:10427  function P2pBuy(... */\n      pop\n      jump\t// out\n        /* \"contracts/Proposals.sol\":4843:5971  function createP2PProposal(address _nftAddress,... */\n    tag_102:\n        /* \"contracts/Proposals.sol\":4988:4999  IERC721 Nft */\n      0x00\n        /* \"contracts/Proposals.sol\":5010:5021  _nftAddress */\n      dup5\n        /* \"contracts/Proposals.sol\":4988:5022  IERC721 Nft = IERC721(_nftAddress) */\n      swap1\n      pop\n        /* \"contracts/Proposals.sol\":5033:5036  Nft */\n      dup1\n        /* \"contracts/Proposals.sol\":5033:5049  Nft.transferFrom */\n      0xffffffffffffffffffffffffffffffffffffffff\n      and\n      0x23b872dd\n        /* \"contracts/Proposals.sol\":5050:5060  msg.sender */\n      caller\n        /* \"contracts/Proposals.sol\":5070:5074  this */\n      address\n        /* \"contracts/Proposals.sol\":5077:5085  _tokenId */\n      dup8\n        /* \"contracts/Proposals.sol\":5033:5086  Nft.transferFrom(msg.sender, address(this), _tokenId) */\n      mload(0x40)\n      dup5\n      0xffffffff\n      and\n      0xe0\n      shl\n      dup2\n      mstore\n      0x04\n      add\n      tag_278\n      swap4\n      swap3\n      swap2\n      swap1\n      tag_161\n      jump\t// in\n    tag_278:\n      0x00\n      mload(0x40)\n      dup1\n      dup4\n      sub\n      dup2\n      0x00\n      dup8\n      dup1\n      extcodesize\n      iszero\n      dup1\n      iszero\n      tag_279\n      jumpi\n      0x00\n      dup1\n      revert\n    tag_279:\n      pop\n      gas\n      call\n      iszero\n      dup1\n      iszero\n      tag_281\n      jumpi\n      returndatasize\n      0x00\n      dup1\n      returndatacopy\n      revert(0x00, returndatasize)\n    tag_281:\n      pop\n      pop\n      pop\n      pop\n        /* \"contracts/Proposals.sol\":5097:5114  uint proposalsLen */\n      0x00\n        /* \"contracts/Proposals.sol\":5117:5126  proposals */\n      0x09\n        /* \"contracts/Proposals.sol\":5117:5133  proposals.length */\n      dup1\n      sload\n      swap1\n      pop\n        /* \"contracts/Proposals.sol\":5097:5133  uint proposalsLen = proposals.length */\n      swap1\n      pop\n        /* \"contracts/Proposals.sol\":5144:5169  address[] memory agreeors */\n      0x60\n        /* \"contracts/Proposals.sol\":5180:5206  address[] memory rejectors */\n      dup1\n        /* \"contracts/Proposals.sol\":5217:5241  Proposal memory proposal */\n      0x00\n        /* \"contracts/Proposals.sol\":5242:5776  Proposal({... */\n      mload(0x40)\n      dup1\n      0x01a0\n      add\n      0x40\n      mstore\n      dup1\n        /* \"contracts/Proposals.sol\":5283:5295  block.number */\n      number\n        /* \"contracts/Proposals.sol\":5242:5776  Proposal({... */\n      dup2\n      mstore\n      0x20\n      add\n        /* \"contracts/Proposals.sol\":5326:5337  _nftAddress */\n      dup11\n        /* \"contracts/Proposals.sol\":5242:5776  Proposal({... */\n      0xffffffffffffffffffffffffffffffffffffffff\n      and\n      dup2\n      mstore\n      0x20\n      add\n        /* \"contracts/Proposals.sol\":5365:5373  _tokenId */\n      dup10\n        /* \"contracts/Proposals.sol\":5242:5776  Proposal({... */\n      dup2\n      mstore\n      0x20\n      add\n        /* \"contracts/Proposals.sol\":5402:5412  msg.sender */\n      caller\n        /* \"contracts/Proposals.sol\":5242:5776  Proposal({... */\n      0xffffffffffffffffffffffffffffffffffffffff\n      and\n      dup2\n      mstore\n      0x20\n      add\n        /* \"contracts/Proposals.sol\":5442:5457  block.timestamp */\n      timestamp\n        /* \"contracts/Proposals.sol\":5242:5776  Proposal({... */\n      dup2\n      mstore\n      0x20\n      add\n        /* \"contracts/Proposals.sol\":5482:5488  _price */\n      dup9\n        /* \"contracts/Proposals.sol\":5242:5776  Proposal({... */\n      dup2\n      mstore\n      0x20\n      add\n        /* \"contracts/Proposals.sol\":5516:5525  _loanTime */\n      dup8\n        /* \"contracts/Proposals.sol\":5242:5776  Proposal({... */\n      dup2\n      mstore\n      0x20\n      add\n        /* \"contracts/Proposals.sol\":5551:5574  ProposalStatus.P2P_INIT */\n      0x06\n        /* \"contracts/Proposals.sol\":5242:5776  Proposal({... */\n      0x09\n      dup2\n      gt\n      iszero\n      tag_282\n      jumpi\n      tag_283\n      tag_120\n      jump\t// in\n    tag_283:\n    tag_282:\n      dup2\n      mstore\n      0x20\n      add\n        /* \"contracts/Proposals.sol\":5687:5690  0x0 */\n      0x00\n        /* \"contracts/Proposals.sol\":5242:5776  Proposal({... */\n      0xffffffffffffffffffffffffffffffffffffffff\n      and\n      dup2\n      mstore\n      0x20\n      add\n        /* \"contracts/Proposals.sol\":5610:5622  ramdomNumber */\n      sload(0x00)\n        /* \"contracts/Proposals.sol\":5242:5776  Proposal({... */\n      dup2\n      mstore\n      0x20\n      add\n        /* \"contracts/Proposals.sol\":5652:5653  0 */\n      0x00\n        /* \"contracts/Proposals.sol\":5242:5776  Proposal({... */\n      dup2\n      mstore\n      0x20\n      add\n        /* \"contracts/Proposals.sol\":5718:5726  agreeors */\n      dup5\n        /* \"contracts/Proposals.sol\":5242:5776  Proposal({... */\n      dup2\n      mstore\n      0x20\n      add\n        /* \"contracts/Proposals.sol\":5755:5764  rejectors */\n      dup4\n        /* \"contracts/Proposals.sol\":5242:5776  Proposal({... */\n      dup2\n      mstore\n      pop\n        /* \"contracts/Proposals.sol\":5217:5776  Proposal memory proposal=Proposal({... */\n      swap1\n      pop\n        /* \"contracts/Proposals.sol\":5787:5796  proposals */\n      0x09\n        /* \"contracts/Proposals.sol\":5802:5810  proposal */\n      dup2\n        /* \"contracts/Proposals.sol\":5787:5811  proposals.push(proposal) */\n      swap1\n      dup1\n      0x01\n      dup2\n      sload\n      add\n      dup1\n      dup3\n      sstore\n      dup1\n      swap2\n      pop\n      pop\n      0x01\n      swap1\n      sub\n      swap1\n      0x00\n      mstore\n      keccak256(0x00, 0x20)\n      swap1\n      0x0c\n      mul\n      add\n      0x00\n      swap1\n      swap2\n      swap1\n      swap2\n      swap1\n      swap2\n      pop\n      0x00\n      dup3\n      add\n      mload\n      dup2\n      0x00\n      add\n      sstore\n      0x20\n      dup3\n      add\n      mload\n      dup2\n      0x01\n      add\n      exp(0x0100, 0x00)\n      dup2\n      sload\n      dup2\n      0xffffffffffffffffffffffffffffffffffffffff\n      mul\n      not\n      and\n      swap1\n      dup4\n      0xffffffffffffffffffffffffffffffffffffffff\n      and\n      mul\n      or\n      swap1\n      sstore\n      pop\n      0x40\n      dup3\n      add\n      mload\n      dup2\n      0x02\n      add\n      sstore\n      0x60\n      dup3\n      add\n      mload\n      dup2\n      0x03\n      add\n      exp(0x0100, 0x00)\n      dup2\n      sload\n      dup2\n      0xffffffffffffffffffffffffffffffffffffffff\n      mul\n      not\n      and\n      swap1\n      dup4\n      0xffffffffffffffffffffffffffffffffffffffff\n      and\n      mul\n      or\n      swap1\n      sstore\n      pop\n      0x80\n      dup3\n      add\n      mload\n      dup2\n      0x04\n      add\n      sstore\n      0xa0\n      dup3\n      add\n      mload\n      dup2\n      0x05\n      add\n      sstore\n      0xc0\n      dup3\n      add\n      mload\n      dup2\n      0x06\n      add\n      sstore\n      0xe0\n      dup3\n      add\n      mload\n      dup2\n      0x07\n      add\n      exp(0x0100, 0x00)\n      dup2\n      sload\n      dup2\n      0xff\n      mul\n      not\n      and\n      swap1\n      dup4\n      0x09\n      dup2\n      gt\n      iszero\n      tag_285\n      jumpi\n      tag_286\n      tag_120\n      jump\t// in\n    tag_286:\n    tag_285:\n      mul\n      or\n      swap1\n      sstore\n      pop\n      0x0100\n      dup3\n      add\n      mload\n      dup2\n      0x07\n      add\n      exp(0x0100, 0x01)\n      dup2\n      sload\n      dup2\n      0xffffffffffffffffffffffffffffffffffffffff\n      mul\n      not\n      and\n      swap1\n      dup4\n      0xffffffffffffffffffffffffffffffffffffffff\n      and\n      mul\n      or\n      swap1\n      sstore\n      pop\n      0x0120\n      dup3\n      add\n      mload\n      dup2\n      0x08\n      add\n      sstore\n      0x0140\n      dup3\n      add\n      mload\n      dup2\n      0x09\n      add\n      sstore\n      0x0160\n      dup3\n      add\n      mload\n      dup2\n      0x0a\n      add\n      swap1\n      dup1\n      mload\n      swap1\n      0x20\n      add\n      swap1\n      tag_287\n      swap3\n      swap2\n      swap1\n      tag_223\n      jump\t// in\n    tag_287:\n      pop\n      0x0180\n      dup3\n      add\n      mload\n      dup2\n      0x0b\n      add\n      swap1\n      dup1\n      mload\n      swap1\n      0x20\n      add\n      swap1\n      tag_288\n      swap3\n      swap2\n      swap1\n      tag_223\n      jump\t// in\n    tag_288:\n      pop\n      pop\n      pop\n        /* \"contracts/Proposals.sol\":5861:5873  proposalsLen */\n      dup4\n        /* \"contracts/Proposals.sol\":5822:5835  proposalTable */\n      0x07\n        /* \"contracts/Proposals.sol\":5822:5848  proposalTable[_nftAddress] */\n      0x00\n        /* \"contracts/Proposals.sol\":5836:5847  _nftAddress */\n      dup12\n        /* \"contracts/Proposals.sol\":5822:5848  proposalTable[_nftAddress] */\n      0xffffffffffffffffffffffffffffffffffffffff\n      and\n      0xffffffffffffffffffffffffffffffffffffffff\n      and\n      dup2\n      mstore\n      0x20\n      add\n      swap1\n      dup2\n      mstore\n      0x20\n      add\n      0x00\n      keccak256\n        /* \"contracts/Proposals.sol\":5822:5858  proposalTable[_nftAddress][_tokenId] */\n      0x00\n        /* \"contracts/Proposals.sol\":5849:5857  _tokenId */\n      dup11\n        /* \"contracts/Proposals.sol\":5822:5858  proposalTable[_nftAddress][_tokenId] */\n      dup2\n      mstore\n      0x20\n      add\n      swap1\n      dup2\n      mstore\n      0x20\n      add\n      0x00\n      keccak256\n        /* \"contracts/Proposals.sol\":5822:5873  proposalTable[_nftAddress][_tokenId] = proposalsLen */\n      dup2\n      swap1\n      sstore\n      pop\n        /* \"contracts/Proposals.sol\":5884:5902  proposalLinkedList */\n      0x02\n      0x00\n      swap1\n      sload\n      swap1\n      0x0100\n      exp\n      swap1\n      div\n      0xffffffffffffffffffffffffffffffffffffffff\n      and\n        /* \"contracts/Proposals.sol\":5884:5911  proposalLinkedList.increate */\n      0xffffffffffffffffffffffffffffffffffffffff\n      and\n      0xfb470df2\n        /* \"contracts/Proposals.sol\":5912:5924  proposalsLen */\n      dup6\n        /* \"contracts/Proposals.sol\":5938:5939  1 */\n      0x01\n        /* \"contracts/Proposals.sol\":5925:5937  proposalsLen */\n      dup8\n        /* \"contracts/Proposals.sol\":5925:5939  proposalsLen-1 */\n      tag_289\n      swap2\n      swap1\n      tag_226\n      jump\t// in\n    tag_289:\n        /* \"contracts/Proposals.sol\":5884:5940  proposalLinkedList.increate(proposalsLen,proposalsLen-1) */\n      mload(0x40)\n      dup4\n      0xffffffff\n      and\n      0xe0\n      shl\n      dup2\n      mstore\n      0x04\n      add\n      tag_290\n      swap3\n      swap2\n      swap1\n      tag_228\n      jump\t// in\n    tag_290:\n      0x00\n      mload(0x40)\n      dup1\n      dup4\n      sub\n      dup2\n      0x00\n      dup8\n      dup1\n      extcodesize\n      iszero\n      dup1\n      iszero\n      tag_291\n      jumpi\n      0x00\n      dup1\n      revert\n    tag_291:\n      pop\n      gas\n      call\n      iszero\n      dup1\n      iszero\n      tag_293\n      jumpi\n      returndatasize\n      0x00\n      dup1\n      returndatacopy\n      revert(0x00, returndatasize)\n    tag_293:\n      pop\n      pop\n      pop\n      pop\n        /* \"contracts/Proposals.sol\":4977:5971  {... */\n      pop\n      pop\n      pop\n      pop\n      pop\n        /* \"contracts/Proposals.sol\":4843:5971  function createP2PProposal(address _nftAddress,... */\n      pop\n      pop\n      pop\n      pop\n      jump\t// out\n        /* \"contracts/Proposals.sol\":485:504  IERC20 public token */\n    tag_104:\n      0x01\n      0x00\n      swap1\n      sload\n      swap1\n      0x0100\n      exp\n      swap1\n      div\n      0xffffffffffffffffffffffffffffffffffffffff\n      and\n      dup2\n      jump\t// out\n        /* \"contracts/Proposals.sol\":5979:6435  function revokeP2PProposal(uint256 _proposalId) external {... */\n    tag_109:\n        /* \"contracts/Proposals.sol\":6047:6072  Proposal storage proposal */\n      0x00\n        /* \"contracts/Proposals.sol\":6075:6084  proposals */\n      0x09\n        /* \"contracts/Proposals.sol\":6085:6096  _proposalId */\n      dup3\n        /* \"contracts/Proposals.sol\":6075:6097  proposals[_proposalId] */\n      dup2\n      sload\n      dup2\n      lt\n      tag_295\n      jumpi\n      tag_296\n      tag_115\n      jump\t// in\n    tag_296:\n    tag_295:\n      swap1\n      0x00\n      mstore\n      keccak256(0x00, 0x20)\n      swap1\n      0x0c\n      mul\n      add\n        /* \"contracts/Proposals.sol\":6047:6097  Proposal storage proposal = proposals[_proposalId] */\n      swap1\n      pop\n        /* \"contracts/Proposals.sol\":6108:6129  ProposalStatus status */\n      0x00\n        /* \"contracts/Proposals.sol\":6131:6139  proposal */\n      dup2\n        /* \"contracts/Proposals.sol\":6131:6146  proposal.status */\n      0x07\n      add\n      0x00\n      swap1\n      sload\n      swap1\n      0x0100\n      exp\n      swap1\n      div\n      0xff\n      and\n        /* \"contracts/Proposals.sol\":6108:6146  ProposalStatus status= proposal.status */\n      swap1\n      pop\n        /* \"contracts/Proposals.sol\":6175:6198  ProposalStatus.P2P_INIT */\n      0x06\n        /* \"contracts/Proposals.sol\":6165:6198  status == ProposalStatus.P2P_INIT */\n      0x09\n      dup2\n      gt\n      iszero\n      tag_298\n      jumpi\n      tag_299\n      tag_120\n      jump\t// in\n    tag_299:\n    tag_298:\n        /* \"contracts/Proposals.sol\":6165:6171  status */\n      dup2\n        /* \"contracts/Proposals.sol\":6165:6198  status == ProposalStatus.P2P_INIT */\n      0x09\n      dup2\n      gt\n      iszero\n      tag_300\n      jumpi\n      tag_301\n      tag_120\n      jump\t// in\n    tag_301:\n    tag_300:\n      eq\n        /* \"contracts/Proposals.sol\":6157:6199  require(status == ProposalStatus.P2P_INIT) */\n      tag_302\n      jumpi\n      0x00\n      dup1\n      revert\n    tag_302:\n        /* \"contracts/Proposals.sol\":6210:6228  proposalLinkedList */\n      0x02\n      0x00\n      swap1\n      sload\n      swap1\n      0x0100\n      exp\n      swap1\n      div\n      0xffffffffffffffffffffffffffffffffffffffff\n      and\n        /* \"contracts/Proposals.sol\":6210:6235  proposalLinkedList.remove */\n      0xffffffffffffffffffffffffffffffffffffffff\n      and\n      0x4cc82215\n        /* \"contracts/Proposals.sol\":6236:6247  _proposalId */\n      dup5\n        /* \"contracts/Proposals.sol\":6210:6248  proposalLinkedList.remove(_proposalId) */\n      mload(0x40)\n      dup3\n      0xffffffff\n      and\n      0xe0\n      shl\n      dup2\n      mstore\n      0x04\n      add\n      tag_303\n      swap2\n      swap1\n      tag_45\n      jump\t// in\n    tag_303:\n      0x00\n      mload(0x40)\n      dup1\n      dup4\n      sub\n      dup2\n      0x00\n      dup8\n      dup1\n      extcodesize\n      iszero\n      dup1\n      iszero\n      tag_304\n      jumpi\n      0x00\n      dup1\n      revert\n    tag_304:\n      pop\n      gas\n      call\n      iszero\n      dup1\n      iszero\n      tag_306\n      jumpi\n      returndatasize\n      0x00\n      dup1\n      returndatacopy\n      revert(0x00, returndatasize)\n    tag_306:\n      pop\n      pop\n      pop\n      pop\n        /* \"contracts/Proposals.sol\":6267:6275  proposal */\n      dup2\n        /* \"contracts/Proposals.sol\":6267:6286  proposal.nftAddress */\n      0x01\n      add\n      0x00\n      swap1\n      sload\n      swap1\n      0x0100\n      exp\n      swap1\n      div\n      0xffffffffffffffffffffffffffffffffffffffff\n      and\n        /* \"contracts/Proposals.sol\":6259:6300  IERC721(proposal.nftAddress).transferFrom */\n      0xffffffffffffffffffffffffffffffffffffffff\n      and\n      0x23b872dd\n        /* \"contracts/Proposals.sol\":6309:6313  this */\n      address\n        /* \"contracts/Proposals.sol\":6316:6324  proposal */\n      dup5\n        /* \"contracts/Proposals.sol\":6316:6333  proposal.borrower */\n      0x03\n      add\n      0x00\n      swap1\n      sload\n      swap1\n      0x0100\n      exp\n      swap1\n      div\n      0xffffffffffffffffffffffffffffffffffffffff\n      and\n        /* \"contracts/Proposals.sol\":6335:6343  proposal */\n      dup6\n        /* \"contracts/Proposals.sol\":6335:6351  proposal.tokenId */\n      0x02\n      add\n      sload\n        /* \"contracts/Proposals.sol\":6259:6352  IERC721(proposal.nftAddress).transferFrom(address(this), proposal.borrower, proposal.tokenId) */\n      mload(0x40)\n      dup5\n      0xffffffff\n      and\n      0xe0\n      shl\n      dup2\n      mstore\n      0x04\n      add\n      tag_307\n      swap4\n      swap3\n      swap2\n      swap1\n      tag_161\n      jump\t// in\n    tag_307:\n      0x00\n      mload(0x40)\n      dup1\n      dup4\n      sub\n      dup2\n      0x00\n      dup8\n      dup1\n      extcodesize\n      iszero\n      dup1\n      iszero\n      tag_308\n      jumpi\n      0x00\n      dup1\n      revert\n    tag_308:\n      pop\n      gas\n      call\n      iszero\n      dup1\n      iszero\n      tag_310\n      jumpi\n      returndatasize\n      0x00\n      dup1\n      returndatacopy\n      revert(0x00, returndatasize)\n    tag_310:\n      pop\n      pop\n      pop\n      pop\n        /* \"contracts/Proposals.sol\":6379:6404  ProposalStatus.P2P_CANCEL */\n      0x07\n        /* \"contracts/Proposals.sol\":6363:6371  proposal */\n      dup3\n        /* \"contracts/Proposals.sol\":6363:6378  proposal.status */\n      0x07\n      add\n      0x00\n        /* \"contracts/Proposals.sol\":6363:6404  proposal.status=ProposalStatus.P2P_CANCEL */\n      0x0100\n      exp\n      dup2\n      sload\n      dup2\n      0xff\n      mul\n      not\n      and\n      swap1\n      dup4\n      0x09\n      dup2\n      gt\n      iszero\n      tag_311\n      jumpi\n      tag_312\n      tag_120\n      jump\t// in\n    tag_312:\n    tag_311:\n      mul\n      or\n      swap1\n      sstore\n      pop\n        /* \"contracts/Proposals.sol\":6036:6435  {... */\n      pop\n      pop\n        /* \"contracts/Proposals.sol\":5979:6435  function revokeP2PProposal(uint256 _proposalId) external {... */\n      pop\n      jump\t// out\n        /* \"contracts/Proposals.sol\":9289:9633  function _pay(Proposal storage proposal,address toAddress)private{... */\n    tag_125:\n        /* \"contracts/Proposals.sol\":9365:9386  uint256 needPayAmount */\n      0x00\n        /* \"contracts/Proposals.sol\":9387:9430  payAmount(proposal.price,proposal.loanTime) */\n      tag_314\n        /* \"contracts/Proposals.sol\":9397:9405  proposal */\n      dup4\n        /* \"contracts/Proposals.sol\":9397:9411  proposal.price */\n      0x05\n      add\n      sload\n        /* \"contracts/Proposals.sol\":9412:9420  proposal */\n      dup5\n        /* \"contracts/Proposals.sol\":9412:9429  proposal.loanTime */\n      0x06\n      add\n      sload\n        /* \"contracts/Proposals.sol\":9387:9396  payAmount */\n      tag_53\n        /* \"contracts/Proposals.sol\":9387:9430  payAmount(proposal.price,proposal.loanTime) */\n      jump\t// in\n    tag_314:\n        /* \"contracts/Proposals.sol\":9365:9430  uint256 needPayAmount=payAmount(proposal.price,proposal.loanTime) */\n      swap1\n      pop\n        /* \"contracts/Proposals.sol\":9441:9446  token */\n      0x01\n      0x00\n      swap1\n      sload\n      swap1\n      0x0100\n      exp\n      swap1\n      div\n      0xffffffffffffffffffffffffffffffffffffffff\n      and\n        /* \"contracts/Proposals.sol\":9441:9459  token.transferFrom */\n      0xffffffffffffffffffffffffffffffffffffffff\n      and\n      0x23b872dd\n        /* \"contracts/Proposals.sol\":9460:9470  msg.sender */\n      caller\n        /* \"contracts/Proposals.sol\":9472:9481  toAddress */\n      dup5\n        /* \"contracts/Proposals.sol\":9482:9495  needPayAmount */\n      dup5\n        /* \"contracts/Proposals.sol\":9441:9496  token.transferFrom(msg.sender, toAddress,needPayAmount) */\n      mload(0x40)\n      dup5\n      0xffffffff\n      and\n      0xe0\n      shl\n      dup2\n      mstore\n      0x04\n      add\n      tag_315\n      swap4\n      swap3\n      swap2\n      swap1\n      tag_161\n      jump\t// in\n    tag_315:\n      0x20\n      mload(0x40)\n      dup1\n      dup4\n      sub\n      dup2\n      0x00\n      dup8\n      gas\n      call\n      iszero\n      dup1\n      iszero\n      tag_317\n      jumpi\n      returndatasize\n      0x00\n      dup1\n      returndatacopy\n      revert(0x00, returndatasize)\n    tag_317:\n      pop\n      pop\n      pop\n      pop\n      mload(0x40)\n      returndatasize\n      not(0x1f)\n      0x1f\n      dup3\n      add\n      and\n      dup3\n      add\n      dup1\n      0x40\n      mstore\n      pop\n      dup2\n      add\n      swap1\n      tag_318\n      swap2\n      swap1\n      tag_207\n      jump\t// in\n    tag_318:\n      pop\n        /* \"contracts/Proposals.sol\":9550:9558  proposal */\n      dup3\n        /* \"contracts/Proposals.sol\":9550:9569  proposal.nftAddress */\n      0x01\n      add\n      0x00\n      swap1\n      sload\n      swap1\n      0x0100\n      exp\n      swap1\n      div\n      0xffffffffffffffffffffffffffffffffffffffff\n      and\n        /* \"contracts/Proposals.sol\":9542:9583  IERC721(proposal.nftAddress).transferFrom */\n      0xffffffffffffffffffffffffffffffffffffffff\n      and\n      0x23b872dd\n        /* \"contracts/Proposals.sol\":9592:9596  this */\n      address\n        /* \"contracts/Proposals.sol\":9598:9608  msg.sender */\n      caller\n        /* \"contracts/Proposals.sol\":9609:9617  proposal */\n      dup7\n        /* \"contracts/Proposals.sol\":9609:9625  proposal.tokenId */\n      0x02\n      add\n      sload\n        /* \"contracts/Proposals.sol\":9542:9626  IERC721(proposal.nftAddress).transferFrom(address(this),msg.sender,proposal.tokenId) */\n      mload(0x40)\n      dup5\n      0xffffffff\n      and\n      0xe0\n      shl\n      dup2\n      mstore\n      0x04\n      add\n      tag_319\n      swap4\n      swap3\n      swap2\n      swap1\n      tag_161\n      jump\t// in\n    tag_319:\n      0x00\n      mload(0x40)\n      dup1\n      dup4\n      sub\n      dup2\n      0x00\n      dup8\n      dup1\n      extcodesize\n      iszero\n      dup1\n      iszero\n      tag_320\n      jumpi\n      0x00\n      dup1\n      revert\n    tag_320:\n      pop\n      gas\n      call\n      iszero\n      dup1\n      iszero\n      tag_322\n      jumpi\n      returndatasize\n      0x00\n      dup1\n      returndatacopy\n      revert(0x00, returndatasize)\n    tag_322:\n      pop\n      pop\n      pop\n      pop\n        /* \"contracts/Proposals.sol\":9354:9633  {... */\n      pop\n        /* \"contracts/Proposals.sol\":9289:9633  function _pay(Proposal storage proposal,address toAddress)private{... */\n      pop\n      pop\n      jump\t// out\n        /* \"@openzeppelin/contracts/utils/cryptography/SignatureChecker.sol\":1039:1706  function isValidSignatureNow(... */\n    tag_182:\n        /* \"@openzeppelin/contracts/utils/cryptography/SignatureChecker.sol\":1175:1179  bool */\n      0x00\n        /* \"@openzeppelin/contracts/utils/cryptography/SignatureChecker.sol\":1192:1209  address recovered */\n      dup1\n        /* \"@openzeppelin/contracts/utils/cryptography/SignatureChecker.sol\":1211:1235  ECDSA.RecoverError error */\n      0x00\n        /* \"@openzeppelin/contracts/utils/cryptography/SignatureChecker.sol\":1239:1272  ECDSA.tryRecover(hash, signature) */\n      tag_324\n        /* \"@openzeppelin/contracts/utils/cryptography/SignatureChecker.sol\":1256:1260  hash */\n      dup6\n        /* \"@openzeppelin/contracts/utils/cryptography/SignatureChecker.sol\":1262:1271  signature */\n      dup6\n        /* \"@openzeppelin/contracts/utils/cryptography/SignatureChecker.sol\":1239:1255  ECDSA.tryRecover */\n      tag_325\n        /* \"@openzeppelin/contracts/utils/cryptography/SignatureChecker.sol\":1239:1272  ECDSA.tryRecover(hash, signature) */\n      jump\t// in\n    tag_324:\n        /* \"@openzeppelin/contracts/utils/cryptography/SignatureChecker.sol\":1191:1272  (address recovered, ECDSA.RecoverError error) = ECDSA.tryRecover(hash, signature) */\n      swap2\n      pop\n      swap2\n      pop\n        /* \"@openzeppelin/contracts/utils/cryptography/SignatureChecker.sol\":1295:1321  ECDSA.RecoverError.NoError */\n      0x00\n        /* \"@openzeppelin/contracts/utils/cryptography/SignatureChecker.sol\":1286:1321  error == ECDSA.RecoverError.NoError */\n      0x04\n      dup2\n      gt\n      iszero\n      tag_326\n      jumpi\n      tag_327\n      tag_120\n      jump\t// in\n    tag_327:\n    tag_326:\n        /* \"@openzeppelin/contracts/utils/cryptography/SignatureChecker.sol\":1286:1291  error */\n      dup2\n        /* \"@openzeppelin/contracts/utils/cryptography/SignatureChecker.sol\":1286:1321  error == ECDSA.RecoverError.NoError */\n      0x04\n      dup2\n      gt\n      iszero\n      tag_328\n      jumpi\n      tag_329\n      tag_120\n      jump\t// in\n    tag_329:\n    tag_328:\n      eq\n        /* \"@openzeppelin/contracts/utils/cryptography/SignatureChecker.sol\":1286:1344  error == ECDSA.RecoverError.NoError && recovered == signer */\n      dup1\n      iszero\n      tag_330\n      jumpi\n      pop\n        /* \"@openzeppelin/contracts/utils/cryptography/SignatureChecker.sol\":1338:1344  signer */\n      dup6\n        /* \"@openzeppelin/contracts/utils/cryptography/SignatureChecker.sol\":1325:1344  recovered == signer */\n      0xffffffffffffffffffffffffffffffffffffffff\n      and\n        /* \"@openzeppelin/contracts/utils/cryptography/SignatureChecker.sol\":1325:1334  recovered */\n      dup3\n        /* \"@openzeppelin/contracts/utils/cryptography/SignatureChecker.sol\":1325:1344  recovered == signer */\n      0xffffffffffffffffffffffffffffffffffffffff\n      and\n      eq\n        /* \"@openzeppelin/contracts/utils/cryptography/SignatureChecker.sol\":1286:1344  error == ECDSA.RecoverError.NoError && recovered == signer */\n    tag_330:\n        /* \"@openzeppelin/contracts/utils/cryptography/SignatureChecker.sol\":1282:1382  if (error == ECDSA.RecoverError.NoError && recovered == signer) {... */\n      iszero\n      tag_331\n      jumpi\n        /* \"@openzeppelin/contracts/utils/cryptography/SignatureChecker.sol\":1367:1371  true */\n      0x01\n        /* \"@openzeppelin/contracts/utils/cryptography/SignatureChecker.sol\":1360:1371  return true */\n      swap3\n      pop\n      pop\n      pop\n      jump(tag_323)\n        /* \"@openzeppelin/contracts/utils/cryptography/SignatureChecker.sol\":1282:1382  if (error == ECDSA.RecoverError.NoError && recovered == signer) {... */\n    tag_331:\n        /* \"@openzeppelin/contracts/utils/cryptography/SignatureChecker.sol\":1393:1405  bool success */\n      0x00\n        /* \"@openzeppelin/contracts/utils/cryptography/SignatureChecker.sol\":1407:1426  bytes memory result */\n      dup1\n        /* \"@openzeppelin/contracts/utils/cryptography/SignatureChecker.sol\":1430:1436  signer */\n      dup8\n        /* \"@openzeppelin/contracts/utils/cryptography/SignatureChecker.sol\":1430:1447  signer.staticcall */\n      0xffffffffffffffffffffffffffffffffffffffff\n      and\n        /* \"@openzeppelin/contracts/utils/cryptography/SignatureChecker.sol\":1484:1518  IERC1271.isValidSignature.selector */\n      shl(0xe0, 0x1626ba7e)\n        /* \"@openzeppelin/contracts/utils/cryptography/SignatureChecker.sol\":1520:1524  hash */\n      dup9\n        /* \"@openzeppelin/contracts/utils/cryptography/SignatureChecker.sol\":1526:1535  signature */\n      dup9\n        /* \"@openzeppelin/contracts/utils/cryptography/SignatureChecker.sol\":1461:1536  abi.encodeWithSelector(IERC1271.isValidSignature.selector, hash, signature) */\n      add(0x24, mload(0x40))\n      tag_332\n      swap3\n      swap2\n      swap1\n      tag_333\n      jump\t// in\n    tag_332:\n      mload(0x40)\n      0x20\n      dup2\n      dup4\n      sub\n      sub\n      dup2\n      mstore\n      swap1\n      0x40\n      mstore\n      swap1\n      not(0xffffffffffffffffffffffffffffffffffffffffffffffffffffffff)\n      and\n      0x20\n      dup3\n      add\n      dup1\n      mload\n      0xffffffffffffffffffffffffffffffffffffffffffffffffffffffff\n      dup4\n      dup2\n      dup4\n      and\n      or\n      dup4\n      mstore\n      pop\n      pop\n      pop\n      pop\n        /* \"@openzeppelin/contracts/utils/cryptography/SignatureChecker.sol\":1430:1546  signer.staticcall(... */\n      mload(0x40)\n      tag_334\n      swap2\n      swap1\n      tag_335\n      jump\t// in\n    tag_334:\n      0x00\n      mload(0x40)\n      dup1\n      dup4\n      sub\n      dup2\n      dup6\n      gas\n      staticcall\n      swap2\n      pop\n      pop\n      returndatasize\n      dup1\n      0x00\n      dup2\n      eq\n      tag_338\n      jumpi\n      mload(0x40)\n      swap2\n      pop\n      and(add(returndatasize, 0x3f), not(0x1f))\n      dup3\n      add\n      0x40\n      mstore\n      returndatasize\n      dup3\n      mstore\n      returndatasize\n      0x00\n      0x20\n      dup5\n      add\n      returndatacopy\n      jump(tag_337)\n    tag_338:\n      0x60\n      swap2\n      pop\n    tag_337:\n      pop\n        /* \"@openzeppelin/contracts/utils/cryptography/SignatureChecker.sol\":1392:1546  (bool success, bytes memory result) = signer.staticcall(... */\n      swap2\n      pop\n      swap2\n      pop\n        /* \"@openzeppelin/contracts/utils/cryptography/SignatureChecker.sol\":1564:1571  success */\n      dup2\n        /* \"@openzeppelin/contracts/utils/cryptography/SignatureChecker.sol\":1564:1606  success &&... */\n      dup1\n      iszero\n      tag_339\n      jumpi\n      pop\n        /* \"@openzeppelin/contracts/utils/cryptography/SignatureChecker.sol\":1604:1606  32 */\n      0x20\n        /* \"@openzeppelin/contracts/utils/cryptography/SignatureChecker.sol\":1587:1593  result */\n      dup2\n        /* \"@openzeppelin/contracts/utils/cryptography/SignatureChecker.sol\":1587:1600  result.length */\n      mload\n        /* \"@openzeppelin/contracts/utils/cryptography/SignatureChecker.sol\":1587:1606  result.length == 32 */\n      eq\n        /* \"@openzeppelin/contracts/utils/cryptography/SignatureChecker.sol\":1564:1606  success &&... */\n    tag_339:\n        /* \"@openzeppelin/contracts/utils/cryptography/SignatureChecker.sol\":1564:1698  success &&... */\n      dup1\n      iszero\n      tag_340\n      jumpi\n      pop\n        /* \"@openzeppelin/contracts/utils/cryptography/SignatureChecker.sol\":1663:1697  IERC1271.isValidSignature.selector */\n      shl(0xe0, 0x1626ba7e)\n        /* \"@openzeppelin/contracts/utils/cryptography/SignatureChecker.sol\":1655:1698  bytes32(IERC1271.isValidSignature.selector) */\n      not(0xffffffffffffffffffffffffffffffffffffffffffffffffffffffff)\n      and\n        /* \"@openzeppelin/contracts/utils/cryptography/SignatureChecker.sol\":1633:1639  result */\n      dup2\n        /* \"@openzeppelin/contracts/utils/cryptography/SignatureChecker.sol\":1622:1651  abi.decode(result, (bytes32)) */\n      dup1\n      0x20\n      add\n      swap1\n      mload\n      dup2\n      add\n      swap1\n      tag_341\n      swap2\n      swap1\n      tag_342\n      jump\t// in\n    tag_341:\n        /* \"@openzeppelin/contracts/utils/cryptography/SignatureChecker.sol\":1622:1698  abi.decode(result, (bytes32)) == bytes32(IERC1271.isValidSignature.selector) */\n      eq\n        /* \"@openzeppelin/contracts/utils/cryptography/SignatureChecker.sol\":1564:1698  success &&... */\n    tag_340:\n        /* \"@openzeppelin/contracts/utils/cryptography/SignatureChecker.sol\":1556:1699  return (success &&... */\n      swap5\n      pop\n      pop\n      pop\n      pop\n      pop\n        /* \"@openzeppelin/contracts/utils/cryptography/SignatureChecker.sol\":1039:1706  function isValidSignatureNow(... */\n    tag_323:\n      swap4\n      swap3\n      pop\n      pop\n      pop\n      jump\t// out\n        /* \"@openzeppelin/contracts/utils/cryptography/ECDSA.sol\":2145:2875  function tryRecover(bytes32 hash, bytes memory signature) internal pure returns (address, RecoverError) {... */\n    tag_325:\n        /* \"@openzeppelin/contracts/utils/cryptography/ECDSA.sol\":2226:2233  address */\n      0x00\n        /* \"@openzeppelin/contracts/utils/cryptography/ECDSA.sol\":2235:2247  RecoverError */\n      dup1\n        /* \"@openzeppelin/contracts/utils/cryptography/ECDSA.sol\":2283:2285  65 */\n      0x41\n        /* \"@openzeppelin/contracts/utils/cryptography/ECDSA.sol\":2263:2272  signature */\n      dup4\n        /* \"@openzeppelin/contracts/utils/cryptography/ECDSA.sol\":2263:2279  signature.length */\n      mload\n        /* \"@openzeppelin/contracts/utils/cryptography/ECDSA.sol\":2263:2285  signature.length == 65 */\n      sub\n        /* \"@openzeppelin/contracts/utils/cryptography/ECDSA.sol\":2259:2869  if (signature.length == 65) {... */\n      tag_344\n      jumpi\n        /* \"@openzeppelin/contracts/utils/cryptography/ECDSA.sol\":2301:2310  bytes32 r */\n      0x00\n        /* \"@openzeppelin/contracts/utils/cryptography/ECDSA.sol\":2324:2333  bytes32 s */\n      dup1\n        /* \"@openzeppelin/contracts/utils/cryptography/ECDSA.sol\":2347:2354  uint8 v */\n      0x00\n        /* \"@openzeppelin/contracts/utils/cryptography/ECDSA.sol\":2599:2603  0x20 */\n      0x20\n        /* \"@openzeppelin/contracts/utils/cryptography/ECDSA.sol\":2588:2597  signature */\n      dup7\n        /* \"@openzeppelin/contracts/utils/cryptography/ECDSA.sol\":2584:2604  add(signature, 0x20) */\n      add\n        /* \"@openzeppelin/contracts/utils/cryptography/ECDSA.sol\":2578:2605  mload(add(signature, 0x20)) */\n      mload\n        /* \"@openzeppelin/contracts/utils/cryptography/ECDSA.sol\":2573:2605  r := mload(add(signature, 0x20)) */\n      swap3\n      pop\n        /* \"@openzeppelin/contracts/utils/cryptography/ECDSA.sol\":2648:2652  0x40 */\n      0x40\n        /* \"@openzeppelin/contracts/utils/cryptography/ECDSA.sol\":2637:2646  signature */\n      dup7\n        /* \"@openzeppelin/contracts/utils/cryptography/ECDSA.sol\":2633:2653  add(signature, 0x40) */\n      add\n        /* \"@openzeppelin/contracts/utils/cryptography/ECDSA.sol\":2627:2654  mload(add(signature, 0x40)) */\n      mload\n        /* \"@openzeppelin/contracts/utils/cryptography/ECDSA.sol\":2622:2654  s := mload(add(signature, 0x40)) */\n      swap2\n      pop\n        /* \"@openzeppelin/contracts/utils/cryptography/ECDSA.sol\":2705:2709  0x60 */\n      0x60\n        /* \"@openzeppelin/contracts/utils/cryptography/ECDSA.sol\":2694:2703  signature */\n      dup7\n        /* \"@openzeppelin/contracts/utils/cryptography/ECDSA.sol\":2690:2710  add(signature, 0x60) */\n      add\n        /* \"@openzeppelin/contracts/utils/cryptography/ECDSA.sol\":2684:2711  mload(add(signature, 0x60)) */\n      mload\n        /* \"@openzeppelin/contracts/utils/cryptography/ECDSA.sol\":2681:2682  0 */\n      0x00\n        /* \"@openzeppelin/contracts/utils/cryptography/ECDSA.sol\":2676:2712  byte(0, mload(add(signature, 0x60))) */\n      byte\n        /* \"@openzeppelin/contracts/utils/cryptography/ECDSA.sol\":2671:2712  v := byte(0, mload(add(signature, 0x60))) */\n      swap1\n      pop\n        /* \"@openzeppelin/contracts/utils/cryptography/ECDSA.sol\":2746:2771  tryRecover(hash, v, r, s) */\n      tag_345\n        /* \"@openzeppelin/contracts/utils/cryptography/ECDSA.sol\":2757:2761  hash */\n      dup8\n        /* \"@openzeppelin/contracts/utils/cryptography/ECDSA.sol\":2763:2764  v */\n      dup3\n        /* \"@openzeppelin/contracts/utils/cryptography/ECDSA.sol\":2766:2767  r */\n      dup6\n        /* \"@openzeppelin/contracts/utils/cryptography/ECDSA.sol\":2769:2770  s */\n      dup6\n        /* \"@openzeppelin/contracts/utils/cryptography/ECDSA.sol\":2746:2756  tryRecover */\n      tag_346\n        /* \"@openzeppelin/contracts/utils/cryptography/ECDSA.sol\":2746:2771  tryRecover(hash, v, r, s) */\n      jump\t// in\n    tag_345:\n        /* \"@openzeppelin/contracts/utils/cryptography/ECDSA.sol\":2739:2771  return tryRecover(hash, v, r, s) */\n      swap5\n      pop\n      swap5\n      pop\n      pop\n      pop\n      pop\n      jump(tag_343)\n        /* \"@openzeppelin/contracts/utils/cryptography/ECDSA.sol\":2259:2869  if (signature.length == 65) {... */\n    tag_344:\n        /* \"@openzeppelin/contracts/utils/cryptography/ECDSA.sol\":2818:2819  0 */\n      0x00\n        /* \"@openzeppelin/contracts/utils/cryptography/ECDSA.sol\":2822:2857  RecoverError.InvalidSignatureLength */\n      0x02\n        /* \"@openzeppelin/contracts/utils/cryptography/ECDSA.sol\":2802:2858  return (address(0), RecoverError.InvalidSignatureLength) */\n      swap2\n      pop\n      swap2\n      pop\n        /* \"@openzeppelin/contracts/utils/cryptography/ECDSA.sol\":2145:2875  function tryRecover(bytes32 hash, bytes memory signature) internal pure returns (address, RecoverError) {... */\n    tag_343:\n      swap3\n      pop\n      swap3\n      swap1\n      pop\n      jump\t// out\n        /* \"@openzeppelin/contracts/utils/cryptography/ECDSA.sol\":5069:6563  function tryRecover(... */\n    tag_346:\n        /* \"@openzeppelin/contracts/utils/cryptography/ECDSA.sol\":5195:5202  address */\n      0x00\n        /* \"@openzeppelin/contracts/utils/cryptography/ECDSA.sol\":5204:5216  RecoverError */\n      dup1\n        /* \"@openzeppelin/contracts/utils/cryptography/ECDSA.sol\":6119:6185  0x7FFFFFFFFFFFFFFFFFFFFFFFFFFFFFFF5D576E7357A4501DDFE92F46681B20A0 */\n      0x7fffffffffffffffffffffffffffffff5d576e7357a4501ddfe92f46681b20a0\n        /* \"@openzeppelin/contracts/utils/cryptography/ECDSA.sol\":6114:6115  s */\n      dup4\n        /* \"@openzeppelin/contracts/utils/cryptography/ECDSA.sol\":6106:6116  uint256(s) */\n      0x00\n      shr\n        /* \"@openzeppelin/contracts/utils/cryptography/ECDSA.sol\":6106:6185  uint256(s) > 0x7FFFFFFFFFFFFFFFFFFFFFFFFFFFFFFF5D576E7357A4501DDFE92F46681B20A0 */\n      gt\n        /* \"@openzeppelin/contracts/utils/cryptography/ECDSA.sol\":6102:6263  if (uint256(s) > 0x7FFFFFFFFFFFFFFFFFFFFFFFFFFFFFFF5D576E7357A4501DDFE92F46681B20A0) {... */\n      iszero\n      tag_349\n      jumpi\n        /* \"@openzeppelin/contracts/utils/cryptography/ECDSA.sol\":6217:6218  0 */\n      0x00\n        /* \"@openzeppelin/contracts/utils/cryptography/ECDSA.sol\":6221:6251  RecoverError.InvalidSignatureS */\n      0x03\n        /* \"@openzeppelin/contracts/utils/cryptography/ECDSA.sol\":6201:6252  return (address(0), RecoverError.InvalidSignatureS) */\n      swap2\n      pop\n      swap2\n      pop\n      jump(tag_348)\n        /* \"@openzeppelin/contracts/utils/cryptography/ECDSA.sol\":6102:6263  if (uint256(s) > 0x7FFFFFFFFFFFFFFFFFFFFFFFFFFFFFFF5D576E7357A4501DDFE92F46681B20A0) {... */\n    tag_349:\n        /* \"@openzeppelin/contracts/utils/cryptography/ECDSA.sol\":6357:6371  address signer */\n      0x00\n        /* \"@openzeppelin/contracts/utils/cryptography/ECDSA.sol\":6374:6398  ecrecover(hash, v, r, s) */\n      0x01\n        /* \"@openzeppelin/contracts/utils/cryptography/ECDSA.sol\":6384:6388  hash */\n      dup8\n        /* \"@openzeppelin/contracts/utils/cryptography/ECDSA.sol\":6390:6391  v */\n      dup8\n        /* \"@openzeppelin/contracts/utils/cryptography/ECDSA.sol\":6393:6394  r */\n      dup8\n        /* \"@openzeppelin/contracts/utils/cryptography/ECDSA.sol\":6396:6397  s */\n      dup8\n        /* \"@openzeppelin/contracts/utils/cryptography/ECDSA.sol\":6374:6398  ecrecover(hash, v, r, s) */\n      mload(0x40)\n      0x00\n      dup2\n      mstore\n      0x20\n      add\n      0x40\n      mstore\n      mload(0x40)\n      tag_350\n      swap5\n      swap4\n      swap3\n      swap2\n      swap1\n      tag_351\n      jump\t// in\n    tag_350:\n      0x20\n      mload(0x40)\n      0x20\n      dup2\n      sub\n      swap1\n      dup1\n      dup5\n      sub\n      swap1\n      dup6\n      gas\n      staticcall\n      iszero\n      dup1\n      iszero\n      tag_353\n      jumpi\n      returndatasize\n      0x00\n      dup1\n      returndatacopy\n      revert(0x00, returndatasize)\n    tag_353:\n      pop\n      pop\n      pop\n      mload(sub(mload(0x40), 0x20))\n        /* \"@openzeppelin/contracts/utils/cryptography/ECDSA.sol\":6357:6398  address signer = ecrecover(hash, v, r, s) */\n      swap1\n      pop\n        /* \"@openzeppelin/contracts/utils/cryptography/ECDSA.sol\":6430:6431  0 */\n      0x00\n        /* \"@openzeppelin/contracts/utils/cryptography/ECDSA.sol\":6412:6432  signer == address(0) */\n      0xffffffffffffffffffffffffffffffffffffffff\n      and\n        /* \"@openzeppelin/contracts/utils/cryptography/ECDSA.sol\":6412:6418  signer */\n      dup2\n        /* \"@openzeppelin/contracts/utils/cryptography/ECDSA.sol\":6412:6432  signer == address(0) */\n      0xffffffffffffffffffffffffffffffffffffffff\n      and\n      sub\n        /* \"@openzeppelin/contracts/utils/cryptography/ECDSA.sol\":6408:6509  if (signer == address(0)) {... */\n      tag_354\n      jumpi\n        /* \"@openzeppelin/contracts/utils/cryptography/ECDSA.sol\":6464:6465  0 */\n      0x00\n        /* \"@openzeppelin/contracts/utils/cryptography/ECDSA.sol\":6468:6497  RecoverError.InvalidSignature */\n      0x01\n        /* \"@openzeppelin/contracts/utils/cryptography/ECDSA.sol\":6448:6498  return (address(0), RecoverError.InvalidSignature) */\n      swap3\n      pop\n      swap3\n      pop\n      pop\n      jump(tag_348)\n        /* \"@openzeppelin/contracts/utils/cryptography/ECDSA.sol\":6408:6509  if (signer == address(0)) {... */\n    tag_354:\n        /* \"@openzeppelin/contracts/utils/cryptography/ECDSA.sol\":6527:6533  signer */\n      dup1\n        /* \"@openzeppelin/contracts/utils/cryptography/ECDSA.sol\":6535:6555  RecoverError.NoError */\n      0x00\n        /* \"@openzeppelin/contracts/utils/cryptography/ECDSA.sol\":6519:6556  return (signer, RecoverError.NoError) */\n      swap3\n      pop\n      swap3\n      pop\n      pop\n        /* \"@openzeppelin/contracts/utils/cryptography/ECDSA.sol\":5069:6563  function tryRecover(... */\n    tag_348:\n      swap5\n      pop\n      swap5\n      swap3\n      pop\n      pop\n      pop\n      jump\t// out\n    tag_223:\n      dup3\n      dup1\n      sload\n      dup3\n      dup3\n      sstore\n      swap1\n      0x00\n      mstore\n      keccak256(0x00, 0x20)\n      swap1\n      dup2\n      add\n      swap3\n      dup3\n      iszero\n      tag_355\n      jumpi\n      swap2\n      0x20\n      mul\n      dup3\n      add\n    tag_356:\n      dup3\n      dup2\n      gt\n      iszero\n      tag_357\n      jumpi\n      dup3\n      mload\n      dup3\n      exp(0x0100, 0x00)\n      dup2\n      sload\n      dup2\n      0xffffffffffffffffffffffffffffffffffffffff\n      mul\n      not\n      and\n      swap1\n      dup4\n      0xffffffffffffffffffffffffffffffffffffffff\n      and\n      mul\n      or\n      swap1\n      sstore\n      pop\n      swap2\n      0x20\n      add\n      swap2\n      swap1\n      0x01\n      add\n      swap1\n      jump(tag_356)\n    tag_357:\n    tag_355:\n      pop\n      swap1\n      pop\n      tag_358\n      swap2\n      swap1\n      tag_359\n      jump\t// in\n    tag_358:\n      pop\n      swap1\n      jump\t// out\n    tag_359:\n    tag_360:\n      dup1\n      dup3\n      gt\n      iszero\n      tag_361\n      jumpi\n      0x00\n      dup2\n      0x00\n      swap1\n      sstore\n      pop\n      0x01\n      add\n      jump(tag_360)\n    tag_361:\n      pop\n      swap1\n      jump\t// out\n        /* \"#utility.yul\":88:205   */\n    tag_363:\n        /* \"#utility.yul\":197:198   */\n      0x00\n        /* \"#utility.yul\":194:195   */\n      dup1\n        /* \"#utility.yul\":187:199   */\n      revert\n        /* \"#utility.yul\":211:328   */\n    tag_364:\n        /* \"#utility.yul\":320:321   */\n      0x00\n        /* \"#utility.yul\":317:318   */\n      dup1\n        /* \"#utility.yul\":310:322   */\n      revert\n        /* \"#utility.yul\":334:411   */\n    tag_365:\n        /* \"#utility.yul\":371:378   */\n      0x00\n        /* \"#utility.yul\":400:405   */\n      dup2\n        /* \"#utility.yul\":389:405   */\n      swap1\n      pop\n        /* \"#utility.yul\":334:411   */\n      swap2\n      swap1\n      pop\n      jump\t// out\n        /* \"#utility.yul\":417:539   */\n    tag_366:\n        /* \"#utility.yul\":490:514   */\n      tag_430\n        /* \"#utility.yul\":508:513   */\n      dup2\n        /* \"#utility.yul\":490:514   */\n      tag_365\n      jump\t// in\n    tag_430:\n        /* \"#utility.yul\":483:488   */\n      dup2\n        /* \"#utility.yul\":480:515   */\n      eq\n        /* \"#utility.yul\":470:533   */\n      tag_431\n      jumpi\n        /* \"#utility.yul\":529:530   */\n      0x00\n        /* \"#utility.yul\":526:527   */\n      dup1\n        /* \"#utility.yul\":519:531   */\n      revert\n        /* \"#utility.yul\":470:533   */\n    tag_431:\n        /* \"#utility.yul\":417:539   */\n      pop\n      jump\t// out\n        /* \"#utility.yul\":545:684   */\n    tag_367:\n        /* \"#utility.yul\":591:596   */\n      0x00\n        /* \"#utility.yul\":629:635   */\n      dup2\n        /* \"#utility.yul\":616:636   */\n      calldataload\n        /* \"#utility.yul\":607:636   */\n      swap1\n      pop\n        /* \"#utility.yul\":645:678   */\n      tag_433\n        /* \"#utility.yul\":672:677   */\n      dup2\n        /* \"#utility.yul\":645:678   */\n      tag_366\n      jump\t// in\n    tag_433:\n        /* \"#utility.yul\":545:684   */\n      swap3\n      swap2\n      pop\n      pop\n      jump\t// out\n        /* \"#utility.yul\":690:1019   */\n    tag_29:\n        /* \"#utility.yul\":749:755   */\n      0x00\n        /* \"#utility.yul\":798:800   */\n      0x20\n        /* \"#utility.yul\":786:795   */\n      dup3\n        /* \"#utility.yul\":777:784   */\n      dup5\n        /* \"#utility.yul\":773:796   */\n      sub\n        /* \"#utility.yul\":769:801   */\n      slt\n        /* \"#utility.yul\":766:885   */\n      iszero\n      tag_435\n      jumpi\n        /* \"#utility.yul\":804:883   */\n      tag_436\n      tag_363\n      jump\t// in\n    tag_436:\n        /* \"#utility.yul\":766:885   */\n    tag_435:\n        /* \"#utility.yul\":924:925   */\n      0x00\n        /* \"#utility.yul\":949:1002   */\n      tag_437\n        /* \"#utility.yul\":994:1001   */\n      dup5\n        /* \"#utility.yul\":985:991   */\n      dup3\n        /* \"#utility.yul\":974:983   */\n      dup6\n        /* \"#utility.yul\":970:992   */\n      add\n        /* \"#utility.yul\":949:1002   */\n      tag_367\n      jump\t// in\n    tag_437:\n        /* \"#utility.yul\":939:1002   */\n      swap2\n      pop\n        /* \"#utility.yul\":895:1012   */\n      pop\n        /* \"#utility.yul\":690:1019   */\n      swap3\n      swap2\n      pop\n      pop\n      jump\t// out\n        /* \"#utility.yul\":1025:1143   */\n    tag_368:\n        /* \"#utility.yul\":1112:1136   */\n      tag_439\n        /* \"#utility.yul\":1130:1135   */\n      dup2\n        /* \"#utility.yul\":1112:1136   */\n      tag_365\n      jump\t// in\n    tag_439:\n        /* \"#utility.yul\":1107:1110   */\n      dup3\n        /* \"#utility.yul\":1100:1137   */\n      mstore\n        /* \"#utility.yul\":1025:1143   */\n      pop\n      pop\n      jump\t// out\n        /* \"#utility.yul\":1149:1275   */\n    tag_369:\n        /* \"#utility.yul\":1186:1193   */\n      0x00\n        /* \"#utility.yul\":1226:1268   */\n      0xffffffffffffffffffffffffffffffffffffffff\n        /* \"#utility.yul\":1219:1224   */\n      dup3\n        /* \"#utility.yul\":1215:1269   */\n      and\n        /* \"#utility.yul\":1204:1269   */\n      swap1\n      pop\n        /* \"#utility.yul\":1149:1275   */\n      swap2\n      swap1\n      pop\n      jump\t// out\n        /* \"#utility.yul\":1281:1377   */\n    tag_370:\n        /* \"#utility.yul\":1318:1325   */\n      0x00\n        /* \"#utility.yul\":1347:1371   */\n      tag_442\n        /* \"#utility.yul\":1365:1370   */\n      dup3\n        /* \"#utility.yul\":1347:1371   */\n      tag_369\n      jump\t// in\n    tag_442:\n        /* \"#utility.yul\":1336:1371   */\n      swap1\n      pop\n        /* \"#utility.yul\":1281:1377   */\n      swap2\n      swap1\n      pop\n      jump\t// out\n        /* \"#utility.yul\":1383:1501   */\n    tag_371:\n        /* \"#utility.yul\":1470:1494   */\n      tag_444\n        /* \"#utility.yul\":1488:1493   */\n      dup2\n        /* \"#utility.yul\":1470:1494   */\n      tag_370\n      jump\t// in\n    tag_444:\n        /* \"#utility.yul\":1465:1468   */\n      dup3\n        /* \"#utility.yul\":1458:1495   */\n      mstore\n        /* \"#utility.yul\":1383:1501   */\n      pop\n      pop\n      jump\t// out\n        /* \"#utility.yul\":1507:1687   */\n    tag_120:\n        /* \"#utility.yul\":1555:1632   */\n      0x4e487b7100000000000000000000000000000000000000000000000000000000\n        /* \"#utility.yul\":1552:1553   */\n      0x00\n        /* \"#utility.yul\":1545:1633   */\n      mstore\n        /* \"#utility.yul\":1652:1656   */\n      0x21\n        /* \"#utility.yul\":1649:1650   */\n      0x04\n        /* \"#utility.yul\":1642:1657   */\n      mstore\n        /* \"#utility.yul\":1676:1680   */\n      0x24\n        /* \"#utility.yul\":1673:1674   */\n      0x00\n        /* \"#utility.yul\":1666:1681   */\n      revert\n        /* \"#utility.yul\":1693:1818   */\n    tag_372:\n        /* \"#utility.yul\":1785:1787   */\n      0x0a\n        /* \"#utility.yul\":1778:1783   */\n      dup2\n        /* \"#utility.yul\":1775:1788   */\n      lt\n        /* \"#utility.yul\":1765:1812   */\n      tag_447\n      jumpi\n        /* \"#utility.yul\":1792:1810   */\n      tag_448\n      tag_120\n      jump\t// in\n    tag_448:\n        /* \"#utility.yul\":1765:1812   */\n    tag_447:\n        /* \"#utility.yul\":1693:1818   */\n      pop\n      jump\t// out\n        /* \"#utility.yul\":1824:1973   */\n    tag_373:\n        /* \"#utility.yul\":1880:1887   */\n      0x00\n        /* \"#utility.yul\":1909:1914   */\n      dup2\n        /* \"#utility.yul\":1898:1914   */\n      swap1\n      pop\n        /* \"#utility.yul\":1915:1967   */\n      tag_450\n        /* \"#utility.yul\":1961:1966   */\n      dup3\n        /* \"#utility.yul\":1915:1967   */\n      tag_372\n      jump\t// in\n    tag_450:\n        /* \"#utility.yul\":1824:1973   */\n      swap2\n      swap1\n      pop\n      jump\t// out\n        /* \"#utility.yul\":1979:2128   */\n    tag_374:\n        /* \"#utility.yul\":2046:2055   */\n      0x00\n        /* \"#utility.yul\":2079:2122   */\n      tag_452\n        /* \"#utility.yul\":2116:2121   */\n      dup3\n        /* \"#utility.yul\":2079:2122   */\n      tag_373\n      jump\t// in\n    tag_452:\n        /* \"#utility.yul\":2066:2122   */\n      swap1\n      pop\n        /* \"#utility.yul\":1979:2128   */\n      swap2\n      swap1\n      pop\n      jump\t// out\n        /* \"#utility.yul\":2134:2299   */\n    tag_375:\n        /* \"#utility.yul\":2238:2292   */\n      tag_454\n        /* \"#utility.yul\":2286:2291   */\n      dup2\n        /* \"#utility.yul\":2238:2292   */\n      tag_374\n      jump\t// in\n    tag_454:\n        /* \"#utility.yul\":2233:2236   */\n      dup3\n        /* \"#utility.yul\":2226:2293   */\n      mstore\n        /* \"#utility.yul\":2134:2299   */\n      pop\n      pop\n      jump\t// out\n        /* \"#utility.yul\":2305:2382   */\n    tag_376:\n        /* \"#utility.yul\":2342:2349   */\n      0x00\n        /* \"#utility.yul\":2371:2376   */\n      dup2\n        /* \"#utility.yul\":2360:2376   */\n      swap1\n      pop\n        /* \"#utility.yul\":2305:2382   */\n      swap2\n      swap1\n      pop\n      jump\t// out\n        /* \"#utility.yul\":2388:2506   */\n    tag_377:\n        /* \"#utility.yul\":2475:2499   */\n      tag_457\n        /* \"#utility.yul\":2493:2498   */\n      dup2\n        /* \"#utility.yul\":2475:2499   */\n      tag_376\n      jump\t// in\n    tag_457:\n        /* \"#utility.yul\":2470:2473   */\n      dup3\n        /* \"#utility.yul\":2463:2500   */\n      mstore\n        /* \"#utility.yul\":2388:2506   */\n      pop\n      pop\n      jump\t// out\n        /* \"#utility.yul\":2512:3878   */\n    tag_32:\n        /* \"#utility.yul\":2903:2907   */\n      0x00\n        /* \"#utility.yul\":2941:2944   */\n      0x0160\n        /* \"#utility.yul\":2930:2939   */\n      dup3\n        /* \"#utility.yul\":2926:2945   */\n      add\n        /* \"#utility.yul\":2918:2945   */\n      swap1\n      pop\n        /* \"#utility.yul\":2955:3026   */\n      tag_459\n        /* \"#utility.yul\":3023:3024   */\n      0x00\n        /* \"#utility.yul\":3012:3021   */\n      dup4\n        /* \"#utility.yul\":3008:3025   */\n      add\n        /* \"#utility.yul\":2999:3005   */\n      dup15\n        /* \"#utility.yul\":2955:3026   */\n      tag_368\n      jump\t// in\n    tag_459:\n        /* \"#utility.yul\":3036:3108   */\n      tag_460\n        /* \"#utility.yul\":3104:3106   */\n      0x20\n        /* \"#utility.yul\":3093:3102   */\n      dup4\n        /* \"#utility.yul\":3089:3107   */\n      add\n        /* \"#utility.yul\":3080:3086   */\n      dup14\n        /* \"#utility.yul\":3036:3108   */\n      tag_371\n      jump\t// in\n    tag_460:\n        /* \"#utility.yul\":3118:3190   */\n      tag_461\n        /* \"#utility.yul\":3186:3188   */\n      0x40\n        /* \"#utility.yul\":3175:3184   */\n      dup4\n        /* \"#utility.yul\":3171:3189   */\n      add\n        /* \"#utility.yul\":3162:3168   */\n      dup13\n        /* \"#utility.yul\":3118:3190   */\n      tag_368\n      jump\t// in\n    tag_461:\n        /* \"#utility.yul\":3200:3272   */\n      tag_462\n        /* \"#utility.yul\":3268:3270   */\n      0x60\n        /* \"#utility.yul\":3257:3266   */\n      dup4\n        /* \"#utility.yul\":3253:3271   */\n      add\n        /* \"#utility.yul\":3244:3250   */\n      dup12\n        /* \"#utility.yul\":3200:3272   */\n      tag_371\n      jump\t// in\n    tag_462:\n        /* \"#utility.yul\":3282:3355   */\n      tag_463\n        /* \"#utility.yul\":3350:3353   */\n      0x80\n        /* \"#utility.yul\":3339:3348   */\n      dup4\n        /* \"#utility.yul\":3335:3354   */\n      add\n        /* \"#utility.yul\":3326:3332   */\n      dup11\n        /* \"#utility.yul\":3282:3355   */\n      tag_368\n      jump\t// in\n    tag_463:\n        /* \"#utility.yul\":3365:3438   */\n      tag_464\n        /* \"#utility.yul\":3433:3436   */\n      0xa0\n        /* \"#utility.yul\":3422:3431   */\n      dup4\n        /* \"#utility.yul\":3418:3437   */\n      add\n        /* \"#utility.yul\":3409:3415   */\n      dup10\n        /* \"#utility.yul\":3365:3438   */\n      tag_368\n      jump\t// in\n    tag_464:\n        /* \"#utility.yul\":3448:3521   */\n      tag_465\n        /* \"#utility.yul\":3516:3519   */\n      0xc0\n        /* \"#utility.yul\":3505:3514   */\n      dup4\n        /* \"#utility.yul\":3501:3520   */\n      add\n        /* \"#utility.yul\":3492:3498   */\n      dup9\n        /* \"#utility.yul\":3448:3521   */\n      tag_368\n      jump\t// in\n    tag_465:\n        /* \"#utility.yul\":3531:3621   */\n      tag_466\n        /* \"#utility.yul\":3616:3619   */\n      0xe0\n        /* \"#utility.yul\":3605:3614   */\n      dup4\n        /* \"#utility.yul\":3601:3620   */\n      add\n        /* \"#utility.yul\":3592:3598   */\n      dup8\n        /* \"#utility.yul\":3531:3621   */\n      tag_375\n      jump\t// in\n    tag_466:\n        /* \"#utility.yul\":3631:3704   */\n      tag_467\n        /* \"#utility.yul\":3699:3702   */\n      0x0100\n        /* \"#utility.yul\":3688:3697   */\n      dup4\n        /* \"#utility.yul\":3684:3703   */\n      add\n        /* \"#utility.yul\":3675:3681   */\n      dup7\n        /* \"#utility.yul\":3631:3704   */\n      tag_371\n      jump\t// in\n    tag_467:\n        /* \"#utility.yul\":3714:3787   */\n      tag_468\n        /* \"#utility.yul\":3782:3785   */\n      0x0120\n        /* \"#utility.yul\":3771:3780   */\n      dup4\n        /* \"#utility.yul\":3767:3786   */\n      add\n        /* \"#utility.yul\":3758:3764   */\n      dup6\n        /* \"#utility.yul\":3714:3787   */\n      tag_377\n      jump\t// in\n    tag_468:\n        /* \"#utility.yul\":3797:3871   */\n      tag_469\n        /* \"#utility.yul\":3866:3869   */\n      0x0140\n        /* \"#utility.yul\":3855:3864   */\n      dup4\n        /* \"#utility.yul\":3851:3870   */\n      add\n        /* \"#utility.yul\":3841:3848   */\n      dup5\n        /* \"#utility.yul\":3797:3871   */\n      tag_368\n      jump\t// in\n    tag_469:\n        /* \"#utility.yul\":2512:3878   */\n      swap13\n      swap12\n      pop\n      pop\n      pop\n      pop\n      pop\n      pop\n      pop\n      pop\n      pop\n      pop\n      pop\n      pop\n      jump\t// out\n        /* \"#utility.yul\":3884:4006   */\n    tag_378:\n        /* \"#utility.yul\":3957:3981   */\n      tag_471\n        /* \"#utility.yul\":3975:3980   */\n      dup2\n        /* \"#utility.yul\":3957:3981   */\n      tag_370\n      jump\t// in\n    tag_471:\n        /* \"#utility.yul\":3950:3955   */\n      dup2\n        /* \"#utility.yul\":3947:3982   */\n      eq\n        /* \"#utility.yul\":3937:4000   */\n      tag_472\n      jumpi\n        /* \"#utility.yul\":3996:3997   */\n      0x00\n        /* \"#utility.yul\":3993:3994   */\n      dup1\n        /* \"#utility.yul\":3986:3998   */\n      revert\n        /* \"#utility.yul\":3937:4000   */\n    tag_472:\n        /* \"#utility.yul\":3884:4006   */\n      pop\n      jump\t// out\n        /* \"#utility.yul\":4012:4151   */\n    tag_379:\n        /* \"#utility.yul\":4058:4063   */\n      0x00\n        /* \"#utility.yul\":4096:4102   */\n      dup2\n        /* \"#utility.yul\":4083:4103   */\n      calldataload\n        /* \"#utility.yul\":4074:4103   */\n      swap1\n      pop\n        /* \"#utility.yul\":4112:4145   */\n      tag_474\n        /* \"#utility.yul\":4139:4144   */\n      dup2\n        /* \"#utility.yul\":4112:4145   */\n      tag_378\n      jump\t// in\n    tag_474:\n        /* \"#utility.yul\":4012:4151   */\n      swap3\n      swap2\n      pop\n      pop\n      jump\t// out\n        /* \"#utility.yul\":4157:4247   */\n    tag_380:\n        /* \"#utility.yul\":4191:4198   */\n      0x00\n        /* \"#utility.yul\":4234:4239   */\n      dup2\n        /* \"#utility.yul\":4227:4240   */\n      iszero\n        /* \"#utility.yul\":4220:4241   */\n      iszero\n        /* \"#utility.yul\":4209:4241   */\n      swap1\n      pop\n        /* \"#utility.yul\":4157:4247   */\n      swap2\n      swap1\n      pop\n      jump\t// out\n        /* \"#utility.yul\":4253:4369   */\n    tag_381:\n        /* \"#utility.yul\":4323:4344   */\n      tag_477\n        /* \"#utility.yul\":4338:4343   */\n      dup2\n        /* \"#utility.yul\":4323:4344   */\n      tag_380\n      jump\t// in\n    tag_477:\n        /* \"#utility.yul\":4316:4321   */\n      dup2\n        /* \"#utility.yul\":4313:4345   */\n      eq\n        /* \"#utility.yul\":4303:4363   */\n      tag_478\n      jumpi\n        /* \"#utility.yul\":4359:4360   */\n      0x00\n        /* \"#utility.yul\":4356:4357   */\n      dup1\n        /* \"#utility.yul\":4349:4361   */\n      revert\n        /* \"#utility.yul\":4303:4363   */\n    tag_478:\n        /* \"#utility.yul\":4253:4369   */\n      pop\n      jump\t// out\n        /* \"#utility.yul\":4375:4508   */\n    tag_382:\n        /* \"#utility.yul\":4418:4423   */\n      0x00\n        /* \"#utility.yul\":4456:4462   */\n      dup2\n        /* \"#utility.yul\":4443:4463   */\n      calldataload\n        /* \"#utility.yul\":4434:4463   */\n      swap1\n      pop\n        /* \"#utility.yul\":4472:4502   */\n      tag_480\n        /* \"#utility.yul\":4496:4501   */\n      dup2\n        /* \"#utility.yul\":4472:4502   */\n      tag_381\n      jump\t// in\n    tag_480:\n        /* \"#utility.yul\":4375:4508   */\n      swap3\n      swap2\n      pop\n      pop\n      jump\t// out\n        /* \"#utility.yul\":4514:5127   */\n    tag_38:\n        /* \"#utility.yul\":4588:4594   */\n      0x00\n        /* \"#utility.yul\":4596:4602   */\n      dup1\n        /* \"#utility.yul\":4604:4610   */\n      0x00\n        /* \"#utility.yul\":4653:4655   */\n      0x60\n        /* \"#utility.yul\":4641:4650   */\n      dup5\n        /* \"#utility.yul\":4632:4639   */\n      dup7\n        /* \"#utility.yul\":4628:4651   */\n      sub\n        /* \"#utility.yul\":4624:4656   */\n      slt\n        /* \"#utility.yul\":4621:4740   */\n      iszero\n      tag_482\n      jumpi\n        /* \"#utility.yul\":4659:4738   */\n      tag_483\n      tag_363\n      jump\t// in\n    tag_483:\n        /* \"#utility.yul\":4621:4740   */\n    tag_482:\n        /* \"#utility.yul\":4779:4780   */\n      0x00\n        /* \"#utility.yul\":4804:4857   */\n      tag_484\n        /* \"#utility.yul\":4849:4856   */\n      dup7\n        /* \"#utility.yul\":4840:4846   */\n      dup3\n        /* \"#utility.yul\":4829:4838   */\n      dup8\n        /* \"#utility.yul\":4825:4847   */\n      add\n        /* \"#utility.yul\":4804:4857   */\n      tag_379\n      jump\t// in\n    tag_484:\n        /* \"#utility.yul\":4794:4857   */\n      swap4\n      pop\n        /* \"#utility.yul\":4750:4867   */\n      pop\n        /* \"#utility.yul\":4906:4908   */\n      0x20\n        /* \"#utility.yul\":4932:4985   */\n      tag_485\n        /* \"#utility.yul\":4977:4984   */\n      dup7\n        /* \"#utility.yul\":4968:4974   */\n      dup3\n        /* \"#utility.yul\":4957:4966   */\n      dup8\n        /* \"#utility.yul\":4953:4975   */\n      add\n        /* \"#utility.yul\":4932:4985   */\n      tag_367\n      jump\t// in\n    tag_485:\n        /* \"#utility.yul\":4922:4985   */\n      swap3\n      pop\n        /* \"#utility.yul\":4877:4995   */\n      pop\n        /* \"#utility.yul\":5034:5036   */\n      0x40\n        /* \"#utility.yul\":5060:5110   */\n      tag_486\n        /* \"#utility.yul\":5102:5109   */\n      dup7\n        /* \"#utility.yul\":5093:5099   */\n      dup3\n        /* \"#utility.yul\":5082:5091   */\n      dup8\n        /* \"#utility.yul\":5078:5100   */\n      add\n        /* \"#utility.yul\":5060:5110   */\n      tag_382\n      jump\t// in\n    tag_486:\n        /* \"#utility.yul\":5050:5110   */\n      swap2\n      pop\n        /* \"#utility.yul\":5005:5120   */\n      pop\n        /* \"#utility.yul\":4514:5127   */\n      swap3\n      pop\n      swap3\n      pop\n      swap3\n      jump\t// out\n        /* \"#utility.yul\":5133:5355   */\n    tag_41:\n        /* \"#utility.yul\":5226:5230   */\n      0x00\n        /* \"#utility.yul\":5264:5266   */\n      0x20\n        /* \"#utility.yul\":5253:5262   */\n      dup3\n        /* \"#utility.yul\":5249:5267   */\n      add\n        /* \"#utility.yul\":5241:5267   */\n      swap1\n      pop\n        /* \"#utility.yul\":5277:5348   */\n      tag_488\n        /* \"#utility.yul\":5345:5346   */\n      0x00\n        /* \"#utility.yul\":5334:5343   */\n      dup4\n        /* \"#utility.yul\":5330:5347   */\n      add\n        /* \"#utility.yul\":5321:5327   */\n      dup5\n        /* \"#utility.yul\":5277:5348   */\n      tag_377\n      jump\t// in\n    tag_488:\n        /* \"#utility.yul\":5133:5355   */\n      swap3\n      swap2\n      pop\n      pop\n      jump\t// out\n        /* \"#utility.yul\":5361:5583   */\n    tag_45:\n        /* \"#utility.yul\":5454:5458   */\n      0x00\n        /* \"#utility.yul\":5492:5494   */\n      0x20\n        /* \"#utility.yul\":5481:5490   */\n      dup3\n        /* \"#utility.yul\":5477:5495   */\n      add\n        /* \"#utility.yul\":5469:5495   */\n      swap1\n      pop\n        /* \"#utility.yul\":5505:5576   */\n      tag_490\n        /* \"#utility.yul\":5573:5574   */\n      0x00\n        /* \"#utility.yul\":5562:5571   */\n      dup4\n        /* \"#utility.yul\":5558:5575   */\n      add\n        /* \"#utility.yul\":5549:5555   */\n      dup5\n        /* \"#utility.yul\":5505:5576   */\n      tag_368\n      jump\t// in\n    tag_490:\n        /* \"#utility.yul\":5361:5583   */\n      swap3\n      swap2\n      pop\n      pop\n      jump\t// out\n        /* \"#utility.yul\":5589:5811   */\n    tag_49:\n        /* \"#utility.yul\":5682:5686   */\n      0x00\n        /* \"#utility.yul\":5720:5722   */\n      0x20\n        /* \"#utility.yul\":5709:5718   */\n      dup3\n        /* \"#utility.yul\":5705:5723   */\n      add\n        /* \"#utility.yul\":5697:5723   */\n      swap1\n      pop\n        /* \"#utility.yul\":5733:5804   */\n      tag_492\n        /* \"#utility.yul\":5801:5802   */\n      0x00\n        /* \"#utility.yul\":5790:5799   */\n      dup4\n        /* \"#utility.yul\":5786:5803   */\n      add\n        /* \"#utility.yul\":5777:5783   */\n      dup5\n        /* \"#utility.yul\":5733:5804   */\n      tag_371\n      jump\t// in\n    tag_492:\n        /* \"#utility.yul\":5589:5811   */\n      swap3\n      swap2\n      pop\n      pop\n      jump\t// out\n        /* \"#utility.yul\":5817:6291   */\n    tag_52:\n        /* \"#utility.yul\":5885:5891   */\n      0x00\n        /* \"#utility.yul\":5893:5899   */\n      dup1\n        /* \"#utility.yul\":5942:5944   */\n      0x40\n        /* \"#utility.yul\":5930:5939   */\n      dup4\n        /* \"#utility.yul\":5921:5928   */\n      dup6\n        /* \"#utility.yul\":5917:5940   */\n      sub\n        /* \"#utility.yul\":5913:5945   */\n      slt\n        /* \"#utility.yul\":5910:6029   */\n      iszero\n      tag_494\n      jumpi\n        /* \"#utility.yul\":5948:6027   */\n      tag_495\n      tag_363\n      jump\t// in\n    tag_495:\n        /* \"#utility.yul\":5910:6029   */\n    tag_494:\n        /* \"#utility.yul\":6068:6069   */\n      0x00\n        /* \"#utility.yul\":6093:6146   */\n      tag_496\n        /* \"#utility.yul\":6138:6145   */\n      dup6\n        /* \"#utility.yul\":6129:6135   */\n      dup3\n        /* \"#utility.yul\":6118:6127   */\n      dup7\n        /* \"#utility.yul\":6114:6136   */\n      add\n        /* \"#utility.yul\":6093:6146   */\n      tag_367\n      jump\t// in\n    tag_496:\n        /* \"#utility.yul\":6083:6146   */\n      swap3\n      pop\n        /* \"#utility.yul\":6039:6156   */\n      pop\n        /* \"#utility.yul\":6195:6197   */\n      0x20\n        /* \"#utility.yul\":6221:6274   */\n      tag_497\n        /* \"#utility.yul\":6266:6273   */\n      dup6\n        /* \"#utility.yul\":6257:6263   */\n      dup3\n        /* \"#utility.yul\":6246:6255   */\n      dup7\n        /* \"#utility.yul\":6242:6264   */\n      add\n        /* \"#utility.yul\":6221:6274   */\n      tag_367\n      jump\t// in\n    tag_497:\n        /* \"#utility.yul\":6211:6274   */\n      swap2\n      pop\n        /* \"#utility.yul\":6166:6284   */\n      pop\n        /* \"#utility.yul\":5817:6291   */\n      swap3\n      pop\n      swap3\n      swap1\n      pop\n      jump\t// out\n        /* \"#utility.yul\":6297:6771   */\n    tag_57:\n        /* \"#utility.yul\":6365:6371   */\n      0x00\n        /* \"#utility.yul\":6373:6379   */\n      dup1\n        /* \"#utility.yul\":6422:6424   */\n      0x40\n        /* \"#utility.yul\":6410:6419   */\n      dup4\n        /* \"#utility.yul\":6401:6408   */\n      dup6\n        /* \"#utility.yul\":6397:6420   */\n      sub\n        /* \"#utility.yul\":6393:6425   */\n      slt\n        /* \"#utility.yul\":6390:6509   */\n      iszero\n      tag_499\n      jumpi\n        /* \"#utility.yul\":6428:6507   */\n      tag_500\n      tag_363\n      jump\t// in\n    tag_500:\n        /* \"#utility.yul\":6390:6509   */\n    tag_499:\n        /* \"#utility.yul\":6548:6549   */\n      0x00\n        /* \"#utility.yul\":6573:6626   */\n      tag_501\n        /* \"#utility.yul\":6618:6625   */\n      dup6\n        /* \"#utility.yul\":6609:6615   */\n      dup3\n        /* \"#utility.yul\":6598:6607   */\n      dup7\n        /* \"#utility.yul\":6594:6616   */\n      add\n        /* \"#utility.yul\":6573:6626   */\n      tag_379\n      jump\t// in\n    tag_501:\n        /* \"#utility.yul\":6563:6626   */\n      swap3\n      pop\n        /* \"#utility.yul\":6519:6636   */\n      pop\n        /* \"#utility.yul\":6675:6677   */\n      0x20\n        /* \"#utility.yul\":6701:6754   */\n      tag_502\n        /* \"#utility.yul\":6746:6753   */\n      dup6\n        /* \"#utility.yul\":6737:6743   */\n      dup3\n        /* \"#utility.yul\":6726:6735   */\n      dup7\n        /* \"#utility.yul\":6722:6744   */\n      add\n        /* \"#utility.yul\":6701:6754   */\n      tag_367\n      jump\t// in\n    tag_502:\n        /* \"#utility.yul\":6691:6754   */\n      swap2\n      pop\n        /* \"#utility.yul\":6646:6764   */\n      pop\n        /* \"#utility.yul\":6297:6771   */\n      swap3\n      pop\n      swap3\n      swap1\n      pop\n      jump\t// out\n        /* \"#utility.yul\":6777:6894   */\n    tag_383:\n        /* \"#utility.yul\":6886:6887   */\n      0x00\n        /* \"#utility.yul\":6883:6884   */\n      dup1\n        /* \"#utility.yul\":6876:6888   */\n      revert\n        /* \"#utility.yul\":6900:7017   */\n    tag_384:\n        /* \"#utility.yul\":7009:7010   */\n      0x00\n        /* \"#utility.yul\":7006:7007   */\n      dup1\n        /* \"#utility.yul\":6999:7011   */\n      revert\n        /* \"#utility.yul\":7023:7140   */\n    tag_385:\n        /* \"#utility.yul\":7132:7133   */\n      0x00\n        /* \"#utility.yul\":7129:7130   */\n      dup1\n        /* \"#utility.yul\":7122:7134   */\n      revert\n        /* \"#utility.yul\":7159:7711   */\n    tag_386:\n        /* \"#utility.yul\":7216:7224   */\n      0x00\n        /* \"#utility.yul\":7226:7232   */\n      dup1\n        /* \"#utility.yul\":7276:7279   */\n      dup4\n        /* \"#utility.yul\":7269:7273   */\n      0x1f\n        /* \"#utility.yul\":7261:7267   */\n      dup5\n        /* \"#utility.yul\":7257:7274   */\n      add\n        /* \"#utility.yul\":7253:7280   */\n      slt\n        /* \"#utility.yul\":7243:7365   */\n      tag_507\n      jumpi\n        /* \"#utility.yul\":7284:7363   */\n      tag_508\n      tag_383\n      jump\t// in\n    tag_508:\n        /* \"#utility.yul\":7243:7365   */\n    tag_507:\n        /* \"#utility.yul\":7397:7403   */\n      dup3\n        /* \"#utility.yul\":7384:7404   */\n      calldataload\n        /* \"#utility.yul\":7374:7404   */\n      swap1\n      pop\n        /* \"#utility.yul\":7427:7445   */\n      0xffffffffffffffff\n        /* \"#utility.yul\":7419:7425   */\n      dup2\n        /* \"#utility.yul\":7416:7446   */\n      gt\n        /* \"#utility.yul\":7413:7530   */\n      iszero\n      tag_509\n      jumpi\n        /* \"#utility.yul\":7449:7528   */\n      tag_510\n      tag_384\n      jump\t// in\n    tag_510:\n        /* \"#utility.yul\":7413:7530   */\n    tag_509:\n        /* \"#utility.yul\":7563:7567   */\n      0x20\n        /* \"#utility.yul\":7555:7561   */\n      dup4\n        /* \"#utility.yul\":7551:7568   */\n      add\n        /* \"#utility.yul\":7539:7568   */\n      swap2\n      pop\n        /* \"#utility.yul\":7617:7620   */\n      dup4\n        /* \"#utility.yul\":7609:7613   */\n      0x01\n        /* \"#utility.yul\":7601:7607   */\n      dup3\n        /* \"#utility.yul\":7597:7614   */\n      mul\n        /* \"#utility.yul\":7587:7595   */\n      dup4\n        /* \"#utility.yul\":7583:7615   */\n      add\n        /* \"#utility.yul\":7580:7621   */\n      gt\n        /* \"#utility.yul\":7577:7705   */\n      iszero\n      tag_511\n      jumpi\n        /* \"#utility.yul\":7624:7703   */\n      tag_512\n      tag_385\n      jump\t// in\n    tag_512:\n        /* \"#utility.yul\":7577:7705   */\n    tag_511:\n        /* \"#utility.yul\":7159:7711   */\n      swap3\n      pop\n      swap3\n      swap1\n      pop\n      jump\t// out\n        /* \"#utility.yul\":7717:8528   */\n    tag_68:\n        /* \"#utility.yul\":7802:7808   */\n      0x00\n        /* \"#utility.yul\":7810:7816   */\n      dup1\n        /* \"#utility.yul\":7818:7824   */\n      0x00\n        /* \"#utility.yul\":7826:7832   */\n      dup1\n        /* \"#utility.yul\":7875:7877   */\n      0x60\n        /* \"#utility.yul\":7863:7872   */\n      dup6\n        /* \"#utility.yul\":7854:7861   */\n      dup8\n        /* \"#utility.yul\":7850:7873   */\n      sub\n        /* \"#utility.yul\":7846:7878   */\n      slt\n        /* \"#utility.yul\":7843:7962   */\n      iszero\n      tag_514\n      jumpi\n        /* \"#utility.yul\":7881:7960   */\n      tag_515\n      tag_363\n      jump\t// in\n    tag_515:\n        /* \"#utility.yul\":7843:7962   */\n    tag_514:\n        /* \"#utility.yul\":8001:8002   */\n      0x00\n        /* \"#utility.yul\":8026:8079   */\n      tag_516\n        /* \"#utility.yul\":8071:8078   */\n      dup8\n        /* \"#utility.yul\":8062:8068   */\n      dup3\n        /* \"#utility.yul\":8051:8060   */\n      dup9\n        /* \"#utility.yul\":8047:8069   */\n      add\n        /* \"#utility.yul\":8026:8079   */\n      tag_367\n      jump\t// in\n    tag_516:\n        /* \"#utility.yul\":8016:8079   */\n      swap5\n      pop\n        /* \"#utility.yul\":7972:8089   */\n      pop\n        /* \"#utility.yul\":8128:8130   */\n      0x20\n        /* \"#utility.yul\":8154:8204   */\n      tag_517\n        /* \"#utility.yul\":8196:8203   */\n      dup8\n        /* \"#utility.yul\":8187:8193   */\n      dup3\n        /* \"#utility.yul\":8176:8185   */\n      dup9\n        /* \"#utility.yul\":8172:8194   */\n      add\n        /* \"#utility.yul\":8154:8204   */\n      tag_382\n      jump\t// in\n    tag_517:\n        /* \"#utility.yul\":8144:8204   */\n      swap4\n      pop\n        /* \"#utility.yul\":8099:8214   */\n      pop\n        /* \"#utility.yul\":8281:8283   */\n      0x40\n        /* \"#utility.yul\":8270:8279   */\n      dup6\n        /* \"#utility.yul\":8266:8284   */\n      add\n        /* \"#utility.yul\":8253:8285   */\n      calldataload\n        /* \"#utility.yul\":8312:8330   */\n      0xffffffffffffffff\n        /* \"#utility.yul\":8304:8310   */\n      dup2\n        /* \"#utility.yul\":8301:8331   */\n      gt\n        /* \"#utility.yul\":8298:8415   */\n      iszero\n      tag_518\n      jumpi\n        /* \"#utility.yul\":8334:8413   */\n      tag_519\n      tag_364\n      jump\t// in\n    tag_519:\n        /* \"#utility.yul\":8298:8415   */\n    tag_518:\n        /* \"#utility.yul\":8447:8511   */\n      tag_520\n        /* \"#utility.yul\":8503:8510   */\n      dup8\n        /* \"#utility.yul\":8494:8500   */\n      dup3\n        /* \"#utility.yul\":8483:8492   */\n      dup9\n        /* \"#utility.yul\":8479:8501   */\n      add\n        /* \"#utility.yul\":8447:8511   */\n      tag_386\n      jump\t// in\n    tag_520:\n        /* \"#utility.yul\":8429:8511   */\n      swap3\n      pop\n      swap3\n      pop\n        /* \"#utility.yul\":8224:8521   */\n      pop\n        /* \"#utility.yul\":7717:8528   */\n      swap3\n      swap6\n      swap2\n      swap5\n      pop\n      swap3\n      pop\n      jump\t// out\n        /* \"#utility.yul\":8534:8656   */\n    tag_387:\n        /* \"#utility.yul\":8607:8631   */\n      tag_522\n        /* \"#utility.yul\":8625:8630   */\n      dup2\n        /* \"#utility.yul\":8607:8631   */\n      tag_376\n      jump\t// in\n    tag_522:\n        /* \"#utility.yul\":8600:8605   */\n      dup2\n        /* \"#utility.yul\":8597:8632   */\n      eq\n        /* \"#utility.yul\":8587:8650   */\n      tag_523\n      jumpi\n        /* \"#utility.yul\":8646:8647   */\n      0x00\n        /* \"#utility.yul\":8643:8644   */\n      dup1\n        /* \"#utility.yul\":8636:8648   */\n      revert\n        /* \"#utility.yul\":8587:8650   */\n    tag_523:\n        /* \"#utility.yul\":8534:8656   */\n      pop\n      jump\t// out\n        /* \"#utility.yul\":8662:8801   */\n    tag_388:\n        /* \"#utility.yul\":8708:8713   */\n      0x00\n        /* \"#utility.yul\":8746:8752   */\n      dup2\n        /* \"#utility.yul\":8733:8753   */\n      calldataload\n        /* \"#utility.yul\":8724:8753   */\n      swap1\n      pop\n        /* \"#utility.yul\":8762:8795   */\n      tag_525\n        /* \"#utility.yul\":8789:8794   */\n      dup2\n        /* \"#utility.yul\":8762:8795   */\n      tag_387\n      jump\t// in\n    tag_525:\n        /* \"#utility.yul\":8662:8801   */\n      swap3\n      swap2\n      pop\n      pop\n      jump\t// out\n        /* \"#utility.yul\":8807:9718   */\n    tag_72:\n        /* \"#utility.yul\":8902:8908   */\n      0x00\n        /* \"#utility.yul\":8910:8916   */\n      dup1\n        /* \"#utility.yul\":8918:8924   */\n      0x00\n        /* \"#utility.yul\":8926:8932   */\n      dup1\n        /* \"#utility.yul\":8934:8940   */\n      0x00\n        /* \"#utility.yul\":8983:8986   */\n      0xa0\n        /* \"#utility.yul\":8971:8980   */\n      dup7\n        /* \"#utility.yul\":8962:8969   */\n      dup9\n        /* \"#utility.yul\":8958:8981   */\n      sub\n        /* \"#utility.yul\":8954:8987   */\n      slt\n        /* \"#utility.yul\":8951:9071   */\n      iszero\n      tag_527\n      jumpi\n        /* \"#utility.yul\":8990:9069   */\n      tag_528\n      tag_363\n      jump\t// in\n    tag_528:\n        /* \"#utility.yul\":8951:9071   */\n    tag_527:\n        /* \"#utility.yul\":9110:9111   */\n      0x00\n        /* \"#utility.yul\":9135:9188   */\n      tag_529\n        /* \"#utility.yul\":9180:9187   */\n      dup9\n        /* \"#utility.yul\":9171:9177   */\n      dup3\n        /* \"#utility.yul\":9160:9169   */\n      dup10\n        /* \"#utility.yul\":9156:9178   */\n      add\n        /* \"#utility.yul\":9135:9188   */\n      tag_379\n      jump\t// in\n    tag_529:\n        /* \"#utility.yul\":9125:9188   */\n      swap6\n      pop\n        /* \"#utility.yul\":9081:9198   */\n      pop\n        /* \"#utility.yul\":9237:9239   */\n      0x20\n        /* \"#utility.yul\":9263:9316   */\n      tag_530\n        /* \"#utility.yul\":9308:9315   */\n      dup9\n        /* \"#utility.yul\":9299:9305   */\n      dup3\n        /* \"#utility.yul\":9288:9297   */\n      dup10\n        /* \"#utility.yul\":9284:9306   */\n      add\n        /* \"#utility.yul\":9263:9316   */\n      tag_367\n      jump\t// in\n    tag_530:\n        /* \"#utility.yul\":9253:9316   */\n      swap5\n      pop\n        /* \"#utility.yul\":9208:9326   */\n      pop\n        /* \"#utility.yul\":9365:9367   */\n      0x40\n        /* \"#utility.yul\":9391:9444   */\n      tag_531\n        /* \"#utility.yul\":9436:9443   */\n      dup9\n        /* \"#utility.yul\":9427:9433   */\n      dup3\n        /* \"#utility.yul\":9416:9425   */\n      dup10\n        /* \"#utility.yul\":9412:9434   */\n      add\n        /* \"#utility.yul\":9391:9444   */\n      tag_367\n      jump\t// in\n    tag_531:\n        /* \"#utility.yul\":9381:9444   */\n      swap4\n      pop\n        /* \"#utility.yul\":9336:9454   */\n      pop\n        /* \"#utility.yul\":9493:9495   */\n      0x60\n        /* \"#utility.yul\":9519:9572   */\n      tag_532\n        /* \"#utility.yul\":9564:9571   */\n      dup9\n        /* \"#utility.yul\":9555:9561   */\n      dup3\n        /* \"#utility.yul\":9544:9553   */\n      dup10\n        /* \"#utility.yul\":9540:9562   */\n      add\n        /* \"#utility.yul\":9519:9572   */\n      tag_388\n      jump\t// in\n    tag_532:\n        /* \"#utility.yul\":9509:9572   */\n      swap3\n      pop\n        /* \"#utility.yul\":9464:9582   */\n      pop\n        /* \"#utility.yul\":9621:9624   */\n      0x80\n        /* \"#utility.yul\":9648:9701   */\n      tag_533\n        /* \"#utility.yul\":9693:9700   */\n      dup9\n        /* \"#utility.yul\":9684:9690   */\n      dup3\n        /* \"#utility.yul\":9673:9682   */\n      dup10\n        /* \"#utility.yul\":9669:9691   */\n      add\n        /* \"#utility.yul\":9648:9701   */\n      tag_367\n      jump\t// in\n    tag_533:\n        /* \"#utility.yul\":9638:9701   */\n      swap2\n      pop\n        /* \"#utility.yul\":9592:9711   */\n      pop\n        /* \"#utility.yul\":8807:9718   */\n      swap3\n      swap6\n      pop\n      swap3\n      swap6\n      swap1\n      swap4\n      pop\n      jump\t// out\n        /* \"#utility.yul\":9724:9784   */\n    tag_389:\n        /* \"#utility.yul\":9752:9755   */\n      0x00\n        /* \"#utility.yul\":9773:9778   */\n      dup2\n        /* \"#utility.yul\":9766:9778   */\n      swap1\n      pop\n        /* \"#utility.yul\":9724:9784   */\n      swap2\n      swap1\n      pop\n      jump\t// out\n        /* \"#utility.yul\":9790:9932   */\n    tag_390:\n        /* \"#utility.yul\":9840:9849   */\n      0x00\n        /* \"#utility.yul\":9873:9926   */\n      tag_536\n        /* \"#utility.yul\":9891:9925   */\n      tag_537\n        /* \"#utility.yul\":9900:9924   */\n      tag_538\n        /* \"#utility.yul\":9918:9923   */\n      dup5\n        /* \"#utility.yul\":9900:9924   */\n      tag_369\n      jump\t// in\n    tag_538:\n        /* \"#utility.yul\":9891:9925   */\n      tag_389\n      jump\t// in\n    tag_537:\n        /* \"#utility.yul\":9873:9926   */\n      tag_369\n      jump\t// in\n    tag_536:\n        /* \"#utility.yul\":9860:9926   */\n      swap1\n      pop\n        /* \"#utility.yul\":9790:9932   */\n      swap2\n      swap1\n      pop\n      jump\t// out\n        /* \"#utility.yul\":9938:10064   */\n    tag_391:\n        /* \"#utility.yul\":9988:9997   */\n      0x00\n        /* \"#utility.yul\":10021:10058   */\n      tag_540\n        /* \"#utility.yul\":10052:10057   */\n      dup3\n        /* \"#utility.yul\":10021:10058   */\n      tag_390\n      jump\t// in\n    tag_540:\n        /* \"#utility.yul\":10008:10058   */\n      swap1\n      pop\n        /* \"#utility.yul\":9938:10064   */\n      swap2\n      swap1\n      pop\n      jump\t// out\n        /* \"#utility.yul\":10070:10223   */\n    tag_392:\n        /* \"#utility.yul\":10147:10156   */\n      0x00\n        /* \"#utility.yul\":10180:10217   */\n      tag_542\n        /* \"#utility.yul\":10211:10216   */\n      dup3\n        /* \"#utility.yul\":10180:10217   */\n      tag_391\n      jump\t// in\n    tag_542:\n        /* \"#utility.yul\":10167:10217   */\n      swap1\n      pop\n        /* \"#utility.yul\":10070:10223   */\n      swap2\n      swap1\n      pop\n      jump\t// out\n        /* \"#utility.yul\":10229:10414   */\n    tag_393:\n        /* \"#utility.yul\":10343:10407   */\n      tag_544\n        /* \"#utility.yul\":10401:10406   */\n      dup2\n        /* \"#utility.yul\":10343:10407   */\n      tag_392\n      jump\t// in\n    tag_544:\n        /* \"#utility.yul\":10338:10341   */\n      dup3\n        /* \"#utility.yul\":10331:10408   */\n      mstore\n        /* \"#utility.yul\":10229:10414   */\n      pop\n      pop\n      jump\t// out\n        /* \"#utility.yul\":10420:10696   */\n    tag_87:\n        /* \"#utility.yul\":10540:10544   */\n      0x00\n        /* \"#utility.yul\":10578:10580   */\n      0x20\n        /* \"#utility.yul\":10567:10576   */\n      dup3\n        /* \"#utility.yul\":10563:10581   */\n      add\n        /* \"#utility.yul\":10555:10581   */\n      swap1\n      pop\n        /* \"#utility.yul\":10591:10689   */\n      tag_546\n        /* \"#utility.yul\":10686:10687   */\n      0x00\n        /* \"#utility.yul\":10675:10684   */\n      dup4\n        /* \"#utility.yul\":10671:10688   */\n      add\n        /* \"#utility.yul\":10662:10668   */\n      dup5\n        /* \"#utility.yul\":10591:10689   */\n      tag_393\n      jump\t// in\n    tag_546:\n        /* \"#utility.yul\":10420:10696   */\n      swap3\n      swap2\n      pop\n      pop\n      jump\t// out\n        /* \"#utility.yul\":10702:11031   */\n    tag_90:\n        /* \"#utility.yul\":10761:10767   */\n      0x00\n        /* \"#utility.yul\":10810:10812   */\n      0x20\n        /* \"#utility.yul\":10798:10807   */\n      dup3\n        /* \"#utility.yul\":10789:10796   */\n      dup5\n        /* \"#utility.yul\":10785:10808   */\n      sub\n        /* \"#utility.yul\":10781:10813   */\n      slt\n        /* \"#utility.yul\":10778:10897   */\n      iszero\n      tag_548\n      jumpi\n        /* \"#utility.yul\":10816:10895   */\n      tag_549\n      tag_363\n      jump\t// in\n    tag_549:\n        /* \"#utility.yul\":10778:10897   */\n    tag_548:\n        /* \"#utility.yul\":10936:10937   */\n      0x00\n        /* \"#utility.yul\":10961:11014   */\n      tag_550\n        /* \"#utility.yul\":11006:11013   */\n      dup5\n        /* \"#utility.yul\":10997:11003   */\n      dup3\n        /* \"#utility.yul\":10986:10995   */\n      dup6\n        /* \"#utility.yul\":10982:11004   */\n      add\n        /* \"#utility.yul\":10961:11014   */\n      tag_379\n      jump\t// in\n    tag_550:\n        /* \"#utility.yul\":10951:11014   */\n      swap2\n      pop\n        /* \"#utility.yul\":10907:11024   */\n      pop\n        /* \"#utility.yul\":10702:11031   */\n      swap3\n      swap2\n      pop\n      pop\n      jump\t// out\n        /* \"#utility.yul\":11037:11802   */\n    tag_101:\n        /* \"#utility.yul\":11123:11129   */\n      0x00\n        /* \"#utility.yul\":11131:11137   */\n      dup1\n        /* \"#utility.yul\":11139:11145   */\n      0x00\n        /* \"#utility.yul\":11147:11153   */\n      dup1\n        /* \"#utility.yul\":11196:11199   */\n      0x80\n        /* \"#utility.yul\":11184:11193   */\n      dup6\n        /* \"#utility.yul\":11175:11182   */\n      dup8\n        /* \"#utility.yul\":11171:11194   */\n      sub\n        /* \"#utility.yul\":11167:11200   */\n      slt\n        /* \"#utility.yul\":11164:11284   */\n      iszero\n      tag_552\n      jumpi\n        /* \"#utility.yul\":11203:11282   */\n      tag_553\n      tag_363\n      jump\t// in\n    tag_553:\n        /* \"#utility.yul\":11164:11284   */\n    tag_552:\n        /* \"#utility.yul\":11323:11324   */\n      0x00\n        /* \"#utility.yul\":11348:11401   */\n      tag_554\n        /* \"#utility.yul\":11393:11400   */\n      dup8\n        /* \"#utility.yul\":11384:11390   */\n      dup3\n        /* \"#utility.yul\":11373:11382   */\n      dup9\n        /* \"#utility.yul\":11369:11391   */\n      add\n        /* \"#utility.yul\":11348:11401   */\n      tag_379\n      jump\t// in\n    tag_554:\n        /* \"#utility.yul\":11338:11401   */\n      swap5\n      pop\n        /* \"#utility.yul\":11294:11411   */\n      pop\n        /* \"#utility.yul\":11450:11452   */\n      0x20\n        /* \"#utility.yul\":11476:11529   */\n      tag_555\n        /* \"#utility.yul\":11521:11528   */\n      dup8\n        /* \"#utility.yul\":11512:11518   */\n      dup3\n        /* \"#utility.yul\":11501:11510   */\n      dup9\n        /* \"#utility.yul\":11497:11519   */\n      add\n        /* \"#utility.yul\":11476:11529   */\n      tag_367\n      jump\t// in\n    tag_555:\n        /* \"#utility.yul\":11466:11529   */\n      swap4\n      pop\n        /* \"#utility.yul\":11421:11539   */\n      pop\n        /* \"#utility.yul\":11578:11580   */\n      0x40\n        /* \"#utility.yul\":11604:11657   */\n      tag_556\n        /* \"#utility.yul\":11649:11656   */\n      dup8\n        /* \"#utility.yul\":11640:11646   */\n      dup3\n        /* \"#utility.yul\":11629:11638   */\n      dup9\n        /* \"#utility.yul\":11625:11647   */\n      add\n        /* \"#utility.yul\":11604:11657   */\n      tag_367\n      jump\t// in\n    tag_556:\n        /* \"#utility.yul\":11594:11657   */\n      swap3\n      pop\n        /* \"#utility.yul\":11549:11667   */\n      pop\n        /* \"#utility.yul\":11706:11708   */\n      0x60\n        /* \"#utility.yul\":11732:11785   */\n      tag_557\n        /* \"#utility.yul\":11777:11784   */\n      dup8\n        /* \"#utility.yul\":11768:11774   */\n      dup3\n        /* \"#utility.yul\":11757:11766   */\n      dup9\n        /* \"#utility.yul\":11753:11775   */\n      add\n        /* \"#utility.yul\":11732:11785   */\n      tag_367\n      jump\t// in\n    tag_557:\n        /* \"#utility.yul\":11722:11785   */\n      swap2\n      pop\n        /* \"#utility.yul\":11677:11795   */\n      pop\n        /* \"#utility.yul\":11037:11802   */\n      swap3\n      swap6\n      swap2\n      swap5\n      pop\n      swap3\n      pop\n      jump\t// out\n        /* \"#utility.yul\":11808:11947   */\n    tag_394:\n        /* \"#utility.yul\":11871:11880   */\n      0x00\n        /* \"#utility.yul\":11904:11941   */\n      tag_559\n        /* \"#utility.yul\":11935:11940   */\n      dup3\n        /* \"#utility.yul\":11904:11941   */\n      tag_391\n      jump\t// in\n    tag_559:\n        /* \"#utility.yul\":11891:11941   */\n      swap1\n      pop\n        /* \"#utility.yul\":11808:11947   */\n      swap2\n      swap1\n      pop\n      jump\t// out\n        /* \"#utility.yul\":11953:12110   */\n    tag_395:\n        /* \"#utility.yul\":12053:12103   */\n      tag_561\n        /* \"#utility.yul\":12097:12102   */\n      dup2\n        /* \"#utility.yul\":12053:12103   */\n      tag_394\n      jump\t// in\n    tag_561:\n        /* \"#utility.yul\":12048:12051   */\n      dup3\n        /* \"#utility.yul\":12041:12104   */\n      mstore\n        /* \"#utility.yul\":11953:12110   */\n      pop\n      pop\n      jump\t// out\n        /* \"#utility.yul\":12116:12364   */\n    tag_106:\n        /* \"#utility.yul\":12222:12226   */\n      0x00\n        /* \"#utility.yul\":12260:12262   */\n      0x20\n        /* \"#utility.yul\":12249:12258   */\n      dup3\n        /* \"#utility.yul\":12245:12263   */\n      add\n        /* \"#utility.yul\":12237:12263   */\n      swap1\n      pop\n        /* \"#utility.yul\":12273:12357   */\n      tag_563\n        /* \"#utility.yul\":12354:12355   */\n      0x00\n        /* \"#utility.yul\":12343:12352   */\n      dup4\n        /* \"#utility.yul\":12339:12356   */\n      add\n        /* \"#utility.yul\":12330:12336   */\n      dup5\n        /* \"#utility.yul\":12273:12357   */\n      tag_395\n      jump\t// in\n    tag_563:\n        /* \"#utility.yul\":12116:12364   */\n      swap3\n      swap2\n      pop\n      pop\n      jump\t// out\n        /* \"#utility.yul\":12370:12550   */\n    tag_115:\n        /* \"#utility.yul\":12418:12495   */\n      0x4e487b7100000000000000000000000000000000000000000000000000000000\n        /* \"#utility.yul\":12415:12416   */\n      0x00\n        /* \"#utility.yul\":12408:12496   */\n      mstore\n        /* \"#utility.yul\":12515:12519   */\n      0x32\n        /* \"#utility.yul\":12512:12513   */\n      0x04\n        /* \"#utility.yul\":12505:12520   */\n      mstore\n        /* \"#utility.yul\":12539:12543   */\n      0x24\n        /* \"#utility.yul\":12536:12537   */\n      0x00\n        /* \"#utility.yul\":12529:12544   */\n      revert\n        /* \"#utility.yul\":12556:12650   */\n    tag_396:\n        /* \"#utility.yul\":12589:12597   */\n      0x00\n        /* \"#utility.yul\":12637:12642   */\n      dup2\n        /* \"#utility.yul\":12633:12635   */\n      0x60\n        /* \"#utility.yul\":12629:12643   */\n      shl\n        /* \"#utility.yul\":12608:12643   */\n      swap1\n      pop\n        /* \"#utility.yul\":12556:12650   */\n      swap2\n      swap1\n      pop\n      jump\t// out\n        /* \"#utility.yul\":12656:12750   */\n    tag_397:\n        /* \"#utility.yul\":12695:12702   */\n      0x00\n        /* \"#utility.yul\":12724:12744   */\n      tag_567\n        /* \"#utility.yul\":12738:12743   */\n      dup3\n        /* \"#utility.yul\":12724:12744   */\n      tag_396\n      jump\t// in\n    tag_567:\n        /* \"#utility.yul\":12713:12744   */\n      swap1\n      pop\n        /* \"#utility.yul\":12656:12750   */\n      swap2\n      swap1\n      pop\n      jump\t// out\n        /* \"#utility.yul\":12756:12856   */\n    tag_398:\n        /* \"#utility.yul\":12795:12802   */\n      0x00\n        /* \"#utility.yul\":12824:12850   */\n      tag_569\n        /* \"#utility.yul\":12844:12849   */\n      dup3\n        /* \"#utility.yul\":12824:12850   */\n      tag_397\n      jump\t// in\n    tag_569:\n        /* \"#utility.yul\":12813:12850   */\n      swap1\n      pop\n        /* \"#utility.yul\":12756:12856   */\n      swap2\n      swap1\n      pop\n      jump\t// out\n        /* \"#utility.yul\":12862:13019   */\n    tag_399:\n        /* \"#utility.yul\":12967:13012   */\n      tag_571\n        /* \"#utility.yul\":12987:13011   */\n      tag_572\n        /* \"#utility.yul\":13005:13010   */\n      dup3\n        /* \"#utility.yul\":12987:13011   */\n      tag_370\n      jump\t// in\n    tag_572:\n        /* \"#utility.yul\":12967:13012   */\n      tag_398\n      jump\t// in\n    tag_571:\n        /* \"#utility.yul\":12962:12965   */\n      dup3\n        /* \"#utility.yul\":12955:13013   */\n      mstore\n        /* \"#utility.yul\":12862:13019   */\n      pop\n      pop\n      jump\t// out\n        /* \"#utility.yul\":13025:13104   */\n    tag_400:\n        /* \"#utility.yul\":13064:13071   */\n      0x00\n        /* \"#utility.yul\":13093:13098   */\n      dup2\n        /* \"#utility.yul\":13082:13098   */\n      swap1\n      pop\n        /* \"#utility.yul\":13025:13104   */\n      swap2\n      swap1\n      pop\n      jump\t// out\n        /* \"#utility.yul\":13110:13267   */\n    tag_401:\n        /* \"#utility.yul\":13215:13260   */\n      tag_575\n        /* \"#utility.yul\":13235:13259   */\n      tag_576\n        /* \"#utility.yul\":13253:13258   */\n      dup3\n        /* \"#utility.yul\":13235:13259   */\n      tag_365\n      jump\t// in\n    tag_576:\n        /* \"#utility.yul\":13215:13260   */\n      tag_400\n      jump\t// in\n    tag_575:\n        /* \"#utility.yul\":13210:13213   */\n      dup3\n        /* \"#utility.yul\":13203:13261   */\n      mstore\n        /* \"#utility.yul\":13110:13267   */\n      pop\n      pop\n      jump\t// out\n        /* \"#utility.yul\":13273:13369   */\n    tag_402:\n        /* \"#utility.yul\":13307:13315   */\n      0x00\n        /* \"#utility.yul\":13356:13361   */\n      dup2\n        /* \"#utility.yul\":13351:13354   */\n      0xf8\n        /* \"#utility.yul\":13347:13362   */\n      shl\n        /* \"#utility.yul\":13326:13362   */\n      swap1\n      pop\n        /* \"#utility.yul\":13273:13369   */\n      swap2\n      swap1\n      pop\n      jump\t// out\n        /* \"#utility.yul\":13375:13468   */\n    tag_403:\n        /* \"#utility.yul\":13412:13419   */\n      0x00\n        /* \"#utility.yul\":13441:13462   */\n      tag_579\n        /* \"#utility.yul\":13456:13461   */\n      dup3\n        /* \"#utility.yul\":13441:13462   */\n      tag_402\n      jump\t// in\n    tag_579:\n        /* \"#utility.yul\":13430:13462   */\n      swap1\n      pop\n        /* \"#utility.yul\":13375:13468   */\n      swap2\n      swap1\n      pop\n      jump\t// out\n        /* \"#utility.yul\":13474:13569   */\n    tag_404:\n        /* \"#utility.yul\":13510:13517   */\n      0x00\n        /* \"#utility.yul\":13539:13563   */\n      tag_581\n        /* \"#utility.yul\":13557:13562   */\n      dup3\n        /* \"#utility.yul\":13539:13563   */\n      tag_403\n      jump\t// in\n    tag_581:\n        /* \"#utility.yul\":13528:13563   */\n      swap1\n      pop\n        /* \"#utility.yul\":13474:13569   */\n      swap2\n      swap1\n      pop\n      jump\t// out\n        /* \"#utility.yul\":13575:13720   */\n    tag_405:\n        /* \"#utility.yul\":13674:13713   */\n      tag_583\n        /* \"#utility.yul\":13691:13712   */\n      tag_584\n        /* \"#utility.yul\":13706:13711   */\n      dup3\n        /* \"#utility.yul\":13691:13712   */\n      tag_380\n      jump\t// in\n    tag_584:\n        /* \"#utility.yul\":13674:13713   */\n      tag_404\n      jump\t// in\n    tag_583:\n        /* \"#utility.yul\":13669:13672   */\n      dup3\n        /* \"#utility.yul\":13662:13714   */\n      mstore\n        /* \"#utility.yul\":13575:13720   */\n      pop\n      pop\n      jump\t// out\n        /* \"#utility.yul\":13726:14251   */\n    tag_130:\n        /* \"#utility.yul\":13888:13891   */\n      0x00\n        /* \"#utility.yul\":13903:13978   */\n      tag_586\n        /* \"#utility.yul\":13974:13977   */\n      dup3\n        /* \"#utility.yul\":13965:13971   */\n      dup7\n        /* \"#utility.yul\":13903:13978   */\n      tag_399\n      jump\t// in\n    tag_586:\n        /* \"#utility.yul\":14003:14005   */\n      0x14\n        /* \"#utility.yul\":13998:14001   */\n      dup3\n        /* \"#utility.yul\":13994:14006   */\n      add\n        /* \"#utility.yul\":13987:14006   */\n      swap2\n      pop\n        /* \"#utility.yul\":14016:14091   */\n      tag_587\n        /* \"#utility.yul\":14087:14090   */\n      dup3\n        /* \"#utility.yul\":14078:14084   */\n      dup6\n        /* \"#utility.yul\":14016:14091   */\n      tag_401\n      jump\t// in\n    tag_587:\n        /* \"#utility.yul\":14116:14118   */\n      0x20\n        /* \"#utility.yul\":14111:14114   */\n      dup3\n        /* \"#utility.yul\":14107:14119   */\n      add\n        /* \"#utility.yul\":14100:14119   */\n      swap2\n      pop\n        /* \"#utility.yul\":14129:14198   */\n      tag_588\n        /* \"#utility.yul\":14194:14197   */\n      dup3\n        /* \"#utility.yul\":14185:14191   */\n      dup5\n        /* \"#utility.yul\":14129:14198   */\n      tag_405\n      jump\t// in\n    tag_588:\n        /* \"#utility.yul\":14223:14224   */\n      0x01\n        /* \"#utility.yul\":14218:14221   */\n      dup3\n        /* \"#utility.yul\":14214:14225   */\n      add\n        /* \"#utility.yul\":14207:14225   */\n      swap2\n      pop\n        /* \"#utility.yul\":14242:14245   */\n      dup2\n        /* \"#utility.yul\":14235:14245   */\n      swap1\n      pop\n        /* \"#utility.yul\":13726:14251   */\n      swap5\n      swap4\n      pop\n      pop\n      pop\n      pop\n      jump\t// out\n        /* \"#utility.yul\":14257:14437   */\n    tag_406:\n        /* \"#utility.yul\":14305:14382   */\n      0x4e487b7100000000000000000000000000000000000000000000000000000000\n        /* \"#utility.yul\":14302:14303   */\n      0x00\n        /* \"#utility.yul\":14295:14383   */\n      mstore\n        /* \"#utility.yul\":14402:14406   */\n      0x11\n        /* \"#utility.yul\":14399:14400   */\n      0x04\n        /* \"#utility.yul\":14392:14407   */\n      mstore\n        /* \"#utility.yul\":14426:14430   */\n      0x24\n        /* \"#utility.yul\":14423:14424   */\n      0x00\n        /* \"#utility.yul\":14416:14431   */\n      revert\n        /* \"#utility.yul\":14443:14634   */\n    tag_134:\n        /* \"#utility.yul\":14483:14486   */\n      0x00\n        /* \"#utility.yul\":14502:14522   */\n      tag_591\n        /* \"#utility.yul\":14520:14521   */\n      dup3\n        /* \"#utility.yul\":14502:14522   */\n      tag_365\n      jump\t// in\n    tag_591:\n        /* \"#utility.yul\":14497:14522   */\n      swap2\n      pop\n        /* \"#utility.yul\":14536:14556   */\n      tag_592\n        /* \"#utility.yul\":14554:14555   */\n      dup4\n        /* \"#utility.yul\":14536:14556   */\n      tag_365\n      jump\t// in\n    tag_592:\n        /* \"#utility.yul\":14531:14556   */\n      swap3\n      pop\n        /* \"#utility.yul\":14579:14580   */\n      dup3\n        /* \"#utility.yul\":14576:14577   */\n      dup3\n        /* \"#utility.yul\":14572:14581   */\n      add\n        /* \"#utility.yul\":14565:14581   */\n      swap1\n      pop\n        /* \"#utility.yul\":14600:14603   */\n      dup1\n        /* \"#utility.yul\":14597:14598   */\n      dup3\n        /* \"#utility.yul\":14594:14604   */\n      gt\n        /* \"#utility.yul\":14591:14627   */\n      iszero\n      tag_593\n      jumpi\n        /* \"#utility.yul\":14607:14625   */\n      tag_594\n      tag_406\n      jump\t// in\n    tag_594:\n        /* \"#utility.yul\":14591:14627   */\n    tag_593:\n        /* \"#utility.yul\":14443:14634   */\n      swap3\n      swap2\n      pop\n      pop\n      jump\t// out\n        /* \"#utility.yul\":14640:15050   */\n    tag_136:\n        /* \"#utility.yul\":14680:14687   */\n      0x00\n        /* \"#utility.yul\":14703:14723   */\n      tag_596\n        /* \"#utility.yul\":14721:14722   */\n      dup3\n        /* \"#utility.yul\":14703:14723   */\n      tag_365\n      jump\t// in\n    tag_596:\n        /* \"#utility.yul\":14698:14723   */\n      swap2\n      pop\n        /* \"#utility.yul\":14737:14757   */\n      tag_597\n        /* \"#utility.yul\":14755:14756   */\n      dup4\n        /* \"#utility.yul\":14737:14757   */\n      tag_365\n      jump\t// in\n    tag_597:\n        /* \"#utility.yul\":14732:14757   */\n      swap3\n      pop\n        /* \"#utility.yul\":14792:14793   */\n      dup3\n        /* \"#utility.yul\":14789:14790   */\n      dup3\n        /* \"#utility.yul\":14785:14794   */\n      mul\n        /* \"#utility.yul\":14814:14844   */\n      tag_598\n        /* \"#utility.yul\":14832:14843   */\n      dup2\n        /* \"#utility.yul\":14814:14844   */\n      tag_365\n      jump\t// in\n    tag_598:\n        /* \"#utility.yul\":14803:14844   */\n      swap2\n      pop\n        /* \"#utility.yul\":14993:14994   */\n      dup3\n        /* \"#utility.yul\":14984:14991   */\n      dup3\n        /* \"#utility.yul\":14980:14995   */\n      div\n        /* \"#utility.yul\":14977:14978   */\n      dup5\n        /* \"#utility.yul\":14974:14996   */\n      eq\n        /* \"#utility.yul\":14954:14955   */\n      dup4\n        /* \"#utility.yul\":14947:14956   */\n      iszero\n        /* \"#utility.yul\":14927:15010   */\n      or\n        /* \"#utility.yul\":14904:15043   */\n      tag_599\n      jumpi\n        /* \"#utility.yul\":15023:15041   */\n      tag_600\n      tag_406\n      jump\t// in\n    tag_600:\n        /* \"#utility.yul\":14904:15043   */\n    tag_599:\n        /* \"#utility.yul\":14688:15050   */\n      pop\n        /* \"#utility.yul\":14640:15050   */\n      swap3\n      swap2\n      pop\n      pop\n      jump\t// out\n        /* \"#utility.yul\":15056:15498   */\n    tag_161:\n        /* \"#utility.yul\":15205:15209   */\n      0x00\n        /* \"#utility.yul\":15243:15245   */\n      0x60\n        /* \"#utility.yul\":15232:15241   */\n      dup3\n        /* \"#utility.yul\":15228:15246   */\n      add\n        /* \"#utility.yul\":15220:15246   */\n      swap1\n      pop\n        /* \"#utility.yul\":15256:15327   */\n      tag_602\n        /* \"#utility.yul\":15324:15325   */\n      0x00\n        /* \"#utility.yul\":15313:15322   */\n      dup4\n        /* \"#utility.yul\":15309:15326   */\n      add\n        /* \"#utility.yul\":15300:15306   */\n      dup7\n        /* \"#utility.yul\":15256:15327   */\n      tag_371\n      jump\t// in\n    tag_602:\n        /* \"#utility.yul\":15337:15409   */\n      tag_603\n        /* \"#utility.yul\":15405:15407   */\n      0x20\n        /* \"#utility.yul\":15394:15403   */\n      dup4\n        /* \"#utility.yul\":15390:15408   */\n      add\n        /* \"#utility.yul\":15381:15387   */\n      dup6\n        /* \"#utility.yul\":15337:15409   */\n      tag_371\n      jump\t// in\n    tag_603:\n        /* \"#utility.yul\":15419:15491   */\n      tag_604\n        /* \"#utility.yul\":15487:15489   */\n      0x40\n        /* \"#utility.yul\":15476:15485   */\n      dup4\n        /* \"#utility.yul\":15472:15490   */\n      add\n        /* \"#utility.yul\":15463:15469   */\n      dup5\n        /* \"#utility.yul\":15419:15491   */\n      tag_368\n      jump\t// in\n    tag_604:\n        /* \"#utility.yul\":15056:15498   */\n      swap5\n      swap4\n      pop\n      pop\n      pop\n      pop\n      jump\t// out\n        /* \"#utility.yul\":15504:15673   */\n    tag_407:\n        /* \"#utility.yul\":15588:15599   */\n      0x00\n        /* \"#utility.yul\":15622:15628   */\n      dup3\n        /* \"#utility.yul\":15617:15620   */\n      dup3\n        /* \"#utility.yul\":15610:15629   */\n      mstore\n        /* \"#utility.yul\":15662:15666   */\n      0x20\n        /* \"#utility.yul\":15657:15660   */\n      dup3\n        /* \"#utility.yul\":15653:15667   */\n      add\n        /* \"#utility.yul\":15638:15667   */\n      swap1\n      pop\n        /* \"#utility.yul\":15504:15673   */\n      swap3\n      swap2\n      pop\n      pop\n      jump\t// out\n        /* \"#utility.yul\":15679:15839   */\n    tag_408:\n        /* \"#utility.yul\":15819:15831   */\n      0x6973206e6f742050744400000000000000000000000000000000000000000000\n        /* \"#utility.yul\":15815:15816   */\n      0x00\n        /* \"#utility.yul\":15807:15813   */\n      dup3\n        /* \"#utility.yul\":15803:15817   */\n      add\n        /* \"#utility.yul\":15796:15832   */\n      mstore\n        /* \"#utility.yul\":15679:15839   */\n      pop\n      jump\t// out\n        /* \"#utility.yul\":15845:16211   */\n    tag_409:\n        /* \"#utility.yul\":15987:15990   */\n      0x00\n        /* \"#utility.yul\":16008:16075   */\n      tag_608\n        /* \"#utility.yul\":16072:16074   */\n      0x0a\n        /* \"#utility.yul\":16067:16070   */\n      dup4\n        /* \"#utility.yul\":16008:16075   */\n      tag_407\n      jump\t// in\n    tag_608:\n        /* \"#utility.yul\":16001:16075   */\n      swap2\n      pop\n        /* \"#utility.yul\":16084:16177   */\n      tag_609\n        /* \"#utility.yul\":16173:16176   */\n      dup3\n        /* \"#utility.yul\":16084:16177   */\n      tag_408\n      jump\t// in\n    tag_609:\n        /* \"#utility.yul\":16202:16204   */\n      0x20\n        /* \"#utility.yul\":16197:16200   */\n      dup3\n        /* \"#utility.yul\":16193:16205   */\n      add\n        /* \"#utility.yul\":16186:16205   */\n      swap1\n      pop\n        /* \"#utility.yul\":15845:16211   */\n      swap2\n      swap1\n      pop\n      jump\t// out\n        /* \"#utility.yul\":16217:16636   */\n    tag_179:\n        /* \"#utility.yul\":16383:16387   */\n      0x00\n        /* \"#utility.yul\":16421:16423   */\n      0x20\n        /* \"#utility.yul\":16410:16419   */\n      dup3\n        /* \"#utility.yul\":16406:16424   */\n      add\n        /* \"#utility.yul\":16398:16424   */\n      swap1\n      pop\n        /* \"#utility.yul\":16470:16479   */\n      dup2\n        /* \"#utility.yul\":16464:16468   */\n      dup2\n        /* \"#utility.yul\":16460:16480   */\n      sub\n        /* \"#utility.yul\":16456:16457   */\n      0x00\n        /* \"#utility.yul\":16445:16454   */\n      dup4\n        /* \"#utility.yul\":16441:16458   */\n      add\n        /* \"#utility.yul\":16434:16481   */\n      mstore\n        /* \"#utility.yul\":16498:16629   */\n      tag_611\n        /* \"#utility.yul\":16624:16628   */\n      dup2\n        /* \"#utility.yul\":16498:16629   */\n      tag_409\n      jump\t// in\n    tag_611:\n        /* \"#utility.yul\":16490:16629   */\n      swap1\n      pop\n        /* \"#utility.yul\":16217:16636   */\n      swap2\n      swap1\n      pop\n      jump\t// out\n        /* \"#utility.yul\":16642:16805   */\n    tag_410:\n        /* \"#utility.yul\":16782:16797   */\n      0x616c726561647920766f74656400000000000000000000000000000000000000\n        /* \"#utility.yul\":16778:16779   */\n      0x00\n        /* \"#utility.yul\":16770:16776   */\n      dup3\n        /* \"#utility.yul\":16766:16780   */\n      add\n        /* \"#utility.yul\":16759:16798   */\n      mstore\n        /* \"#utility.yul\":16642:16805   */\n      pop\n      jump\t// out\n        /* \"#utility.yul\":16811:17177   */\n    tag_411:\n        /* \"#utility.yul\":16953:16956   */\n      0x00\n        /* \"#utility.yul\":16974:17041   */\n      tag_614\n        /* \"#utility.yul\":17038:17040   */\n      0x0d\n        /* \"#utility.yul\":17033:17036   */\n      dup4\n        /* \"#utility.yul\":16974:17041   */\n      tag_407\n      jump\t// in\n    tag_614:\n        /* \"#utility.yul\":16967:17041   */\n      swap2\n      pop\n        /* \"#utility.yul\":17050:17143   */\n      tag_615\n        /* \"#utility.yul\":17139:17142   */\n      dup3\n        /* \"#utility.yul\":17050:17143   */\n      tag_410\n      jump\t// in\n    tag_615:\n        /* \"#utility.yul\":17168:17170   */\n      0x20\n        /* \"#utility.yul\":17163:17166   */\n      dup3\n        /* \"#utility.yul\":17159:17171   */\n      add\n        /* \"#utility.yul\":17152:17171   */\n      swap1\n      pop\n        /* \"#utility.yul\":16811:17177   */\n      swap2\n      swap1\n      pop\n      jump\t// out\n        /* \"#utility.yul\":17183:17602   */\n    tag_186:\n        /* \"#utility.yul\":17349:17353   */\n      0x00\n        /* \"#utility.yul\":17387:17389   */\n      0x20\n        /* \"#utility.yul\":17376:17385   */\n      dup3\n        /* \"#utility.yul\":17372:17390   */\n      add\n        /* \"#utility.yul\":17364:17390   */\n      swap1\n      pop\n        /* \"#utility.yul\":17436:17445   */\n      dup2\n        /* \"#utility.yul\":17430:17434   */\n      dup2\n        /* \"#utility.yul\":17426:17446   */\n      sub\n        /* \"#utility.yul\":17422:17423   */\n      0x00\n        /* \"#utility.yul\":17411:17420   */\n      dup4\n        /* \"#utility.yul\":17407:17424   */\n      add\n        /* \"#utility.yul\":17400:17447   */\n      mstore\n        /* \"#utility.yul\":17464:17595   */\n      tag_617\n        /* \"#utility.yul\":17590:17594   */\n      dup2\n        /* \"#utility.yul\":17464:17595   */\n      tag_411\n      jump\t// in\n    tag_617:\n        /* \"#utility.yul\":17456:17595   */\n      swap1\n      pop\n        /* \"#utility.yul\":17183:17602   */\n      swap2\n      swap1\n      pop\n      jump\t// out\n        /* \"#utility.yul\":17608:17788   */\n    tag_412:\n        /* \"#utility.yul\":17656:17733   */\n      0x4e487b7100000000000000000000000000000000000000000000000000000000\n        /* \"#utility.yul\":17653:17654   */\n      0x00\n        /* \"#utility.yul\":17646:17734   */\n      mstore\n        /* \"#utility.yul\":17753:17757   */\n      0x12\n        /* \"#utility.yul\":17750:17751   */\n      0x04\n        /* \"#utility.yul\":17743:17758   */\n      mstore\n        /* \"#utility.yul\":17777:17781   */\n      0x24\n        /* \"#utility.yul\":17774:17775   */\n      0x00\n        /* \"#utility.yul\":17767:17782   */\n      revert\n        /* \"#utility.yul\":17794:17979   */\n    tag_192:\n        /* \"#utility.yul\":17834:17835   */\n      0x00\n        /* \"#utility.yul\":17851:17871   */\n      tag_620\n        /* \"#utility.yul\":17869:17870   */\n      dup3\n        /* \"#utility.yul\":17851:17871   */\n      tag_365\n      jump\t// in\n    tag_620:\n        /* \"#utility.yul\":17846:17871   */\n      swap2\n      pop\n        /* \"#utility.yul\":17885:17905   */\n      tag_621\n        /* \"#utility.yul\":17903:17904   */\n      dup4\n        /* \"#utility.yul\":17885:17905   */\n      tag_365\n      jump\t// in\n    tag_621:\n        /* \"#utility.yul\":17880:17905   */\n      swap3\n      pop\n        /* \"#utility.yul\":17924:17925   */\n      dup3\n        /* \"#utility.yul\":17914:17949   */\n      tag_622\n      jumpi\n        /* \"#utility.yul\":17929:17947   */\n      tag_623\n      tag_412\n      jump\t// in\n    tag_623:\n        /* \"#utility.yul\":17914:17949   */\n    tag_622:\n        /* \"#utility.yul\":17971:17972   */\n      dup3\n        /* \"#utility.yul\":17968:17969   */\n      dup3\n        /* \"#utility.yul\":17964:17973   */\n      div\n        /* \"#utility.yul\":17959:17973   */\n      swap1\n      pop\n        /* \"#utility.yul\":17794:17979   */\n      swap3\n      swap2\n      pop\n      pop\n      jump\t// out\n        /* \"#utility.yul\":17985:18122   */\n    tag_413:\n        /* \"#utility.yul\":18039:18044   */\n      0x00\n        /* \"#utility.yul\":18070:18076   */\n      dup2\n        /* \"#utility.yul\":18064:18077   */\n      mload\n        /* \"#utility.yul\":18055:18077   */\n      swap1\n      pop\n        /* \"#utility.yul\":18086:18116   */\n      tag_625\n        /* \"#utility.yul\":18110:18115   */\n      dup2\n        /* \"#utility.yul\":18086:18116   */\n      tag_381\n      jump\t// in\n    tag_625:\n        /* \"#utility.yul\":17985:18122   */\n      swap3\n      swap2\n      pop\n      pop\n      jump\t// out\n        /* \"#utility.yul\":18128:18473   */\n    tag_207:\n        /* \"#utility.yul\":18195:18201   */\n      0x00\n        /* \"#utility.yul\":18244:18246   */\n      0x20\n        /* \"#utility.yul\":18232:18241   */\n      dup3\n        /* \"#utility.yul\":18223:18230   */\n      dup5\n        /* \"#utility.yul\":18219:18242   */\n      sub\n        /* \"#utility.yul\":18215:18247   */\n      slt\n        /* \"#utility.yul\":18212:18331   */\n      iszero\n      tag_627\n      jumpi\n        /* \"#utility.yul\":18250:18329   */\n      tag_628\n      tag_363\n      jump\t// in\n    tag_628:\n        /* \"#utility.yul\":18212:18331   */\n    tag_627:\n        /* \"#utility.yul\":18370:18371   */\n      0x00\n        /* \"#utility.yul\":18395:18456   */\n      tag_629\n        /* \"#utility.yul\":18448:18455   */\n      dup5\n        /* \"#utility.yul\":18439:18445   */\n      dup3\n        /* \"#utility.yul\":18428:18437   */\n      dup6\n        /* \"#utility.yul\":18424:18446   */\n      add\n        /* \"#utility.yul\":18395:18456   */\n      tag_413\n      jump\t// in\n    tag_629:\n        /* \"#utility.yul\":18385:18456   */\n      swap2\n      pop\n        /* \"#utility.yul\":18341:18466   */\n      pop\n        /* \"#utility.yul\":18128:18473   */\n      swap3\n      swap2\n      pop\n      pop\n      jump\t// out\n        /* \"#utility.yul\":18479:18811   */\n    tag_216:\n        /* \"#utility.yul\":18600:18604   */\n      0x00\n        /* \"#utility.yul\":18638:18640   */\n      0x40\n        /* \"#utility.yul\":18627:18636   */\n      dup3\n        /* \"#utility.yul\":18623:18641   */\n      add\n        /* \"#utility.yul\":18615:18641   */\n      swap1\n      pop\n        /* \"#utility.yul\":18651:18722   */\n      tag_631\n        /* \"#utility.yul\":18719:18720   */\n      0x00\n        /* \"#utility.yul\":18708:18717   */\n      dup4\n        /* \"#utility.yul\":18704:18721   */\n      add\n        /* \"#utility.yul\":18695:18701   */\n      dup6\n        /* \"#utility.yul\":18651:18722   */\n      tag_377\n      jump\t// in\n    tag_631:\n        /* \"#utility.yul\":18732:18804   */\n      tag_632\n        /* \"#utility.yul\":18800:18802   */\n      0x20\n        /* \"#utility.yul\":18789:18798   */\n      dup4\n        /* \"#utility.yul\":18785:18803   */\n      add\n        /* \"#utility.yul\":18776:18782   */\n      dup5\n        /* \"#utility.yul\":18732:18804   */\n      tag_377\n      jump\t// in\n    tag_632:\n        /* \"#utility.yul\":18479:18811   */\n      swap4\n      swap3\n      pop\n      pop\n      pop\n      jump\t// out\n        /* \"#utility.yul\":18817:19011   */\n    tag_226:\n        /* \"#utility.yul\":18857:18861   */\n      0x00\n        /* \"#utility.yul\":18877:18897   */\n      tag_634\n        /* \"#utility.yul\":18895:18896   */\n      dup3\n        /* \"#utility.yul\":18877:18897   */\n      tag_365\n      jump\t// in\n    tag_634:\n        /* \"#utility.yul\":18872:18897   */\n      swap2\n      pop\n        /* \"#utility.yul\":18911:18931   */\n      tag_635\n        /* \"#utility.yul\":18929:18930   */\n      dup4\n        /* \"#utility.yul\":18911:18931   */\n      tag_365\n      jump\t// in\n    tag_635:\n        /* \"#utility.yul\":18906:18931   */\n      swap3\n      pop\n        /* \"#utility.yul\":18955:18956   */\n      dup3\n        /* \"#utility.yul\":18952:18953   */\n      dup3\n        /* \"#utility.yul\":18948:18957   */\n      sub\n        /* \"#utility.yul\":18940:18957   */\n      swap1\n      pop\n        /* \"#utility.yul\":18979:18980   */\n      dup2\n        /* \"#utility.yul\":18973:18977   */\n      dup2\n        /* \"#utility.yul\":18970:18981   */\n      gt\n        /* \"#utility.yul\":18967:19004   */\n      iszero\n      tag_636\n      jumpi\n        /* \"#utility.yul\":18984:19002   */\n      tag_637\n      tag_406\n      jump\t// in\n    tag_637:\n        /* \"#utility.yul\":18967:19004   */\n    tag_636:\n        /* \"#utility.yul\":18817:19011   */\n      swap3\n      swap2\n      pop\n      pop\n      jump\t// out\n        /* \"#utility.yul\":19017:19349   */\n    tag_228:\n        /* \"#utility.yul\":19138:19142   */\n      0x00\n        /* \"#utility.yul\":19176:19178   */\n      0x40\n        /* \"#utility.yul\":19165:19174   */\n      dup3\n        /* \"#utility.yul\":19161:19179   */\n      add\n        /* \"#utility.yul\":19153:19179   */\n      swap1\n      pop\n        /* \"#utility.yul\":19189:19260   */\n      tag_639\n        /* \"#utility.yul\":19257:19258   */\n      0x00\n        /* \"#utility.yul\":19246:19255   */\n      dup4\n        /* \"#utility.yul\":19242:19259   */\n      add\n        /* \"#utility.yul\":19233:19239   */\n      dup6\n        /* \"#utility.yul\":19189:19260   */\n      tag_368\n      jump\t// in\n    tag_639:\n        /* \"#utility.yul\":19270:19342   */\n      tag_640\n        /* \"#utility.yul\":19338:19340   */\n      0x20\n        /* \"#utility.yul\":19327:19336   */\n      dup4\n        /* \"#utility.yul\":19323:19341   */\n      add\n        /* \"#utility.yul\":19314:19320   */\n      dup5\n        /* \"#utility.yul\":19270:19342   */\n      tag_368\n      jump\t// in\n    tag_640:\n        /* \"#utility.yul\":19017:19349   */\n      swap4\n      swap3\n      pop\n      pop\n      pop\n      jump\t// out\n        /* \"#utility.yul\":19355:19797   */\n    tag_276:\n        /* \"#utility.yul\":19504:19508   */\n      0x00\n        /* \"#utility.yul\":19542:19544   */\n      0x60\n        /* \"#utility.yul\":19531:19540   */\n      dup3\n        /* \"#utility.yul\":19527:19545   */\n      add\n        /* \"#utility.yul\":19519:19545   */\n      swap1\n      pop\n        /* \"#utility.yul\":19555:19626   */\n      tag_642\n        /* \"#utility.yul\":19623:19624   */\n      0x00\n        /* \"#utility.yul\":19612:19621   */\n      dup4\n        /* \"#utility.yul\":19608:19625   */\n      add\n        /* \"#utility.yul\":19599:19605   */\n      dup7\n        /* \"#utility.yul\":19555:19626   */\n      tag_371\n      jump\t// in\n    tag_642:\n        /* \"#utility.yul\":19636:19708   */\n      tag_643\n        /* \"#utility.yul\":19704:19706   */\n      0x20\n        /* \"#utility.yul\":19693:19702   */\n      dup4\n        /* \"#utility.yul\":19689:19707   */\n      add\n        /* \"#utility.yul\":19680:19686   */\n      dup6\n        /* \"#utility.yul\":19636:19708   */\n      tag_368\n      jump\t// in\n    tag_643:\n        /* \"#utility.yul\":19718:19790   */\n      tag_644\n        /* \"#utility.yul\":19786:19788   */\n      0x40\n        /* \"#utility.yul\":19775:19784   */\n      dup4\n        /* \"#utility.yul\":19771:19789   */\n      add\n        /* \"#utility.yul\":19762:19768   */\n      dup5\n        /* \"#utility.yul\":19718:19790   */\n      tag_368\n      jump\t// in\n    tag_644:\n        /* \"#utility.yul\":19355:19797   */\n      swap5\n      swap4\n      pop\n      pop\n      pop\n      pop\n      jump\t// out\n        /* \"#utility.yul\":19803:19901   */\n    tag_414:\n        /* \"#utility.yul\":19854:19860   */\n      0x00\n        /* \"#utility.yul\":19888:19893   */\n      dup2\n        /* \"#utility.yul\":19882:19894   */\n      mload\n        /* \"#utility.yul\":19872:19894   */\n      swap1\n      pop\n        /* \"#utility.yul\":19803:19901   */\n      swap2\n      swap1\n      pop\n      jump\t// out\n        /* \"#utility.yul\":19907:20075   */\n    tag_415:\n        /* \"#utility.yul\":19990:20001   */\n      0x00\n        /* \"#utility.yul\":20024:20030   */\n      dup3\n        /* \"#utility.yul\":20019:20022   */\n      dup3\n        /* \"#utility.yul\":20012:20031   */\n      mstore\n        /* \"#utility.yul\":20064:20068   */\n      0x20\n        /* \"#utility.yul\":20059:20062   */\n      dup3\n        /* \"#utility.yul\":20055:20069   */\n      add\n        /* \"#utility.yul\":20040:20069   */\n      swap1\n      pop\n        /* \"#utility.yul\":19907:20075   */\n      swap3\n      swap2\n      pop\n      pop\n      jump\t// out\n        /* \"#utility.yul\":20081:20327   */\n    tag_416:\n        /* \"#utility.yul\":20162:20163   */\n      0x00\n        /* \"#utility.yul\":20172:20285   */\n    tag_648:\n        /* \"#utility.yul\":20186:20192   */\n      dup4\n        /* \"#utility.yul\":20183:20184   */\n      dup2\n        /* \"#utility.yul\":20180:20193   */\n      lt\n        /* \"#utility.yul\":20172:20285   */\n      iszero\n      tag_650\n      jumpi\n        /* \"#utility.yul\":20271:20272   */\n      dup1\n        /* \"#utility.yul\":20266:20269   */\n      dup3\n        /* \"#utility.yul\":20262:20273   */\n      add\n        /* \"#utility.yul\":20256:20274   */\n      mload\n        /* \"#utility.yul\":20252:20253   */\n      dup2\n        /* \"#utility.yul\":20247:20250   */\n      dup5\n        /* \"#utility.yul\":20243:20254   */\n      add\n        /* \"#utility.yul\":20236:20275   */\n      mstore\n        /* \"#utility.yul\":20208:20210   */\n      0x20\n        /* \"#utility.yul\":20205:20206   */\n      dup2\n        /* \"#utility.yul\":20201:20211   */\n      add\n        /* \"#utility.yul\":20196:20211   */\n      swap1\n      pop\n        /* \"#utility.yul\":20172:20285   */\n      jump(tag_648)\n    tag_650:\n        /* \"#utility.yul\":20319:20320   */\n      0x00\n        /* \"#utility.yul\":20310:20316   */\n      dup5\n        /* \"#utility.yul\":20305:20308   */\n      dup5\n        /* \"#utility.yul\":20301:20317   */\n      add\n        /* \"#utility.yul\":20294:20321   */\n      mstore\n        /* \"#utility.yul\":20143:20327   */\n      pop\n        /* \"#utility.yul\":20081:20327   */\n      pop\n      pop\n      pop\n      jump\t// out\n        /* \"#utility.yul\":20333:20435   */\n    tag_417:\n        /* \"#utility.yul\":20374:20380   */\n      0x00\n        /* \"#utility.yul\":20425:20427   */\n      0x1f\n        /* \"#utility.yul\":20421:20428   */\n      not\n        /* \"#utility.yul\":20416:20418   */\n      0x1f\n        /* \"#utility.yul\":20409:20414   */\n      dup4\n        /* \"#utility.yul\":20405:20419   */\n      add\n        /* \"#utility.yul\":20401:20429   */\n      and\n        /* \"#utility.yul\":20391:20429   */\n      swap1\n      pop\n        /* \"#utility.yul\":20333:20435   */\n      swap2\n      swap1\n      pop\n      jump\t// out\n        /* \"#utility.yul\":20441:20814   */\n    tag_418:\n        /* \"#utility.yul\":20527:20530   */\n      0x00\n        /* \"#utility.yul\":20555:20593   */\n      tag_653\n        /* \"#utility.yul\":20587:20592   */\n      dup3\n        /* \"#utility.yul\":20555:20593   */\n      tag_414\n      jump\t// in\n    tag_653:\n        /* \"#utility.yul\":20609:20679   */\n      tag_654\n        /* \"#utility.yul\":20672:20678   */\n      dup2\n        /* \"#utility.yul\":20667:20670   */\n      dup6\n        /* \"#utility.yul\":20609:20679   */\n      tag_415\n      jump\t// in\n    tag_654:\n        /* \"#utility.yul\":20602:20679   */\n      swap4\n      pop\n        /* \"#utility.yul\":20688:20753   */\n      tag_655\n        /* \"#utility.yul\":20746:20752   */\n      dup2\n        /* \"#utility.yul\":20741:20744   */\n      dup6\n        /* \"#utility.yul\":20734:20738   */\n      0x20\n        /* \"#utility.yul\":20727:20732   */\n      dup7\n        /* \"#utility.yul\":20723:20739   */\n      add\n        /* \"#utility.yul\":20688:20753   */\n      tag_416\n      jump\t// in\n    tag_655:\n        /* \"#utility.yul\":20778:20807   */\n      tag_656\n        /* \"#utility.yul\":20800:20806   */\n      dup2\n        /* \"#utility.yul\":20778:20807   */\n      tag_417\n      jump\t// in\n    tag_656:\n        /* \"#utility.yul\":20773:20776   */\n      dup5\n        /* \"#utility.yul\":20769:20808   */\n      add\n        /* \"#utility.yul\":20762:20808   */\n      swap2\n      pop\n        /* \"#utility.yul\":20531:20814   */\n      pop\n        /* \"#utility.yul\":20441:20814   */\n      swap3\n      swap2\n      pop\n      pop\n      jump\t// out\n        /* \"#utility.yul\":20820:21239   */\n    tag_333:\n        /* \"#utility.yul\":20959:20963   */\n      0x00\n        /* \"#utility.yul\":20997:20999   */\n      0x40\n        /* \"#utility.yul\":20986:20995   */\n      dup3\n        /* \"#utility.yul\":20982:21000   */\n      add\n        /* \"#utility.yul\":20974:21000   */\n      swap1\n      pop\n        /* \"#utility.yul\":21010:21081   */\n      tag_658\n        /* \"#utility.yul\":21078:21079   */\n      0x00\n        /* \"#utility.yul\":21067:21076   */\n      dup4\n        /* \"#utility.yul\":21063:21080   */\n      add\n        /* \"#utility.yul\":21054:21060   */\n      dup6\n        /* \"#utility.yul\":21010:21081   */\n      tag_377\n      jump\t// in\n    tag_658:\n        /* \"#utility.yul\":21128:21137   */\n      dup2\n        /* \"#utility.yul\":21122:21126   */\n      dup2\n        /* \"#utility.yul\":21118:21138   */\n      sub\n        /* \"#utility.yul\":21113:21115   */\n      0x20\n        /* \"#utility.yul\":21102:21111   */\n      dup4\n        /* \"#utility.yul\":21098:21116   */\n      add\n        /* \"#utility.yul\":21091:21139   */\n      mstore\n        /* \"#utility.yul\":21156:21232   */\n      tag_659\n        /* \"#utility.yul\":21227:21231   */\n      dup2\n        /* \"#utility.yul\":21218:21224   */\n      dup5\n        /* \"#utility.yul\":21156:21232   */\n      tag_418\n      jump\t// in\n    tag_659:\n        /* \"#utility.yul\":21148:21232   */\n      swap1\n      pop\n        /* \"#utility.yul\":20820:21239   */\n      swap4\n      swap3\n      pop\n      pop\n      pop\n      jump\t// out\n        /* \"#utility.yul\":21245:21392   */\n    tag_419:\n        /* \"#utility.yul\":21346:21357   */\n      0x00\n        /* \"#utility.yul\":21383:21386   */\n      dup2\n        /* \"#utility.yul\":21368:21386   */\n      swap1\n      pop\n        /* \"#utility.yul\":21245:21392   */\n      swap3\n      swap2\n      pop\n      pop\n      jump\t// out\n        /* \"#utility.yul\":21398:21784   */\n    tag_420:\n        /* \"#utility.yul\":21502:21505   */\n      0x00\n        /* \"#utility.yul\":21530:21568   */\n      tag_662\n        /* \"#utility.yul\":21562:21567   */\n      dup3\n        /* \"#utility.yul\":21530:21568   */\n      tag_414\n      jump\t// in\n    tag_662:\n        /* \"#utility.yul\":21584:21672   */\n      tag_663\n        /* \"#utility.yul\":21665:21671   */\n      dup2\n        /* \"#utility.yul\":21660:21663   */\n      dup6\n        /* \"#utility.yul\":21584:21672   */\n      tag_419\n      jump\t// in\n    tag_663:\n        /* \"#utility.yul\":21577:21672   */\n      swap4\n      pop\n        /* \"#utility.yul\":21681:21746   */\n      tag_664\n        /* \"#utility.yul\":21739:21745   */\n      dup2\n        /* \"#utility.yul\":21734:21737   */\n      dup6\n        /* \"#utility.yul\":21727:21731   */\n      0x20\n        /* \"#utility.yul\":21720:21725   */\n      dup7\n        /* \"#utility.yul\":21716:21732   */\n      add\n        /* \"#utility.yul\":21681:21746   */\n      tag_416\n      jump\t// in\n    tag_664:\n        /* \"#utility.yul\":21771:21777   */\n      dup1\n        /* \"#utility.yul\":21766:21769   */\n      dup5\n        /* \"#utility.yul\":21762:21778   */\n      add\n        /* \"#utility.yul\":21755:21778   */\n      swap2\n      pop\n        /* \"#utility.yul\":21506:21784   */\n      pop\n        /* \"#utility.yul\":21398:21784   */\n      swap3\n      swap2\n      pop\n      pop\n      jump\t// out\n        /* \"#utility.yul\":21790:22061   */\n    tag_335:\n        /* \"#utility.yul\":21920:21923   */\n      0x00\n        /* \"#utility.yul\":21942:22035   */\n      tag_666\n        /* \"#utility.yul\":22031:22034   */\n      dup3\n        /* \"#utility.yul\":22022:22028   */\n      dup5\n        /* \"#utility.yul\":21942:22035   */\n      tag_420\n      jump\t// in\n    tag_666:\n        /* \"#utility.yul\":21935:22035   */\n      swap2\n      pop\n        /* \"#utility.yul\":22052:22055   */\n      dup2\n        /* \"#utility.yul\":22045:22055   */\n      swap1\n      pop\n        /* \"#utility.yul\":21790:22061   */\n      swap3\n      swap2\n      pop\n      pop\n      jump\t// out\n        /* \"#utility.yul\":22067:22210   */\n    tag_421:\n        /* \"#utility.yul\":22124:22129   */\n      0x00\n        /* \"#utility.yul\":22155:22161   */\n      dup2\n        /* \"#utility.yul\":22149:22162   */\n      mload\n        /* \"#utility.yul\":22140:22162   */\n      swap1\n      pop\n        /* \"#utility.yul\":22171:22204   */\n      tag_668\n        /* \"#utility.yul\":22198:22203   */\n      dup2\n        /* \"#utility.yul\":22171:22204   */\n      tag_387\n      jump\t// in\n    tag_668:\n        /* \"#utility.yul\":22067:22210   */\n      swap3\n      swap2\n      pop\n      pop\n      jump\t// out\n        /* \"#utility.yul\":22216:22567   */\n    tag_342:\n        /* \"#utility.yul\":22286:22292   */\n      0x00\n        /* \"#utility.yul\":22335:22337   */\n      0x20\n        /* \"#utility.yul\":22323:22332   */\n      dup3\n        /* \"#utility.yul\":22314:22321   */\n      dup5\n        /* \"#utility.yul\":22310:22333   */\n      sub\n        /* \"#utility.yul\":22306:22338   */\n      slt\n        /* \"#utility.yul\":22303:22422   */\n      iszero\n      tag_670\n      jumpi\n        /* \"#utility.yul\":22341:22420   */\n      tag_671\n      tag_363\n      jump\t// in\n    tag_671:\n        /* \"#utility.yul\":22303:22422   */\n    tag_670:\n        /* \"#utility.yul\":22461:22462   */\n      0x00\n        /* \"#utility.yul\":22486:22550   */\n      tag_672\n        /* \"#utility.yul\":22542:22549   */\n      dup5\n        /* \"#utility.yul\":22533:22539   */\n      dup3\n        /* \"#utility.yul\":22522:22531   */\n      dup6\n        /* \"#utility.yul\":22518:22540   */\n      add\n        /* \"#utility.yul\":22486:22550   */\n      tag_421\n      jump\t// in\n    tag_672:\n        /* \"#utility.yul\":22476:22550   */\n      swap2\n      pop\n        /* \"#utility.yul\":22432:22560   */\n      pop\n        /* \"#utility.yul\":22216:22567   */\n      swap3\n      swap2\n      pop\n      pop\n      jump\t// out\n        /* \"#utility.yul\":22573:22659   */\n    tag_422:\n        /* \"#utility.yul\":22608:22615   */\n      0x00\n        /* \"#utility.yul\":22648:22652   */\n      0xff\n        /* \"#utility.yul\":22641:22646   */\n      dup3\n        /* \"#utility.yul\":22637:22653   */\n      and\n        /* \"#utility.yul\":22626:22653   */\n      swap1\n      pop\n        /* \"#utility.yul\":22573:22659   */\n      swap2\n      swap1\n      pop\n      jump\t// out\n        /* \"#utility.yul\":22665:22777   */\n    tag_423:\n        /* \"#utility.yul\":22748:22770   */\n      tag_675\n        /* \"#utility.yul\":22764:22769   */\n      dup2\n        /* \"#utility.yul\":22748:22770   */\n      tag_422\n      jump\t// in\n    tag_675:\n        /* \"#utility.yul\":22743:22746   */\n      dup3\n        /* \"#utility.yul\":22736:22771   */\n      mstore\n        /* \"#utility.yul\":22665:22777   */\n      pop\n      pop\n      jump\t// out\n        /* \"#utility.yul\":22783:23328   */\n    tag_351:\n        /* \"#utility.yul\":22956:22960   */\n      0x00\n        /* \"#utility.yul\":22994:22997   */\n      0x80\n        /* \"#utility.yul\":22983:22992   */\n      dup3\n        /* \"#utility.yul\":22979:22998   */\n      add\n        /* \"#utility.yul\":22971:22998   */\n      swap1\n      pop\n        /* \"#utility.yul\":23008:23079   */\n      tag_677\n        /* \"#utility.yul\":23076:23077   */\n      0x00\n        /* \"#utility.yul\":23065:23074   */\n      dup4\n        /* \"#utility.yul\":23061:23078   */\n      add\n        /* \"#utility.yul\":23052:23058   */\n      dup8\n        /* \"#utility.yul\":23008:23079   */\n      tag_377\n      jump\t// in\n    tag_677:\n        /* \"#utility.yul\":23089:23157   */\n      tag_678\n        /* \"#utility.yul\":23153:23155   */\n      0x20\n        /* \"#utility.yul\":23142:23151   */\n      dup4\n        /* \"#utility.yul\":23138:23156   */\n      add\n        /* \"#utility.yul\":23129:23135   */\n      dup7\n        /* \"#utility.yul\":23089:23157   */\n      tag_423\n      jump\t// in\n    tag_678:\n        /* \"#utility.yul\":23167:23239   */\n      tag_679\n        /* \"#utility.yul\":23235:23237   */\n      0x40\n        /* \"#utility.yul\":23224:23233   */\n      dup4\n        /* \"#utility.yul\":23220:23238   */\n      add\n        /* \"#utility.yul\":23211:23217   */\n      dup6\n        /* \"#utility.yul\":23167:23239   */\n      tag_377\n      jump\t// in\n    tag_679:\n        /* \"#utility.yul\":23249:23321   */\n      tag_680\n        /* \"#utility.yul\":23317:23319   */\n      0x60\n        /* \"#utility.yul\":23306:23315   */\n      dup4\n        /* \"#utility.yul\":23302:23320   */\n      add\n        /* \"#utility.yul\":23293:23299   */\n      dup5\n        /* \"#utility.yul\":23249:23321   */\n      tag_377\n      jump\t// in\n    tag_680:\n        /* \"#utility.yul\":22783:23328   */\n      swap6\n      swap5\n      pop\n      pop\n      pop\n      pop\n      pop\n      jump\t// out\n\n    auxdata: 0xa26469706673582212202f6e0df3ff6cfbac4d06c96b923e38f131927892b9806cada2c4af9f0ac619aa64736f6c63430008120033\n}\n\nsub_1: assembly {\n        /* \"contracts/ProposalLinkedList.sol\":69:1517  contract ProposalLinkedList {... */\n      mstore(0x40, 0x80)\n        /* \"contracts/ProposalLinkedList.sol\":321:322  0 */\n      0x00\n        /* \"contracts/ProposalLinkedList.sol\":299:322  uint256 public ZERO = 0 */\n      0x01\n      sstore\n        /* \"contracts/ProposalLinkedList.sol\":359:360  0 */\n      0x00\n        /* \"contracts/ProposalLinkedList.sol\":335:360  uint256 public length = 0 */\n      0x02\n      sstore\n        /* \"contracts/ProposalLinkedList.sol\":128:188  constructor(address _owner){... */\n      callvalue\n      dup1\n      iszero\n      tag_1\n      jumpi\n      0x00\n      dup1\n      revert\n    tag_1:\n      pop\n      mload(0x40)\n      sub(codesize, bytecodeSize)\n      dup1\n      bytecodeSize\n      dup4\n      codecopy\n      dup2\n      dup2\n      add\n      0x40\n      mstore\n      dup2\n      add\n      swap1\n      tag_2\n      swap2\n      swap1\n      tag_3\n      jump\t// in\n    tag_2:\n        /* \"contracts/ProposalLinkedList.sol\":174:180  _owner */\n      dup1\n        /* \"contracts/ProposalLinkedList.sol\":166:171  owner */\n      0x00\n      dup1\n        /* \"contracts/ProposalLinkedList.sol\":166:180  owner = _owner */\n      0x0100\n      exp\n      dup2\n      sload\n      dup2\n      0xffffffffffffffffffffffffffffffffffffffff\n      mul\n      not\n      and\n      swap1\n      dup4\n      0xffffffffffffffffffffffffffffffffffffffff\n      and\n      mul\n      or\n      swap1\n      sstore\n      pop\n        /* \"contracts/ProposalLinkedList.sol\":128:188  constructor(address _owner){... */\n      pop\n        /* \"contracts/ProposalLinkedList.sol\":69:1517  contract ProposalLinkedList {... */\n      jump(tag_6)\n        /* \"#utility.yul\":88:205   */\n    tag_8:\n        /* \"#utility.yul\":197:198   */\n      0x00\n        /* \"#utility.yul\":194:195   */\n      dup1\n        /* \"#utility.yul\":187:199   */\n      revert\n        /* \"#utility.yul\":334:460   */\n    tag_10:\n        /* \"#utility.yul\":371:378   */\n      0x00\n        /* \"#utility.yul\":411:453   */\n      0xffffffffffffffffffffffffffffffffffffffff\n        /* \"#utility.yul\":404:409   */\n      dup3\n        /* \"#utility.yul\":400:454   */\n      and\n        /* \"#utility.yul\":389:454   */\n      swap1\n      pop\n        /* \"#utility.yul\":334:460   */\n      swap2\n      swap1\n      pop\n      jump\t// out\n        /* \"#utility.yul\":466:562   */\n    tag_11:\n        /* \"#utility.yul\":503:510   */\n      0x00\n        /* \"#utility.yul\":532:556   */\n      tag_20\n        /* \"#utility.yul\":550:555   */\n      dup3\n        /* \"#utility.yul\":532:556   */\n      tag_10\n      jump\t// in\n    tag_20:\n        /* \"#utility.yul\":521:556   */\n      swap1\n      pop\n        /* \"#utility.yul\":466:562   */\n      swap2\n      swap1\n      pop\n      jump\t// out\n        /* \"#utility.yul\":568:690   */\n    tag_12:\n        /* \"#utility.yul\":641:665   */\n      tag_22\n        /* \"#utility.yul\":659:664   */\n      dup2\n        /* \"#utility.yul\":641:665   */\n      tag_11\n      jump\t// in\n    tag_22:\n        /* \"#utility.yul\":634:639   */\n      dup2\n        /* \"#utility.yul\":631:666   */\n      eq\n        /* \"#utility.yul\":621:684   */\n      tag_23\n      jumpi\n        /* \"#utility.yul\":680:681   */\n      0x00\n        /* \"#utility.yul\":677:678   */\n      dup1\n        /* \"#utility.yul\":670:682   */\n      revert\n        /* \"#utility.yul\":621:684   */\n    tag_23:\n        /* \"#utility.yul\":568:690   */\n      pop\n      jump\t// out\n        /* \"#utility.yul\":696:839   */\n    tag_13:\n        /* \"#utility.yul\":753:758   */\n      0x00\n        /* \"#utility.yul\":784:790   */\n      dup2\n        /* \"#utility.yul\":778:791   */\n      mload\n        /* \"#utility.yul\":769:791   */\n      swap1\n      pop\n        /* \"#utility.yul\":800:833   */\n      tag_25\n        /* \"#utility.yul\":827:832   */\n      dup2\n        /* \"#utility.yul\":800:833   */\n      tag_12\n      jump\t// in\n    tag_25:\n        /* \"#utility.yul\":696:839   */\n      swap3\n      swap2\n      pop\n      pop\n      jump\t// out\n        /* \"#utility.yul\":845:1196   */\n    tag_3:\n        /* \"#utility.yul\":915:921   */\n      0x00\n        /* \"#utility.yul\":964:966   */\n      0x20\n        /* \"#utility.yul\":952:961   */\n      dup3\n        /* \"#utility.yul\":943:950   */\n      dup5\n        /* \"#utility.yul\":939:962   */\n      sub\n        /* \"#utility.yul\":935:967   */\n      slt\n        /* \"#utility.yul\":932:1051   */\n      iszero\n      tag_27\n      jumpi\n        /* \"#utility.yul\":970:1049   */\n      tag_28\n      tag_8\n      jump\t// in\n    tag_28:\n        /* \"#utility.yul\":932:1051   */\n    tag_27:\n        /* \"#utility.yul\":1090:1091   */\n      0x00\n        /* \"#utility.yul\":1115:1179   */\n      tag_29\n        /* \"#utility.yul\":1171:1178   */\n      dup5\n        /* \"#utility.yul\":1162:1168   */\n      dup3\n        /* \"#utility.yul\":1151:1160   */\n      dup6\n        /* \"#utility.yul\":1147:1169   */\n      add\n        /* \"#utility.yul\":1115:1179   */\n      tag_13\n      jump\t// in\n    tag_29:\n        /* \"#utility.yul\":1105:1179   */\n      swap2\n      pop\n        /* \"#utility.yul\":1061:1189   */\n      pop\n        /* \"#utility.yul\":845:1196   */\n      swap3\n      swap2\n      pop\n      pop\n      jump\t// out\n        /* \"contracts/ProposalLinkedList.sol\":69:1517  contract ProposalLinkedList {... */\n    tag_6:\n      dataSize(sub_0)\n      dup1\n      dataOffset(sub_0)\n      0x00\n      codecopy\n      0x00\n      return\n    stop\n\n    sub_0: assembly {\n            /* \"contracts/ProposalLinkedList.sol\":69:1517  contract ProposalLinkedList {... */\n          mstore(0x40, 0x80)\n          callvalue\n          dup1\n          iszero\n          tag_1\n          jumpi\n          0x00\n          dup1\n          revert\n        tag_1:\n          pop\n          jumpi(tag_2, lt(calldatasize, 0x04))\n          shr(0xe0, calldataload(0x00))\n          dup1\n          0x1f7b6d32\n          eq\n          tag_3\n          jumpi\n          dup1\n          0x4cc82215\n          eq\n          tag_4\n          jumpi\n          dup1\n          0x58fa63ca\n          eq\n          tag_5\n          jumpi\n          dup1\n          0x80d281c2\n          eq\n          tag_6\n          jumpi\n          dup1\n          0xac12d745\n          eq\n          tag_7\n          jumpi\n          dup1\n          0xfb470df2\n          eq\n          tag_8\n          jumpi\n        tag_2:\n          0x00\n          dup1\n          revert\n            /* \"contracts/ProposalLinkedList.sol\":335:360  uint256 public length = 0 */\n        tag_3:\n          tag_9\n          tag_10\n          jump\t// in\n        tag_9:\n          mload(0x40)\n          tag_11\n          swap2\n          swap1\n          tag_12\n          jump\t// in\n        tag_11:\n          mload(0x40)\n          dup1\n          swap2\n          sub\n          swap1\n          return\n            /* \"contracts/ProposalLinkedList.sol\":845:1066  function remove(uint256 index) onlyOwner external{... */\n        tag_4:\n          tag_13\n          0x04\n          dup1\n          calldatasize\n          sub\n          dup2\n          add\n          swap1\n          tag_14\n          swap2\n          swap1\n          tag_15\n          jump\t// in\n        tag_14:\n          tag_16\n          jump\t// in\n        tag_13:\n          stop\n            /* \"contracts/ProposalLinkedList.sol\":299:322  uint256 public ZERO = 0 */\n        tag_5:\n          tag_17\n          tag_18\n          jump\t// in\n        tag_17:\n          mload(0x40)\n          tag_19\n          swap2\n          swap1\n          tag_12\n          jump\t// in\n        tag_19:\n          mload(0x40)\n          dup1\n          swap2\n          sub\n          swap1\n          return\n            /* \"contracts/ProposalLinkedList.sol\":1074:1506  function setNodeToFirst(uint256 current) external onlyOwner{... */\n        tag_6:\n          tag_20\n          0x04\n          dup1\n          calldatasize\n          sub\n          dup2\n          add\n          swap1\n          tag_21\n          swap2\n          swap1\n          tag_15\n          jump\t// in\n        tag_21:\n          tag_22\n          jump\t// in\n        tag_20:\n          stop\n            /* \"contracts/ProposalLinkedList.sol\":455:494  mapping(uint256=>Node) public nodeTable */\n        tag_7:\n          tag_23\n          0x04\n          dup1\n          calldatasize\n          sub\n          dup2\n          add\n          swap1\n          tag_24\n          swap2\n          swap1\n          tag_15\n          jump\t// in\n        tag_24:\n          tag_25\n          jump\t// in\n        tag_23:\n          mload(0x40)\n          tag_26\n          swap4\n          swap3\n          swap2\n          swap1\n          tag_27\n          jump\t// in\n        tag_26:\n          mload(0x40)\n          dup1\n          swap2\n          sub\n          swap1\n          return\n            /* \"contracts/ProposalLinkedList.sol\":521:837  function increate(uint256 current, uint256 front) onlyOwner external {... */\n        tag_8:\n          tag_28\n          0x04\n          dup1\n          calldatasize\n          sub\n          dup2\n          add\n          swap1\n          tag_29\n          swap2\n          swap1\n          tag_30\n          jump\t// in\n        tag_29:\n          tag_31\n          jump\t// in\n        tag_28:\n          stop\n            /* \"contracts/ProposalLinkedList.sol\":335:360  uint256 public length = 0 */\n        tag_10:\n          sload(0x02)\n          dup2\n          jump\t// out\n            /* \"contracts/ProposalLinkedList.sol\":845:1066  function remove(uint256 index) onlyOwner external{... */\n        tag_16:\n            /* \"contracts/ProposalLinkedList.sol\":421:426  owner */\n          0x00\n          dup1\n          sload\n          swap1\n          0x0100\n          exp\n          swap1\n          div\n          0xffffffffffffffffffffffffffffffffffffffff\n          and\n            /* \"contracts/ProposalLinkedList.sol\":407:426  msg.sender == owner */\n          0xffffffffffffffffffffffffffffffffffffffff\n          and\n            /* \"contracts/ProposalLinkedList.sol\":407:417  msg.sender */\n          caller\n            /* \"contracts/ProposalLinkedList.sol\":407:426  msg.sender == owner */\n          0xffffffffffffffffffffffffffffffffffffffff\n          and\n          eq\n            /* \"contracts/ProposalLinkedList.sol\":398:427  require (msg.sender == owner) */\n          tag_33\n          jumpi\n          0x00\n          dup1\n          revert\n        tag_33:\n            /* \"contracts/ProposalLinkedList.sol\":944:953  nodeTable */\n          0x03\n            /* \"contracts/ProposalLinkedList.sol\":944:960  nodeTable[index] */\n          0x00\n            /* \"contracts/ProposalLinkedList.sol\":954:959  index */\n          dup3\n            /* \"contracts/ProposalLinkedList.sol\":944:960  nodeTable[index] */\n          dup2\n          mstore\n          0x20\n          add\n          swap1\n          dup2\n          mstore\n          0x20\n          add\n          0x00\n          keccak256\n            /* \"contracts/ProposalLinkedList.sol\":944:965  nodeTable[index].next */\n          0x02\n          add\n          sload\n            /* \"contracts/ProposalLinkedList.sol\":905:914  nodeTable */\n          0x03\n            /* \"contracts/ProposalLinkedList.sol\":905:938  nodeTable[nodeTable[index].front] */\n          0x00\n            /* \"contracts/ProposalLinkedList.sol\":915:924  nodeTable */\n          0x03\n            /* \"contracts/ProposalLinkedList.sol\":915:931  nodeTable[index] */\n          0x00\n            /* \"contracts/ProposalLinkedList.sol\":925:930  index */\n          dup6\n            /* \"contracts/ProposalLinkedList.sol\":915:931  nodeTable[index] */\n          dup2\n          mstore\n          0x20\n          add\n          swap1\n          dup2\n          mstore\n          0x20\n          add\n          0x00\n          keccak256\n            /* \"contracts/ProposalLinkedList.sol\":915:937  nodeTable[index].front */\n          0x01\n          add\n          sload\n            /* \"contracts/ProposalLinkedList.sol\":905:938  nodeTable[nodeTable[index].front] */\n          dup2\n          mstore\n          0x20\n          add\n          swap1\n          dup2\n          mstore\n          0x20\n          add\n          0x00\n          keccak256\n            /* \"contracts/ProposalLinkedList.sol\":905:943  nodeTable[nodeTable[index].front].next */\n          0x02\n          add\n            /* \"contracts/ProposalLinkedList.sol\":905:965  nodeTable[nodeTable[index].front].next=nodeTable[index].next */\n          dup2\n          swap1\n          sstore\n          pop\n            /* \"contracts/ProposalLinkedList.sol\":1015:1024  nodeTable */\n          0x03\n            /* \"contracts/ProposalLinkedList.sol\":1015:1031  nodeTable[index] */\n          0x00\n            /* \"contracts/ProposalLinkedList.sol\":1025:1030  index */\n          dup3\n            /* \"contracts/ProposalLinkedList.sol\":1015:1031  nodeTable[index] */\n          dup2\n          mstore\n          0x20\n          add\n          swap1\n          dup2\n          mstore\n          0x20\n          add\n          0x00\n          keccak256\n            /* \"contracts/ProposalLinkedList.sol\":1015:1037  nodeTable[index].front */\n          0x01\n          add\n          sload\n            /* \"contracts/ProposalLinkedList.sol\":976:985  nodeTable */\n          0x03\n            /* \"contracts/ProposalLinkedList.sol\":976:1008  nodeTable[nodeTable[index].next] */\n          0x00\n            /* \"contracts/ProposalLinkedList.sol\":986:995  nodeTable */\n          0x03\n            /* \"contracts/ProposalLinkedList.sol\":986:1002  nodeTable[index] */\n          0x00\n            /* \"contracts/ProposalLinkedList.sol\":996:1001  index */\n          dup6\n            /* \"contracts/ProposalLinkedList.sol\":986:1002  nodeTable[index] */\n          dup2\n          mstore\n          0x20\n          add\n          swap1\n          dup2\n          mstore\n          0x20\n          add\n          0x00\n          keccak256\n            /* \"contracts/ProposalLinkedList.sol\":986:1007  nodeTable[index].next */\n          0x02\n          add\n          sload\n            /* \"contracts/ProposalLinkedList.sol\":976:1008  nodeTable[nodeTable[index].next] */\n          dup2\n          mstore\n          0x20\n          add\n          swap1\n          dup2\n          mstore\n          0x20\n          add\n          0x00\n          keccak256\n            /* \"contracts/ProposalLinkedList.sol\":976:1014  nodeTable[nodeTable[index].next].front */\n          0x01\n          add\n            /* \"contracts/ProposalLinkedList.sol\":976:1037  nodeTable[nodeTable[index].next].front=nodeTable[index].front */\n          dup2\n          swap1\n          sstore\n          pop\n            /* \"contracts/ProposalLinkedList.sol\":1050:1056  length */\n          0x02\n          0x00\n            /* \"contracts/ProposalLinkedList.sol\":1050:1058  length-- */\n          dup2\n          sload\n          dup1\n          swap3\n          swap2\n          swap1\n          tag_35\n          swap1\n          tag_36\n          jump\t// in\n        tag_35:\n          swap2\n          swap1\n          pop\n          sstore\n          pop\n            /* \"contracts/ProposalLinkedList.sol\":845:1066  function remove(uint256 index) onlyOwner external{... */\n          pop\n          jump\t// out\n            /* \"contracts/ProposalLinkedList.sol\":299:322  uint256 public ZERO = 0 */\n        tag_18:\n          sload(0x01)\n          dup2\n          jump\t// out\n            /* \"contracts/ProposalLinkedList.sol\":1074:1506  function setNodeToFirst(uint256 current) external onlyOwner{... */\n        tag_22:\n            /* \"contracts/ProposalLinkedList.sol\":421:426  owner */\n          0x00\n          dup1\n          sload\n          swap1\n          0x0100\n          exp\n          swap1\n          div\n          0xffffffffffffffffffffffffffffffffffffffff\n          and\n            /* \"contracts/ProposalLinkedList.sol\":407:426  msg.sender == owner */\n          0xffffffffffffffffffffffffffffffffffffffff\n          and\n            /* \"contracts/ProposalLinkedList.sol\":407:417  msg.sender */\n          caller\n            /* \"contracts/ProposalLinkedList.sol\":407:426  msg.sender == owner */\n          0xffffffffffffffffffffffffffffffffffffffff\n          and\n          eq\n            /* \"contracts/ProposalLinkedList.sol\":398:427  require (msg.sender == owner) */\n          tag_38\n          jumpi\n          0x00\n          dup1\n          revert\n        tag_38:\n            /* \"contracts/ProposalLinkedList.sol\":1144:1164  Node memory _current */\n          0x00\n            /* \"contracts/ProposalLinkedList.sol\":1167:1176  nodeTable */\n          0x03\n            /* \"contracts/ProposalLinkedList.sol\":1167:1185  nodeTable[current] */\n          0x00\n            /* \"contracts/ProposalLinkedList.sol\":1177:1184  current */\n          dup4\n            /* \"contracts/ProposalLinkedList.sol\":1167:1185  nodeTable[current] */\n          dup2\n          mstore\n          0x20\n          add\n          swap1\n          dup2\n          mstore\n          0x20\n          add\n          0x00\n          keccak256\n            /* \"contracts/ProposalLinkedList.sol\":1144:1185  Node memory _current = nodeTable[current] */\n          mload(0x40)\n          dup1\n          0x60\n          add\n          0x40\n          mstore\n          swap1\n          dup2\n          0x00\n          dup3\n          add\n          sload\n          dup2\n          mstore\n          0x20\n          add\n          0x01\n          dup3\n          add\n          sload\n          dup2\n          mstore\n          0x20\n          add\n          0x02\n          dup3\n          add\n          sload\n          dup2\n          mstore\n          pop\n          pop\n          swap1\n          pop\n            /* \"contracts/ProposalLinkedList.sol\":1222:1231  nodeTable */\n          0x03\n            /* \"contracts/ProposalLinkedList.sol\":1222:1237  nodeTable[ZERO] */\n          0x00\n            /* \"contracts/ProposalLinkedList.sol\":1232:1236  ZERO */\n          sload(0x01)\n            /* \"contracts/ProposalLinkedList.sol\":1222:1237  nodeTable[ZERO] */\n          dup2\n          mstore\n          0x20\n          add\n          swap1\n          dup2\n          mstore\n          0x20\n          add\n          0x00\n          keccak256\n            /* \"contracts/ProposalLinkedList.sol\":1222:1242  nodeTable[ZERO].next */\n          0x02\n          add\n          sload\n            /* \"contracts/ProposalLinkedList.sol\":1196:1205  nodeTable */\n          0x03\n            /* \"contracts/ProposalLinkedList.sol\":1196:1214  nodeTable[current] */\n          0x00\n            /* \"contracts/ProposalLinkedList.sol\":1206:1213  current */\n          dup5\n            /* \"contracts/ProposalLinkedList.sol\":1196:1214  nodeTable[current] */\n          dup2\n          mstore\n          0x20\n          add\n          swap1\n          dup2\n          mstore\n          0x20\n          add\n          0x00\n          keccak256\n            /* \"contracts/ProposalLinkedList.sol\":1196:1219  nodeTable[current].next */\n          0x02\n          add\n            /* \"contracts/ProposalLinkedList.sol\":1196:1242  nodeTable[current].next = nodeTable[ZERO].next */\n          dup2\n          swap1\n          sstore\n          pop\n            /* \"contracts/ProposalLinkedList.sol\":1280:1284  ZERO */\n          sload(0x01)\n            /* \"contracts/ProposalLinkedList.sol\":1253:1262  nodeTable */\n          0x03\n            /* \"contracts/ProposalLinkedList.sol\":1253:1271  nodeTable[current] */\n          0x00\n            /* \"contracts/ProposalLinkedList.sol\":1263:1270  current */\n          dup5\n            /* \"contracts/ProposalLinkedList.sol\":1253:1271  nodeTable[current] */\n          dup2\n          mstore\n          0x20\n          add\n          swap1\n          dup2\n          mstore\n          0x20\n          add\n          0x00\n          keccak256\n            /* \"contracts/ProposalLinkedList.sol\":1253:1277  nodeTable[current].front */\n          0x01\n          add\n            /* \"contracts/ProposalLinkedList.sol\":1253:1284  nodeTable[current].front = ZERO */\n          dup2\n          swap1\n          sstore\n          pop\n            /* \"contracts/ProposalLinkedList.sol\":1335:1342  current */\n          dup2\n            /* \"contracts/ProposalLinkedList.sol\":1295:1304  nodeTable */\n          0x03\n            /* \"contracts/ProposalLinkedList.sol\":1295:1326  nodeTable[nodeTable[ZERO].next] */\n          0x00\n            /* \"contracts/ProposalLinkedList.sol\":1305:1314  nodeTable */\n          0x03\n            /* \"contracts/ProposalLinkedList.sol\":1305:1320  nodeTable[ZERO] */\n          0x00\n            /* \"contracts/ProposalLinkedList.sol\":1315:1319  ZERO */\n          sload(0x01)\n            /* \"contracts/ProposalLinkedList.sol\":1305:1320  nodeTable[ZERO] */\n          dup2\n          mstore\n          0x20\n          add\n          swap1\n          dup2\n          mstore\n          0x20\n          add\n          0x00\n          keccak256\n            /* \"contracts/ProposalLinkedList.sol\":1305:1325  nodeTable[ZERO].next */\n          0x02\n          add\n          sload\n            /* \"contracts/ProposalLinkedList.sol\":1295:1326  nodeTable[nodeTable[ZERO].next] */\n          dup2\n          mstore\n          0x20\n          add\n          swap1\n          dup2\n          mstore\n          0x20\n          add\n          0x00\n          keccak256\n            /* \"contracts/ProposalLinkedList.sol\":1295:1332  nodeTable[nodeTable[ZERO].next].front */\n          0x01\n          add\n            /* \"contracts/ProposalLinkedList.sol\":1295:1342  nodeTable[nodeTable[ZERO].next].front = current */\n          dup2\n          swap1\n          sstore\n          pop\n            /* \"contracts/ProposalLinkedList.sol\":1376:1383  current */\n          dup2\n            /* \"contracts/ProposalLinkedList.sol\":1353:1362  nodeTable */\n          0x03\n            /* \"contracts/ProposalLinkedList.sol\":1353:1368  nodeTable[ZERO] */\n          0x00\n            /* \"contracts/ProposalLinkedList.sol\":1363:1367  ZERO */\n          sload(0x01)\n            /* \"contracts/ProposalLinkedList.sol\":1353:1368  nodeTable[ZERO] */\n          dup2\n          mstore\n          0x20\n          add\n          swap1\n          dup2\n          mstore\n          0x20\n          add\n          0x00\n          keccak256\n            /* \"contracts/ProposalLinkedList.sol\":1353:1373  nodeTable[ZERO].next */\n          0x02\n          add\n            /* \"contracts/ProposalLinkedList.sol\":1353:1383  nodeTable[ZERO].next = current */\n          dup2\n          swap1\n          sstore\n          pop\n            /* \"contracts/ProposalLinkedList.sol\":1427:1435  _current */\n          dup1\n            /* \"contracts/ProposalLinkedList.sol\":1427:1441  _current.front */\n          0x20\n          add\n          mload\n            /* \"contracts/ProposalLinkedList.sol\":1394:1403  nodeTable */\n          0x03\n            /* \"contracts/ProposalLinkedList.sol\":1394:1418  nodeTable[_current.next] */\n          0x00\n            /* \"contracts/ProposalLinkedList.sol\":1404:1412  _current */\n          dup4\n            /* \"contracts/ProposalLinkedList.sol\":1404:1417  _current.next */\n          0x40\n          add\n          mload\n            /* \"contracts/ProposalLinkedList.sol\":1394:1418  nodeTable[_current.next] */\n          dup2\n          mstore\n          0x20\n          add\n          swap1\n          dup2\n          mstore\n          0x20\n          add\n          0x00\n          keccak256\n            /* \"contracts/ProposalLinkedList.sol\":1394:1424  nodeTable[_current.next].front */\n          0x01\n          add\n            /* \"contracts/ProposalLinkedList.sol\":1394:1441  nodeTable[_current.next].front = _current.front */\n          dup2\n          swap1\n          sstore\n          pop\n            /* \"contracts/ProposalLinkedList.sol\":1485:1493  _current */\n          dup1\n            /* \"contracts/ProposalLinkedList.sol\":1485:1498  _current.next */\n          0x40\n          add\n          mload\n            /* \"contracts/ProposalLinkedList.sol\":1452:1461  nodeTable */\n          0x03\n            /* \"contracts/ProposalLinkedList.sol\":1452:1477  nodeTable[_current.front] */\n          0x00\n            /* \"contracts/ProposalLinkedList.sol\":1462:1470  _current */\n          dup4\n            /* \"contracts/ProposalLinkedList.sol\":1462:1476  _current.front */\n          0x20\n          add\n          mload\n            /* \"contracts/ProposalLinkedList.sol\":1452:1477  nodeTable[_current.front] */\n          dup2\n          mstore\n          0x20\n          add\n          swap1\n          dup2\n          mstore\n          0x20\n          add\n          0x00\n          keccak256\n            /* \"contracts/ProposalLinkedList.sol\":1452:1482  nodeTable[_current.front].next */\n          0x02\n          add\n            /* \"contracts/ProposalLinkedList.sol\":1452:1498  nodeTable[_current.front].next = _current.next */\n          dup2\n          swap1\n          sstore\n          pop\n            /* \"contracts/ProposalLinkedList.sol\":1133:1506  {... */\n          pop\n            /* \"contracts/ProposalLinkedList.sol\":1074:1506  function setNodeToFirst(uint256 current) external onlyOwner{... */\n          pop\n          jump\t// out\n            /* \"contracts/ProposalLinkedList.sol\":455:494  mapping(uint256=>Node) public nodeTable */\n        tag_25:\n          mstore(0x20, 0x03)\n          dup1\n          0x00\n          mstore\n          keccak256(0x00, 0x40)\n          0x00\n          swap2\n          pop\n          swap1\n          pop\n          dup1\n          0x00\n          add\n          sload\n          swap1\n          dup1\n          0x01\n          add\n          sload\n          swap1\n          dup1\n          0x02\n          add\n          sload\n          swap1\n          pop\n          dup4\n          jump\t// out\n            /* \"contracts/ProposalLinkedList.sol\":521:837  function increate(uint256 current, uint256 front) onlyOwner external {... */\n        tag_31:\n            /* \"contracts/ProposalLinkedList.sol\":421:426  owner */\n          0x00\n          dup1\n          sload\n          swap1\n          0x0100\n          exp\n          swap1\n          div\n          0xffffffffffffffffffffffffffffffffffffffff\n          and\n            /* \"contracts/ProposalLinkedList.sol\":407:426  msg.sender == owner */\n          0xffffffffffffffffffffffffffffffffffffffff\n          and\n            /* \"contracts/ProposalLinkedList.sol\":407:417  msg.sender */\n          caller\n            /* \"contracts/ProposalLinkedList.sol\":407:426  msg.sender == owner */\n          0xffffffffffffffffffffffffffffffffffffffff\n          and\n          eq\n            /* \"contracts/ProposalLinkedList.sol\":398:427  require (msg.sender == owner) */\n          tag_41\n          jumpi\n          0x00\n          dup1\n          revert\n        tag_41:\n            /* \"contracts/ProposalLinkedList.sol\":601:616  uint256 preNext */\n          0x00\n            /* \"contracts/ProposalLinkedList.sol\":617:626  nodeTable */\n          0x03\n            /* \"contracts/ProposalLinkedList.sol\":617:633  nodeTable[front] */\n          0x00\n            /* \"contracts/ProposalLinkedList.sol\":627:632  front */\n          dup4\n            /* \"contracts/ProposalLinkedList.sol\":617:633  nodeTable[front] */\n          dup2\n          mstore\n          0x20\n          add\n          swap1\n          dup2\n          mstore\n          0x20\n          add\n          0x00\n          keccak256\n            /* \"contracts/ProposalLinkedList.sol\":617:638  nodeTable[front].next */\n          0x02\n          add\n          sload\n            /* \"contracts/ProposalLinkedList.sol\":601:638  uint256 preNext=nodeTable[front].next */\n          swap1\n          pop\n            /* \"contracts/ProposalLinkedList.sol\":671:678  current */\n          dup3\n            /* \"contracts/ProposalLinkedList.sol\":649:658  nodeTable */\n          0x03\n            /* \"contracts/ProposalLinkedList.sol\":649:665  nodeTable[front] */\n          0x00\n            /* \"contracts/ProposalLinkedList.sol\":659:664  front */\n          dup5\n            /* \"contracts/ProposalLinkedList.sol\":649:665  nodeTable[front] */\n          dup2\n          mstore\n          0x20\n          add\n          swap1\n          dup2\n          mstore\n          0x20\n          add\n          0x00\n          keccak256\n            /* \"contracts/ProposalLinkedList.sol\":649:670  nodeTable[front].next */\n          0x02\n          add\n            /* \"contracts/ProposalLinkedList.sol\":649:678  nodeTable[front].next=current */\n          dup2\n          swap1\n          sstore\n          pop\n            /* \"contracts/ProposalLinkedList.sol\":713:720  preNext */\n          dup1\n            /* \"contracts/ProposalLinkedList.sol\":689:698  nodeTable */\n          0x03\n            /* \"contracts/ProposalLinkedList.sol\":689:707  nodeTable[current] */\n          0x00\n            /* \"contracts/ProposalLinkedList.sol\":699:706  current */\n          dup6\n            /* \"contracts/ProposalLinkedList.sol\":689:707  nodeTable[current] */\n          dup2\n          mstore\n          0x20\n          add\n          swap1\n          dup2\n          mstore\n          0x20\n          add\n          0x00\n          keccak256\n            /* \"contracts/ProposalLinkedList.sol\":689:712  nodeTable[current].next */\n          0x02\n          add\n            /* \"contracts/ProposalLinkedList.sol\":689:720  nodeTable[current].next=preNext */\n          dup2\n          swap1\n          sstore\n          pop\n            /* \"contracts/ProposalLinkedList.sol\":756:763  current */\n          dup3\n            /* \"contracts/ProposalLinkedList.sol\":731:740  nodeTable */\n          0x03\n            /* \"contracts/ProposalLinkedList.sol\":731:749  nodeTable[preNext] */\n          0x00\n            /* \"contracts/ProposalLinkedList.sol\":741:748  preNext */\n          dup4\n            /* \"contracts/ProposalLinkedList.sol\":731:749  nodeTable[preNext] */\n          dup2\n          mstore\n          0x20\n          add\n          swap1\n          dup2\n          mstore\n          0x20\n          add\n          0x00\n          keccak256\n            /* \"contracts/ProposalLinkedList.sol\":731:755  nodeTable[preNext].front */\n          0x01\n          add\n            /* \"contracts/ProposalLinkedList.sol\":731:763  nodeTable[preNext].front=current */\n          dup2\n          swap1\n          sstore\n          pop\n            /* \"contracts/ProposalLinkedList.sol\":801:808  current */\n          dup3\n            /* \"contracts/ProposalLinkedList.sol\":774:783  nodeTable */\n          0x03\n            /* \"contracts/ProposalLinkedList.sol\":774:792  nodeTable[current] */\n          0x00\n            /* \"contracts/ProposalLinkedList.sol\":784:791  current */\n          dup6\n            /* \"contracts/ProposalLinkedList.sol\":774:792  nodeTable[current] */\n          dup2\n          mstore\n          0x20\n          add\n          swap1\n          dup2\n          mstore\n          0x20\n          add\n          0x00\n          keccak256\n            /* \"contracts/ProposalLinkedList.sol\":774:800  nodeTable[current].current */\n          0x00\n          add\n            /* \"contracts/ProposalLinkedList.sol\":774:808  nodeTable[current].current=current */\n          dup2\n          swap1\n          sstore\n          pop\n            /* \"contracts/ProposalLinkedList.sol\":821:827  length */\n          0x02\n          0x00\n            /* \"contracts/ProposalLinkedList.sol\":821:829  length++ */\n          dup2\n          sload\n          dup1\n          swap3\n          swap2\n          swap1\n          tag_43\n          swap1\n          tag_44\n          jump\t// in\n        tag_43:\n          swap2\n          swap1\n          pop\n          sstore\n          pop\n            /* \"contracts/ProposalLinkedList.sol\":590:837  {... */\n          pop\n            /* \"contracts/ProposalLinkedList.sol\":521:837  function increate(uint256 current, uint256 front) onlyOwner external {... */\n          pop\n          pop\n          jump\t// out\n            /* \"#utility.yul\":7:84   */\n        tag_45:\n            /* \"#utility.yul\":44:51   */\n          0x00\n            /* \"#utility.yul\":73:78   */\n          dup2\n            /* \"#utility.yul\":62:78   */\n          swap1\n          pop\n            /* \"#utility.yul\":7:84   */\n          swap2\n          swap1\n          pop\n          jump\t// out\n            /* \"#utility.yul\":90:208   */\n        tag_46:\n            /* \"#utility.yul\":177:201   */\n          tag_56\n            /* \"#utility.yul\":195:200   */\n          dup2\n            /* \"#utility.yul\":177:201   */\n          tag_45\n          jump\t// in\n        tag_56:\n            /* \"#utility.yul\":172:175   */\n          dup3\n            /* \"#utility.yul\":165:202   */\n          mstore\n            /* \"#utility.yul\":90:208   */\n          pop\n          pop\n          jump\t// out\n            /* \"#utility.yul\":214:436   */\n        tag_12:\n            /* \"#utility.yul\":307:311   */\n          0x00\n            /* \"#utility.yul\":345:347   */\n          0x20\n            /* \"#utility.yul\":334:343   */\n          dup3\n            /* \"#utility.yul\":330:348   */\n          add\n            /* \"#utility.yul\":322:348   */\n          swap1\n          pop\n            /* \"#utility.yul\":358:429   */\n          tag_58\n            /* \"#utility.yul\":426:427   */\n          0x00\n            /* \"#utility.yul\":415:424   */\n          dup4\n            /* \"#utility.yul\":411:428   */\n          add\n            /* \"#utility.yul\":402:408   */\n          dup5\n            /* \"#utility.yul\":358:429   */\n          tag_46\n          jump\t// in\n        tag_58:\n            /* \"#utility.yul\":214:436   */\n          swap3\n          swap2\n          pop\n          pop\n          jump\t// out\n            /* \"#utility.yul\":523:640   */\n        tag_48:\n            /* \"#utility.yul\":632:633   */\n          0x00\n            /* \"#utility.yul\":629:630   */\n          dup1\n            /* \"#utility.yul\":622:634   */\n          revert\n            /* \"#utility.yul\":769:891   */\n        tag_50:\n            /* \"#utility.yul\":842:866   */\n          tag_63\n            /* \"#utility.yul\":860:865   */\n          dup2\n            /* \"#utility.yul\":842:866   */\n          tag_45\n          jump\t// in\n        tag_63:\n            /* \"#utility.yul\":835:840   */\n          dup2\n            /* \"#utility.yul\":832:867   */\n          eq\n            /* \"#utility.yul\":822:885   */\n          tag_64\n          jumpi\n            /* \"#utility.yul\":881:882   */\n          0x00\n            /* \"#utility.yul\":878:879   */\n          dup1\n            /* \"#utility.yul\":871:883   */\n          revert\n            /* \"#utility.yul\":822:885   */\n        tag_64:\n            /* \"#utility.yul\":769:891   */\n          pop\n          jump\t// out\n            /* \"#utility.yul\":897:1036   */\n        tag_51:\n            /* \"#utility.yul\":943:948   */\n          0x00\n            /* \"#utility.yul\":981:987   */\n          dup2\n            /* \"#utility.yul\":968:988   */\n          calldataload\n            /* \"#utility.yul\":959:988   */\n          swap1\n          pop\n            /* \"#utility.yul\":997:1030   */\n          tag_66\n            /* \"#utility.yul\":1024:1029   */\n          dup2\n            /* \"#utility.yul\":997:1030   */\n          tag_50\n          jump\t// in\n        tag_66:\n            /* \"#utility.yul\":897:1036   */\n          swap3\n          swap2\n          pop\n          pop\n          jump\t// out\n            /* \"#utility.yul\":1042:1371   */\n        tag_15:\n            /* \"#utility.yul\":1101:1107   */\n          0x00\n            /* \"#utility.yul\":1150:1152   */\n          0x20\n            /* \"#utility.yul\":1138:1147   */\n          dup3\n            /* \"#utility.yul\":1129:1136   */\n          dup5\n            /* \"#utility.yul\":1125:1148   */\n          sub\n            /* \"#utility.yul\":1121:1153   */\n          slt\n            /* \"#utility.yul\":1118:1237   */\n          iszero\n          tag_68\n          jumpi\n            /* \"#utility.yul\":1156:1235   */\n          tag_69\n          tag_48\n          jump\t// in\n        tag_69:\n            /* \"#utility.yul\":1118:1237   */\n        tag_68:\n            /* \"#utility.yul\":1276:1277   */\n          0x00\n            /* \"#utility.yul\":1301:1354   */\n          tag_70\n            /* \"#utility.yul\":1346:1353   */\n          dup5\n            /* \"#utility.yul\":1337:1343   */\n          dup3\n            /* \"#utility.yul\":1326:1335   */\n          dup6\n            /* \"#utility.yul\":1322:1344   */\n          add\n            /* \"#utility.yul\":1301:1354   */\n          tag_51\n          jump\t// in\n        tag_70:\n            /* \"#utility.yul\":1291:1354   */\n          swap2\n          pop\n            /* \"#utility.yul\":1247:1364   */\n          pop\n            /* \"#utility.yul\":1042:1371   */\n          swap3\n          swap2\n          pop\n          pop\n          jump\t// out\n            /* \"#utility.yul\":1377:1819   */\n        tag_27:\n            /* \"#utility.yul\":1526:1530   */\n          0x00\n            /* \"#utility.yul\":1564:1566   */\n          0x60\n            /* \"#utility.yul\":1553:1562   */\n          dup3\n            /* \"#utility.yul\":1549:1567   */\n          add\n            /* \"#utility.yul\":1541:1567   */\n          swap1\n          pop\n            /* \"#utility.yul\":1577:1648   */\n          tag_72\n            /* \"#utility.yul\":1645:1646   */\n          0x00\n            /* \"#utility.yul\":1634:1643   */\n          dup4\n            /* \"#utility.yul\":1630:1647   */\n          add\n            /* \"#utility.yul\":1621:1627   */\n          dup7\n            /* \"#utility.yul\":1577:1648   */\n          tag_46\n          jump\t// in\n        tag_72:\n            /* \"#utility.yul\":1658:1730   */\n          tag_73\n            /* \"#utility.yul\":1726:1728   */\n          0x20\n            /* \"#utility.yul\":1715:1724   */\n          dup4\n            /* \"#utility.yul\":1711:1729   */\n          add\n            /* \"#utility.yul\":1702:1708   */\n          dup6\n            /* \"#utility.yul\":1658:1730   */\n          tag_46\n          jump\t// in\n        tag_73:\n            /* \"#utility.yul\":1740:1812   */\n          tag_74\n            /* \"#utility.yul\":1808:1810   */\n          0x40\n            /* \"#utility.yul\":1797:1806   */\n          dup4\n            /* \"#utility.yul\":1793:1811   */\n          add\n            /* \"#utility.yul\":1784:1790   */\n          dup5\n            /* \"#utility.yul\":1740:1812   */\n          tag_46\n          jump\t// in\n        tag_74:\n            /* \"#utility.yul\":1377:1819   */\n          swap5\n          swap4\n          pop\n          pop\n          pop\n          pop\n          jump\t// out\n            /* \"#utility.yul\":1825:2299   */\n        tag_30:\n            /* \"#utility.yul\":1893:1899   */\n          0x00\n            /* \"#utility.yul\":1901:1907   */\n          dup1\n            /* \"#utility.yul\":1950:1952   */\n          0x40\n            /* \"#utility.yul\":1938:1947   */\n          dup4\n            /* \"#utility.yul\":1929:1936   */\n          dup6\n            /* \"#utility.yul\":1925:1948   */\n          sub\n            /* \"#utility.yul\":1921:1953   */\n          slt\n            /* \"#utility.yul\":1918:2037   */\n          iszero\n          tag_76\n          jumpi\n            /* \"#utility.yul\":1956:2035   */\n          tag_77\n          tag_48\n          jump\t// in\n        tag_77:\n            /* \"#utility.yul\":1918:2037   */\n        tag_76:\n            /* \"#utility.yul\":2076:2077   */\n          0x00\n            /* \"#utility.yul\":2101:2154   */\n          tag_78\n            /* \"#utility.yul\":2146:2153   */\n          dup6\n            /* \"#utility.yul\":2137:2143   */\n          dup3\n            /* \"#utility.yul\":2126:2135   */\n          dup7\n            /* \"#utility.yul\":2122:2144   */\n          add\n            /* \"#utility.yul\":2101:2154   */\n          tag_51\n          jump\t// in\n        tag_78:\n            /* \"#utility.yul\":2091:2154   */\n          swap3\n          pop\n            /* \"#utility.yul\":2047:2164   */\n          pop\n            /* \"#utility.yul\":2203:2205   */\n          0x20\n            /* \"#utility.yul\":2229:2282   */\n          tag_79\n            /* \"#utility.yul\":2274:2281   */\n          dup6\n            /* \"#utility.yul\":2265:2271   */\n          dup3\n            /* \"#utility.yul\":2254:2263   */\n          dup7\n            /* \"#utility.yul\":2250:2272   */\n          add\n            /* \"#utility.yul\":2229:2282   */\n          tag_51\n          jump\t// in\n        tag_79:\n            /* \"#utility.yul\":2219:2282   */\n          swap2\n          pop\n            /* \"#utility.yul\":2174:2292   */\n          pop\n            /* \"#utility.yul\":1825:2299   */\n          swap3\n          pop\n          swap3\n          swap1\n          pop\n          jump\t// out\n            /* \"#utility.yul\":2305:2485   */\n        tag_52:\n            /* \"#utility.yul\":2353:2430   */\n          0x4e487b7100000000000000000000000000000000000000000000000000000000\n            /* \"#utility.yul\":2350:2351   */\n          0x00\n            /* \"#utility.yul\":2343:2431   */\n          mstore\n            /* \"#utility.yul\":2450:2454   */\n          0x11\n            /* \"#utility.yul\":2447:2448   */\n          0x04\n            /* \"#utility.yul\":2440:2455   */\n          mstore\n            /* \"#utility.yul\":2474:2478   */\n          0x24\n            /* \"#utility.yul\":2471:2472   */\n          0x00\n            /* \"#utility.yul\":2464:2479   */\n          revert\n            /* \"#utility.yul\":2491:2662   */\n        tag_36:\n            /* \"#utility.yul\":2530:2533   */\n          0x00\n            /* \"#utility.yul\":2553:2577   */\n          tag_82\n            /* \"#utility.yul\":2571:2576   */\n          dup3\n            /* \"#utility.yul\":2553:2577   */\n          tag_45\n          jump\t// in\n        tag_82:\n            /* \"#utility.yul\":2544:2577   */\n          swap2\n          pop\n            /* \"#utility.yul\":2599:2603   */\n          0x00\n            /* \"#utility.yul\":2592:2597   */\n          dup3\n            /* \"#utility.yul\":2589:2604   */\n          sub\n            /* \"#utility.yul\":2586:2627   */\n          tag_83\n          jumpi\n            /* \"#utility.yul\":2607:2625   */\n          tag_84\n          tag_52\n          jump\t// in\n        tag_84:\n            /* \"#utility.yul\":2586:2627   */\n        tag_83:\n            /* \"#utility.yul\":2654:2655   */\n          0x01\n            /* \"#utility.yul\":2647:2652   */\n          dup3\n            /* \"#utility.yul\":2643:2656   */\n          sub\n            /* \"#utility.yul\":2636:2656   */\n          swap1\n          pop\n            /* \"#utility.yul\":2491:2662   */\n          swap2\n          swap1\n          pop\n          jump\t// out\n            /* \"#utility.yul\":2668:2901   */\n        tag_44:\n            /* \"#utility.yul\":2707:2710   */\n          0x00\n            /* \"#utility.yul\":2730:2754   */\n          tag_86\n            /* \"#utility.yul\":2748:2753   */\n          dup3\n            /* \"#utility.yul\":2730:2754   */\n          tag_45\n          jump\t// in\n        tag_86:\n            /* \"#utility.yul\":2721:2754   */\n          swap2\n          pop\n            /* \"#utility.yul\":2776:2842   */\n          0xffffffffffffffffffffffffffffffffffffffffffffffffffffffffffffffff\n            /* \"#utility.yul\":2769:2774   */\n          dup3\n            /* \"#utility.yul\":2766:2843   */\n          sub\n            /* \"#utility.yul\":2763:2866   */\n          tag_87\n          jumpi\n            /* \"#utility.yul\":2846:2864   */\n          tag_88\n          tag_52\n          jump\t// in\n        tag_88:\n            /* \"#utility.yul\":2763:2866   */\n        tag_87:\n            /* \"#utility.yul\":2893:2894   */\n          0x01\n            /* \"#utility.yul\":2886:2891   */\n          dup3\n            /* \"#utility.yul\":2882:2895   */\n          add\n            /* \"#utility.yul\":2875:2895   */\n          swap1\n          pop\n            /* \"#utility.yul\":2668:2901   */\n          swap2\n          swap1\n          pop\n          jump\t// out\n\n        auxdata: 0xa264697066735822122054ec705844d4d4b5c63409f10ba173a241e858c7ad262053e2b241cc3c337f7b64736f6c63430008120033\n    }\n}\n",
				"bytecode": {
					"linkReferences": {},
					"object": "608060405243426040516020016200001992919062000241565b604051602081830303815290604052805190602001206000557341c2481b5acd58de9336b56a881b5d914f517064600360006101000a81548173ffffffffffffffffffffffffffffffffffffffff021916908373ffffffffffffffffffffffffffffffffffffffff16021790555060646004553480156200009957600080fd5b5060405162003a8338038062003a838339818101604052810190620000bf9190620002db565b82600160006101000a81548173ffffffffffffffffffffffffffffffffffffffff021916908373ffffffffffffffffffffffffffffffffffffffff16021790555081600560006101000a81548173ffffffffffffffffffffffffffffffffffffffff021916908373ffffffffffffffffffffffffffffffffffffffff16021790555080600660006101000a81548173ffffffffffffffffffffffffffffffffffffffff021916908373ffffffffffffffffffffffffffffffffffffffff16021790555030604051620001919062000204565b6200019d919062000348565b604051809103906000f080158015620001ba573d6000803e3d6000fd5b50600260006101000a81548173ffffffffffffffffffffffffffffffffffffffff021916908373ffffffffffffffffffffffffffffffffffffffff16021790555050505062000365565b6107de80620032a583390190565b6000819050919050565b6000819050919050565b6200023b620002358262000212565b6200021c565b82525050565b60006200024f828562000226565b60208201915062000261828462000226565b6020820191508190509392505050565b600080fd5b600073ffffffffffffffffffffffffffffffffffffffff82169050919050565b6000620002a38262000276565b9050919050565b620002b58162000296565b8114620002c157600080fd5b50565b600081519050620002d581620002aa565b92915050565b600080600060608486031215620002f757620002f662000271565b5b60006200030786828701620002c4565b93505060206200031a86828701620002c4565b92505060406200032d86828701620002c4565b9150509250925092565b620003428162000296565b82525050565b60006020820190506200035f600083018462000337565b92915050565b612f3080620003756000396000f3fe608060405234801561001057600080fd5b50600436106101375760003560e01c806388d8efcd116100b8578063df8089ef1161007c578063df8089ef14610358578063e1dac56b14610388578063e7a1f2de146103a4578063eb29c564146103c0578063fc0c546a146103dc578063fef01d8f146103fa57610137565b806388d8efcd146102b25780638d55cfb6146102ce578063bf4f41eb146102ec578063c83a34f61461031c578063d80ee2e91461033a57610137565b80633164d86f116100ff5780633164d86f146101fe5780634f1725371461022e5780636295a4661461025e5780636c9f20321461027a5780637097e18e1461029657610137565b8063013cf08b1461013c578063051dd5a8146101765780630d4e50ed14610192578063215b28c5146101c2578063238ac933146101e0575b600080fd5b610156600480360381019061015191906122f9565b610416565b60405161016d9b9a99989796959493929190612406565b60405180910390f35b610190600480360381019061018b91906122f9565b6104ed565b005b6101ac60048036038101906101a79190612515565b61060e565b6040516101b99190612568565b60405180910390f35b6101ca610644565b6040516101d79190612583565b60405180910390f35b6101e861064a565b6040516101f5919061259e565b60405180910390f35b610218600480360381019061021391906125b9565b610670565b6040516102259190612583565b60405180910390f35b610248600480360381019061024391906125f9565b61069a565b6040516102559190612583565b60405180910390f35b610278600480360381019061027391906122f9565b6106bf565b005b610294600480360381019061028f91906122f9565b610723565b005b6102b060048036038101906102ab919061269e565b610957565b005b6102cc60048036038101906102c7919061273e565b610ea0565b005b6102d66112bb565b6040516102e39190612568565b60405180910390f35b610306600480360381019061030191906122f9565b6112c1565b6040516103139190612583565b60405180910390f35b6103246112c8565b604051610331919061259e565b60405180910390f35b6103426112ee565b60405161034f9190612818565b60405180910390f35b610372600480360381019061036d9190612833565b611314565b60405161037f919061259e565b60405180910390f35b6103a2600480360381019061039d91906122f9565b6113b7565b005b6103be60048036038101906103b991906122f9565b6114da565b005b6103da60048036038101906103d59190612860565b6117ce565b005b6103e4611bb7565b6040516103f191906128e8565b60405180910390f35b610414600480360381019061040f91906122f9565b611bdd565b005b6009818154811061042657600080fd5b90600052602060002090600c02016000915090508060000154908060010160009054906101000a900473ffffffffffffffffffffffffffffffffffffffff16908060020154908060030160009054906101000a900473ffffffffffffffffffffffffffffffffffffffff16908060040154908060050154908060060154908060070160009054906101000a900460ff16908060070160019054906101000a900473ffffffffffffffffffffffffffffffffffffffff1690806008015490806009015490508b565b60006009828154811061050357610502612903565b5b90600052602060002090600c020190503373ffffffffffffffffffffffffffffffffffffffff168160030160009054906101000a900473ffffffffffffffffffffffffffffffffffffffff1673ffffffffffffffffffffffffffffffffffffffff161461056f57600080fd5b6004600981111561058357610582612376565b5b8160070160009054906101000a900460ff1660098111156105a7576105a6612376565b5b146105b157600080fd5b6105dd81600560009054906101000a900473ffffffffffffffffffffffffffffffffffffffff16611dc4565b60058160070160006101000a81548160ff0219169083600981111561060557610604612376565b5b02179055505050565b6000838383604051602001610625939291906129e3565b6040516020818303038152906040528051906020012090509392505050565b60045481565b600360009054906101000a900473ffffffffffffffffffffffffffffffffffffffff1681565b600061067b826112c1565b60646106879190612a4f565b836106929190612a83565b905092915050565b6007602052816000526040600020602052806000526040600020600091509150505481565b600660009054906101000a900473ffffffffffffffffffffffffffffffffffffffff1673ffffffffffffffffffffffffffffffffffffffff163373ffffffffffffffffffffffffffffffffffffffff161461071957600080fd5b8060048190555050565b60006009828154811061073957610738612903565b5b90600052602060002090600c0201905060008160070160009054906101000a900460ff1690506001600981111561077357610772612376565b5b81600981111561078657610785612376565b5b14806107d45750600060098111156107a1576107a0612376565b5b8160098111156107b4576107b3612376565b5b1480156107d35750426202a30083600401546107d09190612a4f565b10155b5b6107dd57600080fd5b600260009054906101000a900473ffffffffffffffffffffffffffffffffffffffff1673ffffffffffffffffffffffffffffffffffffffff16634cc82215846040518263ffffffff1660e01b81526004016108389190612583565b600060405180830381600087803b15801561085257600080fd5b505af1158015610866573d6000803e3d6000fd5b505050508160010160009054906101000a900473ffffffffffffffffffffffffffffffffffffffff1673ffffffffffffffffffffffffffffffffffffffff166323b872dd308460030160009054906101000a900473ffffffffffffffffffffffffffffffffffffffff1685600201546040518463ffffffff1660e01b81526004016108f393929190612ac5565b600060405180830381600087803b15801561090d57600080fd5b505af1158015610921573d6000803e3d6000fd5b5050505060028260070160006101000a81548160ff0219169083600981111561094d5761094c612376565b5b0217905550505050565b60006009858154811061096d5761096c612903565b5b90600052602060002090600c020190506000600981111561099157610990612376565b5b8160070160009054906101000a900460ff1660098111156109b5576109b4612376565b5b1480156109d35750426202a30082600401546109d19190612a4f565b105b610a12576040517f08c379a0000000000000000000000000000000000000000000000000000000008152600401610a0990612b59565b60405180910390fd5b60003390506000610a2482888861060e565b9050610a97600360009054906101000a900473ffffffffffffffffffffffffffffffffffffffff168287878080601f016020809104026020016040519081016040528093929190818152602001838380828437600081840152601f19601f82011690508083019250505050505050611f19565b610aa057600080fd5b600015156008600089815260200190815260200160002060008473ffffffffffffffffffffffffffffffffffffffff1673ffffffffffffffffffffffffffffffffffffffff16815260200190815260200160002060009054906101000a900460ff16151514610b44576040517f08c379a0000000000000000000000000000000000000000000000000000000008152600401610b3b90612bc5565b60405180910390fd5b60016008600089815260200190815260200160002060008473ffffffffffffffffffffffffffffffffffffffff1673ffffffffffffffffffffffffffffffffffffffff16815260200190815260200160002060006101000a81548160ff02191690831515021790555085610c1c5782600b01829080600181540180825580915050600190039060005260206000200160009091909190916101000a81548173ffffffffffffffffffffffffffffffffffffffff021916908373ffffffffffffffffffffffffffffffffffffffff160217905550610c82565b82600a01829080600181540180825580915050600190039060005260206000200160009091909190916101000a81548173ffffffffffffffffffffffffffffffffffffffff021916908373ffffffffffffffffffffffffffffffffffffffff1602179055505b6002600454610c919190612c14565b83600b01805490501115610cd15760018360070160006101000a81548160ff02191690836009811115610cc757610cc6612376565b5b0217905550610e97565b6002600454610ce09190612c14565b83600a01805490501115610e9657600260009054906101000a900473ffffffffffffffffffffffffffffffffffffffff1673ffffffffffffffffffffffffffffffffffffffff16634cc82215886040518263ffffffff1660e01b8152600401610d499190612583565b600060405180830381600087803b158015610d6357600080fd5b505af1158015610d77573d6000803e3d6000fd5b50505050600160009054906101000a900473ffffffffffffffffffffffffffffffffffffffff1673ffffffffffffffffffffffffffffffffffffffff166323b872dd600560009054906101000a900473ffffffffffffffffffffffffffffffffffffffff168560030160009054906101000a900473ffffffffffffffffffffffffffffffffffffffff1686600501546040518463ffffffff1660e01b8152600401610e2493929190612ac5565b6020604051808303816000875af1158015610e43573d6000803e3d6000fd5b505050506040513d601f19601f82011682018060405250810190610e679190612c5a565b5060088360070160006101000a81548160ff02191690836009811115610e9057610e8f612376565b5b02179055505b5b50505050505050565b60008590508073ffffffffffffffffffffffffffffffffffffffff166323b872dd3330886040518463ffffffff1660e01b8152600401610ee293929190612ac5565b600060405180830381600087803b158015610efc57600080fd5b505af1158015610f10573d6000803e3d6000fd5b5050505060005483604051602001610f29929190612c87565b60405160208183030381529060405280519060200120600081905550600060098054905090506060806000604051806101a001604052804381526020018b73ffffffffffffffffffffffffffffffffffffffff1681526020018a81526020013373ffffffffffffffffffffffffffffffffffffffff16815260200142815260200189815260200187815260200160006009811115610fca57610fc9612376565b5b8152602001600073ffffffffffffffffffffffffffffffffffffffff16815260200160005481526020016000815260200184815260200183815250905060098190806001815401808255809150506001900390600052602060002090600c02016000909190919091506000820151816000015560208201518160010160006101000a81548173ffffffffffffffffffffffffffffffffffffffff021916908373ffffffffffffffffffffffffffffffffffffffff1602179055506040820151816002015560608201518160030160006101000a81548173ffffffffffffffffffffffffffffffffffffffff021916908373ffffffffffffffffffffffffffffffffffffffff1602179055506080820151816004015560a0820151816005015560c0820151816006015560e08201518160070160006101000a81548160ff0219169083600981111561111e5761111d612376565b5b02179055506101008201518160070160016101000a81548173ffffffffffffffffffffffffffffffffffffffff021916908373ffffffffffffffffffffffffffffffffffffffff1602179055506101208201518160080155610140820151816009015561016082015181600a01908051906020019061119e929190612212565b5061018082015181600b0190805190602001906111bc929190612212565b50505083600760008c73ffffffffffffffffffffffffffffffffffffffff1673ffffffffffffffffffffffffffffffffffffffff16815260200190815260200160002060008b815260200190815260200160002081905550600260009054906101000a900473ffffffffffffffffffffffffffffffffffffffff1673ffffffffffffffffffffffffffffffffffffffff1663fb470df2856001876112609190612cb0565b6040518363ffffffff1660e01b815260040161127d929190612ce4565b600060405180830381600087803b15801561129757600080fd5b505af11580156112ab573d6000803e3d6000fd5b5050505050505050505050505050565b60005481565b6000919050565b600560009054906101000a900473ffffffffffffffffffffffffffffffffffffffff1681565b600260009054906101000a900473ffffffffffffffffffffffffffffffffffffffff1681565b6000600660009054906101000a900473ffffffffffffffffffffffffffffffffffffffff1673ffffffffffffffffffffffffffffffffffffffff163373ffffffffffffffffffffffffffffffffffffffff161461137057600080fd5b81600660006101000a81548173ffffffffffffffffffffffffffffffffffffffff021916908373ffffffffffffffffffffffffffffffffffffffff16021790559050919050565b6000600982815481106113cd576113cc612903565b5b90600052602060002090600c020190503373ffffffffffffffffffffffffffffffffffffffff168160030160009054906101000a900473ffffffffffffffffffffffffffffffffffffffff1673ffffffffffffffffffffffffffffffffffffffff161461143957600080fd5b6008600981111561144d5761144c612376565b5b8160070160009054906101000a900460ff16600981111561147157611470612376565b5b1461147b57600080fd5b6114a9818260070160019054906101000a900473ffffffffffffffffffffffffffffffffffffffff16611dc4565b60098160070160006101000a81548160ff021916908360098111156114d1576114d0612376565b5b02179055505050565b6000600982815481106114f0576114ef612903565b5b90600052602060002090600c0201905060008160070160009054906101000a900460ff1690506001600981111561152a57611529612376565b5b81600981111561153d5761153c612376565b5b148061158b57506000600981111561155857611557612376565b5b81600981111561156b5761156a612376565b5b14801561158a5750426202a30083600401546115879190612a4f565b10155b5b61159457600080fd5b600160009054906101000a900473ffffffffffffffffffffffffffffffffffffffff1673ffffffffffffffffffffffffffffffffffffffff166323b872dd338460030160009054906101000a900473ffffffffffffffffffffffffffffffffffffffff1685600501546040518463ffffffff1660e01b815260040161161b93929190612ac5565b6020604051808303816000875af115801561163a573d6000803e3d6000fd5b505050506040513d601f19601f8201168201806040525081019061165e9190612c5a565b5060088260070160006101000a81548160ff0219169083600981111561168757611686612376565b5b0217905550338260070160016101000a81548173ffffffffffffffffffffffffffffffffffffffff021916908373ffffffffffffffffffffffffffffffffffffffff160217905550428260090181905550600260009054906101000a900473ffffffffffffffffffffffffffffffffffffffff1673ffffffffffffffffffffffffffffffffffffffff16634cc82215846040518263ffffffff1660e01b81526004016117339190612583565b600060405180830381600087803b15801561174d57600080fd5b505af1158015611761573d6000803e3d6000fd5b50505050827fd262cae68163fd472498119348d9793d6e5bf5bda2c9e02ab30121d3a0f4a46e8360010160009054906101000a900473ffffffffffffffffffffffffffffffffffffffff168460020154436040516117c193929190612d0d565b60405180910390a2505050565b60008490508073ffffffffffffffffffffffffffffffffffffffff166323b872dd3330876040518463ffffffff1660e01b815260040161181093929190612ac5565b600060405180830381600087803b15801561182a57600080fd5b505af115801561183e573d6000803e3d6000fd5b50505050600060098054905090506060806000604051806101a001604052804381526020018a73ffffffffffffffffffffffffffffffffffffffff1681526020018981526020013373ffffffffffffffffffffffffffffffffffffffff168152602001428152602001888152602001878152602001600660098111156118c7576118c6612376565b5b8152602001600073ffffffffffffffffffffffffffffffffffffffff16815260200160005481526020016000815260200184815260200183815250905060098190806001815401808255809150506001900390600052602060002090600c02016000909190919091506000820151816000015560208201518160010160006101000a81548173ffffffffffffffffffffffffffffffffffffffff021916908373ffffffffffffffffffffffffffffffffffffffff1602179055506040820151816002015560608201518160030160006101000a81548173ffffffffffffffffffffffffffffffffffffffff021916908373ffffffffffffffffffffffffffffffffffffffff1602179055506080820151816004015560a0820151816005015560c0820151816006015560e08201518160070160006101000a81548160ff02191690836009811115611a1b57611a1a612376565b5b02179055506101008201518160070160016101000a81548173ffffffffffffffffffffffffffffffffffffffff021916908373ffffffffffffffffffffffffffffffffffffffff1602179055506101208201518160080155610140820151816009015561016082015181600a019080519060200190611a9b929190612212565b5061018082015181600b019080519060200190611ab9929190612212565b50505083600760008b73ffffffffffffffffffffffffffffffffffffffff1673ffffffffffffffffffffffffffffffffffffffff16815260200190815260200160002060008a815260200190815260200160002081905550600260009054906101000a900473ffffffffffffffffffffffffffffffffffffffff1673ffffffffffffffffffffffffffffffffffffffff1663fb470df285600187611b5d9190612cb0565b6040518363ffffffff1660e01b8152600401611b7a929190612ce4565b600060405180830381600087803b158015611b9457600080fd5b505af1158015611ba8573d6000803e3d6000fd5b50505050505050505050505050565b600160009054906101000a900473ffffffffffffffffffffffffffffffffffffffff1681565b600060098281548110611bf357611bf2612903565b5b90600052602060002090600c0201905060008160070160009054906101000a900460ff16905060066009811115611c2d57611c2c612376565b5b816009811115611c4057611c3f612376565b5b14611c4a57600080fd5b600260009054906101000a900473ffffffffffffffffffffffffffffffffffffffff1673ffffffffffffffffffffffffffffffffffffffff16634cc82215846040518263ffffffff1660e01b8152600401611ca59190612583565b600060405180830381600087803b158015611cbf57600080fd5b505af1158015611cd3573d6000803e3d6000fd5b505050508160010160009054906101000a900473ffffffffffffffffffffffffffffffffffffffff1673ffffffffffffffffffffffffffffffffffffffff166323b872dd308460030160009054906101000a900473ffffffffffffffffffffffffffffffffffffffff1685600201546040518463ffffffff1660e01b8152600401611d6093929190612ac5565b600060405180830381600087803b158015611d7a57600080fd5b505af1158015611d8e573d6000803e3d6000fd5b5050505060078260070160006101000a81548160ff02191690836009811115611dba57611db9612376565b5b0217905550505050565b6000611dd883600501548460060154610670565b9050600160009054906101000a900473ffffffffffffffffffffffffffffffffffffffff1673ffffffffffffffffffffffffffffffffffffffff166323b872dd3384846040518463ffffffff1660e01b8152600401611e3993929190612ac5565b6020604051808303816000875af1158015611e58573d6000803e3d6000fd5b505050506040513d601f19601f82011682018060405250810190611e7c9190612c5a565b508260010160009054906101000a900473ffffffffffffffffffffffffffffffffffffffff1673ffffffffffffffffffffffffffffffffffffffff166323b872dd303386600201546040518463ffffffff1660e01b8152600401611ee293929190612ac5565b600060405180830381600087803b158015611efc57600080fd5b505af1158015611f10573d6000803e3d6000fd5b50505050505050565b6000806000611f2885856120df565b9150915060006004811115611f4057611f3f612376565b5b816004811115611f5357611f52612376565b5b148015611f8b57508573ffffffffffffffffffffffffffffffffffffffff168273ffffffffffffffffffffffffffffffffffffffff16145b15611f9b576001925050506120d8565b6000808773ffffffffffffffffffffffffffffffffffffffff16631626ba7e60e01b8888604051602401611fd0929190612dd4565b604051602081830303815290604052907bffffffffffffffffffffffffffffffffffffffffffffffffffffffff19166020820180517bffffffffffffffffffffffffffffffffffffffffffffffffffffffff838183161783525050505060405161203a9190612e40565b600060405180830381855afa9150503d8060008114612075576040519150601f19603f3d011682016040523d82523d6000602084013e61207a565b606091505b509150915081801561208d575060208151145b80156120d15750631626ba7e60e01b7bffffffffffffffffffffffffffffffffffffffffffffffffffffffff1916818060200190518101906120cf9190612e6c565b145b9450505050505b9392505050565b60008060418351036121205760008060006020860151925060408601519150606086015160001a905061211487828585612130565b94509450505050612129565b60006002915091505b9250929050565b6000807f7fffffffffffffffffffffffffffffff5d576e7357a4501ddfe92f46681b20a08360001c111561216b576000600391509150612209565b6000600187878787604051600081526020016040526040516121909493929190612eb5565b6020604051602081039080840390855afa1580156121b2573d6000803e3d6000fd5b505050602060405103519050600073ffffffffffffffffffffffffffffffffffffffff168173ffffffffffffffffffffffffffffffffffffffff160361220057600060019250925050612209565b80600092509250505b94509492505050565b82805482825590600052602060002090810192821561228b579160200282015b8281111561228a5782518260006101000a81548173ffffffffffffffffffffffffffffffffffffffff021916908373ffffffffffffffffffffffffffffffffffffffff16021790555091602001919060010190612232565b5b509050612298919061229c565b5090565b5b808211156122b557600081600090555060010161229d565b5090565b600080fd5b600080fd5b6000819050919050565b6122d6816122c3565b81146122e157600080fd5b50565b6000813590506122f3816122cd565b92915050565b60006020828403121561230f5761230e6122b9565b5b600061231d848285016122e4565b91505092915050565b61232f816122c3565b82525050565b600073ffffffffffffffffffffffffffffffffffffffff82169050919050565b600061236082612335565b9050919050565b61237081612355565b82525050565b7f4e487b7100000000000000000000000000000000000000000000000000000000600052602160045260246000fd5b600a81106123b6576123b5612376565b5b50565b60008190506123c7826123a5565b919050565b60006123d7826123b9565b9050919050565b6123e7816123cc565b82525050565b6000819050919050565b612400816123ed565b82525050565b60006101608201905061241c600083018e612326565b612429602083018d612367565b612436604083018c612326565b612443606083018b612367565b612450608083018a612326565b61245d60a0830189612326565b61246a60c0830188612326565b61247760e08301876123de565b612485610100830186612367565b6124936101208301856123f7565b6124a1610140830184612326565b9c9b505050505050505050505050565b6124ba81612355565b81146124c557600080fd5b50565b6000813590506124d7816124b1565b92915050565b60008115159050919050565b6124f2816124dd565b81146124fd57600080fd5b50565b60008135905061250f816124e9565b92915050565b60008060006060848603121561252e5761252d6122b9565b5b600061253c868287016124c8565b935050602061254d868287016122e4565b925050604061255e86828701612500565b9150509250925092565b600060208201905061257d60008301846123f7565b92915050565b60006020820190506125986000830184612326565b92915050565b60006020820190506125b36000830184612367565b92915050565b600080604083850312156125d0576125cf6122b9565b5b60006125de858286016122e4565b92505060206125ef858286016122e4565b9150509250929050565b600080604083850312156126105761260f6122b9565b5b600061261e858286016124c8565b925050602061262f858286016122e4565b9150509250929050565b600080fd5b600080fd5b600080fd5b60008083601f84011261265e5761265d612639565b5b8235905067ffffffffffffffff81111561267b5761267a61263e565b5b60208301915083600182028301111561269757612696612643565b5b9250929050565b600080600080606085870312156126b8576126b76122b9565b5b60006126c6878288016122e4565b94505060206126d787828801612500565b935050604085013567ffffffffffffffff8111156126f8576126f76122be565b5b61270487828801612648565b925092505092959194509250565b61271b816123ed565b811461272657600080fd5b50565b60008135905061273881612712565b92915050565b600080600080600060a0868803121561275a576127596122b9565b5b6000612768888289016124c8565b9550506020612779888289016122e4565b945050604061278a888289016122e4565b935050606061279b88828901612729565b92505060806127ac888289016122e4565b9150509295509295909350565b6000819050919050565b60006127de6127d96127d484612335565b6127b9565b612335565b9050919050565b60006127f0826127c3565b9050919050565b6000612802826127e5565b9050919050565b612812816127f7565b82525050565b600060208201905061282d6000830184612809565b92915050565b600060208284031215612849576128486122b9565b5b6000612857848285016124c8565b91505092915050565b6000806000806080858703121561287a576128796122b9565b5b6000612888878288016124c8565b9450506020612899878288016122e4565b93505060406128aa878288016122e4565b92505060606128bb878288016122e4565b91505092959194509250565b60006128d2826127e5565b9050919050565b6128e2816128c7565b82525050565b60006020820190506128fd60008301846128d9565b92915050565b7f4e487b7100000000000000000000000000000000000000000000000000000000600052603260045260246000fd5b60008160601b9050919050565b600061294a82612932565b9050919050565b600061295c8261293f565b9050919050565b61297461296f82612355565b612951565b82525050565b6000819050919050565b612995612990826122c3565b61297a565b82525050565b60008160f81b9050919050565b60006129b38261299b565b9050919050565b60006129c5826129a8565b9050919050565b6129dd6129d8826124dd565b6129ba565b82525050565b60006129ef8286612963565b6014820191506129ff8285612984565b602082019150612a0f82846129cc565b600182019150819050949350505050565b7f4e487b7100000000000000000000000000000000000000000000000000000000600052601160045260246000fd5b6000612a5a826122c3565b9150612a65836122c3565b9250828201905080821115612a7d57612a7c612a20565b5b92915050565b6000612a8e826122c3565b9150612a99836122c3565b9250828202612aa7816122c3565b91508282048414831517612abe57612abd612a20565b5b5092915050565b6000606082019050612ada6000830186612367565b612ae76020830185612367565b612af46040830184612326565b949350505050565b600082825260208201905092915050565b7f6973206e6f742050744400000000000000000000000000000000000000000000600082015250565b6000612b43600a83612afc565b9150612b4e82612b0d565b602082019050919050565b60006020820190508181036000830152612b7281612b36565b9050919050565b7f616c726561647920766f74656400000000000000000000000000000000000000600082015250565b6000612baf600d83612afc565b9150612bba82612b79565b602082019050919050565b60006020820190508181036000830152612bde81612ba2565b9050919050565b7f4e487b7100000000000000000000000000000000000000000000000000000000600052601260045260246000fd5b6000612c1f826122c3565b9150612c2a836122c3565b925082612c3a57612c39612be5565b5b828204905092915050565b600081519050612c54816124e9565b92915050565b600060208284031215612c7057612c6f6122b9565b5b6000612c7e84828501612c45565b91505092915050565b6000604082019050612c9c60008301856123f7565b612ca960208301846123f7565b9392505050565b6000612cbb826122c3565b9150612cc6836122c3565b9250828203905081811115612cde57612cdd612a20565b5b92915050565b6000604082019050612cf96000830185612326565b612d066020830184612326565b9392505050565b6000606082019050612d226000830186612367565b612d2f6020830185612326565b612d3c6040830184612326565b949350505050565b600081519050919050565b600082825260208201905092915050565b60005b83811015612d7e578082015181840152602081019050612d63565b60008484015250505050565b6000601f19601f8301169050919050565b6000612da682612d44565b612db08185612d4f565b9350612dc0818560208601612d60565b612dc981612d8a565b840191505092915050565b6000604082019050612de960008301856123f7565b8181036020830152612dfb8184612d9b565b90509392505050565b600081905092915050565b6000612e1a82612d44565b612e248185612e04565b9350612e34818560208601612d60565b80840191505092915050565b6000612e4c8284612e0f565b915081905092915050565b600081519050612e6681612712565b92915050565b600060208284031215612e8257612e816122b9565b5b6000612e9084828501612e57565b91505092915050565b600060ff82169050919050565b612eaf81612e99565b82525050565b6000608082019050612eca60008301876123f7565b612ed76020830186612ea6565b612ee460408301856123f7565b612ef160608301846123f7565b9594505050505056fea26469706673582212202f6e0df3ff6cfbac4d06c96b923e38f131927892b9806cada2c4af9f0ac619aa64736f6c6343000812003360806040526000600155600060025534801561001a57600080fd5b506040516107de3803806107de833981810160405281019061003c91906100e5565b806000806101000a81548173ffffffffffffffffffffffffffffffffffffffff021916908373ffffffffffffffffffffffffffffffffffffffff16021790555050610112565b600080fd5b600073ffffffffffffffffffffffffffffffffffffffff82169050919050565b60006100b282610087565b9050919050565b6100c2816100a7565b81146100cd57600080fd5b50565b6000815190506100df816100b9565b92915050565b6000602082840312156100fb576100fa610082565b5b6000610109848285016100d0565b91505092915050565b6106bd806101216000396000f3fe608060405234801561001057600080fd5b50600436106100625760003560e01c80631f7b6d32146100675780634cc822151461008557806358fa63ca146100a157806380d281c2146100bf578063ac12d745146100db578063fb470df21461010d575b600080fd5b61006f610129565b60405161007c91906104f7565b60405180910390f35b61009f600480360381019061009a9190610543565b61012f565b005b6100a9610230565b6040516100b691906104f7565b60405180910390f35b6100d960048036038101906100d49190610543565b610236565b005b6100f560048036038101906100f09190610543565b6103b8565b60405161010493929190610570565b60405180910390f35b610127600480360381019061012291906105a7565b6103e2565b005b60025481565b60008054906101000a900473ffffffffffffffffffffffffffffffffffffffff1673ffffffffffffffffffffffffffffffffffffffff163373ffffffffffffffffffffffffffffffffffffffff161461018757600080fd5b600360008281526020019081526020016000206002015460036000600360008581526020019081526020016000206001015481526020019081526020016000206002018190555060036000828152602001908152602001600020600101546003600060036000858152602001908152602001600020600201548152602001908152602001600020600101819055506002600081548092919061022890610616565b919050555050565b60015481565b60008054906101000a900473ffffffffffffffffffffffffffffffffffffffff1673ffffffffffffffffffffffffffffffffffffffff163373ffffffffffffffffffffffffffffffffffffffff161461028e57600080fd5b6000600360008381526020019081526020016000206040518060600160405290816000820154815260200160018201548152602001600282015481525050905060036000600154815260200190815260200160002060020154600360008481526020019081526020016000206002018190555060015460036000848152602001908152602001600020600101819055508160036000600360006001548152602001908152602001600020600201548152602001908152602001600020600101819055508160036000600154815260200190815260200160002060020181905550806020015160036000836040015181526020019081526020016000206001018190555080604001516003600083602001518152602001908152602001600020600201819055505050565b60036020528060005260406000206000915090508060000154908060010154908060020154905083565b60008054906101000a900473ffffffffffffffffffffffffffffffffffffffff1673ffffffffffffffffffffffffffffffffffffffff163373ffffffffffffffffffffffffffffffffffffffff161461043a57600080fd5b600060036000838152602001908152602001600020600201549050826003600084815260200190815260200160002060020181905550806003600085815260200190815260200160002060020181905550826003600083815260200190815260200160002060010181905550826003600085815260200190815260200160002060000181905550600260008154809291906104d49061063f565b9190505550505050565b6000819050919050565b6104f1816104de565b82525050565b600060208201905061050c60008301846104e8565b92915050565b600080fd5b610520816104de565b811461052b57600080fd5b50565b60008135905061053d81610517565b92915050565b60006020828403121561055957610558610512565b5b60006105678482850161052e565b91505092915050565b600060608201905061058560008301866104e8565b61059260208301856104e8565b61059f60408301846104e8565b949350505050565b600080604083850312156105be576105bd610512565b5b60006105cc8582860161052e565b92505060206105dd8582860161052e565b9150509250929050565b7f4e487b7100000000000000000000000000000000000000000000000000000000600052601160045260246000fd5b6000610621826104de565b915060008203610634576106336105e7565b5b600182039050919050565b600061064a826104de565b91507fffffffffffffffffffffffffffffffffffffffffffffffffffffffffffffffff820361067c5761067b6105e7565b5b60018201905091905056fea264697066735822122054ec705844d4d4b5c63409f10ba173a241e858c7ad262053e2b241cc3c337f7b64736f6c63430008120033",
					"opcodes": "PUSH1 0x80 PUSH1 0x40 MSTORE NUMBER TIMESTAMP PUSH1 0x40 MLOAD PUSH1 0x20 ADD PUSH3 0x19 SWAP3 SWAP2 SWAP1 PUSH3 0x241 JUMP JUMPDEST PUSH1 0x40 MLOAD PUSH1 0x20 DUP2 DUP4 SUB SUB DUP2 MSTORE SWAP1 PUSH1 0x40 MSTORE DUP1 MLOAD SWAP1 PUSH1 0x20 ADD KECCAK256 PUSH1 0x0 SSTORE PUSH20 0x41C2481B5ACD58DE9336B56A881B5D914F517064 PUSH1 0x3 PUSH1 0x0 PUSH2 0x100 EXP DUP2 SLOAD DUP2 PUSH20 0xFFFFFFFFFFFFFFFFFFFFFFFFFFFFFFFFFFFFFFFF MUL NOT AND SWAP1 DUP4 PUSH20 0xFFFFFFFFFFFFFFFFFFFFFFFFFFFFFFFFFFFFFFFF AND MUL OR SWAP1 SSTORE POP PUSH1 0x64 PUSH1 0x4 SSTORE CALLVALUE DUP1 ISZERO PUSH3 0x99 JUMPI PUSH1 0x0 DUP1 REVERT JUMPDEST POP PUSH1 0x40 MLOAD PUSH3 0x3A83 CODESIZE SUB DUP1 PUSH3 0x3A83 DUP4 CODECOPY DUP2 DUP2 ADD PUSH1 0x40 MSTORE DUP2 ADD SWAP1 PUSH3 0xBF SWAP2 SWAP1 PUSH3 0x2DB JUMP JUMPDEST DUP3 PUSH1 0x1 PUSH1 0x0 PUSH2 0x100 EXP DUP2 SLOAD DUP2 PUSH20 0xFFFFFFFFFFFFFFFFFFFFFFFFFFFFFFFFFFFFFFFF MUL NOT AND SWAP1 DUP4 PUSH20 0xFFFFFFFFFFFFFFFFFFFFFFFFFFFFFFFFFFFFFFFF AND MUL OR SWAP1 SSTORE POP DUP2 PUSH1 0x5 PUSH1 0x0 PUSH2 0x100 EXP DUP2 SLOAD DUP2 PUSH20 0xFFFFFFFFFFFFFFFFFFFFFFFFFFFFFFFFFFFFFFFF MUL NOT AND SWAP1 DUP4 PUSH20 0xFFFFFFFFFFFFFFFFFFFFFFFFFFFFFFFFFFFFFFFF AND MUL OR SWAP1 SSTORE POP DUP1 PUSH1 0x6 PUSH1 0x0 PUSH2 0x100 EXP DUP2 SLOAD DUP2 PUSH20 0xFFFFFFFFFFFFFFFFFFFFFFFFFFFFFFFFFFFFFFFF MUL NOT AND SWAP1 DUP4 PUSH20 0xFFFFFFFFFFFFFFFFFFFFFFFFFFFFFFFFFFFFFFFF AND MUL OR SWAP1 SSTORE POP ADDRESS PUSH1 0x40 MLOAD PUSH3 0x191 SWAP1 PUSH3 0x204 JUMP JUMPDEST PUSH3 0x19D SWAP2 SWAP1 PUSH3 0x348 JUMP JUMPDEST PUSH1 0x40 MLOAD DUP1 SWAP2 SUB SWAP1 PUSH1 0x0 CREATE DUP1 ISZERO DUP1 ISZERO PUSH3 0x1BA JUMPI RETURNDATASIZE PUSH1 0x0 DUP1 RETURNDATACOPY RETURNDATASIZE PUSH1 0x0 REVERT JUMPDEST POP PUSH1 0x2 PUSH1 0x0 PUSH2 0x100 EXP DUP2 SLOAD DUP2 PUSH20 0xFFFFFFFFFFFFFFFFFFFFFFFFFFFFFFFFFFFFFFFF MUL NOT AND SWAP1 DUP4 PUSH20 0xFFFFFFFFFFFFFFFFFFFFFFFFFFFFFFFFFFFFFFFF AND MUL OR SWAP1 SSTORE POP POP POP POP PUSH3 0x365 JUMP JUMPDEST PUSH2 0x7DE DUP1 PUSH3 0x32A5 DUP4 CODECOPY ADD SWAP1 JUMP JUMPDEST PUSH1 0x0 DUP2 SWAP1 POP SWAP2 SWAP1 POP JUMP JUMPDEST PUSH1 0x0 DUP2 SWAP1 POP SWAP2 SWAP1 POP JUMP JUMPDEST PUSH3 0x23B PUSH3 0x235 DUP3 PUSH3 0x212 JUMP JUMPDEST PUSH3 0x21C JUMP JUMPDEST DUP3 MSTORE POP POP JUMP JUMPDEST PUSH1 0x0 PUSH3 0x24F DUP3 DUP6 PUSH3 0x226 JUMP JUMPDEST PUSH1 0x20 DUP3 ADD SWAP2 POP PUSH3 0x261 DUP3 DUP5 PUSH3 0x226 JUMP JUMPDEST PUSH1 0x20 DUP3 ADD SWAP2 POP DUP2 SWAP1 POP SWAP4 SWAP3 POP POP POP JUMP JUMPDEST PUSH1 0x0 DUP1 REVERT JUMPDEST PUSH1 0x0 PUSH20 0xFFFFFFFFFFFFFFFFFFFFFFFFFFFFFFFFFFFFFFFF DUP3 AND SWAP1 POP SWAP2 SWAP1 POP JUMP JUMPDEST PUSH1 0x0 PUSH3 0x2A3 DUP3 PUSH3 0x276 JUMP JUMPDEST SWAP1 POP SWAP2 SWAP1 POP JUMP JUMPDEST PUSH3 0x2B5 DUP2 PUSH3 0x296 JUMP JUMPDEST DUP2 EQ PUSH3 0x2C1 JUMPI PUSH1 0x0 DUP1 REVERT JUMPDEST POP JUMP JUMPDEST PUSH1 0x0 DUP2 MLOAD SWAP1 POP PUSH3 0x2D5 DUP2 PUSH3 0x2AA JUMP JUMPDEST SWAP3 SWAP2 POP POP JUMP JUMPDEST PUSH1 0x0 DUP1 PUSH1 0x0 PUSH1 0x60 DUP5 DUP7 SUB SLT ISZERO PUSH3 0x2F7 JUMPI PUSH3 0x2F6 PUSH3 0x271 JUMP JUMPDEST JUMPDEST PUSH1 0x0 PUSH3 0x307 DUP7 DUP3 DUP8 ADD PUSH3 0x2C4 JUMP JUMPDEST SWAP4 POP POP PUSH1 0x20 PUSH3 0x31A DUP7 DUP3 DUP8 ADD PUSH3 0x2C4 JUMP JUMPDEST SWAP3 POP POP PUSH1 0x40 PUSH3 0x32D DUP7 DUP3 DUP8 ADD PUSH3 0x2C4 JUMP JUMPDEST SWAP2 POP POP SWAP3 POP SWAP3 POP SWAP3 JUMP JUMPDEST PUSH3 0x342 DUP2 PUSH3 0x296 JUMP JUMPDEST DUP3 MSTORE POP POP JUMP JUMPDEST PUSH1 0x0 PUSH1 0x20 DUP3 ADD SWAP1 POP PUSH3 0x35F PUSH1 0x0 DUP4 ADD DUP5 PUSH3 0x337 JUMP JUMPDEST SWAP3 SWAP2 POP POP JUMP JUMPDEST PUSH2 0x2F30 DUP1 PUSH3 0x375 PUSH1 0x0 CODECOPY PUSH1 0x0 RETURN INVALID PUSH1 0x80 PUSH1 0x40 MSTORE CALLVALUE DUP1 ISZERO PUSH2 0x10 JUMPI PUSH1 0x0 DUP1 REVERT JUMPDEST POP PUSH1 0x4 CALLDATASIZE LT PUSH2 0x137 JUMPI PUSH1 0x0 CALLDATALOAD PUSH1 0xE0 SHR DUP1 PUSH4 0x88D8EFCD GT PUSH2 0xB8 JUMPI DUP1 PUSH4 0xDF8089EF GT PUSH2 0x7C JUMPI DUP1 PUSH4 0xDF8089EF EQ PUSH2 0x358 JUMPI DUP1 PUSH4 0xE1DAC56B EQ PUSH2 0x388 JUMPI DUP1 PUSH4 0xE7A1F2DE EQ PUSH2 0x3A4 JUMPI DUP1 PUSH4 0xEB29C564 EQ PUSH2 0x3C0 JUMPI DUP1 PUSH4 0xFC0C546A EQ PUSH2 0x3DC JUMPI DUP1 PUSH4 0xFEF01D8F EQ PUSH2 0x3FA JUMPI PUSH2 0x137 JUMP JUMPDEST DUP1 PUSH4 0x88D8EFCD EQ PUSH2 0x2B2 JUMPI DUP1 PUSH4 0x8D55CFB6 EQ PUSH2 0x2CE JUMPI DUP1 PUSH4 0xBF4F41EB EQ PUSH2 0x2EC JUMPI DUP1 PUSH4 0xC83A34F6 EQ PUSH2 0x31C JUMPI DUP1 PUSH4 0xD80EE2E9 EQ PUSH2 0x33A JUMPI PUSH2 0x137 JUMP JUMPDEST DUP1 PUSH4 0x3164D86F GT PUSH2 0xFF JUMPI DUP1 PUSH4 0x3164D86F EQ PUSH2 0x1FE JUMPI DUP1 PUSH4 0x4F172537 EQ PUSH2 0x22E JUMPI DUP1 PUSH4 0x6295A466 EQ PUSH2 0x25E JUMPI DUP1 PUSH4 0x6C9F2032 EQ PUSH2 0x27A JUMPI DUP1 PUSH4 0x7097E18E EQ PUSH2 0x296 JUMPI PUSH2 0x137 JUMP JUMPDEST DUP1 PUSH4 0x13CF08B EQ PUSH2 0x13C JUMPI DUP1 PUSH4 0x51DD5A8 EQ PUSH2 0x176 JUMPI DUP1 PUSH4 0xD4E50ED EQ PUSH2 0x192 JUMPI DUP1 PUSH4 0x215B28C5 EQ PUSH2 0x1C2 JUMPI DUP1 PUSH4 0x238AC933 EQ PUSH2 0x1E0 JUMPI JUMPDEST PUSH1 0x0 DUP1 REVERT JUMPDEST PUSH2 0x156 PUSH1 0x4 DUP1 CALLDATASIZE SUB DUP2 ADD SWAP1 PUSH2 0x151 SWAP2 SWAP1 PUSH2 0x22F9 JUMP JUMPDEST PUSH2 0x416 JUMP JUMPDEST PUSH1 0x40 MLOAD PUSH2 0x16D SWAP12 SWAP11 SWAP10 SWAP9 SWAP8 SWAP7 SWAP6 SWAP5 SWAP4 SWAP3 SWAP2 SWAP1 PUSH2 0x2406 JUMP JUMPDEST PUSH1 0x40 MLOAD DUP1 SWAP2 SUB SWAP1 RETURN JUMPDEST PUSH2 0x190 PUSH1 0x4 DUP1 CALLDATASIZE SUB DUP2 ADD SWAP1 PUSH2 0x18B SWAP2 SWAP1 PUSH2 0x22F9 JUMP JUMPDEST PUSH2 0x4ED JUMP JUMPDEST STOP JUMPDEST PUSH2 0x1AC PUSH1 0x4 DUP1 CALLDATASIZE SUB DUP2 ADD SWAP1 PUSH2 0x1A7 SWAP2 SWAP1 PUSH2 0x2515 JUMP JUMPDEST PUSH2 0x60E JUMP JUMPDEST PUSH1 0x40 MLOAD PUSH2 0x1B9 SWAP2 SWAP1 PUSH2 0x2568 JUMP JUMPDEST PUSH1 0x40 MLOAD DUP1 SWAP2 SUB SWAP1 RETURN JUMPDEST PUSH2 0x1CA PUSH2 0x644 JUMP JUMPDEST PUSH1 0x40 MLOAD PUSH2 0x1D7 SWAP2 SWAP1 PUSH2 0x2583 JUMP JUMPDEST PUSH1 0x40 MLOAD DUP1 SWAP2 SUB SWAP1 RETURN JUMPDEST PUSH2 0x1E8 PUSH2 0x64A JUMP JUMPDEST PUSH1 0x40 MLOAD PUSH2 0x1F5 SWAP2 SWAP1 PUSH2 0x259E JUMP JUMPDEST PUSH1 0x40 MLOAD DUP1 SWAP2 SUB SWAP1 RETURN JUMPDEST PUSH2 0x218 PUSH1 0x4 DUP1 CALLDATASIZE SUB DUP2 ADD SWAP1 PUSH2 0x213 SWAP2 SWAP1 PUSH2 0x25B9 JUMP JUMPDEST PUSH2 0x670 JUMP JUMPDEST PUSH1 0x40 MLOAD PUSH2 0x225 SWAP2 SWAP1 PUSH2 0x2583 JUMP JUMPDEST PUSH1 0x40 MLOAD DUP1 SWAP2 SUB SWAP1 RETURN JUMPDEST PUSH2 0x248 PUSH1 0x4 DUP1 CALLDATASIZE SUB DUP2 ADD SWAP1 PUSH2 0x243 SWAP2 SWAP1 PUSH2 0x25F9 JUMP JUMPDEST PUSH2 0x69A JUMP JUMPDEST PUSH1 0x40 MLOAD PUSH2 0x255 SWAP2 SWAP1 PUSH2 0x2583 JUMP JUMPDEST PUSH1 0x40 MLOAD DUP1 SWAP2 SUB SWAP1 RETURN JUMPDEST PUSH2 0x278 PUSH1 0x4 DUP1 CALLDATASIZE SUB DUP2 ADD SWAP1 PUSH2 0x273 SWAP2 SWAP1 PUSH2 0x22F9 JUMP JUMPDEST PUSH2 0x6BF JUMP JUMPDEST STOP JUMPDEST PUSH2 0x294 PUSH1 0x4 DUP1 CALLDATASIZE SUB DUP2 ADD SWAP1 PUSH2 0x28F SWAP2 SWAP1 PUSH2 0x22F9 JUMP JUMPDEST PUSH2 0x723 JUMP JUMPDEST STOP JUMPDEST PUSH2 0x2B0 PUSH1 0x4 DUP1 CALLDATASIZE SUB DUP2 ADD SWAP1 PUSH2 0x2AB SWAP2 SWAP1 PUSH2 0x269E JUMP JUMPDEST PUSH2 0x957 JUMP JUMPDEST STOP JUMPDEST PUSH2 0x2CC PUSH1 0x4 DUP1 CALLDATASIZE SUB DUP2 ADD SWAP1 PUSH2 0x2C7 SWAP2 SWAP1 PUSH2 0x273E JUMP JUMPDEST PUSH2 0xEA0 JUMP JUMPDEST STOP JUMPDEST PUSH2 0x2D6 PUSH2 0x12BB JUMP JUMPDEST PUSH1 0x40 MLOAD PUSH2 0x2E3 SWAP2 SWAP1 PUSH2 0x2568 JUMP JUMPDEST PUSH1 0x40 MLOAD DUP1 SWAP2 SUB SWAP1 RETURN JUMPDEST PUSH2 0x306 PUSH1 0x4 DUP1 CALLDATASIZE SUB DUP2 ADD SWAP1 PUSH2 0x301 SWAP2 SWAP1 PUSH2 0x22F9 JUMP JUMPDEST PUSH2 0x12C1 JUMP JUMPDEST PUSH1 0x40 MLOAD PUSH2 0x313 SWAP2 SWAP1 PUSH2 0x2583 JUMP JUMPDEST PUSH1 0x40 MLOAD DUP1 SWAP2 SUB SWAP1 RETURN JUMPDEST PUSH2 0x324 PUSH2 0x12C8 JUMP JUMPDEST PUSH1 0x40 MLOAD PUSH2 0x331 SWAP2 SWAP1 PUSH2 0x259E JUMP JUMPDEST PUSH1 0x40 MLOAD DUP1 SWAP2 SUB SWAP1 RETURN JUMPDEST PUSH2 0x342 PUSH2 0x12EE JUMP JUMPDEST PUSH1 0x40 MLOAD PUSH2 0x34F SWAP2 SWAP1 PUSH2 0x2818 JUMP JUMPDEST PUSH1 0x40 MLOAD DUP1 SWAP2 SUB SWAP1 RETURN JUMPDEST PUSH2 0x372 PUSH1 0x4 DUP1 CALLDATASIZE SUB DUP2 ADD SWAP1 PUSH2 0x36D SWAP2 SWAP1 PUSH2 0x2833 JUMP JUMPDEST PUSH2 0x1314 JUMP JUMPDEST PUSH1 0x40 MLOAD PUSH2 0x37F SWAP2 SWAP1 PUSH2 0x259E JUMP JUMPDEST PUSH1 0x40 MLOAD DUP1 SWAP2 SUB SWAP1 RETURN JUMPDEST PUSH2 0x3A2 PUSH1 0x4 DUP1 CALLDATASIZE SUB DUP2 ADD SWAP1 PUSH2 0x39D SWAP2 SWAP1 PUSH2 0x22F9 JUMP JUMPDEST PUSH2 0x13B7 JUMP JUMPDEST STOP JUMPDEST PUSH2 0x3BE PUSH1 0x4 DUP1 CALLDATASIZE SUB DUP2 ADD SWAP1 PUSH2 0x3B9 SWAP2 SWAP1 PUSH2 0x22F9 JUMP JUMPDEST PUSH2 0x14DA JUMP JUMPDEST STOP JUMPDEST PUSH2 0x3DA PUSH1 0x4 DUP1 CALLDATASIZE SUB DUP2 ADD SWAP1 PUSH2 0x3D5 SWAP2 SWAP1 PUSH2 0x2860 JUMP JUMPDEST PUSH2 0x17CE JUMP JUMPDEST STOP JUMPDEST PUSH2 0x3E4 PUSH2 0x1BB7 JUMP JUMPDEST PUSH1 0x40 MLOAD PUSH2 0x3F1 SWAP2 SWAP1 PUSH2 0x28E8 JUMP JUMPDEST PUSH1 0x40 MLOAD DUP1 SWAP2 SUB SWAP1 RETURN JUMPDEST PUSH2 0x414 PUSH1 0x4 DUP1 CALLDATASIZE SUB DUP2 ADD SWAP1 PUSH2 0x40F SWAP2 SWAP1 PUSH2 0x22F9 JUMP JUMPDEST PUSH2 0x1BDD JUMP JUMPDEST STOP JUMPDEST PUSH1 0x9 DUP2 DUP2 SLOAD DUP2 LT PUSH2 0x426 JUMPI PUSH1 0x0 DUP1 REVERT JUMPDEST SWAP1 PUSH1 0x0 MSTORE PUSH1 0x20 PUSH1 0x0 KECCAK256 SWAP1 PUSH1 0xC MUL ADD PUSH1 0x0 SWAP2 POP SWAP1 POP DUP1 PUSH1 0x0 ADD SLOAD SWAP1 DUP1 PUSH1 0x1 ADD PUSH1 0x0 SWAP1 SLOAD SWAP1 PUSH2 0x100 EXP SWAP1 DIV PUSH20 0xFFFFFFFFFFFFFFFFFFFFFFFFFFFFFFFFFFFFFFFF AND SWAP1 DUP1 PUSH1 0x2 ADD SLOAD SWAP1 DUP1 PUSH1 0x3 ADD PUSH1 0x0 SWAP1 SLOAD SWAP1 PUSH2 0x100 EXP SWAP1 DIV PUSH20 0xFFFFFFFFFFFFFFFFFFFFFFFFFFFFFFFFFFFFFFFF AND SWAP1 DUP1 PUSH1 0x4 ADD SLOAD SWAP1 DUP1 PUSH1 0x5 ADD SLOAD SWAP1 DUP1 PUSH1 0x6 ADD SLOAD SWAP1 DUP1 PUSH1 0x7 ADD PUSH1 0x0 SWAP1 SLOAD SWAP1 PUSH2 0x100 EXP SWAP1 DIV PUSH1 0xFF AND SWAP1 DUP1 PUSH1 0x7 ADD PUSH1 0x1 SWAP1 SLOAD SWAP1 PUSH2 0x100 EXP SWAP1 DIV PUSH20 0xFFFFFFFFFFFFFFFFFFFFFFFFFFFFFFFFFFFFFFFF AND SWAP1 DUP1 PUSH1 0x8 ADD SLOAD SWAP1 DUP1 PUSH1 0x9 ADD SLOAD SWAP1 POP DUP12 JUMP JUMPDEST PUSH1 0x0 PUSH1 0x9 DUP3 DUP2 SLOAD DUP2 LT PUSH2 0x503 JUMPI PUSH2 0x502 PUSH2 0x2903 JUMP JUMPDEST JUMPDEST SWAP1 PUSH1 0x0 MSTORE PUSH1 0x20 PUSH1 0x0 KECCAK256 SWAP1 PUSH1 0xC MUL ADD SWAP1 POP CALLER PUSH20 0xFFFFFFFFFFFFFFFFFFFFFFFFFFFFFFFFFFFFFFFF AND DUP2 PUSH1 0x3 ADD PUSH1 0x0 SWAP1 SLOAD SWAP1 PUSH2 0x100 EXP SWAP1 DIV PUSH20 0xFFFFFFFFFFFFFFFFFFFFFFFFFFFFFFFFFFFFFFFF AND PUSH20 0xFFFFFFFFFFFFFFFFFFFFFFFFFFFFFFFFFFFFFFFF AND EQ PUSH2 0x56F JUMPI PUSH1 0x0 DUP1 REVERT JUMPDEST PUSH1 0x4 PUSH1 0x9 DUP2 GT ISZERO PUSH2 0x583 JUMPI PUSH2 0x582 PUSH2 0x2376 JUMP JUMPDEST JUMPDEST DUP2 PUSH1 0x7 ADD PUSH1 0x0 SWAP1 SLOAD SWAP1 PUSH2 0x100 EXP SWAP1 DIV PUSH1 0xFF AND PUSH1 0x9 DUP2 GT ISZERO PUSH2 0x5A7 JUMPI PUSH2 0x5A6 PUSH2 0x2376 JUMP JUMPDEST JUMPDEST EQ PUSH2 0x5B1 JUMPI PUSH1 0x0 DUP1 REVERT JUMPDEST PUSH2 0x5DD DUP2 PUSH1 0x5 PUSH1 0x0 SWAP1 SLOAD SWAP1 PUSH2 0x100 EXP SWAP1 DIV PUSH20 0xFFFFFFFFFFFFFFFFFFFFFFFFFFFFFFFFFFFFFFFF AND PUSH2 0x1DC4 JUMP JUMPDEST PUSH1 0x5 DUP2 PUSH1 0x7 ADD PUSH1 0x0 PUSH2 0x100 EXP DUP2 SLOAD DUP2 PUSH1 0xFF MUL NOT AND SWAP1 DUP4 PUSH1 0x9 DUP2 GT ISZERO PUSH2 0x605 JUMPI PUSH2 0x604 PUSH2 0x2376 JUMP JUMPDEST JUMPDEST MUL OR SWAP1 SSTORE POP POP POP JUMP JUMPDEST PUSH1 0x0 DUP4 DUP4 DUP4 PUSH1 0x40 MLOAD PUSH1 0x20 ADD PUSH2 0x625 SWAP4 SWAP3 SWAP2 SWAP1 PUSH2 0x29E3 JUMP JUMPDEST PUSH1 0x40 MLOAD PUSH1 0x20 DUP2 DUP4 SUB SUB DUP2 MSTORE SWAP1 PUSH1 0x40 MSTORE DUP1 MLOAD SWAP1 PUSH1 0x20 ADD KECCAK256 SWAP1 POP SWAP4 SWAP3 POP POP POP JUMP JUMPDEST PUSH1 0x4 SLOAD DUP2 JUMP JUMPDEST PUSH1 0x3 PUSH1 0x0 SWAP1 SLOAD SWAP1 PUSH2 0x100 EXP SWAP1 DIV PUSH20 0xFFFFFFFFFFFFFFFFFFFFFFFFFFFFFFFFFFFFFFFF AND DUP2 JUMP JUMPDEST PUSH1 0x0 PUSH2 0x67B DUP3 PUSH2 0x12C1 JUMP JUMPDEST PUSH1 0x64 PUSH2 0x687 SWAP2 SWAP1 PUSH2 0x2A4F JUMP JUMPDEST DUP4 PUSH2 0x692 SWAP2 SWAP1 PUSH2 0x2A83 JUMP JUMPDEST SWAP1 POP SWAP3 SWAP2 POP POP JUMP JUMPDEST PUSH1 0x7 PUSH1 0x20 MSTORE DUP2 PUSH1 0x0 MSTORE PUSH1 0x40 PUSH1 0x0 KECCAK256 PUSH1 0x20 MSTORE DUP1 PUSH1 0x0 MSTORE PUSH1 0x40 PUSH1 0x0 KECCAK256 PUSH1 0x0 SWAP2 POP SWAP2 POP POP SLOAD DUP2 JUMP JUMPDEST PUSH1 0x6 PUSH1 0x0 SWAP1 SLOAD SWAP1 PUSH2 0x100 EXP SWAP1 DIV PUSH20 0xFFFFFFFFFFFFFFFFFFFFFFFFFFFFFFFFFFFFFFFF AND PUSH20 0xFFFFFFFFFFFFFFFFFFFFFFFFFFFFFFFFFFFFFFFF AND CALLER PUSH20 0xFFFFFFFFFFFFFFFFFFFFFFFFFFFFFFFFFFFFFFFF AND EQ PUSH2 0x719 JUMPI PUSH1 0x0 DUP1 REVERT JUMPDEST DUP1 PUSH1 0x4 DUP2 SWAP1 SSTORE POP POP JUMP JUMPDEST PUSH1 0x0 PUSH1 0x9 DUP3 DUP2 SLOAD DUP2 LT PUSH2 0x739 JUMPI PUSH2 0x738 PUSH2 0x2903 JUMP JUMPDEST JUMPDEST SWAP1 PUSH1 0x0 MSTORE PUSH1 0x20 PUSH1 0x0 KECCAK256 SWAP1 PUSH1 0xC MUL ADD SWAP1 POP PUSH1 0x0 DUP2 PUSH1 0x7 ADD PUSH1 0x0 SWAP1 SLOAD SWAP1 PUSH2 0x100 EXP SWAP1 DIV PUSH1 0xFF AND SWAP1 POP PUSH1 0x1 PUSH1 0x9 DUP2 GT ISZERO PUSH2 0x773 JUMPI PUSH2 0x772 PUSH2 0x2376 JUMP JUMPDEST JUMPDEST DUP2 PUSH1 0x9 DUP2 GT ISZERO PUSH2 0x786 JUMPI PUSH2 0x785 PUSH2 0x2376 JUMP JUMPDEST JUMPDEST EQ DUP1 PUSH2 0x7D4 JUMPI POP PUSH1 0x0 PUSH1 0x9 DUP2 GT ISZERO PUSH2 0x7A1 JUMPI PUSH2 0x7A0 PUSH2 0x2376 JUMP JUMPDEST JUMPDEST DUP2 PUSH1 0x9 DUP2 GT ISZERO PUSH2 0x7B4 JUMPI PUSH2 0x7B3 PUSH2 0x2376 JUMP JUMPDEST JUMPDEST EQ DUP1 ISZERO PUSH2 0x7D3 JUMPI POP TIMESTAMP PUSH3 0x2A300 DUP4 PUSH1 0x4 ADD SLOAD PUSH2 0x7D0 SWAP2 SWAP1 PUSH2 0x2A4F JUMP JUMPDEST LT ISZERO JUMPDEST JUMPDEST PUSH2 0x7DD JUMPI PUSH1 0x0 DUP1 REVERT JUMPDEST PUSH1 0x2 PUSH1 0x0 SWAP1 SLOAD SWAP1 PUSH2 0x100 EXP SWAP1 DIV PUSH20 0xFFFFFFFFFFFFFFFFFFFFFFFFFFFFFFFFFFFFFFFF AND PUSH20 0xFFFFFFFFFFFFFFFFFFFFFFFFFFFFFFFFFFFFFFFF AND PUSH4 0x4CC82215 DUP5 PUSH1 0x40 MLOAD DUP3 PUSH4 0xFFFFFFFF AND PUSH1 0xE0 SHL DUP2 MSTORE PUSH1 0x4 ADD PUSH2 0x838 SWAP2 SWAP1 PUSH2 0x2583 JUMP JUMPDEST PUSH1 0x0 PUSH1 0x40 MLOAD DUP1 DUP4 SUB DUP2 PUSH1 0x0 DUP8 DUP1 EXTCODESIZE ISZERO DUP1 ISZERO PUSH2 0x852 JUMPI PUSH1 0x0 DUP1 REVERT JUMPDEST POP GAS CALL ISZERO DUP1 ISZERO PUSH2 0x866 JUMPI RETURNDATASIZE PUSH1 0x0 DUP1 RETURNDATACOPY RETURNDATASIZE PUSH1 0x0 REVERT JUMPDEST POP POP POP POP DUP2 PUSH1 0x1 ADD PUSH1 0x0 SWAP1 SLOAD SWAP1 PUSH2 0x100 EXP SWAP1 DIV PUSH20 0xFFFFFFFFFFFFFFFFFFFFFFFFFFFFFFFFFFFFFFFF AND PUSH20 0xFFFFFFFFFFFFFFFFFFFFFFFFFFFFFFFFFFFFFFFF AND PUSH4 0x23B872DD ADDRESS DUP5 PUSH1 0x3 ADD PUSH1 0x0 SWAP1 SLOAD SWAP1 PUSH2 0x100 EXP SWAP1 DIV PUSH20 0xFFFFFFFFFFFFFFFFFFFFFFFFFFFFFFFFFFFFFFFF AND DUP6 PUSH1 0x2 ADD SLOAD PUSH1 0x40 MLOAD DUP5 PUSH4 0xFFFFFFFF AND PUSH1 0xE0 SHL DUP2 MSTORE PUSH1 0x4 ADD PUSH2 0x8F3 SWAP4 SWAP3 SWAP2 SWAP1 PUSH2 0x2AC5 JUMP JUMPDEST PUSH1 0x0 PUSH1 0x40 MLOAD DUP1 DUP4 SUB DUP2 PUSH1 0x0 DUP8 DUP1 EXTCODESIZE ISZERO DUP1 ISZERO PUSH2 0x90D JUMPI PUSH1 0x0 DUP1 REVERT JUMPDEST POP GAS CALL ISZERO DUP1 ISZERO PUSH2 0x921 JUMPI RETURNDATASIZE PUSH1 0x0 DUP1 RETURNDATACOPY RETURNDATASIZE PUSH1 0x0 REVERT JUMPDEST POP POP POP POP PUSH1 0x2 DUP3 PUSH1 0x7 ADD PUSH1 0x0 PUSH2 0x100 EXP DUP2 SLOAD DUP2 PUSH1 0xFF MUL NOT AND SWAP1 DUP4 PUSH1 0x9 DUP2 GT ISZERO PUSH2 0x94D JUMPI PUSH2 0x94C PUSH2 0x2376 JUMP JUMPDEST JUMPDEST MUL OR SWAP1 SSTORE POP POP POP POP JUMP JUMPDEST PUSH1 0x0 PUSH1 0x9 DUP6 DUP2 SLOAD DUP2 LT PUSH2 0x96D JUMPI PUSH2 0x96C PUSH2 0x2903 JUMP JUMPDEST JUMPDEST SWAP1 PUSH1 0x0 MSTORE PUSH1 0x20 PUSH1 0x0 KECCAK256 SWAP1 PUSH1 0xC MUL ADD SWAP1 POP PUSH1 0x0 PUSH1 0x9 DUP2 GT ISZERO PUSH2 0x991 JUMPI PUSH2 0x990 PUSH2 0x2376 JUMP JUMPDEST JUMPDEST DUP2 PUSH1 0x7 ADD PUSH1 0x0 SWAP1 SLOAD SWAP1 PUSH2 0x100 EXP SWAP1 DIV PUSH1 0xFF AND PUSH1 0x9 DUP2 GT ISZERO PUSH2 0x9B5 JUMPI PUSH2 0x9B4 PUSH2 0x2376 JUMP JUMPDEST JUMPDEST EQ DUP1 ISZERO PUSH2 0x9D3 JUMPI POP TIMESTAMP PUSH3 0x2A300 DUP3 PUSH1 0x4 ADD SLOAD PUSH2 0x9D1 SWAP2 SWAP1 PUSH2 0x2A4F JUMP JUMPDEST LT JUMPDEST PUSH2 0xA12 JUMPI PUSH1 0x40 MLOAD PUSH32 0x8C379A000000000000000000000000000000000000000000000000000000000 DUP2 MSTORE PUSH1 0x4 ADD PUSH2 0xA09 SWAP1 PUSH2 0x2B59 JUMP JUMPDEST PUSH1 0x40 MLOAD DUP1 SWAP2 SUB SWAP1 REVERT JUMPDEST PUSH1 0x0 CALLER SWAP1 POP PUSH1 0x0 PUSH2 0xA24 DUP3 DUP9 DUP9 PUSH2 0x60E JUMP JUMPDEST SWAP1 POP PUSH2 0xA97 PUSH1 0x3 PUSH1 0x0 SWAP1 SLOAD SWAP1 PUSH2 0x100 EXP SWAP1 DIV PUSH20 0xFFFFFFFFFFFFFFFFFFFFFFFFFFFFFFFFFFFFFFFF AND DUP3 DUP8 DUP8 DUP1 DUP1 PUSH1 0x1F ADD PUSH1 0x20 DUP1 SWAP2 DIV MUL PUSH1 0x20 ADD PUSH1 0x40 MLOAD SWAP1 DUP2 ADD PUSH1 0x40 MSTORE DUP1 SWAP4 SWAP3 SWAP2 SWAP1 DUP2 DUP2 MSTORE PUSH1 0x20 ADD DUP4 DUP4 DUP1 DUP3 DUP5 CALLDATACOPY PUSH1 0x0 DUP2 DUP5 ADD MSTORE PUSH1 0x1F NOT PUSH1 0x1F DUP3 ADD AND SWAP1 POP DUP1 DUP4 ADD SWAP3 POP POP POP POP POP POP POP PUSH2 0x1F19 JUMP JUMPDEST PUSH2 0xAA0 JUMPI PUSH1 0x0 DUP1 REVERT JUMPDEST PUSH1 0x0 ISZERO ISZERO PUSH1 0x8 PUSH1 0x0 DUP10 DUP2 MSTORE PUSH1 0x20 ADD SWAP1 DUP2 MSTORE PUSH1 0x20 ADD PUSH1 0x0 KECCAK256 PUSH1 0x0 DUP5 PUSH20 0xFFFFFFFFFFFFFFFFFFFFFFFFFFFFFFFFFFFFFFFF AND PUSH20 0xFFFFFFFFFFFFFFFFFFFFFFFFFFFFFFFFFFFFFFFF AND DUP2 MSTORE PUSH1 0x20 ADD SWAP1 DUP2 MSTORE PUSH1 0x20 ADD PUSH1 0x0 KECCAK256 PUSH1 0x0 SWAP1 SLOAD SWAP1 PUSH2 0x100 EXP SWAP1 DIV PUSH1 0xFF AND ISZERO ISZERO EQ PUSH2 0xB44 JUMPI PUSH1 0x40 MLOAD PUSH32 0x8C379A000000000000000000000000000000000000000000000000000000000 DUP2 MSTORE PUSH1 0x4 ADD PUSH2 0xB3B SWAP1 PUSH2 0x2BC5 JUMP JUMPDEST PUSH1 0x40 MLOAD DUP1 SWAP2 SUB SWAP1 REVERT JUMPDEST PUSH1 0x1 PUSH1 0x8 PUSH1 0x0 DUP10 DUP2 MSTORE PUSH1 0x20 ADD SWAP1 DUP2 MSTORE PUSH1 0x20 ADD PUSH1 0x0 KECCAK256 PUSH1 0x0 DUP5 PUSH20 0xFFFFFFFFFFFFFFFFFFFFFFFFFFFFFFFFFFFFFFFF AND PUSH20 0xFFFFFFFFFFFFFFFFFFFFFFFFFFFFFFFFFFFFFFFF AND DUP2 MSTORE PUSH1 0x20 ADD SWAP1 DUP2 MSTORE PUSH1 0x20 ADD PUSH1 0x0 KECCAK256 PUSH1 0x0 PUSH2 0x100 EXP DUP2 SLOAD DUP2 PUSH1 0xFF MUL NOT AND SWAP1 DUP4 ISZERO ISZERO MUL OR SWAP1 SSTORE POP DUP6 PUSH2 0xC1C JUMPI DUP3 PUSH1 0xB ADD DUP3 SWAP1 DUP1 PUSH1 0x1 DUP2 SLOAD ADD DUP1 DUP3 SSTORE DUP1 SWAP2 POP POP PUSH1 0x1 SWAP1 SUB SWAP1 PUSH1 0x0 MSTORE PUSH1 0x20 PUSH1 0x0 KECCAK256 ADD PUSH1 0x0 SWAP1 SWAP2 SWAP1 SWAP2 SWAP1 SWAP2 PUSH2 0x100 EXP DUP2 SLOAD DUP2 PUSH20 0xFFFFFFFFFFFFFFFFFFFFFFFFFFFFFFFFFFFFFFFF MUL NOT AND SWAP1 DUP4 PUSH20 0xFFFFFFFFFFFFFFFFFFFFFFFFFFFFFFFFFFFFFFFF AND MUL OR SWAP1 SSTORE POP PUSH2 0xC82 JUMP JUMPDEST DUP3 PUSH1 0xA ADD DUP3 SWAP1 DUP1 PUSH1 0x1 DUP2 SLOAD ADD DUP1 DUP3 SSTORE DUP1 SWAP2 POP POP PUSH1 0x1 SWAP1 SUB SWAP1 PUSH1 0x0 MSTORE PUSH1 0x20 PUSH1 0x0 KECCAK256 ADD PUSH1 0x0 SWAP1 SWAP2 SWAP1 SWAP2 SWAP1 SWAP2 PUSH2 0x100 EXP DUP2 SLOAD DUP2 PUSH20 0xFFFFFFFFFFFFFFFFFFFFFFFFFFFFFFFFFFFFFFFF MUL NOT AND SWAP1 DUP4 PUSH20 0xFFFFFFFFFFFFFFFFFFFFFFFFFFFFFFFFFFFFFFFF AND MUL OR SWAP1 SSTORE POP JUMPDEST PUSH1 0x2 PUSH1 0x4 SLOAD PUSH2 0xC91 SWAP2 SWAP1 PUSH2 0x2C14 JUMP JUMPDEST DUP4 PUSH1 0xB ADD DUP1 SLOAD SWAP1 POP GT ISZERO PUSH2 0xCD1 JUMPI PUSH1 0x1 DUP4 PUSH1 0x7 ADD PUSH1 0x0 PUSH2 0x100 EXP DUP2 SLOAD DUP2 PUSH1 0xFF MUL NOT AND SWAP1 DUP4 PUSH1 0x9 DUP2 GT ISZERO PUSH2 0xCC7 JUMPI PUSH2 0xCC6 PUSH2 0x2376 JUMP JUMPDEST JUMPDEST MUL OR SWAP1 SSTORE POP PUSH2 0xE97 JUMP JUMPDEST PUSH1 0x2 PUSH1 0x4 SLOAD PUSH2 0xCE0 SWAP2 SWAP1 PUSH2 0x2C14 JUMP JUMPDEST DUP4 PUSH1 0xA ADD DUP1 SLOAD SWAP1 POP GT ISZERO PUSH2 0xE96 JUMPI PUSH1 0x2 PUSH1 0x0 SWAP1 SLOAD SWAP1 PUSH2 0x100 EXP SWAP1 DIV PUSH20 0xFFFFFFFFFFFFFFFFFFFFFFFFFFFFFFFFFFFFFFFF AND PUSH20 0xFFFFFFFFFFFFFFFFFFFFFFFFFFFFFFFFFFFFFFFF AND PUSH4 0x4CC82215 DUP9 PUSH1 0x40 MLOAD DUP3 PUSH4 0xFFFFFFFF AND PUSH1 0xE0 SHL DUP2 MSTORE PUSH1 0x4 ADD PUSH2 0xD49 SWAP2 SWAP1 PUSH2 0x2583 JUMP JUMPDEST PUSH1 0x0 PUSH1 0x40 MLOAD DUP1 DUP4 SUB DUP2 PUSH1 0x0 DUP8 DUP1 EXTCODESIZE ISZERO DUP1 ISZERO PUSH2 0xD63 JUMPI PUSH1 0x0 DUP1 REVERT JUMPDEST POP GAS CALL ISZERO DUP1 ISZERO PUSH2 0xD77 JUMPI RETURNDATASIZE PUSH1 0x0 DUP1 RETURNDATACOPY RETURNDATASIZE PUSH1 0x0 REVERT JUMPDEST POP POP POP POP PUSH1 0x1 PUSH1 0x0 SWAP1 SLOAD SWAP1 PUSH2 0x100 EXP SWAP1 DIV PUSH20 0xFFFFFFFFFFFFFFFFFFFFFFFFFFFFFFFFFFFFFFFF AND PUSH20 0xFFFFFFFFFFFFFFFFFFFFFFFFFFFFFFFFFFFFFFFF AND PUSH4 0x23B872DD PUSH1 0x5 PUSH1 0x0 SWAP1 SLOAD SWAP1 PUSH2 0x100 EXP SWAP1 DIV PUSH20 0xFFFFFFFFFFFFFFFFFFFFFFFFFFFFFFFFFFFFFFFF AND DUP6 PUSH1 0x3 ADD PUSH1 0x0 SWAP1 SLOAD SWAP1 PUSH2 0x100 EXP SWAP1 DIV PUSH20 0xFFFFFFFFFFFFFFFFFFFFFFFFFFFFFFFFFFFFFFFF AND DUP7 PUSH1 0x5 ADD SLOAD PUSH1 0x40 MLOAD DUP5 PUSH4 0xFFFFFFFF AND PUSH1 0xE0 SHL DUP2 MSTORE PUSH1 0x4 ADD PUSH2 0xE24 SWAP4 SWAP3 SWAP2 SWAP1 PUSH2 0x2AC5 JUMP JUMPDEST PUSH1 0x20 PUSH1 0x40 MLOAD DUP1 DUP4 SUB DUP2 PUSH1 0x0 DUP8 GAS CALL ISZERO DUP1 ISZERO PUSH2 0xE43 JUMPI RETURNDATASIZE PUSH1 0x0 DUP1 RETURNDATACOPY RETURNDATASIZE PUSH1 0x0 REVERT JUMPDEST POP POP POP POP PUSH1 0x40 MLOAD RETURNDATASIZE PUSH1 0x1F NOT PUSH1 0x1F DUP3 ADD AND DUP3 ADD DUP1 PUSH1 0x40 MSTORE POP DUP2 ADD SWAP1 PUSH2 0xE67 SWAP2 SWAP1 PUSH2 0x2C5A JUMP JUMPDEST POP PUSH1 0x8 DUP4 PUSH1 0x7 ADD PUSH1 0x0 PUSH2 0x100 EXP DUP2 SLOAD DUP2 PUSH1 0xFF MUL NOT AND SWAP1 DUP4 PUSH1 0x9 DUP2 GT ISZERO PUSH2 0xE90 JUMPI PUSH2 0xE8F PUSH2 0x2376 JUMP JUMPDEST JUMPDEST MUL OR SWAP1 SSTORE POP JUMPDEST JUMPDEST POP POP POP POP POP POP POP JUMP JUMPDEST PUSH1 0x0 DUP6 SWAP1 POP DUP1 PUSH20 0xFFFFFFFFFFFFFFFFFFFFFFFFFFFFFFFFFFFFFFFF AND PUSH4 0x23B872DD CALLER ADDRESS DUP9 PUSH1 0x40 MLOAD DUP5 PUSH4 0xFFFFFFFF AND PUSH1 0xE0 SHL DUP2 MSTORE PUSH1 0x4 ADD PUSH2 0xEE2 SWAP4 SWAP3 SWAP2 SWAP1 PUSH2 0x2AC5 JUMP JUMPDEST PUSH1 0x0 PUSH1 0x40 MLOAD DUP1 DUP4 SUB DUP2 PUSH1 0x0 DUP8 DUP1 EXTCODESIZE ISZERO DUP1 ISZERO PUSH2 0xEFC JUMPI PUSH1 0x0 DUP1 REVERT JUMPDEST POP GAS CALL ISZERO DUP1 ISZERO PUSH2 0xF10 JUMPI RETURNDATASIZE PUSH1 0x0 DUP1 RETURNDATACOPY RETURNDATASIZE PUSH1 0x0 REVERT JUMPDEST POP POP POP POP PUSH1 0x0 SLOAD DUP4 PUSH1 0x40 MLOAD PUSH1 0x20 ADD PUSH2 0xF29 SWAP3 SWAP2 SWAP1 PUSH2 0x2C87 JUMP JUMPDEST PUSH1 0x40 MLOAD PUSH1 0x20 DUP2 DUP4 SUB SUB DUP2 MSTORE SWAP1 PUSH1 0x40 MSTORE DUP1 MLOAD SWAP1 PUSH1 0x20 ADD KECCAK256 PUSH1 0x0 DUP2 SWAP1 SSTORE POP PUSH1 0x0 PUSH1 0x9 DUP1 SLOAD SWAP1 POP SWAP1 POP PUSH1 0x60 DUP1 PUSH1 0x0 PUSH1 0x40 MLOAD DUP1 PUSH2 0x1A0 ADD PUSH1 0x40 MSTORE DUP1 NUMBER DUP2 MSTORE PUSH1 0x20 ADD DUP12 PUSH20 0xFFFFFFFFFFFFFFFFFFFFFFFFFFFFFFFFFFFFFFFF AND DUP2 MSTORE PUSH1 0x20 ADD DUP11 DUP2 MSTORE PUSH1 0x20 ADD CALLER PUSH20 0xFFFFFFFFFFFFFFFFFFFFFFFFFFFFFFFFFFFFFFFF AND DUP2 MSTORE PUSH1 0x20 ADD TIMESTAMP DUP2 MSTORE PUSH1 0x20 ADD DUP10 DUP2 MSTORE PUSH1 0x20 ADD DUP8 DUP2 MSTORE PUSH1 0x20 ADD PUSH1 0x0 PUSH1 0x9 DUP2 GT ISZERO PUSH2 0xFCA JUMPI PUSH2 0xFC9 PUSH2 0x2376 JUMP JUMPDEST JUMPDEST DUP2 MSTORE PUSH1 0x20 ADD PUSH1 0x0 PUSH20 0xFFFFFFFFFFFFFFFFFFFFFFFFFFFFFFFFFFFFFFFF AND DUP2 MSTORE PUSH1 0x20 ADD PUSH1 0x0 SLOAD DUP2 MSTORE PUSH1 0x20 ADD PUSH1 0x0 DUP2 MSTORE PUSH1 0x20 ADD DUP5 DUP2 MSTORE PUSH1 0x20 ADD DUP4 DUP2 MSTORE POP SWAP1 POP PUSH1 0x9 DUP2 SWAP1 DUP1 PUSH1 0x1 DUP2 SLOAD ADD DUP1 DUP3 SSTORE DUP1 SWAP2 POP POP PUSH1 0x1 SWAP1 SUB SWAP1 PUSH1 0x0 MSTORE PUSH1 0x20 PUSH1 0x0 KECCAK256 SWAP1 PUSH1 0xC MUL ADD PUSH1 0x0 SWAP1 SWAP2 SWAP1 SWAP2 SWAP1 SWAP2 POP PUSH1 0x0 DUP3 ADD MLOAD DUP2 PUSH1 0x0 ADD SSTORE PUSH1 0x20 DUP3 ADD MLOAD DUP2 PUSH1 0x1 ADD PUSH1 0x0 PUSH2 0x100 EXP DUP2 SLOAD DUP2 PUSH20 0xFFFFFFFFFFFFFFFFFFFFFFFFFFFFFFFFFFFFFFFF MUL NOT AND SWAP1 DUP4 PUSH20 0xFFFFFFFFFFFFFFFFFFFFFFFFFFFFFFFFFFFFFFFF AND MUL OR SWAP1 SSTORE POP PUSH1 0x40 DUP3 ADD MLOAD DUP2 PUSH1 0x2 ADD SSTORE PUSH1 0x60 DUP3 ADD MLOAD DUP2 PUSH1 0x3 ADD PUSH1 0x0 PUSH2 0x100 EXP DUP2 SLOAD DUP2 PUSH20 0xFFFFFFFFFFFFFFFFFFFFFFFFFFFFFFFFFFFFFFFF MUL NOT AND SWAP1 DUP4 PUSH20 0xFFFFFFFFFFFFFFFFFFFFFFFFFFFFFFFFFFFFFFFF AND MUL OR SWAP1 SSTORE POP PUSH1 0x80 DUP3 ADD MLOAD DUP2 PUSH1 0x4 ADD SSTORE PUSH1 0xA0 DUP3 ADD MLOAD DUP2 PUSH1 0x5 ADD SSTORE PUSH1 0xC0 DUP3 ADD MLOAD DUP2 PUSH1 0x6 ADD SSTORE PUSH1 0xE0 DUP3 ADD MLOAD DUP2 PUSH1 0x7 ADD PUSH1 0x0 PUSH2 0x100 EXP DUP2 SLOAD DUP2 PUSH1 0xFF MUL NOT AND SWAP1 DUP4 PUSH1 0x9 DUP2 GT ISZERO PUSH2 0x111E JUMPI PUSH2 0x111D PUSH2 0x2376 JUMP JUMPDEST JUMPDEST MUL OR SWAP1 SSTORE POP PUSH2 0x100 DUP3 ADD MLOAD DUP2 PUSH1 0x7 ADD PUSH1 0x1 PUSH2 0x100 EXP DUP2 SLOAD DUP2 PUSH20 0xFFFFFFFFFFFFFFFFFFFFFFFFFFFFFFFFFFFFFFFF MUL NOT AND SWAP1 DUP4 PUSH20 0xFFFFFFFFFFFFFFFFFFFFFFFFFFFFFFFFFFFFFFFF AND MUL OR SWAP1 SSTORE POP PUSH2 0x120 DUP3 ADD MLOAD DUP2 PUSH1 0x8 ADD SSTORE PUSH2 0x140 DUP3 ADD MLOAD DUP2 PUSH1 0x9 ADD SSTORE PUSH2 0x160 DUP3 ADD MLOAD DUP2 PUSH1 0xA ADD SWAP1 DUP1 MLOAD SWAP1 PUSH1 0x20 ADD SWAP1 PUSH2 0x119E SWAP3 SWAP2 SWAP1 PUSH2 0x2212 JUMP JUMPDEST POP PUSH2 0x180 DUP3 ADD MLOAD DUP2 PUSH1 0xB ADD SWAP1 DUP1 MLOAD SWAP1 PUSH1 0x20 ADD SWAP1 PUSH2 0x11BC SWAP3 SWAP2 SWAP1 PUSH2 0x2212 JUMP JUMPDEST POP POP POP DUP4 PUSH1 0x7 PUSH1 0x0 DUP13 PUSH20 0xFFFFFFFFFFFFFFFFFFFFFFFFFFFFFFFFFFFFFFFF AND PUSH20 0xFFFFFFFFFFFFFFFFFFFFFFFFFFFFFFFFFFFFFFFF AND DUP2 MSTORE PUSH1 0x20 ADD SWAP1 DUP2 MSTORE PUSH1 0x20 ADD PUSH1 0x0 KECCAK256 PUSH1 0x0 DUP12 DUP2 MSTORE PUSH1 0x20 ADD SWAP1 DUP2 MSTORE PUSH1 0x20 ADD PUSH1 0x0 KECCAK256 DUP2 SWAP1 SSTORE POP PUSH1 0x2 PUSH1 0x0 SWAP1 SLOAD SWAP1 PUSH2 0x100 EXP SWAP1 DIV PUSH20 0xFFFFFFFFFFFFFFFFFFFFFFFFFFFFFFFFFFFFFFFF AND PUSH20 0xFFFFFFFFFFFFFFFFFFFFFFFFFFFFFFFFFFFFFFFF AND PUSH4 0xFB470DF2 DUP6 PUSH1 0x1 DUP8 PUSH2 0x1260 SWAP2 SWAP1 PUSH2 0x2CB0 JUMP JUMPDEST PUSH1 0x40 MLOAD DUP4 PUSH4 0xFFFFFFFF AND PUSH1 0xE0 SHL DUP2 MSTORE PUSH1 0x4 ADD PUSH2 0x127D SWAP3 SWAP2 SWAP1 PUSH2 0x2CE4 JUMP JUMPDEST PUSH1 0x0 PUSH1 0x40 MLOAD DUP1 DUP4 SUB DUP2 PUSH1 0x0 DUP8 DUP1 EXTCODESIZE ISZERO DUP1 ISZERO PUSH2 0x1297 JUMPI PUSH1 0x0 DUP1 REVERT JUMPDEST POP GAS CALL ISZERO DUP1 ISZERO PUSH2 0x12AB JUMPI RETURNDATASIZE PUSH1 0x0 DUP1 RETURNDATACOPY RETURNDATASIZE PUSH1 0x0 REVERT JUMPDEST POP POP POP POP POP POP POP POP POP POP POP POP POP POP JUMP JUMPDEST PUSH1 0x0 SLOAD DUP2 JUMP JUMPDEST PUSH1 0x0 SWAP2 SWAP1 POP JUMP JUMPDEST PUSH1 0x5 PUSH1 0x0 SWAP1 SLOAD SWAP1 PUSH2 0x100 EXP SWAP1 DIV PUSH20 0xFFFFFFFFFFFFFFFFFFFFFFFFFFFFFFFFFFFFFFFF AND DUP2 JUMP JUMPDEST PUSH1 0x2 PUSH1 0x0 SWAP1 SLOAD SWAP1 PUSH2 0x100 EXP SWAP1 DIV PUSH20 0xFFFFFFFFFFFFFFFFFFFFFFFFFFFFFFFFFFFFFFFF AND DUP2 JUMP JUMPDEST PUSH1 0x0 PUSH1 0x6 PUSH1 0x0 SWAP1 SLOAD SWAP1 PUSH2 0x100 EXP SWAP1 DIV PUSH20 0xFFFFFFFFFFFFFFFFFFFFFFFFFFFFFFFFFFFFFFFF AND PUSH20 0xFFFFFFFFFFFFFFFFFFFFFFFFFFFFFFFFFFFFFFFF AND CALLER PUSH20 0xFFFFFFFFFFFFFFFFFFFFFFFFFFFFFFFFFFFFFFFF AND EQ PUSH2 0x1370 JUMPI PUSH1 0x0 DUP1 REVERT JUMPDEST DUP2 PUSH1 0x6 PUSH1 0x0 PUSH2 0x100 EXP DUP2 SLOAD DUP2 PUSH20 0xFFFFFFFFFFFFFFFFFFFFFFFFFFFFFFFFFFFFFFFF MUL NOT AND SWAP1 DUP4 PUSH20 0xFFFFFFFFFFFFFFFFFFFFFFFFFFFFFFFFFFFFFFFF AND MUL OR SWAP1 SSTORE SWAP1 POP SWAP2 SWAP1 POP JUMP JUMPDEST PUSH1 0x0 PUSH1 0x9 DUP3 DUP2 SLOAD DUP2 LT PUSH2 0x13CD JUMPI PUSH2 0x13CC PUSH2 0x2903 JUMP JUMPDEST JUMPDEST SWAP1 PUSH1 0x0 MSTORE PUSH1 0x20 PUSH1 0x0 KECCAK256 SWAP1 PUSH1 0xC MUL ADD SWAP1 POP CALLER PUSH20 0xFFFFFFFFFFFFFFFFFFFFFFFFFFFFFFFFFFFFFFFF AND DUP2 PUSH1 0x3 ADD PUSH1 0x0 SWAP1 SLOAD SWAP1 PUSH2 0x100 EXP SWAP1 DIV PUSH20 0xFFFFFFFFFFFFFFFFFFFFFFFFFFFFFFFFFFFFFFFF AND PUSH20 0xFFFFFFFFFFFFFFFFFFFFFFFFFFFFFFFFFFFFFFFF AND EQ PUSH2 0x1439 JUMPI PUSH1 0x0 DUP1 REVERT JUMPDEST PUSH1 0x8 PUSH1 0x9 DUP2 GT ISZERO PUSH2 0x144D JUMPI PUSH2 0x144C PUSH2 0x2376 JUMP JUMPDEST JUMPDEST DUP2 PUSH1 0x7 ADD PUSH1 0x0 SWAP1 SLOAD SWAP1 PUSH2 0x100 EXP SWAP1 DIV PUSH1 0xFF AND PUSH1 0x9 DUP2 GT ISZERO PUSH2 0x1471 JUMPI PUSH2 0x1470 PUSH2 0x2376 JUMP JUMPDEST JUMPDEST EQ PUSH2 0x147B JUMPI PUSH1 0x0 DUP1 REVERT JUMPDEST PUSH2 0x14A9 DUP2 DUP3 PUSH1 0x7 ADD PUSH1 0x1 SWAP1 SLOAD SWAP1 PUSH2 0x100 EXP SWAP1 DIV PUSH20 0xFFFFFFFFFFFFFFFFFFFFFFFFFFFFFFFFFFFFFFFF AND PUSH2 0x1DC4 JUMP JUMPDEST PUSH1 0x9 DUP2 PUSH1 0x7 ADD PUSH1 0x0 PUSH2 0x100 EXP DUP2 SLOAD DUP2 PUSH1 0xFF MUL NOT AND SWAP1 DUP4 PUSH1 0x9 DUP2 GT ISZERO PUSH2 0x14D1 JUMPI PUSH2 0x14D0 PUSH2 0x2376 JUMP JUMPDEST JUMPDEST MUL OR SWAP1 SSTORE POP POP POP JUMP JUMPDEST PUSH1 0x0 PUSH1 0x9 DUP3 DUP2 SLOAD DUP2 LT PUSH2 0x14F0 JUMPI PUSH2 0x14EF PUSH2 0x2903 JUMP JUMPDEST JUMPDEST SWAP1 PUSH1 0x0 MSTORE PUSH1 0x20 PUSH1 0x0 KECCAK256 SWAP1 PUSH1 0xC MUL ADD SWAP1 POP PUSH1 0x0 DUP2 PUSH1 0x7 ADD PUSH1 0x0 SWAP1 SLOAD SWAP1 PUSH2 0x100 EXP SWAP1 DIV PUSH1 0xFF AND SWAP1 POP PUSH1 0x1 PUSH1 0x9 DUP2 GT ISZERO PUSH2 0x152A JUMPI PUSH2 0x1529 PUSH2 0x2376 JUMP JUMPDEST JUMPDEST DUP2 PUSH1 0x9 DUP2 GT ISZERO PUSH2 0x153D JUMPI PUSH2 0x153C PUSH2 0x2376 JUMP JUMPDEST JUMPDEST EQ DUP1 PUSH2 0x158B JUMPI POP PUSH1 0x0 PUSH1 0x9 DUP2 GT ISZERO PUSH2 0x1558 JUMPI PUSH2 0x1557 PUSH2 0x2376 JUMP JUMPDEST JUMPDEST DUP2 PUSH1 0x9 DUP2 GT ISZERO PUSH2 0x156B JUMPI PUSH2 0x156A PUSH2 0x2376 JUMP JUMPDEST JUMPDEST EQ DUP1 ISZERO PUSH2 0x158A JUMPI POP TIMESTAMP PUSH3 0x2A300 DUP4 PUSH1 0x4 ADD SLOAD PUSH2 0x1587 SWAP2 SWAP1 PUSH2 0x2A4F JUMP JUMPDEST LT ISZERO JUMPDEST JUMPDEST PUSH2 0x1594 JUMPI PUSH1 0x0 DUP1 REVERT JUMPDEST PUSH1 0x1 PUSH1 0x0 SWAP1 SLOAD SWAP1 PUSH2 0x100 EXP SWAP1 DIV PUSH20 0xFFFFFFFFFFFFFFFFFFFFFFFFFFFFFFFFFFFFFFFF AND PUSH20 0xFFFFFFFFFFFFFFFFFFFFFFFFFFFFFFFFFFFFFFFF AND PUSH4 0x23B872DD CALLER DUP5 PUSH1 0x3 ADD PUSH1 0x0 SWAP1 SLOAD SWAP1 PUSH2 0x100 EXP SWAP1 DIV PUSH20 0xFFFFFFFFFFFFFFFFFFFFFFFFFFFFFFFFFFFFFFFF AND DUP6 PUSH1 0x5 ADD SLOAD PUSH1 0x40 MLOAD DUP5 PUSH4 0xFFFFFFFF AND PUSH1 0xE0 SHL DUP2 MSTORE PUSH1 0x4 ADD PUSH2 0x161B SWAP4 SWAP3 SWAP2 SWAP1 PUSH2 0x2AC5 JUMP JUMPDEST PUSH1 0x20 PUSH1 0x40 MLOAD DUP1 DUP4 SUB DUP2 PUSH1 0x0 DUP8 GAS CALL ISZERO DUP1 ISZERO PUSH2 0x163A JUMPI RETURNDATASIZE PUSH1 0x0 DUP1 RETURNDATACOPY RETURNDATASIZE PUSH1 0x0 REVERT JUMPDEST POP POP POP POP PUSH1 0x40 MLOAD RETURNDATASIZE PUSH1 0x1F NOT PUSH1 0x1F DUP3 ADD AND DUP3 ADD DUP1 PUSH1 0x40 MSTORE POP DUP2 ADD SWAP1 PUSH2 0x165E SWAP2 SWAP1 PUSH2 0x2C5A JUMP JUMPDEST POP PUSH1 0x8 DUP3 PUSH1 0x7 ADD PUSH1 0x0 PUSH2 0x100 EXP DUP2 SLOAD DUP2 PUSH1 0xFF MUL NOT AND SWAP1 DUP4 PUSH1 0x9 DUP2 GT ISZERO PUSH2 0x1687 JUMPI PUSH2 0x1686 PUSH2 0x2376 JUMP JUMPDEST JUMPDEST MUL OR SWAP1 SSTORE POP CALLER DUP3 PUSH1 0x7 ADD PUSH1 0x1 PUSH2 0x100 EXP DUP2 SLOAD DUP2 PUSH20 0xFFFFFFFFFFFFFFFFFFFFFFFFFFFFFFFFFFFFFFFF MUL NOT AND SWAP1 DUP4 PUSH20 0xFFFFFFFFFFFFFFFFFFFFFFFFFFFFFFFFFFFFFFFF AND MUL OR SWAP1 SSTORE POP TIMESTAMP DUP3 PUSH1 0x9 ADD DUP2 SWAP1 SSTORE POP PUSH1 0x2 PUSH1 0x0 SWAP1 SLOAD SWAP1 PUSH2 0x100 EXP SWAP1 DIV PUSH20 0xFFFFFFFFFFFFFFFFFFFFFFFFFFFFFFFFFFFFFFFF AND PUSH20 0xFFFFFFFFFFFFFFFFFFFFFFFFFFFFFFFFFFFFFFFF AND PUSH4 0x4CC82215 DUP5 PUSH1 0x40 MLOAD DUP3 PUSH4 0xFFFFFFFF AND PUSH1 0xE0 SHL DUP2 MSTORE PUSH1 0x4 ADD PUSH2 0x1733 SWAP2 SWAP1 PUSH2 0x2583 JUMP JUMPDEST PUSH1 0x0 PUSH1 0x40 MLOAD DUP1 DUP4 SUB DUP2 PUSH1 0x0 DUP8 DUP1 EXTCODESIZE ISZERO DUP1 ISZERO PUSH2 0x174D JUMPI PUSH1 0x0 DUP1 REVERT JUMPDEST POP GAS CALL ISZERO DUP1 ISZERO PUSH2 0x1761 JUMPI RETURNDATASIZE PUSH1 0x0 DUP1 RETURNDATACOPY RETURNDATASIZE PUSH1 0x0 REVERT JUMPDEST POP POP POP POP DUP3 PUSH32 0xD262CAE68163FD472498119348D9793D6E5BF5BDA2C9E02AB30121D3A0F4A46E DUP4 PUSH1 0x1 ADD PUSH1 0x0 SWAP1 SLOAD SWAP1 PUSH2 0x100 EXP SWAP1 DIV PUSH20 0xFFFFFFFFFFFFFFFFFFFFFFFFFFFFFFFFFFFFFFFF AND DUP5 PUSH1 0x2 ADD SLOAD NUMBER PUSH1 0x40 MLOAD PUSH2 0x17C1 SWAP4 SWAP3 SWAP2 SWAP1 PUSH2 0x2D0D JUMP JUMPDEST PUSH1 0x40 MLOAD DUP1 SWAP2 SUB SWAP1 LOG2 POP POP POP JUMP JUMPDEST PUSH1 0x0 DUP5 SWAP1 POP DUP1 PUSH20 0xFFFFFFFFFFFFFFFFFFFFFFFFFFFFFFFFFFFFFFFF AND PUSH4 0x23B872DD CALLER ADDRESS DUP8 PUSH1 0x40 MLOAD DUP5 PUSH4 0xFFFFFFFF AND PUSH1 0xE0 SHL DUP2 MSTORE PUSH1 0x4 ADD PUSH2 0x1810 SWAP4 SWAP3 SWAP2 SWAP1 PUSH2 0x2AC5 JUMP JUMPDEST PUSH1 0x0 PUSH1 0x40 MLOAD DUP1 DUP4 SUB DUP2 PUSH1 0x0 DUP8 DUP1 EXTCODESIZE ISZERO DUP1 ISZERO PUSH2 0x182A JUMPI PUSH1 0x0 DUP1 REVERT JUMPDEST POP GAS CALL ISZERO DUP1 ISZERO PUSH2 0x183E JUMPI RETURNDATASIZE PUSH1 0x0 DUP1 RETURNDATACOPY RETURNDATASIZE PUSH1 0x0 REVERT JUMPDEST POP POP POP POP PUSH1 0x0 PUSH1 0x9 DUP1 SLOAD SWAP1 POP SWAP1 POP PUSH1 0x60 DUP1 PUSH1 0x0 PUSH1 0x40 MLOAD DUP1 PUSH2 0x1A0 ADD PUSH1 0x40 MSTORE DUP1 NUMBER DUP2 MSTORE PUSH1 0x20 ADD DUP11 PUSH20 0xFFFFFFFFFFFFFFFFFFFFFFFFFFFFFFFFFFFFFFFF AND DUP2 MSTORE PUSH1 0x20 ADD DUP10 DUP2 MSTORE PUSH1 0x20 ADD CALLER PUSH20 0xFFFFFFFFFFFFFFFFFFFFFFFFFFFFFFFFFFFFFFFF AND DUP2 MSTORE PUSH1 0x20 ADD TIMESTAMP DUP2 MSTORE PUSH1 0x20 ADD DUP9 DUP2 MSTORE PUSH1 0x20 ADD DUP8 DUP2 MSTORE PUSH1 0x20 ADD PUSH1 0x6 PUSH1 0x9 DUP2 GT ISZERO PUSH2 0x18C7 JUMPI PUSH2 0x18C6 PUSH2 0x2376 JUMP JUMPDEST JUMPDEST DUP2 MSTORE PUSH1 0x20 ADD PUSH1 0x0 PUSH20 0xFFFFFFFFFFFFFFFFFFFFFFFFFFFFFFFFFFFFFFFF AND DUP2 MSTORE PUSH1 0x20 ADD PUSH1 0x0 SLOAD DUP2 MSTORE PUSH1 0x20 ADD PUSH1 0x0 DUP2 MSTORE PUSH1 0x20 ADD DUP5 DUP2 MSTORE PUSH1 0x20 ADD DUP4 DUP2 MSTORE POP SWAP1 POP PUSH1 0x9 DUP2 SWAP1 DUP1 PUSH1 0x1 DUP2 SLOAD ADD DUP1 DUP3 SSTORE DUP1 SWAP2 POP POP PUSH1 0x1 SWAP1 SUB SWAP1 PUSH1 0x0 MSTORE PUSH1 0x20 PUSH1 0x0 KECCAK256 SWAP1 PUSH1 0xC MUL ADD PUSH1 0x0 SWAP1 SWAP2 SWAP1 SWAP2 SWAP1 SWAP2 POP PUSH1 0x0 DUP3 ADD MLOAD DUP2 PUSH1 0x0 ADD SSTORE PUSH1 0x20 DUP3 ADD MLOAD DUP2 PUSH1 0x1 ADD PUSH1 0x0 PUSH2 0x100 EXP DUP2 SLOAD DUP2 PUSH20 0xFFFFFFFFFFFFFFFFFFFFFFFFFFFFFFFFFFFFFFFF MUL NOT AND SWAP1 DUP4 PUSH20 0xFFFFFFFFFFFFFFFFFFFFFFFFFFFFFFFFFFFFFFFF AND MUL OR SWAP1 SSTORE POP PUSH1 0x40 DUP3 ADD MLOAD DUP2 PUSH1 0x2 ADD SSTORE PUSH1 0x60 DUP3 ADD MLOAD DUP2 PUSH1 0x3 ADD PUSH1 0x0 PUSH2 0x100 EXP DUP2 SLOAD DUP2 PUSH20 0xFFFFFFFFFFFFFFFFFFFFFFFFFFFFFFFFFFFFFFFF MUL NOT AND SWAP1 DUP4 PUSH20 0xFFFFFFFFFFFFFFFFFFFFFFFFFFFFFFFFFFFFFFFF AND MUL OR SWAP1 SSTORE POP PUSH1 0x80 DUP3 ADD MLOAD DUP2 PUSH1 0x4 ADD SSTORE PUSH1 0xA0 DUP3 ADD MLOAD DUP2 PUSH1 0x5 ADD SSTORE PUSH1 0xC0 DUP3 ADD MLOAD DUP2 PUSH1 0x6 ADD SSTORE PUSH1 0xE0 DUP3 ADD MLOAD DUP2 PUSH1 0x7 ADD PUSH1 0x0 PUSH2 0x100 EXP DUP2 SLOAD DUP2 PUSH1 0xFF MUL NOT AND SWAP1 DUP4 PUSH1 0x9 DUP2 GT ISZERO PUSH2 0x1A1B JUMPI PUSH2 0x1A1A PUSH2 0x2376 JUMP JUMPDEST JUMPDEST MUL OR SWAP1 SSTORE POP PUSH2 0x100 DUP3 ADD MLOAD DUP2 PUSH1 0x7 ADD PUSH1 0x1 PUSH2 0x100 EXP DUP2 SLOAD DUP2 PUSH20 0xFFFFFFFFFFFFFFFFFFFFFFFFFFFFFFFFFFFFFFFF MUL NOT AND SWAP1 DUP4 PUSH20 0xFFFFFFFFFFFFFFFFFFFFFFFFFFFFFFFFFFFFFFFF AND MUL OR SWAP1 SSTORE POP PUSH2 0x120 DUP3 ADD MLOAD DUP2 PUSH1 0x8 ADD SSTORE PUSH2 0x140 DUP3 ADD MLOAD DUP2 PUSH1 0x9 ADD SSTORE PUSH2 0x160 DUP3 ADD MLOAD DUP2 PUSH1 0xA ADD SWAP1 DUP1 MLOAD SWAP1 PUSH1 0x20 ADD SWAP1 PUSH2 0x1A9B SWAP3 SWAP2 SWAP1 PUSH2 0x2212 JUMP JUMPDEST POP PUSH2 0x180 DUP3 ADD MLOAD DUP2 PUSH1 0xB ADD SWAP1 DUP1 MLOAD SWAP1 PUSH1 0x20 ADD SWAP1 PUSH2 0x1AB9 SWAP3 SWAP2 SWAP1 PUSH2 0x2212 JUMP JUMPDEST POP POP POP DUP4 PUSH1 0x7 PUSH1 0x0 DUP12 PUSH20 0xFFFFFFFFFFFFFFFFFFFFFFFFFFFFFFFFFFFFFFFF AND PUSH20 0xFFFFFFFFFFFFFFFFFFFFFFFFFFFFFFFFFFFFFFFF AND DUP2 MSTORE PUSH1 0x20 ADD SWAP1 DUP2 MSTORE PUSH1 0x20 ADD PUSH1 0x0 KECCAK256 PUSH1 0x0 DUP11 DUP2 MSTORE PUSH1 0x20 ADD SWAP1 DUP2 MSTORE PUSH1 0x20 ADD PUSH1 0x0 KECCAK256 DUP2 SWAP1 SSTORE POP PUSH1 0x2 PUSH1 0x0 SWAP1 SLOAD SWAP1 PUSH2 0x100 EXP SWAP1 DIV PUSH20 0xFFFFFFFFFFFFFFFFFFFFFFFFFFFFFFFFFFFFFFFF AND PUSH20 0xFFFFFFFFFFFFFFFFFFFFFFFFFFFFFFFFFFFFFFFF AND PUSH4 0xFB470DF2 DUP6 PUSH1 0x1 DUP8 PUSH2 0x1B5D SWAP2 SWAP1 PUSH2 0x2CB0 JUMP JUMPDEST PUSH1 0x40 MLOAD DUP4 PUSH4 0xFFFFFFFF AND PUSH1 0xE0 SHL DUP2 MSTORE PUSH1 0x4 ADD PUSH2 0x1B7A SWAP3 SWAP2 SWAP1 PUSH2 0x2CE4 JUMP JUMPDEST PUSH1 0x0 PUSH1 0x40 MLOAD DUP1 DUP4 SUB DUP2 PUSH1 0x0 DUP8 DUP1 EXTCODESIZE ISZERO DUP1 ISZERO PUSH2 0x1B94 JUMPI PUSH1 0x0 DUP1 REVERT JUMPDEST POP GAS CALL ISZERO DUP1 ISZERO PUSH2 0x1BA8 JUMPI RETURNDATASIZE PUSH1 0x0 DUP1 RETURNDATACOPY RETURNDATASIZE PUSH1 0x0 REVERT JUMPDEST POP POP POP POP POP POP POP POP POP POP POP POP POP JUMP JUMPDEST PUSH1 0x1 PUSH1 0x0 SWAP1 SLOAD SWAP1 PUSH2 0x100 EXP SWAP1 DIV PUSH20 0xFFFFFFFFFFFFFFFFFFFFFFFFFFFFFFFFFFFFFFFF AND DUP2 JUMP JUMPDEST PUSH1 0x0 PUSH1 0x9 DUP3 DUP2 SLOAD DUP2 LT PUSH2 0x1BF3 JUMPI PUSH2 0x1BF2 PUSH2 0x2903 JUMP JUMPDEST JUMPDEST SWAP1 PUSH1 0x0 MSTORE PUSH1 0x20 PUSH1 0x0 KECCAK256 SWAP1 PUSH1 0xC MUL ADD SWAP1 POP PUSH1 0x0 DUP2 PUSH1 0x7 ADD PUSH1 0x0 SWAP1 SLOAD SWAP1 PUSH2 0x100 EXP SWAP1 DIV PUSH1 0xFF AND SWAP1 POP PUSH1 0x6 PUSH1 0x9 DUP2 GT ISZERO PUSH2 0x1C2D JUMPI PUSH2 0x1C2C PUSH2 0x2376 JUMP JUMPDEST JUMPDEST DUP2 PUSH1 0x9 DUP2 GT ISZERO PUSH2 0x1C40 JUMPI PUSH2 0x1C3F PUSH2 0x2376 JUMP JUMPDEST JUMPDEST EQ PUSH2 0x1C4A JUMPI PUSH1 0x0 DUP1 REVERT JUMPDEST PUSH1 0x2 PUSH1 0x0 SWAP1 SLOAD SWAP1 PUSH2 0x100 EXP SWAP1 DIV PUSH20 0xFFFFFFFFFFFFFFFFFFFFFFFFFFFFFFFFFFFFFFFF AND PUSH20 0xFFFFFFFFFFFFFFFFFFFFFFFFFFFFFFFFFFFFFFFF AND PUSH4 0x4CC82215 DUP5 PUSH1 0x40 MLOAD DUP3 PUSH4 0xFFFFFFFF AND PUSH1 0xE0 SHL DUP2 MSTORE PUSH1 0x4 ADD PUSH2 0x1CA5 SWAP2 SWAP1 PUSH2 0x2583 JUMP JUMPDEST PUSH1 0x0 PUSH1 0x40 MLOAD DUP1 DUP4 SUB DUP2 PUSH1 0x0 DUP8 DUP1 EXTCODESIZE ISZERO DUP1 ISZERO PUSH2 0x1CBF JUMPI PUSH1 0x0 DUP1 REVERT JUMPDEST POP GAS CALL ISZERO DUP1 ISZERO PUSH2 0x1CD3 JUMPI RETURNDATASIZE PUSH1 0x0 DUP1 RETURNDATACOPY RETURNDATASIZE PUSH1 0x0 REVERT JUMPDEST POP POP POP POP DUP2 PUSH1 0x1 ADD PUSH1 0x0 SWAP1 SLOAD SWAP1 PUSH2 0x100 EXP SWAP1 DIV PUSH20 0xFFFFFFFFFFFFFFFFFFFFFFFFFFFFFFFFFFFFFFFF AND PUSH20 0xFFFFFFFFFFFFFFFFFFFFFFFFFFFFFFFFFFFFFFFF AND PUSH4 0x23B872DD ADDRESS DUP5 PUSH1 0x3 ADD PUSH1 0x0 SWAP1 SLOAD SWAP1 PUSH2 0x100 EXP SWAP1 DIV PUSH20 0xFFFFFFFFFFFFFFFFFFFFFFFFFFFFFFFFFFFFFFFF AND DUP6 PUSH1 0x2 ADD SLOAD PUSH1 0x40 MLOAD DUP5 PUSH4 0xFFFFFFFF AND PUSH1 0xE0 SHL DUP2 MSTORE PUSH1 0x4 ADD PUSH2 0x1D60 SWAP4 SWAP3 SWAP2 SWAP1 PUSH2 0x2AC5 JUMP JUMPDEST PUSH1 0x0 PUSH1 0x40 MLOAD DUP1 DUP4 SUB DUP2 PUSH1 0x0 DUP8 DUP1 EXTCODESIZE ISZERO DUP1 ISZERO PUSH2 0x1D7A JUMPI PUSH1 0x0 DUP1 REVERT JUMPDEST POP GAS CALL ISZERO DUP1 ISZERO PUSH2 0x1D8E JUMPI RETURNDATASIZE PUSH1 0x0 DUP1 RETURNDATACOPY RETURNDATASIZE PUSH1 0x0 REVERT JUMPDEST POP POP POP POP PUSH1 0x7 DUP3 PUSH1 0x7 ADD PUSH1 0x0 PUSH2 0x100 EXP DUP2 SLOAD DUP2 PUSH1 0xFF MUL NOT AND SWAP1 DUP4 PUSH1 0x9 DUP2 GT ISZERO PUSH2 0x1DBA JUMPI PUSH2 0x1DB9 PUSH2 0x2376 JUMP JUMPDEST JUMPDEST MUL OR SWAP1 SSTORE POP POP POP POP JUMP JUMPDEST PUSH1 0x0 PUSH2 0x1DD8 DUP4 PUSH1 0x5 ADD SLOAD DUP5 PUSH1 0x6 ADD SLOAD PUSH2 0x670 JUMP JUMPDEST SWAP1 POP PUSH1 0x1 PUSH1 0x0 SWAP1 SLOAD SWAP1 PUSH2 0x100 EXP SWAP1 DIV PUSH20 0xFFFFFFFFFFFFFFFFFFFFFFFFFFFFFFFFFFFFFFFF AND PUSH20 0xFFFFFFFFFFFFFFFFFFFFFFFFFFFFFFFFFFFFFFFF AND PUSH4 0x23B872DD CALLER DUP5 DUP5 PUSH1 0x40 MLOAD DUP5 PUSH4 0xFFFFFFFF AND PUSH1 0xE0 SHL DUP2 MSTORE PUSH1 0x4 ADD PUSH2 0x1E39 SWAP4 SWAP3 SWAP2 SWAP1 PUSH2 0x2AC5 JUMP JUMPDEST PUSH1 0x20 PUSH1 0x40 MLOAD DUP1 DUP4 SUB DUP2 PUSH1 0x0 DUP8 GAS CALL ISZERO DUP1 ISZERO PUSH2 0x1E58 JUMPI RETURNDATASIZE PUSH1 0x0 DUP1 RETURNDATACOPY RETURNDATASIZE PUSH1 0x0 REVERT JUMPDEST POP POP POP POP PUSH1 0x40 MLOAD RETURNDATASIZE PUSH1 0x1F NOT PUSH1 0x1F DUP3 ADD AND DUP3 ADD DUP1 PUSH1 0x40 MSTORE POP DUP2 ADD SWAP1 PUSH2 0x1E7C SWAP2 SWAP1 PUSH2 0x2C5A JUMP JUMPDEST POP DUP3 PUSH1 0x1 ADD PUSH1 0x0 SWAP1 SLOAD SWAP1 PUSH2 0x100 EXP SWAP1 DIV PUSH20 0xFFFFFFFFFFFFFFFFFFFFFFFFFFFFFFFFFFFFFFFF AND PUSH20 0xFFFFFFFFFFFFFFFFFFFFFFFFFFFFFFFFFFFFFFFF AND PUSH4 0x23B872DD ADDRESS CALLER DUP7 PUSH1 0x2 ADD SLOAD PUSH1 0x40 MLOAD DUP5 PUSH4 0xFFFFFFFF AND PUSH1 0xE0 SHL DUP2 MSTORE PUSH1 0x4 ADD PUSH2 0x1EE2 SWAP4 SWAP3 SWAP2 SWAP1 PUSH2 0x2AC5 JUMP JUMPDEST PUSH1 0x0 PUSH1 0x40 MLOAD DUP1 DUP4 SUB DUP2 PUSH1 0x0 DUP8 DUP1 EXTCODESIZE ISZERO DUP1 ISZERO PUSH2 0x1EFC JUMPI PUSH1 0x0 DUP1 REVERT JUMPDEST POP GAS CALL ISZERO DUP1 ISZERO PUSH2 0x1F10 JUMPI RETURNDATASIZE PUSH1 0x0 DUP1 RETURNDATACOPY RETURNDATASIZE PUSH1 0x0 REVERT JUMPDEST POP POP POP POP POP POP POP JUMP JUMPDEST PUSH1 0x0 DUP1 PUSH1 0x0 PUSH2 0x1F28 DUP6 DUP6 PUSH2 0x20DF JUMP JUMPDEST SWAP2 POP SWAP2 POP PUSH1 0x0 PUSH1 0x4 DUP2 GT ISZERO PUSH2 0x1F40 JUMPI PUSH2 0x1F3F PUSH2 0x2376 JUMP JUMPDEST JUMPDEST DUP2 PUSH1 0x4 DUP2 GT ISZERO PUSH2 0x1F53 JUMPI PUSH2 0x1F52 PUSH2 0x2376 JUMP JUMPDEST JUMPDEST EQ DUP1 ISZERO PUSH2 0x1F8B JUMPI POP DUP6 PUSH20 0xFFFFFFFFFFFFFFFFFFFFFFFFFFFFFFFFFFFFFFFF AND DUP3 PUSH20 0xFFFFFFFFFFFFFFFFFFFFFFFFFFFFFFFFFFFFFFFF AND EQ JUMPDEST ISZERO PUSH2 0x1F9B JUMPI PUSH1 0x1 SWAP3 POP POP POP PUSH2 0x20D8 JUMP JUMPDEST PUSH1 0x0 DUP1 DUP8 PUSH20 0xFFFFFFFFFFFFFFFFFFFFFFFFFFFFFFFFFFFFFFFF AND PUSH4 0x1626BA7E PUSH1 0xE0 SHL DUP9 DUP9 PUSH1 0x40 MLOAD PUSH1 0x24 ADD PUSH2 0x1FD0 SWAP3 SWAP2 SWAP1 PUSH2 0x2DD4 JUMP JUMPDEST PUSH1 0x40 MLOAD PUSH1 0x20 DUP2 DUP4 SUB SUB DUP2 MSTORE SWAP1 PUSH1 0x40 MSTORE SWAP1 PUSH28 0xFFFFFFFFFFFFFFFFFFFFFFFFFFFFFFFFFFFFFFFFFFFFFFFFFFFFFFFF NOT AND PUSH1 0x20 DUP3 ADD DUP1 MLOAD PUSH28 0xFFFFFFFFFFFFFFFFFFFFFFFFFFFFFFFFFFFFFFFFFFFFFFFFFFFFFFFF DUP4 DUP2 DUP4 AND OR DUP4 MSTORE POP POP POP POP PUSH1 0x40 MLOAD PUSH2 0x203A SWAP2 SWAP1 PUSH2 0x2E40 JUMP JUMPDEST PUSH1 0x0 PUSH1 0x40 MLOAD DUP1 DUP4 SUB DUP2 DUP6 GAS STATICCALL SWAP2 POP POP RETURNDATASIZE DUP1 PUSH1 0x0 DUP2 EQ PUSH2 0x2075 JUMPI PUSH1 0x40 MLOAD SWAP2 POP PUSH1 0x1F NOT PUSH1 0x3F RETURNDATASIZE ADD AND DUP3 ADD PUSH1 0x40 MSTORE RETURNDATASIZE DUP3 MSTORE RETURNDATASIZE PUSH1 0x0 PUSH1 0x20 DUP5 ADD RETURNDATACOPY PUSH2 0x207A JUMP JUMPDEST PUSH1 0x60 SWAP2 POP JUMPDEST POP SWAP2 POP SWAP2 POP DUP2 DUP1 ISZERO PUSH2 0x208D JUMPI POP PUSH1 0x20 DUP2 MLOAD EQ JUMPDEST DUP1 ISZERO PUSH2 0x20D1 JUMPI POP PUSH4 0x1626BA7E PUSH1 0xE0 SHL PUSH28 0xFFFFFFFFFFFFFFFFFFFFFFFFFFFFFFFFFFFFFFFFFFFFFFFFFFFFFFFF NOT AND DUP2 DUP1 PUSH1 0x20 ADD SWAP1 MLOAD DUP2 ADD SWAP1 PUSH2 0x20CF SWAP2 SWAP1 PUSH2 0x2E6C JUMP JUMPDEST EQ JUMPDEST SWAP5 POP POP POP POP POP JUMPDEST SWAP4 SWAP3 POP POP POP JUMP JUMPDEST PUSH1 0x0 DUP1 PUSH1 0x41 DUP4 MLOAD SUB PUSH2 0x2120 JUMPI PUSH1 0x0 DUP1 PUSH1 0x0 PUSH1 0x20 DUP7 ADD MLOAD SWAP3 POP PUSH1 0x40 DUP7 ADD MLOAD SWAP2 POP PUSH1 0x60 DUP7 ADD MLOAD PUSH1 0x0 BYTE SWAP1 POP PUSH2 0x2114 DUP8 DUP3 DUP6 DUP6 PUSH2 0x2130 JUMP JUMPDEST SWAP5 POP SWAP5 POP POP POP POP PUSH2 0x2129 JUMP JUMPDEST PUSH1 0x0 PUSH1 0x2 SWAP2 POP SWAP2 POP JUMPDEST SWAP3 POP SWAP3 SWAP1 POP JUMP JUMPDEST PUSH1 0x0 DUP1 PUSH32 0x7FFFFFFFFFFFFFFFFFFFFFFFFFFFFFFF5D576E7357A4501DDFE92F46681B20A0 DUP4 PUSH1 0x0 SHR GT ISZERO PUSH2 0x216B JUMPI PUSH1 0x0 PUSH1 0x3 SWAP2 POP SWAP2 POP PUSH2 0x2209 JUMP JUMPDEST PUSH1 0x0 PUSH1 0x1 DUP8 DUP8 DUP8 DUP8 PUSH1 0x40 MLOAD PUSH1 0x0 DUP2 MSTORE PUSH1 0x20 ADD PUSH1 0x40 MSTORE PUSH1 0x40 MLOAD PUSH2 0x2190 SWAP5 SWAP4 SWAP3 SWAP2 SWAP1 PUSH2 0x2EB5 JUMP JUMPDEST PUSH1 0x20 PUSH1 0x40 MLOAD PUSH1 0x20 DUP2 SUB SWAP1 DUP1 DUP5 SUB SWAP1 DUP6 GAS STATICCALL ISZERO DUP1 ISZERO PUSH2 0x21B2 JUMPI RETURNDATASIZE PUSH1 0x0 DUP1 RETURNDATACOPY RETURNDATASIZE PUSH1 0x0 REVERT JUMPDEST POP POP POP PUSH1 0x20 PUSH1 0x40 MLOAD SUB MLOAD SWAP1 POP PUSH1 0x0 PUSH20 0xFFFFFFFFFFFFFFFFFFFFFFFFFFFFFFFFFFFFFFFF AND DUP2 PUSH20 0xFFFFFFFFFFFFFFFFFFFFFFFFFFFFFFFFFFFFFFFF AND SUB PUSH2 0x2200 JUMPI PUSH1 0x0 PUSH1 0x1 SWAP3 POP SWAP3 POP POP PUSH2 0x2209 JUMP JUMPDEST DUP1 PUSH1 0x0 SWAP3 POP SWAP3 POP POP JUMPDEST SWAP5 POP SWAP5 SWAP3 POP POP POP JUMP JUMPDEST DUP3 DUP1 SLOAD DUP3 DUP3 SSTORE SWAP1 PUSH1 0x0 MSTORE PUSH1 0x20 PUSH1 0x0 KECCAK256 SWAP1 DUP2 ADD SWAP3 DUP3 ISZERO PUSH2 0x228B JUMPI SWAP2 PUSH1 0x20 MUL DUP3 ADD JUMPDEST DUP3 DUP2 GT ISZERO PUSH2 0x228A JUMPI DUP3 MLOAD DUP3 PUSH1 0x0 PUSH2 0x100 EXP DUP2 SLOAD DUP2 PUSH20 0xFFFFFFFFFFFFFFFFFFFFFFFFFFFFFFFFFFFFFFFF MUL NOT AND SWAP1 DUP4 PUSH20 0xFFFFFFFFFFFFFFFFFFFFFFFFFFFFFFFFFFFFFFFF AND MUL OR SWAP1 SSTORE POP SWAP2 PUSH1 0x20 ADD SWAP2 SWAP1 PUSH1 0x1 ADD SWAP1 PUSH2 0x2232 JUMP JUMPDEST JUMPDEST POP SWAP1 POP PUSH2 0x2298 SWAP2 SWAP1 PUSH2 0x229C JUMP JUMPDEST POP SWAP1 JUMP JUMPDEST JUMPDEST DUP1 DUP3 GT ISZERO PUSH2 0x22B5 JUMPI PUSH1 0x0 DUP2 PUSH1 0x0 SWAP1 SSTORE POP PUSH1 0x1 ADD PUSH2 0x229D JUMP JUMPDEST POP SWAP1 JUMP JUMPDEST PUSH1 0x0 DUP1 REVERT JUMPDEST PUSH1 0x0 DUP1 REVERT JUMPDEST PUSH1 0x0 DUP2 SWAP1 POP SWAP2 SWAP1 POP JUMP JUMPDEST PUSH2 0x22D6 DUP2 PUSH2 0x22C3 JUMP JUMPDEST DUP2 EQ PUSH2 0x22E1 JUMPI PUSH1 0x0 DUP1 REVERT JUMPDEST POP JUMP JUMPDEST PUSH1 0x0 DUP2 CALLDATALOAD SWAP1 POP PUSH2 0x22F3 DUP2 PUSH2 0x22CD JUMP JUMPDEST SWAP3 SWAP2 POP POP JUMP JUMPDEST PUSH1 0x0 PUSH1 0x20 DUP3 DUP5 SUB SLT ISZERO PUSH2 0x230F JUMPI PUSH2 0x230E PUSH2 0x22B9 JUMP JUMPDEST JUMPDEST PUSH1 0x0 PUSH2 0x231D DUP5 DUP3 DUP6 ADD PUSH2 0x22E4 JUMP JUMPDEST SWAP2 POP POP SWAP3 SWAP2 POP POP JUMP JUMPDEST PUSH2 0x232F DUP2 PUSH2 0x22C3 JUMP JUMPDEST DUP3 MSTORE POP POP JUMP JUMPDEST PUSH1 0x0 PUSH20 0xFFFFFFFFFFFFFFFFFFFFFFFFFFFFFFFFFFFFFFFF DUP3 AND SWAP1 POP SWAP2 SWAP1 POP JUMP JUMPDEST PUSH1 0x0 PUSH2 0x2360 DUP3 PUSH2 0x2335 JUMP JUMPDEST SWAP1 POP SWAP2 SWAP1 POP JUMP JUMPDEST PUSH2 0x2370 DUP2 PUSH2 0x2355 JUMP JUMPDEST DUP3 MSTORE POP POP JUMP JUMPDEST PUSH32 0x4E487B7100000000000000000000000000000000000000000000000000000000 PUSH1 0x0 MSTORE PUSH1 0x21 PUSH1 0x4 MSTORE PUSH1 0x24 PUSH1 0x0 REVERT JUMPDEST PUSH1 0xA DUP2 LT PUSH2 0x23B6 JUMPI PUSH2 0x23B5 PUSH2 0x2376 JUMP JUMPDEST JUMPDEST POP JUMP JUMPDEST PUSH1 0x0 DUP2 SWAP1 POP PUSH2 0x23C7 DUP3 PUSH2 0x23A5 JUMP JUMPDEST SWAP2 SWAP1 POP JUMP JUMPDEST PUSH1 0x0 PUSH2 0x23D7 DUP3 PUSH2 0x23B9 JUMP JUMPDEST SWAP1 POP SWAP2 SWAP1 POP JUMP JUMPDEST PUSH2 0x23E7 DUP2 PUSH2 0x23CC JUMP JUMPDEST DUP3 MSTORE POP POP JUMP JUMPDEST PUSH1 0x0 DUP2 SWAP1 POP SWAP2 SWAP1 POP JUMP JUMPDEST PUSH2 0x2400 DUP2 PUSH2 0x23ED JUMP JUMPDEST DUP3 MSTORE POP POP JUMP JUMPDEST PUSH1 0x0 PUSH2 0x160 DUP3 ADD SWAP1 POP PUSH2 0x241C PUSH1 0x0 DUP4 ADD DUP15 PUSH2 0x2326 JUMP JUMPDEST PUSH2 0x2429 PUSH1 0x20 DUP4 ADD DUP14 PUSH2 0x2367 JUMP JUMPDEST PUSH2 0x2436 PUSH1 0x40 DUP4 ADD DUP13 PUSH2 0x2326 JUMP JUMPDEST PUSH2 0x2443 PUSH1 0x60 DUP4 ADD DUP12 PUSH2 0x2367 JUMP JUMPDEST PUSH2 0x2450 PUSH1 0x80 DUP4 ADD DUP11 PUSH2 0x2326 JUMP JUMPDEST PUSH2 0x245D PUSH1 0xA0 DUP4 ADD DUP10 PUSH2 0x2326 JUMP JUMPDEST PUSH2 0x246A PUSH1 0xC0 DUP4 ADD DUP9 PUSH2 0x2326 JUMP JUMPDEST PUSH2 0x2477 PUSH1 0xE0 DUP4 ADD DUP8 PUSH2 0x23DE JUMP JUMPDEST PUSH2 0x2485 PUSH2 0x100 DUP4 ADD DUP7 PUSH2 0x2367 JUMP JUMPDEST PUSH2 0x2493 PUSH2 0x120 DUP4 ADD DUP6 PUSH2 0x23F7 JUMP JUMPDEST PUSH2 0x24A1 PUSH2 0x140 DUP4 ADD DUP5 PUSH2 0x2326 JUMP JUMPDEST SWAP13 SWAP12 POP POP POP POP POP POP POP POP POP POP POP POP JUMP JUMPDEST PUSH2 0x24BA DUP2 PUSH2 0x2355 JUMP JUMPDEST DUP2 EQ PUSH2 0x24C5 JUMPI PUSH1 0x0 DUP1 REVERT JUMPDEST POP JUMP JUMPDEST PUSH1 0x0 DUP2 CALLDATALOAD SWAP1 POP PUSH2 0x24D7 DUP2 PUSH2 0x24B1 JUMP JUMPDEST SWAP3 SWAP2 POP POP JUMP JUMPDEST PUSH1 0x0 DUP2 ISZERO ISZERO SWAP1 POP SWAP2 SWAP1 POP JUMP JUMPDEST PUSH2 0x24F2 DUP2 PUSH2 0x24DD JUMP JUMPDEST DUP2 EQ PUSH2 0x24FD JUMPI PUSH1 0x0 DUP1 REVERT JUMPDEST POP JUMP JUMPDEST PUSH1 0x0 DUP2 CALLDATALOAD SWAP1 POP PUSH2 0x250F DUP2 PUSH2 0x24E9 JUMP JUMPDEST SWAP3 SWAP2 POP POP JUMP JUMPDEST PUSH1 0x0 DUP1 PUSH1 0x0 PUSH1 0x60 DUP5 DUP7 SUB SLT ISZERO PUSH2 0x252E JUMPI PUSH2 0x252D PUSH2 0x22B9 JUMP JUMPDEST JUMPDEST PUSH1 0x0 PUSH2 0x253C DUP7 DUP3 DUP8 ADD PUSH2 0x24C8 JUMP JUMPDEST SWAP4 POP POP PUSH1 0x20 PUSH2 0x254D DUP7 DUP3 DUP8 ADD PUSH2 0x22E4 JUMP JUMPDEST SWAP3 POP POP PUSH1 0x40 PUSH2 0x255E DUP7 DUP3 DUP8 ADD PUSH2 0x2500 JUMP JUMPDEST SWAP2 POP POP SWAP3 POP SWAP3 POP SWAP3 JUMP JUMPDEST PUSH1 0x0 PUSH1 0x20 DUP3 ADD SWAP1 POP PUSH2 0x257D PUSH1 0x0 DUP4 ADD DUP5 PUSH2 0x23F7 JUMP JUMPDEST SWAP3 SWAP2 POP POP JUMP JUMPDEST PUSH1 0x0 PUSH1 0x20 DUP3 ADD SWAP1 POP PUSH2 0x2598 PUSH1 0x0 DUP4 ADD DUP5 PUSH2 0x2326 JUMP JUMPDEST SWAP3 SWAP2 POP POP JUMP JUMPDEST PUSH1 0x0 PUSH1 0x20 DUP3 ADD SWAP1 POP PUSH2 0x25B3 PUSH1 0x0 DUP4 ADD DUP5 PUSH2 0x2367 JUMP JUMPDEST SWAP3 SWAP2 POP POP JUMP JUMPDEST PUSH1 0x0 DUP1 PUSH1 0x40 DUP4 DUP6 SUB SLT ISZERO PUSH2 0x25D0 JUMPI PUSH2 0x25CF PUSH2 0x22B9 JUMP JUMPDEST JUMPDEST PUSH1 0x0 PUSH2 0x25DE DUP6 DUP3 DUP7 ADD PUSH2 0x22E4 JUMP JUMPDEST SWAP3 POP POP PUSH1 0x20 PUSH2 0x25EF DUP6 DUP3 DUP7 ADD PUSH2 0x22E4 JUMP JUMPDEST SWAP2 POP POP SWAP3 POP SWAP3 SWAP1 POP JUMP JUMPDEST PUSH1 0x0 DUP1 PUSH1 0x40 DUP4 DUP6 SUB SLT ISZERO PUSH2 0x2610 JUMPI PUSH2 0x260F PUSH2 0x22B9 JUMP JUMPDEST JUMPDEST PUSH1 0x0 PUSH2 0x261E DUP6 DUP3 DUP7 ADD PUSH2 0x24C8 JUMP JUMPDEST SWAP3 POP POP PUSH1 0x20 PUSH2 0x262F DUP6 DUP3 DUP7 ADD PUSH2 0x22E4 JUMP JUMPDEST SWAP2 POP POP SWAP3 POP SWAP3 SWAP1 POP JUMP JUMPDEST PUSH1 0x0 DUP1 REVERT JUMPDEST PUSH1 0x0 DUP1 REVERT JUMPDEST PUSH1 0x0 DUP1 REVERT JUMPDEST PUSH1 0x0 DUP1 DUP4 PUSH1 0x1F DUP5 ADD SLT PUSH2 0x265E JUMPI PUSH2 0x265D PUSH2 0x2639 JUMP JUMPDEST JUMPDEST DUP3 CALLDATALOAD SWAP1 POP PUSH8 0xFFFFFFFFFFFFFFFF DUP2 GT ISZERO PUSH2 0x267B JUMPI PUSH2 0x267A PUSH2 0x263E JUMP JUMPDEST JUMPDEST PUSH1 0x20 DUP4 ADD SWAP2 POP DUP4 PUSH1 0x1 DUP3 MUL DUP4 ADD GT ISZERO PUSH2 0x2697 JUMPI PUSH2 0x2696 PUSH2 0x2643 JUMP JUMPDEST JUMPDEST SWAP3 POP SWAP3 SWAP1 POP JUMP JUMPDEST PUSH1 0x0 DUP1 PUSH1 0x0 DUP1 PUSH1 0x60 DUP6 DUP8 SUB SLT ISZERO PUSH2 0x26B8 JUMPI PUSH2 0x26B7 PUSH2 0x22B9 JUMP JUMPDEST JUMPDEST PUSH1 0x0 PUSH2 0x26C6 DUP8 DUP3 DUP9 ADD PUSH2 0x22E4 JUMP JUMPDEST SWAP5 POP POP PUSH1 0x20 PUSH2 0x26D7 DUP8 DUP3 DUP9 ADD PUSH2 0x2500 JUMP JUMPDEST SWAP4 POP POP PUSH1 0x40 DUP6 ADD CALLDATALOAD PUSH8 0xFFFFFFFFFFFFFFFF DUP2 GT ISZERO PUSH2 0x26F8 JUMPI PUSH2 0x26F7 PUSH2 0x22BE JUMP JUMPDEST JUMPDEST PUSH2 0x2704 DUP8 DUP3 DUP9 ADD PUSH2 0x2648 JUMP JUMPDEST SWAP3 POP SWAP3 POP POP SWAP3 SWAP6 SWAP2 SWAP5 POP SWAP3 POP JUMP JUMPDEST PUSH2 0x271B DUP2 PUSH2 0x23ED JUMP JUMPDEST DUP2 EQ PUSH2 0x2726 JUMPI PUSH1 0x0 DUP1 REVERT JUMPDEST POP JUMP JUMPDEST PUSH1 0x0 DUP2 CALLDATALOAD SWAP1 POP PUSH2 0x2738 DUP2 PUSH2 0x2712 JUMP JUMPDEST SWAP3 SWAP2 POP POP JUMP JUMPDEST PUSH1 0x0 DUP1 PUSH1 0x0 DUP1 PUSH1 0x0 PUSH1 0xA0 DUP7 DUP9 SUB SLT ISZERO PUSH2 0x275A JUMPI PUSH2 0x2759 PUSH2 0x22B9 JUMP JUMPDEST JUMPDEST PUSH1 0x0 PUSH2 0x2768 DUP9 DUP3 DUP10 ADD PUSH2 0x24C8 JUMP JUMPDEST SWAP6 POP POP PUSH1 0x20 PUSH2 0x2779 DUP9 DUP3 DUP10 ADD PUSH2 0x22E4 JUMP JUMPDEST SWAP5 POP POP PUSH1 0x40 PUSH2 0x278A DUP9 DUP3 DUP10 ADD PUSH2 0x22E4 JUMP JUMPDEST SWAP4 POP POP PUSH1 0x60 PUSH2 0x279B DUP9 DUP3 DUP10 ADD PUSH2 0x2729 JUMP JUMPDEST SWAP3 POP POP PUSH1 0x80 PUSH2 0x27AC DUP9 DUP3 DUP10 ADD PUSH2 0x22E4 JUMP JUMPDEST SWAP2 POP POP SWAP3 SWAP6 POP SWAP3 SWAP6 SWAP1 SWAP4 POP JUMP JUMPDEST PUSH1 0x0 DUP2 SWAP1 POP SWAP2 SWAP1 POP JUMP JUMPDEST PUSH1 0x0 PUSH2 0x27DE PUSH2 0x27D9 PUSH2 0x27D4 DUP5 PUSH2 0x2335 JUMP JUMPDEST PUSH2 0x27B9 JUMP JUMPDEST PUSH2 0x2335 JUMP JUMPDEST SWAP1 POP SWAP2 SWAP1 POP JUMP JUMPDEST PUSH1 0x0 PUSH2 0x27F0 DUP3 PUSH2 0x27C3 JUMP JUMPDEST SWAP1 POP SWAP2 SWAP1 POP JUMP JUMPDEST PUSH1 0x0 PUSH2 0x2802 DUP3 PUSH2 0x27E5 JUMP JUMPDEST SWAP1 POP SWAP2 SWAP1 POP JUMP JUMPDEST PUSH2 0x2812 DUP2 PUSH2 0x27F7 JUMP JUMPDEST DUP3 MSTORE POP POP JUMP JUMPDEST PUSH1 0x0 PUSH1 0x20 DUP3 ADD SWAP1 POP PUSH2 0x282D PUSH1 0x0 DUP4 ADD DUP5 PUSH2 0x2809 JUMP JUMPDEST SWAP3 SWAP2 POP POP JUMP JUMPDEST PUSH1 0x0 PUSH1 0x20 DUP3 DUP5 SUB SLT ISZERO PUSH2 0x2849 JUMPI PUSH2 0x2848 PUSH2 0x22B9 JUMP JUMPDEST JUMPDEST PUSH1 0x0 PUSH2 0x2857 DUP5 DUP3 DUP6 ADD PUSH2 0x24C8 JUMP JUMPDEST SWAP2 POP POP SWAP3 SWAP2 POP POP JUMP JUMPDEST PUSH1 0x0 DUP1 PUSH1 0x0 DUP1 PUSH1 0x80 DUP6 DUP8 SUB SLT ISZERO PUSH2 0x287A JUMPI PUSH2 0x2879 PUSH2 0x22B9 JUMP JUMPDEST JUMPDEST PUSH1 0x0 PUSH2 0x2888 DUP8 DUP3 DUP9 ADD PUSH2 0x24C8 JUMP JUMPDEST SWAP5 POP POP PUSH1 0x20 PUSH2 0x2899 DUP8 DUP3 DUP9 ADD PUSH2 0x22E4 JUMP JUMPDEST SWAP4 POP POP PUSH1 0x40 PUSH2 0x28AA DUP8 DUP3 DUP9 ADD PUSH2 0x22E4 JUMP JUMPDEST SWAP3 POP POP PUSH1 0x60 PUSH2 0x28BB DUP8 DUP3 DUP9 ADD PUSH2 0x22E4 JUMP JUMPDEST SWAP2 POP POP SWAP3 SWAP6 SWAP2 SWAP5 POP SWAP3 POP JUMP JUMPDEST PUSH1 0x0 PUSH2 0x28D2 DUP3 PUSH2 0x27E5 JUMP JUMPDEST SWAP1 POP SWAP2 SWAP1 POP JUMP JUMPDEST PUSH2 0x28E2 DUP2 PUSH2 0x28C7 JUMP JUMPDEST DUP3 MSTORE POP POP JUMP JUMPDEST PUSH1 0x0 PUSH1 0x20 DUP3 ADD SWAP1 POP PUSH2 0x28FD PUSH1 0x0 DUP4 ADD DUP5 PUSH2 0x28D9 JUMP JUMPDEST SWAP3 SWAP2 POP POP JUMP JUMPDEST PUSH32 0x4E487B7100000000000000000000000000000000000000000000000000000000 PUSH1 0x0 MSTORE PUSH1 0x32 PUSH1 0x4 MSTORE PUSH1 0x24 PUSH1 0x0 REVERT JUMPDEST PUSH1 0x0 DUP2 PUSH1 0x60 SHL SWAP1 POP SWAP2 SWAP1 POP JUMP JUMPDEST PUSH1 0x0 PUSH2 0x294A DUP3 PUSH2 0x2932 JUMP JUMPDEST SWAP1 POP SWAP2 SWAP1 POP JUMP JUMPDEST PUSH1 0x0 PUSH2 0x295C DUP3 PUSH2 0x293F JUMP JUMPDEST SWAP1 POP SWAP2 SWAP1 POP JUMP JUMPDEST PUSH2 0x2974 PUSH2 0x296F DUP3 PUSH2 0x2355 JUMP JUMPDEST PUSH2 0x2951 JUMP JUMPDEST DUP3 MSTORE POP POP JUMP JUMPDEST PUSH1 0x0 DUP2 SWAP1 POP SWAP2 SWAP1 POP JUMP JUMPDEST PUSH2 0x2995 PUSH2 0x2990 DUP3 PUSH2 0x22C3 JUMP JUMPDEST PUSH2 0x297A JUMP JUMPDEST DUP3 MSTORE POP POP JUMP JUMPDEST PUSH1 0x0 DUP2 PUSH1 0xF8 SHL SWAP1 POP SWAP2 SWAP1 POP JUMP JUMPDEST PUSH1 0x0 PUSH2 0x29B3 DUP3 PUSH2 0x299B JUMP JUMPDEST SWAP1 POP SWAP2 SWAP1 POP JUMP JUMPDEST PUSH1 0x0 PUSH2 0x29C5 DUP3 PUSH2 0x29A8 JUMP JUMPDEST SWAP1 POP SWAP2 SWAP1 POP JUMP JUMPDEST PUSH2 0x29DD PUSH2 0x29D8 DUP3 PUSH2 0x24DD JUMP JUMPDEST PUSH2 0x29BA JUMP JUMPDEST DUP3 MSTORE POP POP JUMP JUMPDEST PUSH1 0x0 PUSH2 0x29EF DUP3 DUP7 PUSH2 0x2963 JUMP JUMPDEST PUSH1 0x14 DUP3 ADD SWAP2 POP PUSH2 0x29FF DUP3 DUP6 PUSH2 0x2984 JUMP JUMPDEST PUSH1 0x20 DUP3 ADD SWAP2 POP PUSH2 0x2A0F DUP3 DUP5 PUSH2 0x29CC JUMP JUMPDEST PUSH1 0x1 DUP3 ADD SWAP2 POP DUP2 SWAP1 POP SWAP5 SWAP4 POP POP POP POP JUMP JUMPDEST PUSH32 0x4E487B7100000000000000000000000000000000000000000000000000000000 PUSH1 0x0 MSTORE PUSH1 0x11 PUSH1 0x4 MSTORE PUSH1 0x24 PUSH1 0x0 REVERT JUMPDEST PUSH1 0x0 PUSH2 0x2A5A DUP3 PUSH2 0x22C3 JUMP JUMPDEST SWAP2 POP PUSH2 0x2A65 DUP4 PUSH2 0x22C3 JUMP JUMPDEST SWAP3 POP DUP3 DUP3 ADD SWAP1 POP DUP1 DUP3 GT ISZERO PUSH2 0x2A7D JUMPI PUSH2 0x2A7C PUSH2 0x2A20 JUMP JUMPDEST JUMPDEST SWAP3 SWAP2 POP POP JUMP JUMPDEST PUSH1 0x0 PUSH2 0x2A8E DUP3 PUSH2 0x22C3 JUMP JUMPDEST SWAP2 POP PUSH2 0x2A99 DUP4 PUSH2 0x22C3 JUMP JUMPDEST SWAP3 POP DUP3 DUP3 MUL PUSH2 0x2AA7 DUP2 PUSH2 0x22C3 JUMP JUMPDEST SWAP2 POP DUP3 DUP3 DIV DUP5 EQ DUP4 ISZERO OR PUSH2 0x2ABE JUMPI PUSH2 0x2ABD PUSH2 0x2A20 JUMP JUMPDEST JUMPDEST POP SWAP3 SWAP2 POP POP JUMP JUMPDEST PUSH1 0x0 PUSH1 0x60 DUP3 ADD SWAP1 POP PUSH2 0x2ADA PUSH1 0x0 DUP4 ADD DUP7 PUSH2 0x2367 JUMP JUMPDEST PUSH2 0x2AE7 PUSH1 0x20 DUP4 ADD DUP6 PUSH2 0x2367 JUMP JUMPDEST PUSH2 0x2AF4 PUSH1 0x40 DUP4 ADD DUP5 PUSH2 0x2326 JUMP JUMPDEST SWAP5 SWAP4 POP POP POP POP JUMP JUMPDEST PUSH1 0x0 DUP3 DUP3 MSTORE PUSH1 0x20 DUP3 ADD SWAP1 POP SWAP3 SWAP2 POP POP JUMP JUMPDEST PUSH32 0x6973206E6F742050744400000000000000000000000000000000000000000000 PUSH1 0x0 DUP3 ADD MSTORE POP JUMP JUMPDEST PUSH1 0x0 PUSH2 0x2B43 PUSH1 0xA DUP4 PUSH2 0x2AFC JUMP JUMPDEST SWAP2 POP PUSH2 0x2B4E DUP3 PUSH2 0x2B0D JUMP JUMPDEST PUSH1 0x20 DUP3 ADD SWAP1 POP SWAP2 SWAP1 POP JUMP JUMPDEST PUSH1 0x0 PUSH1 0x20 DUP3 ADD SWAP1 POP DUP2 DUP2 SUB PUSH1 0x0 DUP4 ADD MSTORE PUSH2 0x2B72 DUP2 PUSH2 0x2B36 JUMP JUMPDEST SWAP1 POP SWAP2 SWAP1 POP JUMP JUMPDEST PUSH32 0x616C726561647920766F74656400000000000000000000000000000000000000 PUSH1 0x0 DUP3 ADD MSTORE POP JUMP JUMPDEST PUSH1 0x0 PUSH2 0x2BAF PUSH1 0xD DUP4 PUSH2 0x2AFC JUMP JUMPDEST SWAP2 POP PUSH2 0x2BBA DUP3 PUSH2 0x2B79 JUMP JUMPDEST PUSH1 0x20 DUP3 ADD SWAP1 POP SWAP2 SWAP1 POP JUMP JUMPDEST PUSH1 0x0 PUSH1 0x20 DUP3 ADD SWAP1 POP DUP2 DUP2 SUB PUSH1 0x0 DUP4 ADD MSTORE PUSH2 0x2BDE DUP2 PUSH2 0x2BA2 JUMP JUMPDEST SWAP1 POP SWAP2 SWAP1 POP JUMP JUMPDEST PUSH32 0x4E487B7100000000000000000000000000000000000000000000000000000000 PUSH1 0x0 MSTORE PUSH1 0x12 PUSH1 0x4 MSTORE PUSH1 0x24 PUSH1 0x0 REVERT JUMPDEST PUSH1 0x0 PUSH2 0x2C1F DUP3 PUSH2 0x22C3 JUMP JUMPDEST SWAP2 POP PUSH2 0x2C2A DUP4 PUSH2 0x22C3 JUMP JUMPDEST SWAP3 POP DUP3 PUSH2 0x2C3A JUMPI PUSH2 0x2C39 PUSH2 0x2BE5 JUMP JUMPDEST JUMPDEST DUP3 DUP3 DIV SWAP1 POP SWAP3 SWAP2 POP POP JUMP JUMPDEST PUSH1 0x0 DUP2 MLOAD SWAP1 POP PUSH2 0x2C54 DUP2 PUSH2 0x24E9 JUMP JUMPDEST SWAP3 SWAP2 POP POP JUMP JUMPDEST PUSH1 0x0 PUSH1 0x20 DUP3 DUP5 SUB SLT ISZERO PUSH2 0x2C70 JUMPI PUSH2 0x2C6F PUSH2 0x22B9 JUMP JUMPDEST JUMPDEST PUSH1 0x0 PUSH2 0x2C7E DUP5 DUP3 DUP6 ADD PUSH2 0x2C45 JUMP JUMPDEST SWAP2 POP POP SWAP3 SWAP2 POP POP JUMP JUMPDEST PUSH1 0x0 PUSH1 0x40 DUP3 ADD SWAP1 POP PUSH2 0x2C9C PUSH1 0x0 DUP4 ADD DUP6 PUSH2 0x23F7 JUMP JUMPDEST PUSH2 0x2CA9 PUSH1 0x20 DUP4 ADD DUP5 PUSH2 0x23F7 JUMP JUMPDEST SWAP4 SWAP3 POP POP POP JUMP JUMPDEST PUSH1 0x0 PUSH2 0x2CBB DUP3 PUSH2 0x22C3 JUMP JUMPDEST SWAP2 POP PUSH2 0x2CC6 DUP4 PUSH2 0x22C3 JUMP JUMPDEST SWAP3 POP DUP3 DUP3 SUB SWAP1 POP DUP2 DUP2 GT ISZERO PUSH2 0x2CDE JUMPI PUSH2 0x2CDD PUSH2 0x2A20 JUMP JUMPDEST JUMPDEST SWAP3 SWAP2 POP POP JUMP JUMPDEST PUSH1 0x0 PUSH1 0x40 DUP3 ADD SWAP1 POP PUSH2 0x2CF9 PUSH1 0x0 DUP4 ADD DUP6 PUSH2 0x2326 JUMP JUMPDEST PUSH2 0x2D06 PUSH1 0x20 DUP4 ADD DUP5 PUSH2 0x2326 JUMP JUMPDEST SWAP4 SWAP3 POP POP POP JUMP JUMPDEST PUSH1 0x0 PUSH1 0x60 DUP3 ADD SWAP1 POP PUSH2 0x2D22 PUSH1 0x0 DUP4 ADD DUP7 PUSH2 0x2367 JUMP JUMPDEST PUSH2 0x2D2F PUSH1 0x20 DUP4 ADD DUP6 PUSH2 0x2326 JUMP JUMPDEST PUSH2 0x2D3C PUSH1 0x40 DUP4 ADD DUP5 PUSH2 0x2326 JUMP JUMPDEST SWAP5 SWAP4 POP POP POP POP JUMP JUMPDEST PUSH1 0x0 DUP2 MLOAD SWAP1 POP SWAP2 SWAP1 POP JUMP JUMPDEST PUSH1 0x0 DUP3 DUP3 MSTORE PUSH1 0x20 DUP3 ADD SWAP1 POP SWAP3 SWAP2 POP POP JUMP JUMPDEST PUSH1 0x0 JUMPDEST DUP4 DUP2 LT ISZERO PUSH2 0x2D7E JUMPI DUP1 DUP3 ADD MLOAD DUP2 DUP5 ADD MSTORE PUSH1 0x20 DUP2 ADD SWAP1 POP PUSH2 0x2D63 JUMP JUMPDEST PUSH1 0x0 DUP5 DUP5 ADD MSTORE POP POP POP POP JUMP JUMPDEST PUSH1 0x0 PUSH1 0x1F NOT PUSH1 0x1F DUP4 ADD AND SWAP1 POP SWAP2 SWAP1 POP JUMP JUMPDEST PUSH1 0x0 PUSH2 0x2DA6 DUP3 PUSH2 0x2D44 JUMP JUMPDEST PUSH2 0x2DB0 DUP2 DUP6 PUSH2 0x2D4F JUMP JUMPDEST SWAP4 POP PUSH2 0x2DC0 DUP2 DUP6 PUSH1 0x20 DUP7 ADD PUSH2 0x2D60 JUMP JUMPDEST PUSH2 0x2DC9 DUP2 PUSH2 0x2D8A JUMP JUMPDEST DUP5 ADD SWAP2 POP POP SWAP3 SWAP2 POP POP JUMP JUMPDEST PUSH1 0x0 PUSH1 0x40 DUP3 ADD SWAP1 POP PUSH2 0x2DE9 PUSH1 0x0 DUP4 ADD DUP6 PUSH2 0x23F7 JUMP JUMPDEST DUP2 DUP2 SUB PUSH1 0x20 DUP4 ADD MSTORE PUSH2 0x2DFB DUP2 DUP5 PUSH2 0x2D9B JUMP JUMPDEST SWAP1 POP SWAP4 SWAP3 POP POP POP JUMP JUMPDEST PUSH1 0x0 DUP2 SWAP1 POP SWAP3 SWAP2 POP POP JUMP JUMPDEST PUSH1 0x0 PUSH2 0x2E1A DUP3 PUSH2 0x2D44 JUMP JUMPDEST PUSH2 0x2E24 DUP2 DUP6 PUSH2 0x2E04 JUMP JUMPDEST SWAP4 POP PUSH2 0x2E34 DUP2 DUP6 PUSH1 0x20 DUP7 ADD PUSH2 0x2D60 JUMP JUMPDEST DUP1 DUP5 ADD SWAP2 POP POP SWAP3 SWAP2 POP POP JUMP JUMPDEST PUSH1 0x0 PUSH2 0x2E4C DUP3 DUP5 PUSH2 0x2E0F JUMP JUMPDEST SWAP2 POP DUP2 SWAP1 POP SWAP3 SWAP2 POP POP JUMP JUMPDEST PUSH1 0x0 DUP2 MLOAD SWAP1 POP PUSH2 0x2E66 DUP2 PUSH2 0x2712 JUMP JUMPDEST SWAP3 SWAP2 POP POP JUMP JUMPDEST PUSH1 0x0 PUSH1 0x20 DUP3 DUP5 SUB SLT ISZERO PUSH2 0x2E82 JUMPI PUSH2 0x2E81 PUSH2 0x22B9 JUMP JUMPDEST JUMPDEST PUSH1 0x0 PUSH2 0x2E90 DUP5 DUP3 DUP6 ADD PUSH2 0x2E57 JUMP JUMPDEST SWAP2 POP POP SWAP3 SWAP2 POP POP JUMP JUMPDEST PUSH1 0x0 PUSH1 0xFF DUP3 AND SWAP1 POP SWAP2 SWAP1 POP JUMP JUMPDEST PUSH2 0x2EAF DUP2 PUSH2 0x2E99 JUMP JUMPDEST DUP3 MSTORE POP POP JUMP JUMPDEST PUSH1 0x0 PUSH1 0x80 DUP3 ADD SWAP1 POP PUSH2 0x2ECA PUSH1 0x0 DUP4 ADD DUP8 PUSH2 0x23F7 JUMP JUMPDEST PUSH2 0x2ED7 PUSH1 0x20 DUP4 ADD DUP7 PUSH2 0x2EA6 JUMP JUMPDEST PUSH2 0x2EE4 PUSH1 0x40 DUP4 ADD DUP6 PUSH2 0x23F7 JUMP JUMPDEST PUSH2 0x2EF1 PUSH1 0x60 DUP4 ADD DUP5 PUSH2 0x23F7 JUMP JUMPDEST SWAP6 SWAP5 POP POP POP POP POP JUMP INVALID LOG2 PUSH5 0x6970667358 0x22 SLT KECCAK256 0x2F PUSH15 0xDF3FF6CFBAC4D06C96B923E38F131 SWAP3 PUSH25 0x92B9806CADA2C4AF9F0AC619AA64736F6C6343000812003360 DUP1 PUSH1 0x40 MSTORE PUSH1 0x0 PUSH1 0x1 SSTORE PUSH1 0x0 PUSH1 0x2 SSTORE CALLVALUE DUP1 ISZERO PUSH2 0x1A JUMPI PUSH1 0x0 DUP1 REVERT JUMPDEST POP PUSH1 0x40 MLOAD PUSH2 0x7DE CODESIZE SUB DUP1 PUSH2 0x7DE DUP4 CODECOPY DUP2 DUP2 ADD PUSH1 0x40 MSTORE DUP2 ADD SWAP1 PUSH2 0x3C SWAP2 SWAP1 PUSH2 0xE5 JUMP JUMPDEST DUP1 PUSH1 0x0 DUP1 PUSH2 0x100 EXP DUP2 SLOAD DUP2 PUSH20 0xFFFFFFFFFFFFFFFFFFFFFFFFFFFFFFFFFFFFFFFF MUL NOT AND SWAP1 DUP4 PUSH20 0xFFFFFFFFFFFFFFFFFFFFFFFFFFFFFFFFFFFFFFFF AND MUL OR SWAP1 SSTORE POP POP PUSH2 0x112 JUMP JUMPDEST PUSH1 0x0 DUP1 REVERT JUMPDEST PUSH1 0x0 PUSH20 0xFFFFFFFFFFFFFFFFFFFFFFFFFFFFFFFFFFFFFFFF DUP3 AND SWAP1 POP SWAP2 SWAP1 POP JUMP JUMPDEST PUSH1 0x0 PUSH2 0xB2 DUP3 PUSH2 0x87 JUMP JUMPDEST SWAP1 POP SWAP2 SWAP1 POP JUMP JUMPDEST PUSH2 0xC2 DUP2 PUSH2 0xA7 JUMP JUMPDEST DUP2 EQ PUSH2 0xCD JUMPI PUSH1 0x0 DUP1 REVERT JUMPDEST POP JUMP JUMPDEST PUSH1 0x0 DUP2 MLOAD SWAP1 POP PUSH2 0xDF DUP2 PUSH2 0xB9 JUMP JUMPDEST SWAP3 SWAP2 POP POP JUMP JUMPDEST PUSH1 0x0 PUSH1 0x20 DUP3 DUP5 SUB SLT ISZERO PUSH2 0xFB JUMPI PUSH2 0xFA PUSH2 0x82 JUMP JUMPDEST JUMPDEST PUSH1 0x0 PUSH2 0x109 DUP5 DUP3 DUP6 ADD PUSH2 0xD0 JUMP JUMPDEST SWAP2 POP POP SWAP3 SWAP2 POP POP JUMP JUMPDEST PUSH2 0x6BD DUP1 PUSH2 0x121 PUSH1 0x0 CODECOPY PUSH1 0x0 RETURN INVALID PUSH1 0x80 PUSH1 0x40 MSTORE CALLVALUE DUP1 ISZERO PUSH2 0x10 JUMPI PUSH1 0x0 DUP1 REVERT JUMPDEST POP PUSH1 0x4 CALLDATASIZE LT PUSH2 0x62 JUMPI PUSH1 0x0 CALLDATALOAD PUSH1 0xE0 SHR DUP1 PUSH4 0x1F7B6D32 EQ PUSH2 0x67 JUMPI DUP1 PUSH4 0x4CC82215 EQ PUSH2 0x85 JUMPI DUP1 PUSH4 0x58FA63CA EQ PUSH2 0xA1 JUMPI DUP1 PUSH4 0x80D281C2 EQ PUSH2 0xBF JUMPI DUP1 PUSH4 0xAC12D745 EQ PUSH2 0xDB JUMPI DUP1 PUSH4 0xFB470DF2 EQ PUSH2 0x10D JUMPI JUMPDEST PUSH1 0x0 DUP1 REVERT JUMPDEST PUSH2 0x6F PUSH2 0x129 JUMP JUMPDEST PUSH1 0x40 MLOAD PUSH2 0x7C SWAP2 SWAP1 PUSH2 0x4F7 JUMP JUMPDEST PUSH1 0x40 MLOAD DUP1 SWAP2 SUB SWAP1 RETURN JUMPDEST PUSH2 0x9F PUSH1 0x4 DUP1 CALLDATASIZE SUB DUP2 ADD SWAP1 PUSH2 0x9A SWAP2 SWAP1 PUSH2 0x543 JUMP JUMPDEST PUSH2 0x12F JUMP JUMPDEST STOP JUMPDEST PUSH2 0xA9 PUSH2 0x230 JUMP JUMPDEST PUSH1 0x40 MLOAD PUSH2 0xB6 SWAP2 SWAP1 PUSH2 0x4F7 JUMP JUMPDEST PUSH1 0x40 MLOAD DUP1 SWAP2 SUB SWAP1 RETURN JUMPDEST PUSH2 0xD9 PUSH1 0x4 DUP1 CALLDATASIZE SUB DUP2 ADD SWAP1 PUSH2 0xD4 SWAP2 SWAP1 PUSH2 0x543 JUMP JUMPDEST PUSH2 0x236 JUMP JUMPDEST STOP JUMPDEST PUSH2 0xF5 PUSH1 0x4 DUP1 CALLDATASIZE SUB DUP2 ADD SWAP1 PUSH2 0xF0 SWAP2 SWAP1 PUSH2 0x543 JUMP JUMPDEST PUSH2 0x3B8 JUMP JUMPDEST PUSH1 0x40 MLOAD PUSH2 0x104 SWAP4 SWAP3 SWAP2 SWAP1 PUSH2 0x570 JUMP JUMPDEST PUSH1 0x40 MLOAD DUP1 SWAP2 SUB SWAP1 RETURN JUMPDEST PUSH2 0x127 PUSH1 0x4 DUP1 CALLDATASIZE SUB DUP2 ADD SWAP1 PUSH2 0x122 SWAP2 SWAP1 PUSH2 0x5A7 JUMP JUMPDEST PUSH2 0x3E2 JUMP JUMPDEST STOP JUMPDEST PUSH1 0x2 SLOAD DUP2 JUMP JUMPDEST PUSH1 0x0 DUP1 SLOAD SWAP1 PUSH2 0x100 EXP SWAP1 DIV PUSH20 0xFFFFFFFFFFFFFFFFFFFFFFFFFFFFFFFFFFFFFFFF AND PUSH20 0xFFFFFFFFFFFFFFFFFFFFFFFFFFFFFFFFFFFFFFFF AND CALLER PUSH20 0xFFFFFFFFFFFFFFFFFFFFFFFFFFFFFFFFFFFFFFFF AND EQ PUSH2 0x187 JUMPI PUSH1 0x0 DUP1 REVERT JUMPDEST PUSH1 0x3 PUSH1 0x0 DUP3 DUP2 MSTORE PUSH1 0x20 ADD SWAP1 DUP2 MSTORE PUSH1 0x20 ADD PUSH1 0x0 KECCAK256 PUSH1 0x2 ADD SLOAD PUSH1 0x3 PUSH1 0x0 PUSH1 0x3 PUSH1 0x0 DUP6 DUP2 MSTORE PUSH1 0x20 ADD SWAP1 DUP2 MSTORE PUSH1 0x20 ADD PUSH1 0x0 KECCAK256 PUSH1 0x1 ADD SLOAD DUP2 MSTORE PUSH1 0x20 ADD SWAP1 DUP2 MSTORE PUSH1 0x20 ADD PUSH1 0x0 KECCAK256 PUSH1 0x2 ADD DUP2 SWAP1 SSTORE POP PUSH1 0x3 PUSH1 0x0 DUP3 DUP2 MSTORE PUSH1 0x20 ADD SWAP1 DUP2 MSTORE PUSH1 0x20 ADD PUSH1 0x0 KECCAK256 PUSH1 0x1 ADD SLOAD PUSH1 0x3 PUSH1 0x0 PUSH1 0x3 PUSH1 0x0 DUP6 DUP2 MSTORE PUSH1 0x20 ADD SWAP1 DUP2 MSTORE PUSH1 0x20 ADD PUSH1 0x0 KECCAK256 PUSH1 0x2 ADD SLOAD DUP2 MSTORE PUSH1 0x20 ADD SWAP1 DUP2 MSTORE PUSH1 0x20 ADD PUSH1 0x0 KECCAK256 PUSH1 0x1 ADD DUP2 SWAP1 SSTORE POP PUSH1 0x2 PUSH1 0x0 DUP2 SLOAD DUP1 SWAP3 SWAP2 SWAP1 PUSH2 0x228 SWAP1 PUSH2 0x616 JUMP JUMPDEST SWAP2 SWAP1 POP SSTORE POP POP JUMP JUMPDEST PUSH1 0x1 SLOAD DUP2 JUMP JUMPDEST PUSH1 0x0 DUP1 SLOAD SWAP1 PUSH2 0x100 EXP SWAP1 DIV PUSH20 0xFFFFFFFFFFFFFFFFFFFFFFFFFFFFFFFFFFFFFFFF AND PUSH20 0xFFFFFFFFFFFFFFFFFFFFFFFFFFFFFFFFFFFFFFFF AND CALLER PUSH20 0xFFFFFFFFFFFFFFFFFFFFFFFFFFFFFFFFFFFFFFFF AND EQ PUSH2 0x28E JUMPI PUSH1 0x0 DUP1 REVERT JUMPDEST PUSH1 0x0 PUSH1 0x3 PUSH1 0x0 DUP4 DUP2 MSTORE PUSH1 0x20 ADD SWAP1 DUP2 MSTORE PUSH1 0x20 ADD PUSH1 0x0 KECCAK256 PUSH1 0x40 MLOAD DUP1 PUSH1 0x60 ADD PUSH1 0x40 MSTORE SWAP1 DUP2 PUSH1 0x0 DUP3 ADD SLOAD DUP2 MSTORE PUSH1 0x20 ADD PUSH1 0x1 DUP3 ADD SLOAD DUP2 MSTORE PUSH1 0x20 ADD PUSH1 0x2 DUP3 ADD SLOAD DUP2 MSTORE POP POP SWAP1 POP PUSH1 0x3 PUSH1 0x0 PUSH1 0x1 SLOAD DUP2 MSTORE PUSH1 0x20 ADD SWAP1 DUP2 MSTORE PUSH1 0x20 ADD PUSH1 0x0 KECCAK256 PUSH1 0x2 ADD SLOAD PUSH1 0x3 PUSH1 0x0 DUP5 DUP2 MSTORE PUSH1 0x20 ADD SWAP1 DUP2 MSTORE PUSH1 0x20 ADD PUSH1 0x0 KECCAK256 PUSH1 0x2 ADD DUP2 SWAP1 SSTORE POP PUSH1 0x1 SLOAD PUSH1 0x3 PUSH1 0x0 DUP5 DUP2 MSTORE PUSH1 0x20 ADD SWAP1 DUP2 MSTORE PUSH1 0x20 ADD PUSH1 0x0 KECCAK256 PUSH1 0x1 ADD DUP2 SWAP1 SSTORE POP DUP2 PUSH1 0x3 PUSH1 0x0 PUSH1 0x3 PUSH1 0x0 PUSH1 0x1 SLOAD DUP2 MSTORE PUSH1 0x20 ADD SWAP1 DUP2 MSTORE PUSH1 0x20 ADD PUSH1 0x0 KECCAK256 PUSH1 0x2 ADD SLOAD DUP2 MSTORE PUSH1 0x20 ADD SWAP1 DUP2 MSTORE PUSH1 0x20 ADD PUSH1 0x0 KECCAK256 PUSH1 0x1 ADD DUP2 SWAP1 SSTORE POP DUP2 PUSH1 0x3 PUSH1 0x0 PUSH1 0x1 SLOAD DUP2 MSTORE PUSH1 0x20 ADD SWAP1 DUP2 MSTORE PUSH1 0x20 ADD PUSH1 0x0 KECCAK256 PUSH1 0x2 ADD DUP2 SWAP1 SSTORE POP DUP1 PUSH1 0x20 ADD MLOAD PUSH1 0x3 PUSH1 0x0 DUP4 PUSH1 0x40 ADD MLOAD DUP2 MSTORE PUSH1 0x20 ADD SWAP1 DUP2 MSTORE PUSH1 0x20 ADD PUSH1 0x0 KECCAK256 PUSH1 0x1 ADD DUP2 SWAP1 SSTORE POP DUP1 PUSH1 0x40 ADD MLOAD PUSH1 0x3 PUSH1 0x0 DUP4 PUSH1 0x20 ADD MLOAD DUP2 MSTORE PUSH1 0x20 ADD SWAP1 DUP2 MSTORE PUSH1 0x20 ADD PUSH1 0x0 KECCAK256 PUSH1 0x2 ADD DUP2 SWAP1 SSTORE POP POP POP JUMP JUMPDEST PUSH1 0x3 PUSH1 0x20 MSTORE DUP1 PUSH1 0x0 MSTORE PUSH1 0x40 PUSH1 0x0 KECCAK256 PUSH1 0x0 SWAP2 POP SWAP1 POP DUP1 PUSH1 0x0 ADD SLOAD SWAP1 DUP1 PUSH1 0x1 ADD SLOAD SWAP1 DUP1 PUSH1 0x2 ADD SLOAD SWAP1 POP DUP4 JUMP JUMPDEST PUSH1 0x0 DUP1 SLOAD SWAP1 PUSH2 0x100 EXP SWAP1 DIV PUSH20 0xFFFFFFFFFFFFFFFFFFFFFFFFFFFFFFFFFFFFFFFF AND PUSH20 0xFFFFFFFFFFFFFFFFFFFFFFFFFFFFFFFFFFFFFFFF AND CALLER PUSH20 0xFFFFFFFFFFFFFFFFFFFFFFFFFFFFFFFFFFFFFFFF AND EQ PUSH2 0x43A JUMPI PUSH1 0x0 DUP1 REVERT JUMPDEST PUSH1 0x0 PUSH1 0x3 PUSH1 0x0 DUP4 DUP2 MSTORE PUSH1 0x20 ADD SWAP1 DUP2 MSTORE PUSH1 0x20 ADD PUSH1 0x0 KECCAK256 PUSH1 0x2 ADD SLOAD SWAP1 POP DUP3 PUSH1 0x3 PUSH1 0x0 DUP5 DUP2 MSTORE PUSH1 0x20 ADD SWAP1 DUP2 MSTORE PUSH1 0x20 ADD PUSH1 0x0 KECCAK256 PUSH1 0x2 ADD DUP2 SWAP1 SSTORE POP DUP1 PUSH1 0x3 PUSH1 0x0 DUP6 DUP2 MSTORE PUSH1 0x20 ADD SWAP1 DUP2 MSTORE PUSH1 0x20 ADD PUSH1 0x0 KECCAK256 PUSH1 0x2 ADD DUP2 SWAP1 SSTORE POP DUP3 PUSH1 0x3 PUSH1 0x0 DUP4 DUP2 MSTORE PUSH1 0x20 ADD SWAP1 DUP2 MSTORE PUSH1 0x20 ADD PUSH1 0x0 KECCAK256 PUSH1 0x1 ADD DUP2 SWAP1 SSTORE POP DUP3 PUSH1 0x3 PUSH1 0x0 DUP6 DUP2 MSTORE PUSH1 0x20 ADD SWAP1 DUP2 MSTORE PUSH1 0x20 ADD PUSH1 0x0 KECCAK256 PUSH1 0x0 ADD DUP2 SWAP1 SSTORE POP PUSH1 0x2 PUSH1 0x0 DUP2 SLOAD DUP1 SWAP3 SWAP2 SWAP1 PUSH2 0x4D4 SWAP1 PUSH2 0x63F JUMP JUMPDEST SWAP2 SWAP1 POP SSTORE POP POP POP POP JUMP JUMPDEST PUSH1 0x0 DUP2 SWAP1 POP SWAP2 SWAP1 POP JUMP JUMPDEST PUSH2 0x4F1 DUP2 PUSH2 0x4DE JUMP JUMPDEST DUP3 MSTORE POP POP JUMP JUMPDEST PUSH1 0x0 PUSH1 0x20 DUP3 ADD SWAP1 POP PUSH2 0x50C PUSH1 0x0 DUP4 ADD DUP5 PUSH2 0x4E8 JUMP JUMPDEST SWAP3 SWAP2 POP POP JUMP JUMPDEST PUSH1 0x0 DUP1 REVERT JUMPDEST PUSH2 0x520 DUP2 PUSH2 0x4DE JUMP JUMPDEST DUP2 EQ PUSH2 0x52B JUMPI PUSH1 0x0 DUP1 REVERT JUMPDEST POP JUMP JUMPDEST PUSH1 0x0 DUP2 CALLDATALOAD SWAP1 POP PUSH2 0x53D DUP2 PUSH2 0x517 JUMP JUMPDEST SWAP3 SWAP2 POP POP JUMP JUMPDEST PUSH1 0x0 PUSH1 0x20 DUP3 DUP5 SUB SLT ISZERO PUSH2 0x559 JUMPI PUSH2 0x558 PUSH2 0x512 JUMP JUMPDEST JUMPDEST PUSH1 0x0 PUSH2 0x567 DUP5 DUP3 DUP6 ADD PUSH2 0x52E JUMP JUMPDEST SWAP2 POP POP SWAP3 SWAP2 POP POP JUMP JUMPDEST PUSH1 0x0 PUSH1 0x60 DUP3 ADD SWAP1 POP PUSH2 0x585 PUSH1 0x0 DUP4 ADD DUP7 PUSH2 0x4E8 JUMP JUMPDEST PUSH2 0x592 PUSH1 0x20 DUP4 ADD DUP6 PUSH2 0x4E8 JUMP JUMPDEST PUSH2 0x59F PUSH1 0x40 DUP4 ADD DUP5 PUSH2 0x4E8 JUMP JUMPDEST SWAP5 SWAP4 POP POP POP POP JUMP JUMPDEST PUSH1 0x0 DUP1 PUSH1 0x40 DUP4 DUP6 SUB SLT ISZERO PUSH2 0x5BE JUMPI PUSH2 0x5BD PUSH2 0x512 JUMP JUMPDEST JUMPDEST PUSH1 0x0 PUSH2 0x5CC DUP6 DUP3 DUP7 ADD PUSH2 0x52E JUMP JUMPDEST SWAP3 POP POP PUSH1 0x20 PUSH2 0x5DD DUP6 DUP3 DUP7 ADD PUSH2 0x52E JUMP JUMPDEST SWAP2 POP POP SWAP3 POP SWAP3 SWAP1 POP JUMP JUMPDEST PUSH32 0x4E487B7100000000000000000000000000000000000000000000000000000000 PUSH1 0x0 MSTORE PUSH1 0x11 PUSH1 0x4 MSTORE PUSH1 0x24 PUSH1 0x0 REVERT JUMPDEST PUSH1 0x0 PUSH2 0x621 DUP3 PUSH2 0x4DE JUMP JUMPDEST SWAP2 POP PUSH1 0x0 DUP3 SUB PUSH2 0x634 JUMPI PUSH2 0x633 PUSH2 0x5E7 JUMP JUMPDEST JUMPDEST PUSH1 0x1 DUP3 SUB SWAP1 POP SWAP2 SWAP1 POP JUMP JUMPDEST PUSH1 0x0 PUSH2 0x64A DUP3 PUSH2 0x4DE JUMP JUMPDEST SWAP2 POP PUSH32 0xFFFFFFFFFFFFFFFFFFFFFFFFFFFFFFFFFFFFFFFFFFFFFFFFFFFFFFFFFFFFFFFF DUP3 SUB PUSH2 0x67C JUMPI PUSH2 0x67B PUSH2 0x5E7 JUMP JUMPDEST JUMPDEST PUSH1 0x1 DUP3 ADD SWAP1 POP SWAP2 SWAP1 POP JUMP INVALID LOG2 PUSH5 0x6970667358 0x22 SLT KECCAK256 SLOAD 0xEC PUSH17 0x5844D4D4B5C63409F10BA173A241E858C7 0xAD 0x26 KECCAK256 MSTORE8 0xE2 0xB2 COINBASE 0xCC EXTCODECOPY CALLER PUSH32 0x7B64736F6C634300081200330000000000000000000000000000000000000000 "
				},
				"gasEstimates": {
					"creation": {
						"codeDepositCost": "2416000",
						"executionCost": "infinite",
						"totalCost": "infinite"
					},
					"external": {
						"P2pBuy(uint256)": "infinite",
						"VicDAO()": "2603",
						"calculateHash(address,uint256,bool)": "infinite",
						"createP2DProposal(address,uint256,uint256,bytes32,uint256)": "infinite",
						"createP2PProposal(address,uint256,uint256,uint256)": "infinite",
						"lendingRate(uint256)": "infinite",
						"payAmount(uint256,uint256)": "infinite",
						"payByP2D(uint256)": "infinite",
						"payByP2P(uint256)": "infinite",
						"proposalLinkedList()": "infinite",
						"proposalTable(address,uint256)": "infinite",
						"proposals(uint256)": "infinite",
						"ramdomNumber()": "2474",
						"revokeP2DProposal(uint256)": "infinite",
						"revokeP2PProposal(uint256)": "infinite",
						"setAdministrator(address)": "infinite",
						"setVoteNumber(uint256)": "24757",
						"signer()": "2626",
						"token()": "infinite",
						"vote(uint256,bool,bytes)": "infinite",
						"voteNumber()": "2519"
					},
					"internal": {
						"_pay(struct Proposals.Proposal storage pointer,address)": "infinite"
					}
				},
				"methodIdentifiers": {
					"P2pBuy(uint256)": "e7a1f2de",
					"VicDAO()": "c83a34f6",
					"calculateHash(address,uint256,bool)": "0d4e50ed",
					"createP2DProposal(address,uint256,uint256,bytes32,uint256)": "88d8efcd",
					"createP2PProposal(address,uint256,uint256,uint256)": "eb29c564",
					"lendingRate(uint256)": "bf4f41eb",
					"payAmount(uint256,uint256)": "3164d86f",
					"payByP2D(uint256)": "051dd5a8",
					"payByP2P(uint256)": "e1dac56b",
					"proposalLinkedList()": "d80ee2e9",
					"proposalTable(address,uint256)": "4f172537",
					"proposals(uint256)": "013cf08b",
					"ramdomNumber()": "8d55cfb6",
					"revokeP2DProposal(uint256)": "6c9f2032",
					"revokeP2PProposal(uint256)": "fef01d8f",
					"setAdministrator(address)": "df8089ef",
					"setVoteNumber(uint256)": "6295a466",
					"signer()": "238ac933",
					"token()": "fc0c546a",
					"vote(uint256,bool,bytes)": "7097e18e",
					"voteNumber()": "215b28c5"
				}
			},
			"storageLayout": {
				"storage": [
					{
						"astId": 2246,
						"contract": "contracts/Proposals.sol:Proposals",
						"label": "ramdomNumber",
						"offset": 0,
						"slot": "0",
						"type": "t_bytes32"
					},
					{
						"astId": 2252,
						"contract": "contracts/Proposals.sol:Proposals",
						"label": "token",
						"offset": 0,
						"slot": "1",
						"type": "t_contract(IERC20)91"
					},
					{
						"astId": 2255,
						"contract": "contracts/Proposals.sol:Proposals",
						"label": "proposalLinkedList",
						"offset": 0,
						"slot": "2",
						"type": "t_contract(ProposalLinkedList)2229"
					},
					{
						"astId": 2258,
						"contract": "contracts/Proposals.sol:Proposals",
						"label": "signer",
						"offset": 0,
						"slot": "3",
						"type": "t_address"
					},
					{
						"astId": 2261,
						"contract": "contracts/Proposals.sol:Proposals",
						"label": "voteNumber",
						"offset": 0,
						"slot": "4",
						"type": "t_uint256"
					},
					{
						"astId": 2263,
						"contract": "contracts/Proposals.sol:Proposals",
						"label": "VicDAO",
						"offset": 0,
						"slot": "5",
						"type": "t_address"
					},
					{
						"astId": 2265,
						"contract": "contracts/Proposals.sol:Proposals",
						"label": "administrator",
						"offset": 0,
						"slot": "6",
						"type": "t_address"
					},
					{
						"astId": 2306,
						"contract": "contracts/Proposals.sol:Proposals",
						"label": "proposalTable",
						"offset": 0,
						"slot": "7",
						"type": "t_mapping(t_address,t_mapping(t_uint256,t_uint256))"
					},
					{
						"astId": 2312,
						"contract": "contracts/Proposals.sol:Proposals",
						"label": "isVoted",
						"offset": 0,
						"slot": "8",
						"type": "t_mapping(t_uint256,t_mapping(t_address,t_bool))"
					},
					{
						"astId": 2316,
						"contract": "contracts/Proposals.sol:Proposals",
						"label": "proposals",
						"offset": 0,
						"slot": "9",
						"type": "t_array(t_struct(Proposal)2368_storage)dyn_storage"
					}
				],
				"types": {
					"t_address": {
						"encoding": "inplace",
						"label": "address",
						"numberOfBytes": "20"
					},
					"t_array(t_address)dyn_storage": {
						"base": "t_address",
						"encoding": "dynamic_array",
						"label": "address[]",
						"numberOfBytes": "32"
					},
					"t_array(t_struct(Proposal)2368_storage)dyn_storage": {
						"base": "t_struct(Proposal)2368_storage",
						"encoding": "dynamic_array",
						"label": "struct Proposals.Proposal[]",
						"numberOfBytes": "32"
					},
					"t_bool": {
						"encoding": "inplace",
						"label": "bool",
						"numberOfBytes": "1"
					},
					"t_bytes32": {
						"encoding": "inplace",
						"label": "bytes32",
						"numberOfBytes": "32"
					},
					"t_contract(IERC20)91": {
						"encoding": "inplace",
						"label": "contract IERC20",
						"numberOfBytes": "20"
					},
					"t_contract(ProposalLinkedList)2229": {
						"encoding": "inplace",
						"label": "contract ProposalLinkedList",
						"numberOfBytes": "20"
					},
					"t_enum(ProposalStatus)2338": {
						"encoding": "inplace",
						"label": "enum Proposals.ProposalStatus",
						"numberOfBytes": "1"
					},
					"t_mapping(t_address,t_bool)": {
						"encoding": "mapping",
						"key": "t_address",
						"label": "mapping(address => bool)",
						"numberOfBytes": "32",
						"value": "t_bool"
					},
					"t_mapping(t_address,t_mapping(t_uint256,t_uint256))": {
						"encoding": "mapping",
						"key": "t_address",
						"label": "mapping(address => mapping(uint256 => uint256))",
						"numberOfBytes": "32",
						"value": "t_mapping(t_uint256,t_uint256)"
					},
					"t_mapping(t_uint256,t_mapping(t_address,t_bool))": {
						"encoding": "mapping",
						"key": "t_uint256",
						"label": "mapping(uint256 => mapping(address => bool))",
						"numberOfBytes": "32",
						"value": "t_mapping(t_address,t_bool)"
					},
					"t_mapping(t_uint256,t_uint256)": {
						"encoding": "mapping",
						"key": "t_uint256",
						"label": "mapping(uint256 => uint256)",
						"numberOfBytes": "32",
						"value": "t_uint256"
					},
					"t_struct(Proposal)2368_storage": {
						"encoding": "inplace",
						"label": "struct Proposals.Proposal",
						"members": [
							{
								"astId": 2340,
								"contract": "contracts/Proposals.sol:Proposals",
								"label": "blockNumber",
								"offset": 0,
								"slot": "0",
								"type": "t_uint256"
							},
							{
								"astId": 2342,
								"contract": "contracts/Proposals.sol:Proposals",
								"label": "nftAddress",
								"offset": 0,
								"slot": "1",
								"type": "t_address"
							},
							{
								"astId": 2344,
								"contract": "contracts/Proposals.sol:Proposals",
								"label": "tokenId",
								"offset": 0,
								"slot": "2",
								"type": "t_uint256"
							},
							{
								"astId": 2346,
								"contract": "contracts/Proposals.sol:Proposals",
								"label": "borrower",
								"offset": 0,
								"slot": "3",
								"type": "t_address"
							},
							{
								"astId": 2348,
								"contract": "contracts/Proposals.sol:Proposals",
								"label": "createTime",
								"offset": 0,
								"slot": "4",
								"type": "t_uint256"
							},
							{
								"astId": 2350,
								"contract": "contracts/Proposals.sol:Proposals",
								"label": "price",
								"offset": 0,
								"slot": "5",
								"type": "t_uint256"
							},
							{
								"astId": 2352,
								"contract": "contracts/Proposals.sol:Proposals",
								"label": "loanTime",
								"offset": 0,
								"slot": "6",
								"type": "t_uint256"
							},
							{
								"astId": 2355,
								"contract": "contracts/Proposals.sol:Proposals",
								"label": "status",
								"offset": 0,
								"slot": "7",
								"type": "t_enum(ProposalStatus)2338"
							},
							{
								"astId": 2357,
								"contract": "contracts/Proposals.sol:Proposals",
								"label": "lender",
								"offset": 1,
								"slot": "7",
								"type": "t_address"
							},
							{
								"astId": 2359,
								"contract": "contracts/Proposals.sol:Proposals",
								"label": "currRandomNumber",
								"offset": 0,
								"slot": "8",
								"type": "t_bytes32"
							},
							{
								"astId": 2361,
								"contract": "contracts/Proposals.sol:Proposals",
								"label": "borrowTime",
								"offset": 0,
								"slot": "9",
								"type": "t_uint256"
							},
							{
								"astId": 2364,
								"contract": "contracts/Proposals.sol:Proposals",
								"label": "agreers",
								"offset": 0,
								"slot": "10",
								"type": "t_array(t_address)dyn_storage"
							},
							{
								"astId": 2367,
								"contract": "contracts/Proposals.sol:Proposals",
								"label": "rejectors",
								"offset": 0,
								"slot": "11",
								"type": "t_array(t_address)dyn_storage"
							}
						],
						"numberOfBytes": "384"
					},
					"t_uint256": {
						"encoding": "inplace",
						"label": "uint256",
						"numberOfBytes": "32"
					}
				}
			},
			"userdoc": {
				"kind": "user",
				"methods": {},
				"version": 1
			}
		}
	}
}