{
	"vinci-protocol/contracts/PtoPOrders.sol": {
		"PtoP": {
			"abi": [
				{
					"inputs": [
						{
							"internalType": "address",
							"name": "_token",
							"type": "address"
						},
						{
							"internalType": "address",
							"name": "_administrator",
							"type": "address"
						}
					],
					"stateMutability": "nonpayable",
					"type": "constructor"
				},
				{
					"inputs": [
						{
							"internalType": "address",
							"name": "_nftAddress",
							"type": "address"
						},
						{
							"internalType": "uint256",
							"name": "_tokenId",
							"type": "uint256"
						},
						{
							"internalType": "uint256",
							"name": "index",
							"type": "uint256"
						}
					],
					"name": "borrow",
					"outputs": [],
					"stateMutability": "nonpayable",
					"type": "function"
				},
				{
					"inputs": [
						{
							"internalType": "address",
							"name": "_nftAddress",
							"type": "address"
						},
						{
							"internalType": "uint256",
							"name": "_tokenId",
							"type": "uint256"
						},
						{
							"internalType": "uint256",
							"name": "_amount",
							"type": "uint256"
						},
						{
							"internalType": "uint256",
							"name": "_price",
							"type": "uint256"
						},
						{
							"internalType": "uint256",
							"name": "_loanTime",
							"type": "uint256"
						}
					],
					"name": "createP2POrder",
					"outputs": [],
					"stateMutability": "nonpayable",
					"type": "function"
				},
				{
					"inputs": [
						{
							"internalType": "address",
							"name": "_nftAddress",
							"type": "address"
						},
						{
							"internalType": "uint256",
							"name": "_tokenId",
							"type": "uint256"
						}
					],
					"name": "getIndexByNftAddressAndId",
					"outputs": [
						{
							"internalType": "uint256",
							"name": "index",
							"type": "uint256"
						}
					],
					"stateMutability": "view",
					"type": "function"
				},
				{
					"inputs": [
						{
							"internalType": "uint256",
							"name": "index",
							"type": "uint256"
						}
					],
					"name": "getNftAddressByIndex",
					"outputs": [
						{
							"internalType": "address",
							"name": "NftAddress",
							"type": "address"
						}
					],
					"stateMutability": "view",
					"type": "function"
				},
				{
					"inputs": [
						{
							"internalType": "uint256",
							"name": "current",
							"type": "uint256"
						},
						{
							"internalType": "uint256",
							"name": "number",
							"type": "uint256"
						}
					],
					"name": "getNodes",
					"outputs": [
						{
							"components": [
								{
									"internalType": "uint256",
									"name": "blockNumber",
									"type": "uint256"
								},
								{
									"internalType": "address",
									"name": "borrower",
									"type": "address"
								},
								{
									"internalType": "uint256",
									"name": "price",
									"type": "uint256"
								},
								{
									"internalType": "uint256",
									"name": "loanTime",
									"type": "uint256"
								},
								{
									"internalType": "uint256",
									"name": "borrowTime",
									"type": "uint256"
								},
								{
									"internalType": "address",
									"name": "lender",
									"type": "address"
								},
								{
									"components": [
										{
											"internalType": "address",
											"name": "nftAddress",
											"type": "address"
										},
										{
											"internalType": "uint256",
											"name": "tokenId",
											"type": "uint256"
										},
										{
											"internalType": "enum PtoP.NftType",
											"name": "nftType",
											"type": "uint8"
										},
										{
											"internalType": "uint256",
											"name": "amount",
											"type": "uint256"
										}
									],
									"internalType": "struct PtoP.NFT",
									"name": "nft",
									"type": "tuple"
								},
								{
									"internalType": "enum PtoP.States",
									"name": "state",
									"type": "uint8"
								}
							],
							"internalType": "struct PtoP.Order[]",
							"name": "",
							"type": "tuple[]"
						}
					],
					"stateMutability": "view",
					"type": "function"
				},
				{
					"inputs": [
						{
							"internalType": "uint256",
							"name": "index",
							"type": "uint256"
						}
					],
					"name": "getTokenIdByIndex",
					"outputs": [
						{
							"internalType": "uint256",
							"name": "tokenId",
							"type": "uint256"
						}
					],
					"stateMutability": "view",
					"type": "function"
				},
				{
					"inputs": [
						{
							"internalType": "address",
							"name": "nftAddress",
							"type": "address"
						}
					],
					"name": "identifyNFT",
					"outputs": [
						{
							"internalType": "enum PtoP.NftType",
							"name": "",
							"type": "uint8"
						}
					],
					"stateMutability": "view",
					"type": "function"
				},
				{
					"inputs": [
						{
							"internalType": "address",
							"name": "_nftAddress",
							"type": "address"
						},
						{
							"internalType": "uint256",
							"name": "_tokenId",
							"type": "uint256"
						}
					],
					"name": "lend",
					"outputs": [],
					"stateMutability": "nonpayable",
					"type": "function"
				},
				{
					"inputs": [
						{
							"internalType": "address",
							"name": "_nftAddress",
							"type": "address"
						},
						{
							"internalType": "uint256",
							"name": "_tokenId",
							"type": "uint256"
						},
						{
							"internalType": "uint256",
							"name": "index",
							"type": "uint256"
						}
					],
					"name": "revokeOrder",
					"outputs": [],
					"stateMutability": "nonpayable",
					"type": "function"
				},
				{
					"inputs": [
						{
							"internalType": "address",
							"name": "_address",
							"type": "address"
						}
					],
					"name": "setAdministrator",
					"outputs": [
						{
							"internalType": "address",
							"name": "",
							"type": "address"
						}
					],
					"stateMutability": "nonpayable",
					"type": "function"
				},
				{
					"inputs": [],
					"name": "setBorrowPricePercentage",
					"outputs": [],
					"stateMutability": "nonpayable",
					"type": "function"
				},
				{
					"inputs": [
						{
							"internalType": "address",
							"name": "_nftAddress",
							"type": "address"
						},
						{
							"internalType": "uint256",
							"name": "_tokenId",
							"type": "uint256"
						}
					],
					"name": "timeOut",
					"outputs": [],
					"stateMutability": "nonpayable",
					"type": "function"
				},
				{
					"inputs": [],
					"name": "token",
					"outputs": [
						{
							"internalType": "contract IERC20",
							"name": "",
							"type": "address"
						}
					],
					"stateMutability": "view",
					"type": "function"
				}
			],
			"devdoc": {
				"kind": "dev",
				"methods": {},
				"version": 1
			},
			"evm": {
				"assembly": "    /* \"vinci-protocol/contracts/PtoPOrders.sol\":425:8109  contract PtoP{... */\n  mstore(0x40, 0x80)\n    /* \"vinci-protocol/contracts/PtoPOrders.sol\":858:859  0 */\n  0x00\n    /* \"vinci-protocol/contracts/PtoPOrders.sol\":844:859  uint length = 0 */\n  0x04\n  sstore\n    /* \"vinci-protocol/contracts/PtoPOrders.sol\":509:641  constructor(address _token,address _administrator){... */\n  callvalue\n  dup1\n  iszero\n  tag_1\n  jumpi\n  0x00\n  dup1\n  revert\ntag_1:\n  pop\n  mload(0x40)\n  sub(codesize, bytecodeSize)\n  dup1\n  bytecodeSize\n  dup4\n  codecopy\n  dup2\n  dup2\n  add\n  0x40\n  mstore\n  dup2\n  add\n  swap1\n  tag_2\n  swap2\n  swap1\n  tag_3\n  jump\t// in\ntag_2:\n    /* \"vinci-protocol/contracts/PtoPOrders.sol\":585:591  _token */\n  dup2\n    /* \"vinci-protocol/contracts/PtoPOrders.sol\":570:575  token */\n  0x00\n  dup1\n    /* \"vinci-protocol/contracts/PtoPOrders.sol\":570:592  token = IERC20(_token) */\n  0x0100\n  exp\n  dup2\n  sload\n  dup2\n  0xffffffffffffffffffffffffffffffffffffffff\n  mul\n  not\n  and\n  swap1\n  dup4\n  0xffffffffffffffffffffffffffffffffffffffff\n  and\n  mul\n  or\n  swap1\n  sstore\n  pop\n    /* \"vinci-protocol/contracts/PtoPOrders.sol\":619:633  _administrator */\n  dup1\n    /* \"vinci-protocol/contracts/PtoPOrders.sol\":603:616  administrator */\n  0x01\n  0x00\n    /* \"vinci-protocol/contracts/PtoPOrders.sol\":603:633  administrator = _administrator */\n  0x0100\n  exp\n  dup2\n  sload\n  dup2\n  0xffffffffffffffffffffffffffffffffffffffff\n  mul\n  not\n  and\n  swap1\n  dup4\n  0xffffffffffffffffffffffffffffffffffffffff\n  and\n  mul\n  or\n  swap1\n  sstore\n  pop\n    /* \"vinci-protocol/contracts/PtoPOrders.sol\":509:641  constructor(address _token,address _administrator){... */\n  pop\n  pop\n    /* \"vinci-protocol/contracts/PtoPOrders.sol\":425:8109  contract PtoP{... */\n  jump(tag_6)\n    /* \"#utility.yul\":88:205   */\ntag_8:\n    /* \"#utility.yul\":197:198   */\n  0x00\n    /* \"#utility.yul\":194:195   */\n  dup1\n    /* \"#utility.yul\":187:199   */\n  revert\n    /* \"#utility.yul\":334:460   */\ntag_10:\n    /* \"#utility.yul\":371:378   */\n  0x00\n    /* \"#utility.yul\":411:453   */\n  0xffffffffffffffffffffffffffffffffffffffff\n    /* \"#utility.yul\":404:409   */\n  dup3\n    /* \"#utility.yul\":400:454   */\n  and\n    /* \"#utility.yul\":389:454   */\n  swap1\n  pop\n    /* \"#utility.yul\":334:460   */\n  swap2\n  swap1\n  pop\n  jump\t// out\n    /* \"#utility.yul\":466:562   */\ntag_11:\n    /* \"#utility.yul\":503:510   */\n  0x00\n    /* \"#utility.yul\":532:556   */\n  tag_20\n    /* \"#utility.yul\":550:555   */\n  dup3\n    /* \"#utility.yul\":532:556   */\n  tag_10\n  jump\t// in\ntag_20:\n    /* \"#utility.yul\":521:556   */\n  swap1\n  pop\n    /* \"#utility.yul\":466:562   */\n  swap2\n  swap1\n  pop\n  jump\t// out\n    /* \"#utility.yul\":568:690   */\ntag_12:\n    /* \"#utility.yul\":641:665   */\n  tag_22\n    /* \"#utility.yul\":659:664   */\n  dup2\n    /* \"#utility.yul\":641:665   */\n  tag_11\n  jump\t// in\ntag_22:\n    /* \"#utility.yul\":634:639   */\n  dup2\n    /* \"#utility.yul\":631:666   */\n  eq\n    /* \"#utility.yul\":621:684   */\n  tag_23\n  jumpi\n    /* \"#utility.yul\":680:681   */\n  0x00\n    /* \"#utility.yul\":677:678   */\n  dup1\n    /* \"#utility.yul\":670:682   */\n  revert\n    /* \"#utility.yul\":621:684   */\ntag_23:\n    /* \"#utility.yul\":568:690   */\n  pop\n  jump\t// out\n    /* \"#utility.yul\":696:839   */\ntag_13:\n    /* \"#utility.yul\":753:758   */\n  0x00\n    /* \"#utility.yul\":784:790   */\n  dup2\n    /* \"#utility.yul\":778:791   */\n  mload\n    /* \"#utility.yul\":769:791   */\n  swap1\n  pop\n    /* \"#utility.yul\":800:833   */\n  tag_25\n    /* \"#utility.yul\":827:832   */\n  dup2\n    /* \"#utility.yul\":800:833   */\n  tag_12\n  jump\t// in\ntag_25:\n    /* \"#utility.yul\":696:839   */\n  swap3\n  swap2\n  pop\n  pop\n  jump\t// out\n    /* \"#utility.yul\":845:1352   */\ntag_3:\n    /* \"#utility.yul\":924:930   */\n  0x00\n    /* \"#utility.yul\":932:938   */\n  dup1\n    /* \"#utility.yul\":981:983   */\n  0x40\n    /* \"#utility.yul\":969:978   */\n  dup4\n    /* \"#utility.yul\":960:967   */\n  dup6\n    /* \"#utility.yul\":956:979   */\n  sub\n    /* \"#utility.yul\":952:984   */\n  slt\n    /* \"#utility.yul\":949:1068   */\n  iszero\n  tag_27\n  jumpi\n    /* \"#utility.yul\":987:1066   */\n  tag_28\n  tag_8\n  jump\t// in\ntag_28:\n    /* \"#utility.yul\":949:1068   */\ntag_27:\n    /* \"#utility.yul\":1107:1108   */\n  0x00\n    /* \"#utility.yul\":1132:1196   */\n  tag_29\n    /* \"#utility.yul\":1188:1195   */\n  dup6\n    /* \"#utility.yul\":1179:1185   */\n  dup3\n    /* \"#utility.yul\":1168:1177   */\n  dup7\n    /* \"#utility.yul\":1164:1186   */\n  add\n    /* \"#utility.yul\":1132:1196   */\n  tag_13\n  jump\t// in\ntag_29:\n    /* \"#utility.yul\":1122:1196   */\n  swap3\n  pop\n    /* \"#utility.yul\":1078:1206   */\n  pop\n    /* \"#utility.yul\":1245:1247   */\n  0x20\n    /* \"#utility.yul\":1271:1335   */\n  tag_30\n    /* \"#utility.yul\":1327:1334   */\n  dup6\n    /* \"#utility.yul\":1318:1324   */\n  dup3\n    /* \"#utility.yul\":1307:1316   */\n  dup7\n    /* \"#utility.yul\":1303:1325   */\n  add\n    /* \"#utility.yul\":1271:1335   */\n  tag_13\n  jump\t// in\ntag_30:\n    /* \"#utility.yul\":1261:1335   */\n  swap2\n  pop\n    /* \"#utility.yul\":1216:1345   */\n  pop\n    /* \"#utility.yul\":845:1352   */\n  swap3\n  pop\n  swap3\n  swap1\n  pop\n  jump\t// out\n    /* \"vinci-protocol/contracts/PtoPOrders.sol\":425:8109  contract PtoP{... */\ntag_6:\n  dataSize(sub_0)\n  dup1\n  dataOffset(sub_0)\n  0x00\n  codecopy\n  0x00\n  return\nstop\n\nsub_0: assembly {\n        /* \"vinci-protocol/contracts/PtoPOrders.sol\":425:8109  contract PtoP{... */\n      mstore(0x40, 0x80)\n      callvalue\n      dup1\n      iszero\n      tag_1\n      jumpi\n      0x00\n      dup1\n      revert\n    tag_1:\n      pop\n      jumpi(tag_2, lt(calldatasize, 0x04))\n      shr(0xe0, calldataload(0x00))\n      dup1\n      0xa2fb342d\n      gt\n      tag_16\n      jumpi\n      dup1\n      0xdf8089ef\n      gt\n      tag_17\n      jumpi\n      dup1\n      0xdf8089ef\n      eq\n      tag_12\n      jumpi\n      dup1\n      0xe6eb8981\n      eq\n      tag_13\n      jumpi\n      dup1\n      0xf85565fb\n      eq\n      tag_14\n      jumpi\n      dup1\n      0xfc0c546a\n      eq\n      tag_15\n      jumpi\n      jump(tag_2)\n    tag_17:\n      dup1\n      0xa2fb342d\n      eq\n      tag_9\n      jumpi\n      dup1\n      0xc1bce0b7\n      eq\n      tag_10\n      jumpi\n      dup1\n      0xccf01b7e\n      eq\n      tag_11\n      jumpi\n      jump(tag_2)\n    tag_16:\n      dup1\n      0x038d67e8\n      eq\n      tag_3\n      jumpi\n      dup1\n      0x49f202ff\n      eq\n      tag_4\n      jumpi\n      dup1\n      0x4f123802\n      eq\n      tag_5\n      jumpi\n      dup1\n      0x50a8f34f\n      eq\n      tag_6\n      jumpi\n      dup1\n      0x55d6e655\n      eq\n      tag_7\n      jumpi\n      dup1\n      0x6fa425fe\n      eq\n      tag_8\n      jumpi\n    tag_2:\n      0x00\n      dup1\n      revert\n        /* \"vinci-protocol/contracts/PtoPOrders.sol\":7614:8106  function getNodes(uint256 current,uint256 number)external view returns(Order[] memory){... */\n    tag_3:\n      tag_18\n      0x04\n      dup1\n      calldatasize\n      sub\n      dup2\n      add\n      swap1\n      tag_19\n      swap2\n      swap1\n      tag_20\n      jump\t// in\n    tag_19:\n      tag_21\n      jump\t// in\n    tag_18:\n      mload(0x40)\n      tag_22\n      swap2\n      swap1\n      tag_23\n      jump\t// in\n    tag_22:\n      mload(0x40)\n      dup1\n      swap2\n      sub\n      swap1\n      return\n        /* \"vinci-protocol/contracts/PtoPOrders.sol\":6141:6267  function getTokenIdByIndex(uint256 index) public view returns(uint256 tokenId){... */\n    tag_4:\n      tag_24\n      0x04\n      dup1\n      calldatasize\n      sub\n      dup2\n      add\n      swap1\n      tag_25\n      swap2\n      swap1\n      tag_26\n      jump\t// in\n    tag_25:\n      tag_27\n      jump\t// in\n    tag_24:\n      mload(0x40)\n      tag_28\n      swap2\n      swap1\n      tag_29\n      jump\t// in\n    tag_28:\n      mload(0x40)\n      dup1\n      swap2\n      sub\n      swap1\n      return\n        /* \"vinci-protocol/contracts/PtoPOrders.sol\":5476:5918  function getIndexByNftAddressAndId(address _nftAddress,uint256 _tokenId) external view returns(uint256 index){... */\n    tag_5:\n      tag_30\n      0x04\n      dup1\n      calldatasize\n      sub\n      dup2\n      add\n      swap1\n      tag_31\n      swap2\n      swap1\n      tag_32\n      jump\t// in\n    tag_31:\n      tag_33\n      jump\t// in\n    tag_30:\n      mload(0x40)\n      tag_34\n      swap2\n      swap1\n      tag_29\n      jump\t// in\n    tag_34:\n      mload(0x40)\n      dup1\n      swap2\n      sub\n      swap1\n      return\n        /* \"vinci-protocol/contracts/PtoPOrders.sol\":1891:2714  function createP2POrder(address _nftAddress,... */\n    tag_6:\n      tag_35\n      0x04\n      dup1\n      calldatasize\n      sub\n      dup2\n      add\n      swap1\n      tag_36\n      swap2\n      swap1\n      tag_37\n      jump\t// in\n    tag_36:\n      tag_38\n      jump\t// in\n    tag_35:\n      stop\n        /* \"vinci-protocol/contracts/PtoPOrders.sol\":2748:3156  function revokeOrder(address _nftAddress,uint256 _tokenId,uint256 index) external{... */\n    tag_7:\n      tag_39\n      0x04\n      dup1\n      calldatasize\n      sub\n      dup2\n      add\n      swap1\n      tag_40\n      swap2\n      swap1\n      tag_41\n      jump\t// in\n    tag_40:\n      tag_42\n      jump\t// in\n    tag_39:\n      stop\n        /* \"vinci-protocol/contracts/PtoPOrders.sol\":5961:6099  function getNftAddressByIndex(uint256 index) public view returns(address NftAddress){... */\n    tag_8:\n      tag_43\n      0x04\n      dup1\n      calldatasize\n      sub\n      dup2\n      add\n      swap1\n      tag_44\n      swap2\n      swap1\n      tag_26\n      jump\t// in\n    tag_44:\n      tag_45\n      jump\t// in\n    tag_43:\n      mload(0x40)\n      tag_46\n      swap2\n      swap1\n      tag_47\n      jump\t// in\n    tag_46:\n      mload(0x40)\n      dup1\n      swap2\n      sub\n      swap1\n      return\n        /* \"vinci-protocol/contracts/PtoPOrders.sol\":3178:3709  function lend(address _nftAddress,uint256 _tokenId) external {... */\n    tag_9:\n      tag_48\n      0x04\n      dup1\n      calldatasize\n      sub\n      dup2\n      add\n      swap1\n      tag_49\n      swap2\n      swap1\n      tag_32\n      jump\t// in\n    tag_49:\n      tag_50\n      jump\t// in\n    tag_48:\n      stop\n        /* \"vinci-protocol/contracts/PtoPOrders.sol\":3731:4578  function borrow(address _nftAddress,uint256 _tokenId,uint256 index) external {... */\n    tag_10:\n      tag_51\n      0x04\n      dup1\n      calldatasize\n      sub\n      dup2\n      add\n      swap1\n      tag_52\n      swap2\n      swap1\n      tag_41\n      jump\t// in\n    tag_52:\n      tag_53\n      jump\t// in\n    tag_51:\n      stop\n        /* \"vinci-protocol/contracts/PtoPOrders.sol\":4753:4826  function setBorrowPricePercentage() external onlyadministrator {... */\n    tag_11:\n      tag_54\n      tag_55\n      jump\t// in\n    tag_54:\n      stop\n        /* \"vinci-protocol/contracts/PtoPOrders.sol\":6275:6411  function setAdministrator(address _address)external onlyadministrator returns(address){... */\n    tag_12:\n      tag_56\n      0x04\n      dup1\n      calldatasize\n      sub\n      dup2\n      add\n      swap1\n      tag_57\n      swap2\n      swap1\n      tag_58\n      jump\t// in\n    tag_57:\n      tag_59\n      jump\t// in\n    tag_56:\n      mload(0x40)\n      tag_60\n      swap2\n      swap1\n      tag_47\n      jump\t// in\n    tag_60:\n      mload(0x40)\n      dup1\n      swap2\n      sub\n      swap1\n      return\n        /* \"vinci-protocol/contracts/PtoPOrders.sol\":4894:5422  function timeOut(address _nftAddress,uint256 _tokenId) external {... */\n    tag_13:\n      tag_61\n      0x04\n      dup1\n      calldatasize\n      sub\n      dup2\n      add\n      swap1\n      tag_62\n      swap2\n      swap1\n      tag_32\n      jump\t// in\n    tag_62:\n      tag_63\n      jump\t// in\n    tag_61:\n      stop\n        /* \"vinci-protocol/contracts/PtoPOrders.sol\":7098:7559  function identifyNFT(address nftAddress) public view returns (NftType) {... */\n    tag_14:\n      tag_64\n      0x04\n      dup1\n      calldatasize\n      sub\n      dup2\n      add\n      swap1\n      tag_65\n      swap2\n      swap1\n      tag_58\n      jump\t// in\n    tag_65:\n      tag_66\n      jump\t// in\n    tag_64:\n      mload(0x40)\n      tag_67\n      swap2\n      swap1\n      tag_68\n      jump\t// in\n    tag_67:\n      mload(0x40)\n      dup1\n      swap2\n      sub\n      swap1\n      return\n        /* \"vinci-protocol/contracts/PtoPOrders.sol\":445:464  IERC20 public token */\n    tag_15:\n      tag_69\n      tag_70\n      jump\t// in\n    tag_69:\n      mload(0x40)\n      tag_71\n      swap2\n      swap1\n      tag_72\n      jump\t// in\n    tag_71:\n      mload(0x40)\n      dup1\n      swap2\n      sub\n      swap1\n      return\n        /* \"vinci-protocol/contracts/PtoPOrders.sol\":7614:8106  function getNodes(uint256 current,uint256 number)external view returns(Order[] memory){... */\n    tag_21:\n        /* \"vinci-protocol/contracts/PtoPOrders.sol\":7685:7699  Order[] memory */\n      0x60\n        /* \"vinci-protocol/contracts/PtoPOrders.sol\":7711:7735  Order[] memory orderList */\n      0x00\n        /* \"vinci-protocol/contracts/PtoPOrders.sol\":7750:7756  number */\n      dup3\n        /* \"vinci-protocol/contracts/PtoPOrders.sol\":7738:7757  new Order[](number) */\n      0xffffffffffffffff\n      dup2\n      gt\n      iszero\n      tag_74\n      jumpi\n      tag_75\n      tag_76\n      jump\t// in\n    tag_75:\n    tag_74:\n      mload(0x40)\n      swap1\n      dup1\n      dup3\n      mstore\n      dup1\n      0x20\n      mul\n      0x20\n      add\n      dup3\n      add\n      0x40\n      mstore\n      dup1\n      iszero\n      tag_77\n      jumpi\n      dup2\n      0x20\n      add\n    tag_78:\n      tag_79\n      tag_80\n      jump\t// in\n    tag_79:\n      dup2\n      mstore\n      0x20\n      add\n      swap1\n      0x01\n      swap1\n      sub\n      swap1\n      dup2\n      tag_78\n      jumpi\n      swap1\n      pop\n    tag_77:\n      pop\n        /* \"vinci-protocol/contracts/PtoPOrders.sol\":7711:7757  Order[] memory orderList = new Order[](number) */\n      swap1\n      pop\n        /* \"vinci-protocol/contracts/PtoPOrders.sol\":7768:7789  Order memory orderGet */\n      tag_81\n      tag_80\n      jump\t// in\n    tag_81:\n        /* \"vinci-protocol/contracts/PtoPOrders.sol\":7804:7810  uint i */\n      0x00\n        /* \"vinci-protocol/contracts/PtoPOrders.sol\":7800:8072  for(uint i ;i <= number ;i++){... */\n    tag_82:\n        /* \"vinci-protocol/contracts/PtoPOrders.sol\":7817:7823  number */\n      dup5\n        /* \"vinci-protocol/contracts/PtoPOrders.sol\":7812:7813  i */\n      dup2\n        /* \"vinci-protocol/contracts/PtoPOrders.sol\":7812:7823  i <= number */\n      gt\n        /* \"vinci-protocol/contracts/PtoPOrders.sol\":7800:8072  for(uint i ;i <= number ;i++){... */\n      tag_83\n      jumpi\n        /* \"vinci-protocol/contracts/PtoPOrders.sol\":7844:7860  address _address */\n      0x00\n        /* \"vinci-protocol/contracts/PtoPOrders.sol\":7863:7867  nfts */\n      0x03\n        /* \"vinci-protocol/contracts/PtoPOrders.sol\":7863:7876  nfts[current] */\n      0x00\n        /* \"vinci-protocol/contracts/PtoPOrders.sol\":7868:7875  current */\n      dup9\n        /* \"vinci-protocol/contracts/PtoPOrders.sol\":7863:7876  nfts[current] */\n      dup2\n      mstore\n      0x20\n      add\n      swap1\n      dup2\n      mstore\n      0x20\n      add\n      0x00\n      keccak256\n        /* \"vinci-protocol/contracts/PtoPOrders.sol\":7863:7887  nfts[current].nftAddress */\n      0x00\n      add\n      0x00\n      swap1\n      sload\n      swap1\n      0x0100\n      exp\n      swap1\n      div\n      0xffffffffffffffffffffffffffffffffffffffff\n      and\n        /* \"vinci-protocol/contracts/PtoPOrders.sol\":7844:7887  address _address = nfts[current].nftAddress */\n      swap1\n      pop\n        /* \"vinci-protocol/contracts/PtoPOrders.sol\":7902:7918  uint256 _tokenId */\n      0x00\n        /* \"vinci-protocol/contracts/PtoPOrders.sol\":7921:7925  nfts */\n      0x03\n        /* \"vinci-protocol/contracts/PtoPOrders.sol\":7921:7934  nfts[current] */\n      0x00\n        /* \"vinci-protocol/contracts/PtoPOrders.sol\":7926:7933  current */\n      dup10\n        /* \"vinci-protocol/contracts/PtoPOrders.sol\":7921:7934  nfts[current] */\n      dup2\n      mstore\n      0x20\n      add\n      swap1\n      dup2\n      mstore\n      0x20\n      add\n      0x00\n      keccak256\n        /* \"vinci-protocol/contracts/PtoPOrders.sol\":7921:7942  nfts[current].tokenId */\n      0x01\n      add\n      sload\n        /* \"vinci-protocol/contracts/PtoPOrders.sol\":7902:7942  uint256 _tokenId = nfts[current].tokenId */\n      swap1\n      pop\n        /* \"vinci-protocol/contracts/PtoPOrders.sol\":7968:7974  orders */\n      0x02\n        /* \"vinci-protocol/contracts/PtoPOrders.sol\":7968:7984  orders[_address] */\n      0x00\n        /* \"vinci-protocol/contracts/PtoPOrders.sol\":7975:7983  _address */\n      dup4\n        /* \"vinci-protocol/contracts/PtoPOrders.sol\":7968:7984  orders[_address] */\n      0xffffffffffffffffffffffffffffffffffffffff\n      and\n      0xffffffffffffffffffffffffffffffffffffffff\n      and\n      dup2\n      mstore\n      0x20\n      add\n      swap1\n      dup2\n      mstore\n      0x20\n      add\n      0x00\n      keccak256\n        /* \"vinci-protocol/contracts/PtoPOrders.sol\":7968:7994  orders[_address][_tokenId] */\n      0x00\n        /* \"vinci-protocol/contracts/PtoPOrders.sol\":7985:7993  _tokenId */\n      dup3\n        /* \"vinci-protocol/contracts/PtoPOrders.sol\":7968:7994  orders[_address][_tokenId] */\n      dup2\n      mstore\n      0x20\n      add\n      swap1\n      dup2\n      mstore\n      0x20\n      add\n      0x00\n      keccak256\n        /* \"vinci-protocol/contracts/PtoPOrders.sol\":7957:7994  orderGet = orders[_address][_tokenId] */\n      mload(0x40)\n      dup1\n      0x0100\n      add\n      0x40\n      mstore\n      swap1\n      dup2\n      0x00\n      dup3\n      add\n      sload\n      dup2\n      mstore\n      0x20\n      add\n      0x01\n      dup3\n      add\n      0x00\n      swap1\n      sload\n      swap1\n      0x0100\n      exp\n      swap1\n      div\n      0xffffffffffffffffffffffffffffffffffffffff\n      and\n      0xffffffffffffffffffffffffffffffffffffffff\n      and\n      0xffffffffffffffffffffffffffffffffffffffff\n      and\n      dup2\n      mstore\n      0x20\n      add\n      0x02\n      dup3\n      add\n      sload\n      dup2\n      mstore\n      0x20\n      add\n      0x03\n      dup3\n      add\n      sload\n      dup2\n      mstore\n      0x20\n      add\n      0x04\n      dup3\n      add\n      sload\n      dup2\n      mstore\n      0x20\n      add\n      0x05\n      dup3\n      add\n      0x00\n      swap1\n      sload\n      swap1\n      0x0100\n      exp\n      swap1\n      div\n      0xffffffffffffffffffffffffffffffffffffffff\n      and\n      0xffffffffffffffffffffffffffffffffffffffff\n      and\n      0xffffffffffffffffffffffffffffffffffffffff\n      and\n      dup2\n      mstore\n      0x20\n      add\n      0x06\n      dup3\n      add\n      mload(0x40)\n      dup1\n      0x80\n      add\n      0x40\n      mstore\n      swap1\n      dup2\n      0x00\n      dup3\n      add\n      0x00\n      swap1\n      sload\n      swap1\n      0x0100\n      exp\n      swap1\n      div\n      0xffffffffffffffffffffffffffffffffffffffff\n      and\n      0xffffffffffffffffffffffffffffffffffffffff\n      and\n      0xffffffffffffffffffffffffffffffffffffffff\n      and\n      dup2\n      mstore\n      0x20\n      add\n      0x01\n      dup3\n      add\n      sload\n      dup2\n      mstore\n      0x20\n      add\n      0x02\n      dup3\n      add\n      0x00\n      swap1\n      sload\n      swap1\n      0x0100\n      exp\n      swap1\n      div\n      0xff\n      and\n      0x02\n      dup2\n      gt\n      iszero\n      tag_85\n      jumpi\n      tag_86\n      tag_87\n      jump\t// in\n    tag_86:\n    tag_85:\n      0x02\n      dup2\n      gt\n      iszero\n      tag_88\n      jumpi\n      tag_89\n      tag_87\n      jump\t// in\n    tag_89:\n    tag_88:\n      dup2\n      mstore\n      0x20\n      add\n      0x03\n      dup3\n      add\n      sload\n      dup2\n      mstore\n      pop\n      pop\n      dup2\n      mstore\n      0x20\n      add\n      0x0a\n      dup3\n      add\n      0x00\n      swap1\n      sload\n      swap1\n      0x0100\n      exp\n      swap1\n      div\n      0xff\n      and\n      0x03\n      dup2\n      gt\n      iszero\n      tag_90\n      jumpi\n      tag_91\n      tag_87\n      jump\t// in\n    tag_91:\n    tag_90:\n      0x03\n      dup2\n      gt\n      iszero\n      tag_92\n      jumpi\n      tag_93\n      tag_87\n      jump\t// in\n    tag_93:\n    tag_92:\n      dup2\n      mstore\n      pop\n      pop\n      swap4\n      pop\n        /* \"vinci-protocol/contracts/PtoPOrders.sol\":8028:8036  orderGet */\n      dup4\n        /* \"vinci-protocol/contracts/PtoPOrders.sol\":8009:8018  orderList */\n      dup6\n        /* \"vinci-protocol/contracts/PtoPOrders.sol\":8023:8024  1 */\n      0x01\n        /* \"vinci-protocol/contracts/PtoPOrders.sol\":8019:8020  i */\n      dup6\n        /* \"vinci-protocol/contracts/PtoPOrders.sol\":8019:8024  i + 1 */\n      tag_94\n      swap2\n      swap1\n      tag_95\n      jump\t// in\n    tag_94:\n        /* \"vinci-protocol/contracts/PtoPOrders.sol\":8009:8025  orderList[i + 1] */\n      dup2\n      mload\n      dup2\n      lt\n      tag_96\n      jumpi\n      tag_97\n      tag_98\n      jump\t// in\n    tag_97:\n    tag_96:\n      0x20\n      mul\n      0x20\n      add\n      add\n        /* \"vinci-protocol/contracts/PtoPOrders.sol\":8009:8036  orderList[i + 1] = orderGet */\n      dup2\n      swap1\n      mstore\n      pop\n        /* \"vinci-protocol/contracts/PtoPOrders.sol\":8051:8060  current++ */\n      dup8\n      dup1\n      tag_99\n      swap1\n      tag_100\n      jump\t// in\n    tag_99:\n      swap9\n      pop\n      pop\n        /* \"vinci-protocol/contracts/PtoPOrders.sol\":7829:8072  {... */\n      pop\n      pop\n        /* \"vinci-protocol/contracts/PtoPOrders.sol\":7825:7828  i++ */\n      dup1\n      dup1\n      tag_101\n      swap1\n      tag_100\n      jump\t// in\n    tag_101:\n      swap2\n      pop\n      pop\n        /* \"vinci-protocol/contracts/PtoPOrders.sol\":7800:8072  for(uint i ;i <= number ;i++){... */\n      jump(tag_82)\n    tag_83:\n      pop\n        /* \"vinci-protocol/contracts/PtoPOrders.sol\":8089:8098  orderList */\n      dup2\n        /* \"vinci-protocol/contracts/PtoPOrders.sol\":8082:8098  return orderList */\n      swap3\n      pop\n      pop\n      pop\n        /* \"vinci-protocol/contracts/PtoPOrders.sol\":7614:8106  function getNodes(uint256 current,uint256 number)external view returns(Order[] memory){... */\n      swap3\n      swap2\n      pop\n      pop\n      jump\t// out\n        /* \"vinci-protocol/contracts/PtoPOrders.sol\":6141:6267  function getTokenIdByIndex(uint256 index) public view returns(uint256 tokenId){... */\n    tag_27:\n        /* \"vinci-protocol/contracts/PtoPOrders.sol\":6203:6218  uint256 tokenId */\n      0x00\n        /* \"vinci-protocol/contracts/PtoPOrders.sol\":6240:6244  nfts */\n      0x03\n        /* \"vinci-protocol/contracts/PtoPOrders.sol\":6240:6251  nfts[index] */\n      0x00\n        /* \"vinci-protocol/contracts/PtoPOrders.sol\":6245:6250  index */\n      dup4\n        /* \"vinci-protocol/contracts/PtoPOrders.sol\":6240:6251  nfts[index] */\n      dup2\n      mstore\n      0x20\n      add\n      swap1\n      dup2\n      mstore\n      0x20\n      add\n      0x00\n      keccak256\n        /* \"vinci-protocol/contracts/PtoPOrders.sol\":6240:6259  nfts[index].tokenId */\n      0x01\n      add\n      sload\n        /* \"vinci-protocol/contracts/PtoPOrders.sol\":6230:6259  tokenId = nfts[index].tokenId */\n      swap1\n      pop\n        /* \"vinci-protocol/contracts/PtoPOrders.sol\":6141:6267  function getTokenIdByIndex(uint256 index) public view returns(uint256 tokenId){... */\n      swap2\n      swap1\n      pop\n      jump\t// out\n        /* \"vinci-protocol/contracts/PtoPOrders.sol\":5476:5918  function getIndexByNftAddressAndId(address _nftAddress,uint256 _tokenId) external view returns(uint256 index){... */\n    tag_33:\n        /* \"vinci-protocol/contracts/PtoPOrders.sol\":5571:5584  uint256 index */\n      0x00\n        /* \"vinci-protocol/contracts/PtoPOrders.sol\":5596:5610  NFT memory nft */\n      tag_104\n      tag_105\n      jump\t// in\n    tag_104:\n        /* \"vinci-protocol/contracts/PtoPOrders.sol\":5621:5642  NFT memory compareNft */\n      0x00\n        /* \"vinci-protocol/contracts/PtoPOrders.sol\":5645:5651  orders */\n      0x02\n        /* \"vinci-protocol/contracts/PtoPOrders.sol\":5645:5664  orders[_nftAddress] */\n      0x00\n        /* \"vinci-protocol/contracts/PtoPOrders.sol\":5652:5663  _nftAddress */\n      dup7\n        /* \"vinci-protocol/contracts/PtoPOrders.sol\":5645:5664  orders[_nftAddress] */\n      0xffffffffffffffffffffffffffffffffffffffff\n      and\n      0xffffffffffffffffffffffffffffffffffffffff\n      and\n      dup2\n      mstore\n      0x20\n      add\n      swap1\n      dup2\n      mstore\n      0x20\n      add\n      0x00\n      keccak256\n        /* \"vinci-protocol/contracts/PtoPOrders.sol\":5645:5674  orders[_nftAddress][_tokenId] */\n      0x00\n        /* \"vinci-protocol/contracts/PtoPOrders.sol\":5665:5673  _tokenId */\n      dup6\n        /* \"vinci-protocol/contracts/PtoPOrders.sol\":5645:5674  orders[_nftAddress][_tokenId] */\n      dup2\n      mstore\n      0x20\n      add\n      swap1\n      dup2\n      mstore\n      0x20\n      add\n      0x00\n      keccak256\n        /* \"vinci-protocol/contracts/PtoPOrders.sol\":5645:5678  orders[_nftAddress][_tokenId].nft */\n      0x06\n      add\n        /* \"vinci-protocol/contracts/PtoPOrders.sol\":5621:5678  NFT memory compareNft = orders[_nftAddress][_tokenId].nft */\n      mload(0x40)\n      dup1\n      0x80\n      add\n      0x40\n      mstore\n      swap1\n      dup2\n      0x00\n      dup3\n      add\n      0x00\n      swap1\n      sload\n      swap1\n      0x0100\n      exp\n      swap1\n      div\n      0xffffffffffffffffffffffffffffffffffffffff\n      and\n      0xffffffffffffffffffffffffffffffffffffffff\n      and\n      0xffffffffffffffffffffffffffffffffffffffff\n      and\n      dup2\n      mstore\n      0x20\n      add\n      0x01\n      dup3\n      add\n      sload\n      dup2\n      mstore\n      0x20\n      add\n      0x02\n      dup3\n      add\n      0x00\n      swap1\n      sload\n      swap1\n      0x0100\n      exp\n      swap1\n      div\n      0xff\n      and\n      0x02\n      dup2\n      gt\n      iszero\n      tag_106\n      jumpi\n      tag_107\n      tag_87\n      jump\t// in\n    tag_107:\n    tag_106:\n      0x02\n      dup2\n      gt\n      iszero\n      tag_108\n      jumpi\n      tag_109\n      tag_87\n      jump\t// in\n    tag_109:\n    tag_108:\n      dup2\n      mstore\n      0x20\n      add\n      0x03\n      dup3\n      add\n      sload\n      dup2\n      mstore\n      pop\n      pop\n      swap1\n      pop\n        /* \"vinci-protocol/contracts/PtoPOrders.sol\":5689:5695  uint i */\n      0x00\n        /* \"vinci-protocol/contracts/PtoPOrders.sol\":5706:5911  for(i = 0; i <= length; i++){... */\n    tag_110:\n        /* \"vinci-protocol/contracts/PtoPOrders.sol\":5722:5728  length */\n      sload(0x04)\n        /* \"vinci-protocol/contracts/PtoPOrders.sol\":5717:5718  i */\n      dup2\n        /* \"vinci-protocol/contracts/PtoPOrders.sol\":5717:5728  i <= length */\n      gt\n        /* \"vinci-protocol/contracts/PtoPOrders.sol\":5706:5911  for(i = 0; i <= length; i++){... */\n      tag_111\n      jumpi\n        /* \"vinci-protocol/contracts/PtoPOrders.sol\":5755:5759  nfts */\n      0x03\n        /* \"vinci-protocol/contracts/PtoPOrders.sol\":5755:5762  nfts[i] */\n      0x00\n        /* \"vinci-protocol/contracts/PtoPOrders.sol\":5760:5761  i */\n      dup3\n        /* \"vinci-protocol/contracts/PtoPOrders.sol\":5755:5762  nfts[i] */\n      dup2\n      mstore\n      0x20\n      add\n      swap1\n      dup2\n      mstore\n      0x20\n      add\n      0x00\n      keccak256\n        /* \"vinci-protocol/contracts/PtoPOrders.sol\":5749:5762  nft = nfts[i] */\n      mload(0x40)\n      dup1\n      0x80\n      add\n      0x40\n      mstore\n      swap1\n      dup2\n      0x00\n      dup3\n      add\n      0x00\n      swap1\n      sload\n      swap1\n      0x0100\n      exp\n      swap1\n      div\n      0xffffffffffffffffffffffffffffffffffffffff\n      and\n      0xffffffffffffffffffffffffffffffffffffffff\n      and\n      0xffffffffffffffffffffffffffffffffffffffff\n      and\n      dup2\n      mstore\n      0x20\n      add\n      0x01\n      dup3\n      add\n      sload\n      dup2\n      mstore\n      0x20\n      add\n      0x02\n      dup3\n      add\n      0x00\n      swap1\n      sload\n      swap1\n      0x0100\n      exp\n      swap1\n      div\n      0xff\n      and\n      0x02\n      dup2\n      gt\n      iszero\n      tag_113\n      jumpi\n      tag_114\n      tag_87\n      jump\t// in\n    tag_114:\n    tag_113:\n      0x02\n      dup2\n      gt\n      iszero\n      tag_115\n      jumpi\n      tag_116\n      tag_87\n      jump\t// in\n    tag_116:\n    tag_115:\n      dup2\n      mstore\n      0x20\n      add\n      0x03\n      dup3\n      add\n      sload\n      dup2\n      mstore\n      pop\n      pop\n      swap3\n      pop\n        /* \"vinci-protocol/contracts/PtoPOrders.sol\":5798:5808  compareNft */\n      dup2\n        /* \"vinci-protocol/contracts/PtoPOrders.sol\":5798:5819  compareNft.nftAddress */\n      0x00\n      add\n      mload\n        /* \"vinci-protocol/contracts/PtoPOrders.sol\":5780:5819  nft.nftAddress == compareNft.nftAddress */\n      0xffffffffffffffffffffffffffffffffffffffff\n      and\n        /* \"vinci-protocol/contracts/PtoPOrders.sol\":5780:5783  nft */\n      dup4\n        /* \"vinci-protocol/contracts/PtoPOrders.sol\":5780:5794  nft.nftAddress */\n      0x00\n      add\n      mload\n        /* \"vinci-protocol/contracts/PtoPOrders.sol\":5780:5819  nft.nftAddress == compareNft.nftAddress */\n      0xffffffffffffffffffffffffffffffffffffffff\n      and\n      eq\n        /* \"vinci-protocol/contracts/PtoPOrders.sol\":5780:5856  nft.nftAddress == compareNft.nftAddress && nft.tokenId == compareNft.tokenId */\n      dup1\n      iszero\n      tag_117\n      jumpi\n      pop\n        /* \"vinci-protocol/contracts/PtoPOrders.sol\":5838:5848  compareNft */\n      dup2\n        /* \"vinci-protocol/contracts/PtoPOrders.sol\":5838:5856  compareNft.tokenId */\n      0x20\n      add\n      mload\n        /* \"vinci-protocol/contracts/PtoPOrders.sol\":5823:5826  nft */\n      dup4\n        /* \"vinci-protocol/contracts/PtoPOrders.sol\":5823:5834  nft.tokenId */\n      0x20\n      add\n      mload\n        /* \"vinci-protocol/contracts/PtoPOrders.sol\":5823:5856  nft.tokenId == compareNft.tokenId */\n      eq\n        /* \"vinci-protocol/contracts/PtoPOrders.sol\":5780:5856  nft.nftAddress == compareNft.nftAddress && nft.tokenId == compareNft.tokenId */\n    tag_117:\n        /* \"vinci-protocol/contracts/PtoPOrders.sol\":5777:5900  if(nft.nftAddress == compareNft.nftAddress && nft.tokenId == compareNft.tokenId){... */\n      iszero\n      tag_118\n      jumpi\n        /* \"vinci-protocol/contracts/PtoPOrders.sol\":5883:5884  i */\n      dup1\n        /* \"vinci-protocol/contracts/PtoPOrders.sol\":5876:5884  return i */\n      swap4\n      pop\n      pop\n      pop\n      pop\n      jump(tag_103)\n        /* \"vinci-protocol/contracts/PtoPOrders.sol\":5777:5900  if(nft.nftAddress == compareNft.nftAddress && nft.tokenId == compareNft.tokenId){... */\n    tag_118:\n        /* \"vinci-protocol/contracts/PtoPOrders.sol\":5730:5733  i++ */\n      dup1\n      dup1\n      tag_119\n      swap1\n      tag_100\n      jump\t// in\n    tag_119:\n      swap2\n      pop\n      pop\n        /* \"vinci-protocol/contracts/PtoPOrders.sol\":5706:5911  for(i = 0; i <= length; i++){... */\n      jump(tag_110)\n    tag_111:\n        /* \"vinci-protocol/contracts/PtoPOrders.sol\":5585:5918  {... */\n      pop\n      pop\n      pop\n        /* \"vinci-protocol/contracts/PtoPOrders.sol\":5476:5918  function getIndexByNftAddressAndId(address _nftAddress,uint256 _tokenId) external view returns(uint256 index){... */\n    tag_103:\n      swap3\n      swap2\n      pop\n      pop\n      jump\t// out\n        /* \"vinci-protocol/contracts/PtoPOrders.sol\":1891:2714  function createP2POrder(address _nftAddress,... */\n    tag_38:\n        /* \"vinci-protocol/contracts/PtoPOrders.sol\":2059:2072  NftType types */\n      0x00\n        /* \"vinci-protocol/contracts/PtoPOrders.sol\":2075:2099  identifyNFT(_nftAddress) */\n      tag_121\n        /* \"vinci-protocol/contracts/PtoPOrders.sol\":2087:2098  _nftAddress */\n      dup7\n        /* \"vinci-protocol/contracts/PtoPOrders.sol\":2075:2086  identifyNFT */\n      tag_66\n        /* \"vinci-protocol/contracts/PtoPOrders.sol\":2075:2099  identifyNFT(_nftAddress) */\n      jump\t// in\n    tag_121:\n        /* \"vinci-protocol/contracts/PtoPOrders.sol\":2059:2099  NftType types = identifyNFT(_nftAddress) */\n      swap1\n      pop\n        /* \"vinci-protocol/contracts/PtoPOrders.sol\":2110:2124  NFT memory nft */\n      0x00\n        /* \"vinci-protocol/contracts/PtoPOrders.sol\":2127:2166  NFT(_nftAddress,_tokenId,types,_amount) */\n      mload(0x40)\n      dup1\n      0x80\n      add\n      0x40\n      mstore\n      dup1\n        /* \"vinci-protocol/contracts/PtoPOrders.sol\":2131:2142  _nftAddress */\n      dup9\n        /* \"vinci-protocol/contracts/PtoPOrders.sol\":2127:2166  NFT(_nftAddress,_tokenId,types,_amount) */\n      0xffffffffffffffffffffffffffffffffffffffff\n      and\n      dup2\n      mstore\n      0x20\n      add\n        /* \"vinci-protocol/contracts/PtoPOrders.sol\":2143:2151  _tokenId */\n      dup8\n        /* \"vinci-protocol/contracts/PtoPOrders.sol\":2127:2166  NFT(_nftAddress,_tokenId,types,_amount) */\n      dup2\n      mstore\n      0x20\n      add\n        /* \"vinci-protocol/contracts/PtoPOrders.sol\":2152:2157  types */\n      dup4\n        /* \"vinci-protocol/contracts/PtoPOrders.sol\":2127:2166  NFT(_nftAddress,_tokenId,types,_amount) */\n      0x02\n      dup2\n      gt\n      iszero\n      tag_122\n      jumpi\n      tag_123\n      tag_87\n      jump\t// in\n    tag_123:\n    tag_122:\n      dup2\n      mstore\n      0x20\n      add\n        /* \"vinci-protocol/contracts/PtoPOrders.sol\":2158:2165  _amount */\n      dup7\n        /* \"vinci-protocol/contracts/PtoPOrders.sol\":2127:2166  NFT(_nftAddress,_tokenId,types,_amount) */\n      dup2\n      mstore\n      pop\n        /* \"vinci-protocol/contracts/PtoPOrders.sol\":2110:2166  NFT memory nft = NFT(_nftAddress,_tokenId,types,_amount) */\n      swap1\n      pop\n        /* \"vinci-protocol/contracts/PtoPOrders.sol\":2177:2195  Order memory order */\n      0x00\n        /* \"vinci-protocol/contracts/PtoPOrders.sol\":2198:2502  Order({... */\n      mload(0x40)\n      dup1\n      0x0100\n      add\n      0x40\n      mstore\n      dup1\n        /* \"vinci-protocol/contracts/PtoPOrders.sol\":2236:2248  block.number */\n      number\n        /* \"vinci-protocol/contracts/PtoPOrders.sol\":2198:2502  Order({... */\n      dup2\n      mstore\n      0x20\n      add\n        /* \"vinci-protocol/contracts/PtoPOrders.sol\":2277:2287  msg.sender */\n      caller\n        /* \"vinci-protocol/contracts/PtoPOrders.sol\":2198:2502  Order({... */\n      0xffffffffffffffffffffffffffffffffffffffff\n      and\n      dup2\n      mstore\n      0x20\n      add\n        /* \"vinci-protocol/contracts/PtoPOrders.sol\":2312:2318  _price */\n      dup7\n        /* \"vinci-protocol/contracts/PtoPOrders.sol\":2198:2502  Order({... */\n      dup2\n      mstore\n      0x20\n      add\n        /* \"vinci-protocol/contracts/PtoPOrders.sol\":2346:2355  _loanTime */\n      dup6\n        /* \"vinci-protocol/contracts/PtoPOrders.sol\":2198:2502  Order({... */\n      dup2\n      mstore\n      0x20\n      add\n        /* \"vinci-protocol/contracts/PtoPOrders.sol\":2386:2387  0 */\n      0x00\n        /* \"vinci-protocol/contracts/PtoPOrders.sol\":2198:2502  Order({... */\n      dup2\n      mstore\n      0x20\n      add\n        /* \"vinci-protocol/contracts/PtoPOrders.sol\":2421:2424  0x0 */\n      0x00\n        /* \"vinci-protocol/contracts/PtoPOrders.sol\":2198:2502  Order({... */\n      0xffffffffffffffffffffffffffffffffffffffff\n      and\n      dup2\n      mstore\n      0x20\n      add\n        /* \"vinci-protocol/contracts/PtoPOrders.sol\":2487:2490  nft */\n      dup4\n        /* \"vinci-protocol/contracts/PtoPOrders.sol\":2198:2502  Order({... */\n      dup2\n      mstore\n      0x20\n      add\n        /* \"vinci-protocol/contracts/PtoPOrders.sol\":2450:2464  States.created */\n      0x00\n        /* \"vinci-protocol/contracts/PtoPOrders.sol\":2198:2502  Order({... */\n      0x03\n      dup2\n      gt\n      iszero\n      tag_124\n      jumpi\n      tag_125\n      tag_87\n      jump\t// in\n    tag_125:\n    tag_124:\n      dup2\n      mstore\n      pop\n        /* \"vinci-protocol/contracts/PtoPOrders.sol\":2177:2502  Order memory order = Order({... */\n      swap1\n      pop\n        /* \"vinci-protocol/contracts/PtoPOrders.sol\":2545:2550  order */\n      dup1\n        /* \"vinci-protocol/contracts/PtoPOrders.sol\":2513:2519  orders */\n      0x02\n        /* \"vinci-protocol/contracts/PtoPOrders.sol\":2513:2532  orders[_nftAddress] */\n      0x00\n        /* \"vinci-protocol/contracts/PtoPOrders.sol\":2520:2531  _nftAddress */\n      dup11\n        /* \"vinci-protocol/contracts/PtoPOrders.sol\":2513:2532  orders[_nftAddress] */\n      0xffffffffffffffffffffffffffffffffffffffff\n      and\n      0xffffffffffffffffffffffffffffffffffffffff\n      and\n      dup2\n      mstore\n      0x20\n      add\n      swap1\n      dup2\n      mstore\n      0x20\n      add\n      0x00\n      keccak256\n        /* \"vinci-protocol/contracts/PtoPOrders.sol\":2513:2542  orders[_nftAddress][_tokenId] */\n      0x00\n        /* \"vinci-protocol/contracts/PtoPOrders.sol\":2533:2541  _tokenId */\n      dup10\n        /* \"vinci-protocol/contracts/PtoPOrders.sol\":2513:2542  orders[_nftAddress][_tokenId] */\n      dup2\n      mstore\n      0x20\n      add\n      swap1\n      dup2\n      mstore\n      0x20\n      add\n      0x00\n      keccak256\n        /* \"vinci-protocol/contracts/PtoPOrders.sol\":2513:2550  orders[_nftAddress][_tokenId] = order */\n      0x00\n      dup3\n      add\n      mload\n      dup2\n      0x00\n      add\n      sstore\n      0x20\n      dup3\n      add\n      mload\n      dup2\n      0x01\n      add\n      exp(0x0100, 0x00)\n      dup2\n      sload\n      dup2\n      0xffffffffffffffffffffffffffffffffffffffff\n      mul\n      not\n      and\n      swap1\n      dup4\n      0xffffffffffffffffffffffffffffffffffffffff\n      and\n      mul\n      or\n      swap1\n      sstore\n      pop\n      0x40\n      dup3\n      add\n      mload\n      dup2\n      0x02\n      add\n      sstore\n      0x60\n      dup3\n      add\n      mload\n      dup2\n      0x03\n      add\n      sstore\n      0x80\n      dup3\n      add\n      mload\n      dup2\n      0x04\n      add\n      sstore\n      0xa0\n      dup3\n      add\n      mload\n      dup2\n      0x05\n      add\n      exp(0x0100, 0x00)\n      dup2\n      sload\n      dup2\n      0xffffffffffffffffffffffffffffffffffffffff\n      mul\n      not\n      and\n      swap1\n      dup4\n      0xffffffffffffffffffffffffffffffffffffffff\n      and\n      mul\n      or\n      swap1\n      sstore\n      pop\n      0xc0\n      dup3\n      add\n      mload\n      dup2\n      0x06\n      add\n      0x00\n      dup3\n      add\n      mload\n      dup2\n      0x00\n      add\n      exp(0x0100, 0x00)\n      dup2\n      sload\n      dup2\n      0xffffffffffffffffffffffffffffffffffffffff\n      mul\n      not\n      and\n      swap1\n      dup4\n      0xffffffffffffffffffffffffffffffffffffffff\n      and\n      mul\n      or\n      swap1\n      sstore\n      pop\n      0x20\n      dup3\n      add\n      mload\n      dup2\n      0x01\n      add\n      sstore\n      0x40\n      dup3\n      add\n      mload\n      dup2\n      0x02\n      add\n      exp(0x0100, 0x00)\n      dup2\n      sload\n      dup2\n      0xff\n      mul\n      not\n      and\n      swap1\n      dup4\n      0x02\n      dup2\n      gt\n      iszero\n      tag_126\n      jumpi\n      tag_127\n      tag_87\n      jump\t// in\n    tag_127:\n    tag_126:\n      mul\n      or\n      swap1\n      sstore\n      pop\n      0x60\n      dup3\n      add\n      mload\n      dup2\n      0x03\n      add\n      sstore\n      pop\n      pop\n      0xe0\n      dup3\n      add\n      mload\n      dup2\n      0x0a\n      add\n      exp(0x0100, 0x00)\n      dup2\n      sload\n      dup2\n      0xff\n      mul\n      not\n      and\n      swap1\n      dup4\n      0x03\n      dup2\n      gt\n      iszero\n      tag_128\n      jumpi\n      tag_129\n      tag_87\n      jump\t// in\n    tag_129:\n    tag_128:\n      mul\n      or\n      swap1\n      sstore\n      pop\n      swap1\n      pop\n      pop\n        /* \"vinci-protocol/contracts/PtoPOrders.sol\":2561:2627  nftTransfer(_nftAddress,_tokenId,msg.sender,address(this),_amount) */\n      tag_130\n        /* \"vinci-protocol/contracts/PtoPOrders.sol\":2573:2584  _nftAddress */\n      dup9\n        /* \"vinci-protocol/contracts/PtoPOrders.sol\":2585:2593  _tokenId */\n      dup9\n        /* \"vinci-protocol/contracts/PtoPOrders.sol\":2594:2604  msg.sender */\n      caller\n        /* \"vinci-protocol/contracts/PtoPOrders.sol\":2613:2617  this */\n      address\n        /* \"vinci-protocol/contracts/PtoPOrders.sol\":2619:2626  _amount */\n      dup11\n        /* \"vinci-protocol/contracts/PtoPOrders.sol\":2561:2572  nftTransfer */\n      tag_131\n        /* \"vinci-protocol/contracts/PtoPOrders.sol\":2561:2627  nftTransfer(_nftAddress,_tokenId,msg.sender,address(this),_amount) */\n      jump\t// in\n    tag_130:\n        /* \"vinci-protocol/contracts/PtoPOrders.sol\":2658:2661  nft */\n      dup2\n        /* \"vinci-protocol/contracts/PtoPOrders.sol\":2638:2642  nfts */\n      0x03\n        /* \"vinci-protocol/contracts/PtoPOrders.sol\":2638:2654  nfts[length + 1] */\n      0x00\n        /* \"vinci-protocol/contracts/PtoPOrders.sol\":2652:2653  1 */\n      0x01\n        /* \"vinci-protocol/contracts/PtoPOrders.sol\":2643:2649  length */\n      sload(0x04)\n        /* \"vinci-protocol/contracts/PtoPOrders.sol\":2643:2653  length + 1 */\n      tag_132\n      swap2\n      swap1\n      tag_95\n      jump\t// in\n    tag_132:\n        /* \"vinci-protocol/contracts/PtoPOrders.sol\":2638:2654  nfts[length + 1] */\n      dup2\n      mstore\n      0x20\n      add\n      swap1\n      dup2\n      mstore\n      0x20\n      add\n      0x00\n      keccak256\n        /* \"vinci-protocol/contracts/PtoPOrders.sol\":2638:2662  nfts[length + 1] = (nft) */\n      0x00\n      dup3\n      add\n      mload\n      dup2\n      0x00\n      add\n      exp(0x0100, 0x00)\n      dup2\n      sload\n      dup2\n      0xffffffffffffffffffffffffffffffffffffffff\n      mul\n      not\n      and\n      swap1\n      dup4\n      0xffffffffffffffffffffffffffffffffffffffff\n      and\n      mul\n      or\n      swap1\n      sstore\n      pop\n      0x20\n      dup3\n      add\n      mload\n      dup2\n      0x01\n      add\n      sstore\n      0x40\n      dup3\n      add\n      mload\n      dup2\n      0x02\n      add\n      exp(0x0100, 0x00)\n      dup2\n      sload\n      dup2\n      0xff\n      mul\n      not\n      and\n      swap1\n      dup4\n      0x02\n      dup2\n      gt\n      iszero\n      tag_133\n      jumpi\n      tag_134\n      tag_87\n      jump\t// in\n    tag_134:\n    tag_133:\n      mul\n      or\n      swap1\n      sstore\n      pop\n      0x60\n      dup3\n      add\n      mload\n      dup2\n      0x03\n      add\n      sstore\n      swap1\n      pop\n      pop\n        /* \"vinci-protocol/contracts/PtoPOrders.sol\":2673:2679  length */\n      0x04\n      0x00\n        /* \"vinci-protocol/contracts/PtoPOrders.sol\":2673:2682  length ++ */\n      dup2\n      sload\n      dup1\n      swap3\n      swap2\n      swap1\n      tag_135\n      swap1\n      tag_100\n      jump\t// in\n    tag_135:\n      swap2\n      swap1\n      pop\n      sstore\n      pop\n        /* \"vinci-protocol/contracts/PtoPOrders.sol\":2048:2714  {... */\n      pop\n      pop\n      pop\n        /* \"vinci-protocol/contracts/PtoPOrders.sol\":1891:2714  function createP2POrder(address _nftAddress,... */\n      pop\n      pop\n      pop\n      pop\n      pop\n      jump\t// out\n        /* \"vinci-protocol/contracts/PtoPOrders.sol\":2748:3156  function revokeOrder(address _nftAddress,uint256 _tokenId,uint256 index) external{... */\n    tag_42:\n        /* \"vinci-protocol/contracts/PtoPOrders.sol\":2862:2868  orders */\n      0x02\n        /* \"vinci-protocol/contracts/PtoPOrders.sol\":2862:2881  orders[_nftAddress] */\n      0x00\n        /* \"vinci-protocol/contracts/PtoPOrders.sol\":2869:2880  _nftAddress */\n      dup5\n        /* \"vinci-protocol/contracts/PtoPOrders.sol\":2862:2881  orders[_nftAddress] */\n      0xffffffffffffffffffffffffffffffffffffffff\n      and\n      0xffffffffffffffffffffffffffffffffffffffff\n      and\n      dup2\n      mstore\n      0x20\n      add\n      swap1\n      dup2\n      mstore\n      0x20\n      add\n      0x00\n      keccak256\n        /* \"vinci-protocol/contracts/PtoPOrders.sol\":2862:2891  orders[_nftAddress][_tokenId] */\n      0x00\n        /* \"vinci-protocol/contracts/PtoPOrders.sol\":2882:2890  _tokenId */\n      dup4\n        /* \"vinci-protocol/contracts/PtoPOrders.sol\":2862:2891  orders[_nftAddress][_tokenId] */\n      dup2\n      mstore\n      0x20\n      add\n      swap1\n      dup2\n      mstore\n      0x20\n      add\n      0x00\n      keccak256\n        /* \"vinci-protocol/contracts/PtoPOrders.sol\":2862:2900  orders[_nftAddress][_tokenId].borrower */\n      0x01\n      add\n      0x00\n      swap1\n      sload\n      swap1\n      0x0100\n      exp\n      swap1\n      div\n      0xffffffffffffffffffffffffffffffffffffffff\n      and\n        /* \"vinci-protocol/contracts/PtoPOrders.sol\":2848:2900  msg.sender == orders[_nftAddress][_tokenId].borrower */\n      0xffffffffffffffffffffffffffffffffffffffff\n      and\n        /* \"vinci-protocol/contracts/PtoPOrders.sol\":2848:2858  msg.sender */\n      caller\n        /* \"vinci-protocol/contracts/PtoPOrders.sol\":2848:2900  msg.sender == orders[_nftAddress][_tokenId].borrower */\n      0xffffffffffffffffffffffffffffffffffffffff\n      and\n      eq\n        /* \"vinci-protocol/contracts/PtoPOrders.sol\":2840:2901  require(msg.sender == orders[_nftAddress][_tokenId].borrower) */\n      tag_137\n      jumpi\n      0x00\n      dup1\n      revert\n    tag_137:\n        /* \"vinci-protocol/contracts/PtoPOrders.sol\":2912:2926  uint256 amount */\n      0x00\n        /* \"vinci-protocol/contracts/PtoPOrders.sol\":2929:2935  orders */\n      0x02\n        /* \"vinci-protocol/contracts/PtoPOrders.sol\":2929:2948  orders[_nftAddress] */\n      0x00\n        /* \"vinci-protocol/contracts/PtoPOrders.sol\":2936:2947  _nftAddress */\n      dup6\n        /* \"vinci-protocol/contracts/PtoPOrders.sol\":2929:2948  orders[_nftAddress] */\n      0xffffffffffffffffffffffffffffffffffffffff\n      and\n      0xffffffffffffffffffffffffffffffffffffffff\n      and\n      dup2\n      mstore\n      0x20\n      add\n      swap1\n      dup2\n      mstore\n      0x20\n      add\n      0x00\n      keccak256\n        /* \"vinci-protocol/contracts/PtoPOrders.sol\":2929:2958  orders[_nftAddress][_tokenId] */\n      0x00\n        /* \"vinci-protocol/contracts/PtoPOrders.sol\":2949:2957  _tokenId */\n      dup5\n        /* \"vinci-protocol/contracts/PtoPOrders.sol\":2929:2958  orders[_nftAddress][_tokenId] */\n      dup2\n      mstore\n      0x20\n      add\n      swap1\n      dup2\n      mstore\n      0x20\n      add\n      0x00\n      keccak256\n        /* \"vinci-protocol/contracts/PtoPOrders.sol\":2929:2962  orders[_nftAddress][_tokenId].nft */\n      0x06\n      add\n        /* \"vinci-protocol/contracts/PtoPOrders.sol\":2929:2969  orders[_nftAddress][_tokenId].nft.amount */\n      0x03\n      add\n      sload\n        /* \"vinci-protocol/contracts/PtoPOrders.sol\":2912:2969  uint256 amount = orders[_nftAddress][_tokenId].nft.amount */\n      swap1\n      pop\n        /* \"vinci-protocol/contracts/PtoPOrders.sol\":2980:3045  nftTransfer(_nftAddress,_tokenId,address(this),msg.sender,amount) */\n      tag_138\n        /* \"vinci-protocol/contracts/PtoPOrders.sol\":2992:3003  _nftAddress */\n      dup5\n        /* \"vinci-protocol/contracts/PtoPOrders.sol\":3004:3012  _tokenId */\n      dup5\n        /* \"vinci-protocol/contracts/PtoPOrders.sol\":3021:3025  this */\n      address\n        /* \"vinci-protocol/contracts/PtoPOrders.sol\":3027:3037  msg.sender */\n      caller\n        /* \"vinci-protocol/contracts/PtoPOrders.sol\":3038:3044  amount */\n      dup6\n        /* \"vinci-protocol/contracts/PtoPOrders.sol\":2980:2991  nftTransfer */\n      tag_131\n        /* \"vinci-protocol/contracts/PtoPOrders.sol\":2980:3045  nftTransfer(_nftAddress,_tokenId,address(this),msg.sender,amount) */\n      jump\t// in\n    tag_138:\n        /* \"vinci-protocol/contracts/PtoPOrders.sol\":3094:3109  States.finished */\n      0x03\n        /* \"vinci-protocol/contracts/PtoPOrders.sol\":3056:3062  orders */\n      0x02\n        /* \"vinci-protocol/contracts/PtoPOrders.sol\":3056:3075  orders[_nftAddress] */\n      0x00\n        /* \"vinci-protocol/contracts/PtoPOrders.sol\":3063:3074  _nftAddress */\n      dup7\n        /* \"vinci-protocol/contracts/PtoPOrders.sol\":3056:3075  orders[_nftAddress] */\n      0xffffffffffffffffffffffffffffffffffffffff\n      and\n      0xffffffffffffffffffffffffffffffffffffffff\n      and\n      dup2\n      mstore\n      0x20\n      add\n      swap1\n      dup2\n      mstore\n      0x20\n      add\n      0x00\n      keccak256\n        /* \"vinci-protocol/contracts/PtoPOrders.sol\":3056:3085  orders[_nftAddress][_tokenId] */\n      0x00\n        /* \"vinci-protocol/contracts/PtoPOrders.sol\":3076:3084  _tokenId */\n      dup6\n        /* \"vinci-protocol/contracts/PtoPOrders.sol\":3056:3085  orders[_nftAddress][_tokenId] */\n      dup2\n      mstore\n      0x20\n      add\n      swap1\n      dup2\n      mstore\n      0x20\n      add\n      0x00\n      keccak256\n        /* \"vinci-protocol/contracts/PtoPOrders.sol\":3056:3091  orders[_nftAddress][_tokenId].state */\n      0x0a\n      add\n      0x00\n        /* \"vinci-protocol/contracts/PtoPOrders.sol\":3056:3109  orders[_nftAddress][_tokenId].state = States.finished */\n      0x0100\n      exp\n      dup2\n      sload\n      dup2\n      0xff\n      mul\n      not\n      and\n      swap1\n      dup4\n      0x03\n      dup2\n      gt\n      iszero\n      tag_139\n      jumpi\n      tag_140\n      tag_87\n      jump\t// in\n    tag_140:\n    tag_139:\n      mul\n      or\n      swap1\n      sstore\n      pop\n        /* \"vinci-protocol/contracts/PtoPOrders.sol\":3134:3138  nfts */\n      0x03\n        /* \"vinci-protocol/contracts/PtoPOrders.sol\":3134:3146  nfts[length] */\n      0x00\n        /* \"vinci-protocol/contracts/PtoPOrders.sol\":3139:3145  length */\n      sload(0x04)\n        /* \"vinci-protocol/contracts/PtoPOrders.sol\":3134:3146  nfts[length] */\n      dup2\n      mstore\n      0x20\n      add\n      swap1\n      dup2\n      mstore\n      0x20\n      add\n      0x00\n      keccak256\n        /* \"vinci-protocol/contracts/PtoPOrders.sol\":3120:3124  nfts */\n      0x03\n        /* \"vinci-protocol/contracts/PtoPOrders.sol\":3120:3131  nfts[index] */\n      0x00\n        /* \"vinci-protocol/contracts/PtoPOrders.sol\":3125:3130  index */\n      dup5\n        /* \"vinci-protocol/contracts/PtoPOrders.sol\":3120:3131  nfts[index] */\n      dup2\n      mstore\n      0x20\n      add\n      swap1\n      dup2\n      mstore\n      0x20\n      add\n      0x00\n      keccak256\n        /* \"vinci-protocol/contracts/PtoPOrders.sol\":3120:3146  nfts[index] = nfts[length] */\n      0x00\n      dup3\n      add\n      0x00\n      swap1\n      sload\n      swap1\n      0x0100\n      exp\n      swap1\n      div\n      0xffffffffffffffffffffffffffffffffffffffff\n      and\n      dup2\n      0x00\n      add\n      exp(0x0100, 0x00)\n      dup2\n      sload\n      dup2\n      0xffffffffffffffffffffffffffffffffffffffff\n      mul\n      not\n      and\n      swap1\n      dup4\n      0xffffffffffffffffffffffffffffffffffffffff\n      and\n      mul\n      or\n      swap1\n      sstore\n      pop\n      0x01\n      dup3\n      add\n      sload\n      dup2\n      0x01\n      add\n      sstore\n      0x02\n      dup3\n      add\n      0x00\n      swap1\n      sload\n      swap1\n      0x0100\n      exp\n      swap1\n      div\n      0xff\n      and\n      dup2\n      0x02\n      add\n      exp(0x0100, 0x00)\n      dup2\n      sload\n      dup2\n      0xff\n      mul\n      not\n      and\n      swap1\n      dup4\n      0x02\n      dup2\n      gt\n      iszero\n      tag_141\n      jumpi\n      tag_142\n      tag_87\n      jump\t// in\n    tag_142:\n    tag_141:\n      mul\n      or\n      swap1\n      sstore\n      pop\n      0x03\n      dup3\n      add\n      sload\n      dup2\n      0x03\n      add\n      sstore\n      swap1\n      pop\n      pop\n        /* \"vinci-protocol/contracts/PtoPOrders.sol\":2829:3156  {... */\n      pop\n        /* \"vinci-protocol/contracts/PtoPOrders.sol\":2748:3156  function revokeOrder(address _nftAddress,uint256 _tokenId,uint256 index) external{... */\n      pop\n      pop\n      pop\n      jump\t// out\n        /* \"vinci-protocol/contracts/PtoPOrders.sol\":5961:6099  function getNftAddressByIndex(uint256 index) public view returns(address NftAddress){... */\n    tag_45:\n        /* \"vinci-protocol/contracts/PtoPOrders.sol\":6026:6044  address NftAddress */\n      0x00\n        /* \"vinci-protocol/contracts/PtoPOrders.sol\":6069:6073  nfts */\n      0x03\n        /* \"vinci-protocol/contracts/PtoPOrders.sol\":6069:6080  nfts[index] */\n      0x00\n        /* \"vinci-protocol/contracts/PtoPOrders.sol\":6074:6079  index */\n      dup4\n        /* \"vinci-protocol/contracts/PtoPOrders.sol\":6069:6080  nfts[index] */\n      dup2\n      mstore\n      0x20\n      add\n      swap1\n      dup2\n      mstore\n      0x20\n      add\n      0x00\n      keccak256\n        /* \"vinci-protocol/contracts/PtoPOrders.sol\":6069:6091  nfts[index].nftAddress */\n      0x00\n      add\n      0x00\n      swap1\n      sload\n      swap1\n      0x0100\n      exp\n      swap1\n      div\n      0xffffffffffffffffffffffffffffffffffffffff\n      and\n        /* \"vinci-protocol/contracts/PtoPOrders.sol\":6056:6091  NftAddress = nfts[index].nftAddress */\n      swap1\n      pop\n        /* \"vinci-protocol/contracts/PtoPOrders.sol\":5961:6099  function getNftAddressByIndex(uint256 index) public view returns(address NftAddress){... */\n      swap2\n      swap1\n      pop\n      jump\t// out\n        /* \"vinci-protocol/contracts/PtoPOrders.sol\":3178:3709  function lend(address _nftAddress,uint256 _tokenId) external {... */\n    tag_50:\n        /* \"vinci-protocol/contracts/PtoPOrders.sol\":3297:3311  States.created */\n      0x00\n        /* \"vinci-protocol/contracts/PtoPOrders.sol\":3258:3311  orders[_nftAddress][_tokenId].state == States.created */\n      0x03\n      dup2\n      gt\n      iszero\n      tag_145\n      jumpi\n      tag_146\n      tag_87\n      jump\t// in\n    tag_146:\n    tag_145:\n        /* \"vinci-protocol/contracts/PtoPOrders.sol\":3258:3264  orders */\n      0x02\n        /* \"vinci-protocol/contracts/PtoPOrders.sol\":3258:3277  orders[_nftAddress] */\n      0x00\n        /* \"vinci-protocol/contracts/PtoPOrders.sol\":3265:3276  _nftAddress */\n      dup5\n        /* \"vinci-protocol/contracts/PtoPOrders.sol\":3258:3277  orders[_nftAddress] */\n      0xffffffffffffffffffffffffffffffffffffffff\n      and\n      0xffffffffffffffffffffffffffffffffffffffff\n      and\n      dup2\n      mstore\n      0x20\n      add\n      swap1\n      dup2\n      mstore\n      0x20\n      add\n      0x00\n      keccak256\n        /* \"vinci-protocol/contracts/PtoPOrders.sol\":3258:3287  orders[_nftAddress][_tokenId] */\n      0x00\n        /* \"vinci-protocol/contracts/PtoPOrders.sol\":3278:3286  _tokenId */\n      dup4\n        /* \"vinci-protocol/contracts/PtoPOrders.sol\":3258:3287  orders[_nftAddress][_tokenId] */\n      dup2\n      mstore\n      0x20\n      add\n      swap1\n      dup2\n      mstore\n      0x20\n      add\n      0x00\n      keccak256\n        /* \"vinci-protocol/contracts/PtoPOrders.sol\":3258:3293  orders[_nftAddress][_tokenId].state */\n      0x0a\n      add\n      0x00\n      swap1\n      sload\n      swap1\n      0x0100\n      exp\n      swap1\n      div\n      0xff\n      and\n        /* \"vinci-protocol/contracts/PtoPOrders.sol\":3258:3311  orders[_nftAddress][_tokenId].state == States.created */\n      0x03\n      dup2\n      gt\n      iszero\n      tag_147\n      jumpi\n      tag_148\n      tag_87\n      jump\t// in\n    tag_148:\n    tag_147:\n      eq\n        /* \"vinci-protocol/contracts/PtoPOrders.sol\":3250:3312  require(orders[_nftAddress][_tokenId].state == States.created) */\n      tag_149\n      jumpi\n      0x00\n      dup1\n      revert\n    tag_149:\n        /* \"vinci-protocol/contracts/PtoPOrders.sol\":3323:3328  token */\n      0x00\n      dup1\n      sload\n      swap1\n      0x0100\n      exp\n      swap1\n      div\n      0xffffffffffffffffffffffffffffffffffffffff\n      and\n        /* \"vinci-protocol/contracts/PtoPOrders.sol\":3323:3341  token.transferFrom */\n      0xffffffffffffffffffffffffffffffffffffffff\n      and\n      0x23b872dd\n        /* \"vinci-protocol/contracts/PtoPOrders.sol\":3356:3362  orders */\n      0x02\n        /* \"vinci-protocol/contracts/PtoPOrders.sol\":3356:3375  orders[_nftAddress] */\n      0x00\n        /* \"vinci-protocol/contracts/PtoPOrders.sol\":3363:3374  _nftAddress */\n      dup6\n        /* \"vinci-protocol/contracts/PtoPOrders.sol\":3356:3375  orders[_nftAddress] */\n      0xffffffffffffffffffffffffffffffffffffffff\n      and\n      0xffffffffffffffffffffffffffffffffffffffff\n      and\n      dup2\n      mstore\n      0x20\n      add\n      swap1\n      dup2\n      mstore\n      0x20\n      add\n      0x00\n      keccak256\n        /* \"vinci-protocol/contracts/PtoPOrders.sol\":3356:3385  orders[_nftAddress][_tokenId] */\n      0x00\n        /* \"vinci-protocol/contracts/PtoPOrders.sol\":3376:3384  _tokenId */\n      dup5\n        /* \"vinci-protocol/contracts/PtoPOrders.sol\":3356:3385  orders[_nftAddress][_tokenId] */\n      dup2\n      mstore\n      0x20\n      add\n      swap1\n      dup2\n      mstore\n      0x20\n      add\n      0x00\n      keccak256\n        /* \"vinci-protocol/contracts/PtoPOrders.sol\":3356:3392  orders[_nftAddress][_tokenId].lender */\n      0x05\n      add\n      0x00\n      swap1\n      sload\n      swap1\n      0x0100\n      exp\n      swap1\n      div\n      0xffffffffffffffffffffffffffffffffffffffff\n      and\n        /* \"vinci-protocol/contracts/PtoPOrders.sol\":3407:3413  orders */\n      0x02\n        /* \"vinci-protocol/contracts/PtoPOrders.sol\":3407:3426  orders[_nftAddress] */\n      0x00\n        /* \"vinci-protocol/contracts/PtoPOrders.sol\":3414:3425  _nftAddress */\n      dup7\n        /* \"vinci-protocol/contracts/PtoPOrders.sol\":3407:3426  orders[_nftAddress] */\n      0xffffffffffffffffffffffffffffffffffffffff\n      and\n      0xffffffffffffffffffffffffffffffffffffffff\n      and\n      dup2\n      mstore\n      0x20\n      add\n      swap1\n      dup2\n      mstore\n      0x20\n      add\n      0x00\n      keccak256\n        /* \"vinci-protocol/contracts/PtoPOrders.sol\":3407:3436  orders[_nftAddress][_tokenId] */\n      0x00\n        /* \"vinci-protocol/contracts/PtoPOrders.sol\":3427:3435  _tokenId */\n      dup6\n        /* \"vinci-protocol/contracts/PtoPOrders.sol\":3407:3436  orders[_nftAddress][_tokenId] */\n      dup2\n      mstore\n      0x20\n      add\n      swap1\n      dup2\n      mstore\n      0x20\n      add\n      0x00\n      keccak256\n        /* \"vinci-protocol/contracts/PtoPOrders.sol\":3407:3445  orders[_nftAddress][_tokenId].borrower */\n      0x01\n      add\n      0x00\n      swap1\n      sload\n      swap1\n      0x0100\n      exp\n      swap1\n      div\n      0xffffffffffffffffffffffffffffffffffffffff\n      and\n        /* \"vinci-protocol/contracts/PtoPOrders.sol\":3460:3466  orders */\n      0x02\n        /* \"vinci-protocol/contracts/PtoPOrders.sol\":3460:3479  orders[_nftAddress] */\n      0x00\n        /* \"vinci-protocol/contracts/PtoPOrders.sol\":3467:3478  _nftAddress */\n      dup8\n        /* \"vinci-protocol/contracts/PtoPOrders.sol\":3460:3479  orders[_nftAddress] */\n      0xffffffffffffffffffffffffffffffffffffffff\n      and\n      0xffffffffffffffffffffffffffffffffffffffff\n      and\n      dup2\n      mstore\n      0x20\n      add\n      swap1\n      dup2\n      mstore\n      0x20\n      add\n      0x00\n      keccak256\n        /* \"vinci-protocol/contracts/PtoPOrders.sol\":3460:3489  orders[_nftAddress][_tokenId] */\n      0x00\n        /* \"vinci-protocol/contracts/PtoPOrders.sol\":3480:3488  _tokenId */\n      dup7\n        /* \"vinci-protocol/contracts/PtoPOrders.sol\":3460:3489  orders[_nftAddress][_tokenId] */\n      dup2\n      mstore\n      0x20\n      add\n      swap1\n      dup2\n      mstore\n      0x20\n      add\n      0x00\n      keccak256\n        /* \"vinci-protocol/contracts/PtoPOrders.sol\":3460:3495  orders[_nftAddress][_tokenId].price */\n      0x02\n      add\n      sload\n        /* \"vinci-protocol/contracts/PtoPOrders.sol\":3323:3506  token.transferFrom(... */\n      mload(0x40)\n      dup5\n      0xffffffff\n      and\n      0xe0\n      shl\n      dup2\n      mstore\n      0x04\n      add\n      tag_150\n      swap4\n      swap3\n      swap2\n      swap1\n      tag_151\n      jump\t// in\n    tag_150:\n      0x20\n      mload(0x40)\n      dup1\n      dup4\n      sub\n      dup2\n      0x00\n      dup8\n      gas\n      call\n      iszero\n      dup1\n      iszero\n      tag_153\n      jumpi\n      returndatasize\n      0x00\n      dup1\n      returndatacopy\n      revert(0x00, returndatasize)\n    tag_153:\n      pop\n      pop\n      pop\n      pop\n      mload(0x40)\n      returndatasize\n      not(0x1f)\n      0x1f\n      dup3\n      add\n      and\n      dup3\n      add\n      dup1\n      0x40\n      mstore\n      pop\n      dup2\n      add\n      swap1\n      tag_154\n      swap2\n      swap1\n      tag_155\n      jump\t// in\n    tag_154:\n      pop\n        /* \"vinci-protocol/contracts/PtoPOrders.sol\":3556:3566  msg.sender */\n      caller\n        /* \"vinci-protocol/contracts/PtoPOrders.sol\":3517:3523  orders */\n      0x02\n        /* \"vinci-protocol/contracts/PtoPOrders.sol\":3517:3536  orders[_nftAddress] */\n      0x00\n        /* \"vinci-protocol/contracts/PtoPOrders.sol\":3524:3535  _nftAddress */\n      dup5\n        /* \"vinci-protocol/contracts/PtoPOrders.sol\":3517:3536  orders[_nftAddress] */\n      0xffffffffffffffffffffffffffffffffffffffff\n      and\n      0xffffffffffffffffffffffffffffffffffffffff\n      and\n      dup2\n      mstore\n      0x20\n      add\n      swap1\n      dup2\n      mstore\n      0x20\n      add\n      0x00\n      keccak256\n        /* \"vinci-protocol/contracts/PtoPOrders.sol\":3517:3546  orders[_nftAddress][_tokenId] */\n      0x00\n        /* \"vinci-protocol/contracts/PtoPOrders.sol\":3537:3545  _tokenId */\n      dup4\n        /* \"vinci-protocol/contracts/PtoPOrders.sol\":3517:3546  orders[_nftAddress][_tokenId] */\n      dup2\n      mstore\n      0x20\n      add\n      swap1\n      dup2\n      mstore\n      0x20\n      add\n      0x00\n      keccak256\n        /* \"vinci-protocol/contracts/PtoPOrders.sol\":3517:3553  orders[_nftAddress][_tokenId].lender */\n      0x05\n      add\n      0x00\n        /* \"vinci-protocol/contracts/PtoPOrders.sol\":3517:3566  orders[_nftAddress][_tokenId].lender = msg.sender */\n      0x0100\n      exp\n      dup2\n      sload\n      dup2\n      0xffffffffffffffffffffffffffffffffffffffff\n      mul\n      not\n      and\n      swap1\n      dup4\n      0xffffffffffffffffffffffffffffffffffffffff\n      and\n      mul\n      or\n      swap1\n      sstore\n      pop\n        /* \"vinci-protocol/contracts/PtoPOrders.sol\":3620:3635  block.timestamp */\n      timestamp\n        /* \"vinci-protocol/contracts/PtoPOrders.sol\":3577:3583  orders */\n      0x02\n        /* \"vinci-protocol/contracts/PtoPOrders.sol\":3577:3596  orders[_nftAddress] */\n      0x00\n        /* \"vinci-protocol/contracts/PtoPOrders.sol\":3584:3595  _nftAddress */\n      dup5\n        /* \"vinci-protocol/contracts/PtoPOrders.sol\":3577:3596  orders[_nftAddress] */\n      0xffffffffffffffffffffffffffffffffffffffff\n      and\n      0xffffffffffffffffffffffffffffffffffffffff\n      and\n      dup2\n      mstore\n      0x20\n      add\n      swap1\n      dup2\n      mstore\n      0x20\n      add\n      0x00\n      keccak256\n        /* \"vinci-protocol/contracts/PtoPOrders.sol\":3577:3606  orders[_nftAddress][_tokenId] */\n      0x00\n        /* \"vinci-protocol/contracts/PtoPOrders.sol\":3597:3605  _tokenId */\n      dup4\n        /* \"vinci-protocol/contracts/PtoPOrders.sol\":3577:3606  orders[_nftAddress][_tokenId] */\n      dup2\n      mstore\n      0x20\n      add\n      swap1\n      dup2\n      mstore\n      0x20\n      add\n      0x00\n      keccak256\n        /* \"vinci-protocol/contracts/PtoPOrders.sol\":3577:3617  orders[_nftAddress][_tokenId].borrowTime */\n      0x04\n      add\n        /* \"vinci-protocol/contracts/PtoPOrders.sol\":3577:3635  orders[_nftAddress][_tokenId].borrowTime = block.timestamp */\n      dup2\n      swap1\n      sstore\n      pop\n        /* \"vinci-protocol/contracts/PtoPOrders.sol\":3684:3697  States.lended */\n      0x01\n        /* \"vinci-protocol/contracts/PtoPOrders.sol\":3646:3652  orders */\n      0x02\n        /* \"vinci-protocol/contracts/PtoPOrders.sol\":3646:3665  orders[_nftAddress] */\n      0x00\n        /* \"vinci-protocol/contracts/PtoPOrders.sol\":3653:3664  _nftAddress */\n      dup5\n        /* \"vinci-protocol/contracts/PtoPOrders.sol\":3646:3665  orders[_nftAddress] */\n      0xffffffffffffffffffffffffffffffffffffffff\n      and\n      0xffffffffffffffffffffffffffffffffffffffff\n      and\n      dup2\n      mstore\n      0x20\n      add\n      swap1\n      dup2\n      mstore\n      0x20\n      add\n      0x00\n      keccak256\n        /* \"vinci-protocol/contracts/PtoPOrders.sol\":3646:3675  orders[_nftAddress][_tokenId] */\n      0x00\n        /* \"vinci-protocol/contracts/PtoPOrders.sol\":3666:3674  _tokenId */\n      dup4\n        /* \"vinci-protocol/contracts/PtoPOrders.sol\":3646:3675  orders[_nftAddress][_tokenId] */\n      dup2\n      mstore\n      0x20\n      add\n      swap1\n      dup2\n      mstore\n      0x20\n      add\n      0x00\n      keccak256\n        /* \"vinci-protocol/contracts/PtoPOrders.sol\":3646:3681  orders[_nftAddress][_tokenId].state */\n      0x0a\n      add\n      0x00\n        /* \"vinci-protocol/contracts/PtoPOrders.sol\":3646:3697  orders[_nftAddress][_tokenId].state = States.lended */\n      0x0100\n      exp\n      dup2\n      sload\n      dup2\n      0xff\n      mul\n      not\n      and\n      swap1\n      dup4\n      0x03\n      dup2\n      gt\n      iszero\n      tag_156\n      jumpi\n      tag_157\n      tag_87\n      jump\t// in\n    tag_157:\n    tag_156:\n      mul\n      or\n      swap1\n      sstore\n      pop\n        /* \"vinci-protocol/contracts/PtoPOrders.sol\":3178:3709  function lend(address _nftAddress,uint256 _tokenId) external {... */\n      pop\n      pop\n      jump\t// out\n        /* \"vinci-protocol/contracts/PtoPOrders.sol\":3731:4578  function borrow(address _nftAddress,uint256 _tokenId,uint256 index) external {... */\n    tag_53:\n        /* \"vinci-protocol/contracts/PtoPOrders.sol\":3933:3939  orders */\n      0x02\n        /* \"vinci-protocol/contracts/PtoPOrders.sol\":3933:3952  orders[_nftAddress] */\n      0x00\n        /* \"vinci-protocol/contracts/PtoPOrders.sol\":3940:3951  _nftAddress */\n      dup5\n        /* \"vinci-protocol/contracts/PtoPOrders.sol\":3933:3952  orders[_nftAddress] */\n      0xffffffffffffffffffffffffffffffffffffffff\n      and\n      0xffffffffffffffffffffffffffffffffffffffff\n      and\n      dup2\n      mstore\n      0x20\n      add\n      swap1\n      dup2\n      mstore\n      0x20\n      add\n      0x00\n      keccak256\n        /* \"vinci-protocol/contracts/PtoPOrders.sol\":3933:3962  orders[_nftAddress][_tokenId] */\n      0x00\n        /* \"vinci-protocol/contracts/PtoPOrders.sol\":3953:3961  _tokenId */\n      dup4\n        /* \"vinci-protocol/contracts/PtoPOrders.sol\":3933:3962  orders[_nftAddress][_tokenId] */\n      dup2\n      mstore\n      0x20\n      add\n      swap1\n      dup2\n      mstore\n      0x20\n      add\n      0x00\n      keccak256\n        /* \"vinci-protocol/contracts/PtoPOrders.sol\":3933:3971  orders[_nftAddress][_tokenId].loanTime */\n      0x03\n      add\n      sload\n        /* \"vinci-protocol/contracts/PtoPOrders.sol\":3874:3880  orders */\n      0x02\n        /* \"vinci-protocol/contracts/PtoPOrders.sol\":3874:3893  orders[_nftAddress] */\n      0x00\n        /* \"vinci-protocol/contracts/PtoPOrders.sol\":3881:3892  _nftAddress */\n      dup6\n        /* \"vinci-protocol/contracts/PtoPOrders.sol\":3874:3893  orders[_nftAddress] */\n      0xffffffffffffffffffffffffffffffffffffffff\n      and\n      0xffffffffffffffffffffffffffffffffffffffff\n      and\n      dup2\n      mstore\n      0x20\n      add\n      swap1\n      dup2\n      mstore\n      0x20\n      add\n      0x00\n      keccak256\n        /* \"vinci-protocol/contracts/PtoPOrders.sol\":3874:3903  orders[_nftAddress][_tokenId] */\n      0x00\n        /* \"vinci-protocol/contracts/PtoPOrders.sol\":3894:3902  _tokenId */\n      dup5\n        /* \"vinci-protocol/contracts/PtoPOrders.sol\":3874:3903  orders[_nftAddress][_tokenId] */\n      dup2\n      mstore\n      0x20\n      add\n      swap1\n      dup2\n      mstore\n      0x20\n      add\n      0x00\n      keccak256\n        /* \"vinci-protocol/contracts/PtoPOrders.sol\":3874:3914  orders[_nftAddress][_tokenId].borrowTime */\n      0x04\n      add\n      sload\n        /* \"vinci-protocol/contracts/PtoPOrders.sol\":3842:3857  block.timestamp */\n      timestamp\n        /* \"vinci-protocol/contracts/PtoPOrders.sol\":3842:3914  block.timestamp - ... */\n      tag_159\n      swap2\n      swap1\n      tag_160\n      jump\t// in\n    tag_159:\n        /* \"vinci-protocol/contracts/PtoPOrders.sol\":3841:3971  (block.timestamp - ... */\n      gt\n      iszero\n        /* \"vinci-protocol/contracts/PtoPOrders.sol\":3819:3985  require(... */\n      tag_161\n      jumpi\n      0x00\n      dup1\n      revert\n    tag_161:\n        /* \"vinci-protocol/contracts/PtoPOrders.sol\":4018:4024  orders */\n      0x02\n        /* \"vinci-protocol/contracts/PtoPOrders.sol\":4018:4037  orders[_nftAddress] */\n      0x00\n        /* \"vinci-protocol/contracts/PtoPOrders.sol\":4025:4036  _nftAddress */\n      dup5\n        /* \"vinci-protocol/contracts/PtoPOrders.sol\":4018:4037  orders[_nftAddress] */\n      0xffffffffffffffffffffffffffffffffffffffff\n      and\n      0xffffffffffffffffffffffffffffffffffffffff\n      and\n      dup2\n      mstore\n      0x20\n      add\n      swap1\n      dup2\n      mstore\n      0x20\n      add\n      0x00\n      keccak256\n        /* \"vinci-protocol/contracts/PtoPOrders.sol\":4018:4047  orders[_nftAddress][_tokenId] */\n      0x00\n        /* \"vinci-protocol/contracts/PtoPOrders.sol\":4038:4046  _tokenId */\n      dup4\n        /* \"vinci-protocol/contracts/PtoPOrders.sol\":4018:4047  orders[_nftAddress][_tokenId] */\n      dup2\n      mstore\n      0x20\n      add\n      swap1\n      dup2\n      mstore\n      0x20\n      add\n      0x00\n      keccak256\n        /* \"vinci-protocol/contracts/PtoPOrders.sol\":4018:4056  orders[_nftAddress][_tokenId].borrower */\n      0x01\n      add\n      0x00\n      swap1\n      sload\n      swap1\n      0x0100\n      exp\n      swap1\n      div\n      0xffffffffffffffffffffffffffffffffffffffff\n      and\n        /* \"vinci-protocol/contracts/PtoPOrders.sol\":4004:4056  msg.sender == orders[_nftAddress][_tokenId].borrower */\n      0xffffffffffffffffffffffffffffffffffffffff\n      and\n        /* \"vinci-protocol/contracts/PtoPOrders.sol\":4004:4014  msg.sender */\n      caller\n        /* \"vinci-protocol/contracts/PtoPOrders.sol\":4004:4056  msg.sender == orders[_nftAddress][_tokenId].borrower */\n      0xffffffffffffffffffffffffffffffffffffffff\n      and\n      eq\n        /* \"vinci-protocol/contracts/PtoPOrders.sol\":3996:4057  require(msg.sender == orders[_nftAddress][_tokenId].borrower) */\n      tag_162\n      jumpi\n      0x00\n      dup1\n      revert\n    tag_162:\n        /* \"vinci-protocol/contracts/PtoPOrders.sol\":4068:4081  uint256 price */\n      0x00\n        /* \"vinci-protocol/contracts/PtoPOrders.sol\":4084:4135  getBorrowPrice(orders[_nftAddress][_tokenId].price) */\n      tag_163\n        /* \"vinci-protocol/contracts/PtoPOrders.sol\":4099:4105  orders */\n      0x02\n        /* \"vinci-protocol/contracts/PtoPOrders.sol\":4099:4118  orders[_nftAddress] */\n      0x00\n        /* \"vinci-protocol/contracts/PtoPOrders.sol\":4106:4117  _nftAddress */\n      dup7\n        /* \"vinci-protocol/contracts/PtoPOrders.sol\":4099:4118  orders[_nftAddress] */\n      0xffffffffffffffffffffffffffffffffffffffff\n      and\n      0xffffffffffffffffffffffffffffffffffffffff\n      and\n      dup2\n      mstore\n      0x20\n      add\n      swap1\n      dup2\n      mstore\n      0x20\n      add\n      0x00\n      keccak256\n        /* \"vinci-protocol/contracts/PtoPOrders.sol\":4099:4128  orders[_nftAddress][_tokenId] */\n      0x00\n        /* \"vinci-protocol/contracts/PtoPOrders.sol\":4119:4127  _tokenId */\n      dup6\n        /* \"vinci-protocol/contracts/PtoPOrders.sol\":4099:4128  orders[_nftAddress][_tokenId] */\n      dup2\n      mstore\n      0x20\n      add\n      swap1\n      dup2\n      mstore\n      0x20\n      add\n      0x00\n      keccak256\n        /* \"vinci-protocol/contracts/PtoPOrders.sol\":4099:4134  orders[_nftAddress][_tokenId].price */\n      0x02\n      add\n      sload\n        /* \"vinci-protocol/contracts/PtoPOrders.sol\":4084:4098  getBorrowPrice */\n      tag_164\n        /* \"vinci-protocol/contracts/PtoPOrders.sol\":4084:4135  getBorrowPrice(orders[_nftAddress][_tokenId].price) */\n      jump\t// in\n    tag_163:\n        /* \"vinci-protocol/contracts/PtoPOrders.sol\":4068:4135  uint256 price = getBorrowPrice(orders[_nftAddress][_tokenId].price) */\n      swap1\n      pop\n        /* \"vinci-protocol/contracts/PtoPOrders.sol\":4146:4151  token */\n      0x00\n      dup1\n      sload\n      swap1\n      0x0100\n      exp\n      swap1\n      div\n      0xffffffffffffffffffffffffffffffffffffffff\n      and\n        /* \"vinci-protocol/contracts/PtoPOrders.sol\":4146:4164  token.transferFrom */\n      0xffffffffffffffffffffffffffffffffffffffff\n      and\n      0x23b872dd\n        /* \"vinci-protocol/contracts/PtoPOrders.sol\":4179:4185  orders */\n      0x02\n        /* \"vinci-protocol/contracts/PtoPOrders.sol\":4179:4198  orders[_nftAddress] */\n      0x00\n        /* \"vinci-protocol/contracts/PtoPOrders.sol\":4186:4197  _nftAddress */\n      dup8\n        /* \"vinci-protocol/contracts/PtoPOrders.sol\":4179:4198  orders[_nftAddress] */\n      0xffffffffffffffffffffffffffffffffffffffff\n      and\n      0xffffffffffffffffffffffffffffffffffffffff\n      and\n      dup2\n      mstore\n      0x20\n      add\n      swap1\n      dup2\n      mstore\n      0x20\n      add\n      0x00\n      keccak256\n        /* \"vinci-protocol/contracts/PtoPOrders.sol\":4179:4208  orders[_nftAddress][_tokenId] */\n      0x00\n        /* \"vinci-protocol/contracts/PtoPOrders.sol\":4199:4207  _tokenId */\n      dup7\n        /* \"vinci-protocol/contracts/PtoPOrders.sol\":4179:4208  orders[_nftAddress][_tokenId] */\n      dup2\n      mstore\n      0x20\n      add\n      swap1\n      dup2\n      mstore\n      0x20\n      add\n      0x00\n      keccak256\n        /* \"vinci-protocol/contracts/PtoPOrders.sol\":4179:4217  orders[_nftAddress][_tokenId].borrower */\n      0x01\n      add\n      0x00\n      swap1\n      sload\n      swap1\n      0x0100\n      exp\n      swap1\n      div\n      0xffffffffffffffffffffffffffffffffffffffff\n      and\n        /* \"vinci-protocol/contracts/PtoPOrders.sol\":4232:4238  orders */\n      0x02\n        /* \"vinci-protocol/contracts/PtoPOrders.sol\":4232:4251  orders[_nftAddress] */\n      0x00\n        /* \"vinci-protocol/contracts/PtoPOrders.sol\":4239:4250  _nftAddress */\n      dup9\n        /* \"vinci-protocol/contracts/PtoPOrders.sol\":4232:4251  orders[_nftAddress] */\n      0xffffffffffffffffffffffffffffffffffffffff\n      and\n      0xffffffffffffffffffffffffffffffffffffffff\n      and\n      dup2\n      mstore\n      0x20\n      add\n      swap1\n      dup2\n      mstore\n      0x20\n      add\n      0x00\n      keccak256\n        /* \"vinci-protocol/contracts/PtoPOrders.sol\":4232:4261  orders[_nftAddress][_tokenId] */\n      0x00\n        /* \"vinci-protocol/contracts/PtoPOrders.sol\":4252:4260  _tokenId */\n      dup8\n        /* \"vinci-protocol/contracts/PtoPOrders.sol\":4232:4261  orders[_nftAddress][_tokenId] */\n      dup2\n      mstore\n      0x20\n      add\n      swap1\n      dup2\n      mstore\n      0x20\n      add\n      0x00\n      keccak256\n        /* \"vinci-protocol/contracts/PtoPOrders.sol\":4232:4268  orders[_nftAddress][_tokenId].lender */\n      0x05\n      add\n      0x00\n      swap1\n      sload\n      swap1\n      0x0100\n      exp\n      swap1\n      div\n      0xffffffffffffffffffffffffffffffffffffffff\n      and\n        /* \"vinci-protocol/contracts/PtoPOrders.sol\":4283:4288  price */\n      dup5\n        /* \"vinci-protocol/contracts/PtoPOrders.sol\":4146:4299  token.transferFrom(... */\n      mload(0x40)\n      dup5\n      0xffffffff\n      and\n      0xe0\n      shl\n      dup2\n      mstore\n      0x04\n      add\n      tag_165\n      swap4\n      swap3\n      swap2\n      swap1\n      tag_151\n      jump\t// in\n    tag_165:\n      0x20\n      mload(0x40)\n      dup1\n      dup4\n      sub\n      dup2\n      0x00\n      dup8\n      gas\n      call\n      iszero\n      dup1\n      iszero\n      tag_167\n      jumpi\n      returndatasize\n      0x00\n      dup1\n      returndatacopy\n      revert(0x00, returndatasize)\n    tag_167:\n      pop\n      pop\n      pop\n      pop\n      mload(0x40)\n      returndatasize\n      not(0x1f)\n      0x1f\n      dup3\n      add\n      and\n      dup3\n      add\n      dup1\n      0x40\n      mstore\n      pop\n      dup2\n      add\n      swap1\n      tag_168\n      swap2\n      swap1\n      tag_155\n      jump\t// in\n    tag_168:\n      pop\n        /* \"vinci-protocol/contracts/PtoPOrders.sol\":4348:4363  States.borrowed */\n      0x02\n        /* \"vinci-protocol/contracts/PtoPOrders.sol\":4310:4316  orders */\n      dup1\n        /* \"vinci-protocol/contracts/PtoPOrders.sol\":4310:4329  orders[_nftAddress] */\n      0x00\n        /* \"vinci-protocol/contracts/PtoPOrders.sol\":4317:4328  _nftAddress */\n      dup7\n        /* \"vinci-protocol/contracts/PtoPOrders.sol\":4310:4329  orders[_nftAddress] */\n      0xffffffffffffffffffffffffffffffffffffffff\n      and\n      0xffffffffffffffffffffffffffffffffffffffff\n      and\n      dup2\n      mstore\n      0x20\n      add\n      swap1\n      dup2\n      mstore\n      0x20\n      add\n      0x00\n      keccak256\n        /* \"vinci-protocol/contracts/PtoPOrders.sol\":4310:4339  orders[_nftAddress][_tokenId] */\n      0x00\n        /* \"vinci-protocol/contracts/PtoPOrders.sol\":4330:4338  _tokenId */\n      dup6\n        /* \"vinci-protocol/contracts/PtoPOrders.sol\":4310:4339  orders[_nftAddress][_tokenId] */\n      dup2\n      mstore\n      0x20\n      add\n      swap1\n      dup2\n      mstore\n      0x20\n      add\n      0x00\n      keccak256\n        /* \"vinci-protocol/contracts/PtoPOrders.sol\":4310:4345  orders[_nftAddress][_tokenId].state */\n      0x0a\n      add\n      0x00\n        /* \"vinci-protocol/contracts/PtoPOrders.sol\":4310:4363  orders[_nftAddress][_tokenId].state = States.borrowed */\n      0x0100\n      exp\n      dup2\n      sload\n      dup2\n      0xff\n      mul\n      not\n      and\n      swap1\n      dup4\n      0x03\n      dup2\n      gt\n      iszero\n      tag_169\n      jumpi\n      tag_170\n      tag_87\n      jump\t// in\n    tag_170:\n    tag_169:\n      mul\n      or\n      swap1\n      sstore\n      pop\n        /* \"vinci-protocol/contracts/PtoPOrders.sol\":4388:4392  nfts */\n      0x03\n        /* \"vinci-protocol/contracts/PtoPOrders.sol\":4388:4400  nfts[length] */\n      0x00\n        /* \"vinci-protocol/contracts/PtoPOrders.sol\":4393:4399  length */\n      sload(0x04)\n        /* \"vinci-protocol/contracts/PtoPOrders.sol\":4388:4400  nfts[length] */\n      dup2\n      mstore\n      0x20\n      add\n      swap1\n      dup2\n      mstore\n      0x20\n      add\n      0x00\n      keccak256\n        /* \"vinci-protocol/contracts/PtoPOrders.sol\":4374:4378  nfts */\n      0x03\n        /* \"vinci-protocol/contracts/PtoPOrders.sol\":4374:4385  nfts[index] */\n      0x00\n        /* \"vinci-protocol/contracts/PtoPOrders.sol\":4379:4384  index */\n      dup5\n        /* \"vinci-protocol/contracts/PtoPOrders.sol\":4374:4385  nfts[index] */\n      dup2\n      mstore\n      0x20\n      add\n      swap1\n      dup2\n      mstore\n      0x20\n      add\n      0x00\n      keccak256\n        /* \"vinci-protocol/contracts/PtoPOrders.sol\":4374:4400  nfts[index] = nfts[length] */\n      0x00\n      dup3\n      add\n      0x00\n      swap1\n      sload\n      swap1\n      0x0100\n      exp\n      swap1\n      div\n      0xffffffffffffffffffffffffffffffffffffffff\n      and\n      dup2\n      0x00\n      add\n      exp(0x0100, 0x00)\n      dup2\n      sload\n      dup2\n      0xffffffffffffffffffffffffffffffffffffffff\n      mul\n      not\n      and\n      swap1\n      dup4\n      0xffffffffffffffffffffffffffffffffffffffff\n      and\n      mul\n      or\n      swap1\n      sstore\n      pop\n      0x01\n      dup3\n      add\n      sload\n      dup2\n      0x01\n      add\n      sstore\n      0x02\n      dup3\n      add\n      0x00\n      swap1\n      sload\n      swap1\n      0x0100\n      exp\n      swap1\n      div\n      0xff\n      and\n      dup2\n      0x02\n      add\n      exp(0x0100, 0x00)\n      dup2\n      sload\n      dup2\n      0xff\n      mul\n      not\n      and\n      swap1\n      dup4\n      0x02\n      dup2\n      gt\n      iszero\n      tag_171\n      jumpi\n      tag_172\n      tag_87\n      jump\t// in\n    tag_172:\n    tag_171:\n      mul\n      or\n      swap1\n      sstore\n      pop\n      0x03\n      dup3\n      add\n      sload\n      dup2\n      0x03\n      add\n      sstore\n      swap1\n      pop\n      pop\n        /* \"vinci-protocol/contracts/PtoPOrders.sol\":4411:4417  length */\n      0x04\n      0x00\n        /* \"vinci-protocol/contracts/PtoPOrders.sol\":4411:4420  length -- */\n      dup2\n      sload\n      dup1\n      swap3\n      swap2\n      swap1\n      tag_173\n      swap1\n      tag_174\n      jump\t// in\n    tag_173:\n      swap2\n      swap1\n      pop\n      sstore\n      pop\n        /* \"vinci-protocol/contracts/PtoPOrders.sol\":4431:4445  uint256 amount */\n      0x00\n        /* \"vinci-protocol/contracts/PtoPOrders.sol\":4448:4454  orders */\n      0x02\n        /* \"vinci-protocol/contracts/PtoPOrders.sol\":4448:4467  orders[_nftAddress] */\n      0x00\n        /* \"vinci-protocol/contracts/PtoPOrders.sol\":4455:4466  _nftAddress */\n      dup7\n        /* \"vinci-protocol/contracts/PtoPOrders.sol\":4448:4467  orders[_nftAddress] */\n      0xffffffffffffffffffffffffffffffffffffffff\n      and\n      0xffffffffffffffffffffffffffffffffffffffff\n      and\n      dup2\n      mstore\n      0x20\n      add\n      swap1\n      dup2\n      mstore\n      0x20\n      add\n      0x00\n      keccak256\n        /* \"vinci-protocol/contracts/PtoPOrders.sol\":4448:4477  orders[_nftAddress][_tokenId] */\n      0x00\n        /* \"vinci-protocol/contracts/PtoPOrders.sol\":4468:4476  _tokenId */\n      dup6\n        /* \"vinci-protocol/contracts/PtoPOrders.sol\":4448:4477  orders[_nftAddress][_tokenId] */\n      dup2\n      mstore\n      0x20\n      add\n      swap1\n      dup2\n      mstore\n      0x20\n      add\n      0x00\n      keccak256\n        /* \"vinci-protocol/contracts/PtoPOrders.sol\":4448:4481  orders[_nftAddress][_tokenId].nft */\n      0x06\n      add\n        /* \"vinci-protocol/contracts/PtoPOrders.sol\":4448:4488  orders[_nftAddress][_tokenId].nft.amount */\n      0x03\n      add\n      sload\n        /* \"vinci-protocol/contracts/PtoPOrders.sol\":4431:4488  uint256 amount = orders[_nftAddress][_tokenId].nft.amount */\n      swap1\n      pop\n        /* \"vinci-protocol/contracts/PtoPOrders.sol\":4499:4564  nftTransfer(_nftAddress,_tokenId,address(this),msg.sender,amount) */\n      tag_175\n        /* \"vinci-protocol/contracts/PtoPOrders.sol\":4511:4522  _nftAddress */\n      dup6\n        /* \"vinci-protocol/contracts/PtoPOrders.sol\":4523:4531  _tokenId */\n      dup6\n        /* \"vinci-protocol/contracts/PtoPOrders.sol\":4540:4544  this */\n      address\n        /* \"vinci-protocol/contracts/PtoPOrders.sol\":4546:4556  msg.sender */\n      caller\n        /* \"vinci-protocol/contracts/PtoPOrders.sol\":4557:4563  amount */\n      dup6\n        /* \"vinci-protocol/contracts/PtoPOrders.sol\":4499:4510  nftTransfer */\n      tag_131\n        /* \"vinci-protocol/contracts/PtoPOrders.sol\":4499:4564  nftTransfer(_nftAddress,_tokenId,address(this),msg.sender,amount) */\n      jump\t// in\n    tag_175:\n        /* \"vinci-protocol/contracts/PtoPOrders.sol\":3808:4578  {... */\n      pop\n      pop\n        /* \"vinci-protocol/contracts/PtoPOrders.sol\":3731:4578  function borrow(address _nftAddress,uint256 _tokenId,uint256 index) external {... */\n      pop\n      pop\n      pop\n      jump\t// out\n        /* \"vinci-protocol/contracts/PtoPOrders.sol\":4753:4826  function setBorrowPricePercentage() external onlyadministrator {... */\n    tag_55:\n        /* \"vinci-protocol/contracts/PtoPOrders.sol\":708:721  administrator */\n      0x01\n      0x00\n      swap1\n      sload\n      swap1\n      0x0100\n      exp\n      swap1\n      div\n      0xffffffffffffffffffffffffffffffffffffffff\n      and\n        /* \"vinci-protocol/contracts/PtoPOrders.sol\":694:721  msg.sender == administrator */\n      0xffffffffffffffffffffffffffffffffffffffff\n      and\n        /* \"vinci-protocol/contracts/PtoPOrders.sol\":694:704  msg.sender */\n      caller\n        /* \"vinci-protocol/contracts/PtoPOrders.sol\":694:721  msg.sender == administrator */\n      0xffffffffffffffffffffffffffffffffffffffff\n      and\n      eq\n        /* \"vinci-protocol/contracts/PtoPOrders.sol\":686:722  require(msg.sender == administrator) */\n      tag_177\n      jumpi\n      0x00\n      dup1\n      revert\n    tag_177:\n        /* \"vinci-protocol/contracts/PtoPOrders.sol\":4753:4826  function setBorrowPricePercentage() external onlyadministrator {... */\n      jump\t// out\n        /* \"vinci-protocol/contracts/PtoPOrders.sol\":6275:6411  function setAdministrator(address _address)external onlyadministrator returns(address){... */\n    tag_59:\n        /* \"vinci-protocol/contracts/PtoPOrders.sol\":6353:6360  address */\n      0x00\n        /* \"vinci-protocol/contracts/PtoPOrders.sol\":708:721  administrator */\n      0x01\n      0x00\n      swap1\n      sload\n      swap1\n      0x0100\n      exp\n      swap1\n      div\n      0xffffffffffffffffffffffffffffffffffffffff\n      and\n        /* \"vinci-protocol/contracts/PtoPOrders.sol\":694:721  msg.sender == administrator */\n      0xffffffffffffffffffffffffffffffffffffffff\n      and\n        /* \"vinci-protocol/contracts/PtoPOrders.sol\":694:704  msg.sender */\n      caller\n        /* \"vinci-protocol/contracts/PtoPOrders.sol\":694:721  msg.sender == administrator */\n      0xffffffffffffffffffffffffffffffffffffffff\n      and\n      eq\n        /* \"vinci-protocol/contracts/PtoPOrders.sol\":686:722  require(msg.sender == administrator) */\n      tag_180\n      jumpi\n      0x00\n      dup1\n      revert\n    tag_180:\n        /* \"vinci-protocol/contracts/PtoPOrders.sol\":6395:6403  _address */\n      dup2\n        /* \"vinci-protocol/contracts/PtoPOrders.sol\":6379:6392  administrator */\n      0x01\n      0x00\n        /* \"vinci-protocol/contracts/PtoPOrders.sol\":6379:6403  administrator = _address */\n      0x0100\n      exp\n      dup2\n      sload\n      dup2\n      0xffffffffffffffffffffffffffffffffffffffff\n      mul\n      not\n      and\n      swap1\n      dup4\n      0xffffffffffffffffffffffffffffffffffffffff\n      and\n      mul\n      or\n      swap1\n      sstore\n        /* \"vinci-protocol/contracts/PtoPOrders.sol\":6372:6403  return administrator = _address */\n      swap1\n      pop\n        /* \"vinci-protocol/contracts/PtoPOrders.sol\":6275:6411  function setAdministrator(address _address)external onlyadministrator returns(address){... */\n      swap2\n      swap1\n      pop\n      jump\t// out\n        /* \"vinci-protocol/contracts/PtoPOrders.sol\":4894:5422  function timeOut(address _nftAddress,uint256 _tokenId) external {... */\n    tag_63:\n        /* \"vinci-protocol/contracts/PtoPOrders.sol\":5082:5088  orders */\n      0x02\n        /* \"vinci-protocol/contracts/PtoPOrders.sol\":5082:5101  orders[_nftAddress] */\n      0x00\n        /* \"vinci-protocol/contracts/PtoPOrders.sol\":5089:5100  _nftAddress */\n      dup4\n        /* \"vinci-protocol/contracts/PtoPOrders.sol\":5082:5101  orders[_nftAddress] */\n      0xffffffffffffffffffffffffffffffffffffffff\n      and\n      0xffffffffffffffffffffffffffffffffffffffff\n      and\n      dup2\n      mstore\n      0x20\n      add\n      swap1\n      dup2\n      mstore\n      0x20\n      add\n      0x00\n      keccak256\n        /* \"vinci-protocol/contracts/PtoPOrders.sol\":5082:5111  orders[_nftAddress][_tokenId] */\n      0x00\n        /* \"vinci-protocol/contracts/PtoPOrders.sol\":5102:5110  _tokenId */\n      dup3\n        /* \"vinci-protocol/contracts/PtoPOrders.sol\":5082:5111  orders[_nftAddress][_tokenId] */\n      dup2\n      mstore\n      0x20\n      add\n      swap1\n      dup2\n      mstore\n      0x20\n      add\n      0x00\n      keccak256\n        /* \"vinci-protocol/contracts/PtoPOrders.sol\":5082:5120  orders[_nftAddress][_tokenId].loanTime */\n      0x03\n      add\n      sload\n        /* \"vinci-protocol/contracts/PtoPOrders.sol\":5024:5030  orders */\n      0x02\n        /* \"vinci-protocol/contracts/PtoPOrders.sol\":5024:5043  orders[_nftAddress] */\n      0x00\n        /* \"vinci-protocol/contracts/PtoPOrders.sol\":5031:5042  _nftAddress */\n      dup5\n        /* \"vinci-protocol/contracts/PtoPOrders.sol\":5024:5043  orders[_nftAddress] */\n      0xffffffffffffffffffffffffffffffffffffffff\n      and\n      0xffffffffffffffffffffffffffffffffffffffff\n      and\n      dup2\n      mstore\n      0x20\n      add\n      swap1\n      dup2\n      mstore\n      0x20\n      add\n      0x00\n      keccak256\n        /* \"vinci-protocol/contracts/PtoPOrders.sol\":5024:5053  orders[_nftAddress][_tokenId] */\n      0x00\n        /* \"vinci-protocol/contracts/PtoPOrders.sol\":5044:5052  _tokenId */\n      dup4\n        /* \"vinci-protocol/contracts/PtoPOrders.sol\":5024:5053  orders[_nftAddress][_tokenId] */\n      dup2\n      mstore\n      0x20\n      add\n      swap1\n      dup2\n      mstore\n      0x20\n      add\n      0x00\n      keccak256\n        /* \"vinci-protocol/contracts/PtoPOrders.sol\":5024:5064  orders[_nftAddress][_tokenId].borrowTime */\n      0x04\n      add\n      sload\n        /* \"vinci-protocol/contracts/PtoPOrders.sol\":4992:5007  block.timestamp */\n      timestamp\n        /* \"vinci-protocol/contracts/PtoPOrders.sol\":4992:5064  block.timestamp - ... */\n      tag_183\n      swap2\n      swap1\n      tag_160\n      jump\t// in\n    tag_183:\n        /* \"vinci-protocol/contracts/PtoPOrders.sol\":4991:5120  (block.timestamp - ... */\n      gt\n        /* \"vinci-protocol/contracts/PtoPOrders.sol\":4969:5134  require(... */\n      tag_184\n      jumpi\n      0x00\n      dup1\n      revert\n    tag_184:\n        /* \"vinci-protocol/contracts/PtoPOrders.sol\":5167:5173  orders */\n      0x02\n        /* \"vinci-protocol/contracts/PtoPOrders.sol\":5167:5186  orders[_nftAddress] */\n      0x00\n        /* \"vinci-protocol/contracts/PtoPOrders.sol\":5174:5185  _nftAddress */\n      dup4\n        /* \"vinci-protocol/contracts/PtoPOrders.sol\":5167:5186  orders[_nftAddress] */\n      0xffffffffffffffffffffffffffffffffffffffff\n      and\n      0xffffffffffffffffffffffffffffffffffffffff\n      and\n      dup2\n      mstore\n      0x20\n      add\n      swap1\n      dup2\n      mstore\n      0x20\n      add\n      0x00\n      keccak256\n        /* \"vinci-protocol/contracts/PtoPOrders.sol\":5167:5196  orders[_nftAddress][_tokenId] */\n      0x00\n        /* \"vinci-protocol/contracts/PtoPOrders.sol\":5187:5195  _tokenId */\n      dup3\n        /* \"vinci-protocol/contracts/PtoPOrders.sol\":5167:5196  orders[_nftAddress][_tokenId] */\n      dup2\n      mstore\n      0x20\n      add\n      swap1\n      dup2\n      mstore\n      0x20\n      add\n      0x00\n      keccak256\n        /* \"vinci-protocol/contracts/PtoPOrders.sol\":5167:5203  orders[_nftAddress][_tokenId].lender */\n      0x05\n      add\n      0x00\n      swap1\n      sload\n      swap1\n      0x0100\n      exp\n      swap1\n      div\n      0xffffffffffffffffffffffffffffffffffffffff\n      and\n        /* \"vinci-protocol/contracts/PtoPOrders.sol\":5153:5203  msg.sender == orders[_nftAddress][_tokenId].lender */\n      0xffffffffffffffffffffffffffffffffffffffff\n      and\n        /* \"vinci-protocol/contracts/PtoPOrders.sol\":5153:5163  msg.sender */\n      caller\n        /* \"vinci-protocol/contracts/PtoPOrders.sol\":5153:5203  msg.sender == orders[_nftAddress][_tokenId].lender */\n      0xffffffffffffffffffffffffffffffffffffffff\n      and\n      eq\n        /* \"vinci-protocol/contracts/PtoPOrders.sol\":5145:5204  require(msg.sender == orders[_nftAddress][_tokenId].lender) */\n      tag_185\n      jumpi\n      0x00\n      dup1\n      revert\n    tag_185:\n        /* \"vinci-protocol/contracts/PtoPOrders.sol\":5215:5229  uint256 amount */\n      0x00\n        /* \"vinci-protocol/contracts/PtoPOrders.sol\":5232:5238  orders */\n      0x02\n        /* \"vinci-protocol/contracts/PtoPOrders.sol\":5232:5251  orders[_nftAddress] */\n      0x00\n        /* \"vinci-protocol/contracts/PtoPOrders.sol\":5239:5250  _nftAddress */\n      dup5\n        /* \"vinci-protocol/contracts/PtoPOrders.sol\":5232:5251  orders[_nftAddress] */\n      0xffffffffffffffffffffffffffffffffffffffff\n      and\n      0xffffffffffffffffffffffffffffffffffffffff\n      and\n      dup2\n      mstore\n      0x20\n      add\n      swap1\n      dup2\n      mstore\n      0x20\n      add\n      0x00\n      keccak256\n        /* \"vinci-protocol/contracts/PtoPOrders.sol\":5232:5261  orders[_nftAddress][_tokenId] */\n      0x00\n        /* \"vinci-protocol/contracts/PtoPOrders.sol\":5252:5260  _tokenId */\n      dup4\n        /* \"vinci-protocol/contracts/PtoPOrders.sol\":5232:5261  orders[_nftAddress][_tokenId] */\n      dup2\n      mstore\n      0x20\n      add\n      swap1\n      dup2\n      mstore\n      0x20\n      add\n      0x00\n      keccak256\n        /* \"vinci-protocol/contracts/PtoPOrders.sol\":5232:5265  orders[_nftAddress][_tokenId].nft */\n      0x06\n      add\n        /* \"vinci-protocol/contracts/PtoPOrders.sol\":5232:5272  orders[_nftAddress][_tokenId].nft.amount */\n      0x03\n      add\n      sload\n        /* \"vinci-protocol/contracts/PtoPOrders.sol\":5215:5272  uint256 amount = orders[_nftAddress][_tokenId].nft.amount */\n      swap1\n      pop\n        /* \"vinci-protocol/contracts/PtoPOrders.sol\":5283:5348  nftTransfer(_nftAddress,_tokenId,address(this),msg.sender,amount) */\n      tag_186\n        /* \"vinci-protocol/contracts/PtoPOrders.sol\":5295:5306  _nftAddress */\n      dup4\n        /* \"vinci-protocol/contracts/PtoPOrders.sol\":5307:5315  _tokenId */\n      dup4\n        /* \"vinci-protocol/contracts/PtoPOrders.sol\":5324:5328  this */\n      address\n        /* \"vinci-protocol/contracts/PtoPOrders.sol\":5330:5340  msg.sender */\n      caller\n        /* \"vinci-protocol/contracts/PtoPOrders.sol\":5341:5347  amount */\n      dup6\n        /* \"vinci-protocol/contracts/PtoPOrders.sol\":5283:5294  nftTransfer */\n      tag_131\n        /* \"vinci-protocol/contracts/PtoPOrders.sol\":5283:5348  nftTransfer(_nftAddress,_tokenId,address(this),msg.sender,amount) */\n      jump\t// in\n    tag_186:\n        /* \"vinci-protocol/contracts/PtoPOrders.sol\":5397:5412  States.finished */\n      0x03\n        /* \"vinci-protocol/contracts/PtoPOrders.sol\":5359:5365  orders */\n      0x02\n        /* \"vinci-protocol/contracts/PtoPOrders.sol\":5359:5378  orders[_nftAddress] */\n      0x00\n        /* \"vinci-protocol/contracts/PtoPOrders.sol\":5366:5377  _nftAddress */\n      dup6\n        /* \"vinci-protocol/contracts/PtoPOrders.sol\":5359:5378  orders[_nftAddress] */\n      0xffffffffffffffffffffffffffffffffffffffff\n      and\n      0xffffffffffffffffffffffffffffffffffffffff\n      and\n      dup2\n      mstore\n      0x20\n      add\n      swap1\n      dup2\n      mstore\n      0x20\n      add\n      0x00\n      keccak256\n        /* \"vinci-protocol/contracts/PtoPOrders.sol\":5359:5388  orders[_nftAddress][_tokenId] */\n      0x00\n        /* \"vinci-protocol/contracts/PtoPOrders.sol\":5379:5387  _tokenId */\n      dup5\n        /* \"vinci-protocol/contracts/PtoPOrders.sol\":5359:5388  orders[_nftAddress][_tokenId] */\n      dup2\n      mstore\n      0x20\n      add\n      swap1\n      dup2\n      mstore\n      0x20\n      add\n      0x00\n      keccak256\n        /* \"vinci-protocol/contracts/PtoPOrders.sol\":5359:5394  orders[_nftAddress][_tokenId].state */\n      0x0a\n      add\n      0x00\n        /* \"vinci-protocol/contracts/PtoPOrders.sol\":5359:5412  orders[_nftAddress][_tokenId].state = States.finished */\n      0x0100\n      exp\n      dup2\n      sload\n      dup2\n      0xff\n      mul\n      not\n      and\n      swap1\n      dup4\n      0x03\n      dup2\n      gt\n      iszero\n      tag_187\n      jumpi\n      tag_188\n      tag_87\n      jump\t// in\n    tag_188:\n    tag_187:\n      mul\n      or\n      swap1\n      sstore\n      pop\n        /* \"vinci-protocol/contracts/PtoPOrders.sol\":4958:5422  {... */\n      pop\n        /* \"vinci-protocol/contracts/PtoPOrders.sol\":4894:5422  function timeOut(address _nftAddress,uint256 _tokenId) external {... */\n      pop\n      pop\n      jump\t// out\n        /* \"vinci-protocol/contracts/PtoPOrders.sol\":7098:7559  function identifyNFT(address nftAddress) public view returns (NftType) {... */\n    tag_66:\n        /* \"vinci-protocol/contracts/PtoPOrders.sol\":7160:7167  NftType */\n      0x00\n        /* \"vinci-protocol/contracts/PtoPOrders.sol\":7180:7199  ERC165 nftInterface */\n      dup1\n        /* \"vinci-protocol/contracts/PtoPOrders.sol\":7209:7219  nftAddress */\n      dup3\n        /* \"vinci-protocol/contracts/PtoPOrders.sol\":7180:7220  ERC165 nftInterface = ERC165(nftAddress) */\n      swap1\n      pop\n        /* \"vinci-protocol/contracts/PtoPOrders.sol\":7272:7284  nftInterface */\n      dup1\n        /* \"vinci-protocol/contracts/PtoPOrders.sol\":7272:7302  nftInterface.supportsInterface */\n      0xffffffffffffffffffffffffffffffffffffffff\n      and\n      0x01ffc9a7\n        /* \"vinci-protocol/contracts/PtoPOrders.sol\":7303:7328  type(IERC721).interfaceId */\n      0x80ac58cd00000000000000000000000000000000000000000000000000000000\n        /* \"vinci-protocol/contracts/PtoPOrders.sol\":7272:7329  nftInterface.supportsInterface(type(IERC721).interfaceId) */\n      mload(0x40)\n      dup3\n      0xffffffff\n      and\n      0xe0\n      shl\n      dup2\n      mstore\n      0x04\n      add\n      tag_190\n      swap2\n      swap1\n      tag_191\n      jump\t// in\n    tag_190:\n      0x20\n      mload(0x40)\n      dup1\n      dup4\n      sub\n      dup2\n      dup7\n      gas\n      staticcall\n      iszero\n      dup1\n      iszero\n      tag_193\n      jumpi\n      returndatasize\n      0x00\n      dup1\n      returndatacopy\n      revert(0x00, returndatasize)\n    tag_193:\n      pop\n      pop\n      pop\n      pop\n      mload(0x40)\n      returndatasize\n      not(0x1f)\n      0x1f\n      dup3\n      add\n      and\n      dup3\n      add\n      dup1\n      0x40\n      mstore\n      pop\n      dup2\n      add\n      swap1\n      tag_194\n      swap2\n      swap1\n      tag_155\n      jump\t// in\n    tag_194:\n        /* \"vinci-protocol/contracts/PtoPOrders.sol\":7268:7552  if (nftInterface.supportsInterface(type(IERC721).interfaceId)) {... */\n      iszero\n      tag_195\n      jumpi\n        /* \"vinci-protocol/contracts/PtoPOrders.sol\":7353:7367  NftType.ERC721 */\n      0x00\n        /* \"vinci-protocol/contracts/PtoPOrders.sol\":7346:7367  return NftType.ERC721 */\n      swap2\n      pop\n      pop\n      jump(tag_189)\n        /* \"vinci-protocol/contracts/PtoPOrders.sol\":7268:7552  if (nftInterface.supportsInterface(type(IERC721).interfaceId)) {... */\n    tag_195:\n        /* \"vinci-protocol/contracts/PtoPOrders.sol\":7389:7401  nftInterface */\n      dup1\n        /* \"vinci-protocol/contracts/PtoPOrders.sol\":7389:7419  nftInterface.supportsInterface */\n      0xffffffffffffffffffffffffffffffffffffffff\n      and\n      0x01ffc9a7\n        /* \"vinci-protocol/contracts/PtoPOrders.sol\":7420:7446  type(IERC1155).interfaceId */\n      0xd9b67a2600000000000000000000000000000000000000000000000000000000\n        /* \"vinci-protocol/contracts/PtoPOrders.sol\":7389:7447  nftInterface.supportsInterface(type(IERC1155).interfaceId) */\n      mload(0x40)\n      dup3\n      0xffffffff\n      and\n      0xe0\n      shl\n      dup2\n      mstore\n      0x04\n      add\n      tag_197\n      swap2\n      swap1\n      tag_191\n      jump\t// in\n    tag_197:\n      0x20\n      mload(0x40)\n      dup1\n      dup4\n      sub\n      dup2\n      dup7\n      gas\n      staticcall\n      iszero\n      dup1\n      iszero\n      tag_199\n      jumpi\n      returndatasize\n      0x00\n      dup1\n      returndatacopy\n      revert(0x00, returndatasize)\n    tag_199:\n      pop\n      pop\n      pop\n      pop\n      mload(0x40)\n      returndatasize\n      not(0x1f)\n      0x1f\n      dup3\n      add\n      and\n      dup3\n      add\n      dup1\n      0x40\n      mstore\n      pop\n      dup2\n      add\n      swap1\n      tag_200\n      swap2\n      swap1\n      tag_155\n      jump\t// in\n    tag_200:\n        /* \"vinci-protocol/contracts/PtoPOrders.sol\":7385:7552  if (nftInterface.supportsInterface(type(IERC1155).interfaceId)) {... */\n      iszero\n      tag_201\n      jumpi\n        /* \"vinci-protocol/contracts/PtoPOrders.sol\":7471:7486  NftType.ERC1155 */\n      0x01\n        /* \"vinci-protocol/contracts/PtoPOrders.sol\":7464:7486  return NftType.ERC1155 */\n      swap2\n      pop\n      pop\n      jump(tag_189)\n        /* \"vinci-protocol/contracts/PtoPOrders.sol\":7385:7552  if (nftInterface.supportsInterface(type(IERC1155).interfaceId)) {... */\n    tag_201:\n        /* \"vinci-protocol/contracts/PtoPOrders.sol\":7526:7540  NftType.Others */\n      0x02\n        /* \"vinci-protocol/contracts/PtoPOrders.sol\":7519:7540  return NftType.Others */\n      swap2\n      pop\n      pop\n        /* \"vinci-protocol/contracts/PtoPOrders.sol\":7098:7559  function identifyNFT(address nftAddress) public view returns (NftType) {... */\n    tag_189:\n      swap2\n      swap1\n      pop\n      jump\t// out\n        /* \"vinci-protocol/contracts/PtoPOrders.sol\":445:464  IERC20 public token */\n    tag_70:\n      0x00\n      dup1\n      sload\n      swap1\n      0x0100\n      exp\n      swap1\n      div\n      0xffffffffffffffffffffffffffffffffffffffff\n      and\n      dup2\n      jump\t// out\n        /* \"vinci-protocol/contracts/PtoPOrders.sol\":6436:7051  function nftTransfer(address _nftAddress,... */\n    tag_131:\n        /* \"vinci-protocol/contracts/PtoPOrders.sol\":6659:6673  NftType.ERC721 */\n      0x00\n        /* \"vinci-protocol/contracts/PtoPOrders.sol\":6614:6673  orders[_nftAddress][_tokenId].nft.nftType == NftType.ERC721 */\n      0x02\n      dup2\n      gt\n      iszero\n      tag_204\n      jumpi\n      tag_205\n      tag_87\n      jump\t// in\n    tag_205:\n    tag_204:\n        /* \"vinci-protocol/contracts/PtoPOrders.sol\":6614:6620  orders */\n      0x02\n        /* \"vinci-protocol/contracts/PtoPOrders.sol\":6614:6633  orders[_nftAddress] */\n      0x00\n        /* \"vinci-protocol/contracts/PtoPOrders.sol\":6621:6632  _nftAddress */\n      dup8\n        /* \"vinci-protocol/contracts/PtoPOrders.sol\":6614:6633  orders[_nftAddress] */\n      0xffffffffffffffffffffffffffffffffffffffff\n      and\n      0xffffffffffffffffffffffffffffffffffffffff\n      and\n      dup2\n      mstore\n      0x20\n      add\n      swap1\n      dup2\n      mstore\n      0x20\n      add\n      0x00\n      keccak256\n        /* \"vinci-protocol/contracts/PtoPOrders.sol\":6614:6643  orders[_nftAddress][_tokenId] */\n      0x00\n        /* \"vinci-protocol/contracts/PtoPOrders.sol\":6634:6642  _tokenId */\n      dup7\n        /* \"vinci-protocol/contracts/PtoPOrders.sol\":6614:6643  orders[_nftAddress][_tokenId] */\n      dup2\n      mstore\n      0x20\n      add\n      swap1\n      dup2\n      mstore\n      0x20\n      add\n      0x00\n      keccak256\n        /* \"vinci-protocol/contracts/PtoPOrders.sol\":6614:6647  orders[_nftAddress][_tokenId].nft */\n      0x06\n      add\n        /* \"vinci-protocol/contracts/PtoPOrders.sol\":6614:6655  orders[_nftAddress][_tokenId].nft.nftType */\n      0x02\n      add\n      0x00\n      swap1\n      sload\n      swap1\n      0x0100\n      exp\n      swap1\n      div\n      0xff\n      and\n        /* \"vinci-protocol/contracts/PtoPOrders.sol\":6614:6673  orders[_nftAddress][_tokenId].nft.nftType == NftType.ERC721 */\n      0x02\n      dup2\n      gt\n      iszero\n      tag_206\n      jumpi\n      tag_207\n      tag_87\n      jump\t// in\n    tag_207:\n    tag_206:\n      sub\n        /* \"vinci-protocol/contracts/PtoPOrders.sol\":6611:7044  if(orders[_nftAddress][_tokenId].nft.nftType == NftType.ERC721){... */\n      tag_208\n      jumpi\n        /* \"vinci-protocol/contracts/PtoPOrders.sol\":6689:6700  IERC721 Nft */\n      0x00\n        /* \"vinci-protocol/contracts/PtoPOrders.sol\":6711:6722  _nftAddress */\n      dup6\n        /* \"vinci-protocol/contracts/PtoPOrders.sol\":6689:6723  IERC721 Nft = IERC721(_nftAddress) */\n      swap1\n      pop\n        /* \"vinci-protocol/contracts/PtoPOrders.sol\":6738:6741  Nft */\n      dup1\n        /* \"vinci-protocol/contracts/PtoPOrders.sol\":6738:6754  Nft.transferFrom */\n      0xffffffffffffffffffffffffffffffffffffffff\n      and\n      0x23b872dd\n        /* \"vinci-protocol/contracts/PtoPOrders.sol\":6755:6762  _sender */\n      dup6\n        /* \"vinci-protocol/contracts/PtoPOrders.sol\":6764:6774  _recipient */\n      dup6\n        /* \"vinci-protocol/contracts/PtoPOrders.sol\":6776:6784  _tokenId */\n      dup9\n        /* \"vinci-protocol/contracts/PtoPOrders.sol\":6738:6785  Nft.transferFrom(_sender, _recipient, _tokenId) */\n      mload(0x40)\n      dup5\n      0xffffffff\n      and\n      0xe0\n      shl\n      dup2\n      mstore\n      0x04\n      add\n      tag_209\n      swap4\n      swap3\n      swap2\n      swap1\n      tag_151\n      jump\t// in\n    tag_209:\n      0x00\n      mload(0x40)\n      dup1\n      dup4\n      sub\n      dup2\n      0x00\n      dup8\n      dup1\n      extcodesize\n      iszero\n      dup1\n      iszero\n      tag_210\n      jumpi\n      0x00\n      dup1\n      revert\n    tag_210:\n      pop\n      gas\n      call\n      iszero\n      dup1\n      iszero\n      tag_212\n      jumpi\n      returndatasize\n      0x00\n      dup1\n      returndatacopy\n      revert(0x00, returndatasize)\n    tag_212:\n      pop\n      pop\n      pop\n      pop\n        /* \"vinci-protocol/contracts/PtoPOrders.sol\":6674:6797  {... */\n      pop\n        /* \"vinci-protocol/contracts/PtoPOrders.sol\":6611:7044  if(orders[_nftAddress][_tokenId].nft.nftType == NftType.ERC721){... */\n      jump(tag_213)\n    tag_208:\n        /* \"vinci-protocol/contracts/PtoPOrders.sol\":6850:6865  NftType.ERC1155 */\n      0x01\n        /* \"vinci-protocol/contracts/PtoPOrders.sol\":6805:6865  orders[_nftAddress][_tokenId].nft.nftType == NftType.ERC1155 */\n      0x02\n      dup2\n      gt\n      iszero\n      tag_214\n      jumpi\n      tag_215\n      tag_87\n      jump\t// in\n    tag_215:\n    tag_214:\n        /* \"vinci-protocol/contracts/PtoPOrders.sol\":6805:6811  orders */\n      0x02\n        /* \"vinci-protocol/contracts/PtoPOrders.sol\":6805:6824  orders[_nftAddress] */\n      0x00\n        /* \"vinci-protocol/contracts/PtoPOrders.sol\":6812:6823  _nftAddress */\n      dup8\n        /* \"vinci-protocol/contracts/PtoPOrders.sol\":6805:6824  orders[_nftAddress] */\n      0xffffffffffffffffffffffffffffffffffffffff\n      and\n      0xffffffffffffffffffffffffffffffffffffffff\n      and\n      dup2\n      mstore\n      0x20\n      add\n      swap1\n      dup2\n      mstore\n      0x20\n      add\n      0x00\n      keccak256\n        /* \"vinci-protocol/contracts/PtoPOrders.sol\":6805:6834  orders[_nftAddress][_tokenId] */\n      0x00\n        /* \"vinci-protocol/contracts/PtoPOrders.sol\":6825:6833  _tokenId */\n      dup7\n        /* \"vinci-protocol/contracts/PtoPOrders.sol\":6805:6834  orders[_nftAddress][_tokenId] */\n      dup2\n      mstore\n      0x20\n      add\n      swap1\n      dup2\n      mstore\n      0x20\n      add\n      0x00\n      keccak256\n        /* \"vinci-protocol/contracts/PtoPOrders.sol\":6805:6838  orders[_nftAddress][_tokenId].nft */\n      0x06\n      add\n        /* \"vinci-protocol/contracts/PtoPOrders.sol\":6805:6846  orders[_nftAddress][_tokenId].nft.nftType */\n      0x02\n      add\n      0x00\n      swap1\n      sload\n      swap1\n      0x0100\n      exp\n      swap1\n      div\n      0xff\n      and\n        /* \"vinci-protocol/contracts/PtoPOrders.sol\":6805:6865  orders[_nftAddress][_tokenId].nft.nftType == NftType.ERC1155 */\n      0x02\n      dup2\n      gt\n      iszero\n      tag_216\n      jumpi\n      tag_217\n      tag_87\n      jump\t// in\n    tag_217:\n    tag_216:\n      sub\n        /* \"vinci-protocol/contracts/PtoPOrders.sol\":6802:7044  if(orders[_nftAddress][_tokenId].nft.nftType == NftType.ERC1155){... */\n      tag_218\n      jumpi\n        /* \"vinci-protocol/contracts/PtoPOrders.sol\":6881:6893  IERC1155 Nft */\n      0x00\n        /* \"vinci-protocol/contracts/PtoPOrders.sol\":6905:6916  _nftAddress */\n      dup6\n        /* \"vinci-protocol/contracts/PtoPOrders.sol\":6881:6917  IERC1155 Nft = IERC1155(_nftAddress) */\n      swap1\n      pop\n        /* \"vinci-protocol/contracts/PtoPOrders.sol\":6932:6935  Nft */\n      dup1\n        /* \"vinci-protocol/contracts/PtoPOrders.sol\":6932:6952  Nft.safeTransferFrom */\n      0xffffffffffffffffffffffffffffffffffffffff\n      and\n      0xf242432a\n        /* \"vinci-protocol/contracts/PtoPOrders.sol\":6953:6960  _sender */\n      dup6\n        /* \"vinci-protocol/contracts/PtoPOrders.sol\":6962:6972  _recipient */\n      dup6\n        /* \"vinci-protocol/contracts/PtoPOrders.sol\":6974:6982  _tokenId */\n      dup9\n        /* \"vinci-protocol/contracts/PtoPOrders.sol\":6983:6989  amount */\n      dup7\n        /* \"vinci-protocol/contracts/PtoPOrders.sol\":6932:6993  Nft.safeTransferFrom(_sender, _recipient, _tokenId,amount,\"\") */\n      mload(0x40)\n      dup6\n      0xffffffff\n      and\n      0xe0\n      shl\n      dup2\n      mstore\n      0x04\n      add\n      tag_219\n      swap5\n      swap4\n      swap3\n      swap2\n      swap1\n      tag_220\n      jump\t// in\n    tag_219:\n      0x00\n      mload(0x40)\n      dup1\n      dup4\n      sub\n      dup2\n      0x00\n      dup8\n      dup1\n      extcodesize\n      iszero\n      dup1\n      iszero\n      tag_221\n      jumpi\n      0x00\n      dup1\n      revert\n    tag_221:\n      pop\n      gas\n      call\n      iszero\n      dup1\n      iszero\n      tag_223\n      jumpi\n      returndatasize\n      0x00\n      dup1\n      returndatacopy\n      revert(0x00, returndatasize)\n    tag_223:\n      pop\n      pop\n      pop\n      pop\n        /* \"vinci-protocol/contracts/PtoPOrders.sol\":6866:7005  {... */\n      pop\n        /* \"vinci-protocol/contracts/PtoPOrders.sol\":6802:7044  if(orders[_nftAddress][_tokenId].nft.nftType == NftType.ERC1155){... */\n      jump(tag_224)\n    tag_218:\n        /* \"vinci-protocol/contracts/PtoPOrders.sol\":7024:7032  revert() */\n      0x00\n      dup1\n      revert\n        /* \"vinci-protocol/contracts/PtoPOrders.sol\":6802:7044  if(orders[_nftAddress][_tokenId].nft.nftType == NftType.ERC1155){... */\n    tag_224:\n        /* \"vinci-protocol/contracts/PtoPOrders.sol\":6611:7044  if(orders[_nftAddress][_tokenId].nft.nftType == NftType.ERC721){... */\n    tag_213:\n        /* \"vinci-protocol/contracts/PtoPOrders.sol\":6436:7051  function nftTransfer(address _nftAddress,... */\n      pop\n      pop\n      pop\n      pop\n      pop\n      jump\t// out\n        /* \"vinci-protocol/contracts/PtoPOrders.sol\":4615:4716  function getBorrowPrice(uint256 price) internal pure returns(uint256) {... */\n    tag_164:\n        /* \"vinci-protocol/contracts/PtoPOrders.sol\":4676:4683  uint256 */\n      0x00\n        /* \"vinci-protocol/contracts/PtoPOrders.sol\":4703:4708  price */\n      dup2\n        /* \"vinci-protocol/contracts/PtoPOrders.sol\":4696:4708  return price */\n      swap1\n      pop\n        /* \"vinci-protocol/contracts/PtoPOrders.sol\":4615:4716  function getBorrowPrice(uint256 price) internal pure returns(uint256) {... */\n      swap2\n      swap1\n      pop\n      jump\t// out\n    tag_80:\n      mload(0x40)\n      dup1\n      0x0100\n      add\n      0x40\n      mstore\n      dup1\n      0x00\n      dup2\n      mstore\n      0x20\n      add\n      and(0xffffffffffffffffffffffffffffffffffffffff, 0x00)\n      dup2\n      mstore\n      0x20\n      add\n      0x00\n      dup2\n      mstore\n      0x20\n      add\n      0x00\n      dup2\n      mstore\n      0x20\n      add\n      0x00\n      dup2\n      mstore\n      0x20\n      add\n      and(0xffffffffffffffffffffffffffffffffffffffff, 0x00)\n      dup2\n      mstore\n      0x20\n      add\n      tag_226\n      tag_105\n      jump\t// in\n    tag_226:\n      dup2\n      mstore\n      0x20\n      add\n      0x00\n      0x03\n      dup2\n      gt\n      iszero\n      tag_227\n      jumpi\n      tag_228\n      tag_87\n      jump\t// in\n    tag_228:\n    tag_227:\n      dup2\n      mstore\n      pop\n      swap1\n      jump\t// out\n    tag_105:\n      mload(0x40)\n      dup1\n      0x80\n      add\n      0x40\n      mstore\n      dup1\n      and(0xffffffffffffffffffffffffffffffffffffffff, 0x00)\n      dup2\n      mstore\n      0x20\n      add\n      0x00\n      dup2\n      mstore\n      0x20\n      add\n      0x00\n      0x02\n      dup2\n      gt\n      iszero\n      tag_229\n      jumpi\n      tag_230\n      tag_87\n      jump\t// in\n    tag_230:\n    tag_229:\n      dup2\n      mstore\n      0x20\n      add\n      0x00\n      dup2\n      mstore\n      pop\n      swap1\n      jump\t// out\n        /* \"#utility.yul\":88:205   */\n    tag_232:\n        /* \"#utility.yul\":197:198   */\n      0x00\n        /* \"#utility.yul\":194:195   */\n      dup1\n        /* \"#utility.yul\":187:199   */\n      revert\n        /* \"#utility.yul\":334:411   */\n    tag_234:\n        /* \"#utility.yul\":371:378   */\n      0x00\n        /* \"#utility.yul\":400:405   */\n      dup2\n        /* \"#utility.yul\":389:405   */\n      swap1\n      pop\n        /* \"#utility.yul\":334:411   */\n      swap2\n      swap1\n      pop\n      jump\t// out\n        /* \"#utility.yul\":417:539   */\n    tag_235:\n        /* \"#utility.yul\":490:514   */\n      tag_282\n        /* \"#utility.yul\":508:513   */\n      dup2\n        /* \"#utility.yul\":490:514   */\n      tag_234\n      jump\t// in\n    tag_282:\n        /* \"#utility.yul\":483:488   */\n      dup2\n        /* \"#utility.yul\":480:515   */\n      eq\n        /* \"#utility.yul\":470:533   */\n      tag_283\n      jumpi\n        /* \"#utility.yul\":529:530   */\n      0x00\n        /* \"#utility.yul\":526:527   */\n      dup1\n        /* \"#utility.yul\":519:531   */\n      revert\n        /* \"#utility.yul\":470:533   */\n    tag_283:\n        /* \"#utility.yul\":417:539   */\n      pop\n      jump\t// out\n        /* \"#utility.yul\":545:684   */\n    tag_236:\n        /* \"#utility.yul\":591:596   */\n      0x00\n        /* \"#utility.yul\":629:635   */\n      dup2\n        /* \"#utility.yul\":616:636   */\n      calldataload\n        /* \"#utility.yul\":607:636   */\n      swap1\n      pop\n        /* \"#utility.yul\":645:678   */\n      tag_285\n        /* \"#utility.yul\":672:677   */\n      dup2\n        /* \"#utility.yul\":645:678   */\n      tag_235\n      jump\t// in\n    tag_285:\n        /* \"#utility.yul\":545:684   */\n      swap3\n      swap2\n      pop\n      pop\n      jump\t// out\n        /* \"#utility.yul\":690:1164   */\n    tag_20:\n        /* \"#utility.yul\":758:764   */\n      0x00\n        /* \"#utility.yul\":766:772   */\n      dup1\n        /* \"#utility.yul\":815:817   */\n      0x40\n        /* \"#utility.yul\":803:812   */\n      dup4\n        /* \"#utility.yul\":794:801   */\n      dup6\n        /* \"#utility.yul\":790:813   */\n      sub\n        /* \"#utility.yul\":786:818   */\n      slt\n        /* \"#utility.yul\":783:902   */\n      iszero\n      tag_287\n      jumpi\n        /* \"#utility.yul\":821:900   */\n      tag_288\n      tag_232\n      jump\t// in\n    tag_288:\n        /* \"#utility.yul\":783:902   */\n    tag_287:\n        /* \"#utility.yul\":941:942   */\n      0x00\n        /* \"#utility.yul\":966:1019   */\n      tag_289\n        /* \"#utility.yul\":1011:1018   */\n      dup6\n        /* \"#utility.yul\":1002:1008   */\n      dup3\n        /* \"#utility.yul\":991:1000   */\n      dup7\n        /* \"#utility.yul\":987:1009   */\n      add\n        /* \"#utility.yul\":966:1019   */\n      tag_236\n      jump\t// in\n    tag_289:\n        /* \"#utility.yul\":956:1019   */\n      swap3\n      pop\n        /* \"#utility.yul\":912:1029   */\n      pop\n        /* \"#utility.yul\":1068:1070   */\n      0x20\n        /* \"#utility.yul\":1094:1147   */\n      tag_290\n        /* \"#utility.yul\":1139:1146   */\n      dup6\n        /* \"#utility.yul\":1130:1136   */\n      dup3\n        /* \"#utility.yul\":1119:1128   */\n      dup7\n        /* \"#utility.yul\":1115:1137   */\n      add\n        /* \"#utility.yul\":1094:1147   */\n      tag_236\n      jump\t// in\n    tag_290:\n        /* \"#utility.yul\":1084:1147   */\n      swap2\n      pop\n        /* \"#utility.yul\":1039:1157   */\n      pop\n        /* \"#utility.yul\":690:1164   */\n      swap3\n      pop\n      swap3\n      swap1\n      pop\n      jump\t// out\n        /* \"#utility.yul\":1170:1307   */\n    tag_237:\n        /* \"#utility.yul\":1260:1266   */\n      0x00\n        /* \"#utility.yul\":1294:1299   */\n      dup2\n        /* \"#utility.yul\":1288:1300   */\n      mload\n        /* \"#utility.yul\":1278:1300   */\n      swap1\n      pop\n        /* \"#utility.yul\":1170:1307   */\n      swap2\n      swap1\n      pop\n      jump\t// out\n        /* \"#utility.yul\":1313:1520   */\n    tag_238:\n        /* \"#utility.yul\":1435:1446   */\n      0x00\n        /* \"#utility.yul\":1469:1475   */\n      dup3\n        /* \"#utility.yul\":1464:1467   */\n      dup3\n        /* \"#utility.yul\":1457:1476   */\n      mstore\n        /* \"#utility.yul\":1509:1513   */\n      0x20\n        /* \"#utility.yul\":1504:1507   */\n      dup3\n        /* \"#utility.yul\":1500:1514   */\n      add\n        /* \"#utility.yul\":1485:1514   */\n      swap1\n      pop\n        /* \"#utility.yul\":1313:1520   */\n      swap3\n      swap2\n      pop\n      pop\n      jump\t// out\n        /* \"#utility.yul\":1526:1681   */\n    tag_239:\n        /* \"#utility.yul\":1616:1620   */\n      0x00\n        /* \"#utility.yul\":1639:1642   */\n      dup2\n        /* \"#utility.yul\":1631:1642   */\n      swap1\n      pop\n        /* \"#utility.yul\":1669:1673   */\n      0x20\n        /* \"#utility.yul\":1664:1667   */\n      dup3\n        /* \"#utility.yul\":1660:1674   */\n      add\n        /* \"#utility.yul\":1652:1674   */\n      swap1\n      pop\n        /* \"#utility.yul\":1526:1681   */\n      swap2\n      swap1\n      pop\n      jump\t// out\n        /* \"#utility.yul\":1687:1795   */\n    tag_240:\n        /* \"#utility.yul\":1764:1788   */\n      tag_295\n        /* \"#utility.yul\":1782:1787   */\n      dup2\n        /* \"#utility.yul\":1764:1788   */\n      tag_234\n      jump\t// in\n    tag_295:\n        /* \"#utility.yul\":1759:1762   */\n      dup3\n        /* \"#utility.yul\":1752:1789   */\n      mstore\n        /* \"#utility.yul\":1687:1795   */\n      pop\n      pop\n      jump\t// out\n        /* \"#utility.yul\":1801:1927   */\n    tag_241:\n        /* \"#utility.yul\":1838:1845   */\n      0x00\n        /* \"#utility.yul\":1878:1920   */\n      0xffffffffffffffffffffffffffffffffffffffff\n        /* \"#utility.yul\":1871:1876   */\n      dup3\n        /* \"#utility.yul\":1867:1921   */\n      and\n        /* \"#utility.yul\":1856:1921   */\n      swap1\n      pop\n        /* \"#utility.yul\":1801:1927   */\n      swap2\n      swap1\n      pop\n      jump\t// out\n        /* \"#utility.yul\":1933:2029   */\n    tag_242:\n        /* \"#utility.yul\":1970:1977   */\n      0x00\n        /* \"#utility.yul\":1999:2023   */\n      tag_298\n        /* \"#utility.yul\":2017:2022   */\n      dup3\n        /* \"#utility.yul\":1999:2023   */\n      tag_241\n      jump\t// in\n    tag_298:\n        /* \"#utility.yul\":1988:2023   */\n      swap1\n      pop\n        /* \"#utility.yul\":1933:2029   */\n      swap2\n      swap1\n      pop\n      jump\t// out\n        /* \"#utility.yul\":2035:2143   */\n    tag_243:\n        /* \"#utility.yul\":2112:2136   */\n      tag_300\n        /* \"#utility.yul\":2130:2135   */\n      dup2\n        /* \"#utility.yul\":2112:2136   */\n      tag_242\n      jump\t// in\n    tag_300:\n        /* \"#utility.yul\":2107:2110   */\n      dup3\n        /* \"#utility.yul\":2100:2137   */\n      mstore\n        /* \"#utility.yul\":2035:2143   */\n      pop\n      pop\n      jump\t// out\n        /* \"#utility.yul\":2149:2329   */\n    tag_87:\n        /* \"#utility.yul\":2197:2274   */\n      0x4e487b7100000000000000000000000000000000000000000000000000000000\n        /* \"#utility.yul\":2194:2195   */\n      0x00\n        /* \"#utility.yul\":2187:2275   */\n      mstore\n        /* \"#utility.yul\":2294:2298   */\n      0x21\n        /* \"#utility.yul\":2291:2292   */\n      0x04\n        /* \"#utility.yul\":2284:2299   */\n      mstore\n        /* \"#utility.yul\":2318:2322   */\n      0x24\n        /* \"#utility.yul\":2315:2316   */\n      0x00\n        /* \"#utility.yul\":2308:2323   */\n      revert\n        /* \"#utility.yul\":2335:2452   */\n    tag_244:\n        /* \"#utility.yul\":2420:2421   */\n      0x03\n        /* \"#utility.yul\":2413:2418   */\n      dup2\n        /* \"#utility.yul\":2410:2422   */\n      lt\n        /* \"#utility.yul\":2400:2446   */\n      tag_303\n      jumpi\n        /* \"#utility.yul\":2426:2444   */\n      tag_304\n      tag_87\n      jump\t// in\n    tag_304:\n        /* \"#utility.yul\":2400:2446   */\n    tag_303:\n        /* \"#utility.yul\":2335:2452   */\n      pop\n      jump\t// out\n        /* \"#utility.yul\":2458:2593   */\n    tag_245:\n        /* \"#utility.yul\":2507:2514   */\n      0x00\n        /* \"#utility.yul\":2536:2541   */\n      dup2\n        /* \"#utility.yul\":2525:2541   */\n      swap1\n      pop\n        /* \"#utility.yul\":2542:2587   */\n      tag_306\n        /* \"#utility.yul\":2581:2586   */\n      dup3\n        /* \"#utility.yul\":2542:2587   */\n      tag_244\n      jump\t// in\n    tag_306:\n        /* \"#utility.yul\":2458:2593   */\n      swap2\n      swap1\n      pop\n      jump\t// out\n        /* \"#utility.yul\":2599:2734   */\n    tag_246:\n        /* \"#utility.yul\":2659:2668   */\n      0x00\n        /* \"#utility.yul\":2692:2728   */\n      tag_308\n        /* \"#utility.yul\":2722:2727   */\n      dup3\n        /* \"#utility.yul\":2692:2728   */\n      tag_245\n      jump\t// in\n    tag_308:\n        /* \"#utility.yul\":2679:2728   */\n      swap1\n      pop\n        /* \"#utility.yul\":2599:2734   */\n      swap2\n      swap1\n      pop\n      jump\t// out\n        /* \"#utility.yul\":2740:2881   */\n    tag_247:\n        /* \"#utility.yul\":2827:2874   */\n      tag_310\n        /* \"#utility.yul\":2868:2873   */\n      dup2\n        /* \"#utility.yul\":2827:2874   */\n      tag_246\n      jump\t// in\n    tag_310:\n        /* \"#utility.yul\":2822:2825   */\n      dup3\n        /* \"#utility.yul\":2815:2875   */\n      mstore\n        /* \"#utility.yul\":2740:2881   */\n      pop\n      pop\n      jump\t// out\n        /* \"#utility.yul\":2929:3790   */\n    tag_248:\n        /* \"#utility.yul\":3058:3062   */\n      0x80\n        /* \"#utility.yul\":3053:3056   */\n      dup3\n        /* \"#utility.yul\":3049:3063   */\n      add\n        /* \"#utility.yul\":3151:3155   */\n      0x00\n        /* \"#utility.yul\":3144:3149   */\n      dup3\n        /* \"#utility.yul\":3140:3156   */\n      add\n        /* \"#utility.yul\":3134:3157   */\n      mload\n        /* \"#utility.yul\":3170:3233   */\n      tag_312\n        /* \"#utility.yul\":3227:3231   */\n      0x00\n        /* \"#utility.yul\":3222:3225   */\n      dup6\n        /* \"#utility.yul\":3218:3232   */\n      add\n        /* \"#utility.yul\":3204:3216   */\n      dup3\n        /* \"#utility.yul\":3170:3233   */\n      tag_243\n      jump\t// in\n    tag_312:\n        /* \"#utility.yul\":3073:3243   */\n      pop\n        /* \"#utility.yul\":3328:3332   */\n      0x20\n        /* \"#utility.yul\":3321:3326   */\n      dup3\n        /* \"#utility.yul\":3317:3333   */\n      add\n        /* \"#utility.yul\":3311:3334   */\n      mload\n        /* \"#utility.yul\":3347:3410   */\n      tag_313\n        /* \"#utility.yul\":3404:3408   */\n      0x20\n        /* \"#utility.yul\":3399:3402   */\n      dup6\n        /* \"#utility.yul\":3395:3409   */\n      add\n        /* \"#utility.yul\":3381:3393   */\n      dup3\n        /* \"#utility.yul\":3347:3410   */\n      tag_240\n      jump\t// in\n    tag_313:\n        /* \"#utility.yul\":3253:3420   */\n      pop\n        /* \"#utility.yul\":3505:3509   */\n      0x40\n        /* \"#utility.yul\":3498:3503   */\n      dup3\n        /* \"#utility.yul\":3494:3510   */\n      add\n        /* \"#utility.yul\":3488:3511   */\n      mload\n        /* \"#utility.yul\":3524:3597   */\n      tag_314\n        /* \"#utility.yul\":3591:3595   */\n      0x40\n        /* \"#utility.yul\":3586:3589   */\n      dup6\n        /* \"#utility.yul\":3582:3596   */\n      add\n        /* \"#utility.yul\":3568:3580   */\n      dup3\n        /* \"#utility.yul\":3524:3597   */\n      tag_247\n      jump\t// in\n    tag_314:\n        /* \"#utility.yul\":3430:3607   */\n      pop\n        /* \"#utility.yul\":3691:3695   */\n      0x60\n        /* \"#utility.yul\":3684:3689   */\n      dup3\n        /* \"#utility.yul\":3680:3696   */\n      add\n        /* \"#utility.yul\":3674:3697   */\n      mload\n        /* \"#utility.yul\":3710:3773   */\n      tag_315\n        /* \"#utility.yul\":3767:3771   */\n      0x60\n        /* \"#utility.yul\":3762:3765   */\n      dup6\n        /* \"#utility.yul\":3758:3772   */\n      add\n        /* \"#utility.yul\":3744:3756   */\n      dup3\n        /* \"#utility.yul\":3710:3773   */\n      tag_240\n      jump\t// in\n    tag_315:\n        /* \"#utility.yul\":3617:3783   */\n      pop\n        /* \"#utility.yul\":3027:3790   */\n      pop\n        /* \"#utility.yul\":2929:3790   */\n      pop\n      pop\n      jump\t// out\n        /* \"#utility.yul\":3796:3912   */\n    tag_249:\n        /* \"#utility.yul\":3880:3881   */\n      0x04\n        /* \"#utility.yul\":3873:3878   */\n      dup2\n        /* \"#utility.yul\":3870:3882   */\n      lt\n        /* \"#utility.yul\":3860:3906   */\n      tag_317\n      jumpi\n        /* \"#utility.yul\":3886:3904   */\n      tag_318\n      tag_87\n      jump\t// in\n    tag_318:\n        /* \"#utility.yul\":3860:3906   */\n    tag_317:\n        /* \"#utility.yul\":3796:3912   */\n      pop\n      jump\t// out\n        /* \"#utility.yul\":3918:4051   */\n    tag_250:\n        /* \"#utility.yul\":3966:3973   */\n      0x00\n        /* \"#utility.yul\":3995:4000   */\n      dup2\n        /* \"#utility.yul\":3984:4000   */\n      swap1\n      pop\n        /* \"#utility.yul\":4001:4045   */\n      tag_320\n        /* \"#utility.yul\":4039:4044   */\n      dup3\n        /* \"#utility.yul\":4001:4045   */\n      tag_249\n      jump\t// in\n    tag_320:\n        /* \"#utility.yul\":3918:4051   */\n      swap2\n      swap1\n      pop\n      jump\t// out\n        /* \"#utility.yul\":4057:4190   */\n    tag_251:\n        /* \"#utility.yul\":4116:4125   */\n      0x00\n        /* \"#utility.yul\":4149:4184   */\n      tag_322\n        /* \"#utility.yul\":4178:4183   */\n      dup3\n        /* \"#utility.yul\":4149:4184   */\n      tag_250\n      jump\t// in\n    tag_322:\n        /* \"#utility.yul\":4136:4184   */\n      swap1\n      pop\n        /* \"#utility.yul\":4057:4190   */\n      swap2\n      swap1\n      pop\n      jump\t// out\n        /* \"#utility.yul\":4196:4335   */\n    tag_252:\n        /* \"#utility.yul\":4282:4328   */\n      tag_324\n        /* \"#utility.yul\":4322:4327   */\n      dup2\n        /* \"#utility.yul\":4282:4328   */\n      tag_251\n      jump\t// in\n    tag_324:\n        /* \"#utility.yul\":4277:4280   */\n      dup3\n        /* \"#utility.yul\":4270:4329   */\n      mstore\n        /* \"#utility.yul\":4196:4335   */\n      pop\n      pop\n      jump\t// out\n        /* \"#utility.yul\":4387:6003   */\n    tag_253:\n        /* \"#utility.yul\":4520:4526   */\n      0x0160\n        /* \"#utility.yul\":4515:4518   */\n      dup3\n        /* \"#utility.yul\":4511:4527   */\n      add\n        /* \"#utility.yul\":4616:4620   */\n      0x00\n        /* \"#utility.yul\":4609:4614   */\n      dup3\n        /* \"#utility.yul\":4605:4621   */\n      add\n        /* \"#utility.yul\":4599:4622   */\n      mload\n        /* \"#utility.yul\":4635:4698   */\n      tag_326\n        /* \"#utility.yul\":4692:4696   */\n      0x00\n        /* \"#utility.yul\":4687:4690   */\n      dup6\n        /* \"#utility.yul\":4683:4697   */\n      add\n        /* \"#utility.yul\":4669:4681   */\n      dup3\n        /* \"#utility.yul\":4635:4698   */\n      tag_240\n      jump\t// in\n    tag_326:\n        /* \"#utility.yul\":4537:4708   */\n      pop\n        /* \"#utility.yul\":4794:4798   */\n      0x20\n        /* \"#utility.yul\":4787:4792   */\n      dup3\n        /* \"#utility.yul\":4783:4799   */\n      add\n        /* \"#utility.yul\":4777:4800   */\n      mload\n        /* \"#utility.yul\":4813:4876   */\n      tag_327\n        /* \"#utility.yul\":4870:4874   */\n      0x20\n        /* \"#utility.yul\":4865:4868   */\n      dup6\n        /* \"#utility.yul\":4861:4875   */\n      add\n        /* \"#utility.yul\":4847:4859   */\n      dup3\n        /* \"#utility.yul\":4813:4876   */\n      tag_243\n      jump\t// in\n    tag_327:\n        /* \"#utility.yul\":4718:4886   */\n      pop\n        /* \"#utility.yul\":4969:4973   */\n      0x40\n        /* \"#utility.yul\":4962:4967   */\n      dup3\n        /* \"#utility.yul\":4958:4974   */\n      add\n        /* \"#utility.yul\":4952:4975   */\n      mload\n        /* \"#utility.yul\":4988:5051   */\n      tag_328\n        /* \"#utility.yul\":5045:5049   */\n      0x40\n        /* \"#utility.yul\":5040:5043   */\n      dup6\n        /* \"#utility.yul\":5036:5050   */\n      add\n        /* \"#utility.yul\":5022:5034   */\n      dup3\n        /* \"#utility.yul\":4988:5051   */\n      tag_240\n      jump\t// in\n    tag_328:\n        /* \"#utility.yul\":4896:5061   */\n      pop\n        /* \"#utility.yul\":5147:5151   */\n      0x60\n        /* \"#utility.yul\":5140:5145   */\n      dup3\n        /* \"#utility.yul\":5136:5152   */\n      add\n        /* \"#utility.yul\":5130:5153   */\n      mload\n        /* \"#utility.yul\":5166:5229   */\n      tag_329\n        /* \"#utility.yul\":5223:5227   */\n      0x60\n        /* \"#utility.yul\":5218:5221   */\n      dup6\n        /* \"#utility.yul\":5214:5228   */\n      add\n        /* \"#utility.yul\":5200:5212   */\n      dup3\n        /* \"#utility.yul\":5166:5229   */\n      tag_240\n      jump\t// in\n    tag_329:\n        /* \"#utility.yul\":5071:5239   */\n      pop\n        /* \"#utility.yul\":5327:5331   */\n      0x80\n        /* \"#utility.yul\":5320:5325   */\n      dup3\n        /* \"#utility.yul\":5316:5332   */\n      add\n        /* \"#utility.yul\":5310:5333   */\n      mload\n        /* \"#utility.yul\":5346:5409   */\n      tag_330\n        /* \"#utility.yul\":5403:5407   */\n      0x80\n        /* \"#utility.yul\":5398:5401   */\n      dup6\n        /* \"#utility.yul\":5394:5408   */\n      add\n        /* \"#utility.yul\":5380:5392   */\n      dup3\n        /* \"#utility.yul\":5346:5409   */\n      tag_240\n      jump\t// in\n    tag_330:\n        /* \"#utility.yul\":5249:5419   */\n      pop\n        /* \"#utility.yul\":5503:5507   */\n      0xa0\n        /* \"#utility.yul\":5496:5501   */\n      dup3\n        /* \"#utility.yul\":5492:5508   */\n      add\n        /* \"#utility.yul\":5486:5509   */\n      mload\n        /* \"#utility.yul\":5522:5585   */\n      tag_331\n        /* \"#utility.yul\":5579:5583   */\n      0xa0\n        /* \"#utility.yul\":5574:5577   */\n      dup6\n        /* \"#utility.yul\":5570:5584   */\n      add\n        /* \"#utility.yul\":5556:5568   */\n      dup3\n        /* \"#utility.yul\":5522:5585   */\n      tag_243\n      jump\t// in\n    tag_331:\n        /* \"#utility.yul\":5429:5595   */\n      pop\n        /* \"#utility.yul\":5676:5680   */\n      0xc0\n        /* \"#utility.yul\":5669:5674   */\n      dup3\n        /* \"#utility.yul\":5665:5681   */\n      add\n        /* \"#utility.yul\":5659:5682   */\n      mload\n        /* \"#utility.yul\":5695:5800   */\n      tag_332\n        /* \"#utility.yul\":5794:5798   */\n      0xc0\n        /* \"#utility.yul\":5789:5792   */\n      dup6\n        /* \"#utility.yul\":5785:5799   */\n      add\n        /* \"#utility.yul\":5771:5783   */\n      dup3\n        /* \"#utility.yul\":5695:5800   */\n      tag_248\n      jump\t// in\n    tag_332:\n        /* \"#utility.yul\":5605:5810   */\n      pop\n        /* \"#utility.yul\":5893:5897   */\n      0xe0\n        /* \"#utility.yul\":5886:5891   */\n      dup3\n        /* \"#utility.yul\":5882:5898   */\n      add\n        /* \"#utility.yul\":5876:5899   */\n      mload\n        /* \"#utility.yul\":5912:5986   */\n      tag_333\n        /* \"#utility.yul\":5978:5984   */\n      0x0140\n        /* \"#utility.yul\":5973:5976   */\n      dup6\n        /* \"#utility.yul\":5969:5985   */\n      add\n        /* \"#utility.yul\":5955:5967   */\n      dup3\n        /* \"#utility.yul\":5912:5986   */\n      tag_252\n      jump\t// in\n    tag_333:\n        /* \"#utility.yul\":5820:5996   */\n      pop\n        /* \"#utility.yul\":4489:6003   */\n      pop\n        /* \"#utility.yul\":4387:6003   */\n      pop\n      pop\n      jump\t// out\n        /* \"#utility.yul\":6009:6282   */\n    tag_254:\n        /* \"#utility.yul\":6124:6134   */\n      0x00\n        /* \"#utility.yul\":6145:6237   */\n      tag_335\n        /* \"#utility.yul\":6233:6236   */\n      dup4\n        /* \"#utility.yul\":6225:6231   */\n      dup4\n        /* \"#utility.yul\":6145:6237   */\n      tag_253\n      jump\t// in\n    tag_335:\n        /* \"#utility.yul\":6269:6275   */\n      0x0160\n        /* \"#utility.yul\":6264:6267   */\n      dup4\n        /* \"#utility.yul\":6260:6276   */\n      add\n        /* \"#utility.yul\":6246:6276   */\n      swap1\n      pop\n        /* \"#utility.yul\":6009:6282   */\n      swap3\n      swap2\n      pop\n      pop\n      jump\t// out\n        /* \"#utility.yul\":6288:6424   */\n    tag_255:\n        /* \"#utility.yul\":6381:6385   */\n      0x00\n        /* \"#utility.yul\":6413:6417   */\n      0x20\n        /* \"#utility.yul\":6408:6411   */\n      dup3\n        /* \"#utility.yul\":6404:6418   */\n      add\n        /* \"#utility.yul\":6396:6418   */\n      swap1\n      pop\n        /* \"#utility.yul\":6288:6424   */\n      swap2\n      swap1\n      pop\n      jump\t// out\n        /* \"#utility.yul\":6480:7396   */\n    tag_256:\n        /* \"#utility.yul\":6645:6648   */\n      0x00\n        /* \"#utility.yul\":6674:6751   */\n      tag_338\n        /* \"#utility.yul\":6745:6750   */\n      dup3\n        /* \"#utility.yul\":6674:6751   */\n      tag_237\n      jump\t// in\n    tag_338:\n        /* \"#utility.yul\":6767:6876   */\n      tag_339\n        /* \"#utility.yul\":6869:6875   */\n      dup2\n        /* \"#utility.yul\":6864:6867   */\n      dup6\n        /* \"#utility.yul\":6767:6876   */\n      tag_238\n      jump\t// in\n    tag_339:\n        /* \"#utility.yul\":6760:6876   */\n      swap4\n      pop\n        /* \"#utility.yul\":6900:6979   */\n      tag_340\n        /* \"#utility.yul\":6973:6978   */\n      dup4\n        /* \"#utility.yul\":6900:6979   */\n      tag_239\n      jump\t// in\n    tag_340:\n        /* \"#utility.yul\":7002:7009   */\n      dup1\n        /* \"#utility.yul\":7033:7034   */\n      0x00\n        /* \"#utility.yul\":7018:7371   */\n    tag_341:\n        /* \"#utility.yul\":7043:7049   */\n      dup4\n        /* \"#utility.yul\":7040:7041   */\n      dup2\n        /* \"#utility.yul\":7037:7050   */\n      lt\n        /* \"#utility.yul\":7018:7371   */\n      iszero\n      tag_343\n      jumpi\n        /* \"#utility.yul\":7119:7125   */\n      dup2\n        /* \"#utility.yul\":7113:7126   */\n      mload\n        /* \"#utility.yul\":7146:7255   */\n      tag_344\n        /* \"#utility.yul\":7251:7254   */\n      dup9\n        /* \"#utility.yul\":7236:7249   */\n      dup3\n        /* \"#utility.yul\":7146:7255   */\n      tag_254\n      jump\t// in\n    tag_344:\n        /* \"#utility.yul\":7139:7255   */\n      swap8\n      pop\n        /* \"#utility.yul\":7278:7361   */\n      tag_345\n        /* \"#utility.yul\":7354:7360   */\n      dup4\n        /* \"#utility.yul\":7278:7361   */\n      tag_255\n      jump\t// in\n    tag_345:\n        /* \"#utility.yul\":7268:7361   */\n      swap3\n      pop\n        /* \"#utility.yul\":7078:7371   */\n      pop\n        /* \"#utility.yul\":7065:7066   */\n      0x01\n        /* \"#utility.yul\":7062:7063   */\n      dup2\n        /* \"#utility.yul\":7058:7067   */\n      add\n        /* \"#utility.yul\":7053:7067   */\n      swap1\n      pop\n        /* \"#utility.yul\":7018:7371   */\n      jump(tag_341)\n    tag_343:\n        /* \"#utility.yul\":7022:7036   */\n      pop\n        /* \"#utility.yul\":7387:7390   */\n      dup6\n        /* \"#utility.yul\":7380:7390   */\n      swap4\n      pop\n        /* \"#utility.yul\":6650:7396   */\n      pop\n      pop\n      pop\n        /* \"#utility.yul\":6480:7396   */\n      swap3\n      swap2\n      pop\n      pop\n      jump\t// out\n        /* \"#utility.yul\":7402:7867   */\n    tag_23:\n        /* \"#utility.yul\":7591:7595   */\n      0x00\n        /* \"#utility.yul\":7629:7631   */\n      0x20\n        /* \"#utility.yul\":7618:7627   */\n      dup3\n        /* \"#utility.yul\":7614:7632   */\n      add\n        /* \"#utility.yul\":7606:7632   */\n      swap1\n      pop\n        /* \"#utility.yul\":7678:7687   */\n      dup2\n        /* \"#utility.yul\":7672:7676   */\n      dup2\n        /* \"#utility.yul\":7668:7688   */\n      sub\n        /* \"#utility.yul\":7664:7665   */\n      0x00\n        /* \"#utility.yul\":7653:7662   */\n      dup4\n        /* \"#utility.yul\":7649:7666   */\n      add\n        /* \"#utility.yul\":7642:7689   */\n      mstore\n        /* \"#utility.yul\":7706:7860   */\n      tag_347\n        /* \"#utility.yul\":7855:7859   */\n      dup2\n        /* \"#utility.yul\":7846:7852   */\n      dup5\n        /* \"#utility.yul\":7706:7860   */\n      tag_256\n      jump\t// in\n    tag_347:\n        /* \"#utility.yul\":7698:7860   */\n      swap1\n      pop\n        /* \"#utility.yul\":7402:7867   */\n      swap3\n      swap2\n      pop\n      pop\n      jump\t// out\n        /* \"#utility.yul\":7873:8202   */\n    tag_26:\n        /* \"#utility.yul\":7932:7938   */\n      0x00\n        /* \"#utility.yul\":7981:7983   */\n      0x20\n        /* \"#utility.yul\":7969:7978   */\n      dup3\n        /* \"#utility.yul\":7960:7967   */\n      dup5\n        /* \"#utility.yul\":7956:7979   */\n      sub\n        /* \"#utility.yul\":7952:7984   */\n      slt\n        /* \"#utility.yul\":7949:8068   */\n      iszero\n      tag_349\n      jumpi\n        /* \"#utility.yul\":7987:8066   */\n      tag_350\n      tag_232\n      jump\t// in\n    tag_350:\n        /* \"#utility.yul\":7949:8068   */\n    tag_349:\n        /* \"#utility.yul\":8107:8108   */\n      0x00\n        /* \"#utility.yul\":8132:8185   */\n      tag_351\n        /* \"#utility.yul\":8177:8184   */\n      dup5\n        /* \"#utility.yul\":8168:8174   */\n      dup3\n        /* \"#utility.yul\":8157:8166   */\n      dup6\n        /* \"#utility.yul\":8153:8175   */\n      add\n        /* \"#utility.yul\":8132:8185   */\n      tag_236\n      jump\t// in\n    tag_351:\n        /* \"#utility.yul\":8122:8185   */\n      swap2\n      pop\n        /* \"#utility.yul\":8078:8195   */\n      pop\n        /* \"#utility.yul\":7873:8202   */\n      swap3\n      swap2\n      pop\n      pop\n      jump\t// out\n        /* \"#utility.yul\":8208:8326   */\n    tag_257:\n        /* \"#utility.yul\":8295:8319   */\n      tag_353\n        /* \"#utility.yul\":8313:8318   */\n      dup2\n        /* \"#utility.yul\":8295:8319   */\n      tag_234\n      jump\t// in\n    tag_353:\n        /* \"#utility.yul\":8290:8293   */\n      dup3\n        /* \"#utility.yul\":8283:8320   */\n      mstore\n        /* \"#utility.yul\":8208:8326   */\n      pop\n      pop\n      jump\t// out\n        /* \"#utility.yul\":8332:8554   */\n    tag_29:\n        /* \"#utility.yul\":8425:8429   */\n      0x00\n        /* \"#utility.yul\":8463:8465   */\n      0x20\n        /* \"#utility.yul\":8452:8461   */\n      dup3\n        /* \"#utility.yul\":8448:8466   */\n      add\n        /* \"#utility.yul\":8440:8466   */\n      swap1\n      pop\n        /* \"#utility.yul\":8476:8547   */\n      tag_355\n        /* \"#utility.yul\":8544:8545   */\n      0x00\n        /* \"#utility.yul\":8533:8542   */\n      dup4\n        /* \"#utility.yul\":8529:8546   */\n      add\n        /* \"#utility.yul\":8520:8526   */\n      dup5\n        /* \"#utility.yul\":8476:8547   */\n      tag_257\n      jump\t// in\n    tag_355:\n        /* \"#utility.yul\":8332:8554   */\n      swap3\n      swap2\n      pop\n      pop\n      jump\t// out\n        /* \"#utility.yul\":8560:8682   */\n    tag_258:\n        /* \"#utility.yul\":8633:8657   */\n      tag_357\n        /* \"#utility.yul\":8651:8656   */\n      dup2\n        /* \"#utility.yul\":8633:8657   */\n      tag_242\n      jump\t// in\n    tag_357:\n        /* \"#utility.yul\":8626:8631   */\n      dup2\n        /* \"#utility.yul\":8623:8658   */\n      eq\n        /* \"#utility.yul\":8613:8676   */\n      tag_358\n      jumpi\n        /* \"#utility.yul\":8672:8673   */\n      0x00\n        /* \"#utility.yul\":8669:8670   */\n      dup1\n        /* \"#utility.yul\":8662:8674   */\n      revert\n        /* \"#utility.yul\":8613:8676   */\n    tag_358:\n        /* \"#utility.yul\":8560:8682   */\n      pop\n      jump\t// out\n        /* \"#utility.yul\":8688:8827   */\n    tag_259:\n        /* \"#utility.yul\":8734:8739   */\n      0x00\n        /* \"#utility.yul\":8772:8778   */\n      dup2\n        /* \"#utility.yul\":8759:8779   */\n      calldataload\n        /* \"#utility.yul\":8750:8779   */\n      swap1\n      pop\n        /* \"#utility.yul\":8788:8821   */\n      tag_360\n        /* \"#utility.yul\":8815:8820   */\n      dup2\n        /* \"#utility.yul\":8788:8821   */\n      tag_258\n      jump\t// in\n    tag_360:\n        /* \"#utility.yul\":8688:8827   */\n      swap3\n      swap2\n      pop\n      pop\n      jump\t// out\n        /* \"#utility.yul\":8833:9307   */\n    tag_32:\n        /* \"#utility.yul\":8901:8907   */\n      0x00\n        /* \"#utility.yul\":8909:8915   */\n      dup1\n        /* \"#utility.yul\":8958:8960   */\n      0x40\n        /* \"#utility.yul\":8946:8955   */\n      dup4\n        /* \"#utility.yul\":8937:8944   */\n      dup6\n        /* \"#utility.yul\":8933:8956   */\n      sub\n        /* \"#utility.yul\":8929:8961   */\n      slt\n        /* \"#utility.yul\":8926:9045   */\n      iszero\n      tag_362\n      jumpi\n        /* \"#utility.yul\":8964:9043   */\n      tag_363\n      tag_232\n      jump\t// in\n    tag_363:\n        /* \"#utility.yul\":8926:9045   */\n    tag_362:\n        /* \"#utility.yul\":9084:9085   */\n      0x00\n        /* \"#utility.yul\":9109:9162   */\n      tag_364\n        /* \"#utility.yul\":9154:9161   */\n      dup6\n        /* \"#utility.yul\":9145:9151   */\n      dup3\n        /* \"#utility.yul\":9134:9143   */\n      dup7\n        /* \"#utility.yul\":9130:9152   */\n      add\n        /* \"#utility.yul\":9109:9162   */\n      tag_259\n      jump\t// in\n    tag_364:\n        /* \"#utility.yul\":9099:9162   */\n      swap3\n      pop\n        /* \"#utility.yul\":9055:9172   */\n      pop\n        /* \"#utility.yul\":9211:9213   */\n      0x20\n        /* \"#utility.yul\":9237:9290   */\n      tag_365\n        /* \"#utility.yul\":9282:9289   */\n      dup6\n        /* \"#utility.yul\":9273:9279   */\n      dup3\n        /* \"#utility.yul\":9262:9271   */\n      dup7\n        /* \"#utility.yul\":9258:9280   */\n      add\n        /* \"#utility.yul\":9237:9290   */\n      tag_236\n      jump\t// in\n    tag_365:\n        /* \"#utility.yul\":9227:9290   */\n      swap2\n      pop\n        /* \"#utility.yul\":9182:9300   */\n      pop\n        /* \"#utility.yul\":8833:9307   */\n      swap3\n      pop\n      swap3\n      swap1\n      pop\n      jump\t// out\n        /* \"#utility.yul\":9313:10224   */\n    tag_37:\n        /* \"#utility.yul\":9408:9414   */\n      0x00\n        /* \"#utility.yul\":9416:9422   */\n      dup1\n        /* \"#utility.yul\":9424:9430   */\n      0x00\n        /* \"#utility.yul\":9432:9438   */\n      dup1\n        /* \"#utility.yul\":9440:9446   */\n      0x00\n        /* \"#utility.yul\":9489:9492   */\n      0xa0\n        /* \"#utility.yul\":9477:9486   */\n      dup7\n        /* \"#utility.yul\":9468:9475   */\n      dup9\n        /* \"#utility.yul\":9464:9487   */\n      sub\n        /* \"#utility.yul\":9460:9493   */\n      slt\n        /* \"#utility.yul\":9457:9577   */\n      iszero\n      tag_367\n      jumpi\n        /* \"#utility.yul\":9496:9575   */\n      tag_368\n      tag_232\n      jump\t// in\n    tag_368:\n        /* \"#utility.yul\":9457:9577   */\n    tag_367:\n        /* \"#utility.yul\":9616:9617   */\n      0x00\n        /* \"#utility.yul\":9641:9694   */\n      tag_369\n        /* \"#utility.yul\":9686:9693   */\n      dup9\n        /* \"#utility.yul\":9677:9683   */\n      dup3\n        /* \"#utility.yul\":9666:9675   */\n      dup10\n        /* \"#utility.yul\":9662:9684   */\n      add\n        /* \"#utility.yul\":9641:9694   */\n      tag_259\n      jump\t// in\n    tag_369:\n        /* \"#utility.yul\":9631:9694   */\n      swap6\n      pop\n        /* \"#utility.yul\":9587:9704   */\n      pop\n        /* \"#utility.yul\":9743:9745   */\n      0x20\n        /* \"#utility.yul\":9769:9822   */\n      tag_370\n        /* \"#utility.yul\":9814:9821   */\n      dup9\n        /* \"#utility.yul\":9805:9811   */\n      dup3\n        /* \"#utility.yul\":9794:9803   */\n      dup10\n        /* \"#utility.yul\":9790:9812   */\n      add\n        /* \"#utility.yul\":9769:9822   */\n      tag_236\n      jump\t// in\n    tag_370:\n        /* \"#utility.yul\":9759:9822   */\n      swap5\n      pop\n        /* \"#utility.yul\":9714:9832   */\n      pop\n        /* \"#utility.yul\":9871:9873   */\n      0x40\n        /* \"#utility.yul\":9897:9950   */\n      tag_371\n        /* \"#utility.yul\":9942:9949   */\n      dup9\n        /* \"#utility.yul\":9933:9939   */\n      dup3\n        /* \"#utility.yul\":9922:9931   */\n      dup10\n        /* \"#utility.yul\":9918:9940   */\n      add\n        /* \"#utility.yul\":9897:9950   */\n      tag_236\n      jump\t// in\n    tag_371:\n        /* \"#utility.yul\":9887:9950   */\n      swap4\n      pop\n        /* \"#utility.yul\":9842:9960   */\n      pop\n        /* \"#utility.yul\":9999:10001   */\n      0x60\n        /* \"#utility.yul\":10025:10078   */\n      tag_372\n        /* \"#utility.yul\":10070:10077   */\n      dup9\n        /* \"#utility.yul\":10061:10067   */\n      dup3\n        /* \"#utility.yul\":10050:10059   */\n      dup10\n        /* \"#utility.yul\":10046:10068   */\n      add\n        /* \"#utility.yul\":10025:10078   */\n      tag_236\n      jump\t// in\n    tag_372:\n        /* \"#utility.yul\":10015:10078   */\n      swap3\n      pop\n        /* \"#utility.yul\":9970:10088   */\n      pop\n        /* \"#utility.yul\":10127:10130   */\n      0x80\n        /* \"#utility.yul\":10154:10207   */\n      tag_373\n        /* \"#utility.yul\":10199:10206   */\n      dup9\n        /* \"#utility.yul\":10190:10196   */\n      dup3\n        /* \"#utility.yul\":10179:10188   */\n      dup10\n        /* \"#utility.yul\":10175:10197   */\n      add\n        /* \"#utility.yul\":10154:10207   */\n      tag_236\n      jump\t// in\n    tag_373:\n        /* \"#utility.yul\":10144:10207   */\n      swap2\n      pop\n        /* \"#utility.yul\":10098:10217   */\n      pop\n        /* \"#utility.yul\":9313:10224   */\n      swap3\n      swap6\n      pop\n      swap3\n      swap6\n      swap1\n      swap4\n      pop\n      jump\t// out\n        /* \"#utility.yul\":10230:10849   */\n    tag_41:\n        /* \"#utility.yul\":10307:10313   */\n      0x00\n        /* \"#utility.yul\":10315:10321   */\n      dup1\n        /* \"#utility.yul\":10323:10329   */\n      0x00\n        /* \"#utility.yul\":10372:10374   */\n      0x60\n        /* \"#utility.yul\":10360:10369   */\n      dup5\n        /* \"#utility.yul\":10351:10358   */\n      dup7\n        /* \"#utility.yul\":10347:10370   */\n      sub\n        /* \"#utility.yul\":10343:10375   */\n      slt\n        /* \"#utility.yul\":10340:10459   */\n      iszero\n      tag_375\n      jumpi\n        /* \"#utility.yul\":10378:10457   */\n      tag_376\n      tag_232\n      jump\t// in\n    tag_376:\n        /* \"#utility.yul\":10340:10459   */\n    tag_375:\n        /* \"#utility.yul\":10498:10499   */\n      0x00\n        /* \"#utility.yul\":10523:10576   */\n      tag_377\n        /* \"#utility.yul\":10568:10575   */\n      dup7\n        /* \"#utility.yul\":10559:10565   */\n      dup3\n        /* \"#utility.yul\":10548:10557   */\n      dup8\n        /* \"#utility.yul\":10544:10566   */\n      add\n        /* \"#utility.yul\":10523:10576   */\n      tag_259\n      jump\t// in\n    tag_377:\n        /* \"#utility.yul\":10513:10576   */\n      swap4\n      pop\n        /* \"#utility.yul\":10469:10586   */\n      pop\n        /* \"#utility.yul\":10625:10627   */\n      0x20\n        /* \"#utility.yul\":10651:10704   */\n      tag_378\n        /* \"#utility.yul\":10696:10703   */\n      dup7\n        /* \"#utility.yul\":10687:10693   */\n      dup3\n        /* \"#utility.yul\":10676:10685   */\n      dup8\n        /* \"#utility.yul\":10672:10694   */\n      add\n        /* \"#utility.yul\":10651:10704   */\n      tag_236\n      jump\t// in\n    tag_378:\n        /* \"#utility.yul\":10641:10704   */\n      swap3\n      pop\n        /* \"#utility.yul\":10596:10714   */\n      pop\n        /* \"#utility.yul\":10753:10755   */\n      0x40\n        /* \"#utility.yul\":10779:10832   */\n      tag_379\n        /* \"#utility.yul\":10824:10831   */\n      dup7\n        /* \"#utility.yul\":10815:10821   */\n      dup3\n        /* \"#utility.yul\":10804:10813   */\n      dup8\n        /* \"#utility.yul\":10800:10822   */\n      add\n        /* \"#utility.yul\":10779:10832   */\n      tag_236\n      jump\t// in\n    tag_379:\n        /* \"#utility.yul\":10769:10832   */\n      swap2\n      pop\n        /* \"#utility.yul\":10724:10842   */\n      pop\n        /* \"#utility.yul\":10230:10849   */\n      swap3\n      pop\n      swap3\n      pop\n      swap3\n      jump\t// out\n        /* \"#utility.yul\":10855:10973   */\n    tag_260:\n        /* \"#utility.yul\":10942:10966   */\n      tag_381\n        /* \"#utility.yul\":10960:10965   */\n      dup2\n        /* \"#utility.yul\":10942:10966   */\n      tag_242\n      jump\t// in\n    tag_381:\n        /* \"#utility.yul\":10937:10940   */\n      dup3\n        /* \"#utility.yul\":10930:10967   */\n      mstore\n        /* \"#utility.yul\":10855:10973   */\n      pop\n      pop\n      jump\t// out\n        /* \"#utility.yul\":10979:11201   */\n    tag_47:\n        /* \"#utility.yul\":11072:11076   */\n      0x00\n        /* \"#utility.yul\":11110:11112   */\n      0x20\n        /* \"#utility.yul\":11099:11108   */\n      dup3\n        /* \"#utility.yul\":11095:11113   */\n      add\n        /* \"#utility.yul\":11087:11113   */\n      swap1\n      pop\n        /* \"#utility.yul\":11123:11194   */\n      tag_383\n        /* \"#utility.yul\":11191:11192   */\n      0x00\n        /* \"#utility.yul\":11180:11189   */\n      dup4\n        /* \"#utility.yul\":11176:11193   */\n      add\n        /* \"#utility.yul\":11167:11173   */\n      dup5\n        /* \"#utility.yul\":11123:11194   */\n      tag_260\n      jump\t// in\n    tag_383:\n        /* \"#utility.yul\":10979:11201   */\n      swap3\n      swap2\n      pop\n      pop\n      jump\t// out\n        /* \"#utility.yul\":11207:11536   */\n    tag_58:\n        /* \"#utility.yul\":11266:11272   */\n      0x00\n        /* \"#utility.yul\":11315:11317   */\n      0x20\n        /* \"#utility.yul\":11303:11312   */\n      dup3\n        /* \"#utility.yul\":11294:11301   */\n      dup5\n        /* \"#utility.yul\":11290:11313   */\n      sub\n        /* \"#utility.yul\":11286:11318   */\n      slt\n        /* \"#utility.yul\":11283:11402   */\n      iszero\n      tag_385\n      jumpi\n        /* \"#utility.yul\":11321:11400   */\n      tag_386\n      tag_232\n      jump\t// in\n    tag_386:\n        /* \"#utility.yul\":11283:11402   */\n    tag_385:\n        /* \"#utility.yul\":11441:11442   */\n      0x00\n        /* \"#utility.yul\":11466:11519   */\n      tag_387\n        /* \"#utility.yul\":11511:11518   */\n      dup5\n        /* \"#utility.yul\":11502:11508   */\n      dup3\n        /* \"#utility.yul\":11491:11500   */\n      dup6\n        /* \"#utility.yul\":11487:11509   */\n      add\n        /* \"#utility.yul\":11466:11519   */\n      tag_259\n      jump\t// in\n    tag_387:\n        /* \"#utility.yul\":11456:11519   */\n      swap2\n      pop\n        /* \"#utility.yul\":11412:11529   */\n      pop\n        /* \"#utility.yul\":11207:11536   */\n      swap3\n      swap2\n      pop\n      pop\n      jump\t// out\n        /* \"#utility.yul\":11542:11693   */\n    tag_261:\n        /* \"#utility.yul\":11639:11686   */\n      tag_389\n        /* \"#utility.yul\":11680:11685   */\n      dup2\n        /* \"#utility.yul\":11639:11686   */\n      tag_246\n      jump\t// in\n    tag_389:\n        /* \"#utility.yul\":11634:11637   */\n      dup3\n        /* \"#utility.yul\":11627:11687   */\n      mstore\n        /* \"#utility.yul\":11542:11693   */\n      pop\n      pop\n      jump\t// out\n        /* \"#utility.yul\":11699:11941   */\n    tag_68:\n        /* \"#utility.yul\":11802:11806   */\n      0x00\n        /* \"#utility.yul\":11840:11842   */\n      0x20\n        /* \"#utility.yul\":11829:11838   */\n      dup3\n        /* \"#utility.yul\":11825:11843   */\n      add\n        /* \"#utility.yul\":11817:11843   */\n      swap1\n      pop\n        /* \"#utility.yul\":11853:11934   */\n      tag_391\n        /* \"#utility.yul\":11931:11932   */\n      0x00\n        /* \"#utility.yul\":11920:11929   */\n      dup4\n        /* \"#utility.yul\":11916:11933   */\n      add\n        /* \"#utility.yul\":11907:11913   */\n      dup5\n        /* \"#utility.yul\":11853:11934   */\n      tag_261\n      jump\t// in\n    tag_391:\n        /* \"#utility.yul\":11699:11941   */\n      swap3\n      swap2\n      pop\n      pop\n      jump\t// out\n        /* \"#utility.yul\":11947:12007   */\n    tag_262:\n        /* \"#utility.yul\":11975:11978   */\n      0x00\n        /* \"#utility.yul\":11996:12001   */\n      dup2\n        /* \"#utility.yul\":11989:12001   */\n      swap1\n      pop\n        /* \"#utility.yul\":11947:12007   */\n      swap2\n      swap1\n      pop\n      jump\t// out\n        /* \"#utility.yul\":12013:12155   */\n    tag_263:\n        /* \"#utility.yul\":12063:12072   */\n      0x00\n        /* \"#utility.yul\":12096:12149   */\n      tag_394\n        /* \"#utility.yul\":12114:12148   */\n      tag_395\n        /* \"#utility.yul\":12123:12147   */\n      tag_396\n        /* \"#utility.yul\":12141:12146   */\n      dup5\n        /* \"#utility.yul\":12123:12147   */\n      tag_241\n      jump\t// in\n    tag_396:\n        /* \"#utility.yul\":12114:12148   */\n      tag_262\n      jump\t// in\n    tag_395:\n        /* \"#utility.yul\":12096:12149   */\n      tag_241\n      jump\t// in\n    tag_394:\n        /* \"#utility.yul\":12083:12149   */\n      swap1\n      pop\n        /* \"#utility.yul\":12013:12155   */\n      swap2\n      swap1\n      pop\n      jump\t// out\n        /* \"#utility.yul\":12161:12287   */\n    tag_264:\n        /* \"#utility.yul\":12211:12220   */\n      0x00\n        /* \"#utility.yul\":12244:12281   */\n      tag_398\n        /* \"#utility.yul\":12275:12280   */\n      dup3\n        /* \"#utility.yul\":12244:12281   */\n      tag_263\n      jump\t// in\n    tag_398:\n        /* \"#utility.yul\":12231:12281   */\n      swap1\n      pop\n        /* \"#utility.yul\":12161:12287   */\n      swap2\n      swap1\n      pop\n      jump\t// out\n        /* \"#utility.yul\":12293:12433   */\n    tag_265:\n        /* \"#utility.yul\":12357:12366   */\n      0x00\n        /* \"#utility.yul\":12390:12427   */\n      tag_400\n        /* \"#utility.yul\":12421:12426   */\n      dup3\n        /* \"#utility.yul\":12390:12427   */\n      tag_264\n      jump\t// in\n    tag_400:\n        /* \"#utility.yul\":12377:12427   */\n      swap1\n      pop\n        /* \"#utility.yul\":12293:12433   */\n      swap2\n      swap1\n      pop\n      jump\t// out\n        /* \"#utility.yul\":12439:12598   */\n    tag_266:\n        /* \"#utility.yul\":12540:12591   */\n      tag_402\n        /* \"#utility.yul\":12585:12590   */\n      dup2\n        /* \"#utility.yul\":12540:12591   */\n      tag_265\n      jump\t// in\n    tag_402:\n        /* \"#utility.yul\":12535:12538   */\n      dup3\n        /* \"#utility.yul\":12528:12592   */\n      mstore\n        /* \"#utility.yul\":12439:12598   */\n      pop\n      pop\n      jump\t// out\n        /* \"#utility.yul\":12604:12854   */\n    tag_72:\n        /* \"#utility.yul\":12711:12715   */\n      0x00\n        /* \"#utility.yul\":12749:12751   */\n      0x20\n        /* \"#utility.yul\":12738:12747   */\n      dup3\n        /* \"#utility.yul\":12734:12752   */\n      add\n        /* \"#utility.yul\":12726:12752   */\n      swap1\n      pop\n        /* \"#utility.yul\":12762:12847   */\n      tag_404\n        /* \"#utility.yul\":12844:12845   */\n      0x00\n        /* \"#utility.yul\":12833:12842   */\n      dup4\n        /* \"#utility.yul\":12829:12846   */\n      add\n        /* \"#utility.yul\":12820:12826   */\n      dup5\n        /* \"#utility.yul\":12762:12847   */\n      tag_266\n      jump\t// in\n    tag_404:\n        /* \"#utility.yul\":12604:12854   */\n      swap3\n      swap2\n      pop\n      pop\n      jump\t// out\n        /* \"#utility.yul\":12860:13040   */\n    tag_76:\n        /* \"#utility.yul\":12908:12985   */\n      0x4e487b7100000000000000000000000000000000000000000000000000000000\n        /* \"#utility.yul\":12905:12906   */\n      0x00\n        /* \"#utility.yul\":12898:12986   */\n      mstore\n        /* \"#utility.yul\":13005:13009   */\n      0x41\n        /* \"#utility.yul\":13002:13003   */\n      0x04\n        /* \"#utility.yul\":12995:13010   */\n      mstore\n        /* \"#utility.yul\":13029:13033   */\n      0x24\n        /* \"#utility.yul\":13026:13027   */\n      0x00\n        /* \"#utility.yul\":13019:13034   */\n      revert\n        /* \"#utility.yul\":13046:13226   */\n    tag_267:\n        /* \"#utility.yul\":13094:13171   */\n      0x4e487b7100000000000000000000000000000000000000000000000000000000\n        /* \"#utility.yul\":13091:13092   */\n      0x00\n        /* \"#utility.yul\":13084:13172   */\n      mstore\n        /* \"#utility.yul\":13191:13195   */\n      0x11\n        /* \"#utility.yul\":13188:13189   */\n      0x04\n        /* \"#utility.yul\":13181:13196   */\n      mstore\n        /* \"#utility.yul\":13215:13219   */\n      0x24\n        /* \"#utility.yul\":13212:13213   */\n      0x00\n        /* \"#utility.yul\":13205:13220   */\n      revert\n        /* \"#utility.yul\":13232:13423   */\n    tag_95:\n        /* \"#utility.yul\":13272:13275   */\n      0x00\n        /* \"#utility.yul\":13291:13311   */\n      tag_408\n        /* \"#utility.yul\":13309:13310   */\n      dup3\n        /* \"#utility.yul\":13291:13311   */\n      tag_234\n      jump\t// in\n    tag_408:\n        /* \"#utility.yul\":13286:13311   */\n      swap2\n      pop\n        /* \"#utility.yul\":13325:13345   */\n      tag_409\n        /* \"#utility.yul\":13343:13344   */\n      dup4\n        /* \"#utility.yul\":13325:13345   */\n      tag_234\n      jump\t// in\n    tag_409:\n        /* \"#utility.yul\":13320:13345   */\n      swap3\n      pop\n        /* \"#utility.yul\":13368:13369   */\n      dup3\n        /* \"#utility.yul\":13365:13366   */\n      dup3\n        /* \"#utility.yul\":13361:13370   */\n      add\n        /* \"#utility.yul\":13354:13370   */\n      swap1\n      pop\n        /* \"#utility.yul\":13389:13392   */\n      dup1\n        /* \"#utility.yul\":13386:13387   */\n      dup3\n        /* \"#utility.yul\":13383:13393   */\n      gt\n        /* \"#utility.yul\":13380:13416   */\n      iszero\n      tag_410\n      jumpi\n        /* \"#utility.yul\":13396:13414   */\n      tag_411\n      tag_267\n      jump\t// in\n    tag_411:\n        /* \"#utility.yul\":13380:13416   */\n    tag_410:\n        /* \"#utility.yul\":13232:13423   */\n      swap3\n      swap2\n      pop\n      pop\n      jump\t// out\n        /* \"#utility.yul\":13429:13609   */\n    tag_98:\n        /* \"#utility.yul\":13477:13554   */\n      0x4e487b7100000000000000000000000000000000000000000000000000000000\n        /* \"#utility.yul\":13474:13475   */\n      0x00\n        /* \"#utility.yul\":13467:13555   */\n      mstore\n        /* \"#utility.yul\":13574:13578   */\n      0x32\n        /* \"#utility.yul\":13571:13572   */\n      0x04\n        /* \"#utility.yul\":13564:13579   */\n      mstore\n        /* \"#utility.yul\":13598:13602   */\n      0x24\n        /* \"#utility.yul\":13595:13596   */\n      0x00\n        /* \"#utility.yul\":13588:13603   */\n      revert\n        /* \"#utility.yul\":13615:13848   */\n    tag_100:\n        /* \"#utility.yul\":13654:13657   */\n      0x00\n        /* \"#utility.yul\":13677:13701   */\n      tag_414\n        /* \"#utility.yul\":13695:13700   */\n      dup3\n        /* \"#utility.yul\":13677:13701   */\n      tag_234\n      jump\t// in\n    tag_414:\n        /* \"#utility.yul\":13668:13701   */\n      swap2\n      pop\n        /* \"#utility.yul\":13723:13789   */\n      0xffffffffffffffffffffffffffffffffffffffffffffffffffffffffffffffff\n        /* \"#utility.yul\":13716:13721   */\n      dup3\n        /* \"#utility.yul\":13713:13790   */\n      sub\n        /* \"#utility.yul\":13710:13813   */\n      tag_415\n      jumpi\n        /* \"#utility.yul\":13793:13811   */\n      tag_416\n      tag_267\n      jump\t// in\n    tag_416:\n        /* \"#utility.yul\":13710:13813   */\n    tag_415:\n        /* \"#utility.yul\":13840:13841   */\n      0x01\n        /* \"#utility.yul\":13833:13838   */\n      dup3\n        /* \"#utility.yul\":13829:13842   */\n      add\n        /* \"#utility.yul\":13822:13842   */\n      swap1\n      pop\n        /* \"#utility.yul\":13615:13848   */\n      swap2\n      swap1\n      pop\n      jump\t// out\n        /* \"#utility.yul\":13854:14296   */\n    tag_151:\n        /* \"#utility.yul\":14003:14007   */\n      0x00\n        /* \"#utility.yul\":14041:14043   */\n      0x60\n        /* \"#utility.yul\":14030:14039   */\n      dup3\n        /* \"#utility.yul\":14026:14044   */\n      add\n        /* \"#utility.yul\":14018:14044   */\n      swap1\n      pop\n        /* \"#utility.yul\":14054:14125   */\n      tag_418\n        /* \"#utility.yul\":14122:14123   */\n      0x00\n        /* \"#utility.yul\":14111:14120   */\n      dup4\n        /* \"#utility.yul\":14107:14124   */\n      add\n        /* \"#utility.yul\":14098:14104   */\n      dup7\n        /* \"#utility.yul\":14054:14125   */\n      tag_260\n      jump\t// in\n    tag_418:\n        /* \"#utility.yul\":14135:14207   */\n      tag_419\n        /* \"#utility.yul\":14203:14205   */\n      0x20\n        /* \"#utility.yul\":14192:14201   */\n      dup4\n        /* \"#utility.yul\":14188:14206   */\n      add\n        /* \"#utility.yul\":14179:14185   */\n      dup6\n        /* \"#utility.yul\":14135:14207   */\n      tag_260\n      jump\t// in\n    tag_419:\n        /* \"#utility.yul\":14217:14289   */\n      tag_420\n        /* \"#utility.yul\":14285:14287   */\n      0x40\n        /* \"#utility.yul\":14274:14283   */\n      dup4\n        /* \"#utility.yul\":14270:14288   */\n      add\n        /* \"#utility.yul\":14261:14267   */\n      dup5\n        /* \"#utility.yul\":14217:14289   */\n      tag_257\n      jump\t// in\n    tag_420:\n        /* \"#utility.yul\":13854:14296   */\n      swap5\n      swap4\n      pop\n      pop\n      pop\n      pop\n      jump\t// out\n        /* \"#utility.yul\":14302:14392   */\n    tag_268:\n        /* \"#utility.yul\":14336:14343   */\n      0x00\n        /* \"#utility.yul\":14379:14384   */\n      dup2\n        /* \"#utility.yul\":14372:14385   */\n      iszero\n        /* \"#utility.yul\":14365:14386   */\n      iszero\n        /* \"#utility.yul\":14354:14386   */\n      swap1\n      pop\n        /* \"#utility.yul\":14302:14392   */\n      swap2\n      swap1\n      pop\n      jump\t// out\n        /* \"#utility.yul\":14398:14514   */\n    tag_269:\n        /* \"#utility.yul\":14468:14489   */\n      tag_423\n        /* \"#utility.yul\":14483:14488   */\n      dup2\n        /* \"#utility.yul\":14468:14489   */\n      tag_268\n      jump\t// in\n    tag_423:\n        /* \"#utility.yul\":14461:14466   */\n      dup2\n        /* \"#utility.yul\":14458:14490   */\n      eq\n        /* \"#utility.yul\":14448:14508   */\n      tag_424\n      jumpi\n        /* \"#utility.yul\":14504:14505   */\n      0x00\n        /* \"#utility.yul\":14501:14502   */\n      dup1\n        /* \"#utility.yul\":14494:14506   */\n      revert\n        /* \"#utility.yul\":14448:14508   */\n    tag_424:\n        /* \"#utility.yul\":14398:14514   */\n      pop\n      jump\t// out\n        /* \"#utility.yul\":14520:14657   */\n    tag_270:\n        /* \"#utility.yul\":14574:14579   */\n      0x00\n        /* \"#utility.yul\":14605:14611   */\n      dup2\n        /* \"#utility.yul\":14599:14612   */\n      mload\n        /* \"#utility.yul\":14590:14612   */\n      swap1\n      pop\n        /* \"#utility.yul\":14621:14651   */\n      tag_426\n        /* \"#utility.yul\":14645:14650   */\n      dup2\n        /* \"#utility.yul\":14621:14651   */\n      tag_269\n      jump\t// in\n    tag_426:\n        /* \"#utility.yul\":14520:14657   */\n      swap3\n      swap2\n      pop\n      pop\n      jump\t// out\n        /* \"#utility.yul\":14663:15008   */\n    tag_155:\n        /* \"#utility.yul\":14730:14736   */\n      0x00\n        /* \"#utility.yul\":14779:14781   */\n      0x20\n        /* \"#utility.yul\":14767:14776   */\n      dup3\n        /* \"#utility.yul\":14758:14765   */\n      dup5\n        /* \"#utility.yul\":14754:14777   */\n      sub\n        /* \"#utility.yul\":14750:14782   */\n      slt\n        /* \"#utility.yul\":14747:14866   */\n      iszero\n      tag_428\n      jumpi\n        /* \"#utility.yul\":14785:14864   */\n      tag_429\n      tag_232\n      jump\t// in\n    tag_429:\n        /* \"#utility.yul\":14747:14866   */\n    tag_428:\n        /* \"#utility.yul\":14905:14906   */\n      0x00\n        /* \"#utility.yul\":14930:14991   */\n      tag_430\n        /* \"#utility.yul\":14983:14990   */\n      dup5\n        /* \"#utility.yul\":14974:14980   */\n      dup3\n        /* \"#utility.yul\":14963:14972   */\n      dup6\n        /* \"#utility.yul\":14959:14981   */\n      add\n        /* \"#utility.yul\":14930:14991   */\n      tag_270\n      jump\t// in\n    tag_430:\n        /* \"#utility.yul\":14920:14991   */\n      swap2\n      pop\n        /* \"#utility.yul\":14876:15001   */\n      pop\n        /* \"#utility.yul\":14663:15008   */\n      swap3\n      swap2\n      pop\n      pop\n      jump\t// out\n        /* \"#utility.yul\":15014:15208   */\n    tag_160:\n        /* \"#utility.yul\":15054:15058   */\n      0x00\n        /* \"#utility.yul\":15074:15094   */\n      tag_432\n        /* \"#utility.yul\":15092:15093   */\n      dup3\n        /* \"#utility.yul\":15074:15094   */\n      tag_234\n      jump\t// in\n    tag_432:\n        /* \"#utility.yul\":15069:15094   */\n      swap2\n      pop\n        /* \"#utility.yul\":15108:15128   */\n      tag_433\n        /* \"#utility.yul\":15126:15127   */\n      dup4\n        /* \"#utility.yul\":15108:15128   */\n      tag_234\n      jump\t// in\n    tag_433:\n        /* \"#utility.yul\":15103:15128   */\n      swap3\n      pop\n        /* \"#utility.yul\":15152:15153   */\n      dup3\n        /* \"#utility.yul\":15149:15150   */\n      dup3\n        /* \"#utility.yul\":15145:15154   */\n      sub\n        /* \"#utility.yul\":15137:15154   */\n      swap1\n      pop\n        /* \"#utility.yul\":15176:15177   */\n      dup2\n        /* \"#utility.yul\":15170:15174   */\n      dup2\n        /* \"#utility.yul\":15167:15178   */\n      gt\n        /* \"#utility.yul\":15164:15201   */\n      iszero\n      tag_434\n      jumpi\n        /* \"#utility.yul\":15181:15199   */\n      tag_435\n      tag_267\n      jump\t// in\n    tag_435:\n        /* \"#utility.yul\":15164:15201   */\n    tag_434:\n        /* \"#utility.yul\":15014:15208   */\n      swap3\n      swap2\n      pop\n      pop\n      jump\t// out\n        /* \"#utility.yul\":15214:15385   */\n    tag_174:\n        /* \"#utility.yul\":15253:15256   */\n      0x00\n        /* \"#utility.yul\":15276:15300   */\n      tag_437\n        /* \"#utility.yul\":15294:15299   */\n      dup3\n        /* \"#utility.yul\":15276:15300   */\n      tag_234\n      jump\t// in\n    tag_437:\n        /* \"#utility.yul\":15267:15300   */\n      swap2\n      pop\n        /* \"#utility.yul\":15322:15326   */\n      0x00\n        /* \"#utility.yul\":15315:15320   */\n      dup3\n        /* \"#utility.yul\":15312:15327   */\n      sub\n        /* \"#utility.yul\":15309:15350   */\n      tag_438\n      jumpi\n        /* \"#utility.yul\":15330:15348   */\n      tag_439\n      tag_267\n      jump\t// in\n    tag_439:\n        /* \"#utility.yul\":15309:15350   */\n    tag_438:\n        /* \"#utility.yul\":15377:15378   */\n      0x01\n        /* \"#utility.yul\":15370:15375   */\n      dup3\n        /* \"#utility.yul\":15366:15379   */\n      sub\n        /* \"#utility.yul\":15359:15379   */\n      swap1\n      pop\n        /* \"#utility.yul\":15214:15385   */\n      swap2\n      swap1\n      pop\n      jump\t// out\n        /* \"#utility.yul\":15391:15540   */\n    tag_271:\n        /* \"#utility.yul\":15427:15434   */\n      0x00\n        /* \"#utility.yul\":15467:15533   */\n      0xffffffff00000000000000000000000000000000000000000000000000000000\n        /* \"#utility.yul\":15460:15465   */\n      dup3\n        /* \"#utility.yul\":15456:15534   */\n      and\n        /* \"#utility.yul\":15445:15534   */\n      swap1\n      pop\n        /* \"#utility.yul\":15391:15540   */\n      swap2\n      swap1\n      pop\n      jump\t// out\n        /* \"#utility.yul\":15546:15661   */\n    tag_272:\n        /* \"#utility.yul\":15631:15654   */\n      tag_442\n        /* \"#utility.yul\":15648:15653   */\n      dup2\n        /* \"#utility.yul\":15631:15654   */\n      tag_271\n      jump\t// in\n    tag_442:\n        /* \"#utility.yul\":15626:15629   */\n      dup3\n        /* \"#utility.yul\":15619:15655   */\n      mstore\n        /* \"#utility.yul\":15546:15661   */\n      pop\n      pop\n      jump\t// out\n        /* \"#utility.yul\":15667:15885   */\n    tag_191:\n        /* \"#utility.yul\":15758:15762   */\n      0x00\n        /* \"#utility.yul\":15796:15798   */\n      0x20\n        /* \"#utility.yul\":15785:15794   */\n      dup3\n        /* \"#utility.yul\":15781:15799   */\n      add\n        /* \"#utility.yul\":15773:15799   */\n      swap1\n      pop\n        /* \"#utility.yul\":15809:15878   */\n      tag_444\n        /* \"#utility.yul\":15875:15876   */\n      0x00\n        /* \"#utility.yul\":15864:15873   */\n      dup4\n        /* \"#utility.yul\":15860:15877   */\n      add\n        /* \"#utility.yul\":15851:15857   */\n      dup5\n        /* \"#utility.yul\":15809:15878   */\n      tag_272\n      jump\t// in\n    tag_444:\n        /* \"#utility.yul\":15667:15885   */\n      swap3\n      swap2\n      pop\n      pop\n      jump\t// out\n        /* \"#utility.yul\":15891:16059   */\n    tag_273:\n        /* \"#utility.yul\":15974:15985   */\n      0x00\n        /* \"#utility.yul\":16008:16014   */\n      dup3\n        /* \"#utility.yul\":16003:16006   */\n      dup3\n        /* \"#utility.yul\":15996:16015   */\n      mstore\n        /* \"#utility.yul\":16048:16052   */\n      0x20\n        /* \"#utility.yul\":16043:16046   */\n      dup3\n        /* \"#utility.yul\":16039:16053   */\n      add\n        /* \"#utility.yul\":16024:16053   */\n      swap1\n      pop\n        /* \"#utility.yul\":15891:16059   */\n      swap3\n      swap2\n      pop\n      pop\n      jump\t// out\n        /* \"#utility.yul\":16065:16179   */\n    tag_274:\n      pop\n      jump\t// out\n        /* \"#utility.yul\":16185:16547   */\n    tag_275:\n        /* \"#utility.yul\":16326:16329   */\n      0x00\n        /* \"#utility.yul\":16347:16412   */\n      tag_448\n        /* \"#utility.yul\":16410:16411   */\n      0x00\n        /* \"#utility.yul\":16405:16408   */\n      dup4\n        /* \"#utility.yul\":16347:16412   */\n      tag_273\n      jump\t// in\n    tag_448:\n        /* \"#utility.yul\":16340:16412   */\n      swap2\n      pop\n        /* \"#utility.yul\":16421:16514   */\n      tag_449\n        /* \"#utility.yul\":16510:16513   */\n      dup3\n        /* \"#utility.yul\":16421:16514   */\n      tag_274\n      jump\t// in\n    tag_449:\n        /* \"#utility.yul\":16539:16540   */\n      0x00\n        /* \"#utility.yul\":16534:16537   */\n      dup3\n        /* \"#utility.yul\":16530:16541   */\n      add\n        /* \"#utility.yul\":16523:16541   */\n      swap1\n      pop\n        /* \"#utility.yul\":16185:16547   */\n      swap2\n      swap1\n      pop\n      jump\t// out\n        /* \"#utility.yul\":16553:17412   */\n    tag_220:\n        /* \"#utility.yul\":16830:16834   */\n      0x00\n        /* \"#utility.yul\":16868:16871   */\n      0xa0\n        /* \"#utility.yul\":16857:16866   */\n      dup3\n        /* \"#utility.yul\":16853:16872   */\n      add\n        /* \"#utility.yul\":16845:16872   */\n      swap1\n      pop\n        /* \"#utility.yul\":16882:16953   */\n      tag_451\n        /* \"#utility.yul\":16950:16951   */\n      0x00\n        /* \"#utility.yul\":16939:16948   */\n      dup4\n        /* \"#utility.yul\":16935:16952   */\n      add\n        /* \"#utility.yul\":16926:16932   */\n      dup8\n        /* \"#utility.yul\":16882:16953   */\n      tag_260\n      jump\t// in\n    tag_451:\n        /* \"#utility.yul\":16963:17035   */\n      tag_452\n        /* \"#utility.yul\":17031:17033   */\n      0x20\n        /* \"#utility.yul\":17020:17029   */\n      dup4\n        /* \"#utility.yul\":17016:17034   */\n      add\n        /* \"#utility.yul\":17007:17013   */\n      dup7\n        /* \"#utility.yul\":16963:17035   */\n      tag_260\n      jump\t// in\n    tag_452:\n        /* \"#utility.yul\":17045:17117   */\n      tag_453\n        /* \"#utility.yul\":17113:17115   */\n      0x40\n        /* \"#utility.yul\":17102:17111   */\n      dup4\n        /* \"#utility.yul\":17098:17116   */\n      add\n        /* \"#utility.yul\":17089:17095   */\n      dup6\n        /* \"#utility.yul\":17045:17117   */\n      tag_257\n      jump\t// in\n    tag_453:\n        /* \"#utility.yul\":17127:17199   */\n      tag_454\n        /* \"#utility.yul\":17195:17197   */\n      0x60\n        /* \"#utility.yul\":17184:17193   */\n      dup4\n        /* \"#utility.yul\":17180:17198   */\n      add\n        /* \"#utility.yul\":17171:17177   */\n      dup5\n        /* \"#utility.yul\":17127:17199   */\n      tag_257\n      jump\t// in\n    tag_454:\n        /* \"#utility.yul\":17247:17256   */\n      dup2\n        /* \"#utility.yul\":17241:17245   */\n      dup2\n        /* \"#utility.yul\":17237:17257   */\n      sub\n        /* \"#utility.yul\":17231:17234   */\n      0x80\n        /* \"#utility.yul\":17220:17229   */\n      dup4\n        /* \"#utility.yul\":17216:17235   */\n      add\n        /* \"#utility.yul\":17209:17258   */\n      mstore\n        /* \"#utility.yul\":17275:17405   */\n      tag_455\n        /* \"#utility.yul\":17400:17404   */\n      dup2\n        /* \"#utility.yul\":17275:17405   */\n      tag_275\n      jump\t// in\n    tag_455:\n        /* \"#utility.yul\":17267:17405   */\n      swap1\n      pop\n        /* \"#utility.yul\":16553:17412   */\n      swap6\n      swap5\n      pop\n      pop\n      pop\n      pop\n      pop\n      jump\t// out\n\n    auxdata: 0xa2646970667358221220007b9fb3de4384f8f3783911e5f4aebe1efd395508fbfd5bc3c610fdefb1ec5e64736f6c63430008120033\n}\n",
				"bytecode": {
					"linkReferences": {},
					"object": "608060405260006004553480156200001657600080fd5b5060405162002a0b38038062002a0b83398181016040528101906200003c91906200012f565b816000806101000a81548173ffffffffffffffffffffffffffffffffffffffff021916908373ffffffffffffffffffffffffffffffffffffffff16021790555080600160006101000a81548173ffffffffffffffffffffffffffffffffffffffff021916908373ffffffffffffffffffffffffffffffffffffffff160217905550505062000176565b600080fd5b600073ffffffffffffffffffffffffffffffffffffffff82169050919050565b6000620000f782620000ca565b9050919050565b6200010981620000ea565b81146200011557600080fd5b50565b6000815190506200012981620000fe565b92915050565b60008060408385031215620001495762000148620000c5565b5b6000620001598582860162000118565b92505060206200016c8582860162000118565b9150509250929050565b61288580620001866000396000f3fe608060405234801561001057600080fd5b50600436106100cf5760003560e01c8063a2fb342d1161008c578063df8089ef11610066578063df8089ef1461020e578063e6eb89811461023e578063f85565fb1461025a578063fc0c546a1461028a576100cf565b8063a2fb342d146101cc578063c1bce0b7146101e8578063ccf01b7e14610204576100cf565b8063038d67e8146100d457806349f202ff146101045780634f1238021461013457806350a8f34f1461016457806355d6e655146101805780636fa425fe1461019c575b600080fd5b6100ee60048036038101906100e99190611fc3565b6102a8565b6040516100fb91906122ba565b60405180910390f35b61011e600480360381019061011991906122dc565b6105ea565b60405161012b9190612318565b60405180910390f35b61014e6004803603810190610149919061235f565b61060a565b60405161015b9190612318565b60405180910390f35b61017e6004803603810190610179919061239f565b610863565b005b61019a6004803603810190610195919061241a565b610beb565b005b6101b660048036038101906101b191906122dc565b610e63565b6040516101c3919061247c565b60405180910390f35b6101e660048036038101906101e1919061235f565b610ea3565b005b61020260048036038101906101fd919061241a565b611278565b005b61020c6117ad565b005b61022860048036038101906102239190612497565b611809565b604051610235919061247c565b60405180910390f35b6102586004803603810190610253919061235f565b6118ac565b005b610274600480360381019061026f9190612497565b611afd565b60405161028191906124d3565b60405180910390f35b610292611c60565b60405161029f919061254d565b60405180910390f35b606060008267ffffffffffffffff8111156102c6576102c5612568565b5b6040519080825280602002602001820160405280156102ff57816020015b6102ec611eaf565b8152602001906001900390816102e45790505b50905061030a611eaf565b60005b8481116105de5760006003600088815260200190815260200160002060000160009054906101000a900473ffffffffffffffffffffffffffffffffffffffff169050600060036000898152602001908152602001600020600101549050600260008373ffffffffffffffffffffffffffffffffffffffff1673ffffffffffffffffffffffffffffffffffffffff168152602001908152602001600020600082815260200190815260200160002060405180610100016040529081600082015481526020016001820160009054906101000a900473ffffffffffffffffffffffffffffffffffffffff1673ffffffffffffffffffffffffffffffffffffffff1673ffffffffffffffffffffffffffffffffffffffff1681526020016002820154815260200160038201548152602001600482015481526020016005820160009054906101000a900473ffffffffffffffffffffffffffffffffffffffff1673ffffffffffffffffffffffffffffffffffffffff1673ffffffffffffffffffffffffffffffffffffffff168152602001600682016040518060800160405290816000820160009054906101000a900473ffffffffffffffffffffffffffffffffffffffff1673ffffffffffffffffffffffffffffffffffffffff1673ffffffffffffffffffffffffffffffffffffffff168152602001600182015481526020016002820160009054906101000a900460ff16600281111561052f5761052e61207f565b5b60028111156105415761054061207f565b5b81526020016003820154815250508152602001600a820160009054906101000a900460ff1660038111156105785761057761207f565b5b600381111561058a5761058961207f565b5b815250509350838560018561059f91906125c6565b815181106105b0576105af6125fa565b5b602002602001018190525087806105c690612629565b985050505080806105d690612629565b91505061030d565b50819250505092915050565b600060036000838152602001908152602001600020600101549050919050565b6000610614611f38565b6000600260008673ffffffffffffffffffffffffffffffffffffffff1673ffffffffffffffffffffffffffffffffffffffff16815260200190815260200160002060008581526020019081526020016000206006016040518060800160405290816000820160009054906101000a900473ffffffffffffffffffffffffffffffffffffffff1673ffffffffffffffffffffffffffffffffffffffff1673ffffffffffffffffffffffffffffffffffffffff168152602001600182015481526020016002820160009054906101000a900460ff1660028111156106f9576106f861207f565b5b600281111561070b5761070a61207f565b5b8152602001600382015481525050905060005b600454811161085957600360008281526020019081526020016000206040518060800160405290816000820160009054906101000a900473ffffffffffffffffffffffffffffffffffffffff1673ffffffffffffffffffffffffffffffffffffffff1673ffffffffffffffffffffffffffffffffffffffff168152602001600182015481526020016002820160009054906101000a900460ff1660028111156107ca576107c961207f565b5b60028111156107dc576107db61207f565b5b81526020016003820154815250509250816000015173ffffffffffffffffffffffffffffffffffffffff16836000015173ffffffffffffffffffffffffffffffffffffffff16148015610836575081602001518360200151145b156108465780935050505061085d565b808061085190612629565b91505061071e565b5050505b92915050565b600061086e86611afd565b9050600060405180608001604052808873ffffffffffffffffffffffffffffffffffffffff1681526020018781526020018360028111156108b2576108b161207f565b5b815260200186815250905060006040518061010001604052804381526020013373ffffffffffffffffffffffffffffffffffffffff16815260200186815260200185815260200160008152602001600073ffffffffffffffffffffffffffffffffffffffff168152602001838152602001600060038111156109375761093661207f565b5b815250905080600260008a73ffffffffffffffffffffffffffffffffffffffff1673ffffffffffffffffffffffffffffffffffffffff16815260200190815260200160002060008981526020019081526020016000206000820151816000015560208201518160010160006101000a81548173ffffffffffffffffffffffffffffffffffffffff021916908373ffffffffffffffffffffffffffffffffffffffff16021790555060408201518160020155606082015181600301556080820151816004015560a08201518160050160006101000a81548173ffffffffffffffffffffffffffffffffffffffff021916908373ffffffffffffffffffffffffffffffffffffffff16021790555060c08201518160060160008201518160000160006101000a81548173ffffffffffffffffffffffffffffffffffffffff021916908373ffffffffffffffffffffffffffffffffffffffff1602179055506020820151816001015560408201518160020160006101000a81548160ff02191690836002811115610ac857610ac761207f565b5b021790555060608201518160030155505060e082015181600a0160006101000a81548160ff02191690836003811115610b0457610b0361207f565b5b0217905550905050610b19888833308a611c84565b81600360006001600454610b2d91906125c6565b815260200190815260200160002060008201518160000160006101000a81548173ffffffffffffffffffffffffffffffffffffffff021916908373ffffffffffffffffffffffffffffffffffffffff1602179055506020820151816001015560408201518160020160006101000a81548160ff02191690836002811115610bb757610bb661207f565b5b02179055506060820151816003015590505060046000815480929190610bdc90612629565b91905055505050505050505050565b600260008473ffffffffffffffffffffffffffffffffffffffff1673ffffffffffffffffffffffffffffffffffffffff168152602001908152602001600020600083815260200190815260200160002060010160009054906101000a900473ffffffffffffffffffffffffffffffffffffffff1673ffffffffffffffffffffffffffffffffffffffff163373ffffffffffffffffffffffffffffffffffffffff1614610c9657600080fd5b6000600260008573ffffffffffffffffffffffffffffffffffffffff1673ffffffffffffffffffffffffffffffffffffffff1681526020019081526020016000206000848152602001908152602001600020600601600301549050610cfe8484303385611c84565b6003600260008673ffffffffffffffffffffffffffffffffffffffff1673ffffffffffffffffffffffffffffffffffffffff1681526020019081526020016000206000858152602001908152602001600020600a0160006101000a81548160ff02191690836003811115610d7557610d7461207f565b5b0217905550600360006004548152602001908152602001600020600360008481526020019081526020016000206000820160009054906101000a900473ffffffffffffffffffffffffffffffffffffffff168160000160006101000a81548173ffffffffffffffffffffffffffffffffffffffff021916908373ffffffffffffffffffffffffffffffffffffffff160217905550600182015481600101556002820160009054906101000a900460ff168160020160006101000a81548160ff02191690836002811115610e4b57610e4a61207f565b5b02179055506003820154816003015590505050505050565b60006003600083815260200190815260200160002060000160009054906101000a900473ffffffffffffffffffffffffffffffffffffffff169050919050565b60006003811115610eb757610eb661207f565b5b600260008473ffffffffffffffffffffffffffffffffffffffff1673ffffffffffffffffffffffffffffffffffffffff1681526020019081526020016000206000838152602001908152602001600020600a0160009054906101000a900460ff166003811115610f2a57610f2961207f565b5b14610f3457600080fd5b60008054906101000a900473ffffffffffffffffffffffffffffffffffffffff1673ffffffffffffffffffffffffffffffffffffffff166323b872dd600260008573ffffffffffffffffffffffffffffffffffffffff1673ffffffffffffffffffffffffffffffffffffffff168152602001908152602001600020600084815260200190815260200160002060050160009054906101000a900473ffffffffffffffffffffffffffffffffffffffff16600260008673ffffffffffffffffffffffffffffffffffffffff1673ffffffffffffffffffffffffffffffffffffffff168152602001908152602001600020600085815260200190815260200160002060010160009054906101000a900473ffffffffffffffffffffffffffffffffffffffff16600260008773ffffffffffffffffffffffffffffffffffffffff1673ffffffffffffffffffffffffffffffffffffffff1681526020019081526020016000206000868152602001908152602001600020600201546040518463ffffffff1660e01b81526004016110ca93929190612671565b6020604051808303816000875af11580156110e9573d6000803e3d6000fd5b505050506040513d601f19601f8201168201806040525081019061110d91906126e0565b5033600260008473ffffffffffffffffffffffffffffffffffffffff1673ffffffffffffffffffffffffffffffffffffffff168152602001908152602001600020600083815260200190815260200160002060050160006101000a81548173ffffffffffffffffffffffffffffffffffffffff021916908373ffffffffffffffffffffffffffffffffffffffff16021790555042600260008473ffffffffffffffffffffffffffffffffffffffff1673ffffffffffffffffffffffffffffffffffffffff1681526020019081526020016000206000838152602001908152602001600020600401819055506001600260008473ffffffffffffffffffffffffffffffffffffffff1673ffffffffffffffffffffffffffffffffffffffff1681526020019081526020016000206000838152602001908152602001600020600a0160006101000a81548160ff0219169083600381111561126f5761126e61207f565b5b02179055505050565b600260008473ffffffffffffffffffffffffffffffffffffffff1673ffffffffffffffffffffffffffffffffffffffff168152602001908152602001600020600083815260200190815260200160002060030154600260008573ffffffffffffffffffffffffffffffffffffffff1673ffffffffffffffffffffffffffffffffffffffff1681526020019081526020016000206000848152602001908152602001600020600401544261132b919061270d565b111561133657600080fd5b600260008473ffffffffffffffffffffffffffffffffffffffff1673ffffffffffffffffffffffffffffffffffffffff168152602001908152602001600020600083815260200190815260200160002060010160009054906101000a900473ffffffffffffffffffffffffffffffffffffffff1673ffffffffffffffffffffffffffffffffffffffff163373ffffffffffffffffffffffffffffffffffffffff16146113e157600080fd5b600061143f600260008673ffffffffffffffffffffffffffffffffffffffff1673ffffffffffffffffffffffffffffffffffffffff168152602001908152602001600020600085815260200190815260200160002060020154611ea5565b905060008054906101000a900473ffffffffffffffffffffffffffffffffffffffff1673ffffffffffffffffffffffffffffffffffffffff166323b872dd600260008773ffffffffffffffffffffffffffffffffffffffff1673ffffffffffffffffffffffffffffffffffffffff168152602001908152602001600020600086815260200190815260200160002060010160009054906101000a900473ffffffffffffffffffffffffffffffffffffffff16600260008873ffffffffffffffffffffffffffffffffffffffff1673ffffffffffffffffffffffffffffffffffffffff168152602001908152602001600020600087815260200190815260200160002060050160009054906101000a900473ffffffffffffffffffffffffffffffffffffffff16846040518463ffffffff1660e01b815260040161158493929190612671565b6020604051808303816000875af11580156115a3573d6000803e3d6000fd5b505050506040513d601f19601f820116820180604052508101906115c791906126e0565b5060028060008673ffffffffffffffffffffffffffffffffffffffff1673ffffffffffffffffffffffffffffffffffffffff1681526020019081526020016000206000858152602001908152602001600020600a0160006101000a81548160ff0219169083600381111561163e5761163d61207f565b5b0217905550600360006004548152602001908152602001600020600360008481526020019081526020016000206000820160009054906101000a900473ffffffffffffffffffffffffffffffffffffffff168160000160006101000a81548173ffffffffffffffffffffffffffffffffffffffff021916908373ffffffffffffffffffffffffffffffffffffffff160217905550600182015481600101556002820160009054906101000a900460ff168160020160006101000a81548160ff021916908360028111156117145761171361207f565b5b0217905550600382015481600301559050506004600081548092919061173990612741565b91905055506000600260008673ffffffffffffffffffffffffffffffffffffffff1673ffffffffffffffffffffffffffffffffffffffff16815260200190815260200160002060008581526020019081526020016000206006016003015490506117a68585303385611c84565b5050505050565b600160009054906101000a900473ffffffffffffffffffffffffffffffffffffffff1673ffffffffffffffffffffffffffffffffffffffff163373ffffffffffffffffffffffffffffffffffffffff161461180757600080fd5b565b6000600160009054906101000a900473ffffffffffffffffffffffffffffffffffffffff1673ffffffffffffffffffffffffffffffffffffffff163373ffffffffffffffffffffffffffffffffffffffff161461186557600080fd5b81600160006101000a81548173ffffffffffffffffffffffffffffffffffffffff021916908373ffffffffffffffffffffffffffffffffffffffff16021790559050919050565b600260008373ffffffffffffffffffffffffffffffffffffffff1673ffffffffffffffffffffffffffffffffffffffff168152602001908152602001600020600082815260200190815260200160002060030154600260008473ffffffffffffffffffffffffffffffffffffffff1673ffffffffffffffffffffffffffffffffffffffff1681526020019081526020016000206000838152602001908152602001600020600401544261195f919061270d565b1161196957600080fd5b600260008373ffffffffffffffffffffffffffffffffffffffff1673ffffffffffffffffffffffffffffffffffffffff168152602001908152602001600020600082815260200190815260200160002060050160009054906101000a900473ffffffffffffffffffffffffffffffffffffffff1673ffffffffffffffffffffffffffffffffffffffff163373ffffffffffffffffffffffffffffffffffffffff1614611a1457600080fd5b6000600260008473ffffffffffffffffffffffffffffffffffffffff1673ffffffffffffffffffffffffffffffffffffffff1681526020019081526020016000206000838152602001908152602001600020600601600301549050611a7c8383303385611c84565b6003600260008573ffffffffffffffffffffffffffffffffffffffff1673ffffffffffffffffffffffffffffffffffffffff1681526020019081526020016000206000848152602001908152602001600020600a0160006101000a81548160ff02191690836003811115611af357611af261207f565b5b0217905550505050565b6000808290508073ffffffffffffffffffffffffffffffffffffffff166301ffc9a77f80ac58cd000000000000000000000000000000000000000000000000000000006040518263ffffffff1660e01b8152600401611b5c91906127a5565b602060405180830381865afa158015611b79573d6000803e3d6000fd5b505050506040513d601f19601f82011682018060405250810190611b9d91906126e0565b15611bac576000915050611c5b565b8073ffffffffffffffffffffffffffffffffffffffff166301ffc9a77fd9b67a26000000000000000000000000000000000000000000000000000000006040518263ffffffff1660e01b8152600401611c0591906127a5565b602060405180830381865afa158015611c22573d6000803e3d6000fd5b505050506040513d601f19601f82011682018060405250810190611c4691906126e0565b15611c55576001915050611c5b565b60029150505b919050565b60008054906101000a900473ffffffffffffffffffffffffffffffffffffffff1681565b60006002811115611c9857611c9761207f565b5b600260008773ffffffffffffffffffffffffffffffffffffffff1673ffffffffffffffffffffffffffffffffffffffff168152602001908152602001600020600086815260200190815260200160002060060160020160009054906101000a900460ff166002811115611d0e57611d0d61207f565b5b03611d8d5760008590508073ffffffffffffffffffffffffffffffffffffffff166323b872dd8585886040518463ffffffff1660e01b8152600401611d5593929190612671565b600060405180830381600087803b158015611d6f57600080fd5b505af1158015611d83573d6000803e3d6000fd5b5050505050611e9e565b60016002811115611da157611da061207f565b5b600260008773ffffffffffffffffffffffffffffffffffffffff1673ffffffffffffffffffffffffffffffffffffffff168152602001908152602001600020600086815260200190815260200160002060060160020160009054906101000a900460ff166002811115611e1757611e1661207f565b5b03611e985760008590508073ffffffffffffffffffffffffffffffffffffffff1663f242432a858588866040518563ffffffff1660e01b8152600401611e6094939291906127f7565b600060405180830381600087803b158015611e7a57600080fd5b505af1158015611e8e573d6000803e3d6000fd5b5050505050611e9d565b600080fd5b5b5050505050565b6000819050919050565b60405180610100016040528060008152602001600073ffffffffffffffffffffffffffffffffffffffff168152602001600081526020016000815260200160008152602001600073ffffffffffffffffffffffffffffffffffffffff168152602001611f19611f38565b815260200160006003811115611f3257611f3161207f565b5b81525090565b6040518060800160405280600073ffffffffffffffffffffffffffffffffffffffff1681526020016000815260200160006002811115611f7b57611f7a61207f565b5b8152602001600081525090565b600080fd5b6000819050919050565b611fa081611f8d565b8114611fab57600080fd5b50565b600081359050611fbd81611f97565b92915050565b60008060408385031215611fda57611fd9611f88565b5b6000611fe885828601611fae565b9250506020611ff985828601611fae565b9150509250929050565b600081519050919050565b600082825260208201905092915050565b6000819050602082019050919050565b61203881611f8d565b82525050565b600073ffffffffffffffffffffffffffffffffffffffff82169050919050565b60006120698261203e565b9050919050565b6120798161205e565b82525050565b7f4e487b7100000000000000000000000000000000000000000000000000000000600052602160045260246000fd5b600381106120bf576120be61207f565b5b50565b60008190506120d0826120ae565b919050565b60006120e0826120c2565b9050919050565b6120f0816120d5565b82525050565b60808201600082015161210c6000850182612070565b50602082015161211f602085018261202f565b50604082015161213260408501826120e7565b506060820151612145606085018261202f565b50505050565b6004811061215c5761215b61207f565b5b50565b600081905061216d8261214b565b919050565b600061217d8261215f565b9050919050565b61218d81612172565b82525050565b610160820160008201516121aa600085018261202f565b5060208201516121bd6020850182612070565b5060408201516121d0604085018261202f565b5060608201516121e3606085018261202f565b5060808201516121f6608085018261202f565b5060a082015161220960a0850182612070565b5060c082015161221c60c08501826120f6565b5060e0820151612230610140850182612184565b50505050565b60006122428383612193565b6101608301905092915050565b6000602082019050919050565b600061226782612003565b612271818561200e565b935061227c8361201f565b8060005b838110156122ad5781516122948882612236565b975061229f8361224f565b925050600181019050612280565b5085935050505092915050565b600060208201905081810360008301526122d4818461225c565b905092915050565b6000602082840312156122f2576122f1611f88565b5b600061230084828501611fae565b91505092915050565b61231281611f8d565b82525050565b600060208201905061232d6000830184612309565b92915050565b61233c8161205e565b811461234757600080fd5b50565b60008135905061235981612333565b92915050565b6000806040838503121561237657612375611f88565b5b60006123848582860161234a565b925050602061239585828601611fae565b9150509250929050565b600080600080600060a086880312156123bb576123ba611f88565b5b60006123c98882890161234a565b95505060206123da88828901611fae565b94505060406123eb88828901611fae565b93505060606123fc88828901611fae565b925050608061240d88828901611fae565b9150509295509295909350565b60008060006060848603121561243357612432611f88565b5b60006124418682870161234a565b935050602061245286828701611fae565b925050604061246386828701611fae565b9150509250925092565b6124768161205e565b82525050565b6000602082019050612491600083018461246d565b92915050565b6000602082840312156124ad576124ac611f88565b5b60006124bb8482850161234a565b91505092915050565b6124cd816120d5565b82525050565b60006020820190506124e860008301846124c4565b92915050565b6000819050919050565b600061251361250e6125098461203e565b6124ee565b61203e565b9050919050565b6000612525826124f8565b9050919050565b60006125378261251a565b9050919050565b6125478161252c565b82525050565b6000602082019050612562600083018461253e565b92915050565b7f4e487b7100000000000000000000000000000000000000000000000000000000600052604160045260246000fd5b7f4e487b7100000000000000000000000000000000000000000000000000000000600052601160045260246000fd5b60006125d182611f8d565b91506125dc83611f8d565b92508282019050808211156125f4576125f3612597565b5b92915050565b7f4e487b7100000000000000000000000000000000000000000000000000000000600052603260045260246000fd5b600061263482611f8d565b91507fffffffffffffffffffffffffffffffffffffffffffffffffffffffffffffffff820361266657612665612597565b5b600182019050919050565b6000606082019050612686600083018661246d565b612693602083018561246d565b6126a06040830184612309565b949350505050565b60008115159050919050565b6126bd816126a8565b81146126c857600080fd5b50565b6000815190506126da816126b4565b92915050565b6000602082840312156126f6576126f5611f88565b5b6000612704848285016126cb565b91505092915050565b600061271882611f8d565b915061272383611f8d565b925082820390508181111561273b5761273a612597565b5b92915050565b600061274c82611f8d565b91506000820361275f5761275e612597565b5b600182039050919050565b60007fffffffff0000000000000000000000000000000000000000000000000000000082169050919050565b61279f8161276a565b82525050565b60006020820190506127ba6000830184612796565b92915050565b600082825260208201905092915050565b50565b60006127e16000836127c0565b91506127ec826127d1565b600082019050919050565b600060a08201905061280c600083018761246d565b612819602083018661246d565b6128266040830185612309565b6128336060830184612309565b8181036080830152612844816127d4565b90509594505050505056fea2646970667358221220007b9fb3de4384f8f3783911e5f4aebe1efd395508fbfd5bc3c610fdefb1ec5e64736f6c63430008120033",
					"opcodes": "PUSH1 0x80 PUSH1 0x40 MSTORE PUSH1 0x0 PUSH1 0x4 SSTORE CALLVALUE DUP1 ISZERO PUSH3 0x16 JUMPI PUSH1 0x0 DUP1 REVERT JUMPDEST POP PUSH1 0x40 MLOAD PUSH3 0x2A0B CODESIZE SUB DUP1 PUSH3 0x2A0B DUP4 CODECOPY DUP2 DUP2 ADD PUSH1 0x40 MSTORE DUP2 ADD SWAP1 PUSH3 0x3C SWAP2 SWAP1 PUSH3 0x12F JUMP JUMPDEST DUP2 PUSH1 0x0 DUP1 PUSH2 0x100 EXP DUP2 SLOAD DUP2 PUSH20 0xFFFFFFFFFFFFFFFFFFFFFFFFFFFFFFFFFFFFFFFF MUL NOT AND SWAP1 DUP4 PUSH20 0xFFFFFFFFFFFFFFFFFFFFFFFFFFFFFFFFFFFFFFFF AND MUL OR SWAP1 SSTORE POP DUP1 PUSH1 0x1 PUSH1 0x0 PUSH2 0x100 EXP DUP2 SLOAD DUP2 PUSH20 0xFFFFFFFFFFFFFFFFFFFFFFFFFFFFFFFFFFFFFFFF MUL NOT AND SWAP1 DUP4 PUSH20 0xFFFFFFFFFFFFFFFFFFFFFFFFFFFFFFFFFFFFFFFF AND MUL OR SWAP1 SSTORE POP POP POP PUSH3 0x176 JUMP JUMPDEST PUSH1 0x0 DUP1 REVERT JUMPDEST PUSH1 0x0 PUSH20 0xFFFFFFFFFFFFFFFFFFFFFFFFFFFFFFFFFFFFFFFF DUP3 AND SWAP1 POP SWAP2 SWAP1 POP JUMP JUMPDEST PUSH1 0x0 PUSH3 0xF7 DUP3 PUSH3 0xCA JUMP JUMPDEST SWAP1 POP SWAP2 SWAP1 POP JUMP JUMPDEST PUSH3 0x109 DUP2 PUSH3 0xEA JUMP JUMPDEST DUP2 EQ PUSH3 0x115 JUMPI PUSH1 0x0 DUP1 REVERT JUMPDEST POP JUMP JUMPDEST PUSH1 0x0 DUP2 MLOAD SWAP1 POP PUSH3 0x129 DUP2 PUSH3 0xFE JUMP JUMPDEST SWAP3 SWAP2 POP POP JUMP JUMPDEST PUSH1 0x0 DUP1 PUSH1 0x40 DUP4 DUP6 SUB SLT ISZERO PUSH3 0x149 JUMPI PUSH3 0x148 PUSH3 0xC5 JUMP JUMPDEST JUMPDEST PUSH1 0x0 PUSH3 0x159 DUP6 DUP3 DUP7 ADD PUSH3 0x118 JUMP JUMPDEST SWAP3 POP POP PUSH1 0x20 PUSH3 0x16C DUP6 DUP3 DUP7 ADD PUSH3 0x118 JUMP JUMPDEST SWAP2 POP POP SWAP3 POP SWAP3 SWAP1 POP JUMP JUMPDEST PUSH2 0x2885 DUP1 PUSH3 0x186 PUSH1 0x0 CODECOPY PUSH1 0x0 RETURN INVALID PUSH1 0x80 PUSH1 0x40 MSTORE CALLVALUE DUP1 ISZERO PUSH2 0x10 JUMPI PUSH1 0x0 DUP1 REVERT JUMPDEST POP PUSH1 0x4 CALLDATASIZE LT PUSH2 0xCF JUMPI PUSH1 0x0 CALLDATALOAD PUSH1 0xE0 SHR DUP1 PUSH4 0xA2FB342D GT PUSH2 0x8C JUMPI DUP1 PUSH4 0xDF8089EF GT PUSH2 0x66 JUMPI DUP1 PUSH4 0xDF8089EF EQ PUSH2 0x20E JUMPI DUP1 PUSH4 0xE6EB8981 EQ PUSH2 0x23E JUMPI DUP1 PUSH4 0xF85565FB EQ PUSH2 0x25A JUMPI DUP1 PUSH4 0xFC0C546A EQ PUSH2 0x28A JUMPI PUSH2 0xCF JUMP JUMPDEST DUP1 PUSH4 0xA2FB342D EQ PUSH2 0x1CC JUMPI DUP1 PUSH4 0xC1BCE0B7 EQ PUSH2 0x1E8 JUMPI DUP1 PUSH4 0xCCF01B7E EQ PUSH2 0x204 JUMPI PUSH2 0xCF JUMP JUMPDEST DUP1 PUSH4 0x38D67E8 EQ PUSH2 0xD4 JUMPI DUP1 PUSH4 0x49F202FF EQ PUSH2 0x104 JUMPI DUP1 PUSH4 0x4F123802 EQ PUSH2 0x134 JUMPI DUP1 PUSH4 0x50A8F34F EQ PUSH2 0x164 JUMPI DUP1 PUSH4 0x55D6E655 EQ PUSH2 0x180 JUMPI DUP1 PUSH4 0x6FA425FE EQ PUSH2 0x19C JUMPI JUMPDEST PUSH1 0x0 DUP1 REVERT JUMPDEST PUSH2 0xEE PUSH1 0x4 DUP1 CALLDATASIZE SUB DUP2 ADD SWAP1 PUSH2 0xE9 SWAP2 SWAP1 PUSH2 0x1FC3 JUMP JUMPDEST PUSH2 0x2A8 JUMP JUMPDEST PUSH1 0x40 MLOAD PUSH2 0xFB SWAP2 SWAP1 PUSH2 0x22BA JUMP JUMPDEST PUSH1 0x40 MLOAD DUP1 SWAP2 SUB SWAP1 RETURN JUMPDEST PUSH2 0x11E PUSH1 0x4 DUP1 CALLDATASIZE SUB DUP2 ADD SWAP1 PUSH2 0x119 SWAP2 SWAP1 PUSH2 0x22DC JUMP JUMPDEST PUSH2 0x5EA JUMP JUMPDEST PUSH1 0x40 MLOAD PUSH2 0x12B SWAP2 SWAP1 PUSH2 0x2318 JUMP JUMPDEST PUSH1 0x40 MLOAD DUP1 SWAP2 SUB SWAP1 RETURN JUMPDEST PUSH2 0x14E PUSH1 0x4 DUP1 CALLDATASIZE SUB DUP2 ADD SWAP1 PUSH2 0x149 SWAP2 SWAP1 PUSH2 0x235F JUMP JUMPDEST PUSH2 0x60A JUMP JUMPDEST PUSH1 0x40 MLOAD PUSH2 0x15B SWAP2 SWAP1 PUSH2 0x2318 JUMP JUMPDEST PUSH1 0x40 MLOAD DUP1 SWAP2 SUB SWAP1 RETURN JUMPDEST PUSH2 0x17E PUSH1 0x4 DUP1 CALLDATASIZE SUB DUP2 ADD SWAP1 PUSH2 0x179 SWAP2 SWAP1 PUSH2 0x239F JUMP JUMPDEST PUSH2 0x863 JUMP JUMPDEST STOP JUMPDEST PUSH2 0x19A PUSH1 0x4 DUP1 CALLDATASIZE SUB DUP2 ADD SWAP1 PUSH2 0x195 SWAP2 SWAP1 PUSH2 0x241A JUMP JUMPDEST PUSH2 0xBEB JUMP JUMPDEST STOP JUMPDEST PUSH2 0x1B6 PUSH1 0x4 DUP1 CALLDATASIZE SUB DUP2 ADD SWAP1 PUSH2 0x1B1 SWAP2 SWAP1 PUSH2 0x22DC JUMP JUMPDEST PUSH2 0xE63 JUMP JUMPDEST PUSH1 0x40 MLOAD PUSH2 0x1C3 SWAP2 SWAP1 PUSH2 0x247C JUMP JUMPDEST PUSH1 0x40 MLOAD DUP1 SWAP2 SUB SWAP1 RETURN JUMPDEST PUSH2 0x1E6 PUSH1 0x4 DUP1 CALLDATASIZE SUB DUP2 ADD SWAP1 PUSH2 0x1E1 SWAP2 SWAP1 PUSH2 0x235F JUMP JUMPDEST PUSH2 0xEA3 JUMP JUMPDEST STOP JUMPDEST PUSH2 0x202 PUSH1 0x4 DUP1 CALLDATASIZE SUB DUP2 ADD SWAP1 PUSH2 0x1FD SWAP2 SWAP1 PUSH2 0x241A JUMP JUMPDEST PUSH2 0x1278 JUMP JUMPDEST STOP JUMPDEST PUSH2 0x20C PUSH2 0x17AD JUMP JUMPDEST STOP JUMPDEST PUSH2 0x228 PUSH1 0x4 DUP1 CALLDATASIZE SUB DUP2 ADD SWAP1 PUSH2 0x223 SWAP2 SWAP1 PUSH2 0x2497 JUMP JUMPDEST PUSH2 0x1809 JUMP JUMPDEST PUSH1 0x40 MLOAD PUSH2 0x235 SWAP2 SWAP1 PUSH2 0x247C JUMP JUMPDEST PUSH1 0x40 MLOAD DUP1 SWAP2 SUB SWAP1 RETURN JUMPDEST PUSH2 0x258 PUSH1 0x4 DUP1 CALLDATASIZE SUB DUP2 ADD SWAP1 PUSH2 0x253 SWAP2 SWAP1 PUSH2 0x235F JUMP JUMPDEST PUSH2 0x18AC JUMP JUMPDEST STOP JUMPDEST PUSH2 0x274 PUSH1 0x4 DUP1 CALLDATASIZE SUB DUP2 ADD SWAP1 PUSH2 0x26F SWAP2 SWAP1 PUSH2 0x2497 JUMP JUMPDEST PUSH2 0x1AFD JUMP JUMPDEST PUSH1 0x40 MLOAD PUSH2 0x281 SWAP2 SWAP1 PUSH2 0x24D3 JUMP JUMPDEST PUSH1 0x40 MLOAD DUP1 SWAP2 SUB SWAP1 RETURN JUMPDEST PUSH2 0x292 PUSH2 0x1C60 JUMP JUMPDEST PUSH1 0x40 MLOAD PUSH2 0x29F SWAP2 SWAP1 PUSH2 0x254D JUMP JUMPDEST PUSH1 0x40 MLOAD DUP1 SWAP2 SUB SWAP1 RETURN JUMPDEST PUSH1 0x60 PUSH1 0x0 DUP3 PUSH8 0xFFFFFFFFFFFFFFFF DUP2 GT ISZERO PUSH2 0x2C6 JUMPI PUSH2 0x2C5 PUSH2 0x2568 JUMP JUMPDEST JUMPDEST PUSH1 0x40 MLOAD SWAP1 DUP1 DUP3 MSTORE DUP1 PUSH1 0x20 MUL PUSH1 0x20 ADD DUP3 ADD PUSH1 0x40 MSTORE DUP1 ISZERO PUSH2 0x2FF JUMPI DUP2 PUSH1 0x20 ADD JUMPDEST PUSH2 0x2EC PUSH2 0x1EAF JUMP JUMPDEST DUP2 MSTORE PUSH1 0x20 ADD SWAP1 PUSH1 0x1 SWAP1 SUB SWAP1 DUP2 PUSH2 0x2E4 JUMPI SWAP1 POP JUMPDEST POP SWAP1 POP PUSH2 0x30A PUSH2 0x1EAF JUMP JUMPDEST PUSH1 0x0 JUMPDEST DUP5 DUP2 GT PUSH2 0x5DE JUMPI PUSH1 0x0 PUSH1 0x3 PUSH1 0x0 DUP9 DUP2 MSTORE PUSH1 0x20 ADD SWAP1 DUP2 MSTORE PUSH1 0x20 ADD PUSH1 0x0 KECCAK256 PUSH1 0x0 ADD PUSH1 0x0 SWAP1 SLOAD SWAP1 PUSH2 0x100 EXP SWAP1 DIV PUSH20 0xFFFFFFFFFFFFFFFFFFFFFFFFFFFFFFFFFFFFFFFF AND SWAP1 POP PUSH1 0x0 PUSH1 0x3 PUSH1 0x0 DUP10 DUP2 MSTORE PUSH1 0x20 ADD SWAP1 DUP2 MSTORE PUSH1 0x20 ADD PUSH1 0x0 KECCAK256 PUSH1 0x1 ADD SLOAD SWAP1 POP PUSH1 0x2 PUSH1 0x0 DUP4 PUSH20 0xFFFFFFFFFFFFFFFFFFFFFFFFFFFFFFFFFFFFFFFF AND PUSH20 0xFFFFFFFFFFFFFFFFFFFFFFFFFFFFFFFFFFFFFFFF AND DUP2 MSTORE PUSH1 0x20 ADD SWAP1 DUP2 MSTORE PUSH1 0x20 ADD PUSH1 0x0 KECCAK256 PUSH1 0x0 DUP3 DUP2 MSTORE PUSH1 0x20 ADD SWAP1 DUP2 MSTORE PUSH1 0x20 ADD PUSH1 0x0 KECCAK256 PUSH1 0x40 MLOAD DUP1 PUSH2 0x100 ADD PUSH1 0x40 MSTORE SWAP1 DUP2 PUSH1 0x0 DUP3 ADD SLOAD DUP2 MSTORE PUSH1 0x20 ADD PUSH1 0x1 DUP3 ADD PUSH1 0x0 SWAP1 SLOAD SWAP1 PUSH2 0x100 EXP SWAP1 DIV PUSH20 0xFFFFFFFFFFFFFFFFFFFFFFFFFFFFFFFFFFFFFFFF AND PUSH20 0xFFFFFFFFFFFFFFFFFFFFFFFFFFFFFFFFFFFFFFFF AND PUSH20 0xFFFFFFFFFFFFFFFFFFFFFFFFFFFFFFFFFFFFFFFF AND DUP2 MSTORE PUSH1 0x20 ADD PUSH1 0x2 DUP3 ADD SLOAD DUP2 MSTORE PUSH1 0x20 ADD PUSH1 0x3 DUP3 ADD SLOAD DUP2 MSTORE PUSH1 0x20 ADD PUSH1 0x4 DUP3 ADD SLOAD DUP2 MSTORE PUSH1 0x20 ADD PUSH1 0x5 DUP3 ADD PUSH1 0x0 SWAP1 SLOAD SWAP1 PUSH2 0x100 EXP SWAP1 DIV PUSH20 0xFFFFFFFFFFFFFFFFFFFFFFFFFFFFFFFFFFFFFFFF AND PUSH20 0xFFFFFFFFFFFFFFFFFFFFFFFFFFFFFFFFFFFFFFFF AND PUSH20 0xFFFFFFFFFFFFFFFFFFFFFFFFFFFFFFFFFFFFFFFF AND DUP2 MSTORE PUSH1 0x20 ADD PUSH1 0x6 DUP3 ADD PUSH1 0x40 MLOAD DUP1 PUSH1 0x80 ADD PUSH1 0x40 MSTORE SWAP1 DUP2 PUSH1 0x0 DUP3 ADD PUSH1 0x0 SWAP1 SLOAD SWAP1 PUSH2 0x100 EXP SWAP1 DIV PUSH20 0xFFFFFFFFFFFFFFFFFFFFFFFFFFFFFFFFFFFFFFFF AND PUSH20 0xFFFFFFFFFFFFFFFFFFFFFFFFFFFFFFFFFFFFFFFF AND PUSH20 0xFFFFFFFFFFFFFFFFFFFFFFFFFFFFFFFFFFFFFFFF AND DUP2 MSTORE PUSH1 0x20 ADD PUSH1 0x1 DUP3 ADD SLOAD DUP2 MSTORE PUSH1 0x20 ADD PUSH1 0x2 DUP3 ADD PUSH1 0x0 SWAP1 SLOAD SWAP1 PUSH2 0x100 EXP SWAP1 DIV PUSH1 0xFF AND PUSH1 0x2 DUP2 GT ISZERO PUSH2 0x52F JUMPI PUSH2 0x52E PUSH2 0x207F JUMP JUMPDEST JUMPDEST PUSH1 0x2 DUP2 GT ISZERO PUSH2 0x541 JUMPI PUSH2 0x540 PUSH2 0x207F JUMP JUMPDEST JUMPDEST DUP2 MSTORE PUSH1 0x20 ADD PUSH1 0x3 DUP3 ADD SLOAD DUP2 MSTORE POP POP DUP2 MSTORE PUSH1 0x20 ADD PUSH1 0xA DUP3 ADD PUSH1 0x0 SWAP1 SLOAD SWAP1 PUSH2 0x100 EXP SWAP1 DIV PUSH1 0xFF AND PUSH1 0x3 DUP2 GT ISZERO PUSH2 0x578 JUMPI PUSH2 0x577 PUSH2 0x207F JUMP JUMPDEST JUMPDEST PUSH1 0x3 DUP2 GT ISZERO PUSH2 0x58A JUMPI PUSH2 0x589 PUSH2 0x207F JUMP JUMPDEST JUMPDEST DUP2 MSTORE POP POP SWAP4 POP DUP4 DUP6 PUSH1 0x1 DUP6 PUSH2 0x59F SWAP2 SWAP1 PUSH2 0x25C6 JUMP JUMPDEST DUP2 MLOAD DUP2 LT PUSH2 0x5B0 JUMPI PUSH2 0x5AF PUSH2 0x25FA JUMP JUMPDEST JUMPDEST PUSH1 0x20 MUL PUSH1 0x20 ADD ADD DUP2 SWAP1 MSTORE POP DUP8 DUP1 PUSH2 0x5C6 SWAP1 PUSH2 0x2629 JUMP JUMPDEST SWAP9 POP POP POP POP DUP1 DUP1 PUSH2 0x5D6 SWAP1 PUSH2 0x2629 JUMP JUMPDEST SWAP2 POP POP PUSH2 0x30D JUMP JUMPDEST POP DUP2 SWAP3 POP POP POP SWAP3 SWAP2 POP POP JUMP JUMPDEST PUSH1 0x0 PUSH1 0x3 PUSH1 0x0 DUP4 DUP2 MSTORE PUSH1 0x20 ADD SWAP1 DUP2 MSTORE PUSH1 0x20 ADD PUSH1 0x0 KECCAK256 PUSH1 0x1 ADD SLOAD SWAP1 POP SWAP2 SWAP1 POP JUMP JUMPDEST PUSH1 0x0 PUSH2 0x614 PUSH2 0x1F38 JUMP JUMPDEST PUSH1 0x0 PUSH1 0x2 PUSH1 0x0 DUP7 PUSH20 0xFFFFFFFFFFFFFFFFFFFFFFFFFFFFFFFFFFFFFFFF AND PUSH20 0xFFFFFFFFFFFFFFFFFFFFFFFFFFFFFFFFFFFFFFFF AND DUP2 MSTORE PUSH1 0x20 ADD SWAP1 DUP2 MSTORE PUSH1 0x20 ADD PUSH1 0x0 KECCAK256 PUSH1 0x0 DUP6 DUP2 MSTORE PUSH1 0x20 ADD SWAP1 DUP2 MSTORE PUSH1 0x20 ADD PUSH1 0x0 KECCAK256 PUSH1 0x6 ADD PUSH1 0x40 MLOAD DUP1 PUSH1 0x80 ADD PUSH1 0x40 MSTORE SWAP1 DUP2 PUSH1 0x0 DUP3 ADD PUSH1 0x0 SWAP1 SLOAD SWAP1 PUSH2 0x100 EXP SWAP1 DIV PUSH20 0xFFFFFFFFFFFFFFFFFFFFFFFFFFFFFFFFFFFFFFFF AND PUSH20 0xFFFFFFFFFFFFFFFFFFFFFFFFFFFFFFFFFFFFFFFF AND PUSH20 0xFFFFFFFFFFFFFFFFFFFFFFFFFFFFFFFFFFFFFFFF AND DUP2 MSTORE PUSH1 0x20 ADD PUSH1 0x1 DUP3 ADD SLOAD DUP2 MSTORE PUSH1 0x20 ADD PUSH1 0x2 DUP3 ADD PUSH1 0x0 SWAP1 SLOAD SWAP1 PUSH2 0x100 EXP SWAP1 DIV PUSH1 0xFF AND PUSH1 0x2 DUP2 GT ISZERO PUSH2 0x6F9 JUMPI PUSH2 0x6F8 PUSH2 0x207F JUMP JUMPDEST JUMPDEST PUSH1 0x2 DUP2 GT ISZERO PUSH2 0x70B JUMPI PUSH2 0x70A PUSH2 0x207F JUMP JUMPDEST JUMPDEST DUP2 MSTORE PUSH1 0x20 ADD PUSH1 0x3 DUP3 ADD SLOAD DUP2 MSTORE POP POP SWAP1 POP PUSH1 0x0 JUMPDEST PUSH1 0x4 SLOAD DUP2 GT PUSH2 0x859 JUMPI PUSH1 0x3 PUSH1 0x0 DUP3 DUP2 MSTORE PUSH1 0x20 ADD SWAP1 DUP2 MSTORE PUSH1 0x20 ADD PUSH1 0x0 KECCAK256 PUSH1 0x40 MLOAD DUP1 PUSH1 0x80 ADD PUSH1 0x40 MSTORE SWAP1 DUP2 PUSH1 0x0 DUP3 ADD PUSH1 0x0 SWAP1 SLOAD SWAP1 PUSH2 0x100 EXP SWAP1 DIV PUSH20 0xFFFFFFFFFFFFFFFFFFFFFFFFFFFFFFFFFFFFFFFF AND PUSH20 0xFFFFFFFFFFFFFFFFFFFFFFFFFFFFFFFFFFFFFFFF AND PUSH20 0xFFFFFFFFFFFFFFFFFFFFFFFFFFFFFFFFFFFFFFFF AND DUP2 MSTORE PUSH1 0x20 ADD PUSH1 0x1 DUP3 ADD SLOAD DUP2 MSTORE PUSH1 0x20 ADD PUSH1 0x2 DUP3 ADD PUSH1 0x0 SWAP1 SLOAD SWAP1 PUSH2 0x100 EXP SWAP1 DIV PUSH1 0xFF AND PUSH1 0x2 DUP2 GT ISZERO PUSH2 0x7CA JUMPI PUSH2 0x7C9 PUSH2 0x207F JUMP JUMPDEST JUMPDEST PUSH1 0x2 DUP2 GT ISZERO PUSH2 0x7DC JUMPI PUSH2 0x7DB PUSH2 0x207F JUMP JUMPDEST JUMPDEST DUP2 MSTORE PUSH1 0x20 ADD PUSH1 0x3 DUP3 ADD SLOAD DUP2 MSTORE POP POP SWAP3 POP DUP2 PUSH1 0x0 ADD MLOAD PUSH20 0xFFFFFFFFFFFFFFFFFFFFFFFFFFFFFFFFFFFFFFFF AND DUP4 PUSH1 0x0 ADD MLOAD PUSH20 0xFFFFFFFFFFFFFFFFFFFFFFFFFFFFFFFFFFFFFFFF AND EQ DUP1 ISZERO PUSH2 0x836 JUMPI POP DUP2 PUSH1 0x20 ADD MLOAD DUP4 PUSH1 0x20 ADD MLOAD EQ JUMPDEST ISZERO PUSH2 0x846 JUMPI DUP1 SWAP4 POP POP POP POP PUSH2 0x85D JUMP JUMPDEST DUP1 DUP1 PUSH2 0x851 SWAP1 PUSH2 0x2629 JUMP JUMPDEST SWAP2 POP POP PUSH2 0x71E JUMP JUMPDEST POP POP POP JUMPDEST SWAP3 SWAP2 POP POP JUMP JUMPDEST PUSH1 0x0 PUSH2 0x86E DUP7 PUSH2 0x1AFD JUMP JUMPDEST SWAP1 POP PUSH1 0x0 PUSH1 0x40 MLOAD DUP1 PUSH1 0x80 ADD PUSH1 0x40 MSTORE DUP1 DUP9 PUSH20 0xFFFFFFFFFFFFFFFFFFFFFFFFFFFFFFFFFFFFFFFF AND DUP2 MSTORE PUSH1 0x20 ADD DUP8 DUP2 MSTORE PUSH1 0x20 ADD DUP4 PUSH1 0x2 DUP2 GT ISZERO PUSH2 0x8B2 JUMPI PUSH2 0x8B1 PUSH2 0x207F JUMP JUMPDEST JUMPDEST DUP2 MSTORE PUSH1 0x20 ADD DUP7 DUP2 MSTORE POP SWAP1 POP PUSH1 0x0 PUSH1 0x40 MLOAD DUP1 PUSH2 0x100 ADD PUSH1 0x40 MSTORE DUP1 NUMBER DUP2 MSTORE PUSH1 0x20 ADD CALLER PUSH20 0xFFFFFFFFFFFFFFFFFFFFFFFFFFFFFFFFFFFFFFFF AND DUP2 MSTORE PUSH1 0x20 ADD DUP7 DUP2 MSTORE PUSH1 0x20 ADD DUP6 DUP2 MSTORE PUSH1 0x20 ADD PUSH1 0x0 DUP2 MSTORE PUSH1 0x20 ADD PUSH1 0x0 PUSH20 0xFFFFFFFFFFFFFFFFFFFFFFFFFFFFFFFFFFFFFFFF AND DUP2 MSTORE PUSH1 0x20 ADD DUP4 DUP2 MSTORE PUSH1 0x20 ADD PUSH1 0x0 PUSH1 0x3 DUP2 GT ISZERO PUSH2 0x937 JUMPI PUSH2 0x936 PUSH2 0x207F JUMP JUMPDEST JUMPDEST DUP2 MSTORE POP SWAP1 POP DUP1 PUSH1 0x2 PUSH1 0x0 DUP11 PUSH20 0xFFFFFFFFFFFFFFFFFFFFFFFFFFFFFFFFFFFFFFFF AND PUSH20 0xFFFFFFFFFFFFFFFFFFFFFFFFFFFFFFFFFFFFFFFF AND DUP2 MSTORE PUSH1 0x20 ADD SWAP1 DUP2 MSTORE PUSH1 0x20 ADD PUSH1 0x0 KECCAK256 PUSH1 0x0 DUP10 DUP2 MSTORE PUSH1 0x20 ADD SWAP1 DUP2 MSTORE PUSH1 0x20 ADD PUSH1 0x0 KECCAK256 PUSH1 0x0 DUP3 ADD MLOAD DUP2 PUSH1 0x0 ADD SSTORE PUSH1 0x20 DUP3 ADD MLOAD DUP2 PUSH1 0x1 ADD PUSH1 0x0 PUSH2 0x100 EXP DUP2 SLOAD DUP2 PUSH20 0xFFFFFFFFFFFFFFFFFFFFFFFFFFFFFFFFFFFFFFFF MUL NOT AND SWAP1 DUP4 PUSH20 0xFFFFFFFFFFFFFFFFFFFFFFFFFFFFFFFFFFFFFFFF AND MUL OR SWAP1 SSTORE POP PUSH1 0x40 DUP3 ADD MLOAD DUP2 PUSH1 0x2 ADD SSTORE PUSH1 0x60 DUP3 ADD MLOAD DUP2 PUSH1 0x3 ADD SSTORE PUSH1 0x80 DUP3 ADD MLOAD DUP2 PUSH1 0x4 ADD SSTORE PUSH1 0xA0 DUP3 ADD MLOAD DUP2 PUSH1 0x5 ADD PUSH1 0x0 PUSH2 0x100 EXP DUP2 SLOAD DUP2 PUSH20 0xFFFFFFFFFFFFFFFFFFFFFFFFFFFFFFFFFFFFFFFF MUL NOT AND SWAP1 DUP4 PUSH20 0xFFFFFFFFFFFFFFFFFFFFFFFFFFFFFFFFFFFFFFFF AND MUL OR SWAP1 SSTORE POP PUSH1 0xC0 DUP3 ADD MLOAD DUP2 PUSH1 0x6 ADD PUSH1 0x0 DUP3 ADD MLOAD DUP2 PUSH1 0x0 ADD PUSH1 0x0 PUSH2 0x100 EXP DUP2 SLOAD DUP2 PUSH20 0xFFFFFFFFFFFFFFFFFFFFFFFFFFFFFFFFFFFFFFFF MUL NOT AND SWAP1 DUP4 PUSH20 0xFFFFFFFFFFFFFFFFFFFFFFFFFFFFFFFFFFFFFFFF AND MUL OR SWAP1 SSTORE POP PUSH1 0x20 DUP3 ADD MLOAD DUP2 PUSH1 0x1 ADD SSTORE PUSH1 0x40 DUP3 ADD MLOAD DUP2 PUSH1 0x2 ADD PUSH1 0x0 PUSH2 0x100 EXP DUP2 SLOAD DUP2 PUSH1 0xFF MUL NOT AND SWAP1 DUP4 PUSH1 0x2 DUP2 GT ISZERO PUSH2 0xAC8 JUMPI PUSH2 0xAC7 PUSH2 0x207F JUMP JUMPDEST JUMPDEST MUL OR SWAP1 SSTORE POP PUSH1 0x60 DUP3 ADD MLOAD DUP2 PUSH1 0x3 ADD SSTORE POP POP PUSH1 0xE0 DUP3 ADD MLOAD DUP2 PUSH1 0xA ADD PUSH1 0x0 PUSH2 0x100 EXP DUP2 SLOAD DUP2 PUSH1 0xFF MUL NOT AND SWAP1 DUP4 PUSH1 0x3 DUP2 GT ISZERO PUSH2 0xB04 JUMPI PUSH2 0xB03 PUSH2 0x207F JUMP JUMPDEST JUMPDEST MUL OR SWAP1 SSTORE POP SWAP1 POP POP PUSH2 0xB19 DUP9 DUP9 CALLER ADDRESS DUP11 PUSH2 0x1C84 JUMP JUMPDEST DUP2 PUSH1 0x3 PUSH1 0x0 PUSH1 0x1 PUSH1 0x4 SLOAD PUSH2 0xB2D SWAP2 SWAP1 PUSH2 0x25C6 JUMP JUMPDEST DUP2 MSTORE PUSH1 0x20 ADD SWAP1 DUP2 MSTORE PUSH1 0x20 ADD PUSH1 0x0 KECCAK256 PUSH1 0x0 DUP3 ADD MLOAD DUP2 PUSH1 0x0 ADD PUSH1 0x0 PUSH2 0x100 EXP DUP2 SLOAD DUP2 PUSH20 0xFFFFFFFFFFFFFFFFFFFFFFFFFFFFFFFFFFFFFFFF MUL NOT AND SWAP1 DUP4 PUSH20 0xFFFFFFFFFFFFFFFFFFFFFFFFFFFFFFFFFFFFFFFF AND MUL OR SWAP1 SSTORE POP PUSH1 0x20 DUP3 ADD MLOAD DUP2 PUSH1 0x1 ADD SSTORE PUSH1 0x40 DUP3 ADD MLOAD DUP2 PUSH1 0x2 ADD PUSH1 0x0 PUSH2 0x100 EXP DUP2 SLOAD DUP2 PUSH1 0xFF MUL NOT AND SWAP1 DUP4 PUSH1 0x2 DUP2 GT ISZERO PUSH2 0xBB7 JUMPI PUSH2 0xBB6 PUSH2 0x207F JUMP JUMPDEST JUMPDEST MUL OR SWAP1 SSTORE POP PUSH1 0x60 DUP3 ADD MLOAD DUP2 PUSH1 0x3 ADD SSTORE SWAP1 POP POP PUSH1 0x4 PUSH1 0x0 DUP2 SLOAD DUP1 SWAP3 SWAP2 SWAP1 PUSH2 0xBDC SWAP1 PUSH2 0x2629 JUMP JUMPDEST SWAP2 SWAP1 POP SSTORE POP POP POP POP POP POP POP POP POP JUMP JUMPDEST PUSH1 0x2 PUSH1 0x0 DUP5 PUSH20 0xFFFFFFFFFFFFFFFFFFFFFFFFFFFFFFFFFFFFFFFF AND PUSH20 0xFFFFFFFFFFFFFFFFFFFFFFFFFFFFFFFFFFFFFFFF AND DUP2 MSTORE PUSH1 0x20 ADD SWAP1 DUP2 MSTORE PUSH1 0x20 ADD PUSH1 0x0 KECCAK256 PUSH1 0x0 DUP4 DUP2 MSTORE PUSH1 0x20 ADD SWAP1 DUP2 MSTORE PUSH1 0x20 ADD PUSH1 0x0 KECCAK256 PUSH1 0x1 ADD PUSH1 0x0 SWAP1 SLOAD SWAP1 PUSH2 0x100 EXP SWAP1 DIV PUSH20 0xFFFFFFFFFFFFFFFFFFFFFFFFFFFFFFFFFFFFFFFF AND PUSH20 0xFFFFFFFFFFFFFFFFFFFFFFFFFFFFFFFFFFFFFFFF AND CALLER PUSH20 0xFFFFFFFFFFFFFFFFFFFFFFFFFFFFFFFFFFFFFFFF AND EQ PUSH2 0xC96 JUMPI PUSH1 0x0 DUP1 REVERT JUMPDEST PUSH1 0x0 PUSH1 0x2 PUSH1 0x0 DUP6 PUSH20 0xFFFFFFFFFFFFFFFFFFFFFFFFFFFFFFFFFFFFFFFF AND PUSH20 0xFFFFFFFFFFFFFFFFFFFFFFFFFFFFFFFFFFFFFFFF AND DUP2 MSTORE PUSH1 0x20 ADD SWAP1 DUP2 MSTORE PUSH1 0x20 ADD PUSH1 0x0 KECCAK256 PUSH1 0x0 DUP5 DUP2 MSTORE PUSH1 0x20 ADD SWAP1 DUP2 MSTORE PUSH1 0x20 ADD PUSH1 0x0 KECCAK256 PUSH1 0x6 ADD PUSH1 0x3 ADD SLOAD SWAP1 POP PUSH2 0xCFE DUP5 DUP5 ADDRESS CALLER DUP6 PUSH2 0x1C84 JUMP JUMPDEST PUSH1 0x3 PUSH1 0x2 PUSH1 0x0 DUP7 PUSH20 0xFFFFFFFFFFFFFFFFFFFFFFFFFFFFFFFFFFFFFFFF AND PUSH20 0xFFFFFFFFFFFFFFFFFFFFFFFFFFFFFFFFFFFFFFFF AND DUP2 MSTORE PUSH1 0x20 ADD SWAP1 DUP2 MSTORE PUSH1 0x20 ADD PUSH1 0x0 KECCAK256 PUSH1 0x0 DUP6 DUP2 MSTORE PUSH1 0x20 ADD SWAP1 DUP2 MSTORE PUSH1 0x20 ADD PUSH1 0x0 KECCAK256 PUSH1 0xA ADD PUSH1 0x0 PUSH2 0x100 EXP DUP2 SLOAD DUP2 PUSH1 0xFF MUL NOT AND SWAP1 DUP4 PUSH1 0x3 DUP2 GT ISZERO PUSH2 0xD75 JUMPI PUSH2 0xD74 PUSH2 0x207F JUMP JUMPDEST JUMPDEST MUL OR SWAP1 SSTORE POP PUSH1 0x3 PUSH1 0x0 PUSH1 0x4 SLOAD DUP2 MSTORE PUSH1 0x20 ADD SWAP1 DUP2 MSTORE PUSH1 0x20 ADD PUSH1 0x0 KECCAK256 PUSH1 0x3 PUSH1 0x0 DUP5 DUP2 MSTORE PUSH1 0x20 ADD SWAP1 DUP2 MSTORE PUSH1 0x20 ADD PUSH1 0x0 KECCAK256 PUSH1 0x0 DUP3 ADD PUSH1 0x0 SWAP1 SLOAD SWAP1 PUSH2 0x100 EXP SWAP1 DIV PUSH20 0xFFFFFFFFFFFFFFFFFFFFFFFFFFFFFFFFFFFFFFFF AND DUP2 PUSH1 0x0 ADD PUSH1 0x0 PUSH2 0x100 EXP DUP2 SLOAD DUP2 PUSH20 0xFFFFFFFFFFFFFFFFFFFFFFFFFFFFFFFFFFFFFFFF MUL NOT AND SWAP1 DUP4 PUSH20 0xFFFFFFFFFFFFFFFFFFFFFFFFFFFFFFFFFFFFFFFF AND MUL OR SWAP1 SSTORE POP PUSH1 0x1 DUP3 ADD SLOAD DUP2 PUSH1 0x1 ADD SSTORE PUSH1 0x2 DUP3 ADD PUSH1 0x0 SWAP1 SLOAD SWAP1 PUSH2 0x100 EXP SWAP1 DIV PUSH1 0xFF AND DUP2 PUSH1 0x2 ADD PUSH1 0x0 PUSH2 0x100 EXP DUP2 SLOAD DUP2 PUSH1 0xFF MUL NOT AND SWAP1 DUP4 PUSH1 0x2 DUP2 GT ISZERO PUSH2 0xE4B JUMPI PUSH2 0xE4A PUSH2 0x207F JUMP JUMPDEST JUMPDEST MUL OR SWAP1 SSTORE POP PUSH1 0x3 DUP3 ADD SLOAD DUP2 PUSH1 0x3 ADD SSTORE SWAP1 POP POP POP POP POP POP JUMP JUMPDEST PUSH1 0x0 PUSH1 0x3 PUSH1 0x0 DUP4 DUP2 MSTORE PUSH1 0x20 ADD SWAP1 DUP2 MSTORE PUSH1 0x20 ADD PUSH1 0x0 KECCAK256 PUSH1 0x0 ADD PUSH1 0x0 SWAP1 SLOAD SWAP1 PUSH2 0x100 EXP SWAP1 DIV PUSH20 0xFFFFFFFFFFFFFFFFFFFFFFFFFFFFFFFFFFFFFFFF AND SWAP1 POP SWAP2 SWAP1 POP JUMP JUMPDEST PUSH1 0x0 PUSH1 0x3 DUP2 GT ISZERO PUSH2 0xEB7 JUMPI PUSH2 0xEB6 PUSH2 0x207F JUMP JUMPDEST JUMPDEST PUSH1 0x2 PUSH1 0x0 DUP5 PUSH20 0xFFFFFFFFFFFFFFFFFFFFFFFFFFFFFFFFFFFFFFFF AND PUSH20 0xFFFFFFFFFFFFFFFFFFFFFFFFFFFFFFFFFFFFFFFF AND DUP2 MSTORE PUSH1 0x20 ADD SWAP1 DUP2 MSTORE PUSH1 0x20 ADD PUSH1 0x0 KECCAK256 PUSH1 0x0 DUP4 DUP2 MSTORE PUSH1 0x20 ADD SWAP1 DUP2 MSTORE PUSH1 0x20 ADD PUSH1 0x0 KECCAK256 PUSH1 0xA ADD PUSH1 0x0 SWAP1 SLOAD SWAP1 PUSH2 0x100 EXP SWAP1 DIV PUSH1 0xFF AND PUSH1 0x3 DUP2 GT ISZERO PUSH2 0xF2A JUMPI PUSH2 0xF29 PUSH2 0x207F JUMP JUMPDEST JUMPDEST EQ PUSH2 0xF34 JUMPI PUSH1 0x0 DUP1 REVERT JUMPDEST PUSH1 0x0 DUP1 SLOAD SWAP1 PUSH2 0x100 EXP SWAP1 DIV PUSH20 0xFFFFFFFFFFFFFFFFFFFFFFFFFFFFFFFFFFFFFFFF AND PUSH20 0xFFFFFFFFFFFFFFFFFFFFFFFFFFFFFFFFFFFFFFFF AND PUSH4 0x23B872DD PUSH1 0x2 PUSH1 0x0 DUP6 PUSH20 0xFFFFFFFFFFFFFFFFFFFFFFFFFFFFFFFFFFFFFFFF AND PUSH20 0xFFFFFFFFFFFFFFFFFFFFFFFFFFFFFFFFFFFFFFFF AND DUP2 MSTORE PUSH1 0x20 ADD SWAP1 DUP2 MSTORE PUSH1 0x20 ADD PUSH1 0x0 KECCAK256 PUSH1 0x0 DUP5 DUP2 MSTORE PUSH1 0x20 ADD SWAP1 DUP2 MSTORE PUSH1 0x20 ADD PUSH1 0x0 KECCAK256 PUSH1 0x5 ADD PUSH1 0x0 SWAP1 SLOAD SWAP1 PUSH2 0x100 EXP SWAP1 DIV PUSH20 0xFFFFFFFFFFFFFFFFFFFFFFFFFFFFFFFFFFFFFFFF AND PUSH1 0x2 PUSH1 0x0 DUP7 PUSH20 0xFFFFFFFFFFFFFFFFFFFFFFFFFFFFFFFFFFFFFFFF AND PUSH20 0xFFFFFFFFFFFFFFFFFFFFFFFFFFFFFFFFFFFFFFFF AND DUP2 MSTORE PUSH1 0x20 ADD SWAP1 DUP2 MSTORE PUSH1 0x20 ADD PUSH1 0x0 KECCAK256 PUSH1 0x0 DUP6 DUP2 MSTORE PUSH1 0x20 ADD SWAP1 DUP2 MSTORE PUSH1 0x20 ADD PUSH1 0x0 KECCAK256 PUSH1 0x1 ADD PUSH1 0x0 SWAP1 SLOAD SWAP1 PUSH2 0x100 EXP SWAP1 DIV PUSH20 0xFFFFFFFFFFFFFFFFFFFFFFFFFFFFFFFFFFFFFFFF AND PUSH1 0x2 PUSH1 0x0 DUP8 PUSH20 0xFFFFFFFFFFFFFFFFFFFFFFFFFFFFFFFFFFFFFFFF AND PUSH20 0xFFFFFFFFFFFFFFFFFFFFFFFFFFFFFFFFFFFFFFFF AND DUP2 MSTORE PUSH1 0x20 ADD SWAP1 DUP2 MSTORE PUSH1 0x20 ADD PUSH1 0x0 KECCAK256 PUSH1 0x0 DUP7 DUP2 MSTORE PUSH1 0x20 ADD SWAP1 DUP2 MSTORE PUSH1 0x20 ADD PUSH1 0x0 KECCAK256 PUSH1 0x2 ADD SLOAD PUSH1 0x40 MLOAD DUP5 PUSH4 0xFFFFFFFF AND PUSH1 0xE0 SHL DUP2 MSTORE PUSH1 0x4 ADD PUSH2 0x10CA SWAP4 SWAP3 SWAP2 SWAP1 PUSH2 0x2671 JUMP JUMPDEST PUSH1 0x20 PUSH1 0x40 MLOAD DUP1 DUP4 SUB DUP2 PUSH1 0x0 DUP8 GAS CALL ISZERO DUP1 ISZERO PUSH2 0x10E9 JUMPI RETURNDATASIZE PUSH1 0x0 DUP1 RETURNDATACOPY RETURNDATASIZE PUSH1 0x0 REVERT JUMPDEST POP POP POP POP PUSH1 0x40 MLOAD RETURNDATASIZE PUSH1 0x1F NOT PUSH1 0x1F DUP3 ADD AND DUP3 ADD DUP1 PUSH1 0x40 MSTORE POP DUP2 ADD SWAP1 PUSH2 0x110D SWAP2 SWAP1 PUSH2 0x26E0 JUMP JUMPDEST POP CALLER PUSH1 0x2 PUSH1 0x0 DUP5 PUSH20 0xFFFFFFFFFFFFFFFFFFFFFFFFFFFFFFFFFFFFFFFF AND PUSH20 0xFFFFFFFFFFFFFFFFFFFFFFFFFFFFFFFFFFFFFFFF AND DUP2 MSTORE PUSH1 0x20 ADD SWAP1 DUP2 MSTORE PUSH1 0x20 ADD PUSH1 0x0 KECCAK256 PUSH1 0x0 DUP4 DUP2 MSTORE PUSH1 0x20 ADD SWAP1 DUP2 MSTORE PUSH1 0x20 ADD PUSH1 0x0 KECCAK256 PUSH1 0x5 ADD PUSH1 0x0 PUSH2 0x100 EXP DUP2 SLOAD DUP2 PUSH20 0xFFFFFFFFFFFFFFFFFFFFFFFFFFFFFFFFFFFFFFFF MUL NOT AND SWAP1 DUP4 PUSH20 0xFFFFFFFFFFFFFFFFFFFFFFFFFFFFFFFFFFFFFFFF AND MUL OR SWAP1 SSTORE POP TIMESTAMP PUSH1 0x2 PUSH1 0x0 DUP5 PUSH20 0xFFFFFFFFFFFFFFFFFFFFFFFFFFFFFFFFFFFFFFFF AND PUSH20 0xFFFFFFFFFFFFFFFFFFFFFFFFFFFFFFFFFFFFFFFF AND DUP2 MSTORE PUSH1 0x20 ADD SWAP1 DUP2 MSTORE PUSH1 0x20 ADD PUSH1 0x0 KECCAK256 PUSH1 0x0 DUP4 DUP2 MSTORE PUSH1 0x20 ADD SWAP1 DUP2 MSTORE PUSH1 0x20 ADD PUSH1 0x0 KECCAK256 PUSH1 0x4 ADD DUP2 SWAP1 SSTORE POP PUSH1 0x1 PUSH1 0x2 PUSH1 0x0 DUP5 PUSH20 0xFFFFFFFFFFFFFFFFFFFFFFFFFFFFFFFFFFFFFFFF AND PUSH20 0xFFFFFFFFFFFFFFFFFFFFFFFFFFFFFFFFFFFFFFFF AND DUP2 MSTORE PUSH1 0x20 ADD SWAP1 DUP2 MSTORE PUSH1 0x20 ADD PUSH1 0x0 KECCAK256 PUSH1 0x0 DUP4 DUP2 MSTORE PUSH1 0x20 ADD SWAP1 DUP2 MSTORE PUSH1 0x20 ADD PUSH1 0x0 KECCAK256 PUSH1 0xA ADD PUSH1 0x0 PUSH2 0x100 EXP DUP2 SLOAD DUP2 PUSH1 0xFF MUL NOT AND SWAP1 DUP4 PUSH1 0x3 DUP2 GT ISZERO PUSH2 0x126F JUMPI PUSH2 0x126E PUSH2 0x207F JUMP JUMPDEST JUMPDEST MUL OR SWAP1 SSTORE POP POP POP JUMP JUMPDEST PUSH1 0x2 PUSH1 0x0 DUP5 PUSH20 0xFFFFFFFFFFFFFFFFFFFFFFFFFFFFFFFFFFFFFFFF AND PUSH20 0xFFFFFFFFFFFFFFFFFFFFFFFFFFFFFFFFFFFFFFFF AND DUP2 MSTORE PUSH1 0x20 ADD SWAP1 DUP2 MSTORE PUSH1 0x20 ADD PUSH1 0x0 KECCAK256 PUSH1 0x0 DUP4 DUP2 MSTORE PUSH1 0x20 ADD SWAP1 DUP2 MSTORE PUSH1 0x20 ADD PUSH1 0x0 KECCAK256 PUSH1 0x3 ADD SLOAD PUSH1 0x2 PUSH1 0x0 DUP6 PUSH20 0xFFFFFFFFFFFFFFFFFFFFFFFFFFFFFFFFFFFFFFFF AND PUSH20 0xFFFFFFFFFFFFFFFFFFFFFFFFFFFFFFFFFFFFFFFF AND DUP2 MSTORE PUSH1 0x20 ADD SWAP1 DUP2 MSTORE PUSH1 0x20 ADD PUSH1 0x0 KECCAK256 PUSH1 0x0 DUP5 DUP2 MSTORE PUSH1 0x20 ADD SWAP1 DUP2 MSTORE PUSH1 0x20 ADD PUSH1 0x0 KECCAK256 PUSH1 0x4 ADD SLOAD TIMESTAMP PUSH2 0x132B SWAP2 SWAP1 PUSH2 0x270D JUMP JUMPDEST GT ISZERO PUSH2 0x1336 JUMPI PUSH1 0x0 DUP1 REVERT JUMPDEST PUSH1 0x2 PUSH1 0x0 DUP5 PUSH20 0xFFFFFFFFFFFFFFFFFFFFFFFFFFFFFFFFFFFFFFFF AND PUSH20 0xFFFFFFFFFFFFFFFFFFFFFFFFFFFFFFFFFFFFFFFF AND DUP2 MSTORE PUSH1 0x20 ADD SWAP1 DUP2 MSTORE PUSH1 0x20 ADD PUSH1 0x0 KECCAK256 PUSH1 0x0 DUP4 DUP2 MSTORE PUSH1 0x20 ADD SWAP1 DUP2 MSTORE PUSH1 0x20 ADD PUSH1 0x0 KECCAK256 PUSH1 0x1 ADD PUSH1 0x0 SWAP1 SLOAD SWAP1 PUSH2 0x100 EXP SWAP1 DIV PUSH20 0xFFFFFFFFFFFFFFFFFFFFFFFFFFFFFFFFFFFFFFFF AND PUSH20 0xFFFFFFFFFFFFFFFFFFFFFFFFFFFFFFFFFFFFFFFF AND CALLER PUSH20 0xFFFFFFFFFFFFFFFFFFFFFFFFFFFFFFFFFFFFFFFF AND EQ PUSH2 0x13E1 JUMPI PUSH1 0x0 DUP1 REVERT JUMPDEST PUSH1 0x0 PUSH2 0x143F PUSH1 0x2 PUSH1 0x0 DUP7 PUSH20 0xFFFFFFFFFFFFFFFFFFFFFFFFFFFFFFFFFFFFFFFF AND PUSH20 0xFFFFFFFFFFFFFFFFFFFFFFFFFFFFFFFFFFFFFFFF AND DUP2 MSTORE PUSH1 0x20 ADD SWAP1 DUP2 MSTORE PUSH1 0x20 ADD PUSH1 0x0 KECCAK256 PUSH1 0x0 DUP6 DUP2 MSTORE PUSH1 0x20 ADD SWAP1 DUP2 MSTORE PUSH1 0x20 ADD PUSH1 0x0 KECCAK256 PUSH1 0x2 ADD SLOAD PUSH2 0x1EA5 JUMP JUMPDEST SWAP1 POP PUSH1 0x0 DUP1 SLOAD SWAP1 PUSH2 0x100 EXP SWAP1 DIV PUSH20 0xFFFFFFFFFFFFFFFFFFFFFFFFFFFFFFFFFFFFFFFF AND PUSH20 0xFFFFFFFFFFFFFFFFFFFFFFFFFFFFFFFFFFFFFFFF AND PUSH4 0x23B872DD PUSH1 0x2 PUSH1 0x0 DUP8 PUSH20 0xFFFFFFFFFFFFFFFFFFFFFFFFFFFFFFFFFFFFFFFF AND PUSH20 0xFFFFFFFFFFFFFFFFFFFFFFFFFFFFFFFFFFFFFFFF AND DUP2 MSTORE PUSH1 0x20 ADD SWAP1 DUP2 MSTORE PUSH1 0x20 ADD PUSH1 0x0 KECCAK256 PUSH1 0x0 DUP7 DUP2 MSTORE PUSH1 0x20 ADD SWAP1 DUP2 MSTORE PUSH1 0x20 ADD PUSH1 0x0 KECCAK256 PUSH1 0x1 ADD PUSH1 0x0 SWAP1 SLOAD SWAP1 PUSH2 0x100 EXP SWAP1 DIV PUSH20 0xFFFFFFFFFFFFFFFFFFFFFFFFFFFFFFFFFFFFFFFF AND PUSH1 0x2 PUSH1 0x0 DUP9 PUSH20 0xFFFFFFFFFFFFFFFFFFFFFFFFFFFFFFFFFFFFFFFF AND PUSH20 0xFFFFFFFFFFFFFFFFFFFFFFFFFFFFFFFFFFFFFFFF AND DUP2 MSTORE PUSH1 0x20 ADD SWAP1 DUP2 MSTORE PUSH1 0x20 ADD PUSH1 0x0 KECCAK256 PUSH1 0x0 DUP8 DUP2 MSTORE PUSH1 0x20 ADD SWAP1 DUP2 MSTORE PUSH1 0x20 ADD PUSH1 0x0 KECCAK256 PUSH1 0x5 ADD PUSH1 0x0 SWAP1 SLOAD SWAP1 PUSH2 0x100 EXP SWAP1 DIV PUSH20 0xFFFFFFFFFFFFFFFFFFFFFFFFFFFFFFFFFFFFFFFF AND DUP5 PUSH1 0x40 MLOAD DUP5 PUSH4 0xFFFFFFFF AND PUSH1 0xE0 SHL DUP2 MSTORE PUSH1 0x4 ADD PUSH2 0x1584 SWAP4 SWAP3 SWAP2 SWAP1 PUSH2 0x2671 JUMP JUMPDEST PUSH1 0x20 PUSH1 0x40 MLOAD DUP1 DUP4 SUB DUP2 PUSH1 0x0 DUP8 GAS CALL ISZERO DUP1 ISZERO PUSH2 0x15A3 JUMPI RETURNDATASIZE PUSH1 0x0 DUP1 RETURNDATACOPY RETURNDATASIZE PUSH1 0x0 REVERT JUMPDEST POP POP POP POP PUSH1 0x40 MLOAD RETURNDATASIZE PUSH1 0x1F NOT PUSH1 0x1F DUP3 ADD AND DUP3 ADD DUP1 PUSH1 0x40 MSTORE POP DUP2 ADD SWAP1 PUSH2 0x15C7 SWAP2 SWAP1 PUSH2 0x26E0 JUMP JUMPDEST POP PUSH1 0x2 DUP1 PUSH1 0x0 DUP7 PUSH20 0xFFFFFFFFFFFFFFFFFFFFFFFFFFFFFFFFFFFFFFFF AND PUSH20 0xFFFFFFFFFFFFFFFFFFFFFFFFFFFFFFFFFFFFFFFF AND DUP2 MSTORE PUSH1 0x20 ADD SWAP1 DUP2 MSTORE PUSH1 0x20 ADD PUSH1 0x0 KECCAK256 PUSH1 0x0 DUP6 DUP2 MSTORE PUSH1 0x20 ADD SWAP1 DUP2 MSTORE PUSH1 0x20 ADD PUSH1 0x0 KECCAK256 PUSH1 0xA ADD PUSH1 0x0 PUSH2 0x100 EXP DUP2 SLOAD DUP2 PUSH1 0xFF MUL NOT AND SWAP1 DUP4 PUSH1 0x3 DUP2 GT ISZERO PUSH2 0x163E JUMPI PUSH2 0x163D PUSH2 0x207F JUMP JUMPDEST JUMPDEST MUL OR SWAP1 SSTORE POP PUSH1 0x3 PUSH1 0x0 PUSH1 0x4 SLOAD DUP2 MSTORE PUSH1 0x20 ADD SWAP1 DUP2 MSTORE PUSH1 0x20 ADD PUSH1 0x0 KECCAK256 PUSH1 0x3 PUSH1 0x0 DUP5 DUP2 MSTORE PUSH1 0x20 ADD SWAP1 DUP2 MSTORE PUSH1 0x20 ADD PUSH1 0x0 KECCAK256 PUSH1 0x0 DUP3 ADD PUSH1 0x0 SWAP1 SLOAD SWAP1 PUSH2 0x100 EXP SWAP1 DIV PUSH20 0xFFFFFFFFFFFFFFFFFFFFFFFFFFFFFFFFFFFFFFFF AND DUP2 PUSH1 0x0 ADD PUSH1 0x0 PUSH2 0x100 EXP DUP2 SLOAD DUP2 PUSH20 0xFFFFFFFFFFFFFFFFFFFFFFFFFFFFFFFFFFFFFFFF MUL NOT AND SWAP1 DUP4 PUSH20 0xFFFFFFFFFFFFFFFFFFFFFFFFFFFFFFFFFFFFFFFF AND MUL OR SWAP1 SSTORE POP PUSH1 0x1 DUP3 ADD SLOAD DUP2 PUSH1 0x1 ADD SSTORE PUSH1 0x2 DUP3 ADD PUSH1 0x0 SWAP1 SLOAD SWAP1 PUSH2 0x100 EXP SWAP1 DIV PUSH1 0xFF AND DUP2 PUSH1 0x2 ADD PUSH1 0x0 PUSH2 0x100 EXP DUP2 SLOAD DUP2 PUSH1 0xFF MUL NOT AND SWAP1 DUP4 PUSH1 0x2 DUP2 GT ISZERO PUSH2 0x1714 JUMPI PUSH2 0x1713 PUSH2 0x207F JUMP JUMPDEST JUMPDEST MUL OR SWAP1 SSTORE POP PUSH1 0x3 DUP3 ADD SLOAD DUP2 PUSH1 0x3 ADD SSTORE SWAP1 POP POP PUSH1 0x4 PUSH1 0x0 DUP2 SLOAD DUP1 SWAP3 SWAP2 SWAP1 PUSH2 0x1739 SWAP1 PUSH2 0x2741 JUMP JUMPDEST SWAP2 SWAP1 POP SSTORE POP PUSH1 0x0 PUSH1 0x2 PUSH1 0x0 DUP7 PUSH20 0xFFFFFFFFFFFFFFFFFFFFFFFFFFFFFFFFFFFFFFFF AND PUSH20 0xFFFFFFFFFFFFFFFFFFFFFFFFFFFFFFFFFFFFFFFF AND DUP2 MSTORE PUSH1 0x20 ADD SWAP1 DUP2 MSTORE PUSH1 0x20 ADD PUSH1 0x0 KECCAK256 PUSH1 0x0 DUP6 DUP2 MSTORE PUSH1 0x20 ADD SWAP1 DUP2 MSTORE PUSH1 0x20 ADD PUSH1 0x0 KECCAK256 PUSH1 0x6 ADD PUSH1 0x3 ADD SLOAD SWAP1 POP PUSH2 0x17A6 DUP6 DUP6 ADDRESS CALLER DUP6 PUSH2 0x1C84 JUMP JUMPDEST POP POP POP POP POP JUMP JUMPDEST PUSH1 0x1 PUSH1 0x0 SWAP1 SLOAD SWAP1 PUSH2 0x100 EXP SWAP1 DIV PUSH20 0xFFFFFFFFFFFFFFFFFFFFFFFFFFFFFFFFFFFFFFFF AND PUSH20 0xFFFFFFFFFFFFFFFFFFFFFFFFFFFFFFFFFFFFFFFF AND CALLER PUSH20 0xFFFFFFFFFFFFFFFFFFFFFFFFFFFFFFFFFFFFFFFF AND EQ PUSH2 0x1807 JUMPI PUSH1 0x0 DUP1 REVERT JUMPDEST JUMP JUMPDEST PUSH1 0x0 PUSH1 0x1 PUSH1 0x0 SWAP1 SLOAD SWAP1 PUSH2 0x100 EXP SWAP1 DIV PUSH20 0xFFFFFFFFFFFFFFFFFFFFFFFFFFFFFFFFFFFFFFFF AND PUSH20 0xFFFFFFFFFFFFFFFFFFFFFFFFFFFFFFFFFFFFFFFF AND CALLER PUSH20 0xFFFFFFFFFFFFFFFFFFFFFFFFFFFFFFFFFFFFFFFF AND EQ PUSH2 0x1865 JUMPI PUSH1 0x0 DUP1 REVERT JUMPDEST DUP2 PUSH1 0x1 PUSH1 0x0 PUSH2 0x100 EXP DUP2 SLOAD DUP2 PUSH20 0xFFFFFFFFFFFFFFFFFFFFFFFFFFFFFFFFFFFFFFFF MUL NOT AND SWAP1 DUP4 PUSH20 0xFFFFFFFFFFFFFFFFFFFFFFFFFFFFFFFFFFFFFFFF AND MUL OR SWAP1 SSTORE SWAP1 POP SWAP2 SWAP1 POP JUMP JUMPDEST PUSH1 0x2 PUSH1 0x0 DUP4 PUSH20 0xFFFFFFFFFFFFFFFFFFFFFFFFFFFFFFFFFFFFFFFF AND PUSH20 0xFFFFFFFFFFFFFFFFFFFFFFFFFFFFFFFFFFFFFFFF AND DUP2 MSTORE PUSH1 0x20 ADD SWAP1 DUP2 MSTORE PUSH1 0x20 ADD PUSH1 0x0 KECCAK256 PUSH1 0x0 DUP3 DUP2 MSTORE PUSH1 0x20 ADD SWAP1 DUP2 MSTORE PUSH1 0x20 ADD PUSH1 0x0 KECCAK256 PUSH1 0x3 ADD SLOAD PUSH1 0x2 PUSH1 0x0 DUP5 PUSH20 0xFFFFFFFFFFFFFFFFFFFFFFFFFFFFFFFFFFFFFFFF AND PUSH20 0xFFFFFFFFFFFFFFFFFFFFFFFFFFFFFFFFFFFFFFFF AND DUP2 MSTORE PUSH1 0x20 ADD SWAP1 DUP2 MSTORE PUSH1 0x20 ADD PUSH1 0x0 KECCAK256 PUSH1 0x0 DUP4 DUP2 MSTORE PUSH1 0x20 ADD SWAP1 DUP2 MSTORE PUSH1 0x20 ADD PUSH1 0x0 KECCAK256 PUSH1 0x4 ADD SLOAD TIMESTAMP PUSH2 0x195F SWAP2 SWAP1 PUSH2 0x270D JUMP JUMPDEST GT PUSH2 0x1969 JUMPI PUSH1 0x0 DUP1 REVERT JUMPDEST PUSH1 0x2 PUSH1 0x0 DUP4 PUSH20 0xFFFFFFFFFFFFFFFFFFFFFFFFFFFFFFFFFFFFFFFF AND PUSH20 0xFFFFFFFFFFFFFFFFFFFFFFFFFFFFFFFFFFFFFFFF AND DUP2 MSTORE PUSH1 0x20 ADD SWAP1 DUP2 MSTORE PUSH1 0x20 ADD PUSH1 0x0 KECCAK256 PUSH1 0x0 DUP3 DUP2 MSTORE PUSH1 0x20 ADD SWAP1 DUP2 MSTORE PUSH1 0x20 ADD PUSH1 0x0 KECCAK256 PUSH1 0x5 ADD PUSH1 0x0 SWAP1 SLOAD SWAP1 PUSH2 0x100 EXP SWAP1 DIV PUSH20 0xFFFFFFFFFFFFFFFFFFFFFFFFFFFFFFFFFFFFFFFF AND PUSH20 0xFFFFFFFFFFFFFFFFFFFFFFFFFFFFFFFFFFFFFFFF AND CALLER PUSH20 0xFFFFFFFFFFFFFFFFFFFFFFFFFFFFFFFFFFFFFFFF AND EQ PUSH2 0x1A14 JUMPI PUSH1 0x0 DUP1 REVERT JUMPDEST PUSH1 0x0 PUSH1 0x2 PUSH1 0x0 DUP5 PUSH20 0xFFFFFFFFFFFFFFFFFFFFFFFFFFFFFFFFFFFFFFFF AND PUSH20 0xFFFFFFFFFFFFFFFFFFFFFFFFFFFFFFFFFFFFFFFF AND DUP2 MSTORE PUSH1 0x20 ADD SWAP1 DUP2 MSTORE PUSH1 0x20 ADD PUSH1 0x0 KECCAK256 PUSH1 0x0 DUP4 DUP2 MSTORE PUSH1 0x20 ADD SWAP1 DUP2 MSTORE PUSH1 0x20 ADD PUSH1 0x0 KECCAK256 PUSH1 0x6 ADD PUSH1 0x3 ADD SLOAD SWAP1 POP PUSH2 0x1A7C DUP4 DUP4 ADDRESS CALLER DUP6 PUSH2 0x1C84 JUMP JUMPDEST PUSH1 0x3 PUSH1 0x2 PUSH1 0x0 DUP6 PUSH20 0xFFFFFFFFFFFFFFFFFFFFFFFFFFFFFFFFFFFFFFFF AND PUSH20 0xFFFFFFFFFFFFFFFFFFFFFFFFFFFFFFFFFFFFFFFF AND DUP2 MSTORE PUSH1 0x20 ADD SWAP1 DUP2 MSTORE PUSH1 0x20 ADD PUSH1 0x0 KECCAK256 PUSH1 0x0 DUP5 DUP2 MSTORE PUSH1 0x20 ADD SWAP1 DUP2 MSTORE PUSH1 0x20 ADD PUSH1 0x0 KECCAK256 PUSH1 0xA ADD PUSH1 0x0 PUSH2 0x100 EXP DUP2 SLOAD DUP2 PUSH1 0xFF MUL NOT AND SWAP1 DUP4 PUSH1 0x3 DUP2 GT ISZERO PUSH2 0x1AF3 JUMPI PUSH2 0x1AF2 PUSH2 0x207F JUMP JUMPDEST JUMPDEST MUL OR SWAP1 SSTORE POP POP POP POP JUMP JUMPDEST PUSH1 0x0 DUP1 DUP3 SWAP1 POP DUP1 PUSH20 0xFFFFFFFFFFFFFFFFFFFFFFFFFFFFFFFFFFFFFFFF AND PUSH4 0x1FFC9A7 PUSH32 0x80AC58CD00000000000000000000000000000000000000000000000000000000 PUSH1 0x40 MLOAD DUP3 PUSH4 0xFFFFFFFF AND PUSH1 0xE0 SHL DUP2 MSTORE PUSH1 0x4 ADD PUSH2 0x1B5C SWAP2 SWAP1 PUSH2 0x27A5 JUMP JUMPDEST PUSH1 0x20 PUSH1 0x40 MLOAD DUP1 DUP4 SUB DUP2 DUP7 GAS STATICCALL ISZERO DUP1 ISZERO PUSH2 0x1B79 JUMPI RETURNDATASIZE PUSH1 0x0 DUP1 RETURNDATACOPY RETURNDATASIZE PUSH1 0x0 REVERT JUMPDEST POP POP POP POP PUSH1 0x40 MLOAD RETURNDATASIZE PUSH1 0x1F NOT PUSH1 0x1F DUP3 ADD AND DUP3 ADD DUP1 PUSH1 0x40 MSTORE POP DUP2 ADD SWAP1 PUSH2 0x1B9D SWAP2 SWAP1 PUSH2 0x26E0 JUMP JUMPDEST ISZERO PUSH2 0x1BAC JUMPI PUSH1 0x0 SWAP2 POP POP PUSH2 0x1C5B JUMP JUMPDEST DUP1 PUSH20 0xFFFFFFFFFFFFFFFFFFFFFFFFFFFFFFFFFFFFFFFF AND PUSH4 0x1FFC9A7 PUSH32 0xD9B67A2600000000000000000000000000000000000000000000000000000000 PUSH1 0x40 MLOAD DUP3 PUSH4 0xFFFFFFFF AND PUSH1 0xE0 SHL DUP2 MSTORE PUSH1 0x4 ADD PUSH2 0x1C05 SWAP2 SWAP1 PUSH2 0x27A5 JUMP JUMPDEST PUSH1 0x20 PUSH1 0x40 MLOAD DUP1 DUP4 SUB DUP2 DUP7 GAS STATICCALL ISZERO DUP1 ISZERO PUSH2 0x1C22 JUMPI RETURNDATASIZE PUSH1 0x0 DUP1 RETURNDATACOPY RETURNDATASIZE PUSH1 0x0 REVERT JUMPDEST POP POP POP POP PUSH1 0x40 MLOAD RETURNDATASIZE PUSH1 0x1F NOT PUSH1 0x1F DUP3 ADD AND DUP3 ADD DUP1 PUSH1 0x40 MSTORE POP DUP2 ADD SWAP1 PUSH2 0x1C46 SWAP2 SWAP1 PUSH2 0x26E0 JUMP JUMPDEST ISZERO PUSH2 0x1C55 JUMPI PUSH1 0x1 SWAP2 POP POP PUSH2 0x1C5B JUMP JUMPDEST PUSH1 0x2 SWAP2 POP POP JUMPDEST SWAP2 SWAP1 POP JUMP JUMPDEST PUSH1 0x0 DUP1 SLOAD SWAP1 PUSH2 0x100 EXP SWAP1 DIV PUSH20 0xFFFFFFFFFFFFFFFFFFFFFFFFFFFFFFFFFFFFFFFF AND DUP2 JUMP JUMPDEST PUSH1 0x0 PUSH1 0x2 DUP2 GT ISZERO PUSH2 0x1C98 JUMPI PUSH2 0x1C97 PUSH2 0x207F JUMP JUMPDEST JUMPDEST PUSH1 0x2 PUSH1 0x0 DUP8 PUSH20 0xFFFFFFFFFFFFFFFFFFFFFFFFFFFFFFFFFFFFFFFF AND PUSH20 0xFFFFFFFFFFFFFFFFFFFFFFFFFFFFFFFFFFFFFFFF AND DUP2 MSTORE PUSH1 0x20 ADD SWAP1 DUP2 MSTORE PUSH1 0x20 ADD PUSH1 0x0 KECCAK256 PUSH1 0x0 DUP7 DUP2 MSTORE PUSH1 0x20 ADD SWAP1 DUP2 MSTORE PUSH1 0x20 ADD PUSH1 0x0 KECCAK256 PUSH1 0x6 ADD PUSH1 0x2 ADD PUSH1 0x0 SWAP1 SLOAD SWAP1 PUSH2 0x100 EXP SWAP1 DIV PUSH1 0xFF AND PUSH1 0x2 DUP2 GT ISZERO PUSH2 0x1D0E JUMPI PUSH2 0x1D0D PUSH2 0x207F JUMP JUMPDEST JUMPDEST SUB PUSH2 0x1D8D JUMPI PUSH1 0x0 DUP6 SWAP1 POP DUP1 PUSH20 0xFFFFFFFFFFFFFFFFFFFFFFFFFFFFFFFFFFFFFFFF AND PUSH4 0x23B872DD DUP6 DUP6 DUP9 PUSH1 0x40 MLOAD DUP5 PUSH4 0xFFFFFFFF AND PUSH1 0xE0 SHL DUP2 MSTORE PUSH1 0x4 ADD PUSH2 0x1D55 SWAP4 SWAP3 SWAP2 SWAP1 PUSH2 0x2671 JUMP JUMPDEST PUSH1 0x0 PUSH1 0x40 MLOAD DUP1 DUP4 SUB DUP2 PUSH1 0x0 DUP8 DUP1 EXTCODESIZE ISZERO DUP1 ISZERO PUSH2 0x1D6F JUMPI PUSH1 0x0 DUP1 REVERT JUMPDEST POP GAS CALL ISZERO DUP1 ISZERO PUSH2 0x1D83 JUMPI RETURNDATASIZE PUSH1 0x0 DUP1 RETURNDATACOPY RETURNDATASIZE PUSH1 0x0 REVERT JUMPDEST POP POP POP POP POP PUSH2 0x1E9E JUMP JUMPDEST PUSH1 0x1 PUSH1 0x2 DUP2 GT ISZERO PUSH2 0x1DA1 JUMPI PUSH2 0x1DA0 PUSH2 0x207F JUMP JUMPDEST JUMPDEST PUSH1 0x2 PUSH1 0x0 DUP8 PUSH20 0xFFFFFFFFFFFFFFFFFFFFFFFFFFFFFFFFFFFFFFFF AND PUSH20 0xFFFFFFFFFFFFFFFFFFFFFFFFFFFFFFFFFFFFFFFF AND DUP2 MSTORE PUSH1 0x20 ADD SWAP1 DUP2 MSTORE PUSH1 0x20 ADD PUSH1 0x0 KECCAK256 PUSH1 0x0 DUP7 DUP2 MSTORE PUSH1 0x20 ADD SWAP1 DUP2 MSTORE PUSH1 0x20 ADD PUSH1 0x0 KECCAK256 PUSH1 0x6 ADD PUSH1 0x2 ADD PUSH1 0x0 SWAP1 SLOAD SWAP1 PUSH2 0x100 EXP SWAP1 DIV PUSH1 0xFF AND PUSH1 0x2 DUP2 GT ISZERO PUSH2 0x1E17 JUMPI PUSH2 0x1E16 PUSH2 0x207F JUMP JUMPDEST JUMPDEST SUB PUSH2 0x1E98 JUMPI PUSH1 0x0 DUP6 SWAP1 POP DUP1 PUSH20 0xFFFFFFFFFFFFFFFFFFFFFFFFFFFFFFFFFFFFFFFF AND PUSH4 0xF242432A DUP6 DUP6 DUP9 DUP7 PUSH1 0x40 MLOAD DUP6 PUSH4 0xFFFFFFFF AND PUSH1 0xE0 SHL DUP2 MSTORE PUSH1 0x4 ADD PUSH2 0x1E60 SWAP5 SWAP4 SWAP3 SWAP2 SWAP1 PUSH2 0x27F7 JUMP JUMPDEST PUSH1 0x0 PUSH1 0x40 MLOAD DUP1 DUP4 SUB DUP2 PUSH1 0x0 DUP8 DUP1 EXTCODESIZE ISZERO DUP1 ISZERO PUSH2 0x1E7A JUMPI PUSH1 0x0 DUP1 REVERT JUMPDEST POP GAS CALL ISZERO DUP1 ISZERO PUSH2 0x1E8E JUMPI RETURNDATASIZE PUSH1 0x0 DUP1 RETURNDATACOPY RETURNDATASIZE PUSH1 0x0 REVERT JUMPDEST POP POP POP POP POP PUSH2 0x1E9D JUMP JUMPDEST PUSH1 0x0 DUP1 REVERT JUMPDEST JUMPDEST POP POP POP POP POP JUMP JUMPDEST PUSH1 0x0 DUP2 SWAP1 POP SWAP2 SWAP1 POP JUMP JUMPDEST PUSH1 0x40 MLOAD DUP1 PUSH2 0x100 ADD PUSH1 0x40 MSTORE DUP1 PUSH1 0x0 DUP2 MSTORE PUSH1 0x20 ADD PUSH1 0x0 PUSH20 0xFFFFFFFFFFFFFFFFFFFFFFFFFFFFFFFFFFFFFFFF AND DUP2 MSTORE PUSH1 0x20 ADD PUSH1 0x0 DUP2 MSTORE PUSH1 0x20 ADD PUSH1 0x0 DUP2 MSTORE PUSH1 0x20 ADD PUSH1 0x0 DUP2 MSTORE PUSH1 0x20 ADD PUSH1 0x0 PUSH20 0xFFFFFFFFFFFFFFFFFFFFFFFFFFFFFFFFFFFFFFFF AND DUP2 MSTORE PUSH1 0x20 ADD PUSH2 0x1F19 PUSH2 0x1F38 JUMP JUMPDEST DUP2 MSTORE PUSH1 0x20 ADD PUSH1 0x0 PUSH1 0x3 DUP2 GT ISZERO PUSH2 0x1F32 JUMPI PUSH2 0x1F31 PUSH2 0x207F JUMP JUMPDEST JUMPDEST DUP2 MSTORE POP SWAP1 JUMP JUMPDEST PUSH1 0x40 MLOAD DUP1 PUSH1 0x80 ADD PUSH1 0x40 MSTORE DUP1 PUSH1 0x0 PUSH20 0xFFFFFFFFFFFFFFFFFFFFFFFFFFFFFFFFFFFFFFFF AND DUP2 MSTORE PUSH1 0x20 ADD PUSH1 0x0 DUP2 MSTORE PUSH1 0x20 ADD PUSH1 0x0 PUSH1 0x2 DUP2 GT ISZERO PUSH2 0x1F7B JUMPI PUSH2 0x1F7A PUSH2 0x207F JUMP JUMPDEST JUMPDEST DUP2 MSTORE PUSH1 0x20 ADD PUSH1 0x0 DUP2 MSTORE POP SWAP1 JUMP JUMPDEST PUSH1 0x0 DUP1 REVERT JUMPDEST PUSH1 0x0 DUP2 SWAP1 POP SWAP2 SWAP1 POP JUMP JUMPDEST PUSH2 0x1FA0 DUP2 PUSH2 0x1F8D JUMP JUMPDEST DUP2 EQ PUSH2 0x1FAB JUMPI PUSH1 0x0 DUP1 REVERT JUMPDEST POP JUMP JUMPDEST PUSH1 0x0 DUP2 CALLDATALOAD SWAP1 POP PUSH2 0x1FBD DUP2 PUSH2 0x1F97 JUMP JUMPDEST SWAP3 SWAP2 POP POP JUMP JUMPDEST PUSH1 0x0 DUP1 PUSH1 0x40 DUP4 DUP6 SUB SLT ISZERO PUSH2 0x1FDA JUMPI PUSH2 0x1FD9 PUSH2 0x1F88 JUMP JUMPDEST JUMPDEST PUSH1 0x0 PUSH2 0x1FE8 DUP6 DUP3 DUP7 ADD PUSH2 0x1FAE JUMP JUMPDEST SWAP3 POP POP PUSH1 0x20 PUSH2 0x1FF9 DUP6 DUP3 DUP7 ADD PUSH2 0x1FAE JUMP JUMPDEST SWAP2 POP POP SWAP3 POP SWAP3 SWAP1 POP JUMP JUMPDEST PUSH1 0x0 DUP2 MLOAD SWAP1 POP SWAP2 SWAP1 POP JUMP JUMPDEST PUSH1 0x0 DUP3 DUP3 MSTORE PUSH1 0x20 DUP3 ADD SWAP1 POP SWAP3 SWAP2 POP POP JUMP JUMPDEST PUSH1 0x0 DUP2 SWAP1 POP PUSH1 0x20 DUP3 ADD SWAP1 POP SWAP2 SWAP1 POP JUMP JUMPDEST PUSH2 0x2038 DUP2 PUSH2 0x1F8D JUMP JUMPDEST DUP3 MSTORE POP POP JUMP JUMPDEST PUSH1 0x0 PUSH20 0xFFFFFFFFFFFFFFFFFFFFFFFFFFFFFFFFFFFFFFFF DUP3 AND SWAP1 POP SWAP2 SWAP1 POP JUMP JUMPDEST PUSH1 0x0 PUSH2 0x2069 DUP3 PUSH2 0x203E JUMP JUMPDEST SWAP1 POP SWAP2 SWAP1 POP JUMP JUMPDEST PUSH2 0x2079 DUP2 PUSH2 0x205E JUMP JUMPDEST DUP3 MSTORE POP POP JUMP JUMPDEST PUSH32 0x4E487B7100000000000000000000000000000000000000000000000000000000 PUSH1 0x0 MSTORE PUSH1 0x21 PUSH1 0x4 MSTORE PUSH1 0x24 PUSH1 0x0 REVERT JUMPDEST PUSH1 0x3 DUP2 LT PUSH2 0x20BF JUMPI PUSH2 0x20BE PUSH2 0x207F JUMP JUMPDEST JUMPDEST POP JUMP JUMPDEST PUSH1 0x0 DUP2 SWAP1 POP PUSH2 0x20D0 DUP3 PUSH2 0x20AE JUMP JUMPDEST SWAP2 SWAP1 POP JUMP JUMPDEST PUSH1 0x0 PUSH2 0x20E0 DUP3 PUSH2 0x20C2 JUMP JUMPDEST SWAP1 POP SWAP2 SWAP1 POP JUMP JUMPDEST PUSH2 0x20F0 DUP2 PUSH2 0x20D5 JUMP JUMPDEST DUP3 MSTORE POP POP JUMP JUMPDEST PUSH1 0x80 DUP3 ADD PUSH1 0x0 DUP3 ADD MLOAD PUSH2 0x210C PUSH1 0x0 DUP6 ADD DUP3 PUSH2 0x2070 JUMP JUMPDEST POP PUSH1 0x20 DUP3 ADD MLOAD PUSH2 0x211F PUSH1 0x20 DUP6 ADD DUP3 PUSH2 0x202F JUMP JUMPDEST POP PUSH1 0x40 DUP3 ADD MLOAD PUSH2 0x2132 PUSH1 0x40 DUP6 ADD DUP3 PUSH2 0x20E7 JUMP JUMPDEST POP PUSH1 0x60 DUP3 ADD MLOAD PUSH2 0x2145 PUSH1 0x60 DUP6 ADD DUP3 PUSH2 0x202F JUMP JUMPDEST POP POP POP POP JUMP JUMPDEST PUSH1 0x4 DUP2 LT PUSH2 0x215C JUMPI PUSH2 0x215B PUSH2 0x207F JUMP JUMPDEST JUMPDEST POP JUMP JUMPDEST PUSH1 0x0 DUP2 SWAP1 POP PUSH2 0x216D DUP3 PUSH2 0x214B JUMP JUMPDEST SWAP2 SWAP1 POP JUMP JUMPDEST PUSH1 0x0 PUSH2 0x217D DUP3 PUSH2 0x215F JUMP JUMPDEST SWAP1 POP SWAP2 SWAP1 POP JUMP JUMPDEST PUSH2 0x218D DUP2 PUSH2 0x2172 JUMP JUMPDEST DUP3 MSTORE POP POP JUMP JUMPDEST PUSH2 0x160 DUP3 ADD PUSH1 0x0 DUP3 ADD MLOAD PUSH2 0x21AA PUSH1 0x0 DUP6 ADD DUP3 PUSH2 0x202F JUMP JUMPDEST POP PUSH1 0x20 DUP3 ADD MLOAD PUSH2 0x21BD PUSH1 0x20 DUP6 ADD DUP3 PUSH2 0x2070 JUMP JUMPDEST POP PUSH1 0x40 DUP3 ADD MLOAD PUSH2 0x21D0 PUSH1 0x40 DUP6 ADD DUP3 PUSH2 0x202F JUMP JUMPDEST POP PUSH1 0x60 DUP3 ADD MLOAD PUSH2 0x21E3 PUSH1 0x60 DUP6 ADD DUP3 PUSH2 0x202F JUMP JUMPDEST POP PUSH1 0x80 DUP3 ADD MLOAD PUSH2 0x21F6 PUSH1 0x80 DUP6 ADD DUP3 PUSH2 0x202F JUMP JUMPDEST POP PUSH1 0xA0 DUP3 ADD MLOAD PUSH2 0x2209 PUSH1 0xA0 DUP6 ADD DUP3 PUSH2 0x2070 JUMP JUMPDEST POP PUSH1 0xC0 DUP3 ADD MLOAD PUSH2 0x221C PUSH1 0xC0 DUP6 ADD DUP3 PUSH2 0x20F6 JUMP JUMPDEST POP PUSH1 0xE0 DUP3 ADD MLOAD PUSH2 0x2230 PUSH2 0x140 DUP6 ADD DUP3 PUSH2 0x2184 JUMP JUMPDEST POP POP POP POP JUMP JUMPDEST PUSH1 0x0 PUSH2 0x2242 DUP4 DUP4 PUSH2 0x2193 JUMP JUMPDEST PUSH2 0x160 DUP4 ADD SWAP1 POP SWAP3 SWAP2 POP POP JUMP JUMPDEST PUSH1 0x0 PUSH1 0x20 DUP3 ADD SWAP1 POP SWAP2 SWAP1 POP JUMP JUMPDEST PUSH1 0x0 PUSH2 0x2267 DUP3 PUSH2 0x2003 JUMP JUMPDEST PUSH2 0x2271 DUP2 DUP6 PUSH2 0x200E JUMP JUMPDEST SWAP4 POP PUSH2 0x227C DUP4 PUSH2 0x201F JUMP JUMPDEST DUP1 PUSH1 0x0 JUMPDEST DUP4 DUP2 LT ISZERO PUSH2 0x22AD JUMPI DUP2 MLOAD PUSH2 0x2294 DUP9 DUP3 PUSH2 0x2236 JUMP JUMPDEST SWAP8 POP PUSH2 0x229F DUP4 PUSH2 0x224F JUMP JUMPDEST SWAP3 POP POP PUSH1 0x1 DUP2 ADD SWAP1 POP PUSH2 0x2280 JUMP JUMPDEST POP DUP6 SWAP4 POP POP POP POP SWAP3 SWAP2 POP POP JUMP JUMPDEST PUSH1 0x0 PUSH1 0x20 DUP3 ADD SWAP1 POP DUP2 DUP2 SUB PUSH1 0x0 DUP4 ADD MSTORE PUSH2 0x22D4 DUP2 DUP5 PUSH2 0x225C JUMP JUMPDEST SWAP1 POP SWAP3 SWAP2 POP POP JUMP JUMPDEST PUSH1 0x0 PUSH1 0x20 DUP3 DUP5 SUB SLT ISZERO PUSH2 0x22F2 JUMPI PUSH2 0x22F1 PUSH2 0x1F88 JUMP JUMPDEST JUMPDEST PUSH1 0x0 PUSH2 0x2300 DUP5 DUP3 DUP6 ADD PUSH2 0x1FAE JUMP JUMPDEST SWAP2 POP POP SWAP3 SWAP2 POP POP JUMP JUMPDEST PUSH2 0x2312 DUP2 PUSH2 0x1F8D JUMP JUMPDEST DUP3 MSTORE POP POP JUMP JUMPDEST PUSH1 0x0 PUSH1 0x20 DUP3 ADD SWAP1 POP PUSH2 0x232D PUSH1 0x0 DUP4 ADD DUP5 PUSH2 0x2309 JUMP JUMPDEST SWAP3 SWAP2 POP POP JUMP JUMPDEST PUSH2 0x233C DUP2 PUSH2 0x205E JUMP JUMPDEST DUP2 EQ PUSH2 0x2347 JUMPI PUSH1 0x0 DUP1 REVERT JUMPDEST POP JUMP JUMPDEST PUSH1 0x0 DUP2 CALLDATALOAD SWAP1 POP PUSH2 0x2359 DUP2 PUSH2 0x2333 JUMP JUMPDEST SWAP3 SWAP2 POP POP JUMP JUMPDEST PUSH1 0x0 DUP1 PUSH1 0x40 DUP4 DUP6 SUB SLT ISZERO PUSH2 0x2376 JUMPI PUSH2 0x2375 PUSH2 0x1F88 JUMP JUMPDEST JUMPDEST PUSH1 0x0 PUSH2 0x2384 DUP6 DUP3 DUP7 ADD PUSH2 0x234A JUMP JUMPDEST SWAP3 POP POP PUSH1 0x20 PUSH2 0x2395 DUP6 DUP3 DUP7 ADD PUSH2 0x1FAE JUMP JUMPDEST SWAP2 POP POP SWAP3 POP SWAP3 SWAP1 POP JUMP JUMPDEST PUSH1 0x0 DUP1 PUSH1 0x0 DUP1 PUSH1 0x0 PUSH1 0xA0 DUP7 DUP9 SUB SLT ISZERO PUSH2 0x23BB JUMPI PUSH2 0x23BA PUSH2 0x1F88 JUMP JUMPDEST JUMPDEST PUSH1 0x0 PUSH2 0x23C9 DUP9 DUP3 DUP10 ADD PUSH2 0x234A JUMP JUMPDEST SWAP6 POP POP PUSH1 0x20 PUSH2 0x23DA DUP9 DUP3 DUP10 ADD PUSH2 0x1FAE JUMP JUMPDEST SWAP5 POP POP PUSH1 0x40 PUSH2 0x23EB DUP9 DUP3 DUP10 ADD PUSH2 0x1FAE JUMP JUMPDEST SWAP4 POP POP PUSH1 0x60 PUSH2 0x23FC DUP9 DUP3 DUP10 ADD PUSH2 0x1FAE JUMP JUMPDEST SWAP3 POP POP PUSH1 0x80 PUSH2 0x240D DUP9 DUP3 DUP10 ADD PUSH2 0x1FAE JUMP JUMPDEST SWAP2 POP POP SWAP3 SWAP6 POP SWAP3 SWAP6 SWAP1 SWAP4 POP JUMP JUMPDEST PUSH1 0x0 DUP1 PUSH1 0x0 PUSH1 0x60 DUP5 DUP7 SUB SLT ISZERO PUSH2 0x2433 JUMPI PUSH2 0x2432 PUSH2 0x1F88 JUMP JUMPDEST JUMPDEST PUSH1 0x0 PUSH2 0x2441 DUP7 DUP3 DUP8 ADD PUSH2 0x234A JUMP JUMPDEST SWAP4 POP POP PUSH1 0x20 PUSH2 0x2452 DUP7 DUP3 DUP8 ADD PUSH2 0x1FAE JUMP JUMPDEST SWAP3 POP POP PUSH1 0x40 PUSH2 0x2463 DUP7 DUP3 DUP8 ADD PUSH2 0x1FAE JUMP JUMPDEST SWAP2 POP POP SWAP3 POP SWAP3 POP SWAP3 JUMP JUMPDEST PUSH2 0x2476 DUP2 PUSH2 0x205E JUMP JUMPDEST DUP3 MSTORE POP POP JUMP JUMPDEST PUSH1 0x0 PUSH1 0x20 DUP3 ADD SWAP1 POP PUSH2 0x2491 PUSH1 0x0 DUP4 ADD DUP5 PUSH2 0x246D JUMP JUMPDEST SWAP3 SWAP2 POP POP JUMP JUMPDEST PUSH1 0x0 PUSH1 0x20 DUP3 DUP5 SUB SLT ISZERO PUSH2 0x24AD JUMPI PUSH2 0x24AC PUSH2 0x1F88 JUMP JUMPDEST JUMPDEST PUSH1 0x0 PUSH2 0x24BB DUP5 DUP3 DUP6 ADD PUSH2 0x234A JUMP JUMPDEST SWAP2 POP POP SWAP3 SWAP2 POP POP JUMP JUMPDEST PUSH2 0x24CD DUP2 PUSH2 0x20D5 JUMP JUMPDEST DUP3 MSTORE POP POP JUMP JUMPDEST PUSH1 0x0 PUSH1 0x20 DUP3 ADD SWAP1 POP PUSH2 0x24E8 PUSH1 0x0 DUP4 ADD DUP5 PUSH2 0x24C4 JUMP JUMPDEST SWAP3 SWAP2 POP POP JUMP JUMPDEST PUSH1 0x0 DUP2 SWAP1 POP SWAP2 SWAP1 POP JUMP JUMPDEST PUSH1 0x0 PUSH2 0x2513 PUSH2 0x250E PUSH2 0x2509 DUP5 PUSH2 0x203E JUMP JUMPDEST PUSH2 0x24EE JUMP JUMPDEST PUSH2 0x203E JUMP JUMPDEST SWAP1 POP SWAP2 SWAP1 POP JUMP JUMPDEST PUSH1 0x0 PUSH2 0x2525 DUP3 PUSH2 0x24F8 JUMP JUMPDEST SWAP1 POP SWAP2 SWAP1 POP JUMP JUMPDEST PUSH1 0x0 PUSH2 0x2537 DUP3 PUSH2 0x251A JUMP JUMPDEST SWAP1 POP SWAP2 SWAP1 POP JUMP JUMPDEST PUSH2 0x2547 DUP2 PUSH2 0x252C JUMP JUMPDEST DUP3 MSTORE POP POP JUMP JUMPDEST PUSH1 0x0 PUSH1 0x20 DUP3 ADD SWAP1 POP PUSH2 0x2562 PUSH1 0x0 DUP4 ADD DUP5 PUSH2 0x253E JUMP JUMPDEST SWAP3 SWAP2 POP POP JUMP JUMPDEST PUSH32 0x4E487B7100000000000000000000000000000000000000000000000000000000 PUSH1 0x0 MSTORE PUSH1 0x41 PUSH1 0x4 MSTORE PUSH1 0x24 PUSH1 0x0 REVERT JUMPDEST PUSH32 0x4E487B7100000000000000000000000000000000000000000000000000000000 PUSH1 0x0 MSTORE PUSH1 0x11 PUSH1 0x4 MSTORE PUSH1 0x24 PUSH1 0x0 REVERT JUMPDEST PUSH1 0x0 PUSH2 0x25D1 DUP3 PUSH2 0x1F8D JUMP JUMPDEST SWAP2 POP PUSH2 0x25DC DUP4 PUSH2 0x1F8D JUMP JUMPDEST SWAP3 POP DUP3 DUP3 ADD SWAP1 POP DUP1 DUP3 GT ISZERO PUSH2 0x25F4 JUMPI PUSH2 0x25F3 PUSH2 0x2597 JUMP JUMPDEST JUMPDEST SWAP3 SWAP2 POP POP JUMP JUMPDEST PUSH32 0x4E487B7100000000000000000000000000000000000000000000000000000000 PUSH1 0x0 MSTORE PUSH1 0x32 PUSH1 0x4 MSTORE PUSH1 0x24 PUSH1 0x0 REVERT JUMPDEST PUSH1 0x0 PUSH2 0x2634 DUP3 PUSH2 0x1F8D JUMP JUMPDEST SWAP2 POP PUSH32 0xFFFFFFFFFFFFFFFFFFFFFFFFFFFFFFFFFFFFFFFFFFFFFFFFFFFFFFFFFFFFFFFF DUP3 SUB PUSH2 0x2666 JUMPI PUSH2 0x2665 PUSH2 0x2597 JUMP JUMPDEST JUMPDEST PUSH1 0x1 DUP3 ADD SWAP1 POP SWAP2 SWAP1 POP JUMP JUMPDEST PUSH1 0x0 PUSH1 0x60 DUP3 ADD SWAP1 POP PUSH2 0x2686 PUSH1 0x0 DUP4 ADD DUP7 PUSH2 0x246D JUMP JUMPDEST PUSH2 0x2693 PUSH1 0x20 DUP4 ADD DUP6 PUSH2 0x246D JUMP JUMPDEST PUSH2 0x26A0 PUSH1 0x40 DUP4 ADD DUP5 PUSH2 0x2309 JUMP JUMPDEST SWAP5 SWAP4 POP POP POP POP JUMP JUMPDEST PUSH1 0x0 DUP2 ISZERO ISZERO SWAP1 POP SWAP2 SWAP1 POP JUMP JUMPDEST PUSH2 0x26BD DUP2 PUSH2 0x26A8 JUMP JUMPDEST DUP2 EQ PUSH2 0x26C8 JUMPI PUSH1 0x0 DUP1 REVERT JUMPDEST POP JUMP JUMPDEST PUSH1 0x0 DUP2 MLOAD SWAP1 POP PUSH2 0x26DA DUP2 PUSH2 0x26B4 JUMP JUMPDEST SWAP3 SWAP2 POP POP JUMP JUMPDEST PUSH1 0x0 PUSH1 0x20 DUP3 DUP5 SUB SLT ISZERO PUSH2 0x26F6 JUMPI PUSH2 0x26F5 PUSH2 0x1F88 JUMP JUMPDEST JUMPDEST PUSH1 0x0 PUSH2 0x2704 DUP5 DUP3 DUP6 ADD PUSH2 0x26CB JUMP JUMPDEST SWAP2 POP POP SWAP3 SWAP2 POP POP JUMP JUMPDEST PUSH1 0x0 PUSH2 0x2718 DUP3 PUSH2 0x1F8D JUMP JUMPDEST SWAP2 POP PUSH2 0x2723 DUP4 PUSH2 0x1F8D JUMP JUMPDEST SWAP3 POP DUP3 DUP3 SUB SWAP1 POP DUP2 DUP2 GT ISZERO PUSH2 0x273B JUMPI PUSH2 0x273A PUSH2 0x2597 JUMP JUMPDEST JUMPDEST SWAP3 SWAP2 POP POP JUMP JUMPDEST PUSH1 0x0 PUSH2 0x274C DUP3 PUSH2 0x1F8D JUMP JUMPDEST SWAP2 POP PUSH1 0x0 DUP3 SUB PUSH2 0x275F JUMPI PUSH2 0x275E PUSH2 0x2597 JUMP JUMPDEST JUMPDEST PUSH1 0x1 DUP3 SUB SWAP1 POP SWAP2 SWAP1 POP JUMP JUMPDEST PUSH1 0x0 PUSH32 0xFFFFFFFF00000000000000000000000000000000000000000000000000000000 DUP3 AND SWAP1 POP SWAP2 SWAP1 POP JUMP JUMPDEST PUSH2 0x279F DUP2 PUSH2 0x276A JUMP JUMPDEST DUP3 MSTORE POP POP JUMP JUMPDEST PUSH1 0x0 PUSH1 0x20 DUP3 ADD SWAP1 POP PUSH2 0x27BA PUSH1 0x0 DUP4 ADD DUP5 PUSH2 0x2796 JUMP JUMPDEST SWAP3 SWAP2 POP POP JUMP JUMPDEST PUSH1 0x0 DUP3 DUP3 MSTORE PUSH1 0x20 DUP3 ADD SWAP1 POP SWAP3 SWAP2 POP POP JUMP JUMPDEST POP JUMP JUMPDEST PUSH1 0x0 PUSH2 0x27E1 PUSH1 0x0 DUP4 PUSH2 0x27C0 JUMP JUMPDEST SWAP2 POP PUSH2 0x27EC DUP3 PUSH2 0x27D1 JUMP JUMPDEST PUSH1 0x0 DUP3 ADD SWAP1 POP SWAP2 SWAP1 POP JUMP JUMPDEST PUSH1 0x0 PUSH1 0xA0 DUP3 ADD SWAP1 POP PUSH2 0x280C PUSH1 0x0 DUP4 ADD DUP8 PUSH2 0x246D JUMP JUMPDEST PUSH2 0x2819 PUSH1 0x20 DUP4 ADD DUP7 PUSH2 0x246D JUMP JUMPDEST PUSH2 0x2826 PUSH1 0x40 DUP4 ADD DUP6 PUSH2 0x2309 JUMP JUMPDEST PUSH2 0x2833 PUSH1 0x60 DUP4 ADD DUP5 PUSH2 0x2309 JUMP JUMPDEST DUP2 DUP2 SUB PUSH1 0x80 DUP4 ADD MSTORE PUSH2 0x2844 DUP2 PUSH2 0x27D4 JUMP JUMPDEST SWAP1 POP SWAP6 SWAP5 POP POP POP POP POP JUMP INVALID LOG2 PUSH5 0x6970667358 0x22 SLT KECCAK256 STOP PUSH28 0x9FB3DE4384F8F3783911E5F4AEBE1EFD395508FBFD5BC3C610FDEFB1 0xEC 0x5E PUSH5 0x736F6C6343 STOP ADDMOD SLT STOP CALLER "
				},
				"gasEstimates": {
					"creation": {
						"codeDepositCost": "2074600",
						"executionCost": "infinite",
						"totalCost": "infinite"
					},
					"external": {
						"borrow(address,uint256,uint256)": "infinite",
						"createP2POrder(address,uint256,uint256,uint256,uint256)": "infinite",
						"getIndexByNftAddressAndId(address,uint256)": "infinite",
						"getNftAddressByIndex(uint256)": "2982",
						"getNodes(uint256,uint256)": "infinite",
						"getTokenIdByIndex(uint256)": "infinite",
						"identifyNFT(address)": "infinite",
						"lend(address,uint256)": "infinite",
						"revokeOrder(address,uint256,uint256)": "infinite",
						"setAdministrator(address)": "infinite",
						"setBorrowPricePercentage()": "2381",
						"timeOut(address,uint256)": "infinite",
						"token()": "infinite"
					},
					"internal": {
						"getBorrowPrice(uint256)": "28",
						"nftTransfer(address,uint256,address,address,uint256)": "infinite"
					}
				},
				"methodIdentifiers": {
					"borrow(address,uint256,uint256)": "c1bce0b7",
					"createP2POrder(address,uint256,uint256,uint256,uint256)": "50a8f34f",
					"getIndexByNftAddressAndId(address,uint256)": "4f123802",
					"getNftAddressByIndex(uint256)": "6fa425fe",
					"getNodes(uint256,uint256)": "038d67e8",
					"getTokenIdByIndex(uint256)": "49f202ff",
					"identifyNFT(address)": "f85565fb",
					"lend(address,uint256)": "a2fb342d",
					"revokeOrder(address,uint256,uint256)": "55d6e655",
					"setAdministrator(address)": "df8089ef",
					"setBorrowPricePercentage()": "ccf01b7e",
					"timeOut(address,uint256)": "e6eb8981",
					"token()": "fc0c546a"
				}
			},
			"storageLayout": {
				"storage": [
					{
						"astId": 2386,
						"contract": "vinci-protocol/contracts/PtoPOrders.sol:PtoP",
						"label": "token",
						"offset": 0,
						"slot": "0",
						"type": "t_contract(IERC20)213"
					},
					{
						"astId": 2388,
						"contract": "vinci-protocol/contracts/PtoPOrders.sol:PtoP",
						"label": "administrator",
						"offset": 0,
						"slot": "1",
						"type": "t_address"
					},
					{
						"astId": 2424,
						"contract": "vinci-protocol/contracts/PtoPOrders.sol:PtoP",
						"label": "orders",
						"offset": 0,
						"slot": "2",
						"type": "t_mapping(t_address,t_mapping(t_uint256,t_struct(Order)2470_storage))"
					},
					{
						"astId": 2429,
						"contract": "vinci-protocol/contracts/PtoPOrders.sol:PtoP",
						"label": "nfts",
						"offset": 0,
						"slot": "3",
						"type": "t_mapping(t_uint256,t_struct(NFT)2442_storage)"
					},
					{
						"astId": 2432,
						"contract": "vinci-protocol/contracts/PtoPOrders.sol:PtoP",
						"label": "length",
						"offset": 0,
						"slot": "4",
						"type": "t_uint256"
					}
				],
				"types": {
					"t_address": {
						"encoding": "inplace",
						"label": "address",
						"numberOfBytes": "20"
					},
					"t_contract(IERC20)213": {
						"encoding": "inplace",
						"label": "contract IERC20",
						"numberOfBytes": "20"
					},
					"t_enum(NftType)2446": {
						"encoding": "inplace",
						"label": "enum PtoP.NftType",
						"numberOfBytes": "1"
					},
					"t_enum(States)2451": {
						"encoding": "inplace",
						"label": "enum PtoP.States",
						"numberOfBytes": "1"
					},
					"t_mapping(t_address,t_mapping(t_uint256,t_struct(Order)2470_storage))": {
						"encoding": "mapping",
						"key": "t_address",
						"label": "mapping(address => mapping(uint256 => struct PtoP.Order))",
						"numberOfBytes": "32",
						"value": "t_mapping(t_uint256,t_struct(Order)2470_storage)"
					},
					"t_mapping(t_uint256,t_struct(NFT)2442_storage)": {
						"encoding": "mapping",
						"key": "t_uint256",
						"label": "mapping(uint256 => struct PtoP.NFT)",
						"numberOfBytes": "32",
						"value": "t_struct(NFT)2442_storage"
					},
					"t_mapping(t_uint256,t_struct(Order)2470_storage)": {
						"encoding": "mapping",
						"key": "t_uint256",
						"label": "mapping(uint256 => struct PtoP.Order)",
						"numberOfBytes": "32",
						"value": "t_struct(Order)2470_storage"
					},
					"t_struct(NFT)2442_storage": {
						"encoding": "inplace",
						"label": "struct PtoP.NFT",
						"members": [
							{
								"astId": 2434,
								"contract": "vinci-protocol/contracts/PtoPOrders.sol:PtoP",
								"label": "nftAddress",
								"offset": 0,
								"slot": "0",
								"type": "t_address"
							},
							{
								"astId": 2436,
								"contract": "vinci-protocol/contracts/PtoPOrders.sol:PtoP",
								"label": "tokenId",
								"offset": 0,
								"slot": "1",
								"type": "t_uint256"
							},
							{
								"astId": 2439,
								"contract": "vinci-protocol/contracts/PtoPOrders.sol:PtoP",
								"label": "nftType",
								"offset": 0,
								"slot": "2",
								"type": "t_enum(NftType)2446"
							},
							{
								"astId": 2441,
								"contract": "vinci-protocol/contracts/PtoPOrders.sol:PtoP",
								"label": "amount",
								"offset": 0,
								"slot": "3",
								"type": "t_uint256"
							}
						],
						"numberOfBytes": "128"
					},
					"t_struct(Order)2470_storage": {
						"encoding": "inplace",
						"label": "struct PtoP.Order",
						"members": [
							{
								"astId": 2453,
								"contract": "vinci-protocol/contracts/PtoPOrders.sol:PtoP",
								"label": "blockNumber",
								"offset": 0,
								"slot": "0",
								"type": "t_uint256"
							},
							{
								"astId": 2455,
								"contract": "vinci-protocol/contracts/PtoPOrders.sol:PtoP",
								"label": "borrower",
								"offset": 0,
								"slot": "1",
								"type": "t_address"
							},
							{
								"astId": 2457,
								"contract": "vinci-protocol/contracts/PtoPOrders.sol:PtoP",
								"label": "price",
								"offset": 0,
								"slot": "2",
								"type": "t_uint256"
							},
							{
								"astId": 2459,
								"contract": "vinci-protocol/contracts/PtoPOrders.sol:PtoP",
								"label": "loanTime",
								"offset": 0,
								"slot": "3",
								"type": "t_uint256"
							},
							{
								"astId": 2461,
								"contract": "vinci-protocol/contracts/PtoPOrders.sol:PtoP",
								"label": "borrowTime",
								"offset": 0,
								"slot": "4",
								"type": "t_uint256"
							},
							{
								"astId": 2463,
								"contract": "vinci-protocol/contracts/PtoPOrders.sol:PtoP",
								"label": "lender",
								"offset": 0,
								"slot": "5",
								"type": "t_address"
							},
							{
								"astId": 2466,
								"contract": "vinci-protocol/contracts/PtoPOrders.sol:PtoP",
								"label": "nft",
								"offset": 0,
								"slot": "6",
								"type": "t_struct(NFT)2442_storage"
							},
							{
								"astId": 2469,
								"contract": "vinci-protocol/contracts/PtoPOrders.sol:PtoP",
								"label": "state",
								"offset": 0,
								"slot": "10",
								"type": "t_enum(States)2451"
							}
						],
						"numberOfBytes": "352"
					},
					"t_uint256": {
						"encoding": "inplace",
						"label": "uint256",
						"numberOfBytes": "32"
					}
				}
			},
			"userdoc": {
				"kind": "user",
				"methods": {},
				"version": 1
			}
		}
	}
}